{
  "abi": [
    {
      "inputs": [
        {
          "internalType": "bytes32[]",
          "name": "_insuredsNegPcrHash",
          "type": "bytes32[]"
        },
        {
          "internalType": "uint256[]",
          "name": "_insuredsNegPcrDate",
          "type": "uint256[]"
        },
        {
          "internalType": "bytes32[]",
          "name": "_ids",
          "type": "bytes32[]"
        },
        {
          "internalType": "bytes32[]",
          "name": "_insureds",
          "type": "bytes32[]"
        },
        {
          "internalType": "uint256[]",
          "name": "_insuranceStartFinishDate",
          "type": "uint256[]"
        },
        {
          "internalType": "uint16[]",
          "name": "_dailyCompensationAndDuration",
          "type": "uint16[]"
        },
        {
          "internalType": "bytes32[]",
          "name": "_takerData",
          "type": "bytes32[]"
        },
        {
          "internalType": "string",
          "name": "_takerName",
          "type": "string"
        },
        {
          "internalType": "string",
          "name": "_takerAddress",
          "type": "string"
        },
        {
          "internalType": "string",
          "name": "_takerEmail",
          "type": "string"
        }
      ],
      "stateMutability": "nonpayable",
      "type": "constructor"
    },
    {
      "anonymous": false,
      "inputs": [
        {
          "indexed": false,
          "internalType": "uint256",
          "name": "quantity",
          "type": "uint256"
        },
        {
          "indexed": false,
          "internalType": "bytes32",
          "name": "hotelId",
          "type": "bytes32"
        },
        {
          "indexed": false,
          "internalType": "bytes32",
          "name": "hotelIban",
          "type": "bytes32"
        }
      ],
      "name": "checkPayment",
      "type": "event"
    },
    {
      "anonymous": false,
      "inputs": [
        {
          "indexed": false,
          "internalType": "bytes32",
          "name": "customerId",
          "type": "bytes32"
        },
        {
          "indexed": false,
          "internalType": "uint256",
          "name": "resultDate",
          "type": "uint256"
        }
      ],
      "name": "positivePcr",
      "type": "event"
    },
    {
      "inputs": [
        {
          "internalType": "bytes32",
          "name": "_insuredId",
          "type": "bytes32"
        },
        {
          "internalType": "bytes32",
          "name": "_idPcr",
          "type": "bytes32"
        },
        {
          "internalType": "uint256",
          "name": "_requestDate",
          "type": "uint256"
        },
        {
          "internalType": "address",
          "name": "_contractAddress",
          "type": "address"
        }
      ],
      "name": "addPCRtoInsured",
      "outputs": [],
      "stateMutability": "nonpayable",
      "type": "function"
    },
    {
      "inputs": [
        {
          "internalType": "address",
          "name": "_spcAddress",
          "type": "address"
        }
      ],
      "name": "addSpcAddress",
      "outputs": [],
      "stateMutability": "nonpayable",
      "type": "function"
    },
    {
      "inputs": [],
      "name": "calculateCompensation",
      "outputs": [
        {
          "internalType": "uint256",
          "name": "amount",
          "type": "uint256"
        }
      ],
      "stateMutability": "view",
      "type": "function"
    },
    {
      "inputs": [],
      "name": "compensation",
      "outputs": [],
      "stateMutability": "nonpayable",
      "type": "function"
    },
    {
      "inputs": [
        {
          "internalType": "bytes32",
          "name": "_idPCR",
          "type": "bytes32"
        }
      ],
      "name": "deletePCR",
      "outputs": [
        {
          "internalType": "address",
          "name": "_pcrContractAddress",
          "type": "address"
        }
      ],
      "stateMutability": "nonpayable",
      "type": "function"
    },
    {
      "inputs": [],
      "name": "destructContract",
      "outputs": [],
      "stateMutability": "nonpayable",
      "type": "function"
    },
    {
      "inputs": [],
      "name": "getId",
      "outputs": [
        {
          "internalType": "bytes32",
          "name": "insuranceId",
          "type": "bytes32"
        }
      ],
      "stateMutability": "view",
      "type": "function"
    },
    {
      "inputs": [],
      "name": "getInsuranceData",
      "outputs": [
        {
          "internalType": "bytes32",
          "name": "idPolicy",
          "type": "bytes32"
        },
        {
          "internalType": "uint16",
          "name": "dailyCompensationPolicy",
          "type": "uint16"
        },
        {
          "internalType": "uint16",
          "name": "daysToCompensatePolicy",
          "type": "uint16"
        },
        {
          "internalType": "uint16",
          "name": "insuredNumberPolicy",
          "type": "uint16"
        },
        {
          "internalType": "uint256",
          "name": "startDatePolicy",
          "type": "uint256"
        },
        {
          "internalType": "uint256",
          "name": "finishDatePolicy",
          "type": "uint256"
        },
        {
          "internalType": "bytes32[]",
          "name": "insureds",
          "type": "bytes32[]"
        }
      ],
      "stateMutability": "view",
      "type": "function"
    },
    {
      "inputs": [
        {
          "internalType": "bytes32",
          "name": "_idPCR",
          "type": "bytes32"
        }
      ],
      "name": "getPCR",
      "outputs": [
        {
          "internalType": "bytes32",
          "name": "result",
          "type": "bytes32"
        },
        {
          "internalType": "bytes32",
          "name": "customerId",
          "type": "bytes32"
        },
        {
          "internalType": "uint256",
          "name": "requestDate",
          "type": "uint256"
        },
        {
          "internalType": "uint256",
          "name": "resultDate",
          "type": "uint256"
        },
        {
          "internalType": "bytes32",
          "name": "id",
          "type": "bytes32"
        },
        {
          "internalType": "address",
          "name": "pcrContractAddress",
          "type": "address"
        }
      ],
      "stateMutability": "view",
      "type": "function"
    },
    {
      "inputs": [],
      "name": "getTakerData",
      "outputs": [
        {
          "internalType": "bytes32",
          "name": "takerId",
          "type": "bytes32"
        },
        {
          "internalType": "bytes32",
          "name": "takerNif",
          "type": "bytes32"
        },
        {
          "internalType": "string",
          "name": "takerFullName",
          "type": "string"
        },
        {
          "internalType": "string",
          "name": "takerContactAddress",
          "type": "string"
        },
        {
          "internalType": "bytes32",
          "name": "takerContactPostalCode",
          "type": "bytes32"
        },
        {
          "internalType": "bytes32",
          "name": "takerContactTown",
          "type": "bytes32"
        },
        {
          "internalType": "bytes32",
          "name": "takerContactLocation",
          "type": "bytes32"
        },
        {
          "internalType": "bytes32",
          "name": "takerContactTelephone",
          "type": "bytes32"
        },
        {
          "internalType": "bytes32",
          "name": "takerContactMobile",
          "type": "bytes32"
        },
        {
          "internalType": "string",
          "name": "takerContactEmail",
          "type": "string"
        },
        {
          "internalType": "bytes32",
          "name": "takerIBAN",
          "type": "bytes32"
        }
      ],
      "stateMutability": "view",
      "type": "function"
    },
    {
      "inputs": [],
      "name": "getTakerId",
      "outputs": [
        {
          "internalType": "bytes32",
          "name": "takerId",
          "type": "bytes32"
        }
      ],
      "stateMutability": "view",
      "type": "function"
    },
    {
      "inputs": [],
      "name": "serializeInsurance",
      "outputs": [
        {
          "internalType": "bytes",
          "name": "_serializedInsurance",
          "type": "bytes"
        },
        {
          "internalType": "uint256",
          "name": "_size",
          "type": "uint256"
        }
      ],
      "stateMutability": "view",
      "type": "function"
    },
    {
      "inputs": [
        {
          "internalType": "bytes32",
          "name": "_idPCR",
          "type": "bytes32"
        },
        {
          "internalType": "bytes32",
          "name": "_resultPCR",
          "type": "bytes32"
        }
      ],
      "name": "updatePCR",
      "outputs": [],
      "stateMutability": "nonpayable",
      "type": "function"
    }
  ],
  "devdoc": {
    "author": "Eduardo Suarez Ojeda",
    "details": "The Insurance Contract which represents the state of an insurance taken out by a hotel.",
    "kind": "dev",
    "methods": {
      "addPCRtoInsured(bytes32,bytes32,uint256,address)": {
        "details": "Update the PCR mappings."
      },
      "addSpcAddress(address)": {
        "details": "Updates the address of the general contract for security reasons."
      },
      "calculateCompensation()": {
        "details": "Returns only a fixed number."
      },
      "compensation()": {
        "details": "Emit the sinister event."
      },
      "deletePCR(bytes32)": {
        "details": "Updates the state of the PCR selected."
      },
      "destructContract()": {
        "details": "Only use in extreme situations."
      },
      "serializeInsurance()": {
        "details": "Returns all data of the insurance in an array of bytes."
      },
      "updatePCR(bytes32,bytes32)": {
        "details": "Update the PCR selected and fires Sinister event if the result is positive."
      }
    },
    "title": "Insurance",
    "version": 1
  },
  "evm": {
    "assembly": "    /* \"Insurance.sol\":2146:19722  contract Insurance is Seriality {... */\n  mstore(0x40, 0x80)\n    /* \"Insurance.sol\":4460:7046  constructor(... */\n  callvalue\n  dup1\n  iszero\n  tag_1\n  jumpi\n  0x00\n  dup1\n  revert\ntag_1:\n  pop\n  mload(0x40)\n  sub(codesize, bytecodeSize)\n  dup1\n  bytecodeSize\n  dup4\n  codecopy\n  dup2\n  dup2\n  add\n  0x40\n  mstore\n  dup2\n  add\n  swap1\n  tag_2\n  swap2\n  swap1\n  tag_3\n  jump\t// in\ntag_2:\n    /* \"Insurance.sol\":4918:4928  msg.sender */\n  caller\n    /* \"Insurance.sol\":4902:4907  owner */\n  0x00\n  dup1\n    /* \"Insurance.sol\":4902:4929  owner = payable(msg.sender) */\n  0x0100\n  exp\n  dup2\n  sload\n  dup2\n  0xffffffffffffffffffffffffffffffffffffffff\n  mul\n  not\n  and\n  swap1\n  dup4\n  0xffffffffffffffffffffffffffffffffffffffff\n  and\n  mul\n  or\n  swap1\n  sstore\n  pop\n    /* \"Insurance.sol\":4957:4962  false */\n  0x00\n    /* \"Insurance.sol\":4939:4954  spcAddressAdded */\n  0x01\n  0x14\n    /* \"Insurance.sol\":4939:4962  spcAddressAdded = false */\n  0x0100\n  exp\n  dup2\n  sload\n  dup2\n  0xff\n  mul\n  not\n  and\n  swap1\n  dup4\n  iszero\n  iszero\n  mul\n  or\n  swap1\n  sstore\n  pop\n    /* \"Insurance.sol\":4995:5006  _takerEmail */\n  dup1\n    /* \"Insurance.sol\":4972:4981  takerData */\n  0x10\n    /* \"Insurance.sol\":4972:4992  takerData.takerEmail */\n  0x02\n  add\n    /* \"Insurance.sol\":4972:5006  takerData.takerEmail = _takerEmail */\n  swap1\n  dup1\n  mload\n  swap1\n  0x20\n  add\n  swap1\n  tag_8\n  swap3\n  swap2\n  swap1\n  tag_9\n  jump\t// in\ntag_8:\n  pop\n    /* \"Insurance.sol\":5041:5054  _takerAddress */\n  dup2\n    /* \"Insurance.sol\":5016:5025  takerData */\n  0x10\n    /* \"Insurance.sol\":5016:5038  takerData.takerAddress */\n  0x01\n  add\n    /* \"Insurance.sol\":5016:5054  takerData.takerAddress = _takerAddress */\n  swap1\n  dup1\n  mload\n  swap1\n  0x20\n  add\n  swap1\n  tag_10\n  swap3\n  swap2\n  swap1\n  tag_9\n  jump\t// in\ntag_10:\n  pop\n    /* \"Insurance.sol\":5086:5096  _takerName */\n  dup3\n    /* \"Insurance.sol\":5064:5073  takerData */\n  0x10\n    /* \"Insurance.sol\":5064:5083  takerData.takerName */\n  0x00\n  add\n    /* \"Insurance.sol\":5064:5096  takerData.takerName = _takerName */\n  swap1\n  dup1\n  mload\n  swap1\n  0x20\n  add\n  swap1\n  tag_11\n  swap3\n  swap2\n  swap1\n  tag_9\n  jump\t// in\ntag_11:\n  pop\n    /* \"Insurance.sol\":5127:5137  _takerData */\n  dup4\n    /* \"Insurance.sol\":5138:5139  0 */\n  0x00\n    /* \"Insurance.sol\":5127:5140  _takerData[0] */\n  dup2\n  mload\n  dup2\n  lt\n  tag_12\n  jumpi\n  mstore(0x00, 0x4e487b7100000000000000000000000000000000000000000000000000000000)\n  mstore(0x04, 0x32)\n  revert(0x00, 0x24)\ntag_12:\n  0x20\n  mul\n  0x20\n  add\n  add\n  mload\n    /* \"Insurance.sol\":5106:5115  takerData */\n  0x10\n    /* \"Insurance.sol\":5106:5124  takerData.takerNif */\n  0x04\n  add\n    /* \"Insurance.sol\":5106:5140  takerData.takerNif = _takerData[0] */\n  dup2\n  swap1\n  sstore\n  pop\n    /* \"Insurance.sol\":5178:5188  _takerData */\n  dup4\n    /* \"Insurance.sol\":5189:5190  1 */\n  0x01\n    /* \"Insurance.sol\":5178:5191  _takerData[1] */\n  dup2\n  mload\n  dup2\n  lt\n  tag_13\n  jumpi\n  mstore(0x00, 0x4e487b7100000000000000000000000000000000000000000000000000000000)\n  mstore(0x04, 0x32)\n  revert(0x00, 0x24)\ntag_13:\n  0x20\n  mul\n  0x20\n  add\n  add\n  mload\n    /* \"Insurance.sol\":5150:5159  takerData */\n  0x10\n    /* \"Insurance.sol\":5150:5175  takerData.takerPostalCode */\n  0x05\n  add\n    /* \"Insurance.sol\":5150:5191  takerData.takerPostalCode = _takerData[1] */\n  dup2\n  swap1\n  sstore\n  pop\n    /* \"Insurance.sol\":5223:5233  _takerData */\n  dup4\n    /* \"Insurance.sol\":5234:5235  2 */\n  0x02\n    /* \"Insurance.sol\":5223:5236  _takerData[2] */\n  dup2\n  mload\n  dup2\n  lt\n  tag_14\n  jumpi\n  mstore(0x00, 0x4e487b7100000000000000000000000000000000000000000000000000000000)\n  mstore(0x04, 0x32)\n  revert(0x00, 0x24)\ntag_14:\n  0x20\n  mul\n  0x20\n  add\n  add\n  mload\n    /* \"Insurance.sol\":5201:5210  takerData */\n  0x10\n    /* \"Insurance.sol\":5201:5220  takerData.takerTown */\n  0x06\n  add\n    /* \"Insurance.sol\":5201:5236  takerData.takerTown = _takerData[2] */\n  dup2\n  swap1\n  sstore\n  pop\n    /* \"Insurance.sol\":5272:5282  _takerData */\n  dup4\n    /* \"Insurance.sol\":5283:5284  3 */\n  0x03\n    /* \"Insurance.sol\":5272:5285  _takerData[3] */\n  dup2\n  mload\n  dup2\n  lt\n  tag_15\n  jumpi\n  mstore(0x00, 0x4e487b7100000000000000000000000000000000000000000000000000000000)\n  mstore(0x04, 0x32)\n  revert(0x00, 0x24)\ntag_15:\n  0x20\n  mul\n  0x20\n  add\n  add\n  mload\n    /* \"Insurance.sol\":5246:5255  takerData */\n  0x10\n    /* \"Insurance.sol\":5246:5269  takerData.takerLocation */\n  0x07\n  add\n    /* \"Insurance.sol\":5246:5285  takerData.takerLocation = _takerData[3] */\n  dup2\n  swap1\n  sstore\n  pop\n    /* \"Insurance.sol\":5322:5332  _takerData */\n  dup4\n    /* \"Insurance.sol\":5333:5334  4 */\n  0x04\n    /* \"Insurance.sol\":5322:5335  _takerData[4] */\n  dup2\n  mload\n  dup2\n  lt\n  tag_16\n  jumpi\n  mstore(0x00, 0x4e487b7100000000000000000000000000000000000000000000000000000000)\n  mstore(0x04, 0x32)\n  revert(0x00, 0x24)\ntag_16:\n  0x20\n  mul\n  0x20\n  add\n  add\n  mload\n    /* \"Insurance.sol\":5295:5304  takerData */\n  0x10\n    /* \"Insurance.sol\":5295:5319  takerData.takerTelephone */\n  0x08\n  add\n    /* \"Insurance.sol\":5295:5335  takerData.takerTelephone = _takerData[4] */\n  dup2\n  swap1\n  sstore\n  pop\n    /* \"Insurance.sol\":5369:5379  _takerData */\n  dup4\n    /* \"Insurance.sol\":5380:5381  5 */\n  0x05\n    /* \"Insurance.sol\":5369:5382  _takerData[5] */\n  dup2\n  mload\n  dup2\n  lt\n  tag_17\n  jumpi\n  mstore(0x00, 0x4e487b7100000000000000000000000000000000000000000000000000000000)\n  mstore(0x04, 0x32)\n  revert(0x00, 0x24)\ntag_17:\n  0x20\n  mul\n  0x20\n  add\n  add\n  mload\n    /* \"Insurance.sol\":5345:5354  takerData */\n  0x10\n    /* \"Insurance.sol\":5345:5366  takerData.takerMobile */\n  0x09\n  add\n    /* \"Insurance.sol\":5345:5382  takerData.takerMobile = _takerData[5] */\n  dup2\n  swap1\n  sstore\n  pop\n    /* \"Insurance.sol\":5414:5424  _takerData */\n  dup4\n    /* \"Insurance.sol\":5425:5426  6 */\n  0x06\n    /* \"Insurance.sol\":5414:5427  _takerData[6] */\n  dup2\n  mload\n  dup2\n  lt\n  tag_18\n  jumpi\n  mstore(0x00, 0x4e487b7100000000000000000000000000000000000000000000000000000000)\n  mstore(0x04, 0x32)\n  revert(0x00, 0x24)\ntag_18:\n  0x20\n  mul\n  0x20\n  add\n  add\n  mload\n    /* \"Insurance.sol\":5392:5401  takerData */\n  0x10\n    /* \"Insurance.sol\":5392:5411  takerData.takerIban */\n  0x0a\n  add\n    /* \"Insurance.sol\":5392:5427  takerData.takerIban = _takerData[6] */\n  dup2\n  swap1\n  sstore\n  pop\n    /* \"Insurance.sol\":5485:5486  2 */\n  0x02\n    /* \"Insurance.sol\":5445:5474  _dailyCompensationAndDuration */\n  dup6\n    /* \"Insurance.sol\":5445:5481  _dailyCompensationAndDuration.length */\n  mload\n    /* \"Insurance.sol\":5445:5486  _dailyCompensationAndDuration.length == 2 */\n  eq\n    /* \"Insurance.sol\":5437:5565  require(_dailyCompensationAndDuration.length == 2, \"You have to provide the amount of day compensation and the number of days.\") */\n  tag_19\n  jumpi\n  mload(0x40)\n  0x08c379a000000000000000000000000000000000000000000000000000000000\n  dup2\n  mstore\n  0x04\n  add\n  tag_20\n  swap1\n  tag_21\n  jump\t// in\ntag_20:\n  mload(0x40)\n  dup1\n  swap2\n  sub\n  swap1\n  revert\ntag_19:\n    /* \"Insurance.sol\":5609:5638  _dailyCompensationAndDuration */\n  dup5\n    /* \"Insurance.sol\":5639:5640  0 */\n  0x00\n    /* \"Insurance.sol\":5609:5641  _dailyCompensationAndDuration[0] */\n  dup2\n  mload\n  dup2\n  lt\n  tag_22\n  jumpi\n  mstore(0x00, 0x4e487b7100000000000000000000000000000000000000000000000000000000)\n  mstore(0x04, 0x32)\n  revert(0x00, 0x24)\ntag_22:\n  0x20\n  mul\n  0x20\n  add\n  add\n  mload\n    /* \"Insurance.sol\":5575:5588  insuranceData */\n  0x0a\n    /* \"Insurance.sol\":5575:5606  insuranceData.dailyCompensation */\n  0x00\n  add\n  0x00\n    /* \"Insurance.sol\":5575:5641  insuranceData.dailyCompensation = _dailyCompensationAndDuration[0] */\n  0x0100\n  exp\n  dup2\n  sload\n  dup2\n  0xffff\n  mul\n  not\n  and\n  swap1\n  dup4\n  0xffff\n  and\n  mul\n  or\n  swap1\n  sstore\n  pop\n    /* \"Insurance.sol\":5684:5713  _dailyCompensationAndDuration */\n  dup5\n    /* \"Insurance.sol\":5714:5715  1 */\n  0x01\n    /* \"Insurance.sol\":5684:5716  _dailyCompensationAndDuration[1] */\n  dup2\n  mload\n  dup2\n  lt\n  tag_23\n  jumpi\n  mstore(0x00, 0x4e487b7100000000000000000000000000000000000000000000000000000000)\n  mstore(0x04, 0x32)\n  revert(0x00, 0x24)\ntag_23:\n  0x20\n  mul\n  0x20\n  add\n  add\n  mload\n    /* \"Insurance.sol\":5651:5664  insuranceData */\n  0x0a\n    /* \"Insurance.sol\":5651:5681  insuranceData.daysToCompensate */\n  0x00\n  add\n  0x02\n    /* \"Insurance.sol\":5651:5716  insuranceData.daysToCompensate = _dailyCompensationAndDuration[1] */\n  0x0100\n  exp\n  dup2\n  sload\n  dup2\n  0xffff\n  mul\n  not\n  and\n  swap1\n  dup4\n  0xffff\n  and\n  mul\n  or\n  swap1\n  sstore\n  pop\n    /* \"Insurance.sol\":5770:5771  3 */\n  0x03\n    /* \"Insurance.sol\":5734:5759  _insuranceStartFinishDate */\n  dup7\n    /* \"Insurance.sol\":5734:5766  _insuranceStartFinishDate.length */\n  mload\n    /* \"Insurance.sol\":5734:5771  _insuranceStartFinishDate.length == 3 */\n  eq\n    /* \"Insurance.sol\":5726:5840  require(_insuranceStartFinishDate.length == 3, \"The Policy need a start date, a finish date and a contract date.\") */\n  tag_24\n  jumpi\n  mload(0x40)\n  0x08c379a000000000000000000000000000000000000000000000000000000000\n  dup2\n  mstore\n  0x04\n  add\n  tag_25\n  swap1\n  tag_26\n  jump\t// in\ntag_25:\n  mload(0x40)\n  dup1\n  swap2\n  sub\n  swap1\n  revert\ntag_24:\n    /* \"Insurance.sol\":5889:5914  _insuranceStartFinishDate */\n  dup6\n    /* \"Insurance.sol\":5915:5916  1 */\n  0x01\n    /* \"Insurance.sol\":5889:5917  _insuranceStartFinishDate[1] */\n  dup2\n  mload\n  dup2\n  lt\n  tag_27\n  jumpi\n  mstore(0x00, 0x4e487b7100000000000000000000000000000000000000000000000000000000)\n  mstore(0x04, 0x32)\n  revert(0x00, 0x24)\ntag_27:\n  0x20\n  mul\n  0x20\n  add\n  add\n  mload\n    /* \"Insurance.sol\":5858:5883  _insuranceStartFinishDate */\n  dup7\n    /* \"Insurance.sol\":5884:5885  0 */\n  0x00\n    /* \"Insurance.sol\":5858:5886  _insuranceStartFinishDate[0] */\n  dup2\n  mload\n  dup2\n  lt\n  tag_28\n  jumpi\n  mstore(0x00, 0x4e487b7100000000000000000000000000000000000000000000000000000000)\n  mstore(0x04, 0x32)\n  revert(0x00, 0x24)\ntag_28:\n  0x20\n  mul\n  0x20\n  add\n  add\n  mload\n    /* \"Insurance.sol\":5858:5917  _insuranceStartFinishDate[0] < _insuranceStartFinishDate[1] */\n  lt\n    /* \"Insurance.sol\":5850:5970  require(_insuranceStartFinishDate[0] < _insuranceStartFinishDate[1], \"The start date has to be before the finish date.\") */\n  tag_29\n  jumpi\n  mload(0x40)\n  0x08c379a000000000000000000000000000000000000000000000000000000000\n  dup2\n  mstore\n  0x04\n  add\n  tag_30\n  swap1\n  tag_31\n  jump\t// in\ntag_30:\n  mload(0x40)\n  dup1\n  swap2\n  sub\n  swap1\n  revert\ntag_29:\n    /* \"Insurance.sol\":6015:6040  _insuranceStartFinishDate */\n  dup6\n    /* \"Insurance.sol\":6041:6042  0 */\n  0x00\n    /* \"Insurance.sol\":6015:6043  _insuranceStartFinishDate[0] */\n  dup2\n  mload\n  dup2\n  lt\n  tag_32\n  jumpi\n  mstore(0x00, 0x4e487b7100000000000000000000000000000000000000000000000000000000)\n  mstore(0x04, 0x32)\n  revert(0x00, 0x24)\ntag_32:\n  0x20\n  mul\n  0x20\n  add\n  add\n  mload\n    /* \"Insurance.sol\":5980:5993  insuranceData */\n  0x0a\n    /* \"Insurance.sol\":5980:6012  insuranceData.insuranceStartDate */\n  0x02\n  add\n    /* \"Insurance.sol\":5980:6043  insuranceData.insuranceStartDate = _insuranceStartFinishDate[0] */\n  dup2\n  swap1\n  sstore\n  pop\n    /* \"Insurance.sol\":6090:6115  _insuranceStartFinishDate */\n  dup6\n    /* \"Insurance.sol\":6116:6117  1 */\n  0x01\n    /* \"Insurance.sol\":6090:6118  _insuranceStartFinishDate[1] */\n  dup2\n  mload\n  dup2\n  lt\n  tag_33\n  jumpi\n  mstore(0x00, 0x4e487b7100000000000000000000000000000000000000000000000000000000)\n  mstore(0x04, 0x32)\n  revert(0x00, 0x24)\ntag_33:\n  0x20\n  mul\n  0x20\n  add\n  add\n  mload\n    /* \"Insurance.sol\":6054:6067  insuranceData */\n  0x0a\n    /* \"Insurance.sol\":6054:6087  insuranceData.insuranceFinishDate */\n  0x03\n  add\n    /* \"Insurance.sol\":6054:6118  insuranceData.insuranceFinishDate = _insuranceStartFinishDate[1] */\n  dup2\n  swap1\n  sstore\n  pop\n    /* \"Insurance.sol\":6157:6182  _insuranceStartFinishDate */\n  dup6\n    /* \"Insurance.sol\":6183:6184  2 */\n  0x02\n    /* \"Insurance.sol\":6157:6185  _insuranceStartFinishDate[2] */\n  dup2\n  mload\n  dup2\n  lt\n  tag_34\n  jumpi\n  mstore(0x00, 0x4e487b7100000000000000000000000000000000000000000000000000000000)\n  mstore(0x04, 0x32)\n  revert(0x00, 0x24)\ntag_34:\n  0x20\n  mul\n  0x20\n  add\n  add\n  mload\n    /* \"Insurance.sol\":6128:6141  insuranceData */\n  0x0a\n    /* \"Insurance.sol\":6128:6154  insuranceData.contractDate */\n  0x04\n  add\n    /* \"Insurance.sol\":6128:6185  insuranceData.contractDate = _insuranceStartFinishDate[2] */\n  dup2\n  swap1\n  sstore\n  pop\n    /* \"Insurance.sol\":6220:6229  _insureds */\n  dup7\n    /* \"Insurance.sol\":6195:6208  insuranceData */\n  0x0a\n    /* \"Insurance.sol\":6195:6217  insuranceData.insureds */\n  0x05\n  add\n    /* \"Insurance.sol\":6195:6229  insuranceData.insureds = _insureds */\n  swap1\n  dup1\n  mload\n  swap1\n  0x20\n  add\n  swap1\n  tag_35\n  swap3\n  swap2\n  swap1\n  tag_36\n  jump\t// in\ntag_35:\n  pop\n    /* \"Insurance.sol\":6263:6264  2 */\n  0x02\n    /* \"Insurance.sol\":6248:6252  _ids */\n  dup9\n    /* \"Insurance.sol\":6248:6259  _ids.length */\n  mload\n    /* \"Insurance.sol\":6248:6264  _ids.length == 2 */\n  eq\n    /* \"Insurance.sol\":6240:6305  require(_ids.length == 2, \"Must provide Policy ID and Taker ID.\") */\n  tag_37\n  jumpi\n  mload(0x40)\n  0x08c379a000000000000000000000000000000000000000000000000000000000\n  dup2\n  mstore\n  0x04\n  add\n  tag_38\n  swap1\n  tag_39\n  jump\t// in\ntag_38:\n  mload(0x40)\n  dup1\n  swap2\n  sub\n  swap1\n  revert\ntag_37:\n    /* \"Insurance.sol\":6335:6339  _ids */\n  dup8\n    /* \"Insurance.sol\":6340:6341  1 */\n  0x01\n    /* \"Insurance.sol\":6335:6342  _ids[1] */\n  dup2\n  mload\n  dup2\n  lt\n  tag_40\n  jumpi\n  mstore(0x00, 0x4e487b7100000000000000000000000000000000000000000000000000000000)\n  mstore(0x04, 0x32)\n  revert(0x00, 0x24)\ntag_40:\n  0x20\n  mul\n  0x20\n  add\n  add\n  mload\n    /* \"Insurance.sol\":6315:6324  takerData */\n  0x10\n    /* \"Insurance.sol\":6315:6332  takerData.takerId */\n  0x03\n  add\n    /* \"Insurance.sol\":6315:6342  takerData.takerId = _ids[1] */\n  dup2\n  swap1\n  sstore\n  pop\n    /* \"Insurance.sol\":6371:6375  _ids */\n  dup8\n    /* \"Insurance.sol\":6376:6377  0 */\n  0x00\n    /* \"Insurance.sol\":6371:6378  _ids[0] */\n  dup2\n  mload\n  dup2\n  lt\n  tag_41\n  jumpi\n  mstore(0x00, 0x4e487b7100000000000000000000000000000000000000000000000000000000)\n  mstore(0x04, 0x32)\n  revert(0x00, 0x24)\ntag_41:\n  0x20\n  mul\n  0x20\n  add\n  add\n  mload\n    /* \"Insurance.sol\":6352:6365  insuranceData */\n  0x0a\n    /* \"Insurance.sol\":6352:6368  insuranceData.id */\n  0x01\n  add\n    /* \"Insurance.sol\":6352:6378  insuranceData.id = _ids[0] */\n  dup2\n  swap1\n  sstore\n  pop\n    /* \"Insurance.sol\":6427:6436  _insureds */\n  dup7\n    /* \"Insurance.sol\":6427:6443  _insureds.length */\n  mload\n    /* \"Insurance.sol\":6397:6416  _insuredsNegPcrDate */\n  dup10\n    /* \"Insurance.sol\":6397:6423  _insuredsNegPcrDate.length */\n  mload\n    /* \"Insurance.sol\":6397:6443  _insuredsNegPcrDate.length == _insureds.length */\n  eq\n    /* \"Insurance.sol\":6389:6444  require(_insuredsNegPcrDate.length == _insureds.length) */\n  tag_42\n  jumpi\n  0x00\n  dup1\n  revert\ntag_42:\n    /* \"Insurance.sol\":6492:6501  _insureds */\n  dup7\n    /* \"Insurance.sol\":6492:6508  _insureds.length */\n  mload\n    /* \"Insurance.sol\":6462:6481  _insuredsNegPcrHash */\n  dup11\n    /* \"Insurance.sol\":6462:6488  _insuredsNegPcrHash.length */\n  mload\n    /* \"Insurance.sol\":6462:6508  _insuredsNegPcrHash.length == _insureds.length */\n  eq\n    /* \"Insurance.sol\":6454:6509  require(_insuredsNegPcrHash.length == _insureds.length) */\n  tag_43\n  jumpi\n  0x00\n  dup1\n  revert\ntag_43:\n    /* \"Insurance.sol\":6548:6554  uint i */\n  0x00\n    /* \"Insurance.sol\":6543:6927  for (uint i=0; i < _insureds.length; i++) {... */\ntag_44:\n    /* \"Insurance.sol\":6562:6571  _insureds */\n  dup8\n    /* \"Insurance.sol\":6562:6578  _insureds.length */\n  mload\n    /* \"Insurance.sol\":6558:6559  i */\n  dup2\n    /* \"Insurance.sol\":6558:6578  i < _insureds.length */\n  lt\n    /* \"Insurance.sol\":6543:6927  for (uint i=0; i < _insureds.length; i++) {... */\n  iszero\n  tag_45\n  jumpi\n    /* \"Insurance.sol\":6634:6638  true */\n  0x01\n    /* \"Insurance.sol\":6599:6617  insuredInInsurance */\n  0x04\n    /* \"Insurance.sol\":6599:6631  insuredInInsurance[_insureds[i]] */\n  0x00\n    /* \"Insurance.sol\":6618:6627  _insureds */\n  dup11\n    /* \"Insurance.sol\":6628:6629  i */\n  dup5\n    /* \"Insurance.sol\":6618:6630  _insureds[i] */\n  dup2\n  mload\n  dup2\n  lt\n  tag_47\n  jumpi\n  mstore(0x00, 0x4e487b7100000000000000000000000000000000000000000000000000000000)\n  mstore(0x04, 0x32)\n  revert(0x00, 0x24)\ntag_47:\n  0x20\n  mul\n  0x20\n  add\n  add\n  mload\n    /* \"Insurance.sol\":6599:6631  insuredInInsurance[_insureds[i]] */\n  dup2\n  mstore\n  0x20\n  add\n  swap1\n  dup2\n  mstore\n  0x20\n  add\n  0x00\n  keccak256\n  0x00\n    /* \"Insurance.sol\":6599:6638  insuredInInsurance[_insureds[i]] = true */\n  0x0100\n  exp\n  dup2\n  sload\n  dup2\n  0xff\n  mul\n  not\n  and\n  swap1\n  dup4\n  iszero\n  iszero\n  mul\n  or\n  swap1\n  sstore\n  pop\n    /* \"Insurance.sol\":6705:6711  259200 */\n  0x03f480\n    /* \"Insurance.sol\":6687:6702  block.timestamp */\n  timestamp\n    /* \"Insurance.sol\":6687:6711  block.timestamp - 259200 */\n  tag_48\n  swap2\n  swap1\n  tag_49\n  jump\t// in\ntag_48:\n    /* \"Insurance.sol\":6660:6679  _insuredsNegPcrDate */\n  dup11\n    /* \"Insurance.sol\":6680:6681  i */\n  dup3\n    /* \"Insurance.sol\":6660:6682  _insuredsNegPcrDate[i] */\n  dup2\n  mload\n  dup2\n  lt\n  tag_50\n  jumpi\n  mstore(0x00, 0x4e487b7100000000000000000000000000000000000000000000000000000000)\n  mstore(0x04, 0x32)\n  revert(0x00, 0x24)\ntag_50:\n  0x20\n  mul\n  0x20\n  add\n  add\n  mload\n    /* \"Insurance.sol\":6660:6712  _insuredsNegPcrDate[i] >= (block.timestamp - 259200) */\n  lt\n  iszero\n    /* \"Insurance.sol\":6652:6774  require(_insuredsNegPcrDate[i] >= (block.timestamp - 259200), \"Check that previous PCR has been no more than 3 days ago.\") */\n  tag_51\n  jumpi\n  mload(0x40)\n  0x08c379a000000000000000000000000000000000000000000000000000000000\n  dup2\n  mstore\n  0x04\n  add\n  tag_52\n  swap1\n  tag_53\n  jump\t// in\ntag_52:\n  mload(0x40)\n  dup1\n  swap2\n  sub\n  swap1\n  revert\ntag_51:\n    /* \"Insurance.sol\":6822:6841  _insuredsNegPcrDate */\n  dup10\n    /* \"Insurance.sol\":6842:6843  i */\n  dup2\n    /* \"Insurance.sol\":6822:6844  _insuredsNegPcrDate[i] */\n  dup2\n  mload\n  dup2\n  lt\n  tag_54\n  jumpi\n  mstore(0x00, 0x4e487b7100000000000000000000000000000000000000000000000000000000)\n  mstore(0x04, 0x32)\n  revert(0x00, 0x24)\ntag_54:\n  0x20\n  mul\n  0x20\n  add\n  add\n  mload\n    /* \"Insurance.sol\":6788:6805  insuredNegPcrDate */\n  0x08\n    /* \"Insurance.sol\":6788:6819  insuredNegPcrDate[_insureds[i]] */\n  0x00\n    /* \"Insurance.sol\":6806:6815  _insureds */\n  dup11\n    /* \"Insurance.sol\":6816:6817  i */\n  dup5\n    /* \"Insurance.sol\":6806:6818  _insureds[i] */\n  dup2\n  mload\n  dup2\n  lt\n  tag_55\n  jumpi\n  mstore(0x00, 0x4e487b7100000000000000000000000000000000000000000000000000000000)\n  mstore(0x04, 0x32)\n  revert(0x00, 0x24)\ntag_55:\n  0x20\n  mul\n  0x20\n  add\n  add\n  mload\n    /* \"Insurance.sol\":6788:6819  insuredNegPcrDate[_insureds[i]] */\n  dup2\n  mstore\n  0x20\n  add\n  swap1\n  dup2\n  mstore\n  0x20\n  add\n  0x00\n  keccak256\n    /* \"Insurance.sol\":6788:6844  insuredNegPcrDate[_insureds[i]] = _insuredsNegPcrDate[i] */\n  dup2\n  swap1\n  sstore\n  pop\n    /* \"Insurance.sol\":6893:6912  _insuredsNegPcrHash */\n  dup11\n    /* \"Insurance.sol\":6913:6914  i */\n  dup2\n    /* \"Insurance.sol\":6893:6915  _insuredsNegPcrHash[i] */\n  dup2\n  mload\n  dup2\n  lt\n  tag_56\n  jumpi\n  mstore(0x00, 0x4e487b7100000000000000000000000000000000000000000000000000000000)\n  mstore(0x04, 0x32)\n  revert(0x00, 0x24)\ntag_56:\n  0x20\n  mul\n  0x20\n  add\n  add\n  mload\n    /* \"Insurance.sol\":6858:6875  insuredNegPcrHash */\n  0x07\n    /* \"Insurance.sol\":6858:6889  insuredNegPcrHash[_insureds[i]] */\n  0x00\n    /* \"Insurance.sol\":6876:6885  _insureds */\n  dup11\n    /* \"Insurance.sol\":6886:6887  i */\n  dup5\n    /* \"Insurance.sol\":6876:6888  _insureds[i] */\n  dup2\n  mload\n  dup2\n  lt\n  tag_57\n  jumpi\n  mstore(0x00, 0x4e487b7100000000000000000000000000000000000000000000000000000000)\n  mstore(0x04, 0x32)\n  revert(0x00, 0x24)\ntag_57:\n  0x20\n  mul\n  0x20\n  add\n  add\n  mload\n    /* \"Insurance.sol\":6858:6889  insuredNegPcrHash[_insureds[i]] */\n  dup2\n  mstore\n  0x20\n  add\n  swap1\n  dup2\n  mstore\n  0x20\n  add\n  0x00\n  keccak256\n    /* \"Insurance.sol\":6858:6916  insuredNegPcrHash[_insureds[i]] = (_insuredsNegPcrHash[i]) */\n  dup2\n  swap1\n  sstore\n  pop\n    /* \"Insurance.sol\":6580:6583  i++ */\n  dup1\n  dup1\n  tag_58\n  swap1\n  tag_59\n  jump\t// in\ntag_58:\n  swap2\n  pop\n  pop\n    /* \"Insurance.sol\":6543:6927  for (uint i=0; i < _insureds.length; i++) {... */\n  jump(tag_44)\ntag_45:\n  pop\n    /* \"Insurance.sol\":6972:6985  insuranceData */\n  0x0a\n    /* \"Insurance.sol\":6972:6994  insuranceData.insureds */\n  0x05\n  add\n    /* \"Insurance.sol\":6972:7001  insuranceData.insureds.length */\n  dup1\n  sload\n  swap1\n  pop\n    /* \"Insurance.sol\":6936:7002  insuranceData.insuredNumber = uint8(insuranceData.insureds.length) */\n  0xff\n  and\n    /* \"Insurance.sol\":6936:6949  insuranceData */\n  0x0a\n    /* \"Insurance.sol\":6936:6963  insuranceData.insuredNumber */\n  0x00\n  add\n  0x06\n    /* \"Insurance.sol\":6936:7002  insuranceData.insuredNumber = uint8(insuranceData.insureds.length) */\n  0x0100\n  exp\n  dup2\n  sload\n  dup2\n  0xffff\n  mul\n  not\n  and\n  swap1\n  dup4\n  0xffff\n  and\n  mul\n  or\n  swap1\n  sstore\n  pop\n    /* \"Insurance.sol\":7038:7039  0 */\n  0x00\n    /* \"Insurance.sol\":7012:7025  insuranceData */\n  0x0a\n    /* \"Insurance.sol\":7012:7035  insuranceData.pcrNumber */\n  0x00\n  add\n  0x04\n    /* \"Insurance.sol\":7012:7039  insuranceData.pcrNumber = 0 */\n  0x0100\n  exp\n  dup2\n  sload\n  dup2\n  0xffff\n  mul\n  not\n  and\n  swap1\n  dup4\n  0xffff\n  and\n  mul\n  or\n  swap1\n  sstore\n  pop\n    /* \"Insurance.sol\":4460:7046  constructor(... */\n  pop\n  pop\n  pop\n  pop\n  pop\n  pop\n  pop\n  pop\n  pop\n  pop\n    /* \"Insurance.sol\":2146:19722  contract Insurance is Seriality {... */\n  jump(tag_60)\ntag_9:\n  dup3\n  dup1\n  sload\n  tag_61\n  swap1\n  tag_62\n  jump\t// in\ntag_61:\n  swap1\n  0x00\n  mstore\n  keccak256(0x00, 0x20)\n  swap1\n  0x1f\n  add\n  0x20\n  swap1\n  div\n  dup2\n  add\n  swap3\n  dup3\n  tag_64\n  jumpi\n  0x00\n  dup6\n  sstore\n  jump(tag_63)\ntag_64:\n  dup3\n  0x1f\n  lt\n  tag_65\n  jumpi\n  dup1\n  mload\n  not(0xff)\n  and\n  dup4\n  dup1\n  add\n  or\n  dup6\n  sstore\n  jump(tag_63)\ntag_65:\n  dup3\n  dup1\n  add\n  0x01\n  add\n  dup6\n  sstore\n  dup3\n  iszero\n  tag_63\n  jumpi\n  swap2\n  dup3\n  add\ntag_66:\n  dup3\n  dup2\n  gt\n  iszero\n  tag_67\n  jumpi\n  dup3\n  mload\n  dup3\n  sstore\n  swap2\n  0x20\n  add\n  swap2\n  swap1\n  0x01\n  add\n  swap1\n  jump(tag_66)\ntag_67:\ntag_63:\n  pop\n  swap1\n  pop\n  tag_68\n  swap2\n  swap1\n  tag_69\n  jump\t// in\ntag_68:\n  pop\n  swap1\n  jump\t// out\ntag_36:\n  dup3\n  dup1\n  sload\n  dup3\n  dup3\n  sstore\n  swap1\n  0x00\n  mstore\n  keccak256(0x00, 0x20)\n  swap1\n  dup2\n  add\n  swap3\n  dup3\n  iszero\n  tag_70\n  jumpi\n  swap2\n  0x20\n  mul\n  dup3\n  add\ntag_71:\n  dup3\n  dup2\n  gt\n  iszero\n  tag_72\n  jumpi\n  dup3\n  mload\n  dup3\n  sstore\n  swap2\n  0x20\n  add\n  swap2\n  swap1\n  0x01\n  add\n  swap1\n  jump(tag_71)\ntag_72:\ntag_70:\n  pop\n  swap1\n  pop\n  tag_73\n  swap2\n  swap1\n  tag_74\n  jump\t// in\ntag_73:\n  pop\n  swap1\n  jump\t// out\ntag_69:\ntag_75:\n  dup1\n  dup3\n  gt\n  iszero\n  tag_76\n  jumpi\n  0x00\n  dup2\n  0x00\n  swap1\n  sstore\n  pop\n  0x01\n  add\n  jump(tag_75)\ntag_76:\n  pop\n  swap1\n  jump\t// out\ntag_74:\ntag_77:\n  dup1\n  dup3\n  gt\n  iszero\n  tag_78\n  jumpi\n  0x00\n  dup2\n  0x00\n  swap1\n  sstore\n  pop\n  0x01\n  add\n  jump(tag_77)\ntag_78:\n  pop\n  swap1\n  jump\t// out\n    /* \"#utility.yul\":24:669   */\ntag_80:\n  0x00\n    /* \"#utility.yul\":156:237   */\n  tag_82\n    /* \"#utility.yul\":172:236   */\n  tag_83\n    /* \"#utility.yul\":229:235   */\n  dup5\n    /* \"#utility.yul\":172:236   */\n  tag_84\n  jump\t// in\ntag_83:\n    /* \"#utility.yul\":156:237   */\n  tag_85\n  jump\t// in\ntag_82:\n    /* \"#utility.yul\":147:237   */\n  swap1\n  pop\n    /* \"#utility.yul\":257:262   */\n  dup1\n    /* \"#utility.yul\":285:291   */\n  dup4\n    /* \"#utility.yul\":278:283   */\n  dup3\n    /* \"#utility.yul\":271:292   */\n  mstore\n    /* \"#utility.yul\":311:315   */\n  0x20\n    /* \"#utility.yul\":304:309   */\n  dup3\n    /* \"#utility.yul\":300:316   */\n  add\n    /* \"#utility.yul\":293:316   */\n  swap1\n  pop\n    /* \"#utility.yul\":336:342   */\n  dup3\n    /* \"#utility.yul\":386:389   */\n  dup6\n    /* \"#utility.yul\":378:382   */\n  0x20\n    /* \"#utility.yul\":370:376   */\n  dup7\n    /* \"#utility.yul\":366:383   */\n  mul\n    /* \"#utility.yul\":361:364   */\n  dup3\n    /* \"#utility.yul\":357:384   */\n  add\n    /* \"#utility.yul\":354:390   */\n  gt\n    /* \"#utility.yul\":351:353   */\n  iszero\n  tag_86\n  jumpi\n    /* \"#utility.yul\":403:404   */\n  0x00\n    /* \"#utility.yul\":400:401   */\n  dup1\n    /* \"#utility.yul\":393:405   */\n  revert\n    /* \"#utility.yul\":351:353   */\ntag_86:\n    /* \"#utility.yul\":431:432   */\n  0x00\n    /* \"#utility.yul\":416:663   */\ntag_87:\n    /* \"#utility.yul\":441:447   */\n  dup6\n    /* \"#utility.yul\":438:439   */\n  dup2\n    /* \"#utility.yul\":435:448   */\n  lt\n    /* \"#utility.yul\":416:663   */\n  iszero\n  tag_89\n  jumpi\n    /* \"#utility.yul\":508:511   */\n  dup2\n    /* \"#utility.yul\":536:584   */\n  tag_90\n    /* \"#utility.yul\":580:583   */\n  dup9\n    /* \"#utility.yul\":568:578   */\n  dup3\n    /* \"#utility.yul\":536:584   */\n  tag_91\n  jump\t// in\ntag_90:\n    /* \"#utility.yul\":531:534   */\n  dup5\n    /* \"#utility.yul\":524:585   */\n  mstore\n    /* \"#utility.yul\":614:618   */\n  0x20\n    /* \"#utility.yul\":609:612   */\n  dup5\n    /* \"#utility.yul\":605:619   */\n  add\n    /* \"#utility.yul\":598:619   */\n  swap4\n  pop\n    /* \"#utility.yul\":648:652   */\n  0x20\n    /* \"#utility.yul\":643:646   */\n  dup4\n    /* \"#utility.yul\":639:653   */\n  add\n    /* \"#utility.yul\":632:653   */\n  swap3\n  pop\n    /* \"#utility.yul\":476:663   */\n  pop\n    /* \"#utility.yul\":463:464   */\n  0x01\n    /* \"#utility.yul\":460:461   */\n  dup2\n    /* \"#utility.yul\":456:465   */\n  add\n    /* \"#utility.yul\":451:465   */\n  swap1\n  pop\n    /* \"#utility.yul\":416:663   */\n  jump(tag_87)\ntag_89:\n    /* \"#utility.yul\":420:434   */\n  pop\n    /* \"#utility.yul\":137:669   */\n  pop\n  pop\n  swap4\n  swap3\n  pop\n  pop\n  pop\n  jump\t// out\n    /* \"#utility.yul\":691:1333   */\ntag_92:\n  0x00\n    /* \"#utility.yul\":822:902   */\n  tag_94\n    /* \"#utility.yul\":838:901   */\n  tag_95\n    /* \"#utility.yul\":894:900   */\n  dup5\n    /* \"#utility.yul\":838:901   */\n  tag_96\n  jump\t// in\ntag_95:\n    /* \"#utility.yul\":822:902   */\n  tag_85\n  jump\t// in\ntag_94:\n    /* \"#utility.yul\":813:902   */\n  swap1\n  pop\n    /* \"#utility.yul\":922:927   */\n  dup1\n    /* \"#utility.yul\":950:956   */\n  dup4\n    /* \"#utility.yul\":943:948   */\n  dup3\n    /* \"#utility.yul\":936:957   */\n  mstore\n    /* \"#utility.yul\":976:980   */\n  0x20\n    /* \"#utility.yul\":969:974   */\n  dup3\n    /* \"#utility.yul\":965:981   */\n  add\n    /* \"#utility.yul\":958:981   */\n  swap1\n  pop\n    /* \"#utility.yul\":1001:1007   */\n  dup3\n    /* \"#utility.yul\":1051:1054   */\n  dup6\n    /* \"#utility.yul\":1043:1047   */\n  0x20\n    /* \"#utility.yul\":1035:1041   */\n  dup7\n    /* \"#utility.yul\":1031:1048   */\n  mul\n    /* \"#utility.yul\":1026:1029   */\n  dup3\n    /* \"#utility.yul\":1022:1049   */\n  add\n    /* \"#utility.yul\":1019:1055   */\n  gt\n    /* \"#utility.yul\":1016:1018   */\n  iszero\n  tag_97\n  jumpi\n    /* \"#utility.yul\":1068:1069   */\n  0x00\n    /* \"#utility.yul\":1065:1066   */\n  dup1\n    /* \"#utility.yul\":1058:1070   */\n  revert\n    /* \"#utility.yul\":1016:1018   */\ntag_97:\n    /* \"#utility.yul\":1096:1097   */\n  0x00\n    /* \"#utility.yul\":1081:1327   */\ntag_98:\n    /* \"#utility.yul\":1106:1112   */\n  dup6\n    /* \"#utility.yul\":1103:1104   */\n  dup2\n    /* \"#utility.yul\":1100:1113   */\n  lt\n    /* \"#utility.yul\":1081:1327   */\n  iszero\n  tag_100\n  jumpi\n    /* \"#utility.yul\":1173:1176   */\n  dup2\n    /* \"#utility.yul\":1201:1248   */\n  tag_101\n    /* \"#utility.yul\":1244:1247   */\n  dup9\n    /* \"#utility.yul\":1232:1242   */\n  dup3\n    /* \"#utility.yul\":1201:1248   */\n  tag_102\n  jump\t// in\ntag_101:\n    /* \"#utility.yul\":1196:1199   */\n  dup5\n    /* \"#utility.yul\":1189:1249   */\n  mstore\n    /* \"#utility.yul\":1278:1282   */\n  0x20\n    /* \"#utility.yul\":1273:1276   */\n  dup5\n    /* \"#utility.yul\":1269:1283   */\n  add\n    /* \"#utility.yul\":1262:1283   */\n  swap4\n  pop\n    /* \"#utility.yul\":1312:1316   */\n  0x20\n    /* \"#utility.yul\":1307:1310   */\n  dup4\n    /* \"#utility.yul\":1303:1317   */\n  add\n    /* \"#utility.yul\":1296:1317   */\n  swap3\n  pop\n    /* \"#utility.yul\":1141:1327   */\n  pop\n    /* \"#utility.yul\":1128:1129   */\n  0x01\n    /* \"#utility.yul\":1125:1126   */\n  dup2\n    /* \"#utility.yul\":1121:1130   */\n  add\n    /* \"#utility.yul\":1116:1130   */\n  swap1\n  pop\n    /* \"#utility.yul\":1081:1327   */\n  jump(tag_98)\ntag_100:\n    /* \"#utility.yul\":1085:1099   */\n  pop\n    /* \"#utility.yul\":803:1333   */\n  pop\n  pop\n  swap4\n  swap3\n  pop\n  pop\n  pop\n  jump\t// out\n    /* \"#utility.yul\":1356:2001   */\ntag_103:\n  0x00\n    /* \"#utility.yul\":1488:1569   */\n  tag_105\n    /* \"#utility.yul\":1504:1568   */\n  tag_106\n    /* \"#utility.yul\":1561:1567   */\n  dup5\n    /* \"#utility.yul\":1504:1568   */\n  tag_107\n  jump\t// in\ntag_106:\n    /* \"#utility.yul\":1488:1569   */\n  tag_85\n  jump\t// in\ntag_105:\n    /* \"#utility.yul\":1479:1569   */\n  swap1\n  pop\n    /* \"#utility.yul\":1589:1594   */\n  dup1\n    /* \"#utility.yul\":1617:1623   */\n  dup4\n    /* \"#utility.yul\":1610:1615   */\n  dup3\n    /* \"#utility.yul\":1603:1624   */\n  mstore\n    /* \"#utility.yul\":1643:1647   */\n  0x20\n    /* \"#utility.yul\":1636:1641   */\n  dup3\n    /* \"#utility.yul\":1632:1648   */\n  add\n    /* \"#utility.yul\":1625:1648   */\n  swap1\n  pop\n    /* \"#utility.yul\":1668:1674   */\n  dup3\n    /* \"#utility.yul\":1718:1721   */\n  dup6\n    /* \"#utility.yul\":1710:1714   */\n  0x20\n    /* \"#utility.yul\":1702:1708   */\n  dup7\n    /* \"#utility.yul\":1698:1715   */\n  mul\n    /* \"#utility.yul\":1693:1696   */\n  dup3\n    /* \"#utility.yul\":1689:1716   */\n  add\n    /* \"#utility.yul\":1686:1722   */\n  gt\n    /* \"#utility.yul\":1683:1685   */\n  iszero\n  tag_108\n  jumpi\n    /* \"#utility.yul\":1735:1736   */\n  0x00\n    /* \"#utility.yul\":1732:1733   */\n  dup1\n    /* \"#utility.yul\":1725:1737   */\n  revert\n    /* \"#utility.yul\":1683:1685   */\ntag_108:\n    /* \"#utility.yul\":1763:1764   */\n  0x00\n    /* \"#utility.yul\":1748:1995   */\ntag_109:\n    /* \"#utility.yul\":1773:1779   */\n  dup6\n    /* \"#utility.yul\":1770:1771   */\n  dup2\n    /* \"#utility.yul\":1767:1780   */\n  lt\n    /* \"#utility.yul\":1748:1995   */\n  iszero\n  tag_111\n  jumpi\n    /* \"#utility.yul\":1840:1843   */\n  dup2\n    /* \"#utility.yul\":1868:1916   */\n  tag_112\n    /* \"#utility.yul\":1912:1915   */\n  dup9\n    /* \"#utility.yul\":1900:1910   */\n  dup3\n    /* \"#utility.yul\":1868:1916   */\n  tag_113\n  jump\t// in\ntag_112:\n    /* \"#utility.yul\":1863:1866   */\n  dup5\n    /* \"#utility.yul\":1856:1917   */\n  mstore\n    /* \"#utility.yul\":1946:1950   */\n  0x20\n    /* \"#utility.yul\":1941:1944   */\n  dup5\n    /* \"#utility.yul\":1937:1951   */\n  add\n    /* \"#utility.yul\":1930:1951   */\n  swap4\n  pop\n    /* \"#utility.yul\":1980:1984   */\n  0x20\n    /* \"#utility.yul\":1975:1978   */\n  dup4\n    /* \"#utility.yul\":1971:1985   */\n  add\n    /* \"#utility.yul\":1964:1985   */\n  swap3\n  pop\n    /* \"#utility.yul\":1808:1995   */\n  pop\n    /* \"#utility.yul\":1795:1796   */\n  0x01\n    /* \"#utility.yul\":1792:1793   */\n  dup2\n    /* \"#utility.yul\":1788:1797   */\n  add\n    /* \"#utility.yul\":1783:1797   */\n  swap1\n  pop\n    /* \"#utility.yul\":1748:1995   */\n  jump(tag_109)\ntag_111:\n    /* \"#utility.yul\":1752:1766   */\n  pop\n    /* \"#utility.yul\":1469:2001   */\n  pop\n  pop\n  swap4\n  swap3\n  pop\n  pop\n  pop\n  jump\t// out\n    /* \"#utility.yul\":2007:2361   */\ntag_114:\n  0x00\n    /* \"#utility.yul\":2121:2187   */\n  tag_116\n    /* \"#utility.yul\":2137:2186   */\n  tag_117\n    /* \"#utility.yul\":2179:2185   */\n  dup5\n    /* \"#utility.yul\":2137:2186   */\n  tag_118\n  jump\t// in\ntag_117:\n    /* \"#utility.yul\":2121:2187   */\n  tag_85\n  jump\t// in\ntag_116:\n    /* \"#utility.yul\":2112:2187   */\n  swap1\n  pop\n    /* \"#utility.yul\":2210:2216   */\n  dup3\n    /* \"#utility.yul\":2203:2208   */\n  dup2\n    /* \"#utility.yul\":2196:2217   */\n  mstore\n    /* \"#utility.yul\":2248:2252   */\n  0x20\n    /* \"#utility.yul\":2241:2246   */\n  dup2\n    /* \"#utility.yul\":2237:2253   */\n  add\n    /* \"#utility.yul\":2286:2289   */\n  dup5\n    /* \"#utility.yul\":2277:2283   */\n  dup5\n    /* \"#utility.yul\":2272:2275   */\n  dup5\n    /* \"#utility.yul\":2268:2284   */\n  add\n    /* \"#utility.yul\":2265:2290   */\n  gt\n    /* \"#utility.yul\":2262:2264   */\n  iszero\n  tag_119\n  jumpi\n    /* \"#utility.yul\":2303:2304   */\n  0x00\n    /* \"#utility.yul\":2300:2301   */\n  dup1\n    /* \"#utility.yul\":2293:2305   */\n  revert\n    /* \"#utility.yul\":2262:2264   */\ntag_119:\n    /* \"#utility.yul\":2316:2355   */\n  tag_120\n    /* \"#utility.yul\":2348:2354   */\n  dup5\n    /* \"#utility.yul\":2343:2346   */\n  dup3\n    /* \"#utility.yul\":2338:2341   */\n  dup6\n    /* \"#utility.yul\":2316:2355   */\n  tag_121\n  jump\t// in\ntag_120:\n    /* \"#utility.yul\":2102:2361   */\n  pop\n  swap4\n  swap3\n  pop\n  pop\n  pop\n  jump\t// out\n    /* \"#utility.yul\":2384:2702   */\ntag_122:\n  0x00\n    /* \"#utility.yul\":2515:2518   */\n  dup3\n    /* \"#utility.yul\":2508:2512   */\n  0x1f\n    /* \"#utility.yul\":2500:2506   */\n  dup4\n    /* \"#utility.yul\":2496:2513   */\n  add\n    /* \"#utility.yul\":2492:2519   */\n  slt\n    /* \"#utility.yul\":2482:2484   */\n  tag_124\n  jumpi\n    /* \"#utility.yul\":2533:2534   */\n  0x00\n    /* \"#utility.yul\":2530:2531   */\n  dup1\n    /* \"#utility.yul\":2523:2535   */\n  revert\n    /* \"#utility.yul\":2482:2484   */\ntag_124:\n    /* \"#utility.yul\":2566:2572   */\n  dup2\n    /* \"#utility.yul\":2560:2573   */\n  mload\n    /* \"#utility.yul\":2591:2696   */\n  tag_125\n    /* \"#utility.yul\":2692:2695   */\n  dup5\n    /* \"#utility.yul\":2684:2690   */\n  dup3\n    /* \"#utility.yul\":2677:2681   */\n  0x20\n    /* \"#utility.yul\":2669:2675   */\n  dup7\n    /* \"#utility.yul\":2665:2682   */\n  add\n    /* \"#utility.yul\":2591:2696   */\n  tag_80\n  jump\t// in\ntag_125:\n    /* \"#utility.yul\":2582:2696   */\n  swap2\n  pop\n    /* \"#utility.yul\":2472:2702   */\n  pop\n  swap3\n  swap2\n  pop\n  pop\n  jump\t// out\n    /* \"#utility.yul\":2724:3040   */\ntag_126:\n  0x00\n    /* \"#utility.yul\":2854:2857   */\n  dup3\n    /* \"#utility.yul\":2847:2851   */\n  0x1f\n    /* \"#utility.yul\":2839:2845   */\n  dup4\n    /* \"#utility.yul\":2835:2852   */\n  add\n    /* \"#utility.yul\":2831:2858   */\n  slt\n    /* \"#utility.yul\":2821:2823   */\n  tag_128\n  jumpi\n    /* \"#utility.yul\":2872:2873   */\n  0x00\n    /* \"#utility.yul\":2869:2870   */\n  dup1\n    /* \"#utility.yul\":2862:2874   */\n  revert\n    /* \"#utility.yul\":2821:2823   */\ntag_128:\n    /* \"#utility.yul\":2905:2911   */\n  dup2\n    /* \"#utility.yul\":2899:2912   */\n  mload\n    /* \"#utility.yul\":2930:3034   */\n  tag_129\n    /* \"#utility.yul\":3030:3033   */\n  dup5\n    /* \"#utility.yul\":3022:3028   */\n  dup3\n    /* \"#utility.yul\":3015:3019   */\n  0x20\n    /* \"#utility.yul\":3007:3013   */\n  dup7\n    /* \"#utility.yul\":3003:3020   */\n  add\n    /* \"#utility.yul\":2930:3034   */\n  tag_92\n  jump\t// in\ntag_129:\n    /* \"#utility.yul\":2921:3034   */\n  swap2\n  pop\n    /* \"#utility.yul\":2811:3040   */\n  pop\n  swap3\n  swap2\n  pop\n  pop\n  jump\t// out\n    /* \"#utility.yul\":3063:3381   */\ntag_130:\n  0x00\n    /* \"#utility.yul\":3194:3197   */\n  dup3\n    /* \"#utility.yul\":3187:3191   */\n  0x1f\n    /* \"#utility.yul\":3179:3185   */\n  dup4\n    /* \"#utility.yul\":3175:3192   */\n  add\n    /* \"#utility.yul\":3171:3198   */\n  slt\n    /* \"#utility.yul\":3161:3163   */\n  tag_132\n  jumpi\n    /* \"#utility.yul\":3212:3213   */\n  0x00\n    /* \"#utility.yul\":3209:3210   */\n  dup1\n    /* \"#utility.yul\":3202:3214   */\n  revert\n    /* \"#utility.yul\":3161:3163   */\ntag_132:\n    /* \"#utility.yul\":3245:3251   */\n  dup2\n    /* \"#utility.yul\":3239:3252   */\n  mload\n    /* \"#utility.yul\":3270:3375   */\n  tag_133\n    /* \"#utility.yul\":3371:3374   */\n  dup5\n    /* \"#utility.yul\":3363:3369   */\n  dup3\n    /* \"#utility.yul\":3356:3360   */\n  0x20\n    /* \"#utility.yul\":3348:3354   */\n  dup7\n    /* \"#utility.yul\":3344:3361   */\n  add\n    /* \"#utility.yul\":3270:3375   */\n  tag_103\n  jump\t// in\ntag_133:\n    /* \"#utility.yul\":3261:3375   */\n  swap2\n  pop\n    /* \"#utility.yul\":3151:3381   */\n  pop\n  swap3\n  swap2\n  pop\n  pop\n  jump\t// out\n    /* \"#utility.yul\":3387:3530   */\ntag_91:\n  0x00\n    /* \"#utility.yul\":3475:3481   */\n  dup2\n    /* \"#utility.yul\":3469:3482   */\n  mload\n    /* \"#utility.yul\":3460:3482   */\n  swap1\n  pop\n    /* \"#utility.yul\":3491:3524   */\n  tag_135\n    /* \"#utility.yul\":3518:3523   */\n  dup2\n    /* \"#utility.yul\":3491:3524   */\n  tag_136\n  jump\t// in\ntag_135:\n    /* \"#utility.yul\":3450:3530   */\n  swap3\n  swap2\n  pop\n  pop\n  jump\t// out\n    /* \"#utility.yul\":3550:3838   */\ntag_137:\n  0x00\n    /* \"#utility.yul\":3666:3669   */\n  dup3\n    /* \"#utility.yul\":3659:3663   */\n  0x1f\n    /* \"#utility.yul\":3651:3657   */\n  dup4\n    /* \"#utility.yul\":3647:3664   */\n  add\n    /* \"#utility.yul\":3643:3670   */\n  slt\n    /* \"#utility.yul\":3633:3635   */\n  tag_139\n  jumpi\n    /* \"#utility.yul\":3684:3685   */\n  0x00\n    /* \"#utility.yul\":3681:3682   */\n  dup1\n    /* \"#utility.yul\":3674:3686   */\n  revert\n    /* \"#utility.yul\":3633:3635   */\ntag_139:\n    /* \"#utility.yul\":3717:3723   */\n  dup2\n    /* \"#utility.yul\":3711:3724   */\n  mload\n    /* \"#utility.yul\":3742:3832   */\n  tag_140\n    /* \"#utility.yul\":3828:3831   */\n  dup5\n    /* \"#utility.yul\":3820:3826   */\n  dup3\n    /* \"#utility.yul\":3813:3817   */\n  0x20\n    /* \"#utility.yul\":3805:3811   */\n  dup7\n    /* \"#utility.yul\":3801:3818   */\n  add\n    /* \"#utility.yul\":3742:3832   */\n  tag_114\n  jump\t// in\ntag_140:\n    /* \"#utility.yul\":3733:3832   */\n  swap2\n  pop\n    /* \"#utility.yul\":3623:3838   */\n  pop\n  swap3\n  swap2\n  pop\n  pop\n  jump\t// out\n    /* \"#utility.yul\":3844:3985   */\ntag_102:\n  0x00\n    /* \"#utility.yul\":3931:3937   */\n  dup2\n    /* \"#utility.yul\":3925:3938   */\n  mload\n    /* \"#utility.yul\":3916:3938   */\n  swap1\n  pop\n    /* \"#utility.yul\":3947:3979   */\n  tag_142\n    /* \"#utility.yul\":3973:3978   */\n  dup2\n    /* \"#utility.yul\":3947:3979   */\n  tag_143\n  jump\t// in\ntag_142:\n    /* \"#utility.yul\":3906:3985   */\n  swap3\n  swap2\n  pop\n  pop\n  jump\t// out\n    /* \"#utility.yul\":3991:4134   */\ntag_113:\n  0x00\n    /* \"#utility.yul\":4079:4085   */\n  dup2\n    /* \"#utility.yul\":4073:4086   */\n  mload\n    /* \"#utility.yul\":4064:4086   */\n  swap1\n  pop\n    /* \"#utility.yul\":4095:4128   */\n  tag_145\n    /* \"#utility.yul\":4122:4127   */\n  dup2\n    /* \"#utility.yul\":4095:4128   */\n  tag_146\n  jump\t// in\ntag_145:\n    /* \"#utility.yul\":4054:4134   */\n  swap3\n  swap2\n  pop\n  pop\n  jump\t// out\n    /* \"#utility.yul\":4140:7103   */\ntag_3:\n  0x00\n  dup1\n  0x00\n  dup1\n  0x00\n  dup1\n  0x00\n  dup1\n  0x00\n  dup1\n    /* \"#utility.yul\":4616:4619   */\n  0x0140\n    /* \"#utility.yul\":4604:4613   */\n  dup12\n    /* \"#utility.yul\":4595:4602   */\n  dup14\n    /* \"#utility.yul\":4591:4614   */\n  sub\n    /* \"#utility.yul\":4587:4620   */\n  slt\n    /* \"#utility.yul\":4584:4586   */\n  iszero\n  tag_148\n  jumpi\n    /* \"#utility.yul\":4633:4634   */\n  0x00\n    /* \"#utility.yul\":4630:4631   */\n  dup1\n    /* \"#utility.yul\":4623:4635   */\n  revert\n    /* \"#utility.yul\":4584:4586   */\ntag_148:\n    /* \"#utility.yul\":4697:4698   */\n  0x00\n    /* \"#utility.yul\":4686:4695   */\n  dup12\n    /* \"#utility.yul\":4682:4699   */\n  add\n    /* \"#utility.yul\":4676:4700   */\n  mload\n    /* \"#utility.yul\":4727:4745   */\n  0xffffffffffffffff\n    /* \"#utility.yul\":4719:4725   */\n  dup2\n    /* \"#utility.yul\":4716:4746   */\n  gt\n    /* \"#utility.yul\":4713:4715   */\n  iszero\n  tag_149\n  jumpi\n    /* \"#utility.yul\":4759:4760   */\n  0x00\n    /* \"#utility.yul\":4756:4757   */\n  dup1\n    /* \"#utility.yul\":4749:4761   */\n  revert\n    /* \"#utility.yul\":4713:4715   */\ntag_149:\n    /* \"#utility.yul\":4787:4876   */\n  tag_150\n    /* \"#utility.yul\":4868:4875   */\n  dup14\n    /* \"#utility.yul\":4859:4865   */\n  dup3\n    /* \"#utility.yul\":4848:4857   */\n  dup15\n    /* \"#utility.yul\":4844:4866   */\n  add\n    /* \"#utility.yul\":4787:4876   */\n  tag_122\n  jump\t// in\ntag_150:\n    /* \"#utility.yul\":4777:4876   */\n  swap11\n  pop\n    /* \"#utility.yul\":4647:4886   */\n  pop\n    /* \"#utility.yul\":4946:4948   */\n  0x20\n    /* \"#utility.yul\":4935:4944   */\n  dup12\n    /* \"#utility.yul\":4931:4949   */\n  add\n    /* \"#utility.yul\":4925:4950   */\n  mload\n    /* \"#utility.yul\":4977:4995   */\n  0xffffffffffffffff\n    /* \"#utility.yul\":4969:4975   */\n  dup2\n    /* \"#utility.yul\":4966:4996   */\n  gt\n    /* \"#utility.yul\":4963:4965   */\n  iszero\n  tag_151\n  jumpi\n    /* \"#utility.yul\":5009:5010   */\n  0x00\n    /* \"#utility.yul\":5006:5007   */\n  dup1\n    /* \"#utility.yul\":4999:5011   */\n  revert\n    /* \"#utility.yul\":4963:4965   */\ntag_151:\n    /* \"#utility.yul\":5037:5126   */\n  tag_152\n    /* \"#utility.yul\":5118:5125   */\n  dup14\n    /* \"#utility.yul\":5109:5115   */\n  dup3\n    /* \"#utility.yul\":5098:5107   */\n  dup15\n    /* \"#utility.yul\":5094:5116   */\n  add\n    /* \"#utility.yul\":5037:5126   */\n  tag_130\n  jump\t// in\ntag_152:\n    /* \"#utility.yul\":5027:5126   */\n  swap10\n  pop\n    /* \"#utility.yul\":4896:5136   */\n  pop\n    /* \"#utility.yul\":5196:5198   */\n  0x40\n    /* \"#utility.yul\":5185:5194   */\n  dup12\n    /* \"#utility.yul\":5181:5199   */\n  add\n    /* \"#utility.yul\":5175:5200   */\n  mload\n    /* \"#utility.yul\":5227:5245   */\n  0xffffffffffffffff\n    /* \"#utility.yul\":5219:5225   */\n  dup2\n    /* \"#utility.yul\":5216:5246   */\n  gt\n    /* \"#utility.yul\":5213:5215   */\n  iszero\n  tag_153\n  jumpi\n    /* \"#utility.yul\":5259:5260   */\n  0x00\n    /* \"#utility.yul\":5256:5257   */\n  dup1\n    /* \"#utility.yul\":5249:5261   */\n  revert\n    /* \"#utility.yul\":5213:5215   */\ntag_153:\n    /* \"#utility.yul\":5287:5376   */\n  tag_154\n    /* \"#utility.yul\":5368:5375   */\n  dup14\n    /* \"#utility.yul\":5359:5365   */\n  dup3\n    /* \"#utility.yul\":5348:5357   */\n  dup15\n    /* \"#utility.yul\":5344:5366   */\n  add\n    /* \"#utility.yul\":5287:5376   */\n  tag_122\n  jump\t// in\ntag_154:\n    /* \"#utility.yul\":5277:5376   */\n  swap9\n  pop\n    /* \"#utility.yul\":5146:5386   */\n  pop\n    /* \"#utility.yul\":5446:5448   */\n  0x60\n    /* \"#utility.yul\":5435:5444   */\n  dup12\n    /* \"#utility.yul\":5431:5449   */\n  add\n    /* \"#utility.yul\":5425:5450   */\n  mload\n    /* \"#utility.yul\":5477:5495   */\n  0xffffffffffffffff\n    /* \"#utility.yul\":5469:5475   */\n  dup2\n    /* \"#utility.yul\":5466:5496   */\n  gt\n    /* \"#utility.yul\":5463:5465   */\n  iszero\n  tag_155\n  jumpi\n    /* \"#utility.yul\":5509:5510   */\n  0x00\n    /* \"#utility.yul\":5506:5507   */\n  dup1\n    /* \"#utility.yul\":5499:5511   */\n  revert\n    /* \"#utility.yul\":5463:5465   */\ntag_155:\n    /* \"#utility.yul\":5537:5626   */\n  tag_156\n    /* \"#utility.yul\":5618:5625   */\n  dup14\n    /* \"#utility.yul\":5609:5615   */\n  dup3\n    /* \"#utility.yul\":5598:5607   */\n  dup15\n    /* \"#utility.yul\":5594:5616   */\n  add\n    /* \"#utility.yul\":5537:5626   */\n  tag_122\n  jump\t// in\ntag_156:\n    /* \"#utility.yul\":5527:5626   */\n  swap8\n  pop\n    /* \"#utility.yul\":5396:5636   */\n  pop\n    /* \"#utility.yul\":5696:5699   */\n  0x80\n    /* \"#utility.yul\":5685:5694   */\n  dup12\n    /* \"#utility.yul\":5681:5700   */\n  add\n    /* \"#utility.yul\":5675:5701   */\n  mload\n    /* \"#utility.yul\":5728:5746   */\n  0xffffffffffffffff\n    /* \"#utility.yul\":5720:5726   */\n  dup2\n    /* \"#utility.yul\":5717:5747   */\n  gt\n    /* \"#utility.yul\":5714:5716   */\n  iszero\n  tag_157\n  jumpi\n    /* \"#utility.yul\":5760:5761   */\n  0x00\n    /* \"#utility.yul\":5757:5758   */\n  dup1\n    /* \"#utility.yul\":5750:5762   */\n  revert\n    /* \"#utility.yul\":5714:5716   */\ntag_157:\n    /* \"#utility.yul\":5788:5877   */\n  tag_158\n    /* \"#utility.yul\":5869:5876   */\n  dup14\n    /* \"#utility.yul\":5860:5866   */\n  dup3\n    /* \"#utility.yul\":5849:5858   */\n  dup15\n    /* \"#utility.yul\":5845:5867   */\n  add\n    /* \"#utility.yul\":5788:5877   */\n  tag_130\n  jump\t// in\ntag_158:\n    /* \"#utility.yul\":5778:5877   */\n  swap7\n  pop\n    /* \"#utility.yul\":5646:5887   */\n  pop\n    /* \"#utility.yul\":5947:5950   */\n  0xa0\n    /* \"#utility.yul\":5936:5945   */\n  dup12\n    /* \"#utility.yul\":5932:5951   */\n  add\n    /* \"#utility.yul\":5926:5952   */\n  mload\n    /* \"#utility.yul\":5979:5997   */\n  0xffffffffffffffff\n    /* \"#utility.yul\":5971:5977   */\n  dup2\n    /* \"#utility.yul\":5968:5998   */\n  gt\n    /* \"#utility.yul\":5965:5967   */\n  iszero\n  tag_159\n  jumpi\n    /* \"#utility.yul\":6011:6012   */\n  0x00\n    /* \"#utility.yul\":6008:6009   */\n  dup1\n    /* \"#utility.yul\":6001:6013   */\n  revert\n    /* \"#utility.yul\":5965:5967   */\ntag_159:\n    /* \"#utility.yul\":6039:6127   */\n  tag_160\n    /* \"#utility.yul\":6119:6126   */\n  dup14\n    /* \"#utility.yul\":6110:6116   */\n  dup3\n    /* \"#utility.yul\":6099:6108   */\n  dup15\n    /* \"#utility.yul\":6095:6117   */\n  add\n    /* \"#utility.yul\":6039:6127   */\n  tag_126\n  jump\t// in\ntag_160:\n    /* \"#utility.yul\":6029:6127   */\n  swap6\n  pop\n    /* \"#utility.yul\":5897:6137   */\n  pop\n    /* \"#utility.yul\":6197:6200   */\n  0xc0\n    /* \"#utility.yul\":6186:6195   */\n  dup12\n    /* \"#utility.yul\":6182:6201   */\n  add\n    /* \"#utility.yul\":6176:6202   */\n  mload\n    /* \"#utility.yul\":6229:6247   */\n  0xffffffffffffffff\n    /* \"#utility.yul\":6221:6227   */\n  dup2\n    /* \"#utility.yul\":6218:6248   */\n  gt\n    /* \"#utility.yul\":6215:6217   */\n  iszero\n  tag_161\n  jumpi\n    /* \"#utility.yul\":6261:6262   */\n  0x00\n    /* \"#utility.yul\":6258:6259   */\n  dup1\n    /* \"#utility.yul\":6251:6263   */\n  revert\n    /* \"#utility.yul\":6215:6217   */\ntag_161:\n    /* \"#utility.yul\":6289:6378   */\n  tag_162\n    /* \"#utility.yul\":6370:6377   */\n  dup14\n    /* \"#utility.yul\":6361:6367   */\n  dup3\n    /* \"#utility.yul\":6350:6359   */\n  dup15\n    /* \"#utility.yul\":6346:6368   */\n  add\n    /* \"#utility.yul\":6289:6378   */\n  tag_122\n  jump\t// in\ntag_162:\n    /* \"#utility.yul\":6279:6378   */\n  swap5\n  pop\n    /* \"#utility.yul\":6147:6388   */\n  pop\n    /* \"#utility.yul\":6448:6451   */\n  0xe0\n    /* \"#utility.yul\":6437:6446   */\n  dup12\n    /* \"#utility.yul\":6433:6452   */\n  add\n    /* \"#utility.yul\":6427:6453   */\n  mload\n    /* \"#utility.yul\":6480:6498   */\n  0xffffffffffffffff\n    /* \"#utility.yul\":6472:6478   */\n  dup2\n    /* \"#utility.yul\":6469:6499   */\n  gt\n    /* \"#utility.yul\":6466:6468   */\n  iszero\n  tag_163\n  jumpi\n    /* \"#utility.yul\":6512:6513   */\n  0x00\n    /* \"#utility.yul\":6509:6510   */\n  dup1\n    /* \"#utility.yul\":6502:6514   */\n  revert\n    /* \"#utility.yul\":6466:6468   */\ntag_163:\n    /* \"#utility.yul\":6540:6614   */\n  tag_164\n    /* \"#utility.yul\":6606:6613   */\n  dup14\n    /* \"#utility.yul\":6597:6603   */\n  dup3\n    /* \"#utility.yul\":6586:6595   */\n  dup15\n    /* \"#utility.yul\":6582:6604   */\n  add\n    /* \"#utility.yul\":6540:6614   */\n  tag_137\n  jump\t// in\ntag_164:\n    /* \"#utility.yul\":6530:6614   */\n  swap4\n  pop\n    /* \"#utility.yul\":6398:6624   */\n  pop\n    /* \"#utility.yul\":6684:6687   */\n  0x0100\n    /* \"#utility.yul\":6673:6682   */\n  dup12\n    /* \"#utility.yul\":6669:6688   */\n  add\n    /* \"#utility.yul\":6663:6689   */\n  mload\n    /* \"#utility.yul\":6716:6734   */\n  0xffffffffffffffff\n    /* \"#utility.yul\":6708:6714   */\n  dup2\n    /* \"#utility.yul\":6705:6735   */\n  gt\n    /* \"#utility.yul\":6702:6704   */\n  iszero\n  tag_165\n  jumpi\n    /* \"#utility.yul\":6748:6749   */\n  0x00\n    /* \"#utility.yul\":6745:6746   */\n  dup1\n    /* \"#utility.yul\":6738:6750   */\n  revert\n    /* \"#utility.yul\":6702:6704   */\ntag_165:\n    /* \"#utility.yul\":6776:6850   */\n  tag_166\n    /* \"#utility.yul\":6842:6849   */\n  dup14\n    /* \"#utility.yul\":6833:6839   */\n  dup3\n    /* \"#utility.yul\":6822:6831   */\n  dup15\n    /* \"#utility.yul\":6818:6840   */\n  add\n    /* \"#utility.yul\":6776:6850   */\n  tag_137\n  jump\t// in\ntag_166:\n    /* \"#utility.yul\":6766:6850   */\n  swap3\n  pop\n    /* \"#utility.yul\":6634:6860   */\n  pop\n    /* \"#utility.yul\":6920:6923   */\n  0x0120\n    /* \"#utility.yul\":6909:6918   */\n  dup12\n    /* \"#utility.yul\":6905:6924   */\n  add\n    /* \"#utility.yul\":6899:6925   */\n  mload\n    /* \"#utility.yul\":6952:6970   */\n  0xffffffffffffffff\n    /* \"#utility.yul\":6944:6950   */\n  dup2\n    /* \"#utility.yul\":6941:6971   */\n  gt\n    /* \"#utility.yul\":6938:6940   */\n  iszero\n  tag_167\n  jumpi\n    /* \"#utility.yul\":6984:6985   */\n  0x00\n    /* \"#utility.yul\":6981:6982   */\n  dup1\n    /* \"#utility.yul\":6974:6986   */\n  revert\n    /* \"#utility.yul\":6938:6940   */\ntag_167:\n    /* \"#utility.yul\":7012:7086   */\n  tag_168\n    /* \"#utility.yul\":7078:7085   */\n  dup14\n    /* \"#utility.yul\":7069:7075   */\n  dup3\n    /* \"#utility.yul\":7058:7067   */\n  dup15\n    /* \"#utility.yul\":7054:7076   */\n  add\n    /* \"#utility.yul\":7012:7086   */\n  tag_137\n  jump\t// in\ntag_168:\n    /* \"#utility.yul\":7002:7086   */\n  swap2\n  pop\n    /* \"#utility.yul\":6870:7096   */\n  pop\n    /* \"#utility.yul\":4574:7103   */\n  swap3\n  swap6\n  swap9\n  swap12\n  swap2\n  swap5\n  swap8\n  swap11\n  pop\n  swap3\n  swap6\n  swap9\n  pop\n  jump\t// out\n    /* \"#utility.yul\":7109:7475   */\ntag_169:\n  0x00\n    /* \"#utility.yul\":7272:7339   */\n  tag_171\n    /* \"#utility.yul\":7336:7338   */\n  0x39\n    /* \"#utility.yul\":7331:7334   */\n  dup4\n    /* \"#utility.yul\":7272:7339   */\n  tag_172\n  jump\t// in\ntag_171:\n    /* \"#utility.yul\":7265:7339   */\n  swap2\n  pop\n    /* \"#utility.yul\":7348:7441   */\n  tag_173\n    /* \"#utility.yul\":7437:7440   */\n  dup3\n    /* \"#utility.yul\":7348:7441   */\n  tag_174\n  jump\t// in\ntag_173:\n    /* \"#utility.yul\":7466:7468   */\n  0x40\n    /* \"#utility.yul\":7461:7464   */\n  dup3\n    /* \"#utility.yul\":7457:7469   */\n  add\n    /* \"#utility.yul\":7450:7469   */\n  swap1\n  pop\n    /* \"#utility.yul\":7255:7475   */\n  swap2\n  swap1\n  pop\n  jump\t// out\n    /* \"#utility.yul\":7481:7847   */\ntag_175:\n  0x00\n    /* \"#utility.yul\":7644:7711   */\n  tag_177\n    /* \"#utility.yul\":7708:7710   */\n  0x4a\n    /* \"#utility.yul\":7703:7706   */\n  dup4\n    /* \"#utility.yul\":7644:7711   */\n  tag_172\n  jump\t// in\ntag_177:\n    /* \"#utility.yul\":7637:7711   */\n  swap2\n  pop\n    /* \"#utility.yul\":7720:7813   */\n  tag_178\n    /* \"#utility.yul\":7809:7812   */\n  dup3\n    /* \"#utility.yul\":7720:7813   */\n  tag_179\n  jump\t// in\ntag_178:\n    /* \"#utility.yul\":7838:7840   */\n  0x60\n    /* \"#utility.yul\":7833:7836   */\n  dup3\n    /* \"#utility.yul\":7829:7841   */\n  add\n    /* \"#utility.yul\":7822:7841   */\n  swap1\n  pop\n    /* \"#utility.yul\":7627:7847   */\n  swap2\n  swap1\n  pop\n  jump\t// out\n    /* \"#utility.yul\":7853:8219   */\ntag_180:\n  0x00\n    /* \"#utility.yul\":8016:8083   */\n  tag_182\n    /* \"#utility.yul\":8080:8082   */\n  0x24\n    /* \"#utility.yul\":8075:8078   */\n  dup4\n    /* \"#utility.yul\":8016:8083   */\n  tag_172\n  jump\t// in\ntag_182:\n    /* \"#utility.yul\":8009:8083   */\n  swap2\n  pop\n    /* \"#utility.yul\":8092:8185   */\n  tag_183\n    /* \"#utility.yul\":8181:8184   */\n  dup3\n    /* \"#utility.yul\":8092:8185   */\n  tag_184\n  jump\t// in\ntag_183:\n    /* \"#utility.yul\":8210:8212   */\n  0x40\n    /* \"#utility.yul\":8205:8208   */\n  dup3\n    /* \"#utility.yul\":8201:8213   */\n  add\n    /* \"#utility.yul\":8194:8213   */\n  swap1\n  pop\n    /* \"#utility.yul\":7999:8219   */\n  swap2\n  swap1\n  pop\n  jump\t// out\n    /* \"#utility.yul\":8225:8591   */\ntag_185:\n  0x00\n    /* \"#utility.yul\":8388:8455   */\n  tag_187\n    /* \"#utility.yul\":8452:8454   */\n  0x30\n    /* \"#utility.yul\":8447:8450   */\n  dup4\n    /* \"#utility.yul\":8388:8455   */\n  tag_172\n  jump\t// in\ntag_187:\n    /* \"#utility.yul\":8381:8455   */\n  swap2\n  pop\n    /* \"#utility.yul\":8464:8557   */\n  tag_188\n    /* \"#utility.yul\":8553:8556   */\n  dup3\n    /* \"#utility.yul\":8464:8557   */\n  tag_189\n  jump\t// in\ntag_188:\n    /* \"#utility.yul\":8582:8584   */\n  0x40\n    /* \"#utility.yul\":8577:8580   */\n  dup3\n    /* \"#utility.yul\":8573:8585   */\n  add\n    /* \"#utility.yul\":8566:8585   */\n  swap1\n  pop\n    /* \"#utility.yul\":8371:8591   */\n  swap2\n  swap1\n  pop\n  jump\t// out\n    /* \"#utility.yul\":8597:8963   */\ntag_190:\n  0x00\n    /* \"#utility.yul\":8760:8827   */\n  tag_192\n    /* \"#utility.yul\":8824:8826   */\n  0x40\n    /* \"#utility.yul\":8819:8822   */\n  dup4\n    /* \"#utility.yul\":8760:8827   */\n  tag_172\n  jump\t// in\ntag_192:\n    /* \"#utility.yul\":8753:8827   */\n  swap2\n  pop\n    /* \"#utility.yul\":8836:8929   */\n  tag_193\n    /* \"#utility.yul\":8925:8928   */\n  dup3\n    /* \"#utility.yul\":8836:8929   */\n  tag_194\n  jump\t// in\ntag_193:\n    /* \"#utility.yul\":8954:8956   */\n  0x40\n    /* \"#utility.yul\":8949:8952   */\n  dup3\n    /* \"#utility.yul\":8945:8957   */\n  add\n    /* \"#utility.yul\":8938:8957   */\n  swap1\n  pop\n    /* \"#utility.yul\":8743:8963   */\n  swap2\n  swap1\n  pop\n  jump\t// out\n    /* \"#utility.yul\":8969:9388   */\ntag_53:\n  0x00\n    /* \"#utility.yul\":9173:9175   */\n  0x20\n    /* \"#utility.yul\":9162:9171   */\n  dup3\n    /* \"#utility.yul\":9158:9176   */\n  add\n    /* \"#utility.yul\":9150:9176   */\n  swap1\n  pop\n    /* \"#utility.yul\":9222:9231   */\n  dup2\n    /* \"#utility.yul\":9216:9220   */\n  dup2\n    /* \"#utility.yul\":9212:9232   */\n  sub\n    /* \"#utility.yul\":9208:9209   */\n  0x00\n    /* \"#utility.yul\":9197:9206   */\n  dup4\n    /* \"#utility.yul\":9193:9210   */\n  add\n    /* \"#utility.yul\":9186:9233   */\n  mstore\n    /* \"#utility.yul\":9250:9381   */\n  tag_196\n    /* \"#utility.yul\":9376:9380   */\n  dup2\n    /* \"#utility.yul\":9250:9381   */\n  tag_169\n  jump\t// in\ntag_196:\n    /* \"#utility.yul\":9242:9381   */\n  swap1\n  pop\n    /* \"#utility.yul\":9140:9388   */\n  swap2\n  swap1\n  pop\n  jump\t// out\n    /* \"#utility.yul\":9394:9813   */\ntag_21:\n  0x00\n    /* \"#utility.yul\":9598:9600   */\n  0x20\n    /* \"#utility.yul\":9587:9596   */\n  dup3\n    /* \"#utility.yul\":9583:9601   */\n  add\n    /* \"#utility.yul\":9575:9601   */\n  swap1\n  pop\n    /* \"#utility.yul\":9647:9656   */\n  dup2\n    /* \"#utility.yul\":9641:9645   */\n  dup2\n    /* \"#utility.yul\":9637:9657   */\n  sub\n    /* \"#utility.yul\":9633:9634   */\n  0x00\n    /* \"#utility.yul\":9622:9631   */\n  dup4\n    /* \"#utility.yul\":9618:9635   */\n  add\n    /* \"#utility.yul\":9611:9658   */\n  mstore\n    /* \"#utility.yul\":9675:9806   */\n  tag_198\n    /* \"#utility.yul\":9801:9805   */\n  dup2\n    /* \"#utility.yul\":9675:9806   */\n  tag_175\n  jump\t// in\ntag_198:\n    /* \"#utility.yul\":9667:9806   */\n  swap1\n  pop\n    /* \"#utility.yul\":9565:9813   */\n  swap2\n  swap1\n  pop\n  jump\t// out\n    /* \"#utility.yul\":9819:10238   */\ntag_39:\n  0x00\n    /* \"#utility.yul\":10023:10025   */\n  0x20\n    /* \"#utility.yul\":10012:10021   */\n  dup3\n    /* \"#utility.yul\":10008:10026   */\n  add\n    /* \"#utility.yul\":10000:10026   */\n  swap1\n  pop\n    /* \"#utility.yul\":10072:10081   */\n  dup2\n    /* \"#utility.yul\":10066:10070   */\n  dup2\n    /* \"#utility.yul\":10062:10082   */\n  sub\n    /* \"#utility.yul\":10058:10059   */\n  0x00\n    /* \"#utility.yul\":10047:10056   */\n  dup4\n    /* \"#utility.yul\":10043:10060   */\n  add\n    /* \"#utility.yul\":10036:10083   */\n  mstore\n    /* \"#utility.yul\":10100:10231   */\n  tag_200\n    /* \"#utility.yul\":10226:10230   */\n  dup2\n    /* \"#utility.yul\":10100:10231   */\n  tag_180\n  jump\t// in\ntag_200:\n    /* \"#utility.yul\":10092:10231   */\n  swap1\n  pop\n    /* \"#utility.yul\":9990:10238   */\n  swap2\n  swap1\n  pop\n  jump\t// out\n    /* \"#utility.yul\":10244:10663   */\ntag_31:\n  0x00\n    /* \"#utility.yul\":10448:10450   */\n  0x20\n    /* \"#utility.yul\":10437:10446   */\n  dup3\n    /* \"#utility.yul\":10433:10451   */\n  add\n    /* \"#utility.yul\":10425:10451   */\n  swap1\n  pop\n    /* \"#utility.yul\":10497:10506   */\n  dup2\n    /* \"#utility.yul\":10491:10495   */\n  dup2\n    /* \"#utility.yul\":10487:10507   */\n  sub\n    /* \"#utility.yul\":10483:10484   */\n  0x00\n    /* \"#utility.yul\":10472:10481   */\n  dup4\n    /* \"#utility.yul\":10468:10485   */\n  add\n    /* \"#utility.yul\":10461:10508   */\n  mstore\n    /* \"#utility.yul\":10525:10656   */\n  tag_202\n    /* \"#utility.yul\":10651:10655   */\n  dup2\n    /* \"#utility.yul\":10525:10656   */\n  tag_185\n  jump\t// in\ntag_202:\n    /* \"#utility.yul\":10517:10656   */\n  swap1\n  pop\n    /* \"#utility.yul\":10415:10663   */\n  swap2\n  swap1\n  pop\n  jump\t// out\n    /* \"#utility.yul\":10669:11088   */\ntag_26:\n  0x00\n    /* \"#utility.yul\":10873:10875   */\n  0x20\n    /* \"#utility.yul\":10862:10871   */\n  dup3\n    /* \"#utility.yul\":10858:10876   */\n  add\n    /* \"#utility.yul\":10850:10876   */\n  swap1\n  pop\n    /* \"#utility.yul\":10922:10931   */\n  dup2\n    /* \"#utility.yul\":10916:10920   */\n  dup2\n    /* \"#utility.yul\":10912:10932   */\n  sub\n    /* \"#utility.yul\":10908:10909   */\n  0x00\n    /* \"#utility.yul\":10897:10906   */\n  dup4\n    /* \"#utility.yul\":10893:10910   */\n  add\n    /* \"#utility.yul\":10886:10933   */\n  mstore\n    /* \"#utility.yul\":10950:11081   */\n  tag_204\n    /* \"#utility.yul\":11076:11080   */\n  dup2\n    /* \"#utility.yul\":10950:11081   */\n  tag_190\n  jump\t// in\ntag_204:\n    /* \"#utility.yul\":10942:11081   */\n  swap1\n  pop\n    /* \"#utility.yul\":10840:11088   */\n  swap2\n  swap1\n  pop\n  jump\t// out\n    /* \"#utility.yul\":11094:11223   */\ntag_85:\n  0x00\n    /* \"#utility.yul\":11155:11175   */\n  tag_206\n  tag_207\n  jump\t// in\ntag_206:\n    /* \"#utility.yul\":11145:11175   */\n  swap1\n  pop\n    /* \"#utility.yul\":11184:11217   */\n  tag_208\n    /* \"#utility.yul\":11212:11216   */\n  dup3\n    /* \"#utility.yul\":11204:11210   */\n  dup3\n    /* \"#utility.yul\":11184:11217   */\n  tag_209\n  jump\t// in\ntag_208:\n    /* \"#utility.yul\":11135:11223   */\n  swap2\n  swap1\n  pop\n  jump\t// out\n    /* \"#utility.yul\":11229:11304   */\ntag_207:\n  0x00\n    /* \"#utility.yul\":11295:11297   */\n  0x40\n    /* \"#utility.yul\":11289:11298   */\n  mload\n    /* \"#utility.yul\":11279:11298   */\n  swap1\n  pop\n    /* \"#utility.yul\":11269:11304   */\n  swap1\n  jump\t// out\n    /* \"#utility.yul\":11310:11621   */\ntag_84:\n  0x00\n    /* \"#utility.yul\":11477:11495   */\n  0xffffffffffffffff\n    /* \"#utility.yul\":11469:11475   */\n  dup3\n    /* \"#utility.yul\":11466:11496   */\n  gt\n    /* \"#utility.yul\":11463:11465   */\n  iszero\n  tag_212\n  jumpi\n    /* \"#utility.yul\":11499:11517   */\n  tag_213\n  tag_214\n  jump\t// in\ntag_213:\n    /* \"#utility.yul\":11463:11465   */\ntag_212:\n    /* \"#utility.yul\":11549:11553   */\n  0x20\n    /* \"#utility.yul\":11541:11547   */\n  dup3\n    /* \"#utility.yul\":11537:11554   */\n  mul\n    /* \"#utility.yul\":11529:11554   */\n  swap1\n  pop\n    /* \"#utility.yul\":11609:11613   */\n  0x20\n    /* \"#utility.yul\":11603:11607   */\n  dup2\n    /* \"#utility.yul\":11599:11614   */\n  add\n    /* \"#utility.yul\":11591:11614   */\n  swap1\n  pop\n    /* \"#utility.yul\":11392:11621   */\n  swap2\n  swap1\n  pop\n  jump\t// out\n    /* \"#utility.yul\":11627:11937   */\ntag_96:\n  0x00\n    /* \"#utility.yul\":11793:11811   */\n  0xffffffffffffffff\n    /* \"#utility.yul\":11785:11791   */\n  dup3\n    /* \"#utility.yul\":11782:11812   */\n  gt\n    /* \"#utility.yul\":11779:11781   */\n  iszero\n  tag_216\n  jumpi\n    /* \"#utility.yul\":11815:11833   */\n  tag_217\n  tag_214\n  jump\t// in\ntag_217:\n    /* \"#utility.yul\":11779:11781   */\ntag_216:\n    /* \"#utility.yul\":11865:11869   */\n  0x20\n    /* \"#utility.yul\":11857:11863   */\n  dup3\n    /* \"#utility.yul\":11853:11870   */\n  mul\n    /* \"#utility.yul\":11845:11870   */\n  swap1\n  pop\n    /* \"#utility.yul\":11925:11929   */\n  0x20\n    /* \"#utility.yul\":11919:11923   */\n  dup2\n    /* \"#utility.yul\":11915:11930   */\n  add\n    /* \"#utility.yul\":11907:11930   */\n  swap1\n  pop\n    /* \"#utility.yul\":11708:11937   */\n  swap2\n  swap1\n  pop\n  jump\t// out\n    /* \"#utility.yul\":11943:12254   */\ntag_107:\n  0x00\n    /* \"#utility.yul\":12110:12128   */\n  0xffffffffffffffff\n    /* \"#utility.yul\":12102:12108   */\n  dup3\n    /* \"#utility.yul\":12099:12129   */\n  gt\n    /* \"#utility.yul\":12096:12098   */\n  iszero\n  tag_219\n  jumpi\n    /* \"#utility.yul\":12132:12150   */\n  tag_220\n  tag_214\n  jump\t// in\ntag_220:\n    /* \"#utility.yul\":12096:12098   */\ntag_219:\n    /* \"#utility.yul\":12182:12186   */\n  0x20\n    /* \"#utility.yul\":12174:12180   */\n  dup3\n    /* \"#utility.yul\":12170:12187   */\n  mul\n    /* \"#utility.yul\":12162:12187   */\n  swap1\n  pop\n    /* \"#utility.yul\":12242:12246   */\n  0x20\n    /* \"#utility.yul\":12236:12240   */\n  dup2\n    /* \"#utility.yul\":12232:12247   */\n  add\n    /* \"#utility.yul\":12224:12247   */\n  swap1\n  pop\n    /* \"#utility.yul\":12025:12254   */\n  swap2\n  swap1\n  pop\n  jump\t// out\n    /* \"#utility.yul\":12260:12568   */\ntag_118:\n  0x00\n    /* \"#utility.yul\":12412:12430   */\n  0xffffffffffffffff\n    /* \"#utility.yul\":12404:12410   */\n  dup3\n    /* \"#utility.yul\":12401:12431   */\n  gt\n    /* \"#utility.yul\":12398:12400   */\n  iszero\n  tag_222\n  jumpi\n    /* \"#utility.yul\":12434:12452   */\n  tag_223\n  tag_214\n  jump\t// in\ntag_223:\n    /* \"#utility.yul\":12398:12400   */\ntag_222:\n    /* \"#utility.yul\":12472:12501   */\n  tag_224\n    /* \"#utility.yul\":12494:12500   */\n  dup3\n    /* \"#utility.yul\":12472:12501   */\n  tag_225\n  jump\t// in\ntag_224:\n    /* \"#utility.yul\":12464:12501   */\n  swap1\n  pop\n    /* \"#utility.yul\":12556:12560   */\n  0x20\n    /* \"#utility.yul\":12550:12554   */\n  dup2\n    /* \"#utility.yul\":12546:12561   */\n  add\n    /* \"#utility.yul\":12538:12561   */\n  swap1\n  pop\n    /* \"#utility.yul\":12327:12568   */\n  swap2\n  swap1\n  pop\n  jump\t// out\n    /* \"#utility.yul\":12574:12743   */\ntag_172:\n  0x00\n    /* \"#utility.yul\":12692:12698   */\n  dup3\n    /* \"#utility.yul\":12687:12690   */\n  dup3\n    /* \"#utility.yul\":12680:12699   */\n  mstore\n    /* \"#utility.yul\":12732:12736   */\n  0x20\n    /* \"#utility.yul\":12727:12730   */\n  dup3\n    /* \"#utility.yul\":12723:12737   */\n  add\n    /* \"#utility.yul\":12708:12737   */\n  swap1\n  pop\n    /* \"#utility.yul\":12670:12743   */\n  swap3\n  swap2\n  pop\n  pop\n  jump\t// out\n    /* \"#utility.yul\":12749:12940   */\ntag_49:\n  0x00\n    /* \"#utility.yul\":12809:12829   */\n  tag_228\n    /* \"#utility.yul\":12827:12828   */\n  dup3\n    /* \"#utility.yul\":12809:12829   */\n  tag_229\n  jump\t// in\ntag_228:\n    /* \"#utility.yul\":12804:12829   */\n  swap2\n  pop\n    /* \"#utility.yul\":12843:12863   */\n  tag_230\n    /* \"#utility.yul\":12861:12862   */\n  dup4\n    /* \"#utility.yul\":12843:12863   */\n  tag_229\n  jump\t// in\ntag_230:\n    /* \"#utility.yul\":12838:12863   */\n  swap3\n  pop\n    /* \"#utility.yul\":12882:12883   */\n  dup3\n    /* \"#utility.yul\":12879:12880   */\n  dup3\n    /* \"#utility.yul\":12876:12884   */\n  lt\n    /* \"#utility.yul\":12873:12875   */\n  iszero\n  tag_231\n  jumpi\n    /* \"#utility.yul\":12887:12905   */\n  tag_232\n  tag_233\n  jump\t// in\ntag_232:\n    /* \"#utility.yul\":12873:12875   */\ntag_231:\n    /* \"#utility.yul\":12932:12933   */\n  dup3\n    /* \"#utility.yul\":12929:12930   */\n  dup3\n    /* \"#utility.yul\":12925:12934   */\n  sub\n    /* \"#utility.yul\":12917:12934   */\n  swap1\n  pop\n    /* \"#utility.yul\":12794:12940   */\n  swap3\n  swap2\n  pop\n  pop\n  jump\t// out\n    /* \"#utility.yul\":12946:13023   */\ntag_234:\n  0x00\n    /* \"#utility.yul\":13012:13017   */\n  dup2\n    /* \"#utility.yul\":13001:13017   */\n  swap1\n  pop\n    /* \"#utility.yul\":12991:13023   */\n  swap2\n  swap1\n  pop\n  jump\t// out\n    /* \"#utility.yul\":13029:13118   */\ntag_236:\n  0x00\n    /* \"#utility.yul\":13105:13111   */\n  0xffff\n    /* \"#utility.yul\":13098:13103   */\n  dup3\n    /* \"#utility.yul\":13094:13112   */\n  and\n    /* \"#utility.yul\":13083:13112   */\n  swap1\n  pop\n    /* \"#utility.yul\":13073:13118   */\n  swap2\n  swap1\n  pop\n  jump\t// out\n    /* \"#utility.yul\":13124:13201   */\ntag_229:\n  0x00\n    /* \"#utility.yul\":13190:13195   */\n  dup2\n    /* \"#utility.yul\":13179:13195   */\n  swap1\n  pop\n    /* \"#utility.yul\":13169:13201   */\n  swap2\n  swap1\n  pop\n  jump\t// out\n    /* \"#utility.yul\":13207:13514   */\ntag_121:\n    /* \"#utility.yul\":13275:13276   */\n  0x00\n    /* \"#utility.yul\":13285:13398   */\ntag_240:\n    /* \"#utility.yul\":13299:13305   */\n  dup4\n    /* \"#utility.yul\":13296:13297   */\n  dup2\n    /* \"#utility.yul\":13293:13306   */\n  lt\n    /* \"#utility.yul\":13285:13398   */\n  iszero\n  tag_242\n  jumpi\n    /* \"#utility.yul\":13384:13385   */\n  dup1\n    /* \"#utility.yul\":13379:13382   */\n  dup3\n    /* \"#utility.yul\":13375:13386   */\n  add\n    /* \"#utility.yul\":13369:13387   */\n  mload\n    /* \"#utility.yul\":13365:13366   */\n  dup2\n    /* \"#utility.yul\":13360:13363   */\n  dup5\n    /* \"#utility.yul\":13356:13367   */\n  add\n    /* \"#utility.yul\":13349:13388   */\n  mstore\n    /* \"#utility.yul\":13321:13323   */\n  0x20\n    /* \"#utility.yul\":13318:13319   */\n  dup2\n    /* \"#utility.yul\":13314:13324   */\n  add\n    /* \"#utility.yul\":13309:13324   */\n  swap1\n  pop\n    /* \"#utility.yul\":13285:13398   */\n  jump(tag_240)\ntag_242:\n    /* \"#utility.yul\":13416:13422   */\n  dup4\n    /* \"#utility.yul\":13413:13414   */\n  dup2\n    /* \"#utility.yul\":13410:13423   */\n  gt\n    /* \"#utility.yul\":13407:13409   */\n  iszero\n  tag_243\n  jumpi\n    /* \"#utility.yul\":13496:13497   */\n  0x00\n    /* \"#utility.yul\":13487:13493   */\n  dup5\n    /* \"#utility.yul\":13482:13485   */\n  dup5\n    /* \"#utility.yul\":13478:13494   */\n  add\n    /* \"#utility.yul\":13471:13498   */\n  mstore\n    /* \"#utility.yul\":13407:13409   */\ntag_243:\n    /* \"#utility.yul\":13256:13514   */\n  pop\n  pop\n  pop\n  pop\n  jump\t// out\n    /* \"#utility.yul\":13520:13840   */\ntag_62:\n  0x00\n    /* \"#utility.yul\":13601:13602   */\n  0x02\n    /* \"#utility.yul\":13595:13599   */\n  dup3\n    /* \"#utility.yul\":13591:13603   */\n  div\n    /* \"#utility.yul\":13581:13603   */\n  swap1\n  pop\n    /* \"#utility.yul\":13648:13649   */\n  0x01\n    /* \"#utility.yul\":13642:13646   */\n  dup3\n    /* \"#utility.yul\":13638:13650   */\n  and\n    /* \"#utility.yul\":13669:13687   */\n  dup1\n    /* \"#utility.yul\":13659:13661   */\n  tag_245\n  jumpi\n    /* \"#utility.yul\":13725:13729   */\n  0x7f\n    /* \"#utility.yul\":13717:13723   */\n  dup3\n    /* \"#utility.yul\":13713:13730   */\n  and\n    /* \"#utility.yul\":13703:13730   */\n  swap2\n  pop\n    /* \"#utility.yul\":13659:13661   */\ntag_245:\n    /* \"#utility.yul\":13787:13789   */\n  0x20\n    /* \"#utility.yul\":13779:13785   */\n  dup3\n    /* \"#utility.yul\":13776:13790   */\n  lt\n    /* \"#utility.yul\":13756:13774   */\n  dup2\n    /* \"#utility.yul\":13753:13791   */\n  eq\n    /* \"#utility.yul\":13750:13752   */\n  iszero\n  tag_246\n  jumpi\n    /* \"#utility.yul\":13806:13824   */\n  tag_247\n  tag_248\n  jump\t// in\ntag_247:\n    /* \"#utility.yul\":13750:13752   */\ntag_246:\n    /* \"#utility.yul\":13571:13840   */\n  pop\n  swap2\n  swap1\n  pop\n  jump\t// out\n    /* \"#utility.yul\":13846:14127   */\ntag_209:\n    /* \"#utility.yul\":13929:13956   */\n  tag_250\n    /* \"#utility.yul\":13951:13955   */\n  dup3\n    /* \"#utility.yul\":13929:13956   */\n  tag_225\n  jump\t// in\ntag_250:\n    /* \"#utility.yul\":13921:13927   */\n  dup2\n    /* \"#utility.yul\":13917:13957   */\n  add\n    /* \"#utility.yul\":14059:14065   */\n  dup2\n    /* \"#utility.yul\":14047:14057   */\n  dup2\n    /* \"#utility.yul\":14044:14066   */\n  lt\n    /* \"#utility.yul\":14023:14041   */\n  0xffffffffffffffff\n    /* \"#utility.yul\":14011:14021   */\n  dup3\n    /* \"#utility.yul\":14008:14042   */\n  gt\n    /* \"#utility.yul\":14005:14067   */\n  or\n    /* \"#utility.yul\":14002:14004   */\n  iszero\n  tag_251\n  jumpi\n    /* \"#utility.yul\":14070:14088   */\n  tag_252\n  tag_214\n  jump\t// in\ntag_252:\n    /* \"#utility.yul\":14002:14004   */\ntag_251:\n    /* \"#utility.yul\":14110:14120   */\n  dup1\n    /* \"#utility.yul\":14106:14108   */\n  0x40\n    /* \"#utility.yul\":14099:14121   */\n  mstore\n    /* \"#utility.yul\":13889:14127   */\n  pop\n  pop\n  pop\n  jump\t// out\n    /* \"#utility.yul\":14133:14366   */\ntag_59:\n  0x00\n    /* \"#utility.yul\":14195:14219   */\n  tag_254\n    /* \"#utility.yul\":14213:14218   */\n  dup3\n    /* \"#utility.yul\":14195:14219   */\n  tag_229\n  jump\t// in\ntag_254:\n    /* \"#utility.yul\":14186:14219   */\n  swap2\n  pop\n    /* \"#utility.yul\":14241:14307   */\n  0xffffffffffffffffffffffffffffffffffffffffffffffffffffffffffffffff\n    /* \"#utility.yul\":14234:14239   */\n  dup3\n    /* \"#utility.yul\":14231:14308   */\n  eq\n    /* \"#utility.yul\":14228:14230   */\n  iszero\n  tag_255\n  jumpi\n    /* \"#utility.yul\":14311:14329   */\n  tag_256\n  tag_233\n  jump\t// in\ntag_256:\n    /* \"#utility.yul\":14228:14230   */\ntag_255:\n    /* \"#utility.yul\":14358:14359   */\n  0x01\n    /* \"#utility.yul\":14351:14356   */\n  dup3\n    /* \"#utility.yul\":14347:14360   */\n  add\n    /* \"#utility.yul\":14340:14360   */\n  swap1\n  pop\n    /* \"#utility.yul\":14176:14366   */\n  swap2\n  swap1\n  pop\n  jump\t// out\n    /* \"#utility.yul\":14372:14552   */\ntag_233:\n    /* \"#utility.yul\":14420:14497   */\n  0x4e487b7100000000000000000000000000000000000000000000000000000000\n    /* \"#utility.yul\":14417:14418   */\n  0x00\n    /* \"#utility.yul\":14410:14498   */\n  mstore\n    /* \"#utility.yul\":14517:14521   */\n  0x11\n    /* \"#utility.yul\":14514:14515   */\n  0x04\n    /* \"#utility.yul\":14507:14522   */\n  mstore\n    /* \"#utility.yul\":14541:14545   */\n  0x24\n    /* \"#utility.yul\":14538:14539   */\n  0x00\n    /* \"#utility.yul\":14531:14546   */\n  revert\n    /* \"#utility.yul\":14558:14738   */\ntag_248:\n    /* \"#utility.yul\":14606:14683   */\n  0x4e487b7100000000000000000000000000000000000000000000000000000000\n    /* \"#utility.yul\":14603:14604   */\n  0x00\n    /* \"#utility.yul\":14596:14684   */\n  mstore\n    /* \"#utility.yul\":14703:14707   */\n  0x22\n    /* \"#utility.yul\":14700:14701   */\n  0x04\n    /* \"#utility.yul\":14693:14708   */\n  mstore\n    /* \"#utility.yul\":14727:14731   */\n  0x24\n    /* \"#utility.yul\":14724:14725   */\n  0x00\n    /* \"#utility.yul\":14717:14732   */\n  revert\n    /* \"#utility.yul\":14744:14924   */\ntag_214:\n    /* \"#utility.yul\":14792:14869   */\n  0x4e487b7100000000000000000000000000000000000000000000000000000000\n    /* \"#utility.yul\":14789:14790   */\n  0x00\n    /* \"#utility.yul\":14782:14870   */\n  mstore\n    /* \"#utility.yul\":14889:14893   */\n  0x41\n    /* \"#utility.yul\":14886:14887   */\n  0x04\n    /* \"#utility.yul\":14879:14894   */\n  mstore\n    /* \"#utility.yul\":14913:14917   */\n  0x24\n    /* \"#utility.yul\":14910:14911   */\n  0x00\n    /* \"#utility.yul\":14903:14918   */\n  revert\n    /* \"#utility.yul\":14930:15032   */\ntag_225:\n  0x00\n    /* \"#utility.yul\":15022:15024   */\n  0x1f\n    /* \"#utility.yul\":15018:15025   */\n  not\n    /* \"#utility.yul\":15013:15015   */\n  0x1f\n    /* \"#utility.yul\":15006:15011   */\n  dup4\n    /* \"#utility.yul\":15002:15016   */\n  add\n    /* \"#utility.yul\":14998:15026   */\n  and\n    /* \"#utility.yul\":14988:15026   */\n  swap1\n  pop\n    /* \"#utility.yul\":14978:15032   */\n  swap2\n  swap1\n  pop\n  jump\t// out\n    /* \"#utility.yul\":15038:15282   */\ntag_174:\n    /* \"#utility.yul\":15178:15212   */\n  0x436865636b20746861742070726576696f75732050435220686173206265656e\n    /* \"#utility.yul\":15174:15175   */\n  0x00\n    /* \"#utility.yul\":15166:15172   */\n  dup3\n    /* \"#utility.yul\":15162:15176   */\n  add\n    /* \"#utility.yul\":15155:15213   */\n  mstore\n    /* \"#utility.yul\":15247:15274   */\n  0x206e6f206d6f7265207468616e203320646179732061676f2e00000000000000\n    /* \"#utility.yul\":15242:15244   */\n  0x20\n    /* \"#utility.yul\":15234:15240   */\n  dup3\n    /* \"#utility.yul\":15230:15245   */\n  add\n    /* \"#utility.yul\":15223:15275   */\n  mstore\n    /* \"#utility.yul\":15144:15282   */\n  pop\n  jump\t// out\n    /* \"#utility.yul\":15288:15586   */\ntag_179:\n    /* \"#utility.yul\":15428:15462   */\n  0x596f75206861766520746f2070726f766964652074686520616d6f756e74206f\n    /* \"#utility.yul\":15424:15425   */\n  0x00\n    /* \"#utility.yul\":15416:15422   */\n  dup3\n    /* \"#utility.yul\":15412:15426   */\n  add\n    /* \"#utility.yul\":15405:15463   */\n  mstore\n    /* \"#utility.yul\":15497:15531   */\n  0x662064617920636f6d70656e736174696f6e20616e6420746865206e756d6265\n    /* \"#utility.yul\":15492:15494   */\n  0x20\n    /* \"#utility.yul\":15484:15490   */\n  dup3\n    /* \"#utility.yul\":15480:15495   */\n  add\n    /* \"#utility.yul\":15473:15532   */\n  mstore\n    /* \"#utility.yul\":15566:15578   */\n  0x72206f6620646179732e00000000000000000000000000000000000000000000\n    /* \"#utility.yul\":15561:15563   */\n  0x40\n    /* \"#utility.yul\":15553:15559   */\n  dup3\n    /* \"#utility.yul\":15549:15564   */\n  add\n    /* \"#utility.yul\":15542:15579   */\n  mstore\n    /* \"#utility.yul\":15394:15586   */\n  pop\n  jump\t// out\n    /* \"#utility.yul\":15592:15815   */\ntag_184:\n    /* \"#utility.yul\":15732:15766   */\n  0x4d7573742070726f7669646520506f6c69637920494420616e642054616b6572\n    /* \"#utility.yul\":15728:15729   */\n  0x00\n    /* \"#utility.yul\":15720:15726   */\n  dup3\n    /* \"#utility.yul\":15716:15730   */\n  add\n    /* \"#utility.yul\":15709:15767   */\n  mstore\n    /* \"#utility.yul\":15801:15807   */\n  0x2049442e00000000000000000000000000000000000000000000000000000000\n    /* \"#utility.yul\":15796:15798   */\n  0x20\n    /* \"#utility.yul\":15788:15794   */\n  dup3\n    /* \"#utility.yul\":15784:15799   */\n  add\n    /* \"#utility.yul\":15777:15808   */\n  mstore\n    /* \"#utility.yul\":15698:15815   */\n  pop\n  jump\t// out\n    /* \"#utility.yul\":15821:16056   */\ntag_189:\n    /* \"#utility.yul\":15961:15995   */\n  0x54686520737461727420646174652068617320746f206265206265666f726520\n    /* \"#utility.yul\":15957:15958   */\n  0x00\n    /* \"#utility.yul\":15949:15955   */\n  dup3\n    /* \"#utility.yul\":15945:15959   */\n  add\n    /* \"#utility.yul\":15938:15996   */\n  mstore\n    /* \"#utility.yul\":16030:16048   */\n  0x7468652066696e69736820646174652e00000000000000000000000000000000\n    /* \"#utility.yul\":16025:16027   */\n  0x20\n    /* \"#utility.yul\":16017:16023   */\n  dup3\n    /* \"#utility.yul\":16013:16028   */\n  add\n    /* \"#utility.yul\":16006:16049   */\n  mstore\n    /* \"#utility.yul\":15927:16056   */\n  pop\n  jump\t// out\n    /* \"#utility.yul\":16062:16313   */\ntag_194:\n    /* \"#utility.yul\":16202:16236   */\n  0x54686520506f6c696379206e656564206120737461727420646174652c206120\n    /* \"#utility.yul\":16198:16199   */\n  0x00\n    /* \"#utility.yul\":16190:16196   */\n  dup3\n    /* \"#utility.yul\":16186:16200   */\n  add\n    /* \"#utility.yul\":16179:16237   */\n  mstore\n    /* \"#utility.yul\":16271:16305   */\n  0x66696e697368206461746520616e64206120636f6e747261637420646174652e\n    /* \"#utility.yul\":16266:16268   */\n  0x20\n    /* \"#utility.yul\":16258:16264   */\n  dup3\n    /* \"#utility.yul\":16254:16269   */\n  add\n    /* \"#utility.yul\":16247:16306   */\n  mstore\n    /* \"#utility.yul\":16168:16313   */\n  pop\n  jump\t// out\n    /* \"#utility.yul\":16319:16441   */\ntag_136:\n    /* \"#utility.yul\":16392:16416   */\n  tag_267\n    /* \"#utility.yul\":16410:16415   */\n  dup2\n    /* \"#utility.yul\":16392:16416   */\n  tag_234\n  jump\t// in\ntag_267:\n    /* \"#utility.yul\":16385:16390   */\n  dup2\n    /* \"#utility.yul\":16382:16417   */\n  eq\n    /* \"#utility.yul\":16372:16374   */\n  tag_268\n  jumpi\n    /* \"#utility.yul\":16431:16432   */\n  0x00\n    /* \"#utility.yul\":16428:16429   */\n  dup1\n    /* \"#utility.yul\":16421:16433   */\n  revert\n    /* \"#utility.yul\":16372:16374   */\ntag_268:\n    /* \"#utility.yul\":16362:16441   */\n  pop\n  jump\t// out\n    /* \"#utility.yul\":16447:16567   */\ntag_143:\n    /* \"#utility.yul\":16519:16542   */\n  tag_270\n    /* \"#utility.yul\":16536:16541   */\n  dup2\n    /* \"#utility.yul\":16519:16542   */\n  tag_236\n  jump\t// in\ntag_270:\n    /* \"#utility.yul\":16512:16517   */\n  dup2\n    /* \"#utility.yul\":16509:16543   */\n  eq\n    /* \"#utility.yul\":16499:16501   */\n  tag_271\n  jumpi\n    /* \"#utility.yul\":16557:16558   */\n  0x00\n    /* \"#utility.yul\":16554:16555   */\n  dup1\n    /* \"#utility.yul\":16547:16559   */\n  revert\n    /* \"#utility.yul\":16499:16501   */\ntag_271:\n    /* \"#utility.yul\":16489:16567   */\n  pop\n  jump\t// out\n    /* \"#utility.yul\":16573:16695   */\ntag_146:\n    /* \"#utility.yul\":16646:16670   */\n  tag_273\n    /* \"#utility.yul\":16664:16669   */\n  dup2\n    /* \"#utility.yul\":16646:16670   */\n  tag_229\n  jump\t// in\ntag_273:\n    /* \"#utility.yul\":16639:16644   */\n  dup2\n    /* \"#utility.yul\":16636:16671   */\n  eq\n    /* \"#utility.yul\":16626:16628   */\n  tag_274\n  jumpi\n    /* \"#utility.yul\":16685:16686   */\n  0x00\n    /* \"#utility.yul\":16682:16683   */\n  dup1\n    /* \"#utility.yul\":16675:16687   */\n  revert\n    /* \"#utility.yul\":16626:16628   */\ntag_274:\n    /* \"#utility.yul\":16616:16695   */\n  pop\n  jump\t// out\n    /* \"Insurance.sol\":2146:19722  contract Insurance is Seriality {... */\ntag_60:\n  dataSize(sub_0)\n  dup1\n  dataOffset(sub_0)\n  0x00\n  codecopy\n  0x00\n  return\nstop\n\nsub_0: assembly {\n        /* \"Insurance.sol\":2146:19722  contract Insurance is Seriality {... */\n      mstore(0x40, 0x80)\n      callvalue\n      dup1\n      iszero\n      tag_1\n      jumpi\n      0x00\n      dup1\n      revert\n    tag_1:\n      pop\n      jumpi(tag_2, lt(calldatasize, 0x04))\n      shr(0xe0, calldataload(0x00))\n      dup1\n      0x40d5ff58\n      gt\n      tag_16\n      jumpi\n      dup1\n      0x92ed93d0\n      gt\n      tag_17\n      jumpi\n      dup1\n      0x92ed93d0\n      eq\n      tag_12\n      jumpi\n      dup1\n      0x9499e018\n      eq\n      tag_13\n      jumpi\n      dup1\n      0xe0caf0bd\n      eq\n      tag_14\n      jumpi\n      dup1\n      0xfc1c7a70\n      eq\n      tag_15\n      jumpi\n      jump(tag_2)\n    tag_17:\n      dup1\n      0x40d5ff58\n      eq\n      tag_9\n      jumpi\n      dup1\n      0x5d1ca631\n      eq\n      tag_10\n      jumpi\n      dup1\n      0x62a681b3\n      eq\n      tag_11\n      jumpi\n      jump(tag_2)\n    tag_16:\n      dup1\n      0x121b5a25\n      eq\n      tag_3\n      jumpi\n      dup1\n      0x169e68c3\n      eq\n      tag_4\n      jumpi\n      dup1\n      0x2357aef3\n      eq\n      tag_5\n      jumpi\n      dup1\n      0x236f45d9\n      eq\n      tag_6\n      jumpi\n      dup1\n      0x297e6306\n      eq\n      tag_7\n      jumpi\n      dup1\n      0x2f0519d4\n      eq\n      tag_8\n      jumpi\n    tag_2:\n      0x00\n      dup1\n      revert\n        /* \"Insurance.sol\":7150:7337  function calculateCompensation() public view returns(uint256 amount) {... */\n    tag_3:\n      tag_18\n      tag_19\n      jump\t// in\n    tag_18:\n      mload(0x40)\n      tag_20\n      swap2\n      swap1\n      tag_21\n      jump\t// in\n    tag_20:\n      mload(0x40)\n      dup1\n      swap2\n      sub\n      swap1\n      return\n        /* \"Insurance.sol\":10140:10731  function getPCR(bytes32 _idPCR) public view returns(... */\n    tag_4:\n      tag_22\n      0x04\n      dup1\n      calldatasize\n      sub\n      dup2\n      add\n      swap1\n      tag_23\n      swap2\n      swap1\n      tag_24\n      jump\t// in\n    tag_23:\n      tag_25\n      jump\t// in\n    tag_22:\n      mload(0x40)\n      tag_26\n      swap7\n      swap6\n      swap5\n      swap4\n      swap3\n      swap2\n      swap1\n      tag_27\n      jump\t// in\n    tag_26:\n      mload(0x40)\n      dup1\n      swap2\n      sub\n      swap1\n      return\n        /* \"Insurance.sol\":8840:9531  function updatePCR(bytes32 _idPCR, bytes32 _resultPCR) public {... */\n    tag_5:\n      tag_28\n      0x04\n      dup1\n      calldatasize\n      sub\n      dup2\n      add\n      swap1\n      tag_29\n      swap2\n      swap1\n      tag_30\n      jump\t// in\n    tag_29:\n      tag_31\n      jump\t// in\n    tag_28:\n      stop\n        /* \"Insurance.sol\":12755:19183  function serializeInsurance() external view returns (bytes memory _serializedInsurance, uint256 _size) {... */\n    tag_6:\n      tag_32\n      tag_33\n      jump\t// in\n    tag_32:\n      mload(0x40)\n      tag_34\n      swap3\n      swap2\n      swap1\n      tag_35\n      jump\t// in\n    tag_34:\n      mload(0x40)\n      dup1\n      swap2\n      sub\n      swap1\n      return\n        /* \"Insurance.sol\":12434:12595  function addSpcAddress(address _spcAddress) external {... */\n    tag_7:\n      tag_36\n      0x04\n      dup1\n      calldatasize\n      sub\n      dup2\n      add\n      swap1\n      tag_37\n      swap2\n      swap1\n      tag_38\n      jump\t// in\n    tag_37:\n      tag_39\n      jump\t// in\n    tag_36:\n      stop\n        /* \"Insurance.sol\":7840:8655  function addPCRtoInsured(... */\n    tag_8:\n      tag_40\n      0x04\n      dup1\n      calldatasize\n      sub\n      dup2\n      add\n      swap1\n      tag_41\n      swap2\n      swap1\n      tag_42\n      jump\t// in\n    tag_41:\n      tag_43\n      jump\t// in\n    tag_40:\n      stop\n        /* \"Insurance.sol\":7441:7753  function compensation() public {... */\n    tag_9:\n      tag_44\n      tag_45\n      jump\t// in\n    tag_44:\n      stop\n        /* \"Insurance.sol\":19403:19503  function getId() external view returns(bytes32 insuranceId) {... */\n    tag_10:\n      tag_46\n      tag_47\n      jump\t// in\n    tag_46:\n      mload(0x40)\n      tag_48\n      swap2\n      swap1\n      tag_49\n      jump\t// in\n    tag_48:\n      mload(0x40)\n      dup1\n      swap2\n      sub\n      swap1\n      return\n        /* \"Insurance.sol\":9652:10084  function deletePCR(bytes32 _idPCR) public returns(address _pcrContractAddress) {... */\n    tag_11:\n      tag_50\n      0x04\n      dup1\n      calldatasize\n      sub\n      dup2\n      add\n      swap1\n      tag_51\n      swap2\n      swap1\n      tag_24\n      jump\t// in\n    tag_51:\n      tag_52\n      jump\t// in\n    tag_50:\n      mload(0x40)\n      tag_53\n      swap2\n      swap1\n      tag_54\n      jump\t// in\n    tag_53:\n      mload(0x40)\n      dup1\n      swap2\n      sub\n      swap1\n      return\n        /* \"Insurance.sol\":11671:12261  function getInsuranceData() external view returns(... */\n    tag_12:\n      tag_55\n      tag_56\n      jump\t// in\n    tag_55:\n      mload(0x40)\n      tag_57\n      swap8\n      swap7\n      swap6\n      swap5\n      swap4\n      swap3\n      swap2\n      swap1\n      tag_58\n      jump\t// in\n    tag_57:\n      mload(0x40)\n      dup1\n      swap2\n      sub\n      swap1\n      return\n        /* \"Insurance.sol\":19609:19720  function destructContract() external {... */\n    tag_13:\n      tag_59\n      tag_60\n      jump\t// in\n    tag_59:\n      stop\n        /* \"Insurance.sol\":10796:11602  function getTakerData() external view returns(... */\n    tag_14:\n      tag_61\n      tag_62\n      jump\t// in\n    tag_61:\n      mload(0x40)\n      tag_63\n      swap12\n      swap11\n      swap10\n      swap9\n      swap8\n      swap7\n      swap6\n      swap5\n      swap4\n      swap3\n      swap2\n      swap1\n      tag_64\n      jump\t// in\n    tag_63:\n      mload(0x40)\n      dup1\n      swap2\n      sub\n      swap1\n      return\n        /* \"Insurance.sol\":19240:19342  function getTakerId() external view returns(bytes32 takerId) {... */\n    tag_15:\n      tag_65\n      tag_66\n      jump\t// in\n    tag_65:\n      mload(0x40)\n      tag_67\n      swap2\n      swap1\n      tag_49\n      jump\t// in\n    tag_67:\n      mload(0x40)\n      dup1\n      swap2\n      sub\n      swap1\n      return\n        /* \"Insurance.sol\":7150:7337  function calculateCompensation() public view returns(uint256 amount) {... */\n    tag_19:\n        /* \"Insurance.sol\":7203:7217  uint256 amount */\n      0x00\n        /* \"Insurance.sol\":7303:7316  insuranceData */\n      0x0a\n        /* \"Insurance.sol\":7303:7330  insuranceData.insuredNumber */\n      0x00\n      add\n      0x06\n      swap1\n      sload\n      swap1\n      0x0100\n      exp\n      swap1\n      div\n      0xffff\n      and\n        /* \"Insurance.sol\":7270:7283  insuranceData */\n      0x0a\n        /* \"Insurance.sol\":7270:7300  insuranceData.daysToCompensate */\n      0x00\n      add\n      0x02\n      swap1\n      sload\n      swap1\n      0x0100\n      exp\n      swap1\n      div\n      0xffff\n      and\n        /* \"Insurance.sol\":7236:7249  insuranceData */\n      0x0a\n        /* \"Insurance.sol\":7236:7267  insuranceData.dailyCompensation */\n      0x00\n      add\n      0x00\n      swap1\n      sload\n      swap1\n      0x0100\n      exp\n      swap1\n      div\n      0xffff\n      and\n        /* \"Insurance.sol\":7236:7300  insuranceData.dailyCompensation * insuranceData.daysToCompensate */\n      tag_69\n      swap2\n      swap1\n      tag_70\n      jump\t// in\n    tag_69:\n        /* \"Insurance.sol\":7236:7330  insuranceData.dailyCompensation * insuranceData.daysToCompensate * insuranceData.insuredNumber */\n      tag_71\n      swap2\n      swap1\n      tag_70\n      jump\t// in\n    tag_71:\n        /* \"Insurance.sol\":7229:7330  return insuranceData.dailyCompensation * insuranceData.daysToCompensate * insuranceData.insuredNumber */\n      0xffff\n      and\n      swap1\n      pop\n        /* \"Insurance.sol\":7150:7337  function calculateCompensation() public view returns(uint256 amount) {... */\n      swap1\n      jump\t// out\n        /* \"Insurance.sol\":10140:10731  function getPCR(bytes32 _idPCR) public view returns(... */\n    tag_25:\n        /* \"Insurance.sol\":10201:10215  bytes32 result */\n      0x00\n        /* \"Insurance.sol\":10226:10244  bytes32 customerId */\n      dup1\n        /* \"Insurance.sol\":10255:10274  uint256 requestDate */\n      0x00\n        /* \"Insurance.sol\":10284:10302  uint256 resultDate */\n      dup1\n        /* \"Insurance.sol\":10313:10323  bytes32 id */\n      0x00\n        /* \"Insurance.sol\":10333:10359  address pcrContractAddress */\n      dup1\n        /* \"Insurance.sol\":10384:10395  isPcrActive */\n      0x05\n        /* \"Insurance.sol\":10384:10403  isPcrActive[_idPCR] */\n      0x00\n        /* \"Insurance.sol\":10396:10402  _idPCR */\n      dup9\n        /* \"Insurance.sol\":10384:10403  isPcrActive[_idPCR] */\n      dup2\n      mstore\n      0x20\n      add\n      swap1\n      dup2\n      mstore\n      0x20\n      add\n      0x00\n      keccak256\n      0x00\n      swap1\n      sload\n      swap1\n      0x0100\n      exp\n      swap1\n      div\n      0xff\n      and\n        /* \"Insurance.sol\":10376:10436  require(isPcrActive[_idPCR], \"No existe una PCR con esa ID\") */\n      tag_73\n      jumpi\n      mload(0x40)\n      0x08c379a000000000000000000000000000000000000000000000000000000000\n      dup2\n      mstore\n      0x04\n      add\n      tag_74\n      swap1\n      tag_75\n      jump\t// in\n    tag_74:\n      mload(0x40)\n      dup1\n      swap2\n      sub\n      swap1\n      revert\n    tag_73:\n        /* \"Insurance.sol\":10467:10478  pcrIdToData */\n      0x09\n        /* \"Insurance.sol\":10467:10486  pcrIdToData[_idPCR] */\n      0x00\n        /* \"Insurance.sol\":10479:10485  _idPCR */\n      dup9\n        /* \"Insurance.sol\":10467:10486  pcrIdToData[_idPCR] */\n      dup2\n      mstore\n      0x20\n      add\n      swap1\n      dup2\n      mstore\n      0x20\n      add\n      0x00\n      keccak256\n        /* \"Insurance.sol\":10467:10493  pcrIdToData[_idPCR].result */\n      0x00\n      add\n      sload\n        /* \"Insurance.sol\":10507:10518  pcrIdToData */\n      0x09\n        /* \"Insurance.sol\":10507:10526  pcrIdToData[_idPCR] */\n      0x00\n        /* \"Insurance.sol\":10519:10525  _idPCR */\n      dup10\n        /* \"Insurance.sol\":10507:10526  pcrIdToData[_idPCR] */\n      dup2\n      mstore\n      0x20\n      add\n      swap1\n      dup2\n      mstore\n      0x20\n      add\n      0x00\n      keccak256\n        /* \"Insurance.sol\":10507:10536  pcrIdToData[_idPCR].insuredId */\n      0x02\n      add\n      sload\n        /* \"Insurance.sol\":10550:10561  pcrIdToData */\n      0x09\n        /* \"Insurance.sol\":10550:10569  pcrIdToData[_idPCR] */\n      0x00\n        /* \"Insurance.sol\":10562:10568  _idPCR */\n      dup11\n        /* \"Insurance.sol\":10550:10569  pcrIdToData[_idPCR] */\n      dup2\n      mstore\n      0x20\n      add\n      swap1\n      dup2\n      mstore\n      0x20\n      add\n      0x00\n      keccak256\n        /* \"Insurance.sol\":10550:10581  pcrIdToData[_idPCR].requestDate */\n      0x03\n      add\n      sload\n        /* \"Insurance.sol\":10595:10606  pcrIdToData */\n      0x09\n        /* \"Insurance.sol\":10595:10614  pcrIdToData[_idPCR] */\n      0x00\n        /* \"Insurance.sol\":10607:10613  _idPCR */\n      dup12\n        /* \"Insurance.sol\":10595:10614  pcrIdToData[_idPCR] */\n      dup2\n      mstore\n      0x20\n      add\n      swap1\n      dup2\n      mstore\n      0x20\n      add\n      0x00\n      keccak256\n        /* \"Insurance.sol\":10595:10625  pcrIdToData[_idPCR].resultDate */\n      0x04\n      add\n      sload\n        /* \"Insurance.sol\":10639:10650  pcrIdToData */\n      0x09\n        /* \"Insurance.sol\":10639:10658  pcrIdToData[_idPCR] */\n      0x00\n        /* \"Insurance.sol\":10651:10657  _idPCR */\n      dup13\n        /* \"Insurance.sol\":10639:10658  pcrIdToData[_idPCR] */\n      dup2\n      mstore\n      0x20\n      add\n      swap1\n      dup2\n      mstore\n      0x20\n      add\n      0x00\n      keccak256\n        /* \"Insurance.sol\":10639:10661  pcrIdToData[_idPCR].id */\n      0x01\n      add\n      sload\n        /* \"Insurance.sol\":10675:10686  pcrIdToData */\n      0x09\n        /* \"Insurance.sol\":10675:10694  pcrIdToData[_idPCR] */\n      0x00\n        /* \"Insurance.sol\":10687:10693  _idPCR */\n      dup14\n        /* \"Insurance.sol\":10675:10694  pcrIdToData[_idPCR] */\n      dup2\n      mstore\n      0x20\n      add\n      swap1\n      dup2\n      mstore\n      0x20\n      add\n      0x00\n      keccak256\n        /* \"Insurance.sol\":10675:10710  pcrIdToData[_idPCR].contractAddress */\n      0x05\n      add\n      0x00\n      swap1\n      sload\n      swap1\n      0x0100\n      exp\n      swap1\n      div\n      0xffffffffffffffffffffffffffffffffffffffff\n      and\n        /* \"Insurance.sol\":10446:10724  return (... */\n      swap6\n      pop\n      swap6\n      pop\n      swap6\n      pop\n      swap6\n      pop\n      swap6\n      pop\n      swap6\n      pop\n        /* \"Insurance.sol\":10140:10731  function getPCR(bytes32 _idPCR) public view returns(... */\n      swap2\n      swap4\n      swap6\n      pop\n      swap2\n      swap4\n      swap6\n      jump\t// out\n        /* \"Insurance.sol\":8840:9531  function updatePCR(bytes32 _idPCR, bytes32 _resultPCR) public {... */\n    tag_31:\n        /* \"Insurance.sol\":9013:9027  bytes32 posPCR */\n      0x00\n        /* \"Insurance.sol\":9013:9040  bytes32 posPCR = \"POSITIVE\" */\n      0x504f534954495645000000000000000000000000000000000000000000000000\n      swap1\n      pop\n        /* \"Insurance.sol\":9050:9067  bytes32 insuredId */\n      0x00\n        /* \"Insurance.sol\":9070:9086  pcrIdToInsuredId */\n      0x06\n        /* \"Insurance.sol\":9070:9094  pcrIdToInsuredId[_idPCR] */\n      0x00\n        /* \"Insurance.sol\":9087:9093  _idPCR */\n      dup6\n        /* \"Insurance.sol\":9070:9094  pcrIdToInsuredId[_idPCR] */\n      dup2\n      mstore\n      0x20\n      add\n      swap1\n      dup2\n      mstore\n      0x20\n      add\n      0x00\n      keccak256\n      sload\n        /* \"Insurance.sol\":9050:9094  bytes32 insuredId = pcrIdToInsuredId[_idPCR] */\n      swap1\n      pop\n        /* \"Insurance.sol\":9112:9123  isPcrActive */\n      0x05\n        /* \"Insurance.sol\":9112:9131  isPcrActive[_idPCR] */\n      0x00\n        /* \"Insurance.sol\":9124:9130  _idPCR */\n      dup6\n        /* \"Insurance.sol\":9112:9131  isPcrActive[_idPCR] */\n      dup2\n      mstore\n      0x20\n      add\n      swap1\n      dup2\n      mstore\n      0x20\n      add\n      0x00\n      keccak256\n      0x00\n      swap1\n      sload\n      swap1\n      0x0100\n      exp\n      swap1\n      div\n      0xff\n      and\n        /* \"Insurance.sol\":9104:9160  require(isPcrActive[_idPCR], \"La PCR tiene que existir\") */\n      tag_77\n      jumpi\n      mload(0x40)\n      0x08c379a000000000000000000000000000000000000000000000000000000000\n      dup2\n      mstore\n      0x04\n      add\n      tag_78\n      swap1\n      tag_79\n      jump\t// in\n    tag_78:\n      mload(0x40)\n      dup1\n      swap2\n      sub\n      swap1\n      revert\n    tag_77:\n        /* \"Insurance.sol\":9199:9209  _resultPCR */\n      dup3\n        /* \"Insurance.sol\":9170:9181  pcrIdToData */\n      0x09\n        /* \"Insurance.sol\":9170:9189  pcrIdToData[_idPCR] */\n      0x00\n        /* \"Insurance.sol\":9182:9188  _idPCR */\n      dup7\n        /* \"Insurance.sol\":9170:9189  pcrIdToData[_idPCR] */\n      dup2\n      mstore\n      0x20\n      add\n      swap1\n      dup2\n      mstore\n      0x20\n      add\n      0x00\n      keccak256\n        /* \"Insurance.sol\":9170:9196  pcrIdToData[_idPCR].result */\n      0x00\n      add\n        /* \"Insurance.sol\":9170:9209  pcrIdToData[_idPCR].result = _resultPCR */\n      dup2\n      swap1\n      sstore\n      pop\n        /* \"Insurance.sol\":9252:9267  block.timestamp */\n      timestamp\n        /* \"Insurance.sol\":9219:9230  pcrIdToData */\n      0x09\n        /* \"Insurance.sol\":9219:9238  pcrIdToData[_idPCR] */\n      0x00\n        /* \"Insurance.sol\":9231:9237  _idPCR */\n      dup7\n        /* \"Insurance.sol\":9219:9238  pcrIdToData[_idPCR] */\n      dup2\n      mstore\n      0x20\n      add\n      swap1\n      dup2\n      mstore\n      0x20\n      add\n      0x00\n      keccak256\n        /* \"Insurance.sol\":9219:9249  pcrIdToData[_idPCR].resultDate */\n      0x04\n      add\n        /* \"Insurance.sol\":9219:9267  pcrIdToData[_idPCR].resultDate = block.timestamp */\n      dup2\n      swap1\n      sstore\n      pop\n        /* \"Insurance.sol\":9295:9301  posPCR */\n      dup2\n        /* \"Insurance.sol\":9281:9291  _resultPCR */\n      dup4\n        /* \"Insurance.sol\":9281:9301  _resultPCR == posPCR */\n      eq\n        /* \"Insurance.sol\":9277:9525  if (_resultPCR == posPCR) {... */\n      iszero\n      tag_80\n      jumpi\n        /* \"Insurance.sol\":9335:9339  true */\n      0x01\n        /* \"Insurance.sol\":9317:9332  positivePcrTest */\n      0x1b\n      0x00\n        /* \"Insurance.sol\":9317:9339  positivePcrTest = true */\n      0x0100\n      exp\n      dup2\n      sload\n      dup2\n      0xff\n      mul\n      not\n      and\n      swap1\n      dup4\n      iszero\n      iszero\n      mul\n      or\n      swap1\n      sstore\n      pop\n        /* \"Insurance.sol\":9358:9397  positivePcr(insuredId, block.timestamp) */\n      0x55cb01df06ba1925769d5c9d83199624c566e9e81719d4a3d02aee576149d7f9\n        /* \"Insurance.sol\":9370:9379  insuredId */\n      dup2\n        /* \"Insurance.sol\":9381:9396  block.timestamp */\n      timestamp\n        /* \"Insurance.sol\":9358:9397  positivePcr(insuredId, block.timestamp) */\n      mload(0x40)\n      tag_81\n      swap3\n      swap2\n      swap1\n      tag_82\n      jump\t// in\n    tag_81:\n      mload(0x40)\n      dup1\n      swap2\n      sub\n      swap1\n      log1\n        /* \"Insurance.sol\":9433:9446  insuranceData */\n      0x0a\n        /* \"Insurance.sol\":9433:9466  insuranceData.insuranceFinishDate */\n      0x03\n      add\n      sload\n        /* \"Insurance.sol\":9415:9430  block.timestamp */\n      timestamp\n        /* \"Insurance.sol\":9415:9466  block.timestamp < insuranceData.insuranceFinishDate */\n      lt\n        /* \"Insurance.sol\":9411:9515  if (block.timestamp < insuranceData.insuranceFinishDate) {... */\n      iszero\n      tag_83\n      jumpi\n        /* \"Insurance.sol\":9486:9500  compensation() */\n      tag_84\n        /* \"Insurance.sol\":9486:9498  compensation */\n      tag_45\n        /* \"Insurance.sol\":9486:9500  compensation() */\n      jump\t// in\n    tag_84:\n        /* \"Insurance.sol\":9411:9515  if (block.timestamp < insuranceData.insuranceFinishDate) {... */\n    tag_83:\n        /* \"Insurance.sol\":9277:9525  if (_resultPCR == posPCR) {... */\n    tag_80:\n        /* \"Insurance.sol\":8840:9531  function updatePCR(bytes32 _idPCR, bytes32 _resultPCR) public {... */\n      pop\n      pop\n      pop\n      pop\n      jump\t// out\n        /* \"Insurance.sol\":12755:19183  function serializeInsurance() external view returns (bytes memory _serializedInsurance, uint256 _size) {... */\n    tag_33:\n        /* \"Insurance.sol\":12808:12841  bytes memory _serializedInsurance */\n      0x60\n        /* \"Insurance.sol\":12843:12856  uint256 _size */\n      0x00\n        /* \"Insurance.sol\":12868:12883  uint16 nameSize */\n      dup1\n        /* \"Insurance.sol\":12893:12926  sizeOfString(takerData.takerName) */\n      tag_86\n        /* \"Insurance.sol\":12906:12915  takerData */\n      0x10\n        /* \"Insurance.sol\":12906:12925  takerData.takerName */\n      0x00\n      add\n        /* \"Insurance.sol\":12893:12926  sizeOfString(takerData.takerName) */\n      dup1\n      sload\n      tag_87\n      swap1\n      tag_88\n      jump\t// in\n    tag_87:\n      dup1\n      0x1f\n      add\n      0x20\n      dup1\n      swap2\n      div\n      mul\n      0x20\n      add\n      mload(0x40)\n      swap1\n      dup2\n      add\n      0x40\n      mstore\n      dup1\n      swap3\n      swap2\n      swap1\n      dup2\n      dup2\n      mstore\n      0x20\n      add\n      dup3\n      dup1\n      sload\n      tag_89\n      swap1\n      tag_88\n      jump\t// in\n    tag_89:\n      dup1\n      iszero\n      tag_90\n      jumpi\n      dup1\n      0x1f\n      lt\n      tag_91\n      jumpi\n      0x0100\n      dup1\n      dup4\n      sload\n      div\n      mul\n      dup4\n      mstore\n      swap2\n      0x20\n      add\n      swap2\n      jump(tag_90)\n    tag_91:\n      dup3\n      add\n      swap2\n      swap1\n      0x00\n      mstore\n      keccak256(0x00, 0x20)\n      swap1\n    tag_92:\n      dup2\n      sload\n      dup2\n      mstore\n      swap1\n      0x01\n      add\n      swap1\n      0x20\n      add\n      dup1\n      dup4\n      gt\n      tag_92\n      jumpi\n      dup3\n      swap1\n      sub\n      0x1f\n      and\n      dup3\n      add\n      swap2\n    tag_90:\n      pop\n      pop\n      pop\n      pop\n      pop\n        /* \"Insurance.sol\":12893:12905  sizeOfString */\n      tag_93\n        /* \"Insurance.sol\":12893:12926  sizeOfString(takerData.takerName) */\n      jump\t// in\n    tag_86:\n        /* \"Insurance.sol\":12868:12927  uint16 nameSize = uint16(sizeOfString(takerData.takerName)) */\n      swap1\n      pop\n        /* \"Insurance.sol\":12937:12955  uint16 addressSize */\n      0x00\n        /* \"Insurance.sol\":12965:13001  sizeOfString(takerData.takerAddress) */\n      tag_94\n        /* \"Insurance.sol\":12978:12987  takerData */\n      0x10\n        /* \"Insurance.sol\":12978:13000  takerData.takerAddress */\n      0x01\n      add\n        /* \"Insurance.sol\":12965:13001  sizeOfString(takerData.takerAddress) */\n      dup1\n      sload\n      tag_95\n      swap1\n      tag_88\n      jump\t// in\n    tag_95:\n      dup1\n      0x1f\n      add\n      0x20\n      dup1\n      swap2\n      div\n      mul\n      0x20\n      add\n      mload(0x40)\n      swap1\n      dup2\n      add\n      0x40\n      mstore\n      dup1\n      swap3\n      swap2\n      swap1\n      dup2\n      dup2\n      mstore\n      0x20\n      add\n      dup3\n      dup1\n      sload\n      tag_96\n      swap1\n      tag_88\n      jump\t// in\n    tag_96:\n      dup1\n      iszero\n      tag_97\n      jumpi\n      dup1\n      0x1f\n      lt\n      tag_98\n      jumpi\n      0x0100\n      dup1\n      dup4\n      sload\n      div\n      mul\n      dup4\n      mstore\n      swap2\n      0x20\n      add\n      swap2\n      jump(tag_97)\n    tag_98:\n      dup3\n      add\n      swap2\n      swap1\n      0x00\n      mstore\n      keccak256(0x00, 0x20)\n      swap1\n    tag_99:\n      dup2\n      sload\n      dup2\n      mstore\n      swap1\n      0x01\n      add\n      swap1\n      0x20\n      add\n      dup1\n      dup4\n      gt\n      tag_99\n      jumpi\n      dup3\n      swap1\n      sub\n      0x1f\n      and\n      dup3\n      add\n      swap2\n    tag_97:\n      pop\n      pop\n      pop\n      pop\n      pop\n        /* \"Insurance.sol\":12965:12977  sizeOfString */\n      tag_93\n        /* \"Insurance.sol\":12965:13001  sizeOfString(takerData.takerAddress) */\n      jump\t// in\n    tag_94:\n        /* \"Insurance.sol\":12937:13002  uint16 addressSize = uint16(sizeOfString(takerData.takerAddress)) */\n      swap1\n      pop\n        /* \"Insurance.sol\":13012:13028  uint16 emailSize */\n      0x00\n        /* \"Insurance.sol\":13038:13072  sizeOfString(takerData.takerEmail) */\n      tag_100\n        /* \"Insurance.sol\":13051:13060  takerData */\n      0x10\n        /* \"Insurance.sol\":13051:13071  takerData.takerEmail */\n      0x02\n      add\n        /* \"Insurance.sol\":13038:13072  sizeOfString(takerData.takerEmail) */\n      dup1\n      sload\n      tag_101\n      swap1\n      tag_88\n      jump\t// in\n    tag_101:\n      dup1\n      0x1f\n      add\n      0x20\n      dup1\n      swap2\n      div\n      mul\n      0x20\n      add\n      mload(0x40)\n      swap1\n      dup2\n      add\n      0x40\n      mstore\n      dup1\n      swap3\n      swap2\n      swap1\n      dup2\n      dup2\n      mstore\n      0x20\n      add\n      dup3\n      dup1\n      sload\n      tag_102\n      swap1\n      tag_88\n      jump\t// in\n    tag_102:\n      dup1\n      iszero\n      tag_103\n      jumpi\n      dup1\n      0x1f\n      lt\n      tag_104\n      jumpi\n      0x0100\n      dup1\n      dup4\n      sload\n      div\n      mul\n      dup4\n      mstore\n      swap2\n      0x20\n      add\n      swap2\n      jump(tag_103)\n    tag_104:\n      dup3\n      add\n      swap2\n      swap1\n      0x00\n      mstore\n      keccak256(0x00, 0x20)\n      swap1\n    tag_105:\n      dup2\n      sload\n      dup2\n      mstore\n      swap1\n      0x01\n      add\n      swap1\n      0x20\n      add\n      dup1\n      dup4\n      gt\n      tag_105\n      jumpi\n      dup3\n      swap1\n      sub\n      0x1f\n      and\n      dup3\n      add\n      swap2\n    tag_103:\n      pop\n      pop\n      pop\n      pop\n      pop\n        /* \"Insurance.sol\":13038:13050  sizeOfString */\n      tag_93\n        /* \"Insurance.sol\":13038:13072  sizeOfString(takerData.takerEmail) */\n      jump\t// in\n    tag_100:\n        /* \"Insurance.sol\":13012:13073  uint16 emailSize = uint16(sizeOfString(takerData.takerEmail)) */\n      swap1\n      pop\n        /* \"Insurance.sol\":13084:13098  uint256 offset */\n      0x00\n        /* \"Insurance.sol\":13688:13690  30 */\n      0x1e\n        /* \"Insurance.sol\":13614:13627  insuranceData */\n      0x0a\n        /* \"Insurance.sol\":13614:13637  insuranceData.pcrNumber */\n      0x00\n      add\n      0x04\n      swap1\n      sload\n      swap1\n      0x0100\n      exp\n      swap1\n      div\n      0xffff\n      and\n        /* \"Insurance.sol\":13605:13611  32 * 5 */\n      0xa0\n        /* \"Insurance.sol\":13605:13637  32 * 5 * insuranceData.pcrNumber */\n      tag_106\n      swap2\n      swap1\n      tag_70\n      jump\t// in\n    tag_106:\n        /* \"Insurance.sol\":13577:13578  2 */\n      0x02\n        /* \"Insurance.sol\":13460:13462  10 */\n      0x0a\n        /* \"Insurance.sol\":13436:13445  emailSize */\n      dup6\n        /* \"Insurance.sol\":13422:13433  addressSize */\n      dup8\n        /* \"Insurance.sol\":13411:13419  nameSize */\n      dup10\n        /* \"Insurance.sol\":13366:13372  32 * 9 */\n      0x0120\n        /* \"Insurance.sol\":13308:13309  2 */\n      0x02\n        /* \"Insurance.sol\":13278:13291  insuranceData */\n      0x0a\n        /* \"Insurance.sol\":13278:13305  insuranceData.insuredNumber */\n      0x00\n      add\n      0x06\n      swap1\n      sload\n      swap1\n      0x0100\n      exp\n      swap1\n      div\n      0xffff\n      and\n        /* \"Insurance.sol\":13273:13275  32 */\n      0x20\n        /* \"Insurance.sol\":13273:13305  32 * insuranceData.insuredNumber */\n      tag_107\n      swap2\n      swap1\n      tag_70\n      jump\t// in\n    tag_107:\n        /* \"Insurance.sol\":13273:13309  32 * insuranceData.insuredNumber * 2 */\n      tag_108\n      swap2\n      swap1\n      tag_70\n      jump\t// in\n    tag_108:\n        /* \"Insurance.sol\":13209:13222  insuranceData */\n      0x0a\n        /* \"Insurance.sol\":13209:13236  insuranceData.insuredNumber */\n      0x00\n      add\n      0x06\n      swap1\n      sload\n      swap1\n      0x0100\n      exp\n      swap1\n      div\n      0xffff\n      and\n        /* \"Insurance.sol\":13204:13206  32 */\n      0x20\n        /* \"Insurance.sol\":13204:13236  32 * insuranceData.insuredNumber */\n      tag_109\n      swap2\n      swap1\n      tag_70\n      jump\t// in\n    tag_109:\n        /* \"Insurance.sol\":13115:13146  4 + // 2 uint16 ... */\n      0x64\n        /* \"Insurance.sol\":13115:13237  4 + // 2 uint16 ... */\n      tag_110\n      swap2\n      swap1\n      tag_111\n      jump\t// in\n    tag_110:\n        /* \"Insurance.sol\":13115:13310  4 + // 2 uint16 ... */\n      tag_112\n      swap2\n      swap1\n      tag_111\n      jump\t// in\n    tag_112:\n        /* \"Insurance.sol\":13115:13373  4 + // 2 uint16 ... */\n      tag_113\n      swap2\n      swap1\n      tag_111\n      jump\t// in\n    tag_113:\n        /* \"Insurance.sol\":13115:13419  4 + // 2 uint16 ... */\n      tag_114\n      swap2\n      swap1\n      tag_111\n      jump\t// in\n    tag_114:\n        /* \"Insurance.sol\":13115:13433  4 + // 2 uint16 ... */\n      tag_115\n      swap2\n      swap1\n      tag_111\n      jump\t// in\n    tag_115:\n        /* \"Insurance.sol\":13115:13445  4 + // 2 uint16 ... */\n      tag_116\n      swap2\n      swap1\n      tag_111\n      jump\t// in\n    tag_116:\n        /* \"Insurance.sol\":13115:13462  4 + // 2 uint16 ... */\n      tag_117\n      swap2\n      swap1\n      tag_111\n      jump\t// in\n    tag_117:\n        /* \"Insurance.sol\":13115:13578  4 + // 2 uint16 ... */\n      tag_118\n      swap2\n      swap1\n      tag_111\n      jump\t// in\n    tag_118:\n        /* \"Insurance.sol\":13115:13638  4 + // 2 uint16 ... */\n      tag_119\n      swap2\n      swap1\n      tag_111\n      jump\t// in\n    tag_119:\n        /* \"Insurance.sol\":13115:13690  4 + // 2 uint16 ... */\n      tag_120\n      swap2\n      swap1\n      tag_111\n      jump\t// in\n    tag_120:\n        /* \"Insurance.sol\":13084:13775  uint256 offset = (... */\n      0xffff\n      and\n      swap1\n      pop\n        /* \"Insurance.sol\":13818:13824  offset */\n      dup1\n        /* \"Insurance.sol\":13808:13825  new bytes(offset) */\n      0xffffffffffffffff\n      dup2\n      gt\n      iszero\n      tag_121\n      jumpi\n      mstore(0x00, 0x4e487b7100000000000000000000000000000000000000000000000000000000)\n      mstore(0x04, 0x41)\n      revert(0x00, 0x24)\n    tag_121:\n      mload(0x40)\n      swap1\n      dup1\n      dup3\n      mstore\n      dup1\n      0x1f\n      add\n      not(0x1f)\n      and\n      0x20\n      add\n      dup3\n      add\n      0x40\n      mstore\n      dup1\n      iszero\n      tag_122\n      jumpi\n      dup2\n      0x20\n      add\n      0x01\n      dup3\n      mul\n      dup1\n      calldatasize\n      dup4\n      calldatacopy\n      dup1\n      dup3\n      add\n      swap2\n      pop\n      pop\n      swap1\n      pop\n    tag_122:\n      pop\n        /* \"Insurance.sol\":13785:13825  _serializedInsurance = new bytes(offset) */\n      swap6\n      pop\n        /* \"Insurance.sol\":13843:13849  offset */\n      dup1\n        /* \"Insurance.sol\":13835:13849  _size = offset */\n      swap5\n      pop\n        /* \"Insurance.sol\":13920:13982  bytes32ToBytes(offset, insuranceData.id, _serializedInsurance) */\n      tag_123\n        /* \"Insurance.sol\":13935:13941  offset */\n      dup2\n        /* \"Insurance.sol\":13943:13956  insuranceData */\n      0x0a\n        /* \"Insurance.sol\":13943:13959  insuranceData.id */\n      0x01\n      add\n      sload\n        /* \"Insurance.sol\":13961:13981  _serializedInsurance */\n      dup9\n        /* \"Insurance.sol\":13920:13934  bytes32ToBytes */\n      tag_124\n        /* \"Insurance.sol\":13920:13982  bytes32ToBytes(offset, insuranceData.id, _serializedInsurance) */\n      jump\t// in\n    tag_123:\n        /* \"Insurance.sol\":14002:14004  32 */\n      0x20\n        /* \"Insurance.sol\":13992:14004  offset -= 32 */\n      dup2\n      tag_125\n      swap2\n      swap1\n      tag_126\n      jump\t// in\n    tag_125:\n      swap1\n      pop\n        /* \"Insurance.sol\":14057:14132  uintToBytes(offset, insuranceData.insuranceStartDate, _serializedInsurance) */\n      tag_127\n        /* \"Insurance.sol\":14069:14075  offset */\n      dup2\n        /* \"Insurance.sol\":14077:14090  insuranceData */\n      0x0a\n        /* \"Insurance.sol\":14077:14109  insuranceData.insuranceStartDate */\n      0x02\n      add\n      sload\n        /* \"Insurance.sol\":14111:14131  _serializedInsurance */\n      dup9\n        /* \"Insurance.sol\":14057:14068  uintToBytes */\n      tag_128\n        /* \"Insurance.sol\":14057:14132  uintToBytes(offset, insuranceData.insuranceStartDate, _serializedInsurance) */\n      jump\t// in\n    tag_127:\n        /* \"Insurance.sol\":14152:14154  32 */\n      0x20\n        /* \"Insurance.sol\":14142:14154  offset -= 32 */\n      dup2\n      tag_129\n      swap2\n      swap1\n      tag_126\n      jump\t// in\n    tag_129:\n      swap1\n      pop\n        /* \"Insurance.sol\":14208:14284  uintToBytes(offset, insuranceData.insuranceFinishDate, _serializedInsurance) */\n      tag_130\n        /* \"Insurance.sol\":14220:14226  offset */\n      dup2\n        /* \"Insurance.sol\":14228:14241  insuranceData */\n      0x0a\n        /* \"Insurance.sol\":14228:14261  insuranceData.insuranceFinishDate */\n      0x03\n      add\n      sload\n        /* \"Insurance.sol\":14263:14283  _serializedInsurance */\n      dup9\n        /* \"Insurance.sol\":14208:14219  uintToBytes */\n      tag_128\n        /* \"Insurance.sol\":14208:14284  uintToBytes(offset, insuranceData.insuranceFinishDate, _serializedInsurance) */\n      jump\t// in\n    tag_130:\n        /* \"Insurance.sol\":14304:14306  32 */\n      0x20\n        /* \"Insurance.sol\":14294:14306  offset -= 32 */\n      dup2\n      tag_131\n      swap2\n      swap1\n      tag_126\n      jump\t// in\n    tag_131:\n      swap1\n      pop\n        /* \"Insurance.sol\":14352:14421  uintToBytes(offset, insuranceData.contractDate, _serializedInsurance) */\n      tag_132\n        /* \"Insurance.sol\":14364:14370  offset */\n      dup2\n        /* \"Insurance.sol\":14372:14385  insuranceData */\n      0x0a\n        /* \"Insurance.sol\":14372:14398  insuranceData.contractDate */\n      0x04\n      add\n      sload\n        /* \"Insurance.sol\":14400:14420  _serializedInsurance */\n      dup9\n        /* \"Insurance.sol\":14352:14363  uintToBytes */\n      tag_128\n        /* \"Insurance.sol\":14352:14421  uintToBytes(offset, insuranceData.contractDate, _serializedInsurance) */\n      jump\t// in\n    tag_132:\n        /* \"Insurance.sol\":14441:14443  32 */\n      0x20\n        /* \"Insurance.sol\":14431:14443  offset -= 32 */\n      dup2\n      tag_133\n      swap2\n      swap1\n      tag_126\n      jump\t// in\n    tag_133:\n      swap1\n      pop\n        /* \"Insurance.sol\":14494:14568  uintToBytes(offset, insuranceData.dailyCompensation, _serializedInsurance) */\n      tag_134\n        /* \"Insurance.sol\":14506:14512  offset */\n      dup2\n        /* \"Insurance.sol\":14514:14527  insuranceData */\n      0x0a\n        /* \"Insurance.sol\":14514:14545  insuranceData.dailyCompensation */\n      0x00\n      add\n      0x00\n      swap1\n      sload\n      swap1\n      0x0100\n      exp\n      swap1\n      div\n      0xffff\n      and\n        /* \"Insurance.sol\":14494:14568  uintToBytes(offset, insuranceData.dailyCompensation, _serializedInsurance) */\n      0xffff\n      and\n        /* \"Insurance.sol\":14547:14567  _serializedInsurance */\n      dup9\n        /* \"Insurance.sol\":14494:14505  uintToBytes */\n      tag_128\n        /* \"Insurance.sol\":14494:14568  uintToBytes(offset, insuranceData.dailyCompensation, _serializedInsurance) */\n      jump\t// in\n    tag_134:\n        /* \"Insurance.sol\":14588:14589  2 */\n      0x02\n        /* \"Insurance.sol\":14578:14589  offset -= 2 */\n      dup2\n      tag_135\n      swap2\n      swap1\n      tag_126\n      jump\t// in\n    tag_135:\n      swap1\n      pop\n        /* \"Insurance.sol\":14640:14713  uintToBytes(offset, insuranceData.daysToCompensate, _serializedInsurance) */\n      tag_136\n        /* \"Insurance.sol\":14652:14658  offset */\n      dup2\n        /* \"Insurance.sol\":14660:14673  insuranceData */\n      0x0a\n        /* \"Insurance.sol\":14660:14690  insuranceData.daysToCompensate */\n      0x00\n      add\n      0x02\n      swap1\n      sload\n      swap1\n      0x0100\n      exp\n      swap1\n      div\n      0xffff\n      and\n        /* \"Insurance.sol\":14640:14713  uintToBytes(offset, insuranceData.daysToCompensate, _serializedInsurance) */\n      0xffff\n      and\n        /* \"Insurance.sol\":14692:14712  _serializedInsurance */\n      dup9\n        /* \"Insurance.sol\":14640:14651  uintToBytes */\n      tag_128\n        /* \"Insurance.sol\":14640:14713  uintToBytes(offset, insuranceData.daysToCompensate, _serializedInsurance) */\n      jump\t// in\n    tag_136:\n        /* \"Insurance.sol\":14733:14734  2 */\n      0x02\n        /* \"Insurance.sol\":14723:14734  offset -= 2 */\n      dup2\n      tag_137\n      swap2\n      swap1\n      tag_126\n      jump\t// in\n    tag_137:\n      swap1\n      pop\n        /* \"Insurance.sol\":14797:14860  bytes32ToBytes(offset, takerData.takerId, _serializedInsurance) */\n      tag_138\n        /* \"Insurance.sol\":14812:14818  offset */\n      dup2\n        /* \"Insurance.sol\":14820:14829  takerData */\n      0x10\n        /* \"Insurance.sol\":14820:14837  takerData.takerId */\n      0x03\n      add\n      sload\n        /* \"Insurance.sol\":14839:14859  _serializedInsurance */\n      dup9\n        /* \"Insurance.sol\":14797:14811  bytes32ToBytes */\n      tag_124\n        /* \"Insurance.sol\":14797:14860  bytes32ToBytes(offset, takerData.takerId, _serializedInsurance) */\n      jump\t// in\n    tag_138:\n        /* \"Insurance.sol\":14880:14882  32 */\n      0x20\n        /* \"Insurance.sol\":14870:14882  offset -= 32 */\n      dup2\n      tag_139\n      swap2\n      swap1\n      tag_126\n      jump\t// in\n    tag_139:\n      swap1\n      pop\n        /* \"Insurance.sol\":14924:14988  bytes32ToBytes(offset, takerData.takerNif, _serializedInsurance) */\n      tag_140\n        /* \"Insurance.sol\":14939:14945  offset */\n      dup2\n        /* \"Insurance.sol\":14947:14956  takerData */\n      0x10\n        /* \"Insurance.sol\":14947:14965  takerData.takerNif */\n      0x04\n      add\n      sload\n        /* \"Insurance.sol\":14967:14987  _serializedInsurance */\n      dup9\n        /* \"Insurance.sol\":14924:14938  bytes32ToBytes */\n      tag_124\n        /* \"Insurance.sol\":14924:14988  bytes32ToBytes(offset, takerData.takerNif, _serializedInsurance) */\n      jump\t// in\n    tag_140:\n        /* \"Insurance.sol\":15008:15010  32 */\n      0x20\n        /* \"Insurance.sol\":14998:15010  offset -= 32 */\n      dup2\n      tag_141\n      swap2\n      swap1\n      tag_126\n      jump\t// in\n    tag_141:\n      swap1\n      pop\n        /* \"Insurance.sol\":15060:15131  bytes32ToBytes(offset, takerData.takerPostalCode, _serializedInsurance) */\n      tag_142\n        /* \"Insurance.sol\":15075:15081  offset */\n      dup2\n        /* \"Insurance.sol\":15083:15092  takerData */\n      0x10\n        /* \"Insurance.sol\":15083:15108  takerData.takerPostalCode */\n      0x05\n      add\n      sload\n        /* \"Insurance.sol\":15110:15130  _serializedInsurance */\n      dup9\n        /* \"Insurance.sol\":15060:15074  bytes32ToBytes */\n      tag_124\n        /* \"Insurance.sol\":15060:15131  bytes32ToBytes(offset, takerData.takerPostalCode, _serializedInsurance) */\n      jump\t// in\n    tag_142:\n        /* \"Insurance.sol\":15151:15153  32 */\n      0x20\n        /* \"Insurance.sol\":15141:15153  offset -= 32 */\n      dup2\n      tag_143\n      swap2\n      swap1\n      tag_126\n      jump\t// in\n    tag_143:\n      swap1\n      pop\n        /* \"Insurance.sol\":15196:15261  bytes32ToBytes(offset, takerData.takerTown, _serializedInsurance) */\n      tag_144\n        /* \"Insurance.sol\":15211:15217  offset */\n      dup2\n        /* \"Insurance.sol\":15219:15228  takerData */\n      0x10\n        /* \"Insurance.sol\":15219:15238  takerData.takerTown */\n      0x06\n      add\n      sload\n        /* \"Insurance.sol\":15240:15260  _serializedInsurance */\n      dup9\n        /* \"Insurance.sol\":15196:15210  bytes32ToBytes */\n      tag_124\n        /* \"Insurance.sol\":15196:15261  bytes32ToBytes(offset, takerData.takerTown, _serializedInsurance) */\n      jump\t// in\n    tag_144:\n        /* \"Insurance.sol\":15281:15283  32 */\n      0x20\n        /* \"Insurance.sol\":15271:15283  offset -= 32 */\n      dup2\n      tag_145\n      swap2\n      swap1\n      tag_126\n      jump\t// in\n    tag_145:\n      swap1\n      pop\n        /* \"Insurance.sol\":15330:15399  bytes32ToBytes(offset, takerData.takerLocation, _serializedInsurance) */\n      tag_146\n        /* \"Insurance.sol\":15345:15351  offset */\n      dup2\n        /* \"Insurance.sol\":15353:15362  takerData */\n      0x10\n        /* \"Insurance.sol\":15353:15376  takerData.takerLocation */\n      0x07\n      add\n      sload\n        /* \"Insurance.sol\":15378:15398  _serializedInsurance */\n      dup9\n        /* \"Insurance.sol\":15330:15344  bytes32ToBytes */\n      tag_124\n        /* \"Insurance.sol\":15330:15399  bytes32ToBytes(offset, takerData.takerLocation, _serializedInsurance) */\n      jump\t// in\n    tag_146:\n        /* \"Insurance.sol\":15419:15421  32 */\n      0x20\n        /* \"Insurance.sol\":15409:15421  offset -= 32 */\n      dup2\n      tag_147\n      swap2\n      swap1\n      tag_126\n      jump\t// in\n    tag_147:\n      swap1\n      pop\n        /* \"Insurance.sol\":15469:15539  bytes32ToBytes(offset, takerData.takerTelephone, _serializedInsurance) */\n      tag_148\n        /* \"Insurance.sol\":15484:15490  offset */\n      dup2\n        /* \"Insurance.sol\":15492:15501  takerData */\n      0x10\n        /* \"Insurance.sol\":15492:15516  takerData.takerTelephone */\n      0x08\n      add\n      sload\n        /* \"Insurance.sol\":15518:15538  _serializedInsurance */\n      dup9\n        /* \"Insurance.sol\":15469:15483  bytes32ToBytes */\n      tag_124\n        /* \"Insurance.sol\":15469:15539  bytes32ToBytes(offset, takerData.takerTelephone, _serializedInsurance) */\n      jump\t// in\n    tag_148:\n        /* \"Insurance.sol\":15559:15561  32 */\n      0x20\n        /* \"Insurance.sol\":15549:15561  offset -= 32 */\n      dup2\n      tag_149\n      swap2\n      swap1\n      tag_126\n      jump\t// in\n    tag_149:\n      swap1\n      pop\n        /* \"Insurance.sol\":15606:15673  bytes32ToBytes(offset, takerData.takerMobile, _serializedInsurance) */\n      tag_150\n        /* \"Insurance.sol\":15621:15627  offset */\n      dup2\n        /* \"Insurance.sol\":15629:15638  takerData */\n      0x10\n        /* \"Insurance.sol\":15629:15650  takerData.takerMobile */\n      0x09\n      add\n      sload\n        /* \"Insurance.sol\":15652:15672  _serializedInsurance */\n      dup9\n        /* \"Insurance.sol\":15606:15620  bytes32ToBytes */\n      tag_124\n        /* \"Insurance.sol\":15606:15673  bytes32ToBytes(offset, takerData.takerMobile, _serializedInsurance) */\n      jump\t// in\n    tag_150:\n        /* \"Insurance.sol\":15693:15695  32 */\n      0x20\n        /* \"Insurance.sol\":15683:15695  offset -= 32 */\n      dup2\n      tag_151\n      swap2\n      swap1\n      tag_126\n      jump\t// in\n    tag_151:\n      swap1\n      pop\n        /* \"Insurance.sol\":15738:15803  bytes32ToBytes(offset, takerData.takerIban, _serializedInsurance) */\n      tag_152\n        /* \"Insurance.sol\":15753:15759  offset */\n      dup2\n        /* \"Insurance.sol\":15761:15770  takerData */\n      0x10\n        /* \"Insurance.sol\":15761:15780  takerData.takerIban */\n      0x0a\n      add\n      sload\n        /* \"Insurance.sol\":15782:15802  _serializedInsurance */\n      dup9\n        /* \"Insurance.sol\":15738:15752  bytes32ToBytes */\n      tag_124\n        /* \"Insurance.sol\":15738:15803  bytes32ToBytes(offset, takerData.takerIban, _serializedInsurance) */\n      jump\t// in\n    tag_152:\n        /* \"Insurance.sol\":15823:15825  32 */\n      0x20\n        /* \"Insurance.sol\":15813:15825  offset -= 32 */\n      dup2\n      tag_153\n      swap2\n      swap1\n      tag_126\n      jump\t// in\n    tag_153:\n      swap1\n      pop\n        /* \"Insurance.sol\":15875:15933  boolToBytes(offset, positivePcrTest, _serializedInsurance) */\n      tag_154\n        /* \"Insurance.sol\":15887:15893  offset */\n      dup2\n        /* \"Insurance.sol\":15895:15910  positivePcrTest */\n      0x1b\n      0x00\n      swap1\n      sload\n      swap1\n      0x0100\n      exp\n      swap1\n      div\n      0xff\n      and\n        /* \"Insurance.sol\":15912:15932  _serializedInsurance */\n      dup9\n        /* \"Insurance.sol\":15875:15886  boolToBytes */\n      tag_155\n        /* \"Insurance.sol\":15875:15933  boolToBytes(offset, positivePcrTest, _serializedInsurance) */\n      jump\t// in\n    tag_154:\n        /* \"Insurance.sol\":15953:15954  1 */\n      0x01\n        /* \"Insurance.sol\":15943:15954  offset -= 1 */\n      dup2\n      tag_156\n      swap2\n      swap1\n      tag_126\n      jump\t// in\n    tag_156:\n      swap1\n      pop\n        /* \"Insurance.sol\":16007:16064  boolToBytes(offset, paymentEmitted, _serializedInsurance) */\n      tag_157\n        /* \"Insurance.sol\":16019:16025  offset */\n      dup2\n        /* \"Insurance.sol\":16027:16041  paymentEmitted */\n      0x1b\n      0x01\n      swap1\n      sload\n      swap1\n      0x0100\n      exp\n      swap1\n      div\n      0xff\n      and\n        /* \"Insurance.sol\":16043:16063  _serializedInsurance */\n      dup9\n        /* \"Insurance.sol\":16007:16018  boolToBytes */\n      tag_155\n        /* \"Insurance.sol\":16007:16064  boolToBytes(offset, paymentEmitted, _serializedInsurance) */\n      jump\t// in\n    tag_157:\n        /* \"Insurance.sol\":16084:16085  1 */\n      0x01\n        /* \"Insurance.sol\":16074:16085  offset -= 1 */\n      dup2\n      tag_158\n      swap2\n      swap1\n      tag_126\n      jump\t// in\n    tag_158:\n      swap1\n      pop\n        /* \"Insurance.sol\":16183:16234  uintToBytes(offset, nameSize, _serializedInsurance) */\n      tag_159\n        /* \"Insurance.sol\":16195:16201  offset */\n      dup2\n        /* \"Insurance.sol\":16203:16211  nameSize */\n      dup6\n        /* \"Insurance.sol\":16183:16234  uintToBytes(offset, nameSize, _serializedInsurance) */\n      0xffff\n      and\n        /* \"Insurance.sol\":16213:16233  _serializedInsurance */\n      dup9\n        /* \"Insurance.sol\":16183:16194  uintToBytes */\n      tag_128\n        /* \"Insurance.sol\":16183:16234  uintToBytes(offset, nameSize, _serializedInsurance) */\n      jump\t// in\n    tag_159:\n        /* \"Insurance.sol\":16254:16255  2 */\n      0x02\n        /* \"Insurance.sol\":16244:16255  offset -= 2 */\n      dup2\n      tag_160\n      swap2\n      swap1\n      tag_126\n      jump\t// in\n    tag_160:\n      swap1\n      pop\n        /* \"Insurance.sol\":16266:16337  stringToBytes(offset, bytes(takerData.takerName), _serializedInsurance) */\n      tag_161\n        /* \"Insurance.sol\":16280:16286  offset */\n      dup2\n        /* \"Insurance.sol\":16294:16303  takerData */\n      0x10\n        /* \"Insurance.sol\":16294:16313  takerData.takerName */\n      0x00\n      add\n        /* \"Insurance.sol\":16266:16337  stringToBytes(offset, bytes(takerData.takerName), _serializedInsurance) */\n      dup1\n      sload\n      tag_162\n      swap1\n      tag_88\n      jump\t// in\n    tag_162:\n      dup1\n      0x1f\n      add\n      0x20\n      dup1\n      swap2\n      div\n      mul\n      0x20\n      add\n      mload(0x40)\n      swap1\n      dup2\n      add\n      0x40\n      mstore\n      dup1\n      swap3\n      swap2\n      swap1\n      dup2\n      dup2\n      mstore\n      0x20\n      add\n      dup3\n      dup1\n      sload\n      tag_163\n      swap1\n      tag_88\n      jump\t// in\n    tag_163:\n      dup1\n      iszero\n      tag_164\n      jumpi\n      dup1\n      0x1f\n      lt\n      tag_165\n      jumpi\n      0x0100\n      dup1\n      dup4\n      sload\n      div\n      mul\n      dup4\n      mstore\n      swap2\n      0x20\n      add\n      swap2\n      jump(tag_164)\n    tag_165:\n      dup3\n      add\n      swap2\n      swap1\n      0x00\n      mstore\n      keccak256(0x00, 0x20)\n      swap1\n    tag_166:\n      dup2\n      sload\n      dup2\n      mstore\n      swap1\n      0x01\n      add\n      swap1\n      0x20\n      add\n      dup1\n      dup4\n      gt\n      tag_166\n      jumpi\n      dup3\n      swap1\n      sub\n      0x1f\n      and\n      dup3\n      add\n      swap2\n    tag_164:\n      pop\n      pop\n      pop\n      pop\n      pop\n        /* \"Insurance.sol\":16316:16336  _serializedInsurance */\n      dup9\n        /* \"Insurance.sol\":16266:16279  stringToBytes */\n      tag_167\n        /* \"Insurance.sol\":16266:16337  stringToBytes(offset, bytes(takerData.takerName), _serializedInsurance) */\n      jump\t// in\n    tag_161:\n        /* \"Insurance.sol\":16357:16365  nameSize */\n      dup4\n        /* \"Insurance.sol\":16347:16365  offset -= nameSize */\n      0xffff\n      and\n      dup2\n      tag_168\n      swap2\n      swap1\n      tag_126\n      jump\t// in\n    tag_168:\n      swap1\n      pop\n        /* \"Insurance.sol\":16425:16479  uintToBytes(offset, addressSize, _serializedInsurance) */\n      tag_169\n        /* \"Insurance.sol\":16437:16443  offset */\n      dup2\n        /* \"Insurance.sol\":16445:16456  addressSize */\n      dup5\n        /* \"Insurance.sol\":16425:16479  uintToBytes(offset, addressSize, _serializedInsurance) */\n      0xffff\n      and\n        /* \"Insurance.sol\":16458:16478  _serializedInsurance */\n      dup9\n        /* \"Insurance.sol\":16425:16436  uintToBytes */\n      tag_128\n        /* \"Insurance.sol\":16425:16479  uintToBytes(offset, addressSize, _serializedInsurance) */\n      jump\t// in\n    tag_169:\n        /* \"Insurance.sol\":16499:16500  2 */\n      0x02\n        /* \"Insurance.sol\":16489:16500  offset -= 2 */\n      dup2\n      tag_170\n      swap2\n      swap1\n      tag_126\n      jump\t// in\n    tag_170:\n      swap1\n      pop\n        /* \"Insurance.sol\":16511:16585  stringToBytes(offset, bytes(takerData.takerAddress), _serializedInsurance) */\n      tag_171\n        /* \"Insurance.sol\":16525:16531  offset */\n      dup2\n        /* \"Insurance.sol\":16539:16548  takerData */\n      0x10\n        /* \"Insurance.sol\":16539:16561  takerData.takerAddress */\n      0x01\n      add\n        /* \"Insurance.sol\":16511:16585  stringToBytes(offset, bytes(takerData.takerAddress), _serializedInsurance) */\n      dup1\n      sload\n      tag_172\n      swap1\n      tag_88\n      jump\t// in\n    tag_172:\n      dup1\n      0x1f\n      add\n      0x20\n      dup1\n      swap2\n      div\n      mul\n      0x20\n      add\n      mload(0x40)\n      swap1\n      dup2\n      add\n      0x40\n      mstore\n      dup1\n      swap3\n      swap2\n      swap1\n      dup2\n      dup2\n      mstore\n      0x20\n      add\n      dup3\n      dup1\n      sload\n      tag_173\n      swap1\n      tag_88\n      jump\t// in\n    tag_173:\n      dup1\n      iszero\n      tag_174\n      jumpi\n      dup1\n      0x1f\n      lt\n      tag_175\n      jumpi\n      0x0100\n      dup1\n      dup4\n      sload\n      div\n      mul\n      dup4\n      mstore\n      swap2\n      0x20\n      add\n      swap2\n      jump(tag_174)\n    tag_175:\n      dup3\n      add\n      swap2\n      swap1\n      0x00\n      mstore\n      keccak256(0x00, 0x20)\n      swap1\n    tag_176:\n      dup2\n      sload\n      dup2\n      mstore\n      swap1\n      0x01\n      add\n      swap1\n      0x20\n      add\n      dup1\n      dup4\n      gt\n      tag_176\n      jumpi\n      dup3\n      swap1\n      sub\n      0x1f\n      and\n      dup3\n      add\n      swap2\n    tag_174:\n      pop\n      pop\n      pop\n      pop\n      pop\n        /* \"Insurance.sol\":16564:16584  _serializedInsurance */\n      dup9\n        /* \"Insurance.sol\":16511:16524  stringToBytes */\n      tag_167\n        /* \"Insurance.sol\":16511:16585  stringToBytes(offset, bytes(takerData.takerAddress), _serializedInsurance) */\n      jump\t// in\n    tag_171:\n        /* \"Insurance.sol\":16605:16616  addressSize */\n      dup3\n        /* \"Insurance.sol\":16595:16616  offset -= addressSize */\n      0xffff\n      and\n      dup2\n      tag_177\n      swap2\n      swap1\n      tag_126\n      jump\t// in\n    tag_177:\n      swap1\n      pop\n        /* \"Insurance.sol\":16674:16726  uintToBytes(offset, emailSize, _serializedInsurance) */\n      tag_178\n        /* \"Insurance.sol\":16686:16692  offset */\n      dup2\n        /* \"Insurance.sol\":16694:16703  emailSize */\n      dup4\n        /* \"Insurance.sol\":16674:16726  uintToBytes(offset, emailSize, _serializedInsurance) */\n      0xffff\n      and\n        /* \"Insurance.sol\":16705:16725  _serializedInsurance */\n      dup9\n        /* \"Insurance.sol\":16674:16685  uintToBytes */\n      tag_128\n        /* \"Insurance.sol\":16674:16726  uintToBytes(offset, emailSize, _serializedInsurance) */\n      jump\t// in\n    tag_178:\n        /* \"Insurance.sol\":16746:16747  2 */\n      0x02\n        /* \"Insurance.sol\":16736:16747  offset -= 2 */\n      dup2\n      tag_179\n      swap2\n      swap1\n      tag_126\n      jump\t// in\n    tag_179:\n      swap1\n      pop\n        /* \"Insurance.sol\":16758:16830  stringToBytes(offset, bytes(takerData.takerEmail), _serializedInsurance) */\n      tag_180\n        /* \"Insurance.sol\":16772:16778  offset */\n      dup2\n        /* \"Insurance.sol\":16786:16795  takerData */\n      0x10\n        /* \"Insurance.sol\":16786:16806  takerData.takerEmail */\n      0x02\n      add\n        /* \"Insurance.sol\":16758:16830  stringToBytes(offset, bytes(takerData.takerEmail), _serializedInsurance) */\n      dup1\n      sload\n      tag_181\n      swap1\n      tag_88\n      jump\t// in\n    tag_181:\n      dup1\n      0x1f\n      add\n      0x20\n      dup1\n      swap2\n      div\n      mul\n      0x20\n      add\n      mload(0x40)\n      swap1\n      dup2\n      add\n      0x40\n      mstore\n      dup1\n      swap3\n      swap2\n      swap1\n      dup2\n      dup2\n      mstore\n      0x20\n      add\n      dup3\n      dup1\n      sload\n      tag_182\n      swap1\n      tag_88\n      jump\t// in\n    tag_182:\n      dup1\n      iszero\n      tag_183\n      jumpi\n      dup1\n      0x1f\n      lt\n      tag_184\n      jumpi\n      0x0100\n      dup1\n      dup4\n      sload\n      div\n      mul\n      dup4\n      mstore\n      swap2\n      0x20\n      add\n      swap2\n      jump(tag_183)\n    tag_184:\n      dup3\n      add\n      swap2\n      swap1\n      0x00\n      mstore\n      keccak256(0x00, 0x20)\n      swap1\n    tag_185:\n      dup2\n      sload\n      dup2\n      mstore\n      swap1\n      0x01\n      add\n      swap1\n      0x20\n      add\n      dup1\n      dup4\n      gt\n      tag_185\n      jumpi\n      dup3\n      swap1\n      sub\n      0x1f\n      and\n      dup3\n      add\n      swap2\n    tag_183:\n      pop\n      pop\n      pop\n      pop\n      pop\n        /* \"Insurance.sol\":16809:16829  _serializedInsurance */\n      dup9\n        /* \"Insurance.sol\":16758:16771  stringToBytes */\n      tag_167\n        /* \"Insurance.sol\":16758:16830  stringToBytes(offset, bytes(takerData.takerEmail), _serializedInsurance) */\n      jump\t// in\n    tag_180:\n        /* \"Insurance.sol\":16850:16859  emailSize */\n      dup2\n        /* \"Insurance.sol\":16840:16859  offset -= emailSize */\n      0xffff\n      and\n      dup2\n      tag_186\n      swap2\n      swap1\n      tag_126\n      jump\t// in\n    tag_186:\n      swap1\n      pop\n        /* \"Insurance.sol\":16935:17005  uintToBytes(offset, insuranceData.insuredNumber, _serializedInsurance) */\n      tag_187\n        /* \"Insurance.sol\":16947:16953  offset */\n      dup2\n        /* \"Insurance.sol\":16955:16968  insuranceData */\n      0x0a\n        /* \"Insurance.sol\":16955:16982  insuranceData.insuredNumber */\n      0x00\n      add\n      0x06\n      swap1\n      sload\n      swap1\n      0x0100\n      exp\n      swap1\n      div\n      0xffff\n      and\n        /* \"Insurance.sol\":16935:17005  uintToBytes(offset, insuranceData.insuredNumber, _serializedInsurance) */\n      0xffff\n      and\n        /* \"Insurance.sol\":16984:17004  _serializedInsurance */\n      dup9\n        /* \"Insurance.sol\":16935:16946  uintToBytes */\n      tag_128\n        /* \"Insurance.sol\":16935:17005  uintToBytes(offset, insuranceData.insuredNumber, _serializedInsurance) */\n      jump\t// in\n    tag_187:\n        /* \"Insurance.sol\":17025:17026  2 */\n      0x02\n        /* \"Insurance.sol\":17015:17026  offset -= 2 */\n      dup2\n      tag_188\n      swap2\n      swap1\n      tag_126\n      jump\t// in\n    tag_188:\n      swap1\n      pop\n        /* \"Insurance.sol\":17083:17092  uint256 i */\n      0x00\n        /* \"Insurance.sol\":17078:17655  for (uint256 i = 0; i < insuranceData.insuredNumber; i++) {... */\n    tag_189:\n        /* \"Insurance.sol\":17102:17115  insuranceData */\n      0x0a\n        /* \"Insurance.sol\":17102:17129  insuranceData.insuredNumber */\n      0x00\n      add\n      0x06\n      swap1\n      sload\n      swap1\n      0x0100\n      exp\n      swap1\n      div\n      0xffff\n      and\n        /* \"Insurance.sol\":17098:17129  i < insuranceData.insuredNumber */\n      0xffff\n      and\n        /* \"Insurance.sol\":17098:17099  i */\n      dup2\n        /* \"Insurance.sol\":17098:17129  i < insuranceData.insuredNumber */\n      lt\n        /* \"Insurance.sol\":17078:17655  for (uint256 i = 0; i < insuranceData.insuredNumber; i++) {... */\n      iszero\n      tag_190\n      jumpi\n        /* \"Insurance.sol\":17186:17257  bytes32ToBytes(offset, insuranceData.insureds[i], _serializedInsurance) */\n      tag_192\n        /* \"Insurance.sol\":17201:17207  offset */\n      dup3\n        /* \"Insurance.sol\":17209:17222  insuranceData */\n      0x0a\n        /* \"Insurance.sol\":17209:17231  insuranceData.insureds */\n      0x05\n      add\n        /* \"Insurance.sol\":17232:17233  i */\n      dup4\n        /* \"Insurance.sol\":17209:17234  insuranceData.insureds[i] */\n      dup2\n      sload\n      dup2\n      lt\n      tag_193\n      jumpi\n      mstore(0x00, 0x4e487b7100000000000000000000000000000000000000000000000000000000)\n      mstore(0x04, 0x32)\n      revert(0x00, 0x24)\n    tag_193:\n      swap1\n      0x00\n      mstore\n      keccak256(0x00, 0x20)\n      add\n      sload\n        /* \"Insurance.sol\":17236:17256  _serializedInsurance */\n      dup10\n        /* \"Insurance.sol\":17186:17200  bytes32ToBytes */\n      tag_124\n        /* \"Insurance.sol\":17186:17257  bytes32ToBytes(offset, insuranceData.insureds[i], _serializedInsurance) */\n      jump\t// in\n    tag_192:\n        /* \"Insurance.sol\":17281:17283  32 */\n      0x20\n        /* \"Insurance.sol\":17271:17283  offset -= 32 */\n      dup3\n      tag_195\n      swap2\n      swap1\n      tag_126\n      jump\t// in\n    tag_195:\n      swap2\n      pop\n        /* \"Insurance.sol\":17349:17439  bytes32ToBytes(offset, insuredNegPcrHash[insuranceData.insureds[i]], _serializedInsurance) */\n      tag_196\n        /* \"Insurance.sol\":17364:17370  offset */\n      dup3\n        /* \"Insurance.sol\":17372:17389  insuredNegPcrHash */\n      0x07\n        /* \"Insurance.sol\":17372:17416  insuredNegPcrHash[insuranceData.insureds[i]] */\n      0x00\n        /* \"Insurance.sol\":17390:17403  insuranceData */\n      0x0a\n        /* \"Insurance.sol\":17390:17412  insuranceData.insureds */\n      0x05\n      add\n        /* \"Insurance.sol\":17413:17414  i */\n      dup6\n        /* \"Insurance.sol\":17390:17415  insuranceData.insureds[i] */\n      dup2\n      sload\n      dup2\n      lt\n      tag_197\n      jumpi\n      mstore(0x00, 0x4e487b7100000000000000000000000000000000000000000000000000000000)\n      mstore(0x04, 0x32)\n      revert(0x00, 0x24)\n    tag_197:\n      swap1\n      0x00\n      mstore\n      keccak256(0x00, 0x20)\n      add\n      sload\n        /* \"Insurance.sol\":17372:17416  insuredNegPcrHash[insuranceData.insureds[i]] */\n      dup2\n      mstore\n      0x20\n      add\n      swap1\n      dup2\n      mstore\n      0x20\n      add\n      0x00\n      keccak256\n      sload\n        /* \"Insurance.sol\":17418:17438  _serializedInsurance */\n      dup10\n        /* \"Insurance.sol\":17349:17363  bytes32ToBytes */\n      tag_124\n        /* \"Insurance.sol\":17349:17439  bytes32ToBytes(offset, insuredNegPcrHash[insuranceData.insureds[i]], _serializedInsurance) */\n      jump\t// in\n    tag_196:\n        /* \"Insurance.sol\":17463:17465  32 */\n      0x20\n        /* \"Insurance.sol\":17453:17465  offset -= 32 */\n      dup3\n      tag_199\n      swap2\n      swap1\n      tag_126\n      jump\t// in\n    tag_199:\n      swap2\n      pop\n        /* \"Insurance.sol\":17531:17618  uintToBytes(offset, insuredNegPcrDate[insuranceData.insureds[i]], _serializedInsurance) */\n      tag_200\n        /* \"Insurance.sol\":17543:17549  offset */\n      dup3\n        /* \"Insurance.sol\":17551:17568  insuredNegPcrDate */\n      0x08\n        /* \"Insurance.sol\":17551:17595  insuredNegPcrDate[insuranceData.insureds[i]] */\n      0x00\n        /* \"Insurance.sol\":17569:17582  insuranceData */\n      0x0a\n        /* \"Insurance.sol\":17569:17591  insuranceData.insureds */\n      0x05\n      add\n        /* \"Insurance.sol\":17592:17593  i */\n      dup6\n        /* \"Insurance.sol\":17569:17594  insuranceData.insureds[i] */\n      dup2\n      sload\n      dup2\n      lt\n      tag_201\n      jumpi\n      mstore(0x00, 0x4e487b7100000000000000000000000000000000000000000000000000000000)\n      mstore(0x04, 0x32)\n      revert(0x00, 0x24)\n    tag_201:\n      swap1\n      0x00\n      mstore\n      keccak256(0x00, 0x20)\n      add\n      sload\n        /* \"Insurance.sol\":17551:17595  insuredNegPcrDate[insuranceData.insureds[i]] */\n      dup2\n      mstore\n      0x20\n      add\n      swap1\n      dup2\n      mstore\n      0x20\n      add\n      0x00\n      keccak256\n      sload\n        /* \"Insurance.sol\":17597:17617  _serializedInsurance */\n      dup10\n        /* \"Insurance.sol\":17531:17542  uintToBytes */\n      tag_128\n        /* \"Insurance.sol\":17531:17618  uintToBytes(offset, insuredNegPcrDate[insuranceData.insureds[i]], _serializedInsurance) */\n      jump\t// in\n    tag_200:\n        /* \"Insurance.sol\":17642:17644  32 */\n      0x20\n        /* \"Insurance.sol\":17632:17644  offset -= 32 */\n      dup3\n      tag_203\n      swap2\n      swap1\n      tag_126\n      jump\t// in\n    tag_203:\n      swap2\n      pop\n        /* \"Insurance.sol\":17131:17134  i++ */\n      dup1\n      dup1\n      tag_204\n      swap1\n      tag_205\n      jump\t// in\n    tag_204:\n      swap2\n      pop\n      pop\n        /* \"Insurance.sol\":17078:17655  for (uint256 i = 0; i < insuranceData.insuredNumber; i++) {... */\n      jump(tag_189)\n    tag_190:\n      pop\n        /* \"Insurance.sol\":17731:17797  uintToBytes(offset, insuranceData.pcrNumber, _serializedInsurance) */\n      tag_206\n        /* \"Insurance.sol\":17743:17749  offset */\n      dup2\n        /* \"Insurance.sol\":17751:17764  insuranceData */\n      0x0a\n        /* \"Insurance.sol\":17751:17774  insuranceData.pcrNumber */\n      0x00\n      add\n      0x04\n      swap1\n      sload\n      swap1\n      0x0100\n      exp\n      swap1\n      div\n      0xffff\n      and\n        /* \"Insurance.sol\":17731:17797  uintToBytes(offset, insuranceData.pcrNumber, _serializedInsurance) */\n      0xffff\n      and\n        /* \"Insurance.sol\":17776:17796  _serializedInsurance */\n      dup9\n        /* \"Insurance.sol\":17731:17742  uintToBytes */\n      tag_128\n        /* \"Insurance.sol\":17731:17797  uintToBytes(offset, insuranceData.pcrNumber, _serializedInsurance) */\n      jump\t// in\n    tag_206:\n        /* \"Insurance.sol\":17817:17819  32 */\n      0x20\n        /* \"Insurance.sol\":17807:17819  offset -= 32 */\n      dup2\n      tag_207\n      swap2\n      swap1\n      tag_126\n      jump\t// in\n    tag_207:\n      swap1\n      pop\n        /* \"Insurance.sol\":17830:17847  bytes32 resultPcr */\n      0x00\n        /* \"Insurance.sol\":17858:17878  bytes32 insuredIdPcr */\n      dup1\n        /* \"Insurance.sol\":17889:17911  uint256 requestDatePcr */\n      0x00\n        /* \"Insurance.sol\":17922:17943  uint256 resultDatePcr */\n      dup1\n        /* \"Insurance.sol\":17953:17966  bytes32 idPcr */\n      0x00\n        /* \"Insurance.sol\":18010:18019  uint256 i */\n      dup1\n        /* \"Insurance.sol\":18022:18023  0 */\n      0x00\n        /* \"Insurance.sol\":18010:18023  uint256 i = 0 */\n      swap1\n      pop\n        /* \"Insurance.sol\":18005:19177  for (uint256 i = 0; i < insuranceData.insuredNumber; i++) {... */\n    tag_208:\n        /* \"Insurance.sol\":18029:18042  insuranceData */\n      0x0a\n        /* \"Insurance.sol\":18029:18056  insuranceData.insuredNumber */\n      0x00\n      add\n      0x06\n      swap1\n      sload\n      swap1\n      0x0100\n      exp\n      swap1\n      div\n      0xffff\n      and\n        /* \"Insurance.sol\":18025:18056  i < insuranceData.insuredNumber */\n      0xffff\n      and\n        /* \"Insurance.sol\":18025:18026  i */\n      dup2\n        /* \"Insurance.sol\":18025:18056  i < insuranceData.insuredNumber */\n      lt\n        /* \"Insurance.sol\":18005:19177  for (uint256 i = 0; i < insuranceData.insuredNumber; i++) {... */\n      iszero\n      tag_209\n      jumpi\n        /* \"Insurance.sol\":18082:18091  uint256 j */\n      0x00\n        /* \"Insurance.sol\":18077:19167  for (uint256 j = 0; j < insuredPCRs[insuranceData.insureds[i]].length; j++) {... */\n    tag_211:\n        /* \"Insurance.sol\":18101:18112  insuredPCRs */\n      0x03\n        /* \"Insurance.sol\":18101:18139  insuredPCRs[insuranceData.insureds[i]] */\n      0x00\n        /* \"Insurance.sol\":18113:18126  insuranceData */\n      0x0a\n        /* \"Insurance.sol\":18113:18135  insuranceData.insureds */\n      0x05\n      add\n        /* \"Insurance.sol\":18136:18137  i */\n      dup5\n        /* \"Insurance.sol\":18113:18138  insuranceData.insureds[i] */\n      dup2\n      sload\n      dup2\n      lt\n      tag_214\n      jumpi\n      mstore(0x00, 0x4e487b7100000000000000000000000000000000000000000000000000000000)\n      mstore(0x04, 0x32)\n      revert(0x00, 0x24)\n    tag_214:\n      swap1\n      0x00\n      mstore\n      keccak256(0x00, 0x20)\n      add\n      sload\n        /* \"Insurance.sol\":18101:18139  insuredPCRs[insuranceData.insureds[i]] */\n      dup2\n      mstore\n      0x20\n      add\n      swap1\n      dup2\n      mstore\n      0x20\n      add\n      0x00\n      keccak256\n        /* \"Insurance.sol\":18101:18146  insuredPCRs[insuranceData.insureds[i]].length */\n      dup1\n      sload\n      swap1\n      pop\n        /* \"Insurance.sol\":18097:18098  j */\n      dup2\n        /* \"Insurance.sol\":18097:18146  j < insuredPCRs[insuranceData.insureds[i]].length */\n      lt\n        /* \"Insurance.sol\":18077:19167  for (uint256 j = 0; j < insuredPCRs[insuranceData.insureds[i]].length; j++) {... */\n      iszero\n      tag_212\n      jumpi\n        /* \"Insurance.sol\":18176:18187  isPcrActive */\n      0x05\n        /* \"Insurance.sol\":18176:18230  isPcrActive[insuredPCRs[insuranceData.insureds[i]][j]] */\n      0x00\n        /* \"Insurance.sol\":18188:18199  insuredPCRs */\n      0x03\n        /* \"Insurance.sol\":18188:18226  insuredPCRs[insuranceData.insureds[i]] */\n      0x00\n        /* \"Insurance.sol\":18200:18213  insuranceData */\n      0x0a\n        /* \"Insurance.sol\":18200:18222  insuranceData.insureds */\n      0x05\n      add\n        /* \"Insurance.sol\":18223:18224  i */\n      dup7\n        /* \"Insurance.sol\":18200:18225  insuranceData.insureds[i] */\n      dup2\n      sload\n      dup2\n      lt\n      tag_216\n      jumpi\n      mstore(0x00, 0x4e487b7100000000000000000000000000000000000000000000000000000000)\n      mstore(0x04, 0x32)\n      revert(0x00, 0x24)\n    tag_216:\n      swap1\n      0x00\n      mstore\n      keccak256(0x00, 0x20)\n      add\n      sload\n        /* \"Insurance.sol\":18188:18226  insuredPCRs[insuranceData.insureds[i]] */\n      dup2\n      mstore\n      0x20\n      add\n      swap1\n      dup2\n      mstore\n      0x20\n      add\n      0x00\n      keccak256\n        /* \"Insurance.sol\":18227:18228  j */\n      dup4\n        /* \"Insurance.sol\":18188:18229  insuredPCRs[insuranceData.insureds[i]][j] */\n      dup2\n      sload\n      dup2\n      lt\n      tag_218\n      jumpi\n      mstore(0x00, 0x4e487b7100000000000000000000000000000000000000000000000000000000)\n      mstore(0x04, 0x32)\n      revert(0x00, 0x24)\n    tag_218:\n      swap1\n      0x00\n      mstore\n      keccak256(0x00, 0x20)\n      add\n      sload\n        /* \"Insurance.sol\":18176:18230  isPcrActive[insuredPCRs[insuranceData.insureds[i]][j]] */\n      dup2\n      mstore\n      0x20\n      add\n      swap1\n      dup2\n      mstore\n      0x20\n      add\n      0x00\n      keccak256\n      0x00\n      swap1\n      sload\n      swap1\n      0x0100\n      exp\n      swap1\n      div\n      0xff\n      and\n        /* \"Insurance.sol\":18171:18281  if (!isPcrActive[insuredPCRs[insuranceData.insureds[i]][j]]) {... */\n      tag_220\n      jumpi\n        /* \"Insurance.sol\":18254:18262  continue */\n      jump(tag_213)\n        /* \"Insurance.sol\":18171:18281  if (!isPcrActive[insuredPCRs[insuranceData.insureds[i]][j]]) {... */\n    tag_220:\n        /* \"Insurance.sol\":18365:18414  getPCR(insuredPCRs[insuranceData.insureds[i]][j]) */\n      tag_221\n        /* \"Insurance.sol\":18372:18383  insuredPCRs */\n      0x03\n        /* \"Insurance.sol\":18372:18410  insuredPCRs[insuranceData.insureds[i]] */\n      0x00\n        /* \"Insurance.sol\":18384:18397  insuranceData */\n      0x0a\n        /* \"Insurance.sol\":18384:18406  insuranceData.insureds */\n      0x05\n      add\n        /* \"Insurance.sol\":18407:18408  i */\n      dup6\n        /* \"Insurance.sol\":18384:18409  insuranceData.insureds[i] */\n      dup2\n      sload\n      dup2\n      lt\n      tag_222\n      jumpi\n      mstore(0x00, 0x4e487b7100000000000000000000000000000000000000000000000000000000)\n      mstore(0x04, 0x32)\n      revert(0x00, 0x24)\n    tag_222:\n      swap1\n      0x00\n      mstore\n      keccak256(0x00, 0x20)\n      add\n      sload\n        /* \"Insurance.sol\":18372:18410  insuredPCRs[insuranceData.insureds[i]] */\n      dup2\n      mstore\n      0x20\n      add\n      swap1\n      dup2\n      mstore\n      0x20\n      add\n      0x00\n      keccak256\n        /* \"Insurance.sol\":18411:18412  j */\n      dup3\n        /* \"Insurance.sol\":18372:18413  insuredPCRs[insuranceData.insureds[i]][j] */\n      dup2\n      sload\n      dup2\n      lt\n      tag_224\n      jumpi\n      mstore(0x00, 0x4e487b7100000000000000000000000000000000000000000000000000000000)\n      mstore(0x04, 0x32)\n      revert(0x00, 0x24)\n    tag_224:\n      swap1\n      0x00\n      mstore\n      keccak256(0x00, 0x20)\n      add\n      sload\n        /* \"Insurance.sol\":18365:18371  getPCR */\n      tag_25\n        /* \"Insurance.sol\":18365:18414  getPCR(insuredPCRs[insuranceData.insureds[i]][j]) */\n      jump\t// in\n    tag_221:\n        /* \"Insurance.sol\":18298:18414  (resultPcr, insuredIdPcr, requestDatePcr, resultDatePcr, idPcr,) = getPCR(insuredPCRs[insuranceData.insureds[i]][j]) */\n      pop\n      dup1\n      swap8\n      pop\n      dup2\n      swap9\n      pop\n      dup3\n      swap10\n      pop\n      dup4\n      swap11\n      pop\n      dup5\n      swap12\n      pop\n      pop\n      pop\n      pop\n      pop\n      pop\n        /* \"Insurance.sol\":18468:18519  bytes32ToBytes(offset, idPcr, _serializedInsurance) */\n      tag_226\n        /* \"Insurance.sol\":18483:18489  offset */\n      dup9\n        /* \"Insurance.sol\":18491:18496  idPcr */\n      dup5\n        /* \"Insurance.sol\":18498:18518  _serializedInsurance */\n      dup16\n        /* \"Insurance.sol\":18468:18482  bytes32ToBytes */\n      tag_124\n        /* \"Insurance.sol\":18468:18519  bytes32ToBytes(offset, idPcr, _serializedInsurance) */\n      jump\t// in\n    tag_226:\n        /* \"Insurance.sol\":18547:18549  32 */\n      0x20\n        /* \"Insurance.sol\":18537:18549  offset -= 32 */\n      dup9\n      tag_227\n      swap2\n      swap1\n      tag_126\n      jump\t// in\n    tag_227:\n      swap8\n      pop\n        /* \"Insurance.sol\":18613:18669  uintToBytes(offset, resultDatePcr, _serializedInsurance) */\n      tag_228\n        /* \"Insurance.sol\":18625:18631  offset */\n      dup9\n        /* \"Insurance.sol\":18633:18646  resultDatePcr */\n      dup6\n        /* \"Insurance.sol\":18648:18668  _serializedInsurance */\n      dup16\n        /* \"Insurance.sol\":18613:18624  uintToBytes */\n      tag_128\n        /* \"Insurance.sol\":18613:18669  uintToBytes(offset, resultDatePcr, _serializedInsurance) */\n      jump\t// in\n    tag_228:\n        /* \"Insurance.sol\":18697:18699  32 */\n      0x20\n        /* \"Insurance.sol\":18687:18699  offset -= 32 */\n      dup9\n      tag_229\n      swap2\n      swap1\n      tag_126\n      jump\t// in\n    tag_229:\n      swap8\n      pop\n        /* \"Insurance.sol\":18764:18821  uintToBytes(offset, requestDatePcr, _serializedInsurance) */\n      tag_230\n        /* \"Insurance.sol\":18776:18782  offset */\n      dup9\n        /* \"Insurance.sol\":18784:18798  requestDatePcr */\n      dup7\n        /* \"Insurance.sol\":18800:18820  _serializedInsurance */\n      dup16\n        /* \"Insurance.sol\":18764:18775  uintToBytes */\n      tag_128\n        /* \"Insurance.sol\":18764:18821  uintToBytes(offset, requestDatePcr, _serializedInsurance) */\n      jump\t// in\n    tag_230:\n        /* \"Insurance.sol\":18849:18851  32 */\n      0x20\n        /* \"Insurance.sol\":18839:18851  offset -= 32 */\n      dup9\n      tag_231\n      swap2\n      swap1\n      tag_126\n      jump\t// in\n    tag_231:\n      swap8\n      pop\n        /* \"Insurance.sol\":18917:18975  bytes32ToBytes(offset, insuredIdPcr, _serializedInsurance) */\n      tag_232\n        /* \"Insurance.sol\":18932:18938  offset */\n      dup9\n        /* \"Insurance.sol\":18940:18952  insuredIdPcr */\n      dup8\n        /* \"Insurance.sol\":18954:18974  _serializedInsurance */\n      dup16\n        /* \"Insurance.sol\":18917:18931  bytes32ToBytes */\n      tag_124\n        /* \"Insurance.sol\":18917:18975  bytes32ToBytes(offset, insuredIdPcr, _serializedInsurance) */\n      jump\t// in\n    tag_232:\n        /* \"Insurance.sol\":19003:19005  32 */\n      0x20\n        /* \"Insurance.sol\":18993:19005  offset -= 32 */\n      dup9\n      tag_233\n      swap2\n      swap1\n      tag_126\n      jump\t// in\n    tag_233:\n      swap8\n      pop\n        /* \"Insurance.sol\":19067:19122  bytes32ToBytes(offset, resultPcr, _serializedInsurance) */\n      tag_234\n        /* \"Insurance.sol\":19082:19088  offset */\n      dup9\n        /* \"Insurance.sol\":19090:19099  resultPcr */\n      dup9\n        /* \"Insurance.sol\":19101:19121  _serializedInsurance */\n      dup16\n        /* \"Insurance.sol\":19067:19081  bytes32ToBytes */\n      tag_124\n        /* \"Insurance.sol\":19067:19122  bytes32ToBytes(offset, resultPcr, _serializedInsurance) */\n      jump\t// in\n    tag_234:\n        /* \"Insurance.sol\":19150:19152  32 */\n      0x20\n        /* \"Insurance.sol\":19140:19152  offset -= 32 */\n      dup9\n      tag_235\n      swap2\n      swap1\n      tag_126\n      jump\t// in\n    tag_235:\n      swap8\n      pop\n        /* \"Insurance.sol\":18077:19167  for (uint256 j = 0; j < insuredPCRs[insuranceData.insureds[i]].length; j++) {... */\n    tag_213:\n        /* \"Insurance.sol\":18148:18151  j++ */\n      dup1\n      dup1\n      tag_236\n      swap1\n      tag_205\n      jump\t// in\n    tag_236:\n      swap2\n      pop\n      pop\n        /* \"Insurance.sol\":18077:19167  for (uint256 j = 0; j < insuredPCRs[insuranceData.insureds[i]].length; j++) {... */\n      jump(tag_211)\n    tag_212:\n      pop\n        /* \"Insurance.sol\":18058:18061  i++ */\n      dup1\n      dup1\n      tag_237\n      swap1\n      tag_205\n      jump\t// in\n    tag_237:\n      swap2\n      pop\n      pop\n        /* \"Insurance.sol\":18005:19177  for (uint256 i = 0; i < insuranceData.insuredNumber; i++) {... */\n      jump(tag_208)\n    tag_209:\n      pop\n        /* \"Insurance.sol\":12755:19183  function serializeInsurance() external view returns (bytes memory _serializedInsurance, uint256 _size) {... */\n      pop\n      pop\n      pop\n      pop\n      pop\n      pop\n      pop\n      pop\n      pop\n      swap1\n      swap2\n      jump\t// out\n        /* \"Insurance.sol\":12434:12595  function addSpcAddress(address _spcAddress) external {... */\n    tag_39:\n        /* \"Insurance.sol\":12506:12521  spcAddressAdded */\n      0x01\n      0x14\n      swap1\n      sload\n      swap1\n      0x0100\n      exp\n      swap1\n      div\n      0xff\n      and\n        /* \"Insurance.sol\":12505:12521  !spcAddressAdded */\n      iszero\n        /* \"Insurance.sol\":12497:12522  require(!spcAddressAdded) */\n      tag_239\n      jumpi\n      0x00\n      dup1\n      revert\n    tag_239:\n        /* \"Insurance.sol\":12550:12554  true */\n      0x01\n        /* \"Insurance.sol\":12532:12547  spcAddressAdded */\n      dup1\n      0x14\n        /* \"Insurance.sol\":12532:12554  spcAddressAdded = true */\n      0x0100\n      exp\n      dup2\n      sload\n      dup2\n      0xff\n      mul\n      not\n      and\n      swap1\n      dup4\n      iszero\n      iszero\n      mul\n      or\n      swap1\n      sstore\n      pop\n        /* \"Insurance.sol\":12577:12588  _spcAddress */\n      dup1\n        /* \"Insurance.sol\":12564:12574  spcAddress */\n      0x01\n      0x00\n        /* \"Insurance.sol\":12564:12588  spcAddress = _spcAddress */\n      0x0100\n      exp\n      dup2\n      sload\n      dup2\n      0xffffffffffffffffffffffffffffffffffffffff\n      mul\n      not\n      and\n      swap1\n      dup4\n      0xffffffffffffffffffffffffffffffffffffffff\n      and\n      mul\n      or\n      swap1\n      sstore\n      pop\n        /* \"Insurance.sol\":12434:12595  function addSpcAddress(address _spcAddress) external {... */\n      pop\n      jump\t// out\n        /* \"Insurance.sol\":7840:8655  function addPCRtoInsured(... */\n    tag_43:\n        /* \"Insurance.sol\":8016:8034  insuredInInsurance */\n      0x04\n        /* \"Insurance.sol\":8016:8046  insuredInInsurance[_insuredId] */\n      0x00\n        /* \"Insurance.sol\":8035:8045  _insuredId */\n      dup6\n        /* \"Insurance.sol\":8016:8046  insuredInInsurance[_insuredId] */\n      dup2\n      mstore\n      0x20\n      add\n      swap1\n      dup2\n      mstore\n      0x20\n      add\n      0x00\n      keccak256\n      0x00\n      swap1\n      sload\n      swap1\n      0x0100\n      exp\n      swap1\n      div\n      0xff\n      and\n        /* \"Insurance.sol\":8008:8094  require(insuredInInsurance[_insuredId], \"The id of the insured is not in the policy.\") */\n      tag_241\n      jumpi\n      mload(0x40)\n      0x08c379a000000000000000000000000000000000000000000000000000000000\n      dup2\n      mstore\n      0x04\n      add\n      tag_242\n      swap1\n      tag_243\n      jump\t// in\n    tag_242:\n      mload(0x40)\n      dup1\n      swap2\n      sub\n      swap1\n      revert\n    tag_241:\n        /* \"Insurance.sol\":8113:8124  isPcrActive */\n      0x05\n        /* \"Insurance.sol\":8113:8132  isPcrActive[_idPcr] */\n      0x00\n        /* \"Insurance.sol\":8125:8131  _idPcr */\n      dup5\n        /* \"Insurance.sol\":8113:8132  isPcrActive[_idPcr] */\n      dup2\n      mstore\n      0x20\n      add\n      swap1\n      dup2\n      mstore\n      0x20\n      add\n      0x00\n      keccak256\n      0x00\n      swap1\n      sload\n      swap1\n      0x0100\n      exp\n      swap1\n      div\n      0xff\n      and\n        /* \"Insurance.sol\":8112:8132  !isPcrActive[_idPcr] */\n      iszero\n        /* \"Insurance.sol\":8104:8165  require(!isPcrActive[_idPcr], \"Ya existe una PCR con ese ID\") */\n      tag_244\n      jumpi\n      mload(0x40)\n      0x08c379a000000000000000000000000000000000000000000000000000000000\n      dup2\n      mstore\n      0x04\n      add\n      tag_245\n      swap1\n      tag_246\n      jump\t// in\n    tag_245:\n      mload(0x40)\n      dup1\n      swap2\n      sub\n      swap1\n      revert\n    tag_244:\n        /* \"Insurance.sol\":8175:8186  insuredPCRs */\n      0x03\n        /* \"Insurance.sol\":8175:8198  insuredPCRs[_insuredId] */\n      0x00\n        /* \"Insurance.sol\":8187:8197  _insuredId */\n      dup6\n        /* \"Insurance.sol\":8175:8198  insuredPCRs[_insuredId] */\n      dup2\n      mstore\n      0x20\n      add\n      swap1\n      dup2\n      mstore\n      0x20\n      add\n      0x00\n      keccak256\n        /* \"Insurance.sol\":8204:8210  _idPcr */\n      dup4\n        /* \"Insurance.sol\":8175:8211  insuredPCRs[_insuredId].push(_idPcr) */\n      swap1\n      dup1\n      0x01\n      dup2\n      sload\n      add\n      dup1\n      dup3\n      sstore\n      dup1\n      swap2\n      pop\n      pop\n      0x01\n      swap1\n      sub\n      swap1\n      0x00\n      mstore\n      keccak256(0x00, 0x20)\n      add\n      0x00\n      swap1\n      swap2\n      swap1\n      swap2\n      swap1\n      swap2\n      pop\n      sstore\n        /* \"Insurance.sol\":8243:8254  insuredPCRs */\n      0x03\n        /* \"Insurance.sol\":8243:8266  insuredPCRs[_insuredId] */\n      0x00\n        /* \"Insurance.sol\":8255:8265  _insuredId */\n      dup6\n        /* \"Insurance.sol\":8243:8266  insuredPCRs[_insuredId] */\n      dup2\n      mstore\n      0x20\n      add\n      swap1\n      dup2\n      mstore\n      0x20\n      add\n      0x00\n      keccak256\n        /* \"Insurance.sol\":8243:8273  insuredPCRs[_insuredId].length */\n      dup1\n      sload\n      swap1\n      pop\n        /* \"Insurance.sol\":8221:8232  pcrLocation */\n      0x02\n        /* \"Insurance.sol\":8221:8240  pcrLocation[_idPcr] */\n      0x00\n        /* \"Insurance.sol\":8233:8239  _idPcr */\n      dup6\n        /* \"Insurance.sol\":8221:8240  pcrLocation[_idPcr] */\n      dup2\n      mstore\n      0x20\n      add\n      swap1\n      dup2\n      mstore\n      0x20\n      add\n      0x00\n      keccak256\n        /* \"Insurance.sol\":8221:8273  pcrLocation[_idPcr] = insuredPCRs[_insuredId].length */\n      dup2\n      swap1\n      sstore\n      pop\n        /* \"Insurance.sol\":8310:8320  _insuredId */\n      dup4\n        /* \"Insurance.sol\":8283:8299  pcrIdToInsuredId */\n      0x06\n        /* \"Insurance.sol\":8283:8307  pcrIdToInsuredId[_idPcr] */\n      0x00\n        /* \"Insurance.sol\":8300:8306  _idPcr */\n      dup6\n        /* \"Insurance.sol\":8283:8307  pcrIdToInsuredId[_idPcr] */\n      dup2\n      mstore\n      0x20\n      add\n      swap1\n      dup2\n      mstore\n      0x20\n      add\n      0x00\n      keccak256\n        /* \"Insurance.sol\":8283:8320  pcrIdToInsuredId[_idPcr] = _insuredId */\n      dup2\n      swap1\n      sstore\n      pop\n        /* \"Insurance.sol\":8352:8577  PcrData({... */\n      mload(0x40)\n      dup1\n      0xc0\n      add\n      0x40\n      mstore\n      dup1\n      0x554e444546494e45440000000000000000000000000000000000000000000000\n      dup2\n      mstore\n      0x20\n      add\n        /* \"Insurance.sol\":8411:8417  _idPcr */\n      dup5\n        /* \"Insurance.sol\":8352:8577  PcrData({... */\n      dup2\n      mstore\n      0x20\n      add\n        /* \"Insurance.sol\":8443:8453  _insuredId */\n      dup6\n        /* \"Insurance.sol\":8352:8577  PcrData({... */\n      dup2\n      mstore\n      0x20\n      add\n        /* \"Insurance.sol\":8480:8492  _requestDate */\n      dup4\n        /* \"Insurance.sol\":8352:8577  PcrData({... */\n      dup2\n      mstore\n      0x20\n      add\n        /* \"Insurance.sol\":8518:8519  0 */\n      0x00\n        /* \"Insurance.sol\":8352:8577  PcrData({... */\n      dup2\n      mstore\n      0x20\n      add\n        /* \"Insurance.sol\":8550:8566  _contractAddress */\n      dup3\n        /* \"Insurance.sol\":8352:8577  PcrData({... */\n      0xffffffffffffffffffffffffffffffffffffffff\n      and\n      dup2\n      mstore\n      pop\n        /* \"Insurance.sol\":8330:8341  pcrIdToData */\n      0x09\n        /* \"Insurance.sol\":8330:8349  pcrIdToData[_idPcr] */\n      0x00\n        /* \"Insurance.sol\":8342:8348  _idPcr */\n      dup6\n        /* \"Insurance.sol\":8330:8349  pcrIdToData[_idPcr] */\n      dup2\n      mstore\n      0x20\n      add\n      swap1\n      dup2\n      mstore\n      0x20\n      add\n      0x00\n      keccak256\n        /* \"Insurance.sol\":8330:8577  pcrIdToData[_idPcr] = PcrData({... */\n      0x00\n      dup3\n      add\n      mload\n      dup2\n      0x00\n      add\n      sstore\n      0x20\n      dup3\n      add\n      mload\n      dup2\n      0x01\n      add\n      sstore\n      0x40\n      dup3\n      add\n      mload\n      dup2\n      0x02\n      add\n      sstore\n      0x60\n      dup3\n      add\n      mload\n      dup2\n      0x03\n      add\n      sstore\n      0x80\n      dup3\n      add\n      mload\n      dup2\n      0x04\n      add\n      sstore\n      0xa0\n      dup3\n      add\n      mload\n      dup2\n      0x05\n      add\n      exp(0x0100, 0x00)\n      dup2\n      sload\n      dup2\n      0xffffffffffffffffffffffffffffffffffffffff\n      mul\n      not\n      and\n      swap1\n      dup4\n      0xffffffffffffffffffffffffffffffffffffffff\n      and\n      mul\n      or\n      swap1\n      sstore\n      pop\n      swap1\n      pop\n      pop\n        /* \"Insurance.sol\":8609:8613  true */\n      0x01\n        /* \"Insurance.sol\":8587:8598  isPcrActive */\n      0x05\n        /* \"Insurance.sol\":8587:8606  isPcrActive[_idPcr] */\n      0x00\n        /* \"Insurance.sol\":8599:8605  _idPcr */\n      dup6\n        /* \"Insurance.sol\":8587:8606  isPcrActive[_idPcr] */\n      dup2\n      mstore\n      0x20\n      add\n      swap1\n      dup2\n      mstore\n      0x20\n      add\n      0x00\n      keccak256\n      0x00\n        /* \"Insurance.sol\":8587:8613  isPcrActive[_idPcr] = true */\n      0x0100\n      exp\n      dup2\n      sload\n      dup2\n      0xff\n      mul\n      not\n      and\n      swap1\n      dup4\n      iszero\n      iszero\n      mul\n      or\n      swap1\n      sstore\n      pop\n        /* \"Insurance.sol\":8623:8636  insuranceData */\n      0x0a\n        /* \"Insurance.sol\":8623:8646  insuranceData.pcrNumber */\n      0x00\n      add\n      0x04\n        /* \"Insurance.sol\":8623:8648  insuranceData.pcrNumber++ */\n      dup2\n      dup2\n      swap1\n      sload\n      swap1\n      0x0100\n      exp\n      swap1\n      div\n      0xffff\n      and\n      dup1\n      swap3\n      swap2\n      swap1\n      tag_248\n      swap1\n      tag_249\n      jump\t// in\n    tag_248:\n      swap2\n      swap1\n      0x0100\n      exp\n      dup2\n      sload\n      dup2\n      0xffff\n      mul\n      not\n      and\n      swap1\n      dup4\n      0xffff\n      and\n      mul\n      or\n      swap1\n      sstore\n      pop\n      pop\n        /* \"Insurance.sol\":7840:8655  function addPCRtoInsured(... */\n      pop\n      pop\n      pop\n      pop\n      jump\t// out\n        /* \"Insurance.sol\":7441:7753  function compensation() public {... */\n    tag_45:\n        /* \"Insurance.sol\":7482:7496  uint256 result */\n      0x00\n        /* \"Insurance.sol\":7499:7522  calculateCompensation() */\n      tag_251\n        /* \"Insurance.sol\":7499:7520  calculateCompensation */\n      tag_19\n        /* \"Insurance.sol\":7499:7522  calculateCompensation() */\n      jump\t// in\n    tag_251:\n        /* \"Insurance.sol\":7482:7522  uint256 result = calculateCompensation() */\n      swap1\n      pop\n        /* \"Insurance.sol\":7536:7551  positivePcrTest */\n      0x1b\n      0x00\n      swap1\n      sload\n      swap1\n      0x0100\n      exp\n      swap1\n      div\n      0xff\n      and\n        /* \"Insurance.sol\":7536:7570  positivePcrTest && !paymentEmitted */\n      dup1\n      iszero\n      tag_252\n      jumpi\n      pop\n        /* \"Insurance.sol\":7556:7570  paymentEmitted */\n      0x1b\n      0x01\n      swap1\n      sload\n      swap1\n      0x0100\n      exp\n      swap1\n      div\n      0xff\n      and\n        /* \"Insurance.sol\":7555:7570  !paymentEmitted */\n      iszero\n        /* \"Insurance.sol\":7536:7570  positivePcrTest && !paymentEmitted */\n    tag_252:\n        /* \"Insurance.sol\":7532:7747  if (positivePcrTest && !paymentEmitted) {... */\n      iszero\n      tag_253\n      jumpi\n        /* \"Insurance.sol\":7591:7651  checkPayment(result, takerData.takerId, takerData.takerIban) */\n      0xcbeb43f3566812eb9b63828e127ce48efbf4126607fc80974ba3d72dd41d094a\n        /* \"Insurance.sol\":7604:7610  result */\n      dup2\n        /* \"Insurance.sol\":7612:7621  takerData */\n      0x10\n        /* \"Insurance.sol\":7612:7629  takerData.takerId */\n      0x03\n      add\n      sload\n        /* \"Insurance.sol\":7631:7640  takerData */\n      0x10\n        /* \"Insurance.sol\":7631:7650  takerData.takerIban */\n      0x0a\n      add\n      sload\n        /* \"Insurance.sol\":7591:7651  checkPayment(result, takerData.takerId, takerData.takerIban) */\n      mload(0x40)\n      tag_254\n      swap4\n      swap3\n      swap2\n      swap1\n      tag_255\n      jump\t// in\n    tag_254:\n      mload(0x40)\n      dup1\n      swap2\n      sub\n      swap1\n      log1\n        /* \"Insurance.sol\":7682:7686  true */\n      0x01\n        /* \"Insurance.sol\":7665:7679  paymentEmitted */\n      0x1b\n      0x01\n        /* \"Insurance.sol\":7665:7686  paymentEmitted = true */\n      0x0100\n      exp\n      dup2\n      sload\n      dup2\n      0xff\n      mul\n      not\n      and\n      swap1\n      dup4\n      iszero\n      iszero\n      mul\n      or\n      swap1\n      sstore\n      pop\n        /* \"Insurance.sol\":7721:7736  block.timestamp */\n      timestamp\n        /* \"Insurance.sol\":7700:7718  timePaymentEmitted */\n      0x1c\n        /* \"Insurance.sol\":7700:7736  timePaymentEmitted = block.timestamp */\n      dup2\n      swap1\n      sstore\n      pop\n        /* \"Insurance.sol\":7532:7747  if (positivePcrTest && !paymentEmitted) {... */\n    tag_253:\n        /* \"Insurance.sol\":7441:7753  function compensation() public {... */\n      pop\n      jump\t// out\n        /* \"Insurance.sol\":19403:19503  function getId() external view returns(bytes32 insuranceId) {... */\n    tag_47:\n        /* \"Insurance.sol\":19442:19461  bytes32 insuranceId */\n      0x00\n        /* \"Insurance.sol\":19480:19493  insuranceData */\n      0x0a\n        /* \"Insurance.sol\":19480:19496  insuranceData.id */\n      0x01\n      add\n      sload\n        /* \"Insurance.sol\":19473:19496  return insuranceData.id */\n      swap1\n      pop\n        /* \"Insurance.sol\":19403:19503  function getId() external view returns(bytes32 insuranceId) {... */\n      swap1\n      jump\t// out\n        /* \"Insurance.sol\":9652:10084  function deletePCR(bytes32 _idPCR) public returns(address _pcrContractAddress) {... */\n    tag_52:\n        /* \"Insurance.sol\":9702:9729  address _pcrContractAddress */\n      0x00\n        /* \"Insurance.sol\":9850:9861  isPcrActive */\n      0x05\n        /* \"Insurance.sol\":9850:9869  isPcrActive[_idPCR] */\n      0x00\n        /* \"Insurance.sol\":9862:9868  _idPCR */\n      dup4\n        /* \"Insurance.sol\":9850:9869  isPcrActive[_idPCR] */\n      dup2\n      mstore\n      0x20\n      add\n      swap1\n      dup2\n      mstore\n      0x20\n      add\n      0x00\n      keccak256\n      0x00\n      swap1\n      sload\n      swap1\n      0x0100\n      exp\n      swap1\n      div\n      0xff\n      and\n        /* \"Insurance.sol\":9842:9902  require(isPcrActive[_idPCR], \"No existe una PCR con esa ID\") */\n      tag_258\n      jumpi\n      mload(0x40)\n      0x08c379a000000000000000000000000000000000000000000000000000000000\n      dup2\n      mstore\n      0x04\n      add\n      tag_259\n      swap1\n      tag_75\n      jump\t// in\n    tag_259:\n      mload(0x40)\n      dup1\n      swap2\n      sub\n      swap1\n      revert\n    tag_258:\n        /* \"Insurance.sol\":9912:9935  address contractAddress */\n      0x00\n        /* \"Insurance.sol\":9938:9949  pcrIdToData */\n      0x09\n        /* \"Insurance.sol\":9938:9957  pcrIdToData[_idPCR] */\n      0x00\n        /* \"Insurance.sol\":9950:9956  _idPCR */\n      dup5\n        /* \"Insurance.sol\":9938:9957  pcrIdToData[_idPCR] */\n      dup2\n      mstore\n      0x20\n      add\n      swap1\n      dup2\n      mstore\n      0x20\n      add\n      0x00\n      keccak256\n        /* \"Insurance.sol\":9938:9973  pcrIdToData[_idPCR].contractAddress */\n      0x05\n      add\n      0x00\n      swap1\n      sload\n      swap1\n      0x0100\n      exp\n      swap1\n      div\n      0xffffffffffffffffffffffffffffffffffffffff\n      and\n        /* \"Insurance.sol\":9912:9973  address contractAddress = pcrIdToData[_idPCR].contractAddress */\n      swap1\n      pop\n        /* \"Insurance.sol\":10005:10010  false */\n      0x00\n        /* \"Insurance.sol\":9983:9994  isPcrActive */\n      0x05\n        /* \"Insurance.sol\":9983:10002  isPcrActive[_idPCR] */\n      0x00\n        /* \"Insurance.sol\":9995:10001  _idPCR */\n      dup6\n        /* \"Insurance.sol\":9983:10002  isPcrActive[_idPCR] */\n      dup2\n      mstore\n      0x20\n      add\n      swap1\n      dup2\n      mstore\n      0x20\n      add\n      0x00\n      keccak256\n      0x00\n        /* \"Insurance.sol\":9983:10010  isPcrActive[_idPCR] = false */\n      0x0100\n      exp\n      dup2\n      sload\n      dup2\n      0xff\n      mul\n      not\n      and\n      swap1\n      dup4\n      iszero\n      iszero\n      mul\n      or\n      swap1\n      sstore\n      pop\n        /* \"Insurance.sol\":10020:10033  insuranceData */\n      0x0a\n        /* \"Insurance.sol\":10020:10043  insuranceData.pcrNumber */\n      0x00\n      add\n      0x04\n        /* \"Insurance.sol\":10020:10045  insuranceData.pcrNumber-- */\n      dup2\n      dup2\n      swap1\n      sload\n      swap1\n      0x0100\n      exp\n      swap1\n      div\n      0xffff\n      and\n      dup1\n      swap3\n      swap2\n      swap1\n      tag_260\n      swap1\n      tag_261\n      jump\t// in\n    tag_260:\n      swap2\n      swap1\n      0x0100\n      exp\n      dup2\n      sload\n      dup2\n      0xffff\n      mul\n      not\n      and\n      swap1\n      dup4\n      0xffff\n      and\n      mul\n      or\n      swap1\n      sstore\n      pop\n      pop\n        /* \"Insurance.sol\":10062:10077  contractAddress */\n      dup1\n        /* \"Insurance.sol\":10055:10077  return contractAddress */\n      swap2\n      pop\n      pop\n        /* \"Insurance.sol\":9652:10084  function deletePCR(bytes32 _idPCR) public returns(address _pcrContractAddress) {... */\n      swap2\n      swap1\n      pop\n      jump\t// out\n        /* \"Insurance.sol\":11671:12261  function getInsuranceData() external view returns(... */\n    tag_56:\n        /* \"Insurance.sol\":11730:11746  bytes32 idPolicy */\n      0x00\n        /* \"Insurance.sol\":11757:11787  uint16 dailyCompensationPolicy */\n      dup1\n        /* \"Insurance.sol\":11798:11827  uint16 daysToCompensatePolicy */\n      0x00\n        /* \"Insurance.sol\":11838:11864  uint16 insuredNumberPolicy */\n      dup1\n        /* \"Insurance.sol\":11875:11898  uint256 startDatePolicy */\n      0x00\n        /* \"Insurance.sol\":11909:11933  uint256 finishDatePolicy */\n      dup1\n        /* \"Insurance.sol\":11943:11968  bytes32[] memory insureds */\n      0x60\n        /* \"Insurance.sol\":12002:12015  insuranceData */\n      0x0a\n        /* \"Insurance.sol\":12002:12018  insuranceData.id */\n      0x01\n      add\n      sload\n        /* \"Insurance.sol\":12028:12041  insuranceData */\n      0x0a\n        /* \"Insurance.sol\":12028:12059  insuranceData.dailyCompensation */\n      0x00\n      add\n      0x00\n      swap1\n      sload\n      swap1\n      0x0100\n      exp\n      swap1\n      div\n      0xffff\n      and\n        /* \"Insurance.sol\":12069:12082  insuranceData */\n      0x0a\n        /* \"Insurance.sol\":12069:12099  insuranceData.daysToCompensate */\n      0x00\n      add\n      0x02\n      swap1\n      sload\n      swap1\n      0x0100\n      exp\n      swap1\n      div\n      0xffff\n      and\n        /* \"Insurance.sol\":12109:12122  insuranceData */\n      0x0a\n        /* \"Insurance.sol\":12109:12136  insuranceData.insuredNumber */\n      0x00\n      add\n      0x06\n      swap1\n      sload\n      swap1\n      0x0100\n      exp\n      swap1\n      div\n      0xffff\n      and\n        /* \"Insurance.sol\":12146:12159  insuranceData */\n      0x0a\n        /* \"Insurance.sol\":12146:12178  insuranceData.insuranceStartDate */\n      0x02\n      add\n      sload\n        /* \"Insurance.sol\":12188:12201  insuranceData */\n      0x0a\n        /* \"Insurance.sol\":12188:12221  insuranceData.insuranceFinishDate */\n      0x03\n      add\n      sload\n        /* \"Insurance.sol\":12231:12244  insuranceData */\n      0x0a\n        /* \"Insurance.sol\":12231:12253  insuranceData.insureds */\n      0x05\n      add\n        /* \"Insurance.sol\":11985:12254  return (... */\n      dup1\n      dup1\n      sload\n      dup1\n      0x20\n      mul\n      0x20\n      add\n      mload(0x40)\n      swap1\n      dup2\n      add\n      0x40\n      mstore\n      dup1\n      swap3\n      swap2\n      swap1\n      dup2\n      dup2\n      mstore\n      0x20\n      add\n      dup3\n      dup1\n      sload\n      dup1\n      iszero\n      tag_263\n      jumpi\n      0x20\n      mul\n      dup3\n      add\n      swap2\n      swap1\n      0x00\n      mstore\n      keccak256(0x00, 0x20)\n      swap1\n    tag_264:\n      dup2\n      sload\n      dup2\n      mstore\n      0x20\n      add\n      swap1\n      0x01\n      add\n      swap1\n      dup1\n      dup4\n      gt\n      tag_264\n      jumpi\n    tag_263:\n      pop\n      pop\n      pop\n      pop\n      pop\n      swap1\n      pop\n      swap7\n      pop\n      swap7\n      pop\n      swap7\n      pop\n      swap7\n      pop\n      swap7\n      pop\n      swap7\n      pop\n      swap7\n      pop\n        /* \"Insurance.sol\":11671:12261  function getInsuranceData() external view returns(... */\n      swap1\n      swap2\n      swap3\n      swap4\n      swap5\n      swap6\n      swap7\n      jump\t// out\n        /* \"Insurance.sol\":19609:19720  function destructContract() external {... */\n    tag_60:\n        /* \"Insurance.sol\":19678:19683  owner */\n      0x00\n      dup1\n      sload\n      swap1\n      0x0100\n      exp\n      swap1\n      div\n      0xffffffffffffffffffffffffffffffffffffffff\n      and\n        /* \"Insurance.sol\":19664:19683  msg.sender == owner */\n      0xffffffffffffffffffffffffffffffffffffffff\n      and\n        /* \"Insurance.sol\":19664:19674  msg.sender */\n      caller\n        /* \"Insurance.sol\":19664:19683  msg.sender == owner */\n      0xffffffffffffffffffffffffffffffffffffffff\n      and\n      eq\n        /* \"Insurance.sol\":19656:19684  require(msg.sender == owner) */\n      tag_266\n      jumpi\n      0x00\n      dup1\n      revert\n    tag_266:\n        /* \"Insurance.sol\":19707:19712  owner */\n      0x00\n      dup1\n      sload\n      swap1\n      0x0100\n      exp\n      swap1\n      div\n      0xffffffffffffffffffffffffffffffffffffffff\n      and\n        /* \"Insurance.sol\":19694:19713  selfdestruct(owner) */\n      0xffffffffffffffffffffffffffffffffffffffff\n      and\n      selfdestruct\n        /* \"Insurance.sol\":10796:11602  function getTakerData() external view returns(... */\n    tag_62:\n        /* \"Insurance.sol\":10851:10866  bytes32 takerId */\n      0x00\n        /* \"Insurance.sol\":10877:10893  bytes32 takerNif */\n      dup1\n        /* \"Insurance.sol\":10904:10931  string memory takerFullName */\n      0x60\n        /* \"Insurance.sol\":10941:10974  string memory takerContactAddress */\n      dup1\n        /* \"Insurance.sol\":10985:11015  bytes32 takerContactPostalCode */\n      0x00\n        /* \"Insurance.sol\":11025:11049  bytes32 takerContactTown */\n      dup1\n        /* \"Insurance.sol\":11060:11088  bytes32 takerContactLocation */\n      0x00\n        /* \"Insurance.sol\":11098:11127  bytes32 takerContactTelephone */\n      dup1\n        /* \"Insurance.sol\":11138:11164  bytes32 takerContactMobile */\n      0x00\n        /* \"Insurance.sol\":11174:11205  string memory takerContactEmail */\n      0x60\n        /* \"Insurance.sol\":11216:11233  bytes32 takerIBAN */\n      0x00\n        /* \"Insurance.sol\":11267:11276  takerData */\n      0x10\n        /* \"Insurance.sol\":11267:11284  takerData.takerId */\n      0x03\n      add\n      sload\n        /* \"Insurance.sol\":11294:11303  takerData */\n      0x10\n        /* \"Insurance.sol\":11294:11312  takerData.takerNif */\n      0x04\n      add\n      sload\n        /* \"Insurance.sol\":11322:11331  takerData */\n      0x10\n        /* \"Insurance.sol\":11322:11341  takerData.takerName */\n      0x00\n      add\n        /* \"Insurance.sol\":11351:11360  takerData */\n      0x10\n        /* \"Insurance.sol\":11351:11373  takerData.takerAddress */\n      0x01\n      add\n        /* \"Insurance.sol\":11383:11392  takerData */\n      0x10\n        /* \"Insurance.sol\":11383:11408  takerData.takerPostalCode */\n      0x05\n      add\n      sload\n        /* \"Insurance.sol\":11418:11427  takerData */\n      0x10\n        /* \"Insurance.sol\":11418:11437  takerData.takerTown */\n      0x06\n      add\n      sload\n        /* \"Insurance.sol\":11447:11456  takerData */\n      0x10\n        /* \"Insurance.sol\":11447:11470  takerData.takerLocation */\n      0x07\n      add\n      sload\n        /* \"Insurance.sol\":11480:11489  takerData */\n      0x10\n        /* \"Insurance.sol\":11480:11504  takerData.takerTelephone */\n      0x08\n      add\n      sload\n        /* \"Insurance.sol\":11514:11523  takerData */\n      0x10\n        /* \"Insurance.sol\":11514:11535  takerData.takerMobile */\n      0x09\n      add\n      sload\n        /* \"Insurance.sol\":11545:11554  takerData */\n      0x10\n        /* \"Insurance.sol\":11545:11565  takerData.takerEmail */\n      0x02\n      add\n        /* \"Insurance.sol\":11575:11584  takerData */\n      0x10\n        /* \"Insurance.sol\":11575:11594  takerData.takerIban */\n      0x0a\n      add\n      sload\n        /* \"Insurance.sol\":11250:11595  return (... */\n      dup9\n      dup1\n      sload\n      tag_268\n      swap1\n      tag_88\n      jump\t// in\n    tag_268:\n      dup1\n      0x1f\n      add\n      0x20\n      dup1\n      swap2\n      div\n      mul\n      0x20\n      add\n      mload(0x40)\n      swap1\n      dup2\n      add\n      0x40\n      mstore\n      dup1\n      swap3\n      swap2\n      swap1\n      dup2\n      dup2\n      mstore\n      0x20\n      add\n      dup3\n      dup1\n      sload\n      tag_269\n      swap1\n      tag_88\n      jump\t// in\n    tag_269:\n      dup1\n      iszero\n      tag_270\n      jumpi\n      dup1\n      0x1f\n      lt\n      tag_271\n      jumpi\n      0x0100\n      dup1\n      dup4\n      sload\n      div\n      mul\n      dup4\n      mstore\n      swap2\n      0x20\n      add\n      swap2\n      jump(tag_270)\n    tag_271:\n      dup3\n      add\n      swap2\n      swap1\n      0x00\n      mstore\n      keccak256(0x00, 0x20)\n      swap1\n    tag_272:\n      dup2\n      sload\n      dup2\n      mstore\n      swap1\n      0x01\n      add\n      swap1\n      0x20\n      add\n      dup1\n      dup4\n      gt\n      tag_272\n      jumpi\n      dup3\n      swap1\n      sub\n      0x1f\n      and\n      dup3\n      add\n      swap2\n    tag_270:\n      pop\n      pop\n      pop\n      pop\n      pop\n      swap9\n      pop\n      dup8\n      dup1\n      sload\n      tag_273\n      swap1\n      tag_88\n      jump\t// in\n    tag_273:\n      dup1\n      0x1f\n      add\n      0x20\n      dup1\n      swap2\n      div\n      mul\n      0x20\n      add\n      mload(0x40)\n      swap1\n      dup2\n      add\n      0x40\n      mstore\n      dup1\n      swap3\n      swap2\n      swap1\n      dup2\n      dup2\n      mstore\n      0x20\n      add\n      dup3\n      dup1\n      sload\n      tag_274\n      swap1\n      tag_88\n      jump\t// in\n    tag_274:\n      dup1\n      iszero\n      tag_275\n      jumpi\n      dup1\n      0x1f\n      lt\n      tag_276\n      jumpi\n      0x0100\n      dup1\n      dup4\n      sload\n      div\n      mul\n      dup4\n      mstore\n      swap2\n      0x20\n      add\n      swap2\n      jump(tag_275)\n    tag_276:\n      dup3\n      add\n      swap2\n      swap1\n      0x00\n      mstore\n      keccak256(0x00, 0x20)\n      swap1\n    tag_277:\n      dup2\n      sload\n      dup2\n      mstore\n      swap1\n      0x01\n      add\n      swap1\n      0x20\n      add\n      dup1\n      dup4\n      gt\n      tag_277\n      jumpi\n      dup3\n      swap1\n      sub\n      0x1f\n      and\n      dup3\n      add\n      swap2\n    tag_275:\n      pop\n      pop\n      pop\n      pop\n      pop\n      swap8\n      pop\n      dup2\n      dup1\n      sload\n      tag_278\n      swap1\n      tag_88\n      jump\t// in\n    tag_278:\n      dup1\n      0x1f\n      add\n      0x20\n      dup1\n      swap2\n      div\n      mul\n      0x20\n      add\n      mload(0x40)\n      swap1\n      dup2\n      add\n      0x40\n      mstore\n      dup1\n      swap3\n      swap2\n      swap1\n      dup2\n      dup2\n      mstore\n      0x20\n      add\n      dup3\n      dup1\n      sload\n      tag_279\n      swap1\n      tag_88\n      jump\t// in\n    tag_279:\n      dup1\n      iszero\n      tag_280\n      jumpi\n      dup1\n      0x1f\n      lt\n      tag_281\n      jumpi\n      0x0100\n      dup1\n      dup4\n      sload\n      div\n      mul\n      dup4\n      mstore\n      swap2\n      0x20\n      add\n      swap2\n      jump(tag_280)\n    tag_281:\n      dup3\n      add\n      swap2\n      swap1\n      0x00\n      mstore\n      keccak256(0x00, 0x20)\n      swap1\n    tag_282:\n      dup2\n      sload\n      dup2\n      mstore\n      swap1\n      0x01\n      add\n      swap1\n      0x20\n      add\n      dup1\n      dup4\n      gt\n      tag_282\n      jumpi\n      dup3\n      swap1\n      sub\n      0x1f\n      and\n      dup3\n      add\n      swap2\n    tag_280:\n      pop\n      pop\n      pop\n      pop\n      pop\n      swap2\n      pop\n      swap11\n      pop\n      swap11\n      pop\n      swap11\n      pop\n      swap11\n      pop\n      swap11\n      pop\n      swap11\n      pop\n      swap11\n      pop\n      swap11\n      pop\n      swap11\n      pop\n      swap11\n      pop\n      swap11\n      pop\n        /* \"Insurance.sol\":10796:11602  function getTakerData() external view returns(... */\n      swap1\n      swap2\n      swap3\n      swap4\n      swap5\n      swap6\n      swap7\n      swap8\n      swap9\n      swap10\n      swap11\n      jump\t// out\n        /* \"Insurance.sol\":19240:19342  function getTakerId() external view returns(bytes32 takerId) {... */\n    tag_66:\n        /* \"Insurance.sol\":19284:19299  bytes32 takerId */\n      0x00\n        /* \"Insurance.sol\":19318:19327  takerData */\n      0x10\n        /* \"Insurance.sol\":19318:19335  takerData.takerId */\n      0x03\n      add\n      sload\n        /* \"Insurance.sol\":19311:19335  return takerData.takerId */\n      swap1\n      pop\n        /* \"Insurance.sol\":19240:19342  function getTakerId() external view returns(bytes32 takerId) {... */\n      swap1\n      jump\t// out\n        /* \"Insurance.sol\":544:824  function sizeOfString(string memory _in) internal pure  returns(uint _size){... */\n    tag_93:\n        /* \"Insurance.sol\":608:618  uint _size */\n      0x00\n        /* \"Insurance.sol\":657:659  32 */\n      0x20\n        /* \"Insurance.sol\":643:646  _in */\n      dup3\n        /* \"Insurance.sol\":637:654  bytes(_in).length */\n      mload\n        /* \"Insurance.sol\":637:659  bytes(_in).length / 32 */\n      tag_285\n      swap2\n      swap1\n      tag_286\n      jump\t// in\n    tag_285:\n        /* \"Insurance.sol\":629:659  _size = bytes(_in).length / 32 */\n      swap1\n      pop\n        /* \"Insurance.sol\":699:700  0 */\n      0x00\n        /* \"Insurance.sol\":693:695  32 */\n      0x20\n        /* \"Insurance.sol\":679:682  _in */\n      dup4\n        /* \"Insurance.sol\":673:690  bytes(_in).length */\n      mload\n        /* \"Insurance.sol\":673:695  bytes(_in).length % 32 */\n      tag_287\n      swap2\n      swap1\n      tag_288\n      jump\t// in\n    tag_287:\n        /* \"Insurance.sol\":673:700  bytes(_in).length % 32 != 0 */\n      eq\n        /* \"Insurance.sol\":669:721  if (bytes(_in).length % 32 != 0)... */\n      tag_289\n      jumpi\n        /* \"Insurance.sol\":714:721  _size++ */\n      dup1\n      dup1\n      tag_290\n      swap1\n      tag_205\n      jump\t// in\n    tag_290:\n      swap2\n      pop\n      pop\n        /* \"Insurance.sol\":669:721  if (bytes(_in).length % 32 != 0)... */\n    tag_289:\n        /* \"Insurance.sol\":732:739  _size++ */\n      dup1\n      dup1\n      tag_291\n      swap1\n      tag_205\n      jump\t// in\n    tag_291:\n      swap2\n      pop\n      pop\n        /* \"Insurance.sol\":815:817  32 */\n      0x20\n        /* \"Insurance.sol\":806:817  _size *= 32 */\n      dup2\n      tag_292\n      swap2\n      swap1\n      tag_293\n      jump\t// in\n    tag_292:\n      swap1\n      pop\n        /* \"Insurance.sol\":544:824  function sizeOfString(string memory _in) internal pure  returns(uint _size){... */\n      swap2\n      swap1\n      pop\n      jump\t// out\n        /* \"Insurance.sol\":1672:1986  function bytes32ToBytes(uint _offst, bytes32 _input, bytes memory _output) internal pure {... */\n    tag_124:\n        /* \"Insurance.sol\":1772:1795  bytes memory inputBytes */\n      0x00\n        /* \"Insurance.sol\":1815:1821  _input */\n      dup3\n        /* \"Insurance.sol\":1798:1822  abi.encodePacked(_input) */\n      add(0x20, mload(0x40))\n      tag_295\n      swap2\n      swap1\n      tag_296\n      jump\t// in\n    tag_295:\n      mload(0x40)\n      0x20\n      dup2\n      dup4\n      sub\n      sub\n      dup2\n      mstore\n      swap1\n      0x40\n      mstore\n        /* \"Insurance.sol\":1772:1822  bytes memory inputBytes = abi.encodePacked(_input) */\n      swap1\n      pop\n        /* \"Insurance.sol\":1965:1967  32 */\n      0x20\n        /* \"Insurance.sol\":1954:1964  inputBytes */\n      dup2\n        /* \"Insurance.sol\":1950:1968  add(inputBytes,32) */\n      add\n        /* \"Insurance.sol\":1944:1969  mload(add(inputBytes,32)) */\n      mload\n        /* \"Insurance.sol\":1935:1941  _offst */\n      dup5\n        /* \"Insurance.sol\":1926:1933  _output */\n      dup4\n        /* \"Insurance.sol\":1922:1942  add(_output, _offst) */\n      add\n        /* \"Insurance.sol\":1915:1970  mstore(add(_output, _offst), mload(add(inputBytes,32))) */\n      mstore\n        /* \"Insurance.sol\":1901:1980  {... */\n      pop\n      pop\n      pop\n      pop\n      jump\t// out\n        /* \"Insurance.sol\":1498:1666  function uintToBytes(uint _offst, uint _input, bytes memory _output) internal pure {... */\n    tag_128:\n        /* \"Insurance.sol\":1643:1649  _input */\n      dup2\n        /* \"Insurance.sol\":1634:1640  _offst */\n      dup4\n        /* \"Insurance.sol\":1625:1632  _output */\n      dup3\n        /* \"Insurance.sol\":1621:1641  add(_output, _offst) */\n      add\n        /* \"Insurance.sol\":1614:1650  mstore(add(_output, _offst), _input) */\n      mstore\n        /* \"Insurance.sol\":1600:1660  {... */\n      pop\n      pop\n      pop\n      jump\t// out\n        /* \"Insurance.sol\":830:1036  function boolToBytes(uint _offst, bool _input, bytes memory _output) internal pure {... */\n    tag_155:\n        /* \"Insurance.sol\":923:930  uint8 x */\n      0x00\n        /* \"Insurance.sol\":943:948  false */\n      dup1\n        /* \"Insurance.sol\":933:948  _input == false */\n      iszero\n      iszero\n        /* \"Insurance.sol\":933:939  _input */\n      dup4\n        /* \"Insurance.sol\":933:948  _input == false */\n      iszero\n      iszero\n      eq\n        /* \"Insurance.sol\":933:956  _input == false ? 0 : 1 */\n      tag_299\n      jumpi\n        /* \"Insurance.sol\":955:956  1 */\n      0x01\n        /* \"Insurance.sol\":933:956  _input == false ? 0 : 1 */\n      jump(tag_300)\n    tag_299:\n        /* \"Insurance.sol\":951:952  0 */\n      0x00\n        /* \"Insurance.sol\":933:956  _input == false ? 0 : 1 */\n    tag_300:\n        /* \"Insurance.sol\":923:956  uint8 x = _input == false ? 0 : 1 */\n      swap1\n      pop\n        /* \"Insurance.sol\":1018:1019  x */\n      dup1\n        /* \"Insurance.sol\":1009:1015  _offst */\n      dup5\n        /* \"Insurance.sol\":1000:1007  _output */\n      dup4\n        /* \"Insurance.sol\":996:1016  add(_output, _offst) */\n      add\n        /* \"Insurance.sol\":989:1020  mstore(add(_output, _offst), x) */\n      mstore\n        /* \"Insurance.sol\":975:1030  {... */\n      pop\n      pop\n      pop\n      pop\n      jump\t// out\n        /* \"Insurance.sol\":1042:1492  function stringToBytes(uint _offst, bytes memory _input, bytes memory _output) internal pure {... */\n    tag_167:\n        /* \"Insurance.sol\":1145:1163  uint256 stack_size */\n      0x00\n        /* \"Insurance.sol\":1182:1184  32 */\n      0x20\n        /* \"Insurance.sol\":1166:1172  _input */\n      dup4\n        /* \"Insurance.sol\":1166:1179  _input.length */\n      mload\n        /* \"Insurance.sol\":1166:1184  _input.length / 32 */\n      tag_302\n      swap2\n      swap1\n      tag_286\n      jump\t// in\n    tag_302:\n        /* \"Insurance.sol\":1145:1184  uint256 stack_size = _input.length / 32 */\n      swap1\n      pop\n        /* \"Insurance.sol\":1218:1219  0 */\n      0x00\n        /* \"Insurance.sol\":1213:1215  32 */\n      0x20\n        /* \"Insurance.sol\":1197:1203  _input */\n      dup5\n        /* \"Insurance.sol\":1197:1210  _input.length */\n      mload\n        /* \"Insurance.sol\":1197:1215  _input.length % 32 */\n      tag_303\n      swap2\n      swap1\n      tag_288\n      jump\t// in\n    tag_303:\n        /* \"Insurance.sol\":1197:1219  _input.length % 32 > 0 */\n      gt\n        /* \"Insurance.sol\":1194:1233  if(_input.length % 32 > 0) stack_size++ */\n      iszero\n      tag_304\n      jumpi\n        /* \"Insurance.sol\":1221:1233  stack_size++ */\n      dup1\n      dup1\n      tag_305\n      swap1\n      tag_205\n      jump\t// in\n    tag_305:\n      swap2\n      pop\n      pop\n        /* \"Insurance.sol\":1194:1233  if(_input.length % 32 > 0) stack_size++ */\n    tag_304:\n        /* \"Insurance.sol\":1244:1256  stack_size++ */\n      dup1\n      dup1\n      tag_306\n      swap1\n      tag_205\n      jump\t// in\n    tag_306:\n      swap2\n      pop\n      pop\n        /* \"Insurance.sol\":1271:1281  uint index */\n      0x00\n        /* \"Insurance.sol\":1266:1486  for (uint index = 0; index < stack_size; index++) {... */\n    tag_307:\n        /* \"Insurance.sol\":1295:1305  stack_size */\n      dup2\n        /* \"Insurance.sol\":1287:1292  index */\n      dup2\n        /* \"Insurance.sol\":1287:1305  index < stack_size */\n      lt\n        /* \"Insurance.sol\":1266:1486  for (uint index = 0; index < stack_size; index++) {... */\n      iszero\n      tag_308\n      jumpi\n        /* \"Insurance.sol\":1413:1415  32 */\n      0x20\n        /* \"Insurance.sol\":1407:1412  index */\n      dup2\n        /* \"Insurance.sol\":1403:1416  mul(index,32) */\n      mul\n        /* \"Insurance.sol\":1396:1402  _input */\n      dup5\n        /* \"Insurance.sol\":1392:1417  add(_input,mul(index,32)) */\n      add\n        /* \"Insurance.sol\":1386:1418  mload(add(_input,mul(index,32))) */\n      mload\n        /* \"Insurance.sol\":1377:1383  _offst */\n      dup6\n        /* \"Insurance.sol\":1368:1375  _output */\n      dup5\n        /* \"Insurance.sol\":1364:1384  add(_output, _offst) */\n      add\n        /* \"Insurance.sol\":1357:1419  mstore(add(_output, _offst), mload(add(_input,mul(index,32)))) */\n      mstore\n        /* \"Insurance.sol\":1459:1461  32 */\n      0x20\n        /* \"Insurance.sol\":1450:1456  _offst */\n      dup6\n        /* \"Insurance.sol\":1446:1462  sub(_offst , 32) */\n      sub\n        /* \"Insurance.sol\":1436:1462  _offst := sub(_offst , 32) */\n      swap5\n      pop\n        /* \"Insurance.sol\":1307:1314  index++ */\n      dup1\n      dup1\n      tag_310\n      swap1\n      tag_205\n      jump\t// in\n    tag_310:\n      swap2\n      pop\n      pop\n        /* \"Insurance.sol\":1266:1486  for (uint index = 0; index < stack_size; index++) {... */\n      jump(tag_307)\n    tag_308:\n      pop\n        /* \"Insurance.sol\":1042:1492  function stringToBytes(uint _offst, bytes memory _input, bytes memory _output) internal pure {... */\n      pop\n      pop\n      pop\n      pop\n      jump\t// out\n        /* \"#utility.yul\":7:146   */\n    tag_312:\n      0x00\n        /* \"#utility.yul\":91:97   */\n      dup2\n        /* \"#utility.yul\":78:98   */\n      calldataload\n        /* \"#utility.yul\":69:98   */\n      swap1\n      pop\n        /* \"#utility.yul\":107:140   */\n      tag_314\n        /* \"#utility.yul\":134:139   */\n      dup2\n        /* \"#utility.yul\":107:140   */\n      tag_315\n      jump\t// in\n    tag_314:\n        /* \"#utility.yul\":59:146   */\n      swap3\n      swap2\n      pop\n      pop\n      jump\t// out\n        /* \"#utility.yul\":152:291   */\n    tag_316:\n      0x00\n        /* \"#utility.yul\":236:242   */\n      dup2\n        /* \"#utility.yul\":223:243   */\n      calldataload\n        /* \"#utility.yul\":214:243   */\n      swap1\n      pop\n        /* \"#utility.yul\":252:285   */\n      tag_318\n        /* \"#utility.yul\":279:284   */\n      dup2\n        /* \"#utility.yul\":252:285   */\n      tag_319\n      jump\t// in\n    tag_318:\n        /* \"#utility.yul\":204:291   */\n      swap3\n      swap2\n      pop\n      pop\n      jump\t// out\n        /* \"#utility.yul\":297:436   */\n    tag_320:\n      0x00\n        /* \"#utility.yul\":381:387   */\n      dup2\n        /* \"#utility.yul\":368:388   */\n      calldataload\n        /* \"#utility.yul\":359:388   */\n      swap1\n      pop\n        /* \"#utility.yul\":397:430   */\n      tag_322\n        /* \"#utility.yul\":424:429   */\n      dup2\n        /* \"#utility.yul\":397:430   */\n      tag_323\n      jump\t// in\n    tag_322:\n        /* \"#utility.yul\":349:436   */\n      swap3\n      swap2\n      pop\n      pop\n      jump\t// out\n        /* \"#utility.yul\":442:704   */\n    tag_38:\n      0x00\n        /* \"#utility.yul\":550:552   */\n      0x20\n        /* \"#utility.yul\":538:547   */\n      dup3\n        /* \"#utility.yul\":529:536   */\n      dup5\n        /* \"#utility.yul\":525:548   */\n      sub\n        /* \"#utility.yul\":521:553   */\n      slt\n        /* \"#utility.yul\":518:520   */\n      iszero\n      tag_325\n      jumpi\n        /* \"#utility.yul\":566:567   */\n      0x00\n        /* \"#utility.yul\":563:564   */\n      dup1\n        /* \"#utility.yul\":556:568   */\n      revert\n        /* \"#utility.yul\":518:520   */\n    tag_325:\n        /* \"#utility.yul\":609:610   */\n      0x00\n        /* \"#utility.yul\":634:687   */\n      tag_326\n        /* \"#utility.yul\":679:686   */\n      dup5\n        /* \"#utility.yul\":670:676   */\n      dup3\n        /* \"#utility.yul\":659:668   */\n      dup6\n        /* \"#utility.yul\":655:677   */\n      add\n        /* \"#utility.yul\":634:687   */\n      tag_312\n      jump\t// in\n    tag_326:\n        /* \"#utility.yul\":624:687   */\n      swap2\n      pop\n        /* \"#utility.yul\":580:697   */\n      pop\n        /* \"#utility.yul\":508:704   */\n      swap3\n      swap2\n      pop\n      pop\n      jump\t// out\n        /* \"#utility.yul\":710:972   */\n    tag_24:\n      0x00\n        /* \"#utility.yul\":818:820   */\n      0x20\n        /* \"#utility.yul\":806:815   */\n      dup3\n        /* \"#utility.yul\":797:804   */\n      dup5\n        /* \"#utility.yul\":793:816   */\n      sub\n        /* \"#utility.yul\":789:821   */\n      slt\n        /* \"#utility.yul\":786:788   */\n      iszero\n      tag_328\n      jumpi\n        /* \"#utility.yul\":834:835   */\n      0x00\n        /* \"#utility.yul\":831:832   */\n      dup1\n        /* \"#utility.yul\":824:836   */\n      revert\n        /* \"#utility.yul\":786:788   */\n    tag_328:\n        /* \"#utility.yul\":877:878   */\n      0x00\n        /* \"#utility.yul\":902:955   */\n      tag_329\n        /* \"#utility.yul\":947:954   */\n      dup5\n        /* \"#utility.yul\":938:944   */\n      dup3\n        /* \"#utility.yul\":927:936   */\n      dup6\n        /* \"#utility.yul\":923:945   */\n      add\n        /* \"#utility.yul\":902:955   */\n      tag_316\n      jump\t// in\n    tag_329:\n        /* \"#utility.yul\":892:955   */\n      swap2\n      pop\n        /* \"#utility.yul\":848:965   */\n      pop\n        /* \"#utility.yul\":776:972   */\n      swap3\n      swap2\n      pop\n      pop\n      jump\t// out\n        /* \"#utility.yul\":978:1385   */\n    tag_30:\n      0x00\n      dup1\n        /* \"#utility.yul\":1103:1105   */\n      0x40\n        /* \"#utility.yul\":1091:1100   */\n      dup4\n        /* \"#utility.yul\":1082:1089   */\n      dup6\n        /* \"#utility.yul\":1078:1101   */\n      sub\n        /* \"#utility.yul\":1074:1106   */\n      slt\n        /* \"#utility.yul\":1071:1073   */\n      iszero\n      tag_331\n      jumpi\n        /* \"#utility.yul\":1119:1120   */\n      0x00\n        /* \"#utility.yul\":1116:1117   */\n      dup1\n        /* \"#utility.yul\":1109:1121   */\n      revert\n        /* \"#utility.yul\":1071:1073   */\n    tag_331:\n        /* \"#utility.yul\":1162:1163   */\n      0x00\n        /* \"#utility.yul\":1187:1240   */\n      tag_332\n        /* \"#utility.yul\":1232:1239   */\n      dup6\n        /* \"#utility.yul\":1223:1229   */\n      dup3\n        /* \"#utility.yul\":1212:1221   */\n      dup7\n        /* \"#utility.yul\":1208:1230   */\n      add\n        /* \"#utility.yul\":1187:1240   */\n      tag_316\n      jump\t// in\n    tag_332:\n        /* \"#utility.yul\":1177:1240   */\n      swap3\n      pop\n        /* \"#utility.yul\":1133:1250   */\n      pop\n        /* \"#utility.yul\":1289:1291   */\n      0x20\n        /* \"#utility.yul\":1315:1368   */\n      tag_333\n        /* \"#utility.yul\":1360:1367   */\n      dup6\n        /* \"#utility.yul\":1351:1357   */\n      dup3\n        /* \"#utility.yul\":1340:1349   */\n      dup7\n        /* \"#utility.yul\":1336:1358   */\n      add\n        /* \"#utility.yul\":1315:1368   */\n      tag_316\n      jump\t// in\n    tag_333:\n        /* \"#utility.yul\":1305:1368   */\n      swap2\n      pop\n        /* \"#utility.yul\":1260:1378   */\n      pop\n        /* \"#utility.yul\":1061:1385   */\n      swap3\n      pop\n      swap3\n      swap1\n      pop\n      jump\t// out\n        /* \"#utility.yul\":1391:2089   */\n    tag_42:\n      0x00\n      dup1\n      0x00\n      dup1\n        /* \"#utility.yul\":1550:1553   */\n      0x80\n        /* \"#utility.yul\":1538:1547   */\n      dup6\n        /* \"#utility.yul\":1529:1536   */\n      dup8\n        /* \"#utility.yul\":1525:1548   */\n      sub\n        /* \"#utility.yul\":1521:1554   */\n      slt\n        /* \"#utility.yul\":1518:1520   */\n      iszero\n      tag_335\n      jumpi\n        /* \"#utility.yul\":1567:1568   */\n      0x00\n        /* \"#utility.yul\":1564:1565   */\n      dup1\n        /* \"#utility.yul\":1557:1569   */\n      revert\n        /* \"#utility.yul\":1518:1520   */\n    tag_335:\n        /* \"#utility.yul\":1610:1611   */\n      0x00\n        /* \"#utility.yul\":1635:1688   */\n      tag_336\n        /* \"#utility.yul\":1680:1687   */\n      dup8\n        /* \"#utility.yul\":1671:1677   */\n      dup3\n        /* \"#utility.yul\":1660:1669   */\n      dup9\n        /* \"#utility.yul\":1656:1678   */\n      add\n        /* \"#utility.yul\":1635:1688   */\n      tag_316\n      jump\t// in\n    tag_336:\n        /* \"#utility.yul\":1625:1688   */\n      swap5\n      pop\n        /* \"#utility.yul\":1581:1698   */\n      pop\n        /* \"#utility.yul\":1737:1739   */\n      0x20\n        /* \"#utility.yul\":1763:1816   */\n      tag_337\n        /* \"#utility.yul\":1808:1815   */\n      dup8\n        /* \"#utility.yul\":1799:1805   */\n      dup3\n        /* \"#utility.yul\":1788:1797   */\n      dup9\n        /* \"#utility.yul\":1784:1806   */\n      add\n        /* \"#utility.yul\":1763:1816   */\n      tag_316\n      jump\t// in\n    tag_337:\n        /* \"#utility.yul\":1753:1816   */\n      swap4\n      pop\n        /* \"#utility.yul\":1708:1826   */\n      pop\n        /* \"#utility.yul\":1865:1867   */\n      0x40\n        /* \"#utility.yul\":1891:1944   */\n      tag_338\n        /* \"#utility.yul\":1936:1943   */\n      dup8\n        /* \"#utility.yul\":1927:1933   */\n      dup3\n        /* \"#utility.yul\":1916:1925   */\n      dup9\n        /* \"#utility.yul\":1912:1934   */\n      add\n        /* \"#utility.yul\":1891:1944   */\n      tag_320\n      jump\t// in\n    tag_338:\n        /* \"#utility.yul\":1881:1944   */\n      swap3\n      pop\n        /* \"#utility.yul\":1836:1954   */\n      pop\n        /* \"#utility.yul\":1993:1995   */\n      0x60\n        /* \"#utility.yul\":2019:2072   */\n      tag_339\n        /* \"#utility.yul\":2064:2071   */\n      dup8\n        /* \"#utility.yul\":2055:2061   */\n      dup3\n        /* \"#utility.yul\":2044:2053   */\n      dup9\n        /* \"#utility.yul\":2040:2062   */\n      add\n        /* \"#utility.yul\":2019:2072   */\n      tag_312\n      jump\t// in\n    tag_339:\n        /* \"#utility.yul\":2009:2072   */\n      swap2\n      pop\n        /* \"#utility.yul\":1964:2082   */\n      pop\n        /* \"#utility.yul\":1508:2089   */\n      swap3\n      swap6\n      swap2\n      swap5\n      pop\n      swap3\n      pop\n      jump\t// out\n        /* \"#utility.yul\":2095:2274   */\n    tag_340:\n      0x00\n        /* \"#utility.yul\":2185:2231   */\n      tag_342\n        /* \"#utility.yul\":2227:2230   */\n      dup4\n        /* \"#utility.yul\":2219:2225   */\n      dup4\n        /* \"#utility.yul\":2185:2231   */\n      tag_343\n      jump\t// in\n    tag_342:\n        /* \"#utility.yul\":2263:2267   */\n      0x20\n        /* \"#utility.yul\":2258:2261   */\n      dup4\n        /* \"#utility.yul\":2254:2268   */\n      add\n        /* \"#utility.yul\":2240:2268   */\n      swap1\n      pop\n        /* \"#utility.yul\":2175:2274   */\n      swap3\n      swap2\n      pop\n      pop\n      jump\t// out\n        /* \"#utility.yul\":2280:2398   */\n    tag_344:\n        /* \"#utility.yul\":2367:2391   */\n      tag_346\n        /* \"#utility.yul\":2385:2390   */\n      dup2\n        /* \"#utility.yul\":2367:2391   */\n      tag_347\n      jump\t// in\n    tag_346:\n        /* \"#utility.yul\":2362:2365   */\n      dup3\n        /* \"#utility.yul\":2355:2392   */\n      mstore\n        /* \"#utility.yul\":2345:2398   */\n      pop\n      pop\n      jump\t// out\n        /* \"#utility.yul\":2434:3166   */\n    tag_348:\n      0x00\n        /* \"#utility.yul\":2582:2636   */\n      tag_350\n        /* \"#utility.yul\":2630:2635   */\n      dup3\n        /* \"#utility.yul\":2582:2636   */\n      tag_351\n      jump\t// in\n    tag_350:\n        /* \"#utility.yul\":2652:2738   */\n      tag_352\n        /* \"#utility.yul\":2731:2737   */\n      dup2\n        /* \"#utility.yul\":2726:2729   */\n      dup6\n        /* \"#utility.yul\":2652:2738   */\n      tag_353\n      jump\t// in\n    tag_352:\n        /* \"#utility.yul\":2645:2738   */\n      swap4\n      pop\n        /* \"#utility.yul\":2762:2818   */\n      tag_354\n        /* \"#utility.yul\":2812:2817   */\n      dup4\n        /* \"#utility.yul\":2762:2818   */\n      tag_355\n      jump\t// in\n    tag_354:\n        /* \"#utility.yul\":2841:2848   */\n      dup1\n        /* \"#utility.yul\":2872:2873   */\n      0x00\n        /* \"#utility.yul\":2857:3141   */\n    tag_356:\n        /* \"#utility.yul\":2882:2888   */\n      dup4\n        /* \"#utility.yul\":2879:2880   */\n      dup2\n        /* \"#utility.yul\":2876:2889   */\n      lt\n        /* \"#utility.yul\":2857:3141   */\n      iszero\n      tag_358\n      jumpi\n        /* \"#utility.yul\":2958:2964   */\n      dup2\n        /* \"#utility.yul\":2952:2965   */\n      mload\n        /* \"#utility.yul\":2985:3048   */\n      tag_359\n        /* \"#utility.yul\":3044:3047   */\n      dup9\n        /* \"#utility.yul\":3029:3042   */\n      dup3\n        /* \"#utility.yul\":2985:3048   */\n      tag_340\n      jump\t// in\n    tag_359:\n        /* \"#utility.yul\":2978:3048   */\n      swap8\n      pop\n        /* \"#utility.yul\":3071:3131   */\n      tag_360\n        /* \"#utility.yul\":3124:3130   */\n      dup4\n        /* \"#utility.yul\":3071:3131   */\n      tag_361\n      jump\t// in\n    tag_360:\n        /* \"#utility.yul\":3061:3131   */\n      swap3\n      pop\n        /* \"#utility.yul\":2917:3141   */\n      pop\n        /* \"#utility.yul\":2904:2905   */\n      0x01\n        /* \"#utility.yul\":2901:2902   */\n      dup2\n        /* \"#utility.yul\":2897:2906   */\n      add\n        /* \"#utility.yul\":2892:2906   */\n      swap1\n      pop\n        /* \"#utility.yul\":2857:3141   */\n      jump(tag_356)\n    tag_358:\n        /* \"#utility.yul\":2861:2875   */\n      pop\n        /* \"#utility.yul\":3157:3160   */\n      dup6\n        /* \"#utility.yul\":3150:3160   */\n      swap4\n      pop\n        /* \"#utility.yul\":2558:3166   */\n      pop\n      pop\n      pop\n      swap3\n      swap2\n      pop\n      pop\n      jump\t// out\n        /* \"#utility.yul\":3172:3280   */\n    tag_343:\n        /* \"#utility.yul\":3249:3273   */\n      tag_363\n        /* \"#utility.yul\":3267:3272   */\n      dup2\n        /* \"#utility.yul\":3249:3273   */\n      tag_364\n      jump\t// in\n    tag_363:\n        /* \"#utility.yul\":3244:3247   */\n      dup3\n        /* \"#utility.yul\":3237:3274   */\n      mstore\n        /* \"#utility.yul\":3227:3280   */\n      pop\n      pop\n      jump\t// out\n        /* \"#utility.yul\":3286:3404   */\n    tag_365:\n        /* \"#utility.yul\":3373:3397   */\n      tag_367\n        /* \"#utility.yul\":3391:3396   */\n      dup2\n        /* \"#utility.yul\":3373:3397   */\n      tag_364\n      jump\t// in\n    tag_367:\n        /* \"#utility.yul\":3368:3371   */\n      dup3\n        /* \"#utility.yul\":3361:3398   */\n      mstore\n        /* \"#utility.yul\":3351:3404   */\n      pop\n      pop\n      jump\t// out\n        /* \"#utility.yul\":3410:3567   */\n    tag_368:\n        /* \"#utility.yul\":3515:3560   */\n      tag_370\n        /* \"#utility.yul\":3535:3559   */\n      tag_371\n        /* \"#utility.yul\":3553:3558   */\n      dup3\n        /* \"#utility.yul\":3535:3559   */\n      tag_364\n      jump\t// in\n    tag_371:\n        /* \"#utility.yul\":3515:3560   */\n      tag_372\n      jump\t// in\n    tag_370:\n        /* \"#utility.yul\":3510:3513   */\n      dup3\n        /* \"#utility.yul\":3503:3561   */\n      mstore\n        /* \"#utility.yul\":3493:3567   */\n      pop\n      pop\n      jump\t// out\n        /* \"#utility.yul\":3573:3933   */\n    tag_373:\n      0x00\n        /* \"#utility.yul\":3687:3725   */\n      tag_375\n        /* \"#utility.yul\":3719:3724   */\n      dup3\n        /* \"#utility.yul\":3687:3725   */\n      tag_376\n      jump\t// in\n    tag_375:\n        /* \"#utility.yul\":3741:3811   */\n      tag_377\n        /* \"#utility.yul\":3804:3810   */\n      dup2\n        /* \"#utility.yul\":3799:3802   */\n      dup6\n        /* \"#utility.yul\":3741:3811   */\n      tag_378\n      jump\t// in\n    tag_377:\n        /* \"#utility.yul\":3734:3811   */\n      swap4\n      pop\n        /* \"#utility.yul\":3820:3872   */\n      tag_379\n        /* \"#utility.yul\":3865:3871   */\n      dup2\n        /* \"#utility.yul\":3860:3863   */\n      dup6\n        /* \"#utility.yul\":3853:3857   */\n      0x20\n        /* \"#utility.yul\":3846:3851   */\n      dup7\n        /* \"#utility.yul\":3842:3858   */\n      add\n        /* \"#utility.yul\":3820:3872   */\n      tag_380\n      jump\t// in\n    tag_379:\n        /* \"#utility.yul\":3897:3926   */\n      tag_381\n        /* \"#utility.yul\":3919:3925   */\n      dup2\n        /* \"#utility.yul\":3897:3926   */\n      tag_382\n      jump\t// in\n    tag_381:\n        /* \"#utility.yul\":3892:3895   */\n      dup5\n        /* \"#utility.yul\":3888:3927   */\n      add\n        /* \"#utility.yul\":3881:3927   */\n      swap2\n      pop\n        /* \"#utility.yul\":3663:3933   */\n      pop\n      swap3\n      swap2\n      pop\n      pop\n      jump\t// out\n        /* \"#utility.yul\":3939:4303   */\n    tag_383:\n      0x00\n        /* \"#utility.yul\":4055:4094   */\n      tag_385\n        /* \"#utility.yul\":4088:4093   */\n      dup3\n        /* \"#utility.yul\":4055:4094   */\n      tag_386\n      jump\t// in\n    tag_385:\n        /* \"#utility.yul\":4110:4181   */\n      tag_387\n        /* \"#utility.yul\":4174:4180   */\n      dup2\n        /* \"#utility.yul\":4169:4172   */\n      dup6\n        /* \"#utility.yul\":4110:4181   */\n      tag_388\n      jump\t// in\n    tag_387:\n        /* \"#utility.yul\":4103:4181   */\n      swap4\n      pop\n        /* \"#utility.yul\":4190:4242   */\n      tag_389\n        /* \"#utility.yul\":4235:4241   */\n      dup2\n        /* \"#utility.yul\":4230:4233   */\n      dup6\n        /* \"#utility.yul\":4223:4227   */\n      0x20\n        /* \"#utility.yul\":4216:4221   */\n      dup7\n        /* \"#utility.yul\":4212:4228   */\n      add\n        /* \"#utility.yul\":4190:4242   */\n      tag_380\n      jump\t// in\n    tag_389:\n        /* \"#utility.yul\":4267:4296   */\n      tag_390\n        /* \"#utility.yul\":4289:4295   */\n      dup2\n        /* \"#utility.yul\":4267:4296   */\n      tag_382\n      jump\t// in\n    tag_390:\n        /* \"#utility.yul\":4262:4265   */\n      dup5\n        /* \"#utility.yul\":4258:4297   */\n      add\n        /* \"#utility.yul\":4251:4297   */\n      swap2\n      pop\n        /* \"#utility.yul\":4031:4303   */\n      pop\n      swap3\n      swap2\n      pop\n      pop\n      jump\t// out\n        /* \"#utility.yul\":4309:4675   */\n    tag_391:\n      0x00\n        /* \"#utility.yul\":4472:4539   */\n      tag_393\n        /* \"#utility.yul\":4536:4538   */\n      0x2b\n        /* \"#utility.yul\":4531:4534   */\n      dup4\n        /* \"#utility.yul\":4472:4539   */\n      tag_388\n      jump\t// in\n    tag_393:\n        /* \"#utility.yul\":4465:4539   */\n      swap2\n      pop\n        /* \"#utility.yul\":4548:4641   */\n      tag_394\n        /* \"#utility.yul\":4637:4640   */\n      dup3\n        /* \"#utility.yul\":4548:4641   */\n      tag_395\n      jump\t// in\n    tag_394:\n        /* \"#utility.yul\":4666:4668   */\n      0x40\n        /* \"#utility.yul\":4661:4664   */\n      dup3\n        /* \"#utility.yul\":4657:4669   */\n      add\n        /* \"#utility.yul\":4650:4669   */\n      swap1\n      pop\n        /* \"#utility.yul\":4455:4675   */\n      swap2\n      swap1\n      pop\n      jump\t// out\n        /* \"#utility.yul\":4681:5047   */\n    tag_396:\n      0x00\n        /* \"#utility.yul\":4844:4911   */\n      tag_398\n        /* \"#utility.yul\":4908:4910   */\n      0x1c\n        /* \"#utility.yul\":4903:4906   */\n      dup4\n        /* \"#utility.yul\":4844:4911   */\n      tag_388\n      jump\t// in\n    tag_398:\n        /* \"#utility.yul\":4837:4911   */\n      swap2\n      pop\n        /* \"#utility.yul\":4920:5013   */\n      tag_399\n        /* \"#utility.yul\":5009:5012   */\n      dup3\n        /* \"#utility.yul\":4920:5013   */\n      tag_400\n      jump\t// in\n    tag_399:\n        /* \"#utility.yul\":5038:5040   */\n      0x20\n        /* \"#utility.yul\":5033:5036   */\n      dup3\n        /* \"#utility.yul\":5029:5041   */\n      add\n        /* \"#utility.yul\":5022:5041   */\n      swap1\n      pop\n        /* \"#utility.yul\":4827:5047   */\n      swap2\n      swap1\n      pop\n      jump\t// out\n        /* \"#utility.yul\":5053:5419   */\n    tag_401:\n      0x00\n        /* \"#utility.yul\":5216:5283   */\n      tag_403\n        /* \"#utility.yul\":5280:5282   */\n      0x18\n        /* \"#utility.yul\":5275:5278   */\n      dup4\n        /* \"#utility.yul\":5216:5283   */\n      tag_388\n      jump\t// in\n    tag_403:\n        /* \"#utility.yul\":5209:5283   */\n      swap2\n      pop\n        /* \"#utility.yul\":5292:5385   */\n      tag_404\n        /* \"#utility.yul\":5381:5384   */\n      dup3\n        /* \"#utility.yul\":5292:5385   */\n      tag_405\n      jump\t// in\n    tag_404:\n        /* \"#utility.yul\":5410:5412   */\n      0x20\n        /* \"#utility.yul\":5405:5408   */\n      dup3\n        /* \"#utility.yul\":5401:5413   */\n      add\n        /* \"#utility.yul\":5394:5413   */\n      swap1\n      pop\n        /* \"#utility.yul\":5199:5419   */\n      swap2\n      swap1\n      pop\n      jump\t// out\n        /* \"#utility.yul\":5425:5791   */\n    tag_406:\n      0x00\n        /* \"#utility.yul\":5588:5655   */\n      tag_408\n        /* \"#utility.yul\":5652:5654   */\n      0x1c\n        /* \"#utility.yul\":5647:5650   */\n      dup4\n        /* \"#utility.yul\":5588:5655   */\n      tag_388\n      jump\t// in\n    tag_408:\n        /* \"#utility.yul\":5581:5655   */\n      swap2\n      pop\n        /* \"#utility.yul\":5664:5757   */\n      tag_409\n        /* \"#utility.yul\":5753:5756   */\n      dup3\n        /* \"#utility.yul\":5664:5757   */\n      tag_410\n      jump\t// in\n    tag_409:\n        /* \"#utility.yul\":5782:5784   */\n      0x20\n        /* \"#utility.yul\":5777:5780   */\n      dup3\n        /* \"#utility.yul\":5773:5785   */\n      add\n        /* \"#utility.yul\":5766:5785   */\n      swap1\n      pop\n        /* \"#utility.yul\":5571:5791   */\n      swap2\n      swap1\n      pop\n      jump\t// out\n        /* \"#utility.yul\":5797:5912   */\n    tag_411:\n        /* \"#utility.yul\":5882:5905   */\n      tag_413\n        /* \"#utility.yul\":5899:5904   */\n      dup2\n        /* \"#utility.yul\":5882:5905   */\n      tag_414\n      jump\t// in\n    tag_413:\n        /* \"#utility.yul\":5877:5880   */\n      dup3\n        /* \"#utility.yul\":5870:5906   */\n      mstore\n        /* \"#utility.yul\":5860:5912   */\n      pop\n      pop\n      jump\t// out\n        /* \"#utility.yul\":5918:6036   */\n    tag_415:\n        /* \"#utility.yul\":6005:6029   */\n      tag_417\n        /* \"#utility.yul\":6023:6028   */\n      dup2\n        /* \"#utility.yul\":6005:6029   */\n      tag_418\n      jump\t// in\n    tag_417:\n        /* \"#utility.yul\":6000:6003   */\n      dup3\n        /* \"#utility.yul\":5993:6030   */\n      mstore\n        /* \"#utility.yul\":5983:6036   */\n      pop\n      pop\n      jump\t// out\n        /* \"#utility.yul\":6042:6298   */\n    tag_296:\n      0x00\n        /* \"#utility.yul\":6169:6244   */\n      tag_420\n        /* \"#utility.yul\":6240:6243   */\n      dup3\n        /* \"#utility.yul\":6231:6237   */\n      dup5\n        /* \"#utility.yul\":6169:6244   */\n      tag_368\n      jump\t// in\n    tag_420:\n        /* \"#utility.yul\":6269:6271   */\n      0x20\n        /* \"#utility.yul\":6264:6267   */\n      dup3\n        /* \"#utility.yul\":6260:6272   */\n      add\n        /* \"#utility.yul\":6253:6272   */\n      swap2\n      pop\n        /* \"#utility.yul\":6289:6292   */\n      dup2\n        /* \"#utility.yul\":6282:6292   */\n      swap1\n      pop\n        /* \"#utility.yul\":6158:6298   */\n      swap3\n      swap2\n      pop\n      pop\n      jump\t// out\n        /* \"#utility.yul\":6304:6526   */\n    tag_54:\n      0x00\n        /* \"#utility.yul\":6435:6437   */\n      0x20\n        /* \"#utility.yul\":6424:6433   */\n      dup3\n        /* \"#utility.yul\":6420:6438   */\n      add\n        /* \"#utility.yul\":6412:6438   */\n      swap1\n      pop\n        /* \"#utility.yul\":6448:6519   */\n      tag_422\n        /* \"#utility.yul\":6516:6517   */\n      0x00\n        /* \"#utility.yul\":6505:6514   */\n      dup4\n        /* \"#utility.yul\":6501:6518   */\n      add\n        /* \"#utility.yul\":6492:6498   */\n      dup5\n        /* \"#utility.yul\":6448:6519   */\n      tag_344\n      jump\t// in\n    tag_422:\n        /* \"#utility.yul\":6402:6526   */\n      swap3\n      swap2\n      pop\n      pop\n      jump\t// out\n        /* \"#utility.yul\":6532:6754   */\n    tag_49:\n      0x00\n        /* \"#utility.yul\":6663:6665   */\n      0x20\n        /* \"#utility.yul\":6652:6661   */\n      dup3\n        /* \"#utility.yul\":6648:6666   */\n      add\n        /* \"#utility.yul\":6640:6666   */\n      swap1\n      pop\n        /* \"#utility.yul\":6676:6747   */\n      tag_424\n        /* \"#utility.yul\":6744:6745   */\n      0x00\n        /* \"#utility.yul\":6733:6742   */\n      dup4\n        /* \"#utility.yul\":6729:6746   */\n      add\n        /* \"#utility.yul\":6720:6726   */\n      dup5\n        /* \"#utility.yul\":6676:6747   */\n      tag_365\n      jump\t// in\n    tag_424:\n        /* \"#utility.yul\":6630:6754   */\n      swap3\n      swap2\n      pop\n      pop\n      jump\t// out\n        /* \"#utility.yul\":6760:8365   */\n    tag_64:\n      0x00\n        /* \"#utility.yul\":7232:7235   */\n      0x0160\n        /* \"#utility.yul\":7221:7230   */\n      dup3\n        /* \"#utility.yul\":7217:7236   */\n      add\n        /* \"#utility.yul\":7209:7236   */\n      swap1\n      pop\n        /* \"#utility.yul\":7246:7317   */\n      tag_426\n        /* \"#utility.yul\":7314:7315   */\n      0x00\n        /* \"#utility.yul\":7303:7312   */\n      dup4\n        /* \"#utility.yul\":7299:7316   */\n      add\n        /* \"#utility.yul\":7290:7296   */\n      dup15\n        /* \"#utility.yul\":7246:7317   */\n      tag_365\n      jump\t// in\n    tag_426:\n        /* \"#utility.yul\":7327:7399   */\n      tag_427\n        /* \"#utility.yul\":7395:7397   */\n      0x20\n        /* \"#utility.yul\":7384:7393   */\n      dup4\n        /* \"#utility.yul\":7380:7398   */\n      add\n        /* \"#utility.yul\":7371:7377   */\n      dup14\n        /* \"#utility.yul\":7327:7399   */\n      tag_365\n      jump\t// in\n    tag_427:\n        /* \"#utility.yul\":7446:7455   */\n      dup2\n        /* \"#utility.yul\":7440:7444   */\n      dup2\n        /* \"#utility.yul\":7436:7456   */\n      sub\n        /* \"#utility.yul\":7431:7433   */\n      0x40\n        /* \"#utility.yul\":7420:7429   */\n      dup4\n        /* \"#utility.yul\":7416:7434   */\n      add\n        /* \"#utility.yul\":7409:7457   */\n      mstore\n        /* \"#utility.yul\":7474:7552   */\n      tag_428\n        /* \"#utility.yul\":7547:7551   */\n      dup2\n        /* \"#utility.yul\":7538:7544   */\n      dup13\n        /* \"#utility.yul\":7474:7552   */\n      tag_383\n      jump\t// in\n    tag_428:\n        /* \"#utility.yul\":7466:7552   */\n      swap1\n      pop\n        /* \"#utility.yul\":7599:7608   */\n      dup2\n        /* \"#utility.yul\":7593:7597   */\n      dup2\n        /* \"#utility.yul\":7589:7609   */\n      sub\n        /* \"#utility.yul\":7584:7586   */\n      0x60\n        /* \"#utility.yul\":7573:7582   */\n      dup4\n        /* \"#utility.yul\":7569:7587   */\n      add\n        /* \"#utility.yul\":7562:7610   */\n      mstore\n        /* \"#utility.yul\":7627:7705   */\n      tag_429\n        /* \"#utility.yul\":7700:7704   */\n      dup2\n        /* \"#utility.yul\":7691:7697   */\n      dup12\n        /* \"#utility.yul\":7627:7705   */\n      tag_383\n      jump\t// in\n    tag_429:\n        /* \"#utility.yul\":7619:7705   */\n      swap1\n      pop\n        /* \"#utility.yul\":7715:7788   */\n      tag_430\n        /* \"#utility.yul\":7783:7786   */\n      0x80\n        /* \"#utility.yul\":7772:7781   */\n      dup4\n        /* \"#utility.yul\":7768:7787   */\n      add\n        /* \"#utility.yul\":7759:7765   */\n      dup11\n        /* \"#utility.yul\":7715:7788   */\n      tag_365\n      jump\t// in\n    tag_430:\n        /* \"#utility.yul\":7798:7871   */\n      tag_431\n        /* \"#utility.yul\":7866:7869   */\n      0xa0\n        /* \"#utility.yul\":7855:7864   */\n      dup4\n        /* \"#utility.yul\":7851:7870   */\n      add\n        /* \"#utility.yul\":7842:7848   */\n      dup10\n        /* \"#utility.yul\":7798:7871   */\n      tag_365\n      jump\t// in\n    tag_431:\n        /* \"#utility.yul\":7881:7954   */\n      tag_432\n        /* \"#utility.yul\":7949:7952   */\n      0xc0\n        /* \"#utility.yul\":7938:7947   */\n      dup4\n        /* \"#utility.yul\":7934:7953   */\n      add\n        /* \"#utility.yul\":7925:7931   */\n      dup9\n        /* \"#utility.yul\":7881:7954   */\n      tag_365\n      jump\t// in\n    tag_432:\n        /* \"#utility.yul\":7964:8037   */\n      tag_433\n        /* \"#utility.yul\":8032:8035   */\n      0xe0\n        /* \"#utility.yul\":8021:8030   */\n      dup4\n        /* \"#utility.yul\":8017:8036   */\n      add\n        /* \"#utility.yul\":8008:8014   */\n      dup8\n        /* \"#utility.yul\":7964:8037   */\n      tag_365\n      jump\t// in\n    tag_433:\n        /* \"#utility.yul\":8047:8120   */\n      tag_434\n        /* \"#utility.yul\":8115:8118   */\n      0x0100\n        /* \"#utility.yul\":8104:8113   */\n      dup4\n        /* \"#utility.yul\":8100:8119   */\n      add\n        /* \"#utility.yul\":8091:8097   */\n      dup7\n        /* \"#utility.yul\":8047:8120   */\n      tag_365\n      jump\t// in\n    tag_434:\n        /* \"#utility.yul\":8168:8177   */\n      dup2\n        /* \"#utility.yul\":8162:8166   */\n      dup2\n        /* \"#utility.yul\":8158:8178   */\n      sub\n        /* \"#utility.yul\":8152:8155   */\n      0x0120\n        /* \"#utility.yul\":8141:8150   */\n      dup4\n        /* \"#utility.yul\":8137:8156   */\n      add\n        /* \"#utility.yul\":8130:8179   */\n      mstore\n        /* \"#utility.yul\":8196:8274   */\n      tag_435\n        /* \"#utility.yul\":8269:8273   */\n      dup2\n        /* \"#utility.yul\":8260:8266   */\n      dup6\n        /* \"#utility.yul\":8196:8274   */\n      tag_383\n      jump\t// in\n    tag_435:\n        /* \"#utility.yul\":8188:8274   */\n      swap1\n      pop\n        /* \"#utility.yul\":8284:8358   */\n      tag_436\n        /* \"#utility.yul\":8353:8356   */\n      0x0140\n        /* \"#utility.yul\":8342:8351   */\n      dup4\n        /* \"#utility.yul\":8338:8357   */\n      add\n        /* \"#utility.yul\":8328:8335   */\n      dup5\n        /* \"#utility.yul\":8284:8358   */\n      tag_365\n      jump\t// in\n    tag_436:\n        /* \"#utility.yul\":7199:8365   */\n      swap13\n      swap12\n      pop\n      pop\n      pop\n      pop\n      pop\n      pop\n      pop\n      pop\n      pop\n      pop\n      pop\n      pop\n      jump\t// out\n        /* \"#utility.yul\":8371:9146   */\n    tag_27:\n      0x00\n        /* \"#utility.yul\":8642:8645   */\n      0xc0\n        /* \"#utility.yul\":8631:8640   */\n      dup3\n        /* \"#utility.yul\":8627:8646   */\n      add\n        /* \"#utility.yul\":8619:8646   */\n      swap1\n      pop\n        /* \"#utility.yul\":8656:8727   */\n      tag_438\n        /* \"#utility.yul\":8724:8725   */\n      0x00\n        /* \"#utility.yul\":8713:8722   */\n      dup4\n        /* \"#utility.yul\":8709:8726   */\n      add\n        /* \"#utility.yul\":8700:8706   */\n      dup10\n        /* \"#utility.yul\":8656:8727   */\n      tag_365\n      jump\t// in\n    tag_438:\n        /* \"#utility.yul\":8737:8809   */\n      tag_439\n        /* \"#utility.yul\":8805:8807   */\n      0x20\n        /* \"#utility.yul\":8794:8803   */\n      dup4\n        /* \"#utility.yul\":8790:8808   */\n      add\n        /* \"#utility.yul\":8781:8787   */\n      dup9\n        /* \"#utility.yul\":8737:8809   */\n      tag_365\n      jump\t// in\n    tag_439:\n        /* \"#utility.yul\":8819:8891   */\n      tag_440\n        /* \"#utility.yul\":8887:8889   */\n      0x40\n        /* \"#utility.yul\":8876:8885   */\n      dup4\n        /* \"#utility.yul\":8872:8890   */\n      add\n        /* \"#utility.yul\":8863:8869   */\n      dup8\n        /* \"#utility.yul\":8819:8891   */\n      tag_415\n      jump\t// in\n    tag_440:\n        /* \"#utility.yul\":8901:8973   */\n      tag_441\n        /* \"#utility.yul\":8969:8971   */\n      0x60\n        /* \"#utility.yul\":8958:8967   */\n      dup4\n        /* \"#utility.yul\":8954:8972   */\n      add\n        /* \"#utility.yul\":8945:8951   */\n      dup7\n        /* \"#utility.yul\":8901:8973   */\n      tag_415\n      jump\t// in\n    tag_441:\n        /* \"#utility.yul\":8983:9056   */\n      tag_442\n        /* \"#utility.yul\":9051:9054   */\n      0x80\n        /* \"#utility.yul\":9040:9049   */\n      dup4\n        /* \"#utility.yul\":9036:9055   */\n      add\n        /* \"#utility.yul\":9027:9033   */\n      dup6\n        /* \"#utility.yul\":8983:9056   */\n      tag_365\n      jump\t// in\n    tag_442:\n        /* \"#utility.yul\":9066:9139   */\n      tag_443\n        /* \"#utility.yul\":9134:9137   */\n      0xa0\n        /* \"#utility.yul\":9123:9132   */\n      dup4\n        /* \"#utility.yul\":9119:9138   */\n      add\n        /* \"#utility.yul\":9110:9116   */\n      dup5\n        /* \"#utility.yul\":9066:9139   */\n      tag_344\n      jump\t// in\n    tag_443:\n        /* \"#utility.yul\":8609:9146   */\n      swap8\n      swap7\n      pop\n      pop\n      pop\n      pop\n      pop\n      pop\n      pop\n      jump\t// out\n        /* \"#utility.yul\":9152:10177   */\n    tag_58:\n      0x00\n        /* \"#utility.yul\":9495:9498   */\n      0xe0\n        /* \"#utility.yul\":9484:9493   */\n      dup3\n        /* \"#utility.yul\":9480:9499   */\n      add\n        /* \"#utility.yul\":9472:9499   */\n      swap1\n      pop\n        /* \"#utility.yul\":9509:9580   */\n      tag_445\n        /* \"#utility.yul\":9577:9578   */\n      0x00\n        /* \"#utility.yul\":9566:9575   */\n      dup4\n        /* \"#utility.yul\":9562:9579   */\n      add\n        /* \"#utility.yul\":9553:9559   */\n      dup11\n        /* \"#utility.yul\":9509:9580   */\n      tag_365\n      jump\t// in\n    tag_445:\n        /* \"#utility.yul\":9590:9660   */\n      tag_446\n        /* \"#utility.yul\":9656:9658   */\n      0x20\n        /* \"#utility.yul\":9645:9654   */\n      dup4\n        /* \"#utility.yul\":9641:9659   */\n      add\n        /* \"#utility.yul\":9632:9638   */\n      dup10\n        /* \"#utility.yul\":9590:9660   */\n      tag_411\n      jump\t// in\n    tag_446:\n        /* \"#utility.yul\":9670:9740   */\n      tag_447\n        /* \"#utility.yul\":9736:9738   */\n      0x40\n        /* \"#utility.yul\":9725:9734   */\n      dup4\n        /* \"#utility.yul\":9721:9739   */\n      add\n        /* \"#utility.yul\":9712:9718   */\n      dup9\n        /* \"#utility.yul\":9670:9740   */\n      tag_411\n      jump\t// in\n    tag_447:\n        /* \"#utility.yul\":9750:9820   */\n      tag_448\n        /* \"#utility.yul\":9816:9818   */\n      0x60\n        /* \"#utility.yul\":9805:9814   */\n      dup4\n        /* \"#utility.yul\":9801:9819   */\n      add\n        /* \"#utility.yul\":9792:9798   */\n      dup8\n        /* \"#utility.yul\":9750:9820   */\n      tag_411\n      jump\t// in\n    tag_448:\n        /* \"#utility.yul\":9830:9903   */\n      tag_449\n        /* \"#utility.yul\":9898:9901   */\n      0x80\n        /* \"#utility.yul\":9887:9896   */\n      dup4\n        /* \"#utility.yul\":9883:9902   */\n      add\n        /* \"#utility.yul\":9874:9880   */\n      dup7\n        /* \"#utility.yul\":9830:9903   */\n      tag_415\n      jump\t// in\n    tag_449:\n        /* \"#utility.yul\":9913:9986   */\n      tag_450\n        /* \"#utility.yul\":9981:9984   */\n      0xa0\n        /* \"#utility.yul\":9970:9979   */\n      dup4\n        /* \"#utility.yul\":9966:9985   */\n      add\n        /* \"#utility.yul\":9957:9963   */\n      dup6\n        /* \"#utility.yul\":9913:9986   */\n      tag_415\n      jump\t// in\n    tag_450:\n        /* \"#utility.yul\":10034:10043   */\n      dup2\n        /* \"#utility.yul\":10028:10032   */\n      dup2\n        /* \"#utility.yul\":10024:10044   */\n      sub\n        /* \"#utility.yul\":10018:10021   */\n      0xc0\n        /* \"#utility.yul\":10007:10016   */\n      dup4\n        /* \"#utility.yul\":10003:10022   */\n      add\n        /* \"#utility.yul\":9996:10045   */\n      mstore\n        /* \"#utility.yul\":10062:10170   */\n      tag_451\n        /* \"#utility.yul\":10165:10169   */\n      dup2\n        /* \"#utility.yul\":10156:10162   */\n      dup5\n        /* \"#utility.yul\":10062:10170   */\n      tag_348\n      jump\t// in\n    tag_451:\n        /* \"#utility.yul\":10054:10170   */\n      swap1\n      pop\n        /* \"#utility.yul\":9462:10177   */\n      swap9\n      swap8\n      pop\n      pop\n      pop\n      pop\n      pop\n      pop\n      pop\n      pop\n      jump\t// out\n        /* \"#utility.yul\":10183:10515   */\n    tag_82:\n      0x00\n        /* \"#utility.yul\":10342:10344   */\n      0x40\n        /* \"#utility.yul\":10331:10340   */\n      dup3\n        /* \"#utility.yul\":10327:10345   */\n      add\n        /* \"#utility.yul\":10319:10345   */\n      swap1\n      pop\n        /* \"#utility.yul\":10355:10426   */\n      tag_453\n        /* \"#utility.yul\":10423:10424   */\n      0x00\n        /* \"#utility.yul\":10412:10421   */\n      dup4\n        /* \"#utility.yul\":10408:10425   */\n      add\n        /* \"#utility.yul\":10399:10405   */\n      dup6\n        /* \"#utility.yul\":10355:10426   */\n      tag_365\n      jump\t// in\n    tag_453:\n        /* \"#utility.yul\":10436:10508   */\n      tag_454\n        /* \"#utility.yul\":10504:10506   */\n      0x20\n        /* \"#utility.yul\":10493:10502   */\n      dup4\n        /* \"#utility.yul\":10489:10507   */\n      add\n        /* \"#utility.yul\":10480:10486   */\n      dup5\n        /* \"#utility.yul\":10436:10508   */\n      tag_415\n      jump\t// in\n    tag_454:\n        /* \"#utility.yul\":10309:10515   */\n      swap4\n      swap3\n      pop\n      pop\n      pop\n      jump\t// out\n        /* \"#utility.yul\":10521:10940   */\n    tag_35:\n      0x00\n        /* \"#utility.yul\":10698:10700   */\n      0x40\n        /* \"#utility.yul\":10687:10696   */\n      dup3\n        /* \"#utility.yul\":10683:10701   */\n      add\n        /* \"#utility.yul\":10675:10701   */\n      swap1\n      pop\n        /* \"#utility.yul\":10747:10756   */\n      dup2\n        /* \"#utility.yul\":10741:10745   */\n      dup2\n        /* \"#utility.yul\":10737:10757   */\n      sub\n        /* \"#utility.yul\":10733:10734   */\n      0x00\n        /* \"#utility.yul\":10722:10731   */\n      dup4\n        /* \"#utility.yul\":10718:10735   */\n      add\n        /* \"#utility.yul\":10711:10758   */\n      mstore\n        /* \"#utility.yul\":10775:10851   */\n      tag_456\n        /* \"#utility.yul\":10846:10850   */\n      dup2\n        /* \"#utility.yul\":10837:10843   */\n      dup6\n        /* \"#utility.yul\":10775:10851   */\n      tag_373\n      jump\t// in\n    tag_456:\n        /* \"#utility.yul\":10767:10851   */\n      swap1\n      pop\n        /* \"#utility.yul\":10861:10933   */\n      tag_457\n        /* \"#utility.yul\":10929:10931   */\n      0x20\n        /* \"#utility.yul\":10918:10927   */\n      dup4\n        /* \"#utility.yul\":10914:10932   */\n      add\n        /* \"#utility.yul\":10905:10911   */\n      dup5\n        /* \"#utility.yul\":10861:10933   */\n      tag_415\n      jump\t// in\n    tag_457:\n        /* \"#utility.yul\":10665:10940   */\n      swap4\n      swap3\n      pop\n      pop\n      pop\n      jump\t// out\n        /* \"#utility.yul\":10946:11365   */\n    tag_243:\n      0x00\n        /* \"#utility.yul\":11150:11152   */\n      0x20\n        /* \"#utility.yul\":11139:11148   */\n      dup3\n        /* \"#utility.yul\":11135:11153   */\n      add\n        /* \"#utility.yul\":11127:11153   */\n      swap1\n      pop\n        /* \"#utility.yul\":11199:11208   */\n      dup2\n        /* \"#utility.yul\":11193:11197   */\n      dup2\n        /* \"#utility.yul\":11189:11209   */\n      sub\n        /* \"#utility.yul\":11185:11186   */\n      0x00\n        /* \"#utility.yul\":11174:11183   */\n      dup4\n        /* \"#utility.yul\":11170:11187   */\n      add\n        /* \"#utility.yul\":11163:11210   */\n      mstore\n        /* \"#utility.yul\":11227:11358   */\n      tag_459\n        /* \"#utility.yul\":11353:11357   */\n      dup2\n        /* \"#utility.yul\":11227:11358   */\n      tag_391\n      jump\t// in\n    tag_459:\n        /* \"#utility.yul\":11219:11358   */\n      swap1\n      pop\n        /* \"#utility.yul\":11117:11365   */\n      swap2\n      swap1\n      pop\n      jump\t// out\n        /* \"#utility.yul\":11371:11790   */\n    tag_246:\n      0x00\n        /* \"#utility.yul\":11575:11577   */\n      0x20\n        /* \"#utility.yul\":11564:11573   */\n      dup3\n        /* \"#utility.yul\":11560:11578   */\n      add\n        /* \"#utility.yul\":11552:11578   */\n      swap1\n      pop\n        /* \"#utility.yul\":11624:11633   */\n      dup2\n        /* \"#utility.yul\":11618:11622   */\n      dup2\n        /* \"#utility.yul\":11614:11634   */\n      sub\n        /* \"#utility.yul\":11610:11611   */\n      0x00\n        /* \"#utility.yul\":11599:11608   */\n      dup4\n        /* \"#utility.yul\":11595:11612   */\n      add\n        /* \"#utility.yul\":11588:11635   */\n      mstore\n        /* \"#utility.yul\":11652:11783   */\n      tag_461\n        /* \"#utility.yul\":11778:11782   */\n      dup2\n        /* \"#utility.yul\":11652:11783   */\n      tag_396\n      jump\t// in\n    tag_461:\n        /* \"#utility.yul\":11644:11783   */\n      swap1\n      pop\n        /* \"#utility.yul\":11542:11790   */\n      swap2\n      swap1\n      pop\n      jump\t// out\n        /* \"#utility.yul\":11796:12215   */\n    tag_79:\n      0x00\n        /* \"#utility.yul\":12000:12002   */\n      0x20\n        /* \"#utility.yul\":11989:11998   */\n      dup3\n        /* \"#utility.yul\":11985:12003   */\n      add\n        /* \"#utility.yul\":11977:12003   */\n      swap1\n      pop\n        /* \"#utility.yul\":12049:12058   */\n      dup2\n        /* \"#utility.yul\":12043:12047   */\n      dup2\n        /* \"#utility.yul\":12039:12059   */\n      sub\n        /* \"#utility.yul\":12035:12036   */\n      0x00\n        /* \"#utility.yul\":12024:12033   */\n      dup4\n        /* \"#utility.yul\":12020:12037   */\n      add\n        /* \"#utility.yul\":12013:12060   */\n      mstore\n        /* \"#utility.yul\":12077:12208   */\n      tag_463\n        /* \"#utility.yul\":12203:12207   */\n      dup2\n        /* \"#utility.yul\":12077:12208   */\n      tag_401\n      jump\t// in\n    tag_463:\n        /* \"#utility.yul\":12069:12208   */\n      swap1\n      pop\n        /* \"#utility.yul\":11967:12215   */\n      swap2\n      swap1\n      pop\n      jump\t// out\n        /* \"#utility.yul\":12221:12640   */\n    tag_75:\n      0x00\n        /* \"#utility.yul\":12425:12427   */\n      0x20\n        /* \"#utility.yul\":12414:12423   */\n      dup3\n        /* \"#utility.yul\":12410:12428   */\n      add\n        /* \"#utility.yul\":12402:12428   */\n      swap1\n      pop\n        /* \"#utility.yul\":12474:12483   */\n      dup2\n        /* \"#utility.yul\":12468:12472   */\n      dup2\n        /* \"#utility.yul\":12464:12484   */\n      sub\n        /* \"#utility.yul\":12460:12461   */\n      0x00\n        /* \"#utility.yul\":12449:12458   */\n      dup4\n        /* \"#utility.yul\":12445:12462   */\n      add\n        /* \"#utility.yul\":12438:12485   */\n      mstore\n        /* \"#utility.yul\":12502:12633   */\n      tag_465\n        /* \"#utility.yul\":12628:12632   */\n      dup2\n        /* \"#utility.yul\":12502:12633   */\n      tag_406\n      jump\t// in\n    tag_465:\n        /* \"#utility.yul\":12494:12633   */\n      swap1\n      pop\n        /* \"#utility.yul\":12392:12640   */\n      swap2\n      swap1\n      pop\n      jump\t// out\n        /* \"#utility.yul\":12646:12868   */\n    tag_21:\n      0x00\n        /* \"#utility.yul\":12777:12779   */\n      0x20\n        /* \"#utility.yul\":12766:12775   */\n      dup3\n        /* \"#utility.yul\":12762:12780   */\n      add\n        /* \"#utility.yul\":12754:12780   */\n      swap1\n      pop\n        /* \"#utility.yul\":12790:12861   */\n      tag_467\n        /* \"#utility.yul\":12858:12859   */\n      0x00\n        /* \"#utility.yul\":12847:12856   */\n      dup4\n        /* \"#utility.yul\":12843:12860   */\n      add\n        /* \"#utility.yul\":12834:12840   */\n      dup5\n        /* \"#utility.yul\":12790:12861   */\n      tag_415\n      jump\t// in\n    tag_467:\n        /* \"#utility.yul\":12744:12868   */\n      swap3\n      swap2\n      pop\n      pop\n      jump\t// out\n        /* \"#utility.yul\":12874:13316   */\n    tag_255:\n      0x00\n        /* \"#utility.yul\":13061:13063   */\n      0x60\n        /* \"#utility.yul\":13050:13059   */\n      dup3\n        /* \"#utility.yul\":13046:13064   */\n      add\n        /* \"#utility.yul\":13038:13064   */\n      swap1\n      pop\n        /* \"#utility.yul\":13074:13145   */\n      tag_469\n        /* \"#utility.yul\":13142:13143   */\n      0x00\n        /* \"#utility.yul\":13131:13140   */\n      dup4\n        /* \"#utility.yul\":13127:13144   */\n      add\n        /* \"#utility.yul\":13118:13124   */\n      dup7\n        /* \"#utility.yul\":13074:13145   */\n      tag_415\n      jump\t// in\n    tag_469:\n        /* \"#utility.yul\":13155:13227   */\n      tag_470\n        /* \"#utility.yul\":13223:13225   */\n      0x20\n        /* \"#utility.yul\":13212:13221   */\n      dup4\n        /* \"#utility.yul\":13208:13226   */\n      add\n        /* \"#utility.yul\":13199:13205   */\n      dup6\n        /* \"#utility.yul\":13155:13227   */\n      tag_365\n      jump\t// in\n    tag_470:\n        /* \"#utility.yul\":13237:13309   */\n      tag_471\n        /* \"#utility.yul\":13305:13307   */\n      0x40\n        /* \"#utility.yul\":13294:13303   */\n      dup4\n        /* \"#utility.yul\":13290:13308   */\n      add\n        /* \"#utility.yul\":13281:13287   */\n      dup5\n        /* \"#utility.yul\":13237:13309   */\n      tag_365\n      jump\t// in\n    tag_471:\n        /* \"#utility.yul\":13028:13316   */\n      swap5\n      swap4\n      pop\n      pop\n      pop\n      pop\n      jump\t// out\n        /* \"#utility.yul\":13322:13454   */\n    tag_355:\n      0x00\n        /* \"#utility.yul\":13412:13415   */\n      dup2\n        /* \"#utility.yul\":13404:13415   */\n      swap1\n      pop\n        /* \"#utility.yul\":13442:13446   */\n      0x20\n        /* \"#utility.yul\":13437:13440   */\n      dup3\n        /* \"#utility.yul\":13433:13447   */\n      add\n        /* \"#utility.yul\":13425:13447   */\n      swap1\n      pop\n        /* \"#utility.yul\":13394:13454   */\n      swap2\n      swap1\n      pop\n      jump\t// out\n        /* \"#utility.yul\":13460:13574   */\n    tag_351:\n      0x00\n        /* \"#utility.yul\":13561:13566   */\n      dup2\n        /* \"#utility.yul\":13555:13567   */\n      mload\n        /* \"#utility.yul\":13545:13567   */\n      swap1\n      pop\n        /* \"#utility.yul\":13534:13574   */\n      swap2\n      swap1\n      pop\n      jump\t// out\n        /* \"#utility.yul\":13580:13678   */\n    tag_376:\n      0x00\n        /* \"#utility.yul\":13665:13670   */\n      dup2\n        /* \"#utility.yul\":13659:13671   */\n      mload\n        /* \"#utility.yul\":13649:13671   */\n      swap1\n      pop\n        /* \"#utility.yul\":13638:13678   */\n      swap2\n      swap1\n      pop\n      jump\t// out\n        /* \"#utility.yul\":13684:13783   */\n    tag_386:\n      0x00\n        /* \"#utility.yul\":13770:13775   */\n      dup2\n        /* \"#utility.yul\":13764:13776   */\n      mload\n        /* \"#utility.yul\":13754:13776   */\n      swap1\n      pop\n        /* \"#utility.yul\":13743:13783   */\n      swap2\n      swap1\n      pop\n      jump\t// out\n        /* \"#utility.yul\":13789:13902   */\n    tag_361:\n      0x00\n        /* \"#utility.yul\":13891:13895   */\n      0x20\n        /* \"#utility.yul\":13886:13889   */\n      dup3\n        /* \"#utility.yul\":13882:13896   */\n      add\n        /* \"#utility.yul\":13874:13896   */\n      swap1\n      pop\n        /* \"#utility.yul\":13864:13902   */\n      swap2\n      swap1\n      pop\n      jump\t// out\n        /* \"#utility.yul\":13908:14092   */\n    tag_353:\n      0x00\n        /* \"#utility.yul\":14041:14047   */\n      dup3\n        /* \"#utility.yul\":14036:14039   */\n      dup3\n        /* \"#utility.yul\":14029:14048   */\n      mstore\n        /* \"#utility.yul\":14081:14085   */\n      0x20\n        /* \"#utility.yul\":14076:14079   */\n      dup3\n        /* \"#utility.yul\":14072:14086   */\n      add\n        /* \"#utility.yul\":14057:14086   */\n      swap1\n      pop\n        /* \"#utility.yul\":14019:14092   */\n      swap3\n      swap2\n      pop\n      pop\n      jump\t// out\n        /* \"#utility.yul\":14098:14266   */\n    tag_378:\n      0x00\n        /* \"#utility.yul\":14215:14221   */\n      dup3\n        /* \"#utility.yul\":14210:14213   */\n      dup3\n        /* \"#utility.yul\":14203:14222   */\n      mstore\n        /* \"#utility.yul\":14255:14259   */\n      0x20\n        /* \"#utility.yul\":14250:14253   */\n      dup3\n        /* \"#utility.yul\":14246:14260   */\n      add\n        /* \"#utility.yul\":14231:14260   */\n      swap1\n      pop\n        /* \"#utility.yul\":14193:14266   */\n      swap3\n      swap2\n      pop\n      pop\n      jump\t// out\n        /* \"#utility.yul\":14272:14441   */\n    tag_388:\n      0x00\n        /* \"#utility.yul\":14390:14396   */\n      dup3\n        /* \"#utility.yul\":14385:14388   */\n      dup3\n        /* \"#utility.yul\":14378:14397   */\n      mstore\n        /* \"#utility.yul\":14430:14434   */\n      0x20\n        /* \"#utility.yul\":14425:14428   */\n      dup3\n        /* \"#utility.yul\":14421:14435   */\n      add\n        /* \"#utility.yul\":14406:14435   */\n      swap1\n      pop\n        /* \"#utility.yul\":14368:14441   */\n      swap3\n      swap2\n      pop\n      pop\n      jump\t// out\n        /* \"#utility.yul\":14447:14689   */\n    tag_111:\n      0x00\n        /* \"#utility.yul\":14505:14524   */\n      tag_481\n        /* \"#utility.yul\":14522:14523   */\n      dup3\n        /* \"#utility.yul\":14505:14524   */\n      tag_414\n      jump\t// in\n    tag_481:\n        /* \"#utility.yul\":14500:14524   */\n      swap2\n      pop\n        /* \"#utility.yul\":14538:14557   */\n      tag_482\n        /* \"#utility.yul\":14555:14556   */\n      dup4\n        /* \"#utility.yul\":14538:14557   */\n      tag_414\n      jump\t// in\n    tag_482:\n        /* \"#utility.yul\":14533:14557   */\n      swap3\n      pop\n        /* \"#utility.yul\":14631:14632   */\n      dup3\n        /* \"#utility.yul\":14623:14629   */\n      0xffff\n        /* \"#utility.yul\":14619:14633   */\n      sub\n        /* \"#utility.yul\":14616:14617   */\n      dup3\n        /* \"#utility.yul\":14613:14634   */\n      gt\n        /* \"#utility.yul\":14610:14612   */\n      iszero\n      tag_483\n      jumpi\n        /* \"#utility.yul\":14637:14655   */\n      tag_484\n      tag_485\n      jump\t// in\n    tag_484:\n        /* \"#utility.yul\":14610:14612   */\n    tag_483:\n        /* \"#utility.yul\":14681:14682   */\n      dup3\n        /* \"#utility.yul\":14678:14679   */\n      dup3\n        /* \"#utility.yul\":14674:14683   */\n      add\n        /* \"#utility.yul\":14667:14683   */\n      swap1\n      pop\n        /* \"#utility.yul\":14490:14689   */\n      swap3\n      swap2\n      pop\n      pop\n      jump\t// out\n        /* \"#utility.yul\":14695:14880   */\n    tag_286:\n      0x00\n        /* \"#utility.yul\":14752:14772   */\n      tag_487\n        /* \"#utility.yul\":14770:14771   */\n      dup3\n        /* \"#utility.yul\":14752:14772   */\n      tag_418\n      jump\t// in\n    tag_487:\n        /* \"#utility.yul\":14747:14772   */\n      swap2\n      pop\n        /* \"#utility.yul\":14786:14806   */\n      tag_488\n        /* \"#utility.yul\":14804:14805   */\n      dup4\n        /* \"#utility.yul\":14786:14806   */\n      tag_418\n      jump\t// in\n    tag_488:\n        /* \"#utility.yul\":14781:14806   */\n      swap3\n      pop\n        /* \"#utility.yul\":14825:14826   */\n      dup3\n        /* \"#utility.yul\":14815:14817   */\n      tag_489\n      jumpi\n        /* \"#utility.yul\":14830:14848   */\n      tag_490\n      tag_491\n      jump\t// in\n    tag_490:\n        /* \"#utility.yul\":14815:14817   */\n    tag_489:\n        /* \"#utility.yul\":14872:14873   */\n      dup3\n        /* \"#utility.yul\":14869:14870   */\n      dup3\n        /* \"#utility.yul\":14865:14874   */\n      div\n        /* \"#utility.yul\":14860:14874   */\n      swap1\n      pop\n        /* \"#utility.yul\":14737:14880   */\n      swap3\n      swap2\n      pop\n      pop\n      jump\t// out\n        /* \"#utility.yul\":14886:15171   */\n    tag_70:\n      0x00\n        /* \"#utility.yul\":14948:14967   */\n      tag_493\n        /* \"#utility.yul\":14965:14966   */\n      dup3\n        /* \"#utility.yul\":14948:14967   */\n      tag_414\n      jump\t// in\n    tag_493:\n        /* \"#utility.yul\":14943:14967   */\n      swap2\n      pop\n        /* \"#utility.yul\":14981:15000   */\n      tag_494\n        /* \"#utility.yul\":14998:14999   */\n      dup4\n        /* \"#utility.yul\":14981:15000   */\n      tag_414\n      jump\t// in\n    tag_494:\n        /* \"#utility.yul\":14976:15000   */\n      swap3\n      pop\n        /* \"#utility.yul\":15108:15109   */\n      dup2\n        /* \"#utility.yul\":15100:15106   */\n      0xffff\n        /* \"#utility.yul\":15096:15110   */\n      div\n        /* \"#utility.yul\":15093:15094   */\n      dup4\n        /* \"#utility.yul\":15090:15111   */\n      gt\n        /* \"#utility.yul\":15085:15086   */\n      dup3\n        /* \"#utility.yul\":15078:15087   */\n      iszero\n        /* \"#utility.yul\":15071:15088   */\n      iszero\n        /* \"#utility.yul\":15067:15112   */\n      and\n        /* \"#utility.yul\":15064:15066   */\n      iszero\n      tag_495\n      jumpi\n        /* \"#utility.yul\":15115:15133   */\n      tag_496\n      tag_485\n      jump\t// in\n    tag_496:\n        /* \"#utility.yul\":15064:15066   */\n    tag_495:\n        /* \"#utility.yul\":15163:15164   */\n      dup3\n        /* \"#utility.yul\":15160:15161   */\n      dup3\n        /* \"#utility.yul\":15156:15165   */\n      mul\n        /* \"#utility.yul\":15145:15165   */\n      swap1\n      pop\n        /* \"#utility.yul\":14933:15171   */\n      swap3\n      swap2\n      pop\n      pop\n      jump\t// out\n        /* \"#utility.yul\":15177:15525   */\n    tag_293:\n      0x00\n        /* \"#utility.yul\":15240:15260   */\n      tag_498\n        /* \"#utility.yul\":15258:15259   */\n      dup3\n        /* \"#utility.yul\":15240:15260   */\n      tag_418\n      jump\t// in\n    tag_498:\n        /* \"#utility.yul\":15235:15260   */\n      swap2\n      pop\n        /* \"#utility.yul\":15274:15294   */\n      tag_499\n        /* \"#utility.yul\":15292:15293   */\n      dup4\n        /* \"#utility.yul\":15274:15294   */\n      tag_418\n      jump\t// in\n    tag_499:\n        /* \"#utility.yul\":15269:15294   */\n      swap3\n      pop\n        /* \"#utility.yul\":15462:15463   */\n      dup2\n        /* \"#utility.yul\":15394:15460   */\n      0xffffffffffffffffffffffffffffffffffffffffffffffffffffffffffffffff\n        /* \"#utility.yul\":15390:15464   */\n      div\n        /* \"#utility.yul\":15387:15388   */\n      dup4\n        /* \"#utility.yul\":15384:15465   */\n      gt\n        /* \"#utility.yul\":15379:15380   */\n      dup3\n        /* \"#utility.yul\":15372:15381   */\n      iszero\n        /* \"#utility.yul\":15365:15382   */\n      iszero\n        /* \"#utility.yul\":15361:15466   */\n      and\n        /* \"#utility.yul\":15358:15360   */\n      iszero\n      tag_500\n      jumpi\n        /* \"#utility.yul\":15469:15487   */\n      tag_501\n      tag_485\n      jump\t// in\n    tag_501:\n        /* \"#utility.yul\":15358:15360   */\n    tag_500:\n        /* \"#utility.yul\":15517:15518   */\n      dup3\n        /* \"#utility.yul\":15514:15515   */\n      dup3\n        /* \"#utility.yul\":15510:15519   */\n      mul\n        /* \"#utility.yul\":15499:15519   */\n      swap1\n      pop\n        /* \"#utility.yul\":15225:15525   */\n      swap3\n      swap2\n      pop\n      pop\n      jump\t// out\n        /* \"#utility.yul\":15531:15722   */\n    tag_126:\n      0x00\n        /* \"#utility.yul\":15591:15611   */\n      tag_503\n        /* \"#utility.yul\":15609:15610   */\n      dup3\n        /* \"#utility.yul\":15591:15611   */\n      tag_418\n      jump\t// in\n    tag_503:\n        /* \"#utility.yul\":15586:15611   */\n      swap2\n      pop\n        /* \"#utility.yul\":15625:15645   */\n      tag_504\n        /* \"#utility.yul\":15643:15644   */\n      dup4\n        /* \"#utility.yul\":15625:15645   */\n      tag_418\n      jump\t// in\n    tag_504:\n        /* \"#utility.yul\":15620:15645   */\n      swap3\n      pop\n        /* \"#utility.yul\":15664:15665   */\n      dup3\n        /* \"#utility.yul\":15661:15662   */\n      dup3\n        /* \"#utility.yul\":15658:15666   */\n      lt\n        /* \"#utility.yul\":15655:15657   */\n      iszero\n      tag_505\n      jumpi\n        /* \"#utility.yul\":15669:15687   */\n      tag_506\n      tag_485\n      jump\t// in\n    tag_506:\n        /* \"#utility.yul\":15655:15657   */\n    tag_505:\n        /* \"#utility.yul\":15714:15715   */\n      dup3\n        /* \"#utility.yul\":15711:15712   */\n      dup3\n        /* \"#utility.yul\":15707:15716   */\n      sub\n        /* \"#utility.yul\":15699:15716   */\n      swap1\n      pop\n        /* \"#utility.yul\":15576:15722   */\n      swap3\n      swap2\n      pop\n      pop\n      jump\t// out\n        /* \"#utility.yul\":15728:15824   */\n    tag_347:\n      0x00\n        /* \"#utility.yul\":15794:15818   */\n      tag_508\n        /* \"#utility.yul\":15812:15817   */\n      dup3\n        /* \"#utility.yul\":15794:15818   */\n      tag_509\n      jump\t// in\n    tag_508:\n        /* \"#utility.yul\":15783:15818   */\n      swap1\n      pop\n        /* \"#utility.yul\":15773:15824   */\n      swap2\n      swap1\n      pop\n      jump\t// out\n        /* \"#utility.yul\":15830:15907   */\n    tag_364:\n      0x00\n        /* \"#utility.yul\":15896:15901   */\n      dup2\n        /* \"#utility.yul\":15885:15901   */\n      swap1\n      pop\n        /* \"#utility.yul\":15875:15907   */\n      swap2\n      swap1\n      pop\n      jump\t// out\n        /* \"#utility.yul\":15913:16002   */\n    tag_414:\n      0x00\n        /* \"#utility.yul\":15989:15995   */\n      0xffff\n        /* \"#utility.yul\":15982:15987   */\n      dup3\n        /* \"#utility.yul\":15978:15996   */\n      and\n        /* \"#utility.yul\":15967:15996   */\n      swap1\n      pop\n        /* \"#utility.yul\":15957:16002   */\n      swap2\n      swap1\n      pop\n      jump\t// out\n        /* \"#utility.yul\":16008:16134   */\n    tag_509:\n      0x00\n        /* \"#utility.yul\":16085:16127   */\n      0xffffffffffffffffffffffffffffffffffffffff\n        /* \"#utility.yul\":16078:16083   */\n      dup3\n        /* \"#utility.yul\":16074:16128   */\n      and\n        /* \"#utility.yul\":16063:16128   */\n      swap1\n      pop\n        /* \"#utility.yul\":16053:16134   */\n      swap2\n      swap1\n      pop\n      jump\t// out\n        /* \"#utility.yul\":16140:16217   */\n    tag_418:\n      0x00\n        /* \"#utility.yul\":16206:16211   */\n      dup2\n        /* \"#utility.yul\":16195:16211   */\n      swap1\n      pop\n        /* \"#utility.yul\":16185:16217   */\n      swap2\n      swap1\n      pop\n      jump\t// out\n        /* \"#utility.yul\":16223:16530   */\n    tag_380:\n        /* \"#utility.yul\":16291:16292   */\n      0x00\n        /* \"#utility.yul\":16301:16414   */\n    tag_515:\n        /* \"#utility.yul\":16315:16321   */\n      dup4\n        /* \"#utility.yul\":16312:16313   */\n      dup2\n        /* \"#utility.yul\":16309:16322   */\n      lt\n        /* \"#utility.yul\":16301:16414   */\n      iszero\n      tag_517\n      jumpi\n        /* \"#utility.yul\":16400:16401   */\n      dup1\n        /* \"#utility.yul\":16395:16398   */\n      dup3\n        /* \"#utility.yul\":16391:16402   */\n      add\n        /* \"#utility.yul\":16385:16403   */\n      mload\n        /* \"#utility.yul\":16381:16382   */\n      dup2\n        /* \"#utility.yul\":16376:16379   */\n      dup5\n        /* \"#utility.yul\":16372:16383   */\n      add\n        /* \"#utility.yul\":16365:16404   */\n      mstore\n        /* \"#utility.yul\":16337:16339   */\n      0x20\n        /* \"#utility.yul\":16334:16335   */\n      dup2\n        /* \"#utility.yul\":16330:16340   */\n      add\n        /* \"#utility.yul\":16325:16340   */\n      swap1\n      pop\n        /* \"#utility.yul\":16301:16414   */\n      jump(tag_515)\n    tag_517:\n        /* \"#utility.yul\":16432:16438   */\n      dup4\n        /* \"#utility.yul\":16429:16430   */\n      dup2\n        /* \"#utility.yul\":16426:16439   */\n      gt\n        /* \"#utility.yul\":16423:16425   */\n      iszero\n      tag_518\n      jumpi\n        /* \"#utility.yul\":16512:16513   */\n      0x00\n        /* \"#utility.yul\":16503:16509   */\n      dup5\n        /* \"#utility.yul\":16498:16501   */\n      dup5\n        /* \"#utility.yul\":16494:16510   */\n      add\n        /* \"#utility.yul\":16487:16514   */\n      mstore\n        /* \"#utility.yul\":16423:16425   */\n    tag_518:\n        /* \"#utility.yul\":16272:16530   */\n      pop\n      pop\n      pop\n      pop\n      jump\t// out\n        /* \"#utility.yul\":16536:16705   */\n    tag_261:\n      0x00\n        /* \"#utility.yul\":16597:16620   */\n      tag_520\n        /* \"#utility.yul\":16614:16619   */\n      dup3\n        /* \"#utility.yul\":16597:16620   */\n      tag_414\n      jump\t// in\n    tag_520:\n        /* \"#utility.yul\":16588:16620   */\n      swap2\n      pop\n        /* \"#utility.yul\":16642:16646   */\n      0x00\n        /* \"#utility.yul\":16635:16640   */\n      dup3\n        /* \"#utility.yul\":16632:16647   */\n      eq\n        /* \"#utility.yul\":16629:16631   */\n      iszero\n      tag_521\n      jumpi\n        /* \"#utility.yul\":16650:16668   */\n      tag_522\n      tag_485\n      jump\t// in\n    tag_522:\n        /* \"#utility.yul\":16629:16631   */\n    tag_521:\n        /* \"#utility.yul\":16697:16698   */\n      0x01\n        /* \"#utility.yul\":16690:16695   */\n      dup3\n        /* \"#utility.yul\":16686:16699   */\n      sub\n        /* \"#utility.yul\":16679:16699   */\n      swap1\n      pop\n        /* \"#utility.yul\":16578:16705   */\n      swap2\n      swap1\n      pop\n      jump\t// out\n        /* \"#utility.yul\":16711:17031   */\n    tag_88:\n      0x00\n        /* \"#utility.yul\":16792:16793   */\n      0x02\n        /* \"#utility.yul\":16786:16790   */\n      dup3\n        /* \"#utility.yul\":16782:16794   */\n      div\n        /* \"#utility.yul\":16772:16794   */\n      swap1\n      pop\n        /* \"#utility.yul\":16839:16840   */\n      0x01\n        /* \"#utility.yul\":16833:16837   */\n      dup3\n        /* \"#utility.yul\":16829:16841   */\n      and\n        /* \"#utility.yul\":16860:16878   */\n      dup1\n        /* \"#utility.yul\":16850:16852   */\n      tag_524\n      jumpi\n        /* \"#utility.yul\":16916:16920   */\n      0x7f\n        /* \"#utility.yul\":16908:16914   */\n      dup3\n        /* \"#utility.yul\":16904:16921   */\n      and\n        /* \"#utility.yul\":16894:16921   */\n      swap2\n      pop\n        /* \"#utility.yul\":16850:16852   */\n    tag_524:\n        /* \"#utility.yul\":16978:16980   */\n      0x20\n        /* \"#utility.yul\":16970:16976   */\n      dup3\n        /* \"#utility.yul\":16967:16981   */\n      lt\n        /* \"#utility.yul\":16947:16965   */\n      dup2\n        /* \"#utility.yul\":16944:16982   */\n      eq\n        /* \"#utility.yul\":16941:16943   */\n      iszero\n      tag_525\n      jumpi\n        /* \"#utility.yul\":16997:17015   */\n      tag_526\n      tag_527\n      jump\t// in\n    tag_526:\n        /* \"#utility.yul\":16941:16943   */\n    tag_525:\n        /* \"#utility.yul\":16762:17031   */\n      pop\n      swap2\n      swap1\n      pop\n      jump\t// out\n        /* \"#utility.yul\":17037:17208   */\n    tag_249:\n      0x00\n        /* \"#utility.yul\":17098:17121   */\n      tag_529\n        /* \"#utility.yul\":17115:17120   */\n      dup3\n        /* \"#utility.yul\":17098:17121   */\n      tag_414\n      jump\t// in\n    tag_529:\n        /* \"#utility.yul\":17089:17121   */\n      swap2\n      pop\n        /* \"#utility.yul\":17143:17149   */\n      0xffff\n        /* \"#utility.yul\":17136:17141   */\n      dup3\n        /* \"#utility.yul\":17133:17150   */\n      eq\n        /* \"#utility.yul\":17130:17132   */\n      iszero\n      tag_530\n      jumpi\n        /* \"#utility.yul\":17153:17171   */\n      tag_531\n      tag_485\n      jump\t// in\n    tag_531:\n        /* \"#utility.yul\":17130:17132   */\n    tag_530:\n        /* \"#utility.yul\":17200:17201   */\n      0x01\n        /* \"#utility.yul\":17193:17198   */\n      dup3\n        /* \"#utility.yul\":17189:17202   */\n      add\n        /* \"#utility.yul\":17182:17202   */\n      swap1\n      pop\n        /* \"#utility.yul\":17079:17208   */\n      swap2\n      swap1\n      pop\n      jump\t// out\n        /* \"#utility.yul\":17214:17447   */\n    tag_205:\n      0x00\n        /* \"#utility.yul\":17276:17300   */\n      tag_533\n        /* \"#utility.yul\":17294:17299   */\n      dup3\n        /* \"#utility.yul\":17276:17300   */\n      tag_418\n      jump\t// in\n    tag_533:\n        /* \"#utility.yul\":17267:17300   */\n      swap2\n      pop\n        /* \"#utility.yul\":17322:17388   */\n      0xffffffffffffffffffffffffffffffffffffffffffffffffffffffffffffffff\n        /* \"#utility.yul\":17315:17320   */\n      dup3\n        /* \"#utility.yul\":17312:17389   */\n      eq\n        /* \"#utility.yul\":17309:17311   */\n      iszero\n      tag_534\n      jumpi\n        /* \"#utility.yul\":17392:17410   */\n      tag_535\n      tag_485\n      jump\t// in\n    tag_535:\n        /* \"#utility.yul\":17309:17311   */\n    tag_534:\n        /* \"#utility.yul\":17439:17440   */\n      0x01\n        /* \"#utility.yul\":17432:17437   */\n      dup3\n        /* \"#utility.yul\":17428:17441   */\n      add\n        /* \"#utility.yul\":17421:17441   */\n      swap1\n      pop\n        /* \"#utility.yul\":17257:17447   */\n      swap2\n      swap1\n      pop\n      jump\t// out\n        /* \"#utility.yul\":17453:17532   */\n    tag_372:\n      0x00\n        /* \"#utility.yul\":17521:17526   */\n      dup2\n        /* \"#utility.yul\":17510:17526   */\n      swap1\n      pop\n        /* \"#utility.yul\":17500:17532   */\n      swap2\n      swap1\n      pop\n      jump\t// out\n        /* \"#utility.yul\":17538:17714   */\n    tag_288:\n      0x00\n        /* \"#utility.yul\":17587:17607   */\n      tag_538\n        /* \"#utility.yul\":17605:17606   */\n      dup3\n        /* \"#utility.yul\":17587:17607   */\n      tag_418\n      jump\t// in\n    tag_538:\n        /* \"#utility.yul\":17582:17607   */\n      swap2\n      pop\n        /* \"#utility.yul\":17621:17641   */\n      tag_539\n        /* \"#utility.yul\":17639:17640   */\n      dup4\n        /* \"#utility.yul\":17621:17641   */\n      tag_418\n      jump\t// in\n    tag_539:\n        /* \"#utility.yul\":17616:17641   */\n      swap3\n      pop\n        /* \"#utility.yul\":17660:17661   */\n      dup3\n        /* \"#utility.yul\":17650:17652   */\n      tag_540\n      jumpi\n        /* \"#utility.yul\":17665:17683   */\n      tag_541\n      tag_491\n      jump\t// in\n    tag_541:\n        /* \"#utility.yul\":17650:17652   */\n    tag_540:\n        /* \"#utility.yul\":17706:17707   */\n      dup3\n        /* \"#utility.yul\":17703:17704   */\n      dup3\n        /* \"#utility.yul\":17699:17708   */\n      mod\n        /* \"#utility.yul\":17694:17708   */\n      swap1\n      pop\n        /* \"#utility.yul\":17572:17714   */\n      swap3\n      swap2\n      pop\n      pop\n      jump\t// out\n        /* \"#utility.yul\":17720:17900   */\n    tag_485:\n        /* \"#utility.yul\":17768:17845   */\n      0x4e487b7100000000000000000000000000000000000000000000000000000000\n        /* \"#utility.yul\":17765:17766   */\n      0x00\n        /* \"#utility.yul\":17758:17846   */\n      mstore\n        /* \"#utility.yul\":17865:17869   */\n      0x11\n        /* \"#utility.yul\":17862:17863   */\n      0x04\n        /* \"#utility.yul\":17855:17870   */\n      mstore\n        /* \"#utility.yul\":17889:17893   */\n      0x24\n        /* \"#utility.yul\":17886:17887   */\n      0x00\n        /* \"#utility.yul\":17879:17894   */\n      revert\n        /* \"#utility.yul\":17906:18086   */\n    tag_491:\n        /* \"#utility.yul\":17954:18031   */\n      0x4e487b7100000000000000000000000000000000000000000000000000000000\n        /* \"#utility.yul\":17951:17952   */\n      0x00\n        /* \"#utility.yul\":17944:18032   */\n      mstore\n        /* \"#utility.yul\":18051:18055   */\n      0x12\n        /* \"#utility.yul\":18048:18049   */\n      0x04\n        /* \"#utility.yul\":18041:18056   */\n      mstore\n        /* \"#utility.yul\":18075:18079   */\n      0x24\n        /* \"#utility.yul\":18072:18073   */\n      0x00\n        /* \"#utility.yul\":18065:18080   */\n      revert\n        /* \"#utility.yul\":18092:18272   */\n    tag_527:\n        /* \"#utility.yul\":18140:18217   */\n      0x4e487b7100000000000000000000000000000000000000000000000000000000\n        /* \"#utility.yul\":18137:18138   */\n      0x00\n        /* \"#utility.yul\":18130:18218   */\n      mstore\n        /* \"#utility.yul\":18237:18241   */\n      0x22\n        /* \"#utility.yul\":18234:18235   */\n      0x04\n        /* \"#utility.yul\":18227:18242   */\n      mstore\n        /* \"#utility.yul\":18261:18265   */\n      0x24\n        /* \"#utility.yul\":18258:18259   */\n      0x00\n        /* \"#utility.yul\":18251:18266   */\n      revert\n        /* \"#utility.yul\":18278:18380   */\n    tag_382:\n      0x00\n        /* \"#utility.yul\":18370:18372   */\n      0x1f\n        /* \"#utility.yul\":18366:18373   */\n      not\n        /* \"#utility.yul\":18361:18363   */\n      0x1f\n        /* \"#utility.yul\":18354:18359   */\n      dup4\n        /* \"#utility.yul\":18350:18364   */\n      add\n        /* \"#utility.yul\":18346:18374   */\n      and\n        /* \"#utility.yul\":18336:18374   */\n      swap1\n      pop\n        /* \"#utility.yul\":18326:18380   */\n      swap2\n      swap1\n      pop\n      jump\t// out\n        /* \"#utility.yul\":18386:18616   */\n    tag_395:\n        /* \"#utility.yul\":18526:18560   */\n      0x546865206964206f662074686520696e7375726564206973206e6f7420696e20\n        /* \"#utility.yul\":18522:18523   */\n      0x00\n        /* \"#utility.yul\":18514:18520   */\n      dup3\n        /* \"#utility.yul\":18510:18524   */\n      add\n        /* \"#utility.yul\":18503:18561   */\n      mstore\n        /* \"#utility.yul\":18595:18608   */\n      0x74686520706f6c6963792e000000000000000000000000000000000000000000\n        /* \"#utility.yul\":18590:18592   */\n      0x20\n        /* \"#utility.yul\":18582:18588   */\n      dup3\n        /* \"#utility.yul\":18578:18593   */\n      add\n        /* \"#utility.yul\":18571:18609   */\n      mstore\n        /* \"#utility.yul\":18492:18616   */\n      pop\n      jump\t// out\n        /* \"#utility.yul\":18622:18800   */\n    tag_400:\n        /* \"#utility.yul\":18762:18792   */\n      0x59612065786973746520756e612050435220636f6e2065736520494400000000\n        /* \"#utility.yul\":18758:18759   */\n      0x00\n        /* \"#utility.yul\":18750:18756   */\n      dup3\n        /* \"#utility.yul\":18746:18760   */\n      add\n        /* \"#utility.yul\":18739:18793   */\n      mstore\n        /* \"#utility.yul\":18728:18800   */\n      pop\n      jump\t// out\n        /* \"#utility.yul\":18806:18980   */\n    tag_405:\n        /* \"#utility.yul\":18946:18972   */\n      0x4c6120504352207469656e652071756520657869737469720000000000000000\n        /* \"#utility.yul\":18942:18943   */\n      0x00\n        /* \"#utility.yul\":18934:18940   */\n      dup3\n        /* \"#utility.yul\":18930:18944   */\n      add\n        /* \"#utility.yul\":18923:18973   */\n      mstore\n        /* \"#utility.yul\":18912:18980   */\n      pop\n      jump\t// out\n        /* \"#utility.yul\":18986:19164   */\n    tag_410:\n        /* \"#utility.yul\":19126:19156   */\n      0x4e6f2065786973746520756e612050435220636f6e2065736120494400000000\n        /* \"#utility.yul\":19122:19123   */\n      0x00\n        /* \"#utility.yul\":19114:19120   */\n      dup3\n        /* \"#utility.yul\":19110:19124   */\n      add\n        /* \"#utility.yul\":19103:19157   */\n      mstore\n        /* \"#utility.yul\":19092:19164   */\n      pop\n      jump\t// out\n        /* \"#utility.yul\":19170:19292   */\n    tag_315:\n        /* \"#utility.yul\":19243:19267   */\n      tag_551\n        /* \"#utility.yul\":19261:19266   */\n      dup2\n        /* \"#utility.yul\":19243:19267   */\n      tag_347\n      jump\t// in\n    tag_551:\n        /* \"#utility.yul\":19236:19241   */\n      dup2\n        /* \"#utility.yul\":19233:19268   */\n      eq\n        /* \"#utility.yul\":19223:19225   */\n      tag_552\n      jumpi\n        /* \"#utility.yul\":19282:19283   */\n      0x00\n        /* \"#utility.yul\":19279:19280   */\n      dup1\n        /* \"#utility.yul\":19272:19284   */\n      revert\n        /* \"#utility.yul\":19223:19225   */\n    tag_552:\n        /* \"#utility.yul\":19213:19292   */\n      pop\n      jump\t// out\n        /* \"#utility.yul\":19298:19420   */\n    tag_319:\n        /* \"#utility.yul\":19371:19395   */\n      tag_554\n        /* \"#utility.yul\":19389:19394   */\n      dup2\n        /* \"#utility.yul\":19371:19395   */\n      tag_364\n      jump\t// in\n    tag_554:\n        /* \"#utility.yul\":19364:19369   */\n      dup2\n        /* \"#utility.yul\":19361:19396   */\n      eq\n        /* \"#utility.yul\":19351:19353   */\n      tag_555\n      jumpi\n        /* \"#utility.yul\":19410:19411   */\n      0x00\n        /* \"#utility.yul\":19407:19408   */\n      dup1\n        /* \"#utility.yul\":19400:19412   */\n      revert\n        /* \"#utility.yul\":19351:19353   */\n    tag_555:\n        /* \"#utility.yul\":19341:19420   */\n      pop\n      jump\t// out\n        /* \"#utility.yul\":19426:19548   */\n    tag_323:\n        /* \"#utility.yul\":19499:19523   */\n      tag_557\n        /* \"#utility.yul\":19517:19522   */\n      dup2\n        /* \"#utility.yul\":19499:19523   */\n      tag_418\n      jump\t// in\n    tag_557:\n        /* \"#utility.yul\":19492:19497   */\n      dup2\n        /* \"#utility.yul\":19489:19524   */\n      eq\n        /* \"#utility.yul\":19479:19481   */\n      tag_558\n      jumpi\n        /* \"#utility.yul\":19538:19539   */\n      0x00\n        /* \"#utility.yul\":19535:19536   */\n      dup1\n        /* \"#utility.yul\":19528:19540   */\n      revert\n        /* \"#utility.yul\":19479:19481   */\n    tag_558:\n        /* \"#utility.yul\":19469:19548   */\n      pop\n      jump\t// out\n\n    auxdata: 0xa2646970667358221220a23c23e31550147ee64c47d4ace660d8abd403df283e1fce5141f0eb52e61f4564736f6c63430008030033\n}\n",
    "bytecode": {
      "linkReferences": {},
      "object": "60806040523480156200001157600080fd5b5060405162003c2938038062003c29833981810160405281019062000037919062000d88565b336000806101000a81548173ffffffffffffffffffffffffffffffffffffffff021916908373ffffffffffffffffffffffffffffffffffffffff1602179055506000600160146101000a81548160ff0219169083151502179055508060106002019080519060200190620000ad929190620009ca565b508160106001019080519060200190620000c9929190620009ca565b508260106000019080519060200190620000e5929190620009ca565b508360008151811062000121577f4e487b7100000000000000000000000000000000000000000000000000000000600052603260045260246000fd5b6020026020010151601060040181905550836001815181106200016d577f4e487b7100000000000000000000000000000000000000000000000000000000600052603260045260246000fd5b602002602001015160106005018190555083600281518110620001b9577f4e487b7100000000000000000000000000000000000000000000000000000000600052603260045260246000fd5b60200260200101516010600601819055508360038151811062000205577f4e487b7100000000000000000000000000000000000000000000000000000000600052603260045260246000fd5b60200260200101516010600701819055508360048151811062000251577f4e487b7100000000000000000000000000000000000000000000000000000000600052603260045260246000fd5b6020026020010151601060080181905550836005815181106200029d577f4e487b7100000000000000000000000000000000000000000000000000000000600052603260045260246000fd5b602002602001015160106009018190555083600681518110620002e9577f4e487b7100000000000000000000000000000000000000000000000000000000600052603260045260246000fd5b60200260200101516010600a0181905550600285511462000341576040517f08c379a0000000000000000000000000000000000000000000000000000000008152600401620003389062001057565b60405180910390fd5b846000815181106200037c577f4e487b7100000000000000000000000000000000000000000000000000000000600052603260045260246000fd5b6020026020010151600a60000160006101000a81548161ffff021916908361ffff16021790555084600181518110620003de577f4e487b7100000000000000000000000000000000000000000000000000000000600052603260045260246000fd5b6020026020010151600a60000160026101000a81548161ffff021916908361ffff16021790555060038651146200044c576040517f08c379a00000000000000000000000000000000000000000000000000000000081526004016200044390620010bd565b60405180910390fd5b8560018151811062000487577f4e487b7100000000000000000000000000000000000000000000000000000000600052603260045260246000fd5b602002602001015186600081518110620004ca577f4e487b7100000000000000000000000000000000000000000000000000000000600052603260045260246000fd5b60200260200101511062000515576040517f08c379a00000000000000000000000000000000000000000000000000000000081526004016200050c906200109b565b60405180910390fd5b8560008151811062000550577f4e487b7100000000000000000000000000000000000000000000000000000000600052603260045260246000fd5b6020026020010151600a60020181905550856001815181106200059c577f4e487b7100000000000000000000000000000000000000000000000000000000600052603260045260246000fd5b6020026020010151600a6003018190555085600281518110620005e8577f4e487b7100000000000000000000000000000000000000000000000000000000600052603260045260246000fd5b6020026020010151600a6004018190555086600a60050190805190602001906200061492919062000a5b565b5060028851146200065c576040517f08c379a0000000000000000000000000000000000000000000000000000000008152600401620006539062001079565b60405180910390fd5b8760018151811062000697577f4e487b7100000000000000000000000000000000000000000000000000000000600052603260045260246000fd5b602002602001015160106003018190555087600081518110620006e3577f4e487b7100000000000000000000000000000000000000000000000000000000600052603260045260246000fd5b6020026020010151600a6001018190555086518951146200070357600080fd5b86518a51146200071257600080fd5b60005b87518110156200096d576001600460008a84815181106200075f577f4e487b7100000000000000000000000000000000000000000000000000000000600052603260045260246000fd5b6020026020010151815260200190815260200160002060006101000a81548160ff0219169083151502179055506203f480426200079d9190620011dc565b8a8281518110620007d7577f4e487b7100000000000000000000000000000000000000000000000000000000600052603260045260246000fd5b6020026020010151101562000823576040517f08c379a00000000000000000000000000000000000000000000000000000000081526004016200081a9062001035565b60405180910390fd5b8981815181106200085d577f4e487b7100000000000000000000000000000000000000000000000000000000600052603260045260246000fd5b6020026020010151600860008a8481518110620008a3577f4e487b7100000000000000000000000000000000000000000000000000000000600052603260045260246000fd5b60200260200101518152602001908152602001600020819055508a8181518110620008f7577f4e487b7100000000000000000000000000000000000000000000000000000000600052603260045260246000fd5b6020026020010151600760008a84815181106200093d577f4e487b7100000000000000000000000000000000000000000000000000000000600052603260045260246000fd5b602002602001015181526020019081526020016000208190555080806200096490620012db565b91505062000715565b50600a6005018054905060ff16600a60000160066101000a81548161ffff021916908361ffff1602179055506000600a60000160046101000a81548161ffff021916908361ffff16021790555050505050505050505050620015c6565b828054620009d8906200126f565b90600052602060002090601f016020900481019282620009fc576000855562000a48565b82601f1062000a1757805160ff191683800117855562000a48565b8280016001018555821562000a48579182015b8281111562000a4757825182559160200191906001019062000a2a565b5b50905062000a57919062000aad565b5090565b82805482825590600052602060002090810192821562000a9a579160200282015b8281111562000a9957825182559160200191906001019062000a7c565b5b50905062000aa9919062000acc565b5090565b5b8082111562000ac857600081600090555060010162000aae565b5090565b5b8082111562000ae757600081600090555060010162000acd565b5090565b600062000b0262000afc8462001108565b620010df565b9050808382526020820190508285602086028201111562000b2257600080fd5b60005b8581101562000b56578162000b3b888262000d16565b84526020840193506020830192505060018101905062000b25565b5050509392505050565b600062000b7762000b718462001137565b620010df565b9050808382526020820190508285602086028201111562000b9757600080fd5b60005b8581101562000bcb578162000bb0888262000d5a565b84526020840193506020830192505060018101905062000b9a565b5050509392505050565b600062000bec62000be68462001166565b620010df565b9050808382526020820190508285602086028201111562000c0c57600080fd5b60005b8581101562000c40578162000c25888262000d71565b84526020840193506020830192505060018101905062000c0f565b5050509392505050565b600062000c6162000c5b8462001195565b620010df565b90508281526020810184848401111562000c7a57600080fd5b62000c8784828562001239565b509392505050565b600082601f83011262000ca157600080fd5b815162000cb384826020860162000aeb565b91505092915050565b600082601f83011262000cce57600080fd5b815162000ce084826020860162000b60565b91505092915050565b600082601f83011262000cfb57600080fd5b815162000d0d84826020860162000bd5565b91505092915050565b60008151905062000d278162001578565b92915050565b600082601f83011262000d3f57600080fd5b815162000d5184826020860162000c4a565b91505092915050565b60008151905062000d6b8162001592565b92915050565b60008151905062000d8281620015ac565b92915050565b6000806000806000806000806000806101408b8d03121562000da957600080fd5b60008b015167ffffffffffffffff81111562000dc457600080fd5b62000dd28d828e0162000c8f565b9a505060208b015167ffffffffffffffff81111562000df057600080fd5b62000dfe8d828e0162000ce9565b99505060408b015167ffffffffffffffff81111562000e1c57600080fd5b62000e2a8d828e0162000c8f565b98505060608b015167ffffffffffffffff81111562000e4857600080fd5b62000e568d828e0162000c8f565b97505060808b015167ffffffffffffffff81111562000e7457600080fd5b62000e828d828e0162000ce9565b96505060a08b015167ffffffffffffffff81111562000ea057600080fd5b62000eae8d828e0162000cbc565b95505060c08b015167ffffffffffffffff81111562000ecc57600080fd5b62000eda8d828e0162000c8f565b94505060e08b015167ffffffffffffffff81111562000ef857600080fd5b62000f068d828e0162000d2d565b9350506101008b015167ffffffffffffffff81111562000f2557600080fd5b62000f338d828e0162000d2d565b9250506101208b015167ffffffffffffffff81111562000f5257600080fd5b62000f608d828e0162000d2d565b9150509295989b9194979a5092959850565b600062000f81603983620011cb565b915062000f8e82620013c7565b604082019050919050565b600062000fa8604a83620011cb565b915062000fb58262001416565b606082019050919050565b600062000fcf602483620011cb565b915062000fdc826200148b565b604082019050919050565b600062000ff6603083620011cb565b91506200100382620014da565b604082019050919050565b60006200101d604083620011cb565b91506200102a8262001529565b604082019050919050565b60006020820190508181036000830152620010508162000f72565b9050919050565b60006020820190508181036000830152620010728162000f99565b9050919050565b60006020820190508181036000830152620010948162000fc0565b9050919050565b60006020820190508181036000830152620010b68162000fe7565b9050919050565b60006020820190508181036000830152620010d8816200100e565b9050919050565b6000620010eb620010fe565b9050620010f98282620012a5565b919050565b6000604051905090565b600067ffffffffffffffff82111562001126576200112562001387565b5b602082029050602081019050919050565b600067ffffffffffffffff82111562001155576200115462001387565b5b602082029050602081019050919050565b600067ffffffffffffffff82111562001184576200118362001387565b5b602082029050602081019050919050565b600067ffffffffffffffff821115620011b357620011b262001387565b5b620011be82620013b6565b9050602081019050919050565b600082825260208201905092915050565b6000620011e9826200122f565b9150620011f6836200122f565b9250828210156200120c576200120b62001329565b5b828203905092915050565b6000819050919050565b600061ffff82169050919050565b6000819050919050565b60005b83811015620012595780820151818401526020810190506200123c565b8381111562001269576000848401525b50505050565b600060028204905060018216806200128857607f821691505b602082108114156200129f576200129e62001358565b5b50919050565b620012b082620013b6565b810181811067ffffffffffffffff82111715620012d257620012d162001387565b5b80604052505050565b6000620012e8826200122f565b91507fffffffffffffffffffffffffffffffffffffffffffffffffffffffffffffffff8214156200131e576200131d62001329565b5b600182019050919050565b7f4e487b7100000000000000000000000000000000000000000000000000000000600052601160045260246000fd5b7f4e487b7100000000000000000000000000000000000000000000000000000000600052602260045260246000fd5b7f4e487b7100000000000000000000000000000000000000000000000000000000600052604160045260246000fd5b6000601f19601f8301169050919050565b7f436865636b20746861742070726576696f75732050435220686173206265656e60008201527f206e6f206d6f7265207468616e203320646179732061676f2e00000000000000602082015250565b7f596f75206861766520746f2070726f766964652074686520616d6f756e74206f60008201527f662064617920636f6d70656e736174696f6e20616e6420746865206e756d626560208201527f72206f6620646179732e00000000000000000000000000000000000000000000604082015250565b7f4d7573742070726f7669646520506f6c69637920494420616e642054616b657260008201527f2049442e00000000000000000000000000000000000000000000000000000000602082015250565b7f54686520737461727420646174652068617320746f206265206265666f72652060008201527f7468652066696e69736820646174652e00000000000000000000000000000000602082015250565b7f54686520506f6c696379206e656564206120737461727420646174652c20612060008201527f66696e697368206461746520616e64206120636f6e747261637420646174652e602082015250565b620015838162001217565b81146200158f57600080fd5b50565b6200159d8162001221565b8114620015a957600080fd5b50565b620015b7816200122f565b8114620015c357600080fd5b50565b61265380620015d66000396000f3fe608060405234801561001057600080fd5b50600436106100cf5760003560e01c806340d5ff581161008c57806392ed93d01161006657806392ed93d0146101f25780639499e01814610216578063e0caf0bd14610220578063fc1c7a7014610248576100cf565b806340d5ff581461019a5780635d1ca631146101a457806362a681b3146101c2576100cf565b8063121b5a25146100d4578063169e68c3146100f25780632357aef314610127578063236f45d914610143578063297e6306146101625780632f0519d41461017e575b600080fd5b6100dc610266565b6040516100e991906120e8565b60405180910390f35b61010c60048036038101906101079190611b89565b6102c1565b60405161011e96959493929190611f38565b60405180910390f35b610141600480360381019061013c9190611bb2565b6103e9565b005b61014b610535565b604051610159929190612038565b60405180910390f35b61017c60048036038101906101779190611b60565b611192565b005b61019860048036038101906101939190611bee565b61120a565b005b6101a26114ae565b005b6101ac611553565b6040516101b99190611e5d565b60405180910390f35b6101dc60048036038101906101d79190611b89565b611560565b6040516101e99190611e42565b60405180910390f35b6101fa611670565b60405161020d9796959493929190611f99565b60405180910390f35b61021e611737565b005b6102286117c8565b60405161023f9b9a99989796959493929190611e78565b60405180910390f35b6102506119e0565b60405161025d9190611e5d565b60405180910390f35b6000600a60000160069054906101000a900461ffff16600a60000160029054906101000a900461ffff16600a60000160009054906101000a900461ffff166102ae9190612214565b6102b89190612214565b61ffff16905090565b6000806000806000806005600088815260200190815260200160002060009054906101000a900460ff1661032a576040517f08c379a0000000000000000000000000000000000000000000000000000000008152600401610321906120c8565b60405180910390fd5b60096000888152602001908152602001600020600001546009600089815260200190815260200160002060020154600960008a815260200190815260200160002060030154600960008b815260200190815260200160002060040154600960008c815260200190815260200160002060010154600960008d815260200190815260200160002060050160009054906101000a900473ffffffffffffffffffffffffffffffffffffffff1695509550955095509550955091939550919395565b60007f504f53495449564500000000000000000000000000000000000000000000000090506000600660008581526020019081526020016000205490506005600085815260200190815260200160002060009054906101000a900460ff16610486576040517f08c379a000000000000000000000000000000000000000000000000000000000815260040161047d906120a8565b60405180910390fd5b8260096000868152602001908152602001600020600001819055504260096000868152602001908152602001600020600401819055508183141561052f576001601b60006101000a81548160ff0219169083151502179055507f55cb01df06ba1925769d5c9d83199624c566e9e81719d4a3d02aee576149d7f9814260405161051092919061200f565b60405180910390a1600a6003015442101561052e5761052d6114ae565b5b5b50505050565b60606000806105d06010600001805461054d9061238f565b80601f01602080910402602001604051908101604052809291908181526020018280546105799061238f565b80156105c65780601f1061059b576101008083540402835291602001916105c6565b820191906000526020600020905b8154815290600101906020018083116105a957829003601f168201915b50505050506119ed565b9050600061066a601060010180546105e79061238f565b80601f01602080910402602001604051908101604052809291908181526020018280546106139061238f565b80156106605780601f1061063557610100808354040283529160200191610660565b820191906000526020600020905b81548152906001019060200180831161064357829003601f168201915b50505050506119ed565b90506000610704601060020180546106819061238f565b80601f01602080910402602001604051908101604052809291908181526020018280546106ad9061238f565b80156106fa5780601f106106cf576101008083540402835291602001916106fa565b820191906000526020600020905b8154815290600101906020018083116106dd57829003601f168201915b50505050506119ed565b90506000601e600a60000160049054906101000a900461ffff1660a061072a9190612214565b6002600a8587896101206002600a60000160069054906101000a900461ffff1660206107569190612214565b6107609190612214565b600a60000160069054906101000a900461ffff1660206107809190612214565b606461078c91906121ab565b61079691906121ab565b6107a091906121ab565b6107aa91906121ab565b6107b491906121ab565b6107be91906121ab565b6107c891906121ab565b6107d291906121ab565b6107dc91906121ab565b6107e691906121ab565b61ffff1690508067ffffffffffffffff81111561082c577f4e487b7100000000000000000000000000000000000000000000000000000000600052604160045260246000fd5b6040519080825280601f01601f19166020018201604052801561085e5781602001600182028036833780820191505090505b50955080945061087481600a6001015488611a45565b60208161088191906122aa565b905061089381600a6002015488611a78565b6020816108a091906122aa565b90506108b281600a6003015488611a78565b6020816108bf91906122aa565b90506108d181600a6004015488611a78565b6020816108de91906122aa565b905061090281600a60000160009054906101000a900461ffff1661ffff1688611a78565b60028161090f91906122aa565b905061093381600a60000160029054906101000a900461ffff1661ffff1688611a78565b60028161094091906122aa565b90506109528160106003015488611a45565b60208161095f91906122aa565b90506109718160106004015488611a45565b60208161097e91906122aa565b90506109908160106005015488611a45565b60208161099d91906122aa565b90506109af8160106006015488611a45565b6020816109bc91906122aa565b90506109ce8160106007015488611a45565b6020816109db91906122aa565b90506109ed8160106008015488611a45565b6020816109fa91906122aa565b9050610a0c8160106009015488611a45565b602081610a1991906122aa565b9050610a2b816010600a015488611a45565b602081610a3891906122aa565b9050610a5481601b60009054906101000a900460ff1688611a82565b600181610a6191906122aa565b9050610a7d81601b60019054906101000a900460ff1688611a82565b600181610a8a91906122aa565b9050610a9b818561ffff1688611a78565b600281610aa891906122aa565b9050610b428160106000018054610abe9061238f565b80601f0160208091040260200160405190810160405280929190818152602001828054610aea9061238f565b8015610b375780601f10610b0c57610100808354040283529160200191610b37565b820191906000526020600020905b815481529060010190602001808311610b1a57829003601f168201915b505050505088611aa6565b8361ffff1681610b5291906122aa565b9050610b63818461ffff1688611a78565b600281610b7091906122aa565b9050610c0a8160106001018054610b869061238f565b80601f0160208091040260200160405190810160405280929190818152602001828054610bb29061238f565b8015610bff5780601f10610bd457610100808354040283529160200191610bff565b820191906000526020600020905b815481529060010190602001808311610be257829003601f168201915b505050505088611aa6565b8261ffff1681610c1a91906122aa565b9050610c2b818361ffff1688611a78565b600281610c3891906122aa565b9050610cd28160106002018054610c4e9061238f565b80601f0160208091040260200160405190810160405280929190818152602001828054610c7a9061238f565b8015610cc75780601f10610c9c57610100808354040283529160200191610cc7565b820191906000526020600020905b815481529060010190602001808311610caa57829003601f168201915b505050505088611aa6565b8161ffff1681610ce291906122aa565b9050610d0681600a60000160069054906101000a900461ffff1661ffff1688611a78565b600281610d1391906122aa565b905060005b600a60000160069054906101000a900461ffff1661ffff16811015610e9357610d8982600a6005018381548110610d78577f4e487b7100000000000000000000000000000000000000000000000000000000600052603260045260246000fd5b906000526020600020015489611a45565b602082610d9691906122aa565b9150610dfd8260076000600a6005018581548110610ddd577f4e487b7100000000000000000000000000000000000000000000000000000000600052603260045260246000fd5b906000526020600020015481526020019081526020016000205489611a45565b602082610e0a91906122aa565b9150610e718260086000600a6005018581548110610e51577f4e487b7100000000000000000000000000000000000000000000000000000000600052603260045260246000fd5b906000526020600020015481526020019081526020016000205489611a78565b602082610e7e91906122aa565b91508080610e8b906123ec565b915050610d18565b50610eb681600a60000160049054906101000a900461ffff1661ffff1688611a78565b602081610ec391906122aa565b9050600080600080600080600090505b600a60000160069054906101000a900461ffff1661ffff168110156111845760005b60036000600a6005018481548110610f36577f4e487b7100000000000000000000000000000000000000000000000000000000600052603260045260246000fd5b9060005260206000200154815260200190815260200160002080549050811015611170576005600060036000600a6005018681548110610f9f577f4e487b7100000000000000000000000000000000000000000000000000000000600052603260045260246000fd5b906000526020600020015481526020019081526020016000208381548110610ff0577f4e487b7100000000000000000000000000000000000000000000000000000000600052603260045260246000fd5b9060005260206000200154815260200190815260200160002060009054906101000a900460ff166110205761115d565b6110c560036000600a6005018581548110611064577f4e487b7100000000000000000000000000000000000000000000000000000000600052603260045260246000fd5b9060005260206000200154815260200190815260200160002082815481106110b5577f4e487b7100000000000000000000000000000000000000000000000000000000600052603260045260246000fd5b90600052602060002001546102c1565b50809750819850829950839a50849b5050505050506110e588848f611a45565b6020886110f291906122aa565b97506110ff88858f611a78565b60208861110c91906122aa565b975061111988868f611a78565b60208861112691906122aa565b975061113388878f611a45565b60208861114091906122aa565b975061114d88888f611a45565b60208861115a91906122aa565b97505b8080611168906123ec565b915050610ef5565b50808061117c906123ec565b915050610ed3565b505050505050505050509091565b600160149054906101000a900460ff16156111ac57600080fd5b60018060146101000a81548160ff02191690831515021790555080600160006101000a81548173ffffffffffffffffffffffffffffffffffffffff021916908373ffffffffffffffffffffffffffffffffffffffff16021790555050565b6004600085815260200190815260200160002060009054906101000a900460ff1661126a576040517f08c379a000000000000000000000000000000000000000000000000000000000815260040161126190612068565b60405180910390fd5b6005600084815260200190815260200160002060009054906101000a900460ff16156112cb576040517f08c379a00000000000000000000000000000000000000000000000000000000081526004016112c290612088565b60405180910390fd5b60036000858152602001908152602001600020839080600181540180825580915050600190039060005260206000200160009091909190915055600360008581526020019081526020016000208054905060026000858152602001908152602001600020819055508360066000858152602001908152602001600020819055506040518060c001604052807f554e444546494e454400000000000000000000000000000000000000000000008152602001848152602001858152602001838152602001600081526020018273ffffffffffffffffffffffffffffffffffffffff1681525060096000858152602001908152602001600020600082015181600001556020820151816001015560408201518160020155606082015181600301556080820151816004015560a08201518160050160006101000a81548173ffffffffffffffffffffffffffffffffffffffff021916908373ffffffffffffffffffffffffffffffffffffffff16021790555090505060016005600085815260200190815260200160002060006101000a81548160ff021916908315150217905550600a600001600481819054906101000a900461ffff168092919061148d906123c1565b91906101000a81548161ffff021916908361ffff1602179055505050505050565b60006114b8610266565b9050601b60009054906101000a900460ff1680156114e35750601b60019054906101000a900460ff16155b15611550577fcbeb43f3566812eb9b63828e127ce48efbf4126607fc80974ba3d72dd41d094a816010600301546010600a015460405161152593929190612103565b60405180910390a16001601b60016101000a81548160ff02191690831515021790555042601c819055505b50565b6000600a60010154905090565b60006005600083815260200190815260200160002060009054906101000a900460ff166115c2576040517f08c379a00000000000000000000000000000000000000000000000000000000081526004016115b9906120c8565b60405180910390fd5b60006009600084815260200190815260200160002060050160009054906101000a900473ffffffffffffffffffffffffffffffffffffffff16905060006005600085815260200190815260200160002060006101000a81548160ff021916908315150217905550600a600001600481819054906101000a900461ffff168092919061164c90612365565b91906101000a81548161ffff021916908361ffff1602179055505080915050919050565b6000806000806000806060600a60010154600a60000160009054906101000a900461ffff16600a60000160029054906101000a900461ffff16600a60000160069054906101000a900461ffff16600a60020154600a60030154600a6005018080548060200260200160405190810160405280929190818152602001828054801561171957602002820191906000526020600020905b815481526020019060010190808311611705575b50505050509050965096509650965096509650965090919293949596565b60008054906101000a900473ffffffffffffffffffffffffffffffffffffffff1673ffffffffffffffffffffffffffffffffffffffff163373ffffffffffffffffffffffffffffffffffffffff161461178f57600080fd5b60008054906101000a900473ffffffffffffffffffffffffffffffffffffffff1673ffffffffffffffffffffffffffffffffffffffff16ff5b6000806060806000806000806000606060006010600301546010600401546010600001601060010160106005015460106006015460106007015460106008015460106009015460106002016010600a01548880546118259061238f565b80601f01602080910402602001604051908101604052809291908181526020018280546118519061238f565b801561189e5780601f106118735761010080835404028352916020019161189e565b820191906000526020600020905b81548152906001019060200180831161188157829003601f168201915b505050505098508780546118b19061238f565b80601f01602080910402602001604051908101604052809291908181526020018280546118dd9061238f565b801561192a5780601f106118ff5761010080835404028352916020019161192a565b820191906000526020600020905b81548152906001019060200180831161190d57829003601f168201915b5050505050975081805461193d9061238f565b80601f01602080910402602001604051908101604052809291908181526020018280546119699061238f565b80156119b65780601f1061198b576101008083540402835291602001916119b6565b820191906000526020600020905b81548152906001019060200180831161199957829003601f168201915b505050505091509a509a509a509a509a509a509a509a509a509a509a50909192939495969798999a565b6000601060030154905090565b6000602082516119fd91906121e3565b9050600060208351611a0f919061243f565b14611a23578080611a1f906123ec565b9150505b8080611a2e906123ec565b915050602081611a3e9190612250565b9050919050565b600082604051602001611a589190611e27565b604051602081830303815290604052905060208101518483015250505050565b8183820152505050565b600080151583151514611a96576001611a99565b60005b9050808483015250505050565b600060208351611ab691906121e3565b9050600060208451611ac8919061243f565b1115611add578080611ad9906123ec565b9150505b8080611ae8906123ec565b91505060005b81811015611b1a5760208102840151858401526020850394508080611b12906123ec565b915050611aee565b5050505050565b600081359050611b30816125d8565b92915050565b600081359050611b45816125ef565b92915050565b600081359050611b5a81612606565b92915050565b600060208284031215611b7257600080fd5b6000611b8084828501611b21565b91505092915050565b600060208284031215611b9b57600080fd5b6000611ba984828501611b36565b91505092915050565b60008060408385031215611bc557600080fd5b6000611bd385828601611b36565b9250506020611be485828601611b36565b9150509250929050565b60008060008060808587031215611c0457600080fd5b6000611c1287828801611b36565b9450506020611c2387828801611b36565b9350506040611c3487828801611b4b565b9250506060611c4587828801611b21565b91505092959194509250565b6000611c5d8383611cd6565b60208301905092915050565b611c72816122de565b82525050565b6000611c838261214a565b611c8d8185612178565b9350611c988361213a565b8060005b83811015611cc9578151611cb08882611c51565b9750611cbb8361216b565b925050600181019050611c9c565b5085935050505092915050565b611cdf816122f0565b82525050565b611cee816122f0565b82525050565b611d05611d00826122f0565b612435565b82525050565b6000611d1682612155565b611d208185612189565b9350611d30818560208601612332565b611d39816124fd565b840191505092915050565b6000611d4f82612160565b611d59818561219a565b9350611d69818560208601612332565b611d72816124fd565b840191505092915050565b6000611d8a602b8361219a565b9150611d958261250e565b604082019050919050565b6000611dad601c8361219a565b9150611db88261255d565b602082019050919050565b6000611dd060188361219a565b9150611ddb82612586565b602082019050919050565b6000611df3601c8361219a565b9150611dfe826125af565b602082019050919050565b611e12816122fa565b82525050565b611e2181612328565b82525050565b6000611e338284611cf4565b60208201915081905092915050565b6000602082019050611e576000830184611c69565b92915050565b6000602082019050611e726000830184611ce5565b92915050565b600061016082019050611e8e600083018e611ce5565b611e9b602083018d611ce5565b8181036040830152611ead818c611d44565b90508181036060830152611ec1818b611d44565b9050611ed0608083018a611ce5565b611edd60a0830189611ce5565b611eea60c0830188611ce5565b611ef760e0830187611ce5565b611f05610100830186611ce5565b818103610120830152611f188185611d44565b9050611f28610140830184611ce5565b9c9b505050505050505050505050565b600060c082019050611f4d6000830189611ce5565b611f5a6020830188611ce5565b611f676040830187611e18565b611f746060830186611e18565b611f816080830185611ce5565b611f8e60a0830184611c69565b979650505050505050565b600060e082019050611fae600083018a611ce5565b611fbb6020830189611e09565b611fc86040830188611e09565b611fd56060830187611e09565b611fe26080830186611e18565b611fef60a0830185611e18565b81810360c08301526120018184611c78565b905098975050505050505050565b60006040820190506120246000830185611ce5565b6120316020830184611e18565b9392505050565b600060408201905081810360008301526120528185611d0b565b90506120616020830184611e18565b9392505050565b6000602082019050818103600083015261208181611d7d565b9050919050565b600060208201905081810360008301526120a181611da0565b9050919050565b600060208201905081810360008301526120c181611dc3565b9050919050565b600060208201905081810360008301526120e181611de6565b9050919050565b60006020820190506120fd6000830184611e18565b92915050565b60006060820190506121186000830186611e18565b6121256020830185611ce5565b6121326040830184611ce5565b949350505050565b6000819050602082019050919050565b600081519050919050565b600081519050919050565b600081519050919050565b6000602082019050919050565b600082825260208201905092915050565b600082825260208201905092915050565b600082825260208201905092915050565b60006121b6826122fa565b91506121c1836122fa565b92508261ffff038211156121d8576121d7612470565b5b828201905092915050565b60006121ee82612328565b91506121f983612328565b9250826122095761220861249f565b5b828204905092915050565b600061221f826122fa565b915061222a836122fa565b92508161ffff048311821515161561224557612244612470565b5b828202905092915050565b600061225b82612328565b915061226683612328565b9250817fffffffffffffffffffffffffffffffffffffffffffffffffffffffffffffffff048311821515161561229f5761229e612470565b5b828202905092915050565b60006122b582612328565b91506122c083612328565b9250828210156122d3576122d2612470565b5b828203905092915050565b60006122e982612308565b9050919050565b6000819050919050565b600061ffff82169050919050565b600073ffffffffffffffffffffffffffffffffffffffff82169050919050565b6000819050919050565b60005b83811015612350578082015181840152602081019050612335565b8381111561235f576000848401525b50505050565b6000612370826122fa565b9150600082141561238457612383612470565b5b600182039050919050565b600060028204905060018216806123a757607f821691505b602082108114156123bb576123ba6124ce565b5b50919050565b60006123cc826122fa565b915061ffff8214156123e1576123e0612470565b5b600182019050919050565b60006123f782612328565b91507fffffffffffffffffffffffffffffffffffffffffffffffffffffffffffffffff82141561242a57612429612470565b5b600182019050919050565b6000819050919050565b600061244a82612328565b915061245583612328565b9250826124655761246461249f565b5b828206905092915050565b7f4e487b7100000000000000000000000000000000000000000000000000000000600052601160045260246000fd5b7f4e487b7100000000000000000000000000000000000000000000000000000000600052601260045260246000fd5b7f4e487b7100000000000000000000000000000000000000000000000000000000600052602260045260246000fd5b6000601f19601f8301169050919050565b7f546865206964206f662074686520696e7375726564206973206e6f7420696e2060008201527f74686520706f6c6963792e000000000000000000000000000000000000000000602082015250565b7f59612065786973746520756e612050435220636f6e2065736520494400000000600082015250565b7f4c6120504352207469656e652071756520657869737469720000000000000000600082015250565b7f4e6f2065786973746520756e612050435220636f6e2065736120494400000000600082015250565b6125e1816122de565b81146125ec57600080fd5b50565b6125f8816122f0565b811461260357600080fd5b50565b61260f81612328565b811461261a57600080fd5b5056fea2646970667358221220a23c23e31550147ee64c47d4ace660d8abd403df283e1fce5141f0eb52e61f4564736f6c63430008030033",
      "opcodes": "PUSH1 0x80 PUSH1 0x40 MSTORE CALLVALUE DUP1 ISZERO PUSH3 0x11 JUMPI PUSH1 0x0 DUP1 REVERT JUMPDEST POP PUSH1 0x40 MLOAD PUSH3 0x3C29 CODESIZE SUB DUP1 PUSH3 0x3C29 DUP4 CODECOPY DUP2 DUP2 ADD PUSH1 0x40 MSTORE DUP2 ADD SWAP1 PUSH3 0x37 SWAP2 SWAP1 PUSH3 0xD88 JUMP JUMPDEST CALLER PUSH1 0x0 DUP1 PUSH2 0x100 EXP DUP2 SLOAD DUP2 PUSH20 0xFFFFFFFFFFFFFFFFFFFFFFFFFFFFFFFFFFFFFFFF MUL NOT AND SWAP1 DUP4 PUSH20 0xFFFFFFFFFFFFFFFFFFFFFFFFFFFFFFFFFFFFFFFF AND MUL OR SWAP1 SSTORE POP PUSH1 0x0 PUSH1 0x1 PUSH1 0x14 PUSH2 0x100 EXP DUP2 SLOAD DUP2 PUSH1 0xFF MUL NOT AND SWAP1 DUP4 ISZERO ISZERO MUL OR SWAP1 SSTORE POP DUP1 PUSH1 0x10 PUSH1 0x2 ADD SWAP1 DUP1 MLOAD SWAP1 PUSH1 0x20 ADD SWAP1 PUSH3 0xAD SWAP3 SWAP2 SWAP1 PUSH3 0x9CA JUMP JUMPDEST POP DUP2 PUSH1 0x10 PUSH1 0x1 ADD SWAP1 DUP1 MLOAD SWAP1 PUSH1 0x20 ADD SWAP1 PUSH3 0xC9 SWAP3 SWAP2 SWAP1 PUSH3 0x9CA JUMP JUMPDEST POP DUP3 PUSH1 0x10 PUSH1 0x0 ADD SWAP1 DUP1 MLOAD SWAP1 PUSH1 0x20 ADD SWAP1 PUSH3 0xE5 SWAP3 SWAP2 SWAP1 PUSH3 0x9CA JUMP JUMPDEST POP DUP4 PUSH1 0x0 DUP2 MLOAD DUP2 LT PUSH3 0x121 JUMPI PUSH32 0x4E487B7100000000000000000000000000000000000000000000000000000000 PUSH1 0x0 MSTORE PUSH1 0x32 PUSH1 0x4 MSTORE PUSH1 0x24 PUSH1 0x0 REVERT JUMPDEST PUSH1 0x20 MUL PUSH1 0x20 ADD ADD MLOAD PUSH1 0x10 PUSH1 0x4 ADD DUP2 SWAP1 SSTORE POP DUP4 PUSH1 0x1 DUP2 MLOAD DUP2 LT PUSH3 0x16D JUMPI PUSH32 0x4E487B7100000000000000000000000000000000000000000000000000000000 PUSH1 0x0 MSTORE PUSH1 0x32 PUSH1 0x4 MSTORE PUSH1 0x24 PUSH1 0x0 REVERT JUMPDEST PUSH1 0x20 MUL PUSH1 0x20 ADD ADD MLOAD PUSH1 0x10 PUSH1 0x5 ADD DUP2 SWAP1 SSTORE POP DUP4 PUSH1 0x2 DUP2 MLOAD DUP2 LT PUSH3 0x1B9 JUMPI PUSH32 0x4E487B7100000000000000000000000000000000000000000000000000000000 PUSH1 0x0 MSTORE PUSH1 0x32 PUSH1 0x4 MSTORE PUSH1 0x24 PUSH1 0x0 REVERT JUMPDEST PUSH1 0x20 MUL PUSH1 0x20 ADD ADD MLOAD PUSH1 0x10 PUSH1 0x6 ADD DUP2 SWAP1 SSTORE POP DUP4 PUSH1 0x3 DUP2 MLOAD DUP2 LT PUSH3 0x205 JUMPI PUSH32 0x4E487B7100000000000000000000000000000000000000000000000000000000 PUSH1 0x0 MSTORE PUSH1 0x32 PUSH1 0x4 MSTORE PUSH1 0x24 PUSH1 0x0 REVERT JUMPDEST PUSH1 0x20 MUL PUSH1 0x20 ADD ADD MLOAD PUSH1 0x10 PUSH1 0x7 ADD DUP2 SWAP1 SSTORE POP DUP4 PUSH1 0x4 DUP2 MLOAD DUP2 LT PUSH3 0x251 JUMPI PUSH32 0x4E487B7100000000000000000000000000000000000000000000000000000000 PUSH1 0x0 MSTORE PUSH1 0x32 PUSH1 0x4 MSTORE PUSH1 0x24 PUSH1 0x0 REVERT JUMPDEST PUSH1 0x20 MUL PUSH1 0x20 ADD ADD MLOAD PUSH1 0x10 PUSH1 0x8 ADD DUP2 SWAP1 SSTORE POP DUP4 PUSH1 0x5 DUP2 MLOAD DUP2 LT PUSH3 0x29D JUMPI PUSH32 0x4E487B7100000000000000000000000000000000000000000000000000000000 PUSH1 0x0 MSTORE PUSH1 0x32 PUSH1 0x4 MSTORE PUSH1 0x24 PUSH1 0x0 REVERT JUMPDEST PUSH1 0x20 MUL PUSH1 0x20 ADD ADD MLOAD PUSH1 0x10 PUSH1 0x9 ADD DUP2 SWAP1 SSTORE POP DUP4 PUSH1 0x6 DUP2 MLOAD DUP2 LT PUSH3 0x2E9 JUMPI PUSH32 0x4E487B7100000000000000000000000000000000000000000000000000000000 PUSH1 0x0 MSTORE PUSH1 0x32 PUSH1 0x4 MSTORE PUSH1 0x24 PUSH1 0x0 REVERT JUMPDEST PUSH1 0x20 MUL PUSH1 0x20 ADD ADD MLOAD PUSH1 0x10 PUSH1 0xA ADD DUP2 SWAP1 SSTORE POP PUSH1 0x2 DUP6 MLOAD EQ PUSH3 0x341 JUMPI PUSH1 0x40 MLOAD PUSH32 0x8C379A000000000000000000000000000000000000000000000000000000000 DUP2 MSTORE PUSH1 0x4 ADD PUSH3 0x338 SWAP1 PUSH3 0x1057 JUMP JUMPDEST PUSH1 0x40 MLOAD DUP1 SWAP2 SUB SWAP1 REVERT JUMPDEST DUP5 PUSH1 0x0 DUP2 MLOAD DUP2 LT PUSH3 0x37C JUMPI PUSH32 0x4E487B7100000000000000000000000000000000000000000000000000000000 PUSH1 0x0 MSTORE PUSH1 0x32 PUSH1 0x4 MSTORE PUSH1 0x24 PUSH1 0x0 REVERT JUMPDEST PUSH1 0x20 MUL PUSH1 0x20 ADD ADD MLOAD PUSH1 0xA PUSH1 0x0 ADD PUSH1 0x0 PUSH2 0x100 EXP DUP2 SLOAD DUP2 PUSH2 0xFFFF MUL NOT AND SWAP1 DUP4 PUSH2 0xFFFF AND MUL OR SWAP1 SSTORE POP DUP5 PUSH1 0x1 DUP2 MLOAD DUP2 LT PUSH3 0x3DE JUMPI PUSH32 0x4E487B7100000000000000000000000000000000000000000000000000000000 PUSH1 0x0 MSTORE PUSH1 0x32 PUSH1 0x4 MSTORE PUSH1 0x24 PUSH1 0x0 REVERT JUMPDEST PUSH1 0x20 MUL PUSH1 0x20 ADD ADD MLOAD PUSH1 0xA PUSH1 0x0 ADD PUSH1 0x2 PUSH2 0x100 EXP DUP2 SLOAD DUP2 PUSH2 0xFFFF MUL NOT AND SWAP1 DUP4 PUSH2 0xFFFF AND MUL OR SWAP1 SSTORE POP PUSH1 0x3 DUP7 MLOAD EQ PUSH3 0x44C JUMPI PUSH1 0x40 MLOAD PUSH32 0x8C379A000000000000000000000000000000000000000000000000000000000 DUP2 MSTORE PUSH1 0x4 ADD PUSH3 0x443 SWAP1 PUSH3 0x10BD JUMP JUMPDEST PUSH1 0x40 MLOAD DUP1 SWAP2 SUB SWAP1 REVERT JUMPDEST DUP6 PUSH1 0x1 DUP2 MLOAD DUP2 LT PUSH3 0x487 JUMPI PUSH32 0x4E487B7100000000000000000000000000000000000000000000000000000000 PUSH1 0x0 MSTORE PUSH1 0x32 PUSH1 0x4 MSTORE PUSH1 0x24 PUSH1 0x0 REVERT JUMPDEST PUSH1 0x20 MUL PUSH1 0x20 ADD ADD MLOAD DUP7 PUSH1 0x0 DUP2 MLOAD DUP2 LT PUSH3 0x4CA JUMPI PUSH32 0x4E487B7100000000000000000000000000000000000000000000000000000000 PUSH1 0x0 MSTORE PUSH1 0x32 PUSH1 0x4 MSTORE PUSH1 0x24 PUSH1 0x0 REVERT JUMPDEST PUSH1 0x20 MUL PUSH1 0x20 ADD ADD MLOAD LT PUSH3 0x515 JUMPI PUSH1 0x40 MLOAD PUSH32 0x8C379A000000000000000000000000000000000000000000000000000000000 DUP2 MSTORE PUSH1 0x4 ADD PUSH3 0x50C SWAP1 PUSH3 0x109B JUMP JUMPDEST PUSH1 0x40 MLOAD DUP1 SWAP2 SUB SWAP1 REVERT JUMPDEST DUP6 PUSH1 0x0 DUP2 MLOAD DUP2 LT PUSH3 0x550 JUMPI PUSH32 0x4E487B7100000000000000000000000000000000000000000000000000000000 PUSH1 0x0 MSTORE PUSH1 0x32 PUSH1 0x4 MSTORE PUSH1 0x24 PUSH1 0x0 REVERT JUMPDEST PUSH1 0x20 MUL PUSH1 0x20 ADD ADD MLOAD PUSH1 0xA PUSH1 0x2 ADD DUP2 SWAP1 SSTORE POP DUP6 PUSH1 0x1 DUP2 MLOAD DUP2 LT PUSH3 0x59C JUMPI PUSH32 0x4E487B7100000000000000000000000000000000000000000000000000000000 PUSH1 0x0 MSTORE PUSH1 0x32 PUSH1 0x4 MSTORE PUSH1 0x24 PUSH1 0x0 REVERT JUMPDEST PUSH1 0x20 MUL PUSH1 0x20 ADD ADD MLOAD PUSH1 0xA PUSH1 0x3 ADD DUP2 SWAP1 SSTORE POP DUP6 PUSH1 0x2 DUP2 MLOAD DUP2 LT PUSH3 0x5E8 JUMPI PUSH32 0x4E487B7100000000000000000000000000000000000000000000000000000000 PUSH1 0x0 MSTORE PUSH1 0x32 PUSH1 0x4 MSTORE PUSH1 0x24 PUSH1 0x0 REVERT JUMPDEST PUSH1 0x20 MUL PUSH1 0x20 ADD ADD MLOAD PUSH1 0xA PUSH1 0x4 ADD DUP2 SWAP1 SSTORE POP DUP7 PUSH1 0xA PUSH1 0x5 ADD SWAP1 DUP1 MLOAD SWAP1 PUSH1 0x20 ADD SWAP1 PUSH3 0x614 SWAP3 SWAP2 SWAP1 PUSH3 0xA5B JUMP JUMPDEST POP PUSH1 0x2 DUP9 MLOAD EQ PUSH3 0x65C JUMPI PUSH1 0x40 MLOAD PUSH32 0x8C379A000000000000000000000000000000000000000000000000000000000 DUP2 MSTORE PUSH1 0x4 ADD PUSH3 0x653 SWAP1 PUSH3 0x1079 JUMP JUMPDEST PUSH1 0x40 MLOAD DUP1 SWAP2 SUB SWAP1 REVERT JUMPDEST DUP8 PUSH1 0x1 DUP2 MLOAD DUP2 LT PUSH3 0x697 JUMPI PUSH32 0x4E487B7100000000000000000000000000000000000000000000000000000000 PUSH1 0x0 MSTORE PUSH1 0x32 PUSH1 0x4 MSTORE PUSH1 0x24 PUSH1 0x0 REVERT JUMPDEST PUSH1 0x20 MUL PUSH1 0x20 ADD ADD MLOAD PUSH1 0x10 PUSH1 0x3 ADD DUP2 SWAP1 SSTORE POP DUP8 PUSH1 0x0 DUP2 MLOAD DUP2 LT PUSH3 0x6E3 JUMPI PUSH32 0x4E487B7100000000000000000000000000000000000000000000000000000000 PUSH1 0x0 MSTORE PUSH1 0x32 PUSH1 0x4 MSTORE PUSH1 0x24 PUSH1 0x0 REVERT JUMPDEST PUSH1 0x20 MUL PUSH1 0x20 ADD ADD MLOAD PUSH1 0xA PUSH1 0x1 ADD DUP2 SWAP1 SSTORE POP DUP7 MLOAD DUP10 MLOAD EQ PUSH3 0x703 JUMPI PUSH1 0x0 DUP1 REVERT JUMPDEST DUP7 MLOAD DUP11 MLOAD EQ PUSH3 0x712 JUMPI PUSH1 0x0 DUP1 REVERT JUMPDEST PUSH1 0x0 JUMPDEST DUP8 MLOAD DUP2 LT ISZERO PUSH3 0x96D JUMPI PUSH1 0x1 PUSH1 0x4 PUSH1 0x0 DUP11 DUP5 DUP2 MLOAD DUP2 LT PUSH3 0x75F JUMPI PUSH32 0x4E487B7100000000000000000000000000000000000000000000000000000000 PUSH1 0x0 MSTORE PUSH1 0x32 PUSH1 0x4 MSTORE PUSH1 0x24 PUSH1 0x0 REVERT JUMPDEST PUSH1 0x20 MUL PUSH1 0x20 ADD ADD MLOAD DUP2 MSTORE PUSH1 0x20 ADD SWAP1 DUP2 MSTORE PUSH1 0x20 ADD PUSH1 0x0 KECCAK256 PUSH1 0x0 PUSH2 0x100 EXP DUP2 SLOAD DUP2 PUSH1 0xFF MUL NOT AND SWAP1 DUP4 ISZERO ISZERO MUL OR SWAP1 SSTORE POP PUSH3 0x3F480 TIMESTAMP PUSH3 0x79D SWAP2 SWAP1 PUSH3 0x11DC JUMP JUMPDEST DUP11 DUP3 DUP2 MLOAD DUP2 LT PUSH3 0x7D7 JUMPI PUSH32 0x4E487B7100000000000000000000000000000000000000000000000000000000 PUSH1 0x0 MSTORE PUSH1 0x32 PUSH1 0x4 MSTORE PUSH1 0x24 PUSH1 0x0 REVERT JUMPDEST PUSH1 0x20 MUL PUSH1 0x20 ADD ADD MLOAD LT ISZERO PUSH3 0x823 JUMPI PUSH1 0x40 MLOAD PUSH32 0x8C379A000000000000000000000000000000000000000000000000000000000 DUP2 MSTORE PUSH1 0x4 ADD PUSH3 0x81A SWAP1 PUSH3 0x1035 JUMP JUMPDEST PUSH1 0x40 MLOAD DUP1 SWAP2 SUB SWAP1 REVERT JUMPDEST DUP10 DUP2 DUP2 MLOAD DUP2 LT PUSH3 0x85D JUMPI PUSH32 0x4E487B7100000000000000000000000000000000000000000000000000000000 PUSH1 0x0 MSTORE PUSH1 0x32 PUSH1 0x4 MSTORE PUSH1 0x24 PUSH1 0x0 REVERT JUMPDEST PUSH1 0x20 MUL PUSH1 0x20 ADD ADD MLOAD PUSH1 0x8 PUSH1 0x0 DUP11 DUP5 DUP2 MLOAD DUP2 LT PUSH3 0x8A3 JUMPI PUSH32 0x4E487B7100000000000000000000000000000000000000000000000000000000 PUSH1 0x0 MSTORE PUSH1 0x32 PUSH1 0x4 MSTORE PUSH1 0x24 PUSH1 0x0 REVERT JUMPDEST PUSH1 0x20 MUL PUSH1 0x20 ADD ADD MLOAD DUP2 MSTORE PUSH1 0x20 ADD SWAP1 DUP2 MSTORE PUSH1 0x20 ADD PUSH1 0x0 KECCAK256 DUP2 SWAP1 SSTORE POP DUP11 DUP2 DUP2 MLOAD DUP2 LT PUSH3 0x8F7 JUMPI PUSH32 0x4E487B7100000000000000000000000000000000000000000000000000000000 PUSH1 0x0 MSTORE PUSH1 0x32 PUSH1 0x4 MSTORE PUSH1 0x24 PUSH1 0x0 REVERT JUMPDEST PUSH1 0x20 MUL PUSH1 0x20 ADD ADD MLOAD PUSH1 0x7 PUSH1 0x0 DUP11 DUP5 DUP2 MLOAD DUP2 LT PUSH3 0x93D JUMPI PUSH32 0x4E487B7100000000000000000000000000000000000000000000000000000000 PUSH1 0x0 MSTORE PUSH1 0x32 PUSH1 0x4 MSTORE PUSH1 0x24 PUSH1 0x0 REVERT JUMPDEST PUSH1 0x20 MUL PUSH1 0x20 ADD ADD MLOAD DUP2 MSTORE PUSH1 0x20 ADD SWAP1 DUP2 MSTORE PUSH1 0x20 ADD PUSH1 0x0 KECCAK256 DUP2 SWAP1 SSTORE POP DUP1 DUP1 PUSH3 0x964 SWAP1 PUSH3 0x12DB JUMP JUMPDEST SWAP2 POP POP PUSH3 0x715 JUMP JUMPDEST POP PUSH1 0xA PUSH1 0x5 ADD DUP1 SLOAD SWAP1 POP PUSH1 0xFF AND PUSH1 0xA PUSH1 0x0 ADD PUSH1 0x6 PUSH2 0x100 EXP DUP2 SLOAD DUP2 PUSH2 0xFFFF MUL NOT AND SWAP1 DUP4 PUSH2 0xFFFF AND MUL OR SWAP1 SSTORE POP PUSH1 0x0 PUSH1 0xA PUSH1 0x0 ADD PUSH1 0x4 PUSH2 0x100 EXP DUP2 SLOAD DUP2 PUSH2 0xFFFF MUL NOT AND SWAP1 DUP4 PUSH2 0xFFFF AND MUL OR SWAP1 SSTORE POP POP POP POP POP POP POP POP POP POP POP PUSH3 0x15C6 JUMP JUMPDEST DUP3 DUP1 SLOAD PUSH3 0x9D8 SWAP1 PUSH3 0x126F JUMP JUMPDEST SWAP1 PUSH1 0x0 MSTORE PUSH1 0x20 PUSH1 0x0 KECCAK256 SWAP1 PUSH1 0x1F ADD PUSH1 0x20 SWAP1 DIV DUP2 ADD SWAP3 DUP3 PUSH3 0x9FC JUMPI PUSH1 0x0 DUP6 SSTORE PUSH3 0xA48 JUMP JUMPDEST DUP3 PUSH1 0x1F LT PUSH3 0xA17 JUMPI DUP1 MLOAD PUSH1 0xFF NOT AND DUP4 DUP1 ADD OR DUP6 SSTORE PUSH3 0xA48 JUMP JUMPDEST DUP3 DUP1 ADD PUSH1 0x1 ADD DUP6 SSTORE DUP3 ISZERO PUSH3 0xA48 JUMPI SWAP2 DUP3 ADD JUMPDEST DUP3 DUP2 GT ISZERO PUSH3 0xA47 JUMPI DUP3 MLOAD DUP3 SSTORE SWAP2 PUSH1 0x20 ADD SWAP2 SWAP1 PUSH1 0x1 ADD SWAP1 PUSH3 0xA2A JUMP JUMPDEST JUMPDEST POP SWAP1 POP PUSH3 0xA57 SWAP2 SWAP1 PUSH3 0xAAD JUMP JUMPDEST POP SWAP1 JUMP JUMPDEST DUP3 DUP1 SLOAD DUP3 DUP3 SSTORE SWAP1 PUSH1 0x0 MSTORE PUSH1 0x20 PUSH1 0x0 KECCAK256 SWAP1 DUP2 ADD SWAP3 DUP3 ISZERO PUSH3 0xA9A JUMPI SWAP2 PUSH1 0x20 MUL DUP3 ADD JUMPDEST DUP3 DUP2 GT ISZERO PUSH3 0xA99 JUMPI DUP3 MLOAD DUP3 SSTORE SWAP2 PUSH1 0x20 ADD SWAP2 SWAP1 PUSH1 0x1 ADD SWAP1 PUSH3 0xA7C JUMP JUMPDEST JUMPDEST POP SWAP1 POP PUSH3 0xAA9 SWAP2 SWAP1 PUSH3 0xACC JUMP JUMPDEST POP SWAP1 JUMP JUMPDEST JUMPDEST DUP1 DUP3 GT ISZERO PUSH3 0xAC8 JUMPI PUSH1 0x0 DUP2 PUSH1 0x0 SWAP1 SSTORE POP PUSH1 0x1 ADD PUSH3 0xAAE JUMP JUMPDEST POP SWAP1 JUMP JUMPDEST JUMPDEST DUP1 DUP3 GT ISZERO PUSH3 0xAE7 JUMPI PUSH1 0x0 DUP2 PUSH1 0x0 SWAP1 SSTORE POP PUSH1 0x1 ADD PUSH3 0xACD JUMP JUMPDEST POP SWAP1 JUMP JUMPDEST PUSH1 0x0 PUSH3 0xB02 PUSH3 0xAFC DUP5 PUSH3 0x1108 JUMP JUMPDEST PUSH3 0x10DF JUMP JUMPDEST SWAP1 POP DUP1 DUP4 DUP3 MSTORE PUSH1 0x20 DUP3 ADD SWAP1 POP DUP3 DUP6 PUSH1 0x20 DUP7 MUL DUP3 ADD GT ISZERO PUSH3 0xB22 JUMPI PUSH1 0x0 DUP1 REVERT JUMPDEST PUSH1 0x0 JUMPDEST DUP6 DUP2 LT ISZERO PUSH3 0xB56 JUMPI DUP2 PUSH3 0xB3B DUP9 DUP3 PUSH3 0xD16 JUMP JUMPDEST DUP5 MSTORE PUSH1 0x20 DUP5 ADD SWAP4 POP PUSH1 0x20 DUP4 ADD SWAP3 POP POP PUSH1 0x1 DUP2 ADD SWAP1 POP PUSH3 0xB25 JUMP JUMPDEST POP POP POP SWAP4 SWAP3 POP POP POP JUMP JUMPDEST PUSH1 0x0 PUSH3 0xB77 PUSH3 0xB71 DUP5 PUSH3 0x1137 JUMP JUMPDEST PUSH3 0x10DF JUMP JUMPDEST SWAP1 POP DUP1 DUP4 DUP3 MSTORE PUSH1 0x20 DUP3 ADD SWAP1 POP DUP3 DUP6 PUSH1 0x20 DUP7 MUL DUP3 ADD GT ISZERO PUSH3 0xB97 JUMPI PUSH1 0x0 DUP1 REVERT JUMPDEST PUSH1 0x0 JUMPDEST DUP6 DUP2 LT ISZERO PUSH3 0xBCB JUMPI DUP2 PUSH3 0xBB0 DUP9 DUP3 PUSH3 0xD5A JUMP JUMPDEST DUP5 MSTORE PUSH1 0x20 DUP5 ADD SWAP4 POP PUSH1 0x20 DUP4 ADD SWAP3 POP POP PUSH1 0x1 DUP2 ADD SWAP1 POP PUSH3 0xB9A JUMP JUMPDEST POP POP POP SWAP4 SWAP3 POP POP POP JUMP JUMPDEST PUSH1 0x0 PUSH3 0xBEC PUSH3 0xBE6 DUP5 PUSH3 0x1166 JUMP JUMPDEST PUSH3 0x10DF JUMP JUMPDEST SWAP1 POP DUP1 DUP4 DUP3 MSTORE PUSH1 0x20 DUP3 ADD SWAP1 POP DUP3 DUP6 PUSH1 0x20 DUP7 MUL DUP3 ADD GT ISZERO PUSH3 0xC0C JUMPI PUSH1 0x0 DUP1 REVERT JUMPDEST PUSH1 0x0 JUMPDEST DUP6 DUP2 LT ISZERO PUSH3 0xC40 JUMPI DUP2 PUSH3 0xC25 DUP9 DUP3 PUSH3 0xD71 JUMP JUMPDEST DUP5 MSTORE PUSH1 0x20 DUP5 ADD SWAP4 POP PUSH1 0x20 DUP4 ADD SWAP3 POP POP PUSH1 0x1 DUP2 ADD SWAP1 POP PUSH3 0xC0F JUMP JUMPDEST POP POP POP SWAP4 SWAP3 POP POP POP JUMP JUMPDEST PUSH1 0x0 PUSH3 0xC61 PUSH3 0xC5B DUP5 PUSH3 0x1195 JUMP JUMPDEST PUSH3 0x10DF JUMP JUMPDEST SWAP1 POP DUP3 DUP2 MSTORE PUSH1 0x20 DUP2 ADD DUP5 DUP5 DUP5 ADD GT ISZERO PUSH3 0xC7A JUMPI PUSH1 0x0 DUP1 REVERT JUMPDEST PUSH3 0xC87 DUP5 DUP3 DUP6 PUSH3 0x1239 JUMP JUMPDEST POP SWAP4 SWAP3 POP POP POP JUMP JUMPDEST PUSH1 0x0 DUP3 PUSH1 0x1F DUP4 ADD SLT PUSH3 0xCA1 JUMPI PUSH1 0x0 DUP1 REVERT JUMPDEST DUP2 MLOAD PUSH3 0xCB3 DUP5 DUP3 PUSH1 0x20 DUP7 ADD PUSH3 0xAEB JUMP JUMPDEST SWAP2 POP POP SWAP3 SWAP2 POP POP JUMP JUMPDEST PUSH1 0x0 DUP3 PUSH1 0x1F DUP4 ADD SLT PUSH3 0xCCE JUMPI PUSH1 0x0 DUP1 REVERT JUMPDEST DUP2 MLOAD PUSH3 0xCE0 DUP5 DUP3 PUSH1 0x20 DUP7 ADD PUSH3 0xB60 JUMP JUMPDEST SWAP2 POP POP SWAP3 SWAP2 POP POP JUMP JUMPDEST PUSH1 0x0 DUP3 PUSH1 0x1F DUP4 ADD SLT PUSH3 0xCFB JUMPI PUSH1 0x0 DUP1 REVERT JUMPDEST DUP2 MLOAD PUSH3 0xD0D DUP5 DUP3 PUSH1 0x20 DUP7 ADD PUSH3 0xBD5 JUMP JUMPDEST SWAP2 POP POP SWAP3 SWAP2 POP POP JUMP JUMPDEST PUSH1 0x0 DUP2 MLOAD SWAP1 POP PUSH3 0xD27 DUP2 PUSH3 0x1578 JUMP JUMPDEST SWAP3 SWAP2 POP POP JUMP JUMPDEST PUSH1 0x0 DUP3 PUSH1 0x1F DUP4 ADD SLT PUSH3 0xD3F JUMPI PUSH1 0x0 DUP1 REVERT JUMPDEST DUP2 MLOAD PUSH3 0xD51 DUP5 DUP3 PUSH1 0x20 DUP7 ADD PUSH3 0xC4A JUMP JUMPDEST SWAP2 POP POP SWAP3 SWAP2 POP POP JUMP JUMPDEST PUSH1 0x0 DUP2 MLOAD SWAP1 POP PUSH3 0xD6B DUP2 PUSH3 0x1592 JUMP JUMPDEST SWAP3 SWAP2 POP POP JUMP JUMPDEST PUSH1 0x0 DUP2 MLOAD SWAP1 POP PUSH3 0xD82 DUP2 PUSH3 0x15AC JUMP JUMPDEST SWAP3 SWAP2 POP POP JUMP JUMPDEST PUSH1 0x0 DUP1 PUSH1 0x0 DUP1 PUSH1 0x0 DUP1 PUSH1 0x0 DUP1 PUSH1 0x0 DUP1 PUSH2 0x140 DUP12 DUP14 SUB SLT ISZERO PUSH3 0xDA9 JUMPI PUSH1 0x0 DUP1 REVERT JUMPDEST PUSH1 0x0 DUP12 ADD MLOAD PUSH8 0xFFFFFFFFFFFFFFFF DUP2 GT ISZERO PUSH3 0xDC4 JUMPI PUSH1 0x0 DUP1 REVERT JUMPDEST PUSH3 0xDD2 DUP14 DUP3 DUP15 ADD PUSH3 0xC8F JUMP JUMPDEST SWAP11 POP POP PUSH1 0x20 DUP12 ADD MLOAD PUSH8 0xFFFFFFFFFFFFFFFF DUP2 GT ISZERO PUSH3 0xDF0 JUMPI PUSH1 0x0 DUP1 REVERT JUMPDEST PUSH3 0xDFE DUP14 DUP3 DUP15 ADD PUSH3 0xCE9 JUMP JUMPDEST SWAP10 POP POP PUSH1 0x40 DUP12 ADD MLOAD PUSH8 0xFFFFFFFFFFFFFFFF DUP2 GT ISZERO PUSH3 0xE1C JUMPI PUSH1 0x0 DUP1 REVERT JUMPDEST PUSH3 0xE2A DUP14 DUP3 DUP15 ADD PUSH3 0xC8F JUMP JUMPDEST SWAP9 POP POP PUSH1 0x60 DUP12 ADD MLOAD PUSH8 0xFFFFFFFFFFFFFFFF DUP2 GT ISZERO PUSH3 0xE48 JUMPI PUSH1 0x0 DUP1 REVERT JUMPDEST PUSH3 0xE56 DUP14 DUP3 DUP15 ADD PUSH3 0xC8F JUMP JUMPDEST SWAP8 POP POP PUSH1 0x80 DUP12 ADD MLOAD PUSH8 0xFFFFFFFFFFFFFFFF DUP2 GT ISZERO PUSH3 0xE74 JUMPI PUSH1 0x0 DUP1 REVERT JUMPDEST PUSH3 0xE82 DUP14 DUP3 DUP15 ADD PUSH3 0xCE9 JUMP JUMPDEST SWAP7 POP POP PUSH1 0xA0 DUP12 ADD MLOAD PUSH8 0xFFFFFFFFFFFFFFFF DUP2 GT ISZERO PUSH3 0xEA0 JUMPI PUSH1 0x0 DUP1 REVERT JUMPDEST PUSH3 0xEAE DUP14 DUP3 DUP15 ADD PUSH3 0xCBC JUMP JUMPDEST SWAP6 POP POP PUSH1 0xC0 DUP12 ADD MLOAD PUSH8 0xFFFFFFFFFFFFFFFF DUP2 GT ISZERO PUSH3 0xECC JUMPI PUSH1 0x0 DUP1 REVERT JUMPDEST PUSH3 0xEDA DUP14 DUP3 DUP15 ADD PUSH3 0xC8F JUMP JUMPDEST SWAP5 POP POP PUSH1 0xE0 DUP12 ADD MLOAD PUSH8 0xFFFFFFFFFFFFFFFF DUP2 GT ISZERO PUSH3 0xEF8 JUMPI PUSH1 0x0 DUP1 REVERT JUMPDEST PUSH3 0xF06 DUP14 DUP3 DUP15 ADD PUSH3 0xD2D JUMP JUMPDEST SWAP4 POP POP PUSH2 0x100 DUP12 ADD MLOAD PUSH8 0xFFFFFFFFFFFFFFFF DUP2 GT ISZERO PUSH3 0xF25 JUMPI PUSH1 0x0 DUP1 REVERT JUMPDEST PUSH3 0xF33 DUP14 DUP3 DUP15 ADD PUSH3 0xD2D JUMP JUMPDEST SWAP3 POP POP PUSH2 0x120 DUP12 ADD MLOAD PUSH8 0xFFFFFFFFFFFFFFFF DUP2 GT ISZERO PUSH3 0xF52 JUMPI PUSH1 0x0 DUP1 REVERT JUMPDEST PUSH3 0xF60 DUP14 DUP3 DUP15 ADD PUSH3 0xD2D JUMP JUMPDEST SWAP2 POP POP SWAP3 SWAP6 SWAP9 SWAP12 SWAP2 SWAP5 SWAP8 SWAP11 POP SWAP3 SWAP6 SWAP9 POP JUMP JUMPDEST PUSH1 0x0 PUSH3 0xF81 PUSH1 0x39 DUP4 PUSH3 0x11CB JUMP JUMPDEST SWAP2 POP PUSH3 0xF8E DUP3 PUSH3 0x13C7 JUMP JUMPDEST PUSH1 0x40 DUP3 ADD SWAP1 POP SWAP2 SWAP1 POP JUMP JUMPDEST PUSH1 0x0 PUSH3 0xFA8 PUSH1 0x4A DUP4 PUSH3 0x11CB JUMP JUMPDEST SWAP2 POP PUSH3 0xFB5 DUP3 PUSH3 0x1416 JUMP JUMPDEST PUSH1 0x60 DUP3 ADD SWAP1 POP SWAP2 SWAP1 POP JUMP JUMPDEST PUSH1 0x0 PUSH3 0xFCF PUSH1 0x24 DUP4 PUSH3 0x11CB JUMP JUMPDEST SWAP2 POP PUSH3 0xFDC DUP3 PUSH3 0x148B JUMP JUMPDEST PUSH1 0x40 DUP3 ADD SWAP1 POP SWAP2 SWAP1 POP JUMP JUMPDEST PUSH1 0x0 PUSH3 0xFF6 PUSH1 0x30 DUP4 PUSH3 0x11CB JUMP JUMPDEST SWAP2 POP PUSH3 0x1003 DUP3 PUSH3 0x14DA JUMP JUMPDEST PUSH1 0x40 DUP3 ADD SWAP1 POP SWAP2 SWAP1 POP JUMP JUMPDEST PUSH1 0x0 PUSH3 0x101D PUSH1 0x40 DUP4 PUSH3 0x11CB JUMP JUMPDEST SWAP2 POP PUSH3 0x102A DUP3 PUSH3 0x1529 JUMP JUMPDEST PUSH1 0x40 DUP3 ADD SWAP1 POP SWAP2 SWAP1 POP JUMP JUMPDEST PUSH1 0x0 PUSH1 0x20 DUP3 ADD SWAP1 POP DUP2 DUP2 SUB PUSH1 0x0 DUP4 ADD MSTORE PUSH3 0x1050 DUP2 PUSH3 0xF72 JUMP JUMPDEST SWAP1 POP SWAP2 SWAP1 POP JUMP JUMPDEST PUSH1 0x0 PUSH1 0x20 DUP3 ADD SWAP1 POP DUP2 DUP2 SUB PUSH1 0x0 DUP4 ADD MSTORE PUSH3 0x1072 DUP2 PUSH3 0xF99 JUMP JUMPDEST SWAP1 POP SWAP2 SWAP1 POP JUMP JUMPDEST PUSH1 0x0 PUSH1 0x20 DUP3 ADD SWAP1 POP DUP2 DUP2 SUB PUSH1 0x0 DUP4 ADD MSTORE PUSH3 0x1094 DUP2 PUSH3 0xFC0 JUMP JUMPDEST SWAP1 POP SWAP2 SWAP1 POP JUMP JUMPDEST PUSH1 0x0 PUSH1 0x20 DUP3 ADD SWAP1 POP DUP2 DUP2 SUB PUSH1 0x0 DUP4 ADD MSTORE PUSH3 0x10B6 DUP2 PUSH3 0xFE7 JUMP JUMPDEST SWAP1 POP SWAP2 SWAP1 POP JUMP JUMPDEST PUSH1 0x0 PUSH1 0x20 DUP3 ADD SWAP1 POP DUP2 DUP2 SUB PUSH1 0x0 DUP4 ADD MSTORE PUSH3 0x10D8 DUP2 PUSH3 0x100E JUMP JUMPDEST SWAP1 POP SWAP2 SWAP1 POP JUMP JUMPDEST PUSH1 0x0 PUSH3 0x10EB PUSH3 0x10FE JUMP JUMPDEST SWAP1 POP PUSH3 0x10F9 DUP3 DUP3 PUSH3 0x12A5 JUMP JUMPDEST SWAP2 SWAP1 POP JUMP JUMPDEST PUSH1 0x0 PUSH1 0x40 MLOAD SWAP1 POP SWAP1 JUMP JUMPDEST PUSH1 0x0 PUSH8 0xFFFFFFFFFFFFFFFF DUP3 GT ISZERO PUSH3 0x1126 JUMPI PUSH3 0x1125 PUSH3 0x1387 JUMP JUMPDEST JUMPDEST PUSH1 0x20 DUP3 MUL SWAP1 POP PUSH1 0x20 DUP2 ADD SWAP1 POP SWAP2 SWAP1 POP JUMP JUMPDEST PUSH1 0x0 PUSH8 0xFFFFFFFFFFFFFFFF DUP3 GT ISZERO PUSH3 0x1155 JUMPI PUSH3 0x1154 PUSH3 0x1387 JUMP JUMPDEST JUMPDEST PUSH1 0x20 DUP3 MUL SWAP1 POP PUSH1 0x20 DUP2 ADD SWAP1 POP SWAP2 SWAP1 POP JUMP JUMPDEST PUSH1 0x0 PUSH8 0xFFFFFFFFFFFFFFFF DUP3 GT ISZERO PUSH3 0x1184 JUMPI PUSH3 0x1183 PUSH3 0x1387 JUMP JUMPDEST JUMPDEST PUSH1 0x20 DUP3 MUL SWAP1 POP PUSH1 0x20 DUP2 ADD SWAP1 POP SWAP2 SWAP1 POP JUMP JUMPDEST PUSH1 0x0 PUSH8 0xFFFFFFFFFFFFFFFF DUP3 GT ISZERO PUSH3 0x11B3 JUMPI PUSH3 0x11B2 PUSH3 0x1387 JUMP JUMPDEST JUMPDEST PUSH3 0x11BE DUP3 PUSH3 0x13B6 JUMP JUMPDEST SWAP1 POP PUSH1 0x20 DUP2 ADD SWAP1 POP SWAP2 SWAP1 POP JUMP JUMPDEST PUSH1 0x0 DUP3 DUP3 MSTORE PUSH1 0x20 DUP3 ADD SWAP1 POP SWAP3 SWAP2 POP POP JUMP JUMPDEST PUSH1 0x0 PUSH3 0x11E9 DUP3 PUSH3 0x122F JUMP JUMPDEST SWAP2 POP PUSH3 0x11F6 DUP4 PUSH3 0x122F JUMP JUMPDEST SWAP3 POP DUP3 DUP3 LT ISZERO PUSH3 0x120C JUMPI PUSH3 0x120B PUSH3 0x1329 JUMP JUMPDEST JUMPDEST DUP3 DUP3 SUB SWAP1 POP SWAP3 SWAP2 POP POP JUMP JUMPDEST PUSH1 0x0 DUP2 SWAP1 POP SWAP2 SWAP1 POP JUMP JUMPDEST PUSH1 0x0 PUSH2 0xFFFF DUP3 AND SWAP1 POP SWAP2 SWAP1 POP JUMP JUMPDEST PUSH1 0x0 DUP2 SWAP1 POP SWAP2 SWAP1 POP JUMP JUMPDEST PUSH1 0x0 JUMPDEST DUP4 DUP2 LT ISZERO PUSH3 0x1259 JUMPI DUP1 DUP3 ADD MLOAD DUP2 DUP5 ADD MSTORE PUSH1 0x20 DUP2 ADD SWAP1 POP PUSH3 0x123C JUMP JUMPDEST DUP4 DUP2 GT ISZERO PUSH3 0x1269 JUMPI PUSH1 0x0 DUP5 DUP5 ADD MSTORE JUMPDEST POP POP POP POP JUMP JUMPDEST PUSH1 0x0 PUSH1 0x2 DUP3 DIV SWAP1 POP PUSH1 0x1 DUP3 AND DUP1 PUSH3 0x1288 JUMPI PUSH1 0x7F DUP3 AND SWAP2 POP JUMPDEST PUSH1 0x20 DUP3 LT DUP2 EQ ISZERO PUSH3 0x129F JUMPI PUSH3 0x129E PUSH3 0x1358 JUMP JUMPDEST JUMPDEST POP SWAP2 SWAP1 POP JUMP JUMPDEST PUSH3 0x12B0 DUP3 PUSH3 0x13B6 JUMP JUMPDEST DUP2 ADD DUP2 DUP2 LT PUSH8 0xFFFFFFFFFFFFFFFF DUP3 GT OR ISZERO PUSH3 0x12D2 JUMPI PUSH3 0x12D1 PUSH3 0x1387 JUMP JUMPDEST JUMPDEST DUP1 PUSH1 0x40 MSTORE POP POP POP JUMP JUMPDEST PUSH1 0x0 PUSH3 0x12E8 DUP3 PUSH3 0x122F JUMP JUMPDEST SWAP2 POP PUSH32 0xFFFFFFFFFFFFFFFFFFFFFFFFFFFFFFFFFFFFFFFFFFFFFFFFFFFFFFFFFFFFFFFF DUP3 EQ ISZERO PUSH3 0x131E JUMPI PUSH3 0x131D PUSH3 0x1329 JUMP JUMPDEST JUMPDEST PUSH1 0x1 DUP3 ADD SWAP1 POP SWAP2 SWAP1 POP JUMP JUMPDEST PUSH32 0x4E487B7100000000000000000000000000000000000000000000000000000000 PUSH1 0x0 MSTORE PUSH1 0x11 PUSH1 0x4 MSTORE PUSH1 0x24 PUSH1 0x0 REVERT JUMPDEST PUSH32 0x4E487B7100000000000000000000000000000000000000000000000000000000 PUSH1 0x0 MSTORE PUSH1 0x22 PUSH1 0x4 MSTORE PUSH1 0x24 PUSH1 0x0 REVERT JUMPDEST PUSH32 0x4E487B7100000000000000000000000000000000000000000000000000000000 PUSH1 0x0 MSTORE PUSH1 0x41 PUSH1 0x4 MSTORE PUSH1 0x24 PUSH1 0x0 REVERT JUMPDEST PUSH1 0x0 PUSH1 0x1F NOT PUSH1 0x1F DUP4 ADD AND SWAP1 POP SWAP2 SWAP1 POP JUMP JUMPDEST PUSH32 0x436865636B20746861742070726576696F75732050435220686173206265656E PUSH1 0x0 DUP3 ADD MSTORE PUSH32 0x206E6F206D6F7265207468616E203320646179732061676F2E00000000000000 PUSH1 0x20 DUP3 ADD MSTORE POP JUMP JUMPDEST PUSH32 0x596F75206861766520746F2070726F766964652074686520616D6F756E74206F PUSH1 0x0 DUP3 ADD MSTORE PUSH32 0x662064617920636F6D70656E736174696F6E20616E6420746865206E756D6265 PUSH1 0x20 DUP3 ADD MSTORE PUSH32 0x72206F6620646179732E00000000000000000000000000000000000000000000 PUSH1 0x40 DUP3 ADD MSTORE POP JUMP JUMPDEST PUSH32 0x4D7573742070726F7669646520506F6C69637920494420616E642054616B6572 PUSH1 0x0 DUP3 ADD MSTORE PUSH32 0x2049442E00000000000000000000000000000000000000000000000000000000 PUSH1 0x20 DUP3 ADD MSTORE POP JUMP JUMPDEST PUSH32 0x54686520737461727420646174652068617320746F206265206265666F726520 PUSH1 0x0 DUP3 ADD MSTORE PUSH32 0x7468652066696E69736820646174652E00000000000000000000000000000000 PUSH1 0x20 DUP3 ADD MSTORE POP JUMP JUMPDEST PUSH32 0x54686520506F6C696379206E656564206120737461727420646174652C206120 PUSH1 0x0 DUP3 ADD MSTORE PUSH32 0x66696E697368206461746520616E64206120636F6E747261637420646174652E PUSH1 0x20 DUP3 ADD MSTORE POP JUMP JUMPDEST PUSH3 0x1583 DUP2 PUSH3 0x1217 JUMP JUMPDEST DUP2 EQ PUSH3 0x158F JUMPI PUSH1 0x0 DUP1 REVERT JUMPDEST POP JUMP JUMPDEST PUSH3 0x159D DUP2 PUSH3 0x1221 JUMP JUMPDEST DUP2 EQ PUSH3 0x15A9 JUMPI PUSH1 0x0 DUP1 REVERT JUMPDEST POP JUMP JUMPDEST PUSH3 0x15B7 DUP2 PUSH3 0x122F JUMP JUMPDEST DUP2 EQ PUSH3 0x15C3 JUMPI PUSH1 0x0 DUP1 REVERT JUMPDEST POP JUMP JUMPDEST PUSH2 0x2653 DUP1 PUSH3 0x15D6 PUSH1 0x0 CODECOPY PUSH1 0x0 RETURN INVALID PUSH1 0x80 PUSH1 0x40 MSTORE CALLVALUE DUP1 ISZERO PUSH2 0x10 JUMPI PUSH1 0x0 DUP1 REVERT JUMPDEST POP PUSH1 0x4 CALLDATASIZE LT PUSH2 0xCF JUMPI PUSH1 0x0 CALLDATALOAD PUSH1 0xE0 SHR DUP1 PUSH4 0x40D5FF58 GT PUSH2 0x8C JUMPI DUP1 PUSH4 0x92ED93D0 GT PUSH2 0x66 JUMPI DUP1 PUSH4 0x92ED93D0 EQ PUSH2 0x1F2 JUMPI DUP1 PUSH4 0x9499E018 EQ PUSH2 0x216 JUMPI DUP1 PUSH4 0xE0CAF0BD EQ PUSH2 0x220 JUMPI DUP1 PUSH4 0xFC1C7A70 EQ PUSH2 0x248 JUMPI PUSH2 0xCF JUMP JUMPDEST DUP1 PUSH4 0x40D5FF58 EQ PUSH2 0x19A JUMPI DUP1 PUSH4 0x5D1CA631 EQ PUSH2 0x1A4 JUMPI DUP1 PUSH4 0x62A681B3 EQ PUSH2 0x1C2 JUMPI PUSH2 0xCF JUMP JUMPDEST DUP1 PUSH4 0x121B5A25 EQ PUSH2 0xD4 JUMPI DUP1 PUSH4 0x169E68C3 EQ PUSH2 0xF2 JUMPI DUP1 PUSH4 0x2357AEF3 EQ PUSH2 0x127 JUMPI DUP1 PUSH4 0x236F45D9 EQ PUSH2 0x143 JUMPI DUP1 PUSH4 0x297E6306 EQ PUSH2 0x162 JUMPI DUP1 PUSH4 0x2F0519D4 EQ PUSH2 0x17E JUMPI JUMPDEST PUSH1 0x0 DUP1 REVERT JUMPDEST PUSH2 0xDC PUSH2 0x266 JUMP JUMPDEST PUSH1 0x40 MLOAD PUSH2 0xE9 SWAP2 SWAP1 PUSH2 0x20E8 JUMP JUMPDEST PUSH1 0x40 MLOAD DUP1 SWAP2 SUB SWAP1 RETURN JUMPDEST PUSH2 0x10C PUSH1 0x4 DUP1 CALLDATASIZE SUB DUP2 ADD SWAP1 PUSH2 0x107 SWAP2 SWAP1 PUSH2 0x1B89 JUMP JUMPDEST PUSH2 0x2C1 JUMP JUMPDEST PUSH1 0x40 MLOAD PUSH2 0x11E SWAP7 SWAP6 SWAP5 SWAP4 SWAP3 SWAP2 SWAP1 PUSH2 0x1F38 JUMP JUMPDEST PUSH1 0x40 MLOAD DUP1 SWAP2 SUB SWAP1 RETURN JUMPDEST PUSH2 0x141 PUSH1 0x4 DUP1 CALLDATASIZE SUB DUP2 ADD SWAP1 PUSH2 0x13C SWAP2 SWAP1 PUSH2 0x1BB2 JUMP JUMPDEST PUSH2 0x3E9 JUMP JUMPDEST STOP JUMPDEST PUSH2 0x14B PUSH2 0x535 JUMP JUMPDEST PUSH1 0x40 MLOAD PUSH2 0x159 SWAP3 SWAP2 SWAP1 PUSH2 0x2038 JUMP JUMPDEST PUSH1 0x40 MLOAD DUP1 SWAP2 SUB SWAP1 RETURN JUMPDEST PUSH2 0x17C PUSH1 0x4 DUP1 CALLDATASIZE SUB DUP2 ADD SWAP1 PUSH2 0x177 SWAP2 SWAP1 PUSH2 0x1B60 JUMP JUMPDEST PUSH2 0x1192 JUMP JUMPDEST STOP JUMPDEST PUSH2 0x198 PUSH1 0x4 DUP1 CALLDATASIZE SUB DUP2 ADD SWAP1 PUSH2 0x193 SWAP2 SWAP1 PUSH2 0x1BEE JUMP JUMPDEST PUSH2 0x120A JUMP JUMPDEST STOP JUMPDEST PUSH2 0x1A2 PUSH2 0x14AE JUMP JUMPDEST STOP JUMPDEST PUSH2 0x1AC PUSH2 0x1553 JUMP JUMPDEST PUSH1 0x40 MLOAD PUSH2 0x1B9 SWAP2 SWAP1 PUSH2 0x1E5D JUMP JUMPDEST PUSH1 0x40 MLOAD DUP1 SWAP2 SUB SWAP1 RETURN JUMPDEST PUSH2 0x1DC PUSH1 0x4 DUP1 CALLDATASIZE SUB DUP2 ADD SWAP1 PUSH2 0x1D7 SWAP2 SWAP1 PUSH2 0x1B89 JUMP JUMPDEST PUSH2 0x1560 JUMP JUMPDEST PUSH1 0x40 MLOAD PUSH2 0x1E9 SWAP2 SWAP1 PUSH2 0x1E42 JUMP JUMPDEST PUSH1 0x40 MLOAD DUP1 SWAP2 SUB SWAP1 RETURN JUMPDEST PUSH2 0x1FA PUSH2 0x1670 JUMP JUMPDEST PUSH1 0x40 MLOAD PUSH2 0x20D SWAP8 SWAP7 SWAP6 SWAP5 SWAP4 SWAP3 SWAP2 SWAP1 PUSH2 0x1F99 JUMP JUMPDEST PUSH1 0x40 MLOAD DUP1 SWAP2 SUB SWAP1 RETURN JUMPDEST PUSH2 0x21E PUSH2 0x1737 JUMP JUMPDEST STOP JUMPDEST PUSH2 0x228 PUSH2 0x17C8 JUMP JUMPDEST PUSH1 0x40 MLOAD PUSH2 0x23F SWAP12 SWAP11 SWAP10 SWAP9 SWAP8 SWAP7 SWAP6 SWAP5 SWAP4 SWAP3 SWAP2 SWAP1 PUSH2 0x1E78 JUMP JUMPDEST PUSH1 0x40 MLOAD DUP1 SWAP2 SUB SWAP1 RETURN JUMPDEST PUSH2 0x250 PUSH2 0x19E0 JUMP JUMPDEST PUSH1 0x40 MLOAD PUSH2 0x25D SWAP2 SWAP1 PUSH2 0x1E5D JUMP JUMPDEST PUSH1 0x40 MLOAD DUP1 SWAP2 SUB SWAP1 RETURN JUMPDEST PUSH1 0x0 PUSH1 0xA PUSH1 0x0 ADD PUSH1 0x6 SWAP1 SLOAD SWAP1 PUSH2 0x100 EXP SWAP1 DIV PUSH2 0xFFFF AND PUSH1 0xA PUSH1 0x0 ADD PUSH1 0x2 SWAP1 SLOAD SWAP1 PUSH2 0x100 EXP SWAP1 DIV PUSH2 0xFFFF AND PUSH1 0xA PUSH1 0x0 ADD PUSH1 0x0 SWAP1 SLOAD SWAP1 PUSH2 0x100 EXP SWAP1 DIV PUSH2 0xFFFF AND PUSH2 0x2AE SWAP2 SWAP1 PUSH2 0x2214 JUMP JUMPDEST PUSH2 0x2B8 SWAP2 SWAP1 PUSH2 0x2214 JUMP JUMPDEST PUSH2 0xFFFF AND SWAP1 POP SWAP1 JUMP JUMPDEST PUSH1 0x0 DUP1 PUSH1 0x0 DUP1 PUSH1 0x0 DUP1 PUSH1 0x5 PUSH1 0x0 DUP9 DUP2 MSTORE PUSH1 0x20 ADD SWAP1 DUP2 MSTORE PUSH1 0x20 ADD PUSH1 0x0 KECCAK256 PUSH1 0x0 SWAP1 SLOAD SWAP1 PUSH2 0x100 EXP SWAP1 DIV PUSH1 0xFF AND PUSH2 0x32A JUMPI PUSH1 0x40 MLOAD PUSH32 0x8C379A000000000000000000000000000000000000000000000000000000000 DUP2 MSTORE PUSH1 0x4 ADD PUSH2 0x321 SWAP1 PUSH2 0x20C8 JUMP JUMPDEST PUSH1 0x40 MLOAD DUP1 SWAP2 SUB SWAP1 REVERT JUMPDEST PUSH1 0x9 PUSH1 0x0 DUP9 DUP2 MSTORE PUSH1 0x20 ADD SWAP1 DUP2 MSTORE PUSH1 0x20 ADD PUSH1 0x0 KECCAK256 PUSH1 0x0 ADD SLOAD PUSH1 0x9 PUSH1 0x0 DUP10 DUP2 MSTORE PUSH1 0x20 ADD SWAP1 DUP2 MSTORE PUSH1 0x20 ADD PUSH1 0x0 KECCAK256 PUSH1 0x2 ADD SLOAD PUSH1 0x9 PUSH1 0x0 DUP11 DUP2 MSTORE PUSH1 0x20 ADD SWAP1 DUP2 MSTORE PUSH1 0x20 ADD PUSH1 0x0 KECCAK256 PUSH1 0x3 ADD SLOAD PUSH1 0x9 PUSH1 0x0 DUP12 DUP2 MSTORE PUSH1 0x20 ADD SWAP1 DUP2 MSTORE PUSH1 0x20 ADD PUSH1 0x0 KECCAK256 PUSH1 0x4 ADD SLOAD PUSH1 0x9 PUSH1 0x0 DUP13 DUP2 MSTORE PUSH1 0x20 ADD SWAP1 DUP2 MSTORE PUSH1 0x20 ADD PUSH1 0x0 KECCAK256 PUSH1 0x1 ADD SLOAD PUSH1 0x9 PUSH1 0x0 DUP14 DUP2 MSTORE PUSH1 0x20 ADD SWAP1 DUP2 MSTORE PUSH1 0x20 ADD PUSH1 0x0 KECCAK256 PUSH1 0x5 ADD PUSH1 0x0 SWAP1 SLOAD SWAP1 PUSH2 0x100 EXP SWAP1 DIV PUSH20 0xFFFFFFFFFFFFFFFFFFFFFFFFFFFFFFFFFFFFFFFF AND SWAP6 POP SWAP6 POP SWAP6 POP SWAP6 POP SWAP6 POP SWAP6 POP SWAP2 SWAP4 SWAP6 POP SWAP2 SWAP4 SWAP6 JUMP JUMPDEST PUSH1 0x0 PUSH32 0x504F534954495645000000000000000000000000000000000000000000000000 SWAP1 POP PUSH1 0x0 PUSH1 0x6 PUSH1 0x0 DUP6 DUP2 MSTORE PUSH1 0x20 ADD SWAP1 DUP2 MSTORE PUSH1 0x20 ADD PUSH1 0x0 KECCAK256 SLOAD SWAP1 POP PUSH1 0x5 PUSH1 0x0 DUP6 DUP2 MSTORE PUSH1 0x20 ADD SWAP1 DUP2 MSTORE PUSH1 0x20 ADD PUSH1 0x0 KECCAK256 PUSH1 0x0 SWAP1 SLOAD SWAP1 PUSH2 0x100 EXP SWAP1 DIV PUSH1 0xFF AND PUSH2 0x486 JUMPI PUSH1 0x40 MLOAD PUSH32 0x8C379A000000000000000000000000000000000000000000000000000000000 DUP2 MSTORE PUSH1 0x4 ADD PUSH2 0x47D SWAP1 PUSH2 0x20A8 JUMP JUMPDEST PUSH1 0x40 MLOAD DUP1 SWAP2 SUB SWAP1 REVERT JUMPDEST DUP3 PUSH1 0x9 PUSH1 0x0 DUP7 DUP2 MSTORE PUSH1 0x20 ADD SWAP1 DUP2 MSTORE PUSH1 0x20 ADD PUSH1 0x0 KECCAK256 PUSH1 0x0 ADD DUP2 SWAP1 SSTORE POP TIMESTAMP PUSH1 0x9 PUSH1 0x0 DUP7 DUP2 MSTORE PUSH1 0x20 ADD SWAP1 DUP2 MSTORE PUSH1 0x20 ADD PUSH1 0x0 KECCAK256 PUSH1 0x4 ADD DUP2 SWAP1 SSTORE POP DUP2 DUP4 EQ ISZERO PUSH2 0x52F JUMPI PUSH1 0x1 PUSH1 0x1B PUSH1 0x0 PUSH2 0x100 EXP DUP2 SLOAD DUP2 PUSH1 0xFF MUL NOT AND SWAP1 DUP4 ISZERO ISZERO MUL OR SWAP1 SSTORE POP PUSH32 0x55CB01DF06BA1925769D5C9D83199624C566E9E81719D4A3D02AEE576149D7F9 DUP2 TIMESTAMP PUSH1 0x40 MLOAD PUSH2 0x510 SWAP3 SWAP2 SWAP1 PUSH2 0x200F JUMP JUMPDEST PUSH1 0x40 MLOAD DUP1 SWAP2 SUB SWAP1 LOG1 PUSH1 0xA PUSH1 0x3 ADD SLOAD TIMESTAMP LT ISZERO PUSH2 0x52E JUMPI PUSH2 0x52D PUSH2 0x14AE JUMP JUMPDEST JUMPDEST JUMPDEST POP POP POP POP JUMP JUMPDEST PUSH1 0x60 PUSH1 0x0 DUP1 PUSH2 0x5D0 PUSH1 0x10 PUSH1 0x0 ADD DUP1 SLOAD PUSH2 0x54D SWAP1 PUSH2 0x238F JUMP JUMPDEST DUP1 PUSH1 0x1F ADD PUSH1 0x20 DUP1 SWAP2 DIV MUL PUSH1 0x20 ADD PUSH1 0x40 MLOAD SWAP1 DUP2 ADD PUSH1 0x40 MSTORE DUP1 SWAP3 SWAP2 SWAP1 DUP2 DUP2 MSTORE PUSH1 0x20 ADD DUP3 DUP1 SLOAD PUSH2 0x579 SWAP1 PUSH2 0x238F JUMP JUMPDEST DUP1 ISZERO PUSH2 0x5C6 JUMPI DUP1 PUSH1 0x1F LT PUSH2 0x59B JUMPI PUSH2 0x100 DUP1 DUP4 SLOAD DIV MUL DUP4 MSTORE SWAP2 PUSH1 0x20 ADD SWAP2 PUSH2 0x5C6 JUMP JUMPDEST DUP3 ADD SWAP2 SWAP1 PUSH1 0x0 MSTORE PUSH1 0x20 PUSH1 0x0 KECCAK256 SWAP1 JUMPDEST DUP2 SLOAD DUP2 MSTORE SWAP1 PUSH1 0x1 ADD SWAP1 PUSH1 0x20 ADD DUP1 DUP4 GT PUSH2 0x5A9 JUMPI DUP3 SWAP1 SUB PUSH1 0x1F AND DUP3 ADD SWAP2 JUMPDEST POP POP POP POP POP PUSH2 0x19ED JUMP JUMPDEST SWAP1 POP PUSH1 0x0 PUSH2 0x66A PUSH1 0x10 PUSH1 0x1 ADD DUP1 SLOAD PUSH2 0x5E7 SWAP1 PUSH2 0x238F JUMP JUMPDEST DUP1 PUSH1 0x1F ADD PUSH1 0x20 DUP1 SWAP2 DIV MUL PUSH1 0x20 ADD PUSH1 0x40 MLOAD SWAP1 DUP2 ADD PUSH1 0x40 MSTORE DUP1 SWAP3 SWAP2 SWAP1 DUP2 DUP2 MSTORE PUSH1 0x20 ADD DUP3 DUP1 SLOAD PUSH2 0x613 SWAP1 PUSH2 0x238F JUMP JUMPDEST DUP1 ISZERO PUSH2 0x660 JUMPI DUP1 PUSH1 0x1F LT PUSH2 0x635 JUMPI PUSH2 0x100 DUP1 DUP4 SLOAD DIV MUL DUP4 MSTORE SWAP2 PUSH1 0x20 ADD SWAP2 PUSH2 0x660 JUMP JUMPDEST DUP3 ADD SWAP2 SWAP1 PUSH1 0x0 MSTORE PUSH1 0x20 PUSH1 0x0 KECCAK256 SWAP1 JUMPDEST DUP2 SLOAD DUP2 MSTORE SWAP1 PUSH1 0x1 ADD SWAP1 PUSH1 0x20 ADD DUP1 DUP4 GT PUSH2 0x643 JUMPI DUP3 SWAP1 SUB PUSH1 0x1F AND DUP3 ADD SWAP2 JUMPDEST POP POP POP POP POP PUSH2 0x19ED JUMP JUMPDEST SWAP1 POP PUSH1 0x0 PUSH2 0x704 PUSH1 0x10 PUSH1 0x2 ADD DUP1 SLOAD PUSH2 0x681 SWAP1 PUSH2 0x238F JUMP JUMPDEST DUP1 PUSH1 0x1F ADD PUSH1 0x20 DUP1 SWAP2 DIV MUL PUSH1 0x20 ADD PUSH1 0x40 MLOAD SWAP1 DUP2 ADD PUSH1 0x40 MSTORE DUP1 SWAP3 SWAP2 SWAP1 DUP2 DUP2 MSTORE PUSH1 0x20 ADD DUP3 DUP1 SLOAD PUSH2 0x6AD SWAP1 PUSH2 0x238F JUMP JUMPDEST DUP1 ISZERO PUSH2 0x6FA JUMPI DUP1 PUSH1 0x1F LT PUSH2 0x6CF JUMPI PUSH2 0x100 DUP1 DUP4 SLOAD DIV MUL DUP4 MSTORE SWAP2 PUSH1 0x20 ADD SWAP2 PUSH2 0x6FA JUMP JUMPDEST DUP3 ADD SWAP2 SWAP1 PUSH1 0x0 MSTORE PUSH1 0x20 PUSH1 0x0 KECCAK256 SWAP1 JUMPDEST DUP2 SLOAD DUP2 MSTORE SWAP1 PUSH1 0x1 ADD SWAP1 PUSH1 0x20 ADD DUP1 DUP4 GT PUSH2 0x6DD JUMPI DUP3 SWAP1 SUB PUSH1 0x1F AND DUP3 ADD SWAP2 JUMPDEST POP POP POP POP POP PUSH2 0x19ED JUMP JUMPDEST SWAP1 POP PUSH1 0x0 PUSH1 0x1E PUSH1 0xA PUSH1 0x0 ADD PUSH1 0x4 SWAP1 SLOAD SWAP1 PUSH2 0x100 EXP SWAP1 DIV PUSH2 0xFFFF AND PUSH1 0xA0 PUSH2 0x72A SWAP2 SWAP1 PUSH2 0x2214 JUMP JUMPDEST PUSH1 0x2 PUSH1 0xA DUP6 DUP8 DUP10 PUSH2 0x120 PUSH1 0x2 PUSH1 0xA PUSH1 0x0 ADD PUSH1 0x6 SWAP1 SLOAD SWAP1 PUSH2 0x100 EXP SWAP1 DIV PUSH2 0xFFFF AND PUSH1 0x20 PUSH2 0x756 SWAP2 SWAP1 PUSH2 0x2214 JUMP JUMPDEST PUSH2 0x760 SWAP2 SWAP1 PUSH2 0x2214 JUMP JUMPDEST PUSH1 0xA PUSH1 0x0 ADD PUSH1 0x6 SWAP1 SLOAD SWAP1 PUSH2 0x100 EXP SWAP1 DIV PUSH2 0xFFFF AND PUSH1 0x20 PUSH2 0x780 SWAP2 SWAP1 PUSH2 0x2214 JUMP JUMPDEST PUSH1 0x64 PUSH2 0x78C SWAP2 SWAP1 PUSH2 0x21AB JUMP JUMPDEST PUSH2 0x796 SWAP2 SWAP1 PUSH2 0x21AB JUMP JUMPDEST PUSH2 0x7A0 SWAP2 SWAP1 PUSH2 0x21AB JUMP JUMPDEST PUSH2 0x7AA SWAP2 SWAP1 PUSH2 0x21AB JUMP JUMPDEST PUSH2 0x7B4 SWAP2 SWAP1 PUSH2 0x21AB JUMP JUMPDEST PUSH2 0x7BE SWAP2 SWAP1 PUSH2 0x21AB JUMP JUMPDEST PUSH2 0x7C8 SWAP2 SWAP1 PUSH2 0x21AB JUMP JUMPDEST PUSH2 0x7D2 SWAP2 SWAP1 PUSH2 0x21AB JUMP JUMPDEST PUSH2 0x7DC SWAP2 SWAP1 PUSH2 0x21AB JUMP JUMPDEST PUSH2 0x7E6 SWAP2 SWAP1 PUSH2 0x21AB JUMP JUMPDEST PUSH2 0xFFFF AND SWAP1 POP DUP1 PUSH8 0xFFFFFFFFFFFFFFFF DUP2 GT ISZERO PUSH2 0x82C JUMPI PUSH32 0x4E487B7100000000000000000000000000000000000000000000000000000000 PUSH1 0x0 MSTORE PUSH1 0x41 PUSH1 0x4 MSTORE PUSH1 0x24 PUSH1 0x0 REVERT JUMPDEST PUSH1 0x40 MLOAD SWAP1 DUP1 DUP3 MSTORE DUP1 PUSH1 0x1F ADD PUSH1 0x1F NOT AND PUSH1 0x20 ADD DUP3 ADD PUSH1 0x40 MSTORE DUP1 ISZERO PUSH2 0x85E JUMPI DUP2 PUSH1 0x20 ADD PUSH1 0x1 DUP3 MUL DUP1 CALLDATASIZE DUP4 CALLDATACOPY DUP1 DUP3 ADD SWAP2 POP POP SWAP1 POP JUMPDEST POP SWAP6 POP DUP1 SWAP5 POP PUSH2 0x874 DUP2 PUSH1 0xA PUSH1 0x1 ADD SLOAD DUP9 PUSH2 0x1A45 JUMP JUMPDEST PUSH1 0x20 DUP2 PUSH2 0x881 SWAP2 SWAP1 PUSH2 0x22AA JUMP JUMPDEST SWAP1 POP PUSH2 0x893 DUP2 PUSH1 0xA PUSH1 0x2 ADD SLOAD DUP9 PUSH2 0x1A78 JUMP JUMPDEST PUSH1 0x20 DUP2 PUSH2 0x8A0 SWAP2 SWAP1 PUSH2 0x22AA JUMP JUMPDEST SWAP1 POP PUSH2 0x8B2 DUP2 PUSH1 0xA PUSH1 0x3 ADD SLOAD DUP9 PUSH2 0x1A78 JUMP JUMPDEST PUSH1 0x20 DUP2 PUSH2 0x8BF SWAP2 SWAP1 PUSH2 0x22AA JUMP JUMPDEST SWAP1 POP PUSH2 0x8D1 DUP2 PUSH1 0xA PUSH1 0x4 ADD SLOAD DUP9 PUSH2 0x1A78 JUMP JUMPDEST PUSH1 0x20 DUP2 PUSH2 0x8DE SWAP2 SWAP1 PUSH2 0x22AA JUMP JUMPDEST SWAP1 POP PUSH2 0x902 DUP2 PUSH1 0xA PUSH1 0x0 ADD PUSH1 0x0 SWAP1 SLOAD SWAP1 PUSH2 0x100 EXP SWAP1 DIV PUSH2 0xFFFF AND PUSH2 0xFFFF AND DUP9 PUSH2 0x1A78 JUMP JUMPDEST PUSH1 0x2 DUP2 PUSH2 0x90F SWAP2 SWAP1 PUSH2 0x22AA JUMP JUMPDEST SWAP1 POP PUSH2 0x933 DUP2 PUSH1 0xA PUSH1 0x0 ADD PUSH1 0x2 SWAP1 SLOAD SWAP1 PUSH2 0x100 EXP SWAP1 DIV PUSH2 0xFFFF AND PUSH2 0xFFFF AND DUP9 PUSH2 0x1A78 JUMP JUMPDEST PUSH1 0x2 DUP2 PUSH2 0x940 SWAP2 SWAP1 PUSH2 0x22AA JUMP JUMPDEST SWAP1 POP PUSH2 0x952 DUP2 PUSH1 0x10 PUSH1 0x3 ADD SLOAD DUP9 PUSH2 0x1A45 JUMP JUMPDEST PUSH1 0x20 DUP2 PUSH2 0x95F SWAP2 SWAP1 PUSH2 0x22AA JUMP JUMPDEST SWAP1 POP PUSH2 0x971 DUP2 PUSH1 0x10 PUSH1 0x4 ADD SLOAD DUP9 PUSH2 0x1A45 JUMP JUMPDEST PUSH1 0x20 DUP2 PUSH2 0x97E SWAP2 SWAP1 PUSH2 0x22AA JUMP JUMPDEST SWAP1 POP PUSH2 0x990 DUP2 PUSH1 0x10 PUSH1 0x5 ADD SLOAD DUP9 PUSH2 0x1A45 JUMP JUMPDEST PUSH1 0x20 DUP2 PUSH2 0x99D SWAP2 SWAP1 PUSH2 0x22AA JUMP JUMPDEST SWAP1 POP PUSH2 0x9AF DUP2 PUSH1 0x10 PUSH1 0x6 ADD SLOAD DUP9 PUSH2 0x1A45 JUMP JUMPDEST PUSH1 0x20 DUP2 PUSH2 0x9BC SWAP2 SWAP1 PUSH2 0x22AA JUMP JUMPDEST SWAP1 POP PUSH2 0x9CE DUP2 PUSH1 0x10 PUSH1 0x7 ADD SLOAD DUP9 PUSH2 0x1A45 JUMP JUMPDEST PUSH1 0x20 DUP2 PUSH2 0x9DB SWAP2 SWAP1 PUSH2 0x22AA JUMP JUMPDEST SWAP1 POP PUSH2 0x9ED DUP2 PUSH1 0x10 PUSH1 0x8 ADD SLOAD DUP9 PUSH2 0x1A45 JUMP JUMPDEST PUSH1 0x20 DUP2 PUSH2 0x9FA SWAP2 SWAP1 PUSH2 0x22AA JUMP JUMPDEST SWAP1 POP PUSH2 0xA0C DUP2 PUSH1 0x10 PUSH1 0x9 ADD SLOAD DUP9 PUSH2 0x1A45 JUMP JUMPDEST PUSH1 0x20 DUP2 PUSH2 0xA19 SWAP2 SWAP1 PUSH2 0x22AA JUMP JUMPDEST SWAP1 POP PUSH2 0xA2B DUP2 PUSH1 0x10 PUSH1 0xA ADD SLOAD DUP9 PUSH2 0x1A45 JUMP JUMPDEST PUSH1 0x20 DUP2 PUSH2 0xA38 SWAP2 SWAP1 PUSH2 0x22AA JUMP JUMPDEST SWAP1 POP PUSH2 0xA54 DUP2 PUSH1 0x1B PUSH1 0x0 SWAP1 SLOAD SWAP1 PUSH2 0x100 EXP SWAP1 DIV PUSH1 0xFF AND DUP9 PUSH2 0x1A82 JUMP JUMPDEST PUSH1 0x1 DUP2 PUSH2 0xA61 SWAP2 SWAP1 PUSH2 0x22AA JUMP JUMPDEST SWAP1 POP PUSH2 0xA7D DUP2 PUSH1 0x1B PUSH1 0x1 SWAP1 SLOAD SWAP1 PUSH2 0x100 EXP SWAP1 DIV PUSH1 0xFF AND DUP9 PUSH2 0x1A82 JUMP JUMPDEST PUSH1 0x1 DUP2 PUSH2 0xA8A SWAP2 SWAP1 PUSH2 0x22AA JUMP JUMPDEST SWAP1 POP PUSH2 0xA9B DUP2 DUP6 PUSH2 0xFFFF AND DUP9 PUSH2 0x1A78 JUMP JUMPDEST PUSH1 0x2 DUP2 PUSH2 0xAA8 SWAP2 SWAP1 PUSH2 0x22AA JUMP JUMPDEST SWAP1 POP PUSH2 0xB42 DUP2 PUSH1 0x10 PUSH1 0x0 ADD DUP1 SLOAD PUSH2 0xABE SWAP1 PUSH2 0x238F JUMP JUMPDEST DUP1 PUSH1 0x1F ADD PUSH1 0x20 DUP1 SWAP2 DIV MUL PUSH1 0x20 ADD PUSH1 0x40 MLOAD SWAP1 DUP2 ADD PUSH1 0x40 MSTORE DUP1 SWAP3 SWAP2 SWAP1 DUP2 DUP2 MSTORE PUSH1 0x20 ADD DUP3 DUP1 SLOAD PUSH2 0xAEA SWAP1 PUSH2 0x238F JUMP JUMPDEST DUP1 ISZERO PUSH2 0xB37 JUMPI DUP1 PUSH1 0x1F LT PUSH2 0xB0C JUMPI PUSH2 0x100 DUP1 DUP4 SLOAD DIV MUL DUP4 MSTORE SWAP2 PUSH1 0x20 ADD SWAP2 PUSH2 0xB37 JUMP JUMPDEST DUP3 ADD SWAP2 SWAP1 PUSH1 0x0 MSTORE PUSH1 0x20 PUSH1 0x0 KECCAK256 SWAP1 JUMPDEST DUP2 SLOAD DUP2 MSTORE SWAP1 PUSH1 0x1 ADD SWAP1 PUSH1 0x20 ADD DUP1 DUP4 GT PUSH2 0xB1A JUMPI DUP3 SWAP1 SUB PUSH1 0x1F AND DUP3 ADD SWAP2 JUMPDEST POP POP POP POP POP DUP9 PUSH2 0x1AA6 JUMP JUMPDEST DUP4 PUSH2 0xFFFF AND DUP2 PUSH2 0xB52 SWAP2 SWAP1 PUSH2 0x22AA JUMP JUMPDEST SWAP1 POP PUSH2 0xB63 DUP2 DUP5 PUSH2 0xFFFF AND DUP9 PUSH2 0x1A78 JUMP JUMPDEST PUSH1 0x2 DUP2 PUSH2 0xB70 SWAP2 SWAP1 PUSH2 0x22AA JUMP JUMPDEST SWAP1 POP PUSH2 0xC0A DUP2 PUSH1 0x10 PUSH1 0x1 ADD DUP1 SLOAD PUSH2 0xB86 SWAP1 PUSH2 0x238F JUMP JUMPDEST DUP1 PUSH1 0x1F ADD PUSH1 0x20 DUP1 SWAP2 DIV MUL PUSH1 0x20 ADD PUSH1 0x40 MLOAD SWAP1 DUP2 ADD PUSH1 0x40 MSTORE DUP1 SWAP3 SWAP2 SWAP1 DUP2 DUP2 MSTORE PUSH1 0x20 ADD DUP3 DUP1 SLOAD PUSH2 0xBB2 SWAP1 PUSH2 0x238F JUMP JUMPDEST DUP1 ISZERO PUSH2 0xBFF JUMPI DUP1 PUSH1 0x1F LT PUSH2 0xBD4 JUMPI PUSH2 0x100 DUP1 DUP4 SLOAD DIV MUL DUP4 MSTORE SWAP2 PUSH1 0x20 ADD SWAP2 PUSH2 0xBFF JUMP JUMPDEST DUP3 ADD SWAP2 SWAP1 PUSH1 0x0 MSTORE PUSH1 0x20 PUSH1 0x0 KECCAK256 SWAP1 JUMPDEST DUP2 SLOAD DUP2 MSTORE SWAP1 PUSH1 0x1 ADD SWAP1 PUSH1 0x20 ADD DUP1 DUP4 GT PUSH2 0xBE2 JUMPI DUP3 SWAP1 SUB PUSH1 0x1F AND DUP3 ADD SWAP2 JUMPDEST POP POP POP POP POP DUP9 PUSH2 0x1AA6 JUMP JUMPDEST DUP3 PUSH2 0xFFFF AND DUP2 PUSH2 0xC1A SWAP2 SWAP1 PUSH2 0x22AA JUMP JUMPDEST SWAP1 POP PUSH2 0xC2B DUP2 DUP4 PUSH2 0xFFFF AND DUP9 PUSH2 0x1A78 JUMP JUMPDEST PUSH1 0x2 DUP2 PUSH2 0xC38 SWAP2 SWAP1 PUSH2 0x22AA JUMP JUMPDEST SWAP1 POP PUSH2 0xCD2 DUP2 PUSH1 0x10 PUSH1 0x2 ADD DUP1 SLOAD PUSH2 0xC4E SWAP1 PUSH2 0x238F JUMP JUMPDEST DUP1 PUSH1 0x1F ADD PUSH1 0x20 DUP1 SWAP2 DIV MUL PUSH1 0x20 ADD PUSH1 0x40 MLOAD SWAP1 DUP2 ADD PUSH1 0x40 MSTORE DUP1 SWAP3 SWAP2 SWAP1 DUP2 DUP2 MSTORE PUSH1 0x20 ADD DUP3 DUP1 SLOAD PUSH2 0xC7A SWAP1 PUSH2 0x238F JUMP JUMPDEST DUP1 ISZERO PUSH2 0xCC7 JUMPI DUP1 PUSH1 0x1F LT PUSH2 0xC9C JUMPI PUSH2 0x100 DUP1 DUP4 SLOAD DIV MUL DUP4 MSTORE SWAP2 PUSH1 0x20 ADD SWAP2 PUSH2 0xCC7 JUMP JUMPDEST DUP3 ADD SWAP2 SWAP1 PUSH1 0x0 MSTORE PUSH1 0x20 PUSH1 0x0 KECCAK256 SWAP1 JUMPDEST DUP2 SLOAD DUP2 MSTORE SWAP1 PUSH1 0x1 ADD SWAP1 PUSH1 0x20 ADD DUP1 DUP4 GT PUSH2 0xCAA JUMPI DUP3 SWAP1 SUB PUSH1 0x1F AND DUP3 ADD SWAP2 JUMPDEST POP POP POP POP POP DUP9 PUSH2 0x1AA6 JUMP JUMPDEST DUP2 PUSH2 0xFFFF AND DUP2 PUSH2 0xCE2 SWAP2 SWAP1 PUSH2 0x22AA JUMP JUMPDEST SWAP1 POP PUSH2 0xD06 DUP2 PUSH1 0xA PUSH1 0x0 ADD PUSH1 0x6 SWAP1 SLOAD SWAP1 PUSH2 0x100 EXP SWAP1 DIV PUSH2 0xFFFF AND PUSH2 0xFFFF AND DUP9 PUSH2 0x1A78 JUMP JUMPDEST PUSH1 0x2 DUP2 PUSH2 0xD13 SWAP2 SWAP1 PUSH2 0x22AA JUMP JUMPDEST SWAP1 POP PUSH1 0x0 JUMPDEST PUSH1 0xA PUSH1 0x0 ADD PUSH1 0x6 SWAP1 SLOAD SWAP1 PUSH2 0x100 EXP SWAP1 DIV PUSH2 0xFFFF AND PUSH2 0xFFFF AND DUP2 LT ISZERO PUSH2 0xE93 JUMPI PUSH2 0xD89 DUP3 PUSH1 0xA PUSH1 0x5 ADD DUP4 DUP2 SLOAD DUP2 LT PUSH2 0xD78 JUMPI PUSH32 0x4E487B7100000000000000000000000000000000000000000000000000000000 PUSH1 0x0 MSTORE PUSH1 0x32 PUSH1 0x4 MSTORE PUSH1 0x24 PUSH1 0x0 REVERT JUMPDEST SWAP1 PUSH1 0x0 MSTORE PUSH1 0x20 PUSH1 0x0 KECCAK256 ADD SLOAD DUP10 PUSH2 0x1A45 JUMP JUMPDEST PUSH1 0x20 DUP3 PUSH2 0xD96 SWAP2 SWAP1 PUSH2 0x22AA JUMP JUMPDEST SWAP2 POP PUSH2 0xDFD DUP3 PUSH1 0x7 PUSH1 0x0 PUSH1 0xA PUSH1 0x5 ADD DUP6 DUP2 SLOAD DUP2 LT PUSH2 0xDDD JUMPI PUSH32 0x4E487B7100000000000000000000000000000000000000000000000000000000 PUSH1 0x0 MSTORE PUSH1 0x32 PUSH1 0x4 MSTORE PUSH1 0x24 PUSH1 0x0 REVERT JUMPDEST SWAP1 PUSH1 0x0 MSTORE PUSH1 0x20 PUSH1 0x0 KECCAK256 ADD SLOAD DUP2 MSTORE PUSH1 0x20 ADD SWAP1 DUP2 MSTORE PUSH1 0x20 ADD PUSH1 0x0 KECCAK256 SLOAD DUP10 PUSH2 0x1A45 JUMP JUMPDEST PUSH1 0x20 DUP3 PUSH2 0xE0A SWAP2 SWAP1 PUSH2 0x22AA JUMP JUMPDEST SWAP2 POP PUSH2 0xE71 DUP3 PUSH1 0x8 PUSH1 0x0 PUSH1 0xA PUSH1 0x5 ADD DUP6 DUP2 SLOAD DUP2 LT PUSH2 0xE51 JUMPI PUSH32 0x4E487B7100000000000000000000000000000000000000000000000000000000 PUSH1 0x0 MSTORE PUSH1 0x32 PUSH1 0x4 MSTORE PUSH1 0x24 PUSH1 0x0 REVERT JUMPDEST SWAP1 PUSH1 0x0 MSTORE PUSH1 0x20 PUSH1 0x0 KECCAK256 ADD SLOAD DUP2 MSTORE PUSH1 0x20 ADD SWAP1 DUP2 MSTORE PUSH1 0x20 ADD PUSH1 0x0 KECCAK256 SLOAD DUP10 PUSH2 0x1A78 JUMP JUMPDEST PUSH1 0x20 DUP3 PUSH2 0xE7E SWAP2 SWAP1 PUSH2 0x22AA JUMP JUMPDEST SWAP2 POP DUP1 DUP1 PUSH2 0xE8B SWAP1 PUSH2 0x23EC JUMP JUMPDEST SWAP2 POP POP PUSH2 0xD18 JUMP JUMPDEST POP PUSH2 0xEB6 DUP2 PUSH1 0xA PUSH1 0x0 ADD PUSH1 0x4 SWAP1 SLOAD SWAP1 PUSH2 0x100 EXP SWAP1 DIV PUSH2 0xFFFF AND PUSH2 0xFFFF AND DUP9 PUSH2 0x1A78 JUMP JUMPDEST PUSH1 0x20 DUP2 PUSH2 0xEC3 SWAP2 SWAP1 PUSH2 0x22AA JUMP JUMPDEST SWAP1 POP PUSH1 0x0 DUP1 PUSH1 0x0 DUP1 PUSH1 0x0 DUP1 PUSH1 0x0 SWAP1 POP JUMPDEST PUSH1 0xA PUSH1 0x0 ADD PUSH1 0x6 SWAP1 SLOAD SWAP1 PUSH2 0x100 EXP SWAP1 DIV PUSH2 0xFFFF AND PUSH2 0xFFFF AND DUP2 LT ISZERO PUSH2 0x1184 JUMPI PUSH1 0x0 JUMPDEST PUSH1 0x3 PUSH1 0x0 PUSH1 0xA PUSH1 0x5 ADD DUP5 DUP2 SLOAD DUP2 LT PUSH2 0xF36 JUMPI PUSH32 0x4E487B7100000000000000000000000000000000000000000000000000000000 PUSH1 0x0 MSTORE PUSH1 0x32 PUSH1 0x4 MSTORE PUSH1 0x24 PUSH1 0x0 REVERT JUMPDEST SWAP1 PUSH1 0x0 MSTORE PUSH1 0x20 PUSH1 0x0 KECCAK256 ADD SLOAD DUP2 MSTORE PUSH1 0x20 ADD SWAP1 DUP2 MSTORE PUSH1 0x20 ADD PUSH1 0x0 KECCAK256 DUP1 SLOAD SWAP1 POP DUP2 LT ISZERO PUSH2 0x1170 JUMPI PUSH1 0x5 PUSH1 0x0 PUSH1 0x3 PUSH1 0x0 PUSH1 0xA PUSH1 0x5 ADD DUP7 DUP2 SLOAD DUP2 LT PUSH2 0xF9F JUMPI PUSH32 0x4E487B7100000000000000000000000000000000000000000000000000000000 PUSH1 0x0 MSTORE PUSH1 0x32 PUSH1 0x4 MSTORE PUSH1 0x24 PUSH1 0x0 REVERT JUMPDEST SWAP1 PUSH1 0x0 MSTORE PUSH1 0x20 PUSH1 0x0 KECCAK256 ADD SLOAD DUP2 MSTORE PUSH1 0x20 ADD SWAP1 DUP2 MSTORE PUSH1 0x20 ADD PUSH1 0x0 KECCAK256 DUP4 DUP2 SLOAD DUP2 LT PUSH2 0xFF0 JUMPI PUSH32 0x4E487B7100000000000000000000000000000000000000000000000000000000 PUSH1 0x0 MSTORE PUSH1 0x32 PUSH1 0x4 MSTORE PUSH1 0x24 PUSH1 0x0 REVERT JUMPDEST SWAP1 PUSH1 0x0 MSTORE PUSH1 0x20 PUSH1 0x0 KECCAK256 ADD SLOAD DUP2 MSTORE PUSH1 0x20 ADD SWAP1 DUP2 MSTORE PUSH1 0x20 ADD PUSH1 0x0 KECCAK256 PUSH1 0x0 SWAP1 SLOAD SWAP1 PUSH2 0x100 EXP SWAP1 DIV PUSH1 0xFF AND PUSH2 0x1020 JUMPI PUSH2 0x115D JUMP JUMPDEST PUSH2 0x10C5 PUSH1 0x3 PUSH1 0x0 PUSH1 0xA PUSH1 0x5 ADD DUP6 DUP2 SLOAD DUP2 LT PUSH2 0x1064 JUMPI PUSH32 0x4E487B7100000000000000000000000000000000000000000000000000000000 PUSH1 0x0 MSTORE PUSH1 0x32 PUSH1 0x4 MSTORE PUSH1 0x24 PUSH1 0x0 REVERT JUMPDEST SWAP1 PUSH1 0x0 MSTORE PUSH1 0x20 PUSH1 0x0 KECCAK256 ADD SLOAD DUP2 MSTORE PUSH1 0x20 ADD SWAP1 DUP2 MSTORE PUSH1 0x20 ADD PUSH1 0x0 KECCAK256 DUP3 DUP2 SLOAD DUP2 LT PUSH2 0x10B5 JUMPI PUSH32 0x4E487B7100000000000000000000000000000000000000000000000000000000 PUSH1 0x0 MSTORE PUSH1 0x32 PUSH1 0x4 MSTORE PUSH1 0x24 PUSH1 0x0 REVERT JUMPDEST SWAP1 PUSH1 0x0 MSTORE PUSH1 0x20 PUSH1 0x0 KECCAK256 ADD SLOAD PUSH2 0x2C1 JUMP JUMPDEST POP DUP1 SWAP8 POP DUP2 SWAP9 POP DUP3 SWAP10 POP DUP4 SWAP11 POP DUP5 SWAP12 POP POP POP POP POP POP PUSH2 0x10E5 DUP9 DUP5 DUP16 PUSH2 0x1A45 JUMP JUMPDEST PUSH1 0x20 DUP9 PUSH2 0x10F2 SWAP2 SWAP1 PUSH2 0x22AA JUMP JUMPDEST SWAP8 POP PUSH2 0x10FF DUP9 DUP6 DUP16 PUSH2 0x1A78 JUMP JUMPDEST PUSH1 0x20 DUP9 PUSH2 0x110C SWAP2 SWAP1 PUSH2 0x22AA JUMP JUMPDEST SWAP8 POP PUSH2 0x1119 DUP9 DUP7 DUP16 PUSH2 0x1A78 JUMP JUMPDEST PUSH1 0x20 DUP9 PUSH2 0x1126 SWAP2 SWAP1 PUSH2 0x22AA JUMP JUMPDEST SWAP8 POP PUSH2 0x1133 DUP9 DUP8 DUP16 PUSH2 0x1A45 JUMP JUMPDEST PUSH1 0x20 DUP9 PUSH2 0x1140 SWAP2 SWAP1 PUSH2 0x22AA JUMP JUMPDEST SWAP8 POP PUSH2 0x114D DUP9 DUP9 DUP16 PUSH2 0x1A45 JUMP JUMPDEST PUSH1 0x20 DUP9 PUSH2 0x115A SWAP2 SWAP1 PUSH2 0x22AA JUMP JUMPDEST SWAP8 POP JUMPDEST DUP1 DUP1 PUSH2 0x1168 SWAP1 PUSH2 0x23EC JUMP JUMPDEST SWAP2 POP POP PUSH2 0xEF5 JUMP JUMPDEST POP DUP1 DUP1 PUSH2 0x117C SWAP1 PUSH2 0x23EC JUMP JUMPDEST SWAP2 POP POP PUSH2 0xED3 JUMP JUMPDEST POP POP POP POP POP POP POP POP POP POP SWAP1 SWAP2 JUMP JUMPDEST PUSH1 0x1 PUSH1 0x14 SWAP1 SLOAD SWAP1 PUSH2 0x100 EXP SWAP1 DIV PUSH1 0xFF AND ISZERO PUSH2 0x11AC JUMPI PUSH1 0x0 DUP1 REVERT JUMPDEST PUSH1 0x1 DUP1 PUSH1 0x14 PUSH2 0x100 EXP DUP2 SLOAD DUP2 PUSH1 0xFF MUL NOT AND SWAP1 DUP4 ISZERO ISZERO MUL OR SWAP1 SSTORE POP DUP1 PUSH1 0x1 PUSH1 0x0 PUSH2 0x100 EXP DUP2 SLOAD DUP2 PUSH20 0xFFFFFFFFFFFFFFFFFFFFFFFFFFFFFFFFFFFFFFFF MUL NOT AND SWAP1 DUP4 PUSH20 0xFFFFFFFFFFFFFFFFFFFFFFFFFFFFFFFFFFFFFFFF AND MUL OR SWAP1 SSTORE POP POP JUMP JUMPDEST PUSH1 0x4 PUSH1 0x0 DUP6 DUP2 MSTORE PUSH1 0x20 ADD SWAP1 DUP2 MSTORE PUSH1 0x20 ADD PUSH1 0x0 KECCAK256 PUSH1 0x0 SWAP1 SLOAD SWAP1 PUSH2 0x100 EXP SWAP1 DIV PUSH1 0xFF AND PUSH2 0x126A JUMPI PUSH1 0x40 MLOAD PUSH32 0x8C379A000000000000000000000000000000000000000000000000000000000 DUP2 MSTORE PUSH1 0x4 ADD PUSH2 0x1261 SWAP1 PUSH2 0x2068 JUMP JUMPDEST PUSH1 0x40 MLOAD DUP1 SWAP2 SUB SWAP1 REVERT JUMPDEST PUSH1 0x5 PUSH1 0x0 DUP5 DUP2 MSTORE PUSH1 0x20 ADD SWAP1 DUP2 MSTORE PUSH1 0x20 ADD PUSH1 0x0 KECCAK256 PUSH1 0x0 SWAP1 SLOAD SWAP1 PUSH2 0x100 EXP SWAP1 DIV PUSH1 0xFF AND ISZERO PUSH2 0x12CB JUMPI PUSH1 0x40 MLOAD PUSH32 0x8C379A000000000000000000000000000000000000000000000000000000000 DUP2 MSTORE PUSH1 0x4 ADD PUSH2 0x12C2 SWAP1 PUSH2 0x2088 JUMP JUMPDEST PUSH1 0x40 MLOAD DUP1 SWAP2 SUB SWAP1 REVERT JUMPDEST PUSH1 0x3 PUSH1 0x0 DUP6 DUP2 MSTORE PUSH1 0x20 ADD SWAP1 DUP2 MSTORE PUSH1 0x20 ADD PUSH1 0x0 KECCAK256 DUP4 SWAP1 DUP1 PUSH1 0x1 DUP2 SLOAD ADD DUP1 DUP3 SSTORE DUP1 SWAP2 POP POP PUSH1 0x1 SWAP1 SUB SWAP1 PUSH1 0x0 MSTORE PUSH1 0x20 PUSH1 0x0 KECCAK256 ADD PUSH1 0x0 SWAP1 SWAP2 SWAP1 SWAP2 SWAP1 SWAP2 POP SSTORE PUSH1 0x3 PUSH1 0x0 DUP6 DUP2 MSTORE PUSH1 0x20 ADD SWAP1 DUP2 MSTORE PUSH1 0x20 ADD PUSH1 0x0 KECCAK256 DUP1 SLOAD SWAP1 POP PUSH1 0x2 PUSH1 0x0 DUP6 DUP2 MSTORE PUSH1 0x20 ADD SWAP1 DUP2 MSTORE PUSH1 0x20 ADD PUSH1 0x0 KECCAK256 DUP2 SWAP1 SSTORE POP DUP4 PUSH1 0x6 PUSH1 0x0 DUP6 DUP2 MSTORE PUSH1 0x20 ADD SWAP1 DUP2 MSTORE PUSH1 0x20 ADD PUSH1 0x0 KECCAK256 DUP2 SWAP1 SSTORE POP PUSH1 0x40 MLOAD DUP1 PUSH1 0xC0 ADD PUSH1 0x40 MSTORE DUP1 PUSH32 0x554E444546494E45440000000000000000000000000000000000000000000000 DUP2 MSTORE PUSH1 0x20 ADD DUP5 DUP2 MSTORE PUSH1 0x20 ADD DUP6 DUP2 MSTORE PUSH1 0x20 ADD DUP4 DUP2 MSTORE PUSH1 0x20 ADD PUSH1 0x0 DUP2 MSTORE PUSH1 0x20 ADD DUP3 PUSH20 0xFFFFFFFFFFFFFFFFFFFFFFFFFFFFFFFFFFFFFFFF AND DUP2 MSTORE POP PUSH1 0x9 PUSH1 0x0 DUP6 DUP2 MSTORE PUSH1 0x20 ADD SWAP1 DUP2 MSTORE PUSH1 0x20 ADD PUSH1 0x0 KECCAK256 PUSH1 0x0 DUP3 ADD MLOAD DUP2 PUSH1 0x0 ADD SSTORE PUSH1 0x20 DUP3 ADD MLOAD DUP2 PUSH1 0x1 ADD SSTORE PUSH1 0x40 DUP3 ADD MLOAD DUP2 PUSH1 0x2 ADD SSTORE PUSH1 0x60 DUP3 ADD MLOAD DUP2 PUSH1 0x3 ADD SSTORE PUSH1 0x80 DUP3 ADD MLOAD DUP2 PUSH1 0x4 ADD SSTORE PUSH1 0xA0 DUP3 ADD MLOAD DUP2 PUSH1 0x5 ADD PUSH1 0x0 PUSH2 0x100 EXP DUP2 SLOAD DUP2 PUSH20 0xFFFFFFFFFFFFFFFFFFFFFFFFFFFFFFFFFFFFFFFF MUL NOT AND SWAP1 DUP4 PUSH20 0xFFFFFFFFFFFFFFFFFFFFFFFFFFFFFFFFFFFFFFFF AND MUL OR SWAP1 SSTORE POP SWAP1 POP POP PUSH1 0x1 PUSH1 0x5 PUSH1 0x0 DUP6 DUP2 MSTORE PUSH1 0x20 ADD SWAP1 DUP2 MSTORE PUSH1 0x20 ADD PUSH1 0x0 KECCAK256 PUSH1 0x0 PUSH2 0x100 EXP DUP2 SLOAD DUP2 PUSH1 0xFF MUL NOT AND SWAP1 DUP4 ISZERO ISZERO MUL OR SWAP1 SSTORE POP PUSH1 0xA PUSH1 0x0 ADD PUSH1 0x4 DUP2 DUP2 SWAP1 SLOAD SWAP1 PUSH2 0x100 EXP SWAP1 DIV PUSH2 0xFFFF AND DUP1 SWAP3 SWAP2 SWAP1 PUSH2 0x148D SWAP1 PUSH2 0x23C1 JUMP JUMPDEST SWAP2 SWAP1 PUSH2 0x100 EXP DUP2 SLOAD DUP2 PUSH2 0xFFFF MUL NOT AND SWAP1 DUP4 PUSH2 0xFFFF AND MUL OR SWAP1 SSTORE POP POP POP POP POP POP JUMP JUMPDEST PUSH1 0x0 PUSH2 0x14B8 PUSH2 0x266 JUMP JUMPDEST SWAP1 POP PUSH1 0x1B PUSH1 0x0 SWAP1 SLOAD SWAP1 PUSH2 0x100 EXP SWAP1 DIV PUSH1 0xFF AND DUP1 ISZERO PUSH2 0x14E3 JUMPI POP PUSH1 0x1B PUSH1 0x1 SWAP1 SLOAD SWAP1 PUSH2 0x100 EXP SWAP1 DIV PUSH1 0xFF AND ISZERO JUMPDEST ISZERO PUSH2 0x1550 JUMPI PUSH32 0xCBEB43F3566812EB9B63828E127CE48EFBF4126607FC80974BA3D72DD41D094A DUP2 PUSH1 0x10 PUSH1 0x3 ADD SLOAD PUSH1 0x10 PUSH1 0xA ADD SLOAD PUSH1 0x40 MLOAD PUSH2 0x1525 SWAP4 SWAP3 SWAP2 SWAP1 PUSH2 0x2103 JUMP JUMPDEST PUSH1 0x40 MLOAD DUP1 SWAP2 SUB SWAP1 LOG1 PUSH1 0x1 PUSH1 0x1B PUSH1 0x1 PUSH2 0x100 EXP DUP2 SLOAD DUP2 PUSH1 0xFF MUL NOT AND SWAP1 DUP4 ISZERO ISZERO MUL OR SWAP1 SSTORE POP TIMESTAMP PUSH1 0x1C DUP2 SWAP1 SSTORE POP JUMPDEST POP JUMP JUMPDEST PUSH1 0x0 PUSH1 0xA PUSH1 0x1 ADD SLOAD SWAP1 POP SWAP1 JUMP JUMPDEST PUSH1 0x0 PUSH1 0x5 PUSH1 0x0 DUP4 DUP2 MSTORE PUSH1 0x20 ADD SWAP1 DUP2 MSTORE PUSH1 0x20 ADD PUSH1 0x0 KECCAK256 PUSH1 0x0 SWAP1 SLOAD SWAP1 PUSH2 0x100 EXP SWAP1 DIV PUSH1 0xFF AND PUSH2 0x15C2 JUMPI PUSH1 0x40 MLOAD PUSH32 0x8C379A000000000000000000000000000000000000000000000000000000000 DUP2 MSTORE PUSH1 0x4 ADD PUSH2 0x15B9 SWAP1 PUSH2 0x20C8 JUMP JUMPDEST PUSH1 0x40 MLOAD DUP1 SWAP2 SUB SWAP1 REVERT JUMPDEST PUSH1 0x0 PUSH1 0x9 PUSH1 0x0 DUP5 DUP2 MSTORE PUSH1 0x20 ADD SWAP1 DUP2 MSTORE PUSH1 0x20 ADD PUSH1 0x0 KECCAK256 PUSH1 0x5 ADD PUSH1 0x0 SWAP1 SLOAD SWAP1 PUSH2 0x100 EXP SWAP1 DIV PUSH20 0xFFFFFFFFFFFFFFFFFFFFFFFFFFFFFFFFFFFFFFFF AND SWAP1 POP PUSH1 0x0 PUSH1 0x5 PUSH1 0x0 DUP6 DUP2 MSTORE PUSH1 0x20 ADD SWAP1 DUP2 MSTORE PUSH1 0x20 ADD PUSH1 0x0 KECCAK256 PUSH1 0x0 PUSH2 0x100 EXP DUP2 SLOAD DUP2 PUSH1 0xFF MUL NOT AND SWAP1 DUP4 ISZERO ISZERO MUL OR SWAP1 SSTORE POP PUSH1 0xA PUSH1 0x0 ADD PUSH1 0x4 DUP2 DUP2 SWAP1 SLOAD SWAP1 PUSH2 0x100 EXP SWAP1 DIV PUSH2 0xFFFF AND DUP1 SWAP3 SWAP2 SWAP1 PUSH2 0x164C SWAP1 PUSH2 0x2365 JUMP JUMPDEST SWAP2 SWAP1 PUSH2 0x100 EXP DUP2 SLOAD DUP2 PUSH2 0xFFFF MUL NOT AND SWAP1 DUP4 PUSH2 0xFFFF AND MUL OR SWAP1 SSTORE POP POP DUP1 SWAP2 POP POP SWAP2 SWAP1 POP JUMP JUMPDEST PUSH1 0x0 DUP1 PUSH1 0x0 DUP1 PUSH1 0x0 DUP1 PUSH1 0x60 PUSH1 0xA PUSH1 0x1 ADD SLOAD PUSH1 0xA PUSH1 0x0 ADD PUSH1 0x0 SWAP1 SLOAD SWAP1 PUSH2 0x100 EXP SWAP1 DIV PUSH2 0xFFFF AND PUSH1 0xA PUSH1 0x0 ADD PUSH1 0x2 SWAP1 SLOAD SWAP1 PUSH2 0x100 EXP SWAP1 DIV PUSH2 0xFFFF AND PUSH1 0xA PUSH1 0x0 ADD PUSH1 0x6 SWAP1 SLOAD SWAP1 PUSH2 0x100 EXP SWAP1 DIV PUSH2 0xFFFF AND PUSH1 0xA PUSH1 0x2 ADD SLOAD PUSH1 0xA PUSH1 0x3 ADD SLOAD PUSH1 0xA PUSH1 0x5 ADD DUP1 DUP1 SLOAD DUP1 PUSH1 0x20 MUL PUSH1 0x20 ADD PUSH1 0x40 MLOAD SWAP1 DUP2 ADD PUSH1 0x40 MSTORE DUP1 SWAP3 SWAP2 SWAP1 DUP2 DUP2 MSTORE PUSH1 0x20 ADD DUP3 DUP1 SLOAD DUP1 ISZERO PUSH2 0x1719 JUMPI PUSH1 0x20 MUL DUP3 ADD SWAP2 SWAP1 PUSH1 0x0 MSTORE PUSH1 0x20 PUSH1 0x0 KECCAK256 SWAP1 JUMPDEST DUP2 SLOAD DUP2 MSTORE PUSH1 0x20 ADD SWAP1 PUSH1 0x1 ADD SWAP1 DUP1 DUP4 GT PUSH2 0x1705 JUMPI JUMPDEST POP POP POP POP POP SWAP1 POP SWAP7 POP SWAP7 POP SWAP7 POP SWAP7 POP SWAP7 POP SWAP7 POP SWAP7 POP SWAP1 SWAP2 SWAP3 SWAP4 SWAP5 SWAP6 SWAP7 JUMP JUMPDEST PUSH1 0x0 DUP1 SLOAD SWAP1 PUSH2 0x100 EXP SWAP1 DIV PUSH20 0xFFFFFFFFFFFFFFFFFFFFFFFFFFFFFFFFFFFFFFFF AND PUSH20 0xFFFFFFFFFFFFFFFFFFFFFFFFFFFFFFFFFFFFFFFF AND CALLER PUSH20 0xFFFFFFFFFFFFFFFFFFFFFFFFFFFFFFFFFFFFFFFF AND EQ PUSH2 0x178F JUMPI PUSH1 0x0 DUP1 REVERT JUMPDEST PUSH1 0x0 DUP1 SLOAD SWAP1 PUSH2 0x100 EXP SWAP1 DIV PUSH20 0xFFFFFFFFFFFFFFFFFFFFFFFFFFFFFFFFFFFFFFFF AND PUSH20 0xFFFFFFFFFFFFFFFFFFFFFFFFFFFFFFFFFFFFFFFF AND SELFDESTRUCT JUMPDEST PUSH1 0x0 DUP1 PUSH1 0x60 DUP1 PUSH1 0x0 DUP1 PUSH1 0x0 DUP1 PUSH1 0x0 PUSH1 0x60 PUSH1 0x0 PUSH1 0x10 PUSH1 0x3 ADD SLOAD PUSH1 0x10 PUSH1 0x4 ADD SLOAD PUSH1 0x10 PUSH1 0x0 ADD PUSH1 0x10 PUSH1 0x1 ADD PUSH1 0x10 PUSH1 0x5 ADD SLOAD PUSH1 0x10 PUSH1 0x6 ADD SLOAD PUSH1 0x10 PUSH1 0x7 ADD SLOAD PUSH1 0x10 PUSH1 0x8 ADD SLOAD PUSH1 0x10 PUSH1 0x9 ADD SLOAD PUSH1 0x10 PUSH1 0x2 ADD PUSH1 0x10 PUSH1 0xA ADD SLOAD DUP9 DUP1 SLOAD PUSH2 0x1825 SWAP1 PUSH2 0x238F JUMP JUMPDEST DUP1 PUSH1 0x1F ADD PUSH1 0x20 DUP1 SWAP2 DIV MUL PUSH1 0x20 ADD PUSH1 0x40 MLOAD SWAP1 DUP2 ADD PUSH1 0x40 MSTORE DUP1 SWAP3 SWAP2 SWAP1 DUP2 DUP2 MSTORE PUSH1 0x20 ADD DUP3 DUP1 SLOAD PUSH2 0x1851 SWAP1 PUSH2 0x238F JUMP JUMPDEST DUP1 ISZERO PUSH2 0x189E JUMPI DUP1 PUSH1 0x1F LT PUSH2 0x1873 JUMPI PUSH2 0x100 DUP1 DUP4 SLOAD DIV MUL DUP4 MSTORE SWAP2 PUSH1 0x20 ADD SWAP2 PUSH2 0x189E JUMP JUMPDEST DUP3 ADD SWAP2 SWAP1 PUSH1 0x0 MSTORE PUSH1 0x20 PUSH1 0x0 KECCAK256 SWAP1 JUMPDEST DUP2 SLOAD DUP2 MSTORE SWAP1 PUSH1 0x1 ADD SWAP1 PUSH1 0x20 ADD DUP1 DUP4 GT PUSH2 0x1881 JUMPI DUP3 SWAP1 SUB PUSH1 0x1F AND DUP3 ADD SWAP2 JUMPDEST POP POP POP POP POP SWAP9 POP DUP8 DUP1 SLOAD PUSH2 0x18B1 SWAP1 PUSH2 0x238F JUMP JUMPDEST DUP1 PUSH1 0x1F ADD PUSH1 0x20 DUP1 SWAP2 DIV MUL PUSH1 0x20 ADD PUSH1 0x40 MLOAD SWAP1 DUP2 ADD PUSH1 0x40 MSTORE DUP1 SWAP3 SWAP2 SWAP1 DUP2 DUP2 MSTORE PUSH1 0x20 ADD DUP3 DUP1 SLOAD PUSH2 0x18DD SWAP1 PUSH2 0x238F JUMP JUMPDEST DUP1 ISZERO PUSH2 0x192A JUMPI DUP1 PUSH1 0x1F LT PUSH2 0x18FF JUMPI PUSH2 0x100 DUP1 DUP4 SLOAD DIV MUL DUP4 MSTORE SWAP2 PUSH1 0x20 ADD SWAP2 PUSH2 0x192A JUMP JUMPDEST DUP3 ADD SWAP2 SWAP1 PUSH1 0x0 MSTORE PUSH1 0x20 PUSH1 0x0 KECCAK256 SWAP1 JUMPDEST DUP2 SLOAD DUP2 MSTORE SWAP1 PUSH1 0x1 ADD SWAP1 PUSH1 0x20 ADD DUP1 DUP4 GT PUSH2 0x190D JUMPI DUP3 SWAP1 SUB PUSH1 0x1F AND DUP3 ADD SWAP2 JUMPDEST POP POP POP POP POP SWAP8 POP DUP2 DUP1 SLOAD PUSH2 0x193D SWAP1 PUSH2 0x238F JUMP JUMPDEST DUP1 PUSH1 0x1F ADD PUSH1 0x20 DUP1 SWAP2 DIV MUL PUSH1 0x20 ADD PUSH1 0x40 MLOAD SWAP1 DUP2 ADD PUSH1 0x40 MSTORE DUP1 SWAP3 SWAP2 SWAP1 DUP2 DUP2 MSTORE PUSH1 0x20 ADD DUP3 DUP1 SLOAD PUSH2 0x1969 SWAP1 PUSH2 0x238F JUMP JUMPDEST DUP1 ISZERO PUSH2 0x19B6 JUMPI DUP1 PUSH1 0x1F LT PUSH2 0x198B JUMPI PUSH2 0x100 DUP1 DUP4 SLOAD DIV MUL DUP4 MSTORE SWAP2 PUSH1 0x20 ADD SWAP2 PUSH2 0x19B6 JUMP JUMPDEST DUP3 ADD SWAP2 SWAP1 PUSH1 0x0 MSTORE PUSH1 0x20 PUSH1 0x0 KECCAK256 SWAP1 JUMPDEST DUP2 SLOAD DUP2 MSTORE SWAP1 PUSH1 0x1 ADD SWAP1 PUSH1 0x20 ADD DUP1 DUP4 GT PUSH2 0x1999 JUMPI DUP3 SWAP1 SUB PUSH1 0x1F AND DUP3 ADD SWAP2 JUMPDEST POP POP POP POP POP SWAP2 POP SWAP11 POP SWAP11 POP SWAP11 POP SWAP11 POP SWAP11 POP SWAP11 POP SWAP11 POP SWAP11 POP SWAP11 POP SWAP11 POP SWAP11 POP SWAP1 SWAP2 SWAP3 SWAP4 SWAP5 SWAP6 SWAP7 SWAP8 SWAP9 SWAP10 SWAP11 JUMP JUMPDEST PUSH1 0x0 PUSH1 0x10 PUSH1 0x3 ADD SLOAD SWAP1 POP SWAP1 JUMP JUMPDEST PUSH1 0x0 PUSH1 0x20 DUP3 MLOAD PUSH2 0x19FD SWAP2 SWAP1 PUSH2 0x21E3 JUMP JUMPDEST SWAP1 POP PUSH1 0x0 PUSH1 0x20 DUP4 MLOAD PUSH2 0x1A0F SWAP2 SWAP1 PUSH2 0x243F JUMP JUMPDEST EQ PUSH2 0x1A23 JUMPI DUP1 DUP1 PUSH2 0x1A1F SWAP1 PUSH2 0x23EC JUMP JUMPDEST SWAP2 POP POP JUMPDEST DUP1 DUP1 PUSH2 0x1A2E SWAP1 PUSH2 0x23EC JUMP JUMPDEST SWAP2 POP POP PUSH1 0x20 DUP2 PUSH2 0x1A3E SWAP2 SWAP1 PUSH2 0x2250 JUMP JUMPDEST SWAP1 POP SWAP2 SWAP1 POP JUMP JUMPDEST PUSH1 0x0 DUP3 PUSH1 0x40 MLOAD PUSH1 0x20 ADD PUSH2 0x1A58 SWAP2 SWAP1 PUSH2 0x1E27 JUMP JUMPDEST PUSH1 0x40 MLOAD PUSH1 0x20 DUP2 DUP4 SUB SUB DUP2 MSTORE SWAP1 PUSH1 0x40 MSTORE SWAP1 POP PUSH1 0x20 DUP2 ADD MLOAD DUP5 DUP4 ADD MSTORE POP POP POP POP JUMP JUMPDEST DUP2 DUP4 DUP3 ADD MSTORE POP POP POP JUMP JUMPDEST PUSH1 0x0 DUP1 ISZERO ISZERO DUP4 ISZERO ISZERO EQ PUSH2 0x1A96 JUMPI PUSH1 0x1 PUSH2 0x1A99 JUMP JUMPDEST PUSH1 0x0 JUMPDEST SWAP1 POP DUP1 DUP5 DUP4 ADD MSTORE POP POP POP POP JUMP JUMPDEST PUSH1 0x0 PUSH1 0x20 DUP4 MLOAD PUSH2 0x1AB6 SWAP2 SWAP1 PUSH2 0x21E3 JUMP JUMPDEST SWAP1 POP PUSH1 0x0 PUSH1 0x20 DUP5 MLOAD PUSH2 0x1AC8 SWAP2 SWAP1 PUSH2 0x243F JUMP JUMPDEST GT ISZERO PUSH2 0x1ADD JUMPI DUP1 DUP1 PUSH2 0x1AD9 SWAP1 PUSH2 0x23EC JUMP JUMPDEST SWAP2 POP POP JUMPDEST DUP1 DUP1 PUSH2 0x1AE8 SWAP1 PUSH2 0x23EC JUMP JUMPDEST SWAP2 POP POP PUSH1 0x0 JUMPDEST DUP2 DUP2 LT ISZERO PUSH2 0x1B1A JUMPI PUSH1 0x20 DUP2 MUL DUP5 ADD MLOAD DUP6 DUP5 ADD MSTORE PUSH1 0x20 DUP6 SUB SWAP5 POP DUP1 DUP1 PUSH2 0x1B12 SWAP1 PUSH2 0x23EC JUMP JUMPDEST SWAP2 POP POP PUSH2 0x1AEE JUMP JUMPDEST POP POP POP POP POP JUMP JUMPDEST PUSH1 0x0 DUP2 CALLDATALOAD SWAP1 POP PUSH2 0x1B30 DUP2 PUSH2 0x25D8 JUMP JUMPDEST SWAP3 SWAP2 POP POP JUMP JUMPDEST PUSH1 0x0 DUP2 CALLDATALOAD SWAP1 POP PUSH2 0x1B45 DUP2 PUSH2 0x25EF JUMP JUMPDEST SWAP3 SWAP2 POP POP JUMP JUMPDEST PUSH1 0x0 DUP2 CALLDATALOAD SWAP1 POP PUSH2 0x1B5A DUP2 PUSH2 0x2606 JUMP JUMPDEST SWAP3 SWAP2 POP POP JUMP JUMPDEST PUSH1 0x0 PUSH1 0x20 DUP3 DUP5 SUB SLT ISZERO PUSH2 0x1B72 JUMPI PUSH1 0x0 DUP1 REVERT JUMPDEST PUSH1 0x0 PUSH2 0x1B80 DUP5 DUP3 DUP6 ADD PUSH2 0x1B21 JUMP JUMPDEST SWAP2 POP POP SWAP3 SWAP2 POP POP JUMP JUMPDEST PUSH1 0x0 PUSH1 0x20 DUP3 DUP5 SUB SLT ISZERO PUSH2 0x1B9B JUMPI PUSH1 0x0 DUP1 REVERT JUMPDEST PUSH1 0x0 PUSH2 0x1BA9 DUP5 DUP3 DUP6 ADD PUSH2 0x1B36 JUMP JUMPDEST SWAP2 POP POP SWAP3 SWAP2 POP POP JUMP JUMPDEST PUSH1 0x0 DUP1 PUSH1 0x40 DUP4 DUP6 SUB SLT ISZERO PUSH2 0x1BC5 JUMPI PUSH1 0x0 DUP1 REVERT JUMPDEST PUSH1 0x0 PUSH2 0x1BD3 DUP6 DUP3 DUP7 ADD PUSH2 0x1B36 JUMP JUMPDEST SWAP3 POP POP PUSH1 0x20 PUSH2 0x1BE4 DUP6 DUP3 DUP7 ADD PUSH2 0x1B36 JUMP JUMPDEST SWAP2 POP POP SWAP3 POP SWAP3 SWAP1 POP JUMP JUMPDEST PUSH1 0x0 DUP1 PUSH1 0x0 DUP1 PUSH1 0x80 DUP6 DUP8 SUB SLT ISZERO PUSH2 0x1C04 JUMPI PUSH1 0x0 DUP1 REVERT JUMPDEST PUSH1 0x0 PUSH2 0x1C12 DUP8 DUP3 DUP9 ADD PUSH2 0x1B36 JUMP JUMPDEST SWAP5 POP POP PUSH1 0x20 PUSH2 0x1C23 DUP8 DUP3 DUP9 ADD PUSH2 0x1B36 JUMP JUMPDEST SWAP4 POP POP PUSH1 0x40 PUSH2 0x1C34 DUP8 DUP3 DUP9 ADD PUSH2 0x1B4B JUMP JUMPDEST SWAP3 POP POP PUSH1 0x60 PUSH2 0x1C45 DUP8 DUP3 DUP9 ADD PUSH2 0x1B21 JUMP JUMPDEST SWAP2 POP POP SWAP3 SWAP6 SWAP2 SWAP5 POP SWAP3 POP JUMP JUMPDEST PUSH1 0x0 PUSH2 0x1C5D DUP4 DUP4 PUSH2 0x1CD6 JUMP JUMPDEST PUSH1 0x20 DUP4 ADD SWAP1 POP SWAP3 SWAP2 POP POP JUMP JUMPDEST PUSH2 0x1C72 DUP2 PUSH2 0x22DE JUMP JUMPDEST DUP3 MSTORE POP POP JUMP JUMPDEST PUSH1 0x0 PUSH2 0x1C83 DUP3 PUSH2 0x214A JUMP JUMPDEST PUSH2 0x1C8D DUP2 DUP6 PUSH2 0x2178 JUMP JUMPDEST SWAP4 POP PUSH2 0x1C98 DUP4 PUSH2 0x213A JUMP JUMPDEST DUP1 PUSH1 0x0 JUMPDEST DUP4 DUP2 LT ISZERO PUSH2 0x1CC9 JUMPI DUP2 MLOAD PUSH2 0x1CB0 DUP9 DUP3 PUSH2 0x1C51 JUMP JUMPDEST SWAP8 POP PUSH2 0x1CBB DUP4 PUSH2 0x216B JUMP JUMPDEST SWAP3 POP POP PUSH1 0x1 DUP2 ADD SWAP1 POP PUSH2 0x1C9C JUMP JUMPDEST POP DUP6 SWAP4 POP POP POP POP SWAP3 SWAP2 POP POP JUMP JUMPDEST PUSH2 0x1CDF DUP2 PUSH2 0x22F0 JUMP JUMPDEST DUP3 MSTORE POP POP JUMP JUMPDEST PUSH2 0x1CEE DUP2 PUSH2 0x22F0 JUMP JUMPDEST DUP3 MSTORE POP POP JUMP JUMPDEST PUSH2 0x1D05 PUSH2 0x1D00 DUP3 PUSH2 0x22F0 JUMP JUMPDEST PUSH2 0x2435 JUMP JUMPDEST DUP3 MSTORE POP POP JUMP JUMPDEST PUSH1 0x0 PUSH2 0x1D16 DUP3 PUSH2 0x2155 JUMP JUMPDEST PUSH2 0x1D20 DUP2 DUP6 PUSH2 0x2189 JUMP JUMPDEST SWAP4 POP PUSH2 0x1D30 DUP2 DUP6 PUSH1 0x20 DUP7 ADD PUSH2 0x2332 JUMP JUMPDEST PUSH2 0x1D39 DUP2 PUSH2 0x24FD JUMP JUMPDEST DUP5 ADD SWAP2 POP POP SWAP3 SWAP2 POP POP JUMP JUMPDEST PUSH1 0x0 PUSH2 0x1D4F DUP3 PUSH2 0x2160 JUMP JUMPDEST PUSH2 0x1D59 DUP2 DUP6 PUSH2 0x219A JUMP JUMPDEST SWAP4 POP PUSH2 0x1D69 DUP2 DUP6 PUSH1 0x20 DUP7 ADD PUSH2 0x2332 JUMP JUMPDEST PUSH2 0x1D72 DUP2 PUSH2 0x24FD JUMP JUMPDEST DUP5 ADD SWAP2 POP POP SWAP3 SWAP2 POP POP JUMP JUMPDEST PUSH1 0x0 PUSH2 0x1D8A PUSH1 0x2B DUP4 PUSH2 0x219A JUMP JUMPDEST SWAP2 POP PUSH2 0x1D95 DUP3 PUSH2 0x250E JUMP JUMPDEST PUSH1 0x40 DUP3 ADD SWAP1 POP SWAP2 SWAP1 POP JUMP JUMPDEST PUSH1 0x0 PUSH2 0x1DAD PUSH1 0x1C DUP4 PUSH2 0x219A JUMP JUMPDEST SWAP2 POP PUSH2 0x1DB8 DUP3 PUSH2 0x255D JUMP JUMPDEST PUSH1 0x20 DUP3 ADD SWAP1 POP SWAP2 SWAP1 POP JUMP JUMPDEST PUSH1 0x0 PUSH2 0x1DD0 PUSH1 0x18 DUP4 PUSH2 0x219A JUMP JUMPDEST SWAP2 POP PUSH2 0x1DDB DUP3 PUSH2 0x2586 JUMP JUMPDEST PUSH1 0x20 DUP3 ADD SWAP1 POP SWAP2 SWAP1 POP JUMP JUMPDEST PUSH1 0x0 PUSH2 0x1DF3 PUSH1 0x1C DUP4 PUSH2 0x219A JUMP JUMPDEST SWAP2 POP PUSH2 0x1DFE DUP3 PUSH2 0x25AF JUMP JUMPDEST PUSH1 0x20 DUP3 ADD SWAP1 POP SWAP2 SWAP1 POP JUMP JUMPDEST PUSH2 0x1E12 DUP2 PUSH2 0x22FA JUMP JUMPDEST DUP3 MSTORE POP POP JUMP JUMPDEST PUSH2 0x1E21 DUP2 PUSH2 0x2328 JUMP JUMPDEST DUP3 MSTORE POP POP JUMP JUMPDEST PUSH1 0x0 PUSH2 0x1E33 DUP3 DUP5 PUSH2 0x1CF4 JUMP JUMPDEST PUSH1 0x20 DUP3 ADD SWAP2 POP DUP2 SWAP1 POP SWAP3 SWAP2 POP POP JUMP JUMPDEST PUSH1 0x0 PUSH1 0x20 DUP3 ADD SWAP1 POP PUSH2 0x1E57 PUSH1 0x0 DUP4 ADD DUP5 PUSH2 0x1C69 JUMP JUMPDEST SWAP3 SWAP2 POP POP JUMP JUMPDEST PUSH1 0x0 PUSH1 0x20 DUP3 ADD SWAP1 POP PUSH2 0x1E72 PUSH1 0x0 DUP4 ADD DUP5 PUSH2 0x1CE5 JUMP JUMPDEST SWAP3 SWAP2 POP POP JUMP JUMPDEST PUSH1 0x0 PUSH2 0x160 DUP3 ADD SWAP1 POP PUSH2 0x1E8E PUSH1 0x0 DUP4 ADD DUP15 PUSH2 0x1CE5 JUMP JUMPDEST PUSH2 0x1E9B PUSH1 0x20 DUP4 ADD DUP14 PUSH2 0x1CE5 JUMP JUMPDEST DUP2 DUP2 SUB PUSH1 0x40 DUP4 ADD MSTORE PUSH2 0x1EAD DUP2 DUP13 PUSH2 0x1D44 JUMP JUMPDEST SWAP1 POP DUP2 DUP2 SUB PUSH1 0x60 DUP4 ADD MSTORE PUSH2 0x1EC1 DUP2 DUP12 PUSH2 0x1D44 JUMP JUMPDEST SWAP1 POP PUSH2 0x1ED0 PUSH1 0x80 DUP4 ADD DUP11 PUSH2 0x1CE5 JUMP JUMPDEST PUSH2 0x1EDD PUSH1 0xA0 DUP4 ADD DUP10 PUSH2 0x1CE5 JUMP JUMPDEST PUSH2 0x1EEA PUSH1 0xC0 DUP4 ADD DUP9 PUSH2 0x1CE5 JUMP JUMPDEST PUSH2 0x1EF7 PUSH1 0xE0 DUP4 ADD DUP8 PUSH2 0x1CE5 JUMP JUMPDEST PUSH2 0x1F05 PUSH2 0x100 DUP4 ADD DUP7 PUSH2 0x1CE5 JUMP JUMPDEST DUP2 DUP2 SUB PUSH2 0x120 DUP4 ADD MSTORE PUSH2 0x1F18 DUP2 DUP6 PUSH2 0x1D44 JUMP JUMPDEST SWAP1 POP PUSH2 0x1F28 PUSH2 0x140 DUP4 ADD DUP5 PUSH2 0x1CE5 JUMP JUMPDEST SWAP13 SWAP12 POP POP POP POP POP POP POP POP POP POP POP POP JUMP JUMPDEST PUSH1 0x0 PUSH1 0xC0 DUP3 ADD SWAP1 POP PUSH2 0x1F4D PUSH1 0x0 DUP4 ADD DUP10 PUSH2 0x1CE5 JUMP JUMPDEST PUSH2 0x1F5A PUSH1 0x20 DUP4 ADD DUP9 PUSH2 0x1CE5 JUMP JUMPDEST PUSH2 0x1F67 PUSH1 0x40 DUP4 ADD DUP8 PUSH2 0x1E18 JUMP JUMPDEST PUSH2 0x1F74 PUSH1 0x60 DUP4 ADD DUP7 PUSH2 0x1E18 JUMP JUMPDEST PUSH2 0x1F81 PUSH1 0x80 DUP4 ADD DUP6 PUSH2 0x1CE5 JUMP JUMPDEST PUSH2 0x1F8E PUSH1 0xA0 DUP4 ADD DUP5 PUSH2 0x1C69 JUMP JUMPDEST SWAP8 SWAP7 POP POP POP POP POP POP POP JUMP JUMPDEST PUSH1 0x0 PUSH1 0xE0 DUP3 ADD SWAP1 POP PUSH2 0x1FAE PUSH1 0x0 DUP4 ADD DUP11 PUSH2 0x1CE5 JUMP JUMPDEST PUSH2 0x1FBB PUSH1 0x20 DUP4 ADD DUP10 PUSH2 0x1E09 JUMP JUMPDEST PUSH2 0x1FC8 PUSH1 0x40 DUP4 ADD DUP9 PUSH2 0x1E09 JUMP JUMPDEST PUSH2 0x1FD5 PUSH1 0x60 DUP4 ADD DUP8 PUSH2 0x1E09 JUMP JUMPDEST PUSH2 0x1FE2 PUSH1 0x80 DUP4 ADD DUP7 PUSH2 0x1E18 JUMP JUMPDEST PUSH2 0x1FEF PUSH1 0xA0 DUP4 ADD DUP6 PUSH2 0x1E18 JUMP JUMPDEST DUP2 DUP2 SUB PUSH1 0xC0 DUP4 ADD MSTORE PUSH2 0x2001 DUP2 DUP5 PUSH2 0x1C78 JUMP JUMPDEST SWAP1 POP SWAP9 SWAP8 POP POP POP POP POP POP POP POP JUMP JUMPDEST PUSH1 0x0 PUSH1 0x40 DUP3 ADD SWAP1 POP PUSH2 0x2024 PUSH1 0x0 DUP4 ADD DUP6 PUSH2 0x1CE5 JUMP JUMPDEST PUSH2 0x2031 PUSH1 0x20 DUP4 ADD DUP5 PUSH2 0x1E18 JUMP JUMPDEST SWAP4 SWAP3 POP POP POP JUMP JUMPDEST PUSH1 0x0 PUSH1 0x40 DUP3 ADD SWAP1 POP DUP2 DUP2 SUB PUSH1 0x0 DUP4 ADD MSTORE PUSH2 0x2052 DUP2 DUP6 PUSH2 0x1D0B JUMP JUMPDEST SWAP1 POP PUSH2 0x2061 PUSH1 0x20 DUP4 ADD DUP5 PUSH2 0x1E18 JUMP JUMPDEST SWAP4 SWAP3 POP POP POP JUMP JUMPDEST PUSH1 0x0 PUSH1 0x20 DUP3 ADD SWAP1 POP DUP2 DUP2 SUB PUSH1 0x0 DUP4 ADD MSTORE PUSH2 0x2081 DUP2 PUSH2 0x1D7D JUMP JUMPDEST SWAP1 POP SWAP2 SWAP1 POP JUMP JUMPDEST PUSH1 0x0 PUSH1 0x20 DUP3 ADD SWAP1 POP DUP2 DUP2 SUB PUSH1 0x0 DUP4 ADD MSTORE PUSH2 0x20A1 DUP2 PUSH2 0x1DA0 JUMP JUMPDEST SWAP1 POP SWAP2 SWAP1 POP JUMP JUMPDEST PUSH1 0x0 PUSH1 0x20 DUP3 ADD SWAP1 POP DUP2 DUP2 SUB PUSH1 0x0 DUP4 ADD MSTORE PUSH2 0x20C1 DUP2 PUSH2 0x1DC3 JUMP JUMPDEST SWAP1 POP SWAP2 SWAP1 POP JUMP JUMPDEST PUSH1 0x0 PUSH1 0x20 DUP3 ADD SWAP1 POP DUP2 DUP2 SUB PUSH1 0x0 DUP4 ADD MSTORE PUSH2 0x20E1 DUP2 PUSH2 0x1DE6 JUMP JUMPDEST SWAP1 POP SWAP2 SWAP1 POP JUMP JUMPDEST PUSH1 0x0 PUSH1 0x20 DUP3 ADD SWAP1 POP PUSH2 0x20FD PUSH1 0x0 DUP4 ADD DUP5 PUSH2 0x1E18 JUMP JUMPDEST SWAP3 SWAP2 POP POP JUMP JUMPDEST PUSH1 0x0 PUSH1 0x60 DUP3 ADD SWAP1 POP PUSH2 0x2118 PUSH1 0x0 DUP4 ADD DUP7 PUSH2 0x1E18 JUMP JUMPDEST PUSH2 0x2125 PUSH1 0x20 DUP4 ADD DUP6 PUSH2 0x1CE5 JUMP JUMPDEST PUSH2 0x2132 PUSH1 0x40 DUP4 ADD DUP5 PUSH2 0x1CE5 JUMP JUMPDEST SWAP5 SWAP4 POP POP POP POP JUMP JUMPDEST PUSH1 0x0 DUP2 SWAP1 POP PUSH1 0x20 DUP3 ADD SWAP1 POP SWAP2 SWAP1 POP JUMP JUMPDEST PUSH1 0x0 DUP2 MLOAD SWAP1 POP SWAP2 SWAP1 POP JUMP JUMPDEST PUSH1 0x0 DUP2 MLOAD SWAP1 POP SWAP2 SWAP1 POP JUMP JUMPDEST PUSH1 0x0 DUP2 MLOAD SWAP1 POP SWAP2 SWAP1 POP JUMP JUMPDEST PUSH1 0x0 PUSH1 0x20 DUP3 ADD SWAP1 POP SWAP2 SWAP1 POP JUMP JUMPDEST PUSH1 0x0 DUP3 DUP3 MSTORE PUSH1 0x20 DUP3 ADD SWAP1 POP SWAP3 SWAP2 POP POP JUMP JUMPDEST PUSH1 0x0 DUP3 DUP3 MSTORE PUSH1 0x20 DUP3 ADD SWAP1 POP SWAP3 SWAP2 POP POP JUMP JUMPDEST PUSH1 0x0 DUP3 DUP3 MSTORE PUSH1 0x20 DUP3 ADD SWAP1 POP SWAP3 SWAP2 POP POP JUMP JUMPDEST PUSH1 0x0 PUSH2 0x21B6 DUP3 PUSH2 0x22FA JUMP JUMPDEST SWAP2 POP PUSH2 0x21C1 DUP4 PUSH2 0x22FA JUMP JUMPDEST SWAP3 POP DUP3 PUSH2 0xFFFF SUB DUP3 GT ISZERO PUSH2 0x21D8 JUMPI PUSH2 0x21D7 PUSH2 0x2470 JUMP JUMPDEST JUMPDEST DUP3 DUP3 ADD SWAP1 POP SWAP3 SWAP2 POP POP JUMP JUMPDEST PUSH1 0x0 PUSH2 0x21EE DUP3 PUSH2 0x2328 JUMP JUMPDEST SWAP2 POP PUSH2 0x21F9 DUP4 PUSH2 0x2328 JUMP JUMPDEST SWAP3 POP DUP3 PUSH2 0x2209 JUMPI PUSH2 0x2208 PUSH2 0x249F JUMP JUMPDEST JUMPDEST DUP3 DUP3 DIV SWAP1 POP SWAP3 SWAP2 POP POP JUMP JUMPDEST PUSH1 0x0 PUSH2 0x221F DUP3 PUSH2 0x22FA JUMP JUMPDEST SWAP2 POP PUSH2 0x222A DUP4 PUSH2 0x22FA JUMP JUMPDEST SWAP3 POP DUP2 PUSH2 0xFFFF DIV DUP4 GT DUP3 ISZERO ISZERO AND ISZERO PUSH2 0x2245 JUMPI PUSH2 0x2244 PUSH2 0x2470 JUMP JUMPDEST JUMPDEST DUP3 DUP3 MUL SWAP1 POP SWAP3 SWAP2 POP POP JUMP JUMPDEST PUSH1 0x0 PUSH2 0x225B DUP3 PUSH2 0x2328 JUMP JUMPDEST SWAP2 POP PUSH2 0x2266 DUP4 PUSH2 0x2328 JUMP JUMPDEST SWAP3 POP DUP2 PUSH32 0xFFFFFFFFFFFFFFFFFFFFFFFFFFFFFFFFFFFFFFFFFFFFFFFFFFFFFFFFFFFFFFFF DIV DUP4 GT DUP3 ISZERO ISZERO AND ISZERO PUSH2 0x229F JUMPI PUSH2 0x229E PUSH2 0x2470 JUMP JUMPDEST JUMPDEST DUP3 DUP3 MUL SWAP1 POP SWAP3 SWAP2 POP POP JUMP JUMPDEST PUSH1 0x0 PUSH2 0x22B5 DUP3 PUSH2 0x2328 JUMP JUMPDEST SWAP2 POP PUSH2 0x22C0 DUP4 PUSH2 0x2328 JUMP JUMPDEST SWAP3 POP DUP3 DUP3 LT ISZERO PUSH2 0x22D3 JUMPI PUSH2 0x22D2 PUSH2 0x2470 JUMP JUMPDEST JUMPDEST DUP3 DUP3 SUB SWAP1 POP SWAP3 SWAP2 POP POP JUMP JUMPDEST PUSH1 0x0 PUSH2 0x22E9 DUP3 PUSH2 0x2308 JUMP JUMPDEST SWAP1 POP SWAP2 SWAP1 POP JUMP JUMPDEST PUSH1 0x0 DUP2 SWAP1 POP SWAP2 SWAP1 POP JUMP JUMPDEST PUSH1 0x0 PUSH2 0xFFFF DUP3 AND SWAP1 POP SWAP2 SWAP1 POP JUMP JUMPDEST PUSH1 0x0 PUSH20 0xFFFFFFFFFFFFFFFFFFFFFFFFFFFFFFFFFFFFFFFF DUP3 AND SWAP1 POP SWAP2 SWAP1 POP JUMP JUMPDEST PUSH1 0x0 DUP2 SWAP1 POP SWAP2 SWAP1 POP JUMP JUMPDEST PUSH1 0x0 JUMPDEST DUP4 DUP2 LT ISZERO PUSH2 0x2350 JUMPI DUP1 DUP3 ADD MLOAD DUP2 DUP5 ADD MSTORE PUSH1 0x20 DUP2 ADD SWAP1 POP PUSH2 0x2335 JUMP JUMPDEST DUP4 DUP2 GT ISZERO PUSH2 0x235F JUMPI PUSH1 0x0 DUP5 DUP5 ADD MSTORE JUMPDEST POP POP POP POP JUMP JUMPDEST PUSH1 0x0 PUSH2 0x2370 DUP3 PUSH2 0x22FA JUMP JUMPDEST SWAP2 POP PUSH1 0x0 DUP3 EQ ISZERO PUSH2 0x2384 JUMPI PUSH2 0x2383 PUSH2 0x2470 JUMP JUMPDEST JUMPDEST PUSH1 0x1 DUP3 SUB SWAP1 POP SWAP2 SWAP1 POP JUMP JUMPDEST PUSH1 0x0 PUSH1 0x2 DUP3 DIV SWAP1 POP PUSH1 0x1 DUP3 AND DUP1 PUSH2 0x23A7 JUMPI PUSH1 0x7F DUP3 AND SWAP2 POP JUMPDEST PUSH1 0x20 DUP3 LT DUP2 EQ ISZERO PUSH2 0x23BB JUMPI PUSH2 0x23BA PUSH2 0x24CE JUMP JUMPDEST JUMPDEST POP SWAP2 SWAP1 POP JUMP JUMPDEST PUSH1 0x0 PUSH2 0x23CC DUP3 PUSH2 0x22FA JUMP JUMPDEST SWAP2 POP PUSH2 0xFFFF DUP3 EQ ISZERO PUSH2 0x23E1 JUMPI PUSH2 0x23E0 PUSH2 0x2470 JUMP JUMPDEST JUMPDEST PUSH1 0x1 DUP3 ADD SWAP1 POP SWAP2 SWAP1 POP JUMP JUMPDEST PUSH1 0x0 PUSH2 0x23F7 DUP3 PUSH2 0x2328 JUMP JUMPDEST SWAP2 POP PUSH32 0xFFFFFFFFFFFFFFFFFFFFFFFFFFFFFFFFFFFFFFFFFFFFFFFFFFFFFFFFFFFFFFFF DUP3 EQ ISZERO PUSH2 0x242A JUMPI PUSH2 0x2429 PUSH2 0x2470 JUMP JUMPDEST JUMPDEST PUSH1 0x1 DUP3 ADD SWAP1 POP SWAP2 SWAP1 POP JUMP JUMPDEST PUSH1 0x0 DUP2 SWAP1 POP SWAP2 SWAP1 POP JUMP JUMPDEST PUSH1 0x0 PUSH2 0x244A DUP3 PUSH2 0x2328 JUMP JUMPDEST SWAP2 POP PUSH2 0x2455 DUP4 PUSH2 0x2328 JUMP JUMPDEST SWAP3 POP DUP3 PUSH2 0x2465 JUMPI PUSH2 0x2464 PUSH2 0x249F JUMP JUMPDEST JUMPDEST DUP3 DUP3 MOD SWAP1 POP SWAP3 SWAP2 POP POP JUMP JUMPDEST PUSH32 0x4E487B7100000000000000000000000000000000000000000000000000000000 PUSH1 0x0 MSTORE PUSH1 0x11 PUSH1 0x4 MSTORE PUSH1 0x24 PUSH1 0x0 REVERT JUMPDEST PUSH32 0x4E487B7100000000000000000000000000000000000000000000000000000000 PUSH1 0x0 MSTORE PUSH1 0x12 PUSH1 0x4 MSTORE PUSH1 0x24 PUSH1 0x0 REVERT JUMPDEST PUSH32 0x4E487B7100000000000000000000000000000000000000000000000000000000 PUSH1 0x0 MSTORE PUSH1 0x22 PUSH1 0x4 MSTORE PUSH1 0x24 PUSH1 0x0 REVERT JUMPDEST PUSH1 0x0 PUSH1 0x1F NOT PUSH1 0x1F DUP4 ADD AND SWAP1 POP SWAP2 SWAP1 POP JUMP JUMPDEST PUSH32 0x546865206964206F662074686520696E7375726564206973206E6F7420696E20 PUSH1 0x0 DUP3 ADD MSTORE PUSH32 0x74686520706F6C6963792E000000000000000000000000000000000000000000 PUSH1 0x20 DUP3 ADD MSTORE POP JUMP JUMPDEST PUSH32 0x59612065786973746520756E612050435220636F6E2065736520494400000000 PUSH1 0x0 DUP3 ADD MSTORE POP JUMP JUMPDEST PUSH32 0x4C6120504352207469656E652071756520657869737469720000000000000000 PUSH1 0x0 DUP3 ADD MSTORE POP JUMP JUMPDEST PUSH32 0x4E6F2065786973746520756E612050435220636F6E2065736120494400000000 PUSH1 0x0 DUP3 ADD MSTORE POP JUMP JUMPDEST PUSH2 0x25E1 DUP2 PUSH2 0x22DE JUMP JUMPDEST DUP2 EQ PUSH2 0x25EC JUMPI PUSH1 0x0 DUP1 REVERT JUMPDEST POP JUMP JUMPDEST PUSH2 0x25F8 DUP2 PUSH2 0x22F0 JUMP JUMPDEST DUP2 EQ PUSH2 0x2603 JUMPI PUSH1 0x0 DUP1 REVERT JUMPDEST POP JUMP JUMPDEST PUSH2 0x260F DUP2 PUSH2 0x2328 JUMP JUMPDEST DUP2 EQ PUSH2 0x261A JUMPI PUSH1 0x0 DUP1 REVERT JUMPDEST POP JUMP INVALID LOG2 PUSH5 0x6970667358 0x22 SLT KECCAK256 LOG2 EXTCODECOPY 0x23 0xE3 ISZERO POP EQ PUSH31 0xE64C47D4ACE660D8ABD403DF283E1FCE5141F0EB52E61F4564736F6C634300 ADDMOD SUB STOP CALLER "
    },
    "gasEstimates": {
      "creation": {
        "codeDepositCost": "1962200",
        "executionCost": "infinite",
        "totalCost": "infinite"
      },
      "external": {
        "addPCRtoInsured(bytes32,bytes32,uint256,address)": "infinite",
        "addSpcAddress(address)": "43234",
        "calculateCompensation()": "infinite",
        "compensation()": "infinite",
        "deletePCR(bytes32)": "45491",
        "destructContract()": "31888",
        "getId()": "1188",
        "getInsuranceData()": "infinite",
        "getPCR(bytes32)": "infinite",
        "getTakerData()": "infinite",
        "getTakerId()": "1231",
        "serializeInsurance()": "infinite",
        "updatePCR(bytes32,bytes32)": "infinite"
      }
    },
    "methodIdentifiers": {
      "addPCRtoInsured(bytes32,bytes32,uint256,address)": "2f0519d4",
      "addSpcAddress(address)": "297e6306",
      "calculateCompensation()": "121b5a25",
      "compensation()": "40d5ff58",
      "deletePCR(bytes32)": "62a681b3",
      "destructContract()": "9499e018",
      "getId()": "5d1ca631",
      "getInsuranceData()": "92ed93d0",
      "getPCR(bytes32)": "169e68c3",
      "getTakerData()": "e0caf0bd",
      "getTakerId()": "fc1c7a70",
      "serializeInsurance()": "236f45d9",
      "updatePCR(bytes32,bytes32)": "2357aef3"
    }
  },
  "storageLayout": {
    "storage": [
      {
        "astId": 223,
        "contract": "Insurance.sol:Insurance",
        "label": "owner",
        "offset": 0,
        "slot": "0",
        "type": "t_address_payable"
      },
      {
        "astId": 225,
        "contract": "Insurance.sol:Insurance",
        "label": "spcAddress",
        "offset": 0,
        "slot": "1",
        "type": "t_address"
      },
      {
        "astId": 227,
        "contract": "Insurance.sol:Insurance",
        "label": "spcAddressAdded",
        "offset": 20,
        "slot": "1",
        "type": "t_bool"
      },
      {
        "astId": 231,
        "contract": "Insurance.sol:Insurance",
        "label": "pcrLocation",
        "offset": 0,
        "slot": "2",
        "type": "t_mapping(t_bytes32,t_uint256)"
      },
      {
        "astId": 236,
        "contract": "Insurance.sol:Insurance",
        "label": "insuredPCRs",
        "offset": 0,
        "slot": "3",
        "type": "t_mapping(t_bytes32,t_array(t_bytes32)dyn_storage)"
      },
      {
        "astId": 240,
        "contract": "Insurance.sol:Insurance",
        "label": "insuredInInsurance",
        "offset": 0,
        "slot": "4",
        "type": "t_mapping(t_bytes32,t_bool)"
      },
      {
        "astId": 244,
        "contract": "Insurance.sol:Insurance",
        "label": "isPcrActive",
        "offset": 0,
        "slot": "5",
        "type": "t_mapping(t_bytes32,t_bool)"
      },
      {
        "astId": 248,
        "contract": "Insurance.sol:Insurance",
        "label": "pcrIdToInsuredId",
        "offset": 0,
        "slot": "6",
        "type": "t_mapping(t_bytes32,t_bytes32)"
      },
      {
        "astId": 252,
        "contract": "Insurance.sol:Insurance",
        "label": "insuredNegPcrHash",
        "offset": 0,
        "slot": "7",
        "type": "t_mapping(t_bytes32,t_bytes32)"
      },
      {
        "astId": 256,
        "contract": "Insurance.sol:Insurance",
        "label": "insuredNegPcrDate",
        "offset": 0,
        "slot": "8",
        "type": "t_mapping(t_bytes32,t_uint256)"
      },
      {
        "astId": 261,
        "contract": "Insurance.sol:Insurance",
        "label": "pcrIdToData",
        "offset": 0,
        "slot": "9",
        "type": "t_mapping(t_bytes32,t_struct(PcrData)221_storage)"
      },
      {
        "astId": 264,
        "contract": "Insurance.sol:Insurance",
        "label": "insuranceData",
        "offset": 0,
        "slot": "10",
        "type": "t_struct(InsuranceData)185_storage"
      },
      {
        "astId": 267,
        "contract": "Insurance.sol:Insurance",
        "label": "takerData",
        "offset": 0,
        "slot": "16",
        "type": "t_struct(TakerData)208_storage"
      },
      {
        "astId": 269,
        "contract": "Insurance.sol:Insurance",
        "label": "positivePcrTest",
        "offset": 0,
        "slot": "27",
        "type": "t_bool"
      },
      {
        "astId": 271,
        "contract": "Insurance.sol:Insurance",
        "label": "paymentEmitted",
        "offset": 1,
        "slot": "27",
        "type": "t_bool"
      },
      {
        "astId": 273,
        "contract": "Insurance.sol:Insurance",
        "label": "timePaymentEmitted",
        "offset": 0,
        "slot": "28",
        "type": "t_uint256"
      }
    ],
    "types": {
      "t_address": {
        "encoding": "inplace",
        "label": "address",
        "numberOfBytes": "20"
      },
      "t_address_payable": {
        "encoding": "inplace",
        "label": "address payable",
        "numberOfBytes": "20"
      },
      "t_array(t_bytes32)dyn_storage": {
        "base": "t_bytes32",
        "encoding": "dynamic_array",
        "label": "bytes32[]",
        "numberOfBytes": "32"
      },
      "t_bool": {
        "encoding": "inplace",
        "label": "bool",
        "numberOfBytes": "1"
      },
      "t_bytes32": {
        "encoding": "inplace",
        "label": "bytes32",
        "numberOfBytes": "32"
      },
      "t_mapping(t_bytes32,t_array(t_bytes32)dyn_storage)": {
        "encoding": "mapping",
        "key": "t_bytes32",
        "label": "mapping(bytes32 => bytes32[])",
        "numberOfBytes": "32",
        "value": "t_array(t_bytes32)dyn_storage"
      },
      "t_mapping(t_bytes32,t_bool)": {
        "encoding": "mapping",
        "key": "t_bytes32",
        "label": "mapping(bytes32 => bool)",
        "numberOfBytes": "32",
        "value": "t_bool"
      },
      "t_mapping(t_bytes32,t_bytes32)": {
        "encoding": "mapping",
        "key": "t_bytes32",
        "label": "mapping(bytes32 => bytes32)",
        "numberOfBytes": "32",
        "value": "t_bytes32"
      },
      "t_mapping(t_bytes32,t_struct(PcrData)221_storage)": {
        "encoding": "mapping",
        "key": "t_bytes32",
        "label": "mapping(bytes32 => struct Insurance.PcrData)",
        "numberOfBytes": "32",
        "value": "t_struct(PcrData)221_storage"
      },
      "t_mapping(t_bytes32,t_uint256)": {
        "encoding": "mapping",
        "key": "t_bytes32",
        "label": "mapping(bytes32 => uint256)",
        "numberOfBytes": "32",
        "value": "t_uint256"
      },
      "t_string_storage": {
        "encoding": "bytes",
        "label": "string",
        "numberOfBytes": "32"
      },
      "t_struct(InsuranceData)185_storage": {
        "encoding": "inplace",
        "label": "struct Insurance.InsuranceData",
        "members": [
          {
            "astId": 167,
            "contract": "Insurance.sol:Insurance",
            "label": "dailyCompensation",
            "offset": 0,
            "slot": "0",
            "type": "t_uint16"
          },
          {
            "astId": 169,
            "contract": "Insurance.sol:Insurance",
            "label": "daysToCompensate",
            "offset": 2,
            "slot": "0",
            "type": "t_uint16"
          },
          {
            "astId": 171,
            "contract": "Insurance.sol:Insurance",
            "label": "pcrNumber",
            "offset": 4,
            "slot": "0",
            "type": "t_uint16"
          },
          {
            "astId": 173,
            "contract": "Insurance.sol:Insurance",
            "label": "insuredNumber",
            "offset": 6,
            "slot": "0",
            "type": "t_uint16"
          },
          {
            "astId": 175,
            "contract": "Insurance.sol:Insurance",
            "label": "id",
            "offset": 0,
            "slot": "1",
            "type": "t_bytes32"
          },
          {
            "astId": 177,
            "contract": "Insurance.sol:Insurance",
            "label": "insuranceStartDate",
            "offset": 0,
            "slot": "2",
            "type": "t_uint256"
          },
          {
            "astId": 179,
            "contract": "Insurance.sol:Insurance",
            "label": "insuranceFinishDate",
            "offset": 0,
            "slot": "3",
            "type": "t_uint256"
          },
          {
            "astId": 181,
            "contract": "Insurance.sol:Insurance",
            "label": "contractDate",
            "offset": 0,
            "slot": "4",
            "type": "t_uint256"
          },
          {
            "astId": 184,
            "contract": "Insurance.sol:Insurance",
            "label": "insureds",
            "offset": 0,
            "slot": "5",
            "type": "t_array(t_bytes32)dyn_storage"
          }
        ],
        "numberOfBytes": "192"
      },
      "t_struct(PcrData)221_storage": {
        "encoding": "inplace",
        "label": "struct Insurance.PcrData",
        "members": [
          {
            "astId": 210,
            "contract": "Insurance.sol:Insurance",
            "label": "result",
            "offset": 0,
            "slot": "0",
            "type": "t_bytes32"
          },
          {
            "astId": 212,
            "contract": "Insurance.sol:Insurance",
            "label": "id",
            "offset": 0,
            "slot": "1",
            "type": "t_bytes32"
          },
          {
            "astId": 214,
            "contract": "Insurance.sol:Insurance",
            "label": "insuredId",
            "offset": 0,
            "slot": "2",
            "type": "t_bytes32"
          },
          {
            "astId": 216,
            "contract": "Insurance.sol:Insurance",
            "label": "requestDate",
            "offset": 0,
            "slot": "3",
            "type": "t_uint256"
          },
          {
            "astId": 218,
            "contract": "Insurance.sol:Insurance",
            "label": "resultDate",
            "offset": 0,
            "slot": "4",
            "type": "t_uint256"
          },
          {
            "astId": 220,
            "contract": "Insurance.sol:Insurance",
            "label": "contractAddress",
            "offset": 0,
            "slot": "5",
            "type": "t_address"
          }
        ],
        "numberOfBytes": "192"
      },
      "t_struct(TakerData)208_storage": {
        "encoding": "inplace",
        "label": "struct Insurance.TakerData",
        "members": [
          {
            "astId": 187,
            "contract": "Insurance.sol:Insurance",
            "label": "takerName",
            "offset": 0,
            "slot": "0",
            "type": "t_string_storage"
          },
          {
            "astId": 189,
            "contract": "Insurance.sol:Insurance",
            "label": "takerAddress",
            "offset": 0,
            "slot": "1",
            "type": "t_string_storage"
          },
          {
            "astId": 191,
            "contract": "Insurance.sol:Insurance",
            "label": "takerEmail",
            "offset": 0,
            "slot": "2",
            "type": "t_string_storage"
          },
          {
            "astId": 193,
            "contract": "Insurance.sol:Insurance",
            "label": "takerId",
            "offset": 0,
            "slot": "3",
            "type": "t_bytes32"
          },
          {
            "astId": 195,
            "contract": "Insurance.sol:Insurance",
            "label": "takerNif",
            "offset": 0,
            "slot": "4",
            "type": "t_bytes32"
          },
          {
            "astId": 197,
            "contract": "Insurance.sol:Insurance",
            "label": "takerPostalCode",
            "offset": 0,
            "slot": "5",
            "type": "t_bytes32"
          },
          {
            "astId": 199,
            "contract": "Insurance.sol:Insurance",
            "label": "takerTown",
            "offset": 0,
            "slot": "6",
            "type": "t_bytes32"
          },
          {
            "astId": 201,
            "contract": "Insurance.sol:Insurance",
            "label": "takerLocation",
            "offset": 0,
            "slot": "7",
            "type": "t_bytes32"
          },
          {
            "astId": 203,
            "contract": "Insurance.sol:Insurance",
            "label": "takerTelephone",
            "offset": 0,
            "slot": "8",
            "type": "t_bytes32"
          },
          {
            "astId": 205,
            "contract": "Insurance.sol:Insurance",
            "label": "takerMobile",
            "offset": 0,
            "slot": "9",
            "type": "t_bytes32"
          },
          {
            "astId": 207,
            "contract": "Insurance.sol:Insurance",
            "label": "takerIban",
            "offset": 0,
            "slot": "10",
            "type": "t_bytes32"
          }
        ],
        "numberOfBytes": "352"
      },
      "t_uint16": {
        "encoding": "inplace",
        "label": "uint16",
        "numberOfBytes": "2"
      },
      "t_uint256": {
        "encoding": "inplace",
        "label": "uint256",
        "numberOfBytes": "32"
      }
    }
  },
  "userdoc": {
    "events": {
      "positivePcr(bytes32,uint256)": {
        "notice": "Events to emit the information about a sinister."
      }
    },
    "kind": "user",
    "methods": {
      "addPCRtoInsured(bytes32,bytes32,uint256,address)": {
        "notice": "Add new PCR to an insured."
      },
      "addSpcAddress(address)": {
        "notice": "Modify the address of the general contract. It only can be used 1 time."
      },
      "calculateCompensation()": {
        "notice": "Returns the amount of the compensation."
      },
      "compensation()": {
        "notice": "Fires when the contract get a positive PCR."
      },
      "constructor": {
        "notice": "Fill the information of taker data and insurance data."
      },
      "deletePCR(bytes32)": {
        "notice": "Deletes a pcr already requested by an insured."
      },
      "destructContract()": {
        "notice": "Delete the contract of the blockchain."
      },
      "getId()": {
        "notice": "Returns only the insurance identifier."
      },
      "getInsuranceData()": {
        "notice": "Returns the information of the insurance data."
      },
      "getPCR(bytes32)": {
        "notice": "Returns the information of a PCR."
      },
      "getTakerData()": {
        "notice": "Returns the information of the taker data."
      },
      "getTakerId()": {
        "notice": "Returns only the taker identifier."
      },
      "serializeInsurance()": {
        "notice": "Convert all the information of the insurance into an array of bytes."
      },
      "updatePCR(bytes32,bytes32)": {
        "notice": "Update the result of a pending PCR that a insured had already registered."
      }
    },
    "version": 1
  }
}