{
  "abi": [
    {
      "inputs": [
        {
          "internalType": "bytes32[]",
          "name": "_insuredsNegPcrHash",
          "type": "bytes32[]"
        },
        {
          "internalType": "uint256[]",
          "name": "_insuredsNegPcrDate",
          "type": "uint256[]"
        },
        {
          "internalType": "bytes32[]",
          "name": "_ids",
          "type": "bytes32[]"
        },
        {
          "internalType": "bytes32[]",
          "name": "_insureds",
          "type": "bytes32[]"
        },
        {
          "internalType": "uint256[]",
          "name": "_insuranceStartFinishDate",
          "type": "uint256[]"
        },
        {
          "internalType": "uint16[]",
          "name": "_dailyCompensationAndDuration",
          "type": "uint16[]"
        },
        {
          "internalType": "bytes32[]",
          "name": "_takerData",
          "type": "bytes32[]"
        },
        {
          "internalType": "string",
          "name": "_takerName",
          "type": "string"
        },
        {
          "internalType": "string",
          "name": "_takerAddress",
          "type": "string"
        },
        {
          "internalType": "string",
          "name": "_takerEmail",
          "type": "string"
        }
      ],
      "stateMutability": "nonpayable",
      "type": "constructor"
    },
    {
      "anonymous": false,
      "inputs": [
        {
          "indexed": false,
          "internalType": "uint256",
          "name": "quantity",
          "type": "uint256"
        },
        {
          "indexed": false,
          "internalType": "bytes32",
          "name": "hotelId",
          "type": "bytes32"
        },
        {
          "indexed": false,
          "internalType": "bytes32",
          "name": "hotelIban",
          "type": "bytes32"
        }
      ],
      "name": "checkPayment",
      "type": "event"
    },
    {
      "anonymous": false,
      "inputs": [
        {
          "indexed": false,
          "internalType": "bytes32",
          "name": "customerId",
          "type": "bytes32"
        },
        {
          "indexed": false,
          "internalType": "uint256",
          "name": "resultDate",
          "type": "uint256"
        }
      ],
      "name": "positivePcr",
      "type": "event"
    },
    {
      "inputs": [
        {
          "internalType": "bytes32",
          "name": "_insuredId",
          "type": "bytes32"
        },
        {
          "internalType": "bytes32",
          "name": "_idPcr",
          "type": "bytes32"
        },
        {
          "internalType": "uint256",
          "name": "_requestDate",
          "type": "uint256"
        }
      ],
      "name": "addPCRtoInsured",
      "outputs": [],
      "stateMutability": "nonpayable",
      "type": "function"
    },
    {
      "inputs": [
        {
          "internalType": "address",
          "name": "_spcAddress",
          "type": "address"
        }
      ],
      "name": "addSpcAddress",
      "outputs": [],
      "stateMutability": "nonpayable",
      "type": "function"
    },
    {
      "inputs": [],
      "name": "calculateCompensation",
      "outputs": [
        {
          "internalType": "uint256",
          "name": "amount",
          "type": "uint256"
        }
      ],
      "stateMutability": "view",
      "type": "function"
    },
    {
      "inputs": [],
      "name": "compensation",
      "outputs": [],
      "stateMutability": "nonpayable",
      "type": "function"
    },
    {
      "inputs": [
        {
          "internalType": "bytes32",
          "name": "_idPCR",
          "type": "bytes32"
        }
      ],
      "name": "deletePCR",
      "outputs": [],
      "stateMutability": "nonpayable",
      "type": "function"
    },
    {
      "inputs": [],
      "name": "destructContract",
      "outputs": [],
      "stateMutability": "nonpayable",
      "type": "function"
    },
    {
      "inputs": [],
      "name": "getId",
      "outputs": [
        {
          "internalType": "bytes32",
          "name": "insuranceId",
          "type": "bytes32"
        }
      ],
      "stateMutability": "view",
      "type": "function"
    },
    {
      "inputs": [],
      "name": "getInsuranceData",
      "outputs": [
        {
          "internalType": "bytes32",
          "name": "idPolicy",
          "type": "bytes32"
        },
        {
          "internalType": "uint16",
          "name": "dailyCompensationPolicy",
          "type": "uint16"
        },
        {
          "internalType": "uint16",
          "name": "daysToCompensatePolicy",
          "type": "uint16"
        },
        {
          "internalType": "uint16",
          "name": "insuredNumberPolicy",
          "type": "uint16"
        },
        {
          "internalType": "uint256",
          "name": "startDatePolicy",
          "type": "uint256"
        },
        {
          "internalType": "uint256",
          "name": "finishDatePolicy",
          "type": "uint256"
        },
        {
          "internalType": "bytes32[]",
          "name": "insureds",
          "type": "bytes32[]"
        }
      ],
      "stateMutability": "view",
      "type": "function"
    },
    {
      "inputs": [
        {
          "internalType": "bytes32",
          "name": "_idPCR",
          "type": "bytes32"
        }
      ],
      "name": "getPCR",
      "outputs": [
        {
          "internalType": "bytes32",
          "name": "result",
          "type": "bytes32"
        },
        {
          "internalType": "bytes32",
          "name": "customerId",
          "type": "bytes32"
        },
        {
          "internalType": "uint256",
          "name": "requestDate",
          "type": "uint256"
        },
        {
          "internalType": "uint256",
          "name": "resultDate",
          "type": "uint256"
        },
        {
          "internalType": "bytes32",
          "name": "id",
          "type": "bytes32"
        }
      ],
      "stateMutability": "view",
      "type": "function"
    },
    {
      "inputs": [],
      "name": "getTakerData",
      "outputs": [
        {
          "internalType": "bytes32",
          "name": "takerId",
          "type": "bytes32"
        },
        {
          "internalType": "bytes32",
          "name": "takerNif",
          "type": "bytes32"
        },
        {
          "internalType": "string",
          "name": "takerFullName",
          "type": "string"
        },
        {
          "internalType": "string",
          "name": "takerContactAddress",
          "type": "string"
        },
        {
          "internalType": "bytes32",
          "name": "takerContactPostalCode",
          "type": "bytes32"
        },
        {
          "internalType": "bytes32",
          "name": "takerContactTown",
          "type": "bytes32"
        },
        {
          "internalType": "bytes32",
          "name": "takerContactLocation",
          "type": "bytes32"
        },
        {
          "internalType": "bytes32",
          "name": "takerContactTelephone",
          "type": "bytes32"
        },
        {
          "internalType": "bytes32",
          "name": "takerContactMobile",
          "type": "bytes32"
        },
        {
          "internalType": "string",
          "name": "takerContactEmail",
          "type": "string"
        },
        {
          "internalType": "bytes32",
          "name": "takerIBAN",
          "type": "bytes32"
        }
      ],
      "stateMutability": "view",
      "type": "function"
    },
    {
      "inputs": [],
      "name": "getTakerId",
      "outputs": [
        {
          "internalType": "bytes32",
          "name": "takerId",
          "type": "bytes32"
        }
      ],
      "stateMutability": "view",
      "type": "function"
    },
    {
      "inputs": [],
      "name": "serializeInsurance",
      "outputs": [
        {
          "internalType": "bytes",
          "name": "_serializedInsurance",
          "type": "bytes"
        },
        {
          "internalType": "uint256",
          "name": "_size",
          "type": "uint256"
        }
      ],
      "stateMutability": "view",
      "type": "function"
    },
    {
      "inputs": [
        {
          "internalType": "bytes32",
          "name": "_idPCR",
          "type": "bytes32"
        },
        {
          "internalType": "bytes32",
          "name": "_resultPCR",
          "type": "bytes32"
        }
      ],
      "name": "updatePCR",
      "outputs": [],
      "stateMutability": "nonpayable",
      "type": "function"
    }
  ],
  "devdoc": {
    "author": "Eduardo Suarez Ojeda",
    "details": "The Insurance Contract which represents the state of an insurance taken out by a hotel.",
    "kind": "dev",
    "methods": {
      "addPCRtoInsured(bytes32,bytes32,uint256)": {
        "details": "Update the PCR mappings."
      },
      "addSpcAddress(address)": {
        "details": "Updates the address of the general contract for security reasons."
      },
      "calculateCompensation()": {
        "details": "Returns only a fixed number."
      },
      "compensation()": {
        "details": "Emit the sinister event."
      },
      "deletePCR(bytes32)": {
        "details": "Updates the state of the PCR selected."
      },
      "destructContract()": {
        "details": "Only use in extreme situations."
      },
      "serializeInsurance()": {
        "details": "Returns all data of the insurance in an array of bytes."
      },
      "updatePCR(bytes32,bytes32)": {
        "details": "Update the PCR selected and fires Sinister event if the result is positive."
      }
    },
    "title": "Insurance",
    "version": 1
  },
  "evm": {
    "assembly": "    /* \"Insurance.sol\":2146:19154  contract Insurance is Seriality {... */\n  mstore(0x40, 0x80)\n    /* \"Insurance.sol\":4398:6891  constructor(... */\n  callvalue\n  dup1\n  iszero\n  tag_1\n  jumpi\n  0x00\n  dup1\n  revert\ntag_1:\n  pop\n  mload(0x40)\n  sub(codesize, bytecodeSize)\n  dup1\n  bytecodeSize\n  dup4\n  codecopy\n  dup2\n  dup2\n  add\n  0x40\n  mstore\n  dup2\n  add\n  swap1\n  tag_2\n  swap2\n  swap1\n  tag_3\n  jump\t// in\ntag_2:\n    /* \"Insurance.sol\":4856:4866  msg.sender */\n  caller\n    /* \"Insurance.sol\":4840:4845  owner */\n  0x00\n  dup1\n    /* \"Insurance.sol\":4840:4867  owner = payable(msg.sender) */\n  0x0100\n  exp\n  dup2\n  sload\n  dup2\n  0xffffffffffffffffffffffffffffffffffffffff\n  mul\n  not\n  and\n  swap1\n  dup4\n  0xffffffffffffffffffffffffffffffffffffffff\n  and\n  mul\n  or\n  swap1\n  sstore\n  pop\n    /* \"Insurance.sol\":4895:4900  false */\n  0x00\n    /* \"Insurance.sol\":4877:4892  spcAddressAdded */\n  0x01\n  0x14\n    /* \"Insurance.sol\":4877:4900  spcAddressAdded = false */\n  0x0100\n  exp\n  dup2\n  sload\n  dup2\n  0xff\n  mul\n  not\n  and\n  swap1\n  dup4\n  iszero\n  iszero\n  mul\n  or\n  swap1\n  sstore\n  pop\n    /* \"Insurance.sol\":4933:4944  _takerEmail */\n  dup1\n    /* \"Insurance.sol\":4910:4919  takerData */\n  0x0f\n    /* \"Insurance.sol\":4910:4930  takerData.takerEmail */\n  0x02\n  add\n    /* \"Insurance.sol\":4910:4944  takerData.takerEmail = _takerEmail */\n  swap1\n  dup1\n  mload\n  swap1\n  0x20\n  add\n  swap1\n  tag_8\n  swap3\n  swap2\n  swap1\n  tag_9\n  jump\t// in\ntag_8:\n  pop\n    /* \"Insurance.sol\":4979:4992  _takerAddress */\n  dup2\n    /* \"Insurance.sol\":4954:4963  takerData */\n  0x0f\n    /* \"Insurance.sol\":4954:4976  takerData.takerAddress */\n  0x01\n  add\n    /* \"Insurance.sol\":4954:4992  takerData.takerAddress = _takerAddress */\n  swap1\n  dup1\n  mload\n  swap1\n  0x20\n  add\n  swap1\n  tag_10\n  swap3\n  swap2\n  swap1\n  tag_9\n  jump\t// in\ntag_10:\n  pop\n    /* \"Insurance.sol\":5024:5034  _takerName */\n  dup3\n    /* \"Insurance.sol\":5002:5011  takerData */\n  0x0f\n    /* \"Insurance.sol\":5002:5021  takerData.takerName */\n  0x00\n  add\n    /* \"Insurance.sol\":5002:5034  takerData.takerName = _takerName */\n  swap1\n  dup1\n  mload\n  swap1\n  0x20\n  add\n  swap1\n  tag_11\n  swap3\n  swap2\n  swap1\n  tag_9\n  jump\t// in\ntag_11:\n  pop\n    /* \"Insurance.sol\":5065:5075  _takerData */\n  dup4\n    /* \"Insurance.sol\":5076:5077  0 */\n  0x00\n    /* \"Insurance.sol\":5065:5078  _takerData[0] */\n  dup2\n  mload\n  dup2\n  lt\n  tag_12\n  jumpi\n  mstore(0x00, 0x4e487b7100000000000000000000000000000000000000000000000000000000)\n  mstore(0x04, 0x32)\n  revert(0x00, 0x24)\ntag_12:\n  0x20\n  mul\n  0x20\n  add\n  add\n  mload\n    /* \"Insurance.sol\":5044:5053  takerData */\n  0x0f\n    /* \"Insurance.sol\":5044:5062  takerData.takerNif */\n  0x04\n  add\n    /* \"Insurance.sol\":5044:5078  takerData.takerNif = _takerData[0] */\n  dup2\n  swap1\n  sstore\n  pop\n    /* \"Insurance.sol\":5116:5126  _takerData */\n  dup4\n    /* \"Insurance.sol\":5127:5128  1 */\n  0x01\n    /* \"Insurance.sol\":5116:5129  _takerData[1] */\n  dup2\n  mload\n  dup2\n  lt\n  tag_13\n  jumpi\n  mstore(0x00, 0x4e487b7100000000000000000000000000000000000000000000000000000000)\n  mstore(0x04, 0x32)\n  revert(0x00, 0x24)\ntag_13:\n  0x20\n  mul\n  0x20\n  add\n  add\n  mload\n    /* \"Insurance.sol\":5088:5097  takerData */\n  0x0f\n    /* \"Insurance.sol\":5088:5113  takerData.takerPostalCode */\n  0x05\n  add\n    /* \"Insurance.sol\":5088:5129  takerData.takerPostalCode = _takerData[1] */\n  dup2\n  swap1\n  sstore\n  pop\n    /* \"Insurance.sol\":5161:5171  _takerData */\n  dup4\n    /* \"Insurance.sol\":5172:5173  2 */\n  0x02\n    /* \"Insurance.sol\":5161:5174  _takerData[2] */\n  dup2\n  mload\n  dup2\n  lt\n  tag_14\n  jumpi\n  mstore(0x00, 0x4e487b7100000000000000000000000000000000000000000000000000000000)\n  mstore(0x04, 0x32)\n  revert(0x00, 0x24)\ntag_14:\n  0x20\n  mul\n  0x20\n  add\n  add\n  mload\n    /* \"Insurance.sol\":5139:5148  takerData */\n  0x0f\n    /* \"Insurance.sol\":5139:5158  takerData.takerTown */\n  0x06\n  add\n    /* \"Insurance.sol\":5139:5174  takerData.takerTown = _takerData[2] */\n  dup2\n  swap1\n  sstore\n  pop\n    /* \"Insurance.sol\":5210:5220  _takerData */\n  dup4\n    /* \"Insurance.sol\":5221:5222  3 */\n  0x03\n    /* \"Insurance.sol\":5210:5223  _takerData[3] */\n  dup2\n  mload\n  dup2\n  lt\n  tag_15\n  jumpi\n  mstore(0x00, 0x4e487b7100000000000000000000000000000000000000000000000000000000)\n  mstore(0x04, 0x32)\n  revert(0x00, 0x24)\ntag_15:\n  0x20\n  mul\n  0x20\n  add\n  add\n  mload\n    /* \"Insurance.sol\":5184:5193  takerData */\n  0x0f\n    /* \"Insurance.sol\":5184:5207  takerData.takerLocation */\n  0x07\n  add\n    /* \"Insurance.sol\":5184:5223  takerData.takerLocation = _takerData[3] */\n  dup2\n  swap1\n  sstore\n  pop\n    /* \"Insurance.sol\":5260:5270  _takerData */\n  dup4\n    /* \"Insurance.sol\":5271:5272  4 */\n  0x04\n    /* \"Insurance.sol\":5260:5273  _takerData[4] */\n  dup2\n  mload\n  dup2\n  lt\n  tag_16\n  jumpi\n  mstore(0x00, 0x4e487b7100000000000000000000000000000000000000000000000000000000)\n  mstore(0x04, 0x32)\n  revert(0x00, 0x24)\ntag_16:\n  0x20\n  mul\n  0x20\n  add\n  add\n  mload\n    /* \"Insurance.sol\":5233:5242  takerData */\n  0x0f\n    /* \"Insurance.sol\":5233:5257  takerData.takerTelephone */\n  0x08\n  add\n    /* \"Insurance.sol\":5233:5273  takerData.takerTelephone = _takerData[4] */\n  dup2\n  swap1\n  sstore\n  pop\n    /* \"Insurance.sol\":5307:5317  _takerData */\n  dup4\n    /* \"Insurance.sol\":5318:5319  5 */\n  0x05\n    /* \"Insurance.sol\":5307:5320  _takerData[5] */\n  dup2\n  mload\n  dup2\n  lt\n  tag_17\n  jumpi\n  mstore(0x00, 0x4e487b7100000000000000000000000000000000000000000000000000000000)\n  mstore(0x04, 0x32)\n  revert(0x00, 0x24)\ntag_17:\n  0x20\n  mul\n  0x20\n  add\n  add\n  mload\n    /* \"Insurance.sol\":5283:5292  takerData */\n  0x0f\n    /* \"Insurance.sol\":5283:5304  takerData.takerMobile */\n  0x09\n  add\n    /* \"Insurance.sol\":5283:5320  takerData.takerMobile = _takerData[5] */\n  dup2\n  swap1\n  sstore\n  pop\n    /* \"Insurance.sol\":5352:5362  _takerData */\n  dup4\n    /* \"Insurance.sol\":5363:5364  6 */\n  0x06\n    /* \"Insurance.sol\":5352:5365  _takerData[6] */\n  dup2\n  mload\n  dup2\n  lt\n  tag_18\n  jumpi\n  mstore(0x00, 0x4e487b7100000000000000000000000000000000000000000000000000000000)\n  mstore(0x04, 0x32)\n  revert(0x00, 0x24)\ntag_18:\n  0x20\n  mul\n  0x20\n  add\n  add\n  mload\n    /* \"Insurance.sol\":5330:5339  takerData */\n  0x0f\n    /* \"Insurance.sol\":5330:5349  takerData.takerIban */\n  0x0a\n  add\n    /* \"Insurance.sol\":5330:5365  takerData.takerIban = _takerData[6] */\n  dup2\n  swap1\n  sstore\n  pop\n    /* \"Insurance.sol\":5423:5424  2 */\n  0x02\n    /* \"Insurance.sol\":5383:5412  _dailyCompensationAndDuration */\n  dup6\n    /* \"Insurance.sol\":5383:5419  _dailyCompensationAndDuration.length */\n  mload\n    /* \"Insurance.sol\":5383:5424  _dailyCompensationAndDuration.length == 2 */\n  eq\n    /* \"Insurance.sol\":5375:5503  require(_dailyCompensationAndDuration.length == 2, \"You have to provide the amount of day compensation and the number of days.\") */\n  tag_19\n  jumpi\n  mload(0x40)\n  0x08c379a000000000000000000000000000000000000000000000000000000000\n  dup2\n  mstore\n  0x04\n  add\n  tag_20\n  swap1\n  tag_21\n  jump\t// in\ntag_20:\n  mload(0x40)\n  dup1\n  swap2\n  sub\n  swap1\n  revert\ntag_19:\n    /* \"Insurance.sol\":5547:5576  _dailyCompensationAndDuration */\n  dup5\n    /* \"Insurance.sol\":5577:5578  0 */\n  0x00\n    /* \"Insurance.sol\":5547:5579  _dailyCompensationAndDuration[0] */\n  dup2\n  mload\n  dup2\n  lt\n  tag_22\n  jumpi\n  mstore(0x00, 0x4e487b7100000000000000000000000000000000000000000000000000000000)\n  mstore(0x04, 0x32)\n  revert(0x00, 0x24)\ntag_22:\n  0x20\n  mul\n  0x20\n  add\n  add\n  mload\n    /* \"Insurance.sol\":5513:5526  insuranceData */\n  0x0a\n    /* \"Insurance.sol\":5513:5544  insuranceData.dailyCompensation */\n  0x00\n  add\n  0x00\n    /* \"Insurance.sol\":5513:5579  insuranceData.dailyCompensation = _dailyCompensationAndDuration[0] */\n  0x0100\n  exp\n  dup2\n  sload\n  dup2\n  0xffff\n  mul\n  not\n  and\n  swap1\n  dup4\n  0xffff\n  and\n  mul\n  or\n  swap1\n  sstore\n  pop\n    /* \"Insurance.sol\":5622:5651  _dailyCompensationAndDuration */\n  dup5\n    /* \"Insurance.sol\":5652:5653  1 */\n  0x01\n    /* \"Insurance.sol\":5622:5654  _dailyCompensationAndDuration[1] */\n  dup2\n  mload\n  dup2\n  lt\n  tag_23\n  jumpi\n  mstore(0x00, 0x4e487b7100000000000000000000000000000000000000000000000000000000)\n  mstore(0x04, 0x32)\n  revert(0x00, 0x24)\ntag_23:\n  0x20\n  mul\n  0x20\n  add\n  add\n  mload\n    /* \"Insurance.sol\":5589:5602  insuranceData */\n  0x0a\n    /* \"Insurance.sol\":5589:5619  insuranceData.daysToCompensate */\n  0x00\n  add\n  0x02\n    /* \"Insurance.sol\":5589:5654  insuranceData.daysToCompensate = _dailyCompensationAndDuration[1] */\n  0x0100\n  exp\n  dup2\n  sload\n  dup2\n  0xffff\n  mul\n  not\n  and\n  swap1\n  dup4\n  0xffff\n  and\n  mul\n  or\n  swap1\n  sstore\n  pop\n    /* \"Insurance.sol\":5708:5709  2 */\n  0x02\n    /* \"Insurance.sol\":5672:5697  _insuranceStartFinishDate */\n  dup7\n    /* \"Insurance.sol\":5672:5704  _insuranceStartFinishDate.length */\n  mload\n    /* \"Insurance.sol\":5672:5709  _insuranceStartFinishDate.length == 2 */\n  eq\n    /* \"Insurance.sol\":5664:5761  require(_insuranceStartFinishDate.length == 2, \"The Policy need a start date and a finish date.\") */\n  tag_24\n  jumpi\n  mload(0x40)\n  0x08c379a000000000000000000000000000000000000000000000000000000000\n  dup2\n  mstore\n  0x04\n  add\n  tag_25\n  swap1\n  tag_26\n  jump\t// in\ntag_25:\n  mload(0x40)\n  dup1\n  swap2\n  sub\n  swap1\n  revert\ntag_24:\n    /* \"Insurance.sol\":5810:5835  _insuranceStartFinishDate */\n  dup6\n    /* \"Insurance.sol\":5836:5837  1 */\n  0x01\n    /* \"Insurance.sol\":5810:5838  _insuranceStartFinishDate[1] */\n  dup2\n  mload\n  dup2\n  lt\n  tag_27\n  jumpi\n  mstore(0x00, 0x4e487b7100000000000000000000000000000000000000000000000000000000)\n  mstore(0x04, 0x32)\n  revert(0x00, 0x24)\ntag_27:\n  0x20\n  mul\n  0x20\n  add\n  add\n  mload\n    /* \"Insurance.sol\":5779:5804  _insuranceStartFinishDate */\n  dup7\n    /* \"Insurance.sol\":5805:5806  0 */\n  0x00\n    /* \"Insurance.sol\":5779:5807  _insuranceStartFinishDate[0] */\n  dup2\n  mload\n  dup2\n  lt\n  tag_28\n  jumpi\n  mstore(0x00, 0x4e487b7100000000000000000000000000000000000000000000000000000000)\n  mstore(0x04, 0x32)\n  revert(0x00, 0x24)\ntag_28:\n  0x20\n  mul\n  0x20\n  add\n  add\n  mload\n    /* \"Insurance.sol\":5779:5838  _insuranceStartFinishDate[0] < _insuranceStartFinishDate[1] */\n  lt\n    /* \"Insurance.sol\":5771:5891  require(_insuranceStartFinishDate[0] < _insuranceStartFinishDate[1], \"The start date has to be before the finish date.\") */\n  tag_29\n  jumpi\n  mload(0x40)\n  0x08c379a000000000000000000000000000000000000000000000000000000000\n  dup2\n  mstore\n  0x04\n  add\n  tag_30\n  swap1\n  tag_31\n  jump\t// in\ntag_30:\n  mload(0x40)\n  dup1\n  swap2\n  sub\n  swap1\n  revert\ntag_29:\n    /* \"Insurance.sol\":5936:5961  _insuranceStartFinishDate */\n  dup6\n    /* \"Insurance.sol\":5962:5963  0 */\n  0x00\n    /* \"Insurance.sol\":5936:5964  _insuranceStartFinishDate[0] */\n  dup2\n  mload\n  dup2\n  lt\n  tag_32\n  jumpi\n  mstore(0x00, 0x4e487b7100000000000000000000000000000000000000000000000000000000)\n  mstore(0x04, 0x32)\n  revert(0x00, 0x24)\ntag_32:\n  0x20\n  mul\n  0x20\n  add\n  add\n  mload\n    /* \"Insurance.sol\":5901:5914  insuranceData */\n  0x0a\n    /* \"Insurance.sol\":5901:5933  insuranceData.insuranceStartDate */\n  0x02\n  add\n    /* \"Insurance.sol\":5901:5964  insuranceData.insuranceStartDate = _insuranceStartFinishDate[0] */\n  dup2\n  swap1\n  sstore\n  pop\n    /* \"Insurance.sol\":6011:6036  _insuranceStartFinishDate */\n  dup6\n    /* \"Insurance.sol\":6037:6038  1 */\n  0x01\n    /* \"Insurance.sol\":6011:6039  _insuranceStartFinishDate[1] */\n  dup2\n  mload\n  dup2\n  lt\n  tag_33\n  jumpi\n  mstore(0x00, 0x4e487b7100000000000000000000000000000000000000000000000000000000)\n  mstore(0x04, 0x32)\n  revert(0x00, 0x24)\ntag_33:\n  0x20\n  mul\n  0x20\n  add\n  add\n  mload\n    /* \"Insurance.sol\":5975:5988  insuranceData */\n  0x0a\n    /* \"Insurance.sol\":5975:6008  insuranceData.insuranceFinishDate */\n  0x03\n  add\n    /* \"Insurance.sol\":5975:6039  insuranceData.insuranceFinishDate = _insuranceStartFinishDate[1] */\n  dup2\n  swap1\n  sstore\n  pop\n    /* \"Insurance.sol\":6074:6083  _insureds */\n  dup7\n    /* \"Insurance.sol\":6049:6062  insuranceData */\n  0x0a\n    /* \"Insurance.sol\":6049:6071  insuranceData.insureds */\n  0x04\n  add\n    /* \"Insurance.sol\":6049:6083  insuranceData.insureds = _insureds */\n  swap1\n  dup1\n  mload\n  swap1\n  0x20\n  add\n  swap1\n  tag_34\n  swap3\n  swap2\n  swap1\n  tag_35\n  jump\t// in\ntag_34:\n  pop\n    /* \"Insurance.sol\":6117:6118  2 */\n  0x02\n    /* \"Insurance.sol\":6102:6106  _ids */\n  dup9\n    /* \"Insurance.sol\":6102:6113  _ids.length */\n  mload\n    /* \"Insurance.sol\":6102:6118  _ids.length == 2 */\n  eq\n    /* \"Insurance.sol\":6094:6159  require(_ids.length == 2, \"Must provide Policy ID and Taker ID.\") */\n  tag_36\n  jumpi\n  mload(0x40)\n  0x08c379a000000000000000000000000000000000000000000000000000000000\n  dup2\n  mstore\n  0x04\n  add\n  tag_37\n  swap1\n  tag_38\n  jump\t// in\ntag_37:\n  mload(0x40)\n  dup1\n  swap2\n  sub\n  swap1\n  revert\ntag_36:\n    /* \"Insurance.sol\":6189:6193  _ids */\n  dup8\n    /* \"Insurance.sol\":6194:6195  1 */\n  0x01\n    /* \"Insurance.sol\":6189:6196  _ids[1] */\n  dup2\n  mload\n  dup2\n  lt\n  tag_39\n  jumpi\n  mstore(0x00, 0x4e487b7100000000000000000000000000000000000000000000000000000000)\n  mstore(0x04, 0x32)\n  revert(0x00, 0x24)\ntag_39:\n  0x20\n  mul\n  0x20\n  add\n  add\n  mload\n    /* \"Insurance.sol\":6169:6178  takerData */\n  0x0f\n    /* \"Insurance.sol\":6169:6186  takerData.takerId */\n  0x03\n  add\n    /* \"Insurance.sol\":6169:6196  takerData.takerId = _ids[1] */\n  dup2\n  swap1\n  sstore\n  pop\n    /* \"Insurance.sol\":6225:6229  _ids */\n  dup8\n    /* \"Insurance.sol\":6230:6231  0 */\n  0x00\n    /* \"Insurance.sol\":6225:6232  _ids[0] */\n  dup2\n  mload\n  dup2\n  lt\n  tag_40\n  jumpi\n  mstore(0x00, 0x4e487b7100000000000000000000000000000000000000000000000000000000)\n  mstore(0x04, 0x32)\n  revert(0x00, 0x24)\ntag_40:\n  0x20\n  mul\n  0x20\n  add\n  add\n  mload\n    /* \"Insurance.sol\":6206:6219  insuranceData */\n  0x0a\n    /* \"Insurance.sol\":6206:6222  insuranceData.id */\n  0x01\n  add\n    /* \"Insurance.sol\":6206:6232  insuranceData.id = _ids[0] */\n  dup2\n  swap1\n  sstore\n  pop\n    /* \"Insurance.sol\":6281:6290  _insureds */\n  dup7\n    /* \"Insurance.sol\":6281:6297  _insureds.length */\n  mload\n    /* \"Insurance.sol\":6251:6270  _insuredsNegPcrDate */\n  dup10\n    /* \"Insurance.sol\":6251:6277  _insuredsNegPcrDate.length */\n  mload\n    /* \"Insurance.sol\":6251:6297  _insuredsNegPcrDate.length == _insureds.length */\n  eq\n    /* \"Insurance.sol\":6243:6298  require(_insuredsNegPcrDate.length == _insureds.length) */\n  tag_41\n  jumpi\n  0x00\n  dup1\n  revert\ntag_41:\n    /* \"Insurance.sol\":6346:6355  _insureds */\n  dup7\n    /* \"Insurance.sol\":6346:6362  _insureds.length */\n  mload\n    /* \"Insurance.sol\":6316:6335  _insuredsNegPcrHash */\n  dup11\n    /* \"Insurance.sol\":6316:6342  _insuredsNegPcrHash.length */\n  mload\n    /* \"Insurance.sol\":6316:6362  _insuredsNegPcrHash.length == _insureds.length */\n  eq\n    /* \"Insurance.sol\":6308:6363  require(_insuredsNegPcrHash.length == _insureds.length) */\n  tag_42\n  jumpi\n  0x00\n  dup1\n  revert\ntag_42:\n    /* \"Insurance.sol\":6402:6408  uint i */\n  0x00\n    /* \"Insurance.sol\":6397:6772  for (uint i=0; i < _insureds.length; i++) {... */\ntag_43:\n    /* \"Insurance.sol\":6416:6425  _insureds */\n  dup8\n    /* \"Insurance.sol\":6416:6432  _insureds.length */\n  mload\n    /* \"Insurance.sol\":6412:6413  i */\n  dup2\n    /* \"Insurance.sol\":6412:6432  i < _insureds.length */\n  lt\n    /* \"Insurance.sol\":6397:6772  for (uint i=0; i < _insureds.length; i++) {... */\n  iszero\n  tag_44\n  jumpi\n    /* \"Insurance.sol\":6488:6492  true */\n  0x01\n    /* \"Insurance.sol\":6453:6471  insuredInInsurance */\n  0x04\n    /* \"Insurance.sol\":6453:6485  insuredInInsurance[_insureds[i]] */\n  0x00\n    /* \"Insurance.sol\":6472:6481  _insureds */\n  dup11\n    /* \"Insurance.sol\":6482:6483  i */\n  dup5\n    /* \"Insurance.sol\":6472:6484  _insureds[i] */\n  dup2\n  mload\n  dup2\n  lt\n  tag_46\n  jumpi\n  mstore(0x00, 0x4e487b7100000000000000000000000000000000000000000000000000000000)\n  mstore(0x04, 0x32)\n  revert(0x00, 0x24)\ntag_46:\n  0x20\n  mul\n  0x20\n  add\n  add\n  mload\n    /* \"Insurance.sol\":6453:6485  insuredInInsurance[_insureds[i]] */\n  dup2\n  mstore\n  0x20\n  add\n  swap1\n  dup2\n  mstore\n  0x20\n  add\n  0x00\n  keccak256\n  0x00\n    /* \"Insurance.sol\":6453:6492  insuredInInsurance[_insureds[i]] = true */\n  0x0100\n  exp\n  dup2\n  sload\n  dup2\n  0xff\n  mul\n  not\n  and\n  swap1\n  dup4\n  iszero\n  iszero\n  mul\n  or\n  swap1\n  sstore\n  pop\n    /* \"Insurance.sol\":6559:6565  259200 */\n  0x03f480\n    /* \"Insurance.sol\":6541:6556  block.timestamp */\n  timestamp\n    /* \"Insurance.sol\":6541:6565  block.timestamp - 259200 */\n  tag_47\n  swap2\n  swap1\n  tag_48\n  jump\t// in\ntag_47:\n    /* \"Insurance.sol\":6514:6533  _insuredsNegPcrDate */\n  dup11\n    /* \"Insurance.sol\":6534:6535  i */\n  dup3\n    /* \"Insurance.sol\":6514:6536  _insuredsNegPcrDate[i] */\n  dup2\n  mload\n  dup2\n  lt\n  tag_49\n  jumpi\n  mstore(0x00, 0x4e487b7100000000000000000000000000000000000000000000000000000000)\n  mstore(0x04, 0x32)\n  revert(0x00, 0x24)\ntag_49:\n  0x20\n  mul\n  0x20\n  add\n  add\n  mload\n    /* \"Insurance.sol\":6514:6566  _insuredsNegPcrDate[i] >= (block.timestamp - 259200) */\n  lt\n  iszero\n    /* \"Insurance.sol\":6506:6619  require(_insuredsNegPcrDate[i] >= (block.timestamp - 259200), \"Check that PCR has been no more than 3 days ago.\") */\n  tag_50\n  jumpi\n  mload(0x40)\n  0x08c379a000000000000000000000000000000000000000000000000000000000\n  dup2\n  mstore\n  0x04\n  add\n  tag_51\n  swap1\n  tag_52\n  jump\t// in\ntag_51:\n  mload(0x40)\n  dup1\n  swap2\n  sub\n  swap1\n  revert\ntag_50:\n    /* \"Insurance.sol\":6667:6686  _insuredsNegPcrDate */\n  dup10\n    /* \"Insurance.sol\":6687:6688  i */\n  dup2\n    /* \"Insurance.sol\":6667:6689  _insuredsNegPcrDate[i] */\n  dup2\n  mload\n  dup2\n  lt\n  tag_53\n  jumpi\n  mstore(0x00, 0x4e487b7100000000000000000000000000000000000000000000000000000000)\n  mstore(0x04, 0x32)\n  revert(0x00, 0x24)\ntag_53:\n  0x20\n  mul\n  0x20\n  add\n  add\n  mload\n    /* \"Insurance.sol\":6633:6650  insuredNegPcrDate */\n  0x08\n    /* \"Insurance.sol\":6633:6664  insuredNegPcrDate[_insureds[i]] */\n  0x00\n    /* \"Insurance.sol\":6651:6660  _insureds */\n  dup11\n    /* \"Insurance.sol\":6661:6662  i */\n  dup5\n    /* \"Insurance.sol\":6651:6663  _insureds[i] */\n  dup2\n  mload\n  dup2\n  lt\n  tag_54\n  jumpi\n  mstore(0x00, 0x4e487b7100000000000000000000000000000000000000000000000000000000)\n  mstore(0x04, 0x32)\n  revert(0x00, 0x24)\ntag_54:\n  0x20\n  mul\n  0x20\n  add\n  add\n  mload\n    /* \"Insurance.sol\":6633:6664  insuredNegPcrDate[_insureds[i]] */\n  dup2\n  mstore\n  0x20\n  add\n  swap1\n  dup2\n  mstore\n  0x20\n  add\n  0x00\n  keccak256\n    /* \"Insurance.sol\":6633:6689  insuredNegPcrDate[_insureds[i]] = _insuredsNegPcrDate[i] */\n  dup2\n  swap1\n  sstore\n  pop\n    /* \"Insurance.sol\":6738:6757  _insuredsNegPcrHash */\n  dup11\n    /* \"Insurance.sol\":6758:6759  i */\n  dup2\n    /* \"Insurance.sol\":6738:6760  _insuredsNegPcrHash[i] */\n  dup2\n  mload\n  dup2\n  lt\n  tag_55\n  jumpi\n  mstore(0x00, 0x4e487b7100000000000000000000000000000000000000000000000000000000)\n  mstore(0x04, 0x32)\n  revert(0x00, 0x24)\ntag_55:\n  0x20\n  mul\n  0x20\n  add\n  add\n  mload\n    /* \"Insurance.sol\":6703:6720  insuredNegPcrHash */\n  0x07\n    /* \"Insurance.sol\":6703:6734  insuredNegPcrHash[_insureds[i]] */\n  0x00\n    /* \"Insurance.sol\":6721:6730  _insureds */\n  dup11\n    /* \"Insurance.sol\":6731:6732  i */\n  dup5\n    /* \"Insurance.sol\":6721:6733  _insureds[i] */\n  dup2\n  mload\n  dup2\n  lt\n  tag_56\n  jumpi\n  mstore(0x00, 0x4e487b7100000000000000000000000000000000000000000000000000000000)\n  mstore(0x04, 0x32)\n  revert(0x00, 0x24)\ntag_56:\n  0x20\n  mul\n  0x20\n  add\n  add\n  mload\n    /* \"Insurance.sol\":6703:6734  insuredNegPcrHash[_insureds[i]] */\n  dup2\n  mstore\n  0x20\n  add\n  swap1\n  dup2\n  mstore\n  0x20\n  add\n  0x00\n  keccak256\n    /* \"Insurance.sol\":6703:6761  insuredNegPcrHash[_insureds[i]] = (_insuredsNegPcrHash[i]) */\n  dup2\n  swap1\n  sstore\n  pop\n    /* \"Insurance.sol\":6434:6437  i++ */\n  dup1\n  dup1\n  tag_57\n  swap1\n  tag_58\n  jump\t// in\ntag_57:\n  swap2\n  pop\n  pop\n    /* \"Insurance.sol\":6397:6772  for (uint i=0; i < _insureds.length; i++) {... */\n  jump(tag_43)\ntag_44:\n  pop\n    /* \"Insurance.sol\":6817:6830  insuranceData */\n  0x0a\n    /* \"Insurance.sol\":6817:6839  insuranceData.insureds */\n  0x04\n  add\n    /* \"Insurance.sol\":6817:6846  insuranceData.insureds.length */\n  dup1\n  sload\n  swap1\n  pop\n    /* \"Insurance.sol\":6781:6847  insuranceData.insuredNumber = uint8(insuranceData.insureds.length) */\n  0xff\n  and\n    /* \"Insurance.sol\":6781:6794  insuranceData */\n  0x0a\n    /* \"Insurance.sol\":6781:6808  insuranceData.insuredNumber */\n  0x00\n  add\n  0x06\n    /* \"Insurance.sol\":6781:6847  insuranceData.insuredNumber = uint8(insuranceData.insureds.length) */\n  0x0100\n  exp\n  dup2\n  sload\n  dup2\n  0xffff\n  mul\n  not\n  and\n  swap1\n  dup4\n  0xffff\n  and\n  mul\n  or\n  swap1\n  sstore\n  pop\n    /* \"Insurance.sol\":6883:6884  0 */\n  0x00\n    /* \"Insurance.sol\":6857:6870  insuranceData */\n  0x0a\n    /* \"Insurance.sol\":6857:6880  insuranceData.pcrNumber */\n  0x00\n  add\n  0x04\n    /* \"Insurance.sol\":6857:6884  insuranceData.pcrNumber = 0 */\n  0x0100\n  exp\n  dup2\n  sload\n  dup2\n  0xffff\n  mul\n  not\n  and\n  swap1\n  dup4\n  0xffff\n  and\n  mul\n  or\n  swap1\n  sstore\n  pop\n    /* \"Insurance.sol\":4398:6891  constructor(... */\n  pop\n  pop\n  pop\n  pop\n  pop\n  pop\n  pop\n  pop\n  pop\n  pop\n    /* \"Insurance.sol\":2146:19154  contract Insurance is Seriality {... */\n  jump(tag_59)\ntag_9:\n  dup3\n  dup1\n  sload\n  tag_60\n  swap1\n  tag_61\n  jump\t// in\ntag_60:\n  swap1\n  0x00\n  mstore\n  keccak256(0x00, 0x20)\n  swap1\n  0x1f\n  add\n  0x20\n  swap1\n  div\n  dup2\n  add\n  swap3\n  dup3\n  tag_63\n  jumpi\n  0x00\n  dup6\n  sstore\n  jump(tag_62)\ntag_63:\n  dup3\n  0x1f\n  lt\n  tag_64\n  jumpi\n  dup1\n  mload\n  not(0xff)\n  and\n  dup4\n  dup1\n  add\n  or\n  dup6\n  sstore\n  jump(tag_62)\ntag_64:\n  dup3\n  dup1\n  add\n  0x01\n  add\n  dup6\n  sstore\n  dup3\n  iszero\n  tag_62\n  jumpi\n  swap2\n  dup3\n  add\ntag_65:\n  dup3\n  dup2\n  gt\n  iszero\n  tag_66\n  jumpi\n  dup3\n  mload\n  dup3\n  sstore\n  swap2\n  0x20\n  add\n  swap2\n  swap1\n  0x01\n  add\n  swap1\n  jump(tag_65)\ntag_66:\ntag_62:\n  pop\n  swap1\n  pop\n  tag_67\n  swap2\n  swap1\n  tag_68\n  jump\t// in\ntag_67:\n  pop\n  swap1\n  jump\t// out\ntag_35:\n  dup3\n  dup1\n  sload\n  dup3\n  dup3\n  sstore\n  swap1\n  0x00\n  mstore\n  keccak256(0x00, 0x20)\n  swap1\n  dup2\n  add\n  swap3\n  dup3\n  iszero\n  tag_69\n  jumpi\n  swap2\n  0x20\n  mul\n  dup3\n  add\ntag_70:\n  dup3\n  dup2\n  gt\n  iszero\n  tag_71\n  jumpi\n  dup3\n  mload\n  dup3\n  sstore\n  swap2\n  0x20\n  add\n  swap2\n  swap1\n  0x01\n  add\n  swap1\n  jump(tag_70)\ntag_71:\ntag_69:\n  pop\n  swap1\n  pop\n  tag_72\n  swap2\n  swap1\n  tag_73\n  jump\t// in\ntag_72:\n  pop\n  swap1\n  jump\t// out\ntag_68:\ntag_74:\n  dup1\n  dup3\n  gt\n  iszero\n  tag_75\n  jumpi\n  0x00\n  dup2\n  0x00\n  swap1\n  sstore\n  pop\n  0x01\n  add\n  jump(tag_74)\ntag_75:\n  pop\n  swap1\n  jump\t// out\ntag_73:\ntag_76:\n  dup1\n  dup3\n  gt\n  iszero\n  tag_77\n  jumpi\n  0x00\n  dup2\n  0x00\n  swap1\n  sstore\n  pop\n  0x01\n  add\n  jump(tag_76)\ntag_77:\n  pop\n  swap1\n  jump\t// out\n    /* \"#utility.yul\":24:669   */\ntag_79:\n  0x00\n    /* \"#utility.yul\":156:237   */\n  tag_81\n    /* \"#utility.yul\":172:236   */\n  tag_82\n    /* \"#utility.yul\":229:235   */\n  dup5\n    /* \"#utility.yul\":172:236   */\n  tag_83\n  jump\t// in\ntag_82:\n    /* \"#utility.yul\":156:237   */\n  tag_84\n  jump\t// in\ntag_81:\n    /* \"#utility.yul\":147:237   */\n  swap1\n  pop\n    /* \"#utility.yul\":257:262   */\n  dup1\n    /* \"#utility.yul\":285:291   */\n  dup4\n    /* \"#utility.yul\":278:283   */\n  dup3\n    /* \"#utility.yul\":271:292   */\n  mstore\n    /* \"#utility.yul\":311:315   */\n  0x20\n    /* \"#utility.yul\":304:309   */\n  dup3\n    /* \"#utility.yul\":300:316   */\n  add\n    /* \"#utility.yul\":293:316   */\n  swap1\n  pop\n    /* \"#utility.yul\":336:342   */\n  dup3\n    /* \"#utility.yul\":386:389   */\n  dup6\n    /* \"#utility.yul\":378:382   */\n  0x20\n    /* \"#utility.yul\":370:376   */\n  dup7\n    /* \"#utility.yul\":366:383   */\n  mul\n    /* \"#utility.yul\":361:364   */\n  dup3\n    /* \"#utility.yul\":357:384   */\n  add\n    /* \"#utility.yul\":354:390   */\n  gt\n    /* \"#utility.yul\":351:353   */\n  iszero\n  tag_85\n  jumpi\n    /* \"#utility.yul\":403:404   */\n  0x00\n    /* \"#utility.yul\":400:401   */\n  dup1\n    /* \"#utility.yul\":393:405   */\n  revert\n    /* \"#utility.yul\":351:353   */\ntag_85:\n    /* \"#utility.yul\":431:432   */\n  0x00\n    /* \"#utility.yul\":416:663   */\ntag_86:\n    /* \"#utility.yul\":441:447   */\n  dup6\n    /* \"#utility.yul\":438:439   */\n  dup2\n    /* \"#utility.yul\":435:448   */\n  lt\n    /* \"#utility.yul\":416:663   */\n  iszero\n  tag_88\n  jumpi\n    /* \"#utility.yul\":508:511   */\n  dup2\n    /* \"#utility.yul\":536:584   */\n  tag_89\n    /* \"#utility.yul\":580:583   */\n  dup9\n    /* \"#utility.yul\":568:578   */\n  dup3\n    /* \"#utility.yul\":536:584   */\n  tag_90\n  jump\t// in\ntag_89:\n    /* \"#utility.yul\":531:534   */\n  dup5\n    /* \"#utility.yul\":524:585   */\n  mstore\n    /* \"#utility.yul\":614:618   */\n  0x20\n    /* \"#utility.yul\":609:612   */\n  dup5\n    /* \"#utility.yul\":605:619   */\n  add\n    /* \"#utility.yul\":598:619   */\n  swap4\n  pop\n    /* \"#utility.yul\":648:652   */\n  0x20\n    /* \"#utility.yul\":643:646   */\n  dup4\n    /* \"#utility.yul\":639:653   */\n  add\n    /* \"#utility.yul\":632:653   */\n  swap3\n  pop\n    /* \"#utility.yul\":476:663   */\n  pop\n    /* \"#utility.yul\":463:464   */\n  0x01\n    /* \"#utility.yul\":460:461   */\n  dup2\n    /* \"#utility.yul\":456:465   */\n  add\n    /* \"#utility.yul\":451:465   */\n  swap1\n  pop\n    /* \"#utility.yul\":416:663   */\n  jump(tag_86)\ntag_88:\n    /* \"#utility.yul\":420:434   */\n  pop\n    /* \"#utility.yul\":137:669   */\n  pop\n  pop\n  swap4\n  swap3\n  pop\n  pop\n  pop\n  jump\t// out\n    /* \"#utility.yul\":691:1333   */\ntag_91:\n  0x00\n    /* \"#utility.yul\":822:902   */\n  tag_93\n    /* \"#utility.yul\":838:901   */\n  tag_94\n    /* \"#utility.yul\":894:900   */\n  dup5\n    /* \"#utility.yul\":838:901   */\n  tag_95\n  jump\t// in\ntag_94:\n    /* \"#utility.yul\":822:902   */\n  tag_84\n  jump\t// in\ntag_93:\n    /* \"#utility.yul\":813:902   */\n  swap1\n  pop\n    /* \"#utility.yul\":922:927   */\n  dup1\n    /* \"#utility.yul\":950:956   */\n  dup4\n    /* \"#utility.yul\":943:948   */\n  dup3\n    /* \"#utility.yul\":936:957   */\n  mstore\n    /* \"#utility.yul\":976:980   */\n  0x20\n    /* \"#utility.yul\":969:974   */\n  dup3\n    /* \"#utility.yul\":965:981   */\n  add\n    /* \"#utility.yul\":958:981   */\n  swap1\n  pop\n    /* \"#utility.yul\":1001:1007   */\n  dup3\n    /* \"#utility.yul\":1051:1054   */\n  dup6\n    /* \"#utility.yul\":1043:1047   */\n  0x20\n    /* \"#utility.yul\":1035:1041   */\n  dup7\n    /* \"#utility.yul\":1031:1048   */\n  mul\n    /* \"#utility.yul\":1026:1029   */\n  dup3\n    /* \"#utility.yul\":1022:1049   */\n  add\n    /* \"#utility.yul\":1019:1055   */\n  gt\n    /* \"#utility.yul\":1016:1018   */\n  iszero\n  tag_96\n  jumpi\n    /* \"#utility.yul\":1068:1069   */\n  0x00\n    /* \"#utility.yul\":1065:1066   */\n  dup1\n    /* \"#utility.yul\":1058:1070   */\n  revert\n    /* \"#utility.yul\":1016:1018   */\ntag_96:\n    /* \"#utility.yul\":1096:1097   */\n  0x00\n    /* \"#utility.yul\":1081:1327   */\ntag_97:\n    /* \"#utility.yul\":1106:1112   */\n  dup6\n    /* \"#utility.yul\":1103:1104   */\n  dup2\n    /* \"#utility.yul\":1100:1113   */\n  lt\n    /* \"#utility.yul\":1081:1327   */\n  iszero\n  tag_99\n  jumpi\n    /* \"#utility.yul\":1173:1176   */\n  dup2\n    /* \"#utility.yul\":1201:1248   */\n  tag_100\n    /* \"#utility.yul\":1244:1247   */\n  dup9\n    /* \"#utility.yul\":1232:1242   */\n  dup3\n    /* \"#utility.yul\":1201:1248   */\n  tag_101\n  jump\t// in\ntag_100:\n    /* \"#utility.yul\":1196:1199   */\n  dup5\n    /* \"#utility.yul\":1189:1249   */\n  mstore\n    /* \"#utility.yul\":1278:1282   */\n  0x20\n    /* \"#utility.yul\":1273:1276   */\n  dup5\n    /* \"#utility.yul\":1269:1283   */\n  add\n    /* \"#utility.yul\":1262:1283   */\n  swap4\n  pop\n    /* \"#utility.yul\":1312:1316   */\n  0x20\n    /* \"#utility.yul\":1307:1310   */\n  dup4\n    /* \"#utility.yul\":1303:1317   */\n  add\n    /* \"#utility.yul\":1296:1317   */\n  swap3\n  pop\n    /* \"#utility.yul\":1141:1327   */\n  pop\n    /* \"#utility.yul\":1128:1129   */\n  0x01\n    /* \"#utility.yul\":1125:1126   */\n  dup2\n    /* \"#utility.yul\":1121:1130   */\n  add\n    /* \"#utility.yul\":1116:1130   */\n  swap1\n  pop\n    /* \"#utility.yul\":1081:1327   */\n  jump(tag_97)\ntag_99:\n    /* \"#utility.yul\":1085:1099   */\n  pop\n    /* \"#utility.yul\":803:1333   */\n  pop\n  pop\n  swap4\n  swap3\n  pop\n  pop\n  pop\n  jump\t// out\n    /* \"#utility.yul\":1356:2001   */\ntag_102:\n  0x00\n    /* \"#utility.yul\":1488:1569   */\n  tag_104\n    /* \"#utility.yul\":1504:1568   */\n  tag_105\n    /* \"#utility.yul\":1561:1567   */\n  dup5\n    /* \"#utility.yul\":1504:1568   */\n  tag_106\n  jump\t// in\ntag_105:\n    /* \"#utility.yul\":1488:1569   */\n  tag_84\n  jump\t// in\ntag_104:\n    /* \"#utility.yul\":1479:1569   */\n  swap1\n  pop\n    /* \"#utility.yul\":1589:1594   */\n  dup1\n    /* \"#utility.yul\":1617:1623   */\n  dup4\n    /* \"#utility.yul\":1610:1615   */\n  dup3\n    /* \"#utility.yul\":1603:1624   */\n  mstore\n    /* \"#utility.yul\":1643:1647   */\n  0x20\n    /* \"#utility.yul\":1636:1641   */\n  dup3\n    /* \"#utility.yul\":1632:1648   */\n  add\n    /* \"#utility.yul\":1625:1648   */\n  swap1\n  pop\n    /* \"#utility.yul\":1668:1674   */\n  dup3\n    /* \"#utility.yul\":1718:1721   */\n  dup6\n    /* \"#utility.yul\":1710:1714   */\n  0x20\n    /* \"#utility.yul\":1702:1708   */\n  dup7\n    /* \"#utility.yul\":1698:1715   */\n  mul\n    /* \"#utility.yul\":1693:1696   */\n  dup3\n    /* \"#utility.yul\":1689:1716   */\n  add\n    /* \"#utility.yul\":1686:1722   */\n  gt\n    /* \"#utility.yul\":1683:1685   */\n  iszero\n  tag_107\n  jumpi\n    /* \"#utility.yul\":1735:1736   */\n  0x00\n    /* \"#utility.yul\":1732:1733   */\n  dup1\n    /* \"#utility.yul\":1725:1737   */\n  revert\n    /* \"#utility.yul\":1683:1685   */\ntag_107:\n    /* \"#utility.yul\":1763:1764   */\n  0x00\n    /* \"#utility.yul\":1748:1995   */\ntag_108:\n    /* \"#utility.yul\":1773:1779   */\n  dup6\n    /* \"#utility.yul\":1770:1771   */\n  dup2\n    /* \"#utility.yul\":1767:1780   */\n  lt\n    /* \"#utility.yul\":1748:1995   */\n  iszero\n  tag_110\n  jumpi\n    /* \"#utility.yul\":1840:1843   */\n  dup2\n    /* \"#utility.yul\":1868:1916   */\n  tag_111\n    /* \"#utility.yul\":1912:1915   */\n  dup9\n    /* \"#utility.yul\":1900:1910   */\n  dup3\n    /* \"#utility.yul\":1868:1916   */\n  tag_112\n  jump\t// in\ntag_111:\n    /* \"#utility.yul\":1863:1866   */\n  dup5\n    /* \"#utility.yul\":1856:1917   */\n  mstore\n    /* \"#utility.yul\":1946:1950   */\n  0x20\n    /* \"#utility.yul\":1941:1944   */\n  dup5\n    /* \"#utility.yul\":1937:1951   */\n  add\n    /* \"#utility.yul\":1930:1951   */\n  swap4\n  pop\n    /* \"#utility.yul\":1980:1984   */\n  0x20\n    /* \"#utility.yul\":1975:1978   */\n  dup4\n    /* \"#utility.yul\":1971:1985   */\n  add\n    /* \"#utility.yul\":1964:1985   */\n  swap3\n  pop\n    /* \"#utility.yul\":1808:1995   */\n  pop\n    /* \"#utility.yul\":1795:1796   */\n  0x01\n    /* \"#utility.yul\":1792:1793   */\n  dup2\n    /* \"#utility.yul\":1788:1797   */\n  add\n    /* \"#utility.yul\":1783:1797   */\n  swap1\n  pop\n    /* \"#utility.yul\":1748:1995   */\n  jump(tag_108)\ntag_110:\n    /* \"#utility.yul\":1752:1766   */\n  pop\n    /* \"#utility.yul\":1469:2001   */\n  pop\n  pop\n  swap4\n  swap3\n  pop\n  pop\n  pop\n  jump\t// out\n    /* \"#utility.yul\":2007:2361   */\ntag_113:\n  0x00\n    /* \"#utility.yul\":2121:2187   */\n  tag_115\n    /* \"#utility.yul\":2137:2186   */\n  tag_116\n    /* \"#utility.yul\":2179:2185   */\n  dup5\n    /* \"#utility.yul\":2137:2186   */\n  tag_117\n  jump\t// in\ntag_116:\n    /* \"#utility.yul\":2121:2187   */\n  tag_84\n  jump\t// in\ntag_115:\n    /* \"#utility.yul\":2112:2187   */\n  swap1\n  pop\n    /* \"#utility.yul\":2210:2216   */\n  dup3\n    /* \"#utility.yul\":2203:2208   */\n  dup2\n    /* \"#utility.yul\":2196:2217   */\n  mstore\n    /* \"#utility.yul\":2248:2252   */\n  0x20\n    /* \"#utility.yul\":2241:2246   */\n  dup2\n    /* \"#utility.yul\":2237:2253   */\n  add\n    /* \"#utility.yul\":2286:2289   */\n  dup5\n    /* \"#utility.yul\":2277:2283   */\n  dup5\n    /* \"#utility.yul\":2272:2275   */\n  dup5\n    /* \"#utility.yul\":2268:2284   */\n  add\n    /* \"#utility.yul\":2265:2290   */\n  gt\n    /* \"#utility.yul\":2262:2264   */\n  iszero\n  tag_118\n  jumpi\n    /* \"#utility.yul\":2303:2304   */\n  0x00\n    /* \"#utility.yul\":2300:2301   */\n  dup1\n    /* \"#utility.yul\":2293:2305   */\n  revert\n    /* \"#utility.yul\":2262:2264   */\ntag_118:\n    /* \"#utility.yul\":2316:2355   */\n  tag_119\n    /* \"#utility.yul\":2348:2354   */\n  dup5\n    /* \"#utility.yul\":2343:2346   */\n  dup3\n    /* \"#utility.yul\":2338:2341   */\n  dup6\n    /* \"#utility.yul\":2316:2355   */\n  tag_120\n  jump\t// in\ntag_119:\n    /* \"#utility.yul\":2102:2361   */\n  pop\n  swap4\n  swap3\n  pop\n  pop\n  pop\n  jump\t// out\n    /* \"#utility.yul\":2384:2702   */\ntag_121:\n  0x00\n    /* \"#utility.yul\":2515:2518   */\n  dup3\n    /* \"#utility.yul\":2508:2512   */\n  0x1f\n    /* \"#utility.yul\":2500:2506   */\n  dup4\n    /* \"#utility.yul\":2496:2513   */\n  add\n    /* \"#utility.yul\":2492:2519   */\n  slt\n    /* \"#utility.yul\":2482:2484   */\n  tag_123\n  jumpi\n    /* \"#utility.yul\":2533:2534   */\n  0x00\n    /* \"#utility.yul\":2530:2531   */\n  dup1\n    /* \"#utility.yul\":2523:2535   */\n  revert\n    /* \"#utility.yul\":2482:2484   */\ntag_123:\n    /* \"#utility.yul\":2566:2572   */\n  dup2\n    /* \"#utility.yul\":2560:2573   */\n  mload\n    /* \"#utility.yul\":2591:2696   */\n  tag_124\n    /* \"#utility.yul\":2692:2695   */\n  dup5\n    /* \"#utility.yul\":2684:2690   */\n  dup3\n    /* \"#utility.yul\":2677:2681   */\n  0x20\n    /* \"#utility.yul\":2669:2675   */\n  dup7\n    /* \"#utility.yul\":2665:2682   */\n  add\n    /* \"#utility.yul\":2591:2696   */\n  tag_79\n  jump\t// in\ntag_124:\n    /* \"#utility.yul\":2582:2696   */\n  swap2\n  pop\n    /* \"#utility.yul\":2472:2702   */\n  pop\n  swap3\n  swap2\n  pop\n  pop\n  jump\t// out\n    /* \"#utility.yul\":2724:3040   */\ntag_125:\n  0x00\n    /* \"#utility.yul\":2854:2857   */\n  dup3\n    /* \"#utility.yul\":2847:2851   */\n  0x1f\n    /* \"#utility.yul\":2839:2845   */\n  dup4\n    /* \"#utility.yul\":2835:2852   */\n  add\n    /* \"#utility.yul\":2831:2858   */\n  slt\n    /* \"#utility.yul\":2821:2823   */\n  tag_127\n  jumpi\n    /* \"#utility.yul\":2872:2873   */\n  0x00\n    /* \"#utility.yul\":2869:2870   */\n  dup1\n    /* \"#utility.yul\":2862:2874   */\n  revert\n    /* \"#utility.yul\":2821:2823   */\ntag_127:\n    /* \"#utility.yul\":2905:2911   */\n  dup2\n    /* \"#utility.yul\":2899:2912   */\n  mload\n    /* \"#utility.yul\":2930:3034   */\n  tag_128\n    /* \"#utility.yul\":3030:3033   */\n  dup5\n    /* \"#utility.yul\":3022:3028   */\n  dup3\n    /* \"#utility.yul\":3015:3019   */\n  0x20\n    /* \"#utility.yul\":3007:3013   */\n  dup7\n    /* \"#utility.yul\":3003:3020   */\n  add\n    /* \"#utility.yul\":2930:3034   */\n  tag_91\n  jump\t// in\ntag_128:\n    /* \"#utility.yul\":2921:3034   */\n  swap2\n  pop\n    /* \"#utility.yul\":2811:3040   */\n  pop\n  swap3\n  swap2\n  pop\n  pop\n  jump\t// out\n    /* \"#utility.yul\":3063:3381   */\ntag_129:\n  0x00\n    /* \"#utility.yul\":3194:3197   */\n  dup3\n    /* \"#utility.yul\":3187:3191   */\n  0x1f\n    /* \"#utility.yul\":3179:3185   */\n  dup4\n    /* \"#utility.yul\":3175:3192   */\n  add\n    /* \"#utility.yul\":3171:3198   */\n  slt\n    /* \"#utility.yul\":3161:3163   */\n  tag_131\n  jumpi\n    /* \"#utility.yul\":3212:3213   */\n  0x00\n    /* \"#utility.yul\":3209:3210   */\n  dup1\n    /* \"#utility.yul\":3202:3214   */\n  revert\n    /* \"#utility.yul\":3161:3163   */\ntag_131:\n    /* \"#utility.yul\":3245:3251   */\n  dup2\n    /* \"#utility.yul\":3239:3252   */\n  mload\n    /* \"#utility.yul\":3270:3375   */\n  tag_132\n    /* \"#utility.yul\":3371:3374   */\n  dup5\n    /* \"#utility.yul\":3363:3369   */\n  dup3\n    /* \"#utility.yul\":3356:3360   */\n  0x20\n    /* \"#utility.yul\":3348:3354   */\n  dup7\n    /* \"#utility.yul\":3344:3361   */\n  add\n    /* \"#utility.yul\":3270:3375   */\n  tag_102\n  jump\t// in\ntag_132:\n    /* \"#utility.yul\":3261:3375   */\n  swap2\n  pop\n    /* \"#utility.yul\":3151:3381   */\n  pop\n  swap3\n  swap2\n  pop\n  pop\n  jump\t// out\n    /* \"#utility.yul\":3387:3530   */\ntag_90:\n  0x00\n    /* \"#utility.yul\":3475:3481   */\n  dup2\n    /* \"#utility.yul\":3469:3482   */\n  mload\n    /* \"#utility.yul\":3460:3482   */\n  swap1\n  pop\n    /* \"#utility.yul\":3491:3524   */\n  tag_134\n    /* \"#utility.yul\":3518:3523   */\n  dup2\n    /* \"#utility.yul\":3491:3524   */\n  tag_135\n  jump\t// in\ntag_134:\n    /* \"#utility.yul\":3450:3530   */\n  swap3\n  swap2\n  pop\n  pop\n  jump\t// out\n    /* \"#utility.yul\":3550:3838   */\ntag_136:\n  0x00\n    /* \"#utility.yul\":3666:3669   */\n  dup3\n    /* \"#utility.yul\":3659:3663   */\n  0x1f\n    /* \"#utility.yul\":3651:3657   */\n  dup4\n    /* \"#utility.yul\":3647:3664   */\n  add\n    /* \"#utility.yul\":3643:3670   */\n  slt\n    /* \"#utility.yul\":3633:3635   */\n  tag_138\n  jumpi\n    /* \"#utility.yul\":3684:3685   */\n  0x00\n    /* \"#utility.yul\":3681:3682   */\n  dup1\n    /* \"#utility.yul\":3674:3686   */\n  revert\n    /* \"#utility.yul\":3633:3635   */\ntag_138:\n    /* \"#utility.yul\":3717:3723   */\n  dup2\n    /* \"#utility.yul\":3711:3724   */\n  mload\n    /* \"#utility.yul\":3742:3832   */\n  tag_139\n    /* \"#utility.yul\":3828:3831   */\n  dup5\n    /* \"#utility.yul\":3820:3826   */\n  dup3\n    /* \"#utility.yul\":3813:3817   */\n  0x20\n    /* \"#utility.yul\":3805:3811   */\n  dup7\n    /* \"#utility.yul\":3801:3818   */\n  add\n    /* \"#utility.yul\":3742:3832   */\n  tag_113\n  jump\t// in\ntag_139:\n    /* \"#utility.yul\":3733:3832   */\n  swap2\n  pop\n    /* \"#utility.yul\":3623:3838   */\n  pop\n  swap3\n  swap2\n  pop\n  pop\n  jump\t// out\n    /* \"#utility.yul\":3844:3985   */\ntag_101:\n  0x00\n    /* \"#utility.yul\":3931:3937   */\n  dup2\n    /* \"#utility.yul\":3925:3938   */\n  mload\n    /* \"#utility.yul\":3916:3938   */\n  swap1\n  pop\n    /* \"#utility.yul\":3947:3979   */\n  tag_141\n    /* \"#utility.yul\":3973:3978   */\n  dup2\n    /* \"#utility.yul\":3947:3979   */\n  tag_142\n  jump\t// in\ntag_141:\n    /* \"#utility.yul\":3906:3985   */\n  swap3\n  swap2\n  pop\n  pop\n  jump\t// out\n    /* \"#utility.yul\":3991:4134   */\ntag_112:\n  0x00\n    /* \"#utility.yul\":4079:4085   */\n  dup2\n    /* \"#utility.yul\":4073:4086   */\n  mload\n    /* \"#utility.yul\":4064:4086   */\n  swap1\n  pop\n    /* \"#utility.yul\":4095:4128   */\n  tag_144\n    /* \"#utility.yul\":4122:4127   */\n  dup2\n    /* \"#utility.yul\":4095:4128   */\n  tag_145\n  jump\t// in\ntag_144:\n    /* \"#utility.yul\":4054:4134   */\n  swap3\n  swap2\n  pop\n  pop\n  jump\t// out\n    /* \"#utility.yul\":4140:7103   */\ntag_3:\n  0x00\n  dup1\n  0x00\n  dup1\n  0x00\n  dup1\n  0x00\n  dup1\n  0x00\n  dup1\n    /* \"#utility.yul\":4616:4619   */\n  0x0140\n    /* \"#utility.yul\":4604:4613   */\n  dup12\n    /* \"#utility.yul\":4595:4602   */\n  dup14\n    /* \"#utility.yul\":4591:4614   */\n  sub\n    /* \"#utility.yul\":4587:4620   */\n  slt\n    /* \"#utility.yul\":4584:4586   */\n  iszero\n  tag_147\n  jumpi\n    /* \"#utility.yul\":4633:4634   */\n  0x00\n    /* \"#utility.yul\":4630:4631   */\n  dup1\n    /* \"#utility.yul\":4623:4635   */\n  revert\n    /* \"#utility.yul\":4584:4586   */\ntag_147:\n    /* \"#utility.yul\":4697:4698   */\n  0x00\n    /* \"#utility.yul\":4686:4695   */\n  dup12\n    /* \"#utility.yul\":4682:4699   */\n  add\n    /* \"#utility.yul\":4676:4700   */\n  mload\n    /* \"#utility.yul\":4727:4745   */\n  0xffffffffffffffff\n    /* \"#utility.yul\":4719:4725   */\n  dup2\n    /* \"#utility.yul\":4716:4746   */\n  gt\n    /* \"#utility.yul\":4713:4715   */\n  iszero\n  tag_148\n  jumpi\n    /* \"#utility.yul\":4759:4760   */\n  0x00\n    /* \"#utility.yul\":4756:4757   */\n  dup1\n    /* \"#utility.yul\":4749:4761   */\n  revert\n    /* \"#utility.yul\":4713:4715   */\ntag_148:\n    /* \"#utility.yul\":4787:4876   */\n  tag_149\n    /* \"#utility.yul\":4868:4875   */\n  dup14\n    /* \"#utility.yul\":4859:4865   */\n  dup3\n    /* \"#utility.yul\":4848:4857   */\n  dup15\n    /* \"#utility.yul\":4844:4866   */\n  add\n    /* \"#utility.yul\":4787:4876   */\n  tag_121\n  jump\t// in\ntag_149:\n    /* \"#utility.yul\":4777:4876   */\n  swap11\n  pop\n    /* \"#utility.yul\":4647:4886   */\n  pop\n    /* \"#utility.yul\":4946:4948   */\n  0x20\n    /* \"#utility.yul\":4935:4944   */\n  dup12\n    /* \"#utility.yul\":4931:4949   */\n  add\n    /* \"#utility.yul\":4925:4950   */\n  mload\n    /* \"#utility.yul\":4977:4995   */\n  0xffffffffffffffff\n    /* \"#utility.yul\":4969:4975   */\n  dup2\n    /* \"#utility.yul\":4966:4996   */\n  gt\n    /* \"#utility.yul\":4963:4965   */\n  iszero\n  tag_150\n  jumpi\n    /* \"#utility.yul\":5009:5010   */\n  0x00\n    /* \"#utility.yul\":5006:5007   */\n  dup1\n    /* \"#utility.yul\":4999:5011   */\n  revert\n    /* \"#utility.yul\":4963:4965   */\ntag_150:\n    /* \"#utility.yul\":5037:5126   */\n  tag_151\n    /* \"#utility.yul\":5118:5125   */\n  dup14\n    /* \"#utility.yul\":5109:5115   */\n  dup3\n    /* \"#utility.yul\":5098:5107   */\n  dup15\n    /* \"#utility.yul\":5094:5116   */\n  add\n    /* \"#utility.yul\":5037:5126   */\n  tag_129\n  jump\t// in\ntag_151:\n    /* \"#utility.yul\":5027:5126   */\n  swap10\n  pop\n    /* \"#utility.yul\":4896:5136   */\n  pop\n    /* \"#utility.yul\":5196:5198   */\n  0x40\n    /* \"#utility.yul\":5185:5194   */\n  dup12\n    /* \"#utility.yul\":5181:5199   */\n  add\n    /* \"#utility.yul\":5175:5200   */\n  mload\n    /* \"#utility.yul\":5227:5245   */\n  0xffffffffffffffff\n    /* \"#utility.yul\":5219:5225   */\n  dup2\n    /* \"#utility.yul\":5216:5246   */\n  gt\n    /* \"#utility.yul\":5213:5215   */\n  iszero\n  tag_152\n  jumpi\n    /* \"#utility.yul\":5259:5260   */\n  0x00\n    /* \"#utility.yul\":5256:5257   */\n  dup1\n    /* \"#utility.yul\":5249:5261   */\n  revert\n    /* \"#utility.yul\":5213:5215   */\ntag_152:\n    /* \"#utility.yul\":5287:5376   */\n  tag_153\n    /* \"#utility.yul\":5368:5375   */\n  dup14\n    /* \"#utility.yul\":5359:5365   */\n  dup3\n    /* \"#utility.yul\":5348:5357   */\n  dup15\n    /* \"#utility.yul\":5344:5366   */\n  add\n    /* \"#utility.yul\":5287:5376   */\n  tag_121\n  jump\t// in\ntag_153:\n    /* \"#utility.yul\":5277:5376   */\n  swap9\n  pop\n    /* \"#utility.yul\":5146:5386   */\n  pop\n    /* \"#utility.yul\":5446:5448   */\n  0x60\n    /* \"#utility.yul\":5435:5444   */\n  dup12\n    /* \"#utility.yul\":5431:5449   */\n  add\n    /* \"#utility.yul\":5425:5450   */\n  mload\n    /* \"#utility.yul\":5477:5495   */\n  0xffffffffffffffff\n    /* \"#utility.yul\":5469:5475   */\n  dup2\n    /* \"#utility.yul\":5466:5496   */\n  gt\n    /* \"#utility.yul\":5463:5465   */\n  iszero\n  tag_154\n  jumpi\n    /* \"#utility.yul\":5509:5510   */\n  0x00\n    /* \"#utility.yul\":5506:5507   */\n  dup1\n    /* \"#utility.yul\":5499:5511   */\n  revert\n    /* \"#utility.yul\":5463:5465   */\ntag_154:\n    /* \"#utility.yul\":5537:5626   */\n  tag_155\n    /* \"#utility.yul\":5618:5625   */\n  dup14\n    /* \"#utility.yul\":5609:5615   */\n  dup3\n    /* \"#utility.yul\":5598:5607   */\n  dup15\n    /* \"#utility.yul\":5594:5616   */\n  add\n    /* \"#utility.yul\":5537:5626   */\n  tag_121\n  jump\t// in\ntag_155:\n    /* \"#utility.yul\":5527:5626   */\n  swap8\n  pop\n    /* \"#utility.yul\":5396:5636   */\n  pop\n    /* \"#utility.yul\":5696:5699   */\n  0x80\n    /* \"#utility.yul\":5685:5694   */\n  dup12\n    /* \"#utility.yul\":5681:5700   */\n  add\n    /* \"#utility.yul\":5675:5701   */\n  mload\n    /* \"#utility.yul\":5728:5746   */\n  0xffffffffffffffff\n    /* \"#utility.yul\":5720:5726   */\n  dup2\n    /* \"#utility.yul\":5717:5747   */\n  gt\n    /* \"#utility.yul\":5714:5716   */\n  iszero\n  tag_156\n  jumpi\n    /* \"#utility.yul\":5760:5761   */\n  0x00\n    /* \"#utility.yul\":5757:5758   */\n  dup1\n    /* \"#utility.yul\":5750:5762   */\n  revert\n    /* \"#utility.yul\":5714:5716   */\ntag_156:\n    /* \"#utility.yul\":5788:5877   */\n  tag_157\n    /* \"#utility.yul\":5869:5876   */\n  dup14\n    /* \"#utility.yul\":5860:5866   */\n  dup3\n    /* \"#utility.yul\":5849:5858   */\n  dup15\n    /* \"#utility.yul\":5845:5867   */\n  add\n    /* \"#utility.yul\":5788:5877   */\n  tag_129\n  jump\t// in\ntag_157:\n    /* \"#utility.yul\":5778:5877   */\n  swap7\n  pop\n    /* \"#utility.yul\":5646:5887   */\n  pop\n    /* \"#utility.yul\":5947:5950   */\n  0xa0\n    /* \"#utility.yul\":5936:5945   */\n  dup12\n    /* \"#utility.yul\":5932:5951   */\n  add\n    /* \"#utility.yul\":5926:5952   */\n  mload\n    /* \"#utility.yul\":5979:5997   */\n  0xffffffffffffffff\n    /* \"#utility.yul\":5971:5977   */\n  dup2\n    /* \"#utility.yul\":5968:5998   */\n  gt\n    /* \"#utility.yul\":5965:5967   */\n  iszero\n  tag_158\n  jumpi\n    /* \"#utility.yul\":6011:6012   */\n  0x00\n    /* \"#utility.yul\":6008:6009   */\n  dup1\n    /* \"#utility.yul\":6001:6013   */\n  revert\n    /* \"#utility.yul\":5965:5967   */\ntag_158:\n    /* \"#utility.yul\":6039:6127   */\n  tag_159\n    /* \"#utility.yul\":6119:6126   */\n  dup14\n    /* \"#utility.yul\":6110:6116   */\n  dup3\n    /* \"#utility.yul\":6099:6108   */\n  dup15\n    /* \"#utility.yul\":6095:6117   */\n  add\n    /* \"#utility.yul\":6039:6127   */\n  tag_125\n  jump\t// in\ntag_159:\n    /* \"#utility.yul\":6029:6127   */\n  swap6\n  pop\n    /* \"#utility.yul\":5897:6137   */\n  pop\n    /* \"#utility.yul\":6197:6200   */\n  0xc0\n    /* \"#utility.yul\":6186:6195   */\n  dup12\n    /* \"#utility.yul\":6182:6201   */\n  add\n    /* \"#utility.yul\":6176:6202   */\n  mload\n    /* \"#utility.yul\":6229:6247   */\n  0xffffffffffffffff\n    /* \"#utility.yul\":6221:6227   */\n  dup2\n    /* \"#utility.yul\":6218:6248   */\n  gt\n    /* \"#utility.yul\":6215:6217   */\n  iszero\n  tag_160\n  jumpi\n    /* \"#utility.yul\":6261:6262   */\n  0x00\n    /* \"#utility.yul\":6258:6259   */\n  dup1\n    /* \"#utility.yul\":6251:6263   */\n  revert\n    /* \"#utility.yul\":6215:6217   */\ntag_160:\n    /* \"#utility.yul\":6289:6378   */\n  tag_161\n    /* \"#utility.yul\":6370:6377   */\n  dup14\n    /* \"#utility.yul\":6361:6367   */\n  dup3\n    /* \"#utility.yul\":6350:6359   */\n  dup15\n    /* \"#utility.yul\":6346:6368   */\n  add\n    /* \"#utility.yul\":6289:6378   */\n  tag_121\n  jump\t// in\ntag_161:\n    /* \"#utility.yul\":6279:6378   */\n  swap5\n  pop\n    /* \"#utility.yul\":6147:6388   */\n  pop\n    /* \"#utility.yul\":6448:6451   */\n  0xe0\n    /* \"#utility.yul\":6437:6446   */\n  dup12\n    /* \"#utility.yul\":6433:6452   */\n  add\n    /* \"#utility.yul\":6427:6453   */\n  mload\n    /* \"#utility.yul\":6480:6498   */\n  0xffffffffffffffff\n    /* \"#utility.yul\":6472:6478   */\n  dup2\n    /* \"#utility.yul\":6469:6499   */\n  gt\n    /* \"#utility.yul\":6466:6468   */\n  iszero\n  tag_162\n  jumpi\n    /* \"#utility.yul\":6512:6513   */\n  0x00\n    /* \"#utility.yul\":6509:6510   */\n  dup1\n    /* \"#utility.yul\":6502:6514   */\n  revert\n    /* \"#utility.yul\":6466:6468   */\ntag_162:\n    /* \"#utility.yul\":6540:6614   */\n  tag_163\n    /* \"#utility.yul\":6606:6613   */\n  dup14\n    /* \"#utility.yul\":6597:6603   */\n  dup3\n    /* \"#utility.yul\":6586:6595   */\n  dup15\n    /* \"#utility.yul\":6582:6604   */\n  add\n    /* \"#utility.yul\":6540:6614   */\n  tag_136\n  jump\t// in\ntag_163:\n    /* \"#utility.yul\":6530:6614   */\n  swap4\n  pop\n    /* \"#utility.yul\":6398:6624   */\n  pop\n    /* \"#utility.yul\":6684:6687   */\n  0x0100\n    /* \"#utility.yul\":6673:6682   */\n  dup12\n    /* \"#utility.yul\":6669:6688   */\n  add\n    /* \"#utility.yul\":6663:6689   */\n  mload\n    /* \"#utility.yul\":6716:6734   */\n  0xffffffffffffffff\n    /* \"#utility.yul\":6708:6714   */\n  dup2\n    /* \"#utility.yul\":6705:6735   */\n  gt\n    /* \"#utility.yul\":6702:6704   */\n  iszero\n  tag_164\n  jumpi\n    /* \"#utility.yul\":6748:6749   */\n  0x00\n    /* \"#utility.yul\":6745:6746   */\n  dup1\n    /* \"#utility.yul\":6738:6750   */\n  revert\n    /* \"#utility.yul\":6702:6704   */\ntag_164:\n    /* \"#utility.yul\":6776:6850   */\n  tag_165\n    /* \"#utility.yul\":6842:6849   */\n  dup14\n    /* \"#utility.yul\":6833:6839   */\n  dup3\n    /* \"#utility.yul\":6822:6831   */\n  dup15\n    /* \"#utility.yul\":6818:6840   */\n  add\n    /* \"#utility.yul\":6776:6850   */\n  tag_136\n  jump\t// in\ntag_165:\n    /* \"#utility.yul\":6766:6850   */\n  swap3\n  pop\n    /* \"#utility.yul\":6634:6860   */\n  pop\n    /* \"#utility.yul\":6920:6923   */\n  0x0120\n    /* \"#utility.yul\":6909:6918   */\n  dup12\n    /* \"#utility.yul\":6905:6924   */\n  add\n    /* \"#utility.yul\":6899:6925   */\n  mload\n    /* \"#utility.yul\":6952:6970   */\n  0xffffffffffffffff\n    /* \"#utility.yul\":6944:6950   */\n  dup2\n    /* \"#utility.yul\":6941:6971   */\n  gt\n    /* \"#utility.yul\":6938:6940   */\n  iszero\n  tag_166\n  jumpi\n    /* \"#utility.yul\":6984:6985   */\n  0x00\n    /* \"#utility.yul\":6981:6982   */\n  dup1\n    /* \"#utility.yul\":6974:6986   */\n  revert\n    /* \"#utility.yul\":6938:6940   */\ntag_166:\n    /* \"#utility.yul\":7012:7086   */\n  tag_167\n    /* \"#utility.yul\":7078:7085   */\n  dup14\n    /* \"#utility.yul\":7069:7075   */\n  dup3\n    /* \"#utility.yul\":7058:7067   */\n  dup15\n    /* \"#utility.yul\":7054:7076   */\n  add\n    /* \"#utility.yul\":7012:7086   */\n  tag_136\n  jump\t// in\ntag_167:\n    /* \"#utility.yul\":7002:7086   */\n  swap2\n  pop\n    /* \"#utility.yul\":6870:7096   */\n  pop\n    /* \"#utility.yul\":4574:7103   */\n  swap3\n  swap6\n  swap9\n  swap12\n  swap2\n  swap5\n  swap8\n  swap11\n  pop\n  swap3\n  swap6\n  swap9\n  pop\n  jump\t// out\n    /* \"#utility.yul\":7109:7475   */\ntag_168:\n  0x00\n    /* \"#utility.yul\":7272:7339   */\n  tag_170\n    /* \"#utility.yul\":7336:7338   */\n  0x30\n    /* \"#utility.yul\":7331:7334   */\n  dup4\n    /* \"#utility.yul\":7272:7339   */\n  tag_171\n  jump\t// in\ntag_170:\n    /* \"#utility.yul\":7265:7339   */\n  swap2\n  pop\n    /* \"#utility.yul\":7348:7441   */\n  tag_172\n    /* \"#utility.yul\":7437:7440   */\n  dup3\n    /* \"#utility.yul\":7348:7441   */\n  tag_173\n  jump\t// in\ntag_172:\n    /* \"#utility.yul\":7466:7468   */\n  0x40\n    /* \"#utility.yul\":7461:7464   */\n  dup3\n    /* \"#utility.yul\":7457:7469   */\n  add\n    /* \"#utility.yul\":7450:7469   */\n  swap1\n  pop\n    /* \"#utility.yul\":7255:7475   */\n  swap2\n  swap1\n  pop\n  jump\t// out\n    /* \"#utility.yul\":7481:7847   */\ntag_174:\n  0x00\n    /* \"#utility.yul\":7644:7711   */\n  tag_176\n    /* \"#utility.yul\":7708:7710   */\n  0x2f\n    /* \"#utility.yul\":7703:7706   */\n  dup4\n    /* \"#utility.yul\":7644:7711   */\n  tag_171\n  jump\t// in\ntag_176:\n    /* \"#utility.yul\":7637:7711   */\n  swap2\n  pop\n    /* \"#utility.yul\":7720:7813   */\n  tag_177\n    /* \"#utility.yul\":7809:7812   */\n  dup3\n    /* \"#utility.yul\":7720:7813   */\n  tag_178\n  jump\t// in\ntag_177:\n    /* \"#utility.yul\":7838:7840   */\n  0x40\n    /* \"#utility.yul\":7833:7836   */\n  dup3\n    /* \"#utility.yul\":7829:7841   */\n  add\n    /* \"#utility.yul\":7822:7841   */\n  swap1\n  pop\n    /* \"#utility.yul\":7627:7847   */\n  swap2\n  swap1\n  pop\n  jump\t// out\n    /* \"#utility.yul\":7853:8219   */\ntag_179:\n  0x00\n    /* \"#utility.yul\":8016:8083   */\n  tag_181\n    /* \"#utility.yul\":8080:8082   */\n  0x4a\n    /* \"#utility.yul\":8075:8078   */\n  dup4\n    /* \"#utility.yul\":8016:8083   */\n  tag_171\n  jump\t// in\ntag_181:\n    /* \"#utility.yul\":8009:8083   */\n  swap2\n  pop\n    /* \"#utility.yul\":8092:8185   */\n  tag_182\n    /* \"#utility.yul\":8181:8184   */\n  dup3\n    /* \"#utility.yul\":8092:8185   */\n  tag_183\n  jump\t// in\ntag_182:\n    /* \"#utility.yul\":8210:8212   */\n  0x60\n    /* \"#utility.yul\":8205:8208   */\n  dup3\n    /* \"#utility.yul\":8201:8213   */\n  add\n    /* \"#utility.yul\":8194:8213   */\n  swap1\n  pop\n    /* \"#utility.yul\":7999:8219   */\n  swap2\n  swap1\n  pop\n  jump\t// out\n    /* \"#utility.yul\":8225:8591   */\ntag_184:\n  0x00\n    /* \"#utility.yul\":8388:8455   */\n  tag_186\n    /* \"#utility.yul\":8452:8454   */\n  0x24\n    /* \"#utility.yul\":8447:8450   */\n  dup4\n    /* \"#utility.yul\":8388:8455   */\n  tag_171\n  jump\t// in\ntag_186:\n    /* \"#utility.yul\":8381:8455   */\n  swap2\n  pop\n    /* \"#utility.yul\":8464:8557   */\n  tag_187\n    /* \"#utility.yul\":8553:8556   */\n  dup3\n    /* \"#utility.yul\":8464:8557   */\n  tag_188\n  jump\t// in\ntag_187:\n    /* \"#utility.yul\":8582:8584   */\n  0x40\n    /* \"#utility.yul\":8577:8580   */\n  dup3\n    /* \"#utility.yul\":8573:8585   */\n  add\n    /* \"#utility.yul\":8566:8585   */\n  swap1\n  pop\n    /* \"#utility.yul\":8371:8591   */\n  swap2\n  swap1\n  pop\n  jump\t// out\n    /* \"#utility.yul\":8597:8963   */\ntag_189:\n  0x00\n    /* \"#utility.yul\":8760:8827   */\n  tag_191\n    /* \"#utility.yul\":8824:8826   */\n  0x30\n    /* \"#utility.yul\":8819:8822   */\n  dup4\n    /* \"#utility.yul\":8760:8827   */\n  tag_171\n  jump\t// in\ntag_191:\n    /* \"#utility.yul\":8753:8827   */\n  swap2\n  pop\n    /* \"#utility.yul\":8836:8929   */\n  tag_192\n    /* \"#utility.yul\":8925:8928   */\n  dup3\n    /* \"#utility.yul\":8836:8929   */\n  tag_193\n  jump\t// in\ntag_192:\n    /* \"#utility.yul\":8954:8956   */\n  0x40\n    /* \"#utility.yul\":8949:8952   */\n  dup3\n    /* \"#utility.yul\":8945:8957   */\n  add\n    /* \"#utility.yul\":8938:8957   */\n  swap1\n  pop\n    /* \"#utility.yul\":8743:8963   */\n  swap2\n  swap1\n  pop\n  jump\t// out\n    /* \"#utility.yul\":8969:9388   */\ntag_52:\n  0x00\n    /* \"#utility.yul\":9173:9175   */\n  0x20\n    /* \"#utility.yul\":9162:9171   */\n  dup3\n    /* \"#utility.yul\":9158:9176   */\n  add\n    /* \"#utility.yul\":9150:9176   */\n  swap1\n  pop\n    /* \"#utility.yul\":9222:9231   */\n  dup2\n    /* \"#utility.yul\":9216:9220   */\n  dup2\n    /* \"#utility.yul\":9212:9232   */\n  sub\n    /* \"#utility.yul\":9208:9209   */\n  0x00\n    /* \"#utility.yul\":9197:9206   */\n  dup4\n    /* \"#utility.yul\":9193:9210   */\n  add\n    /* \"#utility.yul\":9186:9233   */\n  mstore\n    /* \"#utility.yul\":9250:9381   */\n  tag_195\n    /* \"#utility.yul\":9376:9380   */\n  dup2\n    /* \"#utility.yul\":9250:9381   */\n  tag_168\n  jump\t// in\ntag_195:\n    /* \"#utility.yul\":9242:9381   */\n  swap1\n  pop\n    /* \"#utility.yul\":9140:9388   */\n  swap2\n  swap1\n  pop\n  jump\t// out\n    /* \"#utility.yul\":9394:9813   */\ntag_26:\n  0x00\n    /* \"#utility.yul\":9598:9600   */\n  0x20\n    /* \"#utility.yul\":9587:9596   */\n  dup3\n    /* \"#utility.yul\":9583:9601   */\n  add\n    /* \"#utility.yul\":9575:9601   */\n  swap1\n  pop\n    /* \"#utility.yul\":9647:9656   */\n  dup2\n    /* \"#utility.yul\":9641:9645   */\n  dup2\n    /* \"#utility.yul\":9637:9657   */\n  sub\n    /* \"#utility.yul\":9633:9634   */\n  0x00\n    /* \"#utility.yul\":9622:9631   */\n  dup4\n    /* \"#utility.yul\":9618:9635   */\n  add\n    /* \"#utility.yul\":9611:9658   */\n  mstore\n    /* \"#utility.yul\":9675:9806   */\n  tag_197\n    /* \"#utility.yul\":9801:9805   */\n  dup2\n    /* \"#utility.yul\":9675:9806   */\n  tag_174\n  jump\t// in\ntag_197:\n    /* \"#utility.yul\":9667:9806   */\n  swap1\n  pop\n    /* \"#utility.yul\":9565:9813   */\n  swap2\n  swap1\n  pop\n  jump\t// out\n    /* \"#utility.yul\":9819:10238   */\ntag_21:\n  0x00\n    /* \"#utility.yul\":10023:10025   */\n  0x20\n    /* \"#utility.yul\":10012:10021   */\n  dup3\n    /* \"#utility.yul\":10008:10026   */\n  add\n    /* \"#utility.yul\":10000:10026   */\n  swap1\n  pop\n    /* \"#utility.yul\":10072:10081   */\n  dup2\n    /* \"#utility.yul\":10066:10070   */\n  dup2\n    /* \"#utility.yul\":10062:10082   */\n  sub\n    /* \"#utility.yul\":10058:10059   */\n  0x00\n    /* \"#utility.yul\":10047:10056   */\n  dup4\n    /* \"#utility.yul\":10043:10060   */\n  add\n    /* \"#utility.yul\":10036:10083   */\n  mstore\n    /* \"#utility.yul\":10100:10231   */\n  tag_199\n    /* \"#utility.yul\":10226:10230   */\n  dup2\n    /* \"#utility.yul\":10100:10231   */\n  tag_179\n  jump\t// in\ntag_199:\n    /* \"#utility.yul\":10092:10231   */\n  swap1\n  pop\n    /* \"#utility.yul\":9990:10238   */\n  swap2\n  swap1\n  pop\n  jump\t// out\n    /* \"#utility.yul\":10244:10663   */\ntag_38:\n  0x00\n    /* \"#utility.yul\":10448:10450   */\n  0x20\n    /* \"#utility.yul\":10437:10446   */\n  dup3\n    /* \"#utility.yul\":10433:10451   */\n  add\n    /* \"#utility.yul\":10425:10451   */\n  swap1\n  pop\n    /* \"#utility.yul\":10497:10506   */\n  dup2\n    /* \"#utility.yul\":10491:10495   */\n  dup2\n    /* \"#utility.yul\":10487:10507   */\n  sub\n    /* \"#utility.yul\":10483:10484   */\n  0x00\n    /* \"#utility.yul\":10472:10481   */\n  dup4\n    /* \"#utility.yul\":10468:10485   */\n  add\n    /* \"#utility.yul\":10461:10508   */\n  mstore\n    /* \"#utility.yul\":10525:10656   */\n  tag_201\n    /* \"#utility.yul\":10651:10655   */\n  dup2\n    /* \"#utility.yul\":10525:10656   */\n  tag_184\n  jump\t// in\ntag_201:\n    /* \"#utility.yul\":10517:10656   */\n  swap1\n  pop\n    /* \"#utility.yul\":10415:10663   */\n  swap2\n  swap1\n  pop\n  jump\t// out\n    /* \"#utility.yul\":10669:11088   */\ntag_31:\n  0x00\n    /* \"#utility.yul\":10873:10875   */\n  0x20\n    /* \"#utility.yul\":10862:10871   */\n  dup3\n    /* \"#utility.yul\":10858:10876   */\n  add\n    /* \"#utility.yul\":10850:10876   */\n  swap1\n  pop\n    /* \"#utility.yul\":10922:10931   */\n  dup2\n    /* \"#utility.yul\":10916:10920   */\n  dup2\n    /* \"#utility.yul\":10912:10932   */\n  sub\n    /* \"#utility.yul\":10908:10909   */\n  0x00\n    /* \"#utility.yul\":10897:10906   */\n  dup4\n    /* \"#utility.yul\":10893:10910   */\n  add\n    /* \"#utility.yul\":10886:10933   */\n  mstore\n    /* \"#utility.yul\":10950:11081   */\n  tag_203\n    /* \"#utility.yul\":11076:11080   */\n  dup2\n    /* \"#utility.yul\":10950:11081   */\n  tag_189\n  jump\t// in\ntag_203:\n    /* \"#utility.yul\":10942:11081   */\n  swap1\n  pop\n    /* \"#utility.yul\":10840:11088   */\n  swap2\n  swap1\n  pop\n  jump\t// out\n    /* \"#utility.yul\":11094:11223   */\ntag_84:\n  0x00\n    /* \"#utility.yul\":11155:11175   */\n  tag_205\n  tag_206\n  jump\t// in\ntag_205:\n    /* \"#utility.yul\":11145:11175   */\n  swap1\n  pop\n    /* \"#utility.yul\":11184:11217   */\n  tag_207\n    /* \"#utility.yul\":11212:11216   */\n  dup3\n    /* \"#utility.yul\":11204:11210   */\n  dup3\n    /* \"#utility.yul\":11184:11217   */\n  tag_208\n  jump\t// in\ntag_207:\n    /* \"#utility.yul\":11135:11223   */\n  swap2\n  swap1\n  pop\n  jump\t// out\n    /* \"#utility.yul\":11229:11304   */\ntag_206:\n  0x00\n    /* \"#utility.yul\":11295:11297   */\n  0x40\n    /* \"#utility.yul\":11289:11298   */\n  mload\n    /* \"#utility.yul\":11279:11298   */\n  swap1\n  pop\n    /* \"#utility.yul\":11269:11304   */\n  swap1\n  jump\t// out\n    /* \"#utility.yul\":11310:11621   */\ntag_83:\n  0x00\n    /* \"#utility.yul\":11477:11495   */\n  0xffffffffffffffff\n    /* \"#utility.yul\":11469:11475   */\n  dup3\n    /* \"#utility.yul\":11466:11496   */\n  gt\n    /* \"#utility.yul\":11463:11465   */\n  iszero\n  tag_211\n  jumpi\n    /* \"#utility.yul\":11499:11517   */\n  tag_212\n  tag_213\n  jump\t// in\ntag_212:\n    /* \"#utility.yul\":11463:11465   */\ntag_211:\n    /* \"#utility.yul\":11549:11553   */\n  0x20\n    /* \"#utility.yul\":11541:11547   */\n  dup3\n    /* \"#utility.yul\":11537:11554   */\n  mul\n    /* \"#utility.yul\":11529:11554   */\n  swap1\n  pop\n    /* \"#utility.yul\":11609:11613   */\n  0x20\n    /* \"#utility.yul\":11603:11607   */\n  dup2\n    /* \"#utility.yul\":11599:11614   */\n  add\n    /* \"#utility.yul\":11591:11614   */\n  swap1\n  pop\n    /* \"#utility.yul\":11392:11621   */\n  swap2\n  swap1\n  pop\n  jump\t// out\n    /* \"#utility.yul\":11627:11937   */\ntag_95:\n  0x00\n    /* \"#utility.yul\":11793:11811   */\n  0xffffffffffffffff\n    /* \"#utility.yul\":11785:11791   */\n  dup3\n    /* \"#utility.yul\":11782:11812   */\n  gt\n    /* \"#utility.yul\":11779:11781   */\n  iszero\n  tag_215\n  jumpi\n    /* \"#utility.yul\":11815:11833   */\n  tag_216\n  tag_213\n  jump\t// in\ntag_216:\n    /* \"#utility.yul\":11779:11781   */\ntag_215:\n    /* \"#utility.yul\":11865:11869   */\n  0x20\n    /* \"#utility.yul\":11857:11863   */\n  dup3\n    /* \"#utility.yul\":11853:11870   */\n  mul\n    /* \"#utility.yul\":11845:11870   */\n  swap1\n  pop\n    /* \"#utility.yul\":11925:11929   */\n  0x20\n    /* \"#utility.yul\":11919:11923   */\n  dup2\n    /* \"#utility.yul\":11915:11930   */\n  add\n    /* \"#utility.yul\":11907:11930   */\n  swap1\n  pop\n    /* \"#utility.yul\":11708:11937   */\n  swap2\n  swap1\n  pop\n  jump\t// out\n    /* \"#utility.yul\":11943:12254   */\ntag_106:\n  0x00\n    /* \"#utility.yul\":12110:12128   */\n  0xffffffffffffffff\n    /* \"#utility.yul\":12102:12108   */\n  dup3\n    /* \"#utility.yul\":12099:12129   */\n  gt\n    /* \"#utility.yul\":12096:12098   */\n  iszero\n  tag_218\n  jumpi\n    /* \"#utility.yul\":12132:12150   */\n  tag_219\n  tag_213\n  jump\t// in\ntag_219:\n    /* \"#utility.yul\":12096:12098   */\ntag_218:\n    /* \"#utility.yul\":12182:12186   */\n  0x20\n    /* \"#utility.yul\":12174:12180   */\n  dup3\n    /* \"#utility.yul\":12170:12187   */\n  mul\n    /* \"#utility.yul\":12162:12187   */\n  swap1\n  pop\n    /* \"#utility.yul\":12242:12246   */\n  0x20\n    /* \"#utility.yul\":12236:12240   */\n  dup2\n    /* \"#utility.yul\":12232:12247   */\n  add\n    /* \"#utility.yul\":12224:12247   */\n  swap1\n  pop\n    /* \"#utility.yul\":12025:12254   */\n  swap2\n  swap1\n  pop\n  jump\t// out\n    /* \"#utility.yul\":12260:12568   */\ntag_117:\n  0x00\n    /* \"#utility.yul\":12412:12430   */\n  0xffffffffffffffff\n    /* \"#utility.yul\":12404:12410   */\n  dup3\n    /* \"#utility.yul\":12401:12431   */\n  gt\n    /* \"#utility.yul\":12398:12400   */\n  iszero\n  tag_221\n  jumpi\n    /* \"#utility.yul\":12434:12452   */\n  tag_222\n  tag_213\n  jump\t// in\ntag_222:\n    /* \"#utility.yul\":12398:12400   */\ntag_221:\n    /* \"#utility.yul\":12472:12501   */\n  tag_223\n    /* \"#utility.yul\":12494:12500   */\n  dup3\n    /* \"#utility.yul\":12472:12501   */\n  tag_224\n  jump\t// in\ntag_223:\n    /* \"#utility.yul\":12464:12501   */\n  swap1\n  pop\n    /* \"#utility.yul\":12556:12560   */\n  0x20\n    /* \"#utility.yul\":12550:12554   */\n  dup2\n    /* \"#utility.yul\":12546:12561   */\n  add\n    /* \"#utility.yul\":12538:12561   */\n  swap1\n  pop\n    /* \"#utility.yul\":12327:12568   */\n  swap2\n  swap1\n  pop\n  jump\t// out\n    /* \"#utility.yul\":12574:12743   */\ntag_171:\n  0x00\n    /* \"#utility.yul\":12692:12698   */\n  dup3\n    /* \"#utility.yul\":12687:12690   */\n  dup3\n    /* \"#utility.yul\":12680:12699   */\n  mstore\n    /* \"#utility.yul\":12732:12736   */\n  0x20\n    /* \"#utility.yul\":12727:12730   */\n  dup3\n    /* \"#utility.yul\":12723:12737   */\n  add\n    /* \"#utility.yul\":12708:12737   */\n  swap1\n  pop\n    /* \"#utility.yul\":12670:12743   */\n  swap3\n  swap2\n  pop\n  pop\n  jump\t// out\n    /* \"#utility.yul\":12749:12940   */\ntag_48:\n  0x00\n    /* \"#utility.yul\":12809:12829   */\n  tag_227\n    /* \"#utility.yul\":12827:12828   */\n  dup3\n    /* \"#utility.yul\":12809:12829   */\n  tag_228\n  jump\t// in\ntag_227:\n    /* \"#utility.yul\":12804:12829   */\n  swap2\n  pop\n    /* \"#utility.yul\":12843:12863   */\n  tag_229\n    /* \"#utility.yul\":12861:12862   */\n  dup4\n    /* \"#utility.yul\":12843:12863   */\n  tag_228\n  jump\t// in\ntag_229:\n    /* \"#utility.yul\":12838:12863   */\n  swap3\n  pop\n    /* \"#utility.yul\":12882:12883   */\n  dup3\n    /* \"#utility.yul\":12879:12880   */\n  dup3\n    /* \"#utility.yul\":12876:12884   */\n  lt\n    /* \"#utility.yul\":12873:12875   */\n  iszero\n  tag_230\n  jumpi\n    /* \"#utility.yul\":12887:12905   */\n  tag_231\n  tag_232\n  jump\t// in\ntag_231:\n    /* \"#utility.yul\":12873:12875   */\ntag_230:\n    /* \"#utility.yul\":12932:12933   */\n  dup3\n    /* \"#utility.yul\":12929:12930   */\n  dup3\n    /* \"#utility.yul\":12925:12934   */\n  sub\n    /* \"#utility.yul\":12917:12934   */\n  swap1\n  pop\n    /* \"#utility.yul\":12794:12940   */\n  swap3\n  swap2\n  pop\n  pop\n  jump\t// out\n    /* \"#utility.yul\":12946:13023   */\ntag_233:\n  0x00\n    /* \"#utility.yul\":13012:13017   */\n  dup2\n    /* \"#utility.yul\":13001:13017   */\n  swap1\n  pop\n    /* \"#utility.yul\":12991:13023   */\n  swap2\n  swap1\n  pop\n  jump\t// out\n    /* \"#utility.yul\":13029:13118   */\ntag_235:\n  0x00\n    /* \"#utility.yul\":13105:13111   */\n  0xffff\n    /* \"#utility.yul\":13098:13103   */\n  dup3\n    /* \"#utility.yul\":13094:13112   */\n  and\n    /* \"#utility.yul\":13083:13112   */\n  swap1\n  pop\n    /* \"#utility.yul\":13073:13118   */\n  swap2\n  swap1\n  pop\n  jump\t// out\n    /* \"#utility.yul\":13124:13201   */\ntag_228:\n  0x00\n    /* \"#utility.yul\":13190:13195   */\n  dup2\n    /* \"#utility.yul\":13179:13195   */\n  swap1\n  pop\n    /* \"#utility.yul\":13169:13201   */\n  swap2\n  swap1\n  pop\n  jump\t// out\n    /* \"#utility.yul\":13207:13514   */\ntag_120:\n    /* \"#utility.yul\":13275:13276   */\n  0x00\n    /* \"#utility.yul\":13285:13398   */\ntag_239:\n    /* \"#utility.yul\":13299:13305   */\n  dup4\n    /* \"#utility.yul\":13296:13297   */\n  dup2\n    /* \"#utility.yul\":13293:13306   */\n  lt\n    /* \"#utility.yul\":13285:13398   */\n  iszero\n  tag_241\n  jumpi\n    /* \"#utility.yul\":13384:13385   */\n  dup1\n    /* \"#utility.yul\":13379:13382   */\n  dup3\n    /* \"#utility.yul\":13375:13386   */\n  add\n    /* \"#utility.yul\":13369:13387   */\n  mload\n    /* \"#utility.yul\":13365:13366   */\n  dup2\n    /* \"#utility.yul\":13360:13363   */\n  dup5\n    /* \"#utility.yul\":13356:13367   */\n  add\n    /* \"#utility.yul\":13349:13388   */\n  mstore\n    /* \"#utility.yul\":13321:13323   */\n  0x20\n    /* \"#utility.yul\":13318:13319   */\n  dup2\n    /* \"#utility.yul\":13314:13324   */\n  add\n    /* \"#utility.yul\":13309:13324   */\n  swap1\n  pop\n    /* \"#utility.yul\":13285:13398   */\n  jump(tag_239)\ntag_241:\n    /* \"#utility.yul\":13416:13422   */\n  dup4\n    /* \"#utility.yul\":13413:13414   */\n  dup2\n    /* \"#utility.yul\":13410:13423   */\n  gt\n    /* \"#utility.yul\":13407:13409   */\n  iszero\n  tag_242\n  jumpi\n    /* \"#utility.yul\":13496:13497   */\n  0x00\n    /* \"#utility.yul\":13487:13493   */\n  dup5\n    /* \"#utility.yul\":13482:13485   */\n  dup5\n    /* \"#utility.yul\":13478:13494   */\n  add\n    /* \"#utility.yul\":13471:13498   */\n  mstore\n    /* \"#utility.yul\":13407:13409   */\ntag_242:\n    /* \"#utility.yul\":13256:13514   */\n  pop\n  pop\n  pop\n  pop\n  jump\t// out\n    /* \"#utility.yul\":13520:13840   */\ntag_61:\n  0x00\n    /* \"#utility.yul\":13601:13602   */\n  0x02\n    /* \"#utility.yul\":13595:13599   */\n  dup3\n    /* \"#utility.yul\":13591:13603   */\n  div\n    /* \"#utility.yul\":13581:13603   */\n  swap1\n  pop\n    /* \"#utility.yul\":13648:13649   */\n  0x01\n    /* \"#utility.yul\":13642:13646   */\n  dup3\n    /* \"#utility.yul\":13638:13650   */\n  and\n    /* \"#utility.yul\":13669:13687   */\n  dup1\n    /* \"#utility.yul\":13659:13661   */\n  tag_244\n  jumpi\n    /* \"#utility.yul\":13725:13729   */\n  0x7f\n    /* \"#utility.yul\":13717:13723   */\n  dup3\n    /* \"#utility.yul\":13713:13730   */\n  and\n    /* \"#utility.yul\":13703:13730   */\n  swap2\n  pop\n    /* \"#utility.yul\":13659:13661   */\ntag_244:\n    /* \"#utility.yul\":13787:13789   */\n  0x20\n    /* \"#utility.yul\":13779:13785   */\n  dup3\n    /* \"#utility.yul\":13776:13790   */\n  lt\n    /* \"#utility.yul\":13756:13774   */\n  dup2\n    /* \"#utility.yul\":13753:13791   */\n  eq\n    /* \"#utility.yul\":13750:13752   */\n  iszero\n  tag_245\n  jumpi\n    /* \"#utility.yul\":13806:13824   */\n  tag_246\n  tag_247\n  jump\t// in\ntag_246:\n    /* \"#utility.yul\":13750:13752   */\ntag_245:\n    /* \"#utility.yul\":13571:13840   */\n  pop\n  swap2\n  swap1\n  pop\n  jump\t// out\n    /* \"#utility.yul\":13846:14127   */\ntag_208:\n    /* \"#utility.yul\":13929:13956   */\n  tag_249\n    /* \"#utility.yul\":13951:13955   */\n  dup3\n    /* \"#utility.yul\":13929:13956   */\n  tag_224\n  jump\t// in\ntag_249:\n    /* \"#utility.yul\":13921:13927   */\n  dup2\n    /* \"#utility.yul\":13917:13957   */\n  add\n    /* \"#utility.yul\":14059:14065   */\n  dup2\n    /* \"#utility.yul\":14047:14057   */\n  dup2\n    /* \"#utility.yul\":14044:14066   */\n  lt\n    /* \"#utility.yul\":14023:14041   */\n  0xffffffffffffffff\n    /* \"#utility.yul\":14011:14021   */\n  dup3\n    /* \"#utility.yul\":14008:14042   */\n  gt\n    /* \"#utility.yul\":14005:14067   */\n  or\n    /* \"#utility.yul\":14002:14004   */\n  iszero\n  tag_250\n  jumpi\n    /* \"#utility.yul\":14070:14088   */\n  tag_251\n  tag_213\n  jump\t// in\ntag_251:\n    /* \"#utility.yul\":14002:14004   */\ntag_250:\n    /* \"#utility.yul\":14110:14120   */\n  dup1\n    /* \"#utility.yul\":14106:14108   */\n  0x40\n    /* \"#utility.yul\":14099:14121   */\n  mstore\n    /* \"#utility.yul\":13889:14127   */\n  pop\n  pop\n  pop\n  jump\t// out\n    /* \"#utility.yul\":14133:14366   */\ntag_58:\n  0x00\n    /* \"#utility.yul\":14195:14219   */\n  tag_253\n    /* \"#utility.yul\":14213:14218   */\n  dup3\n    /* \"#utility.yul\":14195:14219   */\n  tag_228\n  jump\t// in\ntag_253:\n    /* \"#utility.yul\":14186:14219   */\n  swap2\n  pop\n    /* \"#utility.yul\":14241:14307   */\n  0xffffffffffffffffffffffffffffffffffffffffffffffffffffffffffffffff\n    /* \"#utility.yul\":14234:14239   */\n  dup3\n    /* \"#utility.yul\":14231:14308   */\n  eq\n    /* \"#utility.yul\":14228:14230   */\n  iszero\n  tag_254\n  jumpi\n    /* \"#utility.yul\":14311:14329   */\n  tag_255\n  tag_232\n  jump\t// in\ntag_255:\n    /* \"#utility.yul\":14228:14230   */\ntag_254:\n    /* \"#utility.yul\":14358:14359   */\n  0x01\n    /* \"#utility.yul\":14351:14356   */\n  dup3\n    /* \"#utility.yul\":14347:14360   */\n  add\n    /* \"#utility.yul\":14340:14360   */\n  swap1\n  pop\n    /* \"#utility.yul\":14176:14366   */\n  swap2\n  swap1\n  pop\n  jump\t// out\n    /* \"#utility.yul\":14372:14552   */\ntag_232:\n    /* \"#utility.yul\":14420:14497   */\n  0x4e487b7100000000000000000000000000000000000000000000000000000000\n    /* \"#utility.yul\":14417:14418   */\n  0x00\n    /* \"#utility.yul\":14410:14498   */\n  mstore\n    /* \"#utility.yul\":14517:14521   */\n  0x11\n    /* \"#utility.yul\":14514:14515   */\n  0x04\n    /* \"#utility.yul\":14507:14522   */\n  mstore\n    /* \"#utility.yul\":14541:14545   */\n  0x24\n    /* \"#utility.yul\":14538:14539   */\n  0x00\n    /* \"#utility.yul\":14531:14546   */\n  revert\n    /* \"#utility.yul\":14558:14738   */\ntag_247:\n    /* \"#utility.yul\":14606:14683   */\n  0x4e487b7100000000000000000000000000000000000000000000000000000000\n    /* \"#utility.yul\":14603:14604   */\n  0x00\n    /* \"#utility.yul\":14596:14684   */\n  mstore\n    /* \"#utility.yul\":14703:14707   */\n  0x22\n    /* \"#utility.yul\":14700:14701   */\n  0x04\n    /* \"#utility.yul\":14693:14708   */\n  mstore\n    /* \"#utility.yul\":14727:14731   */\n  0x24\n    /* \"#utility.yul\":14724:14725   */\n  0x00\n    /* \"#utility.yul\":14717:14732   */\n  revert\n    /* \"#utility.yul\":14744:14924   */\ntag_213:\n    /* \"#utility.yul\":14792:14869   */\n  0x4e487b7100000000000000000000000000000000000000000000000000000000\n    /* \"#utility.yul\":14789:14790   */\n  0x00\n    /* \"#utility.yul\":14782:14870   */\n  mstore\n    /* \"#utility.yul\":14889:14893   */\n  0x41\n    /* \"#utility.yul\":14886:14887   */\n  0x04\n    /* \"#utility.yul\":14879:14894   */\n  mstore\n    /* \"#utility.yul\":14913:14917   */\n  0x24\n    /* \"#utility.yul\":14910:14911   */\n  0x00\n    /* \"#utility.yul\":14903:14918   */\n  revert\n    /* \"#utility.yul\":14930:15032   */\ntag_224:\n  0x00\n    /* \"#utility.yul\":15022:15024   */\n  0x1f\n    /* \"#utility.yul\":15018:15025   */\n  not\n    /* \"#utility.yul\":15013:15015   */\n  0x1f\n    /* \"#utility.yul\":15006:15011   */\n  dup4\n    /* \"#utility.yul\":15002:15016   */\n  add\n    /* \"#utility.yul\":14998:15026   */\n  and\n    /* \"#utility.yul\":14988:15026   */\n  swap1\n  pop\n    /* \"#utility.yul\":14978:15032   */\n  swap2\n  swap1\n  pop\n  jump\t// out\n    /* \"#utility.yul\":15038:15273   */\ntag_173:\n    /* \"#utility.yul\":15178:15212   */\n  0x436865636b20746861742050435220686173206265656e206e6f206d6f726520\n    /* \"#utility.yul\":15174:15175   */\n  0x00\n    /* \"#utility.yul\":15166:15172   */\n  dup3\n    /* \"#utility.yul\":15162:15176   */\n  add\n    /* \"#utility.yul\":15155:15213   */\n  mstore\n    /* \"#utility.yul\":15247:15265   */\n  0x7468616e203320646179732061676f2e00000000000000000000000000000000\n    /* \"#utility.yul\":15242:15244   */\n  0x20\n    /* \"#utility.yul\":15234:15240   */\n  dup3\n    /* \"#utility.yul\":15230:15245   */\n  add\n    /* \"#utility.yul\":15223:15266   */\n  mstore\n    /* \"#utility.yul\":15144:15273   */\n  pop\n  jump\t// out\n    /* \"#utility.yul\":15279:15513   */\ntag_178:\n    /* \"#utility.yul\":15419:15453   */\n  0x54686520506f6c696379206e6565642061207374617274206461746520616e64\n    /* \"#utility.yul\":15415:15416   */\n  0x00\n    /* \"#utility.yul\":15407:15413   */\n  dup3\n    /* \"#utility.yul\":15403:15417   */\n  add\n    /* \"#utility.yul\":15396:15454   */\n  mstore\n    /* \"#utility.yul\":15488:15505   */\n  0x20612066696e69736820646174652e0000000000000000000000000000000000\n    /* \"#utility.yul\":15483:15485   */\n  0x20\n    /* \"#utility.yul\":15475:15481   */\n  dup3\n    /* \"#utility.yul\":15471:15486   */\n  add\n    /* \"#utility.yul\":15464:15506   */\n  mstore\n    /* \"#utility.yul\":15385:15513   */\n  pop\n  jump\t// out\n    /* \"#utility.yul\":15519:15817   */\ntag_183:\n    /* \"#utility.yul\":15659:15693   */\n  0x596f75206861766520746f2070726f766964652074686520616d6f756e74206f\n    /* \"#utility.yul\":15655:15656   */\n  0x00\n    /* \"#utility.yul\":15647:15653   */\n  dup3\n    /* \"#utility.yul\":15643:15657   */\n  add\n    /* \"#utility.yul\":15636:15694   */\n  mstore\n    /* \"#utility.yul\":15728:15762   */\n  0x662064617920636f6d70656e736174696f6e20616e6420746865206e756d6265\n    /* \"#utility.yul\":15723:15725   */\n  0x20\n    /* \"#utility.yul\":15715:15721   */\n  dup3\n    /* \"#utility.yul\":15711:15726   */\n  add\n    /* \"#utility.yul\":15704:15763   */\n  mstore\n    /* \"#utility.yul\":15797:15809   */\n  0x72206f6620646179732e00000000000000000000000000000000000000000000\n    /* \"#utility.yul\":15792:15794   */\n  0x40\n    /* \"#utility.yul\":15784:15790   */\n  dup3\n    /* \"#utility.yul\":15780:15795   */\n  add\n    /* \"#utility.yul\":15773:15810   */\n  mstore\n    /* \"#utility.yul\":15625:15817   */\n  pop\n  jump\t// out\n    /* \"#utility.yul\":15823:16046   */\ntag_188:\n    /* \"#utility.yul\":15963:15997   */\n  0x4d7573742070726f7669646520506f6c69637920494420616e642054616b6572\n    /* \"#utility.yul\":15959:15960   */\n  0x00\n    /* \"#utility.yul\":15951:15957   */\n  dup3\n    /* \"#utility.yul\":15947:15961   */\n  add\n    /* \"#utility.yul\":15940:15998   */\n  mstore\n    /* \"#utility.yul\":16032:16038   */\n  0x2049442e00000000000000000000000000000000000000000000000000000000\n    /* \"#utility.yul\":16027:16029   */\n  0x20\n    /* \"#utility.yul\":16019:16025   */\n  dup3\n    /* \"#utility.yul\":16015:16030   */\n  add\n    /* \"#utility.yul\":16008:16039   */\n  mstore\n    /* \"#utility.yul\":15929:16046   */\n  pop\n  jump\t// out\n    /* \"#utility.yul\":16052:16287   */\ntag_193:\n    /* \"#utility.yul\":16192:16226   */\n  0x54686520737461727420646174652068617320746f206265206265666f726520\n    /* \"#utility.yul\":16188:16189   */\n  0x00\n    /* \"#utility.yul\":16180:16186   */\n  dup3\n    /* \"#utility.yul\":16176:16190   */\n  add\n    /* \"#utility.yul\":16169:16227   */\n  mstore\n    /* \"#utility.yul\":16261:16279   */\n  0x7468652066696e69736820646174652e00000000000000000000000000000000\n    /* \"#utility.yul\":16256:16258   */\n  0x20\n    /* \"#utility.yul\":16248:16254   */\n  dup3\n    /* \"#utility.yul\":16244:16259   */\n  add\n    /* \"#utility.yul\":16237:16280   */\n  mstore\n    /* \"#utility.yul\":16158:16287   */\n  pop\n  jump\t// out\n    /* \"#utility.yul\":16293:16415   */\ntag_135:\n    /* \"#utility.yul\":16366:16390   */\n  tag_266\n    /* \"#utility.yul\":16384:16389   */\n  dup2\n    /* \"#utility.yul\":16366:16390   */\n  tag_233\n  jump\t// in\ntag_266:\n    /* \"#utility.yul\":16359:16364   */\n  dup2\n    /* \"#utility.yul\":16356:16391   */\n  eq\n    /* \"#utility.yul\":16346:16348   */\n  tag_267\n  jumpi\n    /* \"#utility.yul\":16405:16406   */\n  0x00\n    /* \"#utility.yul\":16402:16403   */\n  dup1\n    /* \"#utility.yul\":16395:16407   */\n  revert\n    /* \"#utility.yul\":16346:16348   */\ntag_267:\n    /* \"#utility.yul\":16336:16415   */\n  pop\n  jump\t// out\n    /* \"#utility.yul\":16421:16541   */\ntag_142:\n    /* \"#utility.yul\":16493:16516   */\n  tag_269\n    /* \"#utility.yul\":16510:16515   */\n  dup2\n    /* \"#utility.yul\":16493:16516   */\n  tag_235\n  jump\t// in\ntag_269:\n    /* \"#utility.yul\":16486:16491   */\n  dup2\n    /* \"#utility.yul\":16483:16517   */\n  eq\n    /* \"#utility.yul\":16473:16475   */\n  tag_270\n  jumpi\n    /* \"#utility.yul\":16531:16532   */\n  0x00\n    /* \"#utility.yul\":16528:16529   */\n  dup1\n    /* \"#utility.yul\":16521:16533   */\n  revert\n    /* \"#utility.yul\":16473:16475   */\ntag_270:\n    /* \"#utility.yul\":16463:16541   */\n  pop\n  jump\t// out\n    /* \"#utility.yul\":16547:16669   */\ntag_145:\n    /* \"#utility.yul\":16620:16644   */\n  tag_272\n    /* \"#utility.yul\":16638:16643   */\n  dup2\n    /* \"#utility.yul\":16620:16644   */\n  tag_228\n  jump\t// in\ntag_272:\n    /* \"#utility.yul\":16613:16618   */\n  dup2\n    /* \"#utility.yul\":16610:16645   */\n  eq\n    /* \"#utility.yul\":16600:16602   */\n  tag_273\n  jumpi\n    /* \"#utility.yul\":16659:16660   */\n  0x00\n    /* \"#utility.yul\":16656:16657   */\n  dup1\n    /* \"#utility.yul\":16649:16661   */\n  revert\n    /* \"#utility.yul\":16600:16602   */\ntag_273:\n    /* \"#utility.yul\":16590:16669   */\n  pop\n  jump\t// out\n    /* \"Insurance.sol\":2146:19154  contract Insurance is Seriality {... */\ntag_59:\n  dataSize(sub_0)\n  dup1\n  dataOffset(sub_0)\n  0x00\n  codecopy\n  0x00\n  return\nstop\n\nsub_0: assembly {\n        /* \"Insurance.sol\":2146:19154  contract Insurance is Seriality {... */\n      mstore(0x40, 0x80)\n      callvalue\n      dup1\n      iszero\n      tag_1\n      jumpi\n      0x00\n      dup1\n      revert\n    tag_1:\n      pop\n      jumpi(tag_2, lt(calldatasize, 0x04))\n      shr(0xe0, calldataload(0x00))\n      dup1\n      0x40d5ff58\n      gt\n      tag_16\n      jumpi\n      dup1\n      0x92ed93d0\n      gt\n      tag_17\n      jumpi\n      dup1\n      0x92ed93d0\n      eq\n      tag_12\n      jumpi\n      dup1\n      0x9499e018\n      eq\n      tag_13\n      jumpi\n      dup1\n      0xe0caf0bd\n      eq\n      tag_14\n      jumpi\n      dup1\n      0xfc1c7a70\n      eq\n      tag_15\n      jumpi\n      jump(tag_2)\n    tag_17:\n      dup1\n      0x40d5ff58\n      eq\n      tag_9\n      jumpi\n      dup1\n      0x5d1ca631\n      eq\n      tag_10\n      jumpi\n      dup1\n      0x62a681b3\n      eq\n      tag_11\n      jumpi\n      jump(tag_2)\n    tag_16:\n      dup1\n      0x121b5a25\n      eq\n      tag_3\n      jumpi\n      dup1\n      0x169e68c3\n      eq\n      tag_4\n      jumpi\n      dup1\n      0x2357aef3\n      eq\n      tag_5\n      jumpi\n      dup1\n      0x236f45d9\n      eq\n      tag_6\n      jumpi\n      dup1\n      0x297e6306\n      eq\n      tag_7\n      jumpi\n      dup1\n      0x2d3ff3ee\n      eq\n      tag_8\n      jumpi\n    tag_2:\n      0x00\n      dup1\n      revert\n        /* \"Insurance.sol\":6995:7182  function calculateCompensation() public view returns(uint256 amount) {... */\n    tag_3:\n      tag_18\n      tag_19\n      jump\t// in\n    tag_18:\n      mload(0x40)\n      tag_20\n      swap2\n      swap1\n      tag_21\n      jump\t// in\n    tag_20:\n      mload(0x40)\n      dup1\n      swap2\n      sub\n      swap1\n      return\n        /* \"Insurance.sol\":9762:10299  function getPCR(bytes32 _idPCR) public view returns(... */\n    tag_4:\n      tag_22\n      0x04\n      dup1\n      calldatasize\n      sub\n      dup2\n      add\n      swap1\n      tag_23\n      swap2\n      swap1\n      tag_24\n      jump\t// in\n    tag_23:\n      tag_25\n      jump\t// in\n    tag_22:\n      mload(0x40)\n      tag_26\n      swap6\n      swap5\n      swap4\n      swap3\n      swap2\n      swap1\n      tag_27\n      jump\t// in\n    tag_26:\n      mload(0x40)\n      dup1\n      swap2\n      sub\n      swap1\n      return\n        /* \"Insurance.sol\":8535:9234  function updatePCR(bytes32 _idPCR, bytes32 _resultPCR) public {... */\n    tag_5:\n      tag_28\n      0x04\n      dup1\n      calldatasize\n      sub\n      dup2\n      add\n      swap1\n      tag_29\n      swap2\n      swap1\n      tag_30\n      jump\t// in\n    tag_29:\n      tag_31\n      jump\t// in\n    tag_28:\n      stop\n        /* \"Insurance.sol\":12325:18615  function serializeInsurance() external view returns (bytes memory _serializedInsurance, uint256 _size) {... */\n    tag_6:\n      tag_32\n      tag_33\n      jump\t// in\n    tag_32:\n      mload(0x40)\n      tag_34\n      swap3\n      swap2\n      swap1\n      tag_35\n      jump\t// in\n    tag_34:\n      mload(0x40)\n      dup1\n      swap2\n      sub\n      swap1\n      return\n        /* \"Insurance.sol\":12004:12165  function addSpcAddress(address _spcAddress) external {... */\n    tag_7:\n      tag_36\n      0x04\n      dup1\n      calldatasize\n      sub\n      dup2\n      add\n      swap1\n      tag_37\n      swap2\n      swap1\n      tag_38\n      jump\t// in\n    tag_37:\n      tag_39\n      jump\t// in\n    tag_36:\n      stop\n        /* \"Insurance.sol\":7685:8350  function addPCRtoInsured(... */\n    tag_8:\n      tag_40\n      0x04\n      dup1\n      calldatasize\n      sub\n      dup2\n      add\n      swap1\n      tag_41\n      swap2\n      swap1\n      tag_42\n      jump\t// in\n    tag_41:\n      tag_43\n      jump\t// in\n    tag_40:\n      stop\n        /* \"Insurance.sol\":7286:7598  function compensation() public {... */\n    tag_9:\n      tag_44\n      tag_45\n      jump\t// in\n    tag_44:\n      stop\n        /* \"Insurance.sol\":18835:18935  function getId() external view returns(bytes32 insuranceId) {... */\n    tag_10:\n      tag_46\n      tag_47\n      jump\t// in\n    tag_46:\n      mload(0x40)\n      tag_48\n      swap2\n      swap1\n      tag_49\n      jump\t// in\n    tag_48:\n      mload(0x40)\n      dup1\n      swap2\n      sub\n      swap1\n      return\n        /* \"Insurance.sol\":9355:9706  function deletePCR(bytes32 _idPCR) public {... */\n    tag_11:\n      tag_50\n      0x04\n      dup1\n      calldatasize\n      sub\n      dup2\n      add\n      swap1\n      tag_51\n      swap2\n      swap1\n      tag_24\n      jump\t// in\n    tag_51:\n      tag_52\n      jump\t// in\n    tag_50:\n      stop\n        /* \"Insurance.sol\":11241:11831  function getInsuranceData() external view returns(... */\n    tag_12:\n      tag_53\n      tag_54\n      jump\t// in\n    tag_53:\n      mload(0x40)\n      tag_55\n      swap8\n      swap7\n      swap6\n      swap5\n      swap4\n      swap3\n      swap2\n      swap1\n      tag_56\n      jump\t// in\n    tag_55:\n      mload(0x40)\n      dup1\n      swap2\n      sub\n      swap1\n      return\n        /* \"Insurance.sol\":19041:19152  function destructContract() external {... */\n    tag_13:\n      tag_57\n      tag_58\n      jump\t// in\n    tag_57:\n      stop\n        /* \"Insurance.sol\":10366:11172  function getTakerData() external view returns(... */\n    tag_14:\n      tag_59\n      tag_60\n      jump\t// in\n    tag_59:\n      mload(0x40)\n      tag_61\n      swap12\n      swap11\n      swap10\n      swap9\n      swap8\n      swap7\n      swap6\n      swap5\n      swap4\n      swap3\n      swap2\n      swap1\n      tag_62\n      jump\t// in\n    tag_61:\n      mload(0x40)\n      dup1\n      swap2\n      sub\n      swap1\n      return\n        /* \"Insurance.sol\":18672:18774  function getTakerId() external view returns(bytes32 takerId) {... */\n    tag_15:\n      tag_63\n      tag_64\n      jump\t// in\n    tag_63:\n      mload(0x40)\n      tag_65\n      swap2\n      swap1\n      tag_49\n      jump\t// in\n    tag_65:\n      mload(0x40)\n      dup1\n      swap2\n      sub\n      swap1\n      return\n        /* \"Insurance.sol\":6995:7182  function calculateCompensation() public view returns(uint256 amount) {... */\n    tag_19:\n        /* \"Insurance.sol\":7048:7062  uint256 amount */\n      0x00\n        /* \"Insurance.sol\":7148:7161  insuranceData */\n      0x0a\n        /* \"Insurance.sol\":7148:7175  insuranceData.insuredNumber */\n      0x00\n      add\n      0x06\n      swap1\n      sload\n      swap1\n      0x0100\n      exp\n      swap1\n      div\n      0xffff\n      and\n        /* \"Insurance.sol\":7115:7128  insuranceData */\n      0x0a\n        /* \"Insurance.sol\":7115:7145  insuranceData.daysToCompensate */\n      0x00\n      add\n      0x02\n      swap1\n      sload\n      swap1\n      0x0100\n      exp\n      swap1\n      div\n      0xffff\n      and\n        /* \"Insurance.sol\":7081:7094  insuranceData */\n      0x0a\n        /* \"Insurance.sol\":7081:7112  insuranceData.dailyCompensation */\n      0x00\n      add\n      0x00\n      swap1\n      sload\n      swap1\n      0x0100\n      exp\n      swap1\n      div\n      0xffff\n      and\n        /* \"Insurance.sol\":7081:7145  insuranceData.dailyCompensation * insuranceData.daysToCompensate */\n      tag_67\n      swap2\n      swap1\n      tag_68\n      jump\t// in\n    tag_67:\n        /* \"Insurance.sol\":7081:7175  insuranceData.dailyCompensation * insuranceData.daysToCompensate * insuranceData.insuredNumber */\n      tag_69\n      swap2\n      swap1\n      tag_68\n      jump\t// in\n    tag_69:\n        /* \"Insurance.sol\":7074:7175  return insuranceData.dailyCompensation * insuranceData.daysToCompensate * insuranceData.insuredNumber */\n      0xffff\n      and\n      swap1\n      pop\n        /* \"Insurance.sol\":6995:7182  function calculateCompensation() public view returns(uint256 amount) {... */\n      swap1\n      jump\t// out\n        /* \"Insurance.sol\":9762:10299  function getPCR(bytes32 _idPCR) public view returns(... */\n    tag_25:\n        /* \"Insurance.sol\":9823:9837  bytes32 result */\n      0x00\n        /* \"Insurance.sol\":9848:9866  bytes32 customerId */\n      dup1\n        /* \"Insurance.sol\":9877:9896  uint256 requestDate */\n      0x00\n        /* \"Insurance.sol\":9906:9924  uint256 resultDate */\n      dup1\n        /* \"Insurance.sol\":9935:9945  bytes32 id */\n      0x00\n        /* \"Insurance.sol\":10084:10095  pcrIdToData */\n      0x09\n        /* \"Insurance.sol\":10084:10103  pcrIdToData[_idPCR] */\n      0x00\n        /* \"Insurance.sol\":10096:10102  _idPCR */\n      dup8\n        /* \"Insurance.sol\":10084:10103  pcrIdToData[_idPCR] */\n      dup2\n      mstore\n      0x20\n      add\n      swap1\n      dup2\n      mstore\n      0x20\n      add\n      0x00\n      keccak256\n        /* \"Insurance.sol\":10084:10110  pcrIdToData[_idPCR].result */\n      0x00\n      add\n      sload\n        /* \"Insurance.sol\":10124:10135  pcrIdToData */\n      0x09\n        /* \"Insurance.sol\":10124:10143  pcrIdToData[_idPCR] */\n      0x00\n        /* \"Insurance.sol\":10136:10142  _idPCR */\n      dup9\n        /* \"Insurance.sol\":10124:10143  pcrIdToData[_idPCR] */\n      dup2\n      mstore\n      0x20\n      add\n      swap1\n      dup2\n      mstore\n      0x20\n      add\n      0x00\n      keccak256\n        /* \"Insurance.sol\":10124:10153  pcrIdToData[_idPCR].insuredId */\n      0x02\n      add\n      sload\n        /* \"Insurance.sol\":10167:10178  pcrIdToData */\n      0x09\n        /* \"Insurance.sol\":10167:10186  pcrIdToData[_idPCR] */\n      0x00\n        /* \"Insurance.sol\":10179:10185  _idPCR */\n      dup10\n        /* \"Insurance.sol\":10167:10186  pcrIdToData[_idPCR] */\n      dup2\n      mstore\n      0x20\n      add\n      swap1\n      dup2\n      mstore\n      0x20\n      add\n      0x00\n      keccak256\n        /* \"Insurance.sol\":10167:10198  pcrIdToData[_idPCR].requestDate */\n      0x03\n      add\n      sload\n        /* \"Insurance.sol\":10212:10223  pcrIdToData */\n      0x09\n        /* \"Insurance.sol\":10212:10231  pcrIdToData[_idPCR] */\n      0x00\n        /* \"Insurance.sol\":10224:10230  _idPCR */\n      dup11\n        /* \"Insurance.sol\":10212:10231  pcrIdToData[_idPCR] */\n      dup2\n      mstore\n      0x20\n      add\n      swap1\n      dup2\n      mstore\n      0x20\n      add\n      0x00\n      keccak256\n        /* \"Insurance.sol\":10212:10242  pcrIdToData[_idPCR].resultDate */\n      0x04\n      add\n      sload\n        /* \"Insurance.sol\":10256:10267  pcrIdToData */\n      0x09\n        /* \"Insurance.sol\":10256:10275  pcrIdToData[_idPCR] */\n      0x00\n        /* \"Insurance.sol\":10268:10274  _idPCR */\n      dup12\n        /* \"Insurance.sol\":10256:10275  pcrIdToData[_idPCR] */\n      dup2\n      mstore\n      0x20\n      add\n      swap1\n      dup2\n      mstore\n      0x20\n      add\n      0x00\n      keccak256\n        /* \"Insurance.sol\":10256:10278  pcrIdToData[_idPCR].id */\n      0x01\n      add\n      sload\n        /* \"Insurance.sol\":10063:10292  return (... */\n      swap5\n      pop\n      swap5\n      pop\n      swap5\n      pop\n      swap5\n      pop\n      swap5\n      pop\n        /* \"Insurance.sol\":9762:10299  function getPCR(bytes32 _idPCR) public view returns(... */\n      swap2\n      swap4\n      swap6\n      swap1\n      swap3\n      swap5\n      pop\n      jump\t// out\n        /* \"Insurance.sol\":8535:9234  function updatePCR(bytes32 _idPCR, bytes32 _resultPCR) public {... */\n    tag_31:\n        /* \"Insurance.sol\":8708:8722  bytes32 posPCR */\n      0x00\n        /* \"Insurance.sol\":8708:8735  bytes32 posPCR = \"POSITIVE\" */\n      0x504f534954495645000000000000000000000000000000000000000000000000\n      swap1\n      pop\n        /* \"Insurance.sol\":8745:8762  bytes32 insuredId */\n      0x00\n        /* \"Insurance.sol\":8765:8781  pcrIdToInsuredId */\n      0x06\n        /* \"Insurance.sol\":8765:8789  pcrIdToInsuredId[_idPCR] */\n      0x00\n        /* \"Insurance.sol\":8782:8788  _idPCR */\n      dup6\n        /* \"Insurance.sol\":8765:8789  pcrIdToInsuredId[_idPCR] */\n      dup2\n      mstore\n      0x20\n      add\n      swap1\n      dup2\n      mstore\n      0x20\n      add\n      0x00\n      keccak256\n      sload\n        /* \"Insurance.sol\":8745:8789  bytes32 insuredId = pcrIdToInsuredId[_idPCR] */\n      swap1\n      pop\n        /* \"Insurance.sol\":8865:8875  _resultPCR */\n      dup3\n        /* \"Insurance.sol\":8799:8810  pcrIdToData */\n      0x09\n        /* \"Insurance.sol\":8799:8855  pcrIdToData[insuredPCRs[insuredId][pcrLocation[_idPCR]]] */\n      0x00\n        /* \"Insurance.sol\":8811:8822  insuredPCRs */\n      0x03\n        /* \"Insurance.sol\":8811:8833  insuredPCRs[insuredId] */\n      0x00\n        /* \"Insurance.sol\":8823:8832  insuredId */\n      dup6\n        /* \"Insurance.sol\":8811:8833  insuredPCRs[insuredId] */\n      dup2\n      mstore\n      0x20\n      add\n      swap1\n      dup2\n      mstore\n      0x20\n      add\n      0x00\n      keccak256\n        /* \"Insurance.sol\":8834:8845  pcrLocation */\n      0x02\n        /* \"Insurance.sol\":8834:8853  pcrLocation[_idPCR] */\n      0x00\n        /* \"Insurance.sol\":8846:8852  _idPCR */\n      dup10\n        /* \"Insurance.sol\":8834:8853  pcrLocation[_idPCR] */\n      dup2\n      mstore\n      0x20\n      add\n      swap1\n      dup2\n      mstore\n      0x20\n      add\n      0x00\n      keccak256\n      sload\n        /* \"Insurance.sol\":8811:8854  insuredPCRs[insuredId][pcrLocation[_idPCR]] */\n      dup2\n      sload\n      dup2\n      lt\n      tag_72\n      jumpi\n      mstore(0x00, 0x4e487b7100000000000000000000000000000000000000000000000000000000)\n      mstore(0x04, 0x32)\n      revert(0x00, 0x24)\n    tag_72:\n      swap1\n      0x00\n      mstore\n      keccak256(0x00, 0x20)\n      add\n      sload\n        /* \"Insurance.sol\":8799:8855  pcrIdToData[insuredPCRs[insuredId][pcrLocation[_idPCR]]] */\n      dup2\n      mstore\n      0x20\n      add\n      swap1\n      dup2\n      mstore\n      0x20\n      add\n      0x00\n      keccak256\n        /* \"Insurance.sol\":8799:8862  pcrIdToData[insuredPCRs[insuredId][pcrLocation[_idPCR]]].result */\n      0x00\n      add\n        /* \"Insurance.sol\":8799:8875  pcrIdToData[insuredPCRs[insuredId][pcrLocation[_idPCR]]].result = _resultPCR */\n      dup2\n      swap1\n      sstore\n      pop\n        /* \"Insurance.sol\":8955:8970  block.timestamp */\n      timestamp\n        /* \"Insurance.sol\":8885:8896  pcrIdToData */\n      0x09\n        /* \"Insurance.sol\":8885:8941  pcrIdToData[insuredPCRs[insuredId][pcrLocation[_idPCR]]] */\n      0x00\n        /* \"Insurance.sol\":8897:8908  insuredPCRs */\n      0x03\n        /* \"Insurance.sol\":8897:8919  insuredPCRs[insuredId] */\n      0x00\n        /* \"Insurance.sol\":8909:8918  insuredId */\n      dup6\n        /* \"Insurance.sol\":8897:8919  insuredPCRs[insuredId] */\n      dup2\n      mstore\n      0x20\n      add\n      swap1\n      dup2\n      mstore\n      0x20\n      add\n      0x00\n      keccak256\n        /* \"Insurance.sol\":8920:8931  pcrLocation */\n      0x02\n        /* \"Insurance.sol\":8920:8939  pcrLocation[_idPCR] */\n      0x00\n        /* \"Insurance.sol\":8932:8938  _idPCR */\n      dup10\n        /* \"Insurance.sol\":8920:8939  pcrLocation[_idPCR] */\n      dup2\n      mstore\n      0x20\n      add\n      swap1\n      dup2\n      mstore\n      0x20\n      add\n      0x00\n      keccak256\n      sload\n        /* \"Insurance.sol\":8897:8940  insuredPCRs[insuredId][pcrLocation[_idPCR]] */\n      dup2\n      sload\n      dup2\n      lt\n      tag_74\n      jumpi\n      mstore(0x00, 0x4e487b7100000000000000000000000000000000000000000000000000000000)\n      mstore(0x04, 0x32)\n      revert(0x00, 0x24)\n    tag_74:\n      swap1\n      0x00\n      mstore\n      keccak256(0x00, 0x20)\n      add\n      sload\n        /* \"Insurance.sol\":8885:8941  pcrIdToData[insuredPCRs[insuredId][pcrLocation[_idPCR]]] */\n      dup2\n      mstore\n      0x20\n      add\n      swap1\n      dup2\n      mstore\n      0x20\n      add\n      0x00\n      keccak256\n        /* \"Insurance.sol\":8885:8952  pcrIdToData[insuredPCRs[insuredId][pcrLocation[_idPCR]]].resultDate */\n      0x04\n      add\n        /* \"Insurance.sol\":8885:8970  pcrIdToData[insuredPCRs[insuredId][pcrLocation[_idPCR]]].resultDate = block.timestamp */\n      dup2\n      swap1\n      sstore\n      pop\n        /* \"Insurance.sol\":8998:9004  posPCR */\n      dup2\n        /* \"Insurance.sol\":8984:8994  _resultPCR */\n      dup4\n        /* \"Insurance.sol\":8984:9004  _resultPCR == posPCR */\n      eq\n        /* \"Insurance.sol\":8980:9228  if (_resultPCR == posPCR) {... */\n      iszero\n      tag_76\n      jumpi\n        /* \"Insurance.sol\":9038:9042  true */\n      0x01\n        /* \"Insurance.sol\":9020:9035  positivePcrTest */\n      0x1a\n      0x00\n        /* \"Insurance.sol\":9020:9042  positivePcrTest = true */\n      0x0100\n      exp\n      dup2\n      sload\n      dup2\n      0xff\n      mul\n      not\n      and\n      swap1\n      dup4\n      iszero\n      iszero\n      mul\n      or\n      swap1\n      sstore\n      pop\n        /* \"Insurance.sol\":9061:9100  positivePcr(insuredId, block.timestamp) */\n      0x55cb01df06ba1925769d5c9d83199624c566e9e81719d4a3d02aee576149d7f9\n        /* \"Insurance.sol\":9073:9082  insuredId */\n      dup2\n        /* \"Insurance.sol\":9084:9099  block.timestamp */\n      timestamp\n        /* \"Insurance.sol\":9061:9100  positivePcr(insuredId, block.timestamp) */\n      mload(0x40)\n      tag_77\n      swap3\n      swap2\n      swap1\n      tag_78\n      jump\t// in\n    tag_77:\n      mload(0x40)\n      dup1\n      swap2\n      sub\n      swap1\n      log1\n        /* \"Insurance.sol\":9136:9149  insuranceData */\n      0x0a\n        /* \"Insurance.sol\":9136:9169  insuranceData.insuranceFinishDate */\n      0x03\n      add\n      sload\n        /* \"Insurance.sol\":9118:9133  block.timestamp */\n      timestamp\n        /* \"Insurance.sol\":9118:9169  block.timestamp < insuranceData.insuranceFinishDate */\n      lt\n        /* \"Insurance.sol\":9114:9218  if (block.timestamp < insuranceData.insuranceFinishDate) {... */\n      iszero\n      tag_79\n      jumpi\n        /* \"Insurance.sol\":9189:9203  compensation() */\n      tag_80\n        /* \"Insurance.sol\":9189:9201  compensation */\n      tag_45\n        /* \"Insurance.sol\":9189:9203  compensation() */\n      jump\t// in\n    tag_80:\n        /* \"Insurance.sol\":9114:9218  if (block.timestamp < insuranceData.insuranceFinishDate) {... */\n    tag_79:\n        /* \"Insurance.sol\":8980:9228  if (_resultPCR == posPCR) {... */\n    tag_76:\n        /* \"Insurance.sol\":8535:9234  function updatePCR(bytes32 _idPCR, bytes32 _resultPCR) public {... */\n      pop\n      pop\n      pop\n      pop\n      jump\t// out\n        /* \"Insurance.sol\":12325:18615  function serializeInsurance() external view returns (bytes memory _serializedInsurance, uint256 _size) {... */\n    tag_33:\n        /* \"Insurance.sol\":12378:12411  bytes memory _serializedInsurance */\n      0x60\n        /* \"Insurance.sol\":12413:12426  uint256 _size */\n      0x00\n        /* \"Insurance.sol\":12438:12453  uint16 nameSize */\n      dup1\n        /* \"Insurance.sol\":12463:12496  sizeOfString(takerData.takerName) */\n      tag_82\n        /* \"Insurance.sol\":12476:12485  takerData */\n      0x0f\n        /* \"Insurance.sol\":12476:12495  takerData.takerName */\n      0x00\n      add\n        /* \"Insurance.sol\":12463:12496  sizeOfString(takerData.takerName) */\n      dup1\n      sload\n      tag_83\n      swap1\n      tag_84\n      jump\t// in\n    tag_83:\n      dup1\n      0x1f\n      add\n      0x20\n      dup1\n      swap2\n      div\n      mul\n      0x20\n      add\n      mload(0x40)\n      swap1\n      dup2\n      add\n      0x40\n      mstore\n      dup1\n      swap3\n      swap2\n      swap1\n      dup2\n      dup2\n      mstore\n      0x20\n      add\n      dup3\n      dup1\n      sload\n      tag_85\n      swap1\n      tag_84\n      jump\t// in\n    tag_85:\n      dup1\n      iszero\n      tag_86\n      jumpi\n      dup1\n      0x1f\n      lt\n      tag_87\n      jumpi\n      0x0100\n      dup1\n      dup4\n      sload\n      div\n      mul\n      dup4\n      mstore\n      swap2\n      0x20\n      add\n      swap2\n      jump(tag_86)\n    tag_87:\n      dup3\n      add\n      swap2\n      swap1\n      0x00\n      mstore\n      keccak256(0x00, 0x20)\n      swap1\n    tag_88:\n      dup2\n      sload\n      dup2\n      mstore\n      swap1\n      0x01\n      add\n      swap1\n      0x20\n      add\n      dup1\n      dup4\n      gt\n      tag_88\n      jumpi\n      dup3\n      swap1\n      sub\n      0x1f\n      and\n      dup3\n      add\n      swap2\n    tag_86:\n      pop\n      pop\n      pop\n      pop\n      pop\n        /* \"Insurance.sol\":12463:12475  sizeOfString */\n      tag_89\n        /* \"Insurance.sol\":12463:12496  sizeOfString(takerData.takerName) */\n      jump\t// in\n    tag_82:\n        /* \"Insurance.sol\":12438:12497  uint16 nameSize = uint16(sizeOfString(takerData.takerName)) */\n      swap1\n      pop\n        /* \"Insurance.sol\":12507:12525  uint16 addressSize */\n      0x00\n        /* \"Insurance.sol\":12535:12571  sizeOfString(takerData.takerAddress) */\n      tag_90\n        /* \"Insurance.sol\":12548:12557  takerData */\n      0x0f\n        /* \"Insurance.sol\":12548:12570  takerData.takerAddress */\n      0x01\n      add\n        /* \"Insurance.sol\":12535:12571  sizeOfString(takerData.takerAddress) */\n      dup1\n      sload\n      tag_91\n      swap1\n      tag_84\n      jump\t// in\n    tag_91:\n      dup1\n      0x1f\n      add\n      0x20\n      dup1\n      swap2\n      div\n      mul\n      0x20\n      add\n      mload(0x40)\n      swap1\n      dup2\n      add\n      0x40\n      mstore\n      dup1\n      swap3\n      swap2\n      swap1\n      dup2\n      dup2\n      mstore\n      0x20\n      add\n      dup3\n      dup1\n      sload\n      tag_92\n      swap1\n      tag_84\n      jump\t// in\n    tag_92:\n      dup1\n      iszero\n      tag_93\n      jumpi\n      dup1\n      0x1f\n      lt\n      tag_94\n      jumpi\n      0x0100\n      dup1\n      dup4\n      sload\n      div\n      mul\n      dup4\n      mstore\n      swap2\n      0x20\n      add\n      swap2\n      jump(tag_93)\n    tag_94:\n      dup3\n      add\n      swap2\n      swap1\n      0x00\n      mstore\n      keccak256(0x00, 0x20)\n      swap1\n    tag_95:\n      dup2\n      sload\n      dup2\n      mstore\n      swap1\n      0x01\n      add\n      swap1\n      0x20\n      add\n      dup1\n      dup4\n      gt\n      tag_95\n      jumpi\n      dup3\n      swap1\n      sub\n      0x1f\n      and\n      dup3\n      add\n      swap2\n    tag_93:\n      pop\n      pop\n      pop\n      pop\n      pop\n        /* \"Insurance.sol\":12535:12547  sizeOfString */\n      tag_89\n        /* \"Insurance.sol\":12535:12571  sizeOfString(takerData.takerAddress) */\n      jump\t// in\n    tag_90:\n        /* \"Insurance.sol\":12507:12572  uint16 addressSize = uint16(sizeOfString(takerData.takerAddress)) */\n      swap1\n      pop\n        /* \"Insurance.sol\":12582:12598  uint16 emailSize */\n      0x00\n        /* \"Insurance.sol\":12608:12642  sizeOfString(takerData.takerEmail) */\n      tag_96\n        /* \"Insurance.sol\":12621:12630  takerData */\n      0x0f\n        /* \"Insurance.sol\":12621:12641  takerData.takerEmail */\n      0x02\n      add\n        /* \"Insurance.sol\":12608:12642  sizeOfString(takerData.takerEmail) */\n      dup1\n      sload\n      tag_97\n      swap1\n      tag_84\n      jump\t// in\n    tag_97:\n      dup1\n      0x1f\n      add\n      0x20\n      dup1\n      swap2\n      div\n      mul\n      0x20\n      add\n      mload(0x40)\n      swap1\n      dup2\n      add\n      0x40\n      mstore\n      dup1\n      swap3\n      swap2\n      swap1\n      dup2\n      dup2\n      mstore\n      0x20\n      add\n      dup3\n      dup1\n      sload\n      tag_98\n      swap1\n      tag_84\n      jump\t// in\n    tag_98:\n      dup1\n      iszero\n      tag_99\n      jumpi\n      dup1\n      0x1f\n      lt\n      tag_100\n      jumpi\n      0x0100\n      dup1\n      dup4\n      sload\n      div\n      mul\n      dup4\n      mstore\n      swap2\n      0x20\n      add\n      swap2\n      jump(tag_99)\n    tag_100:\n      dup3\n      add\n      swap2\n      swap1\n      0x00\n      mstore\n      keccak256(0x00, 0x20)\n      swap1\n    tag_101:\n      dup2\n      sload\n      dup2\n      mstore\n      swap1\n      0x01\n      add\n      swap1\n      0x20\n      add\n      dup1\n      dup4\n      gt\n      tag_101\n      jumpi\n      dup3\n      swap1\n      sub\n      0x1f\n      and\n      dup3\n      add\n      swap2\n    tag_99:\n      pop\n      pop\n      pop\n      pop\n      pop\n        /* \"Insurance.sol\":12608:12620  sizeOfString */\n      tag_89\n        /* \"Insurance.sol\":12608:12642  sizeOfString(takerData.takerEmail) */\n      jump\t// in\n    tag_96:\n        /* \"Insurance.sol\":12582:12643  uint16 emailSize = uint16(sizeOfString(takerData.takerEmail)) */\n      swap1\n      pop\n        /* \"Insurance.sol\":12654:12668  uint256 offset */\n      0x00\n        /* \"Insurance.sol\":13258:13260  30 */\n      0x1e\n        /* \"Insurance.sol\":13184:13197  insuranceData */\n      0x0a\n        /* \"Insurance.sol\":13184:13207  insuranceData.pcrNumber */\n      0x00\n      add\n      0x04\n      swap1\n      sload\n      swap1\n      0x0100\n      exp\n      swap1\n      div\n      0xffff\n      and\n        /* \"Insurance.sol\":13175:13181  32 * 5 */\n      0xa0\n        /* \"Insurance.sol\":13175:13207  32 * 5 * insuranceData.pcrNumber */\n      tag_102\n      swap2\n      swap1\n      tag_68\n      jump\t// in\n    tag_102:\n        /* \"Insurance.sol\":13147:13148  2 */\n      0x02\n        /* \"Insurance.sol\":13030:13032  10 */\n      0x0a\n        /* \"Insurance.sol\":13006:13015  emailSize */\n      dup6\n        /* \"Insurance.sol\":12992:13003  addressSize */\n      dup8\n        /* \"Insurance.sol\":12981:12989  nameSize */\n      dup10\n        /* \"Insurance.sol\":12936:12942  32 * 8 */\n      0x0100\n        /* \"Insurance.sol\":12878:12879  2 */\n      0x02\n        /* \"Insurance.sol\":12848:12861  insuranceData */\n      0x0a\n        /* \"Insurance.sol\":12848:12875  insuranceData.insuredNumber */\n      0x00\n      add\n      0x06\n      swap1\n      sload\n      swap1\n      0x0100\n      exp\n      swap1\n      div\n      0xffff\n      and\n        /* \"Insurance.sol\":12843:12845  32 */\n      0x20\n        /* \"Insurance.sol\":12843:12875  32 * insuranceData.insuredNumber */\n      tag_103\n      swap2\n      swap1\n      tag_68\n      jump\t// in\n    tag_103:\n        /* \"Insurance.sol\":12843:12879  32 * insuranceData.insuredNumber * 2 */\n      tag_104\n      swap2\n      swap1\n      tag_68\n      jump\t// in\n    tag_104:\n        /* \"Insurance.sol\":12779:12792  insuranceData */\n      0x0a\n        /* \"Insurance.sol\":12779:12806  insuranceData.insuredNumber */\n      0x00\n      add\n      0x06\n      swap1\n      sload\n      swap1\n      0x0100\n      exp\n      swap1\n      div\n      0xffff\n      and\n        /* \"Insurance.sol\":12774:12776  32 */\n      0x20\n        /* \"Insurance.sol\":12774:12806  32 * insuranceData.insuredNumber */\n      tag_105\n      swap2\n      swap1\n      tag_68\n      jump\t// in\n    tag_105:\n        /* \"Insurance.sol\":12685:12716  4 + // 2 uint16 ... */\n      0x64\n        /* \"Insurance.sol\":12685:12807  4 + // 2 uint16 ... */\n      tag_106\n      swap2\n      swap1\n      tag_107\n      jump\t// in\n    tag_106:\n        /* \"Insurance.sol\":12685:12880  4 + // 2 uint16 ... */\n      tag_108\n      swap2\n      swap1\n      tag_107\n      jump\t// in\n    tag_108:\n        /* \"Insurance.sol\":12685:12943  4 + // 2 uint16 ... */\n      tag_109\n      swap2\n      swap1\n      tag_107\n      jump\t// in\n    tag_109:\n        /* \"Insurance.sol\":12685:12989  4 + // 2 uint16 ... */\n      tag_110\n      swap2\n      swap1\n      tag_107\n      jump\t// in\n    tag_110:\n        /* \"Insurance.sol\":12685:13003  4 + // 2 uint16 ... */\n      tag_111\n      swap2\n      swap1\n      tag_107\n      jump\t// in\n    tag_111:\n        /* \"Insurance.sol\":12685:13015  4 + // 2 uint16 ... */\n      tag_112\n      swap2\n      swap1\n      tag_107\n      jump\t// in\n    tag_112:\n        /* \"Insurance.sol\":12685:13032  4 + // 2 uint16 ... */\n      tag_113\n      swap2\n      swap1\n      tag_107\n      jump\t// in\n    tag_113:\n        /* \"Insurance.sol\":12685:13148  4 + // 2 uint16 ... */\n      tag_114\n      swap2\n      swap1\n      tag_107\n      jump\t// in\n    tag_114:\n        /* \"Insurance.sol\":12685:13208  4 + // 2 uint16 ... */\n      tag_115\n      swap2\n      swap1\n      tag_107\n      jump\t// in\n    tag_115:\n        /* \"Insurance.sol\":12685:13260  4 + // 2 uint16 ... */\n      tag_116\n      swap2\n      swap1\n      tag_107\n      jump\t// in\n    tag_116:\n        /* \"Insurance.sol\":12654:13345  uint256 offset = (... */\n      0xffff\n      and\n      swap1\n      pop\n        /* \"Insurance.sol\":13388:13394  offset */\n      dup1\n        /* \"Insurance.sol\":13378:13395  new bytes(offset) */\n      0xffffffffffffffff\n      dup2\n      gt\n      iszero\n      tag_117\n      jumpi\n      mstore(0x00, 0x4e487b7100000000000000000000000000000000000000000000000000000000)\n      mstore(0x04, 0x41)\n      revert(0x00, 0x24)\n    tag_117:\n      mload(0x40)\n      swap1\n      dup1\n      dup3\n      mstore\n      dup1\n      0x1f\n      add\n      not(0x1f)\n      and\n      0x20\n      add\n      dup3\n      add\n      0x40\n      mstore\n      dup1\n      iszero\n      tag_118\n      jumpi\n      dup2\n      0x20\n      add\n      0x01\n      dup3\n      mul\n      dup1\n      calldatasize\n      dup4\n      calldatacopy\n      dup1\n      dup3\n      add\n      swap2\n      pop\n      pop\n      swap1\n      pop\n    tag_118:\n      pop\n        /* \"Insurance.sol\":13355:13395  _serializedInsurance = new bytes(offset) */\n      swap6\n      pop\n        /* \"Insurance.sol\":13413:13419  offset */\n      dup1\n        /* \"Insurance.sol\":13405:13419  _size = offset */\n      swap5\n      pop\n        /* \"Insurance.sol\":13490:13552  bytes32ToBytes(offset, insuranceData.id, _serializedInsurance) */\n      tag_119\n        /* \"Insurance.sol\":13505:13511  offset */\n      dup2\n        /* \"Insurance.sol\":13513:13526  insuranceData */\n      0x0a\n        /* \"Insurance.sol\":13513:13529  insuranceData.id */\n      0x01\n      add\n      sload\n        /* \"Insurance.sol\":13531:13551  _serializedInsurance */\n      dup9\n        /* \"Insurance.sol\":13490:13504  bytes32ToBytes */\n      tag_120\n        /* \"Insurance.sol\":13490:13552  bytes32ToBytes(offset, insuranceData.id, _serializedInsurance) */\n      jump\t// in\n    tag_119:\n        /* \"Insurance.sol\":13572:13574  32 */\n      0x20\n        /* \"Insurance.sol\":13562:13574  offset -= 32 */\n      dup2\n      tag_121\n      swap2\n      swap1\n      tag_122\n      jump\t// in\n    tag_121:\n      swap1\n      pop\n        /* \"Insurance.sol\":13627:13702  uintToBytes(offset, insuranceData.insuranceStartDate, _serializedInsurance) */\n      tag_123\n        /* \"Insurance.sol\":13639:13645  offset */\n      dup2\n        /* \"Insurance.sol\":13647:13660  insuranceData */\n      0x0a\n        /* \"Insurance.sol\":13647:13679  insuranceData.insuranceStartDate */\n      0x02\n      add\n      sload\n        /* \"Insurance.sol\":13681:13701  _serializedInsurance */\n      dup9\n        /* \"Insurance.sol\":13627:13638  uintToBytes */\n      tag_124\n        /* \"Insurance.sol\":13627:13702  uintToBytes(offset, insuranceData.insuranceStartDate, _serializedInsurance) */\n      jump\t// in\n    tag_123:\n        /* \"Insurance.sol\":13722:13724  32 */\n      0x20\n        /* \"Insurance.sol\":13712:13724  offset -= 32 */\n      dup2\n      tag_125\n      swap2\n      swap1\n      tag_122\n      jump\t// in\n    tag_125:\n      swap1\n      pop\n        /* \"Insurance.sol\":13778:13854  uintToBytes(offset, insuranceData.insuranceFinishDate, _serializedInsurance) */\n      tag_126\n        /* \"Insurance.sol\":13790:13796  offset */\n      dup2\n        /* \"Insurance.sol\":13798:13811  insuranceData */\n      0x0a\n        /* \"Insurance.sol\":13798:13831  insuranceData.insuranceFinishDate */\n      0x03\n      add\n      sload\n        /* \"Insurance.sol\":13833:13853  _serializedInsurance */\n      dup9\n        /* \"Insurance.sol\":13778:13789  uintToBytes */\n      tag_124\n        /* \"Insurance.sol\":13778:13854  uintToBytes(offset, insuranceData.insuranceFinishDate, _serializedInsurance) */\n      jump\t// in\n    tag_126:\n        /* \"Insurance.sol\":13874:13876  32 */\n      0x20\n        /* \"Insurance.sol\":13864:13876  offset -= 32 */\n      dup2\n      tag_127\n      swap2\n      swap1\n      tag_122\n      jump\t// in\n    tag_127:\n      swap1\n      pop\n        /* \"Insurance.sol\":13927:14001  uintToBytes(offset, insuranceData.dailyCompensation, _serializedInsurance) */\n      tag_128\n        /* \"Insurance.sol\":13939:13945  offset */\n      dup2\n        /* \"Insurance.sol\":13947:13960  insuranceData */\n      0x0a\n        /* \"Insurance.sol\":13947:13978  insuranceData.dailyCompensation */\n      0x00\n      add\n      0x00\n      swap1\n      sload\n      swap1\n      0x0100\n      exp\n      swap1\n      div\n      0xffff\n      and\n        /* \"Insurance.sol\":13927:14001  uintToBytes(offset, insuranceData.dailyCompensation, _serializedInsurance) */\n      0xffff\n      and\n        /* \"Insurance.sol\":13980:14000  _serializedInsurance */\n      dup9\n        /* \"Insurance.sol\":13927:13938  uintToBytes */\n      tag_124\n        /* \"Insurance.sol\":13927:14001  uintToBytes(offset, insuranceData.dailyCompensation, _serializedInsurance) */\n      jump\t// in\n    tag_128:\n        /* \"Insurance.sol\":14021:14022  2 */\n      0x02\n        /* \"Insurance.sol\":14011:14022  offset -= 2 */\n      dup2\n      tag_129\n      swap2\n      swap1\n      tag_122\n      jump\t// in\n    tag_129:\n      swap1\n      pop\n        /* \"Insurance.sol\":14073:14146  uintToBytes(offset, insuranceData.daysToCompensate, _serializedInsurance) */\n      tag_130\n        /* \"Insurance.sol\":14085:14091  offset */\n      dup2\n        /* \"Insurance.sol\":14093:14106  insuranceData */\n      0x0a\n        /* \"Insurance.sol\":14093:14123  insuranceData.daysToCompensate */\n      0x00\n      add\n      0x02\n      swap1\n      sload\n      swap1\n      0x0100\n      exp\n      swap1\n      div\n      0xffff\n      and\n        /* \"Insurance.sol\":14073:14146  uintToBytes(offset, insuranceData.daysToCompensate, _serializedInsurance) */\n      0xffff\n      and\n        /* \"Insurance.sol\":14125:14145  _serializedInsurance */\n      dup9\n        /* \"Insurance.sol\":14073:14084  uintToBytes */\n      tag_124\n        /* \"Insurance.sol\":14073:14146  uintToBytes(offset, insuranceData.daysToCompensate, _serializedInsurance) */\n      jump\t// in\n    tag_130:\n        /* \"Insurance.sol\":14166:14167  2 */\n      0x02\n        /* \"Insurance.sol\":14156:14167  offset -= 2 */\n      dup2\n      tag_131\n      swap2\n      swap1\n      tag_122\n      jump\t// in\n    tag_131:\n      swap1\n      pop\n        /* \"Insurance.sol\":14230:14293  bytes32ToBytes(offset, takerData.takerId, _serializedInsurance) */\n      tag_132\n        /* \"Insurance.sol\":14245:14251  offset */\n      dup2\n        /* \"Insurance.sol\":14253:14262  takerData */\n      0x0f\n        /* \"Insurance.sol\":14253:14270  takerData.takerId */\n      0x03\n      add\n      sload\n        /* \"Insurance.sol\":14272:14292  _serializedInsurance */\n      dup9\n        /* \"Insurance.sol\":14230:14244  bytes32ToBytes */\n      tag_120\n        /* \"Insurance.sol\":14230:14293  bytes32ToBytes(offset, takerData.takerId, _serializedInsurance) */\n      jump\t// in\n    tag_132:\n        /* \"Insurance.sol\":14313:14315  32 */\n      0x20\n        /* \"Insurance.sol\":14303:14315  offset -= 32 */\n      dup2\n      tag_133\n      swap2\n      swap1\n      tag_122\n      jump\t// in\n    tag_133:\n      swap1\n      pop\n        /* \"Insurance.sol\":14357:14421  bytes32ToBytes(offset, takerData.takerNif, _serializedInsurance) */\n      tag_134\n        /* \"Insurance.sol\":14372:14378  offset */\n      dup2\n        /* \"Insurance.sol\":14380:14389  takerData */\n      0x0f\n        /* \"Insurance.sol\":14380:14398  takerData.takerNif */\n      0x04\n      add\n      sload\n        /* \"Insurance.sol\":14400:14420  _serializedInsurance */\n      dup9\n        /* \"Insurance.sol\":14357:14371  bytes32ToBytes */\n      tag_120\n        /* \"Insurance.sol\":14357:14421  bytes32ToBytes(offset, takerData.takerNif, _serializedInsurance) */\n      jump\t// in\n    tag_134:\n        /* \"Insurance.sol\":14441:14443  32 */\n      0x20\n        /* \"Insurance.sol\":14431:14443  offset -= 32 */\n      dup2\n      tag_135\n      swap2\n      swap1\n      tag_122\n      jump\t// in\n    tag_135:\n      swap1\n      pop\n        /* \"Insurance.sol\":14493:14564  bytes32ToBytes(offset, takerData.takerPostalCode, _serializedInsurance) */\n      tag_136\n        /* \"Insurance.sol\":14508:14514  offset */\n      dup2\n        /* \"Insurance.sol\":14516:14525  takerData */\n      0x0f\n        /* \"Insurance.sol\":14516:14541  takerData.takerPostalCode */\n      0x05\n      add\n      sload\n        /* \"Insurance.sol\":14543:14563  _serializedInsurance */\n      dup9\n        /* \"Insurance.sol\":14493:14507  bytes32ToBytes */\n      tag_120\n        /* \"Insurance.sol\":14493:14564  bytes32ToBytes(offset, takerData.takerPostalCode, _serializedInsurance) */\n      jump\t// in\n    tag_136:\n        /* \"Insurance.sol\":14584:14586  32 */\n      0x20\n        /* \"Insurance.sol\":14574:14586  offset -= 32 */\n      dup2\n      tag_137\n      swap2\n      swap1\n      tag_122\n      jump\t// in\n    tag_137:\n      swap1\n      pop\n        /* \"Insurance.sol\":14629:14694  bytes32ToBytes(offset, takerData.takerTown, _serializedInsurance) */\n      tag_138\n        /* \"Insurance.sol\":14644:14650  offset */\n      dup2\n        /* \"Insurance.sol\":14652:14661  takerData */\n      0x0f\n        /* \"Insurance.sol\":14652:14671  takerData.takerTown */\n      0x06\n      add\n      sload\n        /* \"Insurance.sol\":14673:14693  _serializedInsurance */\n      dup9\n        /* \"Insurance.sol\":14629:14643  bytes32ToBytes */\n      tag_120\n        /* \"Insurance.sol\":14629:14694  bytes32ToBytes(offset, takerData.takerTown, _serializedInsurance) */\n      jump\t// in\n    tag_138:\n        /* \"Insurance.sol\":14714:14716  32 */\n      0x20\n        /* \"Insurance.sol\":14704:14716  offset -= 32 */\n      dup2\n      tag_139\n      swap2\n      swap1\n      tag_122\n      jump\t// in\n    tag_139:\n      swap1\n      pop\n        /* \"Insurance.sol\":14763:14832  bytes32ToBytes(offset, takerData.takerLocation, _serializedInsurance) */\n      tag_140\n        /* \"Insurance.sol\":14778:14784  offset */\n      dup2\n        /* \"Insurance.sol\":14786:14795  takerData */\n      0x0f\n        /* \"Insurance.sol\":14786:14809  takerData.takerLocation */\n      0x07\n      add\n      sload\n        /* \"Insurance.sol\":14811:14831  _serializedInsurance */\n      dup9\n        /* \"Insurance.sol\":14763:14777  bytes32ToBytes */\n      tag_120\n        /* \"Insurance.sol\":14763:14832  bytes32ToBytes(offset, takerData.takerLocation, _serializedInsurance) */\n      jump\t// in\n    tag_140:\n        /* \"Insurance.sol\":14852:14854  32 */\n      0x20\n        /* \"Insurance.sol\":14842:14854  offset -= 32 */\n      dup2\n      tag_141\n      swap2\n      swap1\n      tag_122\n      jump\t// in\n    tag_141:\n      swap1\n      pop\n        /* \"Insurance.sol\":14902:14972  bytes32ToBytes(offset, takerData.takerTelephone, _serializedInsurance) */\n      tag_142\n        /* \"Insurance.sol\":14917:14923  offset */\n      dup2\n        /* \"Insurance.sol\":14925:14934  takerData */\n      0x0f\n        /* \"Insurance.sol\":14925:14949  takerData.takerTelephone */\n      0x08\n      add\n      sload\n        /* \"Insurance.sol\":14951:14971  _serializedInsurance */\n      dup9\n        /* \"Insurance.sol\":14902:14916  bytes32ToBytes */\n      tag_120\n        /* \"Insurance.sol\":14902:14972  bytes32ToBytes(offset, takerData.takerTelephone, _serializedInsurance) */\n      jump\t// in\n    tag_142:\n        /* \"Insurance.sol\":14992:14994  32 */\n      0x20\n        /* \"Insurance.sol\":14982:14994  offset -= 32 */\n      dup2\n      tag_143\n      swap2\n      swap1\n      tag_122\n      jump\t// in\n    tag_143:\n      swap1\n      pop\n        /* \"Insurance.sol\":15039:15106  bytes32ToBytes(offset, takerData.takerMobile, _serializedInsurance) */\n      tag_144\n        /* \"Insurance.sol\":15054:15060  offset */\n      dup2\n        /* \"Insurance.sol\":15062:15071  takerData */\n      0x0f\n        /* \"Insurance.sol\":15062:15083  takerData.takerMobile */\n      0x09\n      add\n      sload\n        /* \"Insurance.sol\":15085:15105  _serializedInsurance */\n      dup9\n        /* \"Insurance.sol\":15039:15053  bytes32ToBytes */\n      tag_120\n        /* \"Insurance.sol\":15039:15106  bytes32ToBytes(offset, takerData.takerMobile, _serializedInsurance) */\n      jump\t// in\n    tag_144:\n        /* \"Insurance.sol\":15126:15128  32 */\n      0x20\n        /* \"Insurance.sol\":15116:15128  offset -= 32 */\n      dup2\n      tag_145\n      swap2\n      swap1\n      tag_122\n      jump\t// in\n    tag_145:\n      swap1\n      pop\n        /* \"Insurance.sol\":15171:15236  bytes32ToBytes(offset, takerData.takerIban, _serializedInsurance) */\n      tag_146\n        /* \"Insurance.sol\":15186:15192  offset */\n      dup2\n        /* \"Insurance.sol\":15194:15203  takerData */\n      0x0f\n        /* \"Insurance.sol\":15194:15213  takerData.takerIban */\n      0x0a\n      add\n      sload\n        /* \"Insurance.sol\":15215:15235  _serializedInsurance */\n      dup9\n        /* \"Insurance.sol\":15171:15185  bytes32ToBytes */\n      tag_120\n        /* \"Insurance.sol\":15171:15236  bytes32ToBytes(offset, takerData.takerIban, _serializedInsurance) */\n      jump\t// in\n    tag_146:\n        /* \"Insurance.sol\":15256:15258  32 */\n      0x20\n        /* \"Insurance.sol\":15246:15258  offset -= 32 */\n      dup2\n      tag_147\n      swap2\n      swap1\n      tag_122\n      jump\t// in\n    tag_147:\n      swap1\n      pop\n        /* \"Insurance.sol\":15308:15366  boolToBytes(offset, positivePcrTest, _serializedInsurance) */\n      tag_148\n        /* \"Insurance.sol\":15320:15326  offset */\n      dup2\n        /* \"Insurance.sol\":15328:15343  positivePcrTest */\n      0x1a\n      0x00\n      swap1\n      sload\n      swap1\n      0x0100\n      exp\n      swap1\n      div\n      0xff\n      and\n        /* \"Insurance.sol\":15345:15365  _serializedInsurance */\n      dup9\n        /* \"Insurance.sol\":15308:15319  boolToBytes */\n      tag_149\n        /* \"Insurance.sol\":15308:15366  boolToBytes(offset, positivePcrTest, _serializedInsurance) */\n      jump\t// in\n    tag_148:\n        /* \"Insurance.sol\":15386:15387  1 */\n      0x01\n        /* \"Insurance.sol\":15376:15387  offset -= 1 */\n      dup2\n      tag_150\n      swap2\n      swap1\n      tag_122\n      jump\t// in\n    tag_150:\n      swap1\n      pop\n        /* \"Insurance.sol\":15440:15497  boolToBytes(offset, paymentEmitted, _serializedInsurance) */\n      tag_151\n        /* \"Insurance.sol\":15452:15458  offset */\n      dup2\n        /* \"Insurance.sol\":15460:15474  paymentEmitted */\n      0x1a\n      0x01\n      swap1\n      sload\n      swap1\n      0x0100\n      exp\n      swap1\n      div\n      0xff\n      and\n        /* \"Insurance.sol\":15476:15496  _serializedInsurance */\n      dup9\n        /* \"Insurance.sol\":15440:15451  boolToBytes */\n      tag_149\n        /* \"Insurance.sol\":15440:15497  boolToBytes(offset, paymentEmitted, _serializedInsurance) */\n      jump\t// in\n    tag_151:\n        /* \"Insurance.sol\":15517:15518  1 */\n      0x01\n        /* \"Insurance.sol\":15507:15518  offset -= 1 */\n      dup2\n      tag_152\n      swap2\n      swap1\n      tag_122\n      jump\t// in\n    tag_152:\n      swap1\n      pop\n        /* \"Insurance.sol\":15616:15667  uintToBytes(offset, nameSize, _serializedInsurance) */\n      tag_153\n        /* \"Insurance.sol\":15628:15634  offset */\n      dup2\n        /* \"Insurance.sol\":15636:15644  nameSize */\n      dup6\n        /* \"Insurance.sol\":15616:15667  uintToBytes(offset, nameSize, _serializedInsurance) */\n      0xffff\n      and\n        /* \"Insurance.sol\":15646:15666  _serializedInsurance */\n      dup9\n        /* \"Insurance.sol\":15616:15627  uintToBytes */\n      tag_124\n        /* \"Insurance.sol\":15616:15667  uintToBytes(offset, nameSize, _serializedInsurance) */\n      jump\t// in\n    tag_153:\n        /* \"Insurance.sol\":15687:15688  2 */\n      0x02\n        /* \"Insurance.sol\":15677:15688  offset -= 2 */\n      dup2\n      tag_154\n      swap2\n      swap1\n      tag_122\n      jump\t// in\n    tag_154:\n      swap1\n      pop\n        /* \"Insurance.sol\":15699:15770  stringToBytes(offset, bytes(takerData.takerName), _serializedInsurance) */\n      tag_155\n        /* \"Insurance.sol\":15713:15719  offset */\n      dup2\n        /* \"Insurance.sol\":15727:15736  takerData */\n      0x0f\n        /* \"Insurance.sol\":15727:15746  takerData.takerName */\n      0x00\n      add\n        /* \"Insurance.sol\":15699:15770  stringToBytes(offset, bytes(takerData.takerName), _serializedInsurance) */\n      dup1\n      sload\n      tag_156\n      swap1\n      tag_84\n      jump\t// in\n    tag_156:\n      dup1\n      0x1f\n      add\n      0x20\n      dup1\n      swap2\n      div\n      mul\n      0x20\n      add\n      mload(0x40)\n      swap1\n      dup2\n      add\n      0x40\n      mstore\n      dup1\n      swap3\n      swap2\n      swap1\n      dup2\n      dup2\n      mstore\n      0x20\n      add\n      dup3\n      dup1\n      sload\n      tag_157\n      swap1\n      tag_84\n      jump\t// in\n    tag_157:\n      dup1\n      iszero\n      tag_158\n      jumpi\n      dup1\n      0x1f\n      lt\n      tag_159\n      jumpi\n      0x0100\n      dup1\n      dup4\n      sload\n      div\n      mul\n      dup4\n      mstore\n      swap2\n      0x20\n      add\n      swap2\n      jump(tag_158)\n    tag_159:\n      dup3\n      add\n      swap2\n      swap1\n      0x00\n      mstore\n      keccak256(0x00, 0x20)\n      swap1\n    tag_160:\n      dup2\n      sload\n      dup2\n      mstore\n      swap1\n      0x01\n      add\n      swap1\n      0x20\n      add\n      dup1\n      dup4\n      gt\n      tag_160\n      jumpi\n      dup3\n      swap1\n      sub\n      0x1f\n      and\n      dup3\n      add\n      swap2\n    tag_158:\n      pop\n      pop\n      pop\n      pop\n      pop\n        /* \"Insurance.sol\":15749:15769  _serializedInsurance */\n      dup9\n        /* \"Insurance.sol\":15699:15712  stringToBytes */\n      tag_161\n        /* \"Insurance.sol\":15699:15770  stringToBytes(offset, bytes(takerData.takerName), _serializedInsurance) */\n      jump\t// in\n    tag_155:\n        /* \"Insurance.sol\":15790:15798  nameSize */\n      dup4\n        /* \"Insurance.sol\":15780:15798  offset -= nameSize */\n      0xffff\n      and\n      dup2\n      tag_162\n      swap2\n      swap1\n      tag_122\n      jump\t// in\n    tag_162:\n      swap1\n      pop\n        /* \"Insurance.sol\":15858:15912  uintToBytes(offset, addressSize, _serializedInsurance) */\n      tag_163\n        /* \"Insurance.sol\":15870:15876  offset */\n      dup2\n        /* \"Insurance.sol\":15878:15889  addressSize */\n      dup5\n        /* \"Insurance.sol\":15858:15912  uintToBytes(offset, addressSize, _serializedInsurance) */\n      0xffff\n      and\n        /* \"Insurance.sol\":15891:15911  _serializedInsurance */\n      dup9\n        /* \"Insurance.sol\":15858:15869  uintToBytes */\n      tag_124\n        /* \"Insurance.sol\":15858:15912  uintToBytes(offset, addressSize, _serializedInsurance) */\n      jump\t// in\n    tag_163:\n        /* \"Insurance.sol\":15932:15933  2 */\n      0x02\n        /* \"Insurance.sol\":15922:15933  offset -= 2 */\n      dup2\n      tag_164\n      swap2\n      swap1\n      tag_122\n      jump\t// in\n    tag_164:\n      swap1\n      pop\n        /* \"Insurance.sol\":15944:16018  stringToBytes(offset, bytes(takerData.takerAddress), _serializedInsurance) */\n      tag_165\n        /* \"Insurance.sol\":15958:15964  offset */\n      dup2\n        /* \"Insurance.sol\":15972:15981  takerData */\n      0x0f\n        /* \"Insurance.sol\":15972:15994  takerData.takerAddress */\n      0x01\n      add\n        /* \"Insurance.sol\":15944:16018  stringToBytes(offset, bytes(takerData.takerAddress), _serializedInsurance) */\n      dup1\n      sload\n      tag_166\n      swap1\n      tag_84\n      jump\t// in\n    tag_166:\n      dup1\n      0x1f\n      add\n      0x20\n      dup1\n      swap2\n      div\n      mul\n      0x20\n      add\n      mload(0x40)\n      swap1\n      dup2\n      add\n      0x40\n      mstore\n      dup1\n      swap3\n      swap2\n      swap1\n      dup2\n      dup2\n      mstore\n      0x20\n      add\n      dup3\n      dup1\n      sload\n      tag_167\n      swap1\n      tag_84\n      jump\t// in\n    tag_167:\n      dup1\n      iszero\n      tag_168\n      jumpi\n      dup1\n      0x1f\n      lt\n      tag_169\n      jumpi\n      0x0100\n      dup1\n      dup4\n      sload\n      div\n      mul\n      dup4\n      mstore\n      swap2\n      0x20\n      add\n      swap2\n      jump(tag_168)\n    tag_169:\n      dup3\n      add\n      swap2\n      swap1\n      0x00\n      mstore\n      keccak256(0x00, 0x20)\n      swap1\n    tag_170:\n      dup2\n      sload\n      dup2\n      mstore\n      swap1\n      0x01\n      add\n      swap1\n      0x20\n      add\n      dup1\n      dup4\n      gt\n      tag_170\n      jumpi\n      dup3\n      swap1\n      sub\n      0x1f\n      and\n      dup3\n      add\n      swap2\n    tag_168:\n      pop\n      pop\n      pop\n      pop\n      pop\n        /* \"Insurance.sol\":15997:16017  _serializedInsurance */\n      dup9\n        /* \"Insurance.sol\":15944:15957  stringToBytes */\n      tag_161\n        /* \"Insurance.sol\":15944:16018  stringToBytes(offset, bytes(takerData.takerAddress), _serializedInsurance) */\n      jump\t// in\n    tag_165:\n        /* \"Insurance.sol\":16038:16049  addressSize */\n      dup3\n        /* \"Insurance.sol\":16028:16049  offset -= addressSize */\n      0xffff\n      and\n      dup2\n      tag_171\n      swap2\n      swap1\n      tag_122\n      jump\t// in\n    tag_171:\n      swap1\n      pop\n        /* \"Insurance.sol\":16107:16159  uintToBytes(offset, emailSize, _serializedInsurance) */\n      tag_172\n        /* \"Insurance.sol\":16119:16125  offset */\n      dup2\n        /* \"Insurance.sol\":16127:16136  emailSize */\n      dup4\n        /* \"Insurance.sol\":16107:16159  uintToBytes(offset, emailSize, _serializedInsurance) */\n      0xffff\n      and\n        /* \"Insurance.sol\":16138:16158  _serializedInsurance */\n      dup9\n        /* \"Insurance.sol\":16107:16118  uintToBytes */\n      tag_124\n        /* \"Insurance.sol\":16107:16159  uintToBytes(offset, emailSize, _serializedInsurance) */\n      jump\t// in\n    tag_172:\n        /* \"Insurance.sol\":16179:16180  2 */\n      0x02\n        /* \"Insurance.sol\":16169:16180  offset -= 2 */\n      dup2\n      tag_173\n      swap2\n      swap1\n      tag_122\n      jump\t// in\n    tag_173:\n      swap1\n      pop\n        /* \"Insurance.sol\":16191:16263  stringToBytes(offset, bytes(takerData.takerEmail), _serializedInsurance) */\n      tag_174\n        /* \"Insurance.sol\":16205:16211  offset */\n      dup2\n        /* \"Insurance.sol\":16219:16228  takerData */\n      0x0f\n        /* \"Insurance.sol\":16219:16239  takerData.takerEmail */\n      0x02\n      add\n        /* \"Insurance.sol\":16191:16263  stringToBytes(offset, bytes(takerData.takerEmail), _serializedInsurance) */\n      dup1\n      sload\n      tag_175\n      swap1\n      tag_84\n      jump\t// in\n    tag_175:\n      dup1\n      0x1f\n      add\n      0x20\n      dup1\n      swap2\n      div\n      mul\n      0x20\n      add\n      mload(0x40)\n      swap1\n      dup2\n      add\n      0x40\n      mstore\n      dup1\n      swap3\n      swap2\n      swap1\n      dup2\n      dup2\n      mstore\n      0x20\n      add\n      dup3\n      dup1\n      sload\n      tag_176\n      swap1\n      tag_84\n      jump\t// in\n    tag_176:\n      dup1\n      iszero\n      tag_177\n      jumpi\n      dup1\n      0x1f\n      lt\n      tag_178\n      jumpi\n      0x0100\n      dup1\n      dup4\n      sload\n      div\n      mul\n      dup4\n      mstore\n      swap2\n      0x20\n      add\n      swap2\n      jump(tag_177)\n    tag_178:\n      dup3\n      add\n      swap2\n      swap1\n      0x00\n      mstore\n      keccak256(0x00, 0x20)\n      swap1\n    tag_179:\n      dup2\n      sload\n      dup2\n      mstore\n      swap1\n      0x01\n      add\n      swap1\n      0x20\n      add\n      dup1\n      dup4\n      gt\n      tag_179\n      jumpi\n      dup3\n      swap1\n      sub\n      0x1f\n      and\n      dup3\n      add\n      swap2\n    tag_177:\n      pop\n      pop\n      pop\n      pop\n      pop\n        /* \"Insurance.sol\":16242:16262  _serializedInsurance */\n      dup9\n        /* \"Insurance.sol\":16191:16204  stringToBytes */\n      tag_161\n        /* \"Insurance.sol\":16191:16263  stringToBytes(offset, bytes(takerData.takerEmail), _serializedInsurance) */\n      jump\t// in\n    tag_174:\n        /* \"Insurance.sol\":16283:16292  emailSize */\n      dup2\n        /* \"Insurance.sol\":16273:16292  offset -= emailSize */\n      0xffff\n      and\n      dup2\n      tag_180\n      swap2\n      swap1\n      tag_122\n      jump\t// in\n    tag_180:\n      swap1\n      pop\n        /* \"Insurance.sol\":16368:16438  uintToBytes(offset, insuranceData.insuredNumber, _serializedInsurance) */\n      tag_181\n        /* \"Insurance.sol\":16380:16386  offset */\n      dup2\n        /* \"Insurance.sol\":16388:16401  insuranceData */\n      0x0a\n        /* \"Insurance.sol\":16388:16415  insuranceData.insuredNumber */\n      0x00\n      add\n      0x06\n      swap1\n      sload\n      swap1\n      0x0100\n      exp\n      swap1\n      div\n      0xffff\n      and\n        /* \"Insurance.sol\":16368:16438  uintToBytes(offset, insuranceData.insuredNumber, _serializedInsurance) */\n      0xffff\n      and\n        /* \"Insurance.sol\":16417:16437  _serializedInsurance */\n      dup9\n        /* \"Insurance.sol\":16368:16379  uintToBytes */\n      tag_124\n        /* \"Insurance.sol\":16368:16438  uintToBytes(offset, insuranceData.insuredNumber, _serializedInsurance) */\n      jump\t// in\n    tag_181:\n        /* \"Insurance.sol\":16458:16459  2 */\n      0x02\n        /* \"Insurance.sol\":16448:16459  offset -= 2 */\n      dup2\n      tag_182\n      swap2\n      swap1\n      tag_122\n      jump\t// in\n    tag_182:\n      swap1\n      pop\n        /* \"Insurance.sol\":16516:16525  uint256 i */\n      0x00\n        /* \"Insurance.sol\":16511:17088  for (uint256 i = 0; i < insuranceData.insuredNumber; i++) {... */\n    tag_183:\n        /* \"Insurance.sol\":16535:16548  insuranceData */\n      0x0a\n        /* \"Insurance.sol\":16535:16562  insuranceData.insuredNumber */\n      0x00\n      add\n      0x06\n      swap1\n      sload\n      swap1\n      0x0100\n      exp\n      swap1\n      div\n      0xffff\n      and\n        /* \"Insurance.sol\":16531:16562  i < insuranceData.insuredNumber */\n      0xffff\n      and\n        /* \"Insurance.sol\":16531:16532  i */\n      dup2\n        /* \"Insurance.sol\":16531:16562  i < insuranceData.insuredNumber */\n      lt\n        /* \"Insurance.sol\":16511:17088  for (uint256 i = 0; i < insuranceData.insuredNumber; i++) {... */\n      iszero\n      tag_184\n      jumpi\n        /* \"Insurance.sol\":16619:16690  bytes32ToBytes(offset, insuranceData.insureds[i], _serializedInsurance) */\n      tag_186\n        /* \"Insurance.sol\":16634:16640  offset */\n      dup3\n        /* \"Insurance.sol\":16642:16655  insuranceData */\n      0x0a\n        /* \"Insurance.sol\":16642:16664  insuranceData.insureds */\n      0x04\n      add\n        /* \"Insurance.sol\":16665:16666  i */\n      dup4\n        /* \"Insurance.sol\":16642:16667  insuranceData.insureds[i] */\n      dup2\n      sload\n      dup2\n      lt\n      tag_187\n      jumpi\n      mstore(0x00, 0x4e487b7100000000000000000000000000000000000000000000000000000000)\n      mstore(0x04, 0x32)\n      revert(0x00, 0x24)\n    tag_187:\n      swap1\n      0x00\n      mstore\n      keccak256(0x00, 0x20)\n      add\n      sload\n        /* \"Insurance.sol\":16669:16689  _serializedInsurance */\n      dup10\n        /* \"Insurance.sol\":16619:16633  bytes32ToBytes */\n      tag_120\n        /* \"Insurance.sol\":16619:16690  bytes32ToBytes(offset, insuranceData.insureds[i], _serializedInsurance) */\n      jump\t// in\n    tag_186:\n        /* \"Insurance.sol\":16714:16716  32 */\n      0x20\n        /* \"Insurance.sol\":16704:16716  offset -= 32 */\n      dup3\n      tag_189\n      swap2\n      swap1\n      tag_122\n      jump\t// in\n    tag_189:\n      swap2\n      pop\n        /* \"Insurance.sol\":16782:16872  bytes32ToBytes(offset, insuredNegPcrHash[insuranceData.insureds[i]], _serializedInsurance) */\n      tag_190\n        /* \"Insurance.sol\":16797:16803  offset */\n      dup3\n        /* \"Insurance.sol\":16805:16822  insuredNegPcrHash */\n      0x07\n        /* \"Insurance.sol\":16805:16849  insuredNegPcrHash[insuranceData.insureds[i]] */\n      0x00\n        /* \"Insurance.sol\":16823:16836  insuranceData */\n      0x0a\n        /* \"Insurance.sol\":16823:16845  insuranceData.insureds */\n      0x04\n      add\n        /* \"Insurance.sol\":16846:16847  i */\n      dup6\n        /* \"Insurance.sol\":16823:16848  insuranceData.insureds[i] */\n      dup2\n      sload\n      dup2\n      lt\n      tag_191\n      jumpi\n      mstore(0x00, 0x4e487b7100000000000000000000000000000000000000000000000000000000)\n      mstore(0x04, 0x32)\n      revert(0x00, 0x24)\n    tag_191:\n      swap1\n      0x00\n      mstore\n      keccak256(0x00, 0x20)\n      add\n      sload\n        /* \"Insurance.sol\":16805:16849  insuredNegPcrHash[insuranceData.insureds[i]] */\n      dup2\n      mstore\n      0x20\n      add\n      swap1\n      dup2\n      mstore\n      0x20\n      add\n      0x00\n      keccak256\n      sload\n        /* \"Insurance.sol\":16851:16871  _serializedInsurance */\n      dup10\n        /* \"Insurance.sol\":16782:16796  bytes32ToBytes */\n      tag_120\n        /* \"Insurance.sol\":16782:16872  bytes32ToBytes(offset, insuredNegPcrHash[insuranceData.insureds[i]], _serializedInsurance) */\n      jump\t// in\n    tag_190:\n        /* \"Insurance.sol\":16896:16898  32 */\n      0x20\n        /* \"Insurance.sol\":16886:16898  offset -= 32 */\n      dup3\n      tag_193\n      swap2\n      swap1\n      tag_122\n      jump\t// in\n    tag_193:\n      swap2\n      pop\n        /* \"Insurance.sol\":16964:17051  uintToBytes(offset, insuredNegPcrDate[insuranceData.insureds[i]], _serializedInsurance) */\n      tag_194\n        /* \"Insurance.sol\":16976:16982  offset */\n      dup3\n        /* \"Insurance.sol\":16984:17001  insuredNegPcrDate */\n      0x08\n        /* \"Insurance.sol\":16984:17028  insuredNegPcrDate[insuranceData.insureds[i]] */\n      0x00\n        /* \"Insurance.sol\":17002:17015  insuranceData */\n      0x0a\n        /* \"Insurance.sol\":17002:17024  insuranceData.insureds */\n      0x04\n      add\n        /* \"Insurance.sol\":17025:17026  i */\n      dup6\n        /* \"Insurance.sol\":17002:17027  insuranceData.insureds[i] */\n      dup2\n      sload\n      dup2\n      lt\n      tag_195\n      jumpi\n      mstore(0x00, 0x4e487b7100000000000000000000000000000000000000000000000000000000)\n      mstore(0x04, 0x32)\n      revert(0x00, 0x24)\n    tag_195:\n      swap1\n      0x00\n      mstore\n      keccak256(0x00, 0x20)\n      add\n      sload\n        /* \"Insurance.sol\":16984:17028  insuredNegPcrDate[insuranceData.insureds[i]] */\n      dup2\n      mstore\n      0x20\n      add\n      swap1\n      dup2\n      mstore\n      0x20\n      add\n      0x00\n      keccak256\n      sload\n        /* \"Insurance.sol\":17030:17050  _serializedInsurance */\n      dup10\n        /* \"Insurance.sol\":16964:16975  uintToBytes */\n      tag_124\n        /* \"Insurance.sol\":16964:17051  uintToBytes(offset, insuredNegPcrDate[insuranceData.insureds[i]], _serializedInsurance) */\n      jump\t// in\n    tag_194:\n        /* \"Insurance.sol\":17075:17077  32 */\n      0x20\n        /* \"Insurance.sol\":17065:17077  offset -= 32 */\n      dup3\n      tag_197\n      swap2\n      swap1\n      tag_122\n      jump\t// in\n    tag_197:\n      swap2\n      pop\n        /* \"Insurance.sol\":16564:16567  i++ */\n      dup1\n      dup1\n      tag_198\n      swap1\n      tag_199\n      jump\t// in\n    tag_198:\n      swap2\n      pop\n      pop\n        /* \"Insurance.sol\":16511:17088  for (uint256 i = 0; i < insuranceData.insuredNumber; i++) {... */\n      jump(tag_183)\n    tag_184:\n      pop\n        /* \"Insurance.sol\":17164:17230  uintToBytes(offset, insuranceData.pcrNumber, _serializedInsurance) */\n      tag_200\n        /* \"Insurance.sol\":17176:17182  offset */\n      dup2\n        /* \"Insurance.sol\":17184:17197  insuranceData */\n      0x0a\n        /* \"Insurance.sol\":17184:17207  insuranceData.pcrNumber */\n      0x00\n      add\n      0x04\n      swap1\n      sload\n      swap1\n      0x0100\n      exp\n      swap1\n      div\n      0xffff\n      and\n        /* \"Insurance.sol\":17164:17230  uintToBytes(offset, insuranceData.pcrNumber, _serializedInsurance) */\n      0xffff\n      and\n        /* \"Insurance.sol\":17209:17229  _serializedInsurance */\n      dup9\n        /* \"Insurance.sol\":17164:17175  uintToBytes */\n      tag_124\n        /* \"Insurance.sol\":17164:17230  uintToBytes(offset, insuranceData.pcrNumber, _serializedInsurance) */\n      jump\t// in\n    tag_200:\n        /* \"Insurance.sol\":17250:17252  32 */\n      0x20\n        /* \"Insurance.sol\":17240:17252  offset -= 32 */\n      dup2\n      tag_201\n      swap2\n      swap1\n      tag_122\n      jump\t// in\n    tag_201:\n      swap1\n      pop\n        /* \"Insurance.sol\":17263:17280  bytes32 resultPcr */\n      0x00\n        /* \"Insurance.sol\":17291:17311  bytes32 insuredIdPcr */\n      dup1\n        /* \"Insurance.sol\":17322:17344  uint256 requestDatePcr */\n      0x00\n        /* \"Insurance.sol\":17355:17376  uint256 resultDatePcr */\n      dup1\n        /* \"Insurance.sol\":17386:17399  bytes32 idPcr */\n      0x00\n        /* \"Insurance.sol\":17443:17452  uint256 i */\n      dup1\n        /* \"Insurance.sol\":17455:17456  0 */\n      0x00\n        /* \"Insurance.sol\":17443:17456  uint256 i = 0 */\n      swap1\n      pop\n        /* \"Insurance.sol\":17438:18609  for (uint256 i = 0; i < insuranceData.insuredNumber; i++) {... */\n    tag_202:\n        /* \"Insurance.sol\":17462:17475  insuranceData */\n      0x0a\n        /* \"Insurance.sol\":17462:17489  insuranceData.insuredNumber */\n      0x00\n      add\n      0x06\n      swap1\n      sload\n      swap1\n      0x0100\n      exp\n      swap1\n      div\n      0xffff\n      and\n        /* \"Insurance.sol\":17458:17489  i < insuranceData.insuredNumber */\n      0xffff\n      and\n        /* \"Insurance.sol\":17458:17459  i */\n      dup2\n        /* \"Insurance.sol\":17458:17489  i < insuranceData.insuredNumber */\n      lt\n        /* \"Insurance.sol\":17438:18609  for (uint256 i = 0; i < insuranceData.insuredNumber; i++) {... */\n      iszero\n      tag_203\n      jumpi\n        /* \"Insurance.sol\":17515:17524  uint256 j */\n      0x00\n        /* \"Insurance.sol\":17510:18599  for (uint256 j = 0; j < insuredPCRs[insuranceData.insureds[i]].length; j++) {... */\n    tag_205:\n        /* \"Insurance.sol\":17534:17545  insuredPCRs */\n      0x03\n        /* \"Insurance.sol\":17534:17572  insuredPCRs[insuranceData.insureds[i]] */\n      0x00\n        /* \"Insurance.sol\":17546:17559  insuranceData */\n      0x0a\n        /* \"Insurance.sol\":17546:17568  insuranceData.insureds */\n      0x04\n      add\n        /* \"Insurance.sol\":17569:17570  i */\n      dup5\n        /* \"Insurance.sol\":17546:17571  insuranceData.insureds[i] */\n      dup2\n      sload\n      dup2\n      lt\n      tag_208\n      jumpi\n      mstore(0x00, 0x4e487b7100000000000000000000000000000000000000000000000000000000)\n      mstore(0x04, 0x32)\n      revert(0x00, 0x24)\n    tag_208:\n      swap1\n      0x00\n      mstore\n      keccak256(0x00, 0x20)\n      add\n      sload\n        /* \"Insurance.sol\":17534:17572  insuredPCRs[insuranceData.insureds[i]] */\n      dup2\n      mstore\n      0x20\n      add\n      swap1\n      dup2\n      mstore\n      0x20\n      add\n      0x00\n      keccak256\n        /* \"Insurance.sol\":17534:17579  insuredPCRs[insuranceData.insureds[i]].length */\n      dup1\n      sload\n      swap1\n      pop\n        /* \"Insurance.sol\":17530:17531  j */\n      dup2\n        /* \"Insurance.sol\":17530:17579  j < insuredPCRs[insuranceData.insureds[i]].length */\n      lt\n        /* \"Insurance.sol\":17510:18599  for (uint256 j = 0; j < insuredPCRs[insuranceData.insureds[i]].length; j++) {... */\n      iszero\n      tag_206\n      jumpi\n        /* \"Insurance.sol\":17608:17620  isPcrDeleted */\n      0x05\n        /* \"Insurance.sol\":17608:17663  isPcrDeleted[insuredPCRs[insuranceData.insureds[i]][j]] */\n      0x00\n        /* \"Insurance.sol\":17621:17632  insuredPCRs */\n      0x03\n        /* \"Insurance.sol\":17621:17659  insuredPCRs[insuranceData.insureds[i]] */\n      0x00\n        /* \"Insurance.sol\":17633:17646  insuranceData */\n      0x0a\n        /* \"Insurance.sol\":17633:17655  insuranceData.insureds */\n      0x04\n      add\n        /* \"Insurance.sol\":17656:17657  i */\n      dup7\n        /* \"Insurance.sol\":17633:17658  insuranceData.insureds[i] */\n      dup2\n      sload\n      dup2\n      lt\n      tag_210\n      jumpi\n      mstore(0x00, 0x4e487b7100000000000000000000000000000000000000000000000000000000)\n      mstore(0x04, 0x32)\n      revert(0x00, 0x24)\n    tag_210:\n      swap1\n      0x00\n      mstore\n      keccak256(0x00, 0x20)\n      add\n      sload\n        /* \"Insurance.sol\":17621:17659  insuredPCRs[insuranceData.insureds[i]] */\n      dup2\n      mstore\n      0x20\n      add\n      swap1\n      dup2\n      mstore\n      0x20\n      add\n      0x00\n      keccak256\n        /* \"Insurance.sol\":17660:17661  j */\n      dup4\n        /* \"Insurance.sol\":17621:17662  insuredPCRs[insuranceData.insureds[i]][j] */\n      dup2\n      sload\n      dup2\n      lt\n      tag_212\n      jumpi\n      mstore(0x00, 0x4e487b7100000000000000000000000000000000000000000000000000000000)\n      mstore(0x04, 0x32)\n      revert(0x00, 0x24)\n    tag_212:\n      swap1\n      0x00\n      mstore\n      keccak256(0x00, 0x20)\n      add\n      sload\n        /* \"Insurance.sol\":17608:17663  isPcrDeleted[insuredPCRs[insuranceData.insureds[i]][j]] */\n      dup2\n      mstore\n      0x20\n      add\n      swap1\n      dup2\n      mstore\n      0x20\n      add\n      0x00\n      keccak256\n      0x00\n      swap1\n      sload\n      swap1\n      0x0100\n      exp\n      swap1\n      div\n      0xff\n      and\n        /* \"Insurance.sol\":17604:17714  if (isPcrDeleted[insuredPCRs[insuranceData.insureds[i]][j]]) {... */\n      iszero\n      tag_214\n      jumpi\n        /* \"Insurance.sol\":17687:17695  continue */\n      jump(tag_207)\n        /* \"Insurance.sol\":17604:17714  if (isPcrDeleted[insuredPCRs[insuranceData.insureds[i]][j]]) {... */\n    tag_214:\n        /* \"Insurance.sol\":17797:17846  getPCR(insuredPCRs[insuranceData.insureds[i]][j]) */\n      tag_215\n        /* \"Insurance.sol\":17804:17815  insuredPCRs */\n      0x03\n        /* \"Insurance.sol\":17804:17842  insuredPCRs[insuranceData.insureds[i]] */\n      0x00\n        /* \"Insurance.sol\":17816:17829  insuranceData */\n      0x0a\n        /* \"Insurance.sol\":17816:17838  insuranceData.insureds */\n      0x04\n      add\n        /* \"Insurance.sol\":17839:17840  i */\n      dup6\n        /* \"Insurance.sol\":17816:17841  insuranceData.insureds[i] */\n      dup2\n      sload\n      dup2\n      lt\n      tag_216\n      jumpi\n      mstore(0x00, 0x4e487b7100000000000000000000000000000000000000000000000000000000)\n      mstore(0x04, 0x32)\n      revert(0x00, 0x24)\n    tag_216:\n      swap1\n      0x00\n      mstore\n      keccak256(0x00, 0x20)\n      add\n      sload\n        /* \"Insurance.sol\":17804:17842  insuredPCRs[insuranceData.insureds[i]] */\n      dup2\n      mstore\n      0x20\n      add\n      swap1\n      dup2\n      mstore\n      0x20\n      add\n      0x00\n      keccak256\n        /* \"Insurance.sol\":17843:17844  j */\n      dup3\n        /* \"Insurance.sol\":17804:17845  insuredPCRs[insuranceData.insureds[i]][j] */\n      dup2\n      sload\n      dup2\n      lt\n      tag_218\n      jumpi\n      mstore(0x00, 0x4e487b7100000000000000000000000000000000000000000000000000000000)\n      mstore(0x04, 0x32)\n      revert(0x00, 0x24)\n    tag_218:\n      swap1\n      0x00\n      mstore\n      keccak256(0x00, 0x20)\n      add\n      sload\n        /* \"Insurance.sol\":17797:17803  getPCR */\n      tag_25\n        /* \"Insurance.sol\":17797:17846  getPCR(insuredPCRs[insuranceData.insureds[i]][j]) */\n      jump\t// in\n    tag_215:\n        /* \"Insurance.sol\":17731:17846  (resultPcr, insuredIdPcr, requestDatePcr, resultDatePcr, idPcr) = getPCR(insuredPCRs[insuranceData.insureds[i]][j]) */\n      dup1\n      swap8\n      pop\n      dup2\n      swap9\n      pop\n      dup3\n      swap10\n      pop\n      dup4\n      swap11\n      pop\n      dup5\n      swap12\n      pop\n      pop\n      pop\n      pop\n      pop\n      pop\n        /* \"Insurance.sol\":17900:17951  bytes32ToBytes(offset, idPcr, _serializedInsurance) */\n      tag_220\n        /* \"Insurance.sol\":17915:17921  offset */\n      dup9\n        /* \"Insurance.sol\":17923:17928  idPcr */\n      dup5\n        /* \"Insurance.sol\":17930:17950  _serializedInsurance */\n      dup16\n        /* \"Insurance.sol\":17900:17914  bytes32ToBytes */\n      tag_120\n        /* \"Insurance.sol\":17900:17951  bytes32ToBytes(offset, idPcr, _serializedInsurance) */\n      jump\t// in\n    tag_220:\n        /* \"Insurance.sol\":17979:17981  32 */\n      0x20\n        /* \"Insurance.sol\":17969:17981  offset -= 32 */\n      dup9\n      tag_221\n      swap2\n      swap1\n      tag_122\n      jump\t// in\n    tag_221:\n      swap8\n      pop\n        /* \"Insurance.sol\":18045:18101  uintToBytes(offset, resultDatePcr, _serializedInsurance) */\n      tag_222\n        /* \"Insurance.sol\":18057:18063  offset */\n      dup9\n        /* \"Insurance.sol\":18065:18078  resultDatePcr */\n      dup6\n        /* \"Insurance.sol\":18080:18100  _serializedInsurance */\n      dup16\n        /* \"Insurance.sol\":18045:18056  uintToBytes */\n      tag_124\n        /* \"Insurance.sol\":18045:18101  uintToBytes(offset, resultDatePcr, _serializedInsurance) */\n      jump\t// in\n    tag_222:\n        /* \"Insurance.sol\":18129:18131  32 */\n      0x20\n        /* \"Insurance.sol\":18119:18131  offset -= 32 */\n      dup9\n      tag_223\n      swap2\n      swap1\n      tag_122\n      jump\t// in\n    tag_223:\n      swap8\n      pop\n        /* \"Insurance.sol\":18196:18253  uintToBytes(offset, requestDatePcr, _serializedInsurance) */\n      tag_224\n        /* \"Insurance.sol\":18208:18214  offset */\n      dup9\n        /* \"Insurance.sol\":18216:18230  requestDatePcr */\n      dup7\n        /* \"Insurance.sol\":18232:18252  _serializedInsurance */\n      dup16\n        /* \"Insurance.sol\":18196:18207  uintToBytes */\n      tag_124\n        /* \"Insurance.sol\":18196:18253  uintToBytes(offset, requestDatePcr, _serializedInsurance) */\n      jump\t// in\n    tag_224:\n        /* \"Insurance.sol\":18281:18283  32 */\n      0x20\n        /* \"Insurance.sol\":18271:18283  offset -= 32 */\n      dup9\n      tag_225\n      swap2\n      swap1\n      tag_122\n      jump\t// in\n    tag_225:\n      swap8\n      pop\n        /* \"Insurance.sol\":18349:18407  bytes32ToBytes(offset, insuredIdPcr, _serializedInsurance) */\n      tag_226\n        /* \"Insurance.sol\":18364:18370  offset */\n      dup9\n        /* \"Insurance.sol\":18372:18384  insuredIdPcr */\n      dup8\n        /* \"Insurance.sol\":18386:18406  _serializedInsurance */\n      dup16\n        /* \"Insurance.sol\":18349:18363  bytes32ToBytes */\n      tag_120\n        /* \"Insurance.sol\":18349:18407  bytes32ToBytes(offset, insuredIdPcr, _serializedInsurance) */\n      jump\t// in\n    tag_226:\n        /* \"Insurance.sol\":18435:18437  32 */\n      0x20\n        /* \"Insurance.sol\":18425:18437  offset -= 32 */\n      dup9\n      tag_227\n      swap2\n      swap1\n      tag_122\n      jump\t// in\n    tag_227:\n      swap8\n      pop\n        /* \"Insurance.sol\":18499:18554  bytes32ToBytes(offset, resultPcr, _serializedInsurance) */\n      tag_228\n        /* \"Insurance.sol\":18514:18520  offset */\n      dup9\n        /* \"Insurance.sol\":18522:18531  resultPcr */\n      dup9\n        /* \"Insurance.sol\":18533:18553  _serializedInsurance */\n      dup16\n        /* \"Insurance.sol\":18499:18513  bytes32ToBytes */\n      tag_120\n        /* \"Insurance.sol\":18499:18554  bytes32ToBytes(offset, resultPcr, _serializedInsurance) */\n      jump\t// in\n    tag_228:\n        /* \"Insurance.sol\":18582:18584  32 */\n      0x20\n        /* \"Insurance.sol\":18572:18584  offset -= 32 */\n      dup9\n      tag_229\n      swap2\n      swap1\n      tag_122\n      jump\t// in\n    tag_229:\n      swap8\n      pop\n        /* \"Insurance.sol\":17510:18599  for (uint256 j = 0; j < insuredPCRs[insuranceData.insureds[i]].length; j++) {... */\n    tag_207:\n        /* \"Insurance.sol\":17581:17584  j++ */\n      dup1\n      dup1\n      tag_230\n      swap1\n      tag_199\n      jump\t// in\n    tag_230:\n      swap2\n      pop\n      pop\n        /* \"Insurance.sol\":17510:18599  for (uint256 j = 0; j < insuredPCRs[insuranceData.insureds[i]].length; j++) {... */\n      jump(tag_205)\n    tag_206:\n      pop\n        /* \"Insurance.sol\":17491:17494  i++ */\n      dup1\n      dup1\n      tag_231\n      swap1\n      tag_199\n      jump\t// in\n    tag_231:\n      swap2\n      pop\n      pop\n        /* \"Insurance.sol\":17438:18609  for (uint256 i = 0; i < insuranceData.insuredNumber; i++) {... */\n      jump(tag_202)\n    tag_203:\n      pop\n        /* \"Insurance.sol\":12325:18615  function serializeInsurance() external view returns (bytes memory _serializedInsurance, uint256 _size) {... */\n      pop\n      pop\n      pop\n      pop\n      pop\n      pop\n      pop\n      pop\n      pop\n      swap1\n      swap2\n      jump\t// out\n        /* \"Insurance.sol\":12004:12165  function addSpcAddress(address _spcAddress) external {... */\n    tag_39:\n        /* \"Insurance.sol\":12076:12091  spcAddressAdded */\n      0x01\n      0x14\n      swap1\n      sload\n      swap1\n      0x0100\n      exp\n      swap1\n      div\n      0xff\n      and\n        /* \"Insurance.sol\":12075:12091  !spcAddressAdded */\n      iszero\n        /* \"Insurance.sol\":12067:12092  require(!spcAddressAdded) */\n      tag_233\n      jumpi\n      0x00\n      dup1\n      revert\n    tag_233:\n        /* \"Insurance.sol\":12120:12124  true */\n      0x01\n        /* \"Insurance.sol\":12102:12117  spcAddressAdded */\n      dup1\n      0x14\n        /* \"Insurance.sol\":12102:12124  spcAddressAdded = true */\n      0x0100\n      exp\n      dup2\n      sload\n      dup2\n      0xff\n      mul\n      not\n      and\n      swap1\n      dup4\n      iszero\n      iszero\n      mul\n      or\n      swap1\n      sstore\n      pop\n        /* \"Insurance.sol\":12147:12158  _spcAddress */\n      dup1\n        /* \"Insurance.sol\":12134:12144  spcAddress */\n      0x01\n      0x00\n        /* \"Insurance.sol\":12134:12158  spcAddress = _spcAddress */\n      0x0100\n      exp\n      dup2\n      sload\n      dup2\n      0xffffffffffffffffffffffffffffffffffffffff\n      mul\n      not\n      and\n      swap1\n      dup4\n      0xffffffffffffffffffffffffffffffffffffffff\n      and\n      mul\n      or\n      swap1\n      sstore\n      pop\n        /* \"Insurance.sol\":12004:12165  function addSpcAddress(address _spcAddress) external {... */\n      pop\n      jump\t// out\n        /* \"Insurance.sol\":7685:8350  function addPCRtoInsured(... */\n    tag_43:\n        /* \"Insurance.sol\":7827:7845  insuredInInsurance */\n      0x04\n        /* \"Insurance.sol\":7827:7857  insuredInInsurance[_insuredId] */\n      0x00\n        /* \"Insurance.sol\":7846:7856  _insuredId */\n      dup5\n        /* \"Insurance.sol\":7827:7857  insuredInInsurance[_insuredId] */\n      dup2\n      mstore\n      0x20\n      add\n      swap1\n      dup2\n      mstore\n      0x20\n      add\n      0x00\n      keccak256\n      0x00\n      swap1\n      sload\n      swap1\n      0x0100\n      exp\n      swap1\n      div\n      0xff\n      and\n        /* \"Insurance.sol\":7819:7905  require(insuredInInsurance[_insuredId], \"The id of the insured is not in the policy.\") */\n      tag_235\n      jumpi\n      mload(0x40)\n      0x08c379a000000000000000000000000000000000000000000000000000000000\n      dup2\n      mstore\n      0x04\n      add\n      tag_236\n      swap1\n      tag_237\n      jump\t// in\n    tag_236:\n      mload(0x40)\n      dup1\n      swap2\n      sub\n      swap1\n      revert\n    tag_235:\n        /* \"Insurance.sol\":7915:7926  insuredPCRs */\n      0x03\n        /* \"Insurance.sol\":7915:7938  insuredPCRs[_insuredId] */\n      0x00\n        /* \"Insurance.sol\":7927:7937  _insuredId */\n      dup5\n        /* \"Insurance.sol\":7915:7938  insuredPCRs[_insuredId] */\n      dup2\n      mstore\n      0x20\n      add\n      swap1\n      dup2\n      mstore\n      0x20\n      add\n      0x00\n      keccak256\n        /* \"Insurance.sol\":7944:7950  _idPcr */\n      dup3\n        /* \"Insurance.sol\":7915:7951  insuredPCRs[_insuredId].push(_idPcr) */\n      swap1\n      dup1\n      0x01\n      dup2\n      sload\n      add\n      dup1\n      dup3\n      sstore\n      dup1\n      swap2\n      pop\n      pop\n      0x01\n      swap1\n      sub\n      swap1\n      0x00\n      mstore\n      keccak256(0x00, 0x20)\n      add\n      0x00\n      swap1\n      swap2\n      swap1\n      swap2\n      swap1\n      swap2\n      pop\n      sstore\n        /* \"Insurance.sol\":7983:7994  insuredPCRs */\n      0x03\n        /* \"Insurance.sol\":7983:8006  insuredPCRs[_insuredId] */\n      0x00\n        /* \"Insurance.sol\":7995:8005  _insuredId */\n      dup5\n        /* \"Insurance.sol\":7983:8006  insuredPCRs[_insuredId] */\n      dup2\n      mstore\n      0x20\n      add\n      swap1\n      dup2\n      mstore\n      0x20\n      add\n      0x00\n      keccak256\n        /* \"Insurance.sol\":7983:8013  insuredPCRs[_insuredId].length */\n      dup1\n      sload\n      swap1\n      pop\n        /* \"Insurance.sol\":7961:7972  pcrLocation */\n      0x02\n        /* \"Insurance.sol\":7961:7980  pcrLocation[_idPcr] */\n      0x00\n        /* \"Insurance.sol\":7973:7979  _idPcr */\n      dup5\n        /* \"Insurance.sol\":7961:7980  pcrLocation[_idPcr] */\n      dup2\n      mstore\n      0x20\n      add\n      swap1\n      dup2\n      mstore\n      0x20\n      add\n      0x00\n      keccak256\n        /* \"Insurance.sol\":7961:8013  pcrLocation[_idPcr] = insuredPCRs[_insuredId].length */\n      dup2\n      swap1\n      sstore\n      pop\n        /* \"Insurance.sol\":8050:8060  _insuredId */\n      dup3\n        /* \"Insurance.sol\":8023:8039  pcrIdToInsuredId */\n      0x06\n        /* \"Insurance.sol\":8023:8047  pcrIdToInsuredId[_idPcr] */\n      0x00\n        /* \"Insurance.sol\":8040:8046  _idPcr */\n      dup5\n        /* \"Insurance.sol\":8023:8047  pcrIdToInsuredId[_idPcr] */\n      dup2\n      mstore\n      0x20\n      add\n      swap1\n      dup2\n      mstore\n      0x20\n      add\n      0x00\n      keccak256\n        /* \"Insurance.sol\":8023:8060  pcrIdToInsuredId[_idPcr] = _insuredId */\n      dup2\n      swap1\n      sstore\n      pop\n        /* \"Insurance.sol\":8092:8270  PcrData({... */\n      mload(0x40)\n      dup1\n      0xa0\n      add\n      0x40\n      mstore\n      dup1\n      0x554e444546494e45440000000000000000000000000000000000000000000000\n      dup2\n      mstore\n      0x20\n      add\n        /* \"Insurance.sol\":8151:8157  _idPcr */\n      dup4\n        /* \"Insurance.sol\":8092:8270  PcrData({... */\n      dup2\n      mstore\n      0x20\n      add\n        /* \"Insurance.sol\":8183:8193  _insuredId */\n      dup5\n        /* \"Insurance.sol\":8092:8270  PcrData({... */\n      dup2\n      mstore\n      0x20\n      add\n        /* \"Insurance.sol\":8220:8232  _requestDate */\n      dup3\n        /* \"Insurance.sol\":8092:8270  PcrData({... */\n      dup2\n      mstore\n      0x20\n      add\n        /* \"Insurance.sol\":8258:8259  0 */\n      0x00\n        /* \"Insurance.sol\":8092:8270  PcrData({... */\n      dup2\n      mstore\n      pop\n        /* \"Insurance.sol\":8070:8081  pcrIdToData */\n      0x09\n        /* \"Insurance.sol\":8070:8089  pcrIdToData[_idPcr] */\n      0x00\n        /* \"Insurance.sol\":8082:8088  _idPcr */\n      dup5\n        /* \"Insurance.sol\":8070:8089  pcrIdToData[_idPcr] */\n      dup2\n      mstore\n      0x20\n      add\n      swap1\n      dup2\n      mstore\n      0x20\n      add\n      0x00\n      keccak256\n        /* \"Insurance.sol\":8070:8270  pcrIdToData[_idPcr] = PcrData({... */\n      0x00\n      dup3\n      add\n      mload\n      dup2\n      0x00\n      add\n      sstore\n      0x20\n      dup3\n      add\n      mload\n      dup2\n      0x01\n      add\n      sstore\n      0x40\n      dup3\n      add\n      mload\n      dup2\n      0x02\n      add\n      sstore\n      0x60\n      dup3\n      add\n      mload\n      dup2\n      0x03\n      add\n      sstore\n      0x80\n      dup3\n      add\n      mload\n      dup2\n      0x04\n      add\n      sstore\n      swap1\n      pop\n      pop\n        /* \"Insurance.sol\":8303:8308  false */\n      0x00\n        /* \"Insurance.sol\":8280:8292  isPcrDeleted */\n      0x05\n        /* \"Insurance.sol\":8280:8300  isPcrDeleted[_idPcr] */\n      0x00\n        /* \"Insurance.sol\":8293:8299  _idPcr */\n      dup5\n        /* \"Insurance.sol\":8280:8300  isPcrDeleted[_idPcr] */\n      dup2\n      mstore\n      0x20\n      add\n      swap1\n      dup2\n      mstore\n      0x20\n      add\n      0x00\n      keccak256\n      0x00\n        /* \"Insurance.sol\":8280:8308  isPcrDeleted[_idPcr] = false */\n      0x0100\n      exp\n      dup2\n      sload\n      dup2\n      0xff\n      mul\n      not\n      and\n      swap1\n      dup4\n      iszero\n      iszero\n      mul\n      or\n      swap1\n      sstore\n      pop\n        /* \"Insurance.sol\":8318:8331  insuranceData */\n      0x0a\n        /* \"Insurance.sol\":8318:8341  insuranceData.pcrNumber */\n      0x00\n      add\n      0x04\n        /* \"Insurance.sol\":8318:8343  insuranceData.pcrNumber++ */\n      dup2\n      dup2\n      swap1\n      sload\n      swap1\n      0x0100\n      exp\n      swap1\n      div\n      0xffff\n      and\n      dup1\n      swap3\n      swap2\n      swap1\n      tag_239\n      swap1\n      tag_240\n      jump\t// in\n    tag_239:\n      swap2\n      swap1\n      0x0100\n      exp\n      dup2\n      sload\n      dup2\n      0xffff\n      mul\n      not\n      and\n      swap1\n      dup4\n      0xffff\n      and\n      mul\n      or\n      swap1\n      sstore\n      pop\n      pop\n        /* \"Insurance.sol\":7685:8350  function addPCRtoInsured(... */\n      pop\n      pop\n      pop\n      jump\t// out\n        /* \"Insurance.sol\":7286:7598  function compensation() public {... */\n    tag_45:\n        /* \"Insurance.sol\":7327:7341  uint256 result */\n      0x00\n        /* \"Insurance.sol\":7344:7367  calculateCompensation() */\n      tag_242\n        /* \"Insurance.sol\":7344:7365  calculateCompensation */\n      tag_19\n        /* \"Insurance.sol\":7344:7367  calculateCompensation() */\n      jump\t// in\n    tag_242:\n        /* \"Insurance.sol\":7327:7367  uint256 result = calculateCompensation() */\n      swap1\n      pop\n        /* \"Insurance.sol\":7381:7396  positivePcrTest */\n      0x1a\n      0x00\n      swap1\n      sload\n      swap1\n      0x0100\n      exp\n      swap1\n      div\n      0xff\n      and\n        /* \"Insurance.sol\":7381:7415  positivePcrTest && !paymentEmitted */\n      dup1\n      iszero\n      tag_243\n      jumpi\n      pop\n        /* \"Insurance.sol\":7401:7415  paymentEmitted */\n      0x1a\n      0x01\n      swap1\n      sload\n      swap1\n      0x0100\n      exp\n      swap1\n      div\n      0xff\n      and\n        /* \"Insurance.sol\":7400:7415  !paymentEmitted */\n      iszero\n        /* \"Insurance.sol\":7381:7415  positivePcrTest && !paymentEmitted */\n    tag_243:\n        /* \"Insurance.sol\":7377:7592  if (positivePcrTest && !paymentEmitted) {... */\n      iszero\n      tag_244\n      jumpi\n        /* \"Insurance.sol\":7436:7496  checkPayment(result, takerData.takerId, takerData.takerIban) */\n      0xcbeb43f3566812eb9b63828e127ce48efbf4126607fc80974ba3d72dd41d094a\n        /* \"Insurance.sol\":7449:7455  result */\n      dup2\n        /* \"Insurance.sol\":7457:7466  takerData */\n      0x0f\n        /* \"Insurance.sol\":7457:7474  takerData.takerId */\n      0x03\n      add\n      sload\n        /* \"Insurance.sol\":7476:7485  takerData */\n      0x0f\n        /* \"Insurance.sol\":7476:7495  takerData.takerIban */\n      0x0a\n      add\n      sload\n        /* \"Insurance.sol\":7436:7496  checkPayment(result, takerData.takerId, takerData.takerIban) */\n      mload(0x40)\n      tag_245\n      swap4\n      swap3\n      swap2\n      swap1\n      tag_246\n      jump\t// in\n    tag_245:\n      mload(0x40)\n      dup1\n      swap2\n      sub\n      swap1\n      log1\n        /* \"Insurance.sol\":7527:7531  true */\n      0x01\n        /* \"Insurance.sol\":7510:7524  paymentEmitted */\n      0x1a\n      0x01\n        /* \"Insurance.sol\":7510:7531  paymentEmitted = true */\n      0x0100\n      exp\n      dup2\n      sload\n      dup2\n      0xff\n      mul\n      not\n      and\n      swap1\n      dup4\n      iszero\n      iszero\n      mul\n      or\n      swap1\n      sstore\n      pop\n        /* \"Insurance.sol\":7566:7581  block.timestamp */\n      timestamp\n        /* \"Insurance.sol\":7545:7563  timePaymentEmitted */\n      0x1b\n        /* \"Insurance.sol\":7545:7581  timePaymentEmitted = block.timestamp */\n      dup2\n      swap1\n      sstore\n      pop\n        /* \"Insurance.sol\":7377:7592  if (positivePcrTest && !paymentEmitted) {... */\n    tag_244:\n        /* \"Insurance.sol\":7286:7598  function compensation() public {... */\n      pop\n      jump\t// out\n        /* \"Insurance.sol\":18835:18935  function getId() external view returns(bytes32 insuranceId) {... */\n    tag_47:\n        /* \"Insurance.sol\":18874:18893  bytes32 insuranceId */\n      0x00\n        /* \"Insurance.sol\":18912:18925  insuranceData */\n      0x0a\n        /* \"Insurance.sol\":18912:18928  insuranceData.id */\n      0x01\n      add\n      sload\n        /* \"Insurance.sol\":18905:18928  return insuranceData.id */\n      swap1\n      pop\n        /* \"Insurance.sol\":18835:18935  function getId() external view returns(bytes32 insuranceId) {... */\n      swap1\n      jump\t// out\n        /* \"Insurance.sol\":9355:9706  function deletePCR(bytes32 _idPCR) public {... */\n    tag_52:\n        /* \"Insurance.sol\":9531:9535  true */\n      0x01\n        /* \"Insurance.sol\":9508:9520  isPcrDeleted */\n      0x05\n        /* \"Insurance.sol\":9508:9528  isPcrDeleted[_idPCR] */\n      0x00\n        /* \"Insurance.sol\":9521:9527  _idPCR */\n      dup4\n        /* \"Insurance.sol\":9508:9528  isPcrDeleted[_idPCR] */\n      dup2\n      mstore\n      0x20\n      add\n      swap1\n      dup2\n      mstore\n      0x20\n      add\n      0x00\n      keccak256\n      0x00\n        /* \"Insurance.sol\":9508:9535  isPcrDeleted[_idPCR] = true */\n      0x0100\n      exp\n      dup2\n      sload\n      dup2\n      0xff\n      mul\n      not\n      and\n      swap1\n      dup4\n      iszero\n      iszero\n      mul\n      or\n      swap1\n      sstore\n      pop\n        /* \"Insurance.sol\":9552:9563  pcrIdToData */\n      0x09\n        /* \"Insurance.sol\":9552:9571  pcrIdToData[_idPCR] */\n      0x00\n        /* \"Insurance.sol\":9564:9570  _idPCR */\n      dup3\n        /* \"Insurance.sol\":9552:9571  pcrIdToData[_idPCR] */\n      dup2\n      mstore\n      0x20\n      add\n      swap1\n      dup2\n      mstore\n      0x20\n      add\n      0x00\n      keccak256\n      0x00\n        /* \"Insurance.sol\":9545:9571  delete pcrIdToData[_idPCR] */\n      dup1\n      dup3\n      add\n      0x00\n      swap1\n      sstore\n      0x01\n      dup3\n      add\n      0x00\n      swap1\n      sstore\n      0x02\n      dup3\n      add\n      0x00\n      swap1\n      sstore\n      0x03\n      dup3\n      add\n      0x00\n      swap1\n      sstore\n      0x04\n      dup3\n      add\n      0x00\n      swap1\n      sstore\n      pop\n      pop\n        /* \"Insurance.sol\":9588:9599  pcrLocation */\n      0x02\n        /* \"Insurance.sol\":9588:9607  pcrLocation[_idPCR] */\n      0x00\n        /* \"Insurance.sol\":9600:9606  _idPCR */\n      dup3\n        /* \"Insurance.sol\":9588:9607  pcrLocation[_idPCR] */\n      dup2\n      mstore\n      0x20\n      add\n      swap1\n      dup2\n      mstore\n      0x20\n      add\n      0x00\n      keccak256\n        /* \"Insurance.sol\":9581:9607  delete pcrLocation[_idPCR] */\n      0x00\n      swap1\n      sstore\n        /* \"Insurance.sol\":9624:9640  pcrIdToInsuredId */\n      0x06\n        /* \"Insurance.sol\":9624:9648  pcrIdToInsuredId[_idPCR] */\n      0x00\n        /* \"Insurance.sol\":9641:9647  _idPCR */\n      dup3\n        /* \"Insurance.sol\":9624:9648  pcrIdToInsuredId[_idPCR] */\n      dup2\n      mstore\n      0x20\n      add\n      swap1\n      dup2\n      mstore\n      0x20\n      add\n      0x00\n      keccak256\n        /* \"Insurance.sol\":9617:9648  delete pcrIdToInsuredId[_idPCR] */\n      0x00\n      swap1\n      sstore\n        /* \"Insurance.sol\":9658:9671  insuranceData */\n      0x0a\n        /* \"Insurance.sol\":9658:9681  insuranceData.pcrNumber */\n      0x00\n      add\n      0x04\n        /* \"Insurance.sol\":9658:9683  insuranceData.pcrNumber-- */\n      dup2\n      dup2\n      swap1\n      sload\n      swap1\n      0x0100\n      exp\n      swap1\n      div\n      0xffff\n      and\n      dup1\n      swap3\n      swap2\n      swap1\n      tag_249\n      swap1\n      tag_250\n      jump\t// in\n    tag_249:\n      swap2\n      swap1\n      0x0100\n      exp\n      dup2\n      sload\n      dup2\n      0xffff\n      mul\n      not\n      and\n      swap1\n      dup4\n      0xffff\n      and\n      mul\n      or\n      swap1\n      sstore\n      pop\n      pop\n        /* \"Insurance.sol\":9355:9706  function deletePCR(bytes32 _idPCR) public {... */\n      pop\n      jump\t// out\n        /* \"Insurance.sol\":11241:11831  function getInsuranceData() external view returns(... */\n    tag_54:\n        /* \"Insurance.sol\":11300:11316  bytes32 idPolicy */\n      0x00\n        /* \"Insurance.sol\":11327:11357  uint16 dailyCompensationPolicy */\n      dup1\n        /* \"Insurance.sol\":11368:11397  uint16 daysToCompensatePolicy */\n      0x00\n        /* \"Insurance.sol\":11408:11434  uint16 insuredNumberPolicy */\n      dup1\n        /* \"Insurance.sol\":11445:11468  uint256 startDatePolicy */\n      0x00\n        /* \"Insurance.sol\":11479:11503  uint256 finishDatePolicy */\n      dup1\n        /* \"Insurance.sol\":11513:11538  bytes32[] memory insureds */\n      0x60\n        /* \"Insurance.sol\":11572:11585  insuranceData */\n      0x0a\n        /* \"Insurance.sol\":11572:11588  insuranceData.id */\n      0x01\n      add\n      sload\n        /* \"Insurance.sol\":11598:11611  insuranceData */\n      0x0a\n        /* \"Insurance.sol\":11598:11629  insuranceData.dailyCompensation */\n      0x00\n      add\n      0x00\n      swap1\n      sload\n      swap1\n      0x0100\n      exp\n      swap1\n      div\n      0xffff\n      and\n        /* \"Insurance.sol\":11639:11652  insuranceData */\n      0x0a\n        /* \"Insurance.sol\":11639:11669  insuranceData.daysToCompensate */\n      0x00\n      add\n      0x02\n      swap1\n      sload\n      swap1\n      0x0100\n      exp\n      swap1\n      div\n      0xffff\n      and\n        /* \"Insurance.sol\":11679:11692  insuranceData */\n      0x0a\n        /* \"Insurance.sol\":11679:11706  insuranceData.insuredNumber */\n      0x00\n      add\n      0x06\n      swap1\n      sload\n      swap1\n      0x0100\n      exp\n      swap1\n      div\n      0xffff\n      and\n        /* \"Insurance.sol\":11716:11729  insuranceData */\n      0x0a\n        /* \"Insurance.sol\":11716:11748  insuranceData.insuranceStartDate */\n      0x02\n      add\n      sload\n        /* \"Insurance.sol\":11758:11771  insuranceData */\n      0x0a\n        /* \"Insurance.sol\":11758:11791  insuranceData.insuranceFinishDate */\n      0x03\n      add\n      sload\n        /* \"Insurance.sol\":11801:11814  insuranceData */\n      0x0a\n        /* \"Insurance.sol\":11801:11823  insuranceData.insureds */\n      0x04\n      add\n        /* \"Insurance.sol\":11555:11824  return (... */\n      dup1\n      dup1\n      sload\n      dup1\n      0x20\n      mul\n      0x20\n      add\n      mload(0x40)\n      swap1\n      dup2\n      add\n      0x40\n      mstore\n      dup1\n      swap3\n      swap2\n      swap1\n      dup2\n      dup2\n      mstore\n      0x20\n      add\n      dup3\n      dup1\n      sload\n      dup1\n      iszero\n      tag_252\n      jumpi\n      0x20\n      mul\n      dup3\n      add\n      swap2\n      swap1\n      0x00\n      mstore\n      keccak256(0x00, 0x20)\n      swap1\n    tag_253:\n      dup2\n      sload\n      dup2\n      mstore\n      0x20\n      add\n      swap1\n      0x01\n      add\n      swap1\n      dup1\n      dup4\n      gt\n      tag_253\n      jumpi\n    tag_252:\n      pop\n      pop\n      pop\n      pop\n      pop\n      swap1\n      pop\n      swap7\n      pop\n      swap7\n      pop\n      swap7\n      pop\n      swap7\n      pop\n      swap7\n      pop\n      swap7\n      pop\n      swap7\n      pop\n        /* \"Insurance.sol\":11241:11831  function getInsuranceData() external view returns(... */\n      swap1\n      swap2\n      swap3\n      swap4\n      swap5\n      swap6\n      swap7\n      jump\t// out\n        /* \"Insurance.sol\":19041:19152  function destructContract() external {... */\n    tag_58:\n        /* \"Insurance.sol\":19110:19115  owner */\n      0x00\n      dup1\n      sload\n      swap1\n      0x0100\n      exp\n      swap1\n      div\n      0xffffffffffffffffffffffffffffffffffffffff\n      and\n        /* \"Insurance.sol\":19096:19115  msg.sender == owner */\n      0xffffffffffffffffffffffffffffffffffffffff\n      and\n        /* \"Insurance.sol\":19096:19106  msg.sender */\n      caller\n        /* \"Insurance.sol\":19096:19115  msg.sender == owner */\n      0xffffffffffffffffffffffffffffffffffffffff\n      and\n      eq\n        /* \"Insurance.sol\":19088:19116  require(msg.sender == owner) */\n      tag_255\n      jumpi\n      0x00\n      dup1\n      revert\n    tag_255:\n        /* \"Insurance.sol\":19139:19144  owner */\n      0x00\n      dup1\n      sload\n      swap1\n      0x0100\n      exp\n      swap1\n      div\n      0xffffffffffffffffffffffffffffffffffffffff\n      and\n        /* \"Insurance.sol\":19126:19145  selfdestruct(owner) */\n      0xffffffffffffffffffffffffffffffffffffffff\n      and\n      selfdestruct\n        /* \"Insurance.sol\":10366:11172  function getTakerData() external view returns(... */\n    tag_60:\n        /* \"Insurance.sol\":10421:10436  bytes32 takerId */\n      0x00\n        /* \"Insurance.sol\":10447:10463  bytes32 takerNif */\n      dup1\n        /* \"Insurance.sol\":10474:10501  string memory takerFullName */\n      0x60\n        /* \"Insurance.sol\":10511:10544  string memory takerContactAddress */\n      dup1\n        /* \"Insurance.sol\":10555:10585  bytes32 takerContactPostalCode */\n      0x00\n        /* \"Insurance.sol\":10595:10619  bytes32 takerContactTown */\n      dup1\n        /* \"Insurance.sol\":10630:10658  bytes32 takerContactLocation */\n      0x00\n        /* \"Insurance.sol\":10668:10697  bytes32 takerContactTelephone */\n      dup1\n        /* \"Insurance.sol\":10708:10734  bytes32 takerContactMobile */\n      0x00\n        /* \"Insurance.sol\":10744:10775  string memory takerContactEmail */\n      0x60\n        /* \"Insurance.sol\":10786:10803  bytes32 takerIBAN */\n      0x00\n        /* \"Insurance.sol\":10837:10846  takerData */\n      0x0f\n        /* \"Insurance.sol\":10837:10854  takerData.takerId */\n      0x03\n      add\n      sload\n        /* \"Insurance.sol\":10864:10873  takerData */\n      0x0f\n        /* \"Insurance.sol\":10864:10882  takerData.takerNif */\n      0x04\n      add\n      sload\n        /* \"Insurance.sol\":10892:10901  takerData */\n      0x0f\n        /* \"Insurance.sol\":10892:10911  takerData.takerName */\n      0x00\n      add\n        /* \"Insurance.sol\":10921:10930  takerData */\n      0x0f\n        /* \"Insurance.sol\":10921:10943  takerData.takerAddress */\n      0x01\n      add\n        /* \"Insurance.sol\":10953:10962  takerData */\n      0x0f\n        /* \"Insurance.sol\":10953:10978  takerData.takerPostalCode */\n      0x05\n      add\n      sload\n        /* \"Insurance.sol\":10988:10997  takerData */\n      0x0f\n        /* \"Insurance.sol\":10988:11007  takerData.takerTown */\n      0x06\n      add\n      sload\n        /* \"Insurance.sol\":11017:11026  takerData */\n      0x0f\n        /* \"Insurance.sol\":11017:11040  takerData.takerLocation */\n      0x07\n      add\n      sload\n        /* \"Insurance.sol\":11050:11059  takerData */\n      0x0f\n        /* \"Insurance.sol\":11050:11074  takerData.takerTelephone */\n      0x08\n      add\n      sload\n        /* \"Insurance.sol\":11084:11093  takerData */\n      0x0f\n        /* \"Insurance.sol\":11084:11105  takerData.takerMobile */\n      0x09\n      add\n      sload\n        /* \"Insurance.sol\":11115:11124  takerData */\n      0x0f\n        /* \"Insurance.sol\":11115:11135  takerData.takerEmail */\n      0x02\n      add\n        /* \"Insurance.sol\":11145:11154  takerData */\n      0x0f\n        /* \"Insurance.sol\":11145:11164  takerData.takerIban */\n      0x0a\n      add\n      sload\n        /* \"Insurance.sol\":10820:11165  return (... */\n      dup9\n      dup1\n      sload\n      tag_257\n      swap1\n      tag_84\n      jump\t// in\n    tag_257:\n      dup1\n      0x1f\n      add\n      0x20\n      dup1\n      swap2\n      div\n      mul\n      0x20\n      add\n      mload(0x40)\n      swap1\n      dup2\n      add\n      0x40\n      mstore\n      dup1\n      swap3\n      swap2\n      swap1\n      dup2\n      dup2\n      mstore\n      0x20\n      add\n      dup3\n      dup1\n      sload\n      tag_258\n      swap1\n      tag_84\n      jump\t// in\n    tag_258:\n      dup1\n      iszero\n      tag_259\n      jumpi\n      dup1\n      0x1f\n      lt\n      tag_260\n      jumpi\n      0x0100\n      dup1\n      dup4\n      sload\n      div\n      mul\n      dup4\n      mstore\n      swap2\n      0x20\n      add\n      swap2\n      jump(tag_259)\n    tag_260:\n      dup3\n      add\n      swap2\n      swap1\n      0x00\n      mstore\n      keccak256(0x00, 0x20)\n      swap1\n    tag_261:\n      dup2\n      sload\n      dup2\n      mstore\n      swap1\n      0x01\n      add\n      swap1\n      0x20\n      add\n      dup1\n      dup4\n      gt\n      tag_261\n      jumpi\n      dup3\n      swap1\n      sub\n      0x1f\n      and\n      dup3\n      add\n      swap2\n    tag_259:\n      pop\n      pop\n      pop\n      pop\n      pop\n      swap9\n      pop\n      dup8\n      dup1\n      sload\n      tag_262\n      swap1\n      tag_84\n      jump\t// in\n    tag_262:\n      dup1\n      0x1f\n      add\n      0x20\n      dup1\n      swap2\n      div\n      mul\n      0x20\n      add\n      mload(0x40)\n      swap1\n      dup2\n      add\n      0x40\n      mstore\n      dup1\n      swap3\n      swap2\n      swap1\n      dup2\n      dup2\n      mstore\n      0x20\n      add\n      dup3\n      dup1\n      sload\n      tag_263\n      swap1\n      tag_84\n      jump\t// in\n    tag_263:\n      dup1\n      iszero\n      tag_264\n      jumpi\n      dup1\n      0x1f\n      lt\n      tag_265\n      jumpi\n      0x0100\n      dup1\n      dup4\n      sload\n      div\n      mul\n      dup4\n      mstore\n      swap2\n      0x20\n      add\n      swap2\n      jump(tag_264)\n    tag_265:\n      dup3\n      add\n      swap2\n      swap1\n      0x00\n      mstore\n      keccak256(0x00, 0x20)\n      swap1\n    tag_266:\n      dup2\n      sload\n      dup2\n      mstore\n      swap1\n      0x01\n      add\n      swap1\n      0x20\n      add\n      dup1\n      dup4\n      gt\n      tag_266\n      jumpi\n      dup3\n      swap1\n      sub\n      0x1f\n      and\n      dup3\n      add\n      swap2\n    tag_264:\n      pop\n      pop\n      pop\n      pop\n      pop\n      swap8\n      pop\n      dup2\n      dup1\n      sload\n      tag_267\n      swap1\n      tag_84\n      jump\t// in\n    tag_267:\n      dup1\n      0x1f\n      add\n      0x20\n      dup1\n      swap2\n      div\n      mul\n      0x20\n      add\n      mload(0x40)\n      swap1\n      dup2\n      add\n      0x40\n      mstore\n      dup1\n      swap3\n      swap2\n      swap1\n      dup2\n      dup2\n      mstore\n      0x20\n      add\n      dup3\n      dup1\n      sload\n      tag_268\n      swap1\n      tag_84\n      jump\t// in\n    tag_268:\n      dup1\n      iszero\n      tag_269\n      jumpi\n      dup1\n      0x1f\n      lt\n      tag_270\n      jumpi\n      0x0100\n      dup1\n      dup4\n      sload\n      div\n      mul\n      dup4\n      mstore\n      swap2\n      0x20\n      add\n      swap2\n      jump(tag_269)\n    tag_270:\n      dup3\n      add\n      swap2\n      swap1\n      0x00\n      mstore\n      keccak256(0x00, 0x20)\n      swap1\n    tag_271:\n      dup2\n      sload\n      dup2\n      mstore\n      swap1\n      0x01\n      add\n      swap1\n      0x20\n      add\n      dup1\n      dup4\n      gt\n      tag_271\n      jumpi\n      dup3\n      swap1\n      sub\n      0x1f\n      and\n      dup3\n      add\n      swap2\n    tag_269:\n      pop\n      pop\n      pop\n      pop\n      pop\n      swap2\n      pop\n      swap11\n      pop\n      swap11\n      pop\n      swap11\n      pop\n      swap11\n      pop\n      swap11\n      pop\n      swap11\n      pop\n      swap11\n      pop\n      swap11\n      pop\n      swap11\n      pop\n      swap11\n      pop\n      swap11\n      pop\n        /* \"Insurance.sol\":10366:11172  function getTakerData() external view returns(... */\n      swap1\n      swap2\n      swap3\n      swap4\n      swap5\n      swap6\n      swap7\n      swap8\n      swap9\n      swap10\n      swap11\n      jump\t// out\n        /* \"Insurance.sol\":18672:18774  function getTakerId() external view returns(bytes32 takerId) {... */\n    tag_64:\n        /* \"Insurance.sol\":18716:18731  bytes32 takerId */\n      0x00\n        /* \"Insurance.sol\":18750:18759  takerData */\n      0x0f\n        /* \"Insurance.sol\":18750:18767  takerData.takerId */\n      0x03\n      add\n      sload\n        /* \"Insurance.sol\":18743:18767  return takerData.takerId */\n      swap1\n      pop\n        /* \"Insurance.sol\":18672:18774  function getTakerId() external view returns(bytes32 takerId) {... */\n      swap1\n      jump\t// out\n        /* \"Insurance.sol\":544:824  function sizeOfString(string memory _in) internal pure  returns(uint _size){... */\n    tag_89:\n        /* \"Insurance.sol\":608:618  uint _size */\n      0x00\n        /* \"Insurance.sol\":657:659  32 */\n      0x20\n        /* \"Insurance.sol\":643:646  _in */\n      dup3\n        /* \"Insurance.sol\":637:654  bytes(_in).length */\n      mload\n        /* \"Insurance.sol\":637:659  bytes(_in).length / 32 */\n      tag_274\n      swap2\n      swap1\n      tag_275\n      jump\t// in\n    tag_274:\n        /* \"Insurance.sol\":629:659  _size = bytes(_in).length / 32 */\n      swap1\n      pop\n        /* \"Insurance.sol\":699:700  0 */\n      0x00\n        /* \"Insurance.sol\":693:695  32 */\n      0x20\n        /* \"Insurance.sol\":679:682  _in */\n      dup4\n        /* \"Insurance.sol\":673:690  bytes(_in).length */\n      mload\n        /* \"Insurance.sol\":673:695  bytes(_in).length % 32 */\n      tag_276\n      swap2\n      swap1\n      tag_277\n      jump\t// in\n    tag_276:\n        /* \"Insurance.sol\":673:700  bytes(_in).length % 32 != 0 */\n      eq\n        /* \"Insurance.sol\":669:721  if (bytes(_in).length % 32 != 0)... */\n      tag_278\n      jumpi\n        /* \"Insurance.sol\":714:721  _size++ */\n      dup1\n      dup1\n      tag_279\n      swap1\n      tag_199\n      jump\t// in\n    tag_279:\n      swap2\n      pop\n      pop\n        /* \"Insurance.sol\":669:721  if (bytes(_in).length % 32 != 0)... */\n    tag_278:\n        /* \"Insurance.sol\":732:739  _size++ */\n      dup1\n      dup1\n      tag_280\n      swap1\n      tag_199\n      jump\t// in\n    tag_280:\n      swap2\n      pop\n      pop\n        /* \"Insurance.sol\":815:817  32 */\n      0x20\n        /* \"Insurance.sol\":806:817  _size *= 32 */\n      dup2\n      tag_281\n      swap2\n      swap1\n      tag_282\n      jump\t// in\n    tag_281:\n      swap1\n      pop\n        /* \"Insurance.sol\":544:824  function sizeOfString(string memory _in) internal pure  returns(uint _size){... */\n      swap2\n      swap1\n      pop\n      jump\t// out\n        /* \"Insurance.sol\":1672:1986  function bytes32ToBytes(uint _offst, bytes32 _input, bytes memory _output) internal pure {... */\n    tag_120:\n        /* \"Insurance.sol\":1772:1795  bytes memory inputBytes */\n      0x00\n        /* \"Insurance.sol\":1815:1821  _input */\n      dup3\n        /* \"Insurance.sol\":1798:1822  abi.encodePacked(_input) */\n      add(0x20, mload(0x40))\n      tag_284\n      swap2\n      swap1\n      tag_285\n      jump\t// in\n    tag_284:\n      mload(0x40)\n      0x20\n      dup2\n      dup4\n      sub\n      sub\n      dup2\n      mstore\n      swap1\n      0x40\n      mstore\n        /* \"Insurance.sol\":1772:1822  bytes memory inputBytes = abi.encodePacked(_input) */\n      swap1\n      pop\n        /* \"Insurance.sol\":1965:1967  32 */\n      0x20\n        /* \"Insurance.sol\":1954:1964  inputBytes */\n      dup2\n        /* \"Insurance.sol\":1950:1968  add(inputBytes,32) */\n      add\n        /* \"Insurance.sol\":1944:1969  mload(add(inputBytes,32)) */\n      mload\n        /* \"Insurance.sol\":1935:1941  _offst */\n      dup5\n        /* \"Insurance.sol\":1926:1933  _output */\n      dup4\n        /* \"Insurance.sol\":1922:1942  add(_output, _offst) */\n      add\n        /* \"Insurance.sol\":1915:1970  mstore(add(_output, _offst), mload(add(inputBytes,32))) */\n      mstore\n        /* \"Insurance.sol\":1901:1980  {... */\n      pop\n      pop\n      pop\n      pop\n      jump\t// out\n        /* \"Insurance.sol\":1498:1666  function uintToBytes(uint _offst, uint _input, bytes memory _output) internal pure {... */\n    tag_124:\n        /* \"Insurance.sol\":1643:1649  _input */\n      dup2\n        /* \"Insurance.sol\":1634:1640  _offst */\n      dup4\n        /* \"Insurance.sol\":1625:1632  _output */\n      dup3\n        /* \"Insurance.sol\":1621:1641  add(_output, _offst) */\n      add\n        /* \"Insurance.sol\":1614:1650  mstore(add(_output, _offst), _input) */\n      mstore\n        /* \"Insurance.sol\":1600:1660  {... */\n      pop\n      pop\n      pop\n      jump\t// out\n        /* \"Insurance.sol\":830:1036  function boolToBytes(uint _offst, bool _input, bytes memory _output) internal pure {... */\n    tag_149:\n        /* \"Insurance.sol\":923:930  uint8 x */\n      0x00\n        /* \"Insurance.sol\":943:948  false */\n      dup1\n        /* \"Insurance.sol\":933:948  _input == false */\n      iszero\n      iszero\n        /* \"Insurance.sol\":933:939  _input */\n      dup4\n        /* \"Insurance.sol\":933:948  _input == false */\n      iszero\n      iszero\n      eq\n        /* \"Insurance.sol\":933:956  _input == false ? 0 : 1 */\n      tag_288\n      jumpi\n        /* \"Insurance.sol\":955:956  1 */\n      0x01\n        /* \"Insurance.sol\":933:956  _input == false ? 0 : 1 */\n      jump(tag_289)\n    tag_288:\n        /* \"Insurance.sol\":951:952  0 */\n      0x00\n        /* \"Insurance.sol\":933:956  _input == false ? 0 : 1 */\n    tag_289:\n        /* \"Insurance.sol\":923:956  uint8 x = _input == false ? 0 : 1 */\n      swap1\n      pop\n        /* \"Insurance.sol\":1018:1019  x */\n      dup1\n        /* \"Insurance.sol\":1009:1015  _offst */\n      dup5\n        /* \"Insurance.sol\":1000:1007  _output */\n      dup4\n        /* \"Insurance.sol\":996:1016  add(_output, _offst) */\n      add\n        /* \"Insurance.sol\":989:1020  mstore(add(_output, _offst), x) */\n      mstore\n        /* \"Insurance.sol\":975:1030  {... */\n      pop\n      pop\n      pop\n      pop\n      jump\t// out\n        /* \"Insurance.sol\":1042:1492  function stringToBytes(uint _offst, bytes memory _input, bytes memory _output) internal pure {... */\n    tag_161:\n        /* \"Insurance.sol\":1145:1163  uint256 stack_size */\n      0x00\n        /* \"Insurance.sol\":1182:1184  32 */\n      0x20\n        /* \"Insurance.sol\":1166:1172  _input */\n      dup4\n        /* \"Insurance.sol\":1166:1179  _input.length */\n      mload\n        /* \"Insurance.sol\":1166:1184  _input.length / 32 */\n      tag_291\n      swap2\n      swap1\n      tag_275\n      jump\t// in\n    tag_291:\n        /* \"Insurance.sol\":1145:1184  uint256 stack_size = _input.length / 32 */\n      swap1\n      pop\n        /* \"Insurance.sol\":1218:1219  0 */\n      0x00\n        /* \"Insurance.sol\":1213:1215  32 */\n      0x20\n        /* \"Insurance.sol\":1197:1203  _input */\n      dup5\n        /* \"Insurance.sol\":1197:1210  _input.length */\n      mload\n        /* \"Insurance.sol\":1197:1215  _input.length % 32 */\n      tag_292\n      swap2\n      swap1\n      tag_277\n      jump\t// in\n    tag_292:\n        /* \"Insurance.sol\":1197:1219  _input.length % 32 > 0 */\n      gt\n        /* \"Insurance.sol\":1194:1233  if(_input.length % 32 > 0) stack_size++ */\n      iszero\n      tag_293\n      jumpi\n        /* \"Insurance.sol\":1221:1233  stack_size++ */\n      dup1\n      dup1\n      tag_294\n      swap1\n      tag_199\n      jump\t// in\n    tag_294:\n      swap2\n      pop\n      pop\n        /* \"Insurance.sol\":1194:1233  if(_input.length % 32 > 0) stack_size++ */\n    tag_293:\n        /* \"Insurance.sol\":1244:1256  stack_size++ */\n      dup1\n      dup1\n      tag_295\n      swap1\n      tag_199\n      jump\t// in\n    tag_295:\n      swap2\n      pop\n      pop\n        /* \"Insurance.sol\":1271:1281  uint index */\n      0x00\n        /* \"Insurance.sol\":1266:1486  for (uint index = 0; index < stack_size; index++) {... */\n    tag_296:\n        /* \"Insurance.sol\":1295:1305  stack_size */\n      dup2\n        /* \"Insurance.sol\":1287:1292  index */\n      dup2\n        /* \"Insurance.sol\":1287:1305  index < stack_size */\n      lt\n        /* \"Insurance.sol\":1266:1486  for (uint index = 0; index < stack_size; index++) {... */\n      iszero\n      tag_297\n      jumpi\n        /* \"Insurance.sol\":1413:1415  32 */\n      0x20\n        /* \"Insurance.sol\":1407:1412  index */\n      dup2\n        /* \"Insurance.sol\":1403:1416  mul(index,32) */\n      mul\n        /* \"Insurance.sol\":1396:1402  _input */\n      dup5\n        /* \"Insurance.sol\":1392:1417  add(_input,mul(index,32)) */\n      add\n        /* \"Insurance.sol\":1386:1418  mload(add(_input,mul(index,32))) */\n      mload\n        /* \"Insurance.sol\":1377:1383  _offst */\n      dup6\n        /* \"Insurance.sol\":1368:1375  _output */\n      dup5\n        /* \"Insurance.sol\":1364:1384  add(_output, _offst) */\n      add\n        /* \"Insurance.sol\":1357:1419  mstore(add(_output, _offst), mload(add(_input,mul(index,32)))) */\n      mstore\n        /* \"Insurance.sol\":1459:1461  32 */\n      0x20\n        /* \"Insurance.sol\":1450:1456  _offst */\n      dup6\n        /* \"Insurance.sol\":1446:1462  sub(_offst , 32) */\n      sub\n        /* \"Insurance.sol\":1436:1462  _offst := sub(_offst , 32) */\n      swap5\n      pop\n        /* \"Insurance.sol\":1307:1314  index++ */\n      dup1\n      dup1\n      tag_299\n      swap1\n      tag_199\n      jump\t// in\n    tag_299:\n      swap2\n      pop\n      pop\n        /* \"Insurance.sol\":1266:1486  for (uint index = 0; index < stack_size; index++) {... */\n      jump(tag_296)\n    tag_297:\n      pop\n        /* \"Insurance.sol\":1042:1492  function stringToBytes(uint _offst, bytes memory _input, bytes memory _output) internal pure {... */\n      pop\n      pop\n      pop\n      pop\n      jump\t// out\n        /* \"#utility.yul\":7:146   */\n    tag_301:\n      0x00\n        /* \"#utility.yul\":91:97   */\n      dup2\n        /* \"#utility.yul\":78:98   */\n      calldataload\n        /* \"#utility.yul\":69:98   */\n      swap1\n      pop\n        /* \"#utility.yul\":107:140   */\n      tag_303\n        /* \"#utility.yul\":134:139   */\n      dup2\n        /* \"#utility.yul\":107:140   */\n      tag_304\n      jump\t// in\n    tag_303:\n        /* \"#utility.yul\":59:146   */\n      swap3\n      swap2\n      pop\n      pop\n      jump\t// out\n        /* \"#utility.yul\":152:291   */\n    tag_305:\n      0x00\n        /* \"#utility.yul\":236:242   */\n      dup2\n        /* \"#utility.yul\":223:243   */\n      calldataload\n        /* \"#utility.yul\":214:243   */\n      swap1\n      pop\n        /* \"#utility.yul\":252:285   */\n      tag_307\n        /* \"#utility.yul\":279:284   */\n      dup2\n        /* \"#utility.yul\":252:285   */\n      tag_308\n      jump\t// in\n    tag_307:\n        /* \"#utility.yul\":204:291   */\n      swap3\n      swap2\n      pop\n      pop\n      jump\t// out\n        /* \"#utility.yul\":297:436   */\n    tag_309:\n      0x00\n        /* \"#utility.yul\":381:387   */\n      dup2\n        /* \"#utility.yul\":368:388   */\n      calldataload\n        /* \"#utility.yul\":359:388   */\n      swap1\n      pop\n        /* \"#utility.yul\":397:430   */\n      tag_311\n        /* \"#utility.yul\":424:429   */\n      dup2\n        /* \"#utility.yul\":397:430   */\n      tag_312\n      jump\t// in\n    tag_311:\n        /* \"#utility.yul\":349:436   */\n      swap3\n      swap2\n      pop\n      pop\n      jump\t// out\n        /* \"#utility.yul\":442:704   */\n    tag_38:\n      0x00\n        /* \"#utility.yul\":550:552   */\n      0x20\n        /* \"#utility.yul\":538:547   */\n      dup3\n        /* \"#utility.yul\":529:536   */\n      dup5\n        /* \"#utility.yul\":525:548   */\n      sub\n        /* \"#utility.yul\":521:553   */\n      slt\n        /* \"#utility.yul\":518:520   */\n      iszero\n      tag_314\n      jumpi\n        /* \"#utility.yul\":566:567   */\n      0x00\n        /* \"#utility.yul\":563:564   */\n      dup1\n        /* \"#utility.yul\":556:568   */\n      revert\n        /* \"#utility.yul\":518:520   */\n    tag_314:\n        /* \"#utility.yul\":609:610   */\n      0x00\n        /* \"#utility.yul\":634:687   */\n      tag_315\n        /* \"#utility.yul\":679:686   */\n      dup5\n        /* \"#utility.yul\":670:676   */\n      dup3\n        /* \"#utility.yul\":659:668   */\n      dup6\n        /* \"#utility.yul\":655:677   */\n      add\n        /* \"#utility.yul\":634:687   */\n      tag_301\n      jump\t// in\n    tag_315:\n        /* \"#utility.yul\":624:687   */\n      swap2\n      pop\n        /* \"#utility.yul\":580:697   */\n      pop\n        /* \"#utility.yul\":508:704   */\n      swap3\n      swap2\n      pop\n      pop\n      jump\t// out\n        /* \"#utility.yul\":710:972   */\n    tag_24:\n      0x00\n        /* \"#utility.yul\":818:820   */\n      0x20\n        /* \"#utility.yul\":806:815   */\n      dup3\n        /* \"#utility.yul\":797:804   */\n      dup5\n        /* \"#utility.yul\":793:816   */\n      sub\n        /* \"#utility.yul\":789:821   */\n      slt\n        /* \"#utility.yul\":786:788   */\n      iszero\n      tag_317\n      jumpi\n        /* \"#utility.yul\":834:835   */\n      0x00\n        /* \"#utility.yul\":831:832   */\n      dup1\n        /* \"#utility.yul\":824:836   */\n      revert\n        /* \"#utility.yul\":786:788   */\n    tag_317:\n        /* \"#utility.yul\":877:878   */\n      0x00\n        /* \"#utility.yul\":902:955   */\n      tag_318\n        /* \"#utility.yul\":947:954   */\n      dup5\n        /* \"#utility.yul\":938:944   */\n      dup3\n        /* \"#utility.yul\":927:936   */\n      dup6\n        /* \"#utility.yul\":923:945   */\n      add\n        /* \"#utility.yul\":902:955   */\n      tag_305\n      jump\t// in\n    tag_318:\n        /* \"#utility.yul\":892:955   */\n      swap2\n      pop\n        /* \"#utility.yul\":848:965   */\n      pop\n        /* \"#utility.yul\":776:972   */\n      swap3\n      swap2\n      pop\n      pop\n      jump\t// out\n        /* \"#utility.yul\":978:1385   */\n    tag_30:\n      0x00\n      dup1\n        /* \"#utility.yul\":1103:1105   */\n      0x40\n        /* \"#utility.yul\":1091:1100   */\n      dup4\n        /* \"#utility.yul\":1082:1089   */\n      dup6\n        /* \"#utility.yul\":1078:1101   */\n      sub\n        /* \"#utility.yul\":1074:1106   */\n      slt\n        /* \"#utility.yul\":1071:1073   */\n      iszero\n      tag_320\n      jumpi\n        /* \"#utility.yul\":1119:1120   */\n      0x00\n        /* \"#utility.yul\":1116:1117   */\n      dup1\n        /* \"#utility.yul\":1109:1121   */\n      revert\n        /* \"#utility.yul\":1071:1073   */\n    tag_320:\n        /* \"#utility.yul\":1162:1163   */\n      0x00\n        /* \"#utility.yul\":1187:1240   */\n      tag_321\n        /* \"#utility.yul\":1232:1239   */\n      dup6\n        /* \"#utility.yul\":1223:1229   */\n      dup3\n        /* \"#utility.yul\":1212:1221   */\n      dup7\n        /* \"#utility.yul\":1208:1230   */\n      add\n        /* \"#utility.yul\":1187:1240   */\n      tag_305\n      jump\t// in\n    tag_321:\n        /* \"#utility.yul\":1177:1240   */\n      swap3\n      pop\n        /* \"#utility.yul\":1133:1250   */\n      pop\n        /* \"#utility.yul\":1289:1291   */\n      0x20\n        /* \"#utility.yul\":1315:1368   */\n      tag_322\n        /* \"#utility.yul\":1360:1367   */\n      dup6\n        /* \"#utility.yul\":1351:1357   */\n      dup3\n        /* \"#utility.yul\":1340:1349   */\n      dup7\n        /* \"#utility.yul\":1336:1358   */\n      add\n        /* \"#utility.yul\":1315:1368   */\n      tag_305\n      jump\t// in\n    tag_322:\n        /* \"#utility.yul\":1305:1368   */\n      swap2\n      pop\n        /* \"#utility.yul\":1260:1378   */\n      pop\n        /* \"#utility.yul\":1061:1385   */\n      swap3\n      pop\n      swap3\n      swap1\n      pop\n      jump\t// out\n        /* \"#utility.yul\":1391:1943   */\n    tag_42:\n      0x00\n      dup1\n      0x00\n        /* \"#utility.yul\":1533:1535   */\n      0x60\n        /* \"#utility.yul\":1521:1530   */\n      dup5\n        /* \"#utility.yul\":1512:1519   */\n      dup7\n        /* \"#utility.yul\":1508:1531   */\n      sub\n        /* \"#utility.yul\":1504:1536   */\n      slt\n        /* \"#utility.yul\":1501:1503   */\n      iszero\n      tag_324\n      jumpi\n        /* \"#utility.yul\":1549:1550   */\n      0x00\n        /* \"#utility.yul\":1546:1547   */\n      dup1\n        /* \"#utility.yul\":1539:1551   */\n      revert\n        /* \"#utility.yul\":1501:1503   */\n    tag_324:\n        /* \"#utility.yul\":1592:1593   */\n      0x00\n        /* \"#utility.yul\":1617:1670   */\n      tag_325\n        /* \"#utility.yul\":1662:1669   */\n      dup7\n        /* \"#utility.yul\":1653:1659   */\n      dup3\n        /* \"#utility.yul\":1642:1651   */\n      dup8\n        /* \"#utility.yul\":1638:1660   */\n      add\n        /* \"#utility.yul\":1617:1670   */\n      tag_305\n      jump\t// in\n    tag_325:\n        /* \"#utility.yul\":1607:1670   */\n      swap4\n      pop\n        /* \"#utility.yul\":1563:1680   */\n      pop\n        /* \"#utility.yul\":1719:1721   */\n      0x20\n        /* \"#utility.yul\":1745:1798   */\n      tag_326\n        /* \"#utility.yul\":1790:1797   */\n      dup7\n        /* \"#utility.yul\":1781:1787   */\n      dup3\n        /* \"#utility.yul\":1770:1779   */\n      dup8\n        /* \"#utility.yul\":1766:1788   */\n      add\n        /* \"#utility.yul\":1745:1798   */\n      tag_305\n      jump\t// in\n    tag_326:\n        /* \"#utility.yul\":1735:1798   */\n      swap3\n      pop\n        /* \"#utility.yul\":1690:1808   */\n      pop\n        /* \"#utility.yul\":1847:1849   */\n      0x40\n        /* \"#utility.yul\":1873:1926   */\n      tag_327\n        /* \"#utility.yul\":1918:1925   */\n      dup7\n        /* \"#utility.yul\":1909:1915   */\n      dup3\n        /* \"#utility.yul\":1898:1907   */\n      dup8\n        /* \"#utility.yul\":1894:1916   */\n      add\n        /* \"#utility.yul\":1873:1926   */\n      tag_309\n      jump\t// in\n    tag_327:\n        /* \"#utility.yul\":1863:1926   */\n      swap2\n      pop\n        /* \"#utility.yul\":1818:1936   */\n      pop\n        /* \"#utility.yul\":1491:1943   */\n      swap3\n      pop\n      swap3\n      pop\n      swap3\n      jump\t// out\n        /* \"#utility.yul\":1949:2128   */\n    tag_328:\n      0x00\n        /* \"#utility.yul\":2039:2085   */\n      tag_330\n        /* \"#utility.yul\":2081:2084   */\n      dup4\n        /* \"#utility.yul\":2073:2079   */\n      dup4\n        /* \"#utility.yul\":2039:2085   */\n      tag_331\n      jump\t// in\n    tag_330:\n        /* \"#utility.yul\":2117:2121   */\n      0x20\n        /* \"#utility.yul\":2112:2115   */\n      dup4\n        /* \"#utility.yul\":2108:2122   */\n      add\n        /* \"#utility.yul\":2094:2122   */\n      swap1\n      pop\n        /* \"#utility.yul\":2029:2128   */\n      swap3\n      swap2\n      pop\n      pop\n      jump\t// out\n        /* \"#utility.yul\":2164:2896   */\n    tag_332:\n      0x00\n        /* \"#utility.yul\":2312:2366   */\n      tag_334\n        /* \"#utility.yul\":2360:2365   */\n      dup3\n        /* \"#utility.yul\":2312:2366   */\n      tag_335\n      jump\t// in\n    tag_334:\n        /* \"#utility.yul\":2382:2468   */\n      tag_336\n        /* \"#utility.yul\":2461:2467   */\n      dup2\n        /* \"#utility.yul\":2456:2459   */\n      dup6\n        /* \"#utility.yul\":2382:2468   */\n      tag_337\n      jump\t// in\n    tag_336:\n        /* \"#utility.yul\":2375:2468   */\n      swap4\n      pop\n        /* \"#utility.yul\":2492:2548   */\n      tag_338\n        /* \"#utility.yul\":2542:2547   */\n      dup4\n        /* \"#utility.yul\":2492:2548   */\n      tag_339\n      jump\t// in\n    tag_338:\n        /* \"#utility.yul\":2571:2578   */\n      dup1\n        /* \"#utility.yul\":2602:2603   */\n      0x00\n        /* \"#utility.yul\":2587:2871   */\n    tag_340:\n        /* \"#utility.yul\":2612:2618   */\n      dup4\n        /* \"#utility.yul\":2609:2610   */\n      dup2\n        /* \"#utility.yul\":2606:2619   */\n      lt\n        /* \"#utility.yul\":2587:2871   */\n      iszero\n      tag_342\n      jumpi\n        /* \"#utility.yul\":2688:2694   */\n      dup2\n        /* \"#utility.yul\":2682:2695   */\n      mload\n        /* \"#utility.yul\":2715:2778   */\n      tag_343\n        /* \"#utility.yul\":2774:2777   */\n      dup9\n        /* \"#utility.yul\":2759:2772   */\n      dup3\n        /* \"#utility.yul\":2715:2778   */\n      tag_328\n      jump\t// in\n    tag_343:\n        /* \"#utility.yul\":2708:2778   */\n      swap8\n      pop\n        /* \"#utility.yul\":2801:2861   */\n      tag_344\n        /* \"#utility.yul\":2854:2860   */\n      dup4\n        /* \"#utility.yul\":2801:2861   */\n      tag_345\n      jump\t// in\n    tag_344:\n        /* \"#utility.yul\":2791:2861   */\n      swap3\n      pop\n        /* \"#utility.yul\":2647:2871   */\n      pop\n        /* \"#utility.yul\":2634:2635   */\n      0x01\n        /* \"#utility.yul\":2631:2632   */\n      dup2\n        /* \"#utility.yul\":2627:2636   */\n      add\n        /* \"#utility.yul\":2622:2636   */\n      swap1\n      pop\n        /* \"#utility.yul\":2587:2871   */\n      jump(tag_340)\n    tag_342:\n        /* \"#utility.yul\":2591:2605   */\n      pop\n        /* \"#utility.yul\":2887:2890   */\n      dup6\n        /* \"#utility.yul\":2880:2890   */\n      swap4\n      pop\n        /* \"#utility.yul\":2288:2896   */\n      pop\n      pop\n      pop\n      swap3\n      swap2\n      pop\n      pop\n      jump\t// out\n        /* \"#utility.yul\":2902:3010   */\n    tag_331:\n        /* \"#utility.yul\":2979:3003   */\n      tag_347\n        /* \"#utility.yul\":2997:3002   */\n      dup2\n        /* \"#utility.yul\":2979:3003   */\n      tag_348\n      jump\t// in\n    tag_347:\n        /* \"#utility.yul\":2974:2977   */\n      dup3\n        /* \"#utility.yul\":2967:3004   */\n      mstore\n        /* \"#utility.yul\":2957:3010   */\n      pop\n      pop\n      jump\t// out\n        /* \"#utility.yul\":3016:3134   */\n    tag_349:\n        /* \"#utility.yul\":3103:3127   */\n      tag_351\n        /* \"#utility.yul\":3121:3126   */\n      dup2\n        /* \"#utility.yul\":3103:3127   */\n      tag_348\n      jump\t// in\n    tag_351:\n        /* \"#utility.yul\":3098:3101   */\n      dup3\n        /* \"#utility.yul\":3091:3128   */\n      mstore\n        /* \"#utility.yul\":3081:3134   */\n      pop\n      pop\n      jump\t// out\n        /* \"#utility.yul\":3140:3297   */\n    tag_352:\n        /* \"#utility.yul\":3245:3290   */\n      tag_354\n        /* \"#utility.yul\":3265:3289   */\n      tag_355\n        /* \"#utility.yul\":3283:3288   */\n      dup3\n        /* \"#utility.yul\":3265:3289   */\n      tag_348\n      jump\t// in\n    tag_355:\n        /* \"#utility.yul\":3245:3290   */\n      tag_356\n      jump\t// in\n    tag_354:\n        /* \"#utility.yul\":3240:3243   */\n      dup3\n        /* \"#utility.yul\":3233:3291   */\n      mstore\n        /* \"#utility.yul\":3223:3297   */\n      pop\n      pop\n      jump\t// out\n        /* \"#utility.yul\":3303:3663   */\n    tag_357:\n      0x00\n        /* \"#utility.yul\":3417:3455   */\n      tag_359\n        /* \"#utility.yul\":3449:3454   */\n      dup3\n        /* \"#utility.yul\":3417:3455   */\n      tag_360\n      jump\t// in\n    tag_359:\n        /* \"#utility.yul\":3471:3541   */\n      tag_361\n        /* \"#utility.yul\":3534:3540   */\n      dup2\n        /* \"#utility.yul\":3529:3532   */\n      dup6\n        /* \"#utility.yul\":3471:3541   */\n      tag_362\n      jump\t// in\n    tag_361:\n        /* \"#utility.yul\":3464:3541   */\n      swap4\n      pop\n        /* \"#utility.yul\":3550:3602   */\n      tag_363\n        /* \"#utility.yul\":3595:3601   */\n      dup2\n        /* \"#utility.yul\":3590:3593   */\n      dup6\n        /* \"#utility.yul\":3583:3587   */\n      0x20\n        /* \"#utility.yul\":3576:3581   */\n      dup7\n        /* \"#utility.yul\":3572:3588   */\n      add\n        /* \"#utility.yul\":3550:3602   */\n      tag_364\n      jump\t// in\n    tag_363:\n        /* \"#utility.yul\":3627:3656   */\n      tag_365\n        /* \"#utility.yul\":3649:3655   */\n      dup2\n        /* \"#utility.yul\":3627:3656   */\n      tag_366\n      jump\t// in\n    tag_365:\n        /* \"#utility.yul\":3622:3625   */\n      dup5\n        /* \"#utility.yul\":3618:3657   */\n      add\n        /* \"#utility.yul\":3611:3657   */\n      swap2\n      pop\n        /* \"#utility.yul\":3393:3663   */\n      pop\n      swap3\n      swap2\n      pop\n      pop\n      jump\t// out\n        /* \"#utility.yul\":3669:4033   */\n    tag_367:\n      0x00\n        /* \"#utility.yul\":3785:3824   */\n      tag_369\n        /* \"#utility.yul\":3818:3823   */\n      dup3\n        /* \"#utility.yul\":3785:3824   */\n      tag_370\n      jump\t// in\n    tag_369:\n        /* \"#utility.yul\":3840:3911   */\n      tag_371\n        /* \"#utility.yul\":3904:3910   */\n      dup2\n        /* \"#utility.yul\":3899:3902   */\n      dup6\n        /* \"#utility.yul\":3840:3911   */\n      tag_372\n      jump\t// in\n    tag_371:\n        /* \"#utility.yul\":3833:3911   */\n      swap4\n      pop\n        /* \"#utility.yul\":3920:3972   */\n      tag_373\n        /* \"#utility.yul\":3965:3971   */\n      dup2\n        /* \"#utility.yul\":3960:3963   */\n      dup6\n        /* \"#utility.yul\":3953:3957   */\n      0x20\n        /* \"#utility.yul\":3946:3951   */\n      dup7\n        /* \"#utility.yul\":3942:3958   */\n      add\n        /* \"#utility.yul\":3920:3972   */\n      tag_364\n      jump\t// in\n    tag_373:\n        /* \"#utility.yul\":3997:4026   */\n      tag_374\n        /* \"#utility.yul\":4019:4025   */\n      dup2\n        /* \"#utility.yul\":3997:4026   */\n      tag_366\n      jump\t// in\n    tag_374:\n        /* \"#utility.yul\":3992:3995   */\n      dup5\n        /* \"#utility.yul\":3988:4027   */\n      add\n        /* \"#utility.yul\":3981:4027   */\n      swap2\n      pop\n        /* \"#utility.yul\":3761:4033   */\n      pop\n      swap3\n      swap2\n      pop\n      pop\n      jump\t// out\n        /* \"#utility.yul\":4039:4405   */\n    tag_375:\n      0x00\n        /* \"#utility.yul\":4202:4269   */\n      tag_377\n        /* \"#utility.yul\":4266:4268   */\n      0x2b\n        /* \"#utility.yul\":4261:4264   */\n      dup4\n        /* \"#utility.yul\":4202:4269   */\n      tag_372\n      jump\t// in\n    tag_377:\n        /* \"#utility.yul\":4195:4269   */\n      swap2\n      pop\n        /* \"#utility.yul\":4278:4371   */\n      tag_378\n        /* \"#utility.yul\":4367:4370   */\n      dup3\n        /* \"#utility.yul\":4278:4371   */\n      tag_379\n      jump\t// in\n    tag_378:\n        /* \"#utility.yul\":4396:4398   */\n      0x40\n        /* \"#utility.yul\":4391:4394   */\n      dup3\n        /* \"#utility.yul\":4387:4399   */\n      add\n        /* \"#utility.yul\":4380:4399   */\n      swap1\n      pop\n        /* \"#utility.yul\":4185:4405   */\n      swap2\n      swap1\n      pop\n      jump\t// out\n        /* \"#utility.yul\":4411:4526   */\n    tag_380:\n        /* \"#utility.yul\":4496:4519   */\n      tag_382\n        /* \"#utility.yul\":4513:4518   */\n      dup2\n        /* \"#utility.yul\":4496:4519   */\n      tag_383\n      jump\t// in\n    tag_382:\n        /* \"#utility.yul\":4491:4494   */\n      dup3\n        /* \"#utility.yul\":4484:4520   */\n      mstore\n        /* \"#utility.yul\":4474:4526   */\n      pop\n      pop\n      jump\t// out\n        /* \"#utility.yul\":4532:4650   */\n    tag_384:\n        /* \"#utility.yul\":4619:4643   */\n      tag_386\n        /* \"#utility.yul\":4637:4642   */\n      dup2\n        /* \"#utility.yul\":4619:4643   */\n      tag_387\n      jump\t// in\n    tag_386:\n        /* \"#utility.yul\":4614:4617   */\n      dup3\n        /* \"#utility.yul\":4607:4644   */\n      mstore\n        /* \"#utility.yul\":4597:4650   */\n      pop\n      pop\n      jump\t// out\n        /* \"#utility.yul\":4656:4912   */\n    tag_285:\n      0x00\n        /* \"#utility.yul\":4783:4858   */\n      tag_389\n        /* \"#utility.yul\":4854:4857   */\n      dup3\n        /* \"#utility.yul\":4845:4851   */\n      dup5\n        /* \"#utility.yul\":4783:4858   */\n      tag_352\n      jump\t// in\n    tag_389:\n        /* \"#utility.yul\":4883:4885   */\n      0x20\n        /* \"#utility.yul\":4878:4881   */\n      dup3\n        /* \"#utility.yul\":4874:4886   */\n      add\n        /* \"#utility.yul\":4867:4886   */\n      swap2\n      pop\n        /* \"#utility.yul\":4903:4906   */\n      dup2\n        /* \"#utility.yul\":4896:4906   */\n      swap1\n      pop\n        /* \"#utility.yul\":4772:4912   */\n      swap3\n      swap2\n      pop\n      pop\n      jump\t// out\n        /* \"#utility.yul\":4918:5140   */\n    tag_49:\n      0x00\n        /* \"#utility.yul\":5049:5051   */\n      0x20\n        /* \"#utility.yul\":5038:5047   */\n      dup3\n        /* \"#utility.yul\":5034:5052   */\n      add\n        /* \"#utility.yul\":5026:5052   */\n      swap1\n      pop\n        /* \"#utility.yul\":5062:5133   */\n      tag_391\n        /* \"#utility.yul\":5130:5131   */\n      0x00\n        /* \"#utility.yul\":5119:5128   */\n      dup4\n        /* \"#utility.yul\":5115:5132   */\n      add\n        /* \"#utility.yul\":5106:5112   */\n      dup5\n        /* \"#utility.yul\":5062:5133   */\n      tag_349\n      jump\t// in\n    tag_391:\n        /* \"#utility.yul\":5016:5140   */\n      swap3\n      swap2\n      pop\n      pop\n      jump\t// out\n        /* \"#utility.yul\":5146:6751   */\n    tag_62:\n      0x00\n        /* \"#utility.yul\":5618:5621   */\n      0x0160\n        /* \"#utility.yul\":5607:5616   */\n      dup3\n        /* \"#utility.yul\":5603:5622   */\n      add\n        /* \"#utility.yul\":5595:5622   */\n      swap1\n      pop\n        /* \"#utility.yul\":5632:5703   */\n      tag_393\n        /* \"#utility.yul\":5700:5701   */\n      0x00\n        /* \"#utility.yul\":5689:5698   */\n      dup4\n        /* \"#utility.yul\":5685:5702   */\n      add\n        /* \"#utility.yul\":5676:5682   */\n      dup15\n        /* \"#utility.yul\":5632:5703   */\n      tag_349\n      jump\t// in\n    tag_393:\n        /* \"#utility.yul\":5713:5785   */\n      tag_394\n        /* \"#utility.yul\":5781:5783   */\n      0x20\n        /* \"#utility.yul\":5770:5779   */\n      dup4\n        /* \"#utility.yul\":5766:5784   */\n      add\n        /* \"#utility.yul\":5757:5763   */\n      dup14\n        /* \"#utility.yul\":5713:5785   */\n      tag_349\n      jump\t// in\n    tag_394:\n        /* \"#utility.yul\":5832:5841   */\n      dup2\n        /* \"#utility.yul\":5826:5830   */\n      dup2\n        /* \"#utility.yul\":5822:5842   */\n      sub\n        /* \"#utility.yul\":5817:5819   */\n      0x40\n        /* \"#utility.yul\":5806:5815   */\n      dup4\n        /* \"#utility.yul\":5802:5820   */\n      add\n        /* \"#utility.yul\":5795:5843   */\n      mstore\n        /* \"#utility.yul\":5860:5938   */\n      tag_395\n        /* \"#utility.yul\":5933:5937   */\n      dup2\n        /* \"#utility.yul\":5924:5930   */\n      dup13\n        /* \"#utility.yul\":5860:5938   */\n      tag_367\n      jump\t// in\n    tag_395:\n        /* \"#utility.yul\":5852:5938   */\n      swap1\n      pop\n        /* \"#utility.yul\":5985:5994   */\n      dup2\n        /* \"#utility.yul\":5979:5983   */\n      dup2\n        /* \"#utility.yul\":5975:5995   */\n      sub\n        /* \"#utility.yul\":5970:5972   */\n      0x60\n        /* \"#utility.yul\":5959:5968   */\n      dup4\n        /* \"#utility.yul\":5955:5973   */\n      add\n        /* \"#utility.yul\":5948:5996   */\n      mstore\n        /* \"#utility.yul\":6013:6091   */\n      tag_396\n        /* \"#utility.yul\":6086:6090   */\n      dup2\n        /* \"#utility.yul\":6077:6083   */\n      dup12\n        /* \"#utility.yul\":6013:6091   */\n      tag_367\n      jump\t// in\n    tag_396:\n        /* \"#utility.yul\":6005:6091   */\n      swap1\n      pop\n        /* \"#utility.yul\":6101:6174   */\n      tag_397\n        /* \"#utility.yul\":6169:6172   */\n      0x80\n        /* \"#utility.yul\":6158:6167   */\n      dup4\n        /* \"#utility.yul\":6154:6173   */\n      add\n        /* \"#utility.yul\":6145:6151   */\n      dup11\n        /* \"#utility.yul\":6101:6174   */\n      tag_349\n      jump\t// in\n    tag_397:\n        /* \"#utility.yul\":6184:6257   */\n      tag_398\n        /* \"#utility.yul\":6252:6255   */\n      0xa0\n        /* \"#utility.yul\":6241:6250   */\n      dup4\n        /* \"#utility.yul\":6237:6256   */\n      add\n        /* \"#utility.yul\":6228:6234   */\n      dup10\n        /* \"#utility.yul\":6184:6257   */\n      tag_349\n      jump\t// in\n    tag_398:\n        /* \"#utility.yul\":6267:6340   */\n      tag_399\n        /* \"#utility.yul\":6335:6338   */\n      0xc0\n        /* \"#utility.yul\":6324:6333   */\n      dup4\n        /* \"#utility.yul\":6320:6339   */\n      add\n        /* \"#utility.yul\":6311:6317   */\n      dup9\n        /* \"#utility.yul\":6267:6340   */\n      tag_349\n      jump\t// in\n    tag_399:\n        /* \"#utility.yul\":6350:6423   */\n      tag_400\n        /* \"#utility.yul\":6418:6421   */\n      0xe0\n        /* \"#utility.yul\":6407:6416   */\n      dup4\n        /* \"#utility.yul\":6403:6422   */\n      add\n        /* \"#utility.yul\":6394:6400   */\n      dup8\n        /* \"#utility.yul\":6350:6423   */\n      tag_349\n      jump\t// in\n    tag_400:\n        /* \"#utility.yul\":6433:6506   */\n      tag_401\n        /* \"#utility.yul\":6501:6504   */\n      0x0100\n        /* \"#utility.yul\":6490:6499   */\n      dup4\n        /* \"#utility.yul\":6486:6505   */\n      add\n        /* \"#utility.yul\":6477:6483   */\n      dup7\n        /* \"#utility.yul\":6433:6506   */\n      tag_349\n      jump\t// in\n    tag_401:\n        /* \"#utility.yul\":6554:6563   */\n      dup2\n        /* \"#utility.yul\":6548:6552   */\n      dup2\n        /* \"#utility.yul\":6544:6564   */\n      sub\n        /* \"#utility.yul\":6538:6541   */\n      0x0120\n        /* \"#utility.yul\":6527:6536   */\n      dup4\n        /* \"#utility.yul\":6523:6542   */\n      add\n        /* \"#utility.yul\":6516:6565   */\n      mstore\n        /* \"#utility.yul\":6582:6660   */\n      tag_402\n        /* \"#utility.yul\":6655:6659   */\n      dup2\n        /* \"#utility.yul\":6646:6652   */\n      dup6\n        /* \"#utility.yul\":6582:6660   */\n      tag_367\n      jump\t// in\n    tag_402:\n        /* \"#utility.yul\":6574:6660   */\n      swap1\n      pop\n        /* \"#utility.yul\":6670:6744   */\n      tag_403\n        /* \"#utility.yul\":6739:6742   */\n      0x0140\n        /* \"#utility.yul\":6728:6737   */\n      dup4\n        /* \"#utility.yul\":6724:6743   */\n      add\n        /* \"#utility.yul\":6714:6721   */\n      dup5\n        /* \"#utility.yul\":6670:6744   */\n      tag_349\n      jump\t// in\n    tag_403:\n        /* \"#utility.yul\":5585:6751   */\n      swap13\n      swap12\n      pop\n      pop\n      pop\n      pop\n      pop\n      pop\n      pop\n      pop\n      pop\n      pop\n      pop\n      pop\n      jump\t// out\n        /* \"#utility.yul\":6757:7421   */\n    tag_27:\n      0x00\n        /* \"#utility.yul\":7000:7003   */\n      0xa0\n        /* \"#utility.yul\":6989:6998   */\n      dup3\n        /* \"#utility.yul\":6985:7004   */\n      add\n        /* \"#utility.yul\":6977:7004   */\n      swap1\n      pop\n        /* \"#utility.yul\":7014:7085   */\n      tag_405\n        /* \"#utility.yul\":7082:7083   */\n      0x00\n        /* \"#utility.yul\":7071:7080   */\n      dup4\n        /* \"#utility.yul\":7067:7084   */\n      add\n        /* \"#utility.yul\":7058:7064   */\n      dup9\n        /* \"#utility.yul\":7014:7085   */\n      tag_349\n      jump\t// in\n    tag_405:\n        /* \"#utility.yul\":7095:7167   */\n      tag_406\n        /* \"#utility.yul\":7163:7165   */\n      0x20\n        /* \"#utility.yul\":7152:7161   */\n      dup4\n        /* \"#utility.yul\":7148:7166   */\n      add\n        /* \"#utility.yul\":7139:7145   */\n      dup8\n        /* \"#utility.yul\":7095:7167   */\n      tag_349\n      jump\t// in\n    tag_406:\n        /* \"#utility.yul\":7177:7249   */\n      tag_407\n        /* \"#utility.yul\":7245:7247   */\n      0x40\n        /* \"#utility.yul\":7234:7243   */\n      dup4\n        /* \"#utility.yul\":7230:7248   */\n      add\n        /* \"#utility.yul\":7221:7227   */\n      dup7\n        /* \"#utility.yul\":7177:7249   */\n      tag_384\n      jump\t// in\n    tag_407:\n        /* \"#utility.yul\":7259:7331   */\n      tag_408\n        /* \"#utility.yul\":7327:7329   */\n      0x60\n        /* \"#utility.yul\":7316:7325   */\n      dup4\n        /* \"#utility.yul\":7312:7330   */\n      add\n        /* \"#utility.yul\":7303:7309   */\n      dup6\n        /* \"#utility.yul\":7259:7331   */\n      tag_384\n      jump\t// in\n    tag_408:\n        /* \"#utility.yul\":7341:7414   */\n      tag_409\n        /* \"#utility.yul\":7409:7412   */\n      0x80\n        /* \"#utility.yul\":7398:7407   */\n      dup4\n        /* \"#utility.yul\":7394:7413   */\n      add\n        /* \"#utility.yul\":7385:7391   */\n      dup5\n        /* \"#utility.yul\":7341:7414   */\n      tag_349\n      jump\t// in\n    tag_409:\n        /* \"#utility.yul\":6967:7421   */\n      swap7\n      swap6\n      pop\n      pop\n      pop\n      pop\n      pop\n      pop\n      jump\t// out\n        /* \"#utility.yul\":7427:8452   */\n    tag_56:\n      0x00\n        /* \"#utility.yul\":7770:7773   */\n      0xe0\n        /* \"#utility.yul\":7759:7768   */\n      dup3\n        /* \"#utility.yul\":7755:7774   */\n      add\n        /* \"#utility.yul\":7747:7774   */\n      swap1\n      pop\n        /* \"#utility.yul\":7784:7855   */\n      tag_411\n        /* \"#utility.yul\":7852:7853   */\n      0x00\n        /* \"#utility.yul\":7841:7850   */\n      dup4\n        /* \"#utility.yul\":7837:7854   */\n      add\n        /* \"#utility.yul\":7828:7834   */\n      dup11\n        /* \"#utility.yul\":7784:7855   */\n      tag_349\n      jump\t// in\n    tag_411:\n        /* \"#utility.yul\":7865:7935   */\n      tag_412\n        /* \"#utility.yul\":7931:7933   */\n      0x20\n        /* \"#utility.yul\":7920:7929   */\n      dup4\n        /* \"#utility.yul\":7916:7934   */\n      add\n        /* \"#utility.yul\":7907:7913   */\n      dup10\n        /* \"#utility.yul\":7865:7935   */\n      tag_380\n      jump\t// in\n    tag_412:\n        /* \"#utility.yul\":7945:8015   */\n      tag_413\n        /* \"#utility.yul\":8011:8013   */\n      0x40\n        /* \"#utility.yul\":8000:8009   */\n      dup4\n        /* \"#utility.yul\":7996:8014   */\n      add\n        /* \"#utility.yul\":7987:7993   */\n      dup9\n        /* \"#utility.yul\":7945:8015   */\n      tag_380\n      jump\t// in\n    tag_413:\n        /* \"#utility.yul\":8025:8095   */\n      tag_414\n        /* \"#utility.yul\":8091:8093   */\n      0x60\n        /* \"#utility.yul\":8080:8089   */\n      dup4\n        /* \"#utility.yul\":8076:8094   */\n      add\n        /* \"#utility.yul\":8067:8073   */\n      dup8\n        /* \"#utility.yul\":8025:8095   */\n      tag_380\n      jump\t// in\n    tag_414:\n        /* \"#utility.yul\":8105:8178   */\n      tag_415\n        /* \"#utility.yul\":8173:8176   */\n      0x80\n        /* \"#utility.yul\":8162:8171   */\n      dup4\n        /* \"#utility.yul\":8158:8177   */\n      add\n        /* \"#utility.yul\":8149:8155   */\n      dup7\n        /* \"#utility.yul\":8105:8178   */\n      tag_384\n      jump\t// in\n    tag_415:\n        /* \"#utility.yul\":8188:8261   */\n      tag_416\n        /* \"#utility.yul\":8256:8259   */\n      0xa0\n        /* \"#utility.yul\":8245:8254   */\n      dup4\n        /* \"#utility.yul\":8241:8260   */\n      add\n        /* \"#utility.yul\":8232:8238   */\n      dup6\n        /* \"#utility.yul\":8188:8261   */\n      tag_384\n      jump\t// in\n    tag_416:\n        /* \"#utility.yul\":8309:8318   */\n      dup2\n        /* \"#utility.yul\":8303:8307   */\n      dup2\n        /* \"#utility.yul\":8299:8319   */\n      sub\n        /* \"#utility.yul\":8293:8296   */\n      0xc0\n        /* \"#utility.yul\":8282:8291   */\n      dup4\n        /* \"#utility.yul\":8278:8297   */\n      add\n        /* \"#utility.yul\":8271:8320   */\n      mstore\n        /* \"#utility.yul\":8337:8445   */\n      tag_417\n        /* \"#utility.yul\":8440:8444   */\n      dup2\n        /* \"#utility.yul\":8431:8437   */\n      dup5\n        /* \"#utility.yul\":8337:8445   */\n      tag_332\n      jump\t// in\n    tag_417:\n        /* \"#utility.yul\":8329:8445   */\n      swap1\n      pop\n        /* \"#utility.yul\":7737:8452   */\n      swap9\n      swap8\n      pop\n      pop\n      pop\n      pop\n      pop\n      pop\n      pop\n      pop\n      jump\t// out\n        /* \"#utility.yul\":8458:8790   */\n    tag_78:\n      0x00\n        /* \"#utility.yul\":8617:8619   */\n      0x40\n        /* \"#utility.yul\":8606:8615   */\n      dup3\n        /* \"#utility.yul\":8602:8620   */\n      add\n        /* \"#utility.yul\":8594:8620   */\n      swap1\n      pop\n        /* \"#utility.yul\":8630:8701   */\n      tag_419\n        /* \"#utility.yul\":8698:8699   */\n      0x00\n        /* \"#utility.yul\":8687:8696   */\n      dup4\n        /* \"#utility.yul\":8683:8700   */\n      add\n        /* \"#utility.yul\":8674:8680   */\n      dup6\n        /* \"#utility.yul\":8630:8701   */\n      tag_349\n      jump\t// in\n    tag_419:\n        /* \"#utility.yul\":8711:8783   */\n      tag_420\n        /* \"#utility.yul\":8779:8781   */\n      0x20\n        /* \"#utility.yul\":8768:8777   */\n      dup4\n        /* \"#utility.yul\":8764:8782   */\n      add\n        /* \"#utility.yul\":8755:8761   */\n      dup5\n        /* \"#utility.yul\":8711:8783   */\n      tag_384\n      jump\t// in\n    tag_420:\n        /* \"#utility.yul\":8584:8790   */\n      swap4\n      swap3\n      pop\n      pop\n      pop\n      jump\t// out\n        /* \"#utility.yul\":8796:9215   */\n    tag_35:\n      0x00\n        /* \"#utility.yul\":8973:8975   */\n      0x40\n        /* \"#utility.yul\":8962:8971   */\n      dup3\n        /* \"#utility.yul\":8958:8976   */\n      add\n        /* \"#utility.yul\":8950:8976   */\n      swap1\n      pop\n        /* \"#utility.yul\":9022:9031   */\n      dup2\n        /* \"#utility.yul\":9016:9020   */\n      dup2\n        /* \"#utility.yul\":9012:9032   */\n      sub\n        /* \"#utility.yul\":9008:9009   */\n      0x00\n        /* \"#utility.yul\":8997:9006   */\n      dup4\n        /* \"#utility.yul\":8993:9010   */\n      add\n        /* \"#utility.yul\":8986:9033   */\n      mstore\n        /* \"#utility.yul\":9050:9126   */\n      tag_422\n        /* \"#utility.yul\":9121:9125   */\n      dup2\n        /* \"#utility.yul\":9112:9118   */\n      dup6\n        /* \"#utility.yul\":9050:9126   */\n      tag_357\n      jump\t// in\n    tag_422:\n        /* \"#utility.yul\":9042:9126   */\n      swap1\n      pop\n        /* \"#utility.yul\":9136:9208   */\n      tag_423\n        /* \"#utility.yul\":9204:9206   */\n      0x20\n        /* \"#utility.yul\":9193:9202   */\n      dup4\n        /* \"#utility.yul\":9189:9207   */\n      add\n        /* \"#utility.yul\":9180:9186   */\n      dup5\n        /* \"#utility.yul\":9136:9208   */\n      tag_384\n      jump\t// in\n    tag_423:\n        /* \"#utility.yul\":8940:9215   */\n      swap4\n      swap3\n      pop\n      pop\n      pop\n      jump\t// out\n        /* \"#utility.yul\":9221:9640   */\n    tag_237:\n      0x00\n        /* \"#utility.yul\":9425:9427   */\n      0x20\n        /* \"#utility.yul\":9414:9423   */\n      dup3\n        /* \"#utility.yul\":9410:9428   */\n      add\n        /* \"#utility.yul\":9402:9428   */\n      swap1\n      pop\n        /* \"#utility.yul\":9474:9483   */\n      dup2\n        /* \"#utility.yul\":9468:9472   */\n      dup2\n        /* \"#utility.yul\":9464:9484   */\n      sub\n        /* \"#utility.yul\":9460:9461   */\n      0x00\n        /* \"#utility.yul\":9449:9458   */\n      dup4\n        /* \"#utility.yul\":9445:9462   */\n      add\n        /* \"#utility.yul\":9438:9485   */\n      mstore\n        /* \"#utility.yul\":9502:9633   */\n      tag_425\n        /* \"#utility.yul\":9628:9632   */\n      dup2\n        /* \"#utility.yul\":9502:9633   */\n      tag_375\n      jump\t// in\n    tag_425:\n        /* \"#utility.yul\":9494:9633   */\n      swap1\n      pop\n        /* \"#utility.yul\":9392:9640   */\n      swap2\n      swap1\n      pop\n      jump\t// out\n        /* \"#utility.yul\":9646:9868   */\n    tag_21:\n      0x00\n        /* \"#utility.yul\":9777:9779   */\n      0x20\n        /* \"#utility.yul\":9766:9775   */\n      dup3\n        /* \"#utility.yul\":9762:9780   */\n      add\n        /* \"#utility.yul\":9754:9780   */\n      swap1\n      pop\n        /* \"#utility.yul\":9790:9861   */\n      tag_427\n        /* \"#utility.yul\":9858:9859   */\n      0x00\n        /* \"#utility.yul\":9847:9856   */\n      dup4\n        /* \"#utility.yul\":9843:9860   */\n      add\n        /* \"#utility.yul\":9834:9840   */\n      dup5\n        /* \"#utility.yul\":9790:9861   */\n      tag_384\n      jump\t// in\n    tag_427:\n        /* \"#utility.yul\":9744:9868   */\n      swap3\n      swap2\n      pop\n      pop\n      jump\t// out\n        /* \"#utility.yul\":9874:10316   */\n    tag_246:\n      0x00\n        /* \"#utility.yul\":10061:10063   */\n      0x60\n        /* \"#utility.yul\":10050:10059   */\n      dup3\n        /* \"#utility.yul\":10046:10064   */\n      add\n        /* \"#utility.yul\":10038:10064   */\n      swap1\n      pop\n        /* \"#utility.yul\":10074:10145   */\n      tag_429\n        /* \"#utility.yul\":10142:10143   */\n      0x00\n        /* \"#utility.yul\":10131:10140   */\n      dup4\n        /* \"#utility.yul\":10127:10144   */\n      add\n        /* \"#utility.yul\":10118:10124   */\n      dup7\n        /* \"#utility.yul\":10074:10145   */\n      tag_384\n      jump\t// in\n    tag_429:\n        /* \"#utility.yul\":10155:10227   */\n      tag_430\n        /* \"#utility.yul\":10223:10225   */\n      0x20\n        /* \"#utility.yul\":10212:10221   */\n      dup4\n        /* \"#utility.yul\":10208:10226   */\n      add\n        /* \"#utility.yul\":10199:10205   */\n      dup6\n        /* \"#utility.yul\":10155:10227   */\n      tag_349\n      jump\t// in\n    tag_430:\n        /* \"#utility.yul\":10237:10309   */\n      tag_431\n        /* \"#utility.yul\":10305:10307   */\n      0x40\n        /* \"#utility.yul\":10294:10303   */\n      dup4\n        /* \"#utility.yul\":10290:10308   */\n      add\n        /* \"#utility.yul\":10281:10287   */\n      dup5\n        /* \"#utility.yul\":10237:10309   */\n      tag_349\n      jump\t// in\n    tag_431:\n        /* \"#utility.yul\":10028:10316   */\n      swap5\n      swap4\n      pop\n      pop\n      pop\n      pop\n      jump\t// out\n        /* \"#utility.yul\":10322:10454   */\n    tag_339:\n      0x00\n        /* \"#utility.yul\":10412:10415   */\n      dup2\n        /* \"#utility.yul\":10404:10415   */\n      swap1\n      pop\n        /* \"#utility.yul\":10442:10446   */\n      0x20\n        /* \"#utility.yul\":10437:10440   */\n      dup3\n        /* \"#utility.yul\":10433:10447   */\n      add\n        /* \"#utility.yul\":10425:10447   */\n      swap1\n      pop\n        /* \"#utility.yul\":10394:10454   */\n      swap2\n      swap1\n      pop\n      jump\t// out\n        /* \"#utility.yul\":10460:10574   */\n    tag_335:\n      0x00\n        /* \"#utility.yul\":10561:10566   */\n      dup2\n        /* \"#utility.yul\":10555:10567   */\n      mload\n        /* \"#utility.yul\":10545:10567   */\n      swap1\n      pop\n        /* \"#utility.yul\":10534:10574   */\n      swap2\n      swap1\n      pop\n      jump\t// out\n        /* \"#utility.yul\":10580:10678   */\n    tag_360:\n      0x00\n        /* \"#utility.yul\":10665:10670   */\n      dup2\n        /* \"#utility.yul\":10659:10671   */\n      mload\n        /* \"#utility.yul\":10649:10671   */\n      swap1\n      pop\n        /* \"#utility.yul\":10638:10678   */\n      swap2\n      swap1\n      pop\n      jump\t// out\n        /* \"#utility.yul\":10684:10783   */\n    tag_370:\n      0x00\n        /* \"#utility.yul\":10770:10775   */\n      dup2\n        /* \"#utility.yul\":10764:10776   */\n      mload\n        /* \"#utility.yul\":10754:10776   */\n      swap1\n      pop\n        /* \"#utility.yul\":10743:10783   */\n      swap2\n      swap1\n      pop\n      jump\t// out\n        /* \"#utility.yul\":10789:10902   */\n    tag_345:\n      0x00\n        /* \"#utility.yul\":10891:10895   */\n      0x20\n        /* \"#utility.yul\":10886:10889   */\n      dup3\n        /* \"#utility.yul\":10882:10896   */\n      add\n        /* \"#utility.yul\":10874:10896   */\n      swap1\n      pop\n        /* \"#utility.yul\":10864:10902   */\n      swap2\n      swap1\n      pop\n      jump\t// out\n        /* \"#utility.yul\":10908:11092   */\n    tag_337:\n      0x00\n        /* \"#utility.yul\":11041:11047   */\n      dup3\n        /* \"#utility.yul\":11036:11039   */\n      dup3\n        /* \"#utility.yul\":11029:11048   */\n      mstore\n        /* \"#utility.yul\":11081:11085   */\n      0x20\n        /* \"#utility.yul\":11076:11079   */\n      dup3\n        /* \"#utility.yul\":11072:11086   */\n      add\n        /* \"#utility.yul\":11057:11086   */\n      swap1\n      pop\n        /* \"#utility.yul\":11019:11092   */\n      swap3\n      swap2\n      pop\n      pop\n      jump\t// out\n        /* \"#utility.yul\":11098:11266   */\n    tag_362:\n      0x00\n        /* \"#utility.yul\":11215:11221   */\n      dup3\n        /* \"#utility.yul\":11210:11213   */\n      dup3\n        /* \"#utility.yul\":11203:11222   */\n      mstore\n        /* \"#utility.yul\":11255:11259   */\n      0x20\n        /* \"#utility.yul\":11250:11253   */\n      dup3\n        /* \"#utility.yul\":11246:11260   */\n      add\n        /* \"#utility.yul\":11231:11260   */\n      swap1\n      pop\n        /* \"#utility.yul\":11193:11266   */\n      swap3\n      swap2\n      pop\n      pop\n      jump\t// out\n        /* \"#utility.yul\":11272:11441   */\n    tag_372:\n      0x00\n        /* \"#utility.yul\":11390:11396   */\n      dup3\n        /* \"#utility.yul\":11385:11388   */\n      dup3\n        /* \"#utility.yul\":11378:11397   */\n      mstore\n        /* \"#utility.yul\":11430:11434   */\n      0x20\n        /* \"#utility.yul\":11425:11428   */\n      dup3\n        /* \"#utility.yul\":11421:11435   */\n      add\n        /* \"#utility.yul\":11406:11435   */\n      swap1\n      pop\n        /* \"#utility.yul\":11368:11441   */\n      swap3\n      swap2\n      pop\n      pop\n      jump\t// out\n        /* \"#utility.yul\":11447:11689   */\n    tag_107:\n      0x00\n        /* \"#utility.yul\":11505:11524   */\n      tag_441\n        /* \"#utility.yul\":11522:11523   */\n      dup3\n        /* \"#utility.yul\":11505:11524   */\n      tag_383\n      jump\t// in\n    tag_441:\n        /* \"#utility.yul\":11500:11524   */\n      swap2\n      pop\n        /* \"#utility.yul\":11538:11557   */\n      tag_442\n        /* \"#utility.yul\":11555:11556   */\n      dup4\n        /* \"#utility.yul\":11538:11557   */\n      tag_383\n      jump\t// in\n    tag_442:\n        /* \"#utility.yul\":11533:11557   */\n      swap3\n      pop\n        /* \"#utility.yul\":11631:11632   */\n      dup3\n        /* \"#utility.yul\":11623:11629   */\n      0xffff\n        /* \"#utility.yul\":11619:11633   */\n      sub\n        /* \"#utility.yul\":11616:11617   */\n      dup3\n        /* \"#utility.yul\":11613:11634   */\n      gt\n        /* \"#utility.yul\":11610:11612   */\n      iszero\n      tag_443\n      jumpi\n        /* \"#utility.yul\":11637:11655   */\n      tag_444\n      tag_445\n      jump\t// in\n    tag_444:\n        /* \"#utility.yul\":11610:11612   */\n    tag_443:\n        /* \"#utility.yul\":11681:11682   */\n      dup3\n        /* \"#utility.yul\":11678:11679   */\n      dup3\n        /* \"#utility.yul\":11674:11683   */\n      add\n        /* \"#utility.yul\":11667:11683   */\n      swap1\n      pop\n        /* \"#utility.yul\":11490:11689   */\n      swap3\n      swap2\n      pop\n      pop\n      jump\t// out\n        /* \"#utility.yul\":11695:11880   */\n    tag_275:\n      0x00\n        /* \"#utility.yul\":11752:11772   */\n      tag_447\n        /* \"#utility.yul\":11770:11771   */\n      dup3\n        /* \"#utility.yul\":11752:11772   */\n      tag_387\n      jump\t// in\n    tag_447:\n        /* \"#utility.yul\":11747:11772   */\n      swap2\n      pop\n        /* \"#utility.yul\":11786:11806   */\n      tag_448\n        /* \"#utility.yul\":11804:11805   */\n      dup4\n        /* \"#utility.yul\":11786:11806   */\n      tag_387\n      jump\t// in\n    tag_448:\n        /* \"#utility.yul\":11781:11806   */\n      swap3\n      pop\n        /* \"#utility.yul\":11825:11826   */\n      dup3\n        /* \"#utility.yul\":11815:11817   */\n      tag_449\n      jumpi\n        /* \"#utility.yul\":11830:11848   */\n      tag_450\n      tag_451\n      jump\t// in\n    tag_450:\n        /* \"#utility.yul\":11815:11817   */\n    tag_449:\n        /* \"#utility.yul\":11872:11873   */\n      dup3\n        /* \"#utility.yul\":11869:11870   */\n      dup3\n        /* \"#utility.yul\":11865:11874   */\n      div\n        /* \"#utility.yul\":11860:11874   */\n      swap1\n      pop\n        /* \"#utility.yul\":11737:11880   */\n      swap3\n      swap2\n      pop\n      pop\n      jump\t// out\n        /* \"#utility.yul\":11886:12171   */\n    tag_68:\n      0x00\n        /* \"#utility.yul\":11948:11967   */\n      tag_453\n        /* \"#utility.yul\":11965:11966   */\n      dup3\n        /* \"#utility.yul\":11948:11967   */\n      tag_383\n      jump\t// in\n    tag_453:\n        /* \"#utility.yul\":11943:11967   */\n      swap2\n      pop\n        /* \"#utility.yul\":11981:12000   */\n      tag_454\n        /* \"#utility.yul\":11998:11999   */\n      dup4\n        /* \"#utility.yul\":11981:12000   */\n      tag_383\n      jump\t// in\n    tag_454:\n        /* \"#utility.yul\":11976:12000   */\n      swap3\n      pop\n        /* \"#utility.yul\":12108:12109   */\n      dup2\n        /* \"#utility.yul\":12100:12106   */\n      0xffff\n        /* \"#utility.yul\":12096:12110   */\n      div\n        /* \"#utility.yul\":12093:12094   */\n      dup4\n        /* \"#utility.yul\":12090:12111   */\n      gt\n        /* \"#utility.yul\":12085:12086   */\n      dup3\n        /* \"#utility.yul\":12078:12087   */\n      iszero\n        /* \"#utility.yul\":12071:12088   */\n      iszero\n        /* \"#utility.yul\":12067:12112   */\n      and\n        /* \"#utility.yul\":12064:12066   */\n      iszero\n      tag_455\n      jumpi\n        /* \"#utility.yul\":12115:12133   */\n      tag_456\n      tag_445\n      jump\t// in\n    tag_456:\n        /* \"#utility.yul\":12064:12066   */\n    tag_455:\n        /* \"#utility.yul\":12163:12164   */\n      dup3\n        /* \"#utility.yul\":12160:12161   */\n      dup3\n        /* \"#utility.yul\":12156:12165   */\n      mul\n        /* \"#utility.yul\":12145:12165   */\n      swap1\n      pop\n        /* \"#utility.yul\":11933:12171   */\n      swap3\n      swap2\n      pop\n      pop\n      jump\t// out\n        /* \"#utility.yul\":12177:12525   */\n    tag_282:\n      0x00\n        /* \"#utility.yul\":12240:12260   */\n      tag_458\n        /* \"#utility.yul\":12258:12259   */\n      dup3\n        /* \"#utility.yul\":12240:12260   */\n      tag_387\n      jump\t// in\n    tag_458:\n        /* \"#utility.yul\":12235:12260   */\n      swap2\n      pop\n        /* \"#utility.yul\":12274:12294   */\n      tag_459\n        /* \"#utility.yul\":12292:12293   */\n      dup4\n        /* \"#utility.yul\":12274:12294   */\n      tag_387\n      jump\t// in\n    tag_459:\n        /* \"#utility.yul\":12269:12294   */\n      swap3\n      pop\n        /* \"#utility.yul\":12462:12463   */\n      dup2\n        /* \"#utility.yul\":12394:12460   */\n      0xffffffffffffffffffffffffffffffffffffffffffffffffffffffffffffffff\n        /* \"#utility.yul\":12390:12464   */\n      div\n        /* \"#utility.yul\":12387:12388   */\n      dup4\n        /* \"#utility.yul\":12384:12465   */\n      gt\n        /* \"#utility.yul\":12379:12380   */\n      dup3\n        /* \"#utility.yul\":12372:12381   */\n      iszero\n        /* \"#utility.yul\":12365:12382   */\n      iszero\n        /* \"#utility.yul\":12361:12466   */\n      and\n        /* \"#utility.yul\":12358:12360   */\n      iszero\n      tag_460\n      jumpi\n        /* \"#utility.yul\":12469:12487   */\n      tag_461\n      tag_445\n      jump\t// in\n    tag_461:\n        /* \"#utility.yul\":12358:12360   */\n    tag_460:\n        /* \"#utility.yul\":12517:12518   */\n      dup3\n        /* \"#utility.yul\":12514:12515   */\n      dup3\n        /* \"#utility.yul\":12510:12519   */\n      mul\n        /* \"#utility.yul\":12499:12519   */\n      swap1\n      pop\n        /* \"#utility.yul\":12225:12525   */\n      swap3\n      swap2\n      pop\n      pop\n      jump\t// out\n        /* \"#utility.yul\":12531:12722   */\n    tag_122:\n      0x00\n        /* \"#utility.yul\":12591:12611   */\n      tag_463\n        /* \"#utility.yul\":12609:12610   */\n      dup3\n        /* \"#utility.yul\":12591:12611   */\n      tag_387\n      jump\t// in\n    tag_463:\n        /* \"#utility.yul\":12586:12611   */\n      swap2\n      pop\n        /* \"#utility.yul\":12625:12645   */\n      tag_464\n        /* \"#utility.yul\":12643:12644   */\n      dup4\n        /* \"#utility.yul\":12625:12645   */\n      tag_387\n      jump\t// in\n    tag_464:\n        /* \"#utility.yul\":12620:12645   */\n      swap3\n      pop\n        /* \"#utility.yul\":12664:12665   */\n      dup3\n        /* \"#utility.yul\":12661:12662   */\n      dup3\n        /* \"#utility.yul\":12658:12666   */\n      lt\n        /* \"#utility.yul\":12655:12657   */\n      iszero\n      tag_465\n      jumpi\n        /* \"#utility.yul\":12669:12687   */\n      tag_466\n      tag_445\n      jump\t// in\n    tag_466:\n        /* \"#utility.yul\":12655:12657   */\n    tag_465:\n        /* \"#utility.yul\":12714:12715   */\n      dup3\n        /* \"#utility.yul\":12711:12712   */\n      dup3\n        /* \"#utility.yul\":12707:12716   */\n      sub\n        /* \"#utility.yul\":12699:12716   */\n      swap1\n      pop\n        /* \"#utility.yul\":12576:12722   */\n      swap3\n      swap2\n      pop\n      pop\n      jump\t// out\n        /* \"#utility.yul\":12728:12824   */\n    tag_467:\n      0x00\n        /* \"#utility.yul\":12794:12818   */\n      tag_469\n        /* \"#utility.yul\":12812:12817   */\n      dup3\n        /* \"#utility.yul\":12794:12818   */\n      tag_470\n      jump\t// in\n    tag_469:\n        /* \"#utility.yul\":12783:12818   */\n      swap1\n      pop\n        /* \"#utility.yul\":12773:12824   */\n      swap2\n      swap1\n      pop\n      jump\t// out\n        /* \"#utility.yul\":12830:12907   */\n    tag_348:\n      0x00\n        /* \"#utility.yul\":12896:12901   */\n      dup2\n        /* \"#utility.yul\":12885:12901   */\n      swap1\n      pop\n        /* \"#utility.yul\":12875:12907   */\n      swap2\n      swap1\n      pop\n      jump\t// out\n        /* \"#utility.yul\":12913:13002   */\n    tag_383:\n      0x00\n        /* \"#utility.yul\":12989:12995   */\n      0xffff\n        /* \"#utility.yul\":12982:12987   */\n      dup3\n        /* \"#utility.yul\":12978:12996   */\n      and\n        /* \"#utility.yul\":12967:12996   */\n      swap1\n      pop\n        /* \"#utility.yul\":12957:13002   */\n      swap2\n      swap1\n      pop\n      jump\t// out\n        /* \"#utility.yul\":13008:13134   */\n    tag_470:\n      0x00\n        /* \"#utility.yul\":13085:13127   */\n      0xffffffffffffffffffffffffffffffffffffffff\n        /* \"#utility.yul\":13078:13083   */\n      dup3\n        /* \"#utility.yul\":13074:13128   */\n      and\n        /* \"#utility.yul\":13063:13128   */\n      swap1\n      pop\n        /* \"#utility.yul\":13053:13134   */\n      swap2\n      swap1\n      pop\n      jump\t// out\n        /* \"#utility.yul\":13140:13217   */\n    tag_387:\n      0x00\n        /* \"#utility.yul\":13206:13211   */\n      dup2\n        /* \"#utility.yul\":13195:13211   */\n      swap1\n      pop\n        /* \"#utility.yul\":13185:13217   */\n      swap2\n      swap1\n      pop\n      jump\t// out\n        /* \"#utility.yul\":13223:13530   */\n    tag_364:\n        /* \"#utility.yul\":13291:13292   */\n      0x00\n        /* \"#utility.yul\":13301:13414   */\n    tag_476:\n        /* \"#utility.yul\":13315:13321   */\n      dup4\n        /* \"#utility.yul\":13312:13313   */\n      dup2\n        /* \"#utility.yul\":13309:13322   */\n      lt\n        /* \"#utility.yul\":13301:13414   */\n      iszero\n      tag_478\n      jumpi\n        /* \"#utility.yul\":13400:13401   */\n      dup1\n        /* \"#utility.yul\":13395:13398   */\n      dup3\n        /* \"#utility.yul\":13391:13402   */\n      add\n        /* \"#utility.yul\":13385:13403   */\n      mload\n        /* \"#utility.yul\":13381:13382   */\n      dup2\n        /* \"#utility.yul\":13376:13379   */\n      dup5\n        /* \"#utility.yul\":13372:13383   */\n      add\n        /* \"#utility.yul\":13365:13404   */\n      mstore\n        /* \"#utility.yul\":13337:13339   */\n      0x20\n        /* \"#utility.yul\":13334:13335   */\n      dup2\n        /* \"#utility.yul\":13330:13340   */\n      add\n        /* \"#utility.yul\":13325:13340   */\n      swap1\n      pop\n        /* \"#utility.yul\":13301:13414   */\n      jump(tag_476)\n    tag_478:\n        /* \"#utility.yul\":13432:13438   */\n      dup4\n        /* \"#utility.yul\":13429:13430   */\n      dup2\n        /* \"#utility.yul\":13426:13439   */\n      gt\n        /* \"#utility.yul\":13423:13425   */\n      iszero\n      tag_479\n      jumpi\n        /* \"#utility.yul\":13512:13513   */\n      0x00\n        /* \"#utility.yul\":13503:13509   */\n      dup5\n        /* \"#utility.yul\":13498:13501   */\n      dup5\n        /* \"#utility.yul\":13494:13510   */\n      add\n        /* \"#utility.yul\":13487:13514   */\n      mstore\n        /* \"#utility.yul\":13423:13425   */\n    tag_479:\n        /* \"#utility.yul\":13272:13530   */\n      pop\n      pop\n      pop\n      pop\n      jump\t// out\n        /* \"#utility.yul\":13536:13705   */\n    tag_250:\n      0x00\n        /* \"#utility.yul\":13597:13620   */\n      tag_481\n        /* \"#utility.yul\":13614:13619   */\n      dup3\n        /* \"#utility.yul\":13597:13620   */\n      tag_383\n      jump\t// in\n    tag_481:\n        /* \"#utility.yul\":13588:13620   */\n      swap2\n      pop\n        /* \"#utility.yul\":13642:13646   */\n      0x00\n        /* \"#utility.yul\":13635:13640   */\n      dup3\n        /* \"#utility.yul\":13632:13647   */\n      eq\n        /* \"#utility.yul\":13629:13631   */\n      iszero\n      tag_482\n      jumpi\n        /* \"#utility.yul\":13650:13668   */\n      tag_483\n      tag_445\n      jump\t// in\n    tag_483:\n        /* \"#utility.yul\":13629:13631   */\n    tag_482:\n        /* \"#utility.yul\":13697:13698   */\n      0x01\n        /* \"#utility.yul\":13690:13695   */\n      dup3\n        /* \"#utility.yul\":13686:13699   */\n      sub\n        /* \"#utility.yul\":13679:13699   */\n      swap1\n      pop\n        /* \"#utility.yul\":13578:13705   */\n      swap2\n      swap1\n      pop\n      jump\t// out\n        /* \"#utility.yul\":13711:14031   */\n    tag_84:\n      0x00\n        /* \"#utility.yul\":13792:13793   */\n      0x02\n        /* \"#utility.yul\":13786:13790   */\n      dup3\n        /* \"#utility.yul\":13782:13794   */\n      div\n        /* \"#utility.yul\":13772:13794   */\n      swap1\n      pop\n        /* \"#utility.yul\":13839:13840   */\n      0x01\n        /* \"#utility.yul\":13833:13837   */\n      dup3\n        /* \"#utility.yul\":13829:13841   */\n      and\n        /* \"#utility.yul\":13860:13878   */\n      dup1\n        /* \"#utility.yul\":13850:13852   */\n      tag_485\n      jumpi\n        /* \"#utility.yul\":13916:13920   */\n      0x7f\n        /* \"#utility.yul\":13908:13914   */\n      dup3\n        /* \"#utility.yul\":13904:13921   */\n      and\n        /* \"#utility.yul\":13894:13921   */\n      swap2\n      pop\n        /* \"#utility.yul\":13850:13852   */\n    tag_485:\n        /* \"#utility.yul\":13978:13980   */\n      0x20\n        /* \"#utility.yul\":13970:13976   */\n      dup3\n        /* \"#utility.yul\":13967:13981   */\n      lt\n        /* \"#utility.yul\":13947:13965   */\n      dup2\n        /* \"#utility.yul\":13944:13982   */\n      eq\n        /* \"#utility.yul\":13941:13943   */\n      iszero\n      tag_486\n      jumpi\n        /* \"#utility.yul\":13997:14015   */\n      tag_487\n      tag_488\n      jump\t// in\n    tag_487:\n        /* \"#utility.yul\":13941:13943   */\n    tag_486:\n        /* \"#utility.yul\":13762:14031   */\n      pop\n      swap2\n      swap1\n      pop\n      jump\t// out\n        /* \"#utility.yul\":14037:14208   */\n    tag_240:\n      0x00\n        /* \"#utility.yul\":14098:14121   */\n      tag_490\n        /* \"#utility.yul\":14115:14120   */\n      dup3\n        /* \"#utility.yul\":14098:14121   */\n      tag_383\n      jump\t// in\n    tag_490:\n        /* \"#utility.yul\":14089:14121   */\n      swap2\n      pop\n        /* \"#utility.yul\":14143:14149   */\n      0xffff\n        /* \"#utility.yul\":14136:14141   */\n      dup3\n        /* \"#utility.yul\":14133:14150   */\n      eq\n        /* \"#utility.yul\":14130:14132   */\n      iszero\n      tag_491\n      jumpi\n        /* \"#utility.yul\":14153:14171   */\n      tag_492\n      tag_445\n      jump\t// in\n    tag_492:\n        /* \"#utility.yul\":14130:14132   */\n    tag_491:\n        /* \"#utility.yul\":14200:14201   */\n      0x01\n        /* \"#utility.yul\":14193:14198   */\n      dup3\n        /* \"#utility.yul\":14189:14202   */\n      add\n        /* \"#utility.yul\":14182:14202   */\n      swap1\n      pop\n        /* \"#utility.yul\":14079:14208   */\n      swap2\n      swap1\n      pop\n      jump\t// out\n        /* \"#utility.yul\":14214:14447   */\n    tag_199:\n      0x00\n        /* \"#utility.yul\":14276:14300   */\n      tag_494\n        /* \"#utility.yul\":14294:14299   */\n      dup3\n        /* \"#utility.yul\":14276:14300   */\n      tag_387\n      jump\t// in\n    tag_494:\n        /* \"#utility.yul\":14267:14300   */\n      swap2\n      pop\n        /* \"#utility.yul\":14322:14388   */\n      0xffffffffffffffffffffffffffffffffffffffffffffffffffffffffffffffff\n        /* \"#utility.yul\":14315:14320   */\n      dup3\n        /* \"#utility.yul\":14312:14389   */\n      eq\n        /* \"#utility.yul\":14309:14311   */\n      iszero\n      tag_495\n      jumpi\n        /* \"#utility.yul\":14392:14410   */\n      tag_496\n      tag_445\n      jump\t// in\n    tag_496:\n        /* \"#utility.yul\":14309:14311   */\n    tag_495:\n        /* \"#utility.yul\":14439:14440   */\n      0x01\n        /* \"#utility.yul\":14432:14437   */\n      dup3\n        /* \"#utility.yul\":14428:14441   */\n      add\n        /* \"#utility.yul\":14421:14441   */\n      swap1\n      pop\n        /* \"#utility.yul\":14257:14447   */\n      swap2\n      swap1\n      pop\n      jump\t// out\n        /* \"#utility.yul\":14453:14532   */\n    tag_356:\n      0x00\n        /* \"#utility.yul\":14521:14526   */\n      dup2\n        /* \"#utility.yul\":14510:14526   */\n      swap1\n      pop\n        /* \"#utility.yul\":14500:14532   */\n      swap2\n      swap1\n      pop\n      jump\t// out\n        /* \"#utility.yul\":14538:14714   */\n    tag_277:\n      0x00\n        /* \"#utility.yul\":14587:14607   */\n      tag_499\n        /* \"#utility.yul\":14605:14606   */\n      dup3\n        /* \"#utility.yul\":14587:14607   */\n      tag_387\n      jump\t// in\n    tag_499:\n        /* \"#utility.yul\":14582:14607   */\n      swap2\n      pop\n        /* \"#utility.yul\":14621:14641   */\n      tag_500\n        /* \"#utility.yul\":14639:14640   */\n      dup4\n        /* \"#utility.yul\":14621:14641   */\n      tag_387\n      jump\t// in\n    tag_500:\n        /* \"#utility.yul\":14616:14641   */\n      swap3\n      pop\n        /* \"#utility.yul\":14660:14661   */\n      dup3\n        /* \"#utility.yul\":14650:14652   */\n      tag_501\n      jumpi\n        /* \"#utility.yul\":14665:14683   */\n      tag_502\n      tag_451\n      jump\t// in\n    tag_502:\n        /* \"#utility.yul\":14650:14652   */\n    tag_501:\n        /* \"#utility.yul\":14706:14707   */\n      dup3\n        /* \"#utility.yul\":14703:14704   */\n      dup3\n        /* \"#utility.yul\":14699:14708   */\n      mod\n        /* \"#utility.yul\":14694:14708   */\n      swap1\n      pop\n        /* \"#utility.yul\":14572:14714   */\n      swap3\n      swap2\n      pop\n      pop\n      jump\t// out\n        /* \"#utility.yul\":14720:14900   */\n    tag_445:\n        /* \"#utility.yul\":14768:14845   */\n      0x4e487b7100000000000000000000000000000000000000000000000000000000\n        /* \"#utility.yul\":14765:14766   */\n      0x00\n        /* \"#utility.yul\":14758:14846   */\n      mstore\n        /* \"#utility.yul\":14865:14869   */\n      0x11\n        /* \"#utility.yul\":14862:14863   */\n      0x04\n        /* \"#utility.yul\":14855:14870   */\n      mstore\n        /* \"#utility.yul\":14889:14893   */\n      0x24\n        /* \"#utility.yul\":14886:14887   */\n      0x00\n        /* \"#utility.yul\":14879:14894   */\n      revert\n        /* \"#utility.yul\":14906:15086   */\n    tag_451:\n        /* \"#utility.yul\":14954:15031   */\n      0x4e487b7100000000000000000000000000000000000000000000000000000000\n        /* \"#utility.yul\":14951:14952   */\n      0x00\n        /* \"#utility.yul\":14944:15032   */\n      mstore\n        /* \"#utility.yul\":15051:15055   */\n      0x12\n        /* \"#utility.yul\":15048:15049   */\n      0x04\n        /* \"#utility.yul\":15041:15056   */\n      mstore\n        /* \"#utility.yul\":15075:15079   */\n      0x24\n        /* \"#utility.yul\":15072:15073   */\n      0x00\n        /* \"#utility.yul\":15065:15080   */\n      revert\n        /* \"#utility.yul\":15092:15272   */\n    tag_488:\n        /* \"#utility.yul\":15140:15217   */\n      0x4e487b7100000000000000000000000000000000000000000000000000000000\n        /* \"#utility.yul\":15137:15138   */\n      0x00\n        /* \"#utility.yul\":15130:15218   */\n      mstore\n        /* \"#utility.yul\":15237:15241   */\n      0x22\n        /* \"#utility.yul\":15234:15235   */\n      0x04\n        /* \"#utility.yul\":15227:15242   */\n      mstore\n        /* \"#utility.yul\":15261:15265   */\n      0x24\n        /* \"#utility.yul\":15258:15259   */\n      0x00\n        /* \"#utility.yul\":15251:15266   */\n      revert\n        /* \"#utility.yul\":15278:15380   */\n    tag_366:\n      0x00\n        /* \"#utility.yul\":15370:15372   */\n      0x1f\n        /* \"#utility.yul\":15366:15373   */\n      not\n        /* \"#utility.yul\":15361:15363   */\n      0x1f\n        /* \"#utility.yul\":15354:15359   */\n      dup4\n        /* \"#utility.yul\":15350:15364   */\n      add\n        /* \"#utility.yul\":15346:15374   */\n      and\n        /* \"#utility.yul\":15336:15374   */\n      swap1\n      pop\n        /* \"#utility.yul\":15326:15380   */\n      swap2\n      swap1\n      pop\n      jump\t// out\n        /* \"#utility.yul\":15386:15616   */\n    tag_379:\n        /* \"#utility.yul\":15526:15560   */\n      0x546865206964206f662074686520696e7375726564206973206e6f7420696e20\n        /* \"#utility.yul\":15522:15523   */\n      0x00\n        /* \"#utility.yul\":15514:15520   */\n      dup3\n        /* \"#utility.yul\":15510:15524   */\n      add\n        /* \"#utility.yul\":15503:15561   */\n      mstore\n        /* \"#utility.yul\":15595:15608   */\n      0x74686520706f6c6963792e000000000000000000000000000000000000000000\n        /* \"#utility.yul\":15590:15592   */\n      0x20\n        /* \"#utility.yul\":15582:15588   */\n      dup3\n        /* \"#utility.yul\":15578:15593   */\n      add\n        /* \"#utility.yul\":15571:15609   */\n      mstore\n        /* \"#utility.yul\":15492:15616   */\n      pop\n      jump\t// out\n        /* \"#utility.yul\":15622:15744   */\n    tag_304:\n        /* \"#utility.yul\":15695:15719   */\n      tag_509\n        /* \"#utility.yul\":15713:15718   */\n      dup2\n        /* \"#utility.yul\":15695:15719   */\n      tag_467\n      jump\t// in\n    tag_509:\n        /* \"#utility.yul\":15688:15693   */\n      dup2\n        /* \"#utility.yul\":15685:15720   */\n      eq\n        /* \"#utility.yul\":15675:15677   */\n      tag_510\n      jumpi\n        /* \"#utility.yul\":15734:15735   */\n      0x00\n        /* \"#utility.yul\":15731:15732   */\n      dup1\n        /* \"#utility.yul\":15724:15736   */\n      revert\n        /* \"#utility.yul\":15675:15677   */\n    tag_510:\n        /* \"#utility.yul\":15665:15744   */\n      pop\n      jump\t// out\n        /* \"#utility.yul\":15750:15872   */\n    tag_308:\n        /* \"#utility.yul\":15823:15847   */\n      tag_512\n        /* \"#utility.yul\":15841:15846   */\n      dup2\n        /* \"#utility.yul\":15823:15847   */\n      tag_348\n      jump\t// in\n    tag_512:\n        /* \"#utility.yul\":15816:15821   */\n      dup2\n        /* \"#utility.yul\":15813:15848   */\n      eq\n        /* \"#utility.yul\":15803:15805   */\n      tag_513\n      jumpi\n        /* \"#utility.yul\":15862:15863   */\n      0x00\n        /* \"#utility.yul\":15859:15860   */\n      dup1\n        /* \"#utility.yul\":15852:15864   */\n      revert\n        /* \"#utility.yul\":15803:15805   */\n    tag_513:\n        /* \"#utility.yul\":15793:15872   */\n      pop\n      jump\t// out\n        /* \"#utility.yul\":15878:16000   */\n    tag_312:\n        /* \"#utility.yul\":15951:15975   */\n      tag_515\n        /* \"#utility.yul\":15969:15974   */\n      dup2\n        /* \"#utility.yul\":15951:15975   */\n      tag_387\n      jump\t// in\n    tag_515:\n        /* \"#utility.yul\":15944:15949   */\n      dup2\n        /* \"#utility.yul\":15941:15976   */\n      eq\n        /* \"#utility.yul\":15931:15933   */\n      tag_516\n      jumpi\n        /* \"#utility.yul\":15990:15991   */\n      0x00\n        /* \"#utility.yul\":15987:15988   */\n      dup1\n        /* \"#utility.yul\":15980:15992   */\n      revert\n        /* \"#utility.yul\":15931:15933   */\n    tag_516:\n        /* \"#utility.yul\":15921:16000   */\n      pop\n      jump\t// out\n\n    auxdata: 0xa2646970667358221220c277581e69d826c777d352b35ae5690c0aa5b6a76b8f71cc070863027ae11f0064736f6c63430008030033\n}\n",
    "bytecode": {
      "linkReferences": {},
      "object": "60806040523480156200001157600080fd5b50604051620038f3380380620038f3833981810160405281019062000037919062000d3c565b336000806101000a81548173ffffffffffffffffffffffffffffffffffffffff021916908373ffffffffffffffffffffffffffffffffffffffff1602179055506000600160146101000a81548160ff02191690831515021790555080600f6002019080519060200190620000ad9291906200097e565b5081600f6001019080519060200190620000c99291906200097e565b5082600f6000019080519060200190620000e59291906200097e565b508360008151811062000121577f4e487b7100000000000000000000000000000000000000000000000000000000600052603260045260246000fd5b6020026020010151600f60040181905550836001815181106200016d577f4e487b7100000000000000000000000000000000000000000000000000000000600052603260045260246000fd5b6020026020010151600f6005018190555083600281518110620001b9577f4e487b7100000000000000000000000000000000000000000000000000000000600052603260045260246000fd5b6020026020010151600f600601819055508360038151811062000205577f4e487b7100000000000000000000000000000000000000000000000000000000600052603260045260246000fd5b6020026020010151600f600701819055508360048151811062000251577f4e487b7100000000000000000000000000000000000000000000000000000000600052603260045260246000fd5b6020026020010151600f60080181905550836005815181106200029d577f4e487b7100000000000000000000000000000000000000000000000000000000600052603260045260246000fd5b6020026020010151600f6009018190555083600681518110620002e9577f4e487b7100000000000000000000000000000000000000000000000000000000600052603260045260246000fd5b6020026020010151600f600a0181905550600285511462000341576040517f08c379a000000000000000000000000000000000000000000000000000000000815260040162000338906200102d565b60405180910390fd5b846000815181106200037c577f4e487b7100000000000000000000000000000000000000000000000000000000600052603260045260246000fd5b6020026020010151600a60000160006101000a81548161ffff021916908361ffff16021790555084600181518110620003de577f4e487b7100000000000000000000000000000000000000000000000000000000600052603260045260246000fd5b6020026020010151600a60000160026101000a81548161ffff021916908361ffff16021790555060028651146200044c576040517f08c379a000000000000000000000000000000000000000000000000000000000815260040162000443906200100b565b60405180910390fd5b8560018151811062000487577f4e487b7100000000000000000000000000000000000000000000000000000000600052603260045260246000fd5b602002602001015186600081518110620004ca577f4e487b7100000000000000000000000000000000000000000000000000000000600052603260045260246000fd5b60200260200101511062000515576040517f08c379a00000000000000000000000000000000000000000000000000000000081526004016200050c9062001071565b60405180910390fd5b8560008151811062000550577f4e487b7100000000000000000000000000000000000000000000000000000000600052603260045260246000fd5b6020026020010151600a60020181905550856001815181106200059c577f4e487b7100000000000000000000000000000000000000000000000000000000600052603260045260246000fd5b6020026020010151600a6003018190555086600a6004019080519060200190620005c892919062000a0f565b50600288511462000610576040517f08c379a000000000000000000000000000000000000000000000000000000000815260040162000607906200104f565b60405180910390fd5b876001815181106200064b577f4e487b7100000000000000000000000000000000000000000000000000000000600052603260045260246000fd5b6020026020010151600f600301819055508760008151811062000697577f4e487b7100000000000000000000000000000000000000000000000000000000600052603260045260246000fd5b6020026020010151600a600101819055508651895114620006b757600080fd5b86518a5114620006c657600080fd5b60005b875181101562000921576001600460008a848151811062000713577f4e487b7100000000000000000000000000000000000000000000000000000000600052603260045260246000fd5b6020026020010151815260200190815260200160002060006101000a81548160ff0219169083151502179055506203f4804262000751919062001190565b8a82815181106200078b577f4e487b7100000000000000000000000000000000000000000000000000000000600052603260045260246000fd5b60200260200101511015620007d7576040517f08c379a0000000000000000000000000000000000000000000000000000000008152600401620007ce9062000fe9565b60405180910390fd5b89818151811062000811577f4e487b7100000000000000000000000000000000000000000000000000000000600052603260045260246000fd5b6020026020010151600860008a848151811062000857577f4e487b7100000000000000000000000000000000000000000000000000000000600052603260045260246000fd5b60200260200101518152602001908152602001600020819055508a8181518110620008ab577f4e487b7100000000000000000000000000000000000000000000000000000000600052603260045260246000fd5b6020026020010151600760008a8481518110620008f1577f4e487b7100000000000000000000000000000000000000000000000000000000600052603260045260246000fd5b6020026020010151815260200190815260200160002081905550808062000918906200128f565b915050620006c9565b50600a6004018054905060ff16600a60000160066101000a81548161ffff021916908361ffff1602179055506000600a60000160046101000a81548161ffff021916908361ffff160217905550505050505050505050506200157a565b8280546200098c9062001223565b90600052602060002090601f016020900481019282620009b05760008555620009fc565b82601f10620009cb57805160ff1916838001178555620009fc565b82800160010185558215620009fc579182015b82811115620009fb578251825591602001919060010190620009de565b5b50905062000a0b919062000a61565b5090565b82805482825590600052602060002090810192821562000a4e579160200282015b8281111562000a4d57825182559160200191906001019062000a30565b5b50905062000a5d919062000a80565b5090565b5b8082111562000a7c57600081600090555060010162000a62565b5090565b5b8082111562000a9b57600081600090555060010162000a81565b5090565b600062000ab662000ab084620010bc565b62001093565b9050808382526020820190508285602086028201111562000ad657600080fd5b60005b8581101562000b0a578162000aef888262000cca565b84526020840193506020830192505060018101905062000ad9565b5050509392505050565b600062000b2b62000b2584620010eb565b62001093565b9050808382526020820190508285602086028201111562000b4b57600080fd5b60005b8581101562000b7f578162000b64888262000d0e565b84526020840193506020830192505060018101905062000b4e565b5050509392505050565b600062000ba062000b9a846200111a565b62001093565b9050808382526020820190508285602086028201111562000bc057600080fd5b60005b8581101562000bf4578162000bd9888262000d25565b84526020840193506020830192505060018101905062000bc3565b5050509392505050565b600062000c1562000c0f8462001149565b62001093565b90508281526020810184848401111562000c2e57600080fd5b62000c3b848285620011ed565b509392505050565b600082601f83011262000c5557600080fd5b815162000c6784826020860162000a9f565b91505092915050565b600082601f83011262000c8257600080fd5b815162000c9484826020860162000b14565b91505092915050565b600082601f83011262000caf57600080fd5b815162000cc184826020860162000b89565b91505092915050565b60008151905062000cdb816200152c565b92915050565b600082601f83011262000cf357600080fd5b815162000d0584826020860162000bfe565b91505092915050565b60008151905062000d1f8162001546565b92915050565b60008151905062000d368162001560565b92915050565b6000806000806000806000806000806101408b8d03121562000d5d57600080fd5b60008b015167ffffffffffffffff81111562000d7857600080fd5b62000d868d828e0162000c43565b9a505060208b015167ffffffffffffffff81111562000da457600080fd5b62000db28d828e0162000c9d565b99505060408b015167ffffffffffffffff81111562000dd057600080fd5b62000dde8d828e0162000c43565b98505060608b015167ffffffffffffffff81111562000dfc57600080fd5b62000e0a8d828e0162000c43565b97505060808b015167ffffffffffffffff81111562000e2857600080fd5b62000e368d828e0162000c9d565b96505060a08b015167ffffffffffffffff81111562000e5457600080fd5b62000e628d828e0162000c70565b95505060c08b015167ffffffffffffffff81111562000e8057600080fd5b62000e8e8d828e0162000c43565b94505060e08b015167ffffffffffffffff81111562000eac57600080fd5b62000eba8d828e0162000ce1565b9350506101008b015167ffffffffffffffff81111562000ed957600080fd5b62000ee78d828e0162000ce1565b9250506101208b015167ffffffffffffffff81111562000f0657600080fd5b62000f148d828e0162000ce1565b9150509295989b9194979a5092959850565b600062000f356030836200117f565b915062000f42826200137b565b604082019050919050565b600062000f5c602f836200117f565b915062000f6982620013ca565b604082019050919050565b600062000f83604a836200117f565b915062000f908262001419565b606082019050919050565b600062000faa6024836200117f565b915062000fb7826200148e565b604082019050919050565b600062000fd16030836200117f565b915062000fde82620014dd565b604082019050919050565b60006020820190508181036000830152620010048162000f26565b9050919050565b60006020820190508181036000830152620010268162000f4d565b9050919050565b60006020820190508181036000830152620010488162000f74565b9050919050565b600060208201905081810360008301526200106a8162000f9b565b9050919050565b600060208201905081810360008301526200108c8162000fc2565b9050919050565b60006200109f620010b2565b9050620010ad828262001259565b919050565b6000604051905090565b600067ffffffffffffffff821115620010da57620010d96200133b565b5b602082029050602081019050919050565b600067ffffffffffffffff8211156200110957620011086200133b565b5b602082029050602081019050919050565b600067ffffffffffffffff8211156200113857620011376200133b565b5b602082029050602081019050919050565b600067ffffffffffffffff8211156200116757620011666200133b565b5b62001172826200136a565b9050602081019050919050565b600082825260208201905092915050565b60006200119d82620011e3565b9150620011aa83620011e3565b925082821015620011c057620011bf620012dd565b5b828203905092915050565b6000819050919050565b600061ffff82169050919050565b6000819050919050565b60005b838110156200120d578082015181840152602081019050620011f0565b838111156200121d576000848401525b50505050565b600060028204905060018216806200123c57607f821691505b602082108114156200125357620012526200130c565b5b50919050565b62001264826200136a565b810181811067ffffffffffffffff821117156200128657620012856200133b565b5b80604052505050565b60006200129c82620011e3565b91507fffffffffffffffffffffffffffffffffffffffffffffffffffffffffffffffff821415620012d257620012d1620012dd565b5b600182019050919050565b7f4e487b7100000000000000000000000000000000000000000000000000000000600052601160045260246000fd5b7f4e487b7100000000000000000000000000000000000000000000000000000000600052602260045260246000fd5b7f4e487b7100000000000000000000000000000000000000000000000000000000600052604160045260246000fd5b6000601f19601f8301169050919050565b7f436865636b20746861742050435220686173206265656e206e6f206d6f72652060008201527f7468616e203320646179732061676f2e00000000000000000000000000000000602082015250565b7f54686520506f6c696379206e6565642061207374617274206461746520616e6460008201527f20612066696e69736820646174652e0000000000000000000000000000000000602082015250565b7f596f75206861766520746f2070726f766964652074686520616d6f756e74206f60008201527f662064617920636f6d70656e736174696f6e20616e6420746865206e756d626560208201527f72206f6620646179732e00000000000000000000000000000000000000000000604082015250565b7f4d7573742070726f7669646520506f6c69637920494420616e642054616b657260008201527f2049442e00000000000000000000000000000000000000000000000000000000602082015250565b7f54686520737461727420646174652068617320746f206265206265666f72652060008201527f7468652066696e69736820646174652e00000000000000000000000000000000602082015250565b6200153781620011cb565b81146200154357600080fd5b50565b6200155181620011d5565b81146200155d57600080fd5b50565b6200156b81620011e3565b81146200157757600080fd5b50565b612369806200158a6000396000f3fe608060405234801561001057600080fd5b50600436106100cf5760003560e01c806340d5ff581161008c57806392ed93d01161006657806392ed93d0146101dd5780639499e01814610201578063e0caf0bd1461020b578063fc1c7a7014610233576100cf565b806340d5ff58146101995780635d1ca631146101a357806362a681b3146101c1576100cf565b8063121b5a25146100d4578063169e68c3146100f25780632357aef314610126578063236f45d914610142578063297e6306146101615780632d3ff3ee1461017d575b600080fd5b6100dc610251565b6040516100e99190611e79565b60405180910390f35b61010c60048036038101906101079190611a2f565b6102ac565b60405161011d959493929190611d37565b60405180910390f35b610140600480360381019061013b9190611a58565b61033a565b005b61014a6104f6565b604051610158929190611e29565b60405180910390f35b61017b60048036038101906101769190611a06565b611134565b005b61019760048036038101906101929190611a94565b6111ac565b005b6101a161138b565b005b6101ab611430565b6040516101b89190611c5c565b60405180910390f35b6101db60048036038101906101d69190611a2f565b61143d565b005b6101e5611516565b6040516101f89796959493929190611d8a565b60405180910390f35b6102096115dd565b005b61021361166e565b60405161022a9b9a99989796959493929190611c77565b60405180910390f35b61023b611886565b6040516102489190611c5c565b60405180910390f35b6000600a60000160069054906101000a900461ffff16600a60000160029054906101000a900461ffff16600a60000160009054906101000a900461ffff166102999190611fa5565b6102a39190611fa5565b61ffff16905090565b6000806000806000600960008781526020019081526020016000206000015460096000888152602001908152602001600020600201546009600089815260200190815260200160002060030154600960008a815260200190815260200160002060040154600960008b8152602001908152602001600020600101549450945094509450945091939590929450565b60007f504f53495449564500000000000000000000000000000000000000000000000090506000600660008581526020019081526020016000205490508260096000600360008581526020019081526020016000206002600089815260200190815260200160002054815481106103da577f4e487b7100000000000000000000000000000000000000000000000000000000600052603260045260246000fd5b906000526020600020015481526020019081526020016000206000018190555042600960006003600085815260200190815260200160002060026000898152602001908152602001600020548154811061045d577f4e487b7100000000000000000000000000000000000000000000000000000000600052603260045260246000fd5b9060005260206000200154815260200190815260200160002060040181905550818314156104f0576001601a60006101000a81548160ff0219169083151502179055507f55cb01df06ba1925769d5c9d83199624c566e9e81719d4a3d02aee576149d7f981426040516104d1929190611e00565b60405180910390a1600a600301544210156104ef576104ee61138b565b5b5b50505050565b6060600080610591600f600001805461050e90612120565b80601f016020809104026020016040519081016040528092919081815260200182805461053a90612120565b80156105875780601f1061055c57610100808354040283529160200191610587565b820191906000526020600020905b81548152906001019060200180831161056a57829003601f168201915b5050505050611893565b9050600061062b600f60010180546105a890612120565b80601f01602080910402602001604051908101604052809291908181526020018280546105d490612120565b80156106215780601f106105f657610100808354040283529160200191610621565b820191906000526020600020905b81548152906001019060200180831161060457829003601f168201915b5050505050611893565b905060006106c5600f600201805461064290612120565b80601f016020809104026020016040519081016040528092919081815260200182805461066e90612120565b80156106bb5780601f10610690576101008083540402835291602001916106bb565b820191906000526020600020905b81548152906001019060200180831161069e57829003601f168201915b5050505050611893565b90506000601e600a60000160049054906101000a900461ffff1660a06106eb9190611fa5565b6002600a8587896101006002600a60000160069054906101000a900461ffff1660206107179190611fa5565b6107219190611fa5565b600a60000160069054906101000a900461ffff1660206107419190611fa5565b606461074d9190611f3c565b6107579190611f3c565b6107619190611f3c565b61076b9190611f3c565b6107759190611f3c565b61077f9190611f3c565b6107899190611f3c565b6107939190611f3c565b61079d9190611f3c565b6107a79190611f3c565b61ffff1690508067ffffffffffffffff8111156107ed577f4e487b7100000000000000000000000000000000000000000000000000000000600052604160045260246000fd5b6040519080825280601f01601f19166020018201604052801561081f5781602001600182028036833780820191505090505b50955080945061083581600a60010154886118eb565b602081610842919061203b565b905061085481600a600201548861191e565b602081610861919061203b565b905061087381600a600301548861191e565b602081610880919061203b565b90506108a481600a60000160009054906101000a900461ffff1661ffff168861191e565b6002816108b1919061203b565b90506108d581600a60000160029054906101000a900461ffff1661ffff168861191e565b6002816108e2919061203b565b90506108f481600f60030154886118eb565b602081610901919061203b565b905061091381600f60040154886118eb565b602081610920919061203b565b905061093281600f60050154886118eb565b60208161093f919061203b565b905061095181600f60060154886118eb565b60208161095e919061203b565b905061097081600f60070154886118eb565b60208161097d919061203b565b905061098f81600f60080154886118eb565b60208161099c919061203b565b90506109ae81600f60090154886118eb565b6020816109bb919061203b565b90506109cd81600f600a0154886118eb565b6020816109da919061203b565b90506109f681601a60009054906101000a900460ff1688611928565b600181610a03919061203b565b9050610a1f81601a60019054906101000a900460ff1688611928565b600181610a2c919061203b565b9050610a3d818561ffff168861191e565b600281610a4a919061203b565b9050610ae481600f6000018054610a6090612120565b80601f0160208091040260200160405190810160405280929190818152602001828054610a8c90612120565b8015610ad95780601f10610aae57610100808354040283529160200191610ad9565b820191906000526020600020905b815481529060010190602001808311610abc57829003601f168201915b50505050508861194c565b8361ffff1681610af4919061203b565b9050610b05818461ffff168861191e565b600281610b12919061203b565b9050610bac81600f6001018054610b2890612120565b80601f0160208091040260200160405190810160405280929190818152602001828054610b5490612120565b8015610ba15780601f10610b7657610100808354040283529160200191610ba1565b820191906000526020600020905b815481529060010190602001808311610b8457829003601f168201915b50505050508861194c565b8261ffff1681610bbc919061203b565b9050610bcd818361ffff168861191e565b600281610bda919061203b565b9050610c7481600f6002018054610bf090612120565b80601f0160208091040260200160405190810160405280929190818152602001828054610c1c90612120565b8015610c695780601f10610c3e57610100808354040283529160200191610c69565b820191906000526020600020905b815481529060010190602001808311610c4c57829003601f168201915b50505050508861194c565b8161ffff1681610c84919061203b565b9050610ca881600a60000160069054906101000a900461ffff1661ffff168861191e565b600281610cb5919061203b565b905060005b600a60000160069054906101000a900461ffff1661ffff16811015610e3557610d2b82600a6004018381548110610d1a577f4e487b7100000000000000000000000000000000000000000000000000000000600052603260045260246000fd5b9060005260206000200154896118eb565b602082610d38919061203b565b9150610d9f8260076000600a6004018581548110610d7f577f4e487b7100000000000000000000000000000000000000000000000000000000600052603260045260246000fd5b9060005260206000200154815260200190815260200160002054896118eb565b602082610dac919061203b565b9150610e138260086000600a6004018581548110610df3577f4e487b7100000000000000000000000000000000000000000000000000000000600052603260045260246000fd5b90600052602060002001548152602001908152602001600020548961191e565b602082610e20919061203b565b91508080610e2d9061217d565b915050610cba565b50610e5881600a60000160049054906101000a900461ffff1661ffff168861191e565b602081610e65919061203b565b9050600080600080600080600090505b600a60000160069054906101000a900461ffff1661ffff168110156111265760005b60036000600a6004018481548110610ed8577f4e487b7100000000000000000000000000000000000000000000000000000000600052603260045260246000fd5b9060005260206000200154815260200190815260200160002080549050811015611112576005600060036000600a6004018681548110610f41577f4e487b7100000000000000000000000000000000000000000000000000000000600052603260045260246000fd5b906000526020600020015481526020019081526020016000208381548110610f92577f4e487b7100000000000000000000000000000000000000000000000000000000600052603260045260246000fd5b9060005260206000200154815260200190815260200160002060009054906101000a900460ff1615610fc3576110ff565b61106860036000600a6004018581548110611007577f4e487b7100000000000000000000000000000000000000000000000000000000600052603260045260246000fd5b906000526020600020015481526020019081526020016000208281548110611058577f4e487b7100000000000000000000000000000000000000000000000000000000600052603260045260246000fd5b90600052602060002001546102ac565b809750819850829950839a50849b50505050505061108788848f6118eb565b602088611094919061203b565b97506110a188858f61191e565b6020886110ae919061203b565b97506110bb88868f61191e565b6020886110c8919061203b565b97506110d588878f6118eb565b6020886110e2919061203b565b97506110ef88888f6118eb565b6020886110fc919061203b565b97505b808061110a9061217d565b915050610e97565b50808061111e9061217d565b915050610e75565b505050505050505050509091565b600160149054906101000a900460ff161561114e57600080fd5b60018060146101000a81548160ff02191690831515021790555080600160006101000a81548173ffffffffffffffffffffffffffffffffffffffff021916908373ffffffffffffffffffffffffffffffffffffffff16021790555050565b6004600084815260200190815260200160002060009054906101000a900460ff1661120c576040517f08c379a000000000000000000000000000000000000000000000000000000000815260040161120390611e59565b60405180910390fd5b60036000848152602001908152602001600020829080600181540180825580915050600190039060005260206000200160009091909190915055600360008481526020019081526020016000208054905060026000848152602001908152602001600020819055508260066000848152602001908152602001600020819055506040518060a001604052807f554e444546494e454400000000000000000000000000000000000000000000008152602001838152602001848152602001828152602001600081525060096000848152602001908152602001600020600082015181600001556020820151816001015560408201518160020155606082015181600301556080820151816004015590505060006005600084815260200190815260200160002060006101000a81548160ff021916908315150217905550600a600001600481819054906101000a900461ffff168092919061136b90612152565b91906101000a81548161ffff021916908361ffff16021790555050505050565b6000611395610251565b9050601a60009054906101000a900460ff1680156113c05750601a60019054906101000a900460ff16155b1561142d577fcbeb43f3566812eb9b63828e127ce48efbf4126607fc80974ba3d72dd41d094a81600f60030154600f600a015460405161140293929190611e94565b60405180910390a16001601a60016101000a81548160ff02191690831515021790555042601b819055505b50565b6000600a60010154905090565b60016005600083815260200190815260200160002060006101000a81548160ff021916908315150217905550600960008281526020019081526020016000206000808201600090556001820160009055600282016000905560038201600090556004820160009055505060026000828152602001908152602001600020600090556006600082815260200190815260200160002060009055600a600001600481819054906101000a900461ffff16809291906114f8906120f6565b91906101000a81548161ffff021916908361ffff1602179055505050565b6000806000806000806060600a60010154600a60000160009054906101000a900461ffff16600a60000160029054906101000a900461ffff16600a60000160069054906101000a900461ffff16600a60020154600a60030154600a600401808054806020026020016040519081016040528092919081815260200182805480156115bf57602002820191906000526020600020905b8154815260200190600101908083116115ab575b50505050509050965096509650965096509650965090919293949596565b60008054906101000a900473ffffffffffffffffffffffffffffffffffffffff1673ffffffffffffffffffffffffffffffffffffffff163373ffffffffffffffffffffffffffffffffffffffff161461163557600080fd5b60008054906101000a900473ffffffffffffffffffffffffffffffffffffffff1673ffffffffffffffffffffffffffffffffffffffff16ff5b600080606080600080600080600060606000600f60030154600f60040154600f600001600f600101600f60050154600f60060154600f60070154600f60080154600f60090154600f600201600f600a01548880546116cb90612120565b80601f01602080910402602001604051908101604052809291908181526020018280546116f790612120565b80156117445780601f1061171957610100808354040283529160200191611744565b820191906000526020600020905b81548152906001019060200180831161172757829003601f168201915b5050505050985087805461175790612120565b80601f016020809104026020016040519081016040528092919081815260200182805461178390612120565b80156117d05780601f106117a5576101008083540402835291602001916117d0565b820191906000526020600020905b8154815290600101906020018083116117b357829003601f168201915b505050505097508180546117e390612120565b80601f016020809104026020016040519081016040528092919081815260200182805461180f90612120565b801561185c5780601f106118315761010080835404028352916020019161185c565b820191906000526020600020905b81548152906001019060200180831161183f57829003601f168201915b505050505091509a509a509a509a509a509a509a509a509a509a509a50909192939495969798999a565b6000600f60030154905090565b6000602082516118a39190611f74565b90506000602083516118b591906121d0565b146118c95780806118c59061217d565b9150505b80806118d49061217d565b9150506020816118e49190611fe1565b9050919050565b6000826040516020016118fe9190611c41565b604051602081830303815290604052905060208101518483015250505050565b8183820152505050565b60008015158315151461193c57600161193f565b60005b9050808483015250505050565b60006020835161195c9190611f74565b905060006020845161196e91906121d0565b111561198357808061197f9061217d565b9150505b808061198e9061217d565b91505060005b818110156119c057602081028401518584015260208503945080806119b89061217d565b915050611994565b5050505050565b6000813590506119d6816122ee565b92915050565b6000813590506119eb81612305565b92915050565b600081359050611a008161231c565b92915050565b600060208284031215611a1857600080fd5b6000611a26848285016119c7565b91505092915050565b600060208284031215611a4157600080fd5b6000611a4f848285016119dc565b91505092915050565b60008060408385031215611a6b57600080fd5b6000611a79858286016119dc565b9250506020611a8a858286016119dc565b9150509250929050565b600080600060608486031215611aa957600080fd5b6000611ab7868287016119dc565b9350506020611ac8868287016119dc565b9250506040611ad9868287016119f1565b9150509250925092565b6000611aef8383611b59565b60208301905092915050565b6000611b0682611edb565b611b108185611f09565b9350611b1b83611ecb565b8060005b83811015611b4c578151611b338882611ae3565b9750611b3e83611efc565b925050600181019050611b1f565b5085935050505092915050565b611b6281612081565b82525050565b611b7181612081565b82525050565b611b88611b8382612081565b6121c6565b82525050565b6000611b9982611ee6565b611ba38185611f1a565b9350611bb38185602086016120c3565b611bbc8161228e565b840191505092915050565b6000611bd282611ef1565b611bdc8185611f2b565b9350611bec8185602086016120c3565b611bf58161228e565b840191505092915050565b6000611c0d602b83611f2b565b9150611c188261229f565b604082019050919050565b611c2c8161208b565b82525050565b611c3b816120b9565b82525050565b6000611c4d8284611b77565b60208201915081905092915050565b6000602082019050611c716000830184611b68565b92915050565b600061016082019050611c8d600083018e611b68565b611c9a602083018d611b68565b8181036040830152611cac818c611bc7565b90508181036060830152611cc0818b611bc7565b9050611ccf608083018a611b68565b611cdc60a0830189611b68565b611ce960c0830188611b68565b611cf660e0830187611b68565b611d04610100830186611b68565b818103610120830152611d178185611bc7565b9050611d27610140830184611b68565b9c9b505050505050505050505050565b600060a082019050611d4c6000830188611b68565b611d596020830187611b68565b611d666040830186611c32565b611d736060830185611c32565b611d806080830184611b68565b9695505050505050565b600060e082019050611d9f600083018a611b68565b611dac6020830189611c23565b611db96040830188611c23565b611dc66060830187611c23565b611dd36080830186611c32565b611de060a0830185611c32565b81810360c0830152611df28184611afb565b905098975050505050505050565b6000604082019050611e156000830185611b68565b611e226020830184611c32565b9392505050565b60006040820190508181036000830152611e438185611b8e565b9050611e526020830184611c32565b9392505050565b60006020820190508181036000830152611e7281611c00565b9050919050565b6000602082019050611e8e6000830184611c32565b92915050565b6000606082019050611ea96000830186611c32565b611eb66020830185611b68565b611ec36040830184611b68565b949350505050565b6000819050602082019050919050565b600081519050919050565b600081519050919050565b600081519050919050565b6000602082019050919050565b600082825260208201905092915050565b600082825260208201905092915050565b600082825260208201905092915050565b6000611f478261208b565b9150611f528361208b565b92508261ffff03821115611f6957611f68612201565b5b828201905092915050565b6000611f7f826120b9565b9150611f8a836120b9565b925082611f9a57611f99612230565b5b828204905092915050565b6000611fb08261208b565b9150611fbb8361208b565b92508161ffff0483118215151615611fd657611fd5612201565b5b828202905092915050565b6000611fec826120b9565b9150611ff7836120b9565b9250817fffffffffffffffffffffffffffffffffffffffffffffffffffffffffffffffff04831182151516156120305761202f612201565b5b828202905092915050565b6000612046826120b9565b9150612051836120b9565b92508282101561206457612063612201565b5b828203905092915050565b600061207a82612099565b9050919050565b6000819050919050565b600061ffff82169050919050565b600073ffffffffffffffffffffffffffffffffffffffff82169050919050565b6000819050919050565b60005b838110156120e15780820151818401526020810190506120c6565b838111156120f0576000848401525b50505050565b60006121018261208b565b9150600082141561211557612114612201565b5b600182039050919050565b6000600282049050600182168061213857607f821691505b6020821081141561214c5761214b61225f565b5b50919050565b600061215d8261208b565b915061ffff82141561217257612171612201565b5b600182019050919050565b6000612188826120b9565b91507fffffffffffffffffffffffffffffffffffffffffffffffffffffffffffffffff8214156121bb576121ba612201565b5b600182019050919050565b6000819050919050565b60006121db826120b9565b91506121e6836120b9565b9250826121f6576121f5612230565b5b828206905092915050565b7f4e487b7100000000000000000000000000000000000000000000000000000000600052601160045260246000fd5b7f4e487b7100000000000000000000000000000000000000000000000000000000600052601260045260246000fd5b7f4e487b7100000000000000000000000000000000000000000000000000000000600052602260045260246000fd5b6000601f19601f8301169050919050565b7f546865206964206f662074686520696e7375726564206973206e6f7420696e2060008201527f74686520706f6c6963792e000000000000000000000000000000000000000000602082015250565b6122f78161206f565b811461230257600080fd5b50565b61230e81612081565b811461231957600080fd5b50565b612325816120b9565b811461233057600080fd5b5056fea2646970667358221220c277581e69d826c777d352b35ae5690c0aa5b6a76b8f71cc070863027ae11f0064736f6c63430008030033",
      "opcodes": "PUSH1 0x80 PUSH1 0x40 MSTORE CALLVALUE DUP1 ISZERO PUSH3 0x11 JUMPI PUSH1 0x0 DUP1 REVERT JUMPDEST POP PUSH1 0x40 MLOAD PUSH3 0x38F3 CODESIZE SUB DUP1 PUSH3 0x38F3 DUP4 CODECOPY DUP2 DUP2 ADD PUSH1 0x40 MSTORE DUP2 ADD SWAP1 PUSH3 0x37 SWAP2 SWAP1 PUSH3 0xD3C JUMP JUMPDEST CALLER PUSH1 0x0 DUP1 PUSH2 0x100 EXP DUP2 SLOAD DUP2 PUSH20 0xFFFFFFFFFFFFFFFFFFFFFFFFFFFFFFFFFFFFFFFF MUL NOT AND SWAP1 DUP4 PUSH20 0xFFFFFFFFFFFFFFFFFFFFFFFFFFFFFFFFFFFFFFFF AND MUL OR SWAP1 SSTORE POP PUSH1 0x0 PUSH1 0x1 PUSH1 0x14 PUSH2 0x100 EXP DUP2 SLOAD DUP2 PUSH1 0xFF MUL NOT AND SWAP1 DUP4 ISZERO ISZERO MUL OR SWAP1 SSTORE POP DUP1 PUSH1 0xF PUSH1 0x2 ADD SWAP1 DUP1 MLOAD SWAP1 PUSH1 0x20 ADD SWAP1 PUSH3 0xAD SWAP3 SWAP2 SWAP1 PUSH3 0x97E JUMP JUMPDEST POP DUP2 PUSH1 0xF PUSH1 0x1 ADD SWAP1 DUP1 MLOAD SWAP1 PUSH1 0x20 ADD SWAP1 PUSH3 0xC9 SWAP3 SWAP2 SWAP1 PUSH3 0x97E JUMP JUMPDEST POP DUP3 PUSH1 0xF PUSH1 0x0 ADD SWAP1 DUP1 MLOAD SWAP1 PUSH1 0x20 ADD SWAP1 PUSH3 0xE5 SWAP3 SWAP2 SWAP1 PUSH3 0x97E JUMP JUMPDEST POP DUP4 PUSH1 0x0 DUP2 MLOAD DUP2 LT PUSH3 0x121 JUMPI PUSH32 0x4E487B7100000000000000000000000000000000000000000000000000000000 PUSH1 0x0 MSTORE PUSH1 0x32 PUSH1 0x4 MSTORE PUSH1 0x24 PUSH1 0x0 REVERT JUMPDEST PUSH1 0x20 MUL PUSH1 0x20 ADD ADD MLOAD PUSH1 0xF PUSH1 0x4 ADD DUP2 SWAP1 SSTORE POP DUP4 PUSH1 0x1 DUP2 MLOAD DUP2 LT PUSH3 0x16D JUMPI PUSH32 0x4E487B7100000000000000000000000000000000000000000000000000000000 PUSH1 0x0 MSTORE PUSH1 0x32 PUSH1 0x4 MSTORE PUSH1 0x24 PUSH1 0x0 REVERT JUMPDEST PUSH1 0x20 MUL PUSH1 0x20 ADD ADD MLOAD PUSH1 0xF PUSH1 0x5 ADD DUP2 SWAP1 SSTORE POP DUP4 PUSH1 0x2 DUP2 MLOAD DUP2 LT PUSH3 0x1B9 JUMPI PUSH32 0x4E487B7100000000000000000000000000000000000000000000000000000000 PUSH1 0x0 MSTORE PUSH1 0x32 PUSH1 0x4 MSTORE PUSH1 0x24 PUSH1 0x0 REVERT JUMPDEST PUSH1 0x20 MUL PUSH1 0x20 ADD ADD MLOAD PUSH1 0xF PUSH1 0x6 ADD DUP2 SWAP1 SSTORE POP DUP4 PUSH1 0x3 DUP2 MLOAD DUP2 LT PUSH3 0x205 JUMPI PUSH32 0x4E487B7100000000000000000000000000000000000000000000000000000000 PUSH1 0x0 MSTORE PUSH1 0x32 PUSH1 0x4 MSTORE PUSH1 0x24 PUSH1 0x0 REVERT JUMPDEST PUSH1 0x20 MUL PUSH1 0x20 ADD ADD MLOAD PUSH1 0xF PUSH1 0x7 ADD DUP2 SWAP1 SSTORE POP DUP4 PUSH1 0x4 DUP2 MLOAD DUP2 LT PUSH3 0x251 JUMPI PUSH32 0x4E487B7100000000000000000000000000000000000000000000000000000000 PUSH1 0x0 MSTORE PUSH1 0x32 PUSH1 0x4 MSTORE PUSH1 0x24 PUSH1 0x0 REVERT JUMPDEST PUSH1 0x20 MUL PUSH1 0x20 ADD ADD MLOAD PUSH1 0xF PUSH1 0x8 ADD DUP2 SWAP1 SSTORE POP DUP4 PUSH1 0x5 DUP2 MLOAD DUP2 LT PUSH3 0x29D JUMPI PUSH32 0x4E487B7100000000000000000000000000000000000000000000000000000000 PUSH1 0x0 MSTORE PUSH1 0x32 PUSH1 0x4 MSTORE PUSH1 0x24 PUSH1 0x0 REVERT JUMPDEST PUSH1 0x20 MUL PUSH1 0x20 ADD ADD MLOAD PUSH1 0xF PUSH1 0x9 ADD DUP2 SWAP1 SSTORE POP DUP4 PUSH1 0x6 DUP2 MLOAD DUP2 LT PUSH3 0x2E9 JUMPI PUSH32 0x4E487B7100000000000000000000000000000000000000000000000000000000 PUSH1 0x0 MSTORE PUSH1 0x32 PUSH1 0x4 MSTORE PUSH1 0x24 PUSH1 0x0 REVERT JUMPDEST PUSH1 0x20 MUL PUSH1 0x20 ADD ADD MLOAD PUSH1 0xF PUSH1 0xA ADD DUP2 SWAP1 SSTORE POP PUSH1 0x2 DUP6 MLOAD EQ PUSH3 0x341 JUMPI PUSH1 0x40 MLOAD PUSH32 0x8C379A000000000000000000000000000000000000000000000000000000000 DUP2 MSTORE PUSH1 0x4 ADD PUSH3 0x338 SWAP1 PUSH3 0x102D JUMP JUMPDEST PUSH1 0x40 MLOAD DUP1 SWAP2 SUB SWAP1 REVERT JUMPDEST DUP5 PUSH1 0x0 DUP2 MLOAD DUP2 LT PUSH3 0x37C JUMPI PUSH32 0x4E487B7100000000000000000000000000000000000000000000000000000000 PUSH1 0x0 MSTORE PUSH1 0x32 PUSH1 0x4 MSTORE PUSH1 0x24 PUSH1 0x0 REVERT JUMPDEST PUSH1 0x20 MUL PUSH1 0x20 ADD ADD MLOAD PUSH1 0xA PUSH1 0x0 ADD PUSH1 0x0 PUSH2 0x100 EXP DUP2 SLOAD DUP2 PUSH2 0xFFFF MUL NOT AND SWAP1 DUP4 PUSH2 0xFFFF AND MUL OR SWAP1 SSTORE POP DUP5 PUSH1 0x1 DUP2 MLOAD DUP2 LT PUSH3 0x3DE JUMPI PUSH32 0x4E487B7100000000000000000000000000000000000000000000000000000000 PUSH1 0x0 MSTORE PUSH1 0x32 PUSH1 0x4 MSTORE PUSH1 0x24 PUSH1 0x0 REVERT JUMPDEST PUSH1 0x20 MUL PUSH1 0x20 ADD ADD MLOAD PUSH1 0xA PUSH1 0x0 ADD PUSH1 0x2 PUSH2 0x100 EXP DUP2 SLOAD DUP2 PUSH2 0xFFFF MUL NOT AND SWAP1 DUP4 PUSH2 0xFFFF AND MUL OR SWAP1 SSTORE POP PUSH1 0x2 DUP7 MLOAD EQ PUSH3 0x44C JUMPI PUSH1 0x40 MLOAD PUSH32 0x8C379A000000000000000000000000000000000000000000000000000000000 DUP2 MSTORE PUSH1 0x4 ADD PUSH3 0x443 SWAP1 PUSH3 0x100B JUMP JUMPDEST PUSH1 0x40 MLOAD DUP1 SWAP2 SUB SWAP1 REVERT JUMPDEST DUP6 PUSH1 0x1 DUP2 MLOAD DUP2 LT PUSH3 0x487 JUMPI PUSH32 0x4E487B7100000000000000000000000000000000000000000000000000000000 PUSH1 0x0 MSTORE PUSH1 0x32 PUSH1 0x4 MSTORE PUSH1 0x24 PUSH1 0x0 REVERT JUMPDEST PUSH1 0x20 MUL PUSH1 0x20 ADD ADD MLOAD DUP7 PUSH1 0x0 DUP2 MLOAD DUP2 LT PUSH3 0x4CA JUMPI PUSH32 0x4E487B7100000000000000000000000000000000000000000000000000000000 PUSH1 0x0 MSTORE PUSH1 0x32 PUSH1 0x4 MSTORE PUSH1 0x24 PUSH1 0x0 REVERT JUMPDEST PUSH1 0x20 MUL PUSH1 0x20 ADD ADD MLOAD LT PUSH3 0x515 JUMPI PUSH1 0x40 MLOAD PUSH32 0x8C379A000000000000000000000000000000000000000000000000000000000 DUP2 MSTORE PUSH1 0x4 ADD PUSH3 0x50C SWAP1 PUSH3 0x1071 JUMP JUMPDEST PUSH1 0x40 MLOAD DUP1 SWAP2 SUB SWAP1 REVERT JUMPDEST DUP6 PUSH1 0x0 DUP2 MLOAD DUP2 LT PUSH3 0x550 JUMPI PUSH32 0x4E487B7100000000000000000000000000000000000000000000000000000000 PUSH1 0x0 MSTORE PUSH1 0x32 PUSH1 0x4 MSTORE PUSH1 0x24 PUSH1 0x0 REVERT JUMPDEST PUSH1 0x20 MUL PUSH1 0x20 ADD ADD MLOAD PUSH1 0xA PUSH1 0x2 ADD DUP2 SWAP1 SSTORE POP DUP6 PUSH1 0x1 DUP2 MLOAD DUP2 LT PUSH3 0x59C JUMPI PUSH32 0x4E487B7100000000000000000000000000000000000000000000000000000000 PUSH1 0x0 MSTORE PUSH1 0x32 PUSH1 0x4 MSTORE PUSH1 0x24 PUSH1 0x0 REVERT JUMPDEST PUSH1 0x20 MUL PUSH1 0x20 ADD ADD MLOAD PUSH1 0xA PUSH1 0x3 ADD DUP2 SWAP1 SSTORE POP DUP7 PUSH1 0xA PUSH1 0x4 ADD SWAP1 DUP1 MLOAD SWAP1 PUSH1 0x20 ADD SWAP1 PUSH3 0x5C8 SWAP3 SWAP2 SWAP1 PUSH3 0xA0F JUMP JUMPDEST POP PUSH1 0x2 DUP9 MLOAD EQ PUSH3 0x610 JUMPI PUSH1 0x40 MLOAD PUSH32 0x8C379A000000000000000000000000000000000000000000000000000000000 DUP2 MSTORE PUSH1 0x4 ADD PUSH3 0x607 SWAP1 PUSH3 0x104F JUMP JUMPDEST PUSH1 0x40 MLOAD DUP1 SWAP2 SUB SWAP1 REVERT JUMPDEST DUP8 PUSH1 0x1 DUP2 MLOAD DUP2 LT PUSH3 0x64B JUMPI PUSH32 0x4E487B7100000000000000000000000000000000000000000000000000000000 PUSH1 0x0 MSTORE PUSH1 0x32 PUSH1 0x4 MSTORE PUSH1 0x24 PUSH1 0x0 REVERT JUMPDEST PUSH1 0x20 MUL PUSH1 0x20 ADD ADD MLOAD PUSH1 0xF PUSH1 0x3 ADD DUP2 SWAP1 SSTORE POP DUP8 PUSH1 0x0 DUP2 MLOAD DUP2 LT PUSH3 0x697 JUMPI PUSH32 0x4E487B7100000000000000000000000000000000000000000000000000000000 PUSH1 0x0 MSTORE PUSH1 0x32 PUSH1 0x4 MSTORE PUSH1 0x24 PUSH1 0x0 REVERT JUMPDEST PUSH1 0x20 MUL PUSH1 0x20 ADD ADD MLOAD PUSH1 0xA PUSH1 0x1 ADD DUP2 SWAP1 SSTORE POP DUP7 MLOAD DUP10 MLOAD EQ PUSH3 0x6B7 JUMPI PUSH1 0x0 DUP1 REVERT JUMPDEST DUP7 MLOAD DUP11 MLOAD EQ PUSH3 0x6C6 JUMPI PUSH1 0x0 DUP1 REVERT JUMPDEST PUSH1 0x0 JUMPDEST DUP8 MLOAD DUP2 LT ISZERO PUSH3 0x921 JUMPI PUSH1 0x1 PUSH1 0x4 PUSH1 0x0 DUP11 DUP5 DUP2 MLOAD DUP2 LT PUSH3 0x713 JUMPI PUSH32 0x4E487B7100000000000000000000000000000000000000000000000000000000 PUSH1 0x0 MSTORE PUSH1 0x32 PUSH1 0x4 MSTORE PUSH1 0x24 PUSH1 0x0 REVERT JUMPDEST PUSH1 0x20 MUL PUSH1 0x20 ADD ADD MLOAD DUP2 MSTORE PUSH1 0x20 ADD SWAP1 DUP2 MSTORE PUSH1 0x20 ADD PUSH1 0x0 KECCAK256 PUSH1 0x0 PUSH2 0x100 EXP DUP2 SLOAD DUP2 PUSH1 0xFF MUL NOT AND SWAP1 DUP4 ISZERO ISZERO MUL OR SWAP1 SSTORE POP PUSH3 0x3F480 TIMESTAMP PUSH3 0x751 SWAP2 SWAP1 PUSH3 0x1190 JUMP JUMPDEST DUP11 DUP3 DUP2 MLOAD DUP2 LT PUSH3 0x78B JUMPI PUSH32 0x4E487B7100000000000000000000000000000000000000000000000000000000 PUSH1 0x0 MSTORE PUSH1 0x32 PUSH1 0x4 MSTORE PUSH1 0x24 PUSH1 0x0 REVERT JUMPDEST PUSH1 0x20 MUL PUSH1 0x20 ADD ADD MLOAD LT ISZERO PUSH3 0x7D7 JUMPI PUSH1 0x40 MLOAD PUSH32 0x8C379A000000000000000000000000000000000000000000000000000000000 DUP2 MSTORE PUSH1 0x4 ADD PUSH3 0x7CE SWAP1 PUSH3 0xFE9 JUMP JUMPDEST PUSH1 0x40 MLOAD DUP1 SWAP2 SUB SWAP1 REVERT JUMPDEST DUP10 DUP2 DUP2 MLOAD DUP2 LT PUSH3 0x811 JUMPI PUSH32 0x4E487B7100000000000000000000000000000000000000000000000000000000 PUSH1 0x0 MSTORE PUSH1 0x32 PUSH1 0x4 MSTORE PUSH1 0x24 PUSH1 0x0 REVERT JUMPDEST PUSH1 0x20 MUL PUSH1 0x20 ADD ADD MLOAD PUSH1 0x8 PUSH1 0x0 DUP11 DUP5 DUP2 MLOAD DUP2 LT PUSH3 0x857 JUMPI PUSH32 0x4E487B7100000000000000000000000000000000000000000000000000000000 PUSH1 0x0 MSTORE PUSH1 0x32 PUSH1 0x4 MSTORE PUSH1 0x24 PUSH1 0x0 REVERT JUMPDEST PUSH1 0x20 MUL PUSH1 0x20 ADD ADD MLOAD DUP2 MSTORE PUSH1 0x20 ADD SWAP1 DUP2 MSTORE PUSH1 0x20 ADD PUSH1 0x0 KECCAK256 DUP2 SWAP1 SSTORE POP DUP11 DUP2 DUP2 MLOAD DUP2 LT PUSH3 0x8AB JUMPI PUSH32 0x4E487B7100000000000000000000000000000000000000000000000000000000 PUSH1 0x0 MSTORE PUSH1 0x32 PUSH1 0x4 MSTORE PUSH1 0x24 PUSH1 0x0 REVERT JUMPDEST PUSH1 0x20 MUL PUSH1 0x20 ADD ADD MLOAD PUSH1 0x7 PUSH1 0x0 DUP11 DUP5 DUP2 MLOAD DUP2 LT PUSH3 0x8F1 JUMPI PUSH32 0x4E487B7100000000000000000000000000000000000000000000000000000000 PUSH1 0x0 MSTORE PUSH1 0x32 PUSH1 0x4 MSTORE PUSH1 0x24 PUSH1 0x0 REVERT JUMPDEST PUSH1 0x20 MUL PUSH1 0x20 ADD ADD MLOAD DUP2 MSTORE PUSH1 0x20 ADD SWAP1 DUP2 MSTORE PUSH1 0x20 ADD PUSH1 0x0 KECCAK256 DUP2 SWAP1 SSTORE POP DUP1 DUP1 PUSH3 0x918 SWAP1 PUSH3 0x128F JUMP JUMPDEST SWAP2 POP POP PUSH3 0x6C9 JUMP JUMPDEST POP PUSH1 0xA PUSH1 0x4 ADD DUP1 SLOAD SWAP1 POP PUSH1 0xFF AND PUSH1 0xA PUSH1 0x0 ADD PUSH1 0x6 PUSH2 0x100 EXP DUP2 SLOAD DUP2 PUSH2 0xFFFF MUL NOT AND SWAP1 DUP4 PUSH2 0xFFFF AND MUL OR SWAP1 SSTORE POP PUSH1 0x0 PUSH1 0xA PUSH1 0x0 ADD PUSH1 0x4 PUSH2 0x100 EXP DUP2 SLOAD DUP2 PUSH2 0xFFFF MUL NOT AND SWAP1 DUP4 PUSH2 0xFFFF AND MUL OR SWAP1 SSTORE POP POP POP POP POP POP POP POP POP POP POP PUSH3 0x157A JUMP JUMPDEST DUP3 DUP1 SLOAD PUSH3 0x98C SWAP1 PUSH3 0x1223 JUMP JUMPDEST SWAP1 PUSH1 0x0 MSTORE PUSH1 0x20 PUSH1 0x0 KECCAK256 SWAP1 PUSH1 0x1F ADD PUSH1 0x20 SWAP1 DIV DUP2 ADD SWAP3 DUP3 PUSH3 0x9B0 JUMPI PUSH1 0x0 DUP6 SSTORE PUSH3 0x9FC JUMP JUMPDEST DUP3 PUSH1 0x1F LT PUSH3 0x9CB JUMPI DUP1 MLOAD PUSH1 0xFF NOT AND DUP4 DUP1 ADD OR DUP6 SSTORE PUSH3 0x9FC JUMP JUMPDEST DUP3 DUP1 ADD PUSH1 0x1 ADD DUP6 SSTORE DUP3 ISZERO PUSH3 0x9FC JUMPI SWAP2 DUP3 ADD JUMPDEST DUP3 DUP2 GT ISZERO PUSH3 0x9FB JUMPI DUP3 MLOAD DUP3 SSTORE SWAP2 PUSH1 0x20 ADD SWAP2 SWAP1 PUSH1 0x1 ADD SWAP1 PUSH3 0x9DE JUMP JUMPDEST JUMPDEST POP SWAP1 POP PUSH3 0xA0B SWAP2 SWAP1 PUSH3 0xA61 JUMP JUMPDEST POP SWAP1 JUMP JUMPDEST DUP3 DUP1 SLOAD DUP3 DUP3 SSTORE SWAP1 PUSH1 0x0 MSTORE PUSH1 0x20 PUSH1 0x0 KECCAK256 SWAP1 DUP2 ADD SWAP3 DUP3 ISZERO PUSH3 0xA4E JUMPI SWAP2 PUSH1 0x20 MUL DUP3 ADD JUMPDEST DUP3 DUP2 GT ISZERO PUSH3 0xA4D JUMPI DUP3 MLOAD DUP3 SSTORE SWAP2 PUSH1 0x20 ADD SWAP2 SWAP1 PUSH1 0x1 ADD SWAP1 PUSH3 0xA30 JUMP JUMPDEST JUMPDEST POP SWAP1 POP PUSH3 0xA5D SWAP2 SWAP1 PUSH3 0xA80 JUMP JUMPDEST POP SWAP1 JUMP JUMPDEST JUMPDEST DUP1 DUP3 GT ISZERO PUSH3 0xA7C JUMPI PUSH1 0x0 DUP2 PUSH1 0x0 SWAP1 SSTORE POP PUSH1 0x1 ADD PUSH3 0xA62 JUMP JUMPDEST POP SWAP1 JUMP JUMPDEST JUMPDEST DUP1 DUP3 GT ISZERO PUSH3 0xA9B JUMPI PUSH1 0x0 DUP2 PUSH1 0x0 SWAP1 SSTORE POP PUSH1 0x1 ADD PUSH3 0xA81 JUMP JUMPDEST POP SWAP1 JUMP JUMPDEST PUSH1 0x0 PUSH3 0xAB6 PUSH3 0xAB0 DUP5 PUSH3 0x10BC JUMP JUMPDEST PUSH3 0x1093 JUMP JUMPDEST SWAP1 POP DUP1 DUP4 DUP3 MSTORE PUSH1 0x20 DUP3 ADD SWAP1 POP DUP3 DUP6 PUSH1 0x20 DUP7 MUL DUP3 ADD GT ISZERO PUSH3 0xAD6 JUMPI PUSH1 0x0 DUP1 REVERT JUMPDEST PUSH1 0x0 JUMPDEST DUP6 DUP2 LT ISZERO PUSH3 0xB0A JUMPI DUP2 PUSH3 0xAEF DUP9 DUP3 PUSH3 0xCCA JUMP JUMPDEST DUP5 MSTORE PUSH1 0x20 DUP5 ADD SWAP4 POP PUSH1 0x20 DUP4 ADD SWAP3 POP POP PUSH1 0x1 DUP2 ADD SWAP1 POP PUSH3 0xAD9 JUMP JUMPDEST POP POP POP SWAP4 SWAP3 POP POP POP JUMP JUMPDEST PUSH1 0x0 PUSH3 0xB2B PUSH3 0xB25 DUP5 PUSH3 0x10EB JUMP JUMPDEST PUSH3 0x1093 JUMP JUMPDEST SWAP1 POP DUP1 DUP4 DUP3 MSTORE PUSH1 0x20 DUP3 ADD SWAP1 POP DUP3 DUP6 PUSH1 0x20 DUP7 MUL DUP3 ADD GT ISZERO PUSH3 0xB4B JUMPI PUSH1 0x0 DUP1 REVERT JUMPDEST PUSH1 0x0 JUMPDEST DUP6 DUP2 LT ISZERO PUSH3 0xB7F JUMPI DUP2 PUSH3 0xB64 DUP9 DUP3 PUSH3 0xD0E JUMP JUMPDEST DUP5 MSTORE PUSH1 0x20 DUP5 ADD SWAP4 POP PUSH1 0x20 DUP4 ADD SWAP3 POP POP PUSH1 0x1 DUP2 ADD SWAP1 POP PUSH3 0xB4E JUMP JUMPDEST POP POP POP SWAP4 SWAP3 POP POP POP JUMP JUMPDEST PUSH1 0x0 PUSH3 0xBA0 PUSH3 0xB9A DUP5 PUSH3 0x111A JUMP JUMPDEST PUSH3 0x1093 JUMP JUMPDEST SWAP1 POP DUP1 DUP4 DUP3 MSTORE PUSH1 0x20 DUP3 ADD SWAP1 POP DUP3 DUP6 PUSH1 0x20 DUP7 MUL DUP3 ADD GT ISZERO PUSH3 0xBC0 JUMPI PUSH1 0x0 DUP1 REVERT JUMPDEST PUSH1 0x0 JUMPDEST DUP6 DUP2 LT ISZERO PUSH3 0xBF4 JUMPI DUP2 PUSH3 0xBD9 DUP9 DUP3 PUSH3 0xD25 JUMP JUMPDEST DUP5 MSTORE PUSH1 0x20 DUP5 ADD SWAP4 POP PUSH1 0x20 DUP4 ADD SWAP3 POP POP PUSH1 0x1 DUP2 ADD SWAP1 POP PUSH3 0xBC3 JUMP JUMPDEST POP POP POP SWAP4 SWAP3 POP POP POP JUMP JUMPDEST PUSH1 0x0 PUSH3 0xC15 PUSH3 0xC0F DUP5 PUSH3 0x1149 JUMP JUMPDEST PUSH3 0x1093 JUMP JUMPDEST SWAP1 POP DUP3 DUP2 MSTORE PUSH1 0x20 DUP2 ADD DUP5 DUP5 DUP5 ADD GT ISZERO PUSH3 0xC2E JUMPI PUSH1 0x0 DUP1 REVERT JUMPDEST PUSH3 0xC3B DUP5 DUP3 DUP6 PUSH3 0x11ED JUMP JUMPDEST POP SWAP4 SWAP3 POP POP POP JUMP JUMPDEST PUSH1 0x0 DUP3 PUSH1 0x1F DUP4 ADD SLT PUSH3 0xC55 JUMPI PUSH1 0x0 DUP1 REVERT JUMPDEST DUP2 MLOAD PUSH3 0xC67 DUP5 DUP3 PUSH1 0x20 DUP7 ADD PUSH3 0xA9F JUMP JUMPDEST SWAP2 POP POP SWAP3 SWAP2 POP POP JUMP JUMPDEST PUSH1 0x0 DUP3 PUSH1 0x1F DUP4 ADD SLT PUSH3 0xC82 JUMPI PUSH1 0x0 DUP1 REVERT JUMPDEST DUP2 MLOAD PUSH3 0xC94 DUP5 DUP3 PUSH1 0x20 DUP7 ADD PUSH3 0xB14 JUMP JUMPDEST SWAP2 POP POP SWAP3 SWAP2 POP POP JUMP JUMPDEST PUSH1 0x0 DUP3 PUSH1 0x1F DUP4 ADD SLT PUSH3 0xCAF JUMPI PUSH1 0x0 DUP1 REVERT JUMPDEST DUP2 MLOAD PUSH3 0xCC1 DUP5 DUP3 PUSH1 0x20 DUP7 ADD PUSH3 0xB89 JUMP JUMPDEST SWAP2 POP POP SWAP3 SWAP2 POP POP JUMP JUMPDEST PUSH1 0x0 DUP2 MLOAD SWAP1 POP PUSH3 0xCDB DUP2 PUSH3 0x152C JUMP JUMPDEST SWAP3 SWAP2 POP POP JUMP JUMPDEST PUSH1 0x0 DUP3 PUSH1 0x1F DUP4 ADD SLT PUSH3 0xCF3 JUMPI PUSH1 0x0 DUP1 REVERT JUMPDEST DUP2 MLOAD PUSH3 0xD05 DUP5 DUP3 PUSH1 0x20 DUP7 ADD PUSH3 0xBFE JUMP JUMPDEST SWAP2 POP POP SWAP3 SWAP2 POP POP JUMP JUMPDEST PUSH1 0x0 DUP2 MLOAD SWAP1 POP PUSH3 0xD1F DUP2 PUSH3 0x1546 JUMP JUMPDEST SWAP3 SWAP2 POP POP JUMP JUMPDEST PUSH1 0x0 DUP2 MLOAD SWAP1 POP PUSH3 0xD36 DUP2 PUSH3 0x1560 JUMP JUMPDEST SWAP3 SWAP2 POP POP JUMP JUMPDEST PUSH1 0x0 DUP1 PUSH1 0x0 DUP1 PUSH1 0x0 DUP1 PUSH1 0x0 DUP1 PUSH1 0x0 DUP1 PUSH2 0x140 DUP12 DUP14 SUB SLT ISZERO PUSH3 0xD5D JUMPI PUSH1 0x0 DUP1 REVERT JUMPDEST PUSH1 0x0 DUP12 ADD MLOAD PUSH8 0xFFFFFFFFFFFFFFFF DUP2 GT ISZERO PUSH3 0xD78 JUMPI PUSH1 0x0 DUP1 REVERT JUMPDEST PUSH3 0xD86 DUP14 DUP3 DUP15 ADD PUSH3 0xC43 JUMP JUMPDEST SWAP11 POP POP PUSH1 0x20 DUP12 ADD MLOAD PUSH8 0xFFFFFFFFFFFFFFFF DUP2 GT ISZERO PUSH3 0xDA4 JUMPI PUSH1 0x0 DUP1 REVERT JUMPDEST PUSH3 0xDB2 DUP14 DUP3 DUP15 ADD PUSH3 0xC9D JUMP JUMPDEST SWAP10 POP POP PUSH1 0x40 DUP12 ADD MLOAD PUSH8 0xFFFFFFFFFFFFFFFF DUP2 GT ISZERO PUSH3 0xDD0 JUMPI PUSH1 0x0 DUP1 REVERT JUMPDEST PUSH3 0xDDE DUP14 DUP3 DUP15 ADD PUSH3 0xC43 JUMP JUMPDEST SWAP9 POP POP PUSH1 0x60 DUP12 ADD MLOAD PUSH8 0xFFFFFFFFFFFFFFFF DUP2 GT ISZERO PUSH3 0xDFC JUMPI PUSH1 0x0 DUP1 REVERT JUMPDEST PUSH3 0xE0A DUP14 DUP3 DUP15 ADD PUSH3 0xC43 JUMP JUMPDEST SWAP8 POP POP PUSH1 0x80 DUP12 ADD MLOAD PUSH8 0xFFFFFFFFFFFFFFFF DUP2 GT ISZERO PUSH3 0xE28 JUMPI PUSH1 0x0 DUP1 REVERT JUMPDEST PUSH3 0xE36 DUP14 DUP3 DUP15 ADD PUSH3 0xC9D JUMP JUMPDEST SWAP7 POP POP PUSH1 0xA0 DUP12 ADD MLOAD PUSH8 0xFFFFFFFFFFFFFFFF DUP2 GT ISZERO PUSH3 0xE54 JUMPI PUSH1 0x0 DUP1 REVERT JUMPDEST PUSH3 0xE62 DUP14 DUP3 DUP15 ADD PUSH3 0xC70 JUMP JUMPDEST SWAP6 POP POP PUSH1 0xC0 DUP12 ADD MLOAD PUSH8 0xFFFFFFFFFFFFFFFF DUP2 GT ISZERO PUSH3 0xE80 JUMPI PUSH1 0x0 DUP1 REVERT JUMPDEST PUSH3 0xE8E DUP14 DUP3 DUP15 ADD PUSH3 0xC43 JUMP JUMPDEST SWAP5 POP POP PUSH1 0xE0 DUP12 ADD MLOAD PUSH8 0xFFFFFFFFFFFFFFFF DUP2 GT ISZERO PUSH3 0xEAC JUMPI PUSH1 0x0 DUP1 REVERT JUMPDEST PUSH3 0xEBA DUP14 DUP3 DUP15 ADD PUSH3 0xCE1 JUMP JUMPDEST SWAP4 POP POP PUSH2 0x100 DUP12 ADD MLOAD PUSH8 0xFFFFFFFFFFFFFFFF DUP2 GT ISZERO PUSH3 0xED9 JUMPI PUSH1 0x0 DUP1 REVERT JUMPDEST PUSH3 0xEE7 DUP14 DUP3 DUP15 ADD PUSH3 0xCE1 JUMP JUMPDEST SWAP3 POP POP PUSH2 0x120 DUP12 ADD MLOAD PUSH8 0xFFFFFFFFFFFFFFFF DUP2 GT ISZERO PUSH3 0xF06 JUMPI PUSH1 0x0 DUP1 REVERT JUMPDEST PUSH3 0xF14 DUP14 DUP3 DUP15 ADD PUSH3 0xCE1 JUMP JUMPDEST SWAP2 POP POP SWAP3 SWAP6 SWAP9 SWAP12 SWAP2 SWAP5 SWAP8 SWAP11 POP SWAP3 SWAP6 SWAP9 POP JUMP JUMPDEST PUSH1 0x0 PUSH3 0xF35 PUSH1 0x30 DUP4 PUSH3 0x117F JUMP JUMPDEST SWAP2 POP PUSH3 0xF42 DUP3 PUSH3 0x137B JUMP JUMPDEST PUSH1 0x40 DUP3 ADD SWAP1 POP SWAP2 SWAP1 POP JUMP JUMPDEST PUSH1 0x0 PUSH3 0xF5C PUSH1 0x2F DUP4 PUSH3 0x117F JUMP JUMPDEST SWAP2 POP PUSH3 0xF69 DUP3 PUSH3 0x13CA JUMP JUMPDEST PUSH1 0x40 DUP3 ADD SWAP1 POP SWAP2 SWAP1 POP JUMP JUMPDEST PUSH1 0x0 PUSH3 0xF83 PUSH1 0x4A DUP4 PUSH3 0x117F JUMP JUMPDEST SWAP2 POP PUSH3 0xF90 DUP3 PUSH3 0x1419 JUMP JUMPDEST PUSH1 0x60 DUP3 ADD SWAP1 POP SWAP2 SWAP1 POP JUMP JUMPDEST PUSH1 0x0 PUSH3 0xFAA PUSH1 0x24 DUP4 PUSH3 0x117F JUMP JUMPDEST SWAP2 POP PUSH3 0xFB7 DUP3 PUSH3 0x148E JUMP JUMPDEST PUSH1 0x40 DUP3 ADD SWAP1 POP SWAP2 SWAP1 POP JUMP JUMPDEST PUSH1 0x0 PUSH3 0xFD1 PUSH1 0x30 DUP4 PUSH3 0x117F JUMP JUMPDEST SWAP2 POP PUSH3 0xFDE DUP3 PUSH3 0x14DD JUMP JUMPDEST PUSH1 0x40 DUP3 ADD SWAP1 POP SWAP2 SWAP1 POP JUMP JUMPDEST PUSH1 0x0 PUSH1 0x20 DUP3 ADD SWAP1 POP DUP2 DUP2 SUB PUSH1 0x0 DUP4 ADD MSTORE PUSH3 0x1004 DUP2 PUSH3 0xF26 JUMP JUMPDEST SWAP1 POP SWAP2 SWAP1 POP JUMP JUMPDEST PUSH1 0x0 PUSH1 0x20 DUP3 ADD SWAP1 POP DUP2 DUP2 SUB PUSH1 0x0 DUP4 ADD MSTORE PUSH3 0x1026 DUP2 PUSH3 0xF4D JUMP JUMPDEST SWAP1 POP SWAP2 SWAP1 POP JUMP JUMPDEST PUSH1 0x0 PUSH1 0x20 DUP3 ADD SWAP1 POP DUP2 DUP2 SUB PUSH1 0x0 DUP4 ADD MSTORE PUSH3 0x1048 DUP2 PUSH3 0xF74 JUMP JUMPDEST SWAP1 POP SWAP2 SWAP1 POP JUMP JUMPDEST PUSH1 0x0 PUSH1 0x20 DUP3 ADD SWAP1 POP DUP2 DUP2 SUB PUSH1 0x0 DUP4 ADD MSTORE PUSH3 0x106A DUP2 PUSH3 0xF9B JUMP JUMPDEST SWAP1 POP SWAP2 SWAP1 POP JUMP JUMPDEST PUSH1 0x0 PUSH1 0x20 DUP3 ADD SWAP1 POP DUP2 DUP2 SUB PUSH1 0x0 DUP4 ADD MSTORE PUSH3 0x108C DUP2 PUSH3 0xFC2 JUMP JUMPDEST SWAP1 POP SWAP2 SWAP1 POP JUMP JUMPDEST PUSH1 0x0 PUSH3 0x109F PUSH3 0x10B2 JUMP JUMPDEST SWAP1 POP PUSH3 0x10AD DUP3 DUP3 PUSH3 0x1259 JUMP JUMPDEST SWAP2 SWAP1 POP JUMP JUMPDEST PUSH1 0x0 PUSH1 0x40 MLOAD SWAP1 POP SWAP1 JUMP JUMPDEST PUSH1 0x0 PUSH8 0xFFFFFFFFFFFFFFFF DUP3 GT ISZERO PUSH3 0x10DA JUMPI PUSH3 0x10D9 PUSH3 0x133B JUMP JUMPDEST JUMPDEST PUSH1 0x20 DUP3 MUL SWAP1 POP PUSH1 0x20 DUP2 ADD SWAP1 POP SWAP2 SWAP1 POP JUMP JUMPDEST PUSH1 0x0 PUSH8 0xFFFFFFFFFFFFFFFF DUP3 GT ISZERO PUSH3 0x1109 JUMPI PUSH3 0x1108 PUSH3 0x133B JUMP JUMPDEST JUMPDEST PUSH1 0x20 DUP3 MUL SWAP1 POP PUSH1 0x20 DUP2 ADD SWAP1 POP SWAP2 SWAP1 POP JUMP JUMPDEST PUSH1 0x0 PUSH8 0xFFFFFFFFFFFFFFFF DUP3 GT ISZERO PUSH3 0x1138 JUMPI PUSH3 0x1137 PUSH3 0x133B JUMP JUMPDEST JUMPDEST PUSH1 0x20 DUP3 MUL SWAP1 POP PUSH1 0x20 DUP2 ADD SWAP1 POP SWAP2 SWAP1 POP JUMP JUMPDEST PUSH1 0x0 PUSH8 0xFFFFFFFFFFFFFFFF DUP3 GT ISZERO PUSH3 0x1167 JUMPI PUSH3 0x1166 PUSH3 0x133B JUMP JUMPDEST JUMPDEST PUSH3 0x1172 DUP3 PUSH3 0x136A JUMP JUMPDEST SWAP1 POP PUSH1 0x20 DUP2 ADD SWAP1 POP SWAP2 SWAP1 POP JUMP JUMPDEST PUSH1 0x0 DUP3 DUP3 MSTORE PUSH1 0x20 DUP3 ADD SWAP1 POP SWAP3 SWAP2 POP POP JUMP JUMPDEST PUSH1 0x0 PUSH3 0x119D DUP3 PUSH3 0x11E3 JUMP JUMPDEST SWAP2 POP PUSH3 0x11AA DUP4 PUSH3 0x11E3 JUMP JUMPDEST SWAP3 POP DUP3 DUP3 LT ISZERO PUSH3 0x11C0 JUMPI PUSH3 0x11BF PUSH3 0x12DD JUMP JUMPDEST JUMPDEST DUP3 DUP3 SUB SWAP1 POP SWAP3 SWAP2 POP POP JUMP JUMPDEST PUSH1 0x0 DUP2 SWAP1 POP SWAP2 SWAP1 POP JUMP JUMPDEST PUSH1 0x0 PUSH2 0xFFFF DUP3 AND SWAP1 POP SWAP2 SWAP1 POP JUMP JUMPDEST PUSH1 0x0 DUP2 SWAP1 POP SWAP2 SWAP1 POP JUMP JUMPDEST PUSH1 0x0 JUMPDEST DUP4 DUP2 LT ISZERO PUSH3 0x120D JUMPI DUP1 DUP3 ADD MLOAD DUP2 DUP5 ADD MSTORE PUSH1 0x20 DUP2 ADD SWAP1 POP PUSH3 0x11F0 JUMP JUMPDEST DUP4 DUP2 GT ISZERO PUSH3 0x121D JUMPI PUSH1 0x0 DUP5 DUP5 ADD MSTORE JUMPDEST POP POP POP POP JUMP JUMPDEST PUSH1 0x0 PUSH1 0x2 DUP3 DIV SWAP1 POP PUSH1 0x1 DUP3 AND DUP1 PUSH3 0x123C JUMPI PUSH1 0x7F DUP3 AND SWAP2 POP JUMPDEST PUSH1 0x20 DUP3 LT DUP2 EQ ISZERO PUSH3 0x1253 JUMPI PUSH3 0x1252 PUSH3 0x130C JUMP JUMPDEST JUMPDEST POP SWAP2 SWAP1 POP JUMP JUMPDEST PUSH3 0x1264 DUP3 PUSH3 0x136A JUMP JUMPDEST DUP2 ADD DUP2 DUP2 LT PUSH8 0xFFFFFFFFFFFFFFFF DUP3 GT OR ISZERO PUSH3 0x1286 JUMPI PUSH3 0x1285 PUSH3 0x133B JUMP JUMPDEST JUMPDEST DUP1 PUSH1 0x40 MSTORE POP POP POP JUMP JUMPDEST PUSH1 0x0 PUSH3 0x129C DUP3 PUSH3 0x11E3 JUMP JUMPDEST SWAP2 POP PUSH32 0xFFFFFFFFFFFFFFFFFFFFFFFFFFFFFFFFFFFFFFFFFFFFFFFFFFFFFFFFFFFFFFFF DUP3 EQ ISZERO PUSH3 0x12D2 JUMPI PUSH3 0x12D1 PUSH3 0x12DD JUMP JUMPDEST JUMPDEST PUSH1 0x1 DUP3 ADD SWAP1 POP SWAP2 SWAP1 POP JUMP JUMPDEST PUSH32 0x4E487B7100000000000000000000000000000000000000000000000000000000 PUSH1 0x0 MSTORE PUSH1 0x11 PUSH1 0x4 MSTORE PUSH1 0x24 PUSH1 0x0 REVERT JUMPDEST PUSH32 0x4E487B7100000000000000000000000000000000000000000000000000000000 PUSH1 0x0 MSTORE PUSH1 0x22 PUSH1 0x4 MSTORE PUSH1 0x24 PUSH1 0x0 REVERT JUMPDEST PUSH32 0x4E487B7100000000000000000000000000000000000000000000000000000000 PUSH1 0x0 MSTORE PUSH1 0x41 PUSH1 0x4 MSTORE PUSH1 0x24 PUSH1 0x0 REVERT JUMPDEST PUSH1 0x0 PUSH1 0x1F NOT PUSH1 0x1F DUP4 ADD AND SWAP1 POP SWAP2 SWAP1 POP JUMP JUMPDEST PUSH32 0x436865636B20746861742050435220686173206265656E206E6F206D6F726520 PUSH1 0x0 DUP3 ADD MSTORE PUSH32 0x7468616E203320646179732061676F2E00000000000000000000000000000000 PUSH1 0x20 DUP3 ADD MSTORE POP JUMP JUMPDEST PUSH32 0x54686520506F6C696379206E6565642061207374617274206461746520616E64 PUSH1 0x0 DUP3 ADD MSTORE PUSH32 0x20612066696E69736820646174652E0000000000000000000000000000000000 PUSH1 0x20 DUP3 ADD MSTORE POP JUMP JUMPDEST PUSH32 0x596F75206861766520746F2070726F766964652074686520616D6F756E74206F PUSH1 0x0 DUP3 ADD MSTORE PUSH32 0x662064617920636F6D70656E736174696F6E20616E6420746865206E756D6265 PUSH1 0x20 DUP3 ADD MSTORE PUSH32 0x72206F6620646179732E00000000000000000000000000000000000000000000 PUSH1 0x40 DUP3 ADD MSTORE POP JUMP JUMPDEST PUSH32 0x4D7573742070726F7669646520506F6C69637920494420616E642054616B6572 PUSH1 0x0 DUP3 ADD MSTORE PUSH32 0x2049442E00000000000000000000000000000000000000000000000000000000 PUSH1 0x20 DUP3 ADD MSTORE POP JUMP JUMPDEST PUSH32 0x54686520737461727420646174652068617320746F206265206265666F726520 PUSH1 0x0 DUP3 ADD MSTORE PUSH32 0x7468652066696E69736820646174652E00000000000000000000000000000000 PUSH1 0x20 DUP3 ADD MSTORE POP JUMP JUMPDEST PUSH3 0x1537 DUP2 PUSH3 0x11CB JUMP JUMPDEST DUP2 EQ PUSH3 0x1543 JUMPI PUSH1 0x0 DUP1 REVERT JUMPDEST POP JUMP JUMPDEST PUSH3 0x1551 DUP2 PUSH3 0x11D5 JUMP JUMPDEST DUP2 EQ PUSH3 0x155D JUMPI PUSH1 0x0 DUP1 REVERT JUMPDEST POP JUMP JUMPDEST PUSH3 0x156B DUP2 PUSH3 0x11E3 JUMP JUMPDEST DUP2 EQ PUSH3 0x1577 JUMPI PUSH1 0x0 DUP1 REVERT JUMPDEST POP JUMP JUMPDEST PUSH2 0x2369 DUP1 PUSH3 0x158A PUSH1 0x0 CODECOPY PUSH1 0x0 RETURN INVALID PUSH1 0x80 PUSH1 0x40 MSTORE CALLVALUE DUP1 ISZERO PUSH2 0x10 JUMPI PUSH1 0x0 DUP1 REVERT JUMPDEST POP PUSH1 0x4 CALLDATASIZE LT PUSH2 0xCF JUMPI PUSH1 0x0 CALLDATALOAD PUSH1 0xE0 SHR DUP1 PUSH4 0x40D5FF58 GT PUSH2 0x8C JUMPI DUP1 PUSH4 0x92ED93D0 GT PUSH2 0x66 JUMPI DUP1 PUSH4 0x92ED93D0 EQ PUSH2 0x1DD JUMPI DUP1 PUSH4 0x9499E018 EQ PUSH2 0x201 JUMPI DUP1 PUSH4 0xE0CAF0BD EQ PUSH2 0x20B JUMPI DUP1 PUSH4 0xFC1C7A70 EQ PUSH2 0x233 JUMPI PUSH2 0xCF JUMP JUMPDEST DUP1 PUSH4 0x40D5FF58 EQ PUSH2 0x199 JUMPI DUP1 PUSH4 0x5D1CA631 EQ PUSH2 0x1A3 JUMPI DUP1 PUSH4 0x62A681B3 EQ PUSH2 0x1C1 JUMPI PUSH2 0xCF JUMP JUMPDEST DUP1 PUSH4 0x121B5A25 EQ PUSH2 0xD4 JUMPI DUP1 PUSH4 0x169E68C3 EQ PUSH2 0xF2 JUMPI DUP1 PUSH4 0x2357AEF3 EQ PUSH2 0x126 JUMPI DUP1 PUSH4 0x236F45D9 EQ PUSH2 0x142 JUMPI DUP1 PUSH4 0x297E6306 EQ PUSH2 0x161 JUMPI DUP1 PUSH4 0x2D3FF3EE EQ PUSH2 0x17D JUMPI JUMPDEST PUSH1 0x0 DUP1 REVERT JUMPDEST PUSH2 0xDC PUSH2 0x251 JUMP JUMPDEST PUSH1 0x40 MLOAD PUSH2 0xE9 SWAP2 SWAP1 PUSH2 0x1E79 JUMP JUMPDEST PUSH1 0x40 MLOAD DUP1 SWAP2 SUB SWAP1 RETURN JUMPDEST PUSH2 0x10C PUSH1 0x4 DUP1 CALLDATASIZE SUB DUP2 ADD SWAP1 PUSH2 0x107 SWAP2 SWAP1 PUSH2 0x1A2F JUMP JUMPDEST PUSH2 0x2AC JUMP JUMPDEST PUSH1 0x40 MLOAD PUSH2 0x11D SWAP6 SWAP5 SWAP4 SWAP3 SWAP2 SWAP1 PUSH2 0x1D37 JUMP JUMPDEST PUSH1 0x40 MLOAD DUP1 SWAP2 SUB SWAP1 RETURN JUMPDEST PUSH2 0x140 PUSH1 0x4 DUP1 CALLDATASIZE SUB DUP2 ADD SWAP1 PUSH2 0x13B SWAP2 SWAP1 PUSH2 0x1A58 JUMP JUMPDEST PUSH2 0x33A JUMP JUMPDEST STOP JUMPDEST PUSH2 0x14A PUSH2 0x4F6 JUMP JUMPDEST PUSH1 0x40 MLOAD PUSH2 0x158 SWAP3 SWAP2 SWAP1 PUSH2 0x1E29 JUMP JUMPDEST PUSH1 0x40 MLOAD DUP1 SWAP2 SUB SWAP1 RETURN JUMPDEST PUSH2 0x17B PUSH1 0x4 DUP1 CALLDATASIZE SUB DUP2 ADD SWAP1 PUSH2 0x176 SWAP2 SWAP1 PUSH2 0x1A06 JUMP JUMPDEST PUSH2 0x1134 JUMP JUMPDEST STOP JUMPDEST PUSH2 0x197 PUSH1 0x4 DUP1 CALLDATASIZE SUB DUP2 ADD SWAP1 PUSH2 0x192 SWAP2 SWAP1 PUSH2 0x1A94 JUMP JUMPDEST PUSH2 0x11AC JUMP JUMPDEST STOP JUMPDEST PUSH2 0x1A1 PUSH2 0x138B JUMP JUMPDEST STOP JUMPDEST PUSH2 0x1AB PUSH2 0x1430 JUMP JUMPDEST PUSH1 0x40 MLOAD PUSH2 0x1B8 SWAP2 SWAP1 PUSH2 0x1C5C JUMP JUMPDEST PUSH1 0x40 MLOAD DUP1 SWAP2 SUB SWAP1 RETURN JUMPDEST PUSH2 0x1DB PUSH1 0x4 DUP1 CALLDATASIZE SUB DUP2 ADD SWAP1 PUSH2 0x1D6 SWAP2 SWAP1 PUSH2 0x1A2F JUMP JUMPDEST PUSH2 0x143D JUMP JUMPDEST STOP JUMPDEST PUSH2 0x1E5 PUSH2 0x1516 JUMP JUMPDEST PUSH1 0x40 MLOAD PUSH2 0x1F8 SWAP8 SWAP7 SWAP6 SWAP5 SWAP4 SWAP3 SWAP2 SWAP1 PUSH2 0x1D8A JUMP JUMPDEST PUSH1 0x40 MLOAD DUP1 SWAP2 SUB SWAP1 RETURN JUMPDEST PUSH2 0x209 PUSH2 0x15DD JUMP JUMPDEST STOP JUMPDEST PUSH2 0x213 PUSH2 0x166E JUMP JUMPDEST PUSH1 0x40 MLOAD PUSH2 0x22A SWAP12 SWAP11 SWAP10 SWAP9 SWAP8 SWAP7 SWAP6 SWAP5 SWAP4 SWAP3 SWAP2 SWAP1 PUSH2 0x1C77 JUMP JUMPDEST PUSH1 0x40 MLOAD DUP1 SWAP2 SUB SWAP1 RETURN JUMPDEST PUSH2 0x23B PUSH2 0x1886 JUMP JUMPDEST PUSH1 0x40 MLOAD PUSH2 0x248 SWAP2 SWAP1 PUSH2 0x1C5C JUMP JUMPDEST PUSH1 0x40 MLOAD DUP1 SWAP2 SUB SWAP1 RETURN JUMPDEST PUSH1 0x0 PUSH1 0xA PUSH1 0x0 ADD PUSH1 0x6 SWAP1 SLOAD SWAP1 PUSH2 0x100 EXP SWAP1 DIV PUSH2 0xFFFF AND PUSH1 0xA PUSH1 0x0 ADD PUSH1 0x2 SWAP1 SLOAD SWAP1 PUSH2 0x100 EXP SWAP1 DIV PUSH2 0xFFFF AND PUSH1 0xA PUSH1 0x0 ADD PUSH1 0x0 SWAP1 SLOAD SWAP1 PUSH2 0x100 EXP SWAP1 DIV PUSH2 0xFFFF AND PUSH2 0x299 SWAP2 SWAP1 PUSH2 0x1FA5 JUMP JUMPDEST PUSH2 0x2A3 SWAP2 SWAP1 PUSH2 0x1FA5 JUMP JUMPDEST PUSH2 0xFFFF AND SWAP1 POP SWAP1 JUMP JUMPDEST PUSH1 0x0 DUP1 PUSH1 0x0 DUP1 PUSH1 0x0 PUSH1 0x9 PUSH1 0x0 DUP8 DUP2 MSTORE PUSH1 0x20 ADD SWAP1 DUP2 MSTORE PUSH1 0x20 ADD PUSH1 0x0 KECCAK256 PUSH1 0x0 ADD SLOAD PUSH1 0x9 PUSH1 0x0 DUP9 DUP2 MSTORE PUSH1 0x20 ADD SWAP1 DUP2 MSTORE PUSH1 0x20 ADD PUSH1 0x0 KECCAK256 PUSH1 0x2 ADD SLOAD PUSH1 0x9 PUSH1 0x0 DUP10 DUP2 MSTORE PUSH1 0x20 ADD SWAP1 DUP2 MSTORE PUSH1 0x20 ADD PUSH1 0x0 KECCAK256 PUSH1 0x3 ADD SLOAD PUSH1 0x9 PUSH1 0x0 DUP11 DUP2 MSTORE PUSH1 0x20 ADD SWAP1 DUP2 MSTORE PUSH1 0x20 ADD PUSH1 0x0 KECCAK256 PUSH1 0x4 ADD SLOAD PUSH1 0x9 PUSH1 0x0 DUP12 DUP2 MSTORE PUSH1 0x20 ADD SWAP1 DUP2 MSTORE PUSH1 0x20 ADD PUSH1 0x0 KECCAK256 PUSH1 0x1 ADD SLOAD SWAP5 POP SWAP5 POP SWAP5 POP SWAP5 POP SWAP5 POP SWAP2 SWAP4 SWAP6 SWAP1 SWAP3 SWAP5 POP JUMP JUMPDEST PUSH1 0x0 PUSH32 0x504F534954495645000000000000000000000000000000000000000000000000 SWAP1 POP PUSH1 0x0 PUSH1 0x6 PUSH1 0x0 DUP6 DUP2 MSTORE PUSH1 0x20 ADD SWAP1 DUP2 MSTORE PUSH1 0x20 ADD PUSH1 0x0 KECCAK256 SLOAD SWAP1 POP DUP3 PUSH1 0x9 PUSH1 0x0 PUSH1 0x3 PUSH1 0x0 DUP6 DUP2 MSTORE PUSH1 0x20 ADD SWAP1 DUP2 MSTORE PUSH1 0x20 ADD PUSH1 0x0 KECCAK256 PUSH1 0x2 PUSH1 0x0 DUP10 DUP2 MSTORE PUSH1 0x20 ADD SWAP1 DUP2 MSTORE PUSH1 0x20 ADD PUSH1 0x0 KECCAK256 SLOAD DUP2 SLOAD DUP2 LT PUSH2 0x3DA JUMPI PUSH32 0x4E487B7100000000000000000000000000000000000000000000000000000000 PUSH1 0x0 MSTORE PUSH1 0x32 PUSH1 0x4 MSTORE PUSH1 0x24 PUSH1 0x0 REVERT JUMPDEST SWAP1 PUSH1 0x0 MSTORE PUSH1 0x20 PUSH1 0x0 KECCAK256 ADD SLOAD DUP2 MSTORE PUSH1 0x20 ADD SWAP1 DUP2 MSTORE PUSH1 0x20 ADD PUSH1 0x0 KECCAK256 PUSH1 0x0 ADD DUP2 SWAP1 SSTORE POP TIMESTAMP PUSH1 0x9 PUSH1 0x0 PUSH1 0x3 PUSH1 0x0 DUP6 DUP2 MSTORE PUSH1 0x20 ADD SWAP1 DUP2 MSTORE PUSH1 0x20 ADD PUSH1 0x0 KECCAK256 PUSH1 0x2 PUSH1 0x0 DUP10 DUP2 MSTORE PUSH1 0x20 ADD SWAP1 DUP2 MSTORE PUSH1 0x20 ADD PUSH1 0x0 KECCAK256 SLOAD DUP2 SLOAD DUP2 LT PUSH2 0x45D JUMPI PUSH32 0x4E487B7100000000000000000000000000000000000000000000000000000000 PUSH1 0x0 MSTORE PUSH1 0x32 PUSH1 0x4 MSTORE PUSH1 0x24 PUSH1 0x0 REVERT JUMPDEST SWAP1 PUSH1 0x0 MSTORE PUSH1 0x20 PUSH1 0x0 KECCAK256 ADD SLOAD DUP2 MSTORE PUSH1 0x20 ADD SWAP1 DUP2 MSTORE PUSH1 0x20 ADD PUSH1 0x0 KECCAK256 PUSH1 0x4 ADD DUP2 SWAP1 SSTORE POP DUP2 DUP4 EQ ISZERO PUSH2 0x4F0 JUMPI PUSH1 0x1 PUSH1 0x1A PUSH1 0x0 PUSH2 0x100 EXP DUP2 SLOAD DUP2 PUSH1 0xFF MUL NOT AND SWAP1 DUP4 ISZERO ISZERO MUL OR SWAP1 SSTORE POP PUSH32 0x55CB01DF06BA1925769D5C9D83199624C566E9E81719D4A3D02AEE576149D7F9 DUP2 TIMESTAMP PUSH1 0x40 MLOAD PUSH2 0x4D1 SWAP3 SWAP2 SWAP1 PUSH2 0x1E00 JUMP JUMPDEST PUSH1 0x40 MLOAD DUP1 SWAP2 SUB SWAP1 LOG1 PUSH1 0xA PUSH1 0x3 ADD SLOAD TIMESTAMP LT ISZERO PUSH2 0x4EF JUMPI PUSH2 0x4EE PUSH2 0x138B JUMP JUMPDEST JUMPDEST JUMPDEST POP POP POP POP JUMP JUMPDEST PUSH1 0x60 PUSH1 0x0 DUP1 PUSH2 0x591 PUSH1 0xF PUSH1 0x0 ADD DUP1 SLOAD PUSH2 0x50E SWAP1 PUSH2 0x2120 JUMP JUMPDEST DUP1 PUSH1 0x1F ADD PUSH1 0x20 DUP1 SWAP2 DIV MUL PUSH1 0x20 ADD PUSH1 0x40 MLOAD SWAP1 DUP2 ADD PUSH1 0x40 MSTORE DUP1 SWAP3 SWAP2 SWAP1 DUP2 DUP2 MSTORE PUSH1 0x20 ADD DUP3 DUP1 SLOAD PUSH2 0x53A SWAP1 PUSH2 0x2120 JUMP JUMPDEST DUP1 ISZERO PUSH2 0x587 JUMPI DUP1 PUSH1 0x1F LT PUSH2 0x55C JUMPI PUSH2 0x100 DUP1 DUP4 SLOAD DIV MUL DUP4 MSTORE SWAP2 PUSH1 0x20 ADD SWAP2 PUSH2 0x587 JUMP JUMPDEST DUP3 ADD SWAP2 SWAP1 PUSH1 0x0 MSTORE PUSH1 0x20 PUSH1 0x0 KECCAK256 SWAP1 JUMPDEST DUP2 SLOAD DUP2 MSTORE SWAP1 PUSH1 0x1 ADD SWAP1 PUSH1 0x20 ADD DUP1 DUP4 GT PUSH2 0x56A JUMPI DUP3 SWAP1 SUB PUSH1 0x1F AND DUP3 ADD SWAP2 JUMPDEST POP POP POP POP POP PUSH2 0x1893 JUMP JUMPDEST SWAP1 POP PUSH1 0x0 PUSH2 0x62B PUSH1 0xF PUSH1 0x1 ADD DUP1 SLOAD PUSH2 0x5A8 SWAP1 PUSH2 0x2120 JUMP JUMPDEST DUP1 PUSH1 0x1F ADD PUSH1 0x20 DUP1 SWAP2 DIV MUL PUSH1 0x20 ADD PUSH1 0x40 MLOAD SWAP1 DUP2 ADD PUSH1 0x40 MSTORE DUP1 SWAP3 SWAP2 SWAP1 DUP2 DUP2 MSTORE PUSH1 0x20 ADD DUP3 DUP1 SLOAD PUSH2 0x5D4 SWAP1 PUSH2 0x2120 JUMP JUMPDEST DUP1 ISZERO PUSH2 0x621 JUMPI DUP1 PUSH1 0x1F LT PUSH2 0x5F6 JUMPI PUSH2 0x100 DUP1 DUP4 SLOAD DIV MUL DUP4 MSTORE SWAP2 PUSH1 0x20 ADD SWAP2 PUSH2 0x621 JUMP JUMPDEST DUP3 ADD SWAP2 SWAP1 PUSH1 0x0 MSTORE PUSH1 0x20 PUSH1 0x0 KECCAK256 SWAP1 JUMPDEST DUP2 SLOAD DUP2 MSTORE SWAP1 PUSH1 0x1 ADD SWAP1 PUSH1 0x20 ADD DUP1 DUP4 GT PUSH2 0x604 JUMPI DUP3 SWAP1 SUB PUSH1 0x1F AND DUP3 ADD SWAP2 JUMPDEST POP POP POP POP POP PUSH2 0x1893 JUMP JUMPDEST SWAP1 POP PUSH1 0x0 PUSH2 0x6C5 PUSH1 0xF PUSH1 0x2 ADD DUP1 SLOAD PUSH2 0x642 SWAP1 PUSH2 0x2120 JUMP JUMPDEST DUP1 PUSH1 0x1F ADD PUSH1 0x20 DUP1 SWAP2 DIV MUL PUSH1 0x20 ADD PUSH1 0x40 MLOAD SWAP1 DUP2 ADD PUSH1 0x40 MSTORE DUP1 SWAP3 SWAP2 SWAP1 DUP2 DUP2 MSTORE PUSH1 0x20 ADD DUP3 DUP1 SLOAD PUSH2 0x66E SWAP1 PUSH2 0x2120 JUMP JUMPDEST DUP1 ISZERO PUSH2 0x6BB JUMPI DUP1 PUSH1 0x1F LT PUSH2 0x690 JUMPI PUSH2 0x100 DUP1 DUP4 SLOAD DIV MUL DUP4 MSTORE SWAP2 PUSH1 0x20 ADD SWAP2 PUSH2 0x6BB JUMP JUMPDEST DUP3 ADD SWAP2 SWAP1 PUSH1 0x0 MSTORE PUSH1 0x20 PUSH1 0x0 KECCAK256 SWAP1 JUMPDEST DUP2 SLOAD DUP2 MSTORE SWAP1 PUSH1 0x1 ADD SWAP1 PUSH1 0x20 ADD DUP1 DUP4 GT PUSH2 0x69E JUMPI DUP3 SWAP1 SUB PUSH1 0x1F AND DUP3 ADD SWAP2 JUMPDEST POP POP POP POP POP PUSH2 0x1893 JUMP JUMPDEST SWAP1 POP PUSH1 0x0 PUSH1 0x1E PUSH1 0xA PUSH1 0x0 ADD PUSH1 0x4 SWAP1 SLOAD SWAP1 PUSH2 0x100 EXP SWAP1 DIV PUSH2 0xFFFF AND PUSH1 0xA0 PUSH2 0x6EB SWAP2 SWAP1 PUSH2 0x1FA5 JUMP JUMPDEST PUSH1 0x2 PUSH1 0xA DUP6 DUP8 DUP10 PUSH2 0x100 PUSH1 0x2 PUSH1 0xA PUSH1 0x0 ADD PUSH1 0x6 SWAP1 SLOAD SWAP1 PUSH2 0x100 EXP SWAP1 DIV PUSH2 0xFFFF AND PUSH1 0x20 PUSH2 0x717 SWAP2 SWAP1 PUSH2 0x1FA5 JUMP JUMPDEST PUSH2 0x721 SWAP2 SWAP1 PUSH2 0x1FA5 JUMP JUMPDEST PUSH1 0xA PUSH1 0x0 ADD PUSH1 0x6 SWAP1 SLOAD SWAP1 PUSH2 0x100 EXP SWAP1 DIV PUSH2 0xFFFF AND PUSH1 0x20 PUSH2 0x741 SWAP2 SWAP1 PUSH2 0x1FA5 JUMP JUMPDEST PUSH1 0x64 PUSH2 0x74D SWAP2 SWAP1 PUSH2 0x1F3C JUMP JUMPDEST PUSH2 0x757 SWAP2 SWAP1 PUSH2 0x1F3C JUMP JUMPDEST PUSH2 0x761 SWAP2 SWAP1 PUSH2 0x1F3C JUMP JUMPDEST PUSH2 0x76B SWAP2 SWAP1 PUSH2 0x1F3C JUMP JUMPDEST PUSH2 0x775 SWAP2 SWAP1 PUSH2 0x1F3C JUMP JUMPDEST PUSH2 0x77F SWAP2 SWAP1 PUSH2 0x1F3C JUMP JUMPDEST PUSH2 0x789 SWAP2 SWAP1 PUSH2 0x1F3C JUMP JUMPDEST PUSH2 0x793 SWAP2 SWAP1 PUSH2 0x1F3C JUMP JUMPDEST PUSH2 0x79D SWAP2 SWAP1 PUSH2 0x1F3C JUMP JUMPDEST PUSH2 0x7A7 SWAP2 SWAP1 PUSH2 0x1F3C JUMP JUMPDEST PUSH2 0xFFFF AND SWAP1 POP DUP1 PUSH8 0xFFFFFFFFFFFFFFFF DUP2 GT ISZERO PUSH2 0x7ED JUMPI PUSH32 0x4E487B7100000000000000000000000000000000000000000000000000000000 PUSH1 0x0 MSTORE PUSH1 0x41 PUSH1 0x4 MSTORE PUSH1 0x24 PUSH1 0x0 REVERT JUMPDEST PUSH1 0x40 MLOAD SWAP1 DUP1 DUP3 MSTORE DUP1 PUSH1 0x1F ADD PUSH1 0x1F NOT AND PUSH1 0x20 ADD DUP3 ADD PUSH1 0x40 MSTORE DUP1 ISZERO PUSH2 0x81F JUMPI DUP2 PUSH1 0x20 ADD PUSH1 0x1 DUP3 MUL DUP1 CALLDATASIZE DUP4 CALLDATACOPY DUP1 DUP3 ADD SWAP2 POP POP SWAP1 POP JUMPDEST POP SWAP6 POP DUP1 SWAP5 POP PUSH2 0x835 DUP2 PUSH1 0xA PUSH1 0x1 ADD SLOAD DUP9 PUSH2 0x18EB JUMP JUMPDEST PUSH1 0x20 DUP2 PUSH2 0x842 SWAP2 SWAP1 PUSH2 0x203B JUMP JUMPDEST SWAP1 POP PUSH2 0x854 DUP2 PUSH1 0xA PUSH1 0x2 ADD SLOAD DUP9 PUSH2 0x191E JUMP JUMPDEST PUSH1 0x20 DUP2 PUSH2 0x861 SWAP2 SWAP1 PUSH2 0x203B JUMP JUMPDEST SWAP1 POP PUSH2 0x873 DUP2 PUSH1 0xA PUSH1 0x3 ADD SLOAD DUP9 PUSH2 0x191E JUMP JUMPDEST PUSH1 0x20 DUP2 PUSH2 0x880 SWAP2 SWAP1 PUSH2 0x203B JUMP JUMPDEST SWAP1 POP PUSH2 0x8A4 DUP2 PUSH1 0xA PUSH1 0x0 ADD PUSH1 0x0 SWAP1 SLOAD SWAP1 PUSH2 0x100 EXP SWAP1 DIV PUSH2 0xFFFF AND PUSH2 0xFFFF AND DUP9 PUSH2 0x191E JUMP JUMPDEST PUSH1 0x2 DUP2 PUSH2 0x8B1 SWAP2 SWAP1 PUSH2 0x203B JUMP JUMPDEST SWAP1 POP PUSH2 0x8D5 DUP2 PUSH1 0xA PUSH1 0x0 ADD PUSH1 0x2 SWAP1 SLOAD SWAP1 PUSH2 0x100 EXP SWAP1 DIV PUSH2 0xFFFF AND PUSH2 0xFFFF AND DUP9 PUSH2 0x191E JUMP JUMPDEST PUSH1 0x2 DUP2 PUSH2 0x8E2 SWAP2 SWAP1 PUSH2 0x203B JUMP JUMPDEST SWAP1 POP PUSH2 0x8F4 DUP2 PUSH1 0xF PUSH1 0x3 ADD SLOAD DUP9 PUSH2 0x18EB JUMP JUMPDEST PUSH1 0x20 DUP2 PUSH2 0x901 SWAP2 SWAP1 PUSH2 0x203B JUMP JUMPDEST SWAP1 POP PUSH2 0x913 DUP2 PUSH1 0xF PUSH1 0x4 ADD SLOAD DUP9 PUSH2 0x18EB JUMP JUMPDEST PUSH1 0x20 DUP2 PUSH2 0x920 SWAP2 SWAP1 PUSH2 0x203B JUMP JUMPDEST SWAP1 POP PUSH2 0x932 DUP2 PUSH1 0xF PUSH1 0x5 ADD SLOAD DUP9 PUSH2 0x18EB JUMP JUMPDEST PUSH1 0x20 DUP2 PUSH2 0x93F SWAP2 SWAP1 PUSH2 0x203B JUMP JUMPDEST SWAP1 POP PUSH2 0x951 DUP2 PUSH1 0xF PUSH1 0x6 ADD SLOAD DUP9 PUSH2 0x18EB JUMP JUMPDEST PUSH1 0x20 DUP2 PUSH2 0x95E SWAP2 SWAP1 PUSH2 0x203B JUMP JUMPDEST SWAP1 POP PUSH2 0x970 DUP2 PUSH1 0xF PUSH1 0x7 ADD SLOAD DUP9 PUSH2 0x18EB JUMP JUMPDEST PUSH1 0x20 DUP2 PUSH2 0x97D SWAP2 SWAP1 PUSH2 0x203B JUMP JUMPDEST SWAP1 POP PUSH2 0x98F DUP2 PUSH1 0xF PUSH1 0x8 ADD SLOAD DUP9 PUSH2 0x18EB JUMP JUMPDEST PUSH1 0x20 DUP2 PUSH2 0x99C SWAP2 SWAP1 PUSH2 0x203B JUMP JUMPDEST SWAP1 POP PUSH2 0x9AE DUP2 PUSH1 0xF PUSH1 0x9 ADD SLOAD DUP9 PUSH2 0x18EB JUMP JUMPDEST PUSH1 0x20 DUP2 PUSH2 0x9BB SWAP2 SWAP1 PUSH2 0x203B JUMP JUMPDEST SWAP1 POP PUSH2 0x9CD DUP2 PUSH1 0xF PUSH1 0xA ADD SLOAD DUP9 PUSH2 0x18EB JUMP JUMPDEST PUSH1 0x20 DUP2 PUSH2 0x9DA SWAP2 SWAP1 PUSH2 0x203B JUMP JUMPDEST SWAP1 POP PUSH2 0x9F6 DUP2 PUSH1 0x1A PUSH1 0x0 SWAP1 SLOAD SWAP1 PUSH2 0x100 EXP SWAP1 DIV PUSH1 0xFF AND DUP9 PUSH2 0x1928 JUMP JUMPDEST PUSH1 0x1 DUP2 PUSH2 0xA03 SWAP2 SWAP1 PUSH2 0x203B JUMP JUMPDEST SWAP1 POP PUSH2 0xA1F DUP2 PUSH1 0x1A PUSH1 0x1 SWAP1 SLOAD SWAP1 PUSH2 0x100 EXP SWAP1 DIV PUSH1 0xFF AND DUP9 PUSH2 0x1928 JUMP JUMPDEST PUSH1 0x1 DUP2 PUSH2 0xA2C SWAP2 SWAP1 PUSH2 0x203B JUMP JUMPDEST SWAP1 POP PUSH2 0xA3D DUP2 DUP6 PUSH2 0xFFFF AND DUP9 PUSH2 0x191E JUMP JUMPDEST PUSH1 0x2 DUP2 PUSH2 0xA4A SWAP2 SWAP1 PUSH2 0x203B JUMP JUMPDEST SWAP1 POP PUSH2 0xAE4 DUP2 PUSH1 0xF PUSH1 0x0 ADD DUP1 SLOAD PUSH2 0xA60 SWAP1 PUSH2 0x2120 JUMP JUMPDEST DUP1 PUSH1 0x1F ADD PUSH1 0x20 DUP1 SWAP2 DIV MUL PUSH1 0x20 ADD PUSH1 0x40 MLOAD SWAP1 DUP2 ADD PUSH1 0x40 MSTORE DUP1 SWAP3 SWAP2 SWAP1 DUP2 DUP2 MSTORE PUSH1 0x20 ADD DUP3 DUP1 SLOAD PUSH2 0xA8C SWAP1 PUSH2 0x2120 JUMP JUMPDEST DUP1 ISZERO PUSH2 0xAD9 JUMPI DUP1 PUSH1 0x1F LT PUSH2 0xAAE JUMPI PUSH2 0x100 DUP1 DUP4 SLOAD DIV MUL DUP4 MSTORE SWAP2 PUSH1 0x20 ADD SWAP2 PUSH2 0xAD9 JUMP JUMPDEST DUP3 ADD SWAP2 SWAP1 PUSH1 0x0 MSTORE PUSH1 0x20 PUSH1 0x0 KECCAK256 SWAP1 JUMPDEST DUP2 SLOAD DUP2 MSTORE SWAP1 PUSH1 0x1 ADD SWAP1 PUSH1 0x20 ADD DUP1 DUP4 GT PUSH2 0xABC JUMPI DUP3 SWAP1 SUB PUSH1 0x1F AND DUP3 ADD SWAP2 JUMPDEST POP POP POP POP POP DUP9 PUSH2 0x194C JUMP JUMPDEST DUP4 PUSH2 0xFFFF AND DUP2 PUSH2 0xAF4 SWAP2 SWAP1 PUSH2 0x203B JUMP JUMPDEST SWAP1 POP PUSH2 0xB05 DUP2 DUP5 PUSH2 0xFFFF AND DUP9 PUSH2 0x191E JUMP JUMPDEST PUSH1 0x2 DUP2 PUSH2 0xB12 SWAP2 SWAP1 PUSH2 0x203B JUMP JUMPDEST SWAP1 POP PUSH2 0xBAC DUP2 PUSH1 0xF PUSH1 0x1 ADD DUP1 SLOAD PUSH2 0xB28 SWAP1 PUSH2 0x2120 JUMP JUMPDEST DUP1 PUSH1 0x1F ADD PUSH1 0x20 DUP1 SWAP2 DIV MUL PUSH1 0x20 ADD PUSH1 0x40 MLOAD SWAP1 DUP2 ADD PUSH1 0x40 MSTORE DUP1 SWAP3 SWAP2 SWAP1 DUP2 DUP2 MSTORE PUSH1 0x20 ADD DUP3 DUP1 SLOAD PUSH2 0xB54 SWAP1 PUSH2 0x2120 JUMP JUMPDEST DUP1 ISZERO PUSH2 0xBA1 JUMPI DUP1 PUSH1 0x1F LT PUSH2 0xB76 JUMPI PUSH2 0x100 DUP1 DUP4 SLOAD DIV MUL DUP4 MSTORE SWAP2 PUSH1 0x20 ADD SWAP2 PUSH2 0xBA1 JUMP JUMPDEST DUP3 ADD SWAP2 SWAP1 PUSH1 0x0 MSTORE PUSH1 0x20 PUSH1 0x0 KECCAK256 SWAP1 JUMPDEST DUP2 SLOAD DUP2 MSTORE SWAP1 PUSH1 0x1 ADD SWAP1 PUSH1 0x20 ADD DUP1 DUP4 GT PUSH2 0xB84 JUMPI DUP3 SWAP1 SUB PUSH1 0x1F AND DUP3 ADD SWAP2 JUMPDEST POP POP POP POP POP DUP9 PUSH2 0x194C JUMP JUMPDEST DUP3 PUSH2 0xFFFF AND DUP2 PUSH2 0xBBC SWAP2 SWAP1 PUSH2 0x203B JUMP JUMPDEST SWAP1 POP PUSH2 0xBCD DUP2 DUP4 PUSH2 0xFFFF AND DUP9 PUSH2 0x191E JUMP JUMPDEST PUSH1 0x2 DUP2 PUSH2 0xBDA SWAP2 SWAP1 PUSH2 0x203B JUMP JUMPDEST SWAP1 POP PUSH2 0xC74 DUP2 PUSH1 0xF PUSH1 0x2 ADD DUP1 SLOAD PUSH2 0xBF0 SWAP1 PUSH2 0x2120 JUMP JUMPDEST DUP1 PUSH1 0x1F ADD PUSH1 0x20 DUP1 SWAP2 DIV MUL PUSH1 0x20 ADD PUSH1 0x40 MLOAD SWAP1 DUP2 ADD PUSH1 0x40 MSTORE DUP1 SWAP3 SWAP2 SWAP1 DUP2 DUP2 MSTORE PUSH1 0x20 ADD DUP3 DUP1 SLOAD PUSH2 0xC1C SWAP1 PUSH2 0x2120 JUMP JUMPDEST DUP1 ISZERO PUSH2 0xC69 JUMPI DUP1 PUSH1 0x1F LT PUSH2 0xC3E JUMPI PUSH2 0x100 DUP1 DUP4 SLOAD DIV MUL DUP4 MSTORE SWAP2 PUSH1 0x20 ADD SWAP2 PUSH2 0xC69 JUMP JUMPDEST DUP3 ADD SWAP2 SWAP1 PUSH1 0x0 MSTORE PUSH1 0x20 PUSH1 0x0 KECCAK256 SWAP1 JUMPDEST DUP2 SLOAD DUP2 MSTORE SWAP1 PUSH1 0x1 ADD SWAP1 PUSH1 0x20 ADD DUP1 DUP4 GT PUSH2 0xC4C JUMPI DUP3 SWAP1 SUB PUSH1 0x1F AND DUP3 ADD SWAP2 JUMPDEST POP POP POP POP POP DUP9 PUSH2 0x194C JUMP JUMPDEST DUP2 PUSH2 0xFFFF AND DUP2 PUSH2 0xC84 SWAP2 SWAP1 PUSH2 0x203B JUMP JUMPDEST SWAP1 POP PUSH2 0xCA8 DUP2 PUSH1 0xA PUSH1 0x0 ADD PUSH1 0x6 SWAP1 SLOAD SWAP1 PUSH2 0x100 EXP SWAP1 DIV PUSH2 0xFFFF AND PUSH2 0xFFFF AND DUP9 PUSH2 0x191E JUMP JUMPDEST PUSH1 0x2 DUP2 PUSH2 0xCB5 SWAP2 SWAP1 PUSH2 0x203B JUMP JUMPDEST SWAP1 POP PUSH1 0x0 JUMPDEST PUSH1 0xA PUSH1 0x0 ADD PUSH1 0x6 SWAP1 SLOAD SWAP1 PUSH2 0x100 EXP SWAP1 DIV PUSH2 0xFFFF AND PUSH2 0xFFFF AND DUP2 LT ISZERO PUSH2 0xE35 JUMPI PUSH2 0xD2B DUP3 PUSH1 0xA PUSH1 0x4 ADD DUP4 DUP2 SLOAD DUP2 LT PUSH2 0xD1A JUMPI PUSH32 0x4E487B7100000000000000000000000000000000000000000000000000000000 PUSH1 0x0 MSTORE PUSH1 0x32 PUSH1 0x4 MSTORE PUSH1 0x24 PUSH1 0x0 REVERT JUMPDEST SWAP1 PUSH1 0x0 MSTORE PUSH1 0x20 PUSH1 0x0 KECCAK256 ADD SLOAD DUP10 PUSH2 0x18EB JUMP JUMPDEST PUSH1 0x20 DUP3 PUSH2 0xD38 SWAP2 SWAP1 PUSH2 0x203B JUMP JUMPDEST SWAP2 POP PUSH2 0xD9F DUP3 PUSH1 0x7 PUSH1 0x0 PUSH1 0xA PUSH1 0x4 ADD DUP6 DUP2 SLOAD DUP2 LT PUSH2 0xD7F JUMPI PUSH32 0x4E487B7100000000000000000000000000000000000000000000000000000000 PUSH1 0x0 MSTORE PUSH1 0x32 PUSH1 0x4 MSTORE PUSH1 0x24 PUSH1 0x0 REVERT JUMPDEST SWAP1 PUSH1 0x0 MSTORE PUSH1 0x20 PUSH1 0x0 KECCAK256 ADD SLOAD DUP2 MSTORE PUSH1 0x20 ADD SWAP1 DUP2 MSTORE PUSH1 0x20 ADD PUSH1 0x0 KECCAK256 SLOAD DUP10 PUSH2 0x18EB JUMP JUMPDEST PUSH1 0x20 DUP3 PUSH2 0xDAC SWAP2 SWAP1 PUSH2 0x203B JUMP JUMPDEST SWAP2 POP PUSH2 0xE13 DUP3 PUSH1 0x8 PUSH1 0x0 PUSH1 0xA PUSH1 0x4 ADD DUP6 DUP2 SLOAD DUP2 LT PUSH2 0xDF3 JUMPI PUSH32 0x4E487B7100000000000000000000000000000000000000000000000000000000 PUSH1 0x0 MSTORE PUSH1 0x32 PUSH1 0x4 MSTORE PUSH1 0x24 PUSH1 0x0 REVERT JUMPDEST SWAP1 PUSH1 0x0 MSTORE PUSH1 0x20 PUSH1 0x0 KECCAK256 ADD SLOAD DUP2 MSTORE PUSH1 0x20 ADD SWAP1 DUP2 MSTORE PUSH1 0x20 ADD PUSH1 0x0 KECCAK256 SLOAD DUP10 PUSH2 0x191E JUMP JUMPDEST PUSH1 0x20 DUP3 PUSH2 0xE20 SWAP2 SWAP1 PUSH2 0x203B JUMP JUMPDEST SWAP2 POP DUP1 DUP1 PUSH2 0xE2D SWAP1 PUSH2 0x217D JUMP JUMPDEST SWAP2 POP POP PUSH2 0xCBA JUMP JUMPDEST POP PUSH2 0xE58 DUP2 PUSH1 0xA PUSH1 0x0 ADD PUSH1 0x4 SWAP1 SLOAD SWAP1 PUSH2 0x100 EXP SWAP1 DIV PUSH2 0xFFFF AND PUSH2 0xFFFF AND DUP9 PUSH2 0x191E JUMP JUMPDEST PUSH1 0x20 DUP2 PUSH2 0xE65 SWAP2 SWAP1 PUSH2 0x203B JUMP JUMPDEST SWAP1 POP PUSH1 0x0 DUP1 PUSH1 0x0 DUP1 PUSH1 0x0 DUP1 PUSH1 0x0 SWAP1 POP JUMPDEST PUSH1 0xA PUSH1 0x0 ADD PUSH1 0x6 SWAP1 SLOAD SWAP1 PUSH2 0x100 EXP SWAP1 DIV PUSH2 0xFFFF AND PUSH2 0xFFFF AND DUP2 LT ISZERO PUSH2 0x1126 JUMPI PUSH1 0x0 JUMPDEST PUSH1 0x3 PUSH1 0x0 PUSH1 0xA PUSH1 0x4 ADD DUP5 DUP2 SLOAD DUP2 LT PUSH2 0xED8 JUMPI PUSH32 0x4E487B7100000000000000000000000000000000000000000000000000000000 PUSH1 0x0 MSTORE PUSH1 0x32 PUSH1 0x4 MSTORE PUSH1 0x24 PUSH1 0x0 REVERT JUMPDEST SWAP1 PUSH1 0x0 MSTORE PUSH1 0x20 PUSH1 0x0 KECCAK256 ADD SLOAD DUP2 MSTORE PUSH1 0x20 ADD SWAP1 DUP2 MSTORE PUSH1 0x20 ADD PUSH1 0x0 KECCAK256 DUP1 SLOAD SWAP1 POP DUP2 LT ISZERO PUSH2 0x1112 JUMPI PUSH1 0x5 PUSH1 0x0 PUSH1 0x3 PUSH1 0x0 PUSH1 0xA PUSH1 0x4 ADD DUP7 DUP2 SLOAD DUP2 LT PUSH2 0xF41 JUMPI PUSH32 0x4E487B7100000000000000000000000000000000000000000000000000000000 PUSH1 0x0 MSTORE PUSH1 0x32 PUSH1 0x4 MSTORE PUSH1 0x24 PUSH1 0x0 REVERT JUMPDEST SWAP1 PUSH1 0x0 MSTORE PUSH1 0x20 PUSH1 0x0 KECCAK256 ADD SLOAD DUP2 MSTORE PUSH1 0x20 ADD SWAP1 DUP2 MSTORE PUSH1 0x20 ADD PUSH1 0x0 KECCAK256 DUP4 DUP2 SLOAD DUP2 LT PUSH2 0xF92 JUMPI PUSH32 0x4E487B7100000000000000000000000000000000000000000000000000000000 PUSH1 0x0 MSTORE PUSH1 0x32 PUSH1 0x4 MSTORE PUSH1 0x24 PUSH1 0x0 REVERT JUMPDEST SWAP1 PUSH1 0x0 MSTORE PUSH1 0x20 PUSH1 0x0 KECCAK256 ADD SLOAD DUP2 MSTORE PUSH1 0x20 ADD SWAP1 DUP2 MSTORE PUSH1 0x20 ADD PUSH1 0x0 KECCAK256 PUSH1 0x0 SWAP1 SLOAD SWAP1 PUSH2 0x100 EXP SWAP1 DIV PUSH1 0xFF AND ISZERO PUSH2 0xFC3 JUMPI PUSH2 0x10FF JUMP JUMPDEST PUSH2 0x1068 PUSH1 0x3 PUSH1 0x0 PUSH1 0xA PUSH1 0x4 ADD DUP6 DUP2 SLOAD DUP2 LT PUSH2 0x1007 JUMPI PUSH32 0x4E487B7100000000000000000000000000000000000000000000000000000000 PUSH1 0x0 MSTORE PUSH1 0x32 PUSH1 0x4 MSTORE PUSH1 0x24 PUSH1 0x0 REVERT JUMPDEST SWAP1 PUSH1 0x0 MSTORE PUSH1 0x20 PUSH1 0x0 KECCAK256 ADD SLOAD DUP2 MSTORE PUSH1 0x20 ADD SWAP1 DUP2 MSTORE PUSH1 0x20 ADD PUSH1 0x0 KECCAK256 DUP3 DUP2 SLOAD DUP2 LT PUSH2 0x1058 JUMPI PUSH32 0x4E487B7100000000000000000000000000000000000000000000000000000000 PUSH1 0x0 MSTORE PUSH1 0x32 PUSH1 0x4 MSTORE PUSH1 0x24 PUSH1 0x0 REVERT JUMPDEST SWAP1 PUSH1 0x0 MSTORE PUSH1 0x20 PUSH1 0x0 KECCAK256 ADD SLOAD PUSH2 0x2AC JUMP JUMPDEST DUP1 SWAP8 POP DUP2 SWAP9 POP DUP3 SWAP10 POP DUP4 SWAP11 POP DUP5 SWAP12 POP POP POP POP POP POP PUSH2 0x1087 DUP9 DUP5 DUP16 PUSH2 0x18EB JUMP JUMPDEST PUSH1 0x20 DUP9 PUSH2 0x1094 SWAP2 SWAP1 PUSH2 0x203B JUMP JUMPDEST SWAP8 POP PUSH2 0x10A1 DUP9 DUP6 DUP16 PUSH2 0x191E JUMP JUMPDEST PUSH1 0x20 DUP9 PUSH2 0x10AE SWAP2 SWAP1 PUSH2 0x203B JUMP JUMPDEST SWAP8 POP PUSH2 0x10BB DUP9 DUP7 DUP16 PUSH2 0x191E JUMP JUMPDEST PUSH1 0x20 DUP9 PUSH2 0x10C8 SWAP2 SWAP1 PUSH2 0x203B JUMP JUMPDEST SWAP8 POP PUSH2 0x10D5 DUP9 DUP8 DUP16 PUSH2 0x18EB JUMP JUMPDEST PUSH1 0x20 DUP9 PUSH2 0x10E2 SWAP2 SWAP1 PUSH2 0x203B JUMP JUMPDEST SWAP8 POP PUSH2 0x10EF DUP9 DUP9 DUP16 PUSH2 0x18EB JUMP JUMPDEST PUSH1 0x20 DUP9 PUSH2 0x10FC SWAP2 SWAP1 PUSH2 0x203B JUMP JUMPDEST SWAP8 POP JUMPDEST DUP1 DUP1 PUSH2 0x110A SWAP1 PUSH2 0x217D JUMP JUMPDEST SWAP2 POP POP PUSH2 0xE97 JUMP JUMPDEST POP DUP1 DUP1 PUSH2 0x111E SWAP1 PUSH2 0x217D JUMP JUMPDEST SWAP2 POP POP PUSH2 0xE75 JUMP JUMPDEST POP POP POP POP POP POP POP POP POP POP SWAP1 SWAP2 JUMP JUMPDEST PUSH1 0x1 PUSH1 0x14 SWAP1 SLOAD SWAP1 PUSH2 0x100 EXP SWAP1 DIV PUSH1 0xFF AND ISZERO PUSH2 0x114E JUMPI PUSH1 0x0 DUP1 REVERT JUMPDEST PUSH1 0x1 DUP1 PUSH1 0x14 PUSH2 0x100 EXP DUP2 SLOAD DUP2 PUSH1 0xFF MUL NOT AND SWAP1 DUP4 ISZERO ISZERO MUL OR SWAP1 SSTORE POP DUP1 PUSH1 0x1 PUSH1 0x0 PUSH2 0x100 EXP DUP2 SLOAD DUP2 PUSH20 0xFFFFFFFFFFFFFFFFFFFFFFFFFFFFFFFFFFFFFFFF MUL NOT AND SWAP1 DUP4 PUSH20 0xFFFFFFFFFFFFFFFFFFFFFFFFFFFFFFFFFFFFFFFF AND MUL OR SWAP1 SSTORE POP POP JUMP JUMPDEST PUSH1 0x4 PUSH1 0x0 DUP5 DUP2 MSTORE PUSH1 0x20 ADD SWAP1 DUP2 MSTORE PUSH1 0x20 ADD PUSH1 0x0 KECCAK256 PUSH1 0x0 SWAP1 SLOAD SWAP1 PUSH2 0x100 EXP SWAP1 DIV PUSH1 0xFF AND PUSH2 0x120C JUMPI PUSH1 0x40 MLOAD PUSH32 0x8C379A000000000000000000000000000000000000000000000000000000000 DUP2 MSTORE PUSH1 0x4 ADD PUSH2 0x1203 SWAP1 PUSH2 0x1E59 JUMP JUMPDEST PUSH1 0x40 MLOAD DUP1 SWAP2 SUB SWAP1 REVERT JUMPDEST PUSH1 0x3 PUSH1 0x0 DUP5 DUP2 MSTORE PUSH1 0x20 ADD SWAP1 DUP2 MSTORE PUSH1 0x20 ADD PUSH1 0x0 KECCAK256 DUP3 SWAP1 DUP1 PUSH1 0x1 DUP2 SLOAD ADD DUP1 DUP3 SSTORE DUP1 SWAP2 POP POP PUSH1 0x1 SWAP1 SUB SWAP1 PUSH1 0x0 MSTORE PUSH1 0x20 PUSH1 0x0 KECCAK256 ADD PUSH1 0x0 SWAP1 SWAP2 SWAP1 SWAP2 SWAP1 SWAP2 POP SSTORE PUSH1 0x3 PUSH1 0x0 DUP5 DUP2 MSTORE PUSH1 0x20 ADD SWAP1 DUP2 MSTORE PUSH1 0x20 ADD PUSH1 0x0 KECCAK256 DUP1 SLOAD SWAP1 POP PUSH1 0x2 PUSH1 0x0 DUP5 DUP2 MSTORE PUSH1 0x20 ADD SWAP1 DUP2 MSTORE PUSH1 0x20 ADD PUSH1 0x0 KECCAK256 DUP2 SWAP1 SSTORE POP DUP3 PUSH1 0x6 PUSH1 0x0 DUP5 DUP2 MSTORE PUSH1 0x20 ADD SWAP1 DUP2 MSTORE PUSH1 0x20 ADD PUSH1 0x0 KECCAK256 DUP2 SWAP1 SSTORE POP PUSH1 0x40 MLOAD DUP1 PUSH1 0xA0 ADD PUSH1 0x40 MSTORE DUP1 PUSH32 0x554E444546494E45440000000000000000000000000000000000000000000000 DUP2 MSTORE PUSH1 0x20 ADD DUP4 DUP2 MSTORE PUSH1 0x20 ADD DUP5 DUP2 MSTORE PUSH1 0x20 ADD DUP3 DUP2 MSTORE PUSH1 0x20 ADD PUSH1 0x0 DUP2 MSTORE POP PUSH1 0x9 PUSH1 0x0 DUP5 DUP2 MSTORE PUSH1 0x20 ADD SWAP1 DUP2 MSTORE PUSH1 0x20 ADD PUSH1 0x0 KECCAK256 PUSH1 0x0 DUP3 ADD MLOAD DUP2 PUSH1 0x0 ADD SSTORE PUSH1 0x20 DUP3 ADD MLOAD DUP2 PUSH1 0x1 ADD SSTORE PUSH1 0x40 DUP3 ADD MLOAD DUP2 PUSH1 0x2 ADD SSTORE PUSH1 0x60 DUP3 ADD MLOAD DUP2 PUSH1 0x3 ADD SSTORE PUSH1 0x80 DUP3 ADD MLOAD DUP2 PUSH1 0x4 ADD SSTORE SWAP1 POP POP PUSH1 0x0 PUSH1 0x5 PUSH1 0x0 DUP5 DUP2 MSTORE PUSH1 0x20 ADD SWAP1 DUP2 MSTORE PUSH1 0x20 ADD PUSH1 0x0 KECCAK256 PUSH1 0x0 PUSH2 0x100 EXP DUP2 SLOAD DUP2 PUSH1 0xFF MUL NOT AND SWAP1 DUP4 ISZERO ISZERO MUL OR SWAP1 SSTORE POP PUSH1 0xA PUSH1 0x0 ADD PUSH1 0x4 DUP2 DUP2 SWAP1 SLOAD SWAP1 PUSH2 0x100 EXP SWAP1 DIV PUSH2 0xFFFF AND DUP1 SWAP3 SWAP2 SWAP1 PUSH2 0x136B SWAP1 PUSH2 0x2152 JUMP JUMPDEST SWAP2 SWAP1 PUSH2 0x100 EXP DUP2 SLOAD DUP2 PUSH2 0xFFFF MUL NOT AND SWAP1 DUP4 PUSH2 0xFFFF AND MUL OR SWAP1 SSTORE POP POP POP POP POP JUMP JUMPDEST PUSH1 0x0 PUSH2 0x1395 PUSH2 0x251 JUMP JUMPDEST SWAP1 POP PUSH1 0x1A PUSH1 0x0 SWAP1 SLOAD SWAP1 PUSH2 0x100 EXP SWAP1 DIV PUSH1 0xFF AND DUP1 ISZERO PUSH2 0x13C0 JUMPI POP PUSH1 0x1A PUSH1 0x1 SWAP1 SLOAD SWAP1 PUSH2 0x100 EXP SWAP1 DIV PUSH1 0xFF AND ISZERO JUMPDEST ISZERO PUSH2 0x142D JUMPI PUSH32 0xCBEB43F3566812EB9B63828E127CE48EFBF4126607FC80974BA3D72DD41D094A DUP2 PUSH1 0xF PUSH1 0x3 ADD SLOAD PUSH1 0xF PUSH1 0xA ADD SLOAD PUSH1 0x40 MLOAD PUSH2 0x1402 SWAP4 SWAP3 SWAP2 SWAP1 PUSH2 0x1E94 JUMP JUMPDEST PUSH1 0x40 MLOAD DUP1 SWAP2 SUB SWAP1 LOG1 PUSH1 0x1 PUSH1 0x1A PUSH1 0x1 PUSH2 0x100 EXP DUP2 SLOAD DUP2 PUSH1 0xFF MUL NOT AND SWAP1 DUP4 ISZERO ISZERO MUL OR SWAP1 SSTORE POP TIMESTAMP PUSH1 0x1B DUP2 SWAP1 SSTORE POP JUMPDEST POP JUMP JUMPDEST PUSH1 0x0 PUSH1 0xA PUSH1 0x1 ADD SLOAD SWAP1 POP SWAP1 JUMP JUMPDEST PUSH1 0x1 PUSH1 0x5 PUSH1 0x0 DUP4 DUP2 MSTORE PUSH1 0x20 ADD SWAP1 DUP2 MSTORE PUSH1 0x20 ADD PUSH1 0x0 KECCAK256 PUSH1 0x0 PUSH2 0x100 EXP DUP2 SLOAD DUP2 PUSH1 0xFF MUL NOT AND SWAP1 DUP4 ISZERO ISZERO MUL OR SWAP1 SSTORE POP PUSH1 0x9 PUSH1 0x0 DUP3 DUP2 MSTORE PUSH1 0x20 ADD SWAP1 DUP2 MSTORE PUSH1 0x20 ADD PUSH1 0x0 KECCAK256 PUSH1 0x0 DUP1 DUP3 ADD PUSH1 0x0 SWAP1 SSTORE PUSH1 0x1 DUP3 ADD PUSH1 0x0 SWAP1 SSTORE PUSH1 0x2 DUP3 ADD PUSH1 0x0 SWAP1 SSTORE PUSH1 0x3 DUP3 ADD PUSH1 0x0 SWAP1 SSTORE PUSH1 0x4 DUP3 ADD PUSH1 0x0 SWAP1 SSTORE POP POP PUSH1 0x2 PUSH1 0x0 DUP3 DUP2 MSTORE PUSH1 0x20 ADD SWAP1 DUP2 MSTORE PUSH1 0x20 ADD PUSH1 0x0 KECCAK256 PUSH1 0x0 SWAP1 SSTORE PUSH1 0x6 PUSH1 0x0 DUP3 DUP2 MSTORE PUSH1 0x20 ADD SWAP1 DUP2 MSTORE PUSH1 0x20 ADD PUSH1 0x0 KECCAK256 PUSH1 0x0 SWAP1 SSTORE PUSH1 0xA PUSH1 0x0 ADD PUSH1 0x4 DUP2 DUP2 SWAP1 SLOAD SWAP1 PUSH2 0x100 EXP SWAP1 DIV PUSH2 0xFFFF AND DUP1 SWAP3 SWAP2 SWAP1 PUSH2 0x14F8 SWAP1 PUSH2 0x20F6 JUMP JUMPDEST SWAP2 SWAP1 PUSH2 0x100 EXP DUP2 SLOAD DUP2 PUSH2 0xFFFF MUL NOT AND SWAP1 DUP4 PUSH2 0xFFFF AND MUL OR SWAP1 SSTORE POP POP POP JUMP JUMPDEST PUSH1 0x0 DUP1 PUSH1 0x0 DUP1 PUSH1 0x0 DUP1 PUSH1 0x60 PUSH1 0xA PUSH1 0x1 ADD SLOAD PUSH1 0xA PUSH1 0x0 ADD PUSH1 0x0 SWAP1 SLOAD SWAP1 PUSH2 0x100 EXP SWAP1 DIV PUSH2 0xFFFF AND PUSH1 0xA PUSH1 0x0 ADD PUSH1 0x2 SWAP1 SLOAD SWAP1 PUSH2 0x100 EXP SWAP1 DIV PUSH2 0xFFFF AND PUSH1 0xA PUSH1 0x0 ADD PUSH1 0x6 SWAP1 SLOAD SWAP1 PUSH2 0x100 EXP SWAP1 DIV PUSH2 0xFFFF AND PUSH1 0xA PUSH1 0x2 ADD SLOAD PUSH1 0xA PUSH1 0x3 ADD SLOAD PUSH1 0xA PUSH1 0x4 ADD DUP1 DUP1 SLOAD DUP1 PUSH1 0x20 MUL PUSH1 0x20 ADD PUSH1 0x40 MLOAD SWAP1 DUP2 ADD PUSH1 0x40 MSTORE DUP1 SWAP3 SWAP2 SWAP1 DUP2 DUP2 MSTORE PUSH1 0x20 ADD DUP3 DUP1 SLOAD DUP1 ISZERO PUSH2 0x15BF JUMPI PUSH1 0x20 MUL DUP3 ADD SWAP2 SWAP1 PUSH1 0x0 MSTORE PUSH1 0x20 PUSH1 0x0 KECCAK256 SWAP1 JUMPDEST DUP2 SLOAD DUP2 MSTORE PUSH1 0x20 ADD SWAP1 PUSH1 0x1 ADD SWAP1 DUP1 DUP4 GT PUSH2 0x15AB JUMPI JUMPDEST POP POP POP POP POP SWAP1 POP SWAP7 POP SWAP7 POP SWAP7 POP SWAP7 POP SWAP7 POP SWAP7 POP SWAP7 POP SWAP1 SWAP2 SWAP3 SWAP4 SWAP5 SWAP6 SWAP7 JUMP JUMPDEST PUSH1 0x0 DUP1 SLOAD SWAP1 PUSH2 0x100 EXP SWAP1 DIV PUSH20 0xFFFFFFFFFFFFFFFFFFFFFFFFFFFFFFFFFFFFFFFF AND PUSH20 0xFFFFFFFFFFFFFFFFFFFFFFFFFFFFFFFFFFFFFFFF AND CALLER PUSH20 0xFFFFFFFFFFFFFFFFFFFFFFFFFFFFFFFFFFFFFFFF AND EQ PUSH2 0x1635 JUMPI PUSH1 0x0 DUP1 REVERT JUMPDEST PUSH1 0x0 DUP1 SLOAD SWAP1 PUSH2 0x100 EXP SWAP1 DIV PUSH20 0xFFFFFFFFFFFFFFFFFFFFFFFFFFFFFFFFFFFFFFFF AND PUSH20 0xFFFFFFFFFFFFFFFFFFFFFFFFFFFFFFFFFFFFFFFF AND SELFDESTRUCT JUMPDEST PUSH1 0x0 DUP1 PUSH1 0x60 DUP1 PUSH1 0x0 DUP1 PUSH1 0x0 DUP1 PUSH1 0x0 PUSH1 0x60 PUSH1 0x0 PUSH1 0xF PUSH1 0x3 ADD SLOAD PUSH1 0xF PUSH1 0x4 ADD SLOAD PUSH1 0xF PUSH1 0x0 ADD PUSH1 0xF PUSH1 0x1 ADD PUSH1 0xF PUSH1 0x5 ADD SLOAD PUSH1 0xF PUSH1 0x6 ADD SLOAD PUSH1 0xF PUSH1 0x7 ADD SLOAD PUSH1 0xF PUSH1 0x8 ADD SLOAD PUSH1 0xF PUSH1 0x9 ADD SLOAD PUSH1 0xF PUSH1 0x2 ADD PUSH1 0xF PUSH1 0xA ADD SLOAD DUP9 DUP1 SLOAD PUSH2 0x16CB SWAP1 PUSH2 0x2120 JUMP JUMPDEST DUP1 PUSH1 0x1F ADD PUSH1 0x20 DUP1 SWAP2 DIV MUL PUSH1 0x20 ADD PUSH1 0x40 MLOAD SWAP1 DUP2 ADD PUSH1 0x40 MSTORE DUP1 SWAP3 SWAP2 SWAP1 DUP2 DUP2 MSTORE PUSH1 0x20 ADD DUP3 DUP1 SLOAD PUSH2 0x16F7 SWAP1 PUSH2 0x2120 JUMP JUMPDEST DUP1 ISZERO PUSH2 0x1744 JUMPI DUP1 PUSH1 0x1F LT PUSH2 0x1719 JUMPI PUSH2 0x100 DUP1 DUP4 SLOAD DIV MUL DUP4 MSTORE SWAP2 PUSH1 0x20 ADD SWAP2 PUSH2 0x1744 JUMP JUMPDEST DUP3 ADD SWAP2 SWAP1 PUSH1 0x0 MSTORE PUSH1 0x20 PUSH1 0x0 KECCAK256 SWAP1 JUMPDEST DUP2 SLOAD DUP2 MSTORE SWAP1 PUSH1 0x1 ADD SWAP1 PUSH1 0x20 ADD DUP1 DUP4 GT PUSH2 0x1727 JUMPI DUP3 SWAP1 SUB PUSH1 0x1F AND DUP3 ADD SWAP2 JUMPDEST POP POP POP POP POP SWAP9 POP DUP8 DUP1 SLOAD PUSH2 0x1757 SWAP1 PUSH2 0x2120 JUMP JUMPDEST DUP1 PUSH1 0x1F ADD PUSH1 0x20 DUP1 SWAP2 DIV MUL PUSH1 0x20 ADD PUSH1 0x40 MLOAD SWAP1 DUP2 ADD PUSH1 0x40 MSTORE DUP1 SWAP3 SWAP2 SWAP1 DUP2 DUP2 MSTORE PUSH1 0x20 ADD DUP3 DUP1 SLOAD PUSH2 0x1783 SWAP1 PUSH2 0x2120 JUMP JUMPDEST DUP1 ISZERO PUSH2 0x17D0 JUMPI DUP1 PUSH1 0x1F LT PUSH2 0x17A5 JUMPI PUSH2 0x100 DUP1 DUP4 SLOAD DIV MUL DUP4 MSTORE SWAP2 PUSH1 0x20 ADD SWAP2 PUSH2 0x17D0 JUMP JUMPDEST DUP3 ADD SWAP2 SWAP1 PUSH1 0x0 MSTORE PUSH1 0x20 PUSH1 0x0 KECCAK256 SWAP1 JUMPDEST DUP2 SLOAD DUP2 MSTORE SWAP1 PUSH1 0x1 ADD SWAP1 PUSH1 0x20 ADD DUP1 DUP4 GT PUSH2 0x17B3 JUMPI DUP3 SWAP1 SUB PUSH1 0x1F AND DUP3 ADD SWAP2 JUMPDEST POP POP POP POP POP SWAP8 POP DUP2 DUP1 SLOAD PUSH2 0x17E3 SWAP1 PUSH2 0x2120 JUMP JUMPDEST DUP1 PUSH1 0x1F ADD PUSH1 0x20 DUP1 SWAP2 DIV MUL PUSH1 0x20 ADD PUSH1 0x40 MLOAD SWAP1 DUP2 ADD PUSH1 0x40 MSTORE DUP1 SWAP3 SWAP2 SWAP1 DUP2 DUP2 MSTORE PUSH1 0x20 ADD DUP3 DUP1 SLOAD PUSH2 0x180F SWAP1 PUSH2 0x2120 JUMP JUMPDEST DUP1 ISZERO PUSH2 0x185C JUMPI DUP1 PUSH1 0x1F LT PUSH2 0x1831 JUMPI PUSH2 0x100 DUP1 DUP4 SLOAD DIV MUL DUP4 MSTORE SWAP2 PUSH1 0x20 ADD SWAP2 PUSH2 0x185C JUMP JUMPDEST DUP3 ADD SWAP2 SWAP1 PUSH1 0x0 MSTORE PUSH1 0x20 PUSH1 0x0 KECCAK256 SWAP1 JUMPDEST DUP2 SLOAD DUP2 MSTORE SWAP1 PUSH1 0x1 ADD SWAP1 PUSH1 0x20 ADD DUP1 DUP4 GT PUSH2 0x183F JUMPI DUP3 SWAP1 SUB PUSH1 0x1F AND DUP3 ADD SWAP2 JUMPDEST POP POP POP POP POP SWAP2 POP SWAP11 POP SWAP11 POP SWAP11 POP SWAP11 POP SWAP11 POP SWAP11 POP SWAP11 POP SWAP11 POP SWAP11 POP SWAP11 POP SWAP11 POP SWAP1 SWAP2 SWAP3 SWAP4 SWAP5 SWAP6 SWAP7 SWAP8 SWAP9 SWAP10 SWAP11 JUMP JUMPDEST PUSH1 0x0 PUSH1 0xF PUSH1 0x3 ADD SLOAD SWAP1 POP SWAP1 JUMP JUMPDEST PUSH1 0x0 PUSH1 0x20 DUP3 MLOAD PUSH2 0x18A3 SWAP2 SWAP1 PUSH2 0x1F74 JUMP JUMPDEST SWAP1 POP PUSH1 0x0 PUSH1 0x20 DUP4 MLOAD PUSH2 0x18B5 SWAP2 SWAP1 PUSH2 0x21D0 JUMP JUMPDEST EQ PUSH2 0x18C9 JUMPI DUP1 DUP1 PUSH2 0x18C5 SWAP1 PUSH2 0x217D JUMP JUMPDEST SWAP2 POP POP JUMPDEST DUP1 DUP1 PUSH2 0x18D4 SWAP1 PUSH2 0x217D JUMP JUMPDEST SWAP2 POP POP PUSH1 0x20 DUP2 PUSH2 0x18E4 SWAP2 SWAP1 PUSH2 0x1FE1 JUMP JUMPDEST SWAP1 POP SWAP2 SWAP1 POP JUMP JUMPDEST PUSH1 0x0 DUP3 PUSH1 0x40 MLOAD PUSH1 0x20 ADD PUSH2 0x18FE SWAP2 SWAP1 PUSH2 0x1C41 JUMP JUMPDEST PUSH1 0x40 MLOAD PUSH1 0x20 DUP2 DUP4 SUB SUB DUP2 MSTORE SWAP1 PUSH1 0x40 MSTORE SWAP1 POP PUSH1 0x20 DUP2 ADD MLOAD DUP5 DUP4 ADD MSTORE POP POP POP POP JUMP JUMPDEST DUP2 DUP4 DUP3 ADD MSTORE POP POP POP JUMP JUMPDEST PUSH1 0x0 DUP1 ISZERO ISZERO DUP4 ISZERO ISZERO EQ PUSH2 0x193C JUMPI PUSH1 0x1 PUSH2 0x193F JUMP JUMPDEST PUSH1 0x0 JUMPDEST SWAP1 POP DUP1 DUP5 DUP4 ADD MSTORE POP POP POP POP JUMP JUMPDEST PUSH1 0x0 PUSH1 0x20 DUP4 MLOAD PUSH2 0x195C SWAP2 SWAP1 PUSH2 0x1F74 JUMP JUMPDEST SWAP1 POP PUSH1 0x0 PUSH1 0x20 DUP5 MLOAD PUSH2 0x196E SWAP2 SWAP1 PUSH2 0x21D0 JUMP JUMPDEST GT ISZERO PUSH2 0x1983 JUMPI DUP1 DUP1 PUSH2 0x197F SWAP1 PUSH2 0x217D JUMP JUMPDEST SWAP2 POP POP JUMPDEST DUP1 DUP1 PUSH2 0x198E SWAP1 PUSH2 0x217D JUMP JUMPDEST SWAP2 POP POP PUSH1 0x0 JUMPDEST DUP2 DUP2 LT ISZERO PUSH2 0x19C0 JUMPI PUSH1 0x20 DUP2 MUL DUP5 ADD MLOAD DUP6 DUP5 ADD MSTORE PUSH1 0x20 DUP6 SUB SWAP5 POP DUP1 DUP1 PUSH2 0x19B8 SWAP1 PUSH2 0x217D JUMP JUMPDEST SWAP2 POP POP PUSH2 0x1994 JUMP JUMPDEST POP POP POP POP POP JUMP JUMPDEST PUSH1 0x0 DUP2 CALLDATALOAD SWAP1 POP PUSH2 0x19D6 DUP2 PUSH2 0x22EE JUMP JUMPDEST SWAP3 SWAP2 POP POP JUMP JUMPDEST PUSH1 0x0 DUP2 CALLDATALOAD SWAP1 POP PUSH2 0x19EB DUP2 PUSH2 0x2305 JUMP JUMPDEST SWAP3 SWAP2 POP POP JUMP JUMPDEST PUSH1 0x0 DUP2 CALLDATALOAD SWAP1 POP PUSH2 0x1A00 DUP2 PUSH2 0x231C JUMP JUMPDEST SWAP3 SWAP2 POP POP JUMP JUMPDEST PUSH1 0x0 PUSH1 0x20 DUP3 DUP5 SUB SLT ISZERO PUSH2 0x1A18 JUMPI PUSH1 0x0 DUP1 REVERT JUMPDEST PUSH1 0x0 PUSH2 0x1A26 DUP5 DUP3 DUP6 ADD PUSH2 0x19C7 JUMP JUMPDEST SWAP2 POP POP SWAP3 SWAP2 POP POP JUMP JUMPDEST PUSH1 0x0 PUSH1 0x20 DUP3 DUP5 SUB SLT ISZERO PUSH2 0x1A41 JUMPI PUSH1 0x0 DUP1 REVERT JUMPDEST PUSH1 0x0 PUSH2 0x1A4F DUP5 DUP3 DUP6 ADD PUSH2 0x19DC JUMP JUMPDEST SWAP2 POP POP SWAP3 SWAP2 POP POP JUMP JUMPDEST PUSH1 0x0 DUP1 PUSH1 0x40 DUP4 DUP6 SUB SLT ISZERO PUSH2 0x1A6B JUMPI PUSH1 0x0 DUP1 REVERT JUMPDEST PUSH1 0x0 PUSH2 0x1A79 DUP6 DUP3 DUP7 ADD PUSH2 0x19DC JUMP JUMPDEST SWAP3 POP POP PUSH1 0x20 PUSH2 0x1A8A DUP6 DUP3 DUP7 ADD PUSH2 0x19DC JUMP JUMPDEST SWAP2 POP POP SWAP3 POP SWAP3 SWAP1 POP JUMP JUMPDEST PUSH1 0x0 DUP1 PUSH1 0x0 PUSH1 0x60 DUP5 DUP7 SUB SLT ISZERO PUSH2 0x1AA9 JUMPI PUSH1 0x0 DUP1 REVERT JUMPDEST PUSH1 0x0 PUSH2 0x1AB7 DUP7 DUP3 DUP8 ADD PUSH2 0x19DC JUMP JUMPDEST SWAP4 POP POP PUSH1 0x20 PUSH2 0x1AC8 DUP7 DUP3 DUP8 ADD PUSH2 0x19DC JUMP JUMPDEST SWAP3 POP POP PUSH1 0x40 PUSH2 0x1AD9 DUP7 DUP3 DUP8 ADD PUSH2 0x19F1 JUMP JUMPDEST SWAP2 POP POP SWAP3 POP SWAP3 POP SWAP3 JUMP JUMPDEST PUSH1 0x0 PUSH2 0x1AEF DUP4 DUP4 PUSH2 0x1B59 JUMP JUMPDEST PUSH1 0x20 DUP4 ADD SWAP1 POP SWAP3 SWAP2 POP POP JUMP JUMPDEST PUSH1 0x0 PUSH2 0x1B06 DUP3 PUSH2 0x1EDB JUMP JUMPDEST PUSH2 0x1B10 DUP2 DUP6 PUSH2 0x1F09 JUMP JUMPDEST SWAP4 POP PUSH2 0x1B1B DUP4 PUSH2 0x1ECB JUMP JUMPDEST DUP1 PUSH1 0x0 JUMPDEST DUP4 DUP2 LT ISZERO PUSH2 0x1B4C JUMPI DUP2 MLOAD PUSH2 0x1B33 DUP9 DUP3 PUSH2 0x1AE3 JUMP JUMPDEST SWAP8 POP PUSH2 0x1B3E DUP4 PUSH2 0x1EFC JUMP JUMPDEST SWAP3 POP POP PUSH1 0x1 DUP2 ADD SWAP1 POP PUSH2 0x1B1F JUMP JUMPDEST POP DUP6 SWAP4 POP POP POP POP SWAP3 SWAP2 POP POP JUMP JUMPDEST PUSH2 0x1B62 DUP2 PUSH2 0x2081 JUMP JUMPDEST DUP3 MSTORE POP POP JUMP JUMPDEST PUSH2 0x1B71 DUP2 PUSH2 0x2081 JUMP JUMPDEST DUP3 MSTORE POP POP JUMP JUMPDEST PUSH2 0x1B88 PUSH2 0x1B83 DUP3 PUSH2 0x2081 JUMP JUMPDEST PUSH2 0x21C6 JUMP JUMPDEST DUP3 MSTORE POP POP JUMP JUMPDEST PUSH1 0x0 PUSH2 0x1B99 DUP3 PUSH2 0x1EE6 JUMP JUMPDEST PUSH2 0x1BA3 DUP2 DUP6 PUSH2 0x1F1A JUMP JUMPDEST SWAP4 POP PUSH2 0x1BB3 DUP2 DUP6 PUSH1 0x20 DUP7 ADD PUSH2 0x20C3 JUMP JUMPDEST PUSH2 0x1BBC DUP2 PUSH2 0x228E JUMP JUMPDEST DUP5 ADD SWAP2 POP POP SWAP3 SWAP2 POP POP JUMP JUMPDEST PUSH1 0x0 PUSH2 0x1BD2 DUP3 PUSH2 0x1EF1 JUMP JUMPDEST PUSH2 0x1BDC DUP2 DUP6 PUSH2 0x1F2B JUMP JUMPDEST SWAP4 POP PUSH2 0x1BEC DUP2 DUP6 PUSH1 0x20 DUP7 ADD PUSH2 0x20C3 JUMP JUMPDEST PUSH2 0x1BF5 DUP2 PUSH2 0x228E JUMP JUMPDEST DUP5 ADD SWAP2 POP POP SWAP3 SWAP2 POP POP JUMP JUMPDEST PUSH1 0x0 PUSH2 0x1C0D PUSH1 0x2B DUP4 PUSH2 0x1F2B JUMP JUMPDEST SWAP2 POP PUSH2 0x1C18 DUP3 PUSH2 0x229F JUMP JUMPDEST PUSH1 0x40 DUP3 ADD SWAP1 POP SWAP2 SWAP1 POP JUMP JUMPDEST PUSH2 0x1C2C DUP2 PUSH2 0x208B JUMP JUMPDEST DUP3 MSTORE POP POP JUMP JUMPDEST PUSH2 0x1C3B DUP2 PUSH2 0x20B9 JUMP JUMPDEST DUP3 MSTORE POP POP JUMP JUMPDEST PUSH1 0x0 PUSH2 0x1C4D DUP3 DUP5 PUSH2 0x1B77 JUMP JUMPDEST PUSH1 0x20 DUP3 ADD SWAP2 POP DUP2 SWAP1 POP SWAP3 SWAP2 POP POP JUMP JUMPDEST PUSH1 0x0 PUSH1 0x20 DUP3 ADD SWAP1 POP PUSH2 0x1C71 PUSH1 0x0 DUP4 ADD DUP5 PUSH2 0x1B68 JUMP JUMPDEST SWAP3 SWAP2 POP POP JUMP JUMPDEST PUSH1 0x0 PUSH2 0x160 DUP3 ADD SWAP1 POP PUSH2 0x1C8D PUSH1 0x0 DUP4 ADD DUP15 PUSH2 0x1B68 JUMP JUMPDEST PUSH2 0x1C9A PUSH1 0x20 DUP4 ADD DUP14 PUSH2 0x1B68 JUMP JUMPDEST DUP2 DUP2 SUB PUSH1 0x40 DUP4 ADD MSTORE PUSH2 0x1CAC DUP2 DUP13 PUSH2 0x1BC7 JUMP JUMPDEST SWAP1 POP DUP2 DUP2 SUB PUSH1 0x60 DUP4 ADD MSTORE PUSH2 0x1CC0 DUP2 DUP12 PUSH2 0x1BC7 JUMP JUMPDEST SWAP1 POP PUSH2 0x1CCF PUSH1 0x80 DUP4 ADD DUP11 PUSH2 0x1B68 JUMP JUMPDEST PUSH2 0x1CDC PUSH1 0xA0 DUP4 ADD DUP10 PUSH2 0x1B68 JUMP JUMPDEST PUSH2 0x1CE9 PUSH1 0xC0 DUP4 ADD DUP9 PUSH2 0x1B68 JUMP JUMPDEST PUSH2 0x1CF6 PUSH1 0xE0 DUP4 ADD DUP8 PUSH2 0x1B68 JUMP JUMPDEST PUSH2 0x1D04 PUSH2 0x100 DUP4 ADD DUP7 PUSH2 0x1B68 JUMP JUMPDEST DUP2 DUP2 SUB PUSH2 0x120 DUP4 ADD MSTORE PUSH2 0x1D17 DUP2 DUP6 PUSH2 0x1BC7 JUMP JUMPDEST SWAP1 POP PUSH2 0x1D27 PUSH2 0x140 DUP4 ADD DUP5 PUSH2 0x1B68 JUMP JUMPDEST SWAP13 SWAP12 POP POP POP POP POP POP POP POP POP POP POP POP JUMP JUMPDEST PUSH1 0x0 PUSH1 0xA0 DUP3 ADD SWAP1 POP PUSH2 0x1D4C PUSH1 0x0 DUP4 ADD DUP9 PUSH2 0x1B68 JUMP JUMPDEST PUSH2 0x1D59 PUSH1 0x20 DUP4 ADD DUP8 PUSH2 0x1B68 JUMP JUMPDEST PUSH2 0x1D66 PUSH1 0x40 DUP4 ADD DUP7 PUSH2 0x1C32 JUMP JUMPDEST PUSH2 0x1D73 PUSH1 0x60 DUP4 ADD DUP6 PUSH2 0x1C32 JUMP JUMPDEST PUSH2 0x1D80 PUSH1 0x80 DUP4 ADD DUP5 PUSH2 0x1B68 JUMP JUMPDEST SWAP7 SWAP6 POP POP POP POP POP POP JUMP JUMPDEST PUSH1 0x0 PUSH1 0xE0 DUP3 ADD SWAP1 POP PUSH2 0x1D9F PUSH1 0x0 DUP4 ADD DUP11 PUSH2 0x1B68 JUMP JUMPDEST PUSH2 0x1DAC PUSH1 0x20 DUP4 ADD DUP10 PUSH2 0x1C23 JUMP JUMPDEST PUSH2 0x1DB9 PUSH1 0x40 DUP4 ADD DUP9 PUSH2 0x1C23 JUMP JUMPDEST PUSH2 0x1DC6 PUSH1 0x60 DUP4 ADD DUP8 PUSH2 0x1C23 JUMP JUMPDEST PUSH2 0x1DD3 PUSH1 0x80 DUP4 ADD DUP7 PUSH2 0x1C32 JUMP JUMPDEST PUSH2 0x1DE0 PUSH1 0xA0 DUP4 ADD DUP6 PUSH2 0x1C32 JUMP JUMPDEST DUP2 DUP2 SUB PUSH1 0xC0 DUP4 ADD MSTORE PUSH2 0x1DF2 DUP2 DUP5 PUSH2 0x1AFB JUMP JUMPDEST SWAP1 POP SWAP9 SWAP8 POP POP POP POP POP POP POP POP JUMP JUMPDEST PUSH1 0x0 PUSH1 0x40 DUP3 ADD SWAP1 POP PUSH2 0x1E15 PUSH1 0x0 DUP4 ADD DUP6 PUSH2 0x1B68 JUMP JUMPDEST PUSH2 0x1E22 PUSH1 0x20 DUP4 ADD DUP5 PUSH2 0x1C32 JUMP JUMPDEST SWAP4 SWAP3 POP POP POP JUMP JUMPDEST PUSH1 0x0 PUSH1 0x40 DUP3 ADD SWAP1 POP DUP2 DUP2 SUB PUSH1 0x0 DUP4 ADD MSTORE PUSH2 0x1E43 DUP2 DUP6 PUSH2 0x1B8E JUMP JUMPDEST SWAP1 POP PUSH2 0x1E52 PUSH1 0x20 DUP4 ADD DUP5 PUSH2 0x1C32 JUMP JUMPDEST SWAP4 SWAP3 POP POP POP JUMP JUMPDEST PUSH1 0x0 PUSH1 0x20 DUP3 ADD SWAP1 POP DUP2 DUP2 SUB PUSH1 0x0 DUP4 ADD MSTORE PUSH2 0x1E72 DUP2 PUSH2 0x1C00 JUMP JUMPDEST SWAP1 POP SWAP2 SWAP1 POP JUMP JUMPDEST PUSH1 0x0 PUSH1 0x20 DUP3 ADD SWAP1 POP PUSH2 0x1E8E PUSH1 0x0 DUP4 ADD DUP5 PUSH2 0x1C32 JUMP JUMPDEST SWAP3 SWAP2 POP POP JUMP JUMPDEST PUSH1 0x0 PUSH1 0x60 DUP3 ADD SWAP1 POP PUSH2 0x1EA9 PUSH1 0x0 DUP4 ADD DUP7 PUSH2 0x1C32 JUMP JUMPDEST PUSH2 0x1EB6 PUSH1 0x20 DUP4 ADD DUP6 PUSH2 0x1B68 JUMP JUMPDEST PUSH2 0x1EC3 PUSH1 0x40 DUP4 ADD DUP5 PUSH2 0x1B68 JUMP JUMPDEST SWAP5 SWAP4 POP POP POP POP JUMP JUMPDEST PUSH1 0x0 DUP2 SWAP1 POP PUSH1 0x20 DUP3 ADD SWAP1 POP SWAP2 SWAP1 POP JUMP JUMPDEST PUSH1 0x0 DUP2 MLOAD SWAP1 POP SWAP2 SWAP1 POP JUMP JUMPDEST PUSH1 0x0 DUP2 MLOAD SWAP1 POP SWAP2 SWAP1 POP JUMP JUMPDEST PUSH1 0x0 DUP2 MLOAD SWAP1 POP SWAP2 SWAP1 POP JUMP JUMPDEST PUSH1 0x0 PUSH1 0x20 DUP3 ADD SWAP1 POP SWAP2 SWAP1 POP JUMP JUMPDEST PUSH1 0x0 DUP3 DUP3 MSTORE PUSH1 0x20 DUP3 ADD SWAP1 POP SWAP3 SWAP2 POP POP JUMP JUMPDEST PUSH1 0x0 DUP3 DUP3 MSTORE PUSH1 0x20 DUP3 ADD SWAP1 POP SWAP3 SWAP2 POP POP JUMP JUMPDEST PUSH1 0x0 DUP3 DUP3 MSTORE PUSH1 0x20 DUP3 ADD SWAP1 POP SWAP3 SWAP2 POP POP JUMP JUMPDEST PUSH1 0x0 PUSH2 0x1F47 DUP3 PUSH2 0x208B JUMP JUMPDEST SWAP2 POP PUSH2 0x1F52 DUP4 PUSH2 0x208B JUMP JUMPDEST SWAP3 POP DUP3 PUSH2 0xFFFF SUB DUP3 GT ISZERO PUSH2 0x1F69 JUMPI PUSH2 0x1F68 PUSH2 0x2201 JUMP JUMPDEST JUMPDEST DUP3 DUP3 ADD SWAP1 POP SWAP3 SWAP2 POP POP JUMP JUMPDEST PUSH1 0x0 PUSH2 0x1F7F DUP3 PUSH2 0x20B9 JUMP JUMPDEST SWAP2 POP PUSH2 0x1F8A DUP4 PUSH2 0x20B9 JUMP JUMPDEST SWAP3 POP DUP3 PUSH2 0x1F9A JUMPI PUSH2 0x1F99 PUSH2 0x2230 JUMP JUMPDEST JUMPDEST DUP3 DUP3 DIV SWAP1 POP SWAP3 SWAP2 POP POP JUMP JUMPDEST PUSH1 0x0 PUSH2 0x1FB0 DUP3 PUSH2 0x208B JUMP JUMPDEST SWAP2 POP PUSH2 0x1FBB DUP4 PUSH2 0x208B JUMP JUMPDEST SWAP3 POP DUP2 PUSH2 0xFFFF DIV DUP4 GT DUP3 ISZERO ISZERO AND ISZERO PUSH2 0x1FD6 JUMPI PUSH2 0x1FD5 PUSH2 0x2201 JUMP JUMPDEST JUMPDEST DUP3 DUP3 MUL SWAP1 POP SWAP3 SWAP2 POP POP JUMP JUMPDEST PUSH1 0x0 PUSH2 0x1FEC DUP3 PUSH2 0x20B9 JUMP JUMPDEST SWAP2 POP PUSH2 0x1FF7 DUP4 PUSH2 0x20B9 JUMP JUMPDEST SWAP3 POP DUP2 PUSH32 0xFFFFFFFFFFFFFFFFFFFFFFFFFFFFFFFFFFFFFFFFFFFFFFFFFFFFFFFFFFFFFFFF DIV DUP4 GT DUP3 ISZERO ISZERO AND ISZERO PUSH2 0x2030 JUMPI PUSH2 0x202F PUSH2 0x2201 JUMP JUMPDEST JUMPDEST DUP3 DUP3 MUL SWAP1 POP SWAP3 SWAP2 POP POP JUMP JUMPDEST PUSH1 0x0 PUSH2 0x2046 DUP3 PUSH2 0x20B9 JUMP JUMPDEST SWAP2 POP PUSH2 0x2051 DUP4 PUSH2 0x20B9 JUMP JUMPDEST SWAP3 POP DUP3 DUP3 LT ISZERO PUSH2 0x2064 JUMPI PUSH2 0x2063 PUSH2 0x2201 JUMP JUMPDEST JUMPDEST DUP3 DUP3 SUB SWAP1 POP SWAP3 SWAP2 POP POP JUMP JUMPDEST PUSH1 0x0 PUSH2 0x207A DUP3 PUSH2 0x2099 JUMP JUMPDEST SWAP1 POP SWAP2 SWAP1 POP JUMP JUMPDEST PUSH1 0x0 DUP2 SWAP1 POP SWAP2 SWAP1 POP JUMP JUMPDEST PUSH1 0x0 PUSH2 0xFFFF DUP3 AND SWAP1 POP SWAP2 SWAP1 POP JUMP JUMPDEST PUSH1 0x0 PUSH20 0xFFFFFFFFFFFFFFFFFFFFFFFFFFFFFFFFFFFFFFFF DUP3 AND SWAP1 POP SWAP2 SWAP1 POP JUMP JUMPDEST PUSH1 0x0 DUP2 SWAP1 POP SWAP2 SWAP1 POP JUMP JUMPDEST PUSH1 0x0 JUMPDEST DUP4 DUP2 LT ISZERO PUSH2 0x20E1 JUMPI DUP1 DUP3 ADD MLOAD DUP2 DUP5 ADD MSTORE PUSH1 0x20 DUP2 ADD SWAP1 POP PUSH2 0x20C6 JUMP JUMPDEST DUP4 DUP2 GT ISZERO PUSH2 0x20F0 JUMPI PUSH1 0x0 DUP5 DUP5 ADD MSTORE JUMPDEST POP POP POP POP JUMP JUMPDEST PUSH1 0x0 PUSH2 0x2101 DUP3 PUSH2 0x208B JUMP JUMPDEST SWAP2 POP PUSH1 0x0 DUP3 EQ ISZERO PUSH2 0x2115 JUMPI PUSH2 0x2114 PUSH2 0x2201 JUMP JUMPDEST JUMPDEST PUSH1 0x1 DUP3 SUB SWAP1 POP SWAP2 SWAP1 POP JUMP JUMPDEST PUSH1 0x0 PUSH1 0x2 DUP3 DIV SWAP1 POP PUSH1 0x1 DUP3 AND DUP1 PUSH2 0x2138 JUMPI PUSH1 0x7F DUP3 AND SWAP2 POP JUMPDEST PUSH1 0x20 DUP3 LT DUP2 EQ ISZERO PUSH2 0x214C JUMPI PUSH2 0x214B PUSH2 0x225F JUMP JUMPDEST JUMPDEST POP SWAP2 SWAP1 POP JUMP JUMPDEST PUSH1 0x0 PUSH2 0x215D DUP3 PUSH2 0x208B JUMP JUMPDEST SWAP2 POP PUSH2 0xFFFF DUP3 EQ ISZERO PUSH2 0x2172 JUMPI PUSH2 0x2171 PUSH2 0x2201 JUMP JUMPDEST JUMPDEST PUSH1 0x1 DUP3 ADD SWAP1 POP SWAP2 SWAP1 POP JUMP JUMPDEST PUSH1 0x0 PUSH2 0x2188 DUP3 PUSH2 0x20B9 JUMP JUMPDEST SWAP2 POP PUSH32 0xFFFFFFFFFFFFFFFFFFFFFFFFFFFFFFFFFFFFFFFFFFFFFFFFFFFFFFFFFFFFFFFF DUP3 EQ ISZERO PUSH2 0x21BB JUMPI PUSH2 0x21BA PUSH2 0x2201 JUMP JUMPDEST JUMPDEST PUSH1 0x1 DUP3 ADD SWAP1 POP SWAP2 SWAP1 POP JUMP JUMPDEST PUSH1 0x0 DUP2 SWAP1 POP SWAP2 SWAP1 POP JUMP JUMPDEST PUSH1 0x0 PUSH2 0x21DB DUP3 PUSH2 0x20B9 JUMP JUMPDEST SWAP2 POP PUSH2 0x21E6 DUP4 PUSH2 0x20B9 JUMP JUMPDEST SWAP3 POP DUP3 PUSH2 0x21F6 JUMPI PUSH2 0x21F5 PUSH2 0x2230 JUMP JUMPDEST JUMPDEST DUP3 DUP3 MOD SWAP1 POP SWAP3 SWAP2 POP POP JUMP JUMPDEST PUSH32 0x4E487B7100000000000000000000000000000000000000000000000000000000 PUSH1 0x0 MSTORE PUSH1 0x11 PUSH1 0x4 MSTORE PUSH1 0x24 PUSH1 0x0 REVERT JUMPDEST PUSH32 0x4E487B7100000000000000000000000000000000000000000000000000000000 PUSH1 0x0 MSTORE PUSH1 0x12 PUSH1 0x4 MSTORE PUSH1 0x24 PUSH1 0x0 REVERT JUMPDEST PUSH32 0x4E487B7100000000000000000000000000000000000000000000000000000000 PUSH1 0x0 MSTORE PUSH1 0x22 PUSH1 0x4 MSTORE PUSH1 0x24 PUSH1 0x0 REVERT JUMPDEST PUSH1 0x0 PUSH1 0x1F NOT PUSH1 0x1F DUP4 ADD AND SWAP1 POP SWAP2 SWAP1 POP JUMP JUMPDEST PUSH32 0x546865206964206F662074686520696E7375726564206973206E6F7420696E20 PUSH1 0x0 DUP3 ADD MSTORE PUSH32 0x74686520706F6C6963792E000000000000000000000000000000000000000000 PUSH1 0x20 DUP3 ADD MSTORE POP JUMP JUMPDEST PUSH2 0x22F7 DUP2 PUSH2 0x206F JUMP JUMPDEST DUP2 EQ PUSH2 0x2302 JUMPI PUSH1 0x0 DUP1 REVERT JUMPDEST POP JUMP JUMPDEST PUSH2 0x230E DUP2 PUSH2 0x2081 JUMP JUMPDEST DUP2 EQ PUSH2 0x2319 JUMPI PUSH1 0x0 DUP1 REVERT JUMPDEST POP JUMP JUMPDEST PUSH2 0x2325 DUP2 PUSH2 0x20B9 JUMP JUMPDEST DUP2 EQ PUSH2 0x2330 JUMPI PUSH1 0x0 DUP1 REVERT JUMPDEST POP JUMP INVALID LOG2 PUSH5 0x6970667358 0x22 SLT KECCAK256 0xC2 PUSH24 0x581E69D826C777D352B35AE5690C0AA5B6A76B8F71CC0708 PUSH4 0x27AE11F STOP PUSH5 0x736F6C6343 STOP ADDMOD SUB STOP CALLER "
    },
    "gasEstimates": {
      "creation": {
        "codeDepositCost": "1813000",
        "executionCost": "infinite",
        "totalCost": "infinite"
      },
      "external": {
        "addPCRtoInsured(bytes32,bytes32,uint256)": "infinite",
        "addSpcAddress(address)": "43234",
        "calculateCompensation()": "infinite",
        "compensation()": "infinite",
        "deletePCR(bytes32)": "78719",
        "destructContract()": "31888",
        "getId()": "1188",
        "getInsuranceData()": "infinite",
        "getPCR(bytes32)": "infinite",
        "getTakerData()": "infinite",
        "getTakerId()": "1231",
        "serializeInsurance()": "infinite",
        "updatePCR(bytes32,bytes32)": "infinite"
      }
    },
    "methodIdentifiers": {
      "addPCRtoInsured(bytes32,bytes32,uint256)": "2d3ff3ee",
      "addSpcAddress(address)": "297e6306",
      "calculateCompensation()": "121b5a25",
      "compensation()": "40d5ff58",
      "deletePCR(bytes32)": "62a681b3",
      "destructContract()": "9499e018",
      "getId()": "5d1ca631",
      "getInsuranceData()": "92ed93d0",
      "getPCR(bytes32)": "169e68c3",
      "getTakerData()": "e0caf0bd",
      "getTakerId()": "fc1c7a70",
      "serializeInsurance()": "236f45d9",
      "updatePCR(bytes32,bytes32)": "2357aef3"
    }
  },
  "storageLayout": {
    "storage": [
      {
        "astId": 219,
        "contract": "Insurance.sol:Insurance",
        "label": "owner",
        "offset": 0,
        "slot": "0",
        "type": "t_address_payable"
      },
      {
        "astId": 221,
        "contract": "Insurance.sol:Insurance",
        "label": "spcAddress",
        "offset": 0,
        "slot": "1",
        "type": "t_address"
      },
      {
        "astId": 223,
        "contract": "Insurance.sol:Insurance",
        "label": "spcAddressAdded",
        "offset": 20,
        "slot": "1",
        "type": "t_bool"
      },
      {
        "astId": 227,
        "contract": "Insurance.sol:Insurance",
        "label": "pcrLocation",
        "offset": 0,
        "slot": "2",
        "type": "t_mapping(t_bytes32,t_uint256)"
      },
      {
        "astId": 232,
        "contract": "Insurance.sol:Insurance",
        "label": "insuredPCRs",
        "offset": 0,
        "slot": "3",
        "type": "t_mapping(t_bytes32,t_array(t_bytes32)dyn_storage)"
      },
      {
        "astId": 236,
        "contract": "Insurance.sol:Insurance",
        "label": "insuredInInsurance",
        "offset": 0,
        "slot": "4",
        "type": "t_mapping(t_bytes32,t_bool)"
      },
      {
        "astId": 240,
        "contract": "Insurance.sol:Insurance",
        "label": "isPcrDeleted",
        "offset": 0,
        "slot": "5",
        "type": "t_mapping(t_bytes32,t_bool)"
      },
      {
        "astId": 244,
        "contract": "Insurance.sol:Insurance",
        "label": "pcrIdToInsuredId",
        "offset": 0,
        "slot": "6",
        "type": "t_mapping(t_bytes32,t_bytes32)"
      },
      {
        "astId": 248,
        "contract": "Insurance.sol:Insurance",
        "label": "insuredNegPcrHash",
        "offset": 0,
        "slot": "7",
        "type": "t_mapping(t_bytes32,t_bytes32)"
      },
      {
        "astId": 252,
        "contract": "Insurance.sol:Insurance",
        "label": "insuredNegPcrDate",
        "offset": 0,
        "slot": "8",
        "type": "t_mapping(t_bytes32,t_uint256)"
      },
      {
        "astId": 257,
        "contract": "Insurance.sol:Insurance",
        "label": "pcrIdToData",
        "offset": 0,
        "slot": "9",
        "type": "t_mapping(t_bytes32,t_struct(PcrData)217_storage)"
      },
      {
        "astId": 260,
        "contract": "Insurance.sol:Insurance",
        "label": "insuranceData",
        "offset": 0,
        "slot": "10",
        "type": "t_struct(InsuranceData)183_storage"
      },
      {
        "astId": 263,
        "contract": "Insurance.sol:Insurance",
        "label": "takerData",
        "offset": 0,
        "slot": "15",
        "type": "t_struct(TakerData)206_storage"
      },
      {
        "astId": 265,
        "contract": "Insurance.sol:Insurance",
        "label": "positivePcrTest",
        "offset": 0,
        "slot": "26",
        "type": "t_bool"
      },
      {
        "astId": 267,
        "contract": "Insurance.sol:Insurance",
        "label": "paymentEmitted",
        "offset": 1,
        "slot": "26",
        "type": "t_bool"
      },
      {
        "astId": 269,
        "contract": "Insurance.sol:Insurance",
        "label": "timePaymentEmitted",
        "offset": 0,
        "slot": "27",
        "type": "t_uint256"
      }
    ],
    "types": {
      "t_address": {
        "encoding": "inplace",
        "label": "address",
        "numberOfBytes": "20"
      },
      "t_address_payable": {
        "encoding": "inplace",
        "label": "address payable",
        "numberOfBytes": "20"
      },
      "t_array(t_bytes32)dyn_storage": {
        "base": "t_bytes32",
        "encoding": "dynamic_array",
        "label": "bytes32[]",
        "numberOfBytes": "32"
      },
      "t_bool": {
        "encoding": "inplace",
        "label": "bool",
        "numberOfBytes": "1"
      },
      "t_bytes32": {
        "encoding": "inplace",
        "label": "bytes32",
        "numberOfBytes": "32"
      },
      "t_mapping(t_bytes32,t_array(t_bytes32)dyn_storage)": {
        "encoding": "mapping",
        "key": "t_bytes32",
        "label": "mapping(bytes32 => bytes32[])",
        "numberOfBytes": "32",
        "value": "t_array(t_bytes32)dyn_storage"
      },
      "t_mapping(t_bytes32,t_bool)": {
        "encoding": "mapping",
        "key": "t_bytes32",
        "label": "mapping(bytes32 => bool)",
        "numberOfBytes": "32",
        "value": "t_bool"
      },
      "t_mapping(t_bytes32,t_bytes32)": {
        "encoding": "mapping",
        "key": "t_bytes32",
        "label": "mapping(bytes32 => bytes32)",
        "numberOfBytes": "32",
        "value": "t_bytes32"
      },
      "t_mapping(t_bytes32,t_struct(PcrData)217_storage)": {
        "encoding": "mapping",
        "key": "t_bytes32",
        "label": "mapping(bytes32 => struct Insurance.PcrData)",
        "numberOfBytes": "32",
        "value": "t_struct(PcrData)217_storage"
      },
      "t_mapping(t_bytes32,t_uint256)": {
        "encoding": "mapping",
        "key": "t_bytes32",
        "label": "mapping(bytes32 => uint256)",
        "numberOfBytes": "32",
        "value": "t_uint256"
      },
      "t_string_storage": {
        "encoding": "bytes",
        "label": "string",
        "numberOfBytes": "32"
      },
      "t_struct(InsuranceData)183_storage": {
        "encoding": "inplace",
        "label": "struct Insurance.InsuranceData",
        "members": [
          {
            "astId": 167,
            "contract": "Insurance.sol:Insurance",
            "label": "dailyCompensation",
            "offset": 0,
            "slot": "0",
            "type": "t_uint16"
          },
          {
            "astId": 169,
            "contract": "Insurance.sol:Insurance",
            "label": "daysToCompensate",
            "offset": 2,
            "slot": "0",
            "type": "t_uint16"
          },
          {
            "astId": 171,
            "contract": "Insurance.sol:Insurance",
            "label": "pcrNumber",
            "offset": 4,
            "slot": "0",
            "type": "t_uint16"
          },
          {
            "astId": 173,
            "contract": "Insurance.sol:Insurance",
            "label": "insuredNumber",
            "offset": 6,
            "slot": "0",
            "type": "t_uint16"
          },
          {
            "astId": 175,
            "contract": "Insurance.sol:Insurance",
            "label": "id",
            "offset": 0,
            "slot": "1",
            "type": "t_bytes32"
          },
          {
            "astId": 177,
            "contract": "Insurance.sol:Insurance",
            "label": "insuranceStartDate",
            "offset": 0,
            "slot": "2",
            "type": "t_uint256"
          },
          {
            "astId": 179,
            "contract": "Insurance.sol:Insurance",
            "label": "insuranceFinishDate",
            "offset": 0,
            "slot": "3",
            "type": "t_uint256"
          },
          {
            "astId": 182,
            "contract": "Insurance.sol:Insurance",
            "label": "insureds",
            "offset": 0,
            "slot": "4",
            "type": "t_array(t_bytes32)dyn_storage"
          }
        ],
        "numberOfBytes": "160"
      },
      "t_struct(PcrData)217_storage": {
        "encoding": "inplace",
        "label": "struct Insurance.PcrData",
        "members": [
          {
            "astId": 208,
            "contract": "Insurance.sol:Insurance",
            "label": "result",
            "offset": 0,
            "slot": "0",
            "type": "t_bytes32"
          },
          {
            "astId": 210,
            "contract": "Insurance.sol:Insurance",
            "label": "id",
            "offset": 0,
            "slot": "1",
            "type": "t_bytes32"
          },
          {
            "astId": 212,
            "contract": "Insurance.sol:Insurance",
            "label": "insuredId",
            "offset": 0,
            "slot": "2",
            "type": "t_bytes32"
          },
          {
            "astId": 214,
            "contract": "Insurance.sol:Insurance",
            "label": "requestDate",
            "offset": 0,
            "slot": "3",
            "type": "t_uint256"
          },
          {
            "astId": 216,
            "contract": "Insurance.sol:Insurance",
            "label": "resultDate",
            "offset": 0,
            "slot": "4",
            "type": "t_uint256"
          }
        ],
        "numberOfBytes": "160"
      },
      "t_struct(TakerData)206_storage": {
        "encoding": "inplace",
        "label": "struct Insurance.TakerData",
        "members": [
          {
            "astId": 185,
            "contract": "Insurance.sol:Insurance",
            "label": "takerName",
            "offset": 0,
            "slot": "0",
            "type": "t_string_storage"
          },
          {
            "astId": 187,
            "contract": "Insurance.sol:Insurance",
            "label": "takerAddress",
            "offset": 0,
            "slot": "1",
            "type": "t_string_storage"
          },
          {
            "astId": 189,
            "contract": "Insurance.sol:Insurance",
            "label": "takerEmail",
            "offset": 0,
            "slot": "2",
            "type": "t_string_storage"
          },
          {
            "astId": 191,
            "contract": "Insurance.sol:Insurance",
            "label": "takerId",
            "offset": 0,
            "slot": "3",
            "type": "t_bytes32"
          },
          {
            "astId": 193,
            "contract": "Insurance.sol:Insurance",
            "label": "takerNif",
            "offset": 0,
            "slot": "4",
            "type": "t_bytes32"
          },
          {
            "astId": 195,
            "contract": "Insurance.sol:Insurance",
            "label": "takerPostalCode",
            "offset": 0,
            "slot": "5",
            "type": "t_bytes32"
          },
          {
            "astId": 197,
            "contract": "Insurance.sol:Insurance",
            "label": "takerTown",
            "offset": 0,
            "slot": "6",
            "type": "t_bytes32"
          },
          {
            "astId": 199,
            "contract": "Insurance.sol:Insurance",
            "label": "takerLocation",
            "offset": 0,
            "slot": "7",
            "type": "t_bytes32"
          },
          {
            "astId": 201,
            "contract": "Insurance.sol:Insurance",
            "label": "takerTelephone",
            "offset": 0,
            "slot": "8",
            "type": "t_bytes32"
          },
          {
            "astId": 203,
            "contract": "Insurance.sol:Insurance",
            "label": "takerMobile",
            "offset": 0,
            "slot": "9",
            "type": "t_bytes32"
          },
          {
            "astId": 205,
            "contract": "Insurance.sol:Insurance",
            "label": "takerIban",
            "offset": 0,
            "slot": "10",
            "type": "t_bytes32"
          }
        ],
        "numberOfBytes": "352"
      },
      "t_uint16": {
        "encoding": "inplace",
        "label": "uint16",
        "numberOfBytes": "2"
      },
      "t_uint256": {
        "encoding": "inplace",
        "label": "uint256",
        "numberOfBytes": "32"
      }
    }
  },
  "userdoc": {
    "events": {
      "positivePcr(bytes32,uint256)": {
        "notice": "Events to emit the information about a sinister."
      }
    },
    "kind": "user",
    "methods": {
      "addPCRtoInsured(bytes32,bytes32,uint256)": {
        "notice": "Add new PCR to an insured."
      },
      "addSpcAddress(address)": {
        "notice": "Modify the address of the general contract. It only can be used 1 time."
      },
      "calculateCompensation()": {
        "notice": "Returns the amount of the compensation."
      },
      "compensation()": {
        "notice": "Fires when the contract get a positive PCR."
      },
      "constructor": {
        "notice": "Fill the information of taker data and insurance data."
      },
      "deletePCR(bytes32)": {
        "notice": "Deletes a pcr already requested by an insured."
      },
      "destructContract()": {
        "notice": "Delete the contract of the blockchain."
      },
      "getId()": {
        "notice": "Returns only the insurance identifier."
      },
      "getInsuranceData()": {
        "notice": "Returns the information of the insurance data."
      },
      "getPCR(bytes32)": {
        "notice": "Returns the information of a PCR."
      },
      "getTakerData()": {
        "notice": "Returns the information of the taker data."
      },
      "getTakerId()": {
        "notice": "Returns only the taker identifier."
      },
      "serializeInsurance()": {
        "notice": "Convert all the information of the insurance into an array of bytes."
      },
      "updatePCR(bytes32,bytes32)": {
        "notice": "Update the result of a pending PCR that a insured had already registered."
      }
    },
    "version": 1
  }
}