{
  "abi": [
    {
      "inputs": [
        {
          "internalType": "bytes32[]",
          "name": "_insuredsNegPcrHash",
          "type": "bytes32[]"
        },
        {
          "internalType": "uint256[]",
          "name": "_insuredsNegPcrDate",
          "type": "uint256[]"
        },
        {
          "internalType": "bytes32[]",
          "name": "_ids",
          "type": "bytes32[]"
        },
        {
          "internalType": "bytes32[]",
          "name": "_insureds",
          "type": "bytes32[]"
        },
        {
          "internalType": "uint256[]",
          "name": "_insuranceStartFinishDate",
          "type": "uint256[]"
        },
        {
          "internalType": "uint16[]",
          "name": "_dailyCompensationAndDuration",
          "type": "uint16[]"
        },
        {
          "internalType": "bytes32[]",
          "name": "_takerData",
          "type": "bytes32[]"
        },
        {
          "internalType": "string",
          "name": "_takerName",
          "type": "string"
        },
        {
          "internalType": "string",
          "name": "_takerAddress",
          "type": "string"
        },
        {
          "internalType": "string",
          "name": "_takerEmail",
          "type": "string"
        }
      ],
      "stateMutability": "nonpayable",
      "type": "constructor"
    },
    {
      "anonymous": false,
      "inputs": [
        {
          "indexed": false,
          "internalType": "uint256",
          "name": "quantity",
          "type": "uint256"
        },
        {
          "indexed": false,
          "internalType": "bytes32",
          "name": "hotelId",
          "type": "bytes32"
        },
        {
          "indexed": false,
          "internalType": "bytes32",
          "name": "hotelIban",
          "type": "bytes32"
        },
        {
          "indexed": false,
          "internalType": "bytes32",
          "name": "insuranceId",
          "type": "bytes32"
        }
      ],
      "name": "checkPayment",
      "type": "event"
    },
    {
      "anonymous": false,
      "inputs": [
        {
          "indexed": false,
          "internalType": "bytes32",
          "name": "customerId",
          "type": "bytes32"
        },
        {
          "indexed": false,
          "internalType": "uint256",
          "name": "resultDate",
          "type": "uint256"
        }
      ],
      "name": "positivePcr",
      "type": "event"
    },
    {
      "inputs": [
        {
          "internalType": "bytes32",
          "name": "_insuredId",
          "type": "bytes32"
        },
        {
          "internalType": "bytes32",
          "name": "_idPcr",
          "type": "bytes32"
        },
        {
          "internalType": "uint256",
          "name": "_requestDate",
          "type": "uint256"
        },
        {
          "internalType": "address",
          "name": "_contractAddress",
          "type": "address"
        }
      ],
      "name": "addPCRtoInsured",
      "outputs": [],
      "stateMutability": "nonpayable",
      "type": "function"
    },
    {
      "inputs": [
        {
          "internalType": "address",
          "name": "_spcAddress",
          "type": "address"
        }
      ],
      "name": "addSpcAddress",
      "outputs": [],
      "stateMutability": "nonpayable",
      "type": "function"
    },
    {
      "inputs": [],
      "name": "calculateCompensation",
      "outputs": [
        {
          "internalType": "uint256",
          "name": "amount",
          "type": "uint256"
        }
      ],
      "stateMutability": "view",
      "type": "function"
    },
    {
      "inputs": [],
      "name": "compensation",
      "outputs": [],
      "stateMutability": "nonpayable",
      "type": "function"
    },
    {
      "inputs": [
        {
          "internalType": "bytes32",
          "name": "_idPCR",
          "type": "bytes32"
        }
      ],
      "name": "deletePCR",
      "outputs": [
        {
          "internalType": "address",
          "name": "_pcrContractAddress",
          "type": "address"
        }
      ],
      "stateMutability": "nonpayable",
      "type": "function"
    },
    {
      "inputs": [],
      "name": "destructContract",
      "outputs": [],
      "stateMutability": "nonpayable",
      "type": "function"
    },
    {
      "inputs": [],
      "name": "getId",
      "outputs": [
        {
          "internalType": "bytes32",
          "name": "insuranceId",
          "type": "bytes32"
        }
      ],
      "stateMutability": "view",
      "type": "function"
    },
    {
      "inputs": [],
      "name": "getInsuranceData",
      "outputs": [
        {
          "internalType": "bytes32",
          "name": "idPolicy",
          "type": "bytes32"
        },
        {
          "internalType": "uint16",
          "name": "dailyCompensationPolicy",
          "type": "uint16"
        },
        {
          "internalType": "uint16",
          "name": "daysToCompensatePolicy",
          "type": "uint16"
        },
        {
          "internalType": "uint16",
          "name": "insuredNumberPolicy",
          "type": "uint16"
        },
        {
          "internalType": "uint256",
          "name": "startDatePolicy",
          "type": "uint256"
        },
        {
          "internalType": "uint256",
          "name": "finishDatePolicy",
          "type": "uint256"
        },
        {
          "internalType": "bytes32[]",
          "name": "insureds",
          "type": "bytes32[]"
        }
      ],
      "stateMutability": "view",
      "type": "function"
    },
    {
      "inputs": [
        {
          "internalType": "bytes32",
          "name": "_idPCR",
          "type": "bytes32"
        }
      ],
      "name": "getPCR",
      "outputs": [
        {
          "internalType": "bytes32",
          "name": "result",
          "type": "bytes32"
        },
        {
          "internalType": "bytes32",
          "name": "customerId",
          "type": "bytes32"
        },
        {
          "internalType": "uint256",
          "name": "requestDate",
          "type": "uint256"
        },
        {
          "internalType": "uint256",
          "name": "resultDate",
          "type": "uint256"
        },
        {
          "internalType": "bytes32",
          "name": "id",
          "type": "bytes32"
        },
        {
          "internalType": "address",
          "name": "pcrContractAddress",
          "type": "address"
        }
      ],
      "stateMutability": "view",
      "type": "function"
    },
    {
      "inputs": [],
      "name": "getTakerData",
      "outputs": [
        {
          "internalType": "bytes32",
          "name": "takerId",
          "type": "bytes32"
        },
        {
          "internalType": "bytes32",
          "name": "takerNif",
          "type": "bytes32"
        },
        {
          "internalType": "string",
          "name": "takerFullName",
          "type": "string"
        },
        {
          "internalType": "string",
          "name": "takerContactAddress",
          "type": "string"
        },
        {
          "internalType": "bytes32",
          "name": "takerContactPostalCode",
          "type": "bytes32"
        },
        {
          "internalType": "bytes32",
          "name": "takerContactTown",
          "type": "bytes32"
        },
        {
          "internalType": "bytes32",
          "name": "takerContactLocation",
          "type": "bytes32"
        },
        {
          "internalType": "bytes32",
          "name": "takerContactTelephone",
          "type": "bytes32"
        },
        {
          "internalType": "bytes32",
          "name": "takerContactMobile",
          "type": "bytes32"
        },
        {
          "internalType": "string",
          "name": "takerContactEmail",
          "type": "string"
        },
        {
          "internalType": "bytes32",
          "name": "takerIBAN",
          "type": "bytes32"
        }
      ],
      "stateMutability": "view",
      "type": "function"
    },
    {
      "inputs": [],
      "name": "getTakerId",
      "outputs": [
        {
          "internalType": "bytes32",
          "name": "takerId",
          "type": "bytes32"
        }
      ],
      "stateMutability": "view",
      "type": "function"
    },
    {
      "inputs": [],
      "name": "serializeInsurance",
      "outputs": [
        {
          "internalType": "bytes",
          "name": "_serializedInsurance",
          "type": "bytes"
        },
        {
          "internalType": "uint256",
          "name": "_size",
          "type": "uint256"
        }
      ],
      "stateMutability": "view",
      "type": "function"
    },
    {
      "inputs": [
        {
          "internalType": "bytes32",
          "name": "_idPCR",
          "type": "bytes32"
        },
        {
          "internalType": "bytes32",
          "name": "_resultPCR",
          "type": "bytes32"
        }
      ],
      "name": "updatePCR",
      "outputs": [],
      "stateMutability": "nonpayable",
      "type": "function"
    }
  ],
  "devdoc": {
    "author": "Eduardo Suarez Ojeda",
    "details": "The Insurance Contract which represents the state of an insurance taken out by a hotel.",
    "kind": "dev",
    "methods": {
      "addPCRtoInsured(bytes32,bytes32,uint256,address)": {
        "details": "Update the PCR mappings."
      },
      "addSpcAddress(address)": {
        "details": "Updates the address of the general contract for security reasons."
      },
      "calculateCompensation()": {
        "details": "Returns only a fixed number."
      },
      "compensation()": {
        "details": "Emit the sinister event."
      },
      "deletePCR(bytes32)": {
        "details": "Updates the state of the PCR selected."
      },
      "destructContract()": {
        "details": "Only use in extreme situations."
      },
      "serializeInsurance()": {
        "details": "Returns all data of the insurance in an array of bytes."
      },
      "updatePCR(bytes32,bytes32)": {
        "details": "Update the PCR selected and fires Sinister event if the result is positive."
      }
    },
    "title": "Insurance",
    "version": 1
  },
  "evm": {
    "assembly": "    /* \"Insurance.sol\":2146:19761  contract Insurance is Seriality {... */\n  mstore(0x40, 0x80)\n    /* \"Insurance.sol\":4481:7067  constructor(... */\n  callvalue\n  dup1\n  iszero\n  tag_1\n  jumpi\n  0x00\n  dup1\n  revert\ntag_1:\n  pop\n  mload(0x40)\n  sub(codesize, bytecodeSize)\n  dup1\n  bytecodeSize\n  dup4\n  codecopy\n  dup2\n  dup2\n  add\n  0x40\n  mstore\n  dup2\n  add\n  swap1\n  tag_2\n  swap2\n  swap1\n  tag_3\n  jump\t// in\ntag_2:\n    /* \"Insurance.sol\":4939:4949  msg.sender */\n  caller\n    /* \"Insurance.sol\":4923:4928  owner */\n  0x00\n  dup1\n    /* \"Insurance.sol\":4923:4950  owner = payable(msg.sender) */\n  0x0100\n  exp\n  dup2\n  sload\n  dup2\n  0xffffffffffffffffffffffffffffffffffffffff\n  mul\n  not\n  and\n  swap1\n  dup4\n  0xffffffffffffffffffffffffffffffffffffffff\n  and\n  mul\n  or\n  swap1\n  sstore\n  pop\n    /* \"Insurance.sol\":4978:4983  false */\n  0x00\n    /* \"Insurance.sol\":4960:4975  spcAddressAdded */\n  0x01\n  0x14\n    /* \"Insurance.sol\":4960:4983  spcAddressAdded = false */\n  0x0100\n  exp\n  dup2\n  sload\n  dup2\n  0xff\n  mul\n  not\n  and\n  swap1\n  dup4\n  iszero\n  iszero\n  mul\n  or\n  swap1\n  sstore\n  pop\n    /* \"Insurance.sol\":5016:5027  _takerEmail */\n  dup1\n    /* \"Insurance.sol\":4993:5002  takerData */\n  0x10\n    /* \"Insurance.sol\":4993:5013  takerData.takerEmail */\n  0x02\n  add\n    /* \"Insurance.sol\":4993:5027  takerData.takerEmail = _takerEmail */\n  swap1\n  dup1\n  mload\n  swap1\n  0x20\n  add\n  swap1\n  tag_8\n  swap3\n  swap2\n  swap1\n  tag_9\n  jump\t// in\ntag_8:\n  pop\n    /* \"Insurance.sol\":5062:5075  _takerAddress */\n  dup2\n    /* \"Insurance.sol\":5037:5046  takerData */\n  0x10\n    /* \"Insurance.sol\":5037:5059  takerData.takerAddress */\n  0x01\n  add\n    /* \"Insurance.sol\":5037:5075  takerData.takerAddress = _takerAddress */\n  swap1\n  dup1\n  mload\n  swap1\n  0x20\n  add\n  swap1\n  tag_10\n  swap3\n  swap2\n  swap1\n  tag_9\n  jump\t// in\ntag_10:\n  pop\n    /* \"Insurance.sol\":5107:5117  _takerName */\n  dup3\n    /* \"Insurance.sol\":5085:5094  takerData */\n  0x10\n    /* \"Insurance.sol\":5085:5104  takerData.takerName */\n  0x00\n  add\n    /* \"Insurance.sol\":5085:5117  takerData.takerName = _takerName */\n  swap1\n  dup1\n  mload\n  swap1\n  0x20\n  add\n  swap1\n  tag_11\n  swap3\n  swap2\n  swap1\n  tag_9\n  jump\t// in\ntag_11:\n  pop\n    /* \"Insurance.sol\":5148:5158  _takerData */\n  dup4\n    /* \"Insurance.sol\":5159:5160  0 */\n  0x00\n    /* \"Insurance.sol\":5148:5161  _takerData[0] */\n  dup2\n  mload\n  dup2\n  lt\n  tag_12\n  jumpi\n  mstore(0x00, 0x4e487b7100000000000000000000000000000000000000000000000000000000)\n  mstore(0x04, 0x32)\n  revert(0x00, 0x24)\ntag_12:\n  0x20\n  mul\n  0x20\n  add\n  add\n  mload\n    /* \"Insurance.sol\":5127:5136  takerData */\n  0x10\n    /* \"Insurance.sol\":5127:5145  takerData.takerNif */\n  0x04\n  add\n    /* \"Insurance.sol\":5127:5161  takerData.takerNif = _takerData[0] */\n  dup2\n  swap1\n  sstore\n  pop\n    /* \"Insurance.sol\":5199:5209  _takerData */\n  dup4\n    /* \"Insurance.sol\":5210:5211  1 */\n  0x01\n    /* \"Insurance.sol\":5199:5212  _takerData[1] */\n  dup2\n  mload\n  dup2\n  lt\n  tag_13\n  jumpi\n  mstore(0x00, 0x4e487b7100000000000000000000000000000000000000000000000000000000)\n  mstore(0x04, 0x32)\n  revert(0x00, 0x24)\ntag_13:\n  0x20\n  mul\n  0x20\n  add\n  add\n  mload\n    /* \"Insurance.sol\":5171:5180  takerData */\n  0x10\n    /* \"Insurance.sol\":5171:5196  takerData.takerPostalCode */\n  0x05\n  add\n    /* \"Insurance.sol\":5171:5212  takerData.takerPostalCode = _takerData[1] */\n  dup2\n  swap1\n  sstore\n  pop\n    /* \"Insurance.sol\":5244:5254  _takerData */\n  dup4\n    /* \"Insurance.sol\":5255:5256  2 */\n  0x02\n    /* \"Insurance.sol\":5244:5257  _takerData[2] */\n  dup2\n  mload\n  dup2\n  lt\n  tag_14\n  jumpi\n  mstore(0x00, 0x4e487b7100000000000000000000000000000000000000000000000000000000)\n  mstore(0x04, 0x32)\n  revert(0x00, 0x24)\ntag_14:\n  0x20\n  mul\n  0x20\n  add\n  add\n  mload\n    /* \"Insurance.sol\":5222:5231  takerData */\n  0x10\n    /* \"Insurance.sol\":5222:5241  takerData.takerTown */\n  0x06\n  add\n    /* \"Insurance.sol\":5222:5257  takerData.takerTown = _takerData[2] */\n  dup2\n  swap1\n  sstore\n  pop\n    /* \"Insurance.sol\":5293:5303  _takerData */\n  dup4\n    /* \"Insurance.sol\":5304:5305  3 */\n  0x03\n    /* \"Insurance.sol\":5293:5306  _takerData[3] */\n  dup2\n  mload\n  dup2\n  lt\n  tag_15\n  jumpi\n  mstore(0x00, 0x4e487b7100000000000000000000000000000000000000000000000000000000)\n  mstore(0x04, 0x32)\n  revert(0x00, 0x24)\ntag_15:\n  0x20\n  mul\n  0x20\n  add\n  add\n  mload\n    /* \"Insurance.sol\":5267:5276  takerData */\n  0x10\n    /* \"Insurance.sol\":5267:5290  takerData.takerLocation */\n  0x07\n  add\n    /* \"Insurance.sol\":5267:5306  takerData.takerLocation = _takerData[3] */\n  dup2\n  swap1\n  sstore\n  pop\n    /* \"Insurance.sol\":5343:5353  _takerData */\n  dup4\n    /* \"Insurance.sol\":5354:5355  4 */\n  0x04\n    /* \"Insurance.sol\":5343:5356  _takerData[4] */\n  dup2\n  mload\n  dup2\n  lt\n  tag_16\n  jumpi\n  mstore(0x00, 0x4e487b7100000000000000000000000000000000000000000000000000000000)\n  mstore(0x04, 0x32)\n  revert(0x00, 0x24)\ntag_16:\n  0x20\n  mul\n  0x20\n  add\n  add\n  mload\n    /* \"Insurance.sol\":5316:5325  takerData */\n  0x10\n    /* \"Insurance.sol\":5316:5340  takerData.takerTelephone */\n  0x08\n  add\n    /* \"Insurance.sol\":5316:5356  takerData.takerTelephone = _takerData[4] */\n  dup2\n  swap1\n  sstore\n  pop\n    /* \"Insurance.sol\":5390:5400  _takerData */\n  dup4\n    /* \"Insurance.sol\":5401:5402  5 */\n  0x05\n    /* \"Insurance.sol\":5390:5403  _takerData[5] */\n  dup2\n  mload\n  dup2\n  lt\n  tag_17\n  jumpi\n  mstore(0x00, 0x4e487b7100000000000000000000000000000000000000000000000000000000)\n  mstore(0x04, 0x32)\n  revert(0x00, 0x24)\ntag_17:\n  0x20\n  mul\n  0x20\n  add\n  add\n  mload\n    /* \"Insurance.sol\":5366:5375  takerData */\n  0x10\n    /* \"Insurance.sol\":5366:5387  takerData.takerMobile */\n  0x09\n  add\n    /* \"Insurance.sol\":5366:5403  takerData.takerMobile = _takerData[5] */\n  dup2\n  swap1\n  sstore\n  pop\n    /* \"Insurance.sol\":5435:5445  _takerData */\n  dup4\n    /* \"Insurance.sol\":5446:5447  6 */\n  0x06\n    /* \"Insurance.sol\":5435:5448  _takerData[6] */\n  dup2\n  mload\n  dup2\n  lt\n  tag_18\n  jumpi\n  mstore(0x00, 0x4e487b7100000000000000000000000000000000000000000000000000000000)\n  mstore(0x04, 0x32)\n  revert(0x00, 0x24)\ntag_18:\n  0x20\n  mul\n  0x20\n  add\n  add\n  mload\n    /* \"Insurance.sol\":5413:5422  takerData */\n  0x10\n    /* \"Insurance.sol\":5413:5432  takerData.takerIban */\n  0x0a\n  add\n    /* \"Insurance.sol\":5413:5448  takerData.takerIban = _takerData[6] */\n  dup2\n  swap1\n  sstore\n  pop\n    /* \"Insurance.sol\":5506:5507  2 */\n  0x02\n    /* \"Insurance.sol\":5466:5495  _dailyCompensationAndDuration */\n  dup6\n    /* \"Insurance.sol\":5466:5502  _dailyCompensationAndDuration.length */\n  mload\n    /* \"Insurance.sol\":5466:5507  _dailyCompensationAndDuration.length == 2 */\n  eq\n    /* \"Insurance.sol\":5458:5586  require(_dailyCompensationAndDuration.length == 2, \"You have to provide the amount of day compensation and the number of days.\") */\n  tag_19\n  jumpi\n  mload(0x40)\n  0x08c379a000000000000000000000000000000000000000000000000000000000\n  dup2\n  mstore\n  0x04\n  add\n  tag_20\n  swap1\n  tag_21\n  jump\t// in\ntag_20:\n  mload(0x40)\n  dup1\n  swap2\n  sub\n  swap1\n  revert\ntag_19:\n    /* \"Insurance.sol\":5630:5659  _dailyCompensationAndDuration */\n  dup5\n    /* \"Insurance.sol\":5660:5661  0 */\n  0x00\n    /* \"Insurance.sol\":5630:5662  _dailyCompensationAndDuration[0] */\n  dup2\n  mload\n  dup2\n  lt\n  tag_22\n  jumpi\n  mstore(0x00, 0x4e487b7100000000000000000000000000000000000000000000000000000000)\n  mstore(0x04, 0x32)\n  revert(0x00, 0x24)\ntag_22:\n  0x20\n  mul\n  0x20\n  add\n  add\n  mload\n    /* \"Insurance.sol\":5596:5609  insuranceData */\n  0x0a\n    /* \"Insurance.sol\":5596:5627  insuranceData.dailyCompensation */\n  0x00\n  add\n  0x00\n    /* \"Insurance.sol\":5596:5662  insuranceData.dailyCompensation = _dailyCompensationAndDuration[0] */\n  0x0100\n  exp\n  dup2\n  sload\n  dup2\n  0xffff\n  mul\n  not\n  and\n  swap1\n  dup4\n  0xffff\n  and\n  mul\n  or\n  swap1\n  sstore\n  pop\n    /* \"Insurance.sol\":5705:5734  _dailyCompensationAndDuration */\n  dup5\n    /* \"Insurance.sol\":5735:5736  1 */\n  0x01\n    /* \"Insurance.sol\":5705:5737  _dailyCompensationAndDuration[1] */\n  dup2\n  mload\n  dup2\n  lt\n  tag_23\n  jumpi\n  mstore(0x00, 0x4e487b7100000000000000000000000000000000000000000000000000000000)\n  mstore(0x04, 0x32)\n  revert(0x00, 0x24)\ntag_23:\n  0x20\n  mul\n  0x20\n  add\n  add\n  mload\n    /* \"Insurance.sol\":5672:5685  insuranceData */\n  0x0a\n    /* \"Insurance.sol\":5672:5702  insuranceData.daysToCompensate */\n  0x00\n  add\n  0x02\n    /* \"Insurance.sol\":5672:5737  insuranceData.daysToCompensate = _dailyCompensationAndDuration[1] */\n  0x0100\n  exp\n  dup2\n  sload\n  dup2\n  0xffff\n  mul\n  not\n  and\n  swap1\n  dup4\n  0xffff\n  and\n  mul\n  or\n  swap1\n  sstore\n  pop\n    /* \"Insurance.sol\":5791:5792  3 */\n  0x03\n    /* \"Insurance.sol\":5755:5780  _insuranceStartFinishDate */\n  dup7\n    /* \"Insurance.sol\":5755:5787  _insuranceStartFinishDate.length */\n  mload\n    /* \"Insurance.sol\":5755:5792  _insuranceStartFinishDate.length == 3 */\n  eq\n    /* \"Insurance.sol\":5747:5861  require(_insuranceStartFinishDate.length == 3, \"The Policy need a start date, a finish date and a contract date.\") */\n  tag_24\n  jumpi\n  mload(0x40)\n  0x08c379a000000000000000000000000000000000000000000000000000000000\n  dup2\n  mstore\n  0x04\n  add\n  tag_25\n  swap1\n  tag_26\n  jump\t// in\ntag_25:\n  mload(0x40)\n  dup1\n  swap2\n  sub\n  swap1\n  revert\ntag_24:\n    /* \"Insurance.sol\":5910:5935  _insuranceStartFinishDate */\n  dup6\n    /* \"Insurance.sol\":5936:5937  1 */\n  0x01\n    /* \"Insurance.sol\":5910:5938  _insuranceStartFinishDate[1] */\n  dup2\n  mload\n  dup2\n  lt\n  tag_27\n  jumpi\n  mstore(0x00, 0x4e487b7100000000000000000000000000000000000000000000000000000000)\n  mstore(0x04, 0x32)\n  revert(0x00, 0x24)\ntag_27:\n  0x20\n  mul\n  0x20\n  add\n  add\n  mload\n    /* \"Insurance.sol\":5879:5904  _insuranceStartFinishDate */\n  dup7\n    /* \"Insurance.sol\":5905:5906  0 */\n  0x00\n    /* \"Insurance.sol\":5879:5907  _insuranceStartFinishDate[0] */\n  dup2\n  mload\n  dup2\n  lt\n  tag_28\n  jumpi\n  mstore(0x00, 0x4e487b7100000000000000000000000000000000000000000000000000000000)\n  mstore(0x04, 0x32)\n  revert(0x00, 0x24)\ntag_28:\n  0x20\n  mul\n  0x20\n  add\n  add\n  mload\n    /* \"Insurance.sol\":5879:5938  _insuranceStartFinishDate[0] < _insuranceStartFinishDate[1] */\n  lt\n    /* \"Insurance.sol\":5871:5991  require(_insuranceStartFinishDate[0] < _insuranceStartFinishDate[1], \"The start date has to be before the finish date.\") */\n  tag_29\n  jumpi\n  mload(0x40)\n  0x08c379a000000000000000000000000000000000000000000000000000000000\n  dup2\n  mstore\n  0x04\n  add\n  tag_30\n  swap1\n  tag_31\n  jump\t// in\ntag_30:\n  mload(0x40)\n  dup1\n  swap2\n  sub\n  swap1\n  revert\ntag_29:\n    /* \"Insurance.sol\":6036:6061  _insuranceStartFinishDate */\n  dup6\n    /* \"Insurance.sol\":6062:6063  0 */\n  0x00\n    /* \"Insurance.sol\":6036:6064  _insuranceStartFinishDate[0] */\n  dup2\n  mload\n  dup2\n  lt\n  tag_32\n  jumpi\n  mstore(0x00, 0x4e487b7100000000000000000000000000000000000000000000000000000000)\n  mstore(0x04, 0x32)\n  revert(0x00, 0x24)\ntag_32:\n  0x20\n  mul\n  0x20\n  add\n  add\n  mload\n    /* \"Insurance.sol\":6001:6014  insuranceData */\n  0x0a\n    /* \"Insurance.sol\":6001:6033  insuranceData.insuranceStartDate */\n  0x02\n  add\n    /* \"Insurance.sol\":6001:6064  insuranceData.insuranceStartDate = _insuranceStartFinishDate[0] */\n  dup2\n  swap1\n  sstore\n  pop\n    /* \"Insurance.sol\":6111:6136  _insuranceStartFinishDate */\n  dup6\n    /* \"Insurance.sol\":6137:6138  1 */\n  0x01\n    /* \"Insurance.sol\":6111:6139  _insuranceStartFinishDate[1] */\n  dup2\n  mload\n  dup2\n  lt\n  tag_33\n  jumpi\n  mstore(0x00, 0x4e487b7100000000000000000000000000000000000000000000000000000000)\n  mstore(0x04, 0x32)\n  revert(0x00, 0x24)\ntag_33:\n  0x20\n  mul\n  0x20\n  add\n  add\n  mload\n    /* \"Insurance.sol\":6075:6088  insuranceData */\n  0x0a\n    /* \"Insurance.sol\":6075:6108  insuranceData.insuranceFinishDate */\n  0x03\n  add\n    /* \"Insurance.sol\":6075:6139  insuranceData.insuranceFinishDate = _insuranceStartFinishDate[1] */\n  dup2\n  swap1\n  sstore\n  pop\n    /* \"Insurance.sol\":6178:6203  _insuranceStartFinishDate */\n  dup6\n    /* \"Insurance.sol\":6204:6205  2 */\n  0x02\n    /* \"Insurance.sol\":6178:6206  _insuranceStartFinishDate[2] */\n  dup2\n  mload\n  dup2\n  lt\n  tag_34\n  jumpi\n  mstore(0x00, 0x4e487b7100000000000000000000000000000000000000000000000000000000)\n  mstore(0x04, 0x32)\n  revert(0x00, 0x24)\ntag_34:\n  0x20\n  mul\n  0x20\n  add\n  add\n  mload\n    /* \"Insurance.sol\":6149:6162  insuranceData */\n  0x0a\n    /* \"Insurance.sol\":6149:6175  insuranceData.contractDate */\n  0x04\n  add\n    /* \"Insurance.sol\":6149:6206  insuranceData.contractDate = _insuranceStartFinishDate[2] */\n  dup2\n  swap1\n  sstore\n  pop\n    /* \"Insurance.sol\":6241:6250  _insureds */\n  dup7\n    /* \"Insurance.sol\":6216:6229  insuranceData */\n  0x0a\n    /* \"Insurance.sol\":6216:6238  insuranceData.insureds */\n  0x05\n  add\n    /* \"Insurance.sol\":6216:6250  insuranceData.insureds = _insureds */\n  swap1\n  dup1\n  mload\n  swap1\n  0x20\n  add\n  swap1\n  tag_35\n  swap3\n  swap2\n  swap1\n  tag_36\n  jump\t// in\ntag_35:\n  pop\n    /* \"Insurance.sol\":6284:6285  2 */\n  0x02\n    /* \"Insurance.sol\":6269:6273  _ids */\n  dup9\n    /* \"Insurance.sol\":6269:6280  _ids.length */\n  mload\n    /* \"Insurance.sol\":6269:6285  _ids.length == 2 */\n  eq\n    /* \"Insurance.sol\":6261:6326  require(_ids.length == 2, \"Must provide Policy ID and Taker ID.\") */\n  tag_37\n  jumpi\n  mload(0x40)\n  0x08c379a000000000000000000000000000000000000000000000000000000000\n  dup2\n  mstore\n  0x04\n  add\n  tag_38\n  swap1\n  tag_39\n  jump\t// in\ntag_38:\n  mload(0x40)\n  dup1\n  swap2\n  sub\n  swap1\n  revert\ntag_37:\n    /* \"Insurance.sol\":6356:6360  _ids */\n  dup8\n    /* \"Insurance.sol\":6361:6362  1 */\n  0x01\n    /* \"Insurance.sol\":6356:6363  _ids[1] */\n  dup2\n  mload\n  dup2\n  lt\n  tag_40\n  jumpi\n  mstore(0x00, 0x4e487b7100000000000000000000000000000000000000000000000000000000)\n  mstore(0x04, 0x32)\n  revert(0x00, 0x24)\ntag_40:\n  0x20\n  mul\n  0x20\n  add\n  add\n  mload\n    /* \"Insurance.sol\":6336:6345  takerData */\n  0x10\n    /* \"Insurance.sol\":6336:6353  takerData.takerId */\n  0x03\n  add\n    /* \"Insurance.sol\":6336:6363  takerData.takerId = _ids[1] */\n  dup2\n  swap1\n  sstore\n  pop\n    /* \"Insurance.sol\":6392:6396  _ids */\n  dup8\n    /* \"Insurance.sol\":6397:6398  0 */\n  0x00\n    /* \"Insurance.sol\":6392:6399  _ids[0] */\n  dup2\n  mload\n  dup2\n  lt\n  tag_41\n  jumpi\n  mstore(0x00, 0x4e487b7100000000000000000000000000000000000000000000000000000000)\n  mstore(0x04, 0x32)\n  revert(0x00, 0x24)\ntag_41:\n  0x20\n  mul\n  0x20\n  add\n  add\n  mload\n    /* \"Insurance.sol\":6373:6386  insuranceData */\n  0x0a\n    /* \"Insurance.sol\":6373:6389  insuranceData.id */\n  0x01\n  add\n    /* \"Insurance.sol\":6373:6399  insuranceData.id = _ids[0] */\n  dup2\n  swap1\n  sstore\n  pop\n    /* \"Insurance.sol\":6448:6457  _insureds */\n  dup7\n    /* \"Insurance.sol\":6448:6464  _insureds.length */\n  mload\n    /* \"Insurance.sol\":6418:6437  _insuredsNegPcrDate */\n  dup10\n    /* \"Insurance.sol\":6418:6444  _insuredsNegPcrDate.length */\n  mload\n    /* \"Insurance.sol\":6418:6464  _insuredsNegPcrDate.length == _insureds.length */\n  eq\n    /* \"Insurance.sol\":6410:6465  require(_insuredsNegPcrDate.length == _insureds.length) */\n  tag_42\n  jumpi\n  0x00\n  dup1\n  revert\ntag_42:\n    /* \"Insurance.sol\":6513:6522  _insureds */\n  dup7\n    /* \"Insurance.sol\":6513:6529  _insureds.length */\n  mload\n    /* \"Insurance.sol\":6483:6502  _insuredsNegPcrHash */\n  dup11\n    /* \"Insurance.sol\":6483:6509  _insuredsNegPcrHash.length */\n  mload\n    /* \"Insurance.sol\":6483:6529  _insuredsNegPcrHash.length == _insureds.length */\n  eq\n    /* \"Insurance.sol\":6475:6530  require(_insuredsNegPcrHash.length == _insureds.length) */\n  tag_43\n  jumpi\n  0x00\n  dup1\n  revert\ntag_43:\n    /* \"Insurance.sol\":6569:6575  uint i */\n  0x00\n    /* \"Insurance.sol\":6564:6948  for (uint i=0; i < _insureds.length; i++) {... */\ntag_44:\n    /* \"Insurance.sol\":6583:6592  _insureds */\n  dup8\n    /* \"Insurance.sol\":6583:6599  _insureds.length */\n  mload\n    /* \"Insurance.sol\":6579:6580  i */\n  dup2\n    /* \"Insurance.sol\":6579:6599  i < _insureds.length */\n  lt\n    /* \"Insurance.sol\":6564:6948  for (uint i=0; i < _insureds.length; i++) {... */\n  iszero\n  tag_45\n  jumpi\n    /* \"Insurance.sol\":6655:6659  true */\n  0x01\n    /* \"Insurance.sol\":6620:6638  insuredInInsurance */\n  0x04\n    /* \"Insurance.sol\":6620:6652  insuredInInsurance[_insureds[i]] */\n  0x00\n    /* \"Insurance.sol\":6639:6648  _insureds */\n  dup11\n    /* \"Insurance.sol\":6649:6650  i */\n  dup5\n    /* \"Insurance.sol\":6639:6651  _insureds[i] */\n  dup2\n  mload\n  dup2\n  lt\n  tag_47\n  jumpi\n  mstore(0x00, 0x4e487b7100000000000000000000000000000000000000000000000000000000)\n  mstore(0x04, 0x32)\n  revert(0x00, 0x24)\ntag_47:\n  0x20\n  mul\n  0x20\n  add\n  add\n  mload\n    /* \"Insurance.sol\":6620:6652  insuredInInsurance[_insureds[i]] */\n  dup2\n  mstore\n  0x20\n  add\n  swap1\n  dup2\n  mstore\n  0x20\n  add\n  0x00\n  keccak256\n  0x00\n    /* \"Insurance.sol\":6620:6659  insuredInInsurance[_insureds[i]] = true */\n  0x0100\n  exp\n  dup2\n  sload\n  dup2\n  0xff\n  mul\n  not\n  and\n  swap1\n  dup4\n  iszero\n  iszero\n  mul\n  or\n  swap1\n  sstore\n  pop\n    /* \"Insurance.sol\":6726:6732  259200 */\n  0x03f480\n    /* \"Insurance.sol\":6708:6723  block.timestamp */\n  timestamp\n    /* \"Insurance.sol\":6708:6732  block.timestamp - 259200 */\n  tag_48\n  swap2\n  swap1\n  tag_49\n  jump\t// in\ntag_48:\n    /* \"Insurance.sol\":6681:6700  _insuredsNegPcrDate */\n  dup11\n    /* \"Insurance.sol\":6701:6702  i */\n  dup3\n    /* \"Insurance.sol\":6681:6703  _insuredsNegPcrDate[i] */\n  dup2\n  mload\n  dup2\n  lt\n  tag_50\n  jumpi\n  mstore(0x00, 0x4e487b7100000000000000000000000000000000000000000000000000000000)\n  mstore(0x04, 0x32)\n  revert(0x00, 0x24)\ntag_50:\n  0x20\n  mul\n  0x20\n  add\n  add\n  mload\n    /* \"Insurance.sol\":6681:6733  _insuredsNegPcrDate[i] >= (block.timestamp - 259200) */\n  lt\n  iszero\n    /* \"Insurance.sol\":6673:6795  require(_insuredsNegPcrDate[i] >= (block.timestamp - 259200), \"Check that previous PCR has been no more than 3 days ago.\") */\n  tag_51\n  jumpi\n  mload(0x40)\n  0x08c379a000000000000000000000000000000000000000000000000000000000\n  dup2\n  mstore\n  0x04\n  add\n  tag_52\n  swap1\n  tag_53\n  jump\t// in\ntag_52:\n  mload(0x40)\n  dup1\n  swap2\n  sub\n  swap1\n  revert\ntag_51:\n    /* \"Insurance.sol\":6843:6862  _insuredsNegPcrDate */\n  dup10\n    /* \"Insurance.sol\":6863:6864  i */\n  dup2\n    /* \"Insurance.sol\":6843:6865  _insuredsNegPcrDate[i] */\n  dup2\n  mload\n  dup2\n  lt\n  tag_54\n  jumpi\n  mstore(0x00, 0x4e487b7100000000000000000000000000000000000000000000000000000000)\n  mstore(0x04, 0x32)\n  revert(0x00, 0x24)\ntag_54:\n  0x20\n  mul\n  0x20\n  add\n  add\n  mload\n    /* \"Insurance.sol\":6809:6826  insuredNegPcrDate */\n  0x08\n    /* \"Insurance.sol\":6809:6840  insuredNegPcrDate[_insureds[i]] */\n  0x00\n    /* \"Insurance.sol\":6827:6836  _insureds */\n  dup11\n    /* \"Insurance.sol\":6837:6838  i */\n  dup5\n    /* \"Insurance.sol\":6827:6839  _insureds[i] */\n  dup2\n  mload\n  dup2\n  lt\n  tag_55\n  jumpi\n  mstore(0x00, 0x4e487b7100000000000000000000000000000000000000000000000000000000)\n  mstore(0x04, 0x32)\n  revert(0x00, 0x24)\ntag_55:\n  0x20\n  mul\n  0x20\n  add\n  add\n  mload\n    /* \"Insurance.sol\":6809:6840  insuredNegPcrDate[_insureds[i]] */\n  dup2\n  mstore\n  0x20\n  add\n  swap1\n  dup2\n  mstore\n  0x20\n  add\n  0x00\n  keccak256\n    /* \"Insurance.sol\":6809:6865  insuredNegPcrDate[_insureds[i]] = _insuredsNegPcrDate[i] */\n  dup2\n  swap1\n  sstore\n  pop\n    /* \"Insurance.sol\":6914:6933  _insuredsNegPcrHash */\n  dup11\n    /* \"Insurance.sol\":6934:6935  i */\n  dup2\n    /* \"Insurance.sol\":6914:6936  _insuredsNegPcrHash[i] */\n  dup2\n  mload\n  dup2\n  lt\n  tag_56\n  jumpi\n  mstore(0x00, 0x4e487b7100000000000000000000000000000000000000000000000000000000)\n  mstore(0x04, 0x32)\n  revert(0x00, 0x24)\ntag_56:\n  0x20\n  mul\n  0x20\n  add\n  add\n  mload\n    /* \"Insurance.sol\":6879:6896  insuredNegPcrHash */\n  0x07\n    /* \"Insurance.sol\":6879:6910  insuredNegPcrHash[_insureds[i]] */\n  0x00\n    /* \"Insurance.sol\":6897:6906  _insureds */\n  dup11\n    /* \"Insurance.sol\":6907:6908  i */\n  dup5\n    /* \"Insurance.sol\":6897:6909  _insureds[i] */\n  dup2\n  mload\n  dup2\n  lt\n  tag_57\n  jumpi\n  mstore(0x00, 0x4e487b7100000000000000000000000000000000000000000000000000000000)\n  mstore(0x04, 0x32)\n  revert(0x00, 0x24)\ntag_57:\n  0x20\n  mul\n  0x20\n  add\n  add\n  mload\n    /* \"Insurance.sol\":6879:6910  insuredNegPcrHash[_insureds[i]] */\n  dup2\n  mstore\n  0x20\n  add\n  swap1\n  dup2\n  mstore\n  0x20\n  add\n  0x00\n  keccak256\n    /* \"Insurance.sol\":6879:6937  insuredNegPcrHash[_insureds[i]] = (_insuredsNegPcrHash[i]) */\n  dup2\n  swap1\n  sstore\n  pop\n    /* \"Insurance.sol\":6601:6604  i++ */\n  dup1\n  dup1\n  tag_58\n  swap1\n  tag_59\n  jump\t// in\ntag_58:\n  swap2\n  pop\n  pop\n    /* \"Insurance.sol\":6564:6948  for (uint i=0; i < _insureds.length; i++) {... */\n  jump(tag_44)\ntag_45:\n  pop\n    /* \"Insurance.sol\":6993:7006  insuranceData */\n  0x0a\n    /* \"Insurance.sol\":6993:7015  insuranceData.insureds */\n  0x05\n  add\n    /* \"Insurance.sol\":6993:7022  insuranceData.insureds.length */\n  dup1\n  sload\n  swap1\n  pop\n    /* \"Insurance.sol\":6957:7023  insuranceData.insuredNumber = uint8(insuranceData.insureds.length) */\n  0xff\n  and\n    /* \"Insurance.sol\":6957:6970  insuranceData */\n  0x0a\n    /* \"Insurance.sol\":6957:6984  insuranceData.insuredNumber */\n  0x00\n  add\n  0x06\n    /* \"Insurance.sol\":6957:7023  insuranceData.insuredNumber = uint8(insuranceData.insureds.length) */\n  0x0100\n  exp\n  dup2\n  sload\n  dup2\n  0xffff\n  mul\n  not\n  and\n  swap1\n  dup4\n  0xffff\n  and\n  mul\n  or\n  swap1\n  sstore\n  pop\n    /* \"Insurance.sol\":7059:7060  0 */\n  0x00\n    /* \"Insurance.sol\":7033:7046  insuranceData */\n  0x0a\n    /* \"Insurance.sol\":7033:7056  insuranceData.pcrNumber */\n  0x00\n  add\n  0x04\n    /* \"Insurance.sol\":7033:7060  insuranceData.pcrNumber = 0 */\n  0x0100\n  exp\n  dup2\n  sload\n  dup2\n  0xffff\n  mul\n  not\n  and\n  swap1\n  dup4\n  0xffff\n  and\n  mul\n  or\n  swap1\n  sstore\n  pop\n    /* \"Insurance.sol\":4481:7067  constructor(... */\n  pop\n  pop\n  pop\n  pop\n  pop\n  pop\n  pop\n  pop\n  pop\n  pop\n    /* \"Insurance.sol\":2146:19761  contract Insurance is Seriality {... */\n  jump(tag_60)\ntag_9:\n  dup3\n  dup1\n  sload\n  tag_61\n  swap1\n  tag_62\n  jump\t// in\ntag_61:\n  swap1\n  0x00\n  mstore\n  keccak256(0x00, 0x20)\n  swap1\n  0x1f\n  add\n  0x20\n  swap1\n  div\n  dup2\n  add\n  swap3\n  dup3\n  tag_64\n  jumpi\n  0x00\n  dup6\n  sstore\n  jump(tag_63)\ntag_64:\n  dup3\n  0x1f\n  lt\n  tag_65\n  jumpi\n  dup1\n  mload\n  not(0xff)\n  and\n  dup4\n  dup1\n  add\n  or\n  dup6\n  sstore\n  jump(tag_63)\ntag_65:\n  dup3\n  dup1\n  add\n  0x01\n  add\n  dup6\n  sstore\n  dup3\n  iszero\n  tag_63\n  jumpi\n  swap2\n  dup3\n  add\ntag_66:\n  dup3\n  dup2\n  gt\n  iszero\n  tag_67\n  jumpi\n  dup3\n  mload\n  dup3\n  sstore\n  swap2\n  0x20\n  add\n  swap2\n  swap1\n  0x01\n  add\n  swap1\n  jump(tag_66)\ntag_67:\ntag_63:\n  pop\n  swap1\n  pop\n  tag_68\n  swap2\n  swap1\n  tag_69\n  jump\t// in\ntag_68:\n  pop\n  swap1\n  jump\t// out\ntag_36:\n  dup3\n  dup1\n  sload\n  dup3\n  dup3\n  sstore\n  swap1\n  0x00\n  mstore\n  keccak256(0x00, 0x20)\n  swap1\n  dup2\n  add\n  swap3\n  dup3\n  iszero\n  tag_70\n  jumpi\n  swap2\n  0x20\n  mul\n  dup3\n  add\ntag_71:\n  dup3\n  dup2\n  gt\n  iszero\n  tag_72\n  jumpi\n  dup3\n  mload\n  dup3\n  sstore\n  swap2\n  0x20\n  add\n  swap2\n  swap1\n  0x01\n  add\n  swap1\n  jump(tag_71)\ntag_72:\ntag_70:\n  pop\n  swap1\n  pop\n  tag_73\n  swap2\n  swap1\n  tag_74\n  jump\t// in\ntag_73:\n  pop\n  swap1\n  jump\t// out\ntag_69:\ntag_75:\n  dup1\n  dup3\n  gt\n  iszero\n  tag_76\n  jumpi\n  0x00\n  dup2\n  0x00\n  swap1\n  sstore\n  pop\n  0x01\n  add\n  jump(tag_75)\ntag_76:\n  pop\n  swap1\n  jump\t// out\ntag_74:\ntag_77:\n  dup1\n  dup3\n  gt\n  iszero\n  tag_78\n  jumpi\n  0x00\n  dup2\n  0x00\n  swap1\n  sstore\n  pop\n  0x01\n  add\n  jump(tag_77)\ntag_78:\n  pop\n  swap1\n  jump\t// out\n    /* \"#utility.yul\":24:669   */\ntag_80:\n  0x00\n    /* \"#utility.yul\":156:237   */\n  tag_82\n    /* \"#utility.yul\":172:236   */\n  tag_83\n    /* \"#utility.yul\":229:235   */\n  dup5\n    /* \"#utility.yul\":172:236   */\n  tag_84\n  jump\t// in\ntag_83:\n    /* \"#utility.yul\":156:237   */\n  tag_85\n  jump\t// in\ntag_82:\n    /* \"#utility.yul\":147:237   */\n  swap1\n  pop\n    /* \"#utility.yul\":257:262   */\n  dup1\n    /* \"#utility.yul\":285:291   */\n  dup4\n    /* \"#utility.yul\":278:283   */\n  dup3\n    /* \"#utility.yul\":271:292   */\n  mstore\n    /* \"#utility.yul\":311:315   */\n  0x20\n    /* \"#utility.yul\":304:309   */\n  dup3\n    /* \"#utility.yul\":300:316   */\n  add\n    /* \"#utility.yul\":293:316   */\n  swap1\n  pop\n    /* \"#utility.yul\":336:342   */\n  dup3\n    /* \"#utility.yul\":386:389   */\n  dup6\n    /* \"#utility.yul\":378:382   */\n  0x20\n    /* \"#utility.yul\":370:376   */\n  dup7\n    /* \"#utility.yul\":366:383   */\n  mul\n    /* \"#utility.yul\":361:364   */\n  dup3\n    /* \"#utility.yul\":357:384   */\n  add\n    /* \"#utility.yul\":354:390   */\n  gt\n    /* \"#utility.yul\":351:353   */\n  iszero\n  tag_86\n  jumpi\n    /* \"#utility.yul\":403:404   */\n  0x00\n    /* \"#utility.yul\":400:401   */\n  dup1\n    /* \"#utility.yul\":393:405   */\n  revert\n    /* \"#utility.yul\":351:353   */\ntag_86:\n    /* \"#utility.yul\":431:432   */\n  0x00\n    /* \"#utility.yul\":416:663   */\ntag_87:\n    /* \"#utility.yul\":441:447   */\n  dup6\n    /* \"#utility.yul\":438:439   */\n  dup2\n    /* \"#utility.yul\":435:448   */\n  lt\n    /* \"#utility.yul\":416:663   */\n  iszero\n  tag_89\n  jumpi\n    /* \"#utility.yul\":508:511   */\n  dup2\n    /* \"#utility.yul\":536:584   */\n  tag_90\n    /* \"#utility.yul\":580:583   */\n  dup9\n    /* \"#utility.yul\":568:578   */\n  dup3\n    /* \"#utility.yul\":536:584   */\n  tag_91\n  jump\t// in\ntag_90:\n    /* \"#utility.yul\":531:534   */\n  dup5\n    /* \"#utility.yul\":524:585   */\n  mstore\n    /* \"#utility.yul\":614:618   */\n  0x20\n    /* \"#utility.yul\":609:612   */\n  dup5\n    /* \"#utility.yul\":605:619   */\n  add\n    /* \"#utility.yul\":598:619   */\n  swap4\n  pop\n    /* \"#utility.yul\":648:652   */\n  0x20\n    /* \"#utility.yul\":643:646   */\n  dup4\n    /* \"#utility.yul\":639:653   */\n  add\n    /* \"#utility.yul\":632:653   */\n  swap3\n  pop\n    /* \"#utility.yul\":476:663   */\n  pop\n    /* \"#utility.yul\":463:464   */\n  0x01\n    /* \"#utility.yul\":460:461   */\n  dup2\n    /* \"#utility.yul\":456:465   */\n  add\n    /* \"#utility.yul\":451:465   */\n  swap1\n  pop\n    /* \"#utility.yul\":416:663   */\n  jump(tag_87)\ntag_89:\n    /* \"#utility.yul\":420:434   */\n  pop\n    /* \"#utility.yul\":137:669   */\n  pop\n  pop\n  swap4\n  swap3\n  pop\n  pop\n  pop\n  jump\t// out\n    /* \"#utility.yul\":691:1333   */\ntag_92:\n  0x00\n    /* \"#utility.yul\":822:902   */\n  tag_94\n    /* \"#utility.yul\":838:901   */\n  tag_95\n    /* \"#utility.yul\":894:900   */\n  dup5\n    /* \"#utility.yul\":838:901   */\n  tag_96\n  jump\t// in\ntag_95:\n    /* \"#utility.yul\":822:902   */\n  tag_85\n  jump\t// in\ntag_94:\n    /* \"#utility.yul\":813:902   */\n  swap1\n  pop\n    /* \"#utility.yul\":922:927   */\n  dup1\n    /* \"#utility.yul\":950:956   */\n  dup4\n    /* \"#utility.yul\":943:948   */\n  dup3\n    /* \"#utility.yul\":936:957   */\n  mstore\n    /* \"#utility.yul\":976:980   */\n  0x20\n    /* \"#utility.yul\":969:974   */\n  dup3\n    /* \"#utility.yul\":965:981   */\n  add\n    /* \"#utility.yul\":958:981   */\n  swap1\n  pop\n    /* \"#utility.yul\":1001:1007   */\n  dup3\n    /* \"#utility.yul\":1051:1054   */\n  dup6\n    /* \"#utility.yul\":1043:1047   */\n  0x20\n    /* \"#utility.yul\":1035:1041   */\n  dup7\n    /* \"#utility.yul\":1031:1048   */\n  mul\n    /* \"#utility.yul\":1026:1029   */\n  dup3\n    /* \"#utility.yul\":1022:1049   */\n  add\n    /* \"#utility.yul\":1019:1055   */\n  gt\n    /* \"#utility.yul\":1016:1018   */\n  iszero\n  tag_97\n  jumpi\n    /* \"#utility.yul\":1068:1069   */\n  0x00\n    /* \"#utility.yul\":1065:1066   */\n  dup1\n    /* \"#utility.yul\":1058:1070   */\n  revert\n    /* \"#utility.yul\":1016:1018   */\ntag_97:\n    /* \"#utility.yul\":1096:1097   */\n  0x00\n    /* \"#utility.yul\":1081:1327   */\ntag_98:\n    /* \"#utility.yul\":1106:1112   */\n  dup6\n    /* \"#utility.yul\":1103:1104   */\n  dup2\n    /* \"#utility.yul\":1100:1113   */\n  lt\n    /* \"#utility.yul\":1081:1327   */\n  iszero\n  tag_100\n  jumpi\n    /* \"#utility.yul\":1173:1176   */\n  dup2\n    /* \"#utility.yul\":1201:1248   */\n  tag_101\n    /* \"#utility.yul\":1244:1247   */\n  dup9\n    /* \"#utility.yul\":1232:1242   */\n  dup3\n    /* \"#utility.yul\":1201:1248   */\n  tag_102\n  jump\t// in\ntag_101:\n    /* \"#utility.yul\":1196:1199   */\n  dup5\n    /* \"#utility.yul\":1189:1249   */\n  mstore\n    /* \"#utility.yul\":1278:1282   */\n  0x20\n    /* \"#utility.yul\":1273:1276   */\n  dup5\n    /* \"#utility.yul\":1269:1283   */\n  add\n    /* \"#utility.yul\":1262:1283   */\n  swap4\n  pop\n    /* \"#utility.yul\":1312:1316   */\n  0x20\n    /* \"#utility.yul\":1307:1310   */\n  dup4\n    /* \"#utility.yul\":1303:1317   */\n  add\n    /* \"#utility.yul\":1296:1317   */\n  swap3\n  pop\n    /* \"#utility.yul\":1141:1327   */\n  pop\n    /* \"#utility.yul\":1128:1129   */\n  0x01\n    /* \"#utility.yul\":1125:1126   */\n  dup2\n    /* \"#utility.yul\":1121:1130   */\n  add\n    /* \"#utility.yul\":1116:1130   */\n  swap1\n  pop\n    /* \"#utility.yul\":1081:1327   */\n  jump(tag_98)\ntag_100:\n    /* \"#utility.yul\":1085:1099   */\n  pop\n    /* \"#utility.yul\":803:1333   */\n  pop\n  pop\n  swap4\n  swap3\n  pop\n  pop\n  pop\n  jump\t// out\n    /* \"#utility.yul\":1356:2001   */\ntag_103:\n  0x00\n    /* \"#utility.yul\":1488:1569   */\n  tag_105\n    /* \"#utility.yul\":1504:1568   */\n  tag_106\n    /* \"#utility.yul\":1561:1567   */\n  dup5\n    /* \"#utility.yul\":1504:1568   */\n  tag_107\n  jump\t// in\ntag_106:\n    /* \"#utility.yul\":1488:1569   */\n  tag_85\n  jump\t// in\ntag_105:\n    /* \"#utility.yul\":1479:1569   */\n  swap1\n  pop\n    /* \"#utility.yul\":1589:1594   */\n  dup1\n    /* \"#utility.yul\":1617:1623   */\n  dup4\n    /* \"#utility.yul\":1610:1615   */\n  dup3\n    /* \"#utility.yul\":1603:1624   */\n  mstore\n    /* \"#utility.yul\":1643:1647   */\n  0x20\n    /* \"#utility.yul\":1636:1641   */\n  dup3\n    /* \"#utility.yul\":1632:1648   */\n  add\n    /* \"#utility.yul\":1625:1648   */\n  swap1\n  pop\n    /* \"#utility.yul\":1668:1674   */\n  dup3\n    /* \"#utility.yul\":1718:1721   */\n  dup6\n    /* \"#utility.yul\":1710:1714   */\n  0x20\n    /* \"#utility.yul\":1702:1708   */\n  dup7\n    /* \"#utility.yul\":1698:1715   */\n  mul\n    /* \"#utility.yul\":1693:1696   */\n  dup3\n    /* \"#utility.yul\":1689:1716   */\n  add\n    /* \"#utility.yul\":1686:1722   */\n  gt\n    /* \"#utility.yul\":1683:1685   */\n  iszero\n  tag_108\n  jumpi\n    /* \"#utility.yul\":1735:1736   */\n  0x00\n    /* \"#utility.yul\":1732:1733   */\n  dup1\n    /* \"#utility.yul\":1725:1737   */\n  revert\n    /* \"#utility.yul\":1683:1685   */\ntag_108:\n    /* \"#utility.yul\":1763:1764   */\n  0x00\n    /* \"#utility.yul\":1748:1995   */\ntag_109:\n    /* \"#utility.yul\":1773:1779   */\n  dup6\n    /* \"#utility.yul\":1770:1771   */\n  dup2\n    /* \"#utility.yul\":1767:1780   */\n  lt\n    /* \"#utility.yul\":1748:1995   */\n  iszero\n  tag_111\n  jumpi\n    /* \"#utility.yul\":1840:1843   */\n  dup2\n    /* \"#utility.yul\":1868:1916   */\n  tag_112\n    /* \"#utility.yul\":1912:1915   */\n  dup9\n    /* \"#utility.yul\":1900:1910   */\n  dup3\n    /* \"#utility.yul\":1868:1916   */\n  tag_113\n  jump\t// in\ntag_112:\n    /* \"#utility.yul\":1863:1866   */\n  dup5\n    /* \"#utility.yul\":1856:1917   */\n  mstore\n    /* \"#utility.yul\":1946:1950   */\n  0x20\n    /* \"#utility.yul\":1941:1944   */\n  dup5\n    /* \"#utility.yul\":1937:1951   */\n  add\n    /* \"#utility.yul\":1930:1951   */\n  swap4\n  pop\n    /* \"#utility.yul\":1980:1984   */\n  0x20\n    /* \"#utility.yul\":1975:1978   */\n  dup4\n    /* \"#utility.yul\":1971:1985   */\n  add\n    /* \"#utility.yul\":1964:1985   */\n  swap3\n  pop\n    /* \"#utility.yul\":1808:1995   */\n  pop\n    /* \"#utility.yul\":1795:1796   */\n  0x01\n    /* \"#utility.yul\":1792:1793   */\n  dup2\n    /* \"#utility.yul\":1788:1797   */\n  add\n    /* \"#utility.yul\":1783:1797   */\n  swap1\n  pop\n    /* \"#utility.yul\":1748:1995   */\n  jump(tag_109)\ntag_111:\n    /* \"#utility.yul\":1752:1766   */\n  pop\n    /* \"#utility.yul\":1469:2001   */\n  pop\n  pop\n  swap4\n  swap3\n  pop\n  pop\n  pop\n  jump\t// out\n    /* \"#utility.yul\":2007:2361   */\ntag_114:\n  0x00\n    /* \"#utility.yul\":2121:2187   */\n  tag_116\n    /* \"#utility.yul\":2137:2186   */\n  tag_117\n    /* \"#utility.yul\":2179:2185   */\n  dup5\n    /* \"#utility.yul\":2137:2186   */\n  tag_118\n  jump\t// in\ntag_117:\n    /* \"#utility.yul\":2121:2187   */\n  tag_85\n  jump\t// in\ntag_116:\n    /* \"#utility.yul\":2112:2187   */\n  swap1\n  pop\n    /* \"#utility.yul\":2210:2216   */\n  dup3\n    /* \"#utility.yul\":2203:2208   */\n  dup2\n    /* \"#utility.yul\":2196:2217   */\n  mstore\n    /* \"#utility.yul\":2248:2252   */\n  0x20\n    /* \"#utility.yul\":2241:2246   */\n  dup2\n    /* \"#utility.yul\":2237:2253   */\n  add\n    /* \"#utility.yul\":2286:2289   */\n  dup5\n    /* \"#utility.yul\":2277:2283   */\n  dup5\n    /* \"#utility.yul\":2272:2275   */\n  dup5\n    /* \"#utility.yul\":2268:2284   */\n  add\n    /* \"#utility.yul\":2265:2290   */\n  gt\n    /* \"#utility.yul\":2262:2264   */\n  iszero\n  tag_119\n  jumpi\n    /* \"#utility.yul\":2303:2304   */\n  0x00\n    /* \"#utility.yul\":2300:2301   */\n  dup1\n    /* \"#utility.yul\":2293:2305   */\n  revert\n    /* \"#utility.yul\":2262:2264   */\ntag_119:\n    /* \"#utility.yul\":2316:2355   */\n  tag_120\n    /* \"#utility.yul\":2348:2354   */\n  dup5\n    /* \"#utility.yul\":2343:2346   */\n  dup3\n    /* \"#utility.yul\":2338:2341   */\n  dup6\n    /* \"#utility.yul\":2316:2355   */\n  tag_121\n  jump\t// in\ntag_120:\n    /* \"#utility.yul\":2102:2361   */\n  pop\n  swap4\n  swap3\n  pop\n  pop\n  pop\n  jump\t// out\n    /* \"#utility.yul\":2384:2702   */\ntag_122:\n  0x00\n    /* \"#utility.yul\":2515:2518   */\n  dup3\n    /* \"#utility.yul\":2508:2512   */\n  0x1f\n    /* \"#utility.yul\":2500:2506   */\n  dup4\n    /* \"#utility.yul\":2496:2513   */\n  add\n    /* \"#utility.yul\":2492:2519   */\n  slt\n    /* \"#utility.yul\":2482:2484   */\n  tag_124\n  jumpi\n    /* \"#utility.yul\":2533:2534   */\n  0x00\n    /* \"#utility.yul\":2530:2531   */\n  dup1\n    /* \"#utility.yul\":2523:2535   */\n  revert\n    /* \"#utility.yul\":2482:2484   */\ntag_124:\n    /* \"#utility.yul\":2566:2572   */\n  dup2\n    /* \"#utility.yul\":2560:2573   */\n  mload\n    /* \"#utility.yul\":2591:2696   */\n  tag_125\n    /* \"#utility.yul\":2692:2695   */\n  dup5\n    /* \"#utility.yul\":2684:2690   */\n  dup3\n    /* \"#utility.yul\":2677:2681   */\n  0x20\n    /* \"#utility.yul\":2669:2675   */\n  dup7\n    /* \"#utility.yul\":2665:2682   */\n  add\n    /* \"#utility.yul\":2591:2696   */\n  tag_80\n  jump\t// in\ntag_125:\n    /* \"#utility.yul\":2582:2696   */\n  swap2\n  pop\n    /* \"#utility.yul\":2472:2702   */\n  pop\n  swap3\n  swap2\n  pop\n  pop\n  jump\t// out\n    /* \"#utility.yul\":2724:3040   */\ntag_126:\n  0x00\n    /* \"#utility.yul\":2854:2857   */\n  dup3\n    /* \"#utility.yul\":2847:2851   */\n  0x1f\n    /* \"#utility.yul\":2839:2845   */\n  dup4\n    /* \"#utility.yul\":2835:2852   */\n  add\n    /* \"#utility.yul\":2831:2858   */\n  slt\n    /* \"#utility.yul\":2821:2823   */\n  tag_128\n  jumpi\n    /* \"#utility.yul\":2872:2873   */\n  0x00\n    /* \"#utility.yul\":2869:2870   */\n  dup1\n    /* \"#utility.yul\":2862:2874   */\n  revert\n    /* \"#utility.yul\":2821:2823   */\ntag_128:\n    /* \"#utility.yul\":2905:2911   */\n  dup2\n    /* \"#utility.yul\":2899:2912   */\n  mload\n    /* \"#utility.yul\":2930:3034   */\n  tag_129\n    /* \"#utility.yul\":3030:3033   */\n  dup5\n    /* \"#utility.yul\":3022:3028   */\n  dup3\n    /* \"#utility.yul\":3015:3019   */\n  0x20\n    /* \"#utility.yul\":3007:3013   */\n  dup7\n    /* \"#utility.yul\":3003:3020   */\n  add\n    /* \"#utility.yul\":2930:3034   */\n  tag_92\n  jump\t// in\ntag_129:\n    /* \"#utility.yul\":2921:3034   */\n  swap2\n  pop\n    /* \"#utility.yul\":2811:3040   */\n  pop\n  swap3\n  swap2\n  pop\n  pop\n  jump\t// out\n    /* \"#utility.yul\":3063:3381   */\ntag_130:\n  0x00\n    /* \"#utility.yul\":3194:3197   */\n  dup3\n    /* \"#utility.yul\":3187:3191   */\n  0x1f\n    /* \"#utility.yul\":3179:3185   */\n  dup4\n    /* \"#utility.yul\":3175:3192   */\n  add\n    /* \"#utility.yul\":3171:3198   */\n  slt\n    /* \"#utility.yul\":3161:3163   */\n  tag_132\n  jumpi\n    /* \"#utility.yul\":3212:3213   */\n  0x00\n    /* \"#utility.yul\":3209:3210   */\n  dup1\n    /* \"#utility.yul\":3202:3214   */\n  revert\n    /* \"#utility.yul\":3161:3163   */\ntag_132:\n    /* \"#utility.yul\":3245:3251   */\n  dup2\n    /* \"#utility.yul\":3239:3252   */\n  mload\n    /* \"#utility.yul\":3270:3375   */\n  tag_133\n    /* \"#utility.yul\":3371:3374   */\n  dup5\n    /* \"#utility.yul\":3363:3369   */\n  dup3\n    /* \"#utility.yul\":3356:3360   */\n  0x20\n    /* \"#utility.yul\":3348:3354   */\n  dup7\n    /* \"#utility.yul\":3344:3361   */\n  add\n    /* \"#utility.yul\":3270:3375   */\n  tag_103\n  jump\t// in\ntag_133:\n    /* \"#utility.yul\":3261:3375   */\n  swap2\n  pop\n    /* \"#utility.yul\":3151:3381   */\n  pop\n  swap3\n  swap2\n  pop\n  pop\n  jump\t// out\n    /* \"#utility.yul\":3387:3530   */\ntag_91:\n  0x00\n    /* \"#utility.yul\":3475:3481   */\n  dup2\n    /* \"#utility.yul\":3469:3482   */\n  mload\n    /* \"#utility.yul\":3460:3482   */\n  swap1\n  pop\n    /* \"#utility.yul\":3491:3524   */\n  tag_135\n    /* \"#utility.yul\":3518:3523   */\n  dup2\n    /* \"#utility.yul\":3491:3524   */\n  tag_136\n  jump\t// in\ntag_135:\n    /* \"#utility.yul\":3450:3530   */\n  swap3\n  swap2\n  pop\n  pop\n  jump\t// out\n    /* \"#utility.yul\":3550:3838   */\ntag_137:\n  0x00\n    /* \"#utility.yul\":3666:3669   */\n  dup3\n    /* \"#utility.yul\":3659:3663   */\n  0x1f\n    /* \"#utility.yul\":3651:3657   */\n  dup4\n    /* \"#utility.yul\":3647:3664   */\n  add\n    /* \"#utility.yul\":3643:3670   */\n  slt\n    /* \"#utility.yul\":3633:3635   */\n  tag_139\n  jumpi\n    /* \"#utility.yul\":3684:3685   */\n  0x00\n    /* \"#utility.yul\":3681:3682   */\n  dup1\n    /* \"#utility.yul\":3674:3686   */\n  revert\n    /* \"#utility.yul\":3633:3635   */\ntag_139:\n    /* \"#utility.yul\":3717:3723   */\n  dup2\n    /* \"#utility.yul\":3711:3724   */\n  mload\n    /* \"#utility.yul\":3742:3832   */\n  tag_140\n    /* \"#utility.yul\":3828:3831   */\n  dup5\n    /* \"#utility.yul\":3820:3826   */\n  dup3\n    /* \"#utility.yul\":3813:3817   */\n  0x20\n    /* \"#utility.yul\":3805:3811   */\n  dup7\n    /* \"#utility.yul\":3801:3818   */\n  add\n    /* \"#utility.yul\":3742:3832   */\n  tag_114\n  jump\t// in\ntag_140:\n    /* \"#utility.yul\":3733:3832   */\n  swap2\n  pop\n    /* \"#utility.yul\":3623:3838   */\n  pop\n  swap3\n  swap2\n  pop\n  pop\n  jump\t// out\n    /* \"#utility.yul\":3844:3985   */\ntag_102:\n  0x00\n    /* \"#utility.yul\":3931:3937   */\n  dup2\n    /* \"#utility.yul\":3925:3938   */\n  mload\n    /* \"#utility.yul\":3916:3938   */\n  swap1\n  pop\n    /* \"#utility.yul\":3947:3979   */\n  tag_142\n    /* \"#utility.yul\":3973:3978   */\n  dup2\n    /* \"#utility.yul\":3947:3979   */\n  tag_143\n  jump\t// in\ntag_142:\n    /* \"#utility.yul\":3906:3985   */\n  swap3\n  swap2\n  pop\n  pop\n  jump\t// out\n    /* \"#utility.yul\":3991:4134   */\ntag_113:\n  0x00\n    /* \"#utility.yul\":4079:4085   */\n  dup2\n    /* \"#utility.yul\":4073:4086   */\n  mload\n    /* \"#utility.yul\":4064:4086   */\n  swap1\n  pop\n    /* \"#utility.yul\":4095:4128   */\n  tag_145\n    /* \"#utility.yul\":4122:4127   */\n  dup2\n    /* \"#utility.yul\":4095:4128   */\n  tag_146\n  jump\t// in\ntag_145:\n    /* \"#utility.yul\":4054:4134   */\n  swap3\n  swap2\n  pop\n  pop\n  jump\t// out\n    /* \"#utility.yul\":4140:7103   */\ntag_3:\n  0x00\n  dup1\n  0x00\n  dup1\n  0x00\n  dup1\n  0x00\n  dup1\n  0x00\n  dup1\n    /* \"#utility.yul\":4616:4619   */\n  0x0140\n    /* \"#utility.yul\":4604:4613   */\n  dup12\n    /* \"#utility.yul\":4595:4602   */\n  dup14\n    /* \"#utility.yul\":4591:4614   */\n  sub\n    /* \"#utility.yul\":4587:4620   */\n  slt\n    /* \"#utility.yul\":4584:4586   */\n  iszero\n  tag_148\n  jumpi\n    /* \"#utility.yul\":4633:4634   */\n  0x00\n    /* \"#utility.yul\":4630:4631   */\n  dup1\n    /* \"#utility.yul\":4623:4635   */\n  revert\n    /* \"#utility.yul\":4584:4586   */\ntag_148:\n    /* \"#utility.yul\":4697:4698   */\n  0x00\n    /* \"#utility.yul\":4686:4695   */\n  dup12\n    /* \"#utility.yul\":4682:4699   */\n  add\n    /* \"#utility.yul\":4676:4700   */\n  mload\n    /* \"#utility.yul\":4727:4745   */\n  0xffffffffffffffff\n    /* \"#utility.yul\":4719:4725   */\n  dup2\n    /* \"#utility.yul\":4716:4746   */\n  gt\n    /* \"#utility.yul\":4713:4715   */\n  iszero\n  tag_149\n  jumpi\n    /* \"#utility.yul\":4759:4760   */\n  0x00\n    /* \"#utility.yul\":4756:4757   */\n  dup1\n    /* \"#utility.yul\":4749:4761   */\n  revert\n    /* \"#utility.yul\":4713:4715   */\ntag_149:\n    /* \"#utility.yul\":4787:4876   */\n  tag_150\n    /* \"#utility.yul\":4868:4875   */\n  dup14\n    /* \"#utility.yul\":4859:4865   */\n  dup3\n    /* \"#utility.yul\":4848:4857   */\n  dup15\n    /* \"#utility.yul\":4844:4866   */\n  add\n    /* \"#utility.yul\":4787:4876   */\n  tag_122\n  jump\t// in\ntag_150:\n    /* \"#utility.yul\":4777:4876   */\n  swap11\n  pop\n    /* \"#utility.yul\":4647:4886   */\n  pop\n    /* \"#utility.yul\":4946:4948   */\n  0x20\n    /* \"#utility.yul\":4935:4944   */\n  dup12\n    /* \"#utility.yul\":4931:4949   */\n  add\n    /* \"#utility.yul\":4925:4950   */\n  mload\n    /* \"#utility.yul\":4977:4995   */\n  0xffffffffffffffff\n    /* \"#utility.yul\":4969:4975   */\n  dup2\n    /* \"#utility.yul\":4966:4996   */\n  gt\n    /* \"#utility.yul\":4963:4965   */\n  iszero\n  tag_151\n  jumpi\n    /* \"#utility.yul\":5009:5010   */\n  0x00\n    /* \"#utility.yul\":5006:5007   */\n  dup1\n    /* \"#utility.yul\":4999:5011   */\n  revert\n    /* \"#utility.yul\":4963:4965   */\ntag_151:\n    /* \"#utility.yul\":5037:5126   */\n  tag_152\n    /* \"#utility.yul\":5118:5125   */\n  dup14\n    /* \"#utility.yul\":5109:5115   */\n  dup3\n    /* \"#utility.yul\":5098:5107   */\n  dup15\n    /* \"#utility.yul\":5094:5116   */\n  add\n    /* \"#utility.yul\":5037:5126   */\n  tag_130\n  jump\t// in\ntag_152:\n    /* \"#utility.yul\":5027:5126   */\n  swap10\n  pop\n    /* \"#utility.yul\":4896:5136   */\n  pop\n    /* \"#utility.yul\":5196:5198   */\n  0x40\n    /* \"#utility.yul\":5185:5194   */\n  dup12\n    /* \"#utility.yul\":5181:5199   */\n  add\n    /* \"#utility.yul\":5175:5200   */\n  mload\n    /* \"#utility.yul\":5227:5245   */\n  0xffffffffffffffff\n    /* \"#utility.yul\":5219:5225   */\n  dup2\n    /* \"#utility.yul\":5216:5246   */\n  gt\n    /* \"#utility.yul\":5213:5215   */\n  iszero\n  tag_153\n  jumpi\n    /* \"#utility.yul\":5259:5260   */\n  0x00\n    /* \"#utility.yul\":5256:5257   */\n  dup1\n    /* \"#utility.yul\":5249:5261   */\n  revert\n    /* \"#utility.yul\":5213:5215   */\ntag_153:\n    /* \"#utility.yul\":5287:5376   */\n  tag_154\n    /* \"#utility.yul\":5368:5375   */\n  dup14\n    /* \"#utility.yul\":5359:5365   */\n  dup3\n    /* \"#utility.yul\":5348:5357   */\n  dup15\n    /* \"#utility.yul\":5344:5366   */\n  add\n    /* \"#utility.yul\":5287:5376   */\n  tag_122\n  jump\t// in\ntag_154:\n    /* \"#utility.yul\":5277:5376   */\n  swap9\n  pop\n    /* \"#utility.yul\":5146:5386   */\n  pop\n    /* \"#utility.yul\":5446:5448   */\n  0x60\n    /* \"#utility.yul\":5435:5444   */\n  dup12\n    /* \"#utility.yul\":5431:5449   */\n  add\n    /* \"#utility.yul\":5425:5450   */\n  mload\n    /* \"#utility.yul\":5477:5495   */\n  0xffffffffffffffff\n    /* \"#utility.yul\":5469:5475   */\n  dup2\n    /* \"#utility.yul\":5466:5496   */\n  gt\n    /* \"#utility.yul\":5463:5465   */\n  iszero\n  tag_155\n  jumpi\n    /* \"#utility.yul\":5509:5510   */\n  0x00\n    /* \"#utility.yul\":5506:5507   */\n  dup1\n    /* \"#utility.yul\":5499:5511   */\n  revert\n    /* \"#utility.yul\":5463:5465   */\ntag_155:\n    /* \"#utility.yul\":5537:5626   */\n  tag_156\n    /* \"#utility.yul\":5618:5625   */\n  dup14\n    /* \"#utility.yul\":5609:5615   */\n  dup3\n    /* \"#utility.yul\":5598:5607   */\n  dup15\n    /* \"#utility.yul\":5594:5616   */\n  add\n    /* \"#utility.yul\":5537:5626   */\n  tag_122\n  jump\t// in\ntag_156:\n    /* \"#utility.yul\":5527:5626   */\n  swap8\n  pop\n    /* \"#utility.yul\":5396:5636   */\n  pop\n    /* \"#utility.yul\":5696:5699   */\n  0x80\n    /* \"#utility.yul\":5685:5694   */\n  dup12\n    /* \"#utility.yul\":5681:5700   */\n  add\n    /* \"#utility.yul\":5675:5701   */\n  mload\n    /* \"#utility.yul\":5728:5746   */\n  0xffffffffffffffff\n    /* \"#utility.yul\":5720:5726   */\n  dup2\n    /* \"#utility.yul\":5717:5747   */\n  gt\n    /* \"#utility.yul\":5714:5716   */\n  iszero\n  tag_157\n  jumpi\n    /* \"#utility.yul\":5760:5761   */\n  0x00\n    /* \"#utility.yul\":5757:5758   */\n  dup1\n    /* \"#utility.yul\":5750:5762   */\n  revert\n    /* \"#utility.yul\":5714:5716   */\ntag_157:\n    /* \"#utility.yul\":5788:5877   */\n  tag_158\n    /* \"#utility.yul\":5869:5876   */\n  dup14\n    /* \"#utility.yul\":5860:5866   */\n  dup3\n    /* \"#utility.yul\":5849:5858   */\n  dup15\n    /* \"#utility.yul\":5845:5867   */\n  add\n    /* \"#utility.yul\":5788:5877   */\n  tag_130\n  jump\t// in\ntag_158:\n    /* \"#utility.yul\":5778:5877   */\n  swap7\n  pop\n    /* \"#utility.yul\":5646:5887   */\n  pop\n    /* \"#utility.yul\":5947:5950   */\n  0xa0\n    /* \"#utility.yul\":5936:5945   */\n  dup12\n    /* \"#utility.yul\":5932:5951   */\n  add\n    /* \"#utility.yul\":5926:5952   */\n  mload\n    /* \"#utility.yul\":5979:5997   */\n  0xffffffffffffffff\n    /* \"#utility.yul\":5971:5977   */\n  dup2\n    /* \"#utility.yul\":5968:5998   */\n  gt\n    /* \"#utility.yul\":5965:5967   */\n  iszero\n  tag_159\n  jumpi\n    /* \"#utility.yul\":6011:6012   */\n  0x00\n    /* \"#utility.yul\":6008:6009   */\n  dup1\n    /* \"#utility.yul\":6001:6013   */\n  revert\n    /* \"#utility.yul\":5965:5967   */\ntag_159:\n    /* \"#utility.yul\":6039:6127   */\n  tag_160\n    /* \"#utility.yul\":6119:6126   */\n  dup14\n    /* \"#utility.yul\":6110:6116   */\n  dup3\n    /* \"#utility.yul\":6099:6108   */\n  dup15\n    /* \"#utility.yul\":6095:6117   */\n  add\n    /* \"#utility.yul\":6039:6127   */\n  tag_126\n  jump\t// in\ntag_160:\n    /* \"#utility.yul\":6029:6127   */\n  swap6\n  pop\n    /* \"#utility.yul\":5897:6137   */\n  pop\n    /* \"#utility.yul\":6197:6200   */\n  0xc0\n    /* \"#utility.yul\":6186:6195   */\n  dup12\n    /* \"#utility.yul\":6182:6201   */\n  add\n    /* \"#utility.yul\":6176:6202   */\n  mload\n    /* \"#utility.yul\":6229:6247   */\n  0xffffffffffffffff\n    /* \"#utility.yul\":6221:6227   */\n  dup2\n    /* \"#utility.yul\":6218:6248   */\n  gt\n    /* \"#utility.yul\":6215:6217   */\n  iszero\n  tag_161\n  jumpi\n    /* \"#utility.yul\":6261:6262   */\n  0x00\n    /* \"#utility.yul\":6258:6259   */\n  dup1\n    /* \"#utility.yul\":6251:6263   */\n  revert\n    /* \"#utility.yul\":6215:6217   */\ntag_161:\n    /* \"#utility.yul\":6289:6378   */\n  tag_162\n    /* \"#utility.yul\":6370:6377   */\n  dup14\n    /* \"#utility.yul\":6361:6367   */\n  dup3\n    /* \"#utility.yul\":6350:6359   */\n  dup15\n    /* \"#utility.yul\":6346:6368   */\n  add\n    /* \"#utility.yul\":6289:6378   */\n  tag_122\n  jump\t// in\ntag_162:\n    /* \"#utility.yul\":6279:6378   */\n  swap5\n  pop\n    /* \"#utility.yul\":6147:6388   */\n  pop\n    /* \"#utility.yul\":6448:6451   */\n  0xe0\n    /* \"#utility.yul\":6437:6446   */\n  dup12\n    /* \"#utility.yul\":6433:6452   */\n  add\n    /* \"#utility.yul\":6427:6453   */\n  mload\n    /* \"#utility.yul\":6480:6498   */\n  0xffffffffffffffff\n    /* \"#utility.yul\":6472:6478   */\n  dup2\n    /* \"#utility.yul\":6469:6499   */\n  gt\n    /* \"#utility.yul\":6466:6468   */\n  iszero\n  tag_163\n  jumpi\n    /* \"#utility.yul\":6512:6513   */\n  0x00\n    /* \"#utility.yul\":6509:6510   */\n  dup1\n    /* \"#utility.yul\":6502:6514   */\n  revert\n    /* \"#utility.yul\":6466:6468   */\ntag_163:\n    /* \"#utility.yul\":6540:6614   */\n  tag_164\n    /* \"#utility.yul\":6606:6613   */\n  dup14\n    /* \"#utility.yul\":6597:6603   */\n  dup3\n    /* \"#utility.yul\":6586:6595   */\n  dup15\n    /* \"#utility.yul\":6582:6604   */\n  add\n    /* \"#utility.yul\":6540:6614   */\n  tag_137\n  jump\t// in\ntag_164:\n    /* \"#utility.yul\":6530:6614   */\n  swap4\n  pop\n    /* \"#utility.yul\":6398:6624   */\n  pop\n    /* \"#utility.yul\":6684:6687   */\n  0x0100\n    /* \"#utility.yul\":6673:6682   */\n  dup12\n    /* \"#utility.yul\":6669:6688   */\n  add\n    /* \"#utility.yul\":6663:6689   */\n  mload\n    /* \"#utility.yul\":6716:6734   */\n  0xffffffffffffffff\n    /* \"#utility.yul\":6708:6714   */\n  dup2\n    /* \"#utility.yul\":6705:6735   */\n  gt\n    /* \"#utility.yul\":6702:6704   */\n  iszero\n  tag_165\n  jumpi\n    /* \"#utility.yul\":6748:6749   */\n  0x00\n    /* \"#utility.yul\":6745:6746   */\n  dup1\n    /* \"#utility.yul\":6738:6750   */\n  revert\n    /* \"#utility.yul\":6702:6704   */\ntag_165:\n    /* \"#utility.yul\":6776:6850   */\n  tag_166\n    /* \"#utility.yul\":6842:6849   */\n  dup14\n    /* \"#utility.yul\":6833:6839   */\n  dup3\n    /* \"#utility.yul\":6822:6831   */\n  dup15\n    /* \"#utility.yul\":6818:6840   */\n  add\n    /* \"#utility.yul\":6776:6850   */\n  tag_137\n  jump\t// in\ntag_166:\n    /* \"#utility.yul\":6766:6850   */\n  swap3\n  pop\n    /* \"#utility.yul\":6634:6860   */\n  pop\n    /* \"#utility.yul\":6920:6923   */\n  0x0120\n    /* \"#utility.yul\":6909:6918   */\n  dup12\n    /* \"#utility.yul\":6905:6924   */\n  add\n    /* \"#utility.yul\":6899:6925   */\n  mload\n    /* \"#utility.yul\":6952:6970   */\n  0xffffffffffffffff\n    /* \"#utility.yul\":6944:6950   */\n  dup2\n    /* \"#utility.yul\":6941:6971   */\n  gt\n    /* \"#utility.yul\":6938:6940   */\n  iszero\n  tag_167\n  jumpi\n    /* \"#utility.yul\":6984:6985   */\n  0x00\n    /* \"#utility.yul\":6981:6982   */\n  dup1\n    /* \"#utility.yul\":6974:6986   */\n  revert\n    /* \"#utility.yul\":6938:6940   */\ntag_167:\n    /* \"#utility.yul\":7012:7086   */\n  tag_168\n    /* \"#utility.yul\":7078:7085   */\n  dup14\n    /* \"#utility.yul\":7069:7075   */\n  dup3\n    /* \"#utility.yul\":7058:7067   */\n  dup15\n    /* \"#utility.yul\":7054:7076   */\n  add\n    /* \"#utility.yul\":7012:7086   */\n  tag_137\n  jump\t// in\ntag_168:\n    /* \"#utility.yul\":7002:7086   */\n  swap2\n  pop\n    /* \"#utility.yul\":6870:7096   */\n  pop\n    /* \"#utility.yul\":4574:7103   */\n  swap3\n  swap6\n  swap9\n  swap12\n  swap2\n  swap5\n  swap8\n  swap11\n  pop\n  swap3\n  swap6\n  swap9\n  pop\n  jump\t// out\n    /* \"#utility.yul\":7109:7475   */\ntag_169:\n  0x00\n    /* \"#utility.yul\":7272:7339   */\n  tag_171\n    /* \"#utility.yul\":7336:7338   */\n  0x39\n    /* \"#utility.yul\":7331:7334   */\n  dup4\n    /* \"#utility.yul\":7272:7339   */\n  tag_172\n  jump\t// in\ntag_171:\n    /* \"#utility.yul\":7265:7339   */\n  swap2\n  pop\n    /* \"#utility.yul\":7348:7441   */\n  tag_173\n    /* \"#utility.yul\":7437:7440   */\n  dup3\n    /* \"#utility.yul\":7348:7441   */\n  tag_174\n  jump\t// in\ntag_173:\n    /* \"#utility.yul\":7466:7468   */\n  0x40\n    /* \"#utility.yul\":7461:7464   */\n  dup3\n    /* \"#utility.yul\":7457:7469   */\n  add\n    /* \"#utility.yul\":7450:7469   */\n  swap1\n  pop\n    /* \"#utility.yul\":7255:7475   */\n  swap2\n  swap1\n  pop\n  jump\t// out\n    /* \"#utility.yul\":7481:7847   */\ntag_175:\n  0x00\n    /* \"#utility.yul\":7644:7711   */\n  tag_177\n    /* \"#utility.yul\":7708:7710   */\n  0x4a\n    /* \"#utility.yul\":7703:7706   */\n  dup4\n    /* \"#utility.yul\":7644:7711   */\n  tag_172\n  jump\t// in\ntag_177:\n    /* \"#utility.yul\":7637:7711   */\n  swap2\n  pop\n    /* \"#utility.yul\":7720:7813   */\n  tag_178\n    /* \"#utility.yul\":7809:7812   */\n  dup3\n    /* \"#utility.yul\":7720:7813   */\n  tag_179\n  jump\t// in\ntag_178:\n    /* \"#utility.yul\":7838:7840   */\n  0x60\n    /* \"#utility.yul\":7833:7836   */\n  dup3\n    /* \"#utility.yul\":7829:7841   */\n  add\n    /* \"#utility.yul\":7822:7841   */\n  swap1\n  pop\n    /* \"#utility.yul\":7627:7847   */\n  swap2\n  swap1\n  pop\n  jump\t// out\n    /* \"#utility.yul\":7853:8219   */\ntag_180:\n  0x00\n    /* \"#utility.yul\":8016:8083   */\n  tag_182\n    /* \"#utility.yul\":8080:8082   */\n  0x24\n    /* \"#utility.yul\":8075:8078   */\n  dup4\n    /* \"#utility.yul\":8016:8083   */\n  tag_172\n  jump\t// in\ntag_182:\n    /* \"#utility.yul\":8009:8083   */\n  swap2\n  pop\n    /* \"#utility.yul\":8092:8185   */\n  tag_183\n    /* \"#utility.yul\":8181:8184   */\n  dup3\n    /* \"#utility.yul\":8092:8185   */\n  tag_184\n  jump\t// in\ntag_183:\n    /* \"#utility.yul\":8210:8212   */\n  0x40\n    /* \"#utility.yul\":8205:8208   */\n  dup3\n    /* \"#utility.yul\":8201:8213   */\n  add\n    /* \"#utility.yul\":8194:8213   */\n  swap1\n  pop\n    /* \"#utility.yul\":7999:8219   */\n  swap2\n  swap1\n  pop\n  jump\t// out\n    /* \"#utility.yul\":8225:8591   */\ntag_185:\n  0x00\n    /* \"#utility.yul\":8388:8455   */\n  tag_187\n    /* \"#utility.yul\":8452:8454   */\n  0x30\n    /* \"#utility.yul\":8447:8450   */\n  dup4\n    /* \"#utility.yul\":8388:8455   */\n  tag_172\n  jump\t// in\ntag_187:\n    /* \"#utility.yul\":8381:8455   */\n  swap2\n  pop\n    /* \"#utility.yul\":8464:8557   */\n  tag_188\n    /* \"#utility.yul\":8553:8556   */\n  dup3\n    /* \"#utility.yul\":8464:8557   */\n  tag_189\n  jump\t// in\ntag_188:\n    /* \"#utility.yul\":8582:8584   */\n  0x40\n    /* \"#utility.yul\":8577:8580   */\n  dup3\n    /* \"#utility.yul\":8573:8585   */\n  add\n    /* \"#utility.yul\":8566:8585   */\n  swap1\n  pop\n    /* \"#utility.yul\":8371:8591   */\n  swap2\n  swap1\n  pop\n  jump\t// out\n    /* \"#utility.yul\":8597:8963   */\ntag_190:\n  0x00\n    /* \"#utility.yul\":8760:8827   */\n  tag_192\n    /* \"#utility.yul\":8824:8826   */\n  0x40\n    /* \"#utility.yul\":8819:8822   */\n  dup4\n    /* \"#utility.yul\":8760:8827   */\n  tag_172\n  jump\t// in\ntag_192:\n    /* \"#utility.yul\":8753:8827   */\n  swap2\n  pop\n    /* \"#utility.yul\":8836:8929   */\n  tag_193\n    /* \"#utility.yul\":8925:8928   */\n  dup3\n    /* \"#utility.yul\":8836:8929   */\n  tag_194\n  jump\t// in\ntag_193:\n    /* \"#utility.yul\":8954:8956   */\n  0x40\n    /* \"#utility.yul\":8949:8952   */\n  dup3\n    /* \"#utility.yul\":8945:8957   */\n  add\n    /* \"#utility.yul\":8938:8957   */\n  swap1\n  pop\n    /* \"#utility.yul\":8743:8963   */\n  swap2\n  swap1\n  pop\n  jump\t// out\n    /* \"#utility.yul\":8969:9388   */\ntag_53:\n  0x00\n    /* \"#utility.yul\":9173:9175   */\n  0x20\n    /* \"#utility.yul\":9162:9171   */\n  dup3\n    /* \"#utility.yul\":9158:9176   */\n  add\n    /* \"#utility.yul\":9150:9176   */\n  swap1\n  pop\n    /* \"#utility.yul\":9222:9231   */\n  dup2\n    /* \"#utility.yul\":9216:9220   */\n  dup2\n    /* \"#utility.yul\":9212:9232   */\n  sub\n    /* \"#utility.yul\":9208:9209   */\n  0x00\n    /* \"#utility.yul\":9197:9206   */\n  dup4\n    /* \"#utility.yul\":9193:9210   */\n  add\n    /* \"#utility.yul\":9186:9233   */\n  mstore\n    /* \"#utility.yul\":9250:9381   */\n  tag_196\n    /* \"#utility.yul\":9376:9380   */\n  dup2\n    /* \"#utility.yul\":9250:9381   */\n  tag_169\n  jump\t// in\ntag_196:\n    /* \"#utility.yul\":9242:9381   */\n  swap1\n  pop\n    /* \"#utility.yul\":9140:9388   */\n  swap2\n  swap1\n  pop\n  jump\t// out\n    /* \"#utility.yul\":9394:9813   */\ntag_21:\n  0x00\n    /* \"#utility.yul\":9598:9600   */\n  0x20\n    /* \"#utility.yul\":9587:9596   */\n  dup3\n    /* \"#utility.yul\":9583:9601   */\n  add\n    /* \"#utility.yul\":9575:9601   */\n  swap1\n  pop\n    /* \"#utility.yul\":9647:9656   */\n  dup2\n    /* \"#utility.yul\":9641:9645   */\n  dup2\n    /* \"#utility.yul\":9637:9657   */\n  sub\n    /* \"#utility.yul\":9633:9634   */\n  0x00\n    /* \"#utility.yul\":9622:9631   */\n  dup4\n    /* \"#utility.yul\":9618:9635   */\n  add\n    /* \"#utility.yul\":9611:9658   */\n  mstore\n    /* \"#utility.yul\":9675:9806   */\n  tag_198\n    /* \"#utility.yul\":9801:9805   */\n  dup2\n    /* \"#utility.yul\":9675:9806   */\n  tag_175\n  jump\t// in\ntag_198:\n    /* \"#utility.yul\":9667:9806   */\n  swap1\n  pop\n    /* \"#utility.yul\":9565:9813   */\n  swap2\n  swap1\n  pop\n  jump\t// out\n    /* \"#utility.yul\":9819:10238   */\ntag_39:\n  0x00\n    /* \"#utility.yul\":10023:10025   */\n  0x20\n    /* \"#utility.yul\":10012:10021   */\n  dup3\n    /* \"#utility.yul\":10008:10026   */\n  add\n    /* \"#utility.yul\":10000:10026   */\n  swap1\n  pop\n    /* \"#utility.yul\":10072:10081   */\n  dup2\n    /* \"#utility.yul\":10066:10070   */\n  dup2\n    /* \"#utility.yul\":10062:10082   */\n  sub\n    /* \"#utility.yul\":10058:10059   */\n  0x00\n    /* \"#utility.yul\":10047:10056   */\n  dup4\n    /* \"#utility.yul\":10043:10060   */\n  add\n    /* \"#utility.yul\":10036:10083   */\n  mstore\n    /* \"#utility.yul\":10100:10231   */\n  tag_200\n    /* \"#utility.yul\":10226:10230   */\n  dup2\n    /* \"#utility.yul\":10100:10231   */\n  tag_180\n  jump\t// in\ntag_200:\n    /* \"#utility.yul\":10092:10231   */\n  swap1\n  pop\n    /* \"#utility.yul\":9990:10238   */\n  swap2\n  swap1\n  pop\n  jump\t// out\n    /* \"#utility.yul\":10244:10663   */\ntag_31:\n  0x00\n    /* \"#utility.yul\":10448:10450   */\n  0x20\n    /* \"#utility.yul\":10437:10446   */\n  dup3\n    /* \"#utility.yul\":10433:10451   */\n  add\n    /* \"#utility.yul\":10425:10451   */\n  swap1\n  pop\n    /* \"#utility.yul\":10497:10506   */\n  dup2\n    /* \"#utility.yul\":10491:10495   */\n  dup2\n    /* \"#utility.yul\":10487:10507   */\n  sub\n    /* \"#utility.yul\":10483:10484   */\n  0x00\n    /* \"#utility.yul\":10472:10481   */\n  dup4\n    /* \"#utility.yul\":10468:10485   */\n  add\n    /* \"#utility.yul\":10461:10508   */\n  mstore\n    /* \"#utility.yul\":10525:10656   */\n  tag_202\n    /* \"#utility.yul\":10651:10655   */\n  dup2\n    /* \"#utility.yul\":10525:10656   */\n  tag_185\n  jump\t// in\ntag_202:\n    /* \"#utility.yul\":10517:10656   */\n  swap1\n  pop\n    /* \"#utility.yul\":10415:10663   */\n  swap2\n  swap1\n  pop\n  jump\t// out\n    /* \"#utility.yul\":10669:11088   */\ntag_26:\n  0x00\n    /* \"#utility.yul\":10873:10875   */\n  0x20\n    /* \"#utility.yul\":10862:10871   */\n  dup3\n    /* \"#utility.yul\":10858:10876   */\n  add\n    /* \"#utility.yul\":10850:10876   */\n  swap1\n  pop\n    /* \"#utility.yul\":10922:10931   */\n  dup2\n    /* \"#utility.yul\":10916:10920   */\n  dup2\n    /* \"#utility.yul\":10912:10932   */\n  sub\n    /* \"#utility.yul\":10908:10909   */\n  0x00\n    /* \"#utility.yul\":10897:10906   */\n  dup4\n    /* \"#utility.yul\":10893:10910   */\n  add\n    /* \"#utility.yul\":10886:10933   */\n  mstore\n    /* \"#utility.yul\":10950:11081   */\n  tag_204\n    /* \"#utility.yul\":11076:11080   */\n  dup2\n    /* \"#utility.yul\":10950:11081   */\n  tag_190\n  jump\t// in\ntag_204:\n    /* \"#utility.yul\":10942:11081   */\n  swap1\n  pop\n    /* \"#utility.yul\":10840:11088   */\n  swap2\n  swap1\n  pop\n  jump\t// out\n    /* \"#utility.yul\":11094:11223   */\ntag_85:\n  0x00\n    /* \"#utility.yul\":11155:11175   */\n  tag_206\n  tag_207\n  jump\t// in\ntag_206:\n    /* \"#utility.yul\":11145:11175   */\n  swap1\n  pop\n    /* \"#utility.yul\":11184:11217   */\n  tag_208\n    /* \"#utility.yul\":11212:11216   */\n  dup3\n    /* \"#utility.yul\":11204:11210   */\n  dup3\n    /* \"#utility.yul\":11184:11217   */\n  tag_209\n  jump\t// in\ntag_208:\n    /* \"#utility.yul\":11135:11223   */\n  swap2\n  swap1\n  pop\n  jump\t// out\n    /* \"#utility.yul\":11229:11304   */\ntag_207:\n  0x00\n    /* \"#utility.yul\":11295:11297   */\n  0x40\n    /* \"#utility.yul\":11289:11298   */\n  mload\n    /* \"#utility.yul\":11279:11298   */\n  swap1\n  pop\n    /* \"#utility.yul\":11269:11304   */\n  swap1\n  jump\t// out\n    /* \"#utility.yul\":11310:11621   */\ntag_84:\n  0x00\n    /* \"#utility.yul\":11477:11495   */\n  0xffffffffffffffff\n    /* \"#utility.yul\":11469:11475   */\n  dup3\n    /* \"#utility.yul\":11466:11496   */\n  gt\n    /* \"#utility.yul\":11463:11465   */\n  iszero\n  tag_212\n  jumpi\n    /* \"#utility.yul\":11499:11517   */\n  tag_213\n  tag_214\n  jump\t// in\ntag_213:\n    /* \"#utility.yul\":11463:11465   */\ntag_212:\n    /* \"#utility.yul\":11549:11553   */\n  0x20\n    /* \"#utility.yul\":11541:11547   */\n  dup3\n    /* \"#utility.yul\":11537:11554   */\n  mul\n    /* \"#utility.yul\":11529:11554   */\n  swap1\n  pop\n    /* \"#utility.yul\":11609:11613   */\n  0x20\n    /* \"#utility.yul\":11603:11607   */\n  dup2\n    /* \"#utility.yul\":11599:11614   */\n  add\n    /* \"#utility.yul\":11591:11614   */\n  swap1\n  pop\n    /* \"#utility.yul\":11392:11621   */\n  swap2\n  swap1\n  pop\n  jump\t// out\n    /* \"#utility.yul\":11627:11937   */\ntag_96:\n  0x00\n    /* \"#utility.yul\":11793:11811   */\n  0xffffffffffffffff\n    /* \"#utility.yul\":11785:11791   */\n  dup3\n    /* \"#utility.yul\":11782:11812   */\n  gt\n    /* \"#utility.yul\":11779:11781   */\n  iszero\n  tag_216\n  jumpi\n    /* \"#utility.yul\":11815:11833   */\n  tag_217\n  tag_214\n  jump\t// in\ntag_217:\n    /* \"#utility.yul\":11779:11781   */\ntag_216:\n    /* \"#utility.yul\":11865:11869   */\n  0x20\n    /* \"#utility.yul\":11857:11863   */\n  dup3\n    /* \"#utility.yul\":11853:11870   */\n  mul\n    /* \"#utility.yul\":11845:11870   */\n  swap1\n  pop\n    /* \"#utility.yul\":11925:11929   */\n  0x20\n    /* \"#utility.yul\":11919:11923   */\n  dup2\n    /* \"#utility.yul\":11915:11930   */\n  add\n    /* \"#utility.yul\":11907:11930   */\n  swap1\n  pop\n    /* \"#utility.yul\":11708:11937   */\n  swap2\n  swap1\n  pop\n  jump\t// out\n    /* \"#utility.yul\":11943:12254   */\ntag_107:\n  0x00\n    /* \"#utility.yul\":12110:12128   */\n  0xffffffffffffffff\n    /* \"#utility.yul\":12102:12108   */\n  dup3\n    /* \"#utility.yul\":12099:12129   */\n  gt\n    /* \"#utility.yul\":12096:12098   */\n  iszero\n  tag_219\n  jumpi\n    /* \"#utility.yul\":12132:12150   */\n  tag_220\n  tag_214\n  jump\t// in\ntag_220:\n    /* \"#utility.yul\":12096:12098   */\ntag_219:\n    /* \"#utility.yul\":12182:12186   */\n  0x20\n    /* \"#utility.yul\":12174:12180   */\n  dup3\n    /* \"#utility.yul\":12170:12187   */\n  mul\n    /* \"#utility.yul\":12162:12187   */\n  swap1\n  pop\n    /* \"#utility.yul\":12242:12246   */\n  0x20\n    /* \"#utility.yul\":12236:12240   */\n  dup2\n    /* \"#utility.yul\":12232:12247   */\n  add\n    /* \"#utility.yul\":12224:12247   */\n  swap1\n  pop\n    /* \"#utility.yul\":12025:12254   */\n  swap2\n  swap1\n  pop\n  jump\t// out\n    /* \"#utility.yul\":12260:12568   */\ntag_118:\n  0x00\n    /* \"#utility.yul\":12412:12430   */\n  0xffffffffffffffff\n    /* \"#utility.yul\":12404:12410   */\n  dup3\n    /* \"#utility.yul\":12401:12431   */\n  gt\n    /* \"#utility.yul\":12398:12400   */\n  iszero\n  tag_222\n  jumpi\n    /* \"#utility.yul\":12434:12452   */\n  tag_223\n  tag_214\n  jump\t// in\ntag_223:\n    /* \"#utility.yul\":12398:12400   */\ntag_222:\n    /* \"#utility.yul\":12472:12501   */\n  tag_224\n    /* \"#utility.yul\":12494:12500   */\n  dup3\n    /* \"#utility.yul\":12472:12501   */\n  tag_225\n  jump\t// in\ntag_224:\n    /* \"#utility.yul\":12464:12501   */\n  swap1\n  pop\n    /* \"#utility.yul\":12556:12560   */\n  0x20\n    /* \"#utility.yul\":12550:12554   */\n  dup2\n    /* \"#utility.yul\":12546:12561   */\n  add\n    /* \"#utility.yul\":12538:12561   */\n  swap1\n  pop\n    /* \"#utility.yul\":12327:12568   */\n  swap2\n  swap1\n  pop\n  jump\t// out\n    /* \"#utility.yul\":12574:12743   */\ntag_172:\n  0x00\n    /* \"#utility.yul\":12692:12698   */\n  dup3\n    /* \"#utility.yul\":12687:12690   */\n  dup3\n    /* \"#utility.yul\":12680:12699   */\n  mstore\n    /* \"#utility.yul\":12732:12736   */\n  0x20\n    /* \"#utility.yul\":12727:12730   */\n  dup3\n    /* \"#utility.yul\":12723:12737   */\n  add\n    /* \"#utility.yul\":12708:12737   */\n  swap1\n  pop\n    /* \"#utility.yul\":12670:12743   */\n  swap3\n  swap2\n  pop\n  pop\n  jump\t// out\n    /* \"#utility.yul\":12749:12940   */\ntag_49:\n  0x00\n    /* \"#utility.yul\":12809:12829   */\n  tag_228\n    /* \"#utility.yul\":12827:12828   */\n  dup3\n    /* \"#utility.yul\":12809:12829   */\n  tag_229\n  jump\t// in\ntag_228:\n    /* \"#utility.yul\":12804:12829   */\n  swap2\n  pop\n    /* \"#utility.yul\":12843:12863   */\n  tag_230\n    /* \"#utility.yul\":12861:12862   */\n  dup4\n    /* \"#utility.yul\":12843:12863   */\n  tag_229\n  jump\t// in\ntag_230:\n    /* \"#utility.yul\":12838:12863   */\n  swap3\n  pop\n    /* \"#utility.yul\":12882:12883   */\n  dup3\n    /* \"#utility.yul\":12879:12880   */\n  dup3\n    /* \"#utility.yul\":12876:12884   */\n  lt\n    /* \"#utility.yul\":12873:12875   */\n  iszero\n  tag_231\n  jumpi\n    /* \"#utility.yul\":12887:12905   */\n  tag_232\n  tag_233\n  jump\t// in\ntag_232:\n    /* \"#utility.yul\":12873:12875   */\ntag_231:\n    /* \"#utility.yul\":12932:12933   */\n  dup3\n    /* \"#utility.yul\":12929:12930   */\n  dup3\n    /* \"#utility.yul\":12925:12934   */\n  sub\n    /* \"#utility.yul\":12917:12934   */\n  swap1\n  pop\n    /* \"#utility.yul\":12794:12940   */\n  swap3\n  swap2\n  pop\n  pop\n  jump\t// out\n    /* \"#utility.yul\":12946:13023   */\ntag_234:\n  0x00\n    /* \"#utility.yul\":13012:13017   */\n  dup2\n    /* \"#utility.yul\":13001:13017   */\n  swap1\n  pop\n    /* \"#utility.yul\":12991:13023   */\n  swap2\n  swap1\n  pop\n  jump\t// out\n    /* \"#utility.yul\":13029:13118   */\ntag_236:\n  0x00\n    /* \"#utility.yul\":13105:13111   */\n  0xffff\n    /* \"#utility.yul\":13098:13103   */\n  dup3\n    /* \"#utility.yul\":13094:13112   */\n  and\n    /* \"#utility.yul\":13083:13112   */\n  swap1\n  pop\n    /* \"#utility.yul\":13073:13118   */\n  swap2\n  swap1\n  pop\n  jump\t// out\n    /* \"#utility.yul\":13124:13201   */\ntag_229:\n  0x00\n    /* \"#utility.yul\":13190:13195   */\n  dup2\n    /* \"#utility.yul\":13179:13195   */\n  swap1\n  pop\n    /* \"#utility.yul\":13169:13201   */\n  swap2\n  swap1\n  pop\n  jump\t// out\n    /* \"#utility.yul\":13207:13514   */\ntag_121:\n    /* \"#utility.yul\":13275:13276   */\n  0x00\n    /* \"#utility.yul\":13285:13398   */\ntag_240:\n    /* \"#utility.yul\":13299:13305   */\n  dup4\n    /* \"#utility.yul\":13296:13297   */\n  dup2\n    /* \"#utility.yul\":13293:13306   */\n  lt\n    /* \"#utility.yul\":13285:13398   */\n  iszero\n  tag_242\n  jumpi\n    /* \"#utility.yul\":13384:13385   */\n  dup1\n    /* \"#utility.yul\":13379:13382   */\n  dup3\n    /* \"#utility.yul\":13375:13386   */\n  add\n    /* \"#utility.yul\":13369:13387   */\n  mload\n    /* \"#utility.yul\":13365:13366   */\n  dup2\n    /* \"#utility.yul\":13360:13363   */\n  dup5\n    /* \"#utility.yul\":13356:13367   */\n  add\n    /* \"#utility.yul\":13349:13388   */\n  mstore\n    /* \"#utility.yul\":13321:13323   */\n  0x20\n    /* \"#utility.yul\":13318:13319   */\n  dup2\n    /* \"#utility.yul\":13314:13324   */\n  add\n    /* \"#utility.yul\":13309:13324   */\n  swap1\n  pop\n    /* \"#utility.yul\":13285:13398   */\n  jump(tag_240)\ntag_242:\n    /* \"#utility.yul\":13416:13422   */\n  dup4\n    /* \"#utility.yul\":13413:13414   */\n  dup2\n    /* \"#utility.yul\":13410:13423   */\n  gt\n    /* \"#utility.yul\":13407:13409   */\n  iszero\n  tag_243\n  jumpi\n    /* \"#utility.yul\":13496:13497   */\n  0x00\n    /* \"#utility.yul\":13487:13493   */\n  dup5\n    /* \"#utility.yul\":13482:13485   */\n  dup5\n    /* \"#utility.yul\":13478:13494   */\n  add\n    /* \"#utility.yul\":13471:13498   */\n  mstore\n    /* \"#utility.yul\":13407:13409   */\ntag_243:\n    /* \"#utility.yul\":13256:13514   */\n  pop\n  pop\n  pop\n  pop\n  jump\t// out\n    /* \"#utility.yul\":13520:13840   */\ntag_62:\n  0x00\n    /* \"#utility.yul\":13601:13602   */\n  0x02\n    /* \"#utility.yul\":13595:13599   */\n  dup3\n    /* \"#utility.yul\":13591:13603   */\n  div\n    /* \"#utility.yul\":13581:13603   */\n  swap1\n  pop\n    /* \"#utility.yul\":13648:13649   */\n  0x01\n    /* \"#utility.yul\":13642:13646   */\n  dup3\n    /* \"#utility.yul\":13638:13650   */\n  and\n    /* \"#utility.yul\":13669:13687   */\n  dup1\n    /* \"#utility.yul\":13659:13661   */\n  tag_245\n  jumpi\n    /* \"#utility.yul\":13725:13729   */\n  0x7f\n    /* \"#utility.yul\":13717:13723   */\n  dup3\n    /* \"#utility.yul\":13713:13730   */\n  and\n    /* \"#utility.yul\":13703:13730   */\n  swap2\n  pop\n    /* \"#utility.yul\":13659:13661   */\ntag_245:\n    /* \"#utility.yul\":13787:13789   */\n  0x20\n    /* \"#utility.yul\":13779:13785   */\n  dup3\n    /* \"#utility.yul\":13776:13790   */\n  lt\n    /* \"#utility.yul\":13756:13774   */\n  dup2\n    /* \"#utility.yul\":13753:13791   */\n  eq\n    /* \"#utility.yul\":13750:13752   */\n  iszero\n  tag_246\n  jumpi\n    /* \"#utility.yul\":13806:13824   */\n  tag_247\n  tag_248\n  jump\t// in\ntag_247:\n    /* \"#utility.yul\":13750:13752   */\ntag_246:\n    /* \"#utility.yul\":13571:13840   */\n  pop\n  swap2\n  swap1\n  pop\n  jump\t// out\n    /* \"#utility.yul\":13846:14127   */\ntag_209:\n    /* \"#utility.yul\":13929:13956   */\n  tag_250\n    /* \"#utility.yul\":13951:13955   */\n  dup3\n    /* \"#utility.yul\":13929:13956   */\n  tag_225\n  jump\t// in\ntag_250:\n    /* \"#utility.yul\":13921:13927   */\n  dup2\n    /* \"#utility.yul\":13917:13957   */\n  add\n    /* \"#utility.yul\":14059:14065   */\n  dup2\n    /* \"#utility.yul\":14047:14057   */\n  dup2\n    /* \"#utility.yul\":14044:14066   */\n  lt\n    /* \"#utility.yul\":14023:14041   */\n  0xffffffffffffffff\n    /* \"#utility.yul\":14011:14021   */\n  dup3\n    /* \"#utility.yul\":14008:14042   */\n  gt\n    /* \"#utility.yul\":14005:14067   */\n  or\n    /* \"#utility.yul\":14002:14004   */\n  iszero\n  tag_251\n  jumpi\n    /* \"#utility.yul\":14070:14088   */\n  tag_252\n  tag_214\n  jump\t// in\ntag_252:\n    /* \"#utility.yul\":14002:14004   */\ntag_251:\n    /* \"#utility.yul\":14110:14120   */\n  dup1\n    /* \"#utility.yul\":14106:14108   */\n  0x40\n    /* \"#utility.yul\":14099:14121   */\n  mstore\n    /* \"#utility.yul\":13889:14127   */\n  pop\n  pop\n  pop\n  jump\t// out\n    /* \"#utility.yul\":14133:14366   */\ntag_59:\n  0x00\n    /* \"#utility.yul\":14195:14219   */\n  tag_254\n    /* \"#utility.yul\":14213:14218   */\n  dup3\n    /* \"#utility.yul\":14195:14219   */\n  tag_229\n  jump\t// in\ntag_254:\n    /* \"#utility.yul\":14186:14219   */\n  swap2\n  pop\n    /* \"#utility.yul\":14241:14307   */\n  0xffffffffffffffffffffffffffffffffffffffffffffffffffffffffffffffff\n    /* \"#utility.yul\":14234:14239   */\n  dup3\n    /* \"#utility.yul\":14231:14308   */\n  eq\n    /* \"#utility.yul\":14228:14230   */\n  iszero\n  tag_255\n  jumpi\n    /* \"#utility.yul\":14311:14329   */\n  tag_256\n  tag_233\n  jump\t// in\ntag_256:\n    /* \"#utility.yul\":14228:14230   */\ntag_255:\n    /* \"#utility.yul\":14358:14359   */\n  0x01\n    /* \"#utility.yul\":14351:14356   */\n  dup3\n    /* \"#utility.yul\":14347:14360   */\n  add\n    /* \"#utility.yul\":14340:14360   */\n  swap1\n  pop\n    /* \"#utility.yul\":14176:14366   */\n  swap2\n  swap1\n  pop\n  jump\t// out\n    /* \"#utility.yul\":14372:14552   */\ntag_233:\n    /* \"#utility.yul\":14420:14497   */\n  0x4e487b7100000000000000000000000000000000000000000000000000000000\n    /* \"#utility.yul\":14417:14418   */\n  0x00\n    /* \"#utility.yul\":14410:14498   */\n  mstore\n    /* \"#utility.yul\":14517:14521   */\n  0x11\n    /* \"#utility.yul\":14514:14515   */\n  0x04\n    /* \"#utility.yul\":14507:14522   */\n  mstore\n    /* \"#utility.yul\":14541:14545   */\n  0x24\n    /* \"#utility.yul\":14538:14539   */\n  0x00\n    /* \"#utility.yul\":14531:14546   */\n  revert\n    /* \"#utility.yul\":14558:14738   */\ntag_248:\n    /* \"#utility.yul\":14606:14683   */\n  0x4e487b7100000000000000000000000000000000000000000000000000000000\n    /* \"#utility.yul\":14603:14604   */\n  0x00\n    /* \"#utility.yul\":14596:14684   */\n  mstore\n    /* \"#utility.yul\":14703:14707   */\n  0x22\n    /* \"#utility.yul\":14700:14701   */\n  0x04\n    /* \"#utility.yul\":14693:14708   */\n  mstore\n    /* \"#utility.yul\":14727:14731   */\n  0x24\n    /* \"#utility.yul\":14724:14725   */\n  0x00\n    /* \"#utility.yul\":14717:14732   */\n  revert\n    /* \"#utility.yul\":14744:14924   */\ntag_214:\n    /* \"#utility.yul\":14792:14869   */\n  0x4e487b7100000000000000000000000000000000000000000000000000000000\n    /* \"#utility.yul\":14789:14790   */\n  0x00\n    /* \"#utility.yul\":14782:14870   */\n  mstore\n    /* \"#utility.yul\":14889:14893   */\n  0x41\n    /* \"#utility.yul\":14886:14887   */\n  0x04\n    /* \"#utility.yul\":14879:14894   */\n  mstore\n    /* \"#utility.yul\":14913:14917   */\n  0x24\n    /* \"#utility.yul\":14910:14911   */\n  0x00\n    /* \"#utility.yul\":14903:14918   */\n  revert\n    /* \"#utility.yul\":14930:15032   */\ntag_225:\n  0x00\n    /* \"#utility.yul\":15022:15024   */\n  0x1f\n    /* \"#utility.yul\":15018:15025   */\n  not\n    /* \"#utility.yul\":15013:15015   */\n  0x1f\n    /* \"#utility.yul\":15006:15011   */\n  dup4\n    /* \"#utility.yul\":15002:15016   */\n  add\n    /* \"#utility.yul\":14998:15026   */\n  and\n    /* \"#utility.yul\":14988:15026   */\n  swap1\n  pop\n    /* \"#utility.yul\":14978:15032   */\n  swap2\n  swap1\n  pop\n  jump\t// out\n    /* \"#utility.yul\":15038:15282   */\ntag_174:\n    /* \"#utility.yul\":15178:15212   */\n  0x436865636b20746861742070726576696f75732050435220686173206265656e\n    /* \"#utility.yul\":15174:15175   */\n  0x00\n    /* \"#utility.yul\":15166:15172   */\n  dup3\n    /* \"#utility.yul\":15162:15176   */\n  add\n    /* \"#utility.yul\":15155:15213   */\n  mstore\n    /* \"#utility.yul\":15247:15274   */\n  0x206e6f206d6f7265207468616e203320646179732061676f2e00000000000000\n    /* \"#utility.yul\":15242:15244   */\n  0x20\n    /* \"#utility.yul\":15234:15240   */\n  dup3\n    /* \"#utility.yul\":15230:15245   */\n  add\n    /* \"#utility.yul\":15223:15275   */\n  mstore\n    /* \"#utility.yul\":15144:15282   */\n  pop\n  jump\t// out\n    /* \"#utility.yul\":15288:15586   */\ntag_179:\n    /* \"#utility.yul\":15428:15462   */\n  0x596f75206861766520746f2070726f766964652074686520616d6f756e74206f\n    /* \"#utility.yul\":15424:15425   */\n  0x00\n    /* \"#utility.yul\":15416:15422   */\n  dup3\n    /* \"#utility.yul\":15412:15426   */\n  add\n    /* \"#utility.yul\":15405:15463   */\n  mstore\n    /* \"#utility.yul\":15497:15531   */\n  0x662064617920636f6d70656e736174696f6e20616e6420746865206e756d6265\n    /* \"#utility.yul\":15492:15494   */\n  0x20\n    /* \"#utility.yul\":15484:15490   */\n  dup3\n    /* \"#utility.yul\":15480:15495   */\n  add\n    /* \"#utility.yul\":15473:15532   */\n  mstore\n    /* \"#utility.yul\":15566:15578   */\n  0x72206f6620646179732e00000000000000000000000000000000000000000000\n    /* \"#utility.yul\":15561:15563   */\n  0x40\n    /* \"#utility.yul\":15553:15559   */\n  dup3\n    /* \"#utility.yul\":15549:15564   */\n  add\n    /* \"#utility.yul\":15542:15579   */\n  mstore\n    /* \"#utility.yul\":15394:15586   */\n  pop\n  jump\t// out\n    /* \"#utility.yul\":15592:15815   */\ntag_184:\n    /* \"#utility.yul\":15732:15766   */\n  0x4d7573742070726f7669646520506f6c69637920494420616e642054616b6572\n    /* \"#utility.yul\":15728:15729   */\n  0x00\n    /* \"#utility.yul\":15720:15726   */\n  dup3\n    /* \"#utility.yul\":15716:15730   */\n  add\n    /* \"#utility.yul\":15709:15767   */\n  mstore\n    /* \"#utility.yul\":15801:15807   */\n  0x2049442e00000000000000000000000000000000000000000000000000000000\n    /* \"#utility.yul\":15796:15798   */\n  0x20\n    /* \"#utility.yul\":15788:15794   */\n  dup3\n    /* \"#utility.yul\":15784:15799   */\n  add\n    /* \"#utility.yul\":15777:15808   */\n  mstore\n    /* \"#utility.yul\":15698:15815   */\n  pop\n  jump\t// out\n    /* \"#utility.yul\":15821:16056   */\ntag_189:\n    /* \"#utility.yul\":15961:15995   */\n  0x54686520737461727420646174652068617320746f206265206265666f726520\n    /* \"#utility.yul\":15957:15958   */\n  0x00\n    /* \"#utility.yul\":15949:15955   */\n  dup3\n    /* \"#utility.yul\":15945:15959   */\n  add\n    /* \"#utility.yul\":15938:15996   */\n  mstore\n    /* \"#utility.yul\":16030:16048   */\n  0x7468652066696e69736820646174652e00000000000000000000000000000000\n    /* \"#utility.yul\":16025:16027   */\n  0x20\n    /* \"#utility.yul\":16017:16023   */\n  dup3\n    /* \"#utility.yul\":16013:16028   */\n  add\n    /* \"#utility.yul\":16006:16049   */\n  mstore\n    /* \"#utility.yul\":15927:16056   */\n  pop\n  jump\t// out\n    /* \"#utility.yul\":16062:16313   */\ntag_194:\n    /* \"#utility.yul\":16202:16236   */\n  0x54686520506f6c696379206e656564206120737461727420646174652c206120\n    /* \"#utility.yul\":16198:16199   */\n  0x00\n    /* \"#utility.yul\":16190:16196   */\n  dup3\n    /* \"#utility.yul\":16186:16200   */\n  add\n    /* \"#utility.yul\":16179:16237   */\n  mstore\n    /* \"#utility.yul\":16271:16305   */\n  0x66696e697368206461746520616e64206120636f6e747261637420646174652e\n    /* \"#utility.yul\":16266:16268   */\n  0x20\n    /* \"#utility.yul\":16258:16264   */\n  dup3\n    /* \"#utility.yul\":16254:16269   */\n  add\n    /* \"#utility.yul\":16247:16306   */\n  mstore\n    /* \"#utility.yul\":16168:16313   */\n  pop\n  jump\t// out\n    /* \"#utility.yul\":16319:16441   */\ntag_136:\n    /* \"#utility.yul\":16392:16416   */\n  tag_267\n    /* \"#utility.yul\":16410:16415   */\n  dup2\n    /* \"#utility.yul\":16392:16416   */\n  tag_234\n  jump\t// in\ntag_267:\n    /* \"#utility.yul\":16385:16390   */\n  dup2\n    /* \"#utility.yul\":16382:16417   */\n  eq\n    /* \"#utility.yul\":16372:16374   */\n  tag_268\n  jumpi\n    /* \"#utility.yul\":16431:16432   */\n  0x00\n    /* \"#utility.yul\":16428:16429   */\n  dup1\n    /* \"#utility.yul\":16421:16433   */\n  revert\n    /* \"#utility.yul\":16372:16374   */\ntag_268:\n    /* \"#utility.yul\":16362:16441   */\n  pop\n  jump\t// out\n    /* \"#utility.yul\":16447:16567   */\ntag_143:\n    /* \"#utility.yul\":16519:16542   */\n  tag_270\n    /* \"#utility.yul\":16536:16541   */\n  dup2\n    /* \"#utility.yul\":16519:16542   */\n  tag_236\n  jump\t// in\ntag_270:\n    /* \"#utility.yul\":16512:16517   */\n  dup2\n    /* \"#utility.yul\":16509:16543   */\n  eq\n    /* \"#utility.yul\":16499:16501   */\n  tag_271\n  jumpi\n    /* \"#utility.yul\":16557:16558   */\n  0x00\n    /* \"#utility.yul\":16554:16555   */\n  dup1\n    /* \"#utility.yul\":16547:16559   */\n  revert\n    /* \"#utility.yul\":16499:16501   */\ntag_271:\n    /* \"#utility.yul\":16489:16567   */\n  pop\n  jump\t// out\n    /* \"#utility.yul\":16573:16695   */\ntag_146:\n    /* \"#utility.yul\":16646:16670   */\n  tag_273\n    /* \"#utility.yul\":16664:16669   */\n  dup2\n    /* \"#utility.yul\":16646:16670   */\n  tag_229\n  jump\t// in\ntag_273:\n    /* \"#utility.yul\":16639:16644   */\n  dup2\n    /* \"#utility.yul\":16636:16671   */\n  eq\n    /* \"#utility.yul\":16626:16628   */\n  tag_274\n  jumpi\n    /* \"#utility.yul\":16685:16686   */\n  0x00\n    /* \"#utility.yul\":16682:16683   */\n  dup1\n    /* \"#utility.yul\":16675:16687   */\n  revert\n    /* \"#utility.yul\":16626:16628   */\ntag_274:\n    /* \"#utility.yul\":16616:16695   */\n  pop\n  jump\t// out\n    /* \"Insurance.sol\":2146:19761  contract Insurance is Seriality {... */\ntag_60:\n  dataSize(sub_0)\n  dup1\n  dataOffset(sub_0)\n  0x00\n  codecopy\n  0x00\n  return\nstop\n\nsub_0: assembly {\n        /* \"Insurance.sol\":2146:19761  contract Insurance is Seriality {... */\n      mstore(0x40, 0x80)\n      callvalue\n      dup1\n      iszero\n      tag_1\n      jumpi\n      0x00\n      dup1\n      revert\n    tag_1:\n      pop\n      jumpi(tag_2, lt(calldatasize, 0x04))\n      shr(0xe0, calldataload(0x00))\n      dup1\n      0x40d5ff58\n      gt\n      tag_16\n      jumpi\n      dup1\n      0x92ed93d0\n      gt\n      tag_17\n      jumpi\n      dup1\n      0x92ed93d0\n      eq\n      tag_12\n      jumpi\n      dup1\n      0x9499e018\n      eq\n      tag_13\n      jumpi\n      dup1\n      0xe0caf0bd\n      eq\n      tag_14\n      jumpi\n      dup1\n      0xfc1c7a70\n      eq\n      tag_15\n      jumpi\n      jump(tag_2)\n    tag_17:\n      dup1\n      0x40d5ff58\n      eq\n      tag_9\n      jumpi\n      dup1\n      0x5d1ca631\n      eq\n      tag_10\n      jumpi\n      dup1\n      0x62a681b3\n      eq\n      tag_11\n      jumpi\n      jump(tag_2)\n    tag_16:\n      dup1\n      0x121b5a25\n      eq\n      tag_3\n      jumpi\n      dup1\n      0x169e68c3\n      eq\n      tag_4\n      jumpi\n      dup1\n      0x2357aef3\n      eq\n      tag_5\n      jumpi\n      dup1\n      0x236f45d9\n      eq\n      tag_6\n      jumpi\n      dup1\n      0x297e6306\n      eq\n      tag_7\n      jumpi\n      dup1\n      0x2f0519d4\n      eq\n      tag_8\n      jumpi\n    tag_2:\n      0x00\n      dup1\n      revert\n        /* \"Insurance.sol\":7171:7358  function calculateCompensation() public view returns(uint256 amount) {... */\n    tag_3:\n      tag_18\n      tag_19\n      jump\t// in\n    tag_18:\n      mload(0x40)\n      tag_20\n      swap2\n      swap1\n      tag_21\n      jump\t// in\n    tag_20:\n      mload(0x40)\n      dup1\n      swap2\n      sub\n      swap1\n      return\n        /* \"Insurance.sol\":10179:10770  function getPCR(bytes32 _idPCR) public view returns(... */\n    tag_4:\n      tag_22\n      0x04\n      dup1\n      calldatasize\n      sub\n      dup2\n      add\n      swap1\n      tag_23\n      swap2\n      swap1\n      tag_24\n      jump\t// in\n    tag_23:\n      tag_25\n      jump\t// in\n    tag_22:\n      mload(0x40)\n      tag_26\n      swap7\n      swap6\n      swap5\n      swap4\n      swap3\n      swap2\n      swap1\n      tag_27\n      jump\t// in\n    tag_26:\n      mload(0x40)\n      dup1\n      swap2\n      sub\n      swap1\n      return\n        /* \"Insurance.sol\":8879:9570  function updatePCR(bytes32 _idPCR, bytes32 _resultPCR) public {... */\n    tag_5:\n      tag_28\n      0x04\n      dup1\n      calldatasize\n      sub\n      dup2\n      add\n      swap1\n      tag_29\n      swap2\n      swap1\n      tag_30\n      jump\t// in\n    tag_29:\n      tag_31\n      jump\t// in\n    tag_28:\n      stop\n        /* \"Insurance.sol\":12794:19222  function serializeInsurance() external view returns (bytes memory _serializedInsurance, uint256 _size) {... */\n    tag_6:\n      tag_32\n      tag_33\n      jump\t// in\n    tag_32:\n      mload(0x40)\n      tag_34\n      swap3\n      swap2\n      swap1\n      tag_35\n      jump\t// in\n    tag_34:\n      mload(0x40)\n      dup1\n      swap2\n      sub\n      swap1\n      return\n        /* \"Insurance.sol\":12473:12634  function addSpcAddress(address _spcAddress) external {... */\n    tag_7:\n      tag_36\n      0x04\n      dup1\n      calldatasize\n      sub\n      dup2\n      add\n      swap1\n      tag_37\n      swap2\n      swap1\n      tag_38\n      jump\t// in\n    tag_37:\n      tag_39\n      jump\t// in\n    tag_36:\n      stop\n        /* \"Insurance.sol\":7879:8694  function addPCRtoInsured(... */\n    tag_8:\n      tag_40\n      0x04\n      dup1\n      calldatasize\n      sub\n      dup2\n      add\n      swap1\n      tag_41\n      swap2\n      swap1\n      tag_42\n      jump\t// in\n    tag_41:\n      tag_43\n      jump\t// in\n    tag_40:\n      stop\n        /* \"Insurance.sol\":7462:7792  function compensation() public {... */\n    tag_9:\n      tag_44\n      tag_45\n      jump\t// in\n    tag_44:\n      stop\n        /* \"Insurance.sol\":19442:19542  function getId() external view returns(bytes32 insuranceId) {... */\n    tag_10:\n      tag_46\n      tag_47\n      jump\t// in\n    tag_46:\n      mload(0x40)\n      tag_48\n      swap2\n      swap1\n      tag_49\n      jump\t// in\n    tag_48:\n      mload(0x40)\n      dup1\n      swap2\n      sub\n      swap1\n      return\n        /* \"Insurance.sol\":9691:10123  function deletePCR(bytes32 _idPCR) public returns(address _pcrContractAddress) {... */\n    tag_11:\n      tag_50\n      0x04\n      dup1\n      calldatasize\n      sub\n      dup2\n      add\n      swap1\n      tag_51\n      swap2\n      swap1\n      tag_24\n      jump\t// in\n    tag_51:\n      tag_52\n      jump\t// in\n    tag_50:\n      mload(0x40)\n      tag_53\n      swap2\n      swap1\n      tag_54\n      jump\t// in\n    tag_53:\n      mload(0x40)\n      dup1\n      swap2\n      sub\n      swap1\n      return\n        /* \"Insurance.sol\":11710:12300  function getInsuranceData() external view returns(... */\n    tag_12:\n      tag_55\n      tag_56\n      jump\t// in\n    tag_55:\n      mload(0x40)\n      tag_57\n      swap8\n      swap7\n      swap6\n      swap5\n      swap4\n      swap3\n      swap2\n      swap1\n      tag_58\n      jump\t// in\n    tag_57:\n      mload(0x40)\n      dup1\n      swap2\n      sub\n      swap1\n      return\n        /* \"Insurance.sol\":19648:19759  function destructContract() external {... */\n    tag_13:\n      tag_59\n      tag_60\n      jump\t// in\n    tag_59:\n      stop\n        /* \"Insurance.sol\":10835:11641  function getTakerData() external view returns(... */\n    tag_14:\n      tag_61\n      tag_62\n      jump\t// in\n    tag_61:\n      mload(0x40)\n      tag_63\n      swap12\n      swap11\n      swap10\n      swap9\n      swap8\n      swap7\n      swap6\n      swap5\n      swap4\n      swap3\n      swap2\n      swap1\n      tag_64\n      jump\t// in\n    tag_63:\n      mload(0x40)\n      dup1\n      swap2\n      sub\n      swap1\n      return\n        /* \"Insurance.sol\":19279:19381  function getTakerId() external view returns(bytes32 takerId) {... */\n    tag_15:\n      tag_65\n      tag_66\n      jump\t// in\n    tag_65:\n      mload(0x40)\n      tag_67\n      swap2\n      swap1\n      tag_49\n      jump\t// in\n    tag_67:\n      mload(0x40)\n      dup1\n      swap2\n      sub\n      swap1\n      return\n        /* \"Insurance.sol\":7171:7358  function calculateCompensation() public view returns(uint256 amount) {... */\n    tag_19:\n        /* \"Insurance.sol\":7224:7238  uint256 amount */\n      0x00\n        /* \"Insurance.sol\":7324:7337  insuranceData */\n      0x0a\n        /* \"Insurance.sol\":7324:7351  insuranceData.insuredNumber */\n      0x00\n      add\n      0x06\n      swap1\n      sload\n      swap1\n      0x0100\n      exp\n      swap1\n      div\n      0xffff\n      and\n        /* \"Insurance.sol\":7291:7304  insuranceData */\n      0x0a\n        /* \"Insurance.sol\":7291:7321  insuranceData.daysToCompensate */\n      0x00\n      add\n      0x02\n      swap1\n      sload\n      swap1\n      0x0100\n      exp\n      swap1\n      div\n      0xffff\n      and\n        /* \"Insurance.sol\":7257:7270  insuranceData */\n      0x0a\n        /* \"Insurance.sol\":7257:7288  insuranceData.dailyCompensation */\n      0x00\n      add\n      0x00\n      swap1\n      sload\n      swap1\n      0x0100\n      exp\n      swap1\n      div\n      0xffff\n      and\n        /* \"Insurance.sol\":7257:7321  insuranceData.dailyCompensation * insuranceData.daysToCompensate */\n      tag_69\n      swap2\n      swap1\n      tag_70\n      jump\t// in\n    tag_69:\n        /* \"Insurance.sol\":7257:7351  insuranceData.dailyCompensation * insuranceData.daysToCompensate * insuranceData.insuredNumber */\n      tag_71\n      swap2\n      swap1\n      tag_70\n      jump\t// in\n    tag_71:\n        /* \"Insurance.sol\":7250:7351  return insuranceData.dailyCompensation * insuranceData.daysToCompensate * insuranceData.insuredNumber */\n      0xffff\n      and\n      swap1\n      pop\n        /* \"Insurance.sol\":7171:7358  function calculateCompensation() public view returns(uint256 amount) {... */\n      swap1\n      jump\t// out\n        /* \"Insurance.sol\":10179:10770  function getPCR(bytes32 _idPCR) public view returns(... */\n    tag_25:\n        /* \"Insurance.sol\":10240:10254  bytes32 result */\n      0x00\n        /* \"Insurance.sol\":10265:10283  bytes32 customerId */\n      dup1\n        /* \"Insurance.sol\":10294:10313  uint256 requestDate */\n      0x00\n        /* \"Insurance.sol\":10323:10341  uint256 resultDate */\n      dup1\n        /* \"Insurance.sol\":10352:10362  bytes32 id */\n      0x00\n        /* \"Insurance.sol\":10372:10398  address pcrContractAddress */\n      dup1\n        /* \"Insurance.sol\":10423:10434  isPcrActive */\n      0x05\n        /* \"Insurance.sol\":10423:10442  isPcrActive[_idPCR] */\n      0x00\n        /* \"Insurance.sol\":10435:10441  _idPCR */\n      dup9\n        /* \"Insurance.sol\":10423:10442  isPcrActive[_idPCR] */\n      dup2\n      mstore\n      0x20\n      add\n      swap1\n      dup2\n      mstore\n      0x20\n      add\n      0x00\n      keccak256\n      0x00\n      swap1\n      sload\n      swap1\n      0x0100\n      exp\n      swap1\n      div\n      0xff\n      and\n        /* \"Insurance.sol\":10415:10475  require(isPcrActive[_idPCR], \"No existe una PCR con esa ID\") */\n      tag_73\n      jumpi\n      mload(0x40)\n      0x08c379a000000000000000000000000000000000000000000000000000000000\n      dup2\n      mstore\n      0x04\n      add\n      tag_74\n      swap1\n      tag_75\n      jump\t// in\n    tag_74:\n      mload(0x40)\n      dup1\n      swap2\n      sub\n      swap1\n      revert\n    tag_73:\n        /* \"Insurance.sol\":10506:10517  pcrIdToData */\n      0x09\n        /* \"Insurance.sol\":10506:10525  pcrIdToData[_idPCR] */\n      0x00\n        /* \"Insurance.sol\":10518:10524  _idPCR */\n      dup9\n        /* \"Insurance.sol\":10506:10525  pcrIdToData[_idPCR] */\n      dup2\n      mstore\n      0x20\n      add\n      swap1\n      dup2\n      mstore\n      0x20\n      add\n      0x00\n      keccak256\n        /* \"Insurance.sol\":10506:10532  pcrIdToData[_idPCR].result */\n      0x00\n      add\n      sload\n        /* \"Insurance.sol\":10546:10557  pcrIdToData */\n      0x09\n        /* \"Insurance.sol\":10546:10565  pcrIdToData[_idPCR] */\n      0x00\n        /* \"Insurance.sol\":10558:10564  _idPCR */\n      dup10\n        /* \"Insurance.sol\":10546:10565  pcrIdToData[_idPCR] */\n      dup2\n      mstore\n      0x20\n      add\n      swap1\n      dup2\n      mstore\n      0x20\n      add\n      0x00\n      keccak256\n        /* \"Insurance.sol\":10546:10575  pcrIdToData[_idPCR].insuredId */\n      0x02\n      add\n      sload\n        /* \"Insurance.sol\":10589:10600  pcrIdToData */\n      0x09\n        /* \"Insurance.sol\":10589:10608  pcrIdToData[_idPCR] */\n      0x00\n        /* \"Insurance.sol\":10601:10607  _idPCR */\n      dup11\n        /* \"Insurance.sol\":10589:10608  pcrIdToData[_idPCR] */\n      dup2\n      mstore\n      0x20\n      add\n      swap1\n      dup2\n      mstore\n      0x20\n      add\n      0x00\n      keccak256\n        /* \"Insurance.sol\":10589:10620  pcrIdToData[_idPCR].requestDate */\n      0x03\n      add\n      sload\n        /* \"Insurance.sol\":10634:10645  pcrIdToData */\n      0x09\n        /* \"Insurance.sol\":10634:10653  pcrIdToData[_idPCR] */\n      0x00\n        /* \"Insurance.sol\":10646:10652  _idPCR */\n      dup12\n        /* \"Insurance.sol\":10634:10653  pcrIdToData[_idPCR] */\n      dup2\n      mstore\n      0x20\n      add\n      swap1\n      dup2\n      mstore\n      0x20\n      add\n      0x00\n      keccak256\n        /* \"Insurance.sol\":10634:10664  pcrIdToData[_idPCR].resultDate */\n      0x04\n      add\n      sload\n        /* \"Insurance.sol\":10678:10689  pcrIdToData */\n      0x09\n        /* \"Insurance.sol\":10678:10697  pcrIdToData[_idPCR] */\n      0x00\n        /* \"Insurance.sol\":10690:10696  _idPCR */\n      dup13\n        /* \"Insurance.sol\":10678:10697  pcrIdToData[_idPCR] */\n      dup2\n      mstore\n      0x20\n      add\n      swap1\n      dup2\n      mstore\n      0x20\n      add\n      0x00\n      keccak256\n        /* \"Insurance.sol\":10678:10700  pcrIdToData[_idPCR].id */\n      0x01\n      add\n      sload\n        /* \"Insurance.sol\":10714:10725  pcrIdToData */\n      0x09\n        /* \"Insurance.sol\":10714:10733  pcrIdToData[_idPCR] */\n      0x00\n        /* \"Insurance.sol\":10726:10732  _idPCR */\n      dup14\n        /* \"Insurance.sol\":10714:10733  pcrIdToData[_idPCR] */\n      dup2\n      mstore\n      0x20\n      add\n      swap1\n      dup2\n      mstore\n      0x20\n      add\n      0x00\n      keccak256\n        /* \"Insurance.sol\":10714:10749  pcrIdToData[_idPCR].contractAddress */\n      0x05\n      add\n      0x00\n      swap1\n      sload\n      swap1\n      0x0100\n      exp\n      swap1\n      div\n      0xffffffffffffffffffffffffffffffffffffffff\n      and\n        /* \"Insurance.sol\":10485:10763  return (... */\n      swap6\n      pop\n      swap6\n      pop\n      swap6\n      pop\n      swap6\n      pop\n      swap6\n      pop\n      swap6\n      pop\n        /* \"Insurance.sol\":10179:10770  function getPCR(bytes32 _idPCR) public view returns(... */\n      swap2\n      swap4\n      swap6\n      pop\n      swap2\n      swap4\n      swap6\n      jump\t// out\n        /* \"Insurance.sol\":8879:9570  function updatePCR(bytes32 _idPCR, bytes32 _resultPCR) public {... */\n    tag_31:\n        /* \"Insurance.sol\":9052:9066  bytes32 posPCR */\n      0x00\n        /* \"Insurance.sol\":9052:9079  bytes32 posPCR = \"POSITIVE\" */\n      0x504f534954495645000000000000000000000000000000000000000000000000\n      swap1\n      pop\n        /* \"Insurance.sol\":9089:9106  bytes32 insuredId */\n      0x00\n        /* \"Insurance.sol\":9109:9125  pcrIdToInsuredId */\n      0x06\n        /* \"Insurance.sol\":9109:9133  pcrIdToInsuredId[_idPCR] */\n      0x00\n        /* \"Insurance.sol\":9126:9132  _idPCR */\n      dup6\n        /* \"Insurance.sol\":9109:9133  pcrIdToInsuredId[_idPCR] */\n      dup2\n      mstore\n      0x20\n      add\n      swap1\n      dup2\n      mstore\n      0x20\n      add\n      0x00\n      keccak256\n      sload\n        /* \"Insurance.sol\":9089:9133  bytes32 insuredId = pcrIdToInsuredId[_idPCR] */\n      swap1\n      pop\n        /* \"Insurance.sol\":9151:9162  isPcrActive */\n      0x05\n        /* \"Insurance.sol\":9151:9170  isPcrActive[_idPCR] */\n      0x00\n        /* \"Insurance.sol\":9163:9169  _idPCR */\n      dup6\n        /* \"Insurance.sol\":9151:9170  isPcrActive[_idPCR] */\n      dup2\n      mstore\n      0x20\n      add\n      swap1\n      dup2\n      mstore\n      0x20\n      add\n      0x00\n      keccak256\n      0x00\n      swap1\n      sload\n      swap1\n      0x0100\n      exp\n      swap1\n      div\n      0xff\n      and\n        /* \"Insurance.sol\":9143:9199  require(isPcrActive[_idPCR], \"La PCR tiene que existir\") */\n      tag_77\n      jumpi\n      mload(0x40)\n      0x08c379a000000000000000000000000000000000000000000000000000000000\n      dup2\n      mstore\n      0x04\n      add\n      tag_78\n      swap1\n      tag_79\n      jump\t// in\n    tag_78:\n      mload(0x40)\n      dup1\n      swap2\n      sub\n      swap1\n      revert\n    tag_77:\n        /* \"Insurance.sol\":9238:9248  _resultPCR */\n      dup3\n        /* \"Insurance.sol\":9209:9220  pcrIdToData */\n      0x09\n        /* \"Insurance.sol\":9209:9228  pcrIdToData[_idPCR] */\n      0x00\n        /* \"Insurance.sol\":9221:9227  _idPCR */\n      dup7\n        /* \"Insurance.sol\":9209:9228  pcrIdToData[_idPCR] */\n      dup2\n      mstore\n      0x20\n      add\n      swap1\n      dup2\n      mstore\n      0x20\n      add\n      0x00\n      keccak256\n        /* \"Insurance.sol\":9209:9235  pcrIdToData[_idPCR].result */\n      0x00\n      add\n        /* \"Insurance.sol\":9209:9248  pcrIdToData[_idPCR].result = _resultPCR */\n      dup2\n      swap1\n      sstore\n      pop\n        /* \"Insurance.sol\":9291:9306  block.timestamp */\n      timestamp\n        /* \"Insurance.sol\":9258:9269  pcrIdToData */\n      0x09\n        /* \"Insurance.sol\":9258:9277  pcrIdToData[_idPCR] */\n      0x00\n        /* \"Insurance.sol\":9270:9276  _idPCR */\n      dup7\n        /* \"Insurance.sol\":9258:9277  pcrIdToData[_idPCR] */\n      dup2\n      mstore\n      0x20\n      add\n      swap1\n      dup2\n      mstore\n      0x20\n      add\n      0x00\n      keccak256\n        /* \"Insurance.sol\":9258:9288  pcrIdToData[_idPCR].resultDate */\n      0x04\n      add\n        /* \"Insurance.sol\":9258:9306  pcrIdToData[_idPCR].resultDate = block.timestamp */\n      dup2\n      swap1\n      sstore\n      pop\n        /* \"Insurance.sol\":9334:9340  posPCR */\n      dup2\n        /* \"Insurance.sol\":9320:9330  _resultPCR */\n      dup4\n        /* \"Insurance.sol\":9320:9340  _resultPCR == posPCR */\n      eq\n        /* \"Insurance.sol\":9316:9564  if (_resultPCR == posPCR) {... */\n      iszero\n      tag_80\n      jumpi\n        /* \"Insurance.sol\":9374:9378  true */\n      0x01\n        /* \"Insurance.sol\":9356:9371  positivePcrTest */\n      0x1b\n      0x00\n        /* \"Insurance.sol\":9356:9378  positivePcrTest = true */\n      0x0100\n      exp\n      dup2\n      sload\n      dup2\n      0xff\n      mul\n      not\n      and\n      swap1\n      dup4\n      iszero\n      iszero\n      mul\n      or\n      swap1\n      sstore\n      pop\n        /* \"Insurance.sol\":9397:9436  positivePcr(insuredId, block.timestamp) */\n      0x55cb01df06ba1925769d5c9d83199624c566e9e81719d4a3d02aee576149d7f9\n        /* \"Insurance.sol\":9409:9418  insuredId */\n      dup2\n        /* \"Insurance.sol\":9420:9435  block.timestamp */\n      timestamp\n        /* \"Insurance.sol\":9397:9436  positivePcr(insuredId, block.timestamp) */\n      mload(0x40)\n      tag_81\n      swap3\n      swap2\n      swap1\n      tag_82\n      jump\t// in\n    tag_81:\n      mload(0x40)\n      dup1\n      swap2\n      sub\n      swap1\n      log1\n        /* \"Insurance.sol\":9472:9485  insuranceData */\n      0x0a\n        /* \"Insurance.sol\":9472:9505  insuranceData.insuranceFinishDate */\n      0x03\n      add\n      sload\n        /* \"Insurance.sol\":9454:9469  block.timestamp */\n      timestamp\n        /* \"Insurance.sol\":9454:9505  block.timestamp < insuranceData.insuranceFinishDate */\n      lt\n        /* \"Insurance.sol\":9450:9554  if (block.timestamp < insuranceData.insuranceFinishDate) {... */\n      iszero\n      tag_83\n      jumpi\n        /* \"Insurance.sol\":9525:9539  compensation() */\n      tag_84\n        /* \"Insurance.sol\":9525:9537  compensation */\n      tag_45\n        /* \"Insurance.sol\":9525:9539  compensation() */\n      jump\t// in\n    tag_84:\n        /* \"Insurance.sol\":9450:9554  if (block.timestamp < insuranceData.insuranceFinishDate) {... */\n    tag_83:\n        /* \"Insurance.sol\":9316:9564  if (_resultPCR == posPCR) {... */\n    tag_80:\n        /* \"Insurance.sol\":8879:9570  function updatePCR(bytes32 _idPCR, bytes32 _resultPCR) public {... */\n      pop\n      pop\n      pop\n      pop\n      jump\t// out\n        /* \"Insurance.sol\":12794:19222  function serializeInsurance() external view returns (bytes memory _serializedInsurance, uint256 _size) {... */\n    tag_33:\n        /* \"Insurance.sol\":12847:12880  bytes memory _serializedInsurance */\n      0x60\n        /* \"Insurance.sol\":12882:12895  uint256 _size */\n      0x00\n        /* \"Insurance.sol\":12907:12922  uint16 nameSize */\n      dup1\n        /* \"Insurance.sol\":12932:12965  sizeOfString(takerData.takerName) */\n      tag_86\n        /* \"Insurance.sol\":12945:12954  takerData */\n      0x10\n        /* \"Insurance.sol\":12945:12964  takerData.takerName */\n      0x00\n      add\n        /* \"Insurance.sol\":12932:12965  sizeOfString(takerData.takerName) */\n      dup1\n      sload\n      tag_87\n      swap1\n      tag_88\n      jump\t// in\n    tag_87:\n      dup1\n      0x1f\n      add\n      0x20\n      dup1\n      swap2\n      div\n      mul\n      0x20\n      add\n      mload(0x40)\n      swap1\n      dup2\n      add\n      0x40\n      mstore\n      dup1\n      swap3\n      swap2\n      swap1\n      dup2\n      dup2\n      mstore\n      0x20\n      add\n      dup3\n      dup1\n      sload\n      tag_89\n      swap1\n      tag_88\n      jump\t// in\n    tag_89:\n      dup1\n      iszero\n      tag_90\n      jumpi\n      dup1\n      0x1f\n      lt\n      tag_91\n      jumpi\n      0x0100\n      dup1\n      dup4\n      sload\n      div\n      mul\n      dup4\n      mstore\n      swap2\n      0x20\n      add\n      swap2\n      jump(tag_90)\n    tag_91:\n      dup3\n      add\n      swap2\n      swap1\n      0x00\n      mstore\n      keccak256(0x00, 0x20)\n      swap1\n    tag_92:\n      dup2\n      sload\n      dup2\n      mstore\n      swap1\n      0x01\n      add\n      swap1\n      0x20\n      add\n      dup1\n      dup4\n      gt\n      tag_92\n      jumpi\n      dup3\n      swap1\n      sub\n      0x1f\n      and\n      dup3\n      add\n      swap2\n    tag_90:\n      pop\n      pop\n      pop\n      pop\n      pop\n        /* \"Insurance.sol\":12932:12944  sizeOfString */\n      tag_93\n        /* \"Insurance.sol\":12932:12965  sizeOfString(takerData.takerName) */\n      jump\t// in\n    tag_86:\n        /* \"Insurance.sol\":12907:12966  uint16 nameSize = uint16(sizeOfString(takerData.takerName)) */\n      swap1\n      pop\n        /* \"Insurance.sol\":12976:12994  uint16 addressSize */\n      0x00\n        /* \"Insurance.sol\":13004:13040  sizeOfString(takerData.takerAddress) */\n      tag_94\n        /* \"Insurance.sol\":13017:13026  takerData */\n      0x10\n        /* \"Insurance.sol\":13017:13039  takerData.takerAddress */\n      0x01\n      add\n        /* \"Insurance.sol\":13004:13040  sizeOfString(takerData.takerAddress) */\n      dup1\n      sload\n      tag_95\n      swap1\n      tag_88\n      jump\t// in\n    tag_95:\n      dup1\n      0x1f\n      add\n      0x20\n      dup1\n      swap2\n      div\n      mul\n      0x20\n      add\n      mload(0x40)\n      swap1\n      dup2\n      add\n      0x40\n      mstore\n      dup1\n      swap3\n      swap2\n      swap1\n      dup2\n      dup2\n      mstore\n      0x20\n      add\n      dup3\n      dup1\n      sload\n      tag_96\n      swap1\n      tag_88\n      jump\t// in\n    tag_96:\n      dup1\n      iszero\n      tag_97\n      jumpi\n      dup1\n      0x1f\n      lt\n      tag_98\n      jumpi\n      0x0100\n      dup1\n      dup4\n      sload\n      div\n      mul\n      dup4\n      mstore\n      swap2\n      0x20\n      add\n      swap2\n      jump(tag_97)\n    tag_98:\n      dup3\n      add\n      swap2\n      swap1\n      0x00\n      mstore\n      keccak256(0x00, 0x20)\n      swap1\n    tag_99:\n      dup2\n      sload\n      dup2\n      mstore\n      swap1\n      0x01\n      add\n      swap1\n      0x20\n      add\n      dup1\n      dup4\n      gt\n      tag_99\n      jumpi\n      dup3\n      swap1\n      sub\n      0x1f\n      and\n      dup3\n      add\n      swap2\n    tag_97:\n      pop\n      pop\n      pop\n      pop\n      pop\n        /* \"Insurance.sol\":13004:13016  sizeOfString */\n      tag_93\n        /* \"Insurance.sol\":13004:13040  sizeOfString(takerData.takerAddress) */\n      jump\t// in\n    tag_94:\n        /* \"Insurance.sol\":12976:13041  uint16 addressSize = uint16(sizeOfString(takerData.takerAddress)) */\n      swap1\n      pop\n        /* \"Insurance.sol\":13051:13067  uint16 emailSize */\n      0x00\n        /* \"Insurance.sol\":13077:13111  sizeOfString(takerData.takerEmail) */\n      tag_100\n        /* \"Insurance.sol\":13090:13099  takerData */\n      0x10\n        /* \"Insurance.sol\":13090:13110  takerData.takerEmail */\n      0x02\n      add\n        /* \"Insurance.sol\":13077:13111  sizeOfString(takerData.takerEmail) */\n      dup1\n      sload\n      tag_101\n      swap1\n      tag_88\n      jump\t// in\n    tag_101:\n      dup1\n      0x1f\n      add\n      0x20\n      dup1\n      swap2\n      div\n      mul\n      0x20\n      add\n      mload(0x40)\n      swap1\n      dup2\n      add\n      0x40\n      mstore\n      dup1\n      swap3\n      swap2\n      swap1\n      dup2\n      dup2\n      mstore\n      0x20\n      add\n      dup3\n      dup1\n      sload\n      tag_102\n      swap1\n      tag_88\n      jump\t// in\n    tag_102:\n      dup1\n      iszero\n      tag_103\n      jumpi\n      dup1\n      0x1f\n      lt\n      tag_104\n      jumpi\n      0x0100\n      dup1\n      dup4\n      sload\n      div\n      mul\n      dup4\n      mstore\n      swap2\n      0x20\n      add\n      swap2\n      jump(tag_103)\n    tag_104:\n      dup3\n      add\n      swap2\n      swap1\n      0x00\n      mstore\n      keccak256(0x00, 0x20)\n      swap1\n    tag_105:\n      dup2\n      sload\n      dup2\n      mstore\n      swap1\n      0x01\n      add\n      swap1\n      0x20\n      add\n      dup1\n      dup4\n      gt\n      tag_105\n      jumpi\n      dup3\n      swap1\n      sub\n      0x1f\n      and\n      dup3\n      add\n      swap2\n    tag_103:\n      pop\n      pop\n      pop\n      pop\n      pop\n        /* \"Insurance.sol\":13077:13089  sizeOfString */\n      tag_93\n        /* \"Insurance.sol\":13077:13111  sizeOfString(takerData.takerEmail) */\n      jump\t// in\n    tag_100:\n        /* \"Insurance.sol\":13051:13112  uint16 emailSize = uint16(sizeOfString(takerData.takerEmail)) */\n      swap1\n      pop\n        /* \"Insurance.sol\":13123:13137  uint256 offset */\n      0x00\n        /* \"Insurance.sol\":13727:13729  30 */\n      0x1e\n        /* \"Insurance.sol\":13653:13666  insuranceData */\n      0x0a\n        /* \"Insurance.sol\":13653:13676  insuranceData.pcrNumber */\n      0x00\n      add\n      0x04\n      swap1\n      sload\n      swap1\n      0x0100\n      exp\n      swap1\n      div\n      0xffff\n      and\n        /* \"Insurance.sol\":13644:13650  32 * 5 */\n      0xa0\n        /* \"Insurance.sol\":13644:13676  32 * 5 * insuranceData.pcrNumber */\n      tag_106\n      swap2\n      swap1\n      tag_70\n      jump\t// in\n    tag_106:\n        /* \"Insurance.sol\":13616:13617  2 */\n      0x02\n        /* \"Insurance.sol\":13499:13501  10 */\n      0x0a\n        /* \"Insurance.sol\":13475:13484  emailSize */\n      dup6\n        /* \"Insurance.sol\":13461:13472  addressSize */\n      dup8\n        /* \"Insurance.sol\":13450:13458  nameSize */\n      dup10\n        /* \"Insurance.sol\":13405:13411  32 * 9 */\n      0x0120\n        /* \"Insurance.sol\":13347:13348  2 */\n      0x02\n        /* \"Insurance.sol\":13317:13330  insuranceData */\n      0x0a\n        /* \"Insurance.sol\":13317:13344  insuranceData.insuredNumber */\n      0x00\n      add\n      0x06\n      swap1\n      sload\n      swap1\n      0x0100\n      exp\n      swap1\n      div\n      0xffff\n      and\n        /* \"Insurance.sol\":13312:13314  32 */\n      0x20\n        /* \"Insurance.sol\":13312:13344  32 * insuranceData.insuredNumber */\n      tag_107\n      swap2\n      swap1\n      tag_70\n      jump\t// in\n    tag_107:\n        /* \"Insurance.sol\":13312:13348  32 * insuranceData.insuredNumber * 2 */\n      tag_108\n      swap2\n      swap1\n      tag_70\n      jump\t// in\n    tag_108:\n        /* \"Insurance.sol\":13248:13261  insuranceData */\n      0x0a\n        /* \"Insurance.sol\":13248:13275  insuranceData.insuredNumber */\n      0x00\n      add\n      0x06\n      swap1\n      sload\n      swap1\n      0x0100\n      exp\n      swap1\n      div\n      0xffff\n      and\n        /* \"Insurance.sol\":13243:13245  32 */\n      0x20\n        /* \"Insurance.sol\":13243:13275  32 * insuranceData.insuredNumber */\n      tag_109\n      swap2\n      swap1\n      tag_70\n      jump\t// in\n    tag_109:\n        /* \"Insurance.sol\":13154:13185  4 + // 2 uint16 ... */\n      0x64\n        /* \"Insurance.sol\":13154:13276  4 + // 2 uint16 ... */\n      tag_110\n      swap2\n      swap1\n      tag_111\n      jump\t// in\n    tag_110:\n        /* \"Insurance.sol\":13154:13349  4 + // 2 uint16 ... */\n      tag_112\n      swap2\n      swap1\n      tag_111\n      jump\t// in\n    tag_112:\n        /* \"Insurance.sol\":13154:13412  4 + // 2 uint16 ... */\n      tag_113\n      swap2\n      swap1\n      tag_111\n      jump\t// in\n    tag_113:\n        /* \"Insurance.sol\":13154:13458  4 + // 2 uint16 ... */\n      tag_114\n      swap2\n      swap1\n      tag_111\n      jump\t// in\n    tag_114:\n        /* \"Insurance.sol\":13154:13472  4 + // 2 uint16 ... */\n      tag_115\n      swap2\n      swap1\n      tag_111\n      jump\t// in\n    tag_115:\n        /* \"Insurance.sol\":13154:13484  4 + // 2 uint16 ... */\n      tag_116\n      swap2\n      swap1\n      tag_111\n      jump\t// in\n    tag_116:\n        /* \"Insurance.sol\":13154:13501  4 + // 2 uint16 ... */\n      tag_117\n      swap2\n      swap1\n      tag_111\n      jump\t// in\n    tag_117:\n        /* \"Insurance.sol\":13154:13617  4 + // 2 uint16 ... */\n      tag_118\n      swap2\n      swap1\n      tag_111\n      jump\t// in\n    tag_118:\n        /* \"Insurance.sol\":13154:13677  4 + // 2 uint16 ... */\n      tag_119\n      swap2\n      swap1\n      tag_111\n      jump\t// in\n    tag_119:\n        /* \"Insurance.sol\":13154:13729  4 + // 2 uint16 ... */\n      tag_120\n      swap2\n      swap1\n      tag_111\n      jump\t// in\n    tag_120:\n        /* \"Insurance.sol\":13123:13814  uint256 offset = (... */\n      0xffff\n      and\n      swap1\n      pop\n        /* \"Insurance.sol\":13857:13863  offset */\n      dup1\n        /* \"Insurance.sol\":13847:13864  new bytes(offset) */\n      0xffffffffffffffff\n      dup2\n      gt\n      iszero\n      tag_121\n      jumpi\n      mstore(0x00, 0x4e487b7100000000000000000000000000000000000000000000000000000000)\n      mstore(0x04, 0x41)\n      revert(0x00, 0x24)\n    tag_121:\n      mload(0x40)\n      swap1\n      dup1\n      dup3\n      mstore\n      dup1\n      0x1f\n      add\n      not(0x1f)\n      and\n      0x20\n      add\n      dup3\n      add\n      0x40\n      mstore\n      dup1\n      iszero\n      tag_122\n      jumpi\n      dup2\n      0x20\n      add\n      0x01\n      dup3\n      mul\n      dup1\n      calldatasize\n      dup4\n      calldatacopy\n      dup1\n      dup3\n      add\n      swap2\n      pop\n      pop\n      swap1\n      pop\n    tag_122:\n      pop\n        /* \"Insurance.sol\":13824:13864  _serializedInsurance = new bytes(offset) */\n      swap6\n      pop\n        /* \"Insurance.sol\":13882:13888  offset */\n      dup1\n        /* \"Insurance.sol\":13874:13888  _size = offset */\n      swap5\n      pop\n        /* \"Insurance.sol\":13959:14021  bytes32ToBytes(offset, insuranceData.id, _serializedInsurance) */\n      tag_123\n        /* \"Insurance.sol\":13974:13980  offset */\n      dup2\n        /* \"Insurance.sol\":13982:13995  insuranceData */\n      0x0a\n        /* \"Insurance.sol\":13982:13998  insuranceData.id */\n      0x01\n      add\n      sload\n        /* \"Insurance.sol\":14000:14020  _serializedInsurance */\n      dup9\n        /* \"Insurance.sol\":13959:13973  bytes32ToBytes */\n      tag_124\n        /* \"Insurance.sol\":13959:14021  bytes32ToBytes(offset, insuranceData.id, _serializedInsurance) */\n      jump\t// in\n    tag_123:\n        /* \"Insurance.sol\":14041:14043  32 */\n      0x20\n        /* \"Insurance.sol\":14031:14043  offset -= 32 */\n      dup2\n      tag_125\n      swap2\n      swap1\n      tag_126\n      jump\t// in\n    tag_125:\n      swap1\n      pop\n        /* \"Insurance.sol\":14096:14171  uintToBytes(offset, insuranceData.insuranceStartDate, _serializedInsurance) */\n      tag_127\n        /* \"Insurance.sol\":14108:14114  offset */\n      dup2\n        /* \"Insurance.sol\":14116:14129  insuranceData */\n      0x0a\n        /* \"Insurance.sol\":14116:14148  insuranceData.insuranceStartDate */\n      0x02\n      add\n      sload\n        /* \"Insurance.sol\":14150:14170  _serializedInsurance */\n      dup9\n        /* \"Insurance.sol\":14096:14107  uintToBytes */\n      tag_128\n        /* \"Insurance.sol\":14096:14171  uintToBytes(offset, insuranceData.insuranceStartDate, _serializedInsurance) */\n      jump\t// in\n    tag_127:\n        /* \"Insurance.sol\":14191:14193  32 */\n      0x20\n        /* \"Insurance.sol\":14181:14193  offset -= 32 */\n      dup2\n      tag_129\n      swap2\n      swap1\n      tag_126\n      jump\t// in\n    tag_129:\n      swap1\n      pop\n        /* \"Insurance.sol\":14247:14323  uintToBytes(offset, insuranceData.insuranceFinishDate, _serializedInsurance) */\n      tag_130\n        /* \"Insurance.sol\":14259:14265  offset */\n      dup2\n        /* \"Insurance.sol\":14267:14280  insuranceData */\n      0x0a\n        /* \"Insurance.sol\":14267:14300  insuranceData.insuranceFinishDate */\n      0x03\n      add\n      sload\n        /* \"Insurance.sol\":14302:14322  _serializedInsurance */\n      dup9\n        /* \"Insurance.sol\":14247:14258  uintToBytes */\n      tag_128\n        /* \"Insurance.sol\":14247:14323  uintToBytes(offset, insuranceData.insuranceFinishDate, _serializedInsurance) */\n      jump\t// in\n    tag_130:\n        /* \"Insurance.sol\":14343:14345  32 */\n      0x20\n        /* \"Insurance.sol\":14333:14345  offset -= 32 */\n      dup2\n      tag_131\n      swap2\n      swap1\n      tag_126\n      jump\t// in\n    tag_131:\n      swap1\n      pop\n        /* \"Insurance.sol\":14391:14460  uintToBytes(offset, insuranceData.contractDate, _serializedInsurance) */\n      tag_132\n        /* \"Insurance.sol\":14403:14409  offset */\n      dup2\n        /* \"Insurance.sol\":14411:14424  insuranceData */\n      0x0a\n        /* \"Insurance.sol\":14411:14437  insuranceData.contractDate */\n      0x04\n      add\n      sload\n        /* \"Insurance.sol\":14439:14459  _serializedInsurance */\n      dup9\n        /* \"Insurance.sol\":14391:14402  uintToBytes */\n      tag_128\n        /* \"Insurance.sol\":14391:14460  uintToBytes(offset, insuranceData.contractDate, _serializedInsurance) */\n      jump\t// in\n    tag_132:\n        /* \"Insurance.sol\":14480:14482  32 */\n      0x20\n        /* \"Insurance.sol\":14470:14482  offset -= 32 */\n      dup2\n      tag_133\n      swap2\n      swap1\n      tag_126\n      jump\t// in\n    tag_133:\n      swap1\n      pop\n        /* \"Insurance.sol\":14533:14607  uintToBytes(offset, insuranceData.dailyCompensation, _serializedInsurance) */\n      tag_134\n        /* \"Insurance.sol\":14545:14551  offset */\n      dup2\n        /* \"Insurance.sol\":14553:14566  insuranceData */\n      0x0a\n        /* \"Insurance.sol\":14553:14584  insuranceData.dailyCompensation */\n      0x00\n      add\n      0x00\n      swap1\n      sload\n      swap1\n      0x0100\n      exp\n      swap1\n      div\n      0xffff\n      and\n        /* \"Insurance.sol\":14533:14607  uintToBytes(offset, insuranceData.dailyCompensation, _serializedInsurance) */\n      0xffff\n      and\n        /* \"Insurance.sol\":14586:14606  _serializedInsurance */\n      dup9\n        /* \"Insurance.sol\":14533:14544  uintToBytes */\n      tag_128\n        /* \"Insurance.sol\":14533:14607  uintToBytes(offset, insuranceData.dailyCompensation, _serializedInsurance) */\n      jump\t// in\n    tag_134:\n        /* \"Insurance.sol\":14627:14628  2 */\n      0x02\n        /* \"Insurance.sol\":14617:14628  offset -= 2 */\n      dup2\n      tag_135\n      swap2\n      swap1\n      tag_126\n      jump\t// in\n    tag_135:\n      swap1\n      pop\n        /* \"Insurance.sol\":14679:14752  uintToBytes(offset, insuranceData.daysToCompensate, _serializedInsurance) */\n      tag_136\n        /* \"Insurance.sol\":14691:14697  offset */\n      dup2\n        /* \"Insurance.sol\":14699:14712  insuranceData */\n      0x0a\n        /* \"Insurance.sol\":14699:14729  insuranceData.daysToCompensate */\n      0x00\n      add\n      0x02\n      swap1\n      sload\n      swap1\n      0x0100\n      exp\n      swap1\n      div\n      0xffff\n      and\n        /* \"Insurance.sol\":14679:14752  uintToBytes(offset, insuranceData.daysToCompensate, _serializedInsurance) */\n      0xffff\n      and\n        /* \"Insurance.sol\":14731:14751  _serializedInsurance */\n      dup9\n        /* \"Insurance.sol\":14679:14690  uintToBytes */\n      tag_128\n        /* \"Insurance.sol\":14679:14752  uintToBytes(offset, insuranceData.daysToCompensate, _serializedInsurance) */\n      jump\t// in\n    tag_136:\n        /* \"Insurance.sol\":14772:14773  2 */\n      0x02\n        /* \"Insurance.sol\":14762:14773  offset -= 2 */\n      dup2\n      tag_137\n      swap2\n      swap1\n      tag_126\n      jump\t// in\n    tag_137:\n      swap1\n      pop\n        /* \"Insurance.sol\":14836:14899  bytes32ToBytes(offset, takerData.takerId, _serializedInsurance) */\n      tag_138\n        /* \"Insurance.sol\":14851:14857  offset */\n      dup2\n        /* \"Insurance.sol\":14859:14868  takerData */\n      0x10\n        /* \"Insurance.sol\":14859:14876  takerData.takerId */\n      0x03\n      add\n      sload\n        /* \"Insurance.sol\":14878:14898  _serializedInsurance */\n      dup9\n        /* \"Insurance.sol\":14836:14850  bytes32ToBytes */\n      tag_124\n        /* \"Insurance.sol\":14836:14899  bytes32ToBytes(offset, takerData.takerId, _serializedInsurance) */\n      jump\t// in\n    tag_138:\n        /* \"Insurance.sol\":14919:14921  32 */\n      0x20\n        /* \"Insurance.sol\":14909:14921  offset -= 32 */\n      dup2\n      tag_139\n      swap2\n      swap1\n      tag_126\n      jump\t// in\n    tag_139:\n      swap1\n      pop\n        /* \"Insurance.sol\":14963:15027  bytes32ToBytes(offset, takerData.takerNif, _serializedInsurance) */\n      tag_140\n        /* \"Insurance.sol\":14978:14984  offset */\n      dup2\n        /* \"Insurance.sol\":14986:14995  takerData */\n      0x10\n        /* \"Insurance.sol\":14986:15004  takerData.takerNif */\n      0x04\n      add\n      sload\n        /* \"Insurance.sol\":15006:15026  _serializedInsurance */\n      dup9\n        /* \"Insurance.sol\":14963:14977  bytes32ToBytes */\n      tag_124\n        /* \"Insurance.sol\":14963:15027  bytes32ToBytes(offset, takerData.takerNif, _serializedInsurance) */\n      jump\t// in\n    tag_140:\n        /* \"Insurance.sol\":15047:15049  32 */\n      0x20\n        /* \"Insurance.sol\":15037:15049  offset -= 32 */\n      dup2\n      tag_141\n      swap2\n      swap1\n      tag_126\n      jump\t// in\n    tag_141:\n      swap1\n      pop\n        /* \"Insurance.sol\":15099:15170  bytes32ToBytes(offset, takerData.takerPostalCode, _serializedInsurance) */\n      tag_142\n        /* \"Insurance.sol\":15114:15120  offset */\n      dup2\n        /* \"Insurance.sol\":15122:15131  takerData */\n      0x10\n        /* \"Insurance.sol\":15122:15147  takerData.takerPostalCode */\n      0x05\n      add\n      sload\n        /* \"Insurance.sol\":15149:15169  _serializedInsurance */\n      dup9\n        /* \"Insurance.sol\":15099:15113  bytes32ToBytes */\n      tag_124\n        /* \"Insurance.sol\":15099:15170  bytes32ToBytes(offset, takerData.takerPostalCode, _serializedInsurance) */\n      jump\t// in\n    tag_142:\n        /* \"Insurance.sol\":15190:15192  32 */\n      0x20\n        /* \"Insurance.sol\":15180:15192  offset -= 32 */\n      dup2\n      tag_143\n      swap2\n      swap1\n      tag_126\n      jump\t// in\n    tag_143:\n      swap1\n      pop\n        /* \"Insurance.sol\":15235:15300  bytes32ToBytes(offset, takerData.takerTown, _serializedInsurance) */\n      tag_144\n        /* \"Insurance.sol\":15250:15256  offset */\n      dup2\n        /* \"Insurance.sol\":15258:15267  takerData */\n      0x10\n        /* \"Insurance.sol\":15258:15277  takerData.takerTown */\n      0x06\n      add\n      sload\n        /* \"Insurance.sol\":15279:15299  _serializedInsurance */\n      dup9\n        /* \"Insurance.sol\":15235:15249  bytes32ToBytes */\n      tag_124\n        /* \"Insurance.sol\":15235:15300  bytes32ToBytes(offset, takerData.takerTown, _serializedInsurance) */\n      jump\t// in\n    tag_144:\n        /* \"Insurance.sol\":15320:15322  32 */\n      0x20\n        /* \"Insurance.sol\":15310:15322  offset -= 32 */\n      dup2\n      tag_145\n      swap2\n      swap1\n      tag_126\n      jump\t// in\n    tag_145:\n      swap1\n      pop\n        /* \"Insurance.sol\":15369:15438  bytes32ToBytes(offset, takerData.takerLocation, _serializedInsurance) */\n      tag_146\n        /* \"Insurance.sol\":15384:15390  offset */\n      dup2\n        /* \"Insurance.sol\":15392:15401  takerData */\n      0x10\n        /* \"Insurance.sol\":15392:15415  takerData.takerLocation */\n      0x07\n      add\n      sload\n        /* \"Insurance.sol\":15417:15437  _serializedInsurance */\n      dup9\n        /* \"Insurance.sol\":15369:15383  bytes32ToBytes */\n      tag_124\n        /* \"Insurance.sol\":15369:15438  bytes32ToBytes(offset, takerData.takerLocation, _serializedInsurance) */\n      jump\t// in\n    tag_146:\n        /* \"Insurance.sol\":15458:15460  32 */\n      0x20\n        /* \"Insurance.sol\":15448:15460  offset -= 32 */\n      dup2\n      tag_147\n      swap2\n      swap1\n      tag_126\n      jump\t// in\n    tag_147:\n      swap1\n      pop\n        /* \"Insurance.sol\":15508:15578  bytes32ToBytes(offset, takerData.takerTelephone, _serializedInsurance) */\n      tag_148\n        /* \"Insurance.sol\":15523:15529  offset */\n      dup2\n        /* \"Insurance.sol\":15531:15540  takerData */\n      0x10\n        /* \"Insurance.sol\":15531:15555  takerData.takerTelephone */\n      0x08\n      add\n      sload\n        /* \"Insurance.sol\":15557:15577  _serializedInsurance */\n      dup9\n        /* \"Insurance.sol\":15508:15522  bytes32ToBytes */\n      tag_124\n        /* \"Insurance.sol\":15508:15578  bytes32ToBytes(offset, takerData.takerTelephone, _serializedInsurance) */\n      jump\t// in\n    tag_148:\n        /* \"Insurance.sol\":15598:15600  32 */\n      0x20\n        /* \"Insurance.sol\":15588:15600  offset -= 32 */\n      dup2\n      tag_149\n      swap2\n      swap1\n      tag_126\n      jump\t// in\n    tag_149:\n      swap1\n      pop\n        /* \"Insurance.sol\":15645:15712  bytes32ToBytes(offset, takerData.takerMobile, _serializedInsurance) */\n      tag_150\n        /* \"Insurance.sol\":15660:15666  offset */\n      dup2\n        /* \"Insurance.sol\":15668:15677  takerData */\n      0x10\n        /* \"Insurance.sol\":15668:15689  takerData.takerMobile */\n      0x09\n      add\n      sload\n        /* \"Insurance.sol\":15691:15711  _serializedInsurance */\n      dup9\n        /* \"Insurance.sol\":15645:15659  bytes32ToBytes */\n      tag_124\n        /* \"Insurance.sol\":15645:15712  bytes32ToBytes(offset, takerData.takerMobile, _serializedInsurance) */\n      jump\t// in\n    tag_150:\n        /* \"Insurance.sol\":15732:15734  32 */\n      0x20\n        /* \"Insurance.sol\":15722:15734  offset -= 32 */\n      dup2\n      tag_151\n      swap2\n      swap1\n      tag_126\n      jump\t// in\n    tag_151:\n      swap1\n      pop\n        /* \"Insurance.sol\":15777:15842  bytes32ToBytes(offset, takerData.takerIban, _serializedInsurance) */\n      tag_152\n        /* \"Insurance.sol\":15792:15798  offset */\n      dup2\n        /* \"Insurance.sol\":15800:15809  takerData */\n      0x10\n        /* \"Insurance.sol\":15800:15819  takerData.takerIban */\n      0x0a\n      add\n      sload\n        /* \"Insurance.sol\":15821:15841  _serializedInsurance */\n      dup9\n        /* \"Insurance.sol\":15777:15791  bytes32ToBytes */\n      tag_124\n        /* \"Insurance.sol\":15777:15842  bytes32ToBytes(offset, takerData.takerIban, _serializedInsurance) */\n      jump\t// in\n    tag_152:\n        /* \"Insurance.sol\":15862:15864  32 */\n      0x20\n        /* \"Insurance.sol\":15852:15864  offset -= 32 */\n      dup2\n      tag_153\n      swap2\n      swap1\n      tag_126\n      jump\t// in\n    tag_153:\n      swap1\n      pop\n        /* \"Insurance.sol\":15914:15972  boolToBytes(offset, positivePcrTest, _serializedInsurance) */\n      tag_154\n        /* \"Insurance.sol\":15926:15932  offset */\n      dup2\n        /* \"Insurance.sol\":15934:15949  positivePcrTest */\n      0x1b\n      0x00\n      swap1\n      sload\n      swap1\n      0x0100\n      exp\n      swap1\n      div\n      0xff\n      and\n        /* \"Insurance.sol\":15951:15971  _serializedInsurance */\n      dup9\n        /* \"Insurance.sol\":15914:15925  boolToBytes */\n      tag_155\n        /* \"Insurance.sol\":15914:15972  boolToBytes(offset, positivePcrTest, _serializedInsurance) */\n      jump\t// in\n    tag_154:\n        /* \"Insurance.sol\":15992:15993  1 */\n      0x01\n        /* \"Insurance.sol\":15982:15993  offset -= 1 */\n      dup2\n      tag_156\n      swap2\n      swap1\n      tag_126\n      jump\t// in\n    tag_156:\n      swap1\n      pop\n        /* \"Insurance.sol\":16046:16103  boolToBytes(offset, paymentEmitted, _serializedInsurance) */\n      tag_157\n        /* \"Insurance.sol\":16058:16064  offset */\n      dup2\n        /* \"Insurance.sol\":16066:16080  paymentEmitted */\n      0x1b\n      0x01\n      swap1\n      sload\n      swap1\n      0x0100\n      exp\n      swap1\n      div\n      0xff\n      and\n        /* \"Insurance.sol\":16082:16102  _serializedInsurance */\n      dup9\n        /* \"Insurance.sol\":16046:16057  boolToBytes */\n      tag_155\n        /* \"Insurance.sol\":16046:16103  boolToBytes(offset, paymentEmitted, _serializedInsurance) */\n      jump\t// in\n    tag_157:\n        /* \"Insurance.sol\":16123:16124  1 */\n      0x01\n        /* \"Insurance.sol\":16113:16124  offset -= 1 */\n      dup2\n      tag_158\n      swap2\n      swap1\n      tag_126\n      jump\t// in\n    tag_158:\n      swap1\n      pop\n        /* \"Insurance.sol\":16222:16273  uintToBytes(offset, nameSize, _serializedInsurance) */\n      tag_159\n        /* \"Insurance.sol\":16234:16240  offset */\n      dup2\n        /* \"Insurance.sol\":16242:16250  nameSize */\n      dup6\n        /* \"Insurance.sol\":16222:16273  uintToBytes(offset, nameSize, _serializedInsurance) */\n      0xffff\n      and\n        /* \"Insurance.sol\":16252:16272  _serializedInsurance */\n      dup9\n        /* \"Insurance.sol\":16222:16233  uintToBytes */\n      tag_128\n        /* \"Insurance.sol\":16222:16273  uintToBytes(offset, nameSize, _serializedInsurance) */\n      jump\t// in\n    tag_159:\n        /* \"Insurance.sol\":16293:16294  2 */\n      0x02\n        /* \"Insurance.sol\":16283:16294  offset -= 2 */\n      dup2\n      tag_160\n      swap2\n      swap1\n      tag_126\n      jump\t// in\n    tag_160:\n      swap1\n      pop\n        /* \"Insurance.sol\":16305:16376  stringToBytes(offset, bytes(takerData.takerName), _serializedInsurance) */\n      tag_161\n        /* \"Insurance.sol\":16319:16325  offset */\n      dup2\n        /* \"Insurance.sol\":16333:16342  takerData */\n      0x10\n        /* \"Insurance.sol\":16333:16352  takerData.takerName */\n      0x00\n      add\n        /* \"Insurance.sol\":16305:16376  stringToBytes(offset, bytes(takerData.takerName), _serializedInsurance) */\n      dup1\n      sload\n      tag_162\n      swap1\n      tag_88\n      jump\t// in\n    tag_162:\n      dup1\n      0x1f\n      add\n      0x20\n      dup1\n      swap2\n      div\n      mul\n      0x20\n      add\n      mload(0x40)\n      swap1\n      dup2\n      add\n      0x40\n      mstore\n      dup1\n      swap3\n      swap2\n      swap1\n      dup2\n      dup2\n      mstore\n      0x20\n      add\n      dup3\n      dup1\n      sload\n      tag_163\n      swap1\n      tag_88\n      jump\t// in\n    tag_163:\n      dup1\n      iszero\n      tag_164\n      jumpi\n      dup1\n      0x1f\n      lt\n      tag_165\n      jumpi\n      0x0100\n      dup1\n      dup4\n      sload\n      div\n      mul\n      dup4\n      mstore\n      swap2\n      0x20\n      add\n      swap2\n      jump(tag_164)\n    tag_165:\n      dup3\n      add\n      swap2\n      swap1\n      0x00\n      mstore\n      keccak256(0x00, 0x20)\n      swap1\n    tag_166:\n      dup2\n      sload\n      dup2\n      mstore\n      swap1\n      0x01\n      add\n      swap1\n      0x20\n      add\n      dup1\n      dup4\n      gt\n      tag_166\n      jumpi\n      dup3\n      swap1\n      sub\n      0x1f\n      and\n      dup3\n      add\n      swap2\n    tag_164:\n      pop\n      pop\n      pop\n      pop\n      pop\n        /* \"Insurance.sol\":16355:16375  _serializedInsurance */\n      dup9\n        /* \"Insurance.sol\":16305:16318  stringToBytes */\n      tag_167\n        /* \"Insurance.sol\":16305:16376  stringToBytes(offset, bytes(takerData.takerName), _serializedInsurance) */\n      jump\t// in\n    tag_161:\n        /* \"Insurance.sol\":16396:16404  nameSize */\n      dup4\n        /* \"Insurance.sol\":16386:16404  offset -= nameSize */\n      0xffff\n      and\n      dup2\n      tag_168\n      swap2\n      swap1\n      tag_126\n      jump\t// in\n    tag_168:\n      swap1\n      pop\n        /* \"Insurance.sol\":16464:16518  uintToBytes(offset, addressSize, _serializedInsurance) */\n      tag_169\n        /* \"Insurance.sol\":16476:16482  offset */\n      dup2\n        /* \"Insurance.sol\":16484:16495  addressSize */\n      dup5\n        /* \"Insurance.sol\":16464:16518  uintToBytes(offset, addressSize, _serializedInsurance) */\n      0xffff\n      and\n        /* \"Insurance.sol\":16497:16517  _serializedInsurance */\n      dup9\n        /* \"Insurance.sol\":16464:16475  uintToBytes */\n      tag_128\n        /* \"Insurance.sol\":16464:16518  uintToBytes(offset, addressSize, _serializedInsurance) */\n      jump\t// in\n    tag_169:\n        /* \"Insurance.sol\":16538:16539  2 */\n      0x02\n        /* \"Insurance.sol\":16528:16539  offset -= 2 */\n      dup2\n      tag_170\n      swap2\n      swap1\n      tag_126\n      jump\t// in\n    tag_170:\n      swap1\n      pop\n        /* \"Insurance.sol\":16550:16624  stringToBytes(offset, bytes(takerData.takerAddress), _serializedInsurance) */\n      tag_171\n        /* \"Insurance.sol\":16564:16570  offset */\n      dup2\n        /* \"Insurance.sol\":16578:16587  takerData */\n      0x10\n        /* \"Insurance.sol\":16578:16600  takerData.takerAddress */\n      0x01\n      add\n        /* \"Insurance.sol\":16550:16624  stringToBytes(offset, bytes(takerData.takerAddress), _serializedInsurance) */\n      dup1\n      sload\n      tag_172\n      swap1\n      tag_88\n      jump\t// in\n    tag_172:\n      dup1\n      0x1f\n      add\n      0x20\n      dup1\n      swap2\n      div\n      mul\n      0x20\n      add\n      mload(0x40)\n      swap1\n      dup2\n      add\n      0x40\n      mstore\n      dup1\n      swap3\n      swap2\n      swap1\n      dup2\n      dup2\n      mstore\n      0x20\n      add\n      dup3\n      dup1\n      sload\n      tag_173\n      swap1\n      tag_88\n      jump\t// in\n    tag_173:\n      dup1\n      iszero\n      tag_174\n      jumpi\n      dup1\n      0x1f\n      lt\n      tag_175\n      jumpi\n      0x0100\n      dup1\n      dup4\n      sload\n      div\n      mul\n      dup4\n      mstore\n      swap2\n      0x20\n      add\n      swap2\n      jump(tag_174)\n    tag_175:\n      dup3\n      add\n      swap2\n      swap1\n      0x00\n      mstore\n      keccak256(0x00, 0x20)\n      swap1\n    tag_176:\n      dup2\n      sload\n      dup2\n      mstore\n      swap1\n      0x01\n      add\n      swap1\n      0x20\n      add\n      dup1\n      dup4\n      gt\n      tag_176\n      jumpi\n      dup3\n      swap1\n      sub\n      0x1f\n      and\n      dup3\n      add\n      swap2\n    tag_174:\n      pop\n      pop\n      pop\n      pop\n      pop\n        /* \"Insurance.sol\":16603:16623  _serializedInsurance */\n      dup9\n        /* \"Insurance.sol\":16550:16563  stringToBytes */\n      tag_167\n        /* \"Insurance.sol\":16550:16624  stringToBytes(offset, bytes(takerData.takerAddress), _serializedInsurance) */\n      jump\t// in\n    tag_171:\n        /* \"Insurance.sol\":16644:16655  addressSize */\n      dup3\n        /* \"Insurance.sol\":16634:16655  offset -= addressSize */\n      0xffff\n      and\n      dup2\n      tag_177\n      swap2\n      swap1\n      tag_126\n      jump\t// in\n    tag_177:\n      swap1\n      pop\n        /* \"Insurance.sol\":16713:16765  uintToBytes(offset, emailSize, _serializedInsurance) */\n      tag_178\n        /* \"Insurance.sol\":16725:16731  offset */\n      dup2\n        /* \"Insurance.sol\":16733:16742  emailSize */\n      dup4\n        /* \"Insurance.sol\":16713:16765  uintToBytes(offset, emailSize, _serializedInsurance) */\n      0xffff\n      and\n        /* \"Insurance.sol\":16744:16764  _serializedInsurance */\n      dup9\n        /* \"Insurance.sol\":16713:16724  uintToBytes */\n      tag_128\n        /* \"Insurance.sol\":16713:16765  uintToBytes(offset, emailSize, _serializedInsurance) */\n      jump\t// in\n    tag_178:\n        /* \"Insurance.sol\":16785:16786  2 */\n      0x02\n        /* \"Insurance.sol\":16775:16786  offset -= 2 */\n      dup2\n      tag_179\n      swap2\n      swap1\n      tag_126\n      jump\t// in\n    tag_179:\n      swap1\n      pop\n        /* \"Insurance.sol\":16797:16869  stringToBytes(offset, bytes(takerData.takerEmail), _serializedInsurance) */\n      tag_180\n        /* \"Insurance.sol\":16811:16817  offset */\n      dup2\n        /* \"Insurance.sol\":16825:16834  takerData */\n      0x10\n        /* \"Insurance.sol\":16825:16845  takerData.takerEmail */\n      0x02\n      add\n        /* \"Insurance.sol\":16797:16869  stringToBytes(offset, bytes(takerData.takerEmail), _serializedInsurance) */\n      dup1\n      sload\n      tag_181\n      swap1\n      tag_88\n      jump\t// in\n    tag_181:\n      dup1\n      0x1f\n      add\n      0x20\n      dup1\n      swap2\n      div\n      mul\n      0x20\n      add\n      mload(0x40)\n      swap1\n      dup2\n      add\n      0x40\n      mstore\n      dup1\n      swap3\n      swap2\n      swap1\n      dup2\n      dup2\n      mstore\n      0x20\n      add\n      dup3\n      dup1\n      sload\n      tag_182\n      swap1\n      tag_88\n      jump\t// in\n    tag_182:\n      dup1\n      iszero\n      tag_183\n      jumpi\n      dup1\n      0x1f\n      lt\n      tag_184\n      jumpi\n      0x0100\n      dup1\n      dup4\n      sload\n      div\n      mul\n      dup4\n      mstore\n      swap2\n      0x20\n      add\n      swap2\n      jump(tag_183)\n    tag_184:\n      dup3\n      add\n      swap2\n      swap1\n      0x00\n      mstore\n      keccak256(0x00, 0x20)\n      swap1\n    tag_185:\n      dup2\n      sload\n      dup2\n      mstore\n      swap1\n      0x01\n      add\n      swap1\n      0x20\n      add\n      dup1\n      dup4\n      gt\n      tag_185\n      jumpi\n      dup3\n      swap1\n      sub\n      0x1f\n      and\n      dup3\n      add\n      swap2\n    tag_183:\n      pop\n      pop\n      pop\n      pop\n      pop\n        /* \"Insurance.sol\":16848:16868  _serializedInsurance */\n      dup9\n        /* \"Insurance.sol\":16797:16810  stringToBytes */\n      tag_167\n        /* \"Insurance.sol\":16797:16869  stringToBytes(offset, bytes(takerData.takerEmail), _serializedInsurance) */\n      jump\t// in\n    tag_180:\n        /* \"Insurance.sol\":16889:16898  emailSize */\n      dup2\n        /* \"Insurance.sol\":16879:16898  offset -= emailSize */\n      0xffff\n      and\n      dup2\n      tag_186\n      swap2\n      swap1\n      tag_126\n      jump\t// in\n    tag_186:\n      swap1\n      pop\n        /* \"Insurance.sol\":16974:17044  uintToBytes(offset, insuranceData.insuredNumber, _serializedInsurance) */\n      tag_187\n        /* \"Insurance.sol\":16986:16992  offset */\n      dup2\n        /* \"Insurance.sol\":16994:17007  insuranceData */\n      0x0a\n        /* \"Insurance.sol\":16994:17021  insuranceData.insuredNumber */\n      0x00\n      add\n      0x06\n      swap1\n      sload\n      swap1\n      0x0100\n      exp\n      swap1\n      div\n      0xffff\n      and\n        /* \"Insurance.sol\":16974:17044  uintToBytes(offset, insuranceData.insuredNumber, _serializedInsurance) */\n      0xffff\n      and\n        /* \"Insurance.sol\":17023:17043  _serializedInsurance */\n      dup9\n        /* \"Insurance.sol\":16974:16985  uintToBytes */\n      tag_128\n        /* \"Insurance.sol\":16974:17044  uintToBytes(offset, insuranceData.insuredNumber, _serializedInsurance) */\n      jump\t// in\n    tag_187:\n        /* \"Insurance.sol\":17064:17065  2 */\n      0x02\n        /* \"Insurance.sol\":17054:17065  offset -= 2 */\n      dup2\n      tag_188\n      swap2\n      swap1\n      tag_126\n      jump\t// in\n    tag_188:\n      swap1\n      pop\n        /* \"Insurance.sol\":17122:17131  uint256 i */\n      0x00\n        /* \"Insurance.sol\":17117:17694  for (uint256 i = 0; i < insuranceData.insuredNumber; i++) {... */\n    tag_189:\n        /* \"Insurance.sol\":17141:17154  insuranceData */\n      0x0a\n        /* \"Insurance.sol\":17141:17168  insuranceData.insuredNumber */\n      0x00\n      add\n      0x06\n      swap1\n      sload\n      swap1\n      0x0100\n      exp\n      swap1\n      div\n      0xffff\n      and\n        /* \"Insurance.sol\":17137:17168  i < insuranceData.insuredNumber */\n      0xffff\n      and\n        /* \"Insurance.sol\":17137:17138  i */\n      dup2\n        /* \"Insurance.sol\":17137:17168  i < insuranceData.insuredNumber */\n      lt\n        /* \"Insurance.sol\":17117:17694  for (uint256 i = 0; i < insuranceData.insuredNumber; i++) {... */\n      iszero\n      tag_190\n      jumpi\n        /* \"Insurance.sol\":17225:17296  bytes32ToBytes(offset, insuranceData.insureds[i], _serializedInsurance) */\n      tag_192\n        /* \"Insurance.sol\":17240:17246  offset */\n      dup3\n        /* \"Insurance.sol\":17248:17261  insuranceData */\n      0x0a\n        /* \"Insurance.sol\":17248:17270  insuranceData.insureds */\n      0x05\n      add\n        /* \"Insurance.sol\":17271:17272  i */\n      dup4\n        /* \"Insurance.sol\":17248:17273  insuranceData.insureds[i] */\n      dup2\n      sload\n      dup2\n      lt\n      tag_193\n      jumpi\n      mstore(0x00, 0x4e487b7100000000000000000000000000000000000000000000000000000000)\n      mstore(0x04, 0x32)\n      revert(0x00, 0x24)\n    tag_193:\n      swap1\n      0x00\n      mstore\n      keccak256(0x00, 0x20)\n      add\n      sload\n        /* \"Insurance.sol\":17275:17295  _serializedInsurance */\n      dup10\n        /* \"Insurance.sol\":17225:17239  bytes32ToBytes */\n      tag_124\n        /* \"Insurance.sol\":17225:17296  bytes32ToBytes(offset, insuranceData.insureds[i], _serializedInsurance) */\n      jump\t// in\n    tag_192:\n        /* \"Insurance.sol\":17320:17322  32 */\n      0x20\n        /* \"Insurance.sol\":17310:17322  offset -= 32 */\n      dup3\n      tag_195\n      swap2\n      swap1\n      tag_126\n      jump\t// in\n    tag_195:\n      swap2\n      pop\n        /* \"Insurance.sol\":17388:17478  bytes32ToBytes(offset, insuredNegPcrHash[insuranceData.insureds[i]], _serializedInsurance) */\n      tag_196\n        /* \"Insurance.sol\":17403:17409  offset */\n      dup3\n        /* \"Insurance.sol\":17411:17428  insuredNegPcrHash */\n      0x07\n        /* \"Insurance.sol\":17411:17455  insuredNegPcrHash[insuranceData.insureds[i]] */\n      0x00\n        /* \"Insurance.sol\":17429:17442  insuranceData */\n      0x0a\n        /* \"Insurance.sol\":17429:17451  insuranceData.insureds */\n      0x05\n      add\n        /* \"Insurance.sol\":17452:17453  i */\n      dup6\n        /* \"Insurance.sol\":17429:17454  insuranceData.insureds[i] */\n      dup2\n      sload\n      dup2\n      lt\n      tag_197\n      jumpi\n      mstore(0x00, 0x4e487b7100000000000000000000000000000000000000000000000000000000)\n      mstore(0x04, 0x32)\n      revert(0x00, 0x24)\n    tag_197:\n      swap1\n      0x00\n      mstore\n      keccak256(0x00, 0x20)\n      add\n      sload\n        /* \"Insurance.sol\":17411:17455  insuredNegPcrHash[insuranceData.insureds[i]] */\n      dup2\n      mstore\n      0x20\n      add\n      swap1\n      dup2\n      mstore\n      0x20\n      add\n      0x00\n      keccak256\n      sload\n        /* \"Insurance.sol\":17457:17477  _serializedInsurance */\n      dup10\n        /* \"Insurance.sol\":17388:17402  bytes32ToBytes */\n      tag_124\n        /* \"Insurance.sol\":17388:17478  bytes32ToBytes(offset, insuredNegPcrHash[insuranceData.insureds[i]], _serializedInsurance) */\n      jump\t// in\n    tag_196:\n        /* \"Insurance.sol\":17502:17504  32 */\n      0x20\n        /* \"Insurance.sol\":17492:17504  offset -= 32 */\n      dup3\n      tag_199\n      swap2\n      swap1\n      tag_126\n      jump\t// in\n    tag_199:\n      swap2\n      pop\n        /* \"Insurance.sol\":17570:17657  uintToBytes(offset, insuredNegPcrDate[insuranceData.insureds[i]], _serializedInsurance) */\n      tag_200\n        /* \"Insurance.sol\":17582:17588  offset */\n      dup3\n        /* \"Insurance.sol\":17590:17607  insuredNegPcrDate */\n      0x08\n        /* \"Insurance.sol\":17590:17634  insuredNegPcrDate[insuranceData.insureds[i]] */\n      0x00\n        /* \"Insurance.sol\":17608:17621  insuranceData */\n      0x0a\n        /* \"Insurance.sol\":17608:17630  insuranceData.insureds */\n      0x05\n      add\n        /* \"Insurance.sol\":17631:17632  i */\n      dup6\n        /* \"Insurance.sol\":17608:17633  insuranceData.insureds[i] */\n      dup2\n      sload\n      dup2\n      lt\n      tag_201\n      jumpi\n      mstore(0x00, 0x4e487b7100000000000000000000000000000000000000000000000000000000)\n      mstore(0x04, 0x32)\n      revert(0x00, 0x24)\n    tag_201:\n      swap1\n      0x00\n      mstore\n      keccak256(0x00, 0x20)\n      add\n      sload\n        /* \"Insurance.sol\":17590:17634  insuredNegPcrDate[insuranceData.insureds[i]] */\n      dup2\n      mstore\n      0x20\n      add\n      swap1\n      dup2\n      mstore\n      0x20\n      add\n      0x00\n      keccak256\n      sload\n        /* \"Insurance.sol\":17636:17656  _serializedInsurance */\n      dup10\n        /* \"Insurance.sol\":17570:17581  uintToBytes */\n      tag_128\n        /* \"Insurance.sol\":17570:17657  uintToBytes(offset, insuredNegPcrDate[insuranceData.insureds[i]], _serializedInsurance) */\n      jump\t// in\n    tag_200:\n        /* \"Insurance.sol\":17681:17683  32 */\n      0x20\n        /* \"Insurance.sol\":17671:17683  offset -= 32 */\n      dup3\n      tag_203\n      swap2\n      swap1\n      tag_126\n      jump\t// in\n    tag_203:\n      swap2\n      pop\n        /* \"Insurance.sol\":17170:17173  i++ */\n      dup1\n      dup1\n      tag_204\n      swap1\n      tag_205\n      jump\t// in\n    tag_204:\n      swap2\n      pop\n      pop\n        /* \"Insurance.sol\":17117:17694  for (uint256 i = 0; i < insuranceData.insuredNumber; i++) {... */\n      jump(tag_189)\n    tag_190:\n      pop\n        /* \"Insurance.sol\":17770:17836  uintToBytes(offset, insuranceData.pcrNumber, _serializedInsurance) */\n      tag_206\n        /* \"Insurance.sol\":17782:17788  offset */\n      dup2\n        /* \"Insurance.sol\":17790:17803  insuranceData */\n      0x0a\n        /* \"Insurance.sol\":17790:17813  insuranceData.pcrNumber */\n      0x00\n      add\n      0x04\n      swap1\n      sload\n      swap1\n      0x0100\n      exp\n      swap1\n      div\n      0xffff\n      and\n        /* \"Insurance.sol\":17770:17836  uintToBytes(offset, insuranceData.pcrNumber, _serializedInsurance) */\n      0xffff\n      and\n        /* \"Insurance.sol\":17815:17835  _serializedInsurance */\n      dup9\n        /* \"Insurance.sol\":17770:17781  uintToBytes */\n      tag_128\n        /* \"Insurance.sol\":17770:17836  uintToBytes(offset, insuranceData.pcrNumber, _serializedInsurance) */\n      jump\t// in\n    tag_206:\n        /* \"Insurance.sol\":17856:17858  32 */\n      0x20\n        /* \"Insurance.sol\":17846:17858  offset -= 32 */\n      dup2\n      tag_207\n      swap2\n      swap1\n      tag_126\n      jump\t// in\n    tag_207:\n      swap1\n      pop\n        /* \"Insurance.sol\":17869:17886  bytes32 resultPcr */\n      0x00\n        /* \"Insurance.sol\":17897:17917  bytes32 insuredIdPcr */\n      dup1\n        /* \"Insurance.sol\":17928:17950  uint256 requestDatePcr */\n      0x00\n        /* \"Insurance.sol\":17961:17982  uint256 resultDatePcr */\n      dup1\n        /* \"Insurance.sol\":17992:18005  bytes32 idPcr */\n      0x00\n        /* \"Insurance.sol\":18049:18058  uint256 i */\n      dup1\n        /* \"Insurance.sol\":18061:18062  0 */\n      0x00\n        /* \"Insurance.sol\":18049:18062  uint256 i = 0 */\n      swap1\n      pop\n        /* \"Insurance.sol\":18044:19216  for (uint256 i = 0; i < insuranceData.insuredNumber; i++) {... */\n    tag_208:\n        /* \"Insurance.sol\":18068:18081  insuranceData */\n      0x0a\n        /* \"Insurance.sol\":18068:18095  insuranceData.insuredNumber */\n      0x00\n      add\n      0x06\n      swap1\n      sload\n      swap1\n      0x0100\n      exp\n      swap1\n      div\n      0xffff\n      and\n        /* \"Insurance.sol\":18064:18095  i < insuranceData.insuredNumber */\n      0xffff\n      and\n        /* \"Insurance.sol\":18064:18065  i */\n      dup2\n        /* \"Insurance.sol\":18064:18095  i < insuranceData.insuredNumber */\n      lt\n        /* \"Insurance.sol\":18044:19216  for (uint256 i = 0; i < insuranceData.insuredNumber; i++) {... */\n      iszero\n      tag_209\n      jumpi\n        /* \"Insurance.sol\":18121:18130  uint256 j */\n      0x00\n        /* \"Insurance.sol\":18116:19206  for (uint256 j = 0; j < insuredPCRs[insuranceData.insureds[i]].length; j++) {... */\n    tag_211:\n        /* \"Insurance.sol\":18140:18151  insuredPCRs */\n      0x03\n        /* \"Insurance.sol\":18140:18178  insuredPCRs[insuranceData.insureds[i]] */\n      0x00\n        /* \"Insurance.sol\":18152:18165  insuranceData */\n      0x0a\n        /* \"Insurance.sol\":18152:18174  insuranceData.insureds */\n      0x05\n      add\n        /* \"Insurance.sol\":18175:18176  i */\n      dup5\n        /* \"Insurance.sol\":18152:18177  insuranceData.insureds[i] */\n      dup2\n      sload\n      dup2\n      lt\n      tag_214\n      jumpi\n      mstore(0x00, 0x4e487b7100000000000000000000000000000000000000000000000000000000)\n      mstore(0x04, 0x32)\n      revert(0x00, 0x24)\n    tag_214:\n      swap1\n      0x00\n      mstore\n      keccak256(0x00, 0x20)\n      add\n      sload\n        /* \"Insurance.sol\":18140:18178  insuredPCRs[insuranceData.insureds[i]] */\n      dup2\n      mstore\n      0x20\n      add\n      swap1\n      dup2\n      mstore\n      0x20\n      add\n      0x00\n      keccak256\n        /* \"Insurance.sol\":18140:18185  insuredPCRs[insuranceData.insureds[i]].length */\n      dup1\n      sload\n      swap1\n      pop\n        /* \"Insurance.sol\":18136:18137  j */\n      dup2\n        /* \"Insurance.sol\":18136:18185  j < insuredPCRs[insuranceData.insureds[i]].length */\n      lt\n        /* \"Insurance.sol\":18116:19206  for (uint256 j = 0; j < insuredPCRs[insuranceData.insureds[i]].length; j++) {... */\n      iszero\n      tag_212\n      jumpi\n        /* \"Insurance.sol\":18215:18226  isPcrActive */\n      0x05\n        /* \"Insurance.sol\":18215:18269  isPcrActive[insuredPCRs[insuranceData.insureds[i]][j]] */\n      0x00\n        /* \"Insurance.sol\":18227:18238  insuredPCRs */\n      0x03\n        /* \"Insurance.sol\":18227:18265  insuredPCRs[insuranceData.insureds[i]] */\n      0x00\n        /* \"Insurance.sol\":18239:18252  insuranceData */\n      0x0a\n        /* \"Insurance.sol\":18239:18261  insuranceData.insureds */\n      0x05\n      add\n        /* \"Insurance.sol\":18262:18263  i */\n      dup7\n        /* \"Insurance.sol\":18239:18264  insuranceData.insureds[i] */\n      dup2\n      sload\n      dup2\n      lt\n      tag_216\n      jumpi\n      mstore(0x00, 0x4e487b7100000000000000000000000000000000000000000000000000000000)\n      mstore(0x04, 0x32)\n      revert(0x00, 0x24)\n    tag_216:\n      swap1\n      0x00\n      mstore\n      keccak256(0x00, 0x20)\n      add\n      sload\n        /* \"Insurance.sol\":18227:18265  insuredPCRs[insuranceData.insureds[i]] */\n      dup2\n      mstore\n      0x20\n      add\n      swap1\n      dup2\n      mstore\n      0x20\n      add\n      0x00\n      keccak256\n        /* \"Insurance.sol\":18266:18267  j */\n      dup4\n        /* \"Insurance.sol\":18227:18268  insuredPCRs[insuranceData.insureds[i]][j] */\n      dup2\n      sload\n      dup2\n      lt\n      tag_218\n      jumpi\n      mstore(0x00, 0x4e487b7100000000000000000000000000000000000000000000000000000000)\n      mstore(0x04, 0x32)\n      revert(0x00, 0x24)\n    tag_218:\n      swap1\n      0x00\n      mstore\n      keccak256(0x00, 0x20)\n      add\n      sload\n        /* \"Insurance.sol\":18215:18269  isPcrActive[insuredPCRs[insuranceData.insureds[i]][j]] */\n      dup2\n      mstore\n      0x20\n      add\n      swap1\n      dup2\n      mstore\n      0x20\n      add\n      0x00\n      keccak256\n      0x00\n      swap1\n      sload\n      swap1\n      0x0100\n      exp\n      swap1\n      div\n      0xff\n      and\n        /* \"Insurance.sol\":18210:18320  if (!isPcrActive[insuredPCRs[insuranceData.insureds[i]][j]]) {... */\n      tag_220\n      jumpi\n        /* \"Insurance.sol\":18293:18301  continue */\n      jump(tag_213)\n        /* \"Insurance.sol\":18210:18320  if (!isPcrActive[insuredPCRs[insuranceData.insureds[i]][j]]) {... */\n    tag_220:\n        /* \"Insurance.sol\":18404:18453  getPCR(insuredPCRs[insuranceData.insureds[i]][j]) */\n      tag_221\n        /* \"Insurance.sol\":18411:18422  insuredPCRs */\n      0x03\n        /* \"Insurance.sol\":18411:18449  insuredPCRs[insuranceData.insureds[i]] */\n      0x00\n        /* \"Insurance.sol\":18423:18436  insuranceData */\n      0x0a\n        /* \"Insurance.sol\":18423:18445  insuranceData.insureds */\n      0x05\n      add\n        /* \"Insurance.sol\":18446:18447  i */\n      dup6\n        /* \"Insurance.sol\":18423:18448  insuranceData.insureds[i] */\n      dup2\n      sload\n      dup2\n      lt\n      tag_222\n      jumpi\n      mstore(0x00, 0x4e487b7100000000000000000000000000000000000000000000000000000000)\n      mstore(0x04, 0x32)\n      revert(0x00, 0x24)\n    tag_222:\n      swap1\n      0x00\n      mstore\n      keccak256(0x00, 0x20)\n      add\n      sload\n        /* \"Insurance.sol\":18411:18449  insuredPCRs[insuranceData.insureds[i]] */\n      dup2\n      mstore\n      0x20\n      add\n      swap1\n      dup2\n      mstore\n      0x20\n      add\n      0x00\n      keccak256\n        /* \"Insurance.sol\":18450:18451  j */\n      dup3\n        /* \"Insurance.sol\":18411:18452  insuredPCRs[insuranceData.insureds[i]][j] */\n      dup2\n      sload\n      dup2\n      lt\n      tag_224\n      jumpi\n      mstore(0x00, 0x4e487b7100000000000000000000000000000000000000000000000000000000)\n      mstore(0x04, 0x32)\n      revert(0x00, 0x24)\n    tag_224:\n      swap1\n      0x00\n      mstore\n      keccak256(0x00, 0x20)\n      add\n      sload\n        /* \"Insurance.sol\":18404:18410  getPCR */\n      tag_25\n        /* \"Insurance.sol\":18404:18453  getPCR(insuredPCRs[insuranceData.insureds[i]][j]) */\n      jump\t// in\n    tag_221:\n        /* \"Insurance.sol\":18337:18453  (resultPcr, insuredIdPcr, requestDatePcr, resultDatePcr, idPcr,) = getPCR(insuredPCRs[insuranceData.insureds[i]][j]) */\n      pop\n      dup1\n      swap8\n      pop\n      dup2\n      swap9\n      pop\n      dup3\n      swap10\n      pop\n      dup4\n      swap11\n      pop\n      dup5\n      swap12\n      pop\n      pop\n      pop\n      pop\n      pop\n      pop\n        /* \"Insurance.sol\":18507:18558  bytes32ToBytes(offset, idPcr, _serializedInsurance) */\n      tag_226\n        /* \"Insurance.sol\":18522:18528  offset */\n      dup9\n        /* \"Insurance.sol\":18530:18535  idPcr */\n      dup5\n        /* \"Insurance.sol\":18537:18557  _serializedInsurance */\n      dup16\n        /* \"Insurance.sol\":18507:18521  bytes32ToBytes */\n      tag_124\n        /* \"Insurance.sol\":18507:18558  bytes32ToBytes(offset, idPcr, _serializedInsurance) */\n      jump\t// in\n    tag_226:\n        /* \"Insurance.sol\":18586:18588  32 */\n      0x20\n        /* \"Insurance.sol\":18576:18588  offset -= 32 */\n      dup9\n      tag_227\n      swap2\n      swap1\n      tag_126\n      jump\t// in\n    tag_227:\n      swap8\n      pop\n        /* \"Insurance.sol\":18652:18708  uintToBytes(offset, resultDatePcr, _serializedInsurance) */\n      tag_228\n        /* \"Insurance.sol\":18664:18670  offset */\n      dup9\n        /* \"Insurance.sol\":18672:18685  resultDatePcr */\n      dup6\n        /* \"Insurance.sol\":18687:18707  _serializedInsurance */\n      dup16\n        /* \"Insurance.sol\":18652:18663  uintToBytes */\n      tag_128\n        /* \"Insurance.sol\":18652:18708  uintToBytes(offset, resultDatePcr, _serializedInsurance) */\n      jump\t// in\n    tag_228:\n        /* \"Insurance.sol\":18736:18738  32 */\n      0x20\n        /* \"Insurance.sol\":18726:18738  offset -= 32 */\n      dup9\n      tag_229\n      swap2\n      swap1\n      tag_126\n      jump\t// in\n    tag_229:\n      swap8\n      pop\n        /* \"Insurance.sol\":18803:18860  uintToBytes(offset, requestDatePcr, _serializedInsurance) */\n      tag_230\n        /* \"Insurance.sol\":18815:18821  offset */\n      dup9\n        /* \"Insurance.sol\":18823:18837  requestDatePcr */\n      dup7\n        /* \"Insurance.sol\":18839:18859  _serializedInsurance */\n      dup16\n        /* \"Insurance.sol\":18803:18814  uintToBytes */\n      tag_128\n        /* \"Insurance.sol\":18803:18860  uintToBytes(offset, requestDatePcr, _serializedInsurance) */\n      jump\t// in\n    tag_230:\n        /* \"Insurance.sol\":18888:18890  32 */\n      0x20\n        /* \"Insurance.sol\":18878:18890  offset -= 32 */\n      dup9\n      tag_231\n      swap2\n      swap1\n      tag_126\n      jump\t// in\n    tag_231:\n      swap8\n      pop\n        /* \"Insurance.sol\":18956:19014  bytes32ToBytes(offset, insuredIdPcr, _serializedInsurance) */\n      tag_232\n        /* \"Insurance.sol\":18971:18977  offset */\n      dup9\n        /* \"Insurance.sol\":18979:18991  insuredIdPcr */\n      dup8\n        /* \"Insurance.sol\":18993:19013  _serializedInsurance */\n      dup16\n        /* \"Insurance.sol\":18956:18970  bytes32ToBytes */\n      tag_124\n        /* \"Insurance.sol\":18956:19014  bytes32ToBytes(offset, insuredIdPcr, _serializedInsurance) */\n      jump\t// in\n    tag_232:\n        /* \"Insurance.sol\":19042:19044  32 */\n      0x20\n        /* \"Insurance.sol\":19032:19044  offset -= 32 */\n      dup9\n      tag_233\n      swap2\n      swap1\n      tag_126\n      jump\t// in\n    tag_233:\n      swap8\n      pop\n        /* \"Insurance.sol\":19106:19161  bytes32ToBytes(offset, resultPcr, _serializedInsurance) */\n      tag_234\n        /* \"Insurance.sol\":19121:19127  offset */\n      dup9\n        /* \"Insurance.sol\":19129:19138  resultPcr */\n      dup9\n        /* \"Insurance.sol\":19140:19160  _serializedInsurance */\n      dup16\n        /* \"Insurance.sol\":19106:19120  bytes32ToBytes */\n      tag_124\n        /* \"Insurance.sol\":19106:19161  bytes32ToBytes(offset, resultPcr, _serializedInsurance) */\n      jump\t// in\n    tag_234:\n        /* \"Insurance.sol\":19189:19191  32 */\n      0x20\n        /* \"Insurance.sol\":19179:19191  offset -= 32 */\n      dup9\n      tag_235\n      swap2\n      swap1\n      tag_126\n      jump\t// in\n    tag_235:\n      swap8\n      pop\n        /* \"Insurance.sol\":18116:19206  for (uint256 j = 0; j < insuredPCRs[insuranceData.insureds[i]].length; j++) {... */\n    tag_213:\n        /* \"Insurance.sol\":18187:18190  j++ */\n      dup1\n      dup1\n      tag_236\n      swap1\n      tag_205\n      jump\t// in\n    tag_236:\n      swap2\n      pop\n      pop\n        /* \"Insurance.sol\":18116:19206  for (uint256 j = 0; j < insuredPCRs[insuranceData.insureds[i]].length; j++) {... */\n      jump(tag_211)\n    tag_212:\n      pop\n        /* \"Insurance.sol\":18097:18100  i++ */\n      dup1\n      dup1\n      tag_237\n      swap1\n      tag_205\n      jump\t// in\n    tag_237:\n      swap2\n      pop\n      pop\n        /* \"Insurance.sol\":18044:19216  for (uint256 i = 0; i < insuranceData.insuredNumber; i++) {... */\n      jump(tag_208)\n    tag_209:\n      pop\n        /* \"Insurance.sol\":12794:19222  function serializeInsurance() external view returns (bytes memory _serializedInsurance, uint256 _size) {... */\n      pop\n      pop\n      pop\n      pop\n      pop\n      pop\n      pop\n      pop\n      pop\n      swap1\n      swap2\n      jump\t// out\n        /* \"Insurance.sol\":12473:12634  function addSpcAddress(address _spcAddress) external {... */\n    tag_39:\n        /* \"Insurance.sol\":12545:12560  spcAddressAdded */\n      0x01\n      0x14\n      swap1\n      sload\n      swap1\n      0x0100\n      exp\n      swap1\n      div\n      0xff\n      and\n        /* \"Insurance.sol\":12544:12560  !spcAddressAdded */\n      iszero\n        /* \"Insurance.sol\":12536:12561  require(!spcAddressAdded) */\n      tag_239\n      jumpi\n      0x00\n      dup1\n      revert\n    tag_239:\n        /* \"Insurance.sol\":12589:12593  true */\n      0x01\n        /* \"Insurance.sol\":12571:12586  spcAddressAdded */\n      dup1\n      0x14\n        /* \"Insurance.sol\":12571:12593  spcAddressAdded = true */\n      0x0100\n      exp\n      dup2\n      sload\n      dup2\n      0xff\n      mul\n      not\n      and\n      swap1\n      dup4\n      iszero\n      iszero\n      mul\n      or\n      swap1\n      sstore\n      pop\n        /* \"Insurance.sol\":12616:12627  _spcAddress */\n      dup1\n        /* \"Insurance.sol\":12603:12613  spcAddress */\n      0x01\n      0x00\n        /* \"Insurance.sol\":12603:12627  spcAddress = _spcAddress */\n      0x0100\n      exp\n      dup2\n      sload\n      dup2\n      0xffffffffffffffffffffffffffffffffffffffff\n      mul\n      not\n      and\n      swap1\n      dup4\n      0xffffffffffffffffffffffffffffffffffffffff\n      and\n      mul\n      or\n      swap1\n      sstore\n      pop\n        /* \"Insurance.sol\":12473:12634  function addSpcAddress(address _spcAddress) external {... */\n      pop\n      jump\t// out\n        /* \"Insurance.sol\":7879:8694  function addPCRtoInsured(... */\n    tag_43:\n        /* \"Insurance.sol\":8055:8073  insuredInInsurance */\n      0x04\n        /* \"Insurance.sol\":8055:8085  insuredInInsurance[_insuredId] */\n      0x00\n        /* \"Insurance.sol\":8074:8084  _insuredId */\n      dup6\n        /* \"Insurance.sol\":8055:8085  insuredInInsurance[_insuredId] */\n      dup2\n      mstore\n      0x20\n      add\n      swap1\n      dup2\n      mstore\n      0x20\n      add\n      0x00\n      keccak256\n      0x00\n      swap1\n      sload\n      swap1\n      0x0100\n      exp\n      swap1\n      div\n      0xff\n      and\n        /* \"Insurance.sol\":8047:8133  require(insuredInInsurance[_insuredId], \"The id of the insured is not in the policy.\") */\n      tag_241\n      jumpi\n      mload(0x40)\n      0x08c379a000000000000000000000000000000000000000000000000000000000\n      dup2\n      mstore\n      0x04\n      add\n      tag_242\n      swap1\n      tag_243\n      jump\t// in\n    tag_242:\n      mload(0x40)\n      dup1\n      swap2\n      sub\n      swap1\n      revert\n    tag_241:\n        /* \"Insurance.sol\":8152:8163  isPcrActive */\n      0x05\n        /* \"Insurance.sol\":8152:8171  isPcrActive[_idPcr] */\n      0x00\n        /* \"Insurance.sol\":8164:8170  _idPcr */\n      dup5\n        /* \"Insurance.sol\":8152:8171  isPcrActive[_idPcr] */\n      dup2\n      mstore\n      0x20\n      add\n      swap1\n      dup2\n      mstore\n      0x20\n      add\n      0x00\n      keccak256\n      0x00\n      swap1\n      sload\n      swap1\n      0x0100\n      exp\n      swap1\n      div\n      0xff\n      and\n        /* \"Insurance.sol\":8151:8171  !isPcrActive[_idPcr] */\n      iszero\n        /* \"Insurance.sol\":8143:8204  require(!isPcrActive[_idPcr], \"Ya existe una PCR con ese ID\") */\n      tag_244\n      jumpi\n      mload(0x40)\n      0x08c379a000000000000000000000000000000000000000000000000000000000\n      dup2\n      mstore\n      0x04\n      add\n      tag_245\n      swap1\n      tag_246\n      jump\t// in\n    tag_245:\n      mload(0x40)\n      dup1\n      swap2\n      sub\n      swap1\n      revert\n    tag_244:\n        /* \"Insurance.sol\":8214:8225  insuredPCRs */\n      0x03\n        /* \"Insurance.sol\":8214:8237  insuredPCRs[_insuredId] */\n      0x00\n        /* \"Insurance.sol\":8226:8236  _insuredId */\n      dup6\n        /* \"Insurance.sol\":8214:8237  insuredPCRs[_insuredId] */\n      dup2\n      mstore\n      0x20\n      add\n      swap1\n      dup2\n      mstore\n      0x20\n      add\n      0x00\n      keccak256\n        /* \"Insurance.sol\":8243:8249  _idPcr */\n      dup4\n        /* \"Insurance.sol\":8214:8250  insuredPCRs[_insuredId].push(_idPcr) */\n      swap1\n      dup1\n      0x01\n      dup2\n      sload\n      add\n      dup1\n      dup3\n      sstore\n      dup1\n      swap2\n      pop\n      pop\n      0x01\n      swap1\n      sub\n      swap1\n      0x00\n      mstore\n      keccak256(0x00, 0x20)\n      add\n      0x00\n      swap1\n      swap2\n      swap1\n      swap2\n      swap1\n      swap2\n      pop\n      sstore\n        /* \"Insurance.sol\":8282:8293  insuredPCRs */\n      0x03\n        /* \"Insurance.sol\":8282:8305  insuredPCRs[_insuredId] */\n      0x00\n        /* \"Insurance.sol\":8294:8304  _insuredId */\n      dup6\n        /* \"Insurance.sol\":8282:8305  insuredPCRs[_insuredId] */\n      dup2\n      mstore\n      0x20\n      add\n      swap1\n      dup2\n      mstore\n      0x20\n      add\n      0x00\n      keccak256\n        /* \"Insurance.sol\":8282:8312  insuredPCRs[_insuredId].length */\n      dup1\n      sload\n      swap1\n      pop\n        /* \"Insurance.sol\":8260:8271  pcrLocation */\n      0x02\n        /* \"Insurance.sol\":8260:8279  pcrLocation[_idPcr] */\n      0x00\n        /* \"Insurance.sol\":8272:8278  _idPcr */\n      dup6\n        /* \"Insurance.sol\":8260:8279  pcrLocation[_idPcr] */\n      dup2\n      mstore\n      0x20\n      add\n      swap1\n      dup2\n      mstore\n      0x20\n      add\n      0x00\n      keccak256\n        /* \"Insurance.sol\":8260:8312  pcrLocation[_idPcr] = insuredPCRs[_insuredId].length */\n      dup2\n      swap1\n      sstore\n      pop\n        /* \"Insurance.sol\":8349:8359  _insuredId */\n      dup4\n        /* \"Insurance.sol\":8322:8338  pcrIdToInsuredId */\n      0x06\n        /* \"Insurance.sol\":8322:8346  pcrIdToInsuredId[_idPcr] */\n      0x00\n        /* \"Insurance.sol\":8339:8345  _idPcr */\n      dup6\n        /* \"Insurance.sol\":8322:8346  pcrIdToInsuredId[_idPcr] */\n      dup2\n      mstore\n      0x20\n      add\n      swap1\n      dup2\n      mstore\n      0x20\n      add\n      0x00\n      keccak256\n        /* \"Insurance.sol\":8322:8359  pcrIdToInsuredId[_idPcr] = _insuredId */\n      dup2\n      swap1\n      sstore\n      pop\n        /* \"Insurance.sol\":8391:8616  PcrData({... */\n      mload(0x40)\n      dup1\n      0xc0\n      add\n      0x40\n      mstore\n      dup1\n      0x554e444546494e45440000000000000000000000000000000000000000000000\n      dup2\n      mstore\n      0x20\n      add\n        /* \"Insurance.sol\":8450:8456  _idPcr */\n      dup5\n        /* \"Insurance.sol\":8391:8616  PcrData({... */\n      dup2\n      mstore\n      0x20\n      add\n        /* \"Insurance.sol\":8482:8492  _insuredId */\n      dup6\n        /* \"Insurance.sol\":8391:8616  PcrData({... */\n      dup2\n      mstore\n      0x20\n      add\n        /* \"Insurance.sol\":8519:8531  _requestDate */\n      dup4\n        /* \"Insurance.sol\":8391:8616  PcrData({... */\n      dup2\n      mstore\n      0x20\n      add\n        /* \"Insurance.sol\":8557:8558  0 */\n      0x00\n        /* \"Insurance.sol\":8391:8616  PcrData({... */\n      dup2\n      mstore\n      0x20\n      add\n        /* \"Insurance.sol\":8589:8605  _contractAddress */\n      dup3\n        /* \"Insurance.sol\":8391:8616  PcrData({... */\n      0xffffffffffffffffffffffffffffffffffffffff\n      and\n      dup2\n      mstore\n      pop\n        /* \"Insurance.sol\":8369:8380  pcrIdToData */\n      0x09\n        /* \"Insurance.sol\":8369:8388  pcrIdToData[_idPcr] */\n      0x00\n        /* \"Insurance.sol\":8381:8387  _idPcr */\n      dup6\n        /* \"Insurance.sol\":8369:8388  pcrIdToData[_idPcr] */\n      dup2\n      mstore\n      0x20\n      add\n      swap1\n      dup2\n      mstore\n      0x20\n      add\n      0x00\n      keccak256\n        /* \"Insurance.sol\":8369:8616  pcrIdToData[_idPcr] = PcrData({... */\n      0x00\n      dup3\n      add\n      mload\n      dup2\n      0x00\n      add\n      sstore\n      0x20\n      dup3\n      add\n      mload\n      dup2\n      0x01\n      add\n      sstore\n      0x40\n      dup3\n      add\n      mload\n      dup2\n      0x02\n      add\n      sstore\n      0x60\n      dup3\n      add\n      mload\n      dup2\n      0x03\n      add\n      sstore\n      0x80\n      dup3\n      add\n      mload\n      dup2\n      0x04\n      add\n      sstore\n      0xa0\n      dup3\n      add\n      mload\n      dup2\n      0x05\n      add\n      exp(0x0100, 0x00)\n      dup2\n      sload\n      dup2\n      0xffffffffffffffffffffffffffffffffffffffff\n      mul\n      not\n      and\n      swap1\n      dup4\n      0xffffffffffffffffffffffffffffffffffffffff\n      and\n      mul\n      or\n      swap1\n      sstore\n      pop\n      swap1\n      pop\n      pop\n        /* \"Insurance.sol\":8648:8652  true */\n      0x01\n        /* \"Insurance.sol\":8626:8637  isPcrActive */\n      0x05\n        /* \"Insurance.sol\":8626:8645  isPcrActive[_idPcr] */\n      0x00\n        /* \"Insurance.sol\":8638:8644  _idPcr */\n      dup6\n        /* \"Insurance.sol\":8626:8645  isPcrActive[_idPcr] */\n      dup2\n      mstore\n      0x20\n      add\n      swap1\n      dup2\n      mstore\n      0x20\n      add\n      0x00\n      keccak256\n      0x00\n        /* \"Insurance.sol\":8626:8652  isPcrActive[_idPcr] = true */\n      0x0100\n      exp\n      dup2\n      sload\n      dup2\n      0xff\n      mul\n      not\n      and\n      swap1\n      dup4\n      iszero\n      iszero\n      mul\n      or\n      swap1\n      sstore\n      pop\n        /* \"Insurance.sol\":8662:8675  insuranceData */\n      0x0a\n        /* \"Insurance.sol\":8662:8685  insuranceData.pcrNumber */\n      0x00\n      add\n      0x04\n        /* \"Insurance.sol\":8662:8687  insuranceData.pcrNumber++ */\n      dup2\n      dup2\n      swap1\n      sload\n      swap1\n      0x0100\n      exp\n      swap1\n      div\n      0xffff\n      and\n      dup1\n      swap3\n      swap2\n      swap1\n      tag_248\n      swap1\n      tag_249\n      jump\t// in\n    tag_248:\n      swap2\n      swap1\n      0x0100\n      exp\n      dup2\n      sload\n      dup2\n      0xffff\n      mul\n      not\n      and\n      swap1\n      dup4\n      0xffff\n      and\n      mul\n      or\n      swap1\n      sstore\n      pop\n      pop\n        /* \"Insurance.sol\":7879:8694  function addPCRtoInsured(... */\n      pop\n      pop\n      pop\n      pop\n      jump\t// out\n        /* \"Insurance.sol\":7462:7792  function compensation() public {... */\n    tag_45:\n        /* \"Insurance.sol\":7503:7517  uint256 result */\n      0x00\n        /* \"Insurance.sol\":7520:7543  calculateCompensation() */\n      tag_251\n        /* \"Insurance.sol\":7520:7541  calculateCompensation */\n      tag_19\n        /* \"Insurance.sol\":7520:7543  calculateCompensation() */\n      jump\t// in\n    tag_251:\n        /* \"Insurance.sol\":7503:7543  uint256 result = calculateCompensation() */\n      swap1\n      pop\n        /* \"Insurance.sol\":7557:7572  positivePcrTest */\n      0x1b\n      0x00\n      swap1\n      sload\n      swap1\n      0x0100\n      exp\n      swap1\n      div\n      0xff\n      and\n        /* \"Insurance.sol\":7557:7591  positivePcrTest && !paymentEmitted */\n      dup1\n      iszero\n      tag_252\n      jumpi\n      pop\n        /* \"Insurance.sol\":7577:7591  paymentEmitted */\n      0x1b\n      0x01\n      swap1\n      sload\n      swap1\n      0x0100\n      exp\n      swap1\n      div\n      0xff\n      and\n        /* \"Insurance.sol\":7576:7591  !paymentEmitted */\n      iszero\n        /* \"Insurance.sol\":7557:7591  positivePcrTest && !paymentEmitted */\n    tag_252:\n        /* \"Insurance.sol\":7553:7786  if (positivePcrTest && !paymentEmitted) {... */\n      iszero\n      tag_253\n      jumpi\n        /* \"Insurance.sol\":7612:7690  checkPayment(result, takerData.takerId, takerData.takerIban, insuranceData.id) */\n      0xc21406cec27a5de1d115183251bada5c5f0e35357c60573deeef8dde88455fb9\n        /* \"Insurance.sol\":7625:7631  result */\n      dup2\n        /* \"Insurance.sol\":7633:7642  takerData */\n      0x10\n        /* \"Insurance.sol\":7633:7650  takerData.takerId */\n      0x03\n      add\n      sload\n        /* \"Insurance.sol\":7652:7661  takerData */\n      0x10\n        /* \"Insurance.sol\":7652:7671  takerData.takerIban */\n      0x0a\n      add\n      sload\n        /* \"Insurance.sol\":7673:7686  insuranceData */\n      0x0a\n        /* \"Insurance.sol\":7673:7689  insuranceData.id */\n      0x01\n      add\n      sload\n        /* \"Insurance.sol\":7612:7690  checkPayment(result, takerData.takerId, takerData.takerIban, insuranceData.id) */\n      mload(0x40)\n      tag_254\n      swap5\n      swap4\n      swap3\n      swap2\n      swap1\n      tag_255\n      jump\t// in\n    tag_254:\n      mload(0x40)\n      dup1\n      swap2\n      sub\n      swap1\n      log1\n        /* \"Insurance.sol\":7721:7725  true */\n      0x01\n        /* \"Insurance.sol\":7704:7718  paymentEmitted */\n      0x1b\n      0x01\n        /* \"Insurance.sol\":7704:7725  paymentEmitted = true */\n      0x0100\n      exp\n      dup2\n      sload\n      dup2\n      0xff\n      mul\n      not\n      and\n      swap1\n      dup4\n      iszero\n      iszero\n      mul\n      or\n      swap1\n      sstore\n      pop\n        /* \"Insurance.sol\":7760:7775  block.timestamp */\n      timestamp\n        /* \"Insurance.sol\":7739:7757  timePaymentEmitted */\n      0x1c\n        /* \"Insurance.sol\":7739:7775  timePaymentEmitted = block.timestamp */\n      dup2\n      swap1\n      sstore\n      pop\n        /* \"Insurance.sol\":7553:7786  if (positivePcrTest && !paymentEmitted) {... */\n    tag_253:\n        /* \"Insurance.sol\":7462:7792  function compensation() public {... */\n      pop\n      jump\t// out\n        /* \"Insurance.sol\":19442:19542  function getId() external view returns(bytes32 insuranceId) {... */\n    tag_47:\n        /* \"Insurance.sol\":19481:19500  bytes32 insuranceId */\n      0x00\n        /* \"Insurance.sol\":19519:19532  insuranceData */\n      0x0a\n        /* \"Insurance.sol\":19519:19535  insuranceData.id */\n      0x01\n      add\n      sload\n        /* \"Insurance.sol\":19512:19535  return insuranceData.id */\n      swap1\n      pop\n        /* \"Insurance.sol\":19442:19542  function getId() external view returns(bytes32 insuranceId) {... */\n      swap1\n      jump\t// out\n        /* \"Insurance.sol\":9691:10123  function deletePCR(bytes32 _idPCR) public returns(address _pcrContractAddress) {... */\n    tag_52:\n        /* \"Insurance.sol\":9741:9768  address _pcrContractAddress */\n      0x00\n        /* \"Insurance.sol\":9889:9900  isPcrActive */\n      0x05\n        /* \"Insurance.sol\":9889:9908  isPcrActive[_idPCR] */\n      0x00\n        /* \"Insurance.sol\":9901:9907  _idPCR */\n      dup4\n        /* \"Insurance.sol\":9889:9908  isPcrActive[_idPCR] */\n      dup2\n      mstore\n      0x20\n      add\n      swap1\n      dup2\n      mstore\n      0x20\n      add\n      0x00\n      keccak256\n      0x00\n      swap1\n      sload\n      swap1\n      0x0100\n      exp\n      swap1\n      div\n      0xff\n      and\n        /* \"Insurance.sol\":9881:9941  require(isPcrActive[_idPCR], \"No existe una PCR con esa ID\") */\n      tag_258\n      jumpi\n      mload(0x40)\n      0x08c379a000000000000000000000000000000000000000000000000000000000\n      dup2\n      mstore\n      0x04\n      add\n      tag_259\n      swap1\n      tag_75\n      jump\t// in\n    tag_259:\n      mload(0x40)\n      dup1\n      swap2\n      sub\n      swap1\n      revert\n    tag_258:\n        /* \"Insurance.sol\":9951:9974  address contractAddress */\n      0x00\n        /* \"Insurance.sol\":9977:9988  pcrIdToData */\n      0x09\n        /* \"Insurance.sol\":9977:9996  pcrIdToData[_idPCR] */\n      0x00\n        /* \"Insurance.sol\":9989:9995  _idPCR */\n      dup5\n        /* \"Insurance.sol\":9977:9996  pcrIdToData[_idPCR] */\n      dup2\n      mstore\n      0x20\n      add\n      swap1\n      dup2\n      mstore\n      0x20\n      add\n      0x00\n      keccak256\n        /* \"Insurance.sol\":9977:10012  pcrIdToData[_idPCR].contractAddress */\n      0x05\n      add\n      0x00\n      swap1\n      sload\n      swap1\n      0x0100\n      exp\n      swap1\n      div\n      0xffffffffffffffffffffffffffffffffffffffff\n      and\n        /* \"Insurance.sol\":9951:10012  address contractAddress = pcrIdToData[_idPCR].contractAddress */\n      swap1\n      pop\n        /* \"Insurance.sol\":10044:10049  false */\n      0x00\n        /* \"Insurance.sol\":10022:10033  isPcrActive */\n      0x05\n        /* \"Insurance.sol\":10022:10041  isPcrActive[_idPCR] */\n      0x00\n        /* \"Insurance.sol\":10034:10040  _idPCR */\n      dup6\n        /* \"Insurance.sol\":10022:10041  isPcrActive[_idPCR] */\n      dup2\n      mstore\n      0x20\n      add\n      swap1\n      dup2\n      mstore\n      0x20\n      add\n      0x00\n      keccak256\n      0x00\n        /* \"Insurance.sol\":10022:10049  isPcrActive[_idPCR] = false */\n      0x0100\n      exp\n      dup2\n      sload\n      dup2\n      0xff\n      mul\n      not\n      and\n      swap1\n      dup4\n      iszero\n      iszero\n      mul\n      or\n      swap1\n      sstore\n      pop\n        /* \"Insurance.sol\":10059:10072  insuranceData */\n      0x0a\n        /* \"Insurance.sol\":10059:10082  insuranceData.pcrNumber */\n      0x00\n      add\n      0x04\n        /* \"Insurance.sol\":10059:10084  insuranceData.pcrNumber-- */\n      dup2\n      dup2\n      swap1\n      sload\n      swap1\n      0x0100\n      exp\n      swap1\n      div\n      0xffff\n      and\n      dup1\n      swap3\n      swap2\n      swap1\n      tag_260\n      swap1\n      tag_261\n      jump\t// in\n    tag_260:\n      swap2\n      swap1\n      0x0100\n      exp\n      dup2\n      sload\n      dup2\n      0xffff\n      mul\n      not\n      and\n      swap1\n      dup4\n      0xffff\n      and\n      mul\n      or\n      swap1\n      sstore\n      pop\n      pop\n        /* \"Insurance.sol\":10101:10116  contractAddress */\n      dup1\n        /* \"Insurance.sol\":10094:10116  return contractAddress */\n      swap2\n      pop\n      pop\n        /* \"Insurance.sol\":9691:10123  function deletePCR(bytes32 _idPCR) public returns(address _pcrContractAddress) {... */\n      swap2\n      swap1\n      pop\n      jump\t// out\n        /* \"Insurance.sol\":11710:12300  function getInsuranceData() external view returns(... */\n    tag_56:\n        /* \"Insurance.sol\":11769:11785  bytes32 idPolicy */\n      0x00\n        /* \"Insurance.sol\":11796:11826  uint16 dailyCompensationPolicy */\n      dup1\n        /* \"Insurance.sol\":11837:11866  uint16 daysToCompensatePolicy */\n      0x00\n        /* \"Insurance.sol\":11877:11903  uint16 insuredNumberPolicy */\n      dup1\n        /* \"Insurance.sol\":11914:11937  uint256 startDatePolicy */\n      0x00\n        /* \"Insurance.sol\":11948:11972  uint256 finishDatePolicy */\n      dup1\n        /* \"Insurance.sol\":11982:12007  bytes32[] memory insureds */\n      0x60\n        /* \"Insurance.sol\":12041:12054  insuranceData */\n      0x0a\n        /* \"Insurance.sol\":12041:12057  insuranceData.id */\n      0x01\n      add\n      sload\n        /* \"Insurance.sol\":12067:12080  insuranceData */\n      0x0a\n        /* \"Insurance.sol\":12067:12098  insuranceData.dailyCompensation */\n      0x00\n      add\n      0x00\n      swap1\n      sload\n      swap1\n      0x0100\n      exp\n      swap1\n      div\n      0xffff\n      and\n        /* \"Insurance.sol\":12108:12121  insuranceData */\n      0x0a\n        /* \"Insurance.sol\":12108:12138  insuranceData.daysToCompensate */\n      0x00\n      add\n      0x02\n      swap1\n      sload\n      swap1\n      0x0100\n      exp\n      swap1\n      div\n      0xffff\n      and\n        /* \"Insurance.sol\":12148:12161  insuranceData */\n      0x0a\n        /* \"Insurance.sol\":12148:12175  insuranceData.insuredNumber */\n      0x00\n      add\n      0x06\n      swap1\n      sload\n      swap1\n      0x0100\n      exp\n      swap1\n      div\n      0xffff\n      and\n        /* \"Insurance.sol\":12185:12198  insuranceData */\n      0x0a\n        /* \"Insurance.sol\":12185:12217  insuranceData.insuranceStartDate */\n      0x02\n      add\n      sload\n        /* \"Insurance.sol\":12227:12240  insuranceData */\n      0x0a\n        /* \"Insurance.sol\":12227:12260  insuranceData.insuranceFinishDate */\n      0x03\n      add\n      sload\n        /* \"Insurance.sol\":12270:12283  insuranceData */\n      0x0a\n        /* \"Insurance.sol\":12270:12292  insuranceData.insureds */\n      0x05\n      add\n        /* \"Insurance.sol\":12024:12293  return (... */\n      dup1\n      dup1\n      sload\n      dup1\n      0x20\n      mul\n      0x20\n      add\n      mload(0x40)\n      swap1\n      dup2\n      add\n      0x40\n      mstore\n      dup1\n      swap3\n      swap2\n      swap1\n      dup2\n      dup2\n      mstore\n      0x20\n      add\n      dup3\n      dup1\n      sload\n      dup1\n      iszero\n      tag_263\n      jumpi\n      0x20\n      mul\n      dup3\n      add\n      swap2\n      swap1\n      0x00\n      mstore\n      keccak256(0x00, 0x20)\n      swap1\n    tag_264:\n      dup2\n      sload\n      dup2\n      mstore\n      0x20\n      add\n      swap1\n      0x01\n      add\n      swap1\n      dup1\n      dup4\n      gt\n      tag_264\n      jumpi\n    tag_263:\n      pop\n      pop\n      pop\n      pop\n      pop\n      swap1\n      pop\n      swap7\n      pop\n      swap7\n      pop\n      swap7\n      pop\n      swap7\n      pop\n      swap7\n      pop\n      swap7\n      pop\n      swap7\n      pop\n        /* \"Insurance.sol\":11710:12300  function getInsuranceData() external view returns(... */\n      swap1\n      swap2\n      swap3\n      swap4\n      swap5\n      swap6\n      swap7\n      jump\t// out\n        /* \"Insurance.sol\":19648:19759  function destructContract() external {... */\n    tag_60:\n        /* \"Insurance.sol\":19717:19722  owner */\n      0x00\n      dup1\n      sload\n      swap1\n      0x0100\n      exp\n      swap1\n      div\n      0xffffffffffffffffffffffffffffffffffffffff\n      and\n        /* \"Insurance.sol\":19703:19722  msg.sender == owner */\n      0xffffffffffffffffffffffffffffffffffffffff\n      and\n        /* \"Insurance.sol\":19703:19713  msg.sender */\n      caller\n        /* \"Insurance.sol\":19703:19722  msg.sender == owner */\n      0xffffffffffffffffffffffffffffffffffffffff\n      and\n      eq\n        /* \"Insurance.sol\":19695:19723  require(msg.sender == owner) */\n      tag_266\n      jumpi\n      0x00\n      dup1\n      revert\n    tag_266:\n        /* \"Insurance.sol\":19746:19751  owner */\n      0x00\n      dup1\n      sload\n      swap1\n      0x0100\n      exp\n      swap1\n      div\n      0xffffffffffffffffffffffffffffffffffffffff\n      and\n        /* \"Insurance.sol\":19733:19752  selfdestruct(owner) */\n      0xffffffffffffffffffffffffffffffffffffffff\n      and\n      selfdestruct\n        /* \"Insurance.sol\":10835:11641  function getTakerData() external view returns(... */\n    tag_62:\n        /* \"Insurance.sol\":10890:10905  bytes32 takerId */\n      0x00\n        /* \"Insurance.sol\":10916:10932  bytes32 takerNif */\n      dup1\n        /* \"Insurance.sol\":10943:10970  string memory takerFullName */\n      0x60\n        /* \"Insurance.sol\":10980:11013  string memory takerContactAddress */\n      dup1\n        /* \"Insurance.sol\":11024:11054  bytes32 takerContactPostalCode */\n      0x00\n        /* \"Insurance.sol\":11064:11088  bytes32 takerContactTown */\n      dup1\n        /* \"Insurance.sol\":11099:11127  bytes32 takerContactLocation */\n      0x00\n        /* \"Insurance.sol\":11137:11166  bytes32 takerContactTelephone */\n      dup1\n        /* \"Insurance.sol\":11177:11203  bytes32 takerContactMobile */\n      0x00\n        /* \"Insurance.sol\":11213:11244  string memory takerContactEmail */\n      0x60\n        /* \"Insurance.sol\":11255:11272  bytes32 takerIBAN */\n      0x00\n        /* \"Insurance.sol\":11306:11315  takerData */\n      0x10\n        /* \"Insurance.sol\":11306:11323  takerData.takerId */\n      0x03\n      add\n      sload\n        /* \"Insurance.sol\":11333:11342  takerData */\n      0x10\n        /* \"Insurance.sol\":11333:11351  takerData.takerNif */\n      0x04\n      add\n      sload\n        /* \"Insurance.sol\":11361:11370  takerData */\n      0x10\n        /* \"Insurance.sol\":11361:11380  takerData.takerName */\n      0x00\n      add\n        /* \"Insurance.sol\":11390:11399  takerData */\n      0x10\n        /* \"Insurance.sol\":11390:11412  takerData.takerAddress */\n      0x01\n      add\n        /* \"Insurance.sol\":11422:11431  takerData */\n      0x10\n        /* \"Insurance.sol\":11422:11447  takerData.takerPostalCode */\n      0x05\n      add\n      sload\n        /* \"Insurance.sol\":11457:11466  takerData */\n      0x10\n        /* \"Insurance.sol\":11457:11476  takerData.takerTown */\n      0x06\n      add\n      sload\n        /* \"Insurance.sol\":11486:11495  takerData */\n      0x10\n        /* \"Insurance.sol\":11486:11509  takerData.takerLocation */\n      0x07\n      add\n      sload\n        /* \"Insurance.sol\":11519:11528  takerData */\n      0x10\n        /* \"Insurance.sol\":11519:11543  takerData.takerTelephone */\n      0x08\n      add\n      sload\n        /* \"Insurance.sol\":11553:11562  takerData */\n      0x10\n        /* \"Insurance.sol\":11553:11574  takerData.takerMobile */\n      0x09\n      add\n      sload\n        /* \"Insurance.sol\":11584:11593  takerData */\n      0x10\n        /* \"Insurance.sol\":11584:11604  takerData.takerEmail */\n      0x02\n      add\n        /* \"Insurance.sol\":11614:11623  takerData */\n      0x10\n        /* \"Insurance.sol\":11614:11633  takerData.takerIban */\n      0x0a\n      add\n      sload\n        /* \"Insurance.sol\":11289:11634  return (... */\n      dup9\n      dup1\n      sload\n      tag_268\n      swap1\n      tag_88\n      jump\t// in\n    tag_268:\n      dup1\n      0x1f\n      add\n      0x20\n      dup1\n      swap2\n      div\n      mul\n      0x20\n      add\n      mload(0x40)\n      swap1\n      dup2\n      add\n      0x40\n      mstore\n      dup1\n      swap3\n      swap2\n      swap1\n      dup2\n      dup2\n      mstore\n      0x20\n      add\n      dup3\n      dup1\n      sload\n      tag_269\n      swap1\n      tag_88\n      jump\t// in\n    tag_269:\n      dup1\n      iszero\n      tag_270\n      jumpi\n      dup1\n      0x1f\n      lt\n      tag_271\n      jumpi\n      0x0100\n      dup1\n      dup4\n      sload\n      div\n      mul\n      dup4\n      mstore\n      swap2\n      0x20\n      add\n      swap2\n      jump(tag_270)\n    tag_271:\n      dup3\n      add\n      swap2\n      swap1\n      0x00\n      mstore\n      keccak256(0x00, 0x20)\n      swap1\n    tag_272:\n      dup2\n      sload\n      dup2\n      mstore\n      swap1\n      0x01\n      add\n      swap1\n      0x20\n      add\n      dup1\n      dup4\n      gt\n      tag_272\n      jumpi\n      dup3\n      swap1\n      sub\n      0x1f\n      and\n      dup3\n      add\n      swap2\n    tag_270:\n      pop\n      pop\n      pop\n      pop\n      pop\n      swap9\n      pop\n      dup8\n      dup1\n      sload\n      tag_273\n      swap1\n      tag_88\n      jump\t// in\n    tag_273:\n      dup1\n      0x1f\n      add\n      0x20\n      dup1\n      swap2\n      div\n      mul\n      0x20\n      add\n      mload(0x40)\n      swap1\n      dup2\n      add\n      0x40\n      mstore\n      dup1\n      swap3\n      swap2\n      swap1\n      dup2\n      dup2\n      mstore\n      0x20\n      add\n      dup3\n      dup1\n      sload\n      tag_274\n      swap1\n      tag_88\n      jump\t// in\n    tag_274:\n      dup1\n      iszero\n      tag_275\n      jumpi\n      dup1\n      0x1f\n      lt\n      tag_276\n      jumpi\n      0x0100\n      dup1\n      dup4\n      sload\n      div\n      mul\n      dup4\n      mstore\n      swap2\n      0x20\n      add\n      swap2\n      jump(tag_275)\n    tag_276:\n      dup3\n      add\n      swap2\n      swap1\n      0x00\n      mstore\n      keccak256(0x00, 0x20)\n      swap1\n    tag_277:\n      dup2\n      sload\n      dup2\n      mstore\n      swap1\n      0x01\n      add\n      swap1\n      0x20\n      add\n      dup1\n      dup4\n      gt\n      tag_277\n      jumpi\n      dup3\n      swap1\n      sub\n      0x1f\n      and\n      dup3\n      add\n      swap2\n    tag_275:\n      pop\n      pop\n      pop\n      pop\n      pop\n      swap8\n      pop\n      dup2\n      dup1\n      sload\n      tag_278\n      swap1\n      tag_88\n      jump\t// in\n    tag_278:\n      dup1\n      0x1f\n      add\n      0x20\n      dup1\n      swap2\n      div\n      mul\n      0x20\n      add\n      mload(0x40)\n      swap1\n      dup2\n      add\n      0x40\n      mstore\n      dup1\n      swap3\n      swap2\n      swap1\n      dup2\n      dup2\n      mstore\n      0x20\n      add\n      dup3\n      dup1\n      sload\n      tag_279\n      swap1\n      tag_88\n      jump\t// in\n    tag_279:\n      dup1\n      iszero\n      tag_280\n      jumpi\n      dup1\n      0x1f\n      lt\n      tag_281\n      jumpi\n      0x0100\n      dup1\n      dup4\n      sload\n      div\n      mul\n      dup4\n      mstore\n      swap2\n      0x20\n      add\n      swap2\n      jump(tag_280)\n    tag_281:\n      dup3\n      add\n      swap2\n      swap1\n      0x00\n      mstore\n      keccak256(0x00, 0x20)\n      swap1\n    tag_282:\n      dup2\n      sload\n      dup2\n      mstore\n      swap1\n      0x01\n      add\n      swap1\n      0x20\n      add\n      dup1\n      dup4\n      gt\n      tag_282\n      jumpi\n      dup3\n      swap1\n      sub\n      0x1f\n      and\n      dup3\n      add\n      swap2\n    tag_280:\n      pop\n      pop\n      pop\n      pop\n      pop\n      swap2\n      pop\n      swap11\n      pop\n      swap11\n      pop\n      swap11\n      pop\n      swap11\n      pop\n      swap11\n      pop\n      swap11\n      pop\n      swap11\n      pop\n      swap11\n      pop\n      swap11\n      pop\n      swap11\n      pop\n      swap11\n      pop\n        /* \"Insurance.sol\":10835:11641  function getTakerData() external view returns(... */\n      swap1\n      swap2\n      swap3\n      swap4\n      swap5\n      swap6\n      swap7\n      swap8\n      swap9\n      swap10\n      swap11\n      jump\t// out\n        /* \"Insurance.sol\":19279:19381  function getTakerId() external view returns(bytes32 takerId) {... */\n    tag_66:\n        /* \"Insurance.sol\":19323:19338  bytes32 takerId */\n      0x00\n        /* \"Insurance.sol\":19357:19366  takerData */\n      0x10\n        /* \"Insurance.sol\":19357:19374  takerData.takerId */\n      0x03\n      add\n      sload\n        /* \"Insurance.sol\":19350:19374  return takerData.takerId */\n      swap1\n      pop\n        /* \"Insurance.sol\":19279:19381  function getTakerId() external view returns(bytes32 takerId) {... */\n      swap1\n      jump\t// out\n        /* \"Insurance.sol\":544:824  function sizeOfString(string memory _in) internal pure  returns(uint _size){... */\n    tag_93:\n        /* \"Insurance.sol\":608:618  uint _size */\n      0x00\n        /* \"Insurance.sol\":657:659  32 */\n      0x20\n        /* \"Insurance.sol\":643:646  _in */\n      dup3\n        /* \"Insurance.sol\":637:654  bytes(_in).length */\n      mload\n        /* \"Insurance.sol\":637:659  bytes(_in).length / 32 */\n      tag_285\n      swap2\n      swap1\n      tag_286\n      jump\t// in\n    tag_285:\n        /* \"Insurance.sol\":629:659  _size = bytes(_in).length / 32 */\n      swap1\n      pop\n        /* \"Insurance.sol\":699:700  0 */\n      0x00\n        /* \"Insurance.sol\":693:695  32 */\n      0x20\n        /* \"Insurance.sol\":679:682  _in */\n      dup4\n        /* \"Insurance.sol\":673:690  bytes(_in).length */\n      mload\n        /* \"Insurance.sol\":673:695  bytes(_in).length % 32 */\n      tag_287\n      swap2\n      swap1\n      tag_288\n      jump\t// in\n    tag_287:\n        /* \"Insurance.sol\":673:700  bytes(_in).length % 32 != 0 */\n      eq\n        /* \"Insurance.sol\":669:721  if (bytes(_in).length % 32 != 0)... */\n      tag_289\n      jumpi\n        /* \"Insurance.sol\":714:721  _size++ */\n      dup1\n      dup1\n      tag_290\n      swap1\n      tag_205\n      jump\t// in\n    tag_290:\n      swap2\n      pop\n      pop\n        /* \"Insurance.sol\":669:721  if (bytes(_in).length % 32 != 0)... */\n    tag_289:\n        /* \"Insurance.sol\":732:739  _size++ */\n      dup1\n      dup1\n      tag_291\n      swap1\n      tag_205\n      jump\t// in\n    tag_291:\n      swap2\n      pop\n      pop\n        /* \"Insurance.sol\":815:817  32 */\n      0x20\n        /* \"Insurance.sol\":806:817  _size *= 32 */\n      dup2\n      tag_292\n      swap2\n      swap1\n      tag_293\n      jump\t// in\n    tag_292:\n      swap1\n      pop\n        /* \"Insurance.sol\":544:824  function sizeOfString(string memory _in) internal pure  returns(uint _size){... */\n      swap2\n      swap1\n      pop\n      jump\t// out\n        /* \"Insurance.sol\":1672:1986  function bytes32ToBytes(uint _offst, bytes32 _input, bytes memory _output) internal pure {... */\n    tag_124:\n        /* \"Insurance.sol\":1772:1795  bytes memory inputBytes */\n      0x00\n        /* \"Insurance.sol\":1815:1821  _input */\n      dup3\n        /* \"Insurance.sol\":1798:1822  abi.encodePacked(_input) */\n      add(0x20, mload(0x40))\n      tag_295\n      swap2\n      swap1\n      tag_296\n      jump\t// in\n    tag_295:\n      mload(0x40)\n      0x20\n      dup2\n      dup4\n      sub\n      sub\n      dup2\n      mstore\n      swap1\n      0x40\n      mstore\n        /* \"Insurance.sol\":1772:1822  bytes memory inputBytes = abi.encodePacked(_input) */\n      swap1\n      pop\n        /* \"Insurance.sol\":1965:1967  32 */\n      0x20\n        /* \"Insurance.sol\":1954:1964  inputBytes */\n      dup2\n        /* \"Insurance.sol\":1950:1968  add(inputBytes,32) */\n      add\n        /* \"Insurance.sol\":1944:1969  mload(add(inputBytes,32)) */\n      mload\n        /* \"Insurance.sol\":1935:1941  _offst */\n      dup5\n        /* \"Insurance.sol\":1926:1933  _output */\n      dup4\n        /* \"Insurance.sol\":1922:1942  add(_output, _offst) */\n      add\n        /* \"Insurance.sol\":1915:1970  mstore(add(_output, _offst), mload(add(inputBytes,32))) */\n      mstore\n        /* \"Insurance.sol\":1901:1980  {... */\n      pop\n      pop\n      pop\n      pop\n      jump\t// out\n        /* \"Insurance.sol\":1498:1666  function uintToBytes(uint _offst, uint _input, bytes memory _output) internal pure {... */\n    tag_128:\n        /* \"Insurance.sol\":1643:1649  _input */\n      dup2\n        /* \"Insurance.sol\":1634:1640  _offst */\n      dup4\n        /* \"Insurance.sol\":1625:1632  _output */\n      dup3\n        /* \"Insurance.sol\":1621:1641  add(_output, _offst) */\n      add\n        /* \"Insurance.sol\":1614:1650  mstore(add(_output, _offst), _input) */\n      mstore\n        /* \"Insurance.sol\":1600:1660  {... */\n      pop\n      pop\n      pop\n      jump\t// out\n        /* \"Insurance.sol\":830:1036  function boolToBytes(uint _offst, bool _input, bytes memory _output) internal pure {... */\n    tag_155:\n        /* \"Insurance.sol\":923:930  uint8 x */\n      0x00\n        /* \"Insurance.sol\":943:948  false */\n      dup1\n        /* \"Insurance.sol\":933:948  _input == false */\n      iszero\n      iszero\n        /* \"Insurance.sol\":933:939  _input */\n      dup4\n        /* \"Insurance.sol\":933:948  _input == false */\n      iszero\n      iszero\n      eq\n        /* \"Insurance.sol\":933:956  _input == false ? 0 : 1 */\n      tag_299\n      jumpi\n        /* \"Insurance.sol\":955:956  1 */\n      0x01\n        /* \"Insurance.sol\":933:956  _input == false ? 0 : 1 */\n      jump(tag_300)\n    tag_299:\n        /* \"Insurance.sol\":951:952  0 */\n      0x00\n        /* \"Insurance.sol\":933:956  _input == false ? 0 : 1 */\n    tag_300:\n        /* \"Insurance.sol\":923:956  uint8 x = _input == false ? 0 : 1 */\n      swap1\n      pop\n        /* \"Insurance.sol\":1018:1019  x */\n      dup1\n        /* \"Insurance.sol\":1009:1015  _offst */\n      dup5\n        /* \"Insurance.sol\":1000:1007  _output */\n      dup4\n        /* \"Insurance.sol\":996:1016  add(_output, _offst) */\n      add\n        /* \"Insurance.sol\":989:1020  mstore(add(_output, _offst), x) */\n      mstore\n        /* \"Insurance.sol\":975:1030  {... */\n      pop\n      pop\n      pop\n      pop\n      jump\t// out\n        /* \"Insurance.sol\":1042:1492  function stringToBytes(uint _offst, bytes memory _input, bytes memory _output) internal pure {... */\n    tag_167:\n        /* \"Insurance.sol\":1145:1163  uint256 stack_size */\n      0x00\n        /* \"Insurance.sol\":1182:1184  32 */\n      0x20\n        /* \"Insurance.sol\":1166:1172  _input */\n      dup4\n        /* \"Insurance.sol\":1166:1179  _input.length */\n      mload\n        /* \"Insurance.sol\":1166:1184  _input.length / 32 */\n      tag_302\n      swap2\n      swap1\n      tag_286\n      jump\t// in\n    tag_302:\n        /* \"Insurance.sol\":1145:1184  uint256 stack_size = _input.length / 32 */\n      swap1\n      pop\n        /* \"Insurance.sol\":1218:1219  0 */\n      0x00\n        /* \"Insurance.sol\":1213:1215  32 */\n      0x20\n        /* \"Insurance.sol\":1197:1203  _input */\n      dup5\n        /* \"Insurance.sol\":1197:1210  _input.length */\n      mload\n        /* \"Insurance.sol\":1197:1215  _input.length % 32 */\n      tag_303\n      swap2\n      swap1\n      tag_288\n      jump\t// in\n    tag_303:\n        /* \"Insurance.sol\":1197:1219  _input.length % 32 > 0 */\n      gt\n        /* \"Insurance.sol\":1194:1233  if(_input.length % 32 > 0) stack_size++ */\n      iszero\n      tag_304\n      jumpi\n        /* \"Insurance.sol\":1221:1233  stack_size++ */\n      dup1\n      dup1\n      tag_305\n      swap1\n      tag_205\n      jump\t// in\n    tag_305:\n      swap2\n      pop\n      pop\n        /* \"Insurance.sol\":1194:1233  if(_input.length % 32 > 0) stack_size++ */\n    tag_304:\n        /* \"Insurance.sol\":1244:1256  stack_size++ */\n      dup1\n      dup1\n      tag_306\n      swap1\n      tag_205\n      jump\t// in\n    tag_306:\n      swap2\n      pop\n      pop\n        /* \"Insurance.sol\":1271:1281  uint index */\n      0x00\n        /* \"Insurance.sol\":1266:1486  for (uint index = 0; index < stack_size; index++) {... */\n    tag_307:\n        /* \"Insurance.sol\":1295:1305  stack_size */\n      dup2\n        /* \"Insurance.sol\":1287:1292  index */\n      dup2\n        /* \"Insurance.sol\":1287:1305  index < stack_size */\n      lt\n        /* \"Insurance.sol\":1266:1486  for (uint index = 0; index < stack_size; index++) {... */\n      iszero\n      tag_308\n      jumpi\n        /* \"Insurance.sol\":1413:1415  32 */\n      0x20\n        /* \"Insurance.sol\":1407:1412  index */\n      dup2\n        /* \"Insurance.sol\":1403:1416  mul(index,32) */\n      mul\n        /* \"Insurance.sol\":1396:1402  _input */\n      dup5\n        /* \"Insurance.sol\":1392:1417  add(_input,mul(index,32)) */\n      add\n        /* \"Insurance.sol\":1386:1418  mload(add(_input,mul(index,32))) */\n      mload\n        /* \"Insurance.sol\":1377:1383  _offst */\n      dup6\n        /* \"Insurance.sol\":1368:1375  _output */\n      dup5\n        /* \"Insurance.sol\":1364:1384  add(_output, _offst) */\n      add\n        /* \"Insurance.sol\":1357:1419  mstore(add(_output, _offst), mload(add(_input,mul(index,32)))) */\n      mstore\n        /* \"Insurance.sol\":1459:1461  32 */\n      0x20\n        /* \"Insurance.sol\":1450:1456  _offst */\n      dup6\n        /* \"Insurance.sol\":1446:1462  sub(_offst , 32) */\n      sub\n        /* \"Insurance.sol\":1436:1462  _offst := sub(_offst , 32) */\n      swap5\n      pop\n        /* \"Insurance.sol\":1307:1314  index++ */\n      dup1\n      dup1\n      tag_310\n      swap1\n      tag_205\n      jump\t// in\n    tag_310:\n      swap2\n      pop\n      pop\n        /* \"Insurance.sol\":1266:1486  for (uint index = 0; index < stack_size; index++) {... */\n      jump(tag_307)\n    tag_308:\n      pop\n        /* \"Insurance.sol\":1042:1492  function stringToBytes(uint _offst, bytes memory _input, bytes memory _output) internal pure {... */\n      pop\n      pop\n      pop\n      pop\n      jump\t// out\n        /* \"#utility.yul\":7:146   */\n    tag_312:\n      0x00\n        /* \"#utility.yul\":91:97   */\n      dup2\n        /* \"#utility.yul\":78:98   */\n      calldataload\n        /* \"#utility.yul\":69:98   */\n      swap1\n      pop\n        /* \"#utility.yul\":107:140   */\n      tag_314\n        /* \"#utility.yul\":134:139   */\n      dup2\n        /* \"#utility.yul\":107:140   */\n      tag_315\n      jump\t// in\n    tag_314:\n        /* \"#utility.yul\":59:146   */\n      swap3\n      swap2\n      pop\n      pop\n      jump\t// out\n        /* \"#utility.yul\":152:291   */\n    tag_316:\n      0x00\n        /* \"#utility.yul\":236:242   */\n      dup2\n        /* \"#utility.yul\":223:243   */\n      calldataload\n        /* \"#utility.yul\":214:243   */\n      swap1\n      pop\n        /* \"#utility.yul\":252:285   */\n      tag_318\n        /* \"#utility.yul\":279:284   */\n      dup2\n        /* \"#utility.yul\":252:285   */\n      tag_319\n      jump\t// in\n    tag_318:\n        /* \"#utility.yul\":204:291   */\n      swap3\n      swap2\n      pop\n      pop\n      jump\t// out\n        /* \"#utility.yul\":297:436   */\n    tag_320:\n      0x00\n        /* \"#utility.yul\":381:387   */\n      dup2\n        /* \"#utility.yul\":368:388   */\n      calldataload\n        /* \"#utility.yul\":359:388   */\n      swap1\n      pop\n        /* \"#utility.yul\":397:430   */\n      tag_322\n        /* \"#utility.yul\":424:429   */\n      dup2\n        /* \"#utility.yul\":397:430   */\n      tag_323\n      jump\t// in\n    tag_322:\n        /* \"#utility.yul\":349:436   */\n      swap3\n      swap2\n      pop\n      pop\n      jump\t// out\n        /* \"#utility.yul\":442:704   */\n    tag_38:\n      0x00\n        /* \"#utility.yul\":550:552   */\n      0x20\n        /* \"#utility.yul\":538:547   */\n      dup3\n        /* \"#utility.yul\":529:536   */\n      dup5\n        /* \"#utility.yul\":525:548   */\n      sub\n        /* \"#utility.yul\":521:553   */\n      slt\n        /* \"#utility.yul\":518:520   */\n      iszero\n      tag_325\n      jumpi\n        /* \"#utility.yul\":566:567   */\n      0x00\n        /* \"#utility.yul\":563:564   */\n      dup1\n        /* \"#utility.yul\":556:568   */\n      revert\n        /* \"#utility.yul\":518:520   */\n    tag_325:\n        /* \"#utility.yul\":609:610   */\n      0x00\n        /* \"#utility.yul\":634:687   */\n      tag_326\n        /* \"#utility.yul\":679:686   */\n      dup5\n        /* \"#utility.yul\":670:676   */\n      dup3\n        /* \"#utility.yul\":659:668   */\n      dup6\n        /* \"#utility.yul\":655:677   */\n      add\n        /* \"#utility.yul\":634:687   */\n      tag_312\n      jump\t// in\n    tag_326:\n        /* \"#utility.yul\":624:687   */\n      swap2\n      pop\n        /* \"#utility.yul\":580:697   */\n      pop\n        /* \"#utility.yul\":508:704   */\n      swap3\n      swap2\n      pop\n      pop\n      jump\t// out\n        /* \"#utility.yul\":710:972   */\n    tag_24:\n      0x00\n        /* \"#utility.yul\":818:820   */\n      0x20\n        /* \"#utility.yul\":806:815   */\n      dup3\n        /* \"#utility.yul\":797:804   */\n      dup5\n        /* \"#utility.yul\":793:816   */\n      sub\n        /* \"#utility.yul\":789:821   */\n      slt\n        /* \"#utility.yul\":786:788   */\n      iszero\n      tag_328\n      jumpi\n        /* \"#utility.yul\":834:835   */\n      0x00\n        /* \"#utility.yul\":831:832   */\n      dup1\n        /* \"#utility.yul\":824:836   */\n      revert\n        /* \"#utility.yul\":786:788   */\n    tag_328:\n        /* \"#utility.yul\":877:878   */\n      0x00\n        /* \"#utility.yul\":902:955   */\n      tag_329\n        /* \"#utility.yul\":947:954   */\n      dup5\n        /* \"#utility.yul\":938:944   */\n      dup3\n        /* \"#utility.yul\":927:936   */\n      dup6\n        /* \"#utility.yul\":923:945   */\n      add\n        /* \"#utility.yul\":902:955   */\n      tag_316\n      jump\t// in\n    tag_329:\n        /* \"#utility.yul\":892:955   */\n      swap2\n      pop\n        /* \"#utility.yul\":848:965   */\n      pop\n        /* \"#utility.yul\":776:972   */\n      swap3\n      swap2\n      pop\n      pop\n      jump\t// out\n        /* \"#utility.yul\":978:1385   */\n    tag_30:\n      0x00\n      dup1\n        /* \"#utility.yul\":1103:1105   */\n      0x40\n        /* \"#utility.yul\":1091:1100   */\n      dup4\n        /* \"#utility.yul\":1082:1089   */\n      dup6\n        /* \"#utility.yul\":1078:1101   */\n      sub\n        /* \"#utility.yul\":1074:1106   */\n      slt\n        /* \"#utility.yul\":1071:1073   */\n      iszero\n      tag_331\n      jumpi\n        /* \"#utility.yul\":1119:1120   */\n      0x00\n        /* \"#utility.yul\":1116:1117   */\n      dup1\n        /* \"#utility.yul\":1109:1121   */\n      revert\n        /* \"#utility.yul\":1071:1073   */\n    tag_331:\n        /* \"#utility.yul\":1162:1163   */\n      0x00\n        /* \"#utility.yul\":1187:1240   */\n      tag_332\n        /* \"#utility.yul\":1232:1239   */\n      dup6\n        /* \"#utility.yul\":1223:1229   */\n      dup3\n        /* \"#utility.yul\":1212:1221   */\n      dup7\n        /* \"#utility.yul\":1208:1230   */\n      add\n        /* \"#utility.yul\":1187:1240   */\n      tag_316\n      jump\t// in\n    tag_332:\n        /* \"#utility.yul\":1177:1240   */\n      swap3\n      pop\n        /* \"#utility.yul\":1133:1250   */\n      pop\n        /* \"#utility.yul\":1289:1291   */\n      0x20\n        /* \"#utility.yul\":1315:1368   */\n      tag_333\n        /* \"#utility.yul\":1360:1367   */\n      dup6\n        /* \"#utility.yul\":1351:1357   */\n      dup3\n        /* \"#utility.yul\":1340:1349   */\n      dup7\n        /* \"#utility.yul\":1336:1358   */\n      add\n        /* \"#utility.yul\":1315:1368   */\n      tag_316\n      jump\t// in\n    tag_333:\n        /* \"#utility.yul\":1305:1368   */\n      swap2\n      pop\n        /* \"#utility.yul\":1260:1378   */\n      pop\n        /* \"#utility.yul\":1061:1385   */\n      swap3\n      pop\n      swap3\n      swap1\n      pop\n      jump\t// out\n        /* \"#utility.yul\":1391:2089   */\n    tag_42:\n      0x00\n      dup1\n      0x00\n      dup1\n        /* \"#utility.yul\":1550:1553   */\n      0x80\n        /* \"#utility.yul\":1538:1547   */\n      dup6\n        /* \"#utility.yul\":1529:1536   */\n      dup8\n        /* \"#utility.yul\":1525:1548   */\n      sub\n        /* \"#utility.yul\":1521:1554   */\n      slt\n        /* \"#utility.yul\":1518:1520   */\n      iszero\n      tag_335\n      jumpi\n        /* \"#utility.yul\":1567:1568   */\n      0x00\n        /* \"#utility.yul\":1564:1565   */\n      dup1\n        /* \"#utility.yul\":1557:1569   */\n      revert\n        /* \"#utility.yul\":1518:1520   */\n    tag_335:\n        /* \"#utility.yul\":1610:1611   */\n      0x00\n        /* \"#utility.yul\":1635:1688   */\n      tag_336\n        /* \"#utility.yul\":1680:1687   */\n      dup8\n        /* \"#utility.yul\":1671:1677   */\n      dup3\n        /* \"#utility.yul\":1660:1669   */\n      dup9\n        /* \"#utility.yul\":1656:1678   */\n      add\n        /* \"#utility.yul\":1635:1688   */\n      tag_316\n      jump\t// in\n    tag_336:\n        /* \"#utility.yul\":1625:1688   */\n      swap5\n      pop\n        /* \"#utility.yul\":1581:1698   */\n      pop\n        /* \"#utility.yul\":1737:1739   */\n      0x20\n        /* \"#utility.yul\":1763:1816   */\n      tag_337\n        /* \"#utility.yul\":1808:1815   */\n      dup8\n        /* \"#utility.yul\":1799:1805   */\n      dup3\n        /* \"#utility.yul\":1788:1797   */\n      dup9\n        /* \"#utility.yul\":1784:1806   */\n      add\n        /* \"#utility.yul\":1763:1816   */\n      tag_316\n      jump\t// in\n    tag_337:\n        /* \"#utility.yul\":1753:1816   */\n      swap4\n      pop\n        /* \"#utility.yul\":1708:1826   */\n      pop\n        /* \"#utility.yul\":1865:1867   */\n      0x40\n        /* \"#utility.yul\":1891:1944   */\n      tag_338\n        /* \"#utility.yul\":1936:1943   */\n      dup8\n        /* \"#utility.yul\":1927:1933   */\n      dup3\n        /* \"#utility.yul\":1916:1925   */\n      dup9\n        /* \"#utility.yul\":1912:1934   */\n      add\n        /* \"#utility.yul\":1891:1944   */\n      tag_320\n      jump\t// in\n    tag_338:\n        /* \"#utility.yul\":1881:1944   */\n      swap3\n      pop\n        /* \"#utility.yul\":1836:1954   */\n      pop\n        /* \"#utility.yul\":1993:1995   */\n      0x60\n        /* \"#utility.yul\":2019:2072   */\n      tag_339\n        /* \"#utility.yul\":2064:2071   */\n      dup8\n        /* \"#utility.yul\":2055:2061   */\n      dup3\n        /* \"#utility.yul\":2044:2053   */\n      dup9\n        /* \"#utility.yul\":2040:2062   */\n      add\n        /* \"#utility.yul\":2019:2072   */\n      tag_312\n      jump\t// in\n    tag_339:\n        /* \"#utility.yul\":2009:2072   */\n      swap2\n      pop\n        /* \"#utility.yul\":1964:2082   */\n      pop\n        /* \"#utility.yul\":1508:2089   */\n      swap3\n      swap6\n      swap2\n      swap5\n      pop\n      swap3\n      pop\n      jump\t// out\n        /* \"#utility.yul\":2095:2274   */\n    tag_340:\n      0x00\n        /* \"#utility.yul\":2185:2231   */\n      tag_342\n        /* \"#utility.yul\":2227:2230   */\n      dup4\n        /* \"#utility.yul\":2219:2225   */\n      dup4\n        /* \"#utility.yul\":2185:2231   */\n      tag_343\n      jump\t// in\n    tag_342:\n        /* \"#utility.yul\":2263:2267   */\n      0x20\n        /* \"#utility.yul\":2258:2261   */\n      dup4\n        /* \"#utility.yul\":2254:2268   */\n      add\n        /* \"#utility.yul\":2240:2268   */\n      swap1\n      pop\n        /* \"#utility.yul\":2175:2274   */\n      swap3\n      swap2\n      pop\n      pop\n      jump\t// out\n        /* \"#utility.yul\":2280:2398   */\n    tag_344:\n        /* \"#utility.yul\":2367:2391   */\n      tag_346\n        /* \"#utility.yul\":2385:2390   */\n      dup2\n        /* \"#utility.yul\":2367:2391   */\n      tag_347\n      jump\t// in\n    tag_346:\n        /* \"#utility.yul\":2362:2365   */\n      dup3\n        /* \"#utility.yul\":2355:2392   */\n      mstore\n        /* \"#utility.yul\":2345:2398   */\n      pop\n      pop\n      jump\t// out\n        /* \"#utility.yul\":2434:3166   */\n    tag_348:\n      0x00\n        /* \"#utility.yul\":2582:2636   */\n      tag_350\n        /* \"#utility.yul\":2630:2635   */\n      dup3\n        /* \"#utility.yul\":2582:2636   */\n      tag_351\n      jump\t// in\n    tag_350:\n        /* \"#utility.yul\":2652:2738   */\n      tag_352\n        /* \"#utility.yul\":2731:2737   */\n      dup2\n        /* \"#utility.yul\":2726:2729   */\n      dup6\n        /* \"#utility.yul\":2652:2738   */\n      tag_353\n      jump\t// in\n    tag_352:\n        /* \"#utility.yul\":2645:2738   */\n      swap4\n      pop\n        /* \"#utility.yul\":2762:2818   */\n      tag_354\n        /* \"#utility.yul\":2812:2817   */\n      dup4\n        /* \"#utility.yul\":2762:2818   */\n      tag_355\n      jump\t// in\n    tag_354:\n        /* \"#utility.yul\":2841:2848   */\n      dup1\n        /* \"#utility.yul\":2872:2873   */\n      0x00\n        /* \"#utility.yul\":2857:3141   */\n    tag_356:\n        /* \"#utility.yul\":2882:2888   */\n      dup4\n        /* \"#utility.yul\":2879:2880   */\n      dup2\n        /* \"#utility.yul\":2876:2889   */\n      lt\n        /* \"#utility.yul\":2857:3141   */\n      iszero\n      tag_358\n      jumpi\n        /* \"#utility.yul\":2958:2964   */\n      dup2\n        /* \"#utility.yul\":2952:2965   */\n      mload\n        /* \"#utility.yul\":2985:3048   */\n      tag_359\n        /* \"#utility.yul\":3044:3047   */\n      dup9\n        /* \"#utility.yul\":3029:3042   */\n      dup3\n        /* \"#utility.yul\":2985:3048   */\n      tag_340\n      jump\t// in\n    tag_359:\n        /* \"#utility.yul\":2978:3048   */\n      swap8\n      pop\n        /* \"#utility.yul\":3071:3131   */\n      tag_360\n        /* \"#utility.yul\":3124:3130   */\n      dup4\n        /* \"#utility.yul\":3071:3131   */\n      tag_361\n      jump\t// in\n    tag_360:\n        /* \"#utility.yul\":3061:3131   */\n      swap3\n      pop\n        /* \"#utility.yul\":2917:3141   */\n      pop\n        /* \"#utility.yul\":2904:2905   */\n      0x01\n        /* \"#utility.yul\":2901:2902   */\n      dup2\n        /* \"#utility.yul\":2897:2906   */\n      add\n        /* \"#utility.yul\":2892:2906   */\n      swap1\n      pop\n        /* \"#utility.yul\":2857:3141   */\n      jump(tag_356)\n    tag_358:\n        /* \"#utility.yul\":2861:2875   */\n      pop\n        /* \"#utility.yul\":3157:3160   */\n      dup6\n        /* \"#utility.yul\":3150:3160   */\n      swap4\n      pop\n        /* \"#utility.yul\":2558:3166   */\n      pop\n      pop\n      pop\n      swap3\n      swap2\n      pop\n      pop\n      jump\t// out\n        /* \"#utility.yul\":3172:3280   */\n    tag_343:\n        /* \"#utility.yul\":3249:3273   */\n      tag_363\n        /* \"#utility.yul\":3267:3272   */\n      dup2\n        /* \"#utility.yul\":3249:3273   */\n      tag_364\n      jump\t// in\n    tag_363:\n        /* \"#utility.yul\":3244:3247   */\n      dup3\n        /* \"#utility.yul\":3237:3274   */\n      mstore\n        /* \"#utility.yul\":3227:3280   */\n      pop\n      pop\n      jump\t// out\n        /* \"#utility.yul\":3286:3404   */\n    tag_365:\n        /* \"#utility.yul\":3373:3397   */\n      tag_367\n        /* \"#utility.yul\":3391:3396   */\n      dup2\n        /* \"#utility.yul\":3373:3397   */\n      tag_364\n      jump\t// in\n    tag_367:\n        /* \"#utility.yul\":3368:3371   */\n      dup3\n        /* \"#utility.yul\":3361:3398   */\n      mstore\n        /* \"#utility.yul\":3351:3404   */\n      pop\n      pop\n      jump\t// out\n        /* \"#utility.yul\":3410:3567   */\n    tag_368:\n        /* \"#utility.yul\":3515:3560   */\n      tag_370\n        /* \"#utility.yul\":3535:3559   */\n      tag_371\n        /* \"#utility.yul\":3553:3558   */\n      dup3\n        /* \"#utility.yul\":3535:3559   */\n      tag_364\n      jump\t// in\n    tag_371:\n        /* \"#utility.yul\":3515:3560   */\n      tag_372\n      jump\t// in\n    tag_370:\n        /* \"#utility.yul\":3510:3513   */\n      dup3\n        /* \"#utility.yul\":3503:3561   */\n      mstore\n        /* \"#utility.yul\":3493:3567   */\n      pop\n      pop\n      jump\t// out\n        /* \"#utility.yul\":3573:3933   */\n    tag_373:\n      0x00\n        /* \"#utility.yul\":3687:3725   */\n      tag_375\n        /* \"#utility.yul\":3719:3724   */\n      dup3\n        /* \"#utility.yul\":3687:3725   */\n      tag_376\n      jump\t// in\n    tag_375:\n        /* \"#utility.yul\":3741:3811   */\n      tag_377\n        /* \"#utility.yul\":3804:3810   */\n      dup2\n        /* \"#utility.yul\":3799:3802   */\n      dup6\n        /* \"#utility.yul\":3741:3811   */\n      tag_378\n      jump\t// in\n    tag_377:\n        /* \"#utility.yul\":3734:3811   */\n      swap4\n      pop\n        /* \"#utility.yul\":3820:3872   */\n      tag_379\n        /* \"#utility.yul\":3865:3871   */\n      dup2\n        /* \"#utility.yul\":3860:3863   */\n      dup6\n        /* \"#utility.yul\":3853:3857   */\n      0x20\n        /* \"#utility.yul\":3846:3851   */\n      dup7\n        /* \"#utility.yul\":3842:3858   */\n      add\n        /* \"#utility.yul\":3820:3872   */\n      tag_380\n      jump\t// in\n    tag_379:\n        /* \"#utility.yul\":3897:3926   */\n      tag_381\n        /* \"#utility.yul\":3919:3925   */\n      dup2\n        /* \"#utility.yul\":3897:3926   */\n      tag_382\n      jump\t// in\n    tag_381:\n        /* \"#utility.yul\":3892:3895   */\n      dup5\n        /* \"#utility.yul\":3888:3927   */\n      add\n        /* \"#utility.yul\":3881:3927   */\n      swap2\n      pop\n        /* \"#utility.yul\":3663:3933   */\n      pop\n      swap3\n      swap2\n      pop\n      pop\n      jump\t// out\n        /* \"#utility.yul\":3939:4303   */\n    tag_383:\n      0x00\n        /* \"#utility.yul\":4055:4094   */\n      tag_385\n        /* \"#utility.yul\":4088:4093   */\n      dup3\n        /* \"#utility.yul\":4055:4094   */\n      tag_386\n      jump\t// in\n    tag_385:\n        /* \"#utility.yul\":4110:4181   */\n      tag_387\n        /* \"#utility.yul\":4174:4180   */\n      dup2\n        /* \"#utility.yul\":4169:4172   */\n      dup6\n        /* \"#utility.yul\":4110:4181   */\n      tag_388\n      jump\t// in\n    tag_387:\n        /* \"#utility.yul\":4103:4181   */\n      swap4\n      pop\n        /* \"#utility.yul\":4190:4242   */\n      tag_389\n        /* \"#utility.yul\":4235:4241   */\n      dup2\n        /* \"#utility.yul\":4230:4233   */\n      dup6\n        /* \"#utility.yul\":4223:4227   */\n      0x20\n        /* \"#utility.yul\":4216:4221   */\n      dup7\n        /* \"#utility.yul\":4212:4228   */\n      add\n        /* \"#utility.yul\":4190:4242   */\n      tag_380\n      jump\t// in\n    tag_389:\n        /* \"#utility.yul\":4267:4296   */\n      tag_390\n        /* \"#utility.yul\":4289:4295   */\n      dup2\n        /* \"#utility.yul\":4267:4296   */\n      tag_382\n      jump\t// in\n    tag_390:\n        /* \"#utility.yul\":4262:4265   */\n      dup5\n        /* \"#utility.yul\":4258:4297   */\n      add\n        /* \"#utility.yul\":4251:4297   */\n      swap2\n      pop\n        /* \"#utility.yul\":4031:4303   */\n      pop\n      swap3\n      swap2\n      pop\n      pop\n      jump\t// out\n        /* \"#utility.yul\":4309:4675   */\n    tag_391:\n      0x00\n        /* \"#utility.yul\":4472:4539   */\n      tag_393\n        /* \"#utility.yul\":4536:4538   */\n      0x2b\n        /* \"#utility.yul\":4531:4534   */\n      dup4\n        /* \"#utility.yul\":4472:4539   */\n      tag_388\n      jump\t// in\n    tag_393:\n        /* \"#utility.yul\":4465:4539   */\n      swap2\n      pop\n        /* \"#utility.yul\":4548:4641   */\n      tag_394\n        /* \"#utility.yul\":4637:4640   */\n      dup3\n        /* \"#utility.yul\":4548:4641   */\n      tag_395\n      jump\t// in\n    tag_394:\n        /* \"#utility.yul\":4666:4668   */\n      0x40\n        /* \"#utility.yul\":4661:4664   */\n      dup3\n        /* \"#utility.yul\":4657:4669   */\n      add\n        /* \"#utility.yul\":4650:4669   */\n      swap1\n      pop\n        /* \"#utility.yul\":4455:4675   */\n      swap2\n      swap1\n      pop\n      jump\t// out\n        /* \"#utility.yul\":4681:5047   */\n    tag_396:\n      0x00\n        /* \"#utility.yul\":4844:4911   */\n      tag_398\n        /* \"#utility.yul\":4908:4910   */\n      0x1c\n        /* \"#utility.yul\":4903:4906   */\n      dup4\n        /* \"#utility.yul\":4844:4911   */\n      tag_388\n      jump\t// in\n    tag_398:\n        /* \"#utility.yul\":4837:4911   */\n      swap2\n      pop\n        /* \"#utility.yul\":4920:5013   */\n      tag_399\n        /* \"#utility.yul\":5009:5012   */\n      dup3\n        /* \"#utility.yul\":4920:5013   */\n      tag_400\n      jump\t// in\n    tag_399:\n        /* \"#utility.yul\":5038:5040   */\n      0x20\n        /* \"#utility.yul\":5033:5036   */\n      dup3\n        /* \"#utility.yul\":5029:5041   */\n      add\n        /* \"#utility.yul\":5022:5041   */\n      swap1\n      pop\n        /* \"#utility.yul\":4827:5047   */\n      swap2\n      swap1\n      pop\n      jump\t// out\n        /* \"#utility.yul\":5053:5419   */\n    tag_401:\n      0x00\n        /* \"#utility.yul\":5216:5283   */\n      tag_403\n        /* \"#utility.yul\":5280:5282   */\n      0x18\n        /* \"#utility.yul\":5275:5278   */\n      dup4\n        /* \"#utility.yul\":5216:5283   */\n      tag_388\n      jump\t// in\n    tag_403:\n        /* \"#utility.yul\":5209:5283   */\n      swap2\n      pop\n        /* \"#utility.yul\":5292:5385   */\n      tag_404\n        /* \"#utility.yul\":5381:5384   */\n      dup3\n        /* \"#utility.yul\":5292:5385   */\n      tag_405\n      jump\t// in\n    tag_404:\n        /* \"#utility.yul\":5410:5412   */\n      0x20\n        /* \"#utility.yul\":5405:5408   */\n      dup3\n        /* \"#utility.yul\":5401:5413   */\n      add\n        /* \"#utility.yul\":5394:5413   */\n      swap1\n      pop\n        /* \"#utility.yul\":5199:5419   */\n      swap2\n      swap1\n      pop\n      jump\t// out\n        /* \"#utility.yul\":5425:5791   */\n    tag_406:\n      0x00\n        /* \"#utility.yul\":5588:5655   */\n      tag_408\n        /* \"#utility.yul\":5652:5654   */\n      0x1c\n        /* \"#utility.yul\":5647:5650   */\n      dup4\n        /* \"#utility.yul\":5588:5655   */\n      tag_388\n      jump\t// in\n    tag_408:\n        /* \"#utility.yul\":5581:5655   */\n      swap2\n      pop\n        /* \"#utility.yul\":5664:5757   */\n      tag_409\n        /* \"#utility.yul\":5753:5756   */\n      dup3\n        /* \"#utility.yul\":5664:5757   */\n      tag_410\n      jump\t// in\n    tag_409:\n        /* \"#utility.yul\":5782:5784   */\n      0x20\n        /* \"#utility.yul\":5777:5780   */\n      dup3\n        /* \"#utility.yul\":5773:5785   */\n      add\n        /* \"#utility.yul\":5766:5785   */\n      swap1\n      pop\n        /* \"#utility.yul\":5571:5791   */\n      swap2\n      swap1\n      pop\n      jump\t// out\n        /* \"#utility.yul\":5797:5912   */\n    tag_411:\n        /* \"#utility.yul\":5882:5905   */\n      tag_413\n        /* \"#utility.yul\":5899:5904   */\n      dup2\n        /* \"#utility.yul\":5882:5905   */\n      tag_414\n      jump\t// in\n    tag_413:\n        /* \"#utility.yul\":5877:5880   */\n      dup3\n        /* \"#utility.yul\":5870:5906   */\n      mstore\n        /* \"#utility.yul\":5860:5912   */\n      pop\n      pop\n      jump\t// out\n        /* \"#utility.yul\":5918:6036   */\n    tag_415:\n        /* \"#utility.yul\":6005:6029   */\n      tag_417\n        /* \"#utility.yul\":6023:6028   */\n      dup2\n        /* \"#utility.yul\":6005:6029   */\n      tag_418\n      jump\t// in\n    tag_417:\n        /* \"#utility.yul\":6000:6003   */\n      dup3\n        /* \"#utility.yul\":5993:6030   */\n      mstore\n        /* \"#utility.yul\":5983:6036   */\n      pop\n      pop\n      jump\t// out\n        /* \"#utility.yul\":6042:6298   */\n    tag_296:\n      0x00\n        /* \"#utility.yul\":6169:6244   */\n      tag_420\n        /* \"#utility.yul\":6240:6243   */\n      dup3\n        /* \"#utility.yul\":6231:6237   */\n      dup5\n        /* \"#utility.yul\":6169:6244   */\n      tag_368\n      jump\t// in\n    tag_420:\n        /* \"#utility.yul\":6269:6271   */\n      0x20\n        /* \"#utility.yul\":6264:6267   */\n      dup3\n        /* \"#utility.yul\":6260:6272   */\n      add\n        /* \"#utility.yul\":6253:6272   */\n      swap2\n      pop\n        /* \"#utility.yul\":6289:6292   */\n      dup2\n        /* \"#utility.yul\":6282:6292   */\n      swap1\n      pop\n        /* \"#utility.yul\":6158:6298   */\n      swap3\n      swap2\n      pop\n      pop\n      jump\t// out\n        /* \"#utility.yul\":6304:6526   */\n    tag_54:\n      0x00\n        /* \"#utility.yul\":6435:6437   */\n      0x20\n        /* \"#utility.yul\":6424:6433   */\n      dup3\n        /* \"#utility.yul\":6420:6438   */\n      add\n        /* \"#utility.yul\":6412:6438   */\n      swap1\n      pop\n        /* \"#utility.yul\":6448:6519   */\n      tag_422\n        /* \"#utility.yul\":6516:6517   */\n      0x00\n        /* \"#utility.yul\":6505:6514   */\n      dup4\n        /* \"#utility.yul\":6501:6518   */\n      add\n        /* \"#utility.yul\":6492:6498   */\n      dup5\n        /* \"#utility.yul\":6448:6519   */\n      tag_344\n      jump\t// in\n    tag_422:\n        /* \"#utility.yul\":6402:6526   */\n      swap3\n      swap2\n      pop\n      pop\n      jump\t// out\n        /* \"#utility.yul\":6532:6754   */\n    tag_49:\n      0x00\n        /* \"#utility.yul\":6663:6665   */\n      0x20\n        /* \"#utility.yul\":6652:6661   */\n      dup3\n        /* \"#utility.yul\":6648:6666   */\n      add\n        /* \"#utility.yul\":6640:6666   */\n      swap1\n      pop\n        /* \"#utility.yul\":6676:6747   */\n      tag_424\n        /* \"#utility.yul\":6744:6745   */\n      0x00\n        /* \"#utility.yul\":6733:6742   */\n      dup4\n        /* \"#utility.yul\":6729:6746   */\n      add\n        /* \"#utility.yul\":6720:6726   */\n      dup5\n        /* \"#utility.yul\":6676:6747   */\n      tag_365\n      jump\t// in\n    tag_424:\n        /* \"#utility.yul\":6630:6754   */\n      swap3\n      swap2\n      pop\n      pop\n      jump\t// out\n        /* \"#utility.yul\":6760:8365   */\n    tag_64:\n      0x00\n        /* \"#utility.yul\":7232:7235   */\n      0x0160\n        /* \"#utility.yul\":7221:7230   */\n      dup3\n        /* \"#utility.yul\":7217:7236   */\n      add\n        /* \"#utility.yul\":7209:7236   */\n      swap1\n      pop\n        /* \"#utility.yul\":7246:7317   */\n      tag_426\n        /* \"#utility.yul\":7314:7315   */\n      0x00\n        /* \"#utility.yul\":7303:7312   */\n      dup4\n        /* \"#utility.yul\":7299:7316   */\n      add\n        /* \"#utility.yul\":7290:7296   */\n      dup15\n        /* \"#utility.yul\":7246:7317   */\n      tag_365\n      jump\t// in\n    tag_426:\n        /* \"#utility.yul\":7327:7399   */\n      tag_427\n        /* \"#utility.yul\":7395:7397   */\n      0x20\n        /* \"#utility.yul\":7384:7393   */\n      dup4\n        /* \"#utility.yul\":7380:7398   */\n      add\n        /* \"#utility.yul\":7371:7377   */\n      dup14\n        /* \"#utility.yul\":7327:7399   */\n      tag_365\n      jump\t// in\n    tag_427:\n        /* \"#utility.yul\":7446:7455   */\n      dup2\n        /* \"#utility.yul\":7440:7444   */\n      dup2\n        /* \"#utility.yul\":7436:7456   */\n      sub\n        /* \"#utility.yul\":7431:7433   */\n      0x40\n        /* \"#utility.yul\":7420:7429   */\n      dup4\n        /* \"#utility.yul\":7416:7434   */\n      add\n        /* \"#utility.yul\":7409:7457   */\n      mstore\n        /* \"#utility.yul\":7474:7552   */\n      tag_428\n        /* \"#utility.yul\":7547:7551   */\n      dup2\n        /* \"#utility.yul\":7538:7544   */\n      dup13\n        /* \"#utility.yul\":7474:7552   */\n      tag_383\n      jump\t// in\n    tag_428:\n        /* \"#utility.yul\":7466:7552   */\n      swap1\n      pop\n        /* \"#utility.yul\":7599:7608   */\n      dup2\n        /* \"#utility.yul\":7593:7597   */\n      dup2\n        /* \"#utility.yul\":7589:7609   */\n      sub\n        /* \"#utility.yul\":7584:7586   */\n      0x60\n        /* \"#utility.yul\":7573:7582   */\n      dup4\n        /* \"#utility.yul\":7569:7587   */\n      add\n        /* \"#utility.yul\":7562:7610   */\n      mstore\n        /* \"#utility.yul\":7627:7705   */\n      tag_429\n        /* \"#utility.yul\":7700:7704   */\n      dup2\n        /* \"#utility.yul\":7691:7697   */\n      dup12\n        /* \"#utility.yul\":7627:7705   */\n      tag_383\n      jump\t// in\n    tag_429:\n        /* \"#utility.yul\":7619:7705   */\n      swap1\n      pop\n        /* \"#utility.yul\":7715:7788   */\n      tag_430\n        /* \"#utility.yul\":7783:7786   */\n      0x80\n        /* \"#utility.yul\":7772:7781   */\n      dup4\n        /* \"#utility.yul\":7768:7787   */\n      add\n        /* \"#utility.yul\":7759:7765   */\n      dup11\n        /* \"#utility.yul\":7715:7788   */\n      tag_365\n      jump\t// in\n    tag_430:\n        /* \"#utility.yul\":7798:7871   */\n      tag_431\n        /* \"#utility.yul\":7866:7869   */\n      0xa0\n        /* \"#utility.yul\":7855:7864   */\n      dup4\n        /* \"#utility.yul\":7851:7870   */\n      add\n        /* \"#utility.yul\":7842:7848   */\n      dup10\n        /* \"#utility.yul\":7798:7871   */\n      tag_365\n      jump\t// in\n    tag_431:\n        /* \"#utility.yul\":7881:7954   */\n      tag_432\n        /* \"#utility.yul\":7949:7952   */\n      0xc0\n        /* \"#utility.yul\":7938:7947   */\n      dup4\n        /* \"#utility.yul\":7934:7953   */\n      add\n        /* \"#utility.yul\":7925:7931   */\n      dup9\n        /* \"#utility.yul\":7881:7954   */\n      tag_365\n      jump\t// in\n    tag_432:\n        /* \"#utility.yul\":7964:8037   */\n      tag_433\n        /* \"#utility.yul\":8032:8035   */\n      0xe0\n        /* \"#utility.yul\":8021:8030   */\n      dup4\n        /* \"#utility.yul\":8017:8036   */\n      add\n        /* \"#utility.yul\":8008:8014   */\n      dup8\n        /* \"#utility.yul\":7964:8037   */\n      tag_365\n      jump\t// in\n    tag_433:\n        /* \"#utility.yul\":8047:8120   */\n      tag_434\n        /* \"#utility.yul\":8115:8118   */\n      0x0100\n        /* \"#utility.yul\":8104:8113   */\n      dup4\n        /* \"#utility.yul\":8100:8119   */\n      add\n        /* \"#utility.yul\":8091:8097   */\n      dup7\n        /* \"#utility.yul\":8047:8120   */\n      tag_365\n      jump\t// in\n    tag_434:\n        /* \"#utility.yul\":8168:8177   */\n      dup2\n        /* \"#utility.yul\":8162:8166   */\n      dup2\n        /* \"#utility.yul\":8158:8178   */\n      sub\n        /* \"#utility.yul\":8152:8155   */\n      0x0120\n        /* \"#utility.yul\":8141:8150   */\n      dup4\n        /* \"#utility.yul\":8137:8156   */\n      add\n        /* \"#utility.yul\":8130:8179   */\n      mstore\n        /* \"#utility.yul\":8196:8274   */\n      tag_435\n        /* \"#utility.yul\":8269:8273   */\n      dup2\n        /* \"#utility.yul\":8260:8266   */\n      dup6\n        /* \"#utility.yul\":8196:8274   */\n      tag_383\n      jump\t// in\n    tag_435:\n        /* \"#utility.yul\":8188:8274   */\n      swap1\n      pop\n        /* \"#utility.yul\":8284:8358   */\n      tag_436\n        /* \"#utility.yul\":8353:8356   */\n      0x0140\n        /* \"#utility.yul\":8342:8351   */\n      dup4\n        /* \"#utility.yul\":8338:8357   */\n      add\n        /* \"#utility.yul\":8328:8335   */\n      dup5\n        /* \"#utility.yul\":8284:8358   */\n      tag_365\n      jump\t// in\n    tag_436:\n        /* \"#utility.yul\":7199:8365   */\n      swap13\n      swap12\n      pop\n      pop\n      pop\n      pop\n      pop\n      pop\n      pop\n      pop\n      pop\n      pop\n      pop\n      pop\n      jump\t// out\n        /* \"#utility.yul\":8371:9146   */\n    tag_27:\n      0x00\n        /* \"#utility.yul\":8642:8645   */\n      0xc0\n        /* \"#utility.yul\":8631:8640   */\n      dup3\n        /* \"#utility.yul\":8627:8646   */\n      add\n        /* \"#utility.yul\":8619:8646   */\n      swap1\n      pop\n        /* \"#utility.yul\":8656:8727   */\n      tag_438\n        /* \"#utility.yul\":8724:8725   */\n      0x00\n        /* \"#utility.yul\":8713:8722   */\n      dup4\n        /* \"#utility.yul\":8709:8726   */\n      add\n        /* \"#utility.yul\":8700:8706   */\n      dup10\n        /* \"#utility.yul\":8656:8727   */\n      tag_365\n      jump\t// in\n    tag_438:\n        /* \"#utility.yul\":8737:8809   */\n      tag_439\n        /* \"#utility.yul\":8805:8807   */\n      0x20\n        /* \"#utility.yul\":8794:8803   */\n      dup4\n        /* \"#utility.yul\":8790:8808   */\n      add\n        /* \"#utility.yul\":8781:8787   */\n      dup9\n        /* \"#utility.yul\":8737:8809   */\n      tag_365\n      jump\t// in\n    tag_439:\n        /* \"#utility.yul\":8819:8891   */\n      tag_440\n        /* \"#utility.yul\":8887:8889   */\n      0x40\n        /* \"#utility.yul\":8876:8885   */\n      dup4\n        /* \"#utility.yul\":8872:8890   */\n      add\n        /* \"#utility.yul\":8863:8869   */\n      dup8\n        /* \"#utility.yul\":8819:8891   */\n      tag_415\n      jump\t// in\n    tag_440:\n        /* \"#utility.yul\":8901:8973   */\n      tag_441\n        /* \"#utility.yul\":8969:8971   */\n      0x60\n        /* \"#utility.yul\":8958:8967   */\n      dup4\n        /* \"#utility.yul\":8954:8972   */\n      add\n        /* \"#utility.yul\":8945:8951   */\n      dup7\n        /* \"#utility.yul\":8901:8973   */\n      tag_415\n      jump\t// in\n    tag_441:\n        /* \"#utility.yul\":8983:9056   */\n      tag_442\n        /* \"#utility.yul\":9051:9054   */\n      0x80\n        /* \"#utility.yul\":9040:9049   */\n      dup4\n        /* \"#utility.yul\":9036:9055   */\n      add\n        /* \"#utility.yul\":9027:9033   */\n      dup6\n        /* \"#utility.yul\":8983:9056   */\n      tag_365\n      jump\t// in\n    tag_442:\n        /* \"#utility.yul\":9066:9139   */\n      tag_443\n        /* \"#utility.yul\":9134:9137   */\n      0xa0\n        /* \"#utility.yul\":9123:9132   */\n      dup4\n        /* \"#utility.yul\":9119:9138   */\n      add\n        /* \"#utility.yul\":9110:9116   */\n      dup5\n        /* \"#utility.yul\":9066:9139   */\n      tag_344\n      jump\t// in\n    tag_443:\n        /* \"#utility.yul\":8609:9146   */\n      swap8\n      swap7\n      pop\n      pop\n      pop\n      pop\n      pop\n      pop\n      pop\n      jump\t// out\n        /* \"#utility.yul\":9152:10177   */\n    tag_58:\n      0x00\n        /* \"#utility.yul\":9495:9498   */\n      0xe0\n        /* \"#utility.yul\":9484:9493   */\n      dup3\n        /* \"#utility.yul\":9480:9499   */\n      add\n        /* \"#utility.yul\":9472:9499   */\n      swap1\n      pop\n        /* \"#utility.yul\":9509:9580   */\n      tag_445\n        /* \"#utility.yul\":9577:9578   */\n      0x00\n        /* \"#utility.yul\":9566:9575   */\n      dup4\n        /* \"#utility.yul\":9562:9579   */\n      add\n        /* \"#utility.yul\":9553:9559   */\n      dup11\n        /* \"#utility.yul\":9509:9580   */\n      tag_365\n      jump\t// in\n    tag_445:\n        /* \"#utility.yul\":9590:9660   */\n      tag_446\n        /* \"#utility.yul\":9656:9658   */\n      0x20\n        /* \"#utility.yul\":9645:9654   */\n      dup4\n        /* \"#utility.yul\":9641:9659   */\n      add\n        /* \"#utility.yul\":9632:9638   */\n      dup10\n        /* \"#utility.yul\":9590:9660   */\n      tag_411\n      jump\t// in\n    tag_446:\n        /* \"#utility.yul\":9670:9740   */\n      tag_447\n        /* \"#utility.yul\":9736:9738   */\n      0x40\n        /* \"#utility.yul\":9725:9734   */\n      dup4\n        /* \"#utility.yul\":9721:9739   */\n      add\n        /* \"#utility.yul\":9712:9718   */\n      dup9\n        /* \"#utility.yul\":9670:9740   */\n      tag_411\n      jump\t// in\n    tag_447:\n        /* \"#utility.yul\":9750:9820   */\n      tag_448\n        /* \"#utility.yul\":9816:9818   */\n      0x60\n        /* \"#utility.yul\":9805:9814   */\n      dup4\n        /* \"#utility.yul\":9801:9819   */\n      add\n        /* \"#utility.yul\":9792:9798   */\n      dup8\n        /* \"#utility.yul\":9750:9820   */\n      tag_411\n      jump\t// in\n    tag_448:\n        /* \"#utility.yul\":9830:9903   */\n      tag_449\n        /* \"#utility.yul\":9898:9901   */\n      0x80\n        /* \"#utility.yul\":9887:9896   */\n      dup4\n        /* \"#utility.yul\":9883:9902   */\n      add\n        /* \"#utility.yul\":9874:9880   */\n      dup7\n        /* \"#utility.yul\":9830:9903   */\n      tag_415\n      jump\t// in\n    tag_449:\n        /* \"#utility.yul\":9913:9986   */\n      tag_450\n        /* \"#utility.yul\":9981:9984   */\n      0xa0\n        /* \"#utility.yul\":9970:9979   */\n      dup4\n        /* \"#utility.yul\":9966:9985   */\n      add\n        /* \"#utility.yul\":9957:9963   */\n      dup6\n        /* \"#utility.yul\":9913:9986   */\n      tag_415\n      jump\t// in\n    tag_450:\n        /* \"#utility.yul\":10034:10043   */\n      dup2\n        /* \"#utility.yul\":10028:10032   */\n      dup2\n        /* \"#utility.yul\":10024:10044   */\n      sub\n        /* \"#utility.yul\":10018:10021   */\n      0xc0\n        /* \"#utility.yul\":10007:10016   */\n      dup4\n        /* \"#utility.yul\":10003:10022   */\n      add\n        /* \"#utility.yul\":9996:10045   */\n      mstore\n        /* \"#utility.yul\":10062:10170   */\n      tag_451\n        /* \"#utility.yul\":10165:10169   */\n      dup2\n        /* \"#utility.yul\":10156:10162   */\n      dup5\n        /* \"#utility.yul\":10062:10170   */\n      tag_348\n      jump\t// in\n    tag_451:\n        /* \"#utility.yul\":10054:10170   */\n      swap1\n      pop\n        /* \"#utility.yul\":9462:10177   */\n      swap9\n      swap8\n      pop\n      pop\n      pop\n      pop\n      pop\n      pop\n      pop\n      pop\n      jump\t// out\n        /* \"#utility.yul\":10183:10515   */\n    tag_82:\n      0x00\n        /* \"#utility.yul\":10342:10344   */\n      0x40\n        /* \"#utility.yul\":10331:10340   */\n      dup3\n        /* \"#utility.yul\":10327:10345   */\n      add\n        /* \"#utility.yul\":10319:10345   */\n      swap1\n      pop\n        /* \"#utility.yul\":10355:10426   */\n      tag_453\n        /* \"#utility.yul\":10423:10424   */\n      0x00\n        /* \"#utility.yul\":10412:10421   */\n      dup4\n        /* \"#utility.yul\":10408:10425   */\n      add\n        /* \"#utility.yul\":10399:10405   */\n      dup6\n        /* \"#utility.yul\":10355:10426   */\n      tag_365\n      jump\t// in\n    tag_453:\n        /* \"#utility.yul\":10436:10508   */\n      tag_454\n        /* \"#utility.yul\":10504:10506   */\n      0x20\n        /* \"#utility.yul\":10493:10502   */\n      dup4\n        /* \"#utility.yul\":10489:10507   */\n      add\n        /* \"#utility.yul\":10480:10486   */\n      dup5\n        /* \"#utility.yul\":10436:10508   */\n      tag_415\n      jump\t// in\n    tag_454:\n        /* \"#utility.yul\":10309:10515   */\n      swap4\n      swap3\n      pop\n      pop\n      pop\n      jump\t// out\n        /* \"#utility.yul\":10521:10940   */\n    tag_35:\n      0x00\n        /* \"#utility.yul\":10698:10700   */\n      0x40\n        /* \"#utility.yul\":10687:10696   */\n      dup3\n        /* \"#utility.yul\":10683:10701   */\n      add\n        /* \"#utility.yul\":10675:10701   */\n      swap1\n      pop\n        /* \"#utility.yul\":10747:10756   */\n      dup2\n        /* \"#utility.yul\":10741:10745   */\n      dup2\n        /* \"#utility.yul\":10737:10757   */\n      sub\n        /* \"#utility.yul\":10733:10734   */\n      0x00\n        /* \"#utility.yul\":10722:10731   */\n      dup4\n        /* \"#utility.yul\":10718:10735   */\n      add\n        /* \"#utility.yul\":10711:10758   */\n      mstore\n        /* \"#utility.yul\":10775:10851   */\n      tag_456\n        /* \"#utility.yul\":10846:10850   */\n      dup2\n        /* \"#utility.yul\":10837:10843   */\n      dup6\n        /* \"#utility.yul\":10775:10851   */\n      tag_373\n      jump\t// in\n    tag_456:\n        /* \"#utility.yul\":10767:10851   */\n      swap1\n      pop\n        /* \"#utility.yul\":10861:10933   */\n      tag_457\n        /* \"#utility.yul\":10929:10931   */\n      0x20\n        /* \"#utility.yul\":10918:10927   */\n      dup4\n        /* \"#utility.yul\":10914:10932   */\n      add\n        /* \"#utility.yul\":10905:10911   */\n      dup5\n        /* \"#utility.yul\":10861:10933   */\n      tag_415\n      jump\t// in\n    tag_457:\n        /* \"#utility.yul\":10665:10940   */\n      swap4\n      swap3\n      pop\n      pop\n      pop\n      jump\t// out\n        /* \"#utility.yul\":10946:11365   */\n    tag_243:\n      0x00\n        /* \"#utility.yul\":11150:11152   */\n      0x20\n        /* \"#utility.yul\":11139:11148   */\n      dup3\n        /* \"#utility.yul\":11135:11153   */\n      add\n        /* \"#utility.yul\":11127:11153   */\n      swap1\n      pop\n        /* \"#utility.yul\":11199:11208   */\n      dup2\n        /* \"#utility.yul\":11193:11197   */\n      dup2\n        /* \"#utility.yul\":11189:11209   */\n      sub\n        /* \"#utility.yul\":11185:11186   */\n      0x00\n        /* \"#utility.yul\":11174:11183   */\n      dup4\n        /* \"#utility.yul\":11170:11187   */\n      add\n        /* \"#utility.yul\":11163:11210   */\n      mstore\n        /* \"#utility.yul\":11227:11358   */\n      tag_459\n        /* \"#utility.yul\":11353:11357   */\n      dup2\n        /* \"#utility.yul\":11227:11358   */\n      tag_391\n      jump\t// in\n    tag_459:\n        /* \"#utility.yul\":11219:11358   */\n      swap1\n      pop\n        /* \"#utility.yul\":11117:11365   */\n      swap2\n      swap1\n      pop\n      jump\t// out\n        /* \"#utility.yul\":11371:11790   */\n    tag_246:\n      0x00\n        /* \"#utility.yul\":11575:11577   */\n      0x20\n        /* \"#utility.yul\":11564:11573   */\n      dup3\n        /* \"#utility.yul\":11560:11578   */\n      add\n        /* \"#utility.yul\":11552:11578   */\n      swap1\n      pop\n        /* \"#utility.yul\":11624:11633   */\n      dup2\n        /* \"#utility.yul\":11618:11622   */\n      dup2\n        /* \"#utility.yul\":11614:11634   */\n      sub\n        /* \"#utility.yul\":11610:11611   */\n      0x00\n        /* \"#utility.yul\":11599:11608   */\n      dup4\n        /* \"#utility.yul\":11595:11612   */\n      add\n        /* \"#utility.yul\":11588:11635   */\n      mstore\n        /* \"#utility.yul\":11652:11783   */\n      tag_461\n        /* \"#utility.yul\":11778:11782   */\n      dup2\n        /* \"#utility.yul\":11652:11783   */\n      tag_396\n      jump\t// in\n    tag_461:\n        /* \"#utility.yul\":11644:11783   */\n      swap1\n      pop\n        /* \"#utility.yul\":11542:11790   */\n      swap2\n      swap1\n      pop\n      jump\t// out\n        /* \"#utility.yul\":11796:12215   */\n    tag_79:\n      0x00\n        /* \"#utility.yul\":12000:12002   */\n      0x20\n        /* \"#utility.yul\":11989:11998   */\n      dup3\n        /* \"#utility.yul\":11985:12003   */\n      add\n        /* \"#utility.yul\":11977:12003   */\n      swap1\n      pop\n        /* \"#utility.yul\":12049:12058   */\n      dup2\n        /* \"#utility.yul\":12043:12047   */\n      dup2\n        /* \"#utility.yul\":12039:12059   */\n      sub\n        /* \"#utility.yul\":12035:12036   */\n      0x00\n        /* \"#utility.yul\":12024:12033   */\n      dup4\n        /* \"#utility.yul\":12020:12037   */\n      add\n        /* \"#utility.yul\":12013:12060   */\n      mstore\n        /* \"#utility.yul\":12077:12208   */\n      tag_463\n        /* \"#utility.yul\":12203:12207   */\n      dup2\n        /* \"#utility.yul\":12077:12208   */\n      tag_401\n      jump\t// in\n    tag_463:\n        /* \"#utility.yul\":12069:12208   */\n      swap1\n      pop\n        /* \"#utility.yul\":11967:12215   */\n      swap2\n      swap1\n      pop\n      jump\t// out\n        /* \"#utility.yul\":12221:12640   */\n    tag_75:\n      0x00\n        /* \"#utility.yul\":12425:12427   */\n      0x20\n        /* \"#utility.yul\":12414:12423   */\n      dup3\n        /* \"#utility.yul\":12410:12428   */\n      add\n        /* \"#utility.yul\":12402:12428   */\n      swap1\n      pop\n        /* \"#utility.yul\":12474:12483   */\n      dup2\n        /* \"#utility.yul\":12468:12472   */\n      dup2\n        /* \"#utility.yul\":12464:12484   */\n      sub\n        /* \"#utility.yul\":12460:12461   */\n      0x00\n        /* \"#utility.yul\":12449:12458   */\n      dup4\n        /* \"#utility.yul\":12445:12462   */\n      add\n        /* \"#utility.yul\":12438:12485   */\n      mstore\n        /* \"#utility.yul\":12502:12633   */\n      tag_465\n        /* \"#utility.yul\":12628:12632   */\n      dup2\n        /* \"#utility.yul\":12502:12633   */\n      tag_406\n      jump\t// in\n    tag_465:\n        /* \"#utility.yul\":12494:12633   */\n      swap1\n      pop\n        /* \"#utility.yul\":12392:12640   */\n      swap2\n      swap1\n      pop\n      jump\t// out\n        /* \"#utility.yul\":12646:12868   */\n    tag_21:\n      0x00\n        /* \"#utility.yul\":12777:12779   */\n      0x20\n        /* \"#utility.yul\":12766:12775   */\n      dup3\n        /* \"#utility.yul\":12762:12780   */\n      add\n        /* \"#utility.yul\":12754:12780   */\n      swap1\n      pop\n        /* \"#utility.yul\":12790:12861   */\n      tag_467\n        /* \"#utility.yul\":12858:12859   */\n      0x00\n        /* \"#utility.yul\":12847:12856   */\n      dup4\n        /* \"#utility.yul\":12843:12860   */\n      add\n        /* \"#utility.yul\":12834:12840   */\n      dup5\n        /* \"#utility.yul\":12790:12861   */\n      tag_415\n      jump\t// in\n    tag_467:\n        /* \"#utility.yul\":12744:12868   */\n      swap3\n      swap2\n      pop\n      pop\n      jump\t// out\n        /* \"#utility.yul\":12874:13427   */\n    tag_255:\n      0x00\n        /* \"#utility.yul\":13089:13092   */\n      0x80\n        /* \"#utility.yul\":13078:13087   */\n      dup3\n        /* \"#utility.yul\":13074:13093   */\n      add\n        /* \"#utility.yul\":13066:13093   */\n      swap1\n      pop\n        /* \"#utility.yul\":13103:13174   */\n      tag_469\n        /* \"#utility.yul\":13171:13172   */\n      0x00\n        /* \"#utility.yul\":13160:13169   */\n      dup4\n        /* \"#utility.yul\":13156:13173   */\n      add\n        /* \"#utility.yul\":13147:13153   */\n      dup8\n        /* \"#utility.yul\":13103:13174   */\n      tag_415\n      jump\t// in\n    tag_469:\n        /* \"#utility.yul\":13184:13256   */\n      tag_470\n        /* \"#utility.yul\":13252:13254   */\n      0x20\n        /* \"#utility.yul\":13241:13250   */\n      dup4\n        /* \"#utility.yul\":13237:13255   */\n      add\n        /* \"#utility.yul\":13228:13234   */\n      dup7\n        /* \"#utility.yul\":13184:13256   */\n      tag_365\n      jump\t// in\n    tag_470:\n        /* \"#utility.yul\":13266:13338   */\n      tag_471\n        /* \"#utility.yul\":13334:13336   */\n      0x40\n        /* \"#utility.yul\":13323:13332   */\n      dup4\n        /* \"#utility.yul\":13319:13337   */\n      add\n        /* \"#utility.yul\":13310:13316   */\n      dup6\n        /* \"#utility.yul\":13266:13338   */\n      tag_365\n      jump\t// in\n    tag_471:\n        /* \"#utility.yul\":13348:13420   */\n      tag_472\n        /* \"#utility.yul\":13416:13418   */\n      0x60\n        /* \"#utility.yul\":13405:13414   */\n      dup4\n        /* \"#utility.yul\":13401:13419   */\n      add\n        /* \"#utility.yul\":13392:13398   */\n      dup5\n        /* \"#utility.yul\":13348:13420   */\n      tag_365\n      jump\t// in\n    tag_472:\n        /* \"#utility.yul\":13056:13427   */\n      swap6\n      swap5\n      pop\n      pop\n      pop\n      pop\n      pop\n      jump\t// out\n        /* \"#utility.yul\":13433:13565   */\n    tag_355:\n      0x00\n        /* \"#utility.yul\":13523:13526   */\n      dup2\n        /* \"#utility.yul\":13515:13526   */\n      swap1\n      pop\n        /* \"#utility.yul\":13553:13557   */\n      0x20\n        /* \"#utility.yul\":13548:13551   */\n      dup3\n        /* \"#utility.yul\":13544:13558   */\n      add\n        /* \"#utility.yul\":13536:13558   */\n      swap1\n      pop\n        /* \"#utility.yul\":13505:13565   */\n      swap2\n      swap1\n      pop\n      jump\t// out\n        /* \"#utility.yul\":13571:13685   */\n    tag_351:\n      0x00\n        /* \"#utility.yul\":13672:13677   */\n      dup2\n        /* \"#utility.yul\":13666:13678   */\n      mload\n        /* \"#utility.yul\":13656:13678   */\n      swap1\n      pop\n        /* \"#utility.yul\":13645:13685   */\n      swap2\n      swap1\n      pop\n      jump\t// out\n        /* \"#utility.yul\":13691:13789   */\n    tag_376:\n      0x00\n        /* \"#utility.yul\":13776:13781   */\n      dup2\n        /* \"#utility.yul\":13770:13782   */\n      mload\n        /* \"#utility.yul\":13760:13782   */\n      swap1\n      pop\n        /* \"#utility.yul\":13749:13789   */\n      swap2\n      swap1\n      pop\n      jump\t// out\n        /* \"#utility.yul\":13795:13894   */\n    tag_386:\n      0x00\n        /* \"#utility.yul\":13881:13886   */\n      dup2\n        /* \"#utility.yul\":13875:13887   */\n      mload\n        /* \"#utility.yul\":13865:13887   */\n      swap1\n      pop\n        /* \"#utility.yul\":13854:13894   */\n      swap2\n      swap1\n      pop\n      jump\t// out\n        /* \"#utility.yul\":13900:14013   */\n    tag_361:\n      0x00\n        /* \"#utility.yul\":14002:14006   */\n      0x20\n        /* \"#utility.yul\":13997:14000   */\n      dup3\n        /* \"#utility.yul\":13993:14007   */\n      add\n        /* \"#utility.yul\":13985:14007   */\n      swap1\n      pop\n        /* \"#utility.yul\":13975:14013   */\n      swap2\n      swap1\n      pop\n      jump\t// out\n        /* \"#utility.yul\":14019:14203   */\n    tag_353:\n      0x00\n        /* \"#utility.yul\":14152:14158   */\n      dup3\n        /* \"#utility.yul\":14147:14150   */\n      dup3\n        /* \"#utility.yul\":14140:14159   */\n      mstore\n        /* \"#utility.yul\":14192:14196   */\n      0x20\n        /* \"#utility.yul\":14187:14190   */\n      dup3\n        /* \"#utility.yul\":14183:14197   */\n      add\n        /* \"#utility.yul\":14168:14197   */\n      swap1\n      pop\n        /* \"#utility.yul\":14130:14203   */\n      swap3\n      swap2\n      pop\n      pop\n      jump\t// out\n        /* \"#utility.yul\":14209:14377   */\n    tag_378:\n      0x00\n        /* \"#utility.yul\":14326:14332   */\n      dup3\n        /* \"#utility.yul\":14321:14324   */\n      dup3\n        /* \"#utility.yul\":14314:14333   */\n      mstore\n        /* \"#utility.yul\":14366:14370   */\n      0x20\n        /* \"#utility.yul\":14361:14364   */\n      dup3\n        /* \"#utility.yul\":14357:14371   */\n      add\n        /* \"#utility.yul\":14342:14371   */\n      swap1\n      pop\n        /* \"#utility.yul\":14304:14377   */\n      swap3\n      swap2\n      pop\n      pop\n      jump\t// out\n        /* \"#utility.yul\":14383:14552   */\n    tag_388:\n      0x00\n        /* \"#utility.yul\":14501:14507   */\n      dup3\n        /* \"#utility.yul\":14496:14499   */\n      dup3\n        /* \"#utility.yul\":14489:14508   */\n      mstore\n        /* \"#utility.yul\":14541:14545   */\n      0x20\n        /* \"#utility.yul\":14536:14539   */\n      dup3\n        /* \"#utility.yul\":14532:14546   */\n      add\n        /* \"#utility.yul\":14517:14546   */\n      swap1\n      pop\n        /* \"#utility.yul\":14479:14552   */\n      swap3\n      swap2\n      pop\n      pop\n      jump\t// out\n        /* \"#utility.yul\":14558:14800   */\n    tag_111:\n      0x00\n        /* \"#utility.yul\":14616:14635   */\n      tag_482\n        /* \"#utility.yul\":14633:14634   */\n      dup3\n        /* \"#utility.yul\":14616:14635   */\n      tag_414\n      jump\t// in\n    tag_482:\n        /* \"#utility.yul\":14611:14635   */\n      swap2\n      pop\n        /* \"#utility.yul\":14649:14668   */\n      tag_483\n        /* \"#utility.yul\":14666:14667   */\n      dup4\n        /* \"#utility.yul\":14649:14668   */\n      tag_414\n      jump\t// in\n    tag_483:\n        /* \"#utility.yul\":14644:14668   */\n      swap3\n      pop\n        /* \"#utility.yul\":14742:14743   */\n      dup3\n        /* \"#utility.yul\":14734:14740   */\n      0xffff\n        /* \"#utility.yul\":14730:14744   */\n      sub\n        /* \"#utility.yul\":14727:14728   */\n      dup3\n        /* \"#utility.yul\":14724:14745   */\n      gt\n        /* \"#utility.yul\":14721:14723   */\n      iszero\n      tag_484\n      jumpi\n        /* \"#utility.yul\":14748:14766   */\n      tag_485\n      tag_486\n      jump\t// in\n    tag_485:\n        /* \"#utility.yul\":14721:14723   */\n    tag_484:\n        /* \"#utility.yul\":14792:14793   */\n      dup3\n        /* \"#utility.yul\":14789:14790   */\n      dup3\n        /* \"#utility.yul\":14785:14794   */\n      add\n        /* \"#utility.yul\":14778:14794   */\n      swap1\n      pop\n        /* \"#utility.yul\":14601:14800   */\n      swap3\n      swap2\n      pop\n      pop\n      jump\t// out\n        /* \"#utility.yul\":14806:14991   */\n    tag_286:\n      0x00\n        /* \"#utility.yul\":14863:14883   */\n      tag_488\n        /* \"#utility.yul\":14881:14882   */\n      dup3\n        /* \"#utility.yul\":14863:14883   */\n      tag_418\n      jump\t// in\n    tag_488:\n        /* \"#utility.yul\":14858:14883   */\n      swap2\n      pop\n        /* \"#utility.yul\":14897:14917   */\n      tag_489\n        /* \"#utility.yul\":14915:14916   */\n      dup4\n        /* \"#utility.yul\":14897:14917   */\n      tag_418\n      jump\t// in\n    tag_489:\n        /* \"#utility.yul\":14892:14917   */\n      swap3\n      pop\n        /* \"#utility.yul\":14936:14937   */\n      dup3\n        /* \"#utility.yul\":14926:14928   */\n      tag_490\n      jumpi\n        /* \"#utility.yul\":14941:14959   */\n      tag_491\n      tag_492\n      jump\t// in\n    tag_491:\n        /* \"#utility.yul\":14926:14928   */\n    tag_490:\n        /* \"#utility.yul\":14983:14984   */\n      dup3\n        /* \"#utility.yul\":14980:14981   */\n      dup3\n        /* \"#utility.yul\":14976:14985   */\n      div\n        /* \"#utility.yul\":14971:14985   */\n      swap1\n      pop\n        /* \"#utility.yul\":14848:14991   */\n      swap3\n      swap2\n      pop\n      pop\n      jump\t// out\n        /* \"#utility.yul\":14997:15282   */\n    tag_70:\n      0x00\n        /* \"#utility.yul\":15059:15078   */\n      tag_494\n        /* \"#utility.yul\":15076:15077   */\n      dup3\n        /* \"#utility.yul\":15059:15078   */\n      tag_414\n      jump\t// in\n    tag_494:\n        /* \"#utility.yul\":15054:15078   */\n      swap2\n      pop\n        /* \"#utility.yul\":15092:15111   */\n      tag_495\n        /* \"#utility.yul\":15109:15110   */\n      dup4\n        /* \"#utility.yul\":15092:15111   */\n      tag_414\n      jump\t// in\n    tag_495:\n        /* \"#utility.yul\":15087:15111   */\n      swap3\n      pop\n        /* \"#utility.yul\":15219:15220   */\n      dup2\n        /* \"#utility.yul\":15211:15217   */\n      0xffff\n        /* \"#utility.yul\":15207:15221   */\n      div\n        /* \"#utility.yul\":15204:15205   */\n      dup4\n        /* \"#utility.yul\":15201:15222   */\n      gt\n        /* \"#utility.yul\":15196:15197   */\n      dup3\n        /* \"#utility.yul\":15189:15198   */\n      iszero\n        /* \"#utility.yul\":15182:15199   */\n      iszero\n        /* \"#utility.yul\":15178:15223   */\n      and\n        /* \"#utility.yul\":15175:15177   */\n      iszero\n      tag_496\n      jumpi\n        /* \"#utility.yul\":15226:15244   */\n      tag_497\n      tag_486\n      jump\t// in\n    tag_497:\n        /* \"#utility.yul\":15175:15177   */\n    tag_496:\n        /* \"#utility.yul\":15274:15275   */\n      dup3\n        /* \"#utility.yul\":15271:15272   */\n      dup3\n        /* \"#utility.yul\":15267:15276   */\n      mul\n        /* \"#utility.yul\":15256:15276   */\n      swap1\n      pop\n        /* \"#utility.yul\":15044:15282   */\n      swap3\n      swap2\n      pop\n      pop\n      jump\t// out\n        /* \"#utility.yul\":15288:15636   */\n    tag_293:\n      0x00\n        /* \"#utility.yul\":15351:15371   */\n      tag_499\n        /* \"#utility.yul\":15369:15370   */\n      dup3\n        /* \"#utility.yul\":15351:15371   */\n      tag_418\n      jump\t// in\n    tag_499:\n        /* \"#utility.yul\":15346:15371   */\n      swap2\n      pop\n        /* \"#utility.yul\":15385:15405   */\n      tag_500\n        /* \"#utility.yul\":15403:15404   */\n      dup4\n        /* \"#utility.yul\":15385:15405   */\n      tag_418\n      jump\t// in\n    tag_500:\n        /* \"#utility.yul\":15380:15405   */\n      swap3\n      pop\n        /* \"#utility.yul\":15573:15574   */\n      dup2\n        /* \"#utility.yul\":15505:15571   */\n      0xffffffffffffffffffffffffffffffffffffffffffffffffffffffffffffffff\n        /* \"#utility.yul\":15501:15575   */\n      div\n        /* \"#utility.yul\":15498:15499   */\n      dup4\n        /* \"#utility.yul\":15495:15576   */\n      gt\n        /* \"#utility.yul\":15490:15491   */\n      dup3\n        /* \"#utility.yul\":15483:15492   */\n      iszero\n        /* \"#utility.yul\":15476:15493   */\n      iszero\n        /* \"#utility.yul\":15472:15577   */\n      and\n        /* \"#utility.yul\":15469:15471   */\n      iszero\n      tag_501\n      jumpi\n        /* \"#utility.yul\":15580:15598   */\n      tag_502\n      tag_486\n      jump\t// in\n    tag_502:\n        /* \"#utility.yul\":15469:15471   */\n    tag_501:\n        /* \"#utility.yul\":15628:15629   */\n      dup3\n        /* \"#utility.yul\":15625:15626   */\n      dup3\n        /* \"#utility.yul\":15621:15630   */\n      mul\n        /* \"#utility.yul\":15610:15630   */\n      swap1\n      pop\n        /* \"#utility.yul\":15336:15636   */\n      swap3\n      swap2\n      pop\n      pop\n      jump\t// out\n        /* \"#utility.yul\":15642:15833   */\n    tag_126:\n      0x00\n        /* \"#utility.yul\":15702:15722   */\n      tag_504\n        /* \"#utility.yul\":15720:15721   */\n      dup3\n        /* \"#utility.yul\":15702:15722   */\n      tag_418\n      jump\t// in\n    tag_504:\n        /* \"#utility.yul\":15697:15722   */\n      swap2\n      pop\n        /* \"#utility.yul\":15736:15756   */\n      tag_505\n        /* \"#utility.yul\":15754:15755   */\n      dup4\n        /* \"#utility.yul\":15736:15756   */\n      tag_418\n      jump\t// in\n    tag_505:\n        /* \"#utility.yul\":15731:15756   */\n      swap3\n      pop\n        /* \"#utility.yul\":15775:15776   */\n      dup3\n        /* \"#utility.yul\":15772:15773   */\n      dup3\n        /* \"#utility.yul\":15769:15777   */\n      lt\n        /* \"#utility.yul\":15766:15768   */\n      iszero\n      tag_506\n      jumpi\n        /* \"#utility.yul\":15780:15798   */\n      tag_507\n      tag_486\n      jump\t// in\n    tag_507:\n        /* \"#utility.yul\":15766:15768   */\n    tag_506:\n        /* \"#utility.yul\":15825:15826   */\n      dup3\n        /* \"#utility.yul\":15822:15823   */\n      dup3\n        /* \"#utility.yul\":15818:15827   */\n      sub\n        /* \"#utility.yul\":15810:15827   */\n      swap1\n      pop\n        /* \"#utility.yul\":15687:15833   */\n      swap3\n      swap2\n      pop\n      pop\n      jump\t// out\n        /* \"#utility.yul\":15839:15935   */\n    tag_347:\n      0x00\n        /* \"#utility.yul\":15905:15929   */\n      tag_509\n        /* \"#utility.yul\":15923:15928   */\n      dup3\n        /* \"#utility.yul\":15905:15929   */\n      tag_510\n      jump\t// in\n    tag_509:\n        /* \"#utility.yul\":15894:15929   */\n      swap1\n      pop\n        /* \"#utility.yul\":15884:15935   */\n      swap2\n      swap1\n      pop\n      jump\t// out\n        /* \"#utility.yul\":15941:16018   */\n    tag_364:\n      0x00\n        /* \"#utility.yul\":16007:16012   */\n      dup2\n        /* \"#utility.yul\":15996:16012   */\n      swap1\n      pop\n        /* \"#utility.yul\":15986:16018   */\n      swap2\n      swap1\n      pop\n      jump\t// out\n        /* \"#utility.yul\":16024:16113   */\n    tag_414:\n      0x00\n        /* \"#utility.yul\":16100:16106   */\n      0xffff\n        /* \"#utility.yul\":16093:16098   */\n      dup3\n        /* \"#utility.yul\":16089:16107   */\n      and\n        /* \"#utility.yul\":16078:16107   */\n      swap1\n      pop\n        /* \"#utility.yul\":16068:16113   */\n      swap2\n      swap1\n      pop\n      jump\t// out\n        /* \"#utility.yul\":16119:16245   */\n    tag_510:\n      0x00\n        /* \"#utility.yul\":16196:16238   */\n      0xffffffffffffffffffffffffffffffffffffffff\n        /* \"#utility.yul\":16189:16194   */\n      dup3\n        /* \"#utility.yul\":16185:16239   */\n      and\n        /* \"#utility.yul\":16174:16239   */\n      swap1\n      pop\n        /* \"#utility.yul\":16164:16245   */\n      swap2\n      swap1\n      pop\n      jump\t// out\n        /* \"#utility.yul\":16251:16328   */\n    tag_418:\n      0x00\n        /* \"#utility.yul\":16317:16322   */\n      dup2\n        /* \"#utility.yul\":16306:16322   */\n      swap1\n      pop\n        /* \"#utility.yul\":16296:16328   */\n      swap2\n      swap1\n      pop\n      jump\t// out\n        /* \"#utility.yul\":16334:16641   */\n    tag_380:\n        /* \"#utility.yul\":16402:16403   */\n      0x00\n        /* \"#utility.yul\":16412:16525   */\n    tag_516:\n        /* \"#utility.yul\":16426:16432   */\n      dup4\n        /* \"#utility.yul\":16423:16424   */\n      dup2\n        /* \"#utility.yul\":16420:16433   */\n      lt\n        /* \"#utility.yul\":16412:16525   */\n      iszero\n      tag_518\n      jumpi\n        /* \"#utility.yul\":16511:16512   */\n      dup1\n        /* \"#utility.yul\":16506:16509   */\n      dup3\n        /* \"#utility.yul\":16502:16513   */\n      add\n        /* \"#utility.yul\":16496:16514   */\n      mload\n        /* \"#utility.yul\":16492:16493   */\n      dup2\n        /* \"#utility.yul\":16487:16490   */\n      dup5\n        /* \"#utility.yul\":16483:16494   */\n      add\n        /* \"#utility.yul\":16476:16515   */\n      mstore\n        /* \"#utility.yul\":16448:16450   */\n      0x20\n        /* \"#utility.yul\":16445:16446   */\n      dup2\n        /* \"#utility.yul\":16441:16451   */\n      add\n        /* \"#utility.yul\":16436:16451   */\n      swap1\n      pop\n        /* \"#utility.yul\":16412:16525   */\n      jump(tag_516)\n    tag_518:\n        /* \"#utility.yul\":16543:16549   */\n      dup4\n        /* \"#utility.yul\":16540:16541   */\n      dup2\n        /* \"#utility.yul\":16537:16550   */\n      gt\n        /* \"#utility.yul\":16534:16536   */\n      iszero\n      tag_519\n      jumpi\n        /* \"#utility.yul\":16623:16624   */\n      0x00\n        /* \"#utility.yul\":16614:16620   */\n      dup5\n        /* \"#utility.yul\":16609:16612   */\n      dup5\n        /* \"#utility.yul\":16605:16621   */\n      add\n        /* \"#utility.yul\":16598:16625   */\n      mstore\n        /* \"#utility.yul\":16534:16536   */\n    tag_519:\n        /* \"#utility.yul\":16383:16641   */\n      pop\n      pop\n      pop\n      pop\n      jump\t// out\n        /* \"#utility.yul\":16647:16816   */\n    tag_261:\n      0x00\n        /* \"#utility.yul\":16708:16731   */\n      tag_521\n        /* \"#utility.yul\":16725:16730   */\n      dup3\n        /* \"#utility.yul\":16708:16731   */\n      tag_414\n      jump\t// in\n    tag_521:\n        /* \"#utility.yul\":16699:16731   */\n      swap2\n      pop\n        /* \"#utility.yul\":16753:16757   */\n      0x00\n        /* \"#utility.yul\":16746:16751   */\n      dup3\n        /* \"#utility.yul\":16743:16758   */\n      eq\n        /* \"#utility.yul\":16740:16742   */\n      iszero\n      tag_522\n      jumpi\n        /* \"#utility.yul\":16761:16779   */\n      tag_523\n      tag_486\n      jump\t// in\n    tag_523:\n        /* \"#utility.yul\":16740:16742   */\n    tag_522:\n        /* \"#utility.yul\":16808:16809   */\n      0x01\n        /* \"#utility.yul\":16801:16806   */\n      dup3\n        /* \"#utility.yul\":16797:16810   */\n      sub\n        /* \"#utility.yul\":16790:16810   */\n      swap1\n      pop\n        /* \"#utility.yul\":16689:16816   */\n      swap2\n      swap1\n      pop\n      jump\t// out\n        /* \"#utility.yul\":16822:17142   */\n    tag_88:\n      0x00\n        /* \"#utility.yul\":16903:16904   */\n      0x02\n        /* \"#utility.yul\":16897:16901   */\n      dup3\n        /* \"#utility.yul\":16893:16905   */\n      div\n        /* \"#utility.yul\":16883:16905   */\n      swap1\n      pop\n        /* \"#utility.yul\":16950:16951   */\n      0x01\n        /* \"#utility.yul\":16944:16948   */\n      dup3\n        /* \"#utility.yul\":16940:16952   */\n      and\n        /* \"#utility.yul\":16971:16989   */\n      dup1\n        /* \"#utility.yul\":16961:16963   */\n      tag_525\n      jumpi\n        /* \"#utility.yul\":17027:17031   */\n      0x7f\n        /* \"#utility.yul\":17019:17025   */\n      dup3\n        /* \"#utility.yul\":17015:17032   */\n      and\n        /* \"#utility.yul\":17005:17032   */\n      swap2\n      pop\n        /* \"#utility.yul\":16961:16963   */\n    tag_525:\n        /* \"#utility.yul\":17089:17091   */\n      0x20\n        /* \"#utility.yul\":17081:17087   */\n      dup3\n        /* \"#utility.yul\":17078:17092   */\n      lt\n        /* \"#utility.yul\":17058:17076   */\n      dup2\n        /* \"#utility.yul\":17055:17093   */\n      eq\n        /* \"#utility.yul\":17052:17054   */\n      iszero\n      tag_526\n      jumpi\n        /* \"#utility.yul\":17108:17126   */\n      tag_527\n      tag_528\n      jump\t// in\n    tag_527:\n        /* \"#utility.yul\":17052:17054   */\n    tag_526:\n        /* \"#utility.yul\":16873:17142   */\n      pop\n      swap2\n      swap1\n      pop\n      jump\t// out\n        /* \"#utility.yul\":17148:17319   */\n    tag_249:\n      0x00\n        /* \"#utility.yul\":17209:17232   */\n      tag_530\n        /* \"#utility.yul\":17226:17231   */\n      dup3\n        /* \"#utility.yul\":17209:17232   */\n      tag_414\n      jump\t// in\n    tag_530:\n        /* \"#utility.yul\":17200:17232   */\n      swap2\n      pop\n        /* \"#utility.yul\":17254:17260   */\n      0xffff\n        /* \"#utility.yul\":17247:17252   */\n      dup3\n        /* \"#utility.yul\":17244:17261   */\n      eq\n        /* \"#utility.yul\":17241:17243   */\n      iszero\n      tag_531\n      jumpi\n        /* \"#utility.yul\":17264:17282   */\n      tag_532\n      tag_486\n      jump\t// in\n    tag_532:\n        /* \"#utility.yul\":17241:17243   */\n    tag_531:\n        /* \"#utility.yul\":17311:17312   */\n      0x01\n        /* \"#utility.yul\":17304:17309   */\n      dup3\n        /* \"#utility.yul\":17300:17313   */\n      add\n        /* \"#utility.yul\":17293:17313   */\n      swap1\n      pop\n        /* \"#utility.yul\":17190:17319   */\n      swap2\n      swap1\n      pop\n      jump\t// out\n        /* \"#utility.yul\":17325:17558   */\n    tag_205:\n      0x00\n        /* \"#utility.yul\":17387:17411   */\n      tag_534\n        /* \"#utility.yul\":17405:17410   */\n      dup3\n        /* \"#utility.yul\":17387:17411   */\n      tag_418\n      jump\t// in\n    tag_534:\n        /* \"#utility.yul\":17378:17411   */\n      swap2\n      pop\n        /* \"#utility.yul\":17433:17499   */\n      0xffffffffffffffffffffffffffffffffffffffffffffffffffffffffffffffff\n        /* \"#utility.yul\":17426:17431   */\n      dup3\n        /* \"#utility.yul\":17423:17500   */\n      eq\n        /* \"#utility.yul\":17420:17422   */\n      iszero\n      tag_535\n      jumpi\n        /* \"#utility.yul\":17503:17521   */\n      tag_536\n      tag_486\n      jump\t// in\n    tag_536:\n        /* \"#utility.yul\":17420:17422   */\n    tag_535:\n        /* \"#utility.yul\":17550:17551   */\n      0x01\n        /* \"#utility.yul\":17543:17548   */\n      dup3\n        /* \"#utility.yul\":17539:17552   */\n      add\n        /* \"#utility.yul\":17532:17552   */\n      swap1\n      pop\n        /* \"#utility.yul\":17368:17558   */\n      swap2\n      swap1\n      pop\n      jump\t// out\n        /* \"#utility.yul\":17564:17643   */\n    tag_372:\n      0x00\n        /* \"#utility.yul\":17632:17637   */\n      dup2\n        /* \"#utility.yul\":17621:17637   */\n      swap1\n      pop\n        /* \"#utility.yul\":17611:17643   */\n      swap2\n      swap1\n      pop\n      jump\t// out\n        /* \"#utility.yul\":17649:17825   */\n    tag_288:\n      0x00\n        /* \"#utility.yul\":17698:17718   */\n      tag_539\n        /* \"#utility.yul\":17716:17717   */\n      dup3\n        /* \"#utility.yul\":17698:17718   */\n      tag_418\n      jump\t// in\n    tag_539:\n        /* \"#utility.yul\":17693:17718   */\n      swap2\n      pop\n        /* \"#utility.yul\":17732:17752   */\n      tag_540\n        /* \"#utility.yul\":17750:17751   */\n      dup4\n        /* \"#utility.yul\":17732:17752   */\n      tag_418\n      jump\t// in\n    tag_540:\n        /* \"#utility.yul\":17727:17752   */\n      swap3\n      pop\n        /* \"#utility.yul\":17771:17772   */\n      dup3\n        /* \"#utility.yul\":17761:17763   */\n      tag_541\n      jumpi\n        /* \"#utility.yul\":17776:17794   */\n      tag_542\n      tag_492\n      jump\t// in\n    tag_542:\n        /* \"#utility.yul\":17761:17763   */\n    tag_541:\n        /* \"#utility.yul\":17817:17818   */\n      dup3\n        /* \"#utility.yul\":17814:17815   */\n      dup3\n        /* \"#utility.yul\":17810:17819   */\n      mod\n        /* \"#utility.yul\":17805:17819   */\n      swap1\n      pop\n        /* \"#utility.yul\":17683:17825   */\n      swap3\n      swap2\n      pop\n      pop\n      jump\t// out\n        /* \"#utility.yul\":17831:18011   */\n    tag_486:\n        /* \"#utility.yul\":17879:17956   */\n      0x4e487b7100000000000000000000000000000000000000000000000000000000\n        /* \"#utility.yul\":17876:17877   */\n      0x00\n        /* \"#utility.yul\":17869:17957   */\n      mstore\n        /* \"#utility.yul\":17976:17980   */\n      0x11\n        /* \"#utility.yul\":17973:17974   */\n      0x04\n        /* \"#utility.yul\":17966:17981   */\n      mstore\n        /* \"#utility.yul\":18000:18004   */\n      0x24\n        /* \"#utility.yul\":17997:17998   */\n      0x00\n        /* \"#utility.yul\":17990:18005   */\n      revert\n        /* \"#utility.yul\":18017:18197   */\n    tag_492:\n        /* \"#utility.yul\":18065:18142   */\n      0x4e487b7100000000000000000000000000000000000000000000000000000000\n        /* \"#utility.yul\":18062:18063   */\n      0x00\n        /* \"#utility.yul\":18055:18143   */\n      mstore\n        /* \"#utility.yul\":18162:18166   */\n      0x12\n        /* \"#utility.yul\":18159:18160   */\n      0x04\n        /* \"#utility.yul\":18152:18167   */\n      mstore\n        /* \"#utility.yul\":18186:18190   */\n      0x24\n        /* \"#utility.yul\":18183:18184   */\n      0x00\n        /* \"#utility.yul\":18176:18191   */\n      revert\n        /* \"#utility.yul\":18203:18383   */\n    tag_528:\n        /* \"#utility.yul\":18251:18328   */\n      0x4e487b7100000000000000000000000000000000000000000000000000000000\n        /* \"#utility.yul\":18248:18249   */\n      0x00\n        /* \"#utility.yul\":18241:18329   */\n      mstore\n        /* \"#utility.yul\":18348:18352   */\n      0x22\n        /* \"#utility.yul\":18345:18346   */\n      0x04\n        /* \"#utility.yul\":18338:18353   */\n      mstore\n        /* \"#utility.yul\":18372:18376   */\n      0x24\n        /* \"#utility.yul\":18369:18370   */\n      0x00\n        /* \"#utility.yul\":18362:18377   */\n      revert\n        /* \"#utility.yul\":18389:18491   */\n    tag_382:\n      0x00\n        /* \"#utility.yul\":18481:18483   */\n      0x1f\n        /* \"#utility.yul\":18477:18484   */\n      not\n        /* \"#utility.yul\":18472:18474   */\n      0x1f\n        /* \"#utility.yul\":18465:18470   */\n      dup4\n        /* \"#utility.yul\":18461:18475   */\n      add\n        /* \"#utility.yul\":18457:18485   */\n      and\n        /* \"#utility.yul\":18447:18485   */\n      swap1\n      pop\n        /* \"#utility.yul\":18437:18491   */\n      swap2\n      swap1\n      pop\n      jump\t// out\n        /* \"#utility.yul\":18497:18727   */\n    tag_395:\n        /* \"#utility.yul\":18637:18671   */\n      0x546865206964206f662074686520696e7375726564206973206e6f7420696e20\n        /* \"#utility.yul\":18633:18634   */\n      0x00\n        /* \"#utility.yul\":18625:18631   */\n      dup3\n        /* \"#utility.yul\":18621:18635   */\n      add\n        /* \"#utility.yul\":18614:18672   */\n      mstore\n        /* \"#utility.yul\":18706:18719   */\n      0x74686520706f6c6963792e000000000000000000000000000000000000000000\n        /* \"#utility.yul\":18701:18703   */\n      0x20\n        /* \"#utility.yul\":18693:18699   */\n      dup3\n        /* \"#utility.yul\":18689:18704   */\n      add\n        /* \"#utility.yul\":18682:18720   */\n      mstore\n        /* \"#utility.yul\":18603:18727   */\n      pop\n      jump\t// out\n        /* \"#utility.yul\":18733:18911   */\n    tag_400:\n        /* \"#utility.yul\":18873:18903   */\n      0x59612065786973746520756e612050435220636f6e2065736520494400000000\n        /* \"#utility.yul\":18869:18870   */\n      0x00\n        /* \"#utility.yul\":18861:18867   */\n      dup3\n        /* \"#utility.yul\":18857:18871   */\n      add\n        /* \"#utility.yul\":18850:18904   */\n      mstore\n        /* \"#utility.yul\":18839:18911   */\n      pop\n      jump\t// out\n        /* \"#utility.yul\":18917:19091   */\n    tag_405:\n        /* \"#utility.yul\":19057:19083   */\n      0x4c6120504352207469656e652071756520657869737469720000000000000000\n        /* \"#utility.yul\":19053:19054   */\n      0x00\n        /* \"#utility.yul\":19045:19051   */\n      dup3\n        /* \"#utility.yul\":19041:19055   */\n      add\n        /* \"#utility.yul\":19034:19084   */\n      mstore\n        /* \"#utility.yul\":19023:19091   */\n      pop\n      jump\t// out\n        /* \"#utility.yul\":19097:19275   */\n    tag_410:\n        /* \"#utility.yul\":19237:19267   */\n      0x4e6f2065786973746520756e612050435220636f6e2065736120494400000000\n        /* \"#utility.yul\":19233:19234   */\n      0x00\n        /* \"#utility.yul\":19225:19231   */\n      dup3\n        /* \"#utility.yul\":19221:19235   */\n      add\n        /* \"#utility.yul\":19214:19268   */\n      mstore\n        /* \"#utility.yul\":19203:19275   */\n      pop\n      jump\t// out\n        /* \"#utility.yul\":19281:19403   */\n    tag_315:\n        /* \"#utility.yul\":19354:19378   */\n      tag_552\n        /* \"#utility.yul\":19372:19377   */\n      dup2\n        /* \"#utility.yul\":19354:19378   */\n      tag_347\n      jump\t// in\n    tag_552:\n        /* \"#utility.yul\":19347:19352   */\n      dup2\n        /* \"#utility.yul\":19344:19379   */\n      eq\n        /* \"#utility.yul\":19334:19336   */\n      tag_553\n      jumpi\n        /* \"#utility.yul\":19393:19394   */\n      0x00\n        /* \"#utility.yul\":19390:19391   */\n      dup1\n        /* \"#utility.yul\":19383:19395   */\n      revert\n        /* \"#utility.yul\":19334:19336   */\n    tag_553:\n        /* \"#utility.yul\":19324:19403   */\n      pop\n      jump\t// out\n        /* \"#utility.yul\":19409:19531   */\n    tag_319:\n        /* \"#utility.yul\":19482:19506   */\n      tag_555\n        /* \"#utility.yul\":19500:19505   */\n      dup2\n        /* \"#utility.yul\":19482:19506   */\n      tag_364\n      jump\t// in\n    tag_555:\n        /* \"#utility.yul\":19475:19480   */\n      dup2\n        /* \"#utility.yul\":19472:19507   */\n      eq\n        /* \"#utility.yul\":19462:19464   */\n      tag_556\n      jumpi\n        /* \"#utility.yul\":19521:19522   */\n      0x00\n        /* \"#utility.yul\":19518:19519   */\n      dup1\n        /* \"#utility.yul\":19511:19523   */\n      revert\n        /* \"#utility.yul\":19462:19464   */\n    tag_556:\n        /* \"#utility.yul\":19452:19531   */\n      pop\n      jump\t// out\n        /* \"#utility.yul\":19537:19659   */\n    tag_323:\n        /* \"#utility.yul\":19610:19634   */\n      tag_558\n        /* \"#utility.yul\":19628:19633   */\n      dup2\n        /* \"#utility.yul\":19610:19634   */\n      tag_418\n      jump\t// in\n    tag_558:\n        /* \"#utility.yul\":19603:19608   */\n      dup2\n        /* \"#utility.yul\":19600:19635   */\n      eq\n        /* \"#utility.yul\":19590:19592   */\n      tag_559\n      jumpi\n        /* \"#utility.yul\":19649:19650   */\n      0x00\n        /* \"#utility.yul\":19646:19647   */\n      dup1\n        /* \"#utility.yul\":19639:19651   */\n      revert\n        /* \"#utility.yul\":19590:19592   */\n    tag_559:\n        /* \"#utility.yul\":19580:19659   */\n      pop\n      jump\t// out\n\n    auxdata: 0xa26469706673582212207cb99d73318d1625c0a5a3dec6372055e8a745ef33e88e5a04245c335d9b0c2164736f6c63430008030033\n}\n",
    "bytecode": {
      "linkReferences": {},
      "object": "60806040523480156200001157600080fd5b5060405162003c3e38038062003c3e833981810160405281019062000037919062000d88565b336000806101000a81548173ffffffffffffffffffffffffffffffffffffffff021916908373ffffffffffffffffffffffffffffffffffffffff1602179055506000600160146101000a81548160ff0219169083151502179055508060106002019080519060200190620000ad929190620009ca565b508160106001019080519060200190620000c9929190620009ca565b508260106000019080519060200190620000e5929190620009ca565b508360008151811062000121577f4e487b7100000000000000000000000000000000000000000000000000000000600052603260045260246000fd5b6020026020010151601060040181905550836001815181106200016d577f4e487b7100000000000000000000000000000000000000000000000000000000600052603260045260246000fd5b602002602001015160106005018190555083600281518110620001b9577f4e487b7100000000000000000000000000000000000000000000000000000000600052603260045260246000fd5b60200260200101516010600601819055508360038151811062000205577f4e487b7100000000000000000000000000000000000000000000000000000000600052603260045260246000fd5b60200260200101516010600701819055508360048151811062000251577f4e487b7100000000000000000000000000000000000000000000000000000000600052603260045260246000fd5b6020026020010151601060080181905550836005815181106200029d577f4e487b7100000000000000000000000000000000000000000000000000000000600052603260045260246000fd5b602002602001015160106009018190555083600681518110620002e9577f4e487b7100000000000000000000000000000000000000000000000000000000600052603260045260246000fd5b60200260200101516010600a0181905550600285511462000341576040517f08c379a0000000000000000000000000000000000000000000000000000000008152600401620003389062001057565b60405180910390fd5b846000815181106200037c577f4e487b7100000000000000000000000000000000000000000000000000000000600052603260045260246000fd5b6020026020010151600a60000160006101000a81548161ffff021916908361ffff16021790555084600181518110620003de577f4e487b7100000000000000000000000000000000000000000000000000000000600052603260045260246000fd5b6020026020010151600a60000160026101000a81548161ffff021916908361ffff16021790555060038651146200044c576040517f08c379a00000000000000000000000000000000000000000000000000000000081526004016200044390620010bd565b60405180910390fd5b8560018151811062000487577f4e487b7100000000000000000000000000000000000000000000000000000000600052603260045260246000fd5b602002602001015186600081518110620004ca577f4e487b7100000000000000000000000000000000000000000000000000000000600052603260045260246000fd5b60200260200101511062000515576040517f08c379a00000000000000000000000000000000000000000000000000000000081526004016200050c906200109b565b60405180910390fd5b8560008151811062000550577f4e487b7100000000000000000000000000000000000000000000000000000000600052603260045260246000fd5b6020026020010151600a60020181905550856001815181106200059c577f4e487b7100000000000000000000000000000000000000000000000000000000600052603260045260246000fd5b6020026020010151600a6003018190555085600281518110620005e8577f4e487b7100000000000000000000000000000000000000000000000000000000600052603260045260246000fd5b6020026020010151600a6004018190555086600a60050190805190602001906200061492919062000a5b565b5060028851146200065c576040517f08c379a0000000000000000000000000000000000000000000000000000000008152600401620006539062001079565b60405180910390fd5b8760018151811062000697577f4e487b7100000000000000000000000000000000000000000000000000000000600052603260045260246000fd5b602002602001015160106003018190555087600081518110620006e3577f4e487b7100000000000000000000000000000000000000000000000000000000600052603260045260246000fd5b6020026020010151600a6001018190555086518951146200070357600080fd5b86518a51146200071257600080fd5b60005b87518110156200096d576001600460008a84815181106200075f577f4e487b7100000000000000000000000000000000000000000000000000000000600052603260045260246000fd5b6020026020010151815260200190815260200160002060006101000a81548160ff0219169083151502179055506203f480426200079d9190620011dc565b8a8281518110620007d7577f4e487b7100000000000000000000000000000000000000000000000000000000600052603260045260246000fd5b6020026020010151101562000823576040517f08c379a00000000000000000000000000000000000000000000000000000000081526004016200081a9062001035565b60405180910390fd5b8981815181106200085d577f4e487b7100000000000000000000000000000000000000000000000000000000600052603260045260246000fd5b6020026020010151600860008a8481518110620008a3577f4e487b7100000000000000000000000000000000000000000000000000000000600052603260045260246000fd5b60200260200101518152602001908152602001600020819055508a8181518110620008f7577f4e487b7100000000000000000000000000000000000000000000000000000000600052603260045260246000fd5b6020026020010151600760008a84815181106200093d577f4e487b7100000000000000000000000000000000000000000000000000000000600052603260045260246000fd5b602002602001015181526020019081526020016000208190555080806200096490620012db565b91505062000715565b50600a6005018054905060ff16600a60000160066101000a81548161ffff021916908361ffff1602179055506000600a60000160046101000a81548161ffff021916908361ffff16021790555050505050505050505050620015c6565b828054620009d8906200126f565b90600052602060002090601f016020900481019282620009fc576000855562000a48565b82601f1062000a1757805160ff191683800117855562000a48565b8280016001018555821562000a48579182015b8281111562000a4757825182559160200191906001019062000a2a565b5b50905062000a57919062000aad565b5090565b82805482825590600052602060002090810192821562000a9a579160200282015b8281111562000a9957825182559160200191906001019062000a7c565b5b50905062000aa9919062000acc565b5090565b5b8082111562000ac857600081600090555060010162000aae565b5090565b5b8082111562000ae757600081600090555060010162000acd565b5090565b600062000b0262000afc8462001108565b620010df565b9050808382526020820190508285602086028201111562000b2257600080fd5b60005b8581101562000b56578162000b3b888262000d16565b84526020840193506020830192505060018101905062000b25565b5050509392505050565b600062000b7762000b718462001137565b620010df565b9050808382526020820190508285602086028201111562000b9757600080fd5b60005b8581101562000bcb578162000bb0888262000d5a565b84526020840193506020830192505060018101905062000b9a565b5050509392505050565b600062000bec62000be68462001166565b620010df565b9050808382526020820190508285602086028201111562000c0c57600080fd5b60005b8581101562000c40578162000c25888262000d71565b84526020840193506020830192505060018101905062000c0f565b5050509392505050565b600062000c6162000c5b8462001195565b620010df565b90508281526020810184848401111562000c7a57600080fd5b62000c8784828562001239565b509392505050565b600082601f83011262000ca157600080fd5b815162000cb384826020860162000aeb565b91505092915050565b600082601f83011262000cce57600080fd5b815162000ce084826020860162000b60565b91505092915050565b600082601f83011262000cfb57600080fd5b815162000d0d84826020860162000bd5565b91505092915050565b60008151905062000d278162001578565b92915050565b600082601f83011262000d3f57600080fd5b815162000d5184826020860162000c4a565b91505092915050565b60008151905062000d6b8162001592565b92915050565b60008151905062000d8281620015ac565b92915050565b6000806000806000806000806000806101408b8d03121562000da957600080fd5b60008b015167ffffffffffffffff81111562000dc457600080fd5b62000dd28d828e0162000c8f565b9a505060208b015167ffffffffffffffff81111562000df057600080fd5b62000dfe8d828e0162000ce9565b99505060408b015167ffffffffffffffff81111562000e1c57600080fd5b62000e2a8d828e0162000c8f565b98505060608b015167ffffffffffffffff81111562000e4857600080fd5b62000e568d828e0162000c8f565b97505060808b015167ffffffffffffffff81111562000e7457600080fd5b62000e828d828e0162000ce9565b96505060a08b015167ffffffffffffffff81111562000ea057600080fd5b62000eae8d828e0162000cbc565b95505060c08b015167ffffffffffffffff81111562000ecc57600080fd5b62000eda8d828e0162000c8f565b94505060e08b015167ffffffffffffffff81111562000ef857600080fd5b62000f068d828e0162000d2d565b9350506101008b015167ffffffffffffffff81111562000f2557600080fd5b62000f338d828e0162000d2d565b9250506101208b015167ffffffffffffffff81111562000f5257600080fd5b62000f608d828e0162000d2d565b9150509295989b9194979a5092959850565b600062000f81603983620011cb565b915062000f8e82620013c7565b604082019050919050565b600062000fa8604a83620011cb565b915062000fb58262001416565b606082019050919050565b600062000fcf602483620011cb565b915062000fdc826200148b565b604082019050919050565b600062000ff6603083620011cb565b91506200100382620014da565b604082019050919050565b60006200101d604083620011cb565b91506200102a8262001529565b604082019050919050565b60006020820190508181036000830152620010508162000f72565b9050919050565b60006020820190508181036000830152620010728162000f99565b9050919050565b60006020820190508181036000830152620010948162000fc0565b9050919050565b60006020820190508181036000830152620010b68162000fe7565b9050919050565b60006020820190508181036000830152620010d8816200100e565b9050919050565b6000620010eb620010fe565b9050620010f98282620012a5565b919050565b6000604051905090565b600067ffffffffffffffff82111562001126576200112562001387565b5b602082029050602081019050919050565b600067ffffffffffffffff82111562001155576200115462001387565b5b602082029050602081019050919050565b600067ffffffffffffffff82111562001184576200118362001387565b5b602082029050602081019050919050565b600067ffffffffffffffff821115620011b357620011b262001387565b5b620011be82620013b6565b9050602081019050919050565b600082825260208201905092915050565b6000620011e9826200122f565b9150620011f6836200122f565b9250828210156200120c576200120b62001329565b5b828203905092915050565b6000819050919050565b600061ffff82169050919050565b6000819050919050565b60005b83811015620012595780820151818401526020810190506200123c565b8381111562001269576000848401525b50505050565b600060028204905060018216806200128857607f821691505b602082108114156200129f576200129e62001358565b5b50919050565b620012b082620013b6565b810181811067ffffffffffffffff82111715620012d257620012d162001387565b5b80604052505050565b6000620012e8826200122f565b91507fffffffffffffffffffffffffffffffffffffffffffffffffffffffffffffffff8214156200131e576200131d62001329565b5b600182019050919050565b7f4e487b7100000000000000000000000000000000000000000000000000000000600052601160045260246000fd5b7f4e487b7100000000000000000000000000000000000000000000000000000000600052602260045260246000fd5b7f4e487b7100000000000000000000000000000000000000000000000000000000600052604160045260246000fd5b6000601f19601f8301169050919050565b7f436865636b20746861742070726576696f75732050435220686173206265656e60008201527f206e6f206d6f7265207468616e203320646179732061676f2e00000000000000602082015250565b7f596f75206861766520746f2070726f766964652074686520616d6f756e74206f60008201527f662064617920636f6d70656e736174696f6e20616e6420746865206e756d626560208201527f72206f6620646179732e00000000000000000000000000000000000000000000604082015250565b7f4d7573742070726f7669646520506f6c69637920494420616e642054616b657260008201527f2049442e00000000000000000000000000000000000000000000000000000000602082015250565b7f54686520737461727420646174652068617320746f206265206265666f72652060008201527f7468652066696e69736820646174652e00000000000000000000000000000000602082015250565b7f54686520506f6c696379206e656564206120737461727420646174652c20612060008201527f66696e697368206461746520616e64206120636f6e747261637420646174652e602082015250565b620015838162001217565b81146200158f57600080fd5b50565b6200159d8162001221565b8114620015a957600080fd5b50565b620015b7816200122f565b8114620015c357600080fd5b50565b61266880620015d66000396000f3fe608060405234801561001057600080fd5b50600436106100cf5760003560e01c806340d5ff581161008c57806392ed93d01161006657806392ed93d0146101f25780639499e01814610216578063e0caf0bd14610220578063fc1c7a7014610248576100cf565b806340d5ff581461019a5780635d1ca631146101a457806362a681b3146101c2576100cf565b8063121b5a25146100d4578063169e68c3146100f25780632357aef314610127578063236f45d914610143578063297e6306146101625780632f0519d41461017e575b600080fd5b6100dc610266565b6040516100e991906120ef565b60405180910390f35b61010c60048036038101906101079190611b90565b6102c1565b60405161011e96959493929190611f3f565b60405180910390f35b610141600480360381019061013c9190611bb9565b6103e9565b005b61014b610535565b60405161015992919061203f565b60405180910390f35b61017c60048036038101906101779190611b67565b611192565b005b61019860048036038101906101939190611bf5565b61120a565b005b6101a26114ae565b005b6101ac61155a565b6040516101b99190611e64565b60405180910390f35b6101dc60048036038101906101d79190611b90565b611567565b6040516101e99190611e49565b60405180910390f35b6101fa611677565b60405161020d9796959493929190611fa0565b60405180910390f35b61021e61173e565b005b6102286117cf565b60405161023f9b9a99989796959493929190611e7f565b60405180910390f35b6102506119e7565b60405161025d9190611e64565b60405180910390f35b6000600a60000160069054906101000a900461ffff16600a60000160029054906101000a900461ffff16600a60000160009054906101000a900461ffff166102ae9190612229565b6102b89190612229565b61ffff16905090565b6000806000806000806005600088815260200190815260200160002060009054906101000a900460ff1661032a576040517f08c379a0000000000000000000000000000000000000000000000000000000008152600401610321906120cf565b60405180910390fd5b60096000888152602001908152602001600020600001546009600089815260200190815260200160002060020154600960008a815260200190815260200160002060030154600960008b815260200190815260200160002060040154600960008c815260200190815260200160002060010154600960008d815260200190815260200160002060050160009054906101000a900473ffffffffffffffffffffffffffffffffffffffff1695509550955095509550955091939550919395565b60007f504f53495449564500000000000000000000000000000000000000000000000090506000600660008581526020019081526020016000205490506005600085815260200190815260200160002060009054906101000a900460ff16610486576040517f08c379a000000000000000000000000000000000000000000000000000000000815260040161047d906120af565b60405180910390fd5b8260096000868152602001908152602001600020600001819055504260096000868152602001908152602001600020600401819055508183141561052f576001601b60006101000a81548160ff0219169083151502179055507f55cb01df06ba1925769d5c9d83199624c566e9e81719d4a3d02aee576149d7f98142604051610510929190612016565b60405180910390a1600a6003015442101561052e5761052d6114ae565b5b5b50505050565b60606000806105d06010600001805461054d906123a4565b80601f0160208091040260200160405190810160405280929190818152602001828054610579906123a4565b80156105c65780601f1061059b576101008083540402835291602001916105c6565b820191906000526020600020905b8154815290600101906020018083116105a957829003601f168201915b50505050506119f4565b9050600061066a601060010180546105e7906123a4565b80601f0160208091040260200160405190810160405280929190818152602001828054610613906123a4565b80156106605780601f1061063557610100808354040283529160200191610660565b820191906000526020600020905b81548152906001019060200180831161064357829003601f168201915b50505050506119f4565b9050600061070460106002018054610681906123a4565b80601f01602080910402602001604051908101604052809291908181526020018280546106ad906123a4565b80156106fa5780601f106106cf576101008083540402835291602001916106fa565b820191906000526020600020905b8154815290600101906020018083116106dd57829003601f168201915b50505050506119f4565b90506000601e600a60000160049054906101000a900461ffff1660a061072a9190612229565b6002600a8587896101206002600a60000160069054906101000a900461ffff1660206107569190612229565b6107609190612229565b600a60000160069054906101000a900461ffff1660206107809190612229565b606461078c91906121c0565b61079691906121c0565b6107a091906121c0565b6107aa91906121c0565b6107b491906121c0565b6107be91906121c0565b6107c891906121c0565b6107d291906121c0565b6107dc91906121c0565b6107e691906121c0565b61ffff1690508067ffffffffffffffff81111561082c577f4e487b7100000000000000000000000000000000000000000000000000000000600052604160045260246000fd5b6040519080825280601f01601f19166020018201604052801561085e5781602001600182028036833780820191505090505b50955080945061087481600a6001015488611a4c565b60208161088191906122bf565b905061089381600a6002015488611a7f565b6020816108a091906122bf565b90506108b281600a6003015488611a7f565b6020816108bf91906122bf565b90506108d181600a6004015488611a7f565b6020816108de91906122bf565b905061090281600a60000160009054906101000a900461ffff1661ffff1688611a7f565b60028161090f91906122bf565b905061093381600a60000160029054906101000a900461ffff1661ffff1688611a7f565b60028161094091906122bf565b90506109528160106003015488611a4c565b60208161095f91906122bf565b90506109718160106004015488611a4c565b60208161097e91906122bf565b90506109908160106005015488611a4c565b60208161099d91906122bf565b90506109af8160106006015488611a4c565b6020816109bc91906122bf565b90506109ce8160106007015488611a4c565b6020816109db91906122bf565b90506109ed8160106008015488611a4c565b6020816109fa91906122bf565b9050610a0c8160106009015488611a4c565b602081610a1991906122bf565b9050610a2b816010600a015488611a4c565b602081610a3891906122bf565b9050610a5481601b60009054906101000a900460ff1688611a89565b600181610a6191906122bf565b9050610a7d81601b60019054906101000a900460ff1688611a89565b600181610a8a91906122bf565b9050610a9b818561ffff1688611a7f565b600281610aa891906122bf565b9050610b428160106000018054610abe906123a4565b80601f0160208091040260200160405190810160405280929190818152602001828054610aea906123a4565b8015610b375780601f10610b0c57610100808354040283529160200191610b37565b820191906000526020600020905b815481529060010190602001808311610b1a57829003601f168201915b505050505088611aad565b8361ffff1681610b5291906122bf565b9050610b63818461ffff1688611a7f565b600281610b7091906122bf565b9050610c0a8160106001018054610b86906123a4565b80601f0160208091040260200160405190810160405280929190818152602001828054610bb2906123a4565b8015610bff5780601f10610bd457610100808354040283529160200191610bff565b820191906000526020600020905b815481529060010190602001808311610be257829003601f168201915b505050505088611aad565b8261ffff1681610c1a91906122bf565b9050610c2b818361ffff1688611a7f565b600281610c3891906122bf565b9050610cd28160106002018054610c4e906123a4565b80601f0160208091040260200160405190810160405280929190818152602001828054610c7a906123a4565b8015610cc75780601f10610c9c57610100808354040283529160200191610cc7565b820191906000526020600020905b815481529060010190602001808311610caa57829003601f168201915b505050505088611aad565b8161ffff1681610ce291906122bf565b9050610d0681600a60000160069054906101000a900461ffff1661ffff1688611a7f565b600281610d1391906122bf565b905060005b600a60000160069054906101000a900461ffff1661ffff16811015610e9357610d8982600a6005018381548110610d78577f4e487b7100000000000000000000000000000000000000000000000000000000600052603260045260246000fd5b906000526020600020015489611a4c565b602082610d9691906122bf565b9150610dfd8260076000600a6005018581548110610ddd577f4e487b7100000000000000000000000000000000000000000000000000000000600052603260045260246000fd5b906000526020600020015481526020019081526020016000205489611a4c565b602082610e0a91906122bf565b9150610e718260086000600a6005018581548110610e51577f4e487b7100000000000000000000000000000000000000000000000000000000600052603260045260246000fd5b906000526020600020015481526020019081526020016000205489611a7f565b602082610e7e91906122bf565b91508080610e8b90612401565b915050610d18565b50610eb681600a60000160049054906101000a900461ffff1661ffff1688611a7f565b602081610ec391906122bf565b9050600080600080600080600090505b600a60000160069054906101000a900461ffff1661ffff168110156111845760005b60036000600a6005018481548110610f36577f4e487b7100000000000000000000000000000000000000000000000000000000600052603260045260246000fd5b9060005260206000200154815260200190815260200160002080549050811015611170576005600060036000600a6005018681548110610f9f577f4e487b7100000000000000000000000000000000000000000000000000000000600052603260045260246000fd5b906000526020600020015481526020019081526020016000208381548110610ff0577f4e487b7100000000000000000000000000000000000000000000000000000000600052603260045260246000fd5b9060005260206000200154815260200190815260200160002060009054906101000a900460ff166110205761115d565b6110c560036000600a6005018581548110611064577f4e487b7100000000000000000000000000000000000000000000000000000000600052603260045260246000fd5b9060005260206000200154815260200190815260200160002082815481106110b5577f4e487b7100000000000000000000000000000000000000000000000000000000600052603260045260246000fd5b90600052602060002001546102c1565b50809750819850829950839a50849b5050505050506110e588848f611a4c565b6020886110f291906122bf565b97506110ff88858f611a7f565b60208861110c91906122bf565b975061111988868f611a7f565b60208861112691906122bf565b975061113388878f611a4c565b60208861114091906122bf565b975061114d88888f611a4c565b60208861115a91906122bf565b97505b808061116890612401565b915050610ef5565b50808061117c90612401565b915050610ed3565b505050505050505050509091565b600160149054906101000a900460ff16156111ac57600080fd5b60018060146101000a81548160ff02191690831515021790555080600160006101000a81548173ffffffffffffffffffffffffffffffffffffffff021916908373ffffffffffffffffffffffffffffffffffffffff16021790555050565b6004600085815260200190815260200160002060009054906101000a900460ff1661126a576040517f08c379a00000000000000000000000000000000000000000000000000000000081526004016112619061206f565b60405180910390fd5b6005600084815260200190815260200160002060009054906101000a900460ff16156112cb576040517f08c379a00000000000000000000000000000000000000000000000000000000081526004016112c29061208f565b60405180910390fd5b60036000858152602001908152602001600020839080600181540180825580915050600190039060005260206000200160009091909190915055600360008581526020019081526020016000208054905060026000858152602001908152602001600020819055508360066000858152602001908152602001600020819055506040518060c001604052807f554e444546494e454400000000000000000000000000000000000000000000008152602001848152602001858152602001838152602001600081526020018273ffffffffffffffffffffffffffffffffffffffff1681525060096000858152602001908152602001600020600082015181600001556020820151816001015560408201518160020155606082015181600301556080820151816004015560a08201518160050160006101000a81548173ffffffffffffffffffffffffffffffffffffffff021916908373ffffffffffffffffffffffffffffffffffffffff16021790555090505060016005600085815260200190815260200160002060006101000a81548160ff021916908315150217905550600a600001600481819054906101000a900461ffff168092919061148d906123d6565b91906101000a81548161ffff021916908361ffff1602179055505050505050565b60006114b8610266565b9050601b60009054906101000a900460ff1680156114e35750601b60019054906101000a900460ff16155b15611557577fc21406cec27a5de1d115183251bada5c5f0e35357c60573deeef8dde88455fb9816010600301546010600a0154600a6001015460405161152c949392919061210a565b60405180910390a16001601b60016101000a81548160ff02191690831515021790555042601c819055505b50565b6000600a60010154905090565b60006005600083815260200190815260200160002060009054906101000a900460ff166115c9576040517f08c379a00000000000000000000000000000000000000000000000000000000081526004016115c0906120cf565b60405180910390fd5b60006009600084815260200190815260200160002060050160009054906101000a900473ffffffffffffffffffffffffffffffffffffffff16905060006005600085815260200190815260200160002060006101000a81548160ff021916908315150217905550600a600001600481819054906101000a900461ffff16809291906116539061237a565b91906101000a81548161ffff021916908361ffff1602179055505080915050919050565b6000806000806000806060600a60010154600a60000160009054906101000a900461ffff16600a60000160029054906101000a900461ffff16600a60000160069054906101000a900461ffff16600a60020154600a60030154600a6005018080548060200260200160405190810160405280929190818152602001828054801561172057602002820191906000526020600020905b81548152602001906001019080831161170c575b50505050509050965096509650965096509650965090919293949596565b60008054906101000a900473ffffffffffffffffffffffffffffffffffffffff1673ffffffffffffffffffffffffffffffffffffffff163373ffffffffffffffffffffffffffffffffffffffff161461179657600080fd5b60008054906101000a900473ffffffffffffffffffffffffffffffffffffffff1673ffffffffffffffffffffffffffffffffffffffff16ff5b6000806060806000806000806000606060006010600301546010600401546010600001601060010160106005015460106006015460106007015460106008015460106009015460106002016010600a015488805461182c906123a4565b80601f0160208091040260200160405190810160405280929190818152602001828054611858906123a4565b80156118a55780601f1061187a576101008083540402835291602001916118a5565b820191906000526020600020905b81548152906001019060200180831161188857829003601f168201915b505050505098508780546118b8906123a4565b80601f01602080910402602001604051908101604052809291908181526020018280546118e4906123a4565b80156119315780601f1061190657610100808354040283529160200191611931565b820191906000526020600020905b81548152906001019060200180831161191457829003601f168201915b50505050509750818054611944906123a4565b80601f0160208091040260200160405190810160405280929190818152602001828054611970906123a4565b80156119bd5780601f10611992576101008083540402835291602001916119bd565b820191906000526020600020905b8154815290600101906020018083116119a057829003601f168201915b505050505091509a509a509a509a509a509a509a509a509a509a509a50909192939495969798999a565b6000601060030154905090565b600060208251611a0491906121f8565b9050600060208351611a169190612454565b14611a2a578080611a2690612401565b9150505b8080611a3590612401565b915050602081611a459190612265565b9050919050565b600082604051602001611a5f9190611e2e565b604051602081830303815290604052905060208101518483015250505050565b8183820152505050565b600080151583151514611a9d576001611aa0565b60005b9050808483015250505050565b600060208351611abd91906121f8565b9050600060208451611acf9190612454565b1115611ae4578080611ae090612401565b9150505b8080611aef90612401565b91505060005b81811015611b215760208102840151858401526020850394508080611b1990612401565b915050611af5565b5050505050565b600081359050611b37816125ed565b92915050565b600081359050611b4c81612604565b92915050565b600081359050611b618161261b565b92915050565b600060208284031215611b7957600080fd5b6000611b8784828501611b28565b91505092915050565b600060208284031215611ba257600080fd5b6000611bb084828501611b3d565b91505092915050565b60008060408385031215611bcc57600080fd5b6000611bda85828601611b3d565b9250506020611beb85828601611b3d565b9150509250929050565b60008060008060808587031215611c0b57600080fd5b6000611c1987828801611b3d565b9450506020611c2a87828801611b3d565b9350506040611c3b87828801611b52565b9250506060611c4c87828801611b28565b91505092959194509250565b6000611c648383611cdd565b60208301905092915050565b611c79816122f3565b82525050565b6000611c8a8261215f565b611c94818561218d565b9350611c9f8361214f565b8060005b83811015611cd0578151611cb78882611c58565b9750611cc283612180565b925050600181019050611ca3565b5085935050505092915050565b611ce681612305565b82525050565b611cf581612305565b82525050565b611d0c611d0782612305565b61244a565b82525050565b6000611d1d8261216a565b611d27818561219e565b9350611d37818560208601612347565b611d4081612512565b840191505092915050565b6000611d5682612175565b611d6081856121af565b9350611d70818560208601612347565b611d7981612512565b840191505092915050565b6000611d91602b836121af565b9150611d9c82612523565b604082019050919050565b6000611db4601c836121af565b9150611dbf82612572565b602082019050919050565b6000611dd76018836121af565b9150611de28261259b565b602082019050919050565b6000611dfa601c836121af565b9150611e05826125c4565b602082019050919050565b611e198161230f565b82525050565b611e288161233d565b82525050565b6000611e3a8284611cfb565b60208201915081905092915050565b6000602082019050611e5e6000830184611c70565b92915050565b6000602082019050611e796000830184611cec565b92915050565b600061016082019050611e95600083018e611cec565b611ea2602083018d611cec565b8181036040830152611eb4818c611d4b565b90508181036060830152611ec8818b611d4b565b9050611ed7608083018a611cec565b611ee460a0830189611cec565b611ef160c0830188611cec565b611efe60e0830187611cec565b611f0c610100830186611cec565b818103610120830152611f1f8185611d4b565b9050611f2f610140830184611cec565b9c9b505050505050505050505050565b600060c082019050611f546000830189611cec565b611f616020830188611cec565b611f6e6040830187611e1f565b611f7b6060830186611e1f565b611f886080830185611cec565b611f9560a0830184611c70565b979650505050505050565b600060e082019050611fb5600083018a611cec565b611fc26020830189611e10565b611fcf6040830188611e10565b611fdc6060830187611e10565b611fe96080830186611e1f565b611ff660a0830185611e1f565b81810360c08301526120088184611c7f565b905098975050505050505050565b600060408201905061202b6000830185611cec565b6120386020830184611e1f565b9392505050565b600060408201905081810360008301526120598185611d12565b90506120686020830184611e1f565b9392505050565b6000602082019050818103600083015261208881611d84565b9050919050565b600060208201905081810360008301526120a881611da7565b9050919050565b600060208201905081810360008301526120c881611dca565b9050919050565b600060208201905081810360008301526120e881611ded565b9050919050565b60006020820190506121046000830184611e1f565b92915050565b600060808201905061211f6000830187611e1f565b61212c6020830186611cec565b6121396040830185611cec565b6121466060830184611cec565b95945050505050565b6000819050602082019050919050565b600081519050919050565b600081519050919050565b600081519050919050565b6000602082019050919050565b600082825260208201905092915050565b600082825260208201905092915050565b600082825260208201905092915050565b60006121cb8261230f565b91506121d68361230f565b92508261ffff038211156121ed576121ec612485565b5b828201905092915050565b60006122038261233d565b915061220e8361233d565b92508261221e5761221d6124b4565b5b828204905092915050565b60006122348261230f565b915061223f8361230f565b92508161ffff048311821515161561225a57612259612485565b5b828202905092915050565b60006122708261233d565b915061227b8361233d565b9250817fffffffffffffffffffffffffffffffffffffffffffffffffffffffffffffffff04831182151516156122b4576122b3612485565b5b828202905092915050565b60006122ca8261233d565b91506122d58361233d565b9250828210156122e8576122e7612485565b5b828203905092915050565b60006122fe8261231d565b9050919050565b6000819050919050565b600061ffff82169050919050565b600073ffffffffffffffffffffffffffffffffffffffff82169050919050565b6000819050919050565b60005b8381101561236557808201518184015260208101905061234a565b83811115612374576000848401525b50505050565b60006123858261230f565b9150600082141561239957612398612485565b5b600182039050919050565b600060028204905060018216806123bc57607f821691505b602082108114156123d0576123cf6124e3565b5b50919050565b60006123e18261230f565b915061ffff8214156123f6576123f5612485565b5b600182019050919050565b600061240c8261233d565b91507fffffffffffffffffffffffffffffffffffffffffffffffffffffffffffffffff82141561243f5761243e612485565b5b600182019050919050565b6000819050919050565b600061245f8261233d565b915061246a8361233d565b92508261247a576124796124b4565b5b828206905092915050565b7f4e487b7100000000000000000000000000000000000000000000000000000000600052601160045260246000fd5b7f4e487b7100000000000000000000000000000000000000000000000000000000600052601260045260246000fd5b7f4e487b7100000000000000000000000000000000000000000000000000000000600052602260045260246000fd5b6000601f19601f8301169050919050565b7f546865206964206f662074686520696e7375726564206973206e6f7420696e2060008201527f74686520706f6c6963792e000000000000000000000000000000000000000000602082015250565b7f59612065786973746520756e612050435220636f6e2065736520494400000000600082015250565b7f4c6120504352207469656e652071756520657869737469720000000000000000600082015250565b7f4e6f2065786973746520756e612050435220636f6e2065736120494400000000600082015250565b6125f6816122f3565b811461260157600080fd5b50565b61260d81612305565b811461261857600080fd5b50565b6126248161233d565b811461262f57600080fd5b5056fea26469706673582212207cb99d73318d1625c0a5a3dec6372055e8a745ef33e88e5a04245c335d9b0c2164736f6c63430008030033",
      "opcodes": "PUSH1 0x80 PUSH1 0x40 MSTORE CALLVALUE DUP1 ISZERO PUSH3 0x11 JUMPI PUSH1 0x0 DUP1 REVERT JUMPDEST POP PUSH1 0x40 MLOAD PUSH3 0x3C3E CODESIZE SUB DUP1 PUSH3 0x3C3E DUP4 CODECOPY DUP2 DUP2 ADD PUSH1 0x40 MSTORE DUP2 ADD SWAP1 PUSH3 0x37 SWAP2 SWAP1 PUSH3 0xD88 JUMP JUMPDEST CALLER PUSH1 0x0 DUP1 PUSH2 0x100 EXP DUP2 SLOAD DUP2 PUSH20 0xFFFFFFFFFFFFFFFFFFFFFFFFFFFFFFFFFFFFFFFF MUL NOT AND SWAP1 DUP4 PUSH20 0xFFFFFFFFFFFFFFFFFFFFFFFFFFFFFFFFFFFFFFFF AND MUL OR SWAP1 SSTORE POP PUSH1 0x0 PUSH1 0x1 PUSH1 0x14 PUSH2 0x100 EXP DUP2 SLOAD DUP2 PUSH1 0xFF MUL NOT AND SWAP1 DUP4 ISZERO ISZERO MUL OR SWAP1 SSTORE POP DUP1 PUSH1 0x10 PUSH1 0x2 ADD SWAP1 DUP1 MLOAD SWAP1 PUSH1 0x20 ADD SWAP1 PUSH3 0xAD SWAP3 SWAP2 SWAP1 PUSH3 0x9CA JUMP JUMPDEST POP DUP2 PUSH1 0x10 PUSH1 0x1 ADD SWAP1 DUP1 MLOAD SWAP1 PUSH1 0x20 ADD SWAP1 PUSH3 0xC9 SWAP3 SWAP2 SWAP1 PUSH3 0x9CA JUMP JUMPDEST POP DUP3 PUSH1 0x10 PUSH1 0x0 ADD SWAP1 DUP1 MLOAD SWAP1 PUSH1 0x20 ADD SWAP1 PUSH3 0xE5 SWAP3 SWAP2 SWAP1 PUSH3 0x9CA JUMP JUMPDEST POP DUP4 PUSH1 0x0 DUP2 MLOAD DUP2 LT PUSH3 0x121 JUMPI PUSH32 0x4E487B7100000000000000000000000000000000000000000000000000000000 PUSH1 0x0 MSTORE PUSH1 0x32 PUSH1 0x4 MSTORE PUSH1 0x24 PUSH1 0x0 REVERT JUMPDEST PUSH1 0x20 MUL PUSH1 0x20 ADD ADD MLOAD PUSH1 0x10 PUSH1 0x4 ADD DUP2 SWAP1 SSTORE POP DUP4 PUSH1 0x1 DUP2 MLOAD DUP2 LT PUSH3 0x16D JUMPI PUSH32 0x4E487B7100000000000000000000000000000000000000000000000000000000 PUSH1 0x0 MSTORE PUSH1 0x32 PUSH1 0x4 MSTORE PUSH1 0x24 PUSH1 0x0 REVERT JUMPDEST PUSH1 0x20 MUL PUSH1 0x20 ADD ADD MLOAD PUSH1 0x10 PUSH1 0x5 ADD DUP2 SWAP1 SSTORE POP DUP4 PUSH1 0x2 DUP2 MLOAD DUP2 LT PUSH3 0x1B9 JUMPI PUSH32 0x4E487B7100000000000000000000000000000000000000000000000000000000 PUSH1 0x0 MSTORE PUSH1 0x32 PUSH1 0x4 MSTORE PUSH1 0x24 PUSH1 0x0 REVERT JUMPDEST PUSH1 0x20 MUL PUSH1 0x20 ADD ADD MLOAD PUSH1 0x10 PUSH1 0x6 ADD DUP2 SWAP1 SSTORE POP DUP4 PUSH1 0x3 DUP2 MLOAD DUP2 LT PUSH3 0x205 JUMPI PUSH32 0x4E487B7100000000000000000000000000000000000000000000000000000000 PUSH1 0x0 MSTORE PUSH1 0x32 PUSH1 0x4 MSTORE PUSH1 0x24 PUSH1 0x0 REVERT JUMPDEST PUSH1 0x20 MUL PUSH1 0x20 ADD ADD MLOAD PUSH1 0x10 PUSH1 0x7 ADD DUP2 SWAP1 SSTORE POP DUP4 PUSH1 0x4 DUP2 MLOAD DUP2 LT PUSH3 0x251 JUMPI PUSH32 0x4E487B7100000000000000000000000000000000000000000000000000000000 PUSH1 0x0 MSTORE PUSH1 0x32 PUSH1 0x4 MSTORE PUSH1 0x24 PUSH1 0x0 REVERT JUMPDEST PUSH1 0x20 MUL PUSH1 0x20 ADD ADD MLOAD PUSH1 0x10 PUSH1 0x8 ADD DUP2 SWAP1 SSTORE POP DUP4 PUSH1 0x5 DUP2 MLOAD DUP2 LT PUSH3 0x29D JUMPI PUSH32 0x4E487B7100000000000000000000000000000000000000000000000000000000 PUSH1 0x0 MSTORE PUSH1 0x32 PUSH1 0x4 MSTORE PUSH1 0x24 PUSH1 0x0 REVERT JUMPDEST PUSH1 0x20 MUL PUSH1 0x20 ADD ADD MLOAD PUSH1 0x10 PUSH1 0x9 ADD DUP2 SWAP1 SSTORE POP DUP4 PUSH1 0x6 DUP2 MLOAD DUP2 LT PUSH3 0x2E9 JUMPI PUSH32 0x4E487B7100000000000000000000000000000000000000000000000000000000 PUSH1 0x0 MSTORE PUSH1 0x32 PUSH1 0x4 MSTORE PUSH1 0x24 PUSH1 0x0 REVERT JUMPDEST PUSH1 0x20 MUL PUSH1 0x20 ADD ADD MLOAD PUSH1 0x10 PUSH1 0xA ADD DUP2 SWAP1 SSTORE POP PUSH1 0x2 DUP6 MLOAD EQ PUSH3 0x341 JUMPI PUSH1 0x40 MLOAD PUSH32 0x8C379A000000000000000000000000000000000000000000000000000000000 DUP2 MSTORE PUSH1 0x4 ADD PUSH3 0x338 SWAP1 PUSH3 0x1057 JUMP JUMPDEST PUSH1 0x40 MLOAD DUP1 SWAP2 SUB SWAP1 REVERT JUMPDEST DUP5 PUSH1 0x0 DUP2 MLOAD DUP2 LT PUSH3 0x37C JUMPI PUSH32 0x4E487B7100000000000000000000000000000000000000000000000000000000 PUSH1 0x0 MSTORE PUSH1 0x32 PUSH1 0x4 MSTORE PUSH1 0x24 PUSH1 0x0 REVERT JUMPDEST PUSH1 0x20 MUL PUSH1 0x20 ADD ADD MLOAD PUSH1 0xA PUSH1 0x0 ADD PUSH1 0x0 PUSH2 0x100 EXP DUP2 SLOAD DUP2 PUSH2 0xFFFF MUL NOT AND SWAP1 DUP4 PUSH2 0xFFFF AND MUL OR SWAP1 SSTORE POP DUP5 PUSH1 0x1 DUP2 MLOAD DUP2 LT PUSH3 0x3DE JUMPI PUSH32 0x4E487B7100000000000000000000000000000000000000000000000000000000 PUSH1 0x0 MSTORE PUSH1 0x32 PUSH1 0x4 MSTORE PUSH1 0x24 PUSH1 0x0 REVERT JUMPDEST PUSH1 0x20 MUL PUSH1 0x20 ADD ADD MLOAD PUSH1 0xA PUSH1 0x0 ADD PUSH1 0x2 PUSH2 0x100 EXP DUP2 SLOAD DUP2 PUSH2 0xFFFF MUL NOT AND SWAP1 DUP4 PUSH2 0xFFFF AND MUL OR SWAP1 SSTORE POP PUSH1 0x3 DUP7 MLOAD EQ PUSH3 0x44C JUMPI PUSH1 0x40 MLOAD PUSH32 0x8C379A000000000000000000000000000000000000000000000000000000000 DUP2 MSTORE PUSH1 0x4 ADD PUSH3 0x443 SWAP1 PUSH3 0x10BD JUMP JUMPDEST PUSH1 0x40 MLOAD DUP1 SWAP2 SUB SWAP1 REVERT JUMPDEST DUP6 PUSH1 0x1 DUP2 MLOAD DUP2 LT PUSH3 0x487 JUMPI PUSH32 0x4E487B7100000000000000000000000000000000000000000000000000000000 PUSH1 0x0 MSTORE PUSH1 0x32 PUSH1 0x4 MSTORE PUSH1 0x24 PUSH1 0x0 REVERT JUMPDEST PUSH1 0x20 MUL PUSH1 0x20 ADD ADD MLOAD DUP7 PUSH1 0x0 DUP2 MLOAD DUP2 LT PUSH3 0x4CA JUMPI PUSH32 0x4E487B7100000000000000000000000000000000000000000000000000000000 PUSH1 0x0 MSTORE PUSH1 0x32 PUSH1 0x4 MSTORE PUSH1 0x24 PUSH1 0x0 REVERT JUMPDEST PUSH1 0x20 MUL PUSH1 0x20 ADD ADD MLOAD LT PUSH3 0x515 JUMPI PUSH1 0x40 MLOAD PUSH32 0x8C379A000000000000000000000000000000000000000000000000000000000 DUP2 MSTORE PUSH1 0x4 ADD PUSH3 0x50C SWAP1 PUSH3 0x109B JUMP JUMPDEST PUSH1 0x40 MLOAD DUP1 SWAP2 SUB SWAP1 REVERT JUMPDEST DUP6 PUSH1 0x0 DUP2 MLOAD DUP2 LT PUSH3 0x550 JUMPI PUSH32 0x4E487B7100000000000000000000000000000000000000000000000000000000 PUSH1 0x0 MSTORE PUSH1 0x32 PUSH1 0x4 MSTORE PUSH1 0x24 PUSH1 0x0 REVERT JUMPDEST PUSH1 0x20 MUL PUSH1 0x20 ADD ADD MLOAD PUSH1 0xA PUSH1 0x2 ADD DUP2 SWAP1 SSTORE POP DUP6 PUSH1 0x1 DUP2 MLOAD DUP2 LT PUSH3 0x59C JUMPI PUSH32 0x4E487B7100000000000000000000000000000000000000000000000000000000 PUSH1 0x0 MSTORE PUSH1 0x32 PUSH1 0x4 MSTORE PUSH1 0x24 PUSH1 0x0 REVERT JUMPDEST PUSH1 0x20 MUL PUSH1 0x20 ADD ADD MLOAD PUSH1 0xA PUSH1 0x3 ADD DUP2 SWAP1 SSTORE POP DUP6 PUSH1 0x2 DUP2 MLOAD DUP2 LT PUSH3 0x5E8 JUMPI PUSH32 0x4E487B7100000000000000000000000000000000000000000000000000000000 PUSH1 0x0 MSTORE PUSH1 0x32 PUSH1 0x4 MSTORE PUSH1 0x24 PUSH1 0x0 REVERT JUMPDEST PUSH1 0x20 MUL PUSH1 0x20 ADD ADD MLOAD PUSH1 0xA PUSH1 0x4 ADD DUP2 SWAP1 SSTORE POP DUP7 PUSH1 0xA PUSH1 0x5 ADD SWAP1 DUP1 MLOAD SWAP1 PUSH1 0x20 ADD SWAP1 PUSH3 0x614 SWAP3 SWAP2 SWAP1 PUSH3 0xA5B JUMP JUMPDEST POP PUSH1 0x2 DUP9 MLOAD EQ PUSH3 0x65C JUMPI PUSH1 0x40 MLOAD PUSH32 0x8C379A000000000000000000000000000000000000000000000000000000000 DUP2 MSTORE PUSH1 0x4 ADD PUSH3 0x653 SWAP1 PUSH3 0x1079 JUMP JUMPDEST PUSH1 0x40 MLOAD DUP1 SWAP2 SUB SWAP1 REVERT JUMPDEST DUP8 PUSH1 0x1 DUP2 MLOAD DUP2 LT PUSH3 0x697 JUMPI PUSH32 0x4E487B7100000000000000000000000000000000000000000000000000000000 PUSH1 0x0 MSTORE PUSH1 0x32 PUSH1 0x4 MSTORE PUSH1 0x24 PUSH1 0x0 REVERT JUMPDEST PUSH1 0x20 MUL PUSH1 0x20 ADD ADD MLOAD PUSH1 0x10 PUSH1 0x3 ADD DUP2 SWAP1 SSTORE POP DUP8 PUSH1 0x0 DUP2 MLOAD DUP2 LT PUSH3 0x6E3 JUMPI PUSH32 0x4E487B7100000000000000000000000000000000000000000000000000000000 PUSH1 0x0 MSTORE PUSH1 0x32 PUSH1 0x4 MSTORE PUSH1 0x24 PUSH1 0x0 REVERT JUMPDEST PUSH1 0x20 MUL PUSH1 0x20 ADD ADD MLOAD PUSH1 0xA PUSH1 0x1 ADD DUP2 SWAP1 SSTORE POP DUP7 MLOAD DUP10 MLOAD EQ PUSH3 0x703 JUMPI PUSH1 0x0 DUP1 REVERT JUMPDEST DUP7 MLOAD DUP11 MLOAD EQ PUSH3 0x712 JUMPI PUSH1 0x0 DUP1 REVERT JUMPDEST PUSH1 0x0 JUMPDEST DUP8 MLOAD DUP2 LT ISZERO PUSH3 0x96D JUMPI PUSH1 0x1 PUSH1 0x4 PUSH1 0x0 DUP11 DUP5 DUP2 MLOAD DUP2 LT PUSH3 0x75F JUMPI PUSH32 0x4E487B7100000000000000000000000000000000000000000000000000000000 PUSH1 0x0 MSTORE PUSH1 0x32 PUSH1 0x4 MSTORE PUSH1 0x24 PUSH1 0x0 REVERT JUMPDEST PUSH1 0x20 MUL PUSH1 0x20 ADD ADD MLOAD DUP2 MSTORE PUSH1 0x20 ADD SWAP1 DUP2 MSTORE PUSH1 0x20 ADD PUSH1 0x0 KECCAK256 PUSH1 0x0 PUSH2 0x100 EXP DUP2 SLOAD DUP2 PUSH1 0xFF MUL NOT AND SWAP1 DUP4 ISZERO ISZERO MUL OR SWAP1 SSTORE POP PUSH3 0x3F480 TIMESTAMP PUSH3 0x79D SWAP2 SWAP1 PUSH3 0x11DC JUMP JUMPDEST DUP11 DUP3 DUP2 MLOAD DUP2 LT PUSH3 0x7D7 JUMPI PUSH32 0x4E487B7100000000000000000000000000000000000000000000000000000000 PUSH1 0x0 MSTORE PUSH1 0x32 PUSH1 0x4 MSTORE PUSH1 0x24 PUSH1 0x0 REVERT JUMPDEST PUSH1 0x20 MUL PUSH1 0x20 ADD ADD MLOAD LT ISZERO PUSH3 0x823 JUMPI PUSH1 0x40 MLOAD PUSH32 0x8C379A000000000000000000000000000000000000000000000000000000000 DUP2 MSTORE PUSH1 0x4 ADD PUSH3 0x81A SWAP1 PUSH3 0x1035 JUMP JUMPDEST PUSH1 0x40 MLOAD DUP1 SWAP2 SUB SWAP1 REVERT JUMPDEST DUP10 DUP2 DUP2 MLOAD DUP2 LT PUSH3 0x85D JUMPI PUSH32 0x4E487B7100000000000000000000000000000000000000000000000000000000 PUSH1 0x0 MSTORE PUSH1 0x32 PUSH1 0x4 MSTORE PUSH1 0x24 PUSH1 0x0 REVERT JUMPDEST PUSH1 0x20 MUL PUSH1 0x20 ADD ADD MLOAD PUSH1 0x8 PUSH1 0x0 DUP11 DUP5 DUP2 MLOAD DUP2 LT PUSH3 0x8A3 JUMPI PUSH32 0x4E487B7100000000000000000000000000000000000000000000000000000000 PUSH1 0x0 MSTORE PUSH1 0x32 PUSH1 0x4 MSTORE PUSH1 0x24 PUSH1 0x0 REVERT JUMPDEST PUSH1 0x20 MUL PUSH1 0x20 ADD ADD MLOAD DUP2 MSTORE PUSH1 0x20 ADD SWAP1 DUP2 MSTORE PUSH1 0x20 ADD PUSH1 0x0 KECCAK256 DUP2 SWAP1 SSTORE POP DUP11 DUP2 DUP2 MLOAD DUP2 LT PUSH3 0x8F7 JUMPI PUSH32 0x4E487B7100000000000000000000000000000000000000000000000000000000 PUSH1 0x0 MSTORE PUSH1 0x32 PUSH1 0x4 MSTORE PUSH1 0x24 PUSH1 0x0 REVERT JUMPDEST PUSH1 0x20 MUL PUSH1 0x20 ADD ADD MLOAD PUSH1 0x7 PUSH1 0x0 DUP11 DUP5 DUP2 MLOAD DUP2 LT PUSH3 0x93D JUMPI PUSH32 0x4E487B7100000000000000000000000000000000000000000000000000000000 PUSH1 0x0 MSTORE PUSH1 0x32 PUSH1 0x4 MSTORE PUSH1 0x24 PUSH1 0x0 REVERT JUMPDEST PUSH1 0x20 MUL PUSH1 0x20 ADD ADD MLOAD DUP2 MSTORE PUSH1 0x20 ADD SWAP1 DUP2 MSTORE PUSH1 0x20 ADD PUSH1 0x0 KECCAK256 DUP2 SWAP1 SSTORE POP DUP1 DUP1 PUSH3 0x964 SWAP1 PUSH3 0x12DB JUMP JUMPDEST SWAP2 POP POP PUSH3 0x715 JUMP JUMPDEST POP PUSH1 0xA PUSH1 0x5 ADD DUP1 SLOAD SWAP1 POP PUSH1 0xFF AND PUSH1 0xA PUSH1 0x0 ADD PUSH1 0x6 PUSH2 0x100 EXP DUP2 SLOAD DUP2 PUSH2 0xFFFF MUL NOT AND SWAP1 DUP4 PUSH2 0xFFFF AND MUL OR SWAP1 SSTORE POP PUSH1 0x0 PUSH1 0xA PUSH1 0x0 ADD PUSH1 0x4 PUSH2 0x100 EXP DUP2 SLOAD DUP2 PUSH2 0xFFFF MUL NOT AND SWAP1 DUP4 PUSH2 0xFFFF AND MUL OR SWAP1 SSTORE POP POP POP POP POP POP POP POP POP POP POP PUSH3 0x15C6 JUMP JUMPDEST DUP3 DUP1 SLOAD PUSH3 0x9D8 SWAP1 PUSH3 0x126F JUMP JUMPDEST SWAP1 PUSH1 0x0 MSTORE PUSH1 0x20 PUSH1 0x0 KECCAK256 SWAP1 PUSH1 0x1F ADD PUSH1 0x20 SWAP1 DIV DUP2 ADD SWAP3 DUP3 PUSH3 0x9FC JUMPI PUSH1 0x0 DUP6 SSTORE PUSH3 0xA48 JUMP JUMPDEST DUP3 PUSH1 0x1F LT PUSH3 0xA17 JUMPI DUP1 MLOAD PUSH1 0xFF NOT AND DUP4 DUP1 ADD OR DUP6 SSTORE PUSH3 0xA48 JUMP JUMPDEST DUP3 DUP1 ADD PUSH1 0x1 ADD DUP6 SSTORE DUP3 ISZERO PUSH3 0xA48 JUMPI SWAP2 DUP3 ADD JUMPDEST DUP3 DUP2 GT ISZERO PUSH3 0xA47 JUMPI DUP3 MLOAD DUP3 SSTORE SWAP2 PUSH1 0x20 ADD SWAP2 SWAP1 PUSH1 0x1 ADD SWAP1 PUSH3 0xA2A JUMP JUMPDEST JUMPDEST POP SWAP1 POP PUSH3 0xA57 SWAP2 SWAP1 PUSH3 0xAAD JUMP JUMPDEST POP SWAP1 JUMP JUMPDEST DUP3 DUP1 SLOAD DUP3 DUP3 SSTORE SWAP1 PUSH1 0x0 MSTORE PUSH1 0x20 PUSH1 0x0 KECCAK256 SWAP1 DUP2 ADD SWAP3 DUP3 ISZERO PUSH3 0xA9A JUMPI SWAP2 PUSH1 0x20 MUL DUP3 ADD JUMPDEST DUP3 DUP2 GT ISZERO PUSH3 0xA99 JUMPI DUP3 MLOAD DUP3 SSTORE SWAP2 PUSH1 0x20 ADD SWAP2 SWAP1 PUSH1 0x1 ADD SWAP1 PUSH3 0xA7C JUMP JUMPDEST JUMPDEST POP SWAP1 POP PUSH3 0xAA9 SWAP2 SWAP1 PUSH3 0xACC JUMP JUMPDEST POP SWAP1 JUMP JUMPDEST JUMPDEST DUP1 DUP3 GT ISZERO PUSH3 0xAC8 JUMPI PUSH1 0x0 DUP2 PUSH1 0x0 SWAP1 SSTORE POP PUSH1 0x1 ADD PUSH3 0xAAE JUMP JUMPDEST POP SWAP1 JUMP JUMPDEST JUMPDEST DUP1 DUP3 GT ISZERO PUSH3 0xAE7 JUMPI PUSH1 0x0 DUP2 PUSH1 0x0 SWAP1 SSTORE POP PUSH1 0x1 ADD PUSH3 0xACD JUMP JUMPDEST POP SWAP1 JUMP JUMPDEST PUSH1 0x0 PUSH3 0xB02 PUSH3 0xAFC DUP5 PUSH3 0x1108 JUMP JUMPDEST PUSH3 0x10DF JUMP JUMPDEST SWAP1 POP DUP1 DUP4 DUP3 MSTORE PUSH1 0x20 DUP3 ADD SWAP1 POP DUP3 DUP6 PUSH1 0x20 DUP7 MUL DUP3 ADD GT ISZERO PUSH3 0xB22 JUMPI PUSH1 0x0 DUP1 REVERT JUMPDEST PUSH1 0x0 JUMPDEST DUP6 DUP2 LT ISZERO PUSH3 0xB56 JUMPI DUP2 PUSH3 0xB3B DUP9 DUP3 PUSH3 0xD16 JUMP JUMPDEST DUP5 MSTORE PUSH1 0x20 DUP5 ADD SWAP4 POP PUSH1 0x20 DUP4 ADD SWAP3 POP POP PUSH1 0x1 DUP2 ADD SWAP1 POP PUSH3 0xB25 JUMP JUMPDEST POP POP POP SWAP4 SWAP3 POP POP POP JUMP JUMPDEST PUSH1 0x0 PUSH3 0xB77 PUSH3 0xB71 DUP5 PUSH3 0x1137 JUMP JUMPDEST PUSH3 0x10DF JUMP JUMPDEST SWAP1 POP DUP1 DUP4 DUP3 MSTORE PUSH1 0x20 DUP3 ADD SWAP1 POP DUP3 DUP6 PUSH1 0x20 DUP7 MUL DUP3 ADD GT ISZERO PUSH3 0xB97 JUMPI PUSH1 0x0 DUP1 REVERT JUMPDEST PUSH1 0x0 JUMPDEST DUP6 DUP2 LT ISZERO PUSH3 0xBCB JUMPI DUP2 PUSH3 0xBB0 DUP9 DUP3 PUSH3 0xD5A JUMP JUMPDEST DUP5 MSTORE PUSH1 0x20 DUP5 ADD SWAP4 POP PUSH1 0x20 DUP4 ADD SWAP3 POP POP PUSH1 0x1 DUP2 ADD SWAP1 POP PUSH3 0xB9A JUMP JUMPDEST POP POP POP SWAP4 SWAP3 POP POP POP JUMP JUMPDEST PUSH1 0x0 PUSH3 0xBEC PUSH3 0xBE6 DUP5 PUSH3 0x1166 JUMP JUMPDEST PUSH3 0x10DF JUMP JUMPDEST SWAP1 POP DUP1 DUP4 DUP3 MSTORE PUSH1 0x20 DUP3 ADD SWAP1 POP DUP3 DUP6 PUSH1 0x20 DUP7 MUL DUP3 ADD GT ISZERO PUSH3 0xC0C JUMPI PUSH1 0x0 DUP1 REVERT JUMPDEST PUSH1 0x0 JUMPDEST DUP6 DUP2 LT ISZERO PUSH3 0xC40 JUMPI DUP2 PUSH3 0xC25 DUP9 DUP3 PUSH3 0xD71 JUMP JUMPDEST DUP5 MSTORE PUSH1 0x20 DUP5 ADD SWAP4 POP PUSH1 0x20 DUP4 ADD SWAP3 POP POP PUSH1 0x1 DUP2 ADD SWAP1 POP PUSH3 0xC0F JUMP JUMPDEST POP POP POP SWAP4 SWAP3 POP POP POP JUMP JUMPDEST PUSH1 0x0 PUSH3 0xC61 PUSH3 0xC5B DUP5 PUSH3 0x1195 JUMP JUMPDEST PUSH3 0x10DF JUMP JUMPDEST SWAP1 POP DUP3 DUP2 MSTORE PUSH1 0x20 DUP2 ADD DUP5 DUP5 DUP5 ADD GT ISZERO PUSH3 0xC7A JUMPI PUSH1 0x0 DUP1 REVERT JUMPDEST PUSH3 0xC87 DUP5 DUP3 DUP6 PUSH3 0x1239 JUMP JUMPDEST POP SWAP4 SWAP3 POP POP POP JUMP JUMPDEST PUSH1 0x0 DUP3 PUSH1 0x1F DUP4 ADD SLT PUSH3 0xCA1 JUMPI PUSH1 0x0 DUP1 REVERT JUMPDEST DUP2 MLOAD PUSH3 0xCB3 DUP5 DUP3 PUSH1 0x20 DUP7 ADD PUSH3 0xAEB JUMP JUMPDEST SWAP2 POP POP SWAP3 SWAP2 POP POP JUMP JUMPDEST PUSH1 0x0 DUP3 PUSH1 0x1F DUP4 ADD SLT PUSH3 0xCCE JUMPI PUSH1 0x0 DUP1 REVERT JUMPDEST DUP2 MLOAD PUSH3 0xCE0 DUP5 DUP3 PUSH1 0x20 DUP7 ADD PUSH3 0xB60 JUMP JUMPDEST SWAP2 POP POP SWAP3 SWAP2 POP POP JUMP JUMPDEST PUSH1 0x0 DUP3 PUSH1 0x1F DUP4 ADD SLT PUSH3 0xCFB JUMPI PUSH1 0x0 DUP1 REVERT JUMPDEST DUP2 MLOAD PUSH3 0xD0D DUP5 DUP3 PUSH1 0x20 DUP7 ADD PUSH3 0xBD5 JUMP JUMPDEST SWAP2 POP POP SWAP3 SWAP2 POP POP JUMP JUMPDEST PUSH1 0x0 DUP2 MLOAD SWAP1 POP PUSH3 0xD27 DUP2 PUSH3 0x1578 JUMP JUMPDEST SWAP3 SWAP2 POP POP JUMP JUMPDEST PUSH1 0x0 DUP3 PUSH1 0x1F DUP4 ADD SLT PUSH3 0xD3F JUMPI PUSH1 0x0 DUP1 REVERT JUMPDEST DUP2 MLOAD PUSH3 0xD51 DUP5 DUP3 PUSH1 0x20 DUP7 ADD PUSH3 0xC4A JUMP JUMPDEST SWAP2 POP POP SWAP3 SWAP2 POP POP JUMP JUMPDEST PUSH1 0x0 DUP2 MLOAD SWAP1 POP PUSH3 0xD6B DUP2 PUSH3 0x1592 JUMP JUMPDEST SWAP3 SWAP2 POP POP JUMP JUMPDEST PUSH1 0x0 DUP2 MLOAD SWAP1 POP PUSH3 0xD82 DUP2 PUSH3 0x15AC JUMP JUMPDEST SWAP3 SWAP2 POP POP JUMP JUMPDEST PUSH1 0x0 DUP1 PUSH1 0x0 DUP1 PUSH1 0x0 DUP1 PUSH1 0x0 DUP1 PUSH1 0x0 DUP1 PUSH2 0x140 DUP12 DUP14 SUB SLT ISZERO PUSH3 0xDA9 JUMPI PUSH1 0x0 DUP1 REVERT JUMPDEST PUSH1 0x0 DUP12 ADD MLOAD PUSH8 0xFFFFFFFFFFFFFFFF DUP2 GT ISZERO PUSH3 0xDC4 JUMPI PUSH1 0x0 DUP1 REVERT JUMPDEST PUSH3 0xDD2 DUP14 DUP3 DUP15 ADD PUSH3 0xC8F JUMP JUMPDEST SWAP11 POP POP PUSH1 0x20 DUP12 ADD MLOAD PUSH8 0xFFFFFFFFFFFFFFFF DUP2 GT ISZERO PUSH3 0xDF0 JUMPI PUSH1 0x0 DUP1 REVERT JUMPDEST PUSH3 0xDFE DUP14 DUP3 DUP15 ADD PUSH3 0xCE9 JUMP JUMPDEST SWAP10 POP POP PUSH1 0x40 DUP12 ADD MLOAD PUSH8 0xFFFFFFFFFFFFFFFF DUP2 GT ISZERO PUSH3 0xE1C JUMPI PUSH1 0x0 DUP1 REVERT JUMPDEST PUSH3 0xE2A DUP14 DUP3 DUP15 ADD PUSH3 0xC8F JUMP JUMPDEST SWAP9 POP POP PUSH1 0x60 DUP12 ADD MLOAD PUSH8 0xFFFFFFFFFFFFFFFF DUP2 GT ISZERO PUSH3 0xE48 JUMPI PUSH1 0x0 DUP1 REVERT JUMPDEST PUSH3 0xE56 DUP14 DUP3 DUP15 ADD PUSH3 0xC8F JUMP JUMPDEST SWAP8 POP POP PUSH1 0x80 DUP12 ADD MLOAD PUSH8 0xFFFFFFFFFFFFFFFF DUP2 GT ISZERO PUSH3 0xE74 JUMPI PUSH1 0x0 DUP1 REVERT JUMPDEST PUSH3 0xE82 DUP14 DUP3 DUP15 ADD PUSH3 0xCE9 JUMP JUMPDEST SWAP7 POP POP PUSH1 0xA0 DUP12 ADD MLOAD PUSH8 0xFFFFFFFFFFFFFFFF DUP2 GT ISZERO PUSH3 0xEA0 JUMPI PUSH1 0x0 DUP1 REVERT JUMPDEST PUSH3 0xEAE DUP14 DUP3 DUP15 ADD PUSH3 0xCBC JUMP JUMPDEST SWAP6 POP POP PUSH1 0xC0 DUP12 ADD MLOAD PUSH8 0xFFFFFFFFFFFFFFFF DUP2 GT ISZERO PUSH3 0xECC JUMPI PUSH1 0x0 DUP1 REVERT JUMPDEST PUSH3 0xEDA DUP14 DUP3 DUP15 ADD PUSH3 0xC8F JUMP JUMPDEST SWAP5 POP POP PUSH1 0xE0 DUP12 ADD MLOAD PUSH8 0xFFFFFFFFFFFFFFFF DUP2 GT ISZERO PUSH3 0xEF8 JUMPI PUSH1 0x0 DUP1 REVERT JUMPDEST PUSH3 0xF06 DUP14 DUP3 DUP15 ADD PUSH3 0xD2D JUMP JUMPDEST SWAP4 POP POP PUSH2 0x100 DUP12 ADD MLOAD PUSH8 0xFFFFFFFFFFFFFFFF DUP2 GT ISZERO PUSH3 0xF25 JUMPI PUSH1 0x0 DUP1 REVERT JUMPDEST PUSH3 0xF33 DUP14 DUP3 DUP15 ADD PUSH3 0xD2D JUMP JUMPDEST SWAP3 POP POP PUSH2 0x120 DUP12 ADD MLOAD PUSH8 0xFFFFFFFFFFFFFFFF DUP2 GT ISZERO PUSH3 0xF52 JUMPI PUSH1 0x0 DUP1 REVERT JUMPDEST PUSH3 0xF60 DUP14 DUP3 DUP15 ADD PUSH3 0xD2D JUMP JUMPDEST SWAP2 POP POP SWAP3 SWAP6 SWAP9 SWAP12 SWAP2 SWAP5 SWAP8 SWAP11 POP SWAP3 SWAP6 SWAP9 POP JUMP JUMPDEST PUSH1 0x0 PUSH3 0xF81 PUSH1 0x39 DUP4 PUSH3 0x11CB JUMP JUMPDEST SWAP2 POP PUSH3 0xF8E DUP3 PUSH3 0x13C7 JUMP JUMPDEST PUSH1 0x40 DUP3 ADD SWAP1 POP SWAP2 SWAP1 POP JUMP JUMPDEST PUSH1 0x0 PUSH3 0xFA8 PUSH1 0x4A DUP4 PUSH3 0x11CB JUMP JUMPDEST SWAP2 POP PUSH3 0xFB5 DUP3 PUSH3 0x1416 JUMP JUMPDEST PUSH1 0x60 DUP3 ADD SWAP1 POP SWAP2 SWAP1 POP JUMP JUMPDEST PUSH1 0x0 PUSH3 0xFCF PUSH1 0x24 DUP4 PUSH3 0x11CB JUMP JUMPDEST SWAP2 POP PUSH3 0xFDC DUP3 PUSH3 0x148B JUMP JUMPDEST PUSH1 0x40 DUP3 ADD SWAP1 POP SWAP2 SWAP1 POP JUMP JUMPDEST PUSH1 0x0 PUSH3 0xFF6 PUSH1 0x30 DUP4 PUSH3 0x11CB JUMP JUMPDEST SWAP2 POP PUSH3 0x1003 DUP3 PUSH3 0x14DA JUMP JUMPDEST PUSH1 0x40 DUP3 ADD SWAP1 POP SWAP2 SWAP1 POP JUMP JUMPDEST PUSH1 0x0 PUSH3 0x101D PUSH1 0x40 DUP4 PUSH3 0x11CB JUMP JUMPDEST SWAP2 POP PUSH3 0x102A DUP3 PUSH3 0x1529 JUMP JUMPDEST PUSH1 0x40 DUP3 ADD SWAP1 POP SWAP2 SWAP1 POP JUMP JUMPDEST PUSH1 0x0 PUSH1 0x20 DUP3 ADD SWAP1 POP DUP2 DUP2 SUB PUSH1 0x0 DUP4 ADD MSTORE PUSH3 0x1050 DUP2 PUSH3 0xF72 JUMP JUMPDEST SWAP1 POP SWAP2 SWAP1 POP JUMP JUMPDEST PUSH1 0x0 PUSH1 0x20 DUP3 ADD SWAP1 POP DUP2 DUP2 SUB PUSH1 0x0 DUP4 ADD MSTORE PUSH3 0x1072 DUP2 PUSH3 0xF99 JUMP JUMPDEST SWAP1 POP SWAP2 SWAP1 POP JUMP JUMPDEST PUSH1 0x0 PUSH1 0x20 DUP3 ADD SWAP1 POP DUP2 DUP2 SUB PUSH1 0x0 DUP4 ADD MSTORE PUSH3 0x1094 DUP2 PUSH3 0xFC0 JUMP JUMPDEST SWAP1 POP SWAP2 SWAP1 POP JUMP JUMPDEST PUSH1 0x0 PUSH1 0x20 DUP3 ADD SWAP1 POP DUP2 DUP2 SUB PUSH1 0x0 DUP4 ADD MSTORE PUSH3 0x10B6 DUP2 PUSH3 0xFE7 JUMP JUMPDEST SWAP1 POP SWAP2 SWAP1 POP JUMP JUMPDEST PUSH1 0x0 PUSH1 0x20 DUP3 ADD SWAP1 POP DUP2 DUP2 SUB PUSH1 0x0 DUP4 ADD MSTORE PUSH3 0x10D8 DUP2 PUSH3 0x100E JUMP JUMPDEST SWAP1 POP SWAP2 SWAP1 POP JUMP JUMPDEST PUSH1 0x0 PUSH3 0x10EB PUSH3 0x10FE JUMP JUMPDEST SWAP1 POP PUSH3 0x10F9 DUP3 DUP3 PUSH3 0x12A5 JUMP JUMPDEST SWAP2 SWAP1 POP JUMP JUMPDEST PUSH1 0x0 PUSH1 0x40 MLOAD SWAP1 POP SWAP1 JUMP JUMPDEST PUSH1 0x0 PUSH8 0xFFFFFFFFFFFFFFFF DUP3 GT ISZERO PUSH3 0x1126 JUMPI PUSH3 0x1125 PUSH3 0x1387 JUMP JUMPDEST JUMPDEST PUSH1 0x20 DUP3 MUL SWAP1 POP PUSH1 0x20 DUP2 ADD SWAP1 POP SWAP2 SWAP1 POP JUMP JUMPDEST PUSH1 0x0 PUSH8 0xFFFFFFFFFFFFFFFF DUP3 GT ISZERO PUSH3 0x1155 JUMPI PUSH3 0x1154 PUSH3 0x1387 JUMP JUMPDEST JUMPDEST PUSH1 0x20 DUP3 MUL SWAP1 POP PUSH1 0x20 DUP2 ADD SWAP1 POP SWAP2 SWAP1 POP JUMP JUMPDEST PUSH1 0x0 PUSH8 0xFFFFFFFFFFFFFFFF DUP3 GT ISZERO PUSH3 0x1184 JUMPI PUSH3 0x1183 PUSH3 0x1387 JUMP JUMPDEST JUMPDEST PUSH1 0x20 DUP3 MUL SWAP1 POP PUSH1 0x20 DUP2 ADD SWAP1 POP SWAP2 SWAP1 POP JUMP JUMPDEST PUSH1 0x0 PUSH8 0xFFFFFFFFFFFFFFFF DUP3 GT ISZERO PUSH3 0x11B3 JUMPI PUSH3 0x11B2 PUSH3 0x1387 JUMP JUMPDEST JUMPDEST PUSH3 0x11BE DUP3 PUSH3 0x13B6 JUMP JUMPDEST SWAP1 POP PUSH1 0x20 DUP2 ADD SWAP1 POP SWAP2 SWAP1 POP JUMP JUMPDEST PUSH1 0x0 DUP3 DUP3 MSTORE PUSH1 0x20 DUP3 ADD SWAP1 POP SWAP3 SWAP2 POP POP JUMP JUMPDEST PUSH1 0x0 PUSH3 0x11E9 DUP3 PUSH3 0x122F JUMP JUMPDEST SWAP2 POP PUSH3 0x11F6 DUP4 PUSH3 0x122F JUMP JUMPDEST SWAP3 POP DUP3 DUP3 LT ISZERO PUSH3 0x120C JUMPI PUSH3 0x120B PUSH3 0x1329 JUMP JUMPDEST JUMPDEST DUP3 DUP3 SUB SWAP1 POP SWAP3 SWAP2 POP POP JUMP JUMPDEST PUSH1 0x0 DUP2 SWAP1 POP SWAP2 SWAP1 POP JUMP JUMPDEST PUSH1 0x0 PUSH2 0xFFFF DUP3 AND SWAP1 POP SWAP2 SWAP1 POP JUMP JUMPDEST PUSH1 0x0 DUP2 SWAP1 POP SWAP2 SWAP1 POP JUMP JUMPDEST PUSH1 0x0 JUMPDEST DUP4 DUP2 LT ISZERO PUSH3 0x1259 JUMPI DUP1 DUP3 ADD MLOAD DUP2 DUP5 ADD MSTORE PUSH1 0x20 DUP2 ADD SWAP1 POP PUSH3 0x123C JUMP JUMPDEST DUP4 DUP2 GT ISZERO PUSH3 0x1269 JUMPI PUSH1 0x0 DUP5 DUP5 ADD MSTORE JUMPDEST POP POP POP POP JUMP JUMPDEST PUSH1 0x0 PUSH1 0x2 DUP3 DIV SWAP1 POP PUSH1 0x1 DUP3 AND DUP1 PUSH3 0x1288 JUMPI PUSH1 0x7F DUP3 AND SWAP2 POP JUMPDEST PUSH1 0x20 DUP3 LT DUP2 EQ ISZERO PUSH3 0x129F JUMPI PUSH3 0x129E PUSH3 0x1358 JUMP JUMPDEST JUMPDEST POP SWAP2 SWAP1 POP JUMP JUMPDEST PUSH3 0x12B0 DUP3 PUSH3 0x13B6 JUMP JUMPDEST DUP2 ADD DUP2 DUP2 LT PUSH8 0xFFFFFFFFFFFFFFFF DUP3 GT OR ISZERO PUSH3 0x12D2 JUMPI PUSH3 0x12D1 PUSH3 0x1387 JUMP JUMPDEST JUMPDEST DUP1 PUSH1 0x40 MSTORE POP POP POP JUMP JUMPDEST PUSH1 0x0 PUSH3 0x12E8 DUP3 PUSH3 0x122F JUMP JUMPDEST SWAP2 POP PUSH32 0xFFFFFFFFFFFFFFFFFFFFFFFFFFFFFFFFFFFFFFFFFFFFFFFFFFFFFFFFFFFFFFFF DUP3 EQ ISZERO PUSH3 0x131E JUMPI PUSH3 0x131D PUSH3 0x1329 JUMP JUMPDEST JUMPDEST PUSH1 0x1 DUP3 ADD SWAP1 POP SWAP2 SWAP1 POP JUMP JUMPDEST PUSH32 0x4E487B7100000000000000000000000000000000000000000000000000000000 PUSH1 0x0 MSTORE PUSH1 0x11 PUSH1 0x4 MSTORE PUSH1 0x24 PUSH1 0x0 REVERT JUMPDEST PUSH32 0x4E487B7100000000000000000000000000000000000000000000000000000000 PUSH1 0x0 MSTORE PUSH1 0x22 PUSH1 0x4 MSTORE PUSH1 0x24 PUSH1 0x0 REVERT JUMPDEST PUSH32 0x4E487B7100000000000000000000000000000000000000000000000000000000 PUSH1 0x0 MSTORE PUSH1 0x41 PUSH1 0x4 MSTORE PUSH1 0x24 PUSH1 0x0 REVERT JUMPDEST PUSH1 0x0 PUSH1 0x1F NOT PUSH1 0x1F DUP4 ADD AND SWAP1 POP SWAP2 SWAP1 POP JUMP JUMPDEST PUSH32 0x436865636B20746861742070726576696F75732050435220686173206265656E PUSH1 0x0 DUP3 ADD MSTORE PUSH32 0x206E6F206D6F7265207468616E203320646179732061676F2E00000000000000 PUSH1 0x20 DUP3 ADD MSTORE POP JUMP JUMPDEST PUSH32 0x596F75206861766520746F2070726F766964652074686520616D6F756E74206F PUSH1 0x0 DUP3 ADD MSTORE PUSH32 0x662064617920636F6D70656E736174696F6E20616E6420746865206E756D6265 PUSH1 0x20 DUP3 ADD MSTORE PUSH32 0x72206F6620646179732E00000000000000000000000000000000000000000000 PUSH1 0x40 DUP3 ADD MSTORE POP JUMP JUMPDEST PUSH32 0x4D7573742070726F7669646520506F6C69637920494420616E642054616B6572 PUSH1 0x0 DUP3 ADD MSTORE PUSH32 0x2049442E00000000000000000000000000000000000000000000000000000000 PUSH1 0x20 DUP3 ADD MSTORE POP JUMP JUMPDEST PUSH32 0x54686520737461727420646174652068617320746F206265206265666F726520 PUSH1 0x0 DUP3 ADD MSTORE PUSH32 0x7468652066696E69736820646174652E00000000000000000000000000000000 PUSH1 0x20 DUP3 ADD MSTORE POP JUMP JUMPDEST PUSH32 0x54686520506F6C696379206E656564206120737461727420646174652C206120 PUSH1 0x0 DUP3 ADD MSTORE PUSH32 0x66696E697368206461746520616E64206120636F6E747261637420646174652E PUSH1 0x20 DUP3 ADD MSTORE POP JUMP JUMPDEST PUSH3 0x1583 DUP2 PUSH3 0x1217 JUMP JUMPDEST DUP2 EQ PUSH3 0x158F JUMPI PUSH1 0x0 DUP1 REVERT JUMPDEST POP JUMP JUMPDEST PUSH3 0x159D DUP2 PUSH3 0x1221 JUMP JUMPDEST DUP2 EQ PUSH3 0x15A9 JUMPI PUSH1 0x0 DUP1 REVERT JUMPDEST POP JUMP JUMPDEST PUSH3 0x15B7 DUP2 PUSH3 0x122F JUMP JUMPDEST DUP2 EQ PUSH3 0x15C3 JUMPI PUSH1 0x0 DUP1 REVERT JUMPDEST POP JUMP JUMPDEST PUSH2 0x2668 DUP1 PUSH3 0x15D6 PUSH1 0x0 CODECOPY PUSH1 0x0 RETURN INVALID PUSH1 0x80 PUSH1 0x40 MSTORE CALLVALUE DUP1 ISZERO PUSH2 0x10 JUMPI PUSH1 0x0 DUP1 REVERT JUMPDEST POP PUSH1 0x4 CALLDATASIZE LT PUSH2 0xCF JUMPI PUSH1 0x0 CALLDATALOAD PUSH1 0xE0 SHR DUP1 PUSH4 0x40D5FF58 GT PUSH2 0x8C JUMPI DUP1 PUSH4 0x92ED93D0 GT PUSH2 0x66 JUMPI DUP1 PUSH4 0x92ED93D0 EQ PUSH2 0x1F2 JUMPI DUP1 PUSH4 0x9499E018 EQ PUSH2 0x216 JUMPI DUP1 PUSH4 0xE0CAF0BD EQ PUSH2 0x220 JUMPI DUP1 PUSH4 0xFC1C7A70 EQ PUSH2 0x248 JUMPI PUSH2 0xCF JUMP JUMPDEST DUP1 PUSH4 0x40D5FF58 EQ PUSH2 0x19A JUMPI DUP1 PUSH4 0x5D1CA631 EQ PUSH2 0x1A4 JUMPI DUP1 PUSH4 0x62A681B3 EQ PUSH2 0x1C2 JUMPI PUSH2 0xCF JUMP JUMPDEST DUP1 PUSH4 0x121B5A25 EQ PUSH2 0xD4 JUMPI DUP1 PUSH4 0x169E68C3 EQ PUSH2 0xF2 JUMPI DUP1 PUSH4 0x2357AEF3 EQ PUSH2 0x127 JUMPI DUP1 PUSH4 0x236F45D9 EQ PUSH2 0x143 JUMPI DUP1 PUSH4 0x297E6306 EQ PUSH2 0x162 JUMPI DUP1 PUSH4 0x2F0519D4 EQ PUSH2 0x17E JUMPI JUMPDEST PUSH1 0x0 DUP1 REVERT JUMPDEST PUSH2 0xDC PUSH2 0x266 JUMP JUMPDEST PUSH1 0x40 MLOAD PUSH2 0xE9 SWAP2 SWAP1 PUSH2 0x20EF JUMP JUMPDEST PUSH1 0x40 MLOAD DUP1 SWAP2 SUB SWAP1 RETURN JUMPDEST PUSH2 0x10C PUSH1 0x4 DUP1 CALLDATASIZE SUB DUP2 ADD SWAP1 PUSH2 0x107 SWAP2 SWAP1 PUSH2 0x1B90 JUMP JUMPDEST PUSH2 0x2C1 JUMP JUMPDEST PUSH1 0x40 MLOAD PUSH2 0x11E SWAP7 SWAP6 SWAP5 SWAP4 SWAP3 SWAP2 SWAP1 PUSH2 0x1F3F JUMP JUMPDEST PUSH1 0x40 MLOAD DUP1 SWAP2 SUB SWAP1 RETURN JUMPDEST PUSH2 0x141 PUSH1 0x4 DUP1 CALLDATASIZE SUB DUP2 ADD SWAP1 PUSH2 0x13C SWAP2 SWAP1 PUSH2 0x1BB9 JUMP JUMPDEST PUSH2 0x3E9 JUMP JUMPDEST STOP JUMPDEST PUSH2 0x14B PUSH2 0x535 JUMP JUMPDEST PUSH1 0x40 MLOAD PUSH2 0x159 SWAP3 SWAP2 SWAP1 PUSH2 0x203F JUMP JUMPDEST PUSH1 0x40 MLOAD DUP1 SWAP2 SUB SWAP1 RETURN JUMPDEST PUSH2 0x17C PUSH1 0x4 DUP1 CALLDATASIZE SUB DUP2 ADD SWAP1 PUSH2 0x177 SWAP2 SWAP1 PUSH2 0x1B67 JUMP JUMPDEST PUSH2 0x1192 JUMP JUMPDEST STOP JUMPDEST PUSH2 0x198 PUSH1 0x4 DUP1 CALLDATASIZE SUB DUP2 ADD SWAP1 PUSH2 0x193 SWAP2 SWAP1 PUSH2 0x1BF5 JUMP JUMPDEST PUSH2 0x120A JUMP JUMPDEST STOP JUMPDEST PUSH2 0x1A2 PUSH2 0x14AE JUMP JUMPDEST STOP JUMPDEST PUSH2 0x1AC PUSH2 0x155A JUMP JUMPDEST PUSH1 0x40 MLOAD PUSH2 0x1B9 SWAP2 SWAP1 PUSH2 0x1E64 JUMP JUMPDEST PUSH1 0x40 MLOAD DUP1 SWAP2 SUB SWAP1 RETURN JUMPDEST PUSH2 0x1DC PUSH1 0x4 DUP1 CALLDATASIZE SUB DUP2 ADD SWAP1 PUSH2 0x1D7 SWAP2 SWAP1 PUSH2 0x1B90 JUMP JUMPDEST PUSH2 0x1567 JUMP JUMPDEST PUSH1 0x40 MLOAD PUSH2 0x1E9 SWAP2 SWAP1 PUSH2 0x1E49 JUMP JUMPDEST PUSH1 0x40 MLOAD DUP1 SWAP2 SUB SWAP1 RETURN JUMPDEST PUSH2 0x1FA PUSH2 0x1677 JUMP JUMPDEST PUSH1 0x40 MLOAD PUSH2 0x20D SWAP8 SWAP7 SWAP6 SWAP5 SWAP4 SWAP3 SWAP2 SWAP1 PUSH2 0x1FA0 JUMP JUMPDEST PUSH1 0x40 MLOAD DUP1 SWAP2 SUB SWAP1 RETURN JUMPDEST PUSH2 0x21E PUSH2 0x173E JUMP JUMPDEST STOP JUMPDEST PUSH2 0x228 PUSH2 0x17CF JUMP JUMPDEST PUSH1 0x40 MLOAD PUSH2 0x23F SWAP12 SWAP11 SWAP10 SWAP9 SWAP8 SWAP7 SWAP6 SWAP5 SWAP4 SWAP3 SWAP2 SWAP1 PUSH2 0x1E7F JUMP JUMPDEST PUSH1 0x40 MLOAD DUP1 SWAP2 SUB SWAP1 RETURN JUMPDEST PUSH2 0x250 PUSH2 0x19E7 JUMP JUMPDEST PUSH1 0x40 MLOAD PUSH2 0x25D SWAP2 SWAP1 PUSH2 0x1E64 JUMP JUMPDEST PUSH1 0x40 MLOAD DUP1 SWAP2 SUB SWAP1 RETURN JUMPDEST PUSH1 0x0 PUSH1 0xA PUSH1 0x0 ADD PUSH1 0x6 SWAP1 SLOAD SWAP1 PUSH2 0x100 EXP SWAP1 DIV PUSH2 0xFFFF AND PUSH1 0xA PUSH1 0x0 ADD PUSH1 0x2 SWAP1 SLOAD SWAP1 PUSH2 0x100 EXP SWAP1 DIV PUSH2 0xFFFF AND PUSH1 0xA PUSH1 0x0 ADD PUSH1 0x0 SWAP1 SLOAD SWAP1 PUSH2 0x100 EXP SWAP1 DIV PUSH2 0xFFFF AND PUSH2 0x2AE SWAP2 SWAP1 PUSH2 0x2229 JUMP JUMPDEST PUSH2 0x2B8 SWAP2 SWAP1 PUSH2 0x2229 JUMP JUMPDEST PUSH2 0xFFFF AND SWAP1 POP SWAP1 JUMP JUMPDEST PUSH1 0x0 DUP1 PUSH1 0x0 DUP1 PUSH1 0x0 DUP1 PUSH1 0x5 PUSH1 0x0 DUP9 DUP2 MSTORE PUSH1 0x20 ADD SWAP1 DUP2 MSTORE PUSH1 0x20 ADD PUSH1 0x0 KECCAK256 PUSH1 0x0 SWAP1 SLOAD SWAP1 PUSH2 0x100 EXP SWAP1 DIV PUSH1 0xFF AND PUSH2 0x32A JUMPI PUSH1 0x40 MLOAD PUSH32 0x8C379A000000000000000000000000000000000000000000000000000000000 DUP2 MSTORE PUSH1 0x4 ADD PUSH2 0x321 SWAP1 PUSH2 0x20CF JUMP JUMPDEST PUSH1 0x40 MLOAD DUP1 SWAP2 SUB SWAP1 REVERT JUMPDEST PUSH1 0x9 PUSH1 0x0 DUP9 DUP2 MSTORE PUSH1 0x20 ADD SWAP1 DUP2 MSTORE PUSH1 0x20 ADD PUSH1 0x0 KECCAK256 PUSH1 0x0 ADD SLOAD PUSH1 0x9 PUSH1 0x0 DUP10 DUP2 MSTORE PUSH1 0x20 ADD SWAP1 DUP2 MSTORE PUSH1 0x20 ADD PUSH1 0x0 KECCAK256 PUSH1 0x2 ADD SLOAD PUSH1 0x9 PUSH1 0x0 DUP11 DUP2 MSTORE PUSH1 0x20 ADD SWAP1 DUP2 MSTORE PUSH1 0x20 ADD PUSH1 0x0 KECCAK256 PUSH1 0x3 ADD SLOAD PUSH1 0x9 PUSH1 0x0 DUP12 DUP2 MSTORE PUSH1 0x20 ADD SWAP1 DUP2 MSTORE PUSH1 0x20 ADD PUSH1 0x0 KECCAK256 PUSH1 0x4 ADD SLOAD PUSH1 0x9 PUSH1 0x0 DUP13 DUP2 MSTORE PUSH1 0x20 ADD SWAP1 DUP2 MSTORE PUSH1 0x20 ADD PUSH1 0x0 KECCAK256 PUSH1 0x1 ADD SLOAD PUSH1 0x9 PUSH1 0x0 DUP14 DUP2 MSTORE PUSH1 0x20 ADD SWAP1 DUP2 MSTORE PUSH1 0x20 ADD PUSH1 0x0 KECCAK256 PUSH1 0x5 ADD PUSH1 0x0 SWAP1 SLOAD SWAP1 PUSH2 0x100 EXP SWAP1 DIV PUSH20 0xFFFFFFFFFFFFFFFFFFFFFFFFFFFFFFFFFFFFFFFF AND SWAP6 POP SWAP6 POP SWAP6 POP SWAP6 POP SWAP6 POP SWAP6 POP SWAP2 SWAP4 SWAP6 POP SWAP2 SWAP4 SWAP6 JUMP JUMPDEST PUSH1 0x0 PUSH32 0x504F534954495645000000000000000000000000000000000000000000000000 SWAP1 POP PUSH1 0x0 PUSH1 0x6 PUSH1 0x0 DUP6 DUP2 MSTORE PUSH1 0x20 ADD SWAP1 DUP2 MSTORE PUSH1 0x20 ADD PUSH1 0x0 KECCAK256 SLOAD SWAP1 POP PUSH1 0x5 PUSH1 0x0 DUP6 DUP2 MSTORE PUSH1 0x20 ADD SWAP1 DUP2 MSTORE PUSH1 0x20 ADD PUSH1 0x0 KECCAK256 PUSH1 0x0 SWAP1 SLOAD SWAP1 PUSH2 0x100 EXP SWAP1 DIV PUSH1 0xFF AND PUSH2 0x486 JUMPI PUSH1 0x40 MLOAD PUSH32 0x8C379A000000000000000000000000000000000000000000000000000000000 DUP2 MSTORE PUSH1 0x4 ADD PUSH2 0x47D SWAP1 PUSH2 0x20AF JUMP JUMPDEST PUSH1 0x40 MLOAD DUP1 SWAP2 SUB SWAP1 REVERT JUMPDEST DUP3 PUSH1 0x9 PUSH1 0x0 DUP7 DUP2 MSTORE PUSH1 0x20 ADD SWAP1 DUP2 MSTORE PUSH1 0x20 ADD PUSH1 0x0 KECCAK256 PUSH1 0x0 ADD DUP2 SWAP1 SSTORE POP TIMESTAMP PUSH1 0x9 PUSH1 0x0 DUP7 DUP2 MSTORE PUSH1 0x20 ADD SWAP1 DUP2 MSTORE PUSH1 0x20 ADD PUSH1 0x0 KECCAK256 PUSH1 0x4 ADD DUP2 SWAP1 SSTORE POP DUP2 DUP4 EQ ISZERO PUSH2 0x52F JUMPI PUSH1 0x1 PUSH1 0x1B PUSH1 0x0 PUSH2 0x100 EXP DUP2 SLOAD DUP2 PUSH1 0xFF MUL NOT AND SWAP1 DUP4 ISZERO ISZERO MUL OR SWAP1 SSTORE POP PUSH32 0x55CB01DF06BA1925769D5C9D83199624C566E9E81719D4A3D02AEE576149D7F9 DUP2 TIMESTAMP PUSH1 0x40 MLOAD PUSH2 0x510 SWAP3 SWAP2 SWAP1 PUSH2 0x2016 JUMP JUMPDEST PUSH1 0x40 MLOAD DUP1 SWAP2 SUB SWAP1 LOG1 PUSH1 0xA PUSH1 0x3 ADD SLOAD TIMESTAMP LT ISZERO PUSH2 0x52E JUMPI PUSH2 0x52D PUSH2 0x14AE JUMP JUMPDEST JUMPDEST JUMPDEST POP POP POP POP JUMP JUMPDEST PUSH1 0x60 PUSH1 0x0 DUP1 PUSH2 0x5D0 PUSH1 0x10 PUSH1 0x0 ADD DUP1 SLOAD PUSH2 0x54D SWAP1 PUSH2 0x23A4 JUMP JUMPDEST DUP1 PUSH1 0x1F ADD PUSH1 0x20 DUP1 SWAP2 DIV MUL PUSH1 0x20 ADD PUSH1 0x40 MLOAD SWAP1 DUP2 ADD PUSH1 0x40 MSTORE DUP1 SWAP3 SWAP2 SWAP1 DUP2 DUP2 MSTORE PUSH1 0x20 ADD DUP3 DUP1 SLOAD PUSH2 0x579 SWAP1 PUSH2 0x23A4 JUMP JUMPDEST DUP1 ISZERO PUSH2 0x5C6 JUMPI DUP1 PUSH1 0x1F LT PUSH2 0x59B JUMPI PUSH2 0x100 DUP1 DUP4 SLOAD DIV MUL DUP4 MSTORE SWAP2 PUSH1 0x20 ADD SWAP2 PUSH2 0x5C6 JUMP JUMPDEST DUP3 ADD SWAP2 SWAP1 PUSH1 0x0 MSTORE PUSH1 0x20 PUSH1 0x0 KECCAK256 SWAP1 JUMPDEST DUP2 SLOAD DUP2 MSTORE SWAP1 PUSH1 0x1 ADD SWAP1 PUSH1 0x20 ADD DUP1 DUP4 GT PUSH2 0x5A9 JUMPI DUP3 SWAP1 SUB PUSH1 0x1F AND DUP3 ADD SWAP2 JUMPDEST POP POP POP POP POP PUSH2 0x19F4 JUMP JUMPDEST SWAP1 POP PUSH1 0x0 PUSH2 0x66A PUSH1 0x10 PUSH1 0x1 ADD DUP1 SLOAD PUSH2 0x5E7 SWAP1 PUSH2 0x23A4 JUMP JUMPDEST DUP1 PUSH1 0x1F ADD PUSH1 0x20 DUP1 SWAP2 DIV MUL PUSH1 0x20 ADD PUSH1 0x40 MLOAD SWAP1 DUP2 ADD PUSH1 0x40 MSTORE DUP1 SWAP3 SWAP2 SWAP1 DUP2 DUP2 MSTORE PUSH1 0x20 ADD DUP3 DUP1 SLOAD PUSH2 0x613 SWAP1 PUSH2 0x23A4 JUMP JUMPDEST DUP1 ISZERO PUSH2 0x660 JUMPI DUP1 PUSH1 0x1F LT PUSH2 0x635 JUMPI PUSH2 0x100 DUP1 DUP4 SLOAD DIV MUL DUP4 MSTORE SWAP2 PUSH1 0x20 ADD SWAP2 PUSH2 0x660 JUMP JUMPDEST DUP3 ADD SWAP2 SWAP1 PUSH1 0x0 MSTORE PUSH1 0x20 PUSH1 0x0 KECCAK256 SWAP1 JUMPDEST DUP2 SLOAD DUP2 MSTORE SWAP1 PUSH1 0x1 ADD SWAP1 PUSH1 0x20 ADD DUP1 DUP4 GT PUSH2 0x643 JUMPI DUP3 SWAP1 SUB PUSH1 0x1F AND DUP3 ADD SWAP2 JUMPDEST POP POP POP POP POP PUSH2 0x19F4 JUMP JUMPDEST SWAP1 POP PUSH1 0x0 PUSH2 0x704 PUSH1 0x10 PUSH1 0x2 ADD DUP1 SLOAD PUSH2 0x681 SWAP1 PUSH2 0x23A4 JUMP JUMPDEST DUP1 PUSH1 0x1F ADD PUSH1 0x20 DUP1 SWAP2 DIV MUL PUSH1 0x20 ADD PUSH1 0x40 MLOAD SWAP1 DUP2 ADD PUSH1 0x40 MSTORE DUP1 SWAP3 SWAP2 SWAP1 DUP2 DUP2 MSTORE PUSH1 0x20 ADD DUP3 DUP1 SLOAD PUSH2 0x6AD SWAP1 PUSH2 0x23A4 JUMP JUMPDEST DUP1 ISZERO PUSH2 0x6FA JUMPI DUP1 PUSH1 0x1F LT PUSH2 0x6CF JUMPI PUSH2 0x100 DUP1 DUP4 SLOAD DIV MUL DUP4 MSTORE SWAP2 PUSH1 0x20 ADD SWAP2 PUSH2 0x6FA JUMP JUMPDEST DUP3 ADD SWAP2 SWAP1 PUSH1 0x0 MSTORE PUSH1 0x20 PUSH1 0x0 KECCAK256 SWAP1 JUMPDEST DUP2 SLOAD DUP2 MSTORE SWAP1 PUSH1 0x1 ADD SWAP1 PUSH1 0x20 ADD DUP1 DUP4 GT PUSH2 0x6DD JUMPI DUP3 SWAP1 SUB PUSH1 0x1F AND DUP3 ADD SWAP2 JUMPDEST POP POP POP POP POP PUSH2 0x19F4 JUMP JUMPDEST SWAP1 POP PUSH1 0x0 PUSH1 0x1E PUSH1 0xA PUSH1 0x0 ADD PUSH1 0x4 SWAP1 SLOAD SWAP1 PUSH2 0x100 EXP SWAP1 DIV PUSH2 0xFFFF AND PUSH1 0xA0 PUSH2 0x72A SWAP2 SWAP1 PUSH2 0x2229 JUMP JUMPDEST PUSH1 0x2 PUSH1 0xA DUP6 DUP8 DUP10 PUSH2 0x120 PUSH1 0x2 PUSH1 0xA PUSH1 0x0 ADD PUSH1 0x6 SWAP1 SLOAD SWAP1 PUSH2 0x100 EXP SWAP1 DIV PUSH2 0xFFFF AND PUSH1 0x20 PUSH2 0x756 SWAP2 SWAP1 PUSH2 0x2229 JUMP JUMPDEST PUSH2 0x760 SWAP2 SWAP1 PUSH2 0x2229 JUMP JUMPDEST PUSH1 0xA PUSH1 0x0 ADD PUSH1 0x6 SWAP1 SLOAD SWAP1 PUSH2 0x100 EXP SWAP1 DIV PUSH2 0xFFFF AND PUSH1 0x20 PUSH2 0x780 SWAP2 SWAP1 PUSH2 0x2229 JUMP JUMPDEST PUSH1 0x64 PUSH2 0x78C SWAP2 SWAP1 PUSH2 0x21C0 JUMP JUMPDEST PUSH2 0x796 SWAP2 SWAP1 PUSH2 0x21C0 JUMP JUMPDEST PUSH2 0x7A0 SWAP2 SWAP1 PUSH2 0x21C0 JUMP JUMPDEST PUSH2 0x7AA SWAP2 SWAP1 PUSH2 0x21C0 JUMP JUMPDEST PUSH2 0x7B4 SWAP2 SWAP1 PUSH2 0x21C0 JUMP JUMPDEST PUSH2 0x7BE SWAP2 SWAP1 PUSH2 0x21C0 JUMP JUMPDEST PUSH2 0x7C8 SWAP2 SWAP1 PUSH2 0x21C0 JUMP JUMPDEST PUSH2 0x7D2 SWAP2 SWAP1 PUSH2 0x21C0 JUMP JUMPDEST PUSH2 0x7DC SWAP2 SWAP1 PUSH2 0x21C0 JUMP JUMPDEST PUSH2 0x7E6 SWAP2 SWAP1 PUSH2 0x21C0 JUMP JUMPDEST PUSH2 0xFFFF AND SWAP1 POP DUP1 PUSH8 0xFFFFFFFFFFFFFFFF DUP2 GT ISZERO PUSH2 0x82C JUMPI PUSH32 0x4E487B7100000000000000000000000000000000000000000000000000000000 PUSH1 0x0 MSTORE PUSH1 0x41 PUSH1 0x4 MSTORE PUSH1 0x24 PUSH1 0x0 REVERT JUMPDEST PUSH1 0x40 MLOAD SWAP1 DUP1 DUP3 MSTORE DUP1 PUSH1 0x1F ADD PUSH1 0x1F NOT AND PUSH1 0x20 ADD DUP3 ADD PUSH1 0x40 MSTORE DUP1 ISZERO PUSH2 0x85E JUMPI DUP2 PUSH1 0x20 ADD PUSH1 0x1 DUP3 MUL DUP1 CALLDATASIZE DUP4 CALLDATACOPY DUP1 DUP3 ADD SWAP2 POP POP SWAP1 POP JUMPDEST POP SWAP6 POP DUP1 SWAP5 POP PUSH2 0x874 DUP2 PUSH1 0xA PUSH1 0x1 ADD SLOAD DUP9 PUSH2 0x1A4C JUMP JUMPDEST PUSH1 0x20 DUP2 PUSH2 0x881 SWAP2 SWAP1 PUSH2 0x22BF JUMP JUMPDEST SWAP1 POP PUSH2 0x893 DUP2 PUSH1 0xA PUSH1 0x2 ADD SLOAD DUP9 PUSH2 0x1A7F JUMP JUMPDEST PUSH1 0x20 DUP2 PUSH2 0x8A0 SWAP2 SWAP1 PUSH2 0x22BF JUMP JUMPDEST SWAP1 POP PUSH2 0x8B2 DUP2 PUSH1 0xA PUSH1 0x3 ADD SLOAD DUP9 PUSH2 0x1A7F JUMP JUMPDEST PUSH1 0x20 DUP2 PUSH2 0x8BF SWAP2 SWAP1 PUSH2 0x22BF JUMP JUMPDEST SWAP1 POP PUSH2 0x8D1 DUP2 PUSH1 0xA PUSH1 0x4 ADD SLOAD DUP9 PUSH2 0x1A7F JUMP JUMPDEST PUSH1 0x20 DUP2 PUSH2 0x8DE SWAP2 SWAP1 PUSH2 0x22BF JUMP JUMPDEST SWAP1 POP PUSH2 0x902 DUP2 PUSH1 0xA PUSH1 0x0 ADD PUSH1 0x0 SWAP1 SLOAD SWAP1 PUSH2 0x100 EXP SWAP1 DIV PUSH2 0xFFFF AND PUSH2 0xFFFF AND DUP9 PUSH2 0x1A7F JUMP JUMPDEST PUSH1 0x2 DUP2 PUSH2 0x90F SWAP2 SWAP1 PUSH2 0x22BF JUMP JUMPDEST SWAP1 POP PUSH2 0x933 DUP2 PUSH1 0xA PUSH1 0x0 ADD PUSH1 0x2 SWAP1 SLOAD SWAP1 PUSH2 0x100 EXP SWAP1 DIV PUSH2 0xFFFF AND PUSH2 0xFFFF AND DUP9 PUSH2 0x1A7F JUMP JUMPDEST PUSH1 0x2 DUP2 PUSH2 0x940 SWAP2 SWAP1 PUSH2 0x22BF JUMP JUMPDEST SWAP1 POP PUSH2 0x952 DUP2 PUSH1 0x10 PUSH1 0x3 ADD SLOAD DUP9 PUSH2 0x1A4C JUMP JUMPDEST PUSH1 0x20 DUP2 PUSH2 0x95F SWAP2 SWAP1 PUSH2 0x22BF JUMP JUMPDEST SWAP1 POP PUSH2 0x971 DUP2 PUSH1 0x10 PUSH1 0x4 ADD SLOAD DUP9 PUSH2 0x1A4C JUMP JUMPDEST PUSH1 0x20 DUP2 PUSH2 0x97E SWAP2 SWAP1 PUSH2 0x22BF JUMP JUMPDEST SWAP1 POP PUSH2 0x990 DUP2 PUSH1 0x10 PUSH1 0x5 ADD SLOAD DUP9 PUSH2 0x1A4C JUMP JUMPDEST PUSH1 0x20 DUP2 PUSH2 0x99D SWAP2 SWAP1 PUSH2 0x22BF JUMP JUMPDEST SWAP1 POP PUSH2 0x9AF DUP2 PUSH1 0x10 PUSH1 0x6 ADD SLOAD DUP9 PUSH2 0x1A4C JUMP JUMPDEST PUSH1 0x20 DUP2 PUSH2 0x9BC SWAP2 SWAP1 PUSH2 0x22BF JUMP JUMPDEST SWAP1 POP PUSH2 0x9CE DUP2 PUSH1 0x10 PUSH1 0x7 ADD SLOAD DUP9 PUSH2 0x1A4C JUMP JUMPDEST PUSH1 0x20 DUP2 PUSH2 0x9DB SWAP2 SWAP1 PUSH2 0x22BF JUMP JUMPDEST SWAP1 POP PUSH2 0x9ED DUP2 PUSH1 0x10 PUSH1 0x8 ADD SLOAD DUP9 PUSH2 0x1A4C JUMP JUMPDEST PUSH1 0x20 DUP2 PUSH2 0x9FA SWAP2 SWAP1 PUSH2 0x22BF JUMP JUMPDEST SWAP1 POP PUSH2 0xA0C DUP2 PUSH1 0x10 PUSH1 0x9 ADD SLOAD DUP9 PUSH2 0x1A4C JUMP JUMPDEST PUSH1 0x20 DUP2 PUSH2 0xA19 SWAP2 SWAP1 PUSH2 0x22BF JUMP JUMPDEST SWAP1 POP PUSH2 0xA2B DUP2 PUSH1 0x10 PUSH1 0xA ADD SLOAD DUP9 PUSH2 0x1A4C JUMP JUMPDEST PUSH1 0x20 DUP2 PUSH2 0xA38 SWAP2 SWAP1 PUSH2 0x22BF JUMP JUMPDEST SWAP1 POP PUSH2 0xA54 DUP2 PUSH1 0x1B PUSH1 0x0 SWAP1 SLOAD SWAP1 PUSH2 0x100 EXP SWAP1 DIV PUSH1 0xFF AND DUP9 PUSH2 0x1A89 JUMP JUMPDEST PUSH1 0x1 DUP2 PUSH2 0xA61 SWAP2 SWAP1 PUSH2 0x22BF JUMP JUMPDEST SWAP1 POP PUSH2 0xA7D DUP2 PUSH1 0x1B PUSH1 0x1 SWAP1 SLOAD SWAP1 PUSH2 0x100 EXP SWAP1 DIV PUSH1 0xFF AND DUP9 PUSH2 0x1A89 JUMP JUMPDEST PUSH1 0x1 DUP2 PUSH2 0xA8A SWAP2 SWAP1 PUSH2 0x22BF JUMP JUMPDEST SWAP1 POP PUSH2 0xA9B DUP2 DUP6 PUSH2 0xFFFF AND DUP9 PUSH2 0x1A7F JUMP JUMPDEST PUSH1 0x2 DUP2 PUSH2 0xAA8 SWAP2 SWAP1 PUSH2 0x22BF JUMP JUMPDEST SWAP1 POP PUSH2 0xB42 DUP2 PUSH1 0x10 PUSH1 0x0 ADD DUP1 SLOAD PUSH2 0xABE SWAP1 PUSH2 0x23A4 JUMP JUMPDEST DUP1 PUSH1 0x1F ADD PUSH1 0x20 DUP1 SWAP2 DIV MUL PUSH1 0x20 ADD PUSH1 0x40 MLOAD SWAP1 DUP2 ADD PUSH1 0x40 MSTORE DUP1 SWAP3 SWAP2 SWAP1 DUP2 DUP2 MSTORE PUSH1 0x20 ADD DUP3 DUP1 SLOAD PUSH2 0xAEA SWAP1 PUSH2 0x23A4 JUMP JUMPDEST DUP1 ISZERO PUSH2 0xB37 JUMPI DUP1 PUSH1 0x1F LT PUSH2 0xB0C JUMPI PUSH2 0x100 DUP1 DUP4 SLOAD DIV MUL DUP4 MSTORE SWAP2 PUSH1 0x20 ADD SWAP2 PUSH2 0xB37 JUMP JUMPDEST DUP3 ADD SWAP2 SWAP1 PUSH1 0x0 MSTORE PUSH1 0x20 PUSH1 0x0 KECCAK256 SWAP1 JUMPDEST DUP2 SLOAD DUP2 MSTORE SWAP1 PUSH1 0x1 ADD SWAP1 PUSH1 0x20 ADD DUP1 DUP4 GT PUSH2 0xB1A JUMPI DUP3 SWAP1 SUB PUSH1 0x1F AND DUP3 ADD SWAP2 JUMPDEST POP POP POP POP POP DUP9 PUSH2 0x1AAD JUMP JUMPDEST DUP4 PUSH2 0xFFFF AND DUP2 PUSH2 0xB52 SWAP2 SWAP1 PUSH2 0x22BF JUMP JUMPDEST SWAP1 POP PUSH2 0xB63 DUP2 DUP5 PUSH2 0xFFFF AND DUP9 PUSH2 0x1A7F JUMP JUMPDEST PUSH1 0x2 DUP2 PUSH2 0xB70 SWAP2 SWAP1 PUSH2 0x22BF JUMP JUMPDEST SWAP1 POP PUSH2 0xC0A DUP2 PUSH1 0x10 PUSH1 0x1 ADD DUP1 SLOAD PUSH2 0xB86 SWAP1 PUSH2 0x23A4 JUMP JUMPDEST DUP1 PUSH1 0x1F ADD PUSH1 0x20 DUP1 SWAP2 DIV MUL PUSH1 0x20 ADD PUSH1 0x40 MLOAD SWAP1 DUP2 ADD PUSH1 0x40 MSTORE DUP1 SWAP3 SWAP2 SWAP1 DUP2 DUP2 MSTORE PUSH1 0x20 ADD DUP3 DUP1 SLOAD PUSH2 0xBB2 SWAP1 PUSH2 0x23A4 JUMP JUMPDEST DUP1 ISZERO PUSH2 0xBFF JUMPI DUP1 PUSH1 0x1F LT PUSH2 0xBD4 JUMPI PUSH2 0x100 DUP1 DUP4 SLOAD DIV MUL DUP4 MSTORE SWAP2 PUSH1 0x20 ADD SWAP2 PUSH2 0xBFF JUMP JUMPDEST DUP3 ADD SWAP2 SWAP1 PUSH1 0x0 MSTORE PUSH1 0x20 PUSH1 0x0 KECCAK256 SWAP1 JUMPDEST DUP2 SLOAD DUP2 MSTORE SWAP1 PUSH1 0x1 ADD SWAP1 PUSH1 0x20 ADD DUP1 DUP4 GT PUSH2 0xBE2 JUMPI DUP3 SWAP1 SUB PUSH1 0x1F AND DUP3 ADD SWAP2 JUMPDEST POP POP POP POP POP DUP9 PUSH2 0x1AAD JUMP JUMPDEST DUP3 PUSH2 0xFFFF AND DUP2 PUSH2 0xC1A SWAP2 SWAP1 PUSH2 0x22BF JUMP JUMPDEST SWAP1 POP PUSH2 0xC2B DUP2 DUP4 PUSH2 0xFFFF AND DUP9 PUSH2 0x1A7F JUMP JUMPDEST PUSH1 0x2 DUP2 PUSH2 0xC38 SWAP2 SWAP1 PUSH2 0x22BF JUMP JUMPDEST SWAP1 POP PUSH2 0xCD2 DUP2 PUSH1 0x10 PUSH1 0x2 ADD DUP1 SLOAD PUSH2 0xC4E SWAP1 PUSH2 0x23A4 JUMP JUMPDEST DUP1 PUSH1 0x1F ADD PUSH1 0x20 DUP1 SWAP2 DIV MUL PUSH1 0x20 ADD PUSH1 0x40 MLOAD SWAP1 DUP2 ADD PUSH1 0x40 MSTORE DUP1 SWAP3 SWAP2 SWAP1 DUP2 DUP2 MSTORE PUSH1 0x20 ADD DUP3 DUP1 SLOAD PUSH2 0xC7A SWAP1 PUSH2 0x23A4 JUMP JUMPDEST DUP1 ISZERO PUSH2 0xCC7 JUMPI DUP1 PUSH1 0x1F LT PUSH2 0xC9C JUMPI PUSH2 0x100 DUP1 DUP4 SLOAD DIV MUL DUP4 MSTORE SWAP2 PUSH1 0x20 ADD SWAP2 PUSH2 0xCC7 JUMP JUMPDEST DUP3 ADD SWAP2 SWAP1 PUSH1 0x0 MSTORE PUSH1 0x20 PUSH1 0x0 KECCAK256 SWAP1 JUMPDEST DUP2 SLOAD DUP2 MSTORE SWAP1 PUSH1 0x1 ADD SWAP1 PUSH1 0x20 ADD DUP1 DUP4 GT PUSH2 0xCAA JUMPI DUP3 SWAP1 SUB PUSH1 0x1F AND DUP3 ADD SWAP2 JUMPDEST POP POP POP POP POP DUP9 PUSH2 0x1AAD JUMP JUMPDEST DUP2 PUSH2 0xFFFF AND DUP2 PUSH2 0xCE2 SWAP2 SWAP1 PUSH2 0x22BF JUMP JUMPDEST SWAP1 POP PUSH2 0xD06 DUP2 PUSH1 0xA PUSH1 0x0 ADD PUSH1 0x6 SWAP1 SLOAD SWAP1 PUSH2 0x100 EXP SWAP1 DIV PUSH2 0xFFFF AND PUSH2 0xFFFF AND DUP9 PUSH2 0x1A7F JUMP JUMPDEST PUSH1 0x2 DUP2 PUSH2 0xD13 SWAP2 SWAP1 PUSH2 0x22BF JUMP JUMPDEST SWAP1 POP PUSH1 0x0 JUMPDEST PUSH1 0xA PUSH1 0x0 ADD PUSH1 0x6 SWAP1 SLOAD SWAP1 PUSH2 0x100 EXP SWAP1 DIV PUSH2 0xFFFF AND PUSH2 0xFFFF AND DUP2 LT ISZERO PUSH2 0xE93 JUMPI PUSH2 0xD89 DUP3 PUSH1 0xA PUSH1 0x5 ADD DUP4 DUP2 SLOAD DUP2 LT PUSH2 0xD78 JUMPI PUSH32 0x4E487B7100000000000000000000000000000000000000000000000000000000 PUSH1 0x0 MSTORE PUSH1 0x32 PUSH1 0x4 MSTORE PUSH1 0x24 PUSH1 0x0 REVERT JUMPDEST SWAP1 PUSH1 0x0 MSTORE PUSH1 0x20 PUSH1 0x0 KECCAK256 ADD SLOAD DUP10 PUSH2 0x1A4C JUMP JUMPDEST PUSH1 0x20 DUP3 PUSH2 0xD96 SWAP2 SWAP1 PUSH2 0x22BF JUMP JUMPDEST SWAP2 POP PUSH2 0xDFD DUP3 PUSH1 0x7 PUSH1 0x0 PUSH1 0xA PUSH1 0x5 ADD DUP6 DUP2 SLOAD DUP2 LT PUSH2 0xDDD JUMPI PUSH32 0x4E487B7100000000000000000000000000000000000000000000000000000000 PUSH1 0x0 MSTORE PUSH1 0x32 PUSH1 0x4 MSTORE PUSH1 0x24 PUSH1 0x0 REVERT JUMPDEST SWAP1 PUSH1 0x0 MSTORE PUSH1 0x20 PUSH1 0x0 KECCAK256 ADD SLOAD DUP2 MSTORE PUSH1 0x20 ADD SWAP1 DUP2 MSTORE PUSH1 0x20 ADD PUSH1 0x0 KECCAK256 SLOAD DUP10 PUSH2 0x1A4C JUMP JUMPDEST PUSH1 0x20 DUP3 PUSH2 0xE0A SWAP2 SWAP1 PUSH2 0x22BF JUMP JUMPDEST SWAP2 POP PUSH2 0xE71 DUP3 PUSH1 0x8 PUSH1 0x0 PUSH1 0xA PUSH1 0x5 ADD DUP6 DUP2 SLOAD DUP2 LT PUSH2 0xE51 JUMPI PUSH32 0x4E487B7100000000000000000000000000000000000000000000000000000000 PUSH1 0x0 MSTORE PUSH1 0x32 PUSH1 0x4 MSTORE PUSH1 0x24 PUSH1 0x0 REVERT JUMPDEST SWAP1 PUSH1 0x0 MSTORE PUSH1 0x20 PUSH1 0x0 KECCAK256 ADD SLOAD DUP2 MSTORE PUSH1 0x20 ADD SWAP1 DUP2 MSTORE PUSH1 0x20 ADD PUSH1 0x0 KECCAK256 SLOAD DUP10 PUSH2 0x1A7F JUMP JUMPDEST PUSH1 0x20 DUP3 PUSH2 0xE7E SWAP2 SWAP1 PUSH2 0x22BF JUMP JUMPDEST SWAP2 POP DUP1 DUP1 PUSH2 0xE8B SWAP1 PUSH2 0x2401 JUMP JUMPDEST SWAP2 POP POP PUSH2 0xD18 JUMP JUMPDEST POP PUSH2 0xEB6 DUP2 PUSH1 0xA PUSH1 0x0 ADD PUSH1 0x4 SWAP1 SLOAD SWAP1 PUSH2 0x100 EXP SWAP1 DIV PUSH2 0xFFFF AND PUSH2 0xFFFF AND DUP9 PUSH2 0x1A7F JUMP JUMPDEST PUSH1 0x20 DUP2 PUSH2 0xEC3 SWAP2 SWAP1 PUSH2 0x22BF JUMP JUMPDEST SWAP1 POP PUSH1 0x0 DUP1 PUSH1 0x0 DUP1 PUSH1 0x0 DUP1 PUSH1 0x0 SWAP1 POP JUMPDEST PUSH1 0xA PUSH1 0x0 ADD PUSH1 0x6 SWAP1 SLOAD SWAP1 PUSH2 0x100 EXP SWAP1 DIV PUSH2 0xFFFF AND PUSH2 0xFFFF AND DUP2 LT ISZERO PUSH2 0x1184 JUMPI PUSH1 0x0 JUMPDEST PUSH1 0x3 PUSH1 0x0 PUSH1 0xA PUSH1 0x5 ADD DUP5 DUP2 SLOAD DUP2 LT PUSH2 0xF36 JUMPI PUSH32 0x4E487B7100000000000000000000000000000000000000000000000000000000 PUSH1 0x0 MSTORE PUSH1 0x32 PUSH1 0x4 MSTORE PUSH1 0x24 PUSH1 0x0 REVERT JUMPDEST SWAP1 PUSH1 0x0 MSTORE PUSH1 0x20 PUSH1 0x0 KECCAK256 ADD SLOAD DUP2 MSTORE PUSH1 0x20 ADD SWAP1 DUP2 MSTORE PUSH1 0x20 ADD PUSH1 0x0 KECCAK256 DUP1 SLOAD SWAP1 POP DUP2 LT ISZERO PUSH2 0x1170 JUMPI PUSH1 0x5 PUSH1 0x0 PUSH1 0x3 PUSH1 0x0 PUSH1 0xA PUSH1 0x5 ADD DUP7 DUP2 SLOAD DUP2 LT PUSH2 0xF9F JUMPI PUSH32 0x4E487B7100000000000000000000000000000000000000000000000000000000 PUSH1 0x0 MSTORE PUSH1 0x32 PUSH1 0x4 MSTORE PUSH1 0x24 PUSH1 0x0 REVERT JUMPDEST SWAP1 PUSH1 0x0 MSTORE PUSH1 0x20 PUSH1 0x0 KECCAK256 ADD SLOAD DUP2 MSTORE PUSH1 0x20 ADD SWAP1 DUP2 MSTORE PUSH1 0x20 ADD PUSH1 0x0 KECCAK256 DUP4 DUP2 SLOAD DUP2 LT PUSH2 0xFF0 JUMPI PUSH32 0x4E487B7100000000000000000000000000000000000000000000000000000000 PUSH1 0x0 MSTORE PUSH1 0x32 PUSH1 0x4 MSTORE PUSH1 0x24 PUSH1 0x0 REVERT JUMPDEST SWAP1 PUSH1 0x0 MSTORE PUSH1 0x20 PUSH1 0x0 KECCAK256 ADD SLOAD DUP2 MSTORE PUSH1 0x20 ADD SWAP1 DUP2 MSTORE PUSH1 0x20 ADD PUSH1 0x0 KECCAK256 PUSH1 0x0 SWAP1 SLOAD SWAP1 PUSH2 0x100 EXP SWAP1 DIV PUSH1 0xFF AND PUSH2 0x1020 JUMPI PUSH2 0x115D JUMP JUMPDEST PUSH2 0x10C5 PUSH1 0x3 PUSH1 0x0 PUSH1 0xA PUSH1 0x5 ADD DUP6 DUP2 SLOAD DUP2 LT PUSH2 0x1064 JUMPI PUSH32 0x4E487B7100000000000000000000000000000000000000000000000000000000 PUSH1 0x0 MSTORE PUSH1 0x32 PUSH1 0x4 MSTORE PUSH1 0x24 PUSH1 0x0 REVERT JUMPDEST SWAP1 PUSH1 0x0 MSTORE PUSH1 0x20 PUSH1 0x0 KECCAK256 ADD SLOAD DUP2 MSTORE PUSH1 0x20 ADD SWAP1 DUP2 MSTORE PUSH1 0x20 ADD PUSH1 0x0 KECCAK256 DUP3 DUP2 SLOAD DUP2 LT PUSH2 0x10B5 JUMPI PUSH32 0x4E487B7100000000000000000000000000000000000000000000000000000000 PUSH1 0x0 MSTORE PUSH1 0x32 PUSH1 0x4 MSTORE PUSH1 0x24 PUSH1 0x0 REVERT JUMPDEST SWAP1 PUSH1 0x0 MSTORE PUSH1 0x20 PUSH1 0x0 KECCAK256 ADD SLOAD PUSH2 0x2C1 JUMP JUMPDEST POP DUP1 SWAP8 POP DUP2 SWAP9 POP DUP3 SWAP10 POP DUP4 SWAP11 POP DUP5 SWAP12 POP POP POP POP POP POP PUSH2 0x10E5 DUP9 DUP5 DUP16 PUSH2 0x1A4C JUMP JUMPDEST PUSH1 0x20 DUP9 PUSH2 0x10F2 SWAP2 SWAP1 PUSH2 0x22BF JUMP JUMPDEST SWAP8 POP PUSH2 0x10FF DUP9 DUP6 DUP16 PUSH2 0x1A7F JUMP JUMPDEST PUSH1 0x20 DUP9 PUSH2 0x110C SWAP2 SWAP1 PUSH2 0x22BF JUMP JUMPDEST SWAP8 POP PUSH2 0x1119 DUP9 DUP7 DUP16 PUSH2 0x1A7F JUMP JUMPDEST PUSH1 0x20 DUP9 PUSH2 0x1126 SWAP2 SWAP1 PUSH2 0x22BF JUMP JUMPDEST SWAP8 POP PUSH2 0x1133 DUP9 DUP8 DUP16 PUSH2 0x1A4C JUMP JUMPDEST PUSH1 0x20 DUP9 PUSH2 0x1140 SWAP2 SWAP1 PUSH2 0x22BF JUMP JUMPDEST SWAP8 POP PUSH2 0x114D DUP9 DUP9 DUP16 PUSH2 0x1A4C JUMP JUMPDEST PUSH1 0x20 DUP9 PUSH2 0x115A SWAP2 SWAP1 PUSH2 0x22BF JUMP JUMPDEST SWAP8 POP JUMPDEST DUP1 DUP1 PUSH2 0x1168 SWAP1 PUSH2 0x2401 JUMP JUMPDEST SWAP2 POP POP PUSH2 0xEF5 JUMP JUMPDEST POP DUP1 DUP1 PUSH2 0x117C SWAP1 PUSH2 0x2401 JUMP JUMPDEST SWAP2 POP POP PUSH2 0xED3 JUMP JUMPDEST POP POP POP POP POP POP POP POP POP POP SWAP1 SWAP2 JUMP JUMPDEST PUSH1 0x1 PUSH1 0x14 SWAP1 SLOAD SWAP1 PUSH2 0x100 EXP SWAP1 DIV PUSH1 0xFF AND ISZERO PUSH2 0x11AC JUMPI PUSH1 0x0 DUP1 REVERT JUMPDEST PUSH1 0x1 DUP1 PUSH1 0x14 PUSH2 0x100 EXP DUP2 SLOAD DUP2 PUSH1 0xFF MUL NOT AND SWAP1 DUP4 ISZERO ISZERO MUL OR SWAP1 SSTORE POP DUP1 PUSH1 0x1 PUSH1 0x0 PUSH2 0x100 EXP DUP2 SLOAD DUP2 PUSH20 0xFFFFFFFFFFFFFFFFFFFFFFFFFFFFFFFFFFFFFFFF MUL NOT AND SWAP1 DUP4 PUSH20 0xFFFFFFFFFFFFFFFFFFFFFFFFFFFFFFFFFFFFFFFF AND MUL OR SWAP1 SSTORE POP POP JUMP JUMPDEST PUSH1 0x4 PUSH1 0x0 DUP6 DUP2 MSTORE PUSH1 0x20 ADD SWAP1 DUP2 MSTORE PUSH1 0x20 ADD PUSH1 0x0 KECCAK256 PUSH1 0x0 SWAP1 SLOAD SWAP1 PUSH2 0x100 EXP SWAP1 DIV PUSH1 0xFF AND PUSH2 0x126A JUMPI PUSH1 0x40 MLOAD PUSH32 0x8C379A000000000000000000000000000000000000000000000000000000000 DUP2 MSTORE PUSH1 0x4 ADD PUSH2 0x1261 SWAP1 PUSH2 0x206F JUMP JUMPDEST PUSH1 0x40 MLOAD DUP1 SWAP2 SUB SWAP1 REVERT JUMPDEST PUSH1 0x5 PUSH1 0x0 DUP5 DUP2 MSTORE PUSH1 0x20 ADD SWAP1 DUP2 MSTORE PUSH1 0x20 ADD PUSH1 0x0 KECCAK256 PUSH1 0x0 SWAP1 SLOAD SWAP1 PUSH2 0x100 EXP SWAP1 DIV PUSH1 0xFF AND ISZERO PUSH2 0x12CB JUMPI PUSH1 0x40 MLOAD PUSH32 0x8C379A000000000000000000000000000000000000000000000000000000000 DUP2 MSTORE PUSH1 0x4 ADD PUSH2 0x12C2 SWAP1 PUSH2 0x208F JUMP JUMPDEST PUSH1 0x40 MLOAD DUP1 SWAP2 SUB SWAP1 REVERT JUMPDEST PUSH1 0x3 PUSH1 0x0 DUP6 DUP2 MSTORE PUSH1 0x20 ADD SWAP1 DUP2 MSTORE PUSH1 0x20 ADD PUSH1 0x0 KECCAK256 DUP4 SWAP1 DUP1 PUSH1 0x1 DUP2 SLOAD ADD DUP1 DUP3 SSTORE DUP1 SWAP2 POP POP PUSH1 0x1 SWAP1 SUB SWAP1 PUSH1 0x0 MSTORE PUSH1 0x20 PUSH1 0x0 KECCAK256 ADD PUSH1 0x0 SWAP1 SWAP2 SWAP1 SWAP2 SWAP1 SWAP2 POP SSTORE PUSH1 0x3 PUSH1 0x0 DUP6 DUP2 MSTORE PUSH1 0x20 ADD SWAP1 DUP2 MSTORE PUSH1 0x20 ADD PUSH1 0x0 KECCAK256 DUP1 SLOAD SWAP1 POP PUSH1 0x2 PUSH1 0x0 DUP6 DUP2 MSTORE PUSH1 0x20 ADD SWAP1 DUP2 MSTORE PUSH1 0x20 ADD PUSH1 0x0 KECCAK256 DUP2 SWAP1 SSTORE POP DUP4 PUSH1 0x6 PUSH1 0x0 DUP6 DUP2 MSTORE PUSH1 0x20 ADD SWAP1 DUP2 MSTORE PUSH1 0x20 ADD PUSH1 0x0 KECCAK256 DUP2 SWAP1 SSTORE POP PUSH1 0x40 MLOAD DUP1 PUSH1 0xC0 ADD PUSH1 0x40 MSTORE DUP1 PUSH32 0x554E444546494E45440000000000000000000000000000000000000000000000 DUP2 MSTORE PUSH1 0x20 ADD DUP5 DUP2 MSTORE PUSH1 0x20 ADD DUP6 DUP2 MSTORE PUSH1 0x20 ADD DUP4 DUP2 MSTORE PUSH1 0x20 ADD PUSH1 0x0 DUP2 MSTORE PUSH1 0x20 ADD DUP3 PUSH20 0xFFFFFFFFFFFFFFFFFFFFFFFFFFFFFFFFFFFFFFFF AND DUP2 MSTORE POP PUSH1 0x9 PUSH1 0x0 DUP6 DUP2 MSTORE PUSH1 0x20 ADD SWAP1 DUP2 MSTORE PUSH1 0x20 ADD PUSH1 0x0 KECCAK256 PUSH1 0x0 DUP3 ADD MLOAD DUP2 PUSH1 0x0 ADD SSTORE PUSH1 0x20 DUP3 ADD MLOAD DUP2 PUSH1 0x1 ADD SSTORE PUSH1 0x40 DUP3 ADD MLOAD DUP2 PUSH1 0x2 ADD SSTORE PUSH1 0x60 DUP3 ADD MLOAD DUP2 PUSH1 0x3 ADD SSTORE PUSH1 0x80 DUP3 ADD MLOAD DUP2 PUSH1 0x4 ADD SSTORE PUSH1 0xA0 DUP3 ADD MLOAD DUP2 PUSH1 0x5 ADD PUSH1 0x0 PUSH2 0x100 EXP DUP2 SLOAD DUP2 PUSH20 0xFFFFFFFFFFFFFFFFFFFFFFFFFFFFFFFFFFFFFFFF MUL NOT AND SWAP1 DUP4 PUSH20 0xFFFFFFFFFFFFFFFFFFFFFFFFFFFFFFFFFFFFFFFF AND MUL OR SWAP1 SSTORE POP SWAP1 POP POP PUSH1 0x1 PUSH1 0x5 PUSH1 0x0 DUP6 DUP2 MSTORE PUSH1 0x20 ADD SWAP1 DUP2 MSTORE PUSH1 0x20 ADD PUSH1 0x0 KECCAK256 PUSH1 0x0 PUSH2 0x100 EXP DUP2 SLOAD DUP2 PUSH1 0xFF MUL NOT AND SWAP1 DUP4 ISZERO ISZERO MUL OR SWAP1 SSTORE POP PUSH1 0xA PUSH1 0x0 ADD PUSH1 0x4 DUP2 DUP2 SWAP1 SLOAD SWAP1 PUSH2 0x100 EXP SWAP1 DIV PUSH2 0xFFFF AND DUP1 SWAP3 SWAP2 SWAP1 PUSH2 0x148D SWAP1 PUSH2 0x23D6 JUMP JUMPDEST SWAP2 SWAP1 PUSH2 0x100 EXP DUP2 SLOAD DUP2 PUSH2 0xFFFF MUL NOT AND SWAP1 DUP4 PUSH2 0xFFFF AND MUL OR SWAP1 SSTORE POP POP POP POP POP POP JUMP JUMPDEST PUSH1 0x0 PUSH2 0x14B8 PUSH2 0x266 JUMP JUMPDEST SWAP1 POP PUSH1 0x1B PUSH1 0x0 SWAP1 SLOAD SWAP1 PUSH2 0x100 EXP SWAP1 DIV PUSH1 0xFF AND DUP1 ISZERO PUSH2 0x14E3 JUMPI POP PUSH1 0x1B PUSH1 0x1 SWAP1 SLOAD SWAP1 PUSH2 0x100 EXP SWAP1 DIV PUSH1 0xFF AND ISZERO JUMPDEST ISZERO PUSH2 0x1557 JUMPI PUSH32 0xC21406CEC27A5DE1D115183251BADA5C5F0E35357C60573DEEEF8DDE88455FB9 DUP2 PUSH1 0x10 PUSH1 0x3 ADD SLOAD PUSH1 0x10 PUSH1 0xA ADD SLOAD PUSH1 0xA PUSH1 0x1 ADD SLOAD PUSH1 0x40 MLOAD PUSH2 0x152C SWAP5 SWAP4 SWAP3 SWAP2 SWAP1 PUSH2 0x210A JUMP JUMPDEST PUSH1 0x40 MLOAD DUP1 SWAP2 SUB SWAP1 LOG1 PUSH1 0x1 PUSH1 0x1B PUSH1 0x1 PUSH2 0x100 EXP DUP2 SLOAD DUP2 PUSH1 0xFF MUL NOT AND SWAP1 DUP4 ISZERO ISZERO MUL OR SWAP1 SSTORE POP TIMESTAMP PUSH1 0x1C DUP2 SWAP1 SSTORE POP JUMPDEST POP JUMP JUMPDEST PUSH1 0x0 PUSH1 0xA PUSH1 0x1 ADD SLOAD SWAP1 POP SWAP1 JUMP JUMPDEST PUSH1 0x0 PUSH1 0x5 PUSH1 0x0 DUP4 DUP2 MSTORE PUSH1 0x20 ADD SWAP1 DUP2 MSTORE PUSH1 0x20 ADD PUSH1 0x0 KECCAK256 PUSH1 0x0 SWAP1 SLOAD SWAP1 PUSH2 0x100 EXP SWAP1 DIV PUSH1 0xFF AND PUSH2 0x15C9 JUMPI PUSH1 0x40 MLOAD PUSH32 0x8C379A000000000000000000000000000000000000000000000000000000000 DUP2 MSTORE PUSH1 0x4 ADD PUSH2 0x15C0 SWAP1 PUSH2 0x20CF JUMP JUMPDEST PUSH1 0x40 MLOAD DUP1 SWAP2 SUB SWAP1 REVERT JUMPDEST PUSH1 0x0 PUSH1 0x9 PUSH1 0x0 DUP5 DUP2 MSTORE PUSH1 0x20 ADD SWAP1 DUP2 MSTORE PUSH1 0x20 ADD PUSH1 0x0 KECCAK256 PUSH1 0x5 ADD PUSH1 0x0 SWAP1 SLOAD SWAP1 PUSH2 0x100 EXP SWAP1 DIV PUSH20 0xFFFFFFFFFFFFFFFFFFFFFFFFFFFFFFFFFFFFFFFF AND SWAP1 POP PUSH1 0x0 PUSH1 0x5 PUSH1 0x0 DUP6 DUP2 MSTORE PUSH1 0x20 ADD SWAP1 DUP2 MSTORE PUSH1 0x20 ADD PUSH1 0x0 KECCAK256 PUSH1 0x0 PUSH2 0x100 EXP DUP2 SLOAD DUP2 PUSH1 0xFF MUL NOT AND SWAP1 DUP4 ISZERO ISZERO MUL OR SWAP1 SSTORE POP PUSH1 0xA PUSH1 0x0 ADD PUSH1 0x4 DUP2 DUP2 SWAP1 SLOAD SWAP1 PUSH2 0x100 EXP SWAP1 DIV PUSH2 0xFFFF AND DUP1 SWAP3 SWAP2 SWAP1 PUSH2 0x1653 SWAP1 PUSH2 0x237A JUMP JUMPDEST SWAP2 SWAP1 PUSH2 0x100 EXP DUP2 SLOAD DUP2 PUSH2 0xFFFF MUL NOT AND SWAP1 DUP4 PUSH2 0xFFFF AND MUL OR SWAP1 SSTORE POP POP DUP1 SWAP2 POP POP SWAP2 SWAP1 POP JUMP JUMPDEST PUSH1 0x0 DUP1 PUSH1 0x0 DUP1 PUSH1 0x0 DUP1 PUSH1 0x60 PUSH1 0xA PUSH1 0x1 ADD SLOAD PUSH1 0xA PUSH1 0x0 ADD PUSH1 0x0 SWAP1 SLOAD SWAP1 PUSH2 0x100 EXP SWAP1 DIV PUSH2 0xFFFF AND PUSH1 0xA PUSH1 0x0 ADD PUSH1 0x2 SWAP1 SLOAD SWAP1 PUSH2 0x100 EXP SWAP1 DIV PUSH2 0xFFFF AND PUSH1 0xA PUSH1 0x0 ADD PUSH1 0x6 SWAP1 SLOAD SWAP1 PUSH2 0x100 EXP SWAP1 DIV PUSH2 0xFFFF AND PUSH1 0xA PUSH1 0x2 ADD SLOAD PUSH1 0xA PUSH1 0x3 ADD SLOAD PUSH1 0xA PUSH1 0x5 ADD DUP1 DUP1 SLOAD DUP1 PUSH1 0x20 MUL PUSH1 0x20 ADD PUSH1 0x40 MLOAD SWAP1 DUP2 ADD PUSH1 0x40 MSTORE DUP1 SWAP3 SWAP2 SWAP1 DUP2 DUP2 MSTORE PUSH1 0x20 ADD DUP3 DUP1 SLOAD DUP1 ISZERO PUSH2 0x1720 JUMPI PUSH1 0x20 MUL DUP3 ADD SWAP2 SWAP1 PUSH1 0x0 MSTORE PUSH1 0x20 PUSH1 0x0 KECCAK256 SWAP1 JUMPDEST DUP2 SLOAD DUP2 MSTORE PUSH1 0x20 ADD SWAP1 PUSH1 0x1 ADD SWAP1 DUP1 DUP4 GT PUSH2 0x170C JUMPI JUMPDEST POP POP POP POP POP SWAP1 POP SWAP7 POP SWAP7 POP SWAP7 POP SWAP7 POP SWAP7 POP SWAP7 POP SWAP7 POP SWAP1 SWAP2 SWAP3 SWAP4 SWAP5 SWAP6 SWAP7 JUMP JUMPDEST PUSH1 0x0 DUP1 SLOAD SWAP1 PUSH2 0x100 EXP SWAP1 DIV PUSH20 0xFFFFFFFFFFFFFFFFFFFFFFFFFFFFFFFFFFFFFFFF AND PUSH20 0xFFFFFFFFFFFFFFFFFFFFFFFFFFFFFFFFFFFFFFFF AND CALLER PUSH20 0xFFFFFFFFFFFFFFFFFFFFFFFFFFFFFFFFFFFFFFFF AND EQ PUSH2 0x1796 JUMPI PUSH1 0x0 DUP1 REVERT JUMPDEST PUSH1 0x0 DUP1 SLOAD SWAP1 PUSH2 0x100 EXP SWAP1 DIV PUSH20 0xFFFFFFFFFFFFFFFFFFFFFFFFFFFFFFFFFFFFFFFF AND PUSH20 0xFFFFFFFFFFFFFFFFFFFFFFFFFFFFFFFFFFFFFFFF AND SELFDESTRUCT JUMPDEST PUSH1 0x0 DUP1 PUSH1 0x60 DUP1 PUSH1 0x0 DUP1 PUSH1 0x0 DUP1 PUSH1 0x0 PUSH1 0x60 PUSH1 0x0 PUSH1 0x10 PUSH1 0x3 ADD SLOAD PUSH1 0x10 PUSH1 0x4 ADD SLOAD PUSH1 0x10 PUSH1 0x0 ADD PUSH1 0x10 PUSH1 0x1 ADD PUSH1 0x10 PUSH1 0x5 ADD SLOAD PUSH1 0x10 PUSH1 0x6 ADD SLOAD PUSH1 0x10 PUSH1 0x7 ADD SLOAD PUSH1 0x10 PUSH1 0x8 ADD SLOAD PUSH1 0x10 PUSH1 0x9 ADD SLOAD PUSH1 0x10 PUSH1 0x2 ADD PUSH1 0x10 PUSH1 0xA ADD SLOAD DUP9 DUP1 SLOAD PUSH2 0x182C SWAP1 PUSH2 0x23A4 JUMP JUMPDEST DUP1 PUSH1 0x1F ADD PUSH1 0x20 DUP1 SWAP2 DIV MUL PUSH1 0x20 ADD PUSH1 0x40 MLOAD SWAP1 DUP2 ADD PUSH1 0x40 MSTORE DUP1 SWAP3 SWAP2 SWAP1 DUP2 DUP2 MSTORE PUSH1 0x20 ADD DUP3 DUP1 SLOAD PUSH2 0x1858 SWAP1 PUSH2 0x23A4 JUMP JUMPDEST DUP1 ISZERO PUSH2 0x18A5 JUMPI DUP1 PUSH1 0x1F LT PUSH2 0x187A JUMPI PUSH2 0x100 DUP1 DUP4 SLOAD DIV MUL DUP4 MSTORE SWAP2 PUSH1 0x20 ADD SWAP2 PUSH2 0x18A5 JUMP JUMPDEST DUP3 ADD SWAP2 SWAP1 PUSH1 0x0 MSTORE PUSH1 0x20 PUSH1 0x0 KECCAK256 SWAP1 JUMPDEST DUP2 SLOAD DUP2 MSTORE SWAP1 PUSH1 0x1 ADD SWAP1 PUSH1 0x20 ADD DUP1 DUP4 GT PUSH2 0x1888 JUMPI DUP3 SWAP1 SUB PUSH1 0x1F AND DUP3 ADD SWAP2 JUMPDEST POP POP POP POP POP SWAP9 POP DUP8 DUP1 SLOAD PUSH2 0x18B8 SWAP1 PUSH2 0x23A4 JUMP JUMPDEST DUP1 PUSH1 0x1F ADD PUSH1 0x20 DUP1 SWAP2 DIV MUL PUSH1 0x20 ADD PUSH1 0x40 MLOAD SWAP1 DUP2 ADD PUSH1 0x40 MSTORE DUP1 SWAP3 SWAP2 SWAP1 DUP2 DUP2 MSTORE PUSH1 0x20 ADD DUP3 DUP1 SLOAD PUSH2 0x18E4 SWAP1 PUSH2 0x23A4 JUMP JUMPDEST DUP1 ISZERO PUSH2 0x1931 JUMPI DUP1 PUSH1 0x1F LT PUSH2 0x1906 JUMPI PUSH2 0x100 DUP1 DUP4 SLOAD DIV MUL DUP4 MSTORE SWAP2 PUSH1 0x20 ADD SWAP2 PUSH2 0x1931 JUMP JUMPDEST DUP3 ADD SWAP2 SWAP1 PUSH1 0x0 MSTORE PUSH1 0x20 PUSH1 0x0 KECCAK256 SWAP1 JUMPDEST DUP2 SLOAD DUP2 MSTORE SWAP1 PUSH1 0x1 ADD SWAP1 PUSH1 0x20 ADD DUP1 DUP4 GT PUSH2 0x1914 JUMPI DUP3 SWAP1 SUB PUSH1 0x1F AND DUP3 ADD SWAP2 JUMPDEST POP POP POP POP POP SWAP8 POP DUP2 DUP1 SLOAD PUSH2 0x1944 SWAP1 PUSH2 0x23A4 JUMP JUMPDEST DUP1 PUSH1 0x1F ADD PUSH1 0x20 DUP1 SWAP2 DIV MUL PUSH1 0x20 ADD PUSH1 0x40 MLOAD SWAP1 DUP2 ADD PUSH1 0x40 MSTORE DUP1 SWAP3 SWAP2 SWAP1 DUP2 DUP2 MSTORE PUSH1 0x20 ADD DUP3 DUP1 SLOAD PUSH2 0x1970 SWAP1 PUSH2 0x23A4 JUMP JUMPDEST DUP1 ISZERO PUSH2 0x19BD JUMPI DUP1 PUSH1 0x1F LT PUSH2 0x1992 JUMPI PUSH2 0x100 DUP1 DUP4 SLOAD DIV MUL DUP4 MSTORE SWAP2 PUSH1 0x20 ADD SWAP2 PUSH2 0x19BD JUMP JUMPDEST DUP3 ADD SWAP2 SWAP1 PUSH1 0x0 MSTORE PUSH1 0x20 PUSH1 0x0 KECCAK256 SWAP1 JUMPDEST DUP2 SLOAD DUP2 MSTORE SWAP1 PUSH1 0x1 ADD SWAP1 PUSH1 0x20 ADD DUP1 DUP4 GT PUSH2 0x19A0 JUMPI DUP3 SWAP1 SUB PUSH1 0x1F AND DUP3 ADD SWAP2 JUMPDEST POP POP POP POP POP SWAP2 POP SWAP11 POP SWAP11 POP SWAP11 POP SWAP11 POP SWAP11 POP SWAP11 POP SWAP11 POP SWAP11 POP SWAP11 POP SWAP11 POP SWAP11 POP SWAP1 SWAP2 SWAP3 SWAP4 SWAP5 SWAP6 SWAP7 SWAP8 SWAP9 SWAP10 SWAP11 JUMP JUMPDEST PUSH1 0x0 PUSH1 0x10 PUSH1 0x3 ADD SLOAD SWAP1 POP SWAP1 JUMP JUMPDEST PUSH1 0x0 PUSH1 0x20 DUP3 MLOAD PUSH2 0x1A04 SWAP2 SWAP1 PUSH2 0x21F8 JUMP JUMPDEST SWAP1 POP PUSH1 0x0 PUSH1 0x20 DUP4 MLOAD PUSH2 0x1A16 SWAP2 SWAP1 PUSH2 0x2454 JUMP JUMPDEST EQ PUSH2 0x1A2A JUMPI DUP1 DUP1 PUSH2 0x1A26 SWAP1 PUSH2 0x2401 JUMP JUMPDEST SWAP2 POP POP JUMPDEST DUP1 DUP1 PUSH2 0x1A35 SWAP1 PUSH2 0x2401 JUMP JUMPDEST SWAP2 POP POP PUSH1 0x20 DUP2 PUSH2 0x1A45 SWAP2 SWAP1 PUSH2 0x2265 JUMP JUMPDEST SWAP1 POP SWAP2 SWAP1 POP JUMP JUMPDEST PUSH1 0x0 DUP3 PUSH1 0x40 MLOAD PUSH1 0x20 ADD PUSH2 0x1A5F SWAP2 SWAP1 PUSH2 0x1E2E JUMP JUMPDEST PUSH1 0x40 MLOAD PUSH1 0x20 DUP2 DUP4 SUB SUB DUP2 MSTORE SWAP1 PUSH1 0x40 MSTORE SWAP1 POP PUSH1 0x20 DUP2 ADD MLOAD DUP5 DUP4 ADD MSTORE POP POP POP POP JUMP JUMPDEST DUP2 DUP4 DUP3 ADD MSTORE POP POP POP JUMP JUMPDEST PUSH1 0x0 DUP1 ISZERO ISZERO DUP4 ISZERO ISZERO EQ PUSH2 0x1A9D JUMPI PUSH1 0x1 PUSH2 0x1AA0 JUMP JUMPDEST PUSH1 0x0 JUMPDEST SWAP1 POP DUP1 DUP5 DUP4 ADD MSTORE POP POP POP POP JUMP JUMPDEST PUSH1 0x0 PUSH1 0x20 DUP4 MLOAD PUSH2 0x1ABD SWAP2 SWAP1 PUSH2 0x21F8 JUMP JUMPDEST SWAP1 POP PUSH1 0x0 PUSH1 0x20 DUP5 MLOAD PUSH2 0x1ACF SWAP2 SWAP1 PUSH2 0x2454 JUMP JUMPDEST GT ISZERO PUSH2 0x1AE4 JUMPI DUP1 DUP1 PUSH2 0x1AE0 SWAP1 PUSH2 0x2401 JUMP JUMPDEST SWAP2 POP POP JUMPDEST DUP1 DUP1 PUSH2 0x1AEF SWAP1 PUSH2 0x2401 JUMP JUMPDEST SWAP2 POP POP PUSH1 0x0 JUMPDEST DUP2 DUP2 LT ISZERO PUSH2 0x1B21 JUMPI PUSH1 0x20 DUP2 MUL DUP5 ADD MLOAD DUP6 DUP5 ADD MSTORE PUSH1 0x20 DUP6 SUB SWAP5 POP DUP1 DUP1 PUSH2 0x1B19 SWAP1 PUSH2 0x2401 JUMP JUMPDEST SWAP2 POP POP PUSH2 0x1AF5 JUMP JUMPDEST POP POP POP POP POP JUMP JUMPDEST PUSH1 0x0 DUP2 CALLDATALOAD SWAP1 POP PUSH2 0x1B37 DUP2 PUSH2 0x25ED JUMP JUMPDEST SWAP3 SWAP2 POP POP JUMP JUMPDEST PUSH1 0x0 DUP2 CALLDATALOAD SWAP1 POP PUSH2 0x1B4C DUP2 PUSH2 0x2604 JUMP JUMPDEST SWAP3 SWAP2 POP POP JUMP JUMPDEST PUSH1 0x0 DUP2 CALLDATALOAD SWAP1 POP PUSH2 0x1B61 DUP2 PUSH2 0x261B JUMP JUMPDEST SWAP3 SWAP2 POP POP JUMP JUMPDEST PUSH1 0x0 PUSH1 0x20 DUP3 DUP5 SUB SLT ISZERO PUSH2 0x1B79 JUMPI PUSH1 0x0 DUP1 REVERT JUMPDEST PUSH1 0x0 PUSH2 0x1B87 DUP5 DUP3 DUP6 ADD PUSH2 0x1B28 JUMP JUMPDEST SWAP2 POP POP SWAP3 SWAP2 POP POP JUMP JUMPDEST PUSH1 0x0 PUSH1 0x20 DUP3 DUP5 SUB SLT ISZERO PUSH2 0x1BA2 JUMPI PUSH1 0x0 DUP1 REVERT JUMPDEST PUSH1 0x0 PUSH2 0x1BB0 DUP5 DUP3 DUP6 ADD PUSH2 0x1B3D JUMP JUMPDEST SWAP2 POP POP SWAP3 SWAP2 POP POP JUMP JUMPDEST PUSH1 0x0 DUP1 PUSH1 0x40 DUP4 DUP6 SUB SLT ISZERO PUSH2 0x1BCC JUMPI PUSH1 0x0 DUP1 REVERT JUMPDEST PUSH1 0x0 PUSH2 0x1BDA DUP6 DUP3 DUP7 ADD PUSH2 0x1B3D JUMP JUMPDEST SWAP3 POP POP PUSH1 0x20 PUSH2 0x1BEB DUP6 DUP3 DUP7 ADD PUSH2 0x1B3D JUMP JUMPDEST SWAP2 POP POP SWAP3 POP SWAP3 SWAP1 POP JUMP JUMPDEST PUSH1 0x0 DUP1 PUSH1 0x0 DUP1 PUSH1 0x80 DUP6 DUP8 SUB SLT ISZERO PUSH2 0x1C0B JUMPI PUSH1 0x0 DUP1 REVERT JUMPDEST PUSH1 0x0 PUSH2 0x1C19 DUP8 DUP3 DUP9 ADD PUSH2 0x1B3D JUMP JUMPDEST SWAP5 POP POP PUSH1 0x20 PUSH2 0x1C2A DUP8 DUP3 DUP9 ADD PUSH2 0x1B3D JUMP JUMPDEST SWAP4 POP POP PUSH1 0x40 PUSH2 0x1C3B DUP8 DUP3 DUP9 ADD PUSH2 0x1B52 JUMP JUMPDEST SWAP3 POP POP PUSH1 0x60 PUSH2 0x1C4C DUP8 DUP3 DUP9 ADD PUSH2 0x1B28 JUMP JUMPDEST SWAP2 POP POP SWAP3 SWAP6 SWAP2 SWAP5 POP SWAP3 POP JUMP JUMPDEST PUSH1 0x0 PUSH2 0x1C64 DUP4 DUP4 PUSH2 0x1CDD JUMP JUMPDEST PUSH1 0x20 DUP4 ADD SWAP1 POP SWAP3 SWAP2 POP POP JUMP JUMPDEST PUSH2 0x1C79 DUP2 PUSH2 0x22F3 JUMP JUMPDEST DUP3 MSTORE POP POP JUMP JUMPDEST PUSH1 0x0 PUSH2 0x1C8A DUP3 PUSH2 0x215F JUMP JUMPDEST PUSH2 0x1C94 DUP2 DUP6 PUSH2 0x218D JUMP JUMPDEST SWAP4 POP PUSH2 0x1C9F DUP4 PUSH2 0x214F JUMP JUMPDEST DUP1 PUSH1 0x0 JUMPDEST DUP4 DUP2 LT ISZERO PUSH2 0x1CD0 JUMPI DUP2 MLOAD PUSH2 0x1CB7 DUP9 DUP3 PUSH2 0x1C58 JUMP JUMPDEST SWAP8 POP PUSH2 0x1CC2 DUP4 PUSH2 0x2180 JUMP JUMPDEST SWAP3 POP POP PUSH1 0x1 DUP2 ADD SWAP1 POP PUSH2 0x1CA3 JUMP JUMPDEST POP DUP6 SWAP4 POP POP POP POP SWAP3 SWAP2 POP POP JUMP JUMPDEST PUSH2 0x1CE6 DUP2 PUSH2 0x2305 JUMP JUMPDEST DUP3 MSTORE POP POP JUMP JUMPDEST PUSH2 0x1CF5 DUP2 PUSH2 0x2305 JUMP JUMPDEST DUP3 MSTORE POP POP JUMP JUMPDEST PUSH2 0x1D0C PUSH2 0x1D07 DUP3 PUSH2 0x2305 JUMP JUMPDEST PUSH2 0x244A JUMP JUMPDEST DUP3 MSTORE POP POP JUMP JUMPDEST PUSH1 0x0 PUSH2 0x1D1D DUP3 PUSH2 0x216A JUMP JUMPDEST PUSH2 0x1D27 DUP2 DUP6 PUSH2 0x219E JUMP JUMPDEST SWAP4 POP PUSH2 0x1D37 DUP2 DUP6 PUSH1 0x20 DUP7 ADD PUSH2 0x2347 JUMP JUMPDEST PUSH2 0x1D40 DUP2 PUSH2 0x2512 JUMP JUMPDEST DUP5 ADD SWAP2 POP POP SWAP3 SWAP2 POP POP JUMP JUMPDEST PUSH1 0x0 PUSH2 0x1D56 DUP3 PUSH2 0x2175 JUMP JUMPDEST PUSH2 0x1D60 DUP2 DUP6 PUSH2 0x21AF JUMP JUMPDEST SWAP4 POP PUSH2 0x1D70 DUP2 DUP6 PUSH1 0x20 DUP7 ADD PUSH2 0x2347 JUMP JUMPDEST PUSH2 0x1D79 DUP2 PUSH2 0x2512 JUMP JUMPDEST DUP5 ADD SWAP2 POP POP SWAP3 SWAP2 POP POP JUMP JUMPDEST PUSH1 0x0 PUSH2 0x1D91 PUSH1 0x2B DUP4 PUSH2 0x21AF JUMP JUMPDEST SWAP2 POP PUSH2 0x1D9C DUP3 PUSH2 0x2523 JUMP JUMPDEST PUSH1 0x40 DUP3 ADD SWAP1 POP SWAP2 SWAP1 POP JUMP JUMPDEST PUSH1 0x0 PUSH2 0x1DB4 PUSH1 0x1C DUP4 PUSH2 0x21AF JUMP JUMPDEST SWAP2 POP PUSH2 0x1DBF DUP3 PUSH2 0x2572 JUMP JUMPDEST PUSH1 0x20 DUP3 ADD SWAP1 POP SWAP2 SWAP1 POP JUMP JUMPDEST PUSH1 0x0 PUSH2 0x1DD7 PUSH1 0x18 DUP4 PUSH2 0x21AF JUMP JUMPDEST SWAP2 POP PUSH2 0x1DE2 DUP3 PUSH2 0x259B JUMP JUMPDEST PUSH1 0x20 DUP3 ADD SWAP1 POP SWAP2 SWAP1 POP JUMP JUMPDEST PUSH1 0x0 PUSH2 0x1DFA PUSH1 0x1C DUP4 PUSH2 0x21AF JUMP JUMPDEST SWAP2 POP PUSH2 0x1E05 DUP3 PUSH2 0x25C4 JUMP JUMPDEST PUSH1 0x20 DUP3 ADD SWAP1 POP SWAP2 SWAP1 POP JUMP JUMPDEST PUSH2 0x1E19 DUP2 PUSH2 0x230F JUMP JUMPDEST DUP3 MSTORE POP POP JUMP JUMPDEST PUSH2 0x1E28 DUP2 PUSH2 0x233D JUMP JUMPDEST DUP3 MSTORE POP POP JUMP JUMPDEST PUSH1 0x0 PUSH2 0x1E3A DUP3 DUP5 PUSH2 0x1CFB JUMP JUMPDEST PUSH1 0x20 DUP3 ADD SWAP2 POP DUP2 SWAP1 POP SWAP3 SWAP2 POP POP JUMP JUMPDEST PUSH1 0x0 PUSH1 0x20 DUP3 ADD SWAP1 POP PUSH2 0x1E5E PUSH1 0x0 DUP4 ADD DUP5 PUSH2 0x1C70 JUMP JUMPDEST SWAP3 SWAP2 POP POP JUMP JUMPDEST PUSH1 0x0 PUSH1 0x20 DUP3 ADD SWAP1 POP PUSH2 0x1E79 PUSH1 0x0 DUP4 ADD DUP5 PUSH2 0x1CEC JUMP JUMPDEST SWAP3 SWAP2 POP POP JUMP JUMPDEST PUSH1 0x0 PUSH2 0x160 DUP3 ADD SWAP1 POP PUSH2 0x1E95 PUSH1 0x0 DUP4 ADD DUP15 PUSH2 0x1CEC JUMP JUMPDEST PUSH2 0x1EA2 PUSH1 0x20 DUP4 ADD DUP14 PUSH2 0x1CEC JUMP JUMPDEST DUP2 DUP2 SUB PUSH1 0x40 DUP4 ADD MSTORE PUSH2 0x1EB4 DUP2 DUP13 PUSH2 0x1D4B JUMP JUMPDEST SWAP1 POP DUP2 DUP2 SUB PUSH1 0x60 DUP4 ADD MSTORE PUSH2 0x1EC8 DUP2 DUP12 PUSH2 0x1D4B JUMP JUMPDEST SWAP1 POP PUSH2 0x1ED7 PUSH1 0x80 DUP4 ADD DUP11 PUSH2 0x1CEC JUMP JUMPDEST PUSH2 0x1EE4 PUSH1 0xA0 DUP4 ADD DUP10 PUSH2 0x1CEC JUMP JUMPDEST PUSH2 0x1EF1 PUSH1 0xC0 DUP4 ADD DUP9 PUSH2 0x1CEC JUMP JUMPDEST PUSH2 0x1EFE PUSH1 0xE0 DUP4 ADD DUP8 PUSH2 0x1CEC JUMP JUMPDEST PUSH2 0x1F0C PUSH2 0x100 DUP4 ADD DUP7 PUSH2 0x1CEC JUMP JUMPDEST DUP2 DUP2 SUB PUSH2 0x120 DUP4 ADD MSTORE PUSH2 0x1F1F DUP2 DUP6 PUSH2 0x1D4B JUMP JUMPDEST SWAP1 POP PUSH2 0x1F2F PUSH2 0x140 DUP4 ADD DUP5 PUSH2 0x1CEC JUMP JUMPDEST SWAP13 SWAP12 POP POP POP POP POP POP POP POP POP POP POP POP JUMP JUMPDEST PUSH1 0x0 PUSH1 0xC0 DUP3 ADD SWAP1 POP PUSH2 0x1F54 PUSH1 0x0 DUP4 ADD DUP10 PUSH2 0x1CEC JUMP JUMPDEST PUSH2 0x1F61 PUSH1 0x20 DUP4 ADD DUP9 PUSH2 0x1CEC JUMP JUMPDEST PUSH2 0x1F6E PUSH1 0x40 DUP4 ADD DUP8 PUSH2 0x1E1F JUMP JUMPDEST PUSH2 0x1F7B PUSH1 0x60 DUP4 ADD DUP7 PUSH2 0x1E1F JUMP JUMPDEST PUSH2 0x1F88 PUSH1 0x80 DUP4 ADD DUP6 PUSH2 0x1CEC JUMP JUMPDEST PUSH2 0x1F95 PUSH1 0xA0 DUP4 ADD DUP5 PUSH2 0x1C70 JUMP JUMPDEST SWAP8 SWAP7 POP POP POP POP POP POP POP JUMP JUMPDEST PUSH1 0x0 PUSH1 0xE0 DUP3 ADD SWAP1 POP PUSH2 0x1FB5 PUSH1 0x0 DUP4 ADD DUP11 PUSH2 0x1CEC JUMP JUMPDEST PUSH2 0x1FC2 PUSH1 0x20 DUP4 ADD DUP10 PUSH2 0x1E10 JUMP JUMPDEST PUSH2 0x1FCF PUSH1 0x40 DUP4 ADD DUP9 PUSH2 0x1E10 JUMP JUMPDEST PUSH2 0x1FDC PUSH1 0x60 DUP4 ADD DUP8 PUSH2 0x1E10 JUMP JUMPDEST PUSH2 0x1FE9 PUSH1 0x80 DUP4 ADD DUP7 PUSH2 0x1E1F JUMP JUMPDEST PUSH2 0x1FF6 PUSH1 0xA0 DUP4 ADD DUP6 PUSH2 0x1E1F JUMP JUMPDEST DUP2 DUP2 SUB PUSH1 0xC0 DUP4 ADD MSTORE PUSH2 0x2008 DUP2 DUP5 PUSH2 0x1C7F JUMP JUMPDEST SWAP1 POP SWAP9 SWAP8 POP POP POP POP POP POP POP POP JUMP JUMPDEST PUSH1 0x0 PUSH1 0x40 DUP3 ADD SWAP1 POP PUSH2 0x202B PUSH1 0x0 DUP4 ADD DUP6 PUSH2 0x1CEC JUMP JUMPDEST PUSH2 0x2038 PUSH1 0x20 DUP4 ADD DUP5 PUSH2 0x1E1F JUMP JUMPDEST SWAP4 SWAP3 POP POP POP JUMP JUMPDEST PUSH1 0x0 PUSH1 0x40 DUP3 ADD SWAP1 POP DUP2 DUP2 SUB PUSH1 0x0 DUP4 ADD MSTORE PUSH2 0x2059 DUP2 DUP6 PUSH2 0x1D12 JUMP JUMPDEST SWAP1 POP PUSH2 0x2068 PUSH1 0x20 DUP4 ADD DUP5 PUSH2 0x1E1F JUMP JUMPDEST SWAP4 SWAP3 POP POP POP JUMP JUMPDEST PUSH1 0x0 PUSH1 0x20 DUP3 ADD SWAP1 POP DUP2 DUP2 SUB PUSH1 0x0 DUP4 ADD MSTORE PUSH2 0x2088 DUP2 PUSH2 0x1D84 JUMP JUMPDEST SWAP1 POP SWAP2 SWAP1 POP JUMP JUMPDEST PUSH1 0x0 PUSH1 0x20 DUP3 ADD SWAP1 POP DUP2 DUP2 SUB PUSH1 0x0 DUP4 ADD MSTORE PUSH2 0x20A8 DUP2 PUSH2 0x1DA7 JUMP JUMPDEST SWAP1 POP SWAP2 SWAP1 POP JUMP JUMPDEST PUSH1 0x0 PUSH1 0x20 DUP3 ADD SWAP1 POP DUP2 DUP2 SUB PUSH1 0x0 DUP4 ADD MSTORE PUSH2 0x20C8 DUP2 PUSH2 0x1DCA JUMP JUMPDEST SWAP1 POP SWAP2 SWAP1 POP JUMP JUMPDEST PUSH1 0x0 PUSH1 0x20 DUP3 ADD SWAP1 POP DUP2 DUP2 SUB PUSH1 0x0 DUP4 ADD MSTORE PUSH2 0x20E8 DUP2 PUSH2 0x1DED JUMP JUMPDEST SWAP1 POP SWAP2 SWAP1 POP JUMP JUMPDEST PUSH1 0x0 PUSH1 0x20 DUP3 ADD SWAP1 POP PUSH2 0x2104 PUSH1 0x0 DUP4 ADD DUP5 PUSH2 0x1E1F JUMP JUMPDEST SWAP3 SWAP2 POP POP JUMP JUMPDEST PUSH1 0x0 PUSH1 0x80 DUP3 ADD SWAP1 POP PUSH2 0x211F PUSH1 0x0 DUP4 ADD DUP8 PUSH2 0x1E1F JUMP JUMPDEST PUSH2 0x212C PUSH1 0x20 DUP4 ADD DUP7 PUSH2 0x1CEC JUMP JUMPDEST PUSH2 0x2139 PUSH1 0x40 DUP4 ADD DUP6 PUSH2 0x1CEC JUMP JUMPDEST PUSH2 0x2146 PUSH1 0x60 DUP4 ADD DUP5 PUSH2 0x1CEC JUMP JUMPDEST SWAP6 SWAP5 POP POP POP POP POP JUMP JUMPDEST PUSH1 0x0 DUP2 SWAP1 POP PUSH1 0x20 DUP3 ADD SWAP1 POP SWAP2 SWAP1 POP JUMP JUMPDEST PUSH1 0x0 DUP2 MLOAD SWAP1 POP SWAP2 SWAP1 POP JUMP JUMPDEST PUSH1 0x0 DUP2 MLOAD SWAP1 POP SWAP2 SWAP1 POP JUMP JUMPDEST PUSH1 0x0 DUP2 MLOAD SWAP1 POP SWAP2 SWAP1 POP JUMP JUMPDEST PUSH1 0x0 PUSH1 0x20 DUP3 ADD SWAP1 POP SWAP2 SWAP1 POP JUMP JUMPDEST PUSH1 0x0 DUP3 DUP3 MSTORE PUSH1 0x20 DUP3 ADD SWAP1 POP SWAP3 SWAP2 POP POP JUMP JUMPDEST PUSH1 0x0 DUP3 DUP3 MSTORE PUSH1 0x20 DUP3 ADD SWAP1 POP SWAP3 SWAP2 POP POP JUMP JUMPDEST PUSH1 0x0 DUP3 DUP3 MSTORE PUSH1 0x20 DUP3 ADD SWAP1 POP SWAP3 SWAP2 POP POP JUMP JUMPDEST PUSH1 0x0 PUSH2 0x21CB DUP3 PUSH2 0x230F JUMP JUMPDEST SWAP2 POP PUSH2 0x21D6 DUP4 PUSH2 0x230F JUMP JUMPDEST SWAP3 POP DUP3 PUSH2 0xFFFF SUB DUP3 GT ISZERO PUSH2 0x21ED JUMPI PUSH2 0x21EC PUSH2 0x2485 JUMP JUMPDEST JUMPDEST DUP3 DUP3 ADD SWAP1 POP SWAP3 SWAP2 POP POP JUMP JUMPDEST PUSH1 0x0 PUSH2 0x2203 DUP3 PUSH2 0x233D JUMP JUMPDEST SWAP2 POP PUSH2 0x220E DUP4 PUSH2 0x233D JUMP JUMPDEST SWAP3 POP DUP3 PUSH2 0x221E JUMPI PUSH2 0x221D PUSH2 0x24B4 JUMP JUMPDEST JUMPDEST DUP3 DUP3 DIV SWAP1 POP SWAP3 SWAP2 POP POP JUMP JUMPDEST PUSH1 0x0 PUSH2 0x2234 DUP3 PUSH2 0x230F JUMP JUMPDEST SWAP2 POP PUSH2 0x223F DUP4 PUSH2 0x230F JUMP JUMPDEST SWAP3 POP DUP2 PUSH2 0xFFFF DIV DUP4 GT DUP3 ISZERO ISZERO AND ISZERO PUSH2 0x225A JUMPI PUSH2 0x2259 PUSH2 0x2485 JUMP JUMPDEST JUMPDEST DUP3 DUP3 MUL SWAP1 POP SWAP3 SWAP2 POP POP JUMP JUMPDEST PUSH1 0x0 PUSH2 0x2270 DUP3 PUSH2 0x233D JUMP JUMPDEST SWAP2 POP PUSH2 0x227B DUP4 PUSH2 0x233D JUMP JUMPDEST SWAP3 POP DUP2 PUSH32 0xFFFFFFFFFFFFFFFFFFFFFFFFFFFFFFFFFFFFFFFFFFFFFFFFFFFFFFFFFFFFFFFF DIV DUP4 GT DUP3 ISZERO ISZERO AND ISZERO PUSH2 0x22B4 JUMPI PUSH2 0x22B3 PUSH2 0x2485 JUMP JUMPDEST JUMPDEST DUP3 DUP3 MUL SWAP1 POP SWAP3 SWAP2 POP POP JUMP JUMPDEST PUSH1 0x0 PUSH2 0x22CA DUP3 PUSH2 0x233D JUMP JUMPDEST SWAP2 POP PUSH2 0x22D5 DUP4 PUSH2 0x233D JUMP JUMPDEST SWAP3 POP DUP3 DUP3 LT ISZERO PUSH2 0x22E8 JUMPI PUSH2 0x22E7 PUSH2 0x2485 JUMP JUMPDEST JUMPDEST DUP3 DUP3 SUB SWAP1 POP SWAP3 SWAP2 POP POP JUMP JUMPDEST PUSH1 0x0 PUSH2 0x22FE DUP3 PUSH2 0x231D JUMP JUMPDEST SWAP1 POP SWAP2 SWAP1 POP JUMP JUMPDEST PUSH1 0x0 DUP2 SWAP1 POP SWAP2 SWAP1 POP JUMP JUMPDEST PUSH1 0x0 PUSH2 0xFFFF DUP3 AND SWAP1 POP SWAP2 SWAP1 POP JUMP JUMPDEST PUSH1 0x0 PUSH20 0xFFFFFFFFFFFFFFFFFFFFFFFFFFFFFFFFFFFFFFFF DUP3 AND SWAP1 POP SWAP2 SWAP1 POP JUMP JUMPDEST PUSH1 0x0 DUP2 SWAP1 POP SWAP2 SWAP1 POP JUMP JUMPDEST PUSH1 0x0 JUMPDEST DUP4 DUP2 LT ISZERO PUSH2 0x2365 JUMPI DUP1 DUP3 ADD MLOAD DUP2 DUP5 ADD MSTORE PUSH1 0x20 DUP2 ADD SWAP1 POP PUSH2 0x234A JUMP JUMPDEST DUP4 DUP2 GT ISZERO PUSH2 0x2374 JUMPI PUSH1 0x0 DUP5 DUP5 ADD MSTORE JUMPDEST POP POP POP POP JUMP JUMPDEST PUSH1 0x0 PUSH2 0x2385 DUP3 PUSH2 0x230F JUMP JUMPDEST SWAP2 POP PUSH1 0x0 DUP3 EQ ISZERO PUSH2 0x2399 JUMPI PUSH2 0x2398 PUSH2 0x2485 JUMP JUMPDEST JUMPDEST PUSH1 0x1 DUP3 SUB SWAP1 POP SWAP2 SWAP1 POP JUMP JUMPDEST PUSH1 0x0 PUSH1 0x2 DUP3 DIV SWAP1 POP PUSH1 0x1 DUP3 AND DUP1 PUSH2 0x23BC JUMPI PUSH1 0x7F DUP3 AND SWAP2 POP JUMPDEST PUSH1 0x20 DUP3 LT DUP2 EQ ISZERO PUSH2 0x23D0 JUMPI PUSH2 0x23CF PUSH2 0x24E3 JUMP JUMPDEST JUMPDEST POP SWAP2 SWAP1 POP JUMP JUMPDEST PUSH1 0x0 PUSH2 0x23E1 DUP3 PUSH2 0x230F JUMP JUMPDEST SWAP2 POP PUSH2 0xFFFF DUP3 EQ ISZERO PUSH2 0x23F6 JUMPI PUSH2 0x23F5 PUSH2 0x2485 JUMP JUMPDEST JUMPDEST PUSH1 0x1 DUP3 ADD SWAP1 POP SWAP2 SWAP1 POP JUMP JUMPDEST PUSH1 0x0 PUSH2 0x240C DUP3 PUSH2 0x233D JUMP JUMPDEST SWAP2 POP PUSH32 0xFFFFFFFFFFFFFFFFFFFFFFFFFFFFFFFFFFFFFFFFFFFFFFFFFFFFFFFFFFFFFFFF DUP3 EQ ISZERO PUSH2 0x243F JUMPI PUSH2 0x243E PUSH2 0x2485 JUMP JUMPDEST JUMPDEST PUSH1 0x1 DUP3 ADD SWAP1 POP SWAP2 SWAP1 POP JUMP JUMPDEST PUSH1 0x0 DUP2 SWAP1 POP SWAP2 SWAP1 POP JUMP JUMPDEST PUSH1 0x0 PUSH2 0x245F DUP3 PUSH2 0x233D JUMP JUMPDEST SWAP2 POP PUSH2 0x246A DUP4 PUSH2 0x233D JUMP JUMPDEST SWAP3 POP DUP3 PUSH2 0x247A JUMPI PUSH2 0x2479 PUSH2 0x24B4 JUMP JUMPDEST JUMPDEST DUP3 DUP3 MOD SWAP1 POP SWAP3 SWAP2 POP POP JUMP JUMPDEST PUSH32 0x4E487B7100000000000000000000000000000000000000000000000000000000 PUSH1 0x0 MSTORE PUSH1 0x11 PUSH1 0x4 MSTORE PUSH1 0x24 PUSH1 0x0 REVERT JUMPDEST PUSH32 0x4E487B7100000000000000000000000000000000000000000000000000000000 PUSH1 0x0 MSTORE PUSH1 0x12 PUSH1 0x4 MSTORE PUSH1 0x24 PUSH1 0x0 REVERT JUMPDEST PUSH32 0x4E487B7100000000000000000000000000000000000000000000000000000000 PUSH1 0x0 MSTORE PUSH1 0x22 PUSH1 0x4 MSTORE PUSH1 0x24 PUSH1 0x0 REVERT JUMPDEST PUSH1 0x0 PUSH1 0x1F NOT PUSH1 0x1F DUP4 ADD AND SWAP1 POP SWAP2 SWAP1 POP JUMP JUMPDEST PUSH32 0x546865206964206F662074686520696E7375726564206973206E6F7420696E20 PUSH1 0x0 DUP3 ADD MSTORE PUSH32 0x74686520706F6C6963792E000000000000000000000000000000000000000000 PUSH1 0x20 DUP3 ADD MSTORE POP JUMP JUMPDEST PUSH32 0x59612065786973746520756E612050435220636F6E2065736520494400000000 PUSH1 0x0 DUP3 ADD MSTORE POP JUMP JUMPDEST PUSH32 0x4C6120504352207469656E652071756520657869737469720000000000000000 PUSH1 0x0 DUP3 ADD MSTORE POP JUMP JUMPDEST PUSH32 0x4E6F2065786973746520756E612050435220636F6E2065736120494400000000 PUSH1 0x0 DUP3 ADD MSTORE POP JUMP JUMPDEST PUSH2 0x25F6 DUP2 PUSH2 0x22F3 JUMP JUMPDEST DUP2 EQ PUSH2 0x2601 JUMPI PUSH1 0x0 DUP1 REVERT JUMPDEST POP JUMP JUMPDEST PUSH2 0x260D DUP2 PUSH2 0x2305 JUMP JUMPDEST DUP2 EQ PUSH2 0x2618 JUMPI PUSH1 0x0 DUP1 REVERT JUMPDEST POP JUMP JUMPDEST PUSH2 0x2624 DUP2 PUSH2 0x233D JUMP JUMPDEST DUP2 EQ PUSH2 0x262F JUMPI PUSH1 0x0 DUP1 REVERT JUMPDEST POP JUMP INVALID LOG2 PUSH5 0x6970667358 0x22 SLT KECCAK256 PUSH29 0xB99D73318D1625C0A5A3DEC6372055E8A745EF33E88E5A04245C335D9B 0xC 0x21 PUSH5 0x736F6C6343 STOP ADDMOD SUB STOP CALLER "
    },
    "gasEstimates": {
      "creation": {
        "codeDepositCost": "1966400",
        "executionCost": "infinite",
        "totalCost": "infinite"
      },
      "external": {
        "addPCRtoInsured(bytes32,bytes32,uint256,address)": "infinite",
        "addSpcAddress(address)": "43234",
        "calculateCompensation()": "infinite",
        "compensation()": "infinite",
        "deletePCR(bytes32)": "45491",
        "destructContract()": "31888",
        "getId()": "1188",
        "getInsuranceData()": "infinite",
        "getPCR(bytes32)": "infinite",
        "getTakerData()": "infinite",
        "getTakerId()": "1231",
        "serializeInsurance()": "infinite",
        "updatePCR(bytes32,bytes32)": "infinite"
      }
    },
    "methodIdentifiers": {
      "addPCRtoInsured(bytes32,bytes32,uint256,address)": "2f0519d4",
      "addSpcAddress(address)": "297e6306",
      "calculateCompensation()": "121b5a25",
      "compensation()": "40d5ff58",
      "deletePCR(bytes32)": "62a681b3",
      "destructContract()": "9499e018",
      "getId()": "5d1ca631",
      "getInsuranceData()": "92ed93d0",
      "getPCR(bytes32)": "169e68c3",
      "getTakerData()": "e0caf0bd",
      "getTakerId()": "fc1c7a70",
      "serializeInsurance()": "236f45d9",
      "updatePCR(bytes32,bytes32)": "2357aef3"
    }
  },
  "storageLayout": {
    "storage": [
      {
        "astId": 223,
        "contract": "Insurance.sol:Insurance",
        "label": "owner",
        "offset": 0,
        "slot": "0",
        "type": "t_address_payable"
      },
      {
        "astId": 225,
        "contract": "Insurance.sol:Insurance",
        "label": "spcAddress",
        "offset": 0,
        "slot": "1",
        "type": "t_address"
      },
      {
        "astId": 227,
        "contract": "Insurance.sol:Insurance",
        "label": "spcAddressAdded",
        "offset": 20,
        "slot": "1",
        "type": "t_bool"
      },
      {
        "astId": 231,
        "contract": "Insurance.sol:Insurance",
        "label": "pcrLocation",
        "offset": 0,
        "slot": "2",
        "type": "t_mapping(t_bytes32,t_uint256)"
      },
      {
        "astId": 236,
        "contract": "Insurance.sol:Insurance",
        "label": "insuredPCRs",
        "offset": 0,
        "slot": "3",
        "type": "t_mapping(t_bytes32,t_array(t_bytes32)dyn_storage)"
      },
      {
        "astId": 240,
        "contract": "Insurance.sol:Insurance",
        "label": "insuredInInsurance",
        "offset": 0,
        "slot": "4",
        "type": "t_mapping(t_bytes32,t_bool)"
      },
      {
        "astId": 244,
        "contract": "Insurance.sol:Insurance",
        "label": "isPcrActive",
        "offset": 0,
        "slot": "5",
        "type": "t_mapping(t_bytes32,t_bool)"
      },
      {
        "astId": 248,
        "contract": "Insurance.sol:Insurance",
        "label": "pcrIdToInsuredId",
        "offset": 0,
        "slot": "6",
        "type": "t_mapping(t_bytes32,t_bytes32)"
      },
      {
        "astId": 252,
        "contract": "Insurance.sol:Insurance",
        "label": "insuredNegPcrHash",
        "offset": 0,
        "slot": "7",
        "type": "t_mapping(t_bytes32,t_bytes32)"
      },
      {
        "astId": 256,
        "contract": "Insurance.sol:Insurance",
        "label": "insuredNegPcrDate",
        "offset": 0,
        "slot": "8",
        "type": "t_mapping(t_bytes32,t_uint256)"
      },
      {
        "astId": 261,
        "contract": "Insurance.sol:Insurance",
        "label": "pcrIdToData",
        "offset": 0,
        "slot": "9",
        "type": "t_mapping(t_bytes32,t_struct(PcrData)221_storage)"
      },
      {
        "astId": 264,
        "contract": "Insurance.sol:Insurance",
        "label": "insuranceData",
        "offset": 0,
        "slot": "10",
        "type": "t_struct(InsuranceData)185_storage"
      },
      {
        "astId": 267,
        "contract": "Insurance.sol:Insurance",
        "label": "takerData",
        "offset": 0,
        "slot": "16",
        "type": "t_struct(TakerData)208_storage"
      },
      {
        "astId": 269,
        "contract": "Insurance.sol:Insurance",
        "label": "positivePcrTest",
        "offset": 0,
        "slot": "27",
        "type": "t_bool"
      },
      {
        "astId": 271,
        "contract": "Insurance.sol:Insurance",
        "label": "paymentEmitted",
        "offset": 1,
        "slot": "27",
        "type": "t_bool"
      },
      {
        "astId": 273,
        "contract": "Insurance.sol:Insurance",
        "label": "timePaymentEmitted",
        "offset": 0,
        "slot": "28",
        "type": "t_uint256"
      }
    ],
    "types": {
      "t_address": {
        "encoding": "inplace",
        "label": "address",
        "numberOfBytes": "20"
      },
      "t_address_payable": {
        "encoding": "inplace",
        "label": "address payable",
        "numberOfBytes": "20"
      },
      "t_array(t_bytes32)dyn_storage": {
        "base": "t_bytes32",
        "encoding": "dynamic_array",
        "label": "bytes32[]",
        "numberOfBytes": "32"
      },
      "t_bool": {
        "encoding": "inplace",
        "label": "bool",
        "numberOfBytes": "1"
      },
      "t_bytes32": {
        "encoding": "inplace",
        "label": "bytes32",
        "numberOfBytes": "32"
      },
      "t_mapping(t_bytes32,t_array(t_bytes32)dyn_storage)": {
        "encoding": "mapping",
        "key": "t_bytes32",
        "label": "mapping(bytes32 => bytes32[])",
        "numberOfBytes": "32",
        "value": "t_array(t_bytes32)dyn_storage"
      },
      "t_mapping(t_bytes32,t_bool)": {
        "encoding": "mapping",
        "key": "t_bytes32",
        "label": "mapping(bytes32 => bool)",
        "numberOfBytes": "32",
        "value": "t_bool"
      },
      "t_mapping(t_bytes32,t_bytes32)": {
        "encoding": "mapping",
        "key": "t_bytes32",
        "label": "mapping(bytes32 => bytes32)",
        "numberOfBytes": "32",
        "value": "t_bytes32"
      },
      "t_mapping(t_bytes32,t_struct(PcrData)221_storage)": {
        "encoding": "mapping",
        "key": "t_bytes32",
        "label": "mapping(bytes32 => struct Insurance.PcrData)",
        "numberOfBytes": "32",
        "value": "t_struct(PcrData)221_storage"
      },
      "t_mapping(t_bytes32,t_uint256)": {
        "encoding": "mapping",
        "key": "t_bytes32",
        "label": "mapping(bytes32 => uint256)",
        "numberOfBytes": "32",
        "value": "t_uint256"
      },
      "t_string_storage": {
        "encoding": "bytes",
        "label": "string",
        "numberOfBytes": "32"
      },
      "t_struct(InsuranceData)185_storage": {
        "encoding": "inplace",
        "label": "struct Insurance.InsuranceData",
        "members": [
          {
            "astId": 167,
            "contract": "Insurance.sol:Insurance",
            "label": "dailyCompensation",
            "offset": 0,
            "slot": "0",
            "type": "t_uint16"
          },
          {
            "astId": 169,
            "contract": "Insurance.sol:Insurance",
            "label": "daysToCompensate",
            "offset": 2,
            "slot": "0",
            "type": "t_uint16"
          },
          {
            "astId": 171,
            "contract": "Insurance.sol:Insurance",
            "label": "pcrNumber",
            "offset": 4,
            "slot": "0",
            "type": "t_uint16"
          },
          {
            "astId": 173,
            "contract": "Insurance.sol:Insurance",
            "label": "insuredNumber",
            "offset": 6,
            "slot": "0",
            "type": "t_uint16"
          },
          {
            "astId": 175,
            "contract": "Insurance.sol:Insurance",
            "label": "id",
            "offset": 0,
            "slot": "1",
            "type": "t_bytes32"
          },
          {
            "astId": 177,
            "contract": "Insurance.sol:Insurance",
            "label": "insuranceStartDate",
            "offset": 0,
            "slot": "2",
            "type": "t_uint256"
          },
          {
            "astId": 179,
            "contract": "Insurance.sol:Insurance",
            "label": "insuranceFinishDate",
            "offset": 0,
            "slot": "3",
            "type": "t_uint256"
          },
          {
            "astId": 181,
            "contract": "Insurance.sol:Insurance",
            "label": "contractDate",
            "offset": 0,
            "slot": "4",
            "type": "t_uint256"
          },
          {
            "astId": 184,
            "contract": "Insurance.sol:Insurance",
            "label": "insureds",
            "offset": 0,
            "slot": "5",
            "type": "t_array(t_bytes32)dyn_storage"
          }
        ],
        "numberOfBytes": "192"
      },
      "t_struct(PcrData)221_storage": {
        "encoding": "inplace",
        "label": "struct Insurance.PcrData",
        "members": [
          {
            "astId": 210,
            "contract": "Insurance.sol:Insurance",
            "label": "result",
            "offset": 0,
            "slot": "0",
            "type": "t_bytes32"
          },
          {
            "astId": 212,
            "contract": "Insurance.sol:Insurance",
            "label": "id",
            "offset": 0,
            "slot": "1",
            "type": "t_bytes32"
          },
          {
            "astId": 214,
            "contract": "Insurance.sol:Insurance",
            "label": "insuredId",
            "offset": 0,
            "slot": "2",
            "type": "t_bytes32"
          },
          {
            "astId": 216,
            "contract": "Insurance.sol:Insurance",
            "label": "requestDate",
            "offset": 0,
            "slot": "3",
            "type": "t_uint256"
          },
          {
            "astId": 218,
            "contract": "Insurance.sol:Insurance",
            "label": "resultDate",
            "offset": 0,
            "slot": "4",
            "type": "t_uint256"
          },
          {
            "astId": 220,
            "contract": "Insurance.sol:Insurance",
            "label": "contractAddress",
            "offset": 0,
            "slot": "5",
            "type": "t_address"
          }
        ],
        "numberOfBytes": "192"
      },
      "t_struct(TakerData)208_storage": {
        "encoding": "inplace",
        "label": "struct Insurance.TakerData",
        "members": [
          {
            "astId": 187,
            "contract": "Insurance.sol:Insurance",
            "label": "takerName",
            "offset": 0,
            "slot": "0",
            "type": "t_string_storage"
          },
          {
            "astId": 189,
            "contract": "Insurance.sol:Insurance",
            "label": "takerAddress",
            "offset": 0,
            "slot": "1",
            "type": "t_string_storage"
          },
          {
            "astId": 191,
            "contract": "Insurance.sol:Insurance",
            "label": "takerEmail",
            "offset": 0,
            "slot": "2",
            "type": "t_string_storage"
          },
          {
            "astId": 193,
            "contract": "Insurance.sol:Insurance",
            "label": "takerId",
            "offset": 0,
            "slot": "3",
            "type": "t_bytes32"
          },
          {
            "astId": 195,
            "contract": "Insurance.sol:Insurance",
            "label": "takerNif",
            "offset": 0,
            "slot": "4",
            "type": "t_bytes32"
          },
          {
            "astId": 197,
            "contract": "Insurance.sol:Insurance",
            "label": "takerPostalCode",
            "offset": 0,
            "slot": "5",
            "type": "t_bytes32"
          },
          {
            "astId": 199,
            "contract": "Insurance.sol:Insurance",
            "label": "takerTown",
            "offset": 0,
            "slot": "6",
            "type": "t_bytes32"
          },
          {
            "astId": 201,
            "contract": "Insurance.sol:Insurance",
            "label": "takerLocation",
            "offset": 0,
            "slot": "7",
            "type": "t_bytes32"
          },
          {
            "astId": 203,
            "contract": "Insurance.sol:Insurance",
            "label": "takerTelephone",
            "offset": 0,
            "slot": "8",
            "type": "t_bytes32"
          },
          {
            "astId": 205,
            "contract": "Insurance.sol:Insurance",
            "label": "takerMobile",
            "offset": 0,
            "slot": "9",
            "type": "t_bytes32"
          },
          {
            "astId": 207,
            "contract": "Insurance.sol:Insurance",
            "label": "takerIban",
            "offset": 0,
            "slot": "10",
            "type": "t_bytes32"
          }
        ],
        "numberOfBytes": "352"
      },
      "t_uint16": {
        "encoding": "inplace",
        "label": "uint16",
        "numberOfBytes": "2"
      },
      "t_uint256": {
        "encoding": "inplace",
        "label": "uint256",
        "numberOfBytes": "32"
      }
    }
  },
  "userdoc": {
    "events": {
      "positivePcr(bytes32,uint256)": {
        "notice": "Events to emit the information about a sinister."
      }
    },
    "kind": "user",
    "methods": {
      "addPCRtoInsured(bytes32,bytes32,uint256,address)": {
        "notice": "Add new PCR to an insured."
      },
      "addSpcAddress(address)": {
        "notice": "Modify the address of the general contract. It only can be used 1 time."
      },
      "calculateCompensation()": {
        "notice": "Returns the amount of the compensation."
      },
      "compensation()": {
        "notice": "Fires when the contract get a positive PCR."
      },
      "constructor": {
        "notice": "Fill the information of taker data and insurance data."
      },
      "deletePCR(bytes32)": {
        "notice": "Deletes a pcr already requested by an insured."
      },
      "destructContract()": {
        "notice": "Delete the contract of the blockchain."
      },
      "getId()": {
        "notice": "Returns only the insurance identifier."
      },
      "getInsuranceData()": {
        "notice": "Returns the information of the insurance data."
      },
      "getPCR(bytes32)": {
        "notice": "Returns the information of a PCR."
      },
      "getTakerData()": {
        "notice": "Returns the information of the taker data."
      },
      "getTakerId()": {
        "notice": "Returns only the taker identifier."
      },
      "serializeInsurance()": {
        "notice": "Convert all the information of the insurance into an array of bytes."
      },
      "updatePCR(bytes32,bytes32)": {
        "notice": "Update the result of a pending PCR that a insured had already registered."
      }
    },
    "version": 1
  }
}