{
  "abi": [
    {
      "inputs": [
        {
          "internalType": "bytes32[]",
          "name": "_insuredsNegPcrHash",
          "type": "bytes32[]"
        },
        {
          "internalType": "uint256[]",
          "name": "_insuredsNegPcrDate",
          "type": "uint256[]"
        },
        {
          "internalType": "bytes32[]",
          "name": "_ids",
          "type": "bytes32[]"
        },
        {
          "internalType": "bytes32[]",
          "name": "_insureds",
          "type": "bytes32[]"
        },
        {
          "internalType": "uint256[]",
          "name": "_insuranceStartFinishDate",
          "type": "uint256[]"
        },
        {
          "internalType": "uint16[]",
          "name": "_dailyCompensationAndDuration",
          "type": "uint16[]"
        },
        {
          "internalType": "bytes32[]",
          "name": "_takerData",
          "type": "bytes32[]"
        },
        {
          "internalType": "string",
          "name": "_takerName",
          "type": "string"
        },
        {
          "internalType": "string",
          "name": "_takerAddress",
          "type": "string"
        },
        {
          "internalType": "string",
          "name": "_takerEmail",
          "type": "string"
        }
      ],
      "stateMutability": "nonpayable",
      "type": "constructor"
    },
    {
      "anonymous": false,
      "inputs": [
        {
          "indexed": false,
          "internalType": "bytes32",
          "name": "hotelId",
          "type": "bytes32"
        },
        {
          "indexed": false,
          "internalType": "bytes32",
          "name": "hotelIban",
          "type": "bytes32"
        }
      ],
      "name": "checkPayment",
      "type": "event"
    },
    {
      "anonymous": false,
      "inputs": [
        {
          "indexed": false,
          "internalType": "bytes32",
          "name": "customerId",
          "type": "bytes32"
        },
        {
          "indexed": false,
          "internalType": "uint256",
          "name": "resultDate",
          "type": "uint256"
        },
        {
          "indexed": false,
          "internalType": "bytes32",
          "name": "insuranceId",
          "type": "bytes32"
        }
      ],
      "name": "positivePcr",
      "type": "event"
    },
    {
      "inputs": [
        {
          "internalType": "bytes32",
          "name": "_insuredId",
          "type": "bytes32"
        },
        {
          "internalType": "bytes32",
          "name": "_idPcr",
          "type": "bytes32"
        },
        {
          "internalType": "uint256",
          "name": "_requestDate",
          "type": "uint256"
        },
        {
          "internalType": "address",
          "name": "_contractAddress",
          "type": "address"
        }
      ],
      "name": "addPCRtoInsured",
      "outputs": [],
      "stateMutability": "nonpayable",
      "type": "function"
    },
    {
      "inputs": [
        {
          "internalType": "address",
          "name": "_spcAddress",
          "type": "address"
        }
      ],
      "name": "addSpcAddress",
      "outputs": [],
      "stateMutability": "nonpayable",
      "type": "function"
    },
    {
      "inputs": [],
      "name": "compensation",
      "outputs": [],
      "stateMutability": "nonpayable",
      "type": "function"
    },
    {
      "inputs": [
        {
          "internalType": "bytes32",
          "name": "_idPCR",
          "type": "bytes32"
        }
      ],
      "name": "deletePCR",
      "outputs": [
        {
          "internalType": "address",
          "name": "_pcrContractAddress",
          "type": "address"
        }
      ],
      "stateMutability": "nonpayable",
      "type": "function"
    },
    {
      "inputs": [],
      "name": "destructContract",
      "outputs": [],
      "stateMutability": "nonpayable",
      "type": "function"
    },
    {
      "inputs": [],
      "name": "getId",
      "outputs": [
        {
          "internalType": "bytes32",
          "name": "insuranceId",
          "type": "bytes32"
        }
      ],
      "stateMutability": "view",
      "type": "function"
    },
    {
      "inputs": [],
      "name": "getInsuranceData",
      "outputs": [
        {
          "internalType": "bytes32",
          "name": "idPolicy",
          "type": "bytes32"
        },
        {
          "internalType": "uint16",
          "name": "dailyCompensationPolicy",
          "type": "uint16"
        },
        {
          "internalType": "uint16",
          "name": "daysToCompensatePolicy",
          "type": "uint16"
        },
        {
          "internalType": "uint16",
          "name": "insuredNumberPolicy",
          "type": "uint16"
        },
        {
          "internalType": "uint256",
          "name": "startDatePolicy",
          "type": "uint256"
        },
        {
          "internalType": "uint256",
          "name": "finishDatePolicy",
          "type": "uint256"
        },
        {
          "internalType": "bytes32[]",
          "name": "insureds",
          "type": "bytes32[]"
        }
      ],
      "stateMutability": "view",
      "type": "function"
    },
    {
      "inputs": [
        {
          "internalType": "bytes32",
          "name": "_idPCR",
          "type": "bytes32"
        }
      ],
      "name": "getPCR",
      "outputs": [
        {
          "internalType": "bytes32",
          "name": "result",
          "type": "bytes32"
        },
        {
          "internalType": "bytes32",
          "name": "customerId",
          "type": "bytes32"
        },
        {
          "internalType": "uint256",
          "name": "requestDate",
          "type": "uint256"
        },
        {
          "internalType": "uint256",
          "name": "resultDate",
          "type": "uint256"
        },
        {
          "internalType": "bytes32",
          "name": "id",
          "type": "bytes32"
        },
        {
          "internalType": "address",
          "name": "pcrContractAddress",
          "type": "address"
        }
      ],
      "stateMutability": "view",
      "type": "function"
    },
    {
      "inputs": [],
      "name": "getTakerData",
      "outputs": [
        {
          "internalType": "bytes32",
          "name": "takerId",
          "type": "bytes32"
        },
        {
          "internalType": "bytes32",
          "name": "takerNif",
          "type": "bytes32"
        },
        {
          "internalType": "string",
          "name": "takerFullName",
          "type": "string"
        },
        {
          "internalType": "string",
          "name": "takerContactAddress",
          "type": "string"
        },
        {
          "internalType": "bytes32",
          "name": "takerContactPostalCode",
          "type": "bytes32"
        },
        {
          "internalType": "bytes32",
          "name": "takerContactTown",
          "type": "bytes32"
        },
        {
          "internalType": "bytes32",
          "name": "takerContactLocation",
          "type": "bytes32"
        },
        {
          "internalType": "bytes32",
          "name": "takerContactTelephone",
          "type": "bytes32"
        },
        {
          "internalType": "bytes32",
          "name": "takerContactMobile",
          "type": "bytes32"
        },
        {
          "internalType": "string",
          "name": "takerContactEmail",
          "type": "string"
        },
        {
          "internalType": "bytes32",
          "name": "takerIBAN",
          "type": "bytes32"
        }
      ],
      "stateMutability": "view",
      "type": "function"
    },
    {
      "inputs": [],
      "name": "getTakerId",
      "outputs": [
        {
          "internalType": "bytes32",
          "name": "takerId",
          "type": "bytes32"
        }
      ],
      "stateMutability": "view",
      "type": "function"
    },
    {
      "inputs": [],
      "name": "serializeInsurance",
      "outputs": [
        {
          "internalType": "bytes",
          "name": "_serializedInsurance",
          "type": "bytes"
        },
        {
          "internalType": "uint256",
          "name": "_size",
          "type": "uint256"
        }
      ],
      "stateMutability": "view",
      "type": "function"
    },
    {
      "inputs": [
        {
          "internalType": "bytes32",
          "name": "_idPCR",
          "type": "bytes32"
        },
        {
          "internalType": "bytes32",
          "name": "_resultPCR",
          "type": "bytes32"
        }
      ],
      "name": "updatePCR",
      "outputs": [],
      "stateMutability": "nonpayable",
      "type": "function"
    }
  ],
  "devdoc": {
    "author": "Eduardo Suarez Ojeda",
    "details": "The Insurance Contract which represents the state of an insurance taken out by a hotel.",
    "kind": "dev",
    "methods": {
      "addPCRtoInsured(bytes32,bytes32,uint256,address)": {
        "details": "Update the PCR mappings."
      },
      "addSpcAddress(address)": {
        "details": "Updates the address of the general contract for security reasons."
      },
      "compensation()": {
        "details": "Emit the sinister event."
      },
      "deletePCR(bytes32)": {
        "details": "Updates the state of the PCR selected."
      },
      "destructContract()": {
        "details": "Only use in extreme situations."
      },
      "serializeInsurance()": {
        "details": "Returns all data of the insurance in an array of bytes."
      },
      "updatePCR(bytes32,bytes32)": {
        "details": "Update the PCR selected and fires Sinister event if the result is positive."
      }
    },
    "title": "Insurance",
    "version": 1
  },
  "evm": {
    "assembly": "    /* \"Insurance.sol\":2146:19724  contract Insurance is Seriality {... */\n  mstore(0x40, 0x80)\n    /* \"Insurance.sol\":4501:7228  constructor(... */\n  callvalue\n  dup1\n  iszero\n  tag_1\n  jumpi\n  0x00\n  dup1\n  revert\ntag_1:\n  pop\n  mload(0x40)\n  sub(codesize, bytecodeSize)\n  dup1\n  bytecodeSize\n  dup4\n  codecopy\n  dup2\n  dup2\n  add\n  0x40\n  mstore\n  dup2\n  add\n  swap1\n  tag_2\n  swap2\n  swap1\n  tag_3\n  jump\t// in\ntag_2:\n    /* \"Insurance.sol\":4959:4969  msg.sender */\n  caller\n    /* \"Insurance.sol\":4943:4948  owner */\n  0x00\n  dup1\n    /* \"Insurance.sol\":4943:4970  owner = payable(msg.sender) */\n  0x0100\n  exp\n  dup2\n  sload\n  dup2\n  0xffffffffffffffffffffffffffffffffffffffff\n  mul\n  not\n  and\n  swap1\n  dup4\n  0xffffffffffffffffffffffffffffffffffffffff\n  and\n  mul\n  or\n  swap1\n  sstore\n  pop\n    /* \"Insurance.sol\":4998:5003  false */\n  0x00\n    /* \"Insurance.sol\":4980:4995  spcAddressAdded */\n  0x01\n  0x14\n    /* \"Insurance.sol\":4980:5003  spcAddressAdded = false */\n  0x0100\n  exp\n  dup2\n  sload\n  dup2\n  0xff\n  mul\n  not\n  and\n  swap1\n  dup4\n  iszero\n  iszero\n  mul\n  or\n  swap1\n  sstore\n  pop\n    /* \"Insurance.sol\":5036:5047  _takerEmail */\n  dup1\n    /* \"Insurance.sol\":5013:5022  takerData */\n  0x11\n    /* \"Insurance.sol\":5013:5033  takerData.takerEmail */\n  0x02\n  add\n    /* \"Insurance.sol\":5013:5047  takerData.takerEmail = _takerEmail */\n  swap1\n  dup1\n  mload\n  swap1\n  0x20\n  add\n  swap1\n  tag_8\n  swap3\n  swap2\n  swap1\n  tag_9\n  jump\t// in\ntag_8:\n  pop\n    /* \"Insurance.sol\":5082:5095  _takerAddress */\n  dup2\n    /* \"Insurance.sol\":5057:5066  takerData */\n  0x11\n    /* \"Insurance.sol\":5057:5079  takerData.takerAddress */\n  0x01\n  add\n    /* \"Insurance.sol\":5057:5095  takerData.takerAddress = _takerAddress */\n  swap1\n  dup1\n  mload\n  swap1\n  0x20\n  add\n  swap1\n  tag_10\n  swap3\n  swap2\n  swap1\n  tag_9\n  jump\t// in\ntag_10:\n  pop\n    /* \"Insurance.sol\":5127:5137  _takerName */\n  dup3\n    /* \"Insurance.sol\":5105:5114  takerData */\n  0x11\n    /* \"Insurance.sol\":5105:5124  takerData.takerName */\n  0x00\n  add\n    /* \"Insurance.sol\":5105:5137  takerData.takerName = _takerName */\n  swap1\n  dup1\n  mload\n  swap1\n  0x20\n  add\n  swap1\n  tag_11\n  swap3\n  swap2\n  swap1\n  tag_9\n  jump\t// in\ntag_11:\n  pop\n    /* \"Insurance.sol\":5168:5178  _takerData */\n  dup4\n    /* \"Insurance.sol\":5179:5180  0 */\n  0x00\n    /* \"Insurance.sol\":5168:5181  _takerData[0] */\n  dup2\n  mload\n  dup2\n  lt\n  tag_12\n  jumpi\n  mstore(0x00, 0x4e487b7100000000000000000000000000000000000000000000000000000000)\n  mstore(0x04, 0x32)\n  revert(0x00, 0x24)\ntag_12:\n  0x20\n  mul\n  0x20\n  add\n  add\n  mload\n    /* \"Insurance.sol\":5147:5156  takerData */\n  0x11\n    /* \"Insurance.sol\":5147:5165  takerData.takerNif */\n  0x04\n  add\n    /* \"Insurance.sol\":5147:5181  takerData.takerNif = _takerData[0] */\n  dup2\n  swap1\n  sstore\n  pop\n    /* \"Insurance.sol\":5219:5229  _takerData */\n  dup4\n    /* \"Insurance.sol\":5230:5231  1 */\n  0x01\n    /* \"Insurance.sol\":5219:5232  _takerData[1] */\n  dup2\n  mload\n  dup2\n  lt\n  tag_13\n  jumpi\n  mstore(0x00, 0x4e487b7100000000000000000000000000000000000000000000000000000000)\n  mstore(0x04, 0x32)\n  revert(0x00, 0x24)\ntag_13:\n  0x20\n  mul\n  0x20\n  add\n  add\n  mload\n    /* \"Insurance.sol\":5191:5200  takerData */\n  0x11\n    /* \"Insurance.sol\":5191:5216  takerData.takerPostalCode */\n  0x05\n  add\n    /* \"Insurance.sol\":5191:5232  takerData.takerPostalCode = _takerData[1] */\n  dup2\n  swap1\n  sstore\n  pop\n    /* \"Insurance.sol\":5264:5274  _takerData */\n  dup4\n    /* \"Insurance.sol\":5275:5276  2 */\n  0x02\n    /* \"Insurance.sol\":5264:5277  _takerData[2] */\n  dup2\n  mload\n  dup2\n  lt\n  tag_14\n  jumpi\n  mstore(0x00, 0x4e487b7100000000000000000000000000000000000000000000000000000000)\n  mstore(0x04, 0x32)\n  revert(0x00, 0x24)\ntag_14:\n  0x20\n  mul\n  0x20\n  add\n  add\n  mload\n    /* \"Insurance.sol\":5242:5251  takerData */\n  0x11\n    /* \"Insurance.sol\":5242:5261  takerData.takerTown */\n  0x06\n  add\n    /* \"Insurance.sol\":5242:5277  takerData.takerTown = _takerData[2] */\n  dup2\n  swap1\n  sstore\n  pop\n    /* \"Insurance.sol\":5313:5323  _takerData */\n  dup4\n    /* \"Insurance.sol\":5324:5325  3 */\n  0x03\n    /* \"Insurance.sol\":5313:5326  _takerData[3] */\n  dup2\n  mload\n  dup2\n  lt\n  tag_15\n  jumpi\n  mstore(0x00, 0x4e487b7100000000000000000000000000000000000000000000000000000000)\n  mstore(0x04, 0x32)\n  revert(0x00, 0x24)\ntag_15:\n  0x20\n  mul\n  0x20\n  add\n  add\n  mload\n    /* \"Insurance.sol\":5287:5296  takerData */\n  0x11\n    /* \"Insurance.sol\":5287:5310  takerData.takerLocation */\n  0x07\n  add\n    /* \"Insurance.sol\":5287:5326  takerData.takerLocation = _takerData[3] */\n  dup2\n  swap1\n  sstore\n  pop\n    /* \"Insurance.sol\":5363:5373  _takerData */\n  dup4\n    /* \"Insurance.sol\":5374:5375  4 */\n  0x04\n    /* \"Insurance.sol\":5363:5376  _takerData[4] */\n  dup2\n  mload\n  dup2\n  lt\n  tag_16\n  jumpi\n  mstore(0x00, 0x4e487b7100000000000000000000000000000000000000000000000000000000)\n  mstore(0x04, 0x32)\n  revert(0x00, 0x24)\ntag_16:\n  0x20\n  mul\n  0x20\n  add\n  add\n  mload\n    /* \"Insurance.sol\":5336:5345  takerData */\n  0x11\n    /* \"Insurance.sol\":5336:5360  takerData.takerTelephone */\n  0x08\n  add\n    /* \"Insurance.sol\":5336:5376  takerData.takerTelephone = _takerData[4] */\n  dup2\n  swap1\n  sstore\n  pop\n    /* \"Insurance.sol\":5410:5420  _takerData */\n  dup4\n    /* \"Insurance.sol\":5421:5422  5 */\n  0x05\n    /* \"Insurance.sol\":5410:5423  _takerData[5] */\n  dup2\n  mload\n  dup2\n  lt\n  tag_17\n  jumpi\n  mstore(0x00, 0x4e487b7100000000000000000000000000000000000000000000000000000000)\n  mstore(0x04, 0x32)\n  revert(0x00, 0x24)\ntag_17:\n  0x20\n  mul\n  0x20\n  add\n  add\n  mload\n    /* \"Insurance.sol\":5386:5395  takerData */\n  0x11\n    /* \"Insurance.sol\":5386:5407  takerData.takerMobile */\n  0x09\n  add\n    /* \"Insurance.sol\":5386:5423  takerData.takerMobile = _takerData[5] */\n  dup2\n  swap1\n  sstore\n  pop\n    /* \"Insurance.sol\":5455:5465  _takerData */\n  dup4\n    /* \"Insurance.sol\":5466:5467  6 */\n  0x06\n    /* \"Insurance.sol\":5455:5468  _takerData[6] */\n  dup2\n  mload\n  dup2\n  lt\n  tag_18\n  jumpi\n  mstore(0x00, 0x4e487b7100000000000000000000000000000000000000000000000000000000)\n  mstore(0x04, 0x32)\n  revert(0x00, 0x24)\ntag_18:\n  0x20\n  mul\n  0x20\n  add\n  add\n  mload\n    /* \"Insurance.sol\":5433:5442  takerData */\n  0x11\n    /* \"Insurance.sol\":5433:5452  takerData.takerIban */\n  0x0a\n  add\n    /* \"Insurance.sol\":5433:5468  takerData.takerIban = _takerData[6] */\n  dup2\n  swap1\n  sstore\n  pop\n    /* \"Insurance.sol\":5526:5527  2 */\n  0x02\n    /* \"Insurance.sol\":5486:5515  _dailyCompensationAndDuration */\n  dup6\n    /* \"Insurance.sol\":5486:5522  _dailyCompensationAndDuration.length */\n  mload\n    /* \"Insurance.sol\":5486:5527  _dailyCompensationAndDuration.length == 2 */\n  eq\n    /* \"Insurance.sol\":5478:5606  require(_dailyCompensationAndDuration.length == 2, \"You have to provide the amount of day compensation and the number of days.\") */\n  tag_19\n  jumpi\n  mload(0x40)\n  0x08c379a000000000000000000000000000000000000000000000000000000000\n  dup2\n  mstore\n  0x04\n  add\n  tag_20\n  swap1\n  tag_21\n  jump\t// in\ntag_20:\n  mload(0x40)\n  dup1\n  swap2\n  sub\n  swap1\n  revert\ntag_19:\n    /* \"Insurance.sol\":5650:5679  _dailyCompensationAndDuration */\n  dup5\n    /* \"Insurance.sol\":5680:5681  0 */\n  0x00\n    /* \"Insurance.sol\":5650:5682  _dailyCompensationAndDuration[0] */\n  dup2\n  mload\n  dup2\n  lt\n  tag_22\n  jumpi\n  mstore(0x00, 0x4e487b7100000000000000000000000000000000000000000000000000000000)\n  mstore(0x04, 0x32)\n  revert(0x00, 0x24)\ntag_22:\n  0x20\n  mul\n  0x20\n  add\n  add\n  mload\n    /* \"Insurance.sol\":5616:5629  insuranceData */\n  0x0a\n    /* \"Insurance.sol\":5616:5647  insuranceData.dailyCompensation */\n  0x00\n  add\n  0x00\n    /* \"Insurance.sol\":5616:5682  insuranceData.dailyCompensation = _dailyCompensationAndDuration[0] */\n  0x0100\n  exp\n  dup2\n  sload\n  dup2\n  0xffff\n  mul\n  not\n  and\n  swap1\n  dup4\n  0xffff\n  and\n  mul\n  or\n  swap1\n  sstore\n  pop\n    /* \"Insurance.sol\":5725:5754  _dailyCompensationAndDuration */\n  dup5\n    /* \"Insurance.sol\":5755:5756  1 */\n  0x01\n    /* \"Insurance.sol\":5725:5757  _dailyCompensationAndDuration[1] */\n  dup2\n  mload\n  dup2\n  lt\n  tag_23\n  jumpi\n  mstore(0x00, 0x4e487b7100000000000000000000000000000000000000000000000000000000)\n  mstore(0x04, 0x32)\n  revert(0x00, 0x24)\ntag_23:\n  0x20\n  mul\n  0x20\n  add\n  add\n  mload\n    /* \"Insurance.sol\":5692:5705  insuranceData */\n  0x0a\n    /* \"Insurance.sol\":5692:5722  insuranceData.daysToCompensate */\n  0x00\n  add\n  0x02\n    /* \"Insurance.sol\":5692:5757  insuranceData.daysToCompensate = _dailyCompensationAndDuration[1] */\n  0x0100\n  exp\n  dup2\n  sload\n  dup2\n  0xffff\n  mul\n  not\n  and\n  swap1\n  dup4\n  0xffff\n  and\n  mul\n  or\n  swap1\n  sstore\n  pop\n    /* \"Insurance.sol\":5811:5812  3 */\n  0x03\n    /* \"Insurance.sol\":5775:5800  _insuranceStartFinishDate */\n  dup7\n    /* \"Insurance.sol\":5775:5807  _insuranceStartFinishDate.length */\n  mload\n    /* \"Insurance.sol\":5775:5812  _insuranceStartFinishDate.length == 3 */\n  eq\n    /* \"Insurance.sol\":5767:5881  require(_insuranceStartFinishDate.length == 3, \"The Policy need a start date, a finish date and a contract date.\") */\n  tag_24\n  jumpi\n  mload(0x40)\n  0x08c379a000000000000000000000000000000000000000000000000000000000\n  dup2\n  mstore\n  0x04\n  add\n  tag_25\n  swap1\n  tag_26\n  jump\t// in\ntag_25:\n  mload(0x40)\n  dup1\n  swap2\n  sub\n  swap1\n  revert\ntag_24:\n    /* \"Insurance.sol\":5930:5955  _insuranceStartFinishDate */\n  dup6\n    /* \"Insurance.sol\":5956:5957  1 */\n  0x01\n    /* \"Insurance.sol\":5930:5958  _insuranceStartFinishDate[1] */\n  dup2\n  mload\n  dup2\n  lt\n  tag_27\n  jumpi\n  mstore(0x00, 0x4e487b7100000000000000000000000000000000000000000000000000000000)\n  mstore(0x04, 0x32)\n  revert(0x00, 0x24)\ntag_27:\n  0x20\n  mul\n  0x20\n  add\n  add\n  mload\n    /* \"Insurance.sol\":5899:5924  _insuranceStartFinishDate */\n  dup7\n    /* \"Insurance.sol\":5925:5926  0 */\n  0x00\n    /* \"Insurance.sol\":5899:5927  _insuranceStartFinishDate[0] */\n  dup2\n  mload\n  dup2\n  lt\n  tag_28\n  jumpi\n  mstore(0x00, 0x4e487b7100000000000000000000000000000000000000000000000000000000)\n  mstore(0x04, 0x32)\n  revert(0x00, 0x24)\ntag_28:\n  0x20\n  mul\n  0x20\n  add\n  add\n  mload\n    /* \"Insurance.sol\":5899:5958  _insuranceStartFinishDate[0] < _insuranceStartFinishDate[1] */\n  lt\n    /* \"Insurance.sol\":5891:6011  require(_insuranceStartFinishDate[0] < _insuranceStartFinishDate[1], \"The start date has to be before the finish date.\") */\n  tag_29\n  jumpi\n  mload(0x40)\n  0x08c379a000000000000000000000000000000000000000000000000000000000\n  dup2\n  mstore\n  0x04\n  add\n  tag_30\n  swap1\n  tag_31\n  jump\t// in\ntag_30:\n  mload(0x40)\n  dup1\n  swap2\n  sub\n  swap1\n  revert\ntag_29:\n    /* \"Insurance.sol\":6056:6081  _insuranceStartFinishDate */\n  dup6\n    /* \"Insurance.sol\":6082:6083  0 */\n  0x00\n    /* \"Insurance.sol\":6056:6084  _insuranceStartFinishDate[0] */\n  dup2\n  mload\n  dup2\n  lt\n  tag_32\n  jumpi\n  mstore(0x00, 0x4e487b7100000000000000000000000000000000000000000000000000000000)\n  mstore(0x04, 0x32)\n  revert(0x00, 0x24)\ntag_32:\n  0x20\n  mul\n  0x20\n  add\n  add\n  mload\n    /* \"Insurance.sol\":6021:6034  insuranceData */\n  0x0a\n    /* \"Insurance.sol\":6021:6053  insuranceData.insuranceStartDate */\n  0x02\n  add\n    /* \"Insurance.sol\":6021:6084  insuranceData.insuranceStartDate = _insuranceStartFinishDate[0] */\n  dup2\n  swap1\n  sstore\n  pop\n    /* \"Insurance.sol\":6131:6156  _insuranceStartFinishDate */\n  dup6\n    /* \"Insurance.sol\":6157:6158  1 */\n  0x01\n    /* \"Insurance.sol\":6131:6159  _insuranceStartFinishDate[1] */\n  dup2\n  mload\n  dup2\n  lt\n  tag_33\n  jumpi\n  mstore(0x00, 0x4e487b7100000000000000000000000000000000000000000000000000000000)\n  mstore(0x04, 0x32)\n  revert(0x00, 0x24)\ntag_33:\n  0x20\n  mul\n  0x20\n  add\n  add\n  mload\n    /* \"Insurance.sol\":6095:6108  insuranceData */\n  0x0a\n    /* \"Insurance.sol\":6095:6128  insuranceData.insuranceFinishDate */\n  0x03\n  add\n    /* \"Insurance.sol\":6095:6159  insuranceData.insuranceFinishDate = _insuranceStartFinishDate[1] */\n  dup2\n  swap1\n  sstore\n  pop\n    /* \"Insurance.sol\":6198:6223  _insuranceStartFinishDate */\n  dup6\n    /* \"Insurance.sol\":6224:6225  2 */\n  0x02\n    /* \"Insurance.sol\":6198:6226  _insuranceStartFinishDate[2] */\n  dup2\n  mload\n  dup2\n  lt\n  tag_34\n  jumpi\n  mstore(0x00, 0x4e487b7100000000000000000000000000000000000000000000000000000000)\n  mstore(0x04, 0x32)\n  revert(0x00, 0x24)\ntag_34:\n  0x20\n  mul\n  0x20\n  add\n  add\n  mload\n    /* \"Insurance.sol\":6169:6182  insuranceData */\n  0x0a\n    /* \"Insurance.sol\":6169:6195  insuranceData.contractDate */\n  0x04\n  add\n    /* \"Insurance.sol\":6169:6226  insuranceData.contractDate = _insuranceStartFinishDate[2] */\n  dup2\n  swap1\n  sstore\n  pop\n    /* \"Insurance.sol\":6261:6270  _insureds */\n  dup7\n    /* \"Insurance.sol\":6236:6249  insuranceData */\n  0x0a\n    /* \"Insurance.sol\":6236:6258  insuranceData.insureds */\n  0x05\n  add\n    /* \"Insurance.sol\":6236:6270  insuranceData.insureds = _insureds */\n  swap1\n  dup1\n  mload\n  swap1\n  0x20\n  add\n  swap1\n  tag_35\n  swap3\n  swap2\n  swap1\n  tag_36\n  jump\t// in\ntag_35:\n  pop\n    /* \"Insurance.sol\":6304:6305  2 */\n  0x02\n    /* \"Insurance.sol\":6289:6293  _ids */\n  dup9\n    /* \"Insurance.sol\":6289:6300  _ids.length */\n  mload\n    /* \"Insurance.sol\":6289:6305  _ids.length == 2 */\n  eq\n    /* \"Insurance.sol\":6281:6346  require(_ids.length == 2, \"Must provide Policy ID and Taker ID.\") */\n  tag_37\n  jumpi\n  mload(0x40)\n  0x08c379a000000000000000000000000000000000000000000000000000000000\n  dup2\n  mstore\n  0x04\n  add\n  tag_38\n  swap1\n  tag_39\n  jump\t// in\ntag_38:\n  mload(0x40)\n  dup1\n  swap2\n  sub\n  swap1\n  revert\ntag_37:\n    /* \"Insurance.sol\":6376:6380  _ids */\n  dup8\n    /* \"Insurance.sol\":6381:6382  1 */\n  0x01\n    /* \"Insurance.sol\":6376:6383  _ids[1] */\n  dup2\n  mload\n  dup2\n  lt\n  tag_40\n  jumpi\n  mstore(0x00, 0x4e487b7100000000000000000000000000000000000000000000000000000000)\n  mstore(0x04, 0x32)\n  revert(0x00, 0x24)\ntag_40:\n  0x20\n  mul\n  0x20\n  add\n  add\n  mload\n    /* \"Insurance.sol\":6356:6365  takerData */\n  0x11\n    /* \"Insurance.sol\":6356:6373  takerData.takerId */\n  0x03\n  add\n    /* \"Insurance.sol\":6356:6383  takerData.takerId = _ids[1] */\n  dup2\n  swap1\n  sstore\n  pop\n    /* \"Insurance.sol\":6412:6416  _ids */\n  dup8\n    /* \"Insurance.sol\":6417:6418  0 */\n  0x00\n    /* \"Insurance.sol\":6412:6419  _ids[0] */\n  dup2\n  mload\n  dup2\n  lt\n  tag_41\n  jumpi\n  mstore(0x00, 0x4e487b7100000000000000000000000000000000000000000000000000000000)\n  mstore(0x04, 0x32)\n  revert(0x00, 0x24)\ntag_41:\n  0x20\n  mul\n  0x20\n  add\n  add\n  mload\n    /* \"Insurance.sol\":6393:6406  insuranceData */\n  0x0a\n    /* \"Insurance.sol\":6393:6409  insuranceData.id */\n  0x01\n  add\n    /* \"Insurance.sol\":6393:6419  insuranceData.id = _ids[0] */\n  dup2\n  swap1\n  sstore\n  pop\n    /* \"Insurance.sol\":6468:6477  _insureds */\n  dup7\n    /* \"Insurance.sol\":6468:6484  _insureds.length */\n  mload\n    /* \"Insurance.sol\":6438:6457  _insuredsNegPcrDate */\n  dup10\n    /* \"Insurance.sol\":6438:6464  _insuredsNegPcrDate.length */\n  mload\n    /* \"Insurance.sol\":6438:6484  _insuredsNegPcrDate.length == _insureds.length */\n  eq\n    /* \"Insurance.sol\":6430:6485  require(_insuredsNegPcrDate.length == _insureds.length) */\n  tag_42\n  jumpi\n  0x00\n  dup1\n  revert\ntag_42:\n    /* \"Insurance.sol\":6533:6542  _insureds */\n  dup7\n    /* \"Insurance.sol\":6533:6549  _insureds.length */\n  mload\n    /* \"Insurance.sol\":6503:6522  _insuredsNegPcrHash */\n  dup11\n    /* \"Insurance.sol\":6503:6529  _insuredsNegPcrHash.length */\n  mload\n    /* \"Insurance.sol\":6503:6549  _insuredsNegPcrHash.length == _insureds.length */\n  eq\n    /* \"Insurance.sol\":6495:6550  require(_insuredsNegPcrHash.length == _insureds.length) */\n  tag_43\n  jumpi\n  0x00\n  dup1\n  revert\ntag_43:\n    /* \"Insurance.sol\":6589:6595  uint i */\n  0x00\n    /* \"Insurance.sol\":6584:6968  for (uint i=0; i < _insureds.length; i++) {... */\ntag_44:\n    /* \"Insurance.sol\":6603:6612  _insureds */\n  dup8\n    /* \"Insurance.sol\":6603:6619  _insureds.length */\n  mload\n    /* \"Insurance.sol\":6599:6600  i */\n  dup2\n    /* \"Insurance.sol\":6599:6619  i < _insureds.length */\n  lt\n    /* \"Insurance.sol\":6584:6968  for (uint i=0; i < _insureds.length; i++) {... */\n  iszero\n  tag_45\n  jumpi\n    /* \"Insurance.sol\":6675:6679  true */\n  0x01\n    /* \"Insurance.sol\":6640:6658  insuredInInsurance */\n  0x04\n    /* \"Insurance.sol\":6640:6672  insuredInInsurance[_insureds[i]] */\n  0x00\n    /* \"Insurance.sol\":6659:6668  _insureds */\n  dup11\n    /* \"Insurance.sol\":6669:6670  i */\n  dup5\n    /* \"Insurance.sol\":6659:6671  _insureds[i] */\n  dup2\n  mload\n  dup2\n  lt\n  tag_47\n  jumpi\n  mstore(0x00, 0x4e487b7100000000000000000000000000000000000000000000000000000000)\n  mstore(0x04, 0x32)\n  revert(0x00, 0x24)\ntag_47:\n  0x20\n  mul\n  0x20\n  add\n  add\n  mload\n    /* \"Insurance.sol\":6640:6672  insuredInInsurance[_insureds[i]] */\n  dup2\n  mstore\n  0x20\n  add\n  swap1\n  dup2\n  mstore\n  0x20\n  add\n  0x00\n  keccak256\n  0x00\n    /* \"Insurance.sol\":6640:6679  insuredInInsurance[_insureds[i]] = true */\n  0x0100\n  exp\n  dup2\n  sload\n  dup2\n  0xff\n  mul\n  not\n  and\n  swap1\n  dup4\n  iszero\n  iszero\n  mul\n  or\n  swap1\n  sstore\n  pop\n    /* \"Insurance.sol\":6746:6752  259200 */\n  0x03f480\n    /* \"Insurance.sol\":6728:6743  block.timestamp */\n  timestamp\n    /* \"Insurance.sol\":6728:6752  block.timestamp - 259200 */\n  tag_48\n  swap2\n  swap1\n  tag_49\n  jump\t// in\ntag_48:\n    /* \"Insurance.sol\":6701:6720  _insuredsNegPcrDate */\n  dup11\n    /* \"Insurance.sol\":6721:6722  i */\n  dup3\n    /* \"Insurance.sol\":6701:6723  _insuredsNegPcrDate[i] */\n  dup2\n  mload\n  dup2\n  lt\n  tag_50\n  jumpi\n  mstore(0x00, 0x4e487b7100000000000000000000000000000000000000000000000000000000)\n  mstore(0x04, 0x32)\n  revert(0x00, 0x24)\ntag_50:\n  0x20\n  mul\n  0x20\n  add\n  add\n  mload\n    /* \"Insurance.sol\":6701:6753  _insuredsNegPcrDate[i] >= (block.timestamp - 259200) */\n  lt\n  iszero\n    /* \"Insurance.sol\":6693:6815  require(_insuredsNegPcrDate[i] >= (block.timestamp - 259200), \"Check that previous PCR has been no more than 3 days ago.\") */\n  tag_51\n  jumpi\n  mload(0x40)\n  0x08c379a000000000000000000000000000000000000000000000000000000000\n  dup2\n  mstore\n  0x04\n  add\n  tag_52\n  swap1\n  tag_53\n  jump\t// in\ntag_52:\n  mload(0x40)\n  dup1\n  swap2\n  sub\n  swap1\n  revert\ntag_51:\n    /* \"Insurance.sol\":6863:6882  _insuredsNegPcrDate */\n  dup10\n    /* \"Insurance.sol\":6883:6884  i */\n  dup2\n    /* \"Insurance.sol\":6863:6885  _insuredsNegPcrDate[i] */\n  dup2\n  mload\n  dup2\n  lt\n  tag_54\n  jumpi\n  mstore(0x00, 0x4e487b7100000000000000000000000000000000000000000000000000000000)\n  mstore(0x04, 0x32)\n  revert(0x00, 0x24)\ntag_54:\n  0x20\n  mul\n  0x20\n  add\n  add\n  mload\n    /* \"Insurance.sol\":6829:6846  insuredNegPcrDate */\n  0x08\n    /* \"Insurance.sol\":6829:6860  insuredNegPcrDate[_insureds[i]] */\n  0x00\n    /* \"Insurance.sol\":6847:6856  _insureds */\n  dup11\n    /* \"Insurance.sol\":6857:6858  i */\n  dup5\n    /* \"Insurance.sol\":6847:6859  _insureds[i] */\n  dup2\n  mload\n  dup2\n  lt\n  tag_55\n  jumpi\n  mstore(0x00, 0x4e487b7100000000000000000000000000000000000000000000000000000000)\n  mstore(0x04, 0x32)\n  revert(0x00, 0x24)\ntag_55:\n  0x20\n  mul\n  0x20\n  add\n  add\n  mload\n    /* \"Insurance.sol\":6829:6860  insuredNegPcrDate[_insureds[i]] */\n  dup2\n  mstore\n  0x20\n  add\n  swap1\n  dup2\n  mstore\n  0x20\n  add\n  0x00\n  keccak256\n    /* \"Insurance.sol\":6829:6885  insuredNegPcrDate[_insureds[i]] = _insuredsNegPcrDate[i] */\n  dup2\n  swap1\n  sstore\n  pop\n    /* \"Insurance.sol\":6934:6953  _insuredsNegPcrHash */\n  dup11\n    /* \"Insurance.sol\":6954:6955  i */\n  dup2\n    /* \"Insurance.sol\":6934:6956  _insuredsNegPcrHash[i] */\n  dup2\n  mload\n  dup2\n  lt\n  tag_56\n  jumpi\n  mstore(0x00, 0x4e487b7100000000000000000000000000000000000000000000000000000000)\n  mstore(0x04, 0x32)\n  revert(0x00, 0x24)\ntag_56:\n  0x20\n  mul\n  0x20\n  add\n  add\n  mload\n    /* \"Insurance.sol\":6899:6916  insuredNegPcrHash */\n  0x07\n    /* \"Insurance.sol\":6899:6930  insuredNegPcrHash[_insureds[i]] */\n  0x00\n    /* \"Insurance.sol\":6917:6926  _insureds */\n  dup11\n    /* \"Insurance.sol\":6927:6928  i */\n  dup5\n    /* \"Insurance.sol\":6917:6929  _insureds[i] */\n  dup2\n  mload\n  dup2\n  lt\n  tag_57\n  jumpi\n  mstore(0x00, 0x4e487b7100000000000000000000000000000000000000000000000000000000)\n  mstore(0x04, 0x32)\n  revert(0x00, 0x24)\ntag_57:\n  0x20\n  mul\n  0x20\n  add\n  add\n  mload\n    /* \"Insurance.sol\":6899:6930  insuredNegPcrHash[_insureds[i]] */\n  dup2\n  mstore\n  0x20\n  add\n  swap1\n  dup2\n  mstore\n  0x20\n  add\n  0x00\n  keccak256\n    /* \"Insurance.sol\":6899:6957  insuredNegPcrHash[_insureds[i]] = (_insuredsNegPcrHash[i]) */\n  dup2\n  swap1\n  sstore\n  pop\n    /* \"Insurance.sol\":6621:6624  i++ */\n  dup1\n  dup1\n  tag_58\n  swap1\n  tag_59\n  jump\t// in\ntag_58:\n  swap2\n  pop\n  pop\n    /* \"Insurance.sol\":6584:6968  for (uint i=0; i < _insureds.length; i++) {... */\n  jump(tag_44)\ntag_45:\n  pop\n    /* \"Insurance.sol\":7013:7026  insuranceData */\n  0x0a\n    /* \"Insurance.sol\":7013:7035  insuranceData.insureds */\n  0x05\n  add\n    /* \"Insurance.sol\":7013:7042  insuranceData.insureds.length */\n  dup1\n  sload\n  swap1\n  pop\n    /* \"Insurance.sol\":6977:7043  insuranceData.insuredNumber = uint8(insuranceData.insureds.length) */\n  0xff\n  and\n    /* \"Insurance.sol\":6977:6990  insuranceData */\n  0x0a\n    /* \"Insurance.sol\":6977:7004  insuranceData.insuredNumber */\n  0x00\n  add\n  0x06\n    /* \"Insurance.sol\":6977:7043  insuranceData.insuredNumber = uint8(insuranceData.insureds.length) */\n  0x0100\n  exp\n  dup2\n  sload\n  dup2\n  0xffff\n  mul\n  not\n  and\n  swap1\n  dup4\n  0xffff\n  and\n  mul\n  or\n  swap1\n  sstore\n  pop\n    /* \"Insurance.sol\":7079:7080  0 */\n  0x00\n    /* \"Insurance.sol\":7053:7066  insuranceData */\n  0x0a\n    /* \"Insurance.sol\":7053:7076  insuranceData.pcrNumber */\n  0x00\n  add\n  0x04\n    /* \"Insurance.sol\":7053:7080  insuranceData.pcrNumber = 0 */\n  0x0100\n  exp\n  dup2\n  sload\n  dup2\n  0xffff\n  mul\n  not\n  and\n  swap1\n  dup4\n  0xffff\n  and\n  mul\n  or\n  swap1\n  sstore\n  pop\n    /* \"Insurance.sol\":7194:7207  insuranceData */\n  0x0a\n    /* \"Insurance.sol\":7194:7221  insuranceData.insuredNumber */\n  0x00\n  add\n  0x06\n  swap1\n  sload\n  swap1\n  0x0100\n  exp\n  swap1\n  div\n  0xffff\n  and\n    /* \"Insurance.sol\":7161:7174  insuranceData */\n  0x0a\n    /* \"Insurance.sol\":7161:7191  insuranceData.daysToCompensate */\n  0x00\n  add\n  0x02\n  swap1\n  sload\n  swap1\n  0x0100\n  exp\n  swap1\n  div\n  0xffff\n  and\n    /* \"Insurance.sol\":7127:7140  insuranceData */\n  0x0a\n    /* \"Insurance.sol\":7127:7158  insuranceData.dailyCompensation */\n  0x00\n  add\n  0x00\n  swap1\n  sload\n  swap1\n  0x0100\n  exp\n  swap1\n  div\n  0xffff\n  and\n    /* \"Insurance.sol\":7127:7191  insuranceData.dailyCompensation * insuranceData.daysToCompensate */\n  tag_60\n  swap2\n  swap1\n  tag_61\n  jump\t// in\ntag_60:\n    /* \"Insurance.sol\":7127:7221  insuranceData.dailyCompensation * insuranceData.daysToCompensate * insuranceData.insuredNumber */\n  tag_62\n  swap2\n  swap1\n  tag_61\n  jump\t// in\ntag_62:\n    /* \"Insurance.sol\":7090:7221  insuranceData.sinisterCompensation = insuranceData.dailyCompensation * insuranceData.daysToCompensate * insuranceData.insuredNumber */\n  0xffff\n  and\n    /* \"Insurance.sol\":7090:7103  insuranceData */\n  0x0a\n    /* \"Insurance.sol\":7090:7124  insuranceData.sinisterCompensation */\n  0x06\n  add\n    /* \"Insurance.sol\":7090:7221  insuranceData.sinisterCompensation = insuranceData.dailyCompensation * insuranceData.daysToCompensate * insuranceData.insuredNumber */\n  dup2\n  swap1\n  sstore\n  pop\n    /* \"Insurance.sol\":4501:7228  constructor(... */\n  pop\n  pop\n  pop\n  pop\n  pop\n  pop\n  pop\n  pop\n  pop\n  pop\n    /* \"Insurance.sol\":2146:19724  contract Insurance is Seriality {... */\n  jump(tag_63)\ntag_9:\n  dup3\n  dup1\n  sload\n  tag_64\n  swap1\n  tag_65\n  jump\t// in\ntag_64:\n  swap1\n  0x00\n  mstore\n  keccak256(0x00, 0x20)\n  swap1\n  0x1f\n  add\n  0x20\n  swap1\n  div\n  dup2\n  add\n  swap3\n  dup3\n  tag_67\n  jumpi\n  0x00\n  dup6\n  sstore\n  jump(tag_66)\ntag_67:\n  dup3\n  0x1f\n  lt\n  tag_68\n  jumpi\n  dup1\n  mload\n  not(0xff)\n  and\n  dup4\n  dup1\n  add\n  or\n  dup6\n  sstore\n  jump(tag_66)\ntag_68:\n  dup3\n  dup1\n  add\n  0x01\n  add\n  dup6\n  sstore\n  dup3\n  iszero\n  tag_66\n  jumpi\n  swap2\n  dup3\n  add\ntag_69:\n  dup3\n  dup2\n  gt\n  iszero\n  tag_70\n  jumpi\n  dup3\n  mload\n  dup3\n  sstore\n  swap2\n  0x20\n  add\n  swap2\n  swap1\n  0x01\n  add\n  swap1\n  jump(tag_69)\ntag_70:\ntag_66:\n  pop\n  swap1\n  pop\n  tag_71\n  swap2\n  swap1\n  tag_72\n  jump\t// in\ntag_71:\n  pop\n  swap1\n  jump\t// out\ntag_36:\n  dup3\n  dup1\n  sload\n  dup3\n  dup3\n  sstore\n  swap1\n  0x00\n  mstore\n  keccak256(0x00, 0x20)\n  swap1\n  dup2\n  add\n  swap3\n  dup3\n  iszero\n  tag_73\n  jumpi\n  swap2\n  0x20\n  mul\n  dup3\n  add\ntag_74:\n  dup3\n  dup2\n  gt\n  iszero\n  tag_75\n  jumpi\n  dup3\n  mload\n  dup3\n  sstore\n  swap2\n  0x20\n  add\n  swap2\n  swap1\n  0x01\n  add\n  swap1\n  jump(tag_74)\ntag_75:\ntag_73:\n  pop\n  swap1\n  pop\n  tag_76\n  swap2\n  swap1\n  tag_77\n  jump\t// in\ntag_76:\n  pop\n  swap1\n  jump\t// out\ntag_72:\ntag_78:\n  dup1\n  dup3\n  gt\n  iszero\n  tag_79\n  jumpi\n  0x00\n  dup2\n  0x00\n  swap1\n  sstore\n  pop\n  0x01\n  add\n  jump(tag_78)\ntag_79:\n  pop\n  swap1\n  jump\t// out\ntag_77:\ntag_80:\n  dup1\n  dup3\n  gt\n  iszero\n  tag_81\n  jumpi\n  0x00\n  dup2\n  0x00\n  swap1\n  sstore\n  pop\n  0x01\n  add\n  jump(tag_80)\ntag_81:\n  pop\n  swap1\n  jump\t// out\n    /* \"#utility.yul\":24:669   */\ntag_83:\n  0x00\n    /* \"#utility.yul\":156:237   */\n  tag_85\n    /* \"#utility.yul\":172:236   */\n  tag_86\n    /* \"#utility.yul\":229:235   */\n  dup5\n    /* \"#utility.yul\":172:236   */\n  tag_87\n  jump\t// in\ntag_86:\n    /* \"#utility.yul\":156:237   */\n  tag_88\n  jump\t// in\ntag_85:\n    /* \"#utility.yul\":147:237   */\n  swap1\n  pop\n    /* \"#utility.yul\":257:262   */\n  dup1\n    /* \"#utility.yul\":285:291   */\n  dup4\n    /* \"#utility.yul\":278:283   */\n  dup3\n    /* \"#utility.yul\":271:292   */\n  mstore\n    /* \"#utility.yul\":311:315   */\n  0x20\n    /* \"#utility.yul\":304:309   */\n  dup3\n    /* \"#utility.yul\":300:316   */\n  add\n    /* \"#utility.yul\":293:316   */\n  swap1\n  pop\n    /* \"#utility.yul\":336:342   */\n  dup3\n    /* \"#utility.yul\":386:389   */\n  dup6\n    /* \"#utility.yul\":378:382   */\n  0x20\n    /* \"#utility.yul\":370:376   */\n  dup7\n    /* \"#utility.yul\":366:383   */\n  mul\n    /* \"#utility.yul\":361:364   */\n  dup3\n    /* \"#utility.yul\":357:384   */\n  add\n    /* \"#utility.yul\":354:390   */\n  gt\n    /* \"#utility.yul\":351:353   */\n  iszero\n  tag_89\n  jumpi\n    /* \"#utility.yul\":403:404   */\n  0x00\n    /* \"#utility.yul\":400:401   */\n  dup1\n    /* \"#utility.yul\":393:405   */\n  revert\n    /* \"#utility.yul\":351:353   */\ntag_89:\n    /* \"#utility.yul\":431:432   */\n  0x00\n    /* \"#utility.yul\":416:663   */\ntag_90:\n    /* \"#utility.yul\":441:447   */\n  dup6\n    /* \"#utility.yul\":438:439   */\n  dup2\n    /* \"#utility.yul\":435:448   */\n  lt\n    /* \"#utility.yul\":416:663   */\n  iszero\n  tag_92\n  jumpi\n    /* \"#utility.yul\":508:511   */\n  dup2\n    /* \"#utility.yul\":536:584   */\n  tag_93\n    /* \"#utility.yul\":580:583   */\n  dup9\n    /* \"#utility.yul\":568:578   */\n  dup3\n    /* \"#utility.yul\":536:584   */\n  tag_94\n  jump\t// in\ntag_93:\n    /* \"#utility.yul\":531:534   */\n  dup5\n    /* \"#utility.yul\":524:585   */\n  mstore\n    /* \"#utility.yul\":614:618   */\n  0x20\n    /* \"#utility.yul\":609:612   */\n  dup5\n    /* \"#utility.yul\":605:619   */\n  add\n    /* \"#utility.yul\":598:619   */\n  swap4\n  pop\n    /* \"#utility.yul\":648:652   */\n  0x20\n    /* \"#utility.yul\":643:646   */\n  dup4\n    /* \"#utility.yul\":639:653   */\n  add\n    /* \"#utility.yul\":632:653   */\n  swap3\n  pop\n    /* \"#utility.yul\":476:663   */\n  pop\n    /* \"#utility.yul\":463:464   */\n  0x01\n    /* \"#utility.yul\":460:461   */\n  dup2\n    /* \"#utility.yul\":456:465   */\n  add\n    /* \"#utility.yul\":451:465   */\n  swap1\n  pop\n    /* \"#utility.yul\":416:663   */\n  jump(tag_90)\ntag_92:\n    /* \"#utility.yul\":420:434   */\n  pop\n    /* \"#utility.yul\":137:669   */\n  pop\n  pop\n  swap4\n  swap3\n  pop\n  pop\n  pop\n  jump\t// out\n    /* \"#utility.yul\":691:1333   */\ntag_95:\n  0x00\n    /* \"#utility.yul\":822:902   */\n  tag_97\n    /* \"#utility.yul\":838:901   */\n  tag_98\n    /* \"#utility.yul\":894:900   */\n  dup5\n    /* \"#utility.yul\":838:901   */\n  tag_99\n  jump\t// in\ntag_98:\n    /* \"#utility.yul\":822:902   */\n  tag_88\n  jump\t// in\ntag_97:\n    /* \"#utility.yul\":813:902   */\n  swap1\n  pop\n    /* \"#utility.yul\":922:927   */\n  dup1\n    /* \"#utility.yul\":950:956   */\n  dup4\n    /* \"#utility.yul\":943:948   */\n  dup3\n    /* \"#utility.yul\":936:957   */\n  mstore\n    /* \"#utility.yul\":976:980   */\n  0x20\n    /* \"#utility.yul\":969:974   */\n  dup3\n    /* \"#utility.yul\":965:981   */\n  add\n    /* \"#utility.yul\":958:981   */\n  swap1\n  pop\n    /* \"#utility.yul\":1001:1007   */\n  dup3\n    /* \"#utility.yul\":1051:1054   */\n  dup6\n    /* \"#utility.yul\":1043:1047   */\n  0x20\n    /* \"#utility.yul\":1035:1041   */\n  dup7\n    /* \"#utility.yul\":1031:1048   */\n  mul\n    /* \"#utility.yul\":1026:1029   */\n  dup3\n    /* \"#utility.yul\":1022:1049   */\n  add\n    /* \"#utility.yul\":1019:1055   */\n  gt\n    /* \"#utility.yul\":1016:1018   */\n  iszero\n  tag_100\n  jumpi\n    /* \"#utility.yul\":1068:1069   */\n  0x00\n    /* \"#utility.yul\":1065:1066   */\n  dup1\n    /* \"#utility.yul\":1058:1070   */\n  revert\n    /* \"#utility.yul\":1016:1018   */\ntag_100:\n    /* \"#utility.yul\":1096:1097   */\n  0x00\n    /* \"#utility.yul\":1081:1327   */\ntag_101:\n    /* \"#utility.yul\":1106:1112   */\n  dup6\n    /* \"#utility.yul\":1103:1104   */\n  dup2\n    /* \"#utility.yul\":1100:1113   */\n  lt\n    /* \"#utility.yul\":1081:1327   */\n  iszero\n  tag_103\n  jumpi\n    /* \"#utility.yul\":1173:1176   */\n  dup2\n    /* \"#utility.yul\":1201:1248   */\n  tag_104\n    /* \"#utility.yul\":1244:1247   */\n  dup9\n    /* \"#utility.yul\":1232:1242   */\n  dup3\n    /* \"#utility.yul\":1201:1248   */\n  tag_105\n  jump\t// in\ntag_104:\n    /* \"#utility.yul\":1196:1199   */\n  dup5\n    /* \"#utility.yul\":1189:1249   */\n  mstore\n    /* \"#utility.yul\":1278:1282   */\n  0x20\n    /* \"#utility.yul\":1273:1276   */\n  dup5\n    /* \"#utility.yul\":1269:1283   */\n  add\n    /* \"#utility.yul\":1262:1283   */\n  swap4\n  pop\n    /* \"#utility.yul\":1312:1316   */\n  0x20\n    /* \"#utility.yul\":1307:1310   */\n  dup4\n    /* \"#utility.yul\":1303:1317   */\n  add\n    /* \"#utility.yul\":1296:1317   */\n  swap3\n  pop\n    /* \"#utility.yul\":1141:1327   */\n  pop\n    /* \"#utility.yul\":1128:1129   */\n  0x01\n    /* \"#utility.yul\":1125:1126   */\n  dup2\n    /* \"#utility.yul\":1121:1130   */\n  add\n    /* \"#utility.yul\":1116:1130   */\n  swap1\n  pop\n    /* \"#utility.yul\":1081:1327   */\n  jump(tag_101)\ntag_103:\n    /* \"#utility.yul\":1085:1099   */\n  pop\n    /* \"#utility.yul\":803:1333   */\n  pop\n  pop\n  swap4\n  swap3\n  pop\n  pop\n  pop\n  jump\t// out\n    /* \"#utility.yul\":1356:2001   */\ntag_106:\n  0x00\n    /* \"#utility.yul\":1488:1569   */\n  tag_108\n    /* \"#utility.yul\":1504:1568   */\n  tag_109\n    /* \"#utility.yul\":1561:1567   */\n  dup5\n    /* \"#utility.yul\":1504:1568   */\n  tag_110\n  jump\t// in\ntag_109:\n    /* \"#utility.yul\":1488:1569   */\n  tag_88\n  jump\t// in\ntag_108:\n    /* \"#utility.yul\":1479:1569   */\n  swap1\n  pop\n    /* \"#utility.yul\":1589:1594   */\n  dup1\n    /* \"#utility.yul\":1617:1623   */\n  dup4\n    /* \"#utility.yul\":1610:1615   */\n  dup3\n    /* \"#utility.yul\":1603:1624   */\n  mstore\n    /* \"#utility.yul\":1643:1647   */\n  0x20\n    /* \"#utility.yul\":1636:1641   */\n  dup3\n    /* \"#utility.yul\":1632:1648   */\n  add\n    /* \"#utility.yul\":1625:1648   */\n  swap1\n  pop\n    /* \"#utility.yul\":1668:1674   */\n  dup3\n    /* \"#utility.yul\":1718:1721   */\n  dup6\n    /* \"#utility.yul\":1710:1714   */\n  0x20\n    /* \"#utility.yul\":1702:1708   */\n  dup7\n    /* \"#utility.yul\":1698:1715   */\n  mul\n    /* \"#utility.yul\":1693:1696   */\n  dup3\n    /* \"#utility.yul\":1689:1716   */\n  add\n    /* \"#utility.yul\":1686:1722   */\n  gt\n    /* \"#utility.yul\":1683:1685   */\n  iszero\n  tag_111\n  jumpi\n    /* \"#utility.yul\":1735:1736   */\n  0x00\n    /* \"#utility.yul\":1732:1733   */\n  dup1\n    /* \"#utility.yul\":1725:1737   */\n  revert\n    /* \"#utility.yul\":1683:1685   */\ntag_111:\n    /* \"#utility.yul\":1763:1764   */\n  0x00\n    /* \"#utility.yul\":1748:1995   */\ntag_112:\n    /* \"#utility.yul\":1773:1779   */\n  dup6\n    /* \"#utility.yul\":1770:1771   */\n  dup2\n    /* \"#utility.yul\":1767:1780   */\n  lt\n    /* \"#utility.yul\":1748:1995   */\n  iszero\n  tag_114\n  jumpi\n    /* \"#utility.yul\":1840:1843   */\n  dup2\n    /* \"#utility.yul\":1868:1916   */\n  tag_115\n    /* \"#utility.yul\":1912:1915   */\n  dup9\n    /* \"#utility.yul\":1900:1910   */\n  dup3\n    /* \"#utility.yul\":1868:1916   */\n  tag_116\n  jump\t// in\ntag_115:\n    /* \"#utility.yul\":1863:1866   */\n  dup5\n    /* \"#utility.yul\":1856:1917   */\n  mstore\n    /* \"#utility.yul\":1946:1950   */\n  0x20\n    /* \"#utility.yul\":1941:1944   */\n  dup5\n    /* \"#utility.yul\":1937:1951   */\n  add\n    /* \"#utility.yul\":1930:1951   */\n  swap4\n  pop\n    /* \"#utility.yul\":1980:1984   */\n  0x20\n    /* \"#utility.yul\":1975:1978   */\n  dup4\n    /* \"#utility.yul\":1971:1985   */\n  add\n    /* \"#utility.yul\":1964:1985   */\n  swap3\n  pop\n    /* \"#utility.yul\":1808:1995   */\n  pop\n    /* \"#utility.yul\":1795:1796   */\n  0x01\n    /* \"#utility.yul\":1792:1793   */\n  dup2\n    /* \"#utility.yul\":1788:1797   */\n  add\n    /* \"#utility.yul\":1783:1797   */\n  swap1\n  pop\n    /* \"#utility.yul\":1748:1995   */\n  jump(tag_112)\ntag_114:\n    /* \"#utility.yul\":1752:1766   */\n  pop\n    /* \"#utility.yul\":1469:2001   */\n  pop\n  pop\n  swap4\n  swap3\n  pop\n  pop\n  pop\n  jump\t// out\n    /* \"#utility.yul\":2007:2361   */\ntag_117:\n  0x00\n    /* \"#utility.yul\":2121:2187   */\n  tag_119\n    /* \"#utility.yul\":2137:2186   */\n  tag_120\n    /* \"#utility.yul\":2179:2185   */\n  dup5\n    /* \"#utility.yul\":2137:2186   */\n  tag_121\n  jump\t// in\ntag_120:\n    /* \"#utility.yul\":2121:2187   */\n  tag_88\n  jump\t// in\ntag_119:\n    /* \"#utility.yul\":2112:2187   */\n  swap1\n  pop\n    /* \"#utility.yul\":2210:2216   */\n  dup3\n    /* \"#utility.yul\":2203:2208   */\n  dup2\n    /* \"#utility.yul\":2196:2217   */\n  mstore\n    /* \"#utility.yul\":2248:2252   */\n  0x20\n    /* \"#utility.yul\":2241:2246   */\n  dup2\n    /* \"#utility.yul\":2237:2253   */\n  add\n    /* \"#utility.yul\":2286:2289   */\n  dup5\n    /* \"#utility.yul\":2277:2283   */\n  dup5\n    /* \"#utility.yul\":2272:2275   */\n  dup5\n    /* \"#utility.yul\":2268:2284   */\n  add\n    /* \"#utility.yul\":2265:2290   */\n  gt\n    /* \"#utility.yul\":2262:2264   */\n  iszero\n  tag_122\n  jumpi\n    /* \"#utility.yul\":2303:2304   */\n  0x00\n    /* \"#utility.yul\":2300:2301   */\n  dup1\n    /* \"#utility.yul\":2293:2305   */\n  revert\n    /* \"#utility.yul\":2262:2264   */\ntag_122:\n    /* \"#utility.yul\":2316:2355   */\n  tag_123\n    /* \"#utility.yul\":2348:2354   */\n  dup5\n    /* \"#utility.yul\":2343:2346   */\n  dup3\n    /* \"#utility.yul\":2338:2341   */\n  dup6\n    /* \"#utility.yul\":2316:2355   */\n  tag_124\n  jump\t// in\ntag_123:\n    /* \"#utility.yul\":2102:2361   */\n  pop\n  swap4\n  swap3\n  pop\n  pop\n  pop\n  jump\t// out\n    /* \"#utility.yul\":2384:2702   */\ntag_125:\n  0x00\n    /* \"#utility.yul\":2515:2518   */\n  dup3\n    /* \"#utility.yul\":2508:2512   */\n  0x1f\n    /* \"#utility.yul\":2500:2506   */\n  dup4\n    /* \"#utility.yul\":2496:2513   */\n  add\n    /* \"#utility.yul\":2492:2519   */\n  slt\n    /* \"#utility.yul\":2482:2484   */\n  tag_127\n  jumpi\n    /* \"#utility.yul\":2533:2534   */\n  0x00\n    /* \"#utility.yul\":2530:2531   */\n  dup1\n    /* \"#utility.yul\":2523:2535   */\n  revert\n    /* \"#utility.yul\":2482:2484   */\ntag_127:\n    /* \"#utility.yul\":2566:2572   */\n  dup2\n    /* \"#utility.yul\":2560:2573   */\n  mload\n    /* \"#utility.yul\":2591:2696   */\n  tag_128\n    /* \"#utility.yul\":2692:2695   */\n  dup5\n    /* \"#utility.yul\":2684:2690   */\n  dup3\n    /* \"#utility.yul\":2677:2681   */\n  0x20\n    /* \"#utility.yul\":2669:2675   */\n  dup7\n    /* \"#utility.yul\":2665:2682   */\n  add\n    /* \"#utility.yul\":2591:2696   */\n  tag_83\n  jump\t// in\ntag_128:\n    /* \"#utility.yul\":2582:2696   */\n  swap2\n  pop\n    /* \"#utility.yul\":2472:2702   */\n  pop\n  swap3\n  swap2\n  pop\n  pop\n  jump\t// out\n    /* \"#utility.yul\":2724:3040   */\ntag_129:\n  0x00\n    /* \"#utility.yul\":2854:2857   */\n  dup3\n    /* \"#utility.yul\":2847:2851   */\n  0x1f\n    /* \"#utility.yul\":2839:2845   */\n  dup4\n    /* \"#utility.yul\":2835:2852   */\n  add\n    /* \"#utility.yul\":2831:2858   */\n  slt\n    /* \"#utility.yul\":2821:2823   */\n  tag_131\n  jumpi\n    /* \"#utility.yul\":2872:2873   */\n  0x00\n    /* \"#utility.yul\":2869:2870   */\n  dup1\n    /* \"#utility.yul\":2862:2874   */\n  revert\n    /* \"#utility.yul\":2821:2823   */\ntag_131:\n    /* \"#utility.yul\":2905:2911   */\n  dup2\n    /* \"#utility.yul\":2899:2912   */\n  mload\n    /* \"#utility.yul\":2930:3034   */\n  tag_132\n    /* \"#utility.yul\":3030:3033   */\n  dup5\n    /* \"#utility.yul\":3022:3028   */\n  dup3\n    /* \"#utility.yul\":3015:3019   */\n  0x20\n    /* \"#utility.yul\":3007:3013   */\n  dup7\n    /* \"#utility.yul\":3003:3020   */\n  add\n    /* \"#utility.yul\":2930:3034   */\n  tag_95\n  jump\t// in\ntag_132:\n    /* \"#utility.yul\":2921:3034   */\n  swap2\n  pop\n    /* \"#utility.yul\":2811:3040   */\n  pop\n  swap3\n  swap2\n  pop\n  pop\n  jump\t// out\n    /* \"#utility.yul\":3063:3381   */\ntag_133:\n  0x00\n    /* \"#utility.yul\":3194:3197   */\n  dup3\n    /* \"#utility.yul\":3187:3191   */\n  0x1f\n    /* \"#utility.yul\":3179:3185   */\n  dup4\n    /* \"#utility.yul\":3175:3192   */\n  add\n    /* \"#utility.yul\":3171:3198   */\n  slt\n    /* \"#utility.yul\":3161:3163   */\n  tag_135\n  jumpi\n    /* \"#utility.yul\":3212:3213   */\n  0x00\n    /* \"#utility.yul\":3209:3210   */\n  dup1\n    /* \"#utility.yul\":3202:3214   */\n  revert\n    /* \"#utility.yul\":3161:3163   */\ntag_135:\n    /* \"#utility.yul\":3245:3251   */\n  dup2\n    /* \"#utility.yul\":3239:3252   */\n  mload\n    /* \"#utility.yul\":3270:3375   */\n  tag_136\n    /* \"#utility.yul\":3371:3374   */\n  dup5\n    /* \"#utility.yul\":3363:3369   */\n  dup3\n    /* \"#utility.yul\":3356:3360   */\n  0x20\n    /* \"#utility.yul\":3348:3354   */\n  dup7\n    /* \"#utility.yul\":3344:3361   */\n  add\n    /* \"#utility.yul\":3270:3375   */\n  tag_106\n  jump\t// in\ntag_136:\n    /* \"#utility.yul\":3261:3375   */\n  swap2\n  pop\n    /* \"#utility.yul\":3151:3381   */\n  pop\n  swap3\n  swap2\n  pop\n  pop\n  jump\t// out\n    /* \"#utility.yul\":3387:3530   */\ntag_94:\n  0x00\n    /* \"#utility.yul\":3475:3481   */\n  dup2\n    /* \"#utility.yul\":3469:3482   */\n  mload\n    /* \"#utility.yul\":3460:3482   */\n  swap1\n  pop\n    /* \"#utility.yul\":3491:3524   */\n  tag_138\n    /* \"#utility.yul\":3518:3523   */\n  dup2\n    /* \"#utility.yul\":3491:3524   */\n  tag_139\n  jump\t// in\ntag_138:\n    /* \"#utility.yul\":3450:3530   */\n  swap3\n  swap2\n  pop\n  pop\n  jump\t// out\n    /* \"#utility.yul\":3550:3838   */\ntag_140:\n  0x00\n    /* \"#utility.yul\":3666:3669   */\n  dup3\n    /* \"#utility.yul\":3659:3663   */\n  0x1f\n    /* \"#utility.yul\":3651:3657   */\n  dup4\n    /* \"#utility.yul\":3647:3664   */\n  add\n    /* \"#utility.yul\":3643:3670   */\n  slt\n    /* \"#utility.yul\":3633:3635   */\n  tag_142\n  jumpi\n    /* \"#utility.yul\":3684:3685   */\n  0x00\n    /* \"#utility.yul\":3681:3682   */\n  dup1\n    /* \"#utility.yul\":3674:3686   */\n  revert\n    /* \"#utility.yul\":3633:3635   */\ntag_142:\n    /* \"#utility.yul\":3717:3723   */\n  dup2\n    /* \"#utility.yul\":3711:3724   */\n  mload\n    /* \"#utility.yul\":3742:3832   */\n  tag_143\n    /* \"#utility.yul\":3828:3831   */\n  dup5\n    /* \"#utility.yul\":3820:3826   */\n  dup3\n    /* \"#utility.yul\":3813:3817   */\n  0x20\n    /* \"#utility.yul\":3805:3811   */\n  dup7\n    /* \"#utility.yul\":3801:3818   */\n  add\n    /* \"#utility.yul\":3742:3832   */\n  tag_117\n  jump\t// in\ntag_143:\n    /* \"#utility.yul\":3733:3832   */\n  swap2\n  pop\n    /* \"#utility.yul\":3623:3838   */\n  pop\n  swap3\n  swap2\n  pop\n  pop\n  jump\t// out\n    /* \"#utility.yul\":3844:3985   */\ntag_105:\n  0x00\n    /* \"#utility.yul\":3931:3937   */\n  dup2\n    /* \"#utility.yul\":3925:3938   */\n  mload\n    /* \"#utility.yul\":3916:3938   */\n  swap1\n  pop\n    /* \"#utility.yul\":3947:3979   */\n  tag_145\n    /* \"#utility.yul\":3973:3978   */\n  dup2\n    /* \"#utility.yul\":3947:3979   */\n  tag_146\n  jump\t// in\ntag_145:\n    /* \"#utility.yul\":3906:3985   */\n  swap3\n  swap2\n  pop\n  pop\n  jump\t// out\n    /* \"#utility.yul\":3991:4134   */\ntag_116:\n  0x00\n    /* \"#utility.yul\":4079:4085   */\n  dup2\n    /* \"#utility.yul\":4073:4086   */\n  mload\n    /* \"#utility.yul\":4064:4086   */\n  swap1\n  pop\n    /* \"#utility.yul\":4095:4128   */\n  tag_148\n    /* \"#utility.yul\":4122:4127   */\n  dup2\n    /* \"#utility.yul\":4095:4128   */\n  tag_149\n  jump\t// in\ntag_148:\n    /* \"#utility.yul\":4054:4134   */\n  swap3\n  swap2\n  pop\n  pop\n  jump\t// out\n    /* \"#utility.yul\":4140:7103   */\ntag_3:\n  0x00\n  dup1\n  0x00\n  dup1\n  0x00\n  dup1\n  0x00\n  dup1\n  0x00\n  dup1\n    /* \"#utility.yul\":4616:4619   */\n  0x0140\n    /* \"#utility.yul\":4604:4613   */\n  dup12\n    /* \"#utility.yul\":4595:4602   */\n  dup14\n    /* \"#utility.yul\":4591:4614   */\n  sub\n    /* \"#utility.yul\":4587:4620   */\n  slt\n    /* \"#utility.yul\":4584:4586   */\n  iszero\n  tag_151\n  jumpi\n    /* \"#utility.yul\":4633:4634   */\n  0x00\n    /* \"#utility.yul\":4630:4631   */\n  dup1\n    /* \"#utility.yul\":4623:4635   */\n  revert\n    /* \"#utility.yul\":4584:4586   */\ntag_151:\n    /* \"#utility.yul\":4697:4698   */\n  0x00\n    /* \"#utility.yul\":4686:4695   */\n  dup12\n    /* \"#utility.yul\":4682:4699   */\n  add\n    /* \"#utility.yul\":4676:4700   */\n  mload\n    /* \"#utility.yul\":4727:4745   */\n  0xffffffffffffffff\n    /* \"#utility.yul\":4719:4725   */\n  dup2\n    /* \"#utility.yul\":4716:4746   */\n  gt\n    /* \"#utility.yul\":4713:4715   */\n  iszero\n  tag_152\n  jumpi\n    /* \"#utility.yul\":4759:4760   */\n  0x00\n    /* \"#utility.yul\":4756:4757   */\n  dup1\n    /* \"#utility.yul\":4749:4761   */\n  revert\n    /* \"#utility.yul\":4713:4715   */\ntag_152:\n    /* \"#utility.yul\":4787:4876   */\n  tag_153\n    /* \"#utility.yul\":4868:4875   */\n  dup14\n    /* \"#utility.yul\":4859:4865   */\n  dup3\n    /* \"#utility.yul\":4848:4857   */\n  dup15\n    /* \"#utility.yul\":4844:4866   */\n  add\n    /* \"#utility.yul\":4787:4876   */\n  tag_125\n  jump\t// in\ntag_153:\n    /* \"#utility.yul\":4777:4876   */\n  swap11\n  pop\n    /* \"#utility.yul\":4647:4886   */\n  pop\n    /* \"#utility.yul\":4946:4948   */\n  0x20\n    /* \"#utility.yul\":4935:4944   */\n  dup12\n    /* \"#utility.yul\":4931:4949   */\n  add\n    /* \"#utility.yul\":4925:4950   */\n  mload\n    /* \"#utility.yul\":4977:4995   */\n  0xffffffffffffffff\n    /* \"#utility.yul\":4969:4975   */\n  dup2\n    /* \"#utility.yul\":4966:4996   */\n  gt\n    /* \"#utility.yul\":4963:4965   */\n  iszero\n  tag_154\n  jumpi\n    /* \"#utility.yul\":5009:5010   */\n  0x00\n    /* \"#utility.yul\":5006:5007   */\n  dup1\n    /* \"#utility.yul\":4999:5011   */\n  revert\n    /* \"#utility.yul\":4963:4965   */\ntag_154:\n    /* \"#utility.yul\":5037:5126   */\n  tag_155\n    /* \"#utility.yul\":5118:5125   */\n  dup14\n    /* \"#utility.yul\":5109:5115   */\n  dup3\n    /* \"#utility.yul\":5098:5107   */\n  dup15\n    /* \"#utility.yul\":5094:5116   */\n  add\n    /* \"#utility.yul\":5037:5126   */\n  tag_133\n  jump\t// in\ntag_155:\n    /* \"#utility.yul\":5027:5126   */\n  swap10\n  pop\n    /* \"#utility.yul\":4896:5136   */\n  pop\n    /* \"#utility.yul\":5196:5198   */\n  0x40\n    /* \"#utility.yul\":5185:5194   */\n  dup12\n    /* \"#utility.yul\":5181:5199   */\n  add\n    /* \"#utility.yul\":5175:5200   */\n  mload\n    /* \"#utility.yul\":5227:5245   */\n  0xffffffffffffffff\n    /* \"#utility.yul\":5219:5225   */\n  dup2\n    /* \"#utility.yul\":5216:5246   */\n  gt\n    /* \"#utility.yul\":5213:5215   */\n  iszero\n  tag_156\n  jumpi\n    /* \"#utility.yul\":5259:5260   */\n  0x00\n    /* \"#utility.yul\":5256:5257   */\n  dup1\n    /* \"#utility.yul\":5249:5261   */\n  revert\n    /* \"#utility.yul\":5213:5215   */\ntag_156:\n    /* \"#utility.yul\":5287:5376   */\n  tag_157\n    /* \"#utility.yul\":5368:5375   */\n  dup14\n    /* \"#utility.yul\":5359:5365   */\n  dup3\n    /* \"#utility.yul\":5348:5357   */\n  dup15\n    /* \"#utility.yul\":5344:5366   */\n  add\n    /* \"#utility.yul\":5287:5376   */\n  tag_125\n  jump\t// in\ntag_157:\n    /* \"#utility.yul\":5277:5376   */\n  swap9\n  pop\n    /* \"#utility.yul\":5146:5386   */\n  pop\n    /* \"#utility.yul\":5446:5448   */\n  0x60\n    /* \"#utility.yul\":5435:5444   */\n  dup12\n    /* \"#utility.yul\":5431:5449   */\n  add\n    /* \"#utility.yul\":5425:5450   */\n  mload\n    /* \"#utility.yul\":5477:5495   */\n  0xffffffffffffffff\n    /* \"#utility.yul\":5469:5475   */\n  dup2\n    /* \"#utility.yul\":5466:5496   */\n  gt\n    /* \"#utility.yul\":5463:5465   */\n  iszero\n  tag_158\n  jumpi\n    /* \"#utility.yul\":5509:5510   */\n  0x00\n    /* \"#utility.yul\":5506:5507   */\n  dup1\n    /* \"#utility.yul\":5499:5511   */\n  revert\n    /* \"#utility.yul\":5463:5465   */\ntag_158:\n    /* \"#utility.yul\":5537:5626   */\n  tag_159\n    /* \"#utility.yul\":5618:5625   */\n  dup14\n    /* \"#utility.yul\":5609:5615   */\n  dup3\n    /* \"#utility.yul\":5598:5607   */\n  dup15\n    /* \"#utility.yul\":5594:5616   */\n  add\n    /* \"#utility.yul\":5537:5626   */\n  tag_125\n  jump\t// in\ntag_159:\n    /* \"#utility.yul\":5527:5626   */\n  swap8\n  pop\n    /* \"#utility.yul\":5396:5636   */\n  pop\n    /* \"#utility.yul\":5696:5699   */\n  0x80\n    /* \"#utility.yul\":5685:5694   */\n  dup12\n    /* \"#utility.yul\":5681:5700   */\n  add\n    /* \"#utility.yul\":5675:5701   */\n  mload\n    /* \"#utility.yul\":5728:5746   */\n  0xffffffffffffffff\n    /* \"#utility.yul\":5720:5726   */\n  dup2\n    /* \"#utility.yul\":5717:5747   */\n  gt\n    /* \"#utility.yul\":5714:5716   */\n  iszero\n  tag_160\n  jumpi\n    /* \"#utility.yul\":5760:5761   */\n  0x00\n    /* \"#utility.yul\":5757:5758   */\n  dup1\n    /* \"#utility.yul\":5750:5762   */\n  revert\n    /* \"#utility.yul\":5714:5716   */\ntag_160:\n    /* \"#utility.yul\":5788:5877   */\n  tag_161\n    /* \"#utility.yul\":5869:5876   */\n  dup14\n    /* \"#utility.yul\":5860:5866   */\n  dup3\n    /* \"#utility.yul\":5849:5858   */\n  dup15\n    /* \"#utility.yul\":5845:5867   */\n  add\n    /* \"#utility.yul\":5788:5877   */\n  tag_133\n  jump\t// in\ntag_161:\n    /* \"#utility.yul\":5778:5877   */\n  swap7\n  pop\n    /* \"#utility.yul\":5646:5887   */\n  pop\n    /* \"#utility.yul\":5947:5950   */\n  0xa0\n    /* \"#utility.yul\":5936:5945   */\n  dup12\n    /* \"#utility.yul\":5932:5951   */\n  add\n    /* \"#utility.yul\":5926:5952   */\n  mload\n    /* \"#utility.yul\":5979:5997   */\n  0xffffffffffffffff\n    /* \"#utility.yul\":5971:5977   */\n  dup2\n    /* \"#utility.yul\":5968:5998   */\n  gt\n    /* \"#utility.yul\":5965:5967   */\n  iszero\n  tag_162\n  jumpi\n    /* \"#utility.yul\":6011:6012   */\n  0x00\n    /* \"#utility.yul\":6008:6009   */\n  dup1\n    /* \"#utility.yul\":6001:6013   */\n  revert\n    /* \"#utility.yul\":5965:5967   */\ntag_162:\n    /* \"#utility.yul\":6039:6127   */\n  tag_163\n    /* \"#utility.yul\":6119:6126   */\n  dup14\n    /* \"#utility.yul\":6110:6116   */\n  dup3\n    /* \"#utility.yul\":6099:6108   */\n  dup15\n    /* \"#utility.yul\":6095:6117   */\n  add\n    /* \"#utility.yul\":6039:6127   */\n  tag_129\n  jump\t// in\ntag_163:\n    /* \"#utility.yul\":6029:6127   */\n  swap6\n  pop\n    /* \"#utility.yul\":5897:6137   */\n  pop\n    /* \"#utility.yul\":6197:6200   */\n  0xc0\n    /* \"#utility.yul\":6186:6195   */\n  dup12\n    /* \"#utility.yul\":6182:6201   */\n  add\n    /* \"#utility.yul\":6176:6202   */\n  mload\n    /* \"#utility.yul\":6229:6247   */\n  0xffffffffffffffff\n    /* \"#utility.yul\":6221:6227   */\n  dup2\n    /* \"#utility.yul\":6218:6248   */\n  gt\n    /* \"#utility.yul\":6215:6217   */\n  iszero\n  tag_164\n  jumpi\n    /* \"#utility.yul\":6261:6262   */\n  0x00\n    /* \"#utility.yul\":6258:6259   */\n  dup1\n    /* \"#utility.yul\":6251:6263   */\n  revert\n    /* \"#utility.yul\":6215:6217   */\ntag_164:\n    /* \"#utility.yul\":6289:6378   */\n  tag_165\n    /* \"#utility.yul\":6370:6377   */\n  dup14\n    /* \"#utility.yul\":6361:6367   */\n  dup3\n    /* \"#utility.yul\":6350:6359   */\n  dup15\n    /* \"#utility.yul\":6346:6368   */\n  add\n    /* \"#utility.yul\":6289:6378   */\n  tag_125\n  jump\t// in\ntag_165:\n    /* \"#utility.yul\":6279:6378   */\n  swap5\n  pop\n    /* \"#utility.yul\":6147:6388   */\n  pop\n    /* \"#utility.yul\":6448:6451   */\n  0xe0\n    /* \"#utility.yul\":6437:6446   */\n  dup12\n    /* \"#utility.yul\":6433:6452   */\n  add\n    /* \"#utility.yul\":6427:6453   */\n  mload\n    /* \"#utility.yul\":6480:6498   */\n  0xffffffffffffffff\n    /* \"#utility.yul\":6472:6478   */\n  dup2\n    /* \"#utility.yul\":6469:6499   */\n  gt\n    /* \"#utility.yul\":6466:6468   */\n  iszero\n  tag_166\n  jumpi\n    /* \"#utility.yul\":6512:6513   */\n  0x00\n    /* \"#utility.yul\":6509:6510   */\n  dup1\n    /* \"#utility.yul\":6502:6514   */\n  revert\n    /* \"#utility.yul\":6466:6468   */\ntag_166:\n    /* \"#utility.yul\":6540:6614   */\n  tag_167\n    /* \"#utility.yul\":6606:6613   */\n  dup14\n    /* \"#utility.yul\":6597:6603   */\n  dup3\n    /* \"#utility.yul\":6586:6595   */\n  dup15\n    /* \"#utility.yul\":6582:6604   */\n  add\n    /* \"#utility.yul\":6540:6614   */\n  tag_140\n  jump\t// in\ntag_167:\n    /* \"#utility.yul\":6530:6614   */\n  swap4\n  pop\n    /* \"#utility.yul\":6398:6624   */\n  pop\n    /* \"#utility.yul\":6684:6687   */\n  0x0100\n    /* \"#utility.yul\":6673:6682   */\n  dup12\n    /* \"#utility.yul\":6669:6688   */\n  add\n    /* \"#utility.yul\":6663:6689   */\n  mload\n    /* \"#utility.yul\":6716:6734   */\n  0xffffffffffffffff\n    /* \"#utility.yul\":6708:6714   */\n  dup2\n    /* \"#utility.yul\":6705:6735   */\n  gt\n    /* \"#utility.yul\":6702:6704   */\n  iszero\n  tag_168\n  jumpi\n    /* \"#utility.yul\":6748:6749   */\n  0x00\n    /* \"#utility.yul\":6745:6746   */\n  dup1\n    /* \"#utility.yul\":6738:6750   */\n  revert\n    /* \"#utility.yul\":6702:6704   */\ntag_168:\n    /* \"#utility.yul\":6776:6850   */\n  tag_169\n    /* \"#utility.yul\":6842:6849   */\n  dup14\n    /* \"#utility.yul\":6833:6839   */\n  dup3\n    /* \"#utility.yul\":6822:6831   */\n  dup15\n    /* \"#utility.yul\":6818:6840   */\n  add\n    /* \"#utility.yul\":6776:6850   */\n  tag_140\n  jump\t// in\ntag_169:\n    /* \"#utility.yul\":6766:6850   */\n  swap3\n  pop\n    /* \"#utility.yul\":6634:6860   */\n  pop\n    /* \"#utility.yul\":6920:6923   */\n  0x0120\n    /* \"#utility.yul\":6909:6918   */\n  dup12\n    /* \"#utility.yul\":6905:6924   */\n  add\n    /* \"#utility.yul\":6899:6925   */\n  mload\n    /* \"#utility.yul\":6952:6970   */\n  0xffffffffffffffff\n    /* \"#utility.yul\":6944:6950   */\n  dup2\n    /* \"#utility.yul\":6941:6971   */\n  gt\n    /* \"#utility.yul\":6938:6940   */\n  iszero\n  tag_170\n  jumpi\n    /* \"#utility.yul\":6984:6985   */\n  0x00\n    /* \"#utility.yul\":6981:6982   */\n  dup1\n    /* \"#utility.yul\":6974:6986   */\n  revert\n    /* \"#utility.yul\":6938:6940   */\ntag_170:\n    /* \"#utility.yul\":7012:7086   */\n  tag_171\n    /* \"#utility.yul\":7078:7085   */\n  dup14\n    /* \"#utility.yul\":7069:7075   */\n  dup3\n    /* \"#utility.yul\":7058:7067   */\n  dup15\n    /* \"#utility.yul\":7054:7076   */\n  add\n    /* \"#utility.yul\":7012:7086   */\n  tag_140\n  jump\t// in\ntag_171:\n    /* \"#utility.yul\":7002:7086   */\n  swap2\n  pop\n    /* \"#utility.yul\":6870:7096   */\n  pop\n    /* \"#utility.yul\":4574:7103   */\n  swap3\n  swap6\n  swap9\n  swap12\n  swap2\n  swap5\n  swap8\n  swap11\n  pop\n  swap3\n  swap6\n  swap9\n  pop\n  jump\t// out\n    /* \"#utility.yul\":7109:7475   */\ntag_172:\n  0x00\n    /* \"#utility.yul\":7272:7339   */\n  tag_174\n    /* \"#utility.yul\":7336:7338   */\n  0x39\n    /* \"#utility.yul\":7331:7334   */\n  dup4\n    /* \"#utility.yul\":7272:7339   */\n  tag_175\n  jump\t// in\ntag_174:\n    /* \"#utility.yul\":7265:7339   */\n  swap2\n  pop\n    /* \"#utility.yul\":7348:7441   */\n  tag_176\n    /* \"#utility.yul\":7437:7440   */\n  dup3\n    /* \"#utility.yul\":7348:7441   */\n  tag_177\n  jump\t// in\ntag_176:\n    /* \"#utility.yul\":7466:7468   */\n  0x40\n    /* \"#utility.yul\":7461:7464   */\n  dup3\n    /* \"#utility.yul\":7457:7469   */\n  add\n    /* \"#utility.yul\":7450:7469   */\n  swap1\n  pop\n    /* \"#utility.yul\":7255:7475   */\n  swap2\n  swap1\n  pop\n  jump\t// out\n    /* \"#utility.yul\":7481:7847   */\ntag_178:\n  0x00\n    /* \"#utility.yul\":7644:7711   */\n  tag_180\n    /* \"#utility.yul\":7708:7710   */\n  0x4a\n    /* \"#utility.yul\":7703:7706   */\n  dup4\n    /* \"#utility.yul\":7644:7711   */\n  tag_175\n  jump\t// in\ntag_180:\n    /* \"#utility.yul\":7637:7711   */\n  swap2\n  pop\n    /* \"#utility.yul\":7720:7813   */\n  tag_181\n    /* \"#utility.yul\":7809:7812   */\n  dup3\n    /* \"#utility.yul\":7720:7813   */\n  tag_182\n  jump\t// in\ntag_181:\n    /* \"#utility.yul\":7838:7840   */\n  0x60\n    /* \"#utility.yul\":7833:7836   */\n  dup3\n    /* \"#utility.yul\":7829:7841   */\n  add\n    /* \"#utility.yul\":7822:7841   */\n  swap1\n  pop\n    /* \"#utility.yul\":7627:7847   */\n  swap2\n  swap1\n  pop\n  jump\t// out\n    /* \"#utility.yul\":7853:8219   */\ntag_183:\n  0x00\n    /* \"#utility.yul\":8016:8083   */\n  tag_185\n    /* \"#utility.yul\":8080:8082   */\n  0x24\n    /* \"#utility.yul\":8075:8078   */\n  dup4\n    /* \"#utility.yul\":8016:8083   */\n  tag_175\n  jump\t// in\ntag_185:\n    /* \"#utility.yul\":8009:8083   */\n  swap2\n  pop\n    /* \"#utility.yul\":8092:8185   */\n  tag_186\n    /* \"#utility.yul\":8181:8184   */\n  dup3\n    /* \"#utility.yul\":8092:8185   */\n  tag_187\n  jump\t// in\ntag_186:\n    /* \"#utility.yul\":8210:8212   */\n  0x40\n    /* \"#utility.yul\":8205:8208   */\n  dup3\n    /* \"#utility.yul\":8201:8213   */\n  add\n    /* \"#utility.yul\":8194:8213   */\n  swap1\n  pop\n    /* \"#utility.yul\":7999:8219   */\n  swap2\n  swap1\n  pop\n  jump\t// out\n    /* \"#utility.yul\":8225:8591   */\ntag_188:\n  0x00\n    /* \"#utility.yul\":8388:8455   */\n  tag_190\n    /* \"#utility.yul\":8452:8454   */\n  0x30\n    /* \"#utility.yul\":8447:8450   */\n  dup4\n    /* \"#utility.yul\":8388:8455   */\n  tag_175\n  jump\t// in\ntag_190:\n    /* \"#utility.yul\":8381:8455   */\n  swap2\n  pop\n    /* \"#utility.yul\":8464:8557   */\n  tag_191\n    /* \"#utility.yul\":8553:8556   */\n  dup3\n    /* \"#utility.yul\":8464:8557   */\n  tag_192\n  jump\t// in\ntag_191:\n    /* \"#utility.yul\":8582:8584   */\n  0x40\n    /* \"#utility.yul\":8577:8580   */\n  dup3\n    /* \"#utility.yul\":8573:8585   */\n  add\n    /* \"#utility.yul\":8566:8585   */\n  swap1\n  pop\n    /* \"#utility.yul\":8371:8591   */\n  swap2\n  swap1\n  pop\n  jump\t// out\n    /* \"#utility.yul\":8597:8963   */\ntag_193:\n  0x00\n    /* \"#utility.yul\":8760:8827   */\n  tag_195\n    /* \"#utility.yul\":8824:8826   */\n  0x40\n    /* \"#utility.yul\":8819:8822   */\n  dup4\n    /* \"#utility.yul\":8760:8827   */\n  tag_175\n  jump\t// in\ntag_195:\n    /* \"#utility.yul\":8753:8827   */\n  swap2\n  pop\n    /* \"#utility.yul\":8836:8929   */\n  tag_196\n    /* \"#utility.yul\":8925:8928   */\n  dup3\n    /* \"#utility.yul\":8836:8929   */\n  tag_197\n  jump\t// in\ntag_196:\n    /* \"#utility.yul\":8954:8956   */\n  0x40\n    /* \"#utility.yul\":8949:8952   */\n  dup3\n    /* \"#utility.yul\":8945:8957   */\n  add\n    /* \"#utility.yul\":8938:8957   */\n  swap1\n  pop\n    /* \"#utility.yul\":8743:8963   */\n  swap2\n  swap1\n  pop\n  jump\t// out\n    /* \"#utility.yul\":8969:9388   */\ntag_53:\n  0x00\n    /* \"#utility.yul\":9173:9175   */\n  0x20\n    /* \"#utility.yul\":9162:9171   */\n  dup3\n    /* \"#utility.yul\":9158:9176   */\n  add\n    /* \"#utility.yul\":9150:9176   */\n  swap1\n  pop\n    /* \"#utility.yul\":9222:9231   */\n  dup2\n    /* \"#utility.yul\":9216:9220   */\n  dup2\n    /* \"#utility.yul\":9212:9232   */\n  sub\n    /* \"#utility.yul\":9208:9209   */\n  0x00\n    /* \"#utility.yul\":9197:9206   */\n  dup4\n    /* \"#utility.yul\":9193:9210   */\n  add\n    /* \"#utility.yul\":9186:9233   */\n  mstore\n    /* \"#utility.yul\":9250:9381   */\n  tag_199\n    /* \"#utility.yul\":9376:9380   */\n  dup2\n    /* \"#utility.yul\":9250:9381   */\n  tag_172\n  jump\t// in\ntag_199:\n    /* \"#utility.yul\":9242:9381   */\n  swap1\n  pop\n    /* \"#utility.yul\":9140:9388   */\n  swap2\n  swap1\n  pop\n  jump\t// out\n    /* \"#utility.yul\":9394:9813   */\ntag_21:\n  0x00\n    /* \"#utility.yul\":9598:9600   */\n  0x20\n    /* \"#utility.yul\":9587:9596   */\n  dup3\n    /* \"#utility.yul\":9583:9601   */\n  add\n    /* \"#utility.yul\":9575:9601   */\n  swap1\n  pop\n    /* \"#utility.yul\":9647:9656   */\n  dup2\n    /* \"#utility.yul\":9641:9645   */\n  dup2\n    /* \"#utility.yul\":9637:9657   */\n  sub\n    /* \"#utility.yul\":9633:9634   */\n  0x00\n    /* \"#utility.yul\":9622:9631   */\n  dup4\n    /* \"#utility.yul\":9618:9635   */\n  add\n    /* \"#utility.yul\":9611:9658   */\n  mstore\n    /* \"#utility.yul\":9675:9806   */\n  tag_201\n    /* \"#utility.yul\":9801:9805   */\n  dup2\n    /* \"#utility.yul\":9675:9806   */\n  tag_178\n  jump\t// in\ntag_201:\n    /* \"#utility.yul\":9667:9806   */\n  swap1\n  pop\n    /* \"#utility.yul\":9565:9813   */\n  swap2\n  swap1\n  pop\n  jump\t// out\n    /* \"#utility.yul\":9819:10238   */\ntag_39:\n  0x00\n    /* \"#utility.yul\":10023:10025   */\n  0x20\n    /* \"#utility.yul\":10012:10021   */\n  dup3\n    /* \"#utility.yul\":10008:10026   */\n  add\n    /* \"#utility.yul\":10000:10026   */\n  swap1\n  pop\n    /* \"#utility.yul\":10072:10081   */\n  dup2\n    /* \"#utility.yul\":10066:10070   */\n  dup2\n    /* \"#utility.yul\":10062:10082   */\n  sub\n    /* \"#utility.yul\":10058:10059   */\n  0x00\n    /* \"#utility.yul\":10047:10056   */\n  dup4\n    /* \"#utility.yul\":10043:10060   */\n  add\n    /* \"#utility.yul\":10036:10083   */\n  mstore\n    /* \"#utility.yul\":10100:10231   */\n  tag_203\n    /* \"#utility.yul\":10226:10230   */\n  dup2\n    /* \"#utility.yul\":10100:10231   */\n  tag_183\n  jump\t// in\ntag_203:\n    /* \"#utility.yul\":10092:10231   */\n  swap1\n  pop\n    /* \"#utility.yul\":9990:10238   */\n  swap2\n  swap1\n  pop\n  jump\t// out\n    /* \"#utility.yul\":10244:10663   */\ntag_31:\n  0x00\n    /* \"#utility.yul\":10448:10450   */\n  0x20\n    /* \"#utility.yul\":10437:10446   */\n  dup3\n    /* \"#utility.yul\":10433:10451   */\n  add\n    /* \"#utility.yul\":10425:10451   */\n  swap1\n  pop\n    /* \"#utility.yul\":10497:10506   */\n  dup2\n    /* \"#utility.yul\":10491:10495   */\n  dup2\n    /* \"#utility.yul\":10487:10507   */\n  sub\n    /* \"#utility.yul\":10483:10484   */\n  0x00\n    /* \"#utility.yul\":10472:10481   */\n  dup4\n    /* \"#utility.yul\":10468:10485   */\n  add\n    /* \"#utility.yul\":10461:10508   */\n  mstore\n    /* \"#utility.yul\":10525:10656   */\n  tag_205\n    /* \"#utility.yul\":10651:10655   */\n  dup2\n    /* \"#utility.yul\":10525:10656   */\n  tag_188\n  jump\t// in\ntag_205:\n    /* \"#utility.yul\":10517:10656   */\n  swap1\n  pop\n    /* \"#utility.yul\":10415:10663   */\n  swap2\n  swap1\n  pop\n  jump\t// out\n    /* \"#utility.yul\":10669:11088   */\ntag_26:\n  0x00\n    /* \"#utility.yul\":10873:10875   */\n  0x20\n    /* \"#utility.yul\":10862:10871   */\n  dup3\n    /* \"#utility.yul\":10858:10876   */\n  add\n    /* \"#utility.yul\":10850:10876   */\n  swap1\n  pop\n    /* \"#utility.yul\":10922:10931   */\n  dup2\n    /* \"#utility.yul\":10916:10920   */\n  dup2\n    /* \"#utility.yul\":10912:10932   */\n  sub\n    /* \"#utility.yul\":10908:10909   */\n  0x00\n    /* \"#utility.yul\":10897:10906   */\n  dup4\n    /* \"#utility.yul\":10893:10910   */\n  add\n    /* \"#utility.yul\":10886:10933   */\n  mstore\n    /* \"#utility.yul\":10950:11081   */\n  tag_207\n    /* \"#utility.yul\":11076:11080   */\n  dup2\n    /* \"#utility.yul\":10950:11081   */\n  tag_193\n  jump\t// in\ntag_207:\n    /* \"#utility.yul\":10942:11081   */\n  swap1\n  pop\n    /* \"#utility.yul\":10840:11088   */\n  swap2\n  swap1\n  pop\n  jump\t// out\n    /* \"#utility.yul\":11094:11223   */\ntag_88:\n  0x00\n    /* \"#utility.yul\":11155:11175   */\n  tag_209\n  tag_210\n  jump\t// in\ntag_209:\n    /* \"#utility.yul\":11145:11175   */\n  swap1\n  pop\n    /* \"#utility.yul\":11184:11217   */\n  tag_211\n    /* \"#utility.yul\":11212:11216   */\n  dup3\n    /* \"#utility.yul\":11204:11210   */\n  dup3\n    /* \"#utility.yul\":11184:11217   */\n  tag_212\n  jump\t// in\ntag_211:\n    /* \"#utility.yul\":11135:11223   */\n  swap2\n  swap1\n  pop\n  jump\t// out\n    /* \"#utility.yul\":11229:11304   */\ntag_210:\n  0x00\n    /* \"#utility.yul\":11295:11297   */\n  0x40\n    /* \"#utility.yul\":11289:11298   */\n  mload\n    /* \"#utility.yul\":11279:11298   */\n  swap1\n  pop\n    /* \"#utility.yul\":11269:11304   */\n  swap1\n  jump\t// out\n    /* \"#utility.yul\":11310:11621   */\ntag_87:\n  0x00\n    /* \"#utility.yul\":11477:11495   */\n  0xffffffffffffffff\n    /* \"#utility.yul\":11469:11475   */\n  dup3\n    /* \"#utility.yul\":11466:11496   */\n  gt\n    /* \"#utility.yul\":11463:11465   */\n  iszero\n  tag_215\n  jumpi\n    /* \"#utility.yul\":11499:11517   */\n  tag_216\n  tag_217\n  jump\t// in\ntag_216:\n    /* \"#utility.yul\":11463:11465   */\ntag_215:\n    /* \"#utility.yul\":11549:11553   */\n  0x20\n    /* \"#utility.yul\":11541:11547   */\n  dup3\n    /* \"#utility.yul\":11537:11554   */\n  mul\n    /* \"#utility.yul\":11529:11554   */\n  swap1\n  pop\n    /* \"#utility.yul\":11609:11613   */\n  0x20\n    /* \"#utility.yul\":11603:11607   */\n  dup2\n    /* \"#utility.yul\":11599:11614   */\n  add\n    /* \"#utility.yul\":11591:11614   */\n  swap1\n  pop\n    /* \"#utility.yul\":11392:11621   */\n  swap2\n  swap1\n  pop\n  jump\t// out\n    /* \"#utility.yul\":11627:11937   */\ntag_99:\n  0x00\n    /* \"#utility.yul\":11793:11811   */\n  0xffffffffffffffff\n    /* \"#utility.yul\":11785:11791   */\n  dup3\n    /* \"#utility.yul\":11782:11812   */\n  gt\n    /* \"#utility.yul\":11779:11781   */\n  iszero\n  tag_219\n  jumpi\n    /* \"#utility.yul\":11815:11833   */\n  tag_220\n  tag_217\n  jump\t// in\ntag_220:\n    /* \"#utility.yul\":11779:11781   */\ntag_219:\n    /* \"#utility.yul\":11865:11869   */\n  0x20\n    /* \"#utility.yul\":11857:11863   */\n  dup3\n    /* \"#utility.yul\":11853:11870   */\n  mul\n    /* \"#utility.yul\":11845:11870   */\n  swap1\n  pop\n    /* \"#utility.yul\":11925:11929   */\n  0x20\n    /* \"#utility.yul\":11919:11923   */\n  dup2\n    /* \"#utility.yul\":11915:11930   */\n  add\n    /* \"#utility.yul\":11907:11930   */\n  swap1\n  pop\n    /* \"#utility.yul\":11708:11937   */\n  swap2\n  swap1\n  pop\n  jump\t// out\n    /* \"#utility.yul\":11943:12254   */\ntag_110:\n  0x00\n    /* \"#utility.yul\":12110:12128   */\n  0xffffffffffffffff\n    /* \"#utility.yul\":12102:12108   */\n  dup3\n    /* \"#utility.yul\":12099:12129   */\n  gt\n    /* \"#utility.yul\":12096:12098   */\n  iszero\n  tag_222\n  jumpi\n    /* \"#utility.yul\":12132:12150   */\n  tag_223\n  tag_217\n  jump\t// in\ntag_223:\n    /* \"#utility.yul\":12096:12098   */\ntag_222:\n    /* \"#utility.yul\":12182:12186   */\n  0x20\n    /* \"#utility.yul\":12174:12180   */\n  dup3\n    /* \"#utility.yul\":12170:12187   */\n  mul\n    /* \"#utility.yul\":12162:12187   */\n  swap1\n  pop\n    /* \"#utility.yul\":12242:12246   */\n  0x20\n    /* \"#utility.yul\":12236:12240   */\n  dup2\n    /* \"#utility.yul\":12232:12247   */\n  add\n    /* \"#utility.yul\":12224:12247   */\n  swap1\n  pop\n    /* \"#utility.yul\":12025:12254   */\n  swap2\n  swap1\n  pop\n  jump\t// out\n    /* \"#utility.yul\":12260:12568   */\ntag_121:\n  0x00\n    /* \"#utility.yul\":12412:12430   */\n  0xffffffffffffffff\n    /* \"#utility.yul\":12404:12410   */\n  dup3\n    /* \"#utility.yul\":12401:12431   */\n  gt\n    /* \"#utility.yul\":12398:12400   */\n  iszero\n  tag_225\n  jumpi\n    /* \"#utility.yul\":12434:12452   */\n  tag_226\n  tag_217\n  jump\t// in\ntag_226:\n    /* \"#utility.yul\":12398:12400   */\ntag_225:\n    /* \"#utility.yul\":12472:12501   */\n  tag_227\n    /* \"#utility.yul\":12494:12500   */\n  dup3\n    /* \"#utility.yul\":12472:12501   */\n  tag_228\n  jump\t// in\ntag_227:\n    /* \"#utility.yul\":12464:12501   */\n  swap1\n  pop\n    /* \"#utility.yul\":12556:12560   */\n  0x20\n    /* \"#utility.yul\":12550:12554   */\n  dup2\n    /* \"#utility.yul\":12546:12561   */\n  add\n    /* \"#utility.yul\":12538:12561   */\n  swap1\n  pop\n    /* \"#utility.yul\":12327:12568   */\n  swap2\n  swap1\n  pop\n  jump\t// out\n    /* \"#utility.yul\":12574:12743   */\ntag_175:\n  0x00\n    /* \"#utility.yul\":12692:12698   */\n  dup3\n    /* \"#utility.yul\":12687:12690   */\n  dup3\n    /* \"#utility.yul\":12680:12699   */\n  mstore\n    /* \"#utility.yul\":12732:12736   */\n  0x20\n    /* \"#utility.yul\":12727:12730   */\n  dup3\n    /* \"#utility.yul\":12723:12737   */\n  add\n    /* \"#utility.yul\":12708:12737   */\n  swap1\n  pop\n    /* \"#utility.yul\":12670:12743   */\n  swap3\n  swap2\n  pop\n  pop\n  jump\t// out\n    /* \"#utility.yul\":12749:13034   */\ntag_61:\n  0x00\n    /* \"#utility.yul\":12811:12830   */\n  tag_231\n    /* \"#utility.yul\":12828:12829   */\n  dup3\n    /* \"#utility.yul\":12811:12830   */\n  tag_232\n  jump\t// in\ntag_231:\n    /* \"#utility.yul\":12806:12830   */\n  swap2\n  pop\n    /* \"#utility.yul\":12844:12863   */\n  tag_233\n    /* \"#utility.yul\":12861:12862   */\n  dup4\n    /* \"#utility.yul\":12844:12863   */\n  tag_232\n  jump\t// in\ntag_233:\n    /* \"#utility.yul\":12839:12863   */\n  swap3\n  pop\n    /* \"#utility.yul\":12971:12972   */\n  dup2\n    /* \"#utility.yul\":12963:12969   */\n  0xffff\n    /* \"#utility.yul\":12959:12973   */\n  div\n    /* \"#utility.yul\":12956:12957   */\n  dup4\n    /* \"#utility.yul\":12953:12974   */\n  gt\n    /* \"#utility.yul\":12948:12949   */\n  dup3\n    /* \"#utility.yul\":12941:12950   */\n  iszero\n    /* \"#utility.yul\":12934:12951   */\n  iszero\n    /* \"#utility.yul\":12930:12975   */\n  and\n    /* \"#utility.yul\":12927:12929   */\n  iszero\n  tag_234\n  jumpi\n    /* \"#utility.yul\":12978:12996   */\n  tag_235\n  tag_236\n  jump\t// in\ntag_235:\n    /* \"#utility.yul\":12927:12929   */\ntag_234:\n    /* \"#utility.yul\":13026:13027   */\n  dup3\n    /* \"#utility.yul\":13023:13024   */\n  dup3\n    /* \"#utility.yul\":13019:13028   */\n  mul\n    /* \"#utility.yul\":13008:13028   */\n  swap1\n  pop\n    /* \"#utility.yul\":12796:13034   */\n  swap3\n  swap2\n  pop\n  pop\n  jump\t// out\n    /* \"#utility.yul\":13040:13231   */\ntag_49:\n  0x00\n    /* \"#utility.yul\":13100:13120   */\n  tag_238\n    /* \"#utility.yul\":13118:13119   */\n  dup3\n    /* \"#utility.yul\":13100:13120   */\n  tag_239\n  jump\t// in\ntag_238:\n    /* \"#utility.yul\":13095:13120   */\n  swap2\n  pop\n    /* \"#utility.yul\":13134:13154   */\n  tag_240\n    /* \"#utility.yul\":13152:13153   */\n  dup4\n    /* \"#utility.yul\":13134:13154   */\n  tag_239\n  jump\t// in\ntag_240:\n    /* \"#utility.yul\":13129:13154   */\n  swap3\n  pop\n    /* \"#utility.yul\":13173:13174   */\n  dup3\n    /* \"#utility.yul\":13170:13171   */\n  dup3\n    /* \"#utility.yul\":13167:13175   */\n  lt\n    /* \"#utility.yul\":13164:13166   */\n  iszero\n  tag_241\n  jumpi\n    /* \"#utility.yul\":13178:13196   */\n  tag_242\n  tag_236\n  jump\t// in\ntag_242:\n    /* \"#utility.yul\":13164:13166   */\ntag_241:\n    /* \"#utility.yul\":13223:13224   */\n  dup3\n    /* \"#utility.yul\":13220:13221   */\n  dup3\n    /* \"#utility.yul\":13216:13225   */\n  sub\n    /* \"#utility.yul\":13208:13225   */\n  swap1\n  pop\n    /* \"#utility.yul\":13085:13231   */\n  swap3\n  swap2\n  pop\n  pop\n  jump\t// out\n    /* \"#utility.yul\":13237:13314   */\ntag_243:\n  0x00\n    /* \"#utility.yul\":13303:13308   */\n  dup2\n    /* \"#utility.yul\":13292:13308   */\n  swap1\n  pop\n    /* \"#utility.yul\":13282:13314   */\n  swap2\n  swap1\n  pop\n  jump\t// out\n    /* \"#utility.yul\":13320:13409   */\ntag_232:\n  0x00\n    /* \"#utility.yul\":13396:13402   */\n  0xffff\n    /* \"#utility.yul\":13389:13394   */\n  dup3\n    /* \"#utility.yul\":13385:13403   */\n  and\n    /* \"#utility.yul\":13374:13403   */\n  swap1\n  pop\n    /* \"#utility.yul\":13364:13409   */\n  swap2\n  swap1\n  pop\n  jump\t// out\n    /* \"#utility.yul\":13415:13492   */\ntag_239:\n  0x00\n    /* \"#utility.yul\":13481:13486   */\n  dup2\n    /* \"#utility.yul\":13470:13486   */\n  swap1\n  pop\n    /* \"#utility.yul\":13460:13492   */\n  swap2\n  swap1\n  pop\n  jump\t// out\n    /* \"#utility.yul\":13498:13805   */\ntag_124:\n    /* \"#utility.yul\":13566:13567   */\n  0x00\n    /* \"#utility.yul\":13576:13689   */\ntag_248:\n    /* \"#utility.yul\":13590:13596   */\n  dup4\n    /* \"#utility.yul\":13587:13588   */\n  dup2\n    /* \"#utility.yul\":13584:13597   */\n  lt\n    /* \"#utility.yul\":13576:13689   */\n  iszero\n  tag_250\n  jumpi\n    /* \"#utility.yul\":13675:13676   */\n  dup1\n    /* \"#utility.yul\":13670:13673   */\n  dup3\n    /* \"#utility.yul\":13666:13677   */\n  add\n    /* \"#utility.yul\":13660:13678   */\n  mload\n    /* \"#utility.yul\":13656:13657   */\n  dup2\n    /* \"#utility.yul\":13651:13654   */\n  dup5\n    /* \"#utility.yul\":13647:13658   */\n  add\n    /* \"#utility.yul\":13640:13679   */\n  mstore\n    /* \"#utility.yul\":13612:13614   */\n  0x20\n    /* \"#utility.yul\":13609:13610   */\n  dup2\n    /* \"#utility.yul\":13605:13615   */\n  add\n    /* \"#utility.yul\":13600:13615   */\n  swap1\n  pop\n    /* \"#utility.yul\":13576:13689   */\n  jump(tag_248)\ntag_250:\n    /* \"#utility.yul\":13707:13713   */\n  dup4\n    /* \"#utility.yul\":13704:13705   */\n  dup2\n    /* \"#utility.yul\":13701:13714   */\n  gt\n    /* \"#utility.yul\":13698:13700   */\n  iszero\n  tag_251\n  jumpi\n    /* \"#utility.yul\":13787:13788   */\n  0x00\n    /* \"#utility.yul\":13778:13784   */\n  dup5\n    /* \"#utility.yul\":13773:13776   */\n  dup5\n    /* \"#utility.yul\":13769:13785   */\n  add\n    /* \"#utility.yul\":13762:13789   */\n  mstore\n    /* \"#utility.yul\":13698:13700   */\ntag_251:\n    /* \"#utility.yul\":13547:13805   */\n  pop\n  pop\n  pop\n  pop\n  jump\t// out\n    /* \"#utility.yul\":13811:14131   */\ntag_65:\n  0x00\n    /* \"#utility.yul\":13892:13893   */\n  0x02\n    /* \"#utility.yul\":13886:13890   */\n  dup3\n    /* \"#utility.yul\":13882:13894   */\n  div\n    /* \"#utility.yul\":13872:13894   */\n  swap1\n  pop\n    /* \"#utility.yul\":13939:13940   */\n  0x01\n    /* \"#utility.yul\":13933:13937   */\n  dup3\n    /* \"#utility.yul\":13929:13941   */\n  and\n    /* \"#utility.yul\":13960:13978   */\n  dup1\n    /* \"#utility.yul\":13950:13952   */\n  tag_253\n  jumpi\n    /* \"#utility.yul\":14016:14020   */\n  0x7f\n    /* \"#utility.yul\":14008:14014   */\n  dup3\n    /* \"#utility.yul\":14004:14021   */\n  and\n    /* \"#utility.yul\":13994:14021   */\n  swap2\n  pop\n    /* \"#utility.yul\":13950:13952   */\ntag_253:\n    /* \"#utility.yul\":14078:14080   */\n  0x20\n    /* \"#utility.yul\":14070:14076   */\n  dup3\n    /* \"#utility.yul\":14067:14081   */\n  lt\n    /* \"#utility.yul\":14047:14065   */\n  dup2\n    /* \"#utility.yul\":14044:14082   */\n  eq\n    /* \"#utility.yul\":14041:14043   */\n  iszero\n  tag_254\n  jumpi\n    /* \"#utility.yul\":14097:14115   */\n  tag_255\n  tag_256\n  jump\t// in\ntag_255:\n    /* \"#utility.yul\":14041:14043   */\ntag_254:\n    /* \"#utility.yul\":13862:14131   */\n  pop\n  swap2\n  swap1\n  pop\n  jump\t// out\n    /* \"#utility.yul\":14137:14418   */\ntag_212:\n    /* \"#utility.yul\":14220:14247   */\n  tag_258\n    /* \"#utility.yul\":14242:14246   */\n  dup3\n    /* \"#utility.yul\":14220:14247   */\n  tag_228\n  jump\t// in\ntag_258:\n    /* \"#utility.yul\":14212:14218   */\n  dup2\n    /* \"#utility.yul\":14208:14248   */\n  add\n    /* \"#utility.yul\":14350:14356   */\n  dup2\n    /* \"#utility.yul\":14338:14348   */\n  dup2\n    /* \"#utility.yul\":14335:14357   */\n  lt\n    /* \"#utility.yul\":14314:14332   */\n  0xffffffffffffffff\n    /* \"#utility.yul\":14302:14312   */\n  dup3\n    /* \"#utility.yul\":14299:14333   */\n  gt\n    /* \"#utility.yul\":14296:14358   */\n  or\n    /* \"#utility.yul\":14293:14295   */\n  iszero\n  tag_259\n  jumpi\n    /* \"#utility.yul\":14361:14379   */\n  tag_260\n  tag_217\n  jump\t// in\ntag_260:\n    /* \"#utility.yul\":14293:14295   */\ntag_259:\n    /* \"#utility.yul\":14401:14411   */\n  dup1\n    /* \"#utility.yul\":14397:14399   */\n  0x40\n    /* \"#utility.yul\":14390:14412   */\n  mstore\n    /* \"#utility.yul\":14180:14418   */\n  pop\n  pop\n  pop\n  jump\t// out\n    /* \"#utility.yul\":14424:14657   */\ntag_59:\n  0x00\n    /* \"#utility.yul\":14486:14510   */\n  tag_262\n    /* \"#utility.yul\":14504:14509   */\n  dup3\n    /* \"#utility.yul\":14486:14510   */\n  tag_239\n  jump\t// in\ntag_262:\n    /* \"#utility.yul\":14477:14510   */\n  swap2\n  pop\n    /* \"#utility.yul\":14532:14598   */\n  0xffffffffffffffffffffffffffffffffffffffffffffffffffffffffffffffff\n    /* \"#utility.yul\":14525:14530   */\n  dup3\n    /* \"#utility.yul\":14522:14599   */\n  eq\n    /* \"#utility.yul\":14519:14521   */\n  iszero\n  tag_263\n  jumpi\n    /* \"#utility.yul\":14602:14620   */\n  tag_264\n  tag_236\n  jump\t// in\ntag_264:\n    /* \"#utility.yul\":14519:14521   */\ntag_263:\n    /* \"#utility.yul\":14649:14650   */\n  0x01\n    /* \"#utility.yul\":14642:14647   */\n  dup3\n    /* \"#utility.yul\":14638:14651   */\n  add\n    /* \"#utility.yul\":14631:14651   */\n  swap1\n  pop\n    /* \"#utility.yul\":14467:14657   */\n  swap2\n  swap1\n  pop\n  jump\t// out\n    /* \"#utility.yul\":14663:14843   */\ntag_236:\n    /* \"#utility.yul\":14711:14788   */\n  0x4e487b7100000000000000000000000000000000000000000000000000000000\n    /* \"#utility.yul\":14708:14709   */\n  0x00\n    /* \"#utility.yul\":14701:14789   */\n  mstore\n    /* \"#utility.yul\":14808:14812   */\n  0x11\n    /* \"#utility.yul\":14805:14806   */\n  0x04\n    /* \"#utility.yul\":14798:14813   */\n  mstore\n    /* \"#utility.yul\":14832:14836   */\n  0x24\n    /* \"#utility.yul\":14829:14830   */\n  0x00\n    /* \"#utility.yul\":14822:14837   */\n  revert\n    /* \"#utility.yul\":14849:15029   */\ntag_256:\n    /* \"#utility.yul\":14897:14974   */\n  0x4e487b7100000000000000000000000000000000000000000000000000000000\n    /* \"#utility.yul\":14894:14895   */\n  0x00\n    /* \"#utility.yul\":14887:14975   */\n  mstore\n    /* \"#utility.yul\":14994:14998   */\n  0x22\n    /* \"#utility.yul\":14991:14992   */\n  0x04\n    /* \"#utility.yul\":14984:14999   */\n  mstore\n    /* \"#utility.yul\":15018:15022   */\n  0x24\n    /* \"#utility.yul\":15015:15016   */\n  0x00\n    /* \"#utility.yul\":15008:15023   */\n  revert\n    /* \"#utility.yul\":15035:15215   */\ntag_217:\n    /* \"#utility.yul\":15083:15160   */\n  0x4e487b7100000000000000000000000000000000000000000000000000000000\n    /* \"#utility.yul\":15080:15081   */\n  0x00\n    /* \"#utility.yul\":15073:15161   */\n  mstore\n    /* \"#utility.yul\":15180:15184   */\n  0x41\n    /* \"#utility.yul\":15177:15178   */\n  0x04\n    /* \"#utility.yul\":15170:15185   */\n  mstore\n    /* \"#utility.yul\":15204:15208   */\n  0x24\n    /* \"#utility.yul\":15201:15202   */\n  0x00\n    /* \"#utility.yul\":15194:15209   */\n  revert\n    /* \"#utility.yul\":15221:15323   */\ntag_228:\n  0x00\n    /* \"#utility.yul\":15313:15315   */\n  0x1f\n    /* \"#utility.yul\":15309:15316   */\n  not\n    /* \"#utility.yul\":15304:15306   */\n  0x1f\n    /* \"#utility.yul\":15297:15302   */\n  dup4\n    /* \"#utility.yul\":15293:15307   */\n  add\n    /* \"#utility.yul\":15289:15317   */\n  and\n    /* \"#utility.yul\":15279:15317   */\n  swap1\n  pop\n    /* \"#utility.yul\":15269:15323   */\n  swap2\n  swap1\n  pop\n  jump\t// out\n    /* \"#utility.yul\":15329:15573   */\ntag_177:\n    /* \"#utility.yul\":15469:15503   */\n  0x436865636b20746861742070726576696f75732050435220686173206265656e\n    /* \"#utility.yul\":15465:15466   */\n  0x00\n    /* \"#utility.yul\":15457:15463   */\n  dup3\n    /* \"#utility.yul\":15453:15467   */\n  add\n    /* \"#utility.yul\":15446:15504   */\n  mstore\n    /* \"#utility.yul\":15538:15565   */\n  0x206e6f206d6f7265207468616e203320646179732061676f2e00000000000000\n    /* \"#utility.yul\":15533:15535   */\n  0x20\n    /* \"#utility.yul\":15525:15531   */\n  dup3\n    /* \"#utility.yul\":15521:15536   */\n  add\n    /* \"#utility.yul\":15514:15566   */\n  mstore\n    /* \"#utility.yul\":15435:15573   */\n  pop\n  jump\t// out\n    /* \"#utility.yul\":15579:15877   */\ntag_182:\n    /* \"#utility.yul\":15719:15753   */\n  0x596f75206861766520746f2070726f766964652074686520616d6f756e74206f\n    /* \"#utility.yul\":15715:15716   */\n  0x00\n    /* \"#utility.yul\":15707:15713   */\n  dup3\n    /* \"#utility.yul\":15703:15717   */\n  add\n    /* \"#utility.yul\":15696:15754   */\n  mstore\n    /* \"#utility.yul\":15788:15822   */\n  0x662064617920636f6d70656e736174696f6e20616e6420746865206e756d6265\n    /* \"#utility.yul\":15783:15785   */\n  0x20\n    /* \"#utility.yul\":15775:15781   */\n  dup3\n    /* \"#utility.yul\":15771:15786   */\n  add\n    /* \"#utility.yul\":15764:15823   */\n  mstore\n    /* \"#utility.yul\":15857:15869   */\n  0x72206f6620646179732e00000000000000000000000000000000000000000000\n    /* \"#utility.yul\":15852:15854   */\n  0x40\n    /* \"#utility.yul\":15844:15850   */\n  dup3\n    /* \"#utility.yul\":15840:15855   */\n  add\n    /* \"#utility.yul\":15833:15870   */\n  mstore\n    /* \"#utility.yul\":15685:15877   */\n  pop\n  jump\t// out\n    /* \"#utility.yul\":15883:16106   */\ntag_187:\n    /* \"#utility.yul\":16023:16057   */\n  0x4d7573742070726f7669646520506f6c69637920494420616e642054616b6572\n    /* \"#utility.yul\":16019:16020   */\n  0x00\n    /* \"#utility.yul\":16011:16017   */\n  dup3\n    /* \"#utility.yul\":16007:16021   */\n  add\n    /* \"#utility.yul\":16000:16058   */\n  mstore\n    /* \"#utility.yul\":16092:16098   */\n  0x2049442e00000000000000000000000000000000000000000000000000000000\n    /* \"#utility.yul\":16087:16089   */\n  0x20\n    /* \"#utility.yul\":16079:16085   */\n  dup3\n    /* \"#utility.yul\":16075:16090   */\n  add\n    /* \"#utility.yul\":16068:16099   */\n  mstore\n    /* \"#utility.yul\":15989:16106   */\n  pop\n  jump\t// out\n    /* \"#utility.yul\":16112:16347   */\ntag_192:\n    /* \"#utility.yul\":16252:16286   */\n  0x54686520737461727420646174652068617320746f206265206265666f726520\n    /* \"#utility.yul\":16248:16249   */\n  0x00\n    /* \"#utility.yul\":16240:16246   */\n  dup3\n    /* \"#utility.yul\":16236:16250   */\n  add\n    /* \"#utility.yul\":16229:16287   */\n  mstore\n    /* \"#utility.yul\":16321:16339   */\n  0x7468652066696e69736820646174652e00000000000000000000000000000000\n    /* \"#utility.yul\":16316:16318   */\n  0x20\n    /* \"#utility.yul\":16308:16314   */\n  dup3\n    /* \"#utility.yul\":16304:16319   */\n  add\n    /* \"#utility.yul\":16297:16340   */\n  mstore\n    /* \"#utility.yul\":16218:16347   */\n  pop\n  jump\t// out\n    /* \"#utility.yul\":16353:16604   */\ntag_197:\n    /* \"#utility.yul\":16493:16527   */\n  0x54686520506f6c696379206e656564206120737461727420646174652c206120\n    /* \"#utility.yul\":16489:16490   */\n  0x00\n    /* \"#utility.yul\":16481:16487   */\n  dup3\n    /* \"#utility.yul\":16477:16491   */\n  add\n    /* \"#utility.yul\":16470:16528   */\n  mstore\n    /* \"#utility.yul\":16562:16596   */\n  0x66696e697368206461746520616e64206120636f6e747261637420646174652e\n    /* \"#utility.yul\":16557:16559   */\n  0x20\n    /* \"#utility.yul\":16549:16555   */\n  dup3\n    /* \"#utility.yul\":16545:16560   */\n  add\n    /* \"#utility.yul\":16538:16597   */\n  mstore\n    /* \"#utility.yul\":16459:16604   */\n  pop\n  jump\t// out\n    /* \"#utility.yul\":16610:16732   */\ntag_139:\n    /* \"#utility.yul\":16683:16707   */\n  tag_275\n    /* \"#utility.yul\":16701:16706   */\n  dup2\n    /* \"#utility.yul\":16683:16707   */\n  tag_243\n  jump\t// in\ntag_275:\n    /* \"#utility.yul\":16676:16681   */\n  dup2\n    /* \"#utility.yul\":16673:16708   */\n  eq\n    /* \"#utility.yul\":16663:16665   */\n  tag_276\n  jumpi\n    /* \"#utility.yul\":16722:16723   */\n  0x00\n    /* \"#utility.yul\":16719:16720   */\n  dup1\n    /* \"#utility.yul\":16712:16724   */\n  revert\n    /* \"#utility.yul\":16663:16665   */\ntag_276:\n    /* \"#utility.yul\":16653:16732   */\n  pop\n  jump\t// out\n    /* \"#utility.yul\":16738:16858   */\ntag_146:\n    /* \"#utility.yul\":16810:16833   */\n  tag_278\n    /* \"#utility.yul\":16827:16832   */\n  dup2\n    /* \"#utility.yul\":16810:16833   */\n  tag_232\n  jump\t// in\ntag_278:\n    /* \"#utility.yul\":16803:16808   */\n  dup2\n    /* \"#utility.yul\":16800:16834   */\n  eq\n    /* \"#utility.yul\":16790:16792   */\n  tag_279\n  jumpi\n    /* \"#utility.yul\":16848:16849   */\n  0x00\n    /* \"#utility.yul\":16845:16846   */\n  dup1\n    /* \"#utility.yul\":16838:16850   */\n  revert\n    /* \"#utility.yul\":16790:16792   */\ntag_279:\n    /* \"#utility.yul\":16780:16858   */\n  pop\n  jump\t// out\n    /* \"#utility.yul\":16864:16986   */\ntag_149:\n    /* \"#utility.yul\":16937:16961   */\n  tag_281\n    /* \"#utility.yul\":16955:16960   */\n  dup2\n    /* \"#utility.yul\":16937:16961   */\n  tag_239\n  jump\t// in\ntag_281:\n    /* \"#utility.yul\":16930:16935   */\n  dup2\n    /* \"#utility.yul\":16927:16962   */\n  eq\n    /* \"#utility.yul\":16917:16919   */\n  tag_282\n  jumpi\n    /* \"#utility.yul\":16976:16977   */\n  0x00\n    /* \"#utility.yul\":16973:16974   */\n  dup1\n    /* \"#utility.yul\":16966:16978   */\n  revert\n    /* \"#utility.yul\":16917:16919   */\ntag_282:\n    /* \"#utility.yul\":16907:16986   */\n  pop\n  jump\t// out\n    /* \"Insurance.sol\":2146:19724  contract Insurance is Seriality {... */\ntag_63:\n  dataSize(sub_0)\n  dup1\n  dataOffset(sub_0)\n  0x00\n  codecopy\n  0x00\n  return\nstop\n\nsub_0: assembly {\n        /* \"Insurance.sol\":2146:19724  contract Insurance is Seriality {... */\n      mstore(0x40, 0x80)\n      callvalue\n      dup1\n      iszero\n      tag_1\n      jumpi\n      0x00\n      dup1\n      revert\n    tag_1:\n      pop\n      jumpi(tag_2, lt(calldatasize, 0x04))\n      shr(0xe0, calldataload(0x00))\n      dup1\n      0x5d1ca631\n      gt\n      tag_15\n      jumpi\n      dup1\n      0x5d1ca631\n      eq\n      tag_9\n      jumpi\n      dup1\n      0x62a681b3\n      eq\n      tag_10\n      jumpi\n      dup1\n      0x92ed93d0\n      eq\n      tag_11\n      jumpi\n      dup1\n      0x9499e018\n      eq\n      tag_12\n      jumpi\n      dup1\n      0xe0caf0bd\n      eq\n      tag_13\n      jumpi\n      dup1\n      0xfc1c7a70\n      eq\n      tag_14\n      jumpi\n      jump(tag_2)\n    tag_15:\n      dup1\n      0x169e68c3\n      eq\n      tag_3\n      jumpi\n      dup1\n      0x2357aef3\n      eq\n      tag_4\n      jumpi\n      dup1\n      0x236f45d9\n      eq\n      tag_5\n      jumpi\n      dup1\n      0x297e6306\n      eq\n      tag_6\n      jumpi\n      dup1\n      0x2f0519d4\n      eq\n      tag_7\n      jumpi\n      dup1\n      0x40d5ff58\n      eq\n      tag_8\n      jumpi\n    tag_2:\n      0x00\n      dup1\n      revert\n        /* \"Insurance.sol\":9988:10579  function getPCR(bytes32 _idPCR) public view returns(... */\n    tag_3:\n      tag_16\n      0x04\n      dup1\n      calldatasize\n      sub\n      dup2\n      add\n      swap1\n      tag_17\n      swap2\n      swap1\n      tag_18\n      jump\t// in\n    tag_17:\n      tag_19\n      jump\t// in\n    tag_16:\n      mload(0x40)\n      tag_20\n      swap7\n      swap6\n      swap5\n      swap4\n      swap3\n      swap2\n      swap1\n      tag_21\n      jump\t// in\n    tag_20:\n      mload(0x40)\n      dup1\n      swap2\n      sub\n      swap1\n      return\n        /* \"Insurance.sol\":8670:9379  function updatePCR(bytes32 _idPCR, bytes32 _resultPCR) public {... */\n    tag_4:\n      tag_22\n      0x04\n      dup1\n      calldatasize\n      sub\n      dup2\n      add\n      swap1\n      tag_23\n      swap2\n      swap1\n      tag_24\n      jump\t// in\n    tag_23:\n      tag_25\n      jump\t// in\n    tag_22:\n      stop\n        /* \"Insurance.sol\":12603:19185  function serializeInsurance() external view returns (bytes memory _serializedInsurance, uint256 _size) {... */\n    tag_5:\n      tag_26\n      tag_27\n      jump\t// in\n    tag_26:\n      mload(0x40)\n      tag_28\n      swap3\n      swap2\n      swap1\n      tag_29\n      jump\t// in\n    tag_28:\n      mload(0x40)\n      dup1\n      swap2\n      sub\n      swap1\n      return\n        /* \"Insurance.sol\":12282:12443  function addSpcAddress(address _spcAddress) external {... */\n    tag_6:\n      tag_30\n      0x04\n      dup1\n      calldatasize\n      sub\n      dup2\n      add\n      swap1\n      tag_31\n      swap2\n      swap1\n      tag_32\n      jump\t// in\n    tag_31:\n      tag_33\n      jump\t// in\n    tag_30:\n      stop\n        /* \"Insurance.sol\":7670:8485  function addPCRtoInsured(... */\n    tag_7:\n      tag_34\n      0x04\n      dup1\n      calldatasize\n      sub\n      dup2\n      add\n      swap1\n      tag_35\n      swap2\n      swap1\n      tag_36\n      jump\t// in\n    tag_35:\n      tag_37\n      jump\t// in\n    tag_34:\n      stop\n        /* \"Insurance.sol\":7332:7583  function compensation() public {... */\n    tag_8:\n      tag_38\n      tag_39\n      jump\t// in\n    tag_38:\n      stop\n        /* \"Insurance.sol\":19405:19505  function getId() external view returns(bytes32 insuranceId) {... */\n    tag_9:\n      tag_40\n      tag_41\n      jump\t// in\n    tag_40:\n      mload(0x40)\n      tag_42\n      swap2\n      swap1\n      tag_43\n      jump\t// in\n    tag_42:\n      mload(0x40)\n      dup1\n      swap2\n      sub\n      swap1\n      return\n        /* \"Insurance.sol\":9500:9932  function deletePCR(bytes32 _idPCR) public returns(address _pcrContractAddress) {... */\n    tag_10:\n      tag_44\n      0x04\n      dup1\n      calldatasize\n      sub\n      dup2\n      add\n      swap1\n      tag_45\n      swap2\n      swap1\n      tag_18\n      jump\t// in\n    tag_45:\n      tag_46\n      jump\t// in\n    tag_44:\n      mload(0x40)\n      tag_47\n      swap2\n      swap1\n      tag_48\n      jump\t// in\n    tag_47:\n      mload(0x40)\n      dup1\n      swap2\n      sub\n      swap1\n      return\n        /* \"Insurance.sol\":11519:12109  function getInsuranceData() external view returns(... */\n    tag_11:\n      tag_49\n      tag_50\n      jump\t// in\n    tag_49:\n      mload(0x40)\n      tag_51\n      swap8\n      swap7\n      swap6\n      swap5\n      swap4\n      swap3\n      swap2\n      swap1\n      tag_52\n      jump\t// in\n    tag_51:\n      mload(0x40)\n      dup1\n      swap2\n      sub\n      swap1\n      return\n        /* \"Insurance.sol\":19611:19722  function destructContract() external {... */\n    tag_12:\n      tag_53\n      tag_54\n      jump\t// in\n    tag_53:\n      stop\n        /* \"Insurance.sol\":10644:11450  function getTakerData() external view returns(... */\n    tag_13:\n      tag_55\n      tag_56\n      jump\t// in\n    tag_55:\n      mload(0x40)\n      tag_57\n      swap12\n      swap11\n      swap10\n      swap9\n      swap8\n      swap7\n      swap6\n      swap5\n      swap4\n      swap3\n      swap2\n      swap1\n      tag_58\n      jump\t// in\n    tag_57:\n      mload(0x40)\n      dup1\n      swap2\n      sub\n      swap1\n      return\n        /* \"Insurance.sol\":19242:19344  function getTakerId() external view returns(bytes32 takerId) {... */\n    tag_14:\n      tag_59\n      tag_60\n      jump\t// in\n    tag_59:\n      mload(0x40)\n      tag_61\n      swap2\n      swap1\n      tag_43\n      jump\t// in\n    tag_61:\n      mload(0x40)\n      dup1\n      swap2\n      sub\n      swap1\n      return\n        /* \"Insurance.sol\":9988:10579  function getPCR(bytes32 _idPCR) public view returns(... */\n    tag_19:\n        /* \"Insurance.sol\":10049:10063  bytes32 result */\n      0x00\n        /* \"Insurance.sol\":10074:10092  bytes32 customerId */\n      dup1\n        /* \"Insurance.sol\":10103:10122  uint256 requestDate */\n      0x00\n        /* \"Insurance.sol\":10132:10150  uint256 resultDate */\n      dup1\n        /* \"Insurance.sol\":10161:10171  bytes32 id */\n      0x00\n        /* \"Insurance.sol\":10181:10207  address pcrContractAddress */\n      dup1\n        /* \"Insurance.sol\":10232:10243  isPcrActive */\n      0x05\n        /* \"Insurance.sol\":10232:10251  isPcrActive[_idPCR] */\n      0x00\n        /* \"Insurance.sol\":10244:10250  _idPCR */\n      dup9\n        /* \"Insurance.sol\":10232:10251  isPcrActive[_idPCR] */\n      dup2\n      mstore\n      0x20\n      add\n      swap1\n      dup2\n      mstore\n      0x20\n      add\n      0x00\n      keccak256\n      0x00\n      swap1\n      sload\n      swap1\n      0x0100\n      exp\n      swap1\n      div\n      0xff\n      and\n        /* \"Insurance.sol\":10224:10284  require(isPcrActive[_idPCR], \"No existe una PCR con esa ID\") */\n      tag_63\n      jumpi\n      mload(0x40)\n      0x08c379a000000000000000000000000000000000000000000000000000000000\n      dup2\n      mstore\n      0x04\n      add\n      tag_64\n      swap1\n      tag_65\n      jump\t// in\n    tag_64:\n      mload(0x40)\n      dup1\n      swap2\n      sub\n      swap1\n      revert\n    tag_63:\n        /* \"Insurance.sol\":10315:10326  pcrIdToData */\n      0x09\n        /* \"Insurance.sol\":10315:10334  pcrIdToData[_idPCR] */\n      0x00\n        /* \"Insurance.sol\":10327:10333  _idPCR */\n      dup9\n        /* \"Insurance.sol\":10315:10334  pcrIdToData[_idPCR] */\n      dup2\n      mstore\n      0x20\n      add\n      swap1\n      dup2\n      mstore\n      0x20\n      add\n      0x00\n      keccak256\n        /* \"Insurance.sol\":10315:10341  pcrIdToData[_idPCR].result */\n      0x00\n      add\n      sload\n        /* \"Insurance.sol\":10355:10366  pcrIdToData */\n      0x09\n        /* \"Insurance.sol\":10355:10374  pcrIdToData[_idPCR] */\n      0x00\n        /* \"Insurance.sol\":10367:10373  _idPCR */\n      dup10\n        /* \"Insurance.sol\":10355:10374  pcrIdToData[_idPCR] */\n      dup2\n      mstore\n      0x20\n      add\n      swap1\n      dup2\n      mstore\n      0x20\n      add\n      0x00\n      keccak256\n        /* \"Insurance.sol\":10355:10384  pcrIdToData[_idPCR].insuredId */\n      0x02\n      add\n      sload\n        /* \"Insurance.sol\":10398:10409  pcrIdToData */\n      0x09\n        /* \"Insurance.sol\":10398:10417  pcrIdToData[_idPCR] */\n      0x00\n        /* \"Insurance.sol\":10410:10416  _idPCR */\n      dup11\n        /* \"Insurance.sol\":10398:10417  pcrIdToData[_idPCR] */\n      dup2\n      mstore\n      0x20\n      add\n      swap1\n      dup2\n      mstore\n      0x20\n      add\n      0x00\n      keccak256\n        /* \"Insurance.sol\":10398:10429  pcrIdToData[_idPCR].requestDate */\n      0x03\n      add\n      sload\n        /* \"Insurance.sol\":10443:10454  pcrIdToData */\n      0x09\n        /* \"Insurance.sol\":10443:10462  pcrIdToData[_idPCR] */\n      0x00\n        /* \"Insurance.sol\":10455:10461  _idPCR */\n      dup12\n        /* \"Insurance.sol\":10443:10462  pcrIdToData[_idPCR] */\n      dup2\n      mstore\n      0x20\n      add\n      swap1\n      dup2\n      mstore\n      0x20\n      add\n      0x00\n      keccak256\n        /* \"Insurance.sol\":10443:10473  pcrIdToData[_idPCR].resultDate */\n      0x04\n      add\n      sload\n        /* \"Insurance.sol\":10487:10498  pcrIdToData */\n      0x09\n        /* \"Insurance.sol\":10487:10506  pcrIdToData[_idPCR] */\n      0x00\n        /* \"Insurance.sol\":10499:10505  _idPCR */\n      dup13\n        /* \"Insurance.sol\":10487:10506  pcrIdToData[_idPCR] */\n      dup2\n      mstore\n      0x20\n      add\n      swap1\n      dup2\n      mstore\n      0x20\n      add\n      0x00\n      keccak256\n        /* \"Insurance.sol\":10487:10509  pcrIdToData[_idPCR].id */\n      0x01\n      add\n      sload\n        /* \"Insurance.sol\":10523:10534  pcrIdToData */\n      0x09\n        /* \"Insurance.sol\":10523:10542  pcrIdToData[_idPCR] */\n      0x00\n        /* \"Insurance.sol\":10535:10541  _idPCR */\n      dup14\n        /* \"Insurance.sol\":10523:10542  pcrIdToData[_idPCR] */\n      dup2\n      mstore\n      0x20\n      add\n      swap1\n      dup2\n      mstore\n      0x20\n      add\n      0x00\n      keccak256\n        /* \"Insurance.sol\":10523:10558  pcrIdToData[_idPCR].contractAddress */\n      0x05\n      add\n      0x00\n      swap1\n      sload\n      swap1\n      0x0100\n      exp\n      swap1\n      div\n      0xffffffffffffffffffffffffffffffffffffffff\n      and\n        /* \"Insurance.sol\":10294:10572  return (... */\n      swap6\n      pop\n      swap6\n      pop\n      swap6\n      pop\n      swap6\n      pop\n      swap6\n      pop\n      swap6\n      pop\n        /* \"Insurance.sol\":9988:10579  function getPCR(bytes32 _idPCR) public view returns(... */\n      swap2\n      swap4\n      swap6\n      pop\n      swap2\n      swap4\n      swap6\n      jump\t// out\n        /* \"Insurance.sol\":8670:9379  function updatePCR(bytes32 _idPCR, bytes32 _resultPCR) public {... */\n    tag_25:\n        /* \"Insurance.sol\":8843:8857  bytes32 posPCR */\n      0x00\n        /* \"Insurance.sol\":8843:8870  bytes32 posPCR = \"POSITIVE\" */\n      0x504f534954495645000000000000000000000000000000000000000000000000\n      swap1\n      pop\n        /* \"Insurance.sol\":8880:8897  bytes32 insuredId */\n      0x00\n        /* \"Insurance.sol\":8900:8916  pcrIdToInsuredId */\n      0x06\n        /* \"Insurance.sol\":8900:8924  pcrIdToInsuredId[_idPCR] */\n      0x00\n        /* \"Insurance.sol\":8917:8923  _idPCR */\n      dup6\n        /* \"Insurance.sol\":8900:8924  pcrIdToInsuredId[_idPCR] */\n      dup2\n      mstore\n      0x20\n      add\n      swap1\n      dup2\n      mstore\n      0x20\n      add\n      0x00\n      keccak256\n      sload\n        /* \"Insurance.sol\":8880:8924  bytes32 insuredId = pcrIdToInsuredId[_idPCR] */\n      swap1\n      pop\n        /* \"Insurance.sol\":8942:8953  isPcrActive */\n      0x05\n        /* \"Insurance.sol\":8942:8961  isPcrActive[_idPCR] */\n      0x00\n        /* \"Insurance.sol\":8954:8960  _idPCR */\n      dup6\n        /* \"Insurance.sol\":8942:8961  isPcrActive[_idPCR] */\n      dup2\n      mstore\n      0x20\n      add\n      swap1\n      dup2\n      mstore\n      0x20\n      add\n      0x00\n      keccak256\n      0x00\n      swap1\n      sload\n      swap1\n      0x0100\n      exp\n      swap1\n      div\n      0xff\n      and\n        /* \"Insurance.sol\":8934:8990  require(isPcrActive[_idPCR], \"La PCR tiene que existir\") */\n      tag_67\n      jumpi\n      mload(0x40)\n      0x08c379a000000000000000000000000000000000000000000000000000000000\n      dup2\n      mstore\n      0x04\n      add\n      tag_68\n      swap1\n      tag_69\n      jump\t// in\n    tag_68:\n      mload(0x40)\n      dup1\n      swap2\n      sub\n      swap1\n      revert\n    tag_67:\n        /* \"Insurance.sol\":9029:9039  _resultPCR */\n      dup3\n        /* \"Insurance.sol\":9000:9011  pcrIdToData */\n      0x09\n        /* \"Insurance.sol\":9000:9019  pcrIdToData[_idPCR] */\n      0x00\n        /* \"Insurance.sol\":9012:9018  _idPCR */\n      dup7\n        /* \"Insurance.sol\":9000:9019  pcrIdToData[_idPCR] */\n      dup2\n      mstore\n      0x20\n      add\n      swap1\n      dup2\n      mstore\n      0x20\n      add\n      0x00\n      keccak256\n        /* \"Insurance.sol\":9000:9026  pcrIdToData[_idPCR].result */\n      0x00\n      add\n        /* \"Insurance.sol\":9000:9039  pcrIdToData[_idPCR].result = _resultPCR */\n      dup2\n      swap1\n      sstore\n      pop\n        /* \"Insurance.sol\":9082:9097  block.timestamp */\n      timestamp\n        /* \"Insurance.sol\":9049:9060  pcrIdToData */\n      0x09\n        /* \"Insurance.sol\":9049:9068  pcrIdToData[_idPCR] */\n      0x00\n        /* \"Insurance.sol\":9061:9067  _idPCR */\n      dup7\n        /* \"Insurance.sol\":9049:9068  pcrIdToData[_idPCR] */\n      dup2\n      mstore\n      0x20\n      add\n      swap1\n      dup2\n      mstore\n      0x20\n      add\n      0x00\n      keccak256\n        /* \"Insurance.sol\":9049:9079  pcrIdToData[_idPCR].resultDate */\n      0x04\n      add\n        /* \"Insurance.sol\":9049:9097  pcrIdToData[_idPCR].resultDate = block.timestamp */\n      dup2\n      swap1\n      sstore\n      pop\n        /* \"Insurance.sol\":9125:9131  posPCR */\n      dup2\n        /* \"Insurance.sol\":9111:9121  _resultPCR */\n      dup4\n        /* \"Insurance.sol\":9111:9131  _resultPCR == posPCR */\n      eq\n        /* \"Insurance.sol\":9107:9373  if (_resultPCR == posPCR) {... */\n      iszero\n      tag_70\n      jumpi\n        /* \"Insurance.sol\":9165:9169  true */\n      0x01\n        /* \"Insurance.sol\":9147:9162  positivePcrTest */\n      0x1c\n      0x00\n        /* \"Insurance.sol\":9147:9169  positivePcrTest = true */\n      0x0100\n      exp\n      dup2\n      sload\n      dup2\n      0xff\n      mul\n      not\n      and\n      swap1\n      dup4\n      iszero\n      iszero\n      mul\n      or\n      swap1\n      sstore\n      pop\n        /* \"Insurance.sol\":9188:9245  positivePcr(insuredId, block.timestamp, insuranceData.id) */\n      0x02a309dc5c17c116a56725e000acab6ee53f439c2185131e3a5faf3fc183cd40\n        /* \"Insurance.sol\":9200:9209  insuredId */\n      dup2\n        /* \"Insurance.sol\":9211:9226  block.timestamp */\n      timestamp\n        /* \"Insurance.sol\":9228:9241  insuranceData */\n      0x0a\n        /* \"Insurance.sol\":9228:9244  insuranceData.id */\n      0x01\n      add\n      sload\n        /* \"Insurance.sol\":9188:9245  positivePcr(insuredId, block.timestamp, insuranceData.id) */\n      mload(0x40)\n      tag_71\n      swap4\n      swap3\n      swap2\n      swap1\n      tag_72\n      jump\t// in\n    tag_71:\n      mload(0x40)\n      dup1\n      swap2\n      sub\n      swap1\n      log1\n        /* \"Insurance.sol\":9281:9294  insuranceData */\n      0x0a\n        /* \"Insurance.sol\":9281:9314  insuranceData.insuranceFinishDate */\n      0x03\n      add\n      sload\n        /* \"Insurance.sol\":9263:9278  block.timestamp */\n      timestamp\n        /* \"Insurance.sol\":9263:9314  block.timestamp < insuranceData.insuranceFinishDate */\n      lt\n        /* \"Insurance.sol\":9259:9363  if (block.timestamp < insuranceData.insuranceFinishDate) {... */\n      iszero\n      tag_73\n      jumpi\n        /* \"Insurance.sol\":9334:9348  compensation() */\n      tag_74\n        /* \"Insurance.sol\":9334:9346  compensation */\n      tag_39\n        /* \"Insurance.sol\":9334:9348  compensation() */\n      jump\t// in\n    tag_74:\n        /* \"Insurance.sol\":9259:9363  if (block.timestamp < insuranceData.insuranceFinishDate) {... */\n    tag_73:\n        /* \"Insurance.sol\":9107:9373  if (_resultPCR == posPCR) {... */\n    tag_70:\n        /* \"Insurance.sol\":8670:9379  function updatePCR(bytes32 _idPCR, bytes32 _resultPCR) public {... */\n      pop\n      pop\n      pop\n      pop\n      jump\t// out\n        /* \"Insurance.sol\":12603:19185  function serializeInsurance() external view returns (bytes memory _serializedInsurance, uint256 _size) {... */\n    tag_27:\n        /* \"Insurance.sol\":12656:12689  bytes memory _serializedInsurance */\n      0x60\n        /* \"Insurance.sol\":12691:12704  uint256 _size */\n      0x00\n        /* \"Insurance.sol\":12716:12731  uint16 nameSize */\n      dup1\n        /* \"Insurance.sol\":12741:12774  sizeOfString(takerData.takerName) */\n      tag_76\n        /* \"Insurance.sol\":12754:12763  takerData */\n      0x11\n        /* \"Insurance.sol\":12754:12773  takerData.takerName */\n      0x00\n      add\n        /* \"Insurance.sol\":12741:12774  sizeOfString(takerData.takerName) */\n      dup1\n      sload\n      tag_77\n      swap1\n      tag_78\n      jump\t// in\n    tag_77:\n      dup1\n      0x1f\n      add\n      0x20\n      dup1\n      swap2\n      div\n      mul\n      0x20\n      add\n      mload(0x40)\n      swap1\n      dup2\n      add\n      0x40\n      mstore\n      dup1\n      swap3\n      swap2\n      swap1\n      dup2\n      dup2\n      mstore\n      0x20\n      add\n      dup3\n      dup1\n      sload\n      tag_79\n      swap1\n      tag_78\n      jump\t// in\n    tag_79:\n      dup1\n      iszero\n      tag_80\n      jumpi\n      dup1\n      0x1f\n      lt\n      tag_81\n      jumpi\n      0x0100\n      dup1\n      dup4\n      sload\n      div\n      mul\n      dup4\n      mstore\n      swap2\n      0x20\n      add\n      swap2\n      jump(tag_80)\n    tag_81:\n      dup3\n      add\n      swap2\n      swap1\n      0x00\n      mstore\n      keccak256(0x00, 0x20)\n      swap1\n    tag_82:\n      dup2\n      sload\n      dup2\n      mstore\n      swap1\n      0x01\n      add\n      swap1\n      0x20\n      add\n      dup1\n      dup4\n      gt\n      tag_82\n      jumpi\n      dup3\n      swap1\n      sub\n      0x1f\n      and\n      dup3\n      add\n      swap2\n    tag_80:\n      pop\n      pop\n      pop\n      pop\n      pop\n        /* \"Insurance.sol\":12741:12753  sizeOfString */\n      tag_83\n        /* \"Insurance.sol\":12741:12774  sizeOfString(takerData.takerName) */\n      jump\t// in\n    tag_76:\n        /* \"Insurance.sol\":12716:12775  uint16 nameSize = uint16(sizeOfString(takerData.takerName)) */\n      swap1\n      pop\n        /* \"Insurance.sol\":12785:12803  uint16 addressSize */\n      0x00\n        /* \"Insurance.sol\":12813:12849  sizeOfString(takerData.takerAddress) */\n      tag_84\n        /* \"Insurance.sol\":12826:12835  takerData */\n      0x11\n        /* \"Insurance.sol\":12826:12848  takerData.takerAddress */\n      0x01\n      add\n        /* \"Insurance.sol\":12813:12849  sizeOfString(takerData.takerAddress) */\n      dup1\n      sload\n      tag_85\n      swap1\n      tag_78\n      jump\t// in\n    tag_85:\n      dup1\n      0x1f\n      add\n      0x20\n      dup1\n      swap2\n      div\n      mul\n      0x20\n      add\n      mload(0x40)\n      swap1\n      dup2\n      add\n      0x40\n      mstore\n      dup1\n      swap3\n      swap2\n      swap1\n      dup2\n      dup2\n      mstore\n      0x20\n      add\n      dup3\n      dup1\n      sload\n      tag_86\n      swap1\n      tag_78\n      jump\t// in\n    tag_86:\n      dup1\n      iszero\n      tag_87\n      jumpi\n      dup1\n      0x1f\n      lt\n      tag_88\n      jumpi\n      0x0100\n      dup1\n      dup4\n      sload\n      div\n      mul\n      dup4\n      mstore\n      swap2\n      0x20\n      add\n      swap2\n      jump(tag_87)\n    tag_88:\n      dup3\n      add\n      swap2\n      swap1\n      0x00\n      mstore\n      keccak256(0x00, 0x20)\n      swap1\n    tag_89:\n      dup2\n      sload\n      dup2\n      mstore\n      swap1\n      0x01\n      add\n      swap1\n      0x20\n      add\n      dup1\n      dup4\n      gt\n      tag_89\n      jumpi\n      dup3\n      swap1\n      sub\n      0x1f\n      and\n      dup3\n      add\n      swap2\n    tag_87:\n      pop\n      pop\n      pop\n      pop\n      pop\n        /* \"Insurance.sol\":12813:12825  sizeOfString */\n      tag_83\n        /* \"Insurance.sol\":12813:12849  sizeOfString(takerData.takerAddress) */\n      jump\t// in\n    tag_84:\n        /* \"Insurance.sol\":12785:12850  uint16 addressSize = uint16(sizeOfString(takerData.takerAddress)) */\n      swap1\n      pop\n        /* \"Insurance.sol\":12860:12876  uint16 emailSize */\n      0x00\n        /* \"Insurance.sol\":12886:12920  sizeOfString(takerData.takerEmail) */\n      tag_90\n        /* \"Insurance.sol\":12899:12908  takerData */\n      0x11\n        /* \"Insurance.sol\":12899:12919  takerData.takerEmail */\n      0x02\n      add\n        /* \"Insurance.sol\":12886:12920  sizeOfString(takerData.takerEmail) */\n      dup1\n      sload\n      tag_91\n      swap1\n      tag_78\n      jump\t// in\n    tag_91:\n      dup1\n      0x1f\n      add\n      0x20\n      dup1\n      swap2\n      div\n      mul\n      0x20\n      add\n      mload(0x40)\n      swap1\n      dup2\n      add\n      0x40\n      mstore\n      dup1\n      swap3\n      swap2\n      swap1\n      dup2\n      dup2\n      mstore\n      0x20\n      add\n      dup3\n      dup1\n      sload\n      tag_92\n      swap1\n      tag_78\n      jump\t// in\n    tag_92:\n      dup1\n      iszero\n      tag_93\n      jumpi\n      dup1\n      0x1f\n      lt\n      tag_94\n      jumpi\n      0x0100\n      dup1\n      dup4\n      sload\n      div\n      mul\n      dup4\n      mstore\n      swap2\n      0x20\n      add\n      swap2\n      jump(tag_93)\n    tag_94:\n      dup3\n      add\n      swap2\n      swap1\n      0x00\n      mstore\n      keccak256(0x00, 0x20)\n      swap1\n    tag_95:\n      dup2\n      sload\n      dup2\n      mstore\n      swap1\n      0x01\n      add\n      swap1\n      0x20\n      add\n      dup1\n      dup4\n      gt\n      tag_95\n      jumpi\n      dup3\n      swap1\n      sub\n      0x1f\n      and\n      dup3\n      add\n      swap2\n    tag_93:\n      pop\n      pop\n      pop\n      pop\n      pop\n        /* \"Insurance.sol\":12886:12898  sizeOfString */\n      tag_83\n        /* \"Insurance.sol\":12886:12920  sizeOfString(takerData.takerEmail) */\n      jump\t// in\n    tag_90:\n        /* \"Insurance.sol\":12860:12921  uint16 emailSize = uint16(sizeOfString(takerData.takerEmail)) */\n      swap1\n      pop\n        /* \"Insurance.sol\":12932:12946  uint256 offset */\n      0x00\n        /* \"Insurance.sol\":13537:13539  30 */\n      0x1e\n        /* \"Insurance.sol\":13463:13476  insuranceData */\n      0x0a\n        /* \"Insurance.sol\":13463:13486  insuranceData.pcrNumber */\n      0x00\n      add\n      0x04\n      swap1\n      sload\n      swap1\n      0x0100\n      exp\n      swap1\n      div\n      0xffff\n      and\n        /* \"Insurance.sol\":13454:13460  32 * 5 */\n      0xa0\n        /* \"Insurance.sol\":13454:13486  32 * 5 * insuranceData.pcrNumber */\n      tag_96\n      swap2\n      swap1\n      tag_97\n      jump\t// in\n    tag_96:\n        /* \"Insurance.sol\":13426:13427  2 */\n      0x02\n        /* \"Insurance.sol\":13309:13311  10 */\n      0x0a\n        /* \"Insurance.sol\":13285:13294  emailSize */\n      dup6\n        /* \"Insurance.sol\":13271:13282  addressSize */\n      dup8\n        /* \"Insurance.sol\":13260:13268  nameSize */\n      dup10\n        /* \"Insurance.sol\":13215:13221  32 * 9 */\n      0x0120\n        /* \"Insurance.sol\":13157:13158  2 */\n      0x02\n        /* \"Insurance.sol\":13127:13140  insuranceData */\n      0x0a\n        /* \"Insurance.sol\":13127:13154  insuranceData.insuredNumber */\n      0x00\n      add\n      0x06\n      swap1\n      sload\n      swap1\n      0x0100\n      exp\n      swap1\n      div\n      0xffff\n      and\n        /* \"Insurance.sol\":13122:13124  32 */\n      0x20\n        /* \"Insurance.sol\":13122:13154  32 * insuranceData.insuredNumber */\n      tag_98\n      swap2\n      swap1\n      tag_97\n      jump\t// in\n    tag_98:\n        /* \"Insurance.sol\":13122:13158  32 * insuranceData.insuredNumber * 2 */\n      tag_99\n      swap2\n      swap1\n      tag_97\n      jump\t// in\n    tag_99:\n        /* \"Insurance.sol\":13058:13071  insuranceData */\n      0x0a\n        /* \"Insurance.sol\":13058:13085  insuranceData.insuredNumber */\n      0x00\n      add\n      0x06\n      swap1\n      sload\n      swap1\n      0x0100\n      exp\n      swap1\n      div\n      0xffff\n      and\n        /* \"Insurance.sol\":13053:13055  32 */\n      0x20\n        /* \"Insurance.sol\":13053:13085  32 * insuranceData.insuredNumber */\n      tag_100\n      swap2\n      swap1\n      tag_97\n      jump\t// in\n    tag_100:\n        /* \"Insurance.sol\":12963:12995  4 + // 2 uint16 ... */\n      0x84\n        /* \"Insurance.sol\":12963:13086  4 + // 2 uint16 ... */\n      tag_101\n      swap2\n      swap1\n      tag_102\n      jump\t// in\n    tag_101:\n        /* \"Insurance.sol\":12963:13159  4 + // 2 uint16 ... */\n      tag_103\n      swap2\n      swap1\n      tag_102\n      jump\t// in\n    tag_103:\n        /* \"Insurance.sol\":12963:13222  4 + // 2 uint16 ... */\n      tag_104\n      swap2\n      swap1\n      tag_102\n      jump\t// in\n    tag_104:\n        /* \"Insurance.sol\":12963:13268  4 + // 2 uint16 ... */\n      tag_105\n      swap2\n      swap1\n      tag_102\n      jump\t// in\n    tag_105:\n        /* \"Insurance.sol\":12963:13282  4 + // 2 uint16 ... */\n      tag_106\n      swap2\n      swap1\n      tag_102\n      jump\t// in\n    tag_106:\n        /* \"Insurance.sol\":12963:13294  4 + // 2 uint16 ... */\n      tag_107\n      swap2\n      swap1\n      tag_102\n      jump\t// in\n    tag_107:\n        /* \"Insurance.sol\":12963:13311  4 + // 2 uint16 ... */\n      tag_108\n      swap2\n      swap1\n      tag_102\n      jump\t// in\n    tag_108:\n        /* \"Insurance.sol\":12963:13427  4 + // 2 uint16 ... */\n      tag_109\n      swap2\n      swap1\n      tag_102\n      jump\t// in\n    tag_109:\n        /* \"Insurance.sol\":12963:13487  4 + // 2 uint16 ... */\n      tag_110\n      swap2\n      swap1\n      tag_102\n      jump\t// in\n    tag_110:\n        /* \"Insurance.sol\":12963:13539  4 + // 2 uint16 ... */\n      tag_111\n      swap2\n      swap1\n      tag_102\n      jump\t// in\n    tag_111:\n        /* \"Insurance.sol\":12932:13624  uint256 offset = (... */\n      0xffff\n      and\n      swap1\n      pop\n        /* \"Insurance.sol\":13667:13673  offset */\n      dup1\n        /* \"Insurance.sol\":13657:13674  new bytes(offset) */\n      0xffffffffffffffff\n      dup2\n      gt\n      iszero\n      tag_112\n      jumpi\n      mstore(0x00, 0x4e487b7100000000000000000000000000000000000000000000000000000000)\n      mstore(0x04, 0x41)\n      revert(0x00, 0x24)\n    tag_112:\n      mload(0x40)\n      swap1\n      dup1\n      dup3\n      mstore\n      dup1\n      0x1f\n      add\n      not(0x1f)\n      and\n      0x20\n      add\n      dup3\n      add\n      0x40\n      mstore\n      dup1\n      iszero\n      tag_113\n      jumpi\n      dup2\n      0x20\n      add\n      0x01\n      dup3\n      mul\n      dup1\n      calldatasize\n      dup4\n      calldatacopy\n      dup1\n      dup3\n      add\n      swap2\n      pop\n      pop\n      swap1\n      pop\n    tag_113:\n      pop\n        /* \"Insurance.sol\":13634:13674  _serializedInsurance = new bytes(offset) */\n      swap6\n      pop\n        /* \"Insurance.sol\":13692:13698  offset */\n      dup1\n        /* \"Insurance.sol\":13684:13698  _size = offset */\n      swap5\n      pop\n        /* \"Insurance.sol\":13769:13831  bytes32ToBytes(offset, insuranceData.id, _serializedInsurance) */\n      tag_114\n        /* \"Insurance.sol\":13784:13790  offset */\n      dup2\n        /* \"Insurance.sol\":13792:13805  insuranceData */\n      0x0a\n        /* \"Insurance.sol\":13792:13808  insuranceData.id */\n      0x01\n      add\n      sload\n        /* \"Insurance.sol\":13810:13830  _serializedInsurance */\n      dup9\n        /* \"Insurance.sol\":13769:13783  bytes32ToBytes */\n      tag_115\n        /* \"Insurance.sol\":13769:13831  bytes32ToBytes(offset, insuranceData.id, _serializedInsurance) */\n      jump\t// in\n    tag_114:\n        /* \"Insurance.sol\":13851:13853  32 */\n      0x20\n        /* \"Insurance.sol\":13841:13853  offset -= 32 */\n      dup2\n      tag_116\n      swap2\n      swap1\n      tag_117\n      jump\t// in\n    tag_116:\n      swap1\n      pop\n        /* \"Insurance.sol\":13907:13984  uintToBytes(offset, insuranceData.sinisterCompensation, _serializedInsurance) */\n      tag_118\n        /* \"Insurance.sol\":13919:13925  offset */\n      dup2\n        /* \"Insurance.sol\":13927:13940  insuranceData */\n      0x0a\n        /* \"Insurance.sol\":13927:13961  insuranceData.sinisterCompensation */\n      0x06\n      add\n      sload\n        /* \"Insurance.sol\":13963:13983  _serializedInsurance */\n      dup9\n        /* \"Insurance.sol\":13907:13918  uintToBytes */\n      tag_119\n        /* \"Insurance.sol\":13907:13984  uintToBytes(offset, insuranceData.sinisterCompensation, _serializedInsurance) */\n      jump\t// in\n    tag_118:\n        /* \"Insurance.sol\":14004:14006  32 */\n      0x20\n        /* \"Insurance.sol\":13994:14006  offset -= 32 */\n      dup2\n      tag_120\n      swap2\n      swap1\n      tag_117\n      jump\t// in\n    tag_120:\n      swap1\n      pop\n        /* \"Insurance.sol\":14059:14134  uintToBytes(offset, insuranceData.insuranceStartDate, _serializedInsurance) */\n      tag_121\n        /* \"Insurance.sol\":14071:14077  offset */\n      dup2\n        /* \"Insurance.sol\":14079:14092  insuranceData */\n      0x0a\n        /* \"Insurance.sol\":14079:14111  insuranceData.insuranceStartDate */\n      0x02\n      add\n      sload\n        /* \"Insurance.sol\":14113:14133  _serializedInsurance */\n      dup9\n        /* \"Insurance.sol\":14059:14070  uintToBytes */\n      tag_119\n        /* \"Insurance.sol\":14059:14134  uintToBytes(offset, insuranceData.insuranceStartDate, _serializedInsurance) */\n      jump\t// in\n    tag_121:\n        /* \"Insurance.sol\":14154:14156  32 */\n      0x20\n        /* \"Insurance.sol\":14144:14156  offset -= 32 */\n      dup2\n      tag_122\n      swap2\n      swap1\n      tag_117\n      jump\t// in\n    tag_122:\n      swap1\n      pop\n        /* \"Insurance.sol\":14210:14286  uintToBytes(offset, insuranceData.insuranceFinishDate, _serializedInsurance) */\n      tag_123\n        /* \"Insurance.sol\":14222:14228  offset */\n      dup2\n        /* \"Insurance.sol\":14230:14243  insuranceData */\n      0x0a\n        /* \"Insurance.sol\":14230:14263  insuranceData.insuranceFinishDate */\n      0x03\n      add\n      sload\n        /* \"Insurance.sol\":14265:14285  _serializedInsurance */\n      dup9\n        /* \"Insurance.sol\":14210:14221  uintToBytes */\n      tag_119\n        /* \"Insurance.sol\":14210:14286  uintToBytes(offset, insuranceData.insuranceFinishDate, _serializedInsurance) */\n      jump\t// in\n    tag_123:\n        /* \"Insurance.sol\":14306:14308  32 */\n      0x20\n        /* \"Insurance.sol\":14296:14308  offset -= 32 */\n      dup2\n      tag_124\n      swap2\n      swap1\n      tag_117\n      jump\t// in\n    tag_124:\n      swap1\n      pop\n        /* \"Insurance.sol\":14354:14423  uintToBytes(offset, insuranceData.contractDate, _serializedInsurance) */\n      tag_125\n        /* \"Insurance.sol\":14366:14372  offset */\n      dup2\n        /* \"Insurance.sol\":14374:14387  insuranceData */\n      0x0a\n        /* \"Insurance.sol\":14374:14400  insuranceData.contractDate */\n      0x04\n      add\n      sload\n        /* \"Insurance.sol\":14402:14422  _serializedInsurance */\n      dup9\n        /* \"Insurance.sol\":14354:14365  uintToBytes */\n      tag_119\n        /* \"Insurance.sol\":14354:14423  uintToBytes(offset, insuranceData.contractDate, _serializedInsurance) */\n      jump\t// in\n    tag_125:\n        /* \"Insurance.sol\":14443:14445  32 */\n      0x20\n        /* \"Insurance.sol\":14433:14445  offset -= 32 */\n      dup2\n      tag_126\n      swap2\n      swap1\n      tag_117\n      jump\t// in\n    tag_126:\n      swap1\n      pop\n        /* \"Insurance.sol\":14496:14570  uintToBytes(offset, insuranceData.dailyCompensation, _serializedInsurance) */\n      tag_127\n        /* \"Insurance.sol\":14508:14514  offset */\n      dup2\n        /* \"Insurance.sol\":14516:14529  insuranceData */\n      0x0a\n        /* \"Insurance.sol\":14516:14547  insuranceData.dailyCompensation */\n      0x00\n      add\n      0x00\n      swap1\n      sload\n      swap1\n      0x0100\n      exp\n      swap1\n      div\n      0xffff\n      and\n        /* \"Insurance.sol\":14496:14570  uintToBytes(offset, insuranceData.dailyCompensation, _serializedInsurance) */\n      0xffff\n      and\n        /* \"Insurance.sol\":14549:14569  _serializedInsurance */\n      dup9\n        /* \"Insurance.sol\":14496:14507  uintToBytes */\n      tag_119\n        /* \"Insurance.sol\":14496:14570  uintToBytes(offset, insuranceData.dailyCompensation, _serializedInsurance) */\n      jump\t// in\n    tag_127:\n        /* \"Insurance.sol\":14590:14591  2 */\n      0x02\n        /* \"Insurance.sol\":14580:14591  offset -= 2 */\n      dup2\n      tag_128\n      swap2\n      swap1\n      tag_117\n      jump\t// in\n    tag_128:\n      swap1\n      pop\n        /* \"Insurance.sol\":14642:14715  uintToBytes(offset, insuranceData.daysToCompensate, _serializedInsurance) */\n      tag_129\n        /* \"Insurance.sol\":14654:14660  offset */\n      dup2\n        /* \"Insurance.sol\":14662:14675  insuranceData */\n      0x0a\n        /* \"Insurance.sol\":14662:14692  insuranceData.daysToCompensate */\n      0x00\n      add\n      0x02\n      swap1\n      sload\n      swap1\n      0x0100\n      exp\n      swap1\n      div\n      0xffff\n      and\n        /* \"Insurance.sol\":14642:14715  uintToBytes(offset, insuranceData.daysToCompensate, _serializedInsurance) */\n      0xffff\n      and\n        /* \"Insurance.sol\":14694:14714  _serializedInsurance */\n      dup9\n        /* \"Insurance.sol\":14642:14653  uintToBytes */\n      tag_119\n        /* \"Insurance.sol\":14642:14715  uintToBytes(offset, insuranceData.daysToCompensate, _serializedInsurance) */\n      jump\t// in\n    tag_129:\n        /* \"Insurance.sol\":14735:14736  2 */\n      0x02\n        /* \"Insurance.sol\":14725:14736  offset -= 2 */\n      dup2\n      tag_130\n      swap2\n      swap1\n      tag_117\n      jump\t// in\n    tag_130:\n      swap1\n      pop\n        /* \"Insurance.sol\":14799:14862  bytes32ToBytes(offset, takerData.takerId, _serializedInsurance) */\n      tag_131\n        /* \"Insurance.sol\":14814:14820  offset */\n      dup2\n        /* \"Insurance.sol\":14822:14831  takerData */\n      0x11\n        /* \"Insurance.sol\":14822:14839  takerData.takerId */\n      0x03\n      add\n      sload\n        /* \"Insurance.sol\":14841:14861  _serializedInsurance */\n      dup9\n        /* \"Insurance.sol\":14799:14813  bytes32ToBytes */\n      tag_115\n        /* \"Insurance.sol\":14799:14862  bytes32ToBytes(offset, takerData.takerId, _serializedInsurance) */\n      jump\t// in\n    tag_131:\n        /* \"Insurance.sol\":14882:14884  32 */\n      0x20\n        /* \"Insurance.sol\":14872:14884  offset -= 32 */\n      dup2\n      tag_132\n      swap2\n      swap1\n      tag_117\n      jump\t// in\n    tag_132:\n      swap1\n      pop\n        /* \"Insurance.sol\":14926:14990  bytes32ToBytes(offset, takerData.takerNif, _serializedInsurance) */\n      tag_133\n        /* \"Insurance.sol\":14941:14947  offset */\n      dup2\n        /* \"Insurance.sol\":14949:14958  takerData */\n      0x11\n        /* \"Insurance.sol\":14949:14967  takerData.takerNif */\n      0x04\n      add\n      sload\n        /* \"Insurance.sol\":14969:14989  _serializedInsurance */\n      dup9\n        /* \"Insurance.sol\":14926:14940  bytes32ToBytes */\n      tag_115\n        /* \"Insurance.sol\":14926:14990  bytes32ToBytes(offset, takerData.takerNif, _serializedInsurance) */\n      jump\t// in\n    tag_133:\n        /* \"Insurance.sol\":15010:15012  32 */\n      0x20\n        /* \"Insurance.sol\":15000:15012  offset -= 32 */\n      dup2\n      tag_134\n      swap2\n      swap1\n      tag_117\n      jump\t// in\n    tag_134:\n      swap1\n      pop\n        /* \"Insurance.sol\":15062:15133  bytes32ToBytes(offset, takerData.takerPostalCode, _serializedInsurance) */\n      tag_135\n        /* \"Insurance.sol\":15077:15083  offset */\n      dup2\n        /* \"Insurance.sol\":15085:15094  takerData */\n      0x11\n        /* \"Insurance.sol\":15085:15110  takerData.takerPostalCode */\n      0x05\n      add\n      sload\n        /* \"Insurance.sol\":15112:15132  _serializedInsurance */\n      dup9\n        /* \"Insurance.sol\":15062:15076  bytes32ToBytes */\n      tag_115\n        /* \"Insurance.sol\":15062:15133  bytes32ToBytes(offset, takerData.takerPostalCode, _serializedInsurance) */\n      jump\t// in\n    tag_135:\n        /* \"Insurance.sol\":15153:15155  32 */\n      0x20\n        /* \"Insurance.sol\":15143:15155  offset -= 32 */\n      dup2\n      tag_136\n      swap2\n      swap1\n      tag_117\n      jump\t// in\n    tag_136:\n      swap1\n      pop\n        /* \"Insurance.sol\":15198:15263  bytes32ToBytes(offset, takerData.takerTown, _serializedInsurance) */\n      tag_137\n        /* \"Insurance.sol\":15213:15219  offset */\n      dup2\n        /* \"Insurance.sol\":15221:15230  takerData */\n      0x11\n        /* \"Insurance.sol\":15221:15240  takerData.takerTown */\n      0x06\n      add\n      sload\n        /* \"Insurance.sol\":15242:15262  _serializedInsurance */\n      dup9\n        /* \"Insurance.sol\":15198:15212  bytes32ToBytes */\n      tag_115\n        /* \"Insurance.sol\":15198:15263  bytes32ToBytes(offset, takerData.takerTown, _serializedInsurance) */\n      jump\t// in\n    tag_137:\n        /* \"Insurance.sol\":15283:15285  32 */\n      0x20\n        /* \"Insurance.sol\":15273:15285  offset -= 32 */\n      dup2\n      tag_138\n      swap2\n      swap1\n      tag_117\n      jump\t// in\n    tag_138:\n      swap1\n      pop\n        /* \"Insurance.sol\":15332:15401  bytes32ToBytes(offset, takerData.takerLocation, _serializedInsurance) */\n      tag_139\n        /* \"Insurance.sol\":15347:15353  offset */\n      dup2\n        /* \"Insurance.sol\":15355:15364  takerData */\n      0x11\n        /* \"Insurance.sol\":15355:15378  takerData.takerLocation */\n      0x07\n      add\n      sload\n        /* \"Insurance.sol\":15380:15400  _serializedInsurance */\n      dup9\n        /* \"Insurance.sol\":15332:15346  bytes32ToBytes */\n      tag_115\n        /* \"Insurance.sol\":15332:15401  bytes32ToBytes(offset, takerData.takerLocation, _serializedInsurance) */\n      jump\t// in\n    tag_139:\n        /* \"Insurance.sol\":15421:15423  32 */\n      0x20\n        /* \"Insurance.sol\":15411:15423  offset -= 32 */\n      dup2\n      tag_140\n      swap2\n      swap1\n      tag_117\n      jump\t// in\n    tag_140:\n      swap1\n      pop\n        /* \"Insurance.sol\":15471:15541  bytes32ToBytes(offset, takerData.takerTelephone, _serializedInsurance) */\n      tag_141\n        /* \"Insurance.sol\":15486:15492  offset */\n      dup2\n        /* \"Insurance.sol\":15494:15503  takerData */\n      0x11\n        /* \"Insurance.sol\":15494:15518  takerData.takerTelephone */\n      0x08\n      add\n      sload\n        /* \"Insurance.sol\":15520:15540  _serializedInsurance */\n      dup9\n        /* \"Insurance.sol\":15471:15485  bytes32ToBytes */\n      tag_115\n        /* \"Insurance.sol\":15471:15541  bytes32ToBytes(offset, takerData.takerTelephone, _serializedInsurance) */\n      jump\t// in\n    tag_141:\n        /* \"Insurance.sol\":15561:15563  32 */\n      0x20\n        /* \"Insurance.sol\":15551:15563  offset -= 32 */\n      dup2\n      tag_142\n      swap2\n      swap1\n      tag_117\n      jump\t// in\n    tag_142:\n      swap1\n      pop\n        /* \"Insurance.sol\":15608:15675  bytes32ToBytes(offset, takerData.takerMobile, _serializedInsurance) */\n      tag_143\n        /* \"Insurance.sol\":15623:15629  offset */\n      dup2\n        /* \"Insurance.sol\":15631:15640  takerData */\n      0x11\n        /* \"Insurance.sol\":15631:15652  takerData.takerMobile */\n      0x09\n      add\n      sload\n        /* \"Insurance.sol\":15654:15674  _serializedInsurance */\n      dup9\n        /* \"Insurance.sol\":15608:15622  bytes32ToBytes */\n      tag_115\n        /* \"Insurance.sol\":15608:15675  bytes32ToBytes(offset, takerData.takerMobile, _serializedInsurance) */\n      jump\t// in\n    tag_143:\n        /* \"Insurance.sol\":15695:15697  32 */\n      0x20\n        /* \"Insurance.sol\":15685:15697  offset -= 32 */\n      dup2\n      tag_144\n      swap2\n      swap1\n      tag_117\n      jump\t// in\n    tag_144:\n      swap1\n      pop\n        /* \"Insurance.sol\":15740:15805  bytes32ToBytes(offset, takerData.takerIban, _serializedInsurance) */\n      tag_145\n        /* \"Insurance.sol\":15755:15761  offset */\n      dup2\n        /* \"Insurance.sol\":15763:15772  takerData */\n      0x11\n        /* \"Insurance.sol\":15763:15782  takerData.takerIban */\n      0x0a\n      add\n      sload\n        /* \"Insurance.sol\":15784:15804  _serializedInsurance */\n      dup9\n        /* \"Insurance.sol\":15740:15754  bytes32ToBytes */\n      tag_115\n        /* \"Insurance.sol\":15740:15805  bytes32ToBytes(offset, takerData.takerIban, _serializedInsurance) */\n      jump\t// in\n    tag_145:\n        /* \"Insurance.sol\":15825:15827  32 */\n      0x20\n        /* \"Insurance.sol\":15815:15827  offset -= 32 */\n      dup2\n      tag_146\n      swap2\n      swap1\n      tag_117\n      jump\t// in\n    tag_146:\n      swap1\n      pop\n        /* \"Insurance.sol\":15877:15935  boolToBytes(offset, positivePcrTest, _serializedInsurance) */\n      tag_147\n        /* \"Insurance.sol\":15889:15895  offset */\n      dup2\n        /* \"Insurance.sol\":15897:15912  positivePcrTest */\n      0x1c\n      0x00\n      swap1\n      sload\n      swap1\n      0x0100\n      exp\n      swap1\n      div\n      0xff\n      and\n        /* \"Insurance.sol\":15914:15934  _serializedInsurance */\n      dup9\n        /* \"Insurance.sol\":15877:15888  boolToBytes */\n      tag_148\n        /* \"Insurance.sol\":15877:15935  boolToBytes(offset, positivePcrTest, _serializedInsurance) */\n      jump\t// in\n    tag_147:\n        /* \"Insurance.sol\":15955:15956  1 */\n      0x01\n        /* \"Insurance.sol\":15945:15956  offset -= 1 */\n      dup2\n      tag_149\n      swap2\n      swap1\n      tag_117\n      jump\t// in\n    tag_149:\n      swap1\n      pop\n        /* \"Insurance.sol\":16009:16066  boolToBytes(offset, paymentEmitted, _serializedInsurance) */\n      tag_150\n        /* \"Insurance.sol\":16021:16027  offset */\n      dup2\n        /* \"Insurance.sol\":16029:16043  paymentEmitted */\n      0x1c\n      0x01\n      swap1\n      sload\n      swap1\n      0x0100\n      exp\n      swap1\n      div\n      0xff\n      and\n        /* \"Insurance.sol\":16045:16065  _serializedInsurance */\n      dup9\n        /* \"Insurance.sol\":16009:16020  boolToBytes */\n      tag_148\n        /* \"Insurance.sol\":16009:16066  boolToBytes(offset, paymentEmitted, _serializedInsurance) */\n      jump\t// in\n    tag_150:\n        /* \"Insurance.sol\":16086:16087  1 */\n      0x01\n        /* \"Insurance.sol\":16076:16087  offset -= 1 */\n      dup2\n      tag_151\n      swap2\n      swap1\n      tag_117\n      jump\t// in\n    tag_151:\n      swap1\n      pop\n        /* \"Insurance.sol\":16185:16236  uintToBytes(offset, nameSize, _serializedInsurance) */\n      tag_152\n        /* \"Insurance.sol\":16197:16203  offset */\n      dup2\n        /* \"Insurance.sol\":16205:16213  nameSize */\n      dup6\n        /* \"Insurance.sol\":16185:16236  uintToBytes(offset, nameSize, _serializedInsurance) */\n      0xffff\n      and\n        /* \"Insurance.sol\":16215:16235  _serializedInsurance */\n      dup9\n        /* \"Insurance.sol\":16185:16196  uintToBytes */\n      tag_119\n        /* \"Insurance.sol\":16185:16236  uintToBytes(offset, nameSize, _serializedInsurance) */\n      jump\t// in\n    tag_152:\n        /* \"Insurance.sol\":16256:16257  2 */\n      0x02\n        /* \"Insurance.sol\":16246:16257  offset -= 2 */\n      dup2\n      tag_153\n      swap2\n      swap1\n      tag_117\n      jump\t// in\n    tag_153:\n      swap1\n      pop\n        /* \"Insurance.sol\":16268:16339  stringToBytes(offset, bytes(takerData.takerName), _serializedInsurance) */\n      tag_154\n        /* \"Insurance.sol\":16282:16288  offset */\n      dup2\n        /* \"Insurance.sol\":16296:16305  takerData */\n      0x11\n        /* \"Insurance.sol\":16296:16315  takerData.takerName */\n      0x00\n      add\n        /* \"Insurance.sol\":16268:16339  stringToBytes(offset, bytes(takerData.takerName), _serializedInsurance) */\n      dup1\n      sload\n      tag_155\n      swap1\n      tag_78\n      jump\t// in\n    tag_155:\n      dup1\n      0x1f\n      add\n      0x20\n      dup1\n      swap2\n      div\n      mul\n      0x20\n      add\n      mload(0x40)\n      swap1\n      dup2\n      add\n      0x40\n      mstore\n      dup1\n      swap3\n      swap2\n      swap1\n      dup2\n      dup2\n      mstore\n      0x20\n      add\n      dup3\n      dup1\n      sload\n      tag_156\n      swap1\n      tag_78\n      jump\t// in\n    tag_156:\n      dup1\n      iszero\n      tag_157\n      jumpi\n      dup1\n      0x1f\n      lt\n      tag_158\n      jumpi\n      0x0100\n      dup1\n      dup4\n      sload\n      div\n      mul\n      dup4\n      mstore\n      swap2\n      0x20\n      add\n      swap2\n      jump(tag_157)\n    tag_158:\n      dup3\n      add\n      swap2\n      swap1\n      0x00\n      mstore\n      keccak256(0x00, 0x20)\n      swap1\n    tag_159:\n      dup2\n      sload\n      dup2\n      mstore\n      swap1\n      0x01\n      add\n      swap1\n      0x20\n      add\n      dup1\n      dup4\n      gt\n      tag_159\n      jumpi\n      dup3\n      swap1\n      sub\n      0x1f\n      and\n      dup3\n      add\n      swap2\n    tag_157:\n      pop\n      pop\n      pop\n      pop\n      pop\n        /* \"Insurance.sol\":16318:16338  _serializedInsurance */\n      dup9\n        /* \"Insurance.sol\":16268:16281  stringToBytes */\n      tag_160\n        /* \"Insurance.sol\":16268:16339  stringToBytes(offset, bytes(takerData.takerName), _serializedInsurance) */\n      jump\t// in\n    tag_154:\n        /* \"Insurance.sol\":16359:16367  nameSize */\n      dup4\n        /* \"Insurance.sol\":16349:16367  offset -= nameSize */\n      0xffff\n      and\n      dup2\n      tag_161\n      swap2\n      swap1\n      tag_117\n      jump\t// in\n    tag_161:\n      swap1\n      pop\n        /* \"Insurance.sol\":16427:16481  uintToBytes(offset, addressSize, _serializedInsurance) */\n      tag_162\n        /* \"Insurance.sol\":16439:16445  offset */\n      dup2\n        /* \"Insurance.sol\":16447:16458  addressSize */\n      dup5\n        /* \"Insurance.sol\":16427:16481  uintToBytes(offset, addressSize, _serializedInsurance) */\n      0xffff\n      and\n        /* \"Insurance.sol\":16460:16480  _serializedInsurance */\n      dup9\n        /* \"Insurance.sol\":16427:16438  uintToBytes */\n      tag_119\n        /* \"Insurance.sol\":16427:16481  uintToBytes(offset, addressSize, _serializedInsurance) */\n      jump\t// in\n    tag_162:\n        /* \"Insurance.sol\":16501:16502  2 */\n      0x02\n        /* \"Insurance.sol\":16491:16502  offset -= 2 */\n      dup2\n      tag_163\n      swap2\n      swap1\n      tag_117\n      jump\t// in\n    tag_163:\n      swap1\n      pop\n        /* \"Insurance.sol\":16513:16587  stringToBytes(offset, bytes(takerData.takerAddress), _serializedInsurance) */\n      tag_164\n        /* \"Insurance.sol\":16527:16533  offset */\n      dup2\n        /* \"Insurance.sol\":16541:16550  takerData */\n      0x11\n        /* \"Insurance.sol\":16541:16563  takerData.takerAddress */\n      0x01\n      add\n        /* \"Insurance.sol\":16513:16587  stringToBytes(offset, bytes(takerData.takerAddress), _serializedInsurance) */\n      dup1\n      sload\n      tag_165\n      swap1\n      tag_78\n      jump\t// in\n    tag_165:\n      dup1\n      0x1f\n      add\n      0x20\n      dup1\n      swap2\n      div\n      mul\n      0x20\n      add\n      mload(0x40)\n      swap1\n      dup2\n      add\n      0x40\n      mstore\n      dup1\n      swap3\n      swap2\n      swap1\n      dup2\n      dup2\n      mstore\n      0x20\n      add\n      dup3\n      dup1\n      sload\n      tag_166\n      swap1\n      tag_78\n      jump\t// in\n    tag_166:\n      dup1\n      iszero\n      tag_167\n      jumpi\n      dup1\n      0x1f\n      lt\n      tag_168\n      jumpi\n      0x0100\n      dup1\n      dup4\n      sload\n      div\n      mul\n      dup4\n      mstore\n      swap2\n      0x20\n      add\n      swap2\n      jump(tag_167)\n    tag_168:\n      dup3\n      add\n      swap2\n      swap1\n      0x00\n      mstore\n      keccak256(0x00, 0x20)\n      swap1\n    tag_169:\n      dup2\n      sload\n      dup2\n      mstore\n      swap1\n      0x01\n      add\n      swap1\n      0x20\n      add\n      dup1\n      dup4\n      gt\n      tag_169\n      jumpi\n      dup3\n      swap1\n      sub\n      0x1f\n      and\n      dup3\n      add\n      swap2\n    tag_167:\n      pop\n      pop\n      pop\n      pop\n      pop\n        /* \"Insurance.sol\":16566:16586  _serializedInsurance */\n      dup9\n        /* \"Insurance.sol\":16513:16526  stringToBytes */\n      tag_160\n        /* \"Insurance.sol\":16513:16587  stringToBytes(offset, bytes(takerData.takerAddress), _serializedInsurance) */\n      jump\t// in\n    tag_164:\n        /* \"Insurance.sol\":16607:16618  addressSize */\n      dup3\n        /* \"Insurance.sol\":16597:16618  offset -= addressSize */\n      0xffff\n      and\n      dup2\n      tag_170\n      swap2\n      swap1\n      tag_117\n      jump\t// in\n    tag_170:\n      swap1\n      pop\n        /* \"Insurance.sol\":16676:16728  uintToBytes(offset, emailSize, _serializedInsurance) */\n      tag_171\n        /* \"Insurance.sol\":16688:16694  offset */\n      dup2\n        /* \"Insurance.sol\":16696:16705  emailSize */\n      dup4\n        /* \"Insurance.sol\":16676:16728  uintToBytes(offset, emailSize, _serializedInsurance) */\n      0xffff\n      and\n        /* \"Insurance.sol\":16707:16727  _serializedInsurance */\n      dup9\n        /* \"Insurance.sol\":16676:16687  uintToBytes */\n      tag_119\n        /* \"Insurance.sol\":16676:16728  uintToBytes(offset, emailSize, _serializedInsurance) */\n      jump\t// in\n    tag_171:\n        /* \"Insurance.sol\":16748:16749  2 */\n      0x02\n        /* \"Insurance.sol\":16738:16749  offset -= 2 */\n      dup2\n      tag_172\n      swap2\n      swap1\n      tag_117\n      jump\t// in\n    tag_172:\n      swap1\n      pop\n        /* \"Insurance.sol\":16760:16832  stringToBytes(offset, bytes(takerData.takerEmail), _serializedInsurance) */\n      tag_173\n        /* \"Insurance.sol\":16774:16780  offset */\n      dup2\n        /* \"Insurance.sol\":16788:16797  takerData */\n      0x11\n        /* \"Insurance.sol\":16788:16808  takerData.takerEmail */\n      0x02\n      add\n        /* \"Insurance.sol\":16760:16832  stringToBytes(offset, bytes(takerData.takerEmail), _serializedInsurance) */\n      dup1\n      sload\n      tag_174\n      swap1\n      tag_78\n      jump\t// in\n    tag_174:\n      dup1\n      0x1f\n      add\n      0x20\n      dup1\n      swap2\n      div\n      mul\n      0x20\n      add\n      mload(0x40)\n      swap1\n      dup2\n      add\n      0x40\n      mstore\n      dup1\n      swap3\n      swap2\n      swap1\n      dup2\n      dup2\n      mstore\n      0x20\n      add\n      dup3\n      dup1\n      sload\n      tag_175\n      swap1\n      tag_78\n      jump\t// in\n    tag_175:\n      dup1\n      iszero\n      tag_176\n      jumpi\n      dup1\n      0x1f\n      lt\n      tag_177\n      jumpi\n      0x0100\n      dup1\n      dup4\n      sload\n      div\n      mul\n      dup4\n      mstore\n      swap2\n      0x20\n      add\n      swap2\n      jump(tag_176)\n    tag_177:\n      dup3\n      add\n      swap2\n      swap1\n      0x00\n      mstore\n      keccak256(0x00, 0x20)\n      swap1\n    tag_178:\n      dup2\n      sload\n      dup2\n      mstore\n      swap1\n      0x01\n      add\n      swap1\n      0x20\n      add\n      dup1\n      dup4\n      gt\n      tag_178\n      jumpi\n      dup3\n      swap1\n      sub\n      0x1f\n      and\n      dup3\n      add\n      swap2\n    tag_176:\n      pop\n      pop\n      pop\n      pop\n      pop\n        /* \"Insurance.sol\":16811:16831  _serializedInsurance */\n      dup9\n        /* \"Insurance.sol\":16760:16773  stringToBytes */\n      tag_160\n        /* \"Insurance.sol\":16760:16832  stringToBytes(offset, bytes(takerData.takerEmail), _serializedInsurance) */\n      jump\t// in\n    tag_173:\n        /* \"Insurance.sol\":16852:16861  emailSize */\n      dup2\n        /* \"Insurance.sol\":16842:16861  offset -= emailSize */\n      0xffff\n      and\n      dup2\n      tag_179\n      swap2\n      swap1\n      tag_117\n      jump\t// in\n    tag_179:\n      swap1\n      pop\n        /* \"Insurance.sol\":16937:17007  uintToBytes(offset, insuranceData.insuredNumber, _serializedInsurance) */\n      tag_180\n        /* \"Insurance.sol\":16949:16955  offset */\n      dup2\n        /* \"Insurance.sol\":16957:16970  insuranceData */\n      0x0a\n        /* \"Insurance.sol\":16957:16984  insuranceData.insuredNumber */\n      0x00\n      add\n      0x06\n      swap1\n      sload\n      swap1\n      0x0100\n      exp\n      swap1\n      div\n      0xffff\n      and\n        /* \"Insurance.sol\":16937:17007  uintToBytes(offset, insuranceData.insuredNumber, _serializedInsurance) */\n      0xffff\n      and\n        /* \"Insurance.sol\":16986:17006  _serializedInsurance */\n      dup9\n        /* \"Insurance.sol\":16937:16948  uintToBytes */\n      tag_119\n        /* \"Insurance.sol\":16937:17007  uintToBytes(offset, insuranceData.insuredNumber, _serializedInsurance) */\n      jump\t// in\n    tag_180:\n        /* \"Insurance.sol\":17027:17028  2 */\n      0x02\n        /* \"Insurance.sol\":17017:17028  offset -= 2 */\n      dup2\n      tag_181\n      swap2\n      swap1\n      tag_117\n      jump\t// in\n    tag_181:\n      swap1\n      pop\n        /* \"Insurance.sol\":17085:17094  uint256 i */\n      0x00\n        /* \"Insurance.sol\":17080:17657  for (uint256 i = 0; i < insuranceData.insuredNumber; i++) {... */\n    tag_182:\n        /* \"Insurance.sol\":17104:17117  insuranceData */\n      0x0a\n        /* \"Insurance.sol\":17104:17131  insuranceData.insuredNumber */\n      0x00\n      add\n      0x06\n      swap1\n      sload\n      swap1\n      0x0100\n      exp\n      swap1\n      div\n      0xffff\n      and\n        /* \"Insurance.sol\":17100:17131  i < insuranceData.insuredNumber */\n      0xffff\n      and\n        /* \"Insurance.sol\":17100:17101  i */\n      dup2\n        /* \"Insurance.sol\":17100:17131  i < insuranceData.insuredNumber */\n      lt\n        /* \"Insurance.sol\":17080:17657  for (uint256 i = 0; i < insuranceData.insuredNumber; i++) {... */\n      iszero\n      tag_183\n      jumpi\n        /* \"Insurance.sol\":17188:17259  bytes32ToBytes(offset, insuranceData.insureds[i], _serializedInsurance) */\n      tag_185\n        /* \"Insurance.sol\":17203:17209  offset */\n      dup3\n        /* \"Insurance.sol\":17211:17224  insuranceData */\n      0x0a\n        /* \"Insurance.sol\":17211:17233  insuranceData.insureds */\n      0x05\n      add\n        /* \"Insurance.sol\":17234:17235  i */\n      dup4\n        /* \"Insurance.sol\":17211:17236  insuranceData.insureds[i] */\n      dup2\n      sload\n      dup2\n      lt\n      tag_186\n      jumpi\n      mstore(0x00, 0x4e487b7100000000000000000000000000000000000000000000000000000000)\n      mstore(0x04, 0x32)\n      revert(0x00, 0x24)\n    tag_186:\n      swap1\n      0x00\n      mstore\n      keccak256(0x00, 0x20)\n      add\n      sload\n        /* \"Insurance.sol\":17238:17258  _serializedInsurance */\n      dup10\n        /* \"Insurance.sol\":17188:17202  bytes32ToBytes */\n      tag_115\n        /* \"Insurance.sol\":17188:17259  bytes32ToBytes(offset, insuranceData.insureds[i], _serializedInsurance) */\n      jump\t// in\n    tag_185:\n        /* \"Insurance.sol\":17283:17285  32 */\n      0x20\n        /* \"Insurance.sol\":17273:17285  offset -= 32 */\n      dup3\n      tag_188\n      swap2\n      swap1\n      tag_117\n      jump\t// in\n    tag_188:\n      swap2\n      pop\n        /* \"Insurance.sol\":17351:17441  bytes32ToBytes(offset, insuredNegPcrHash[insuranceData.insureds[i]], _serializedInsurance) */\n      tag_189\n        /* \"Insurance.sol\":17366:17372  offset */\n      dup3\n        /* \"Insurance.sol\":17374:17391  insuredNegPcrHash */\n      0x07\n        /* \"Insurance.sol\":17374:17418  insuredNegPcrHash[insuranceData.insureds[i]] */\n      0x00\n        /* \"Insurance.sol\":17392:17405  insuranceData */\n      0x0a\n        /* \"Insurance.sol\":17392:17414  insuranceData.insureds */\n      0x05\n      add\n        /* \"Insurance.sol\":17415:17416  i */\n      dup6\n        /* \"Insurance.sol\":17392:17417  insuranceData.insureds[i] */\n      dup2\n      sload\n      dup2\n      lt\n      tag_190\n      jumpi\n      mstore(0x00, 0x4e487b7100000000000000000000000000000000000000000000000000000000)\n      mstore(0x04, 0x32)\n      revert(0x00, 0x24)\n    tag_190:\n      swap1\n      0x00\n      mstore\n      keccak256(0x00, 0x20)\n      add\n      sload\n        /* \"Insurance.sol\":17374:17418  insuredNegPcrHash[insuranceData.insureds[i]] */\n      dup2\n      mstore\n      0x20\n      add\n      swap1\n      dup2\n      mstore\n      0x20\n      add\n      0x00\n      keccak256\n      sload\n        /* \"Insurance.sol\":17420:17440  _serializedInsurance */\n      dup10\n        /* \"Insurance.sol\":17351:17365  bytes32ToBytes */\n      tag_115\n        /* \"Insurance.sol\":17351:17441  bytes32ToBytes(offset, insuredNegPcrHash[insuranceData.insureds[i]], _serializedInsurance) */\n      jump\t// in\n    tag_189:\n        /* \"Insurance.sol\":17465:17467  32 */\n      0x20\n        /* \"Insurance.sol\":17455:17467  offset -= 32 */\n      dup3\n      tag_192\n      swap2\n      swap1\n      tag_117\n      jump\t// in\n    tag_192:\n      swap2\n      pop\n        /* \"Insurance.sol\":17533:17620  uintToBytes(offset, insuredNegPcrDate[insuranceData.insureds[i]], _serializedInsurance) */\n      tag_193\n        /* \"Insurance.sol\":17545:17551  offset */\n      dup3\n        /* \"Insurance.sol\":17553:17570  insuredNegPcrDate */\n      0x08\n        /* \"Insurance.sol\":17553:17597  insuredNegPcrDate[insuranceData.insureds[i]] */\n      0x00\n        /* \"Insurance.sol\":17571:17584  insuranceData */\n      0x0a\n        /* \"Insurance.sol\":17571:17593  insuranceData.insureds */\n      0x05\n      add\n        /* \"Insurance.sol\":17594:17595  i */\n      dup6\n        /* \"Insurance.sol\":17571:17596  insuranceData.insureds[i] */\n      dup2\n      sload\n      dup2\n      lt\n      tag_194\n      jumpi\n      mstore(0x00, 0x4e487b7100000000000000000000000000000000000000000000000000000000)\n      mstore(0x04, 0x32)\n      revert(0x00, 0x24)\n    tag_194:\n      swap1\n      0x00\n      mstore\n      keccak256(0x00, 0x20)\n      add\n      sload\n        /* \"Insurance.sol\":17553:17597  insuredNegPcrDate[insuranceData.insureds[i]] */\n      dup2\n      mstore\n      0x20\n      add\n      swap1\n      dup2\n      mstore\n      0x20\n      add\n      0x00\n      keccak256\n      sload\n        /* \"Insurance.sol\":17599:17619  _serializedInsurance */\n      dup10\n        /* \"Insurance.sol\":17533:17544  uintToBytes */\n      tag_119\n        /* \"Insurance.sol\":17533:17620  uintToBytes(offset, insuredNegPcrDate[insuranceData.insureds[i]], _serializedInsurance) */\n      jump\t// in\n    tag_193:\n        /* \"Insurance.sol\":17644:17646  32 */\n      0x20\n        /* \"Insurance.sol\":17634:17646  offset -= 32 */\n      dup3\n      tag_196\n      swap2\n      swap1\n      tag_117\n      jump\t// in\n    tag_196:\n      swap2\n      pop\n        /* \"Insurance.sol\":17133:17136  i++ */\n      dup1\n      dup1\n      tag_197\n      swap1\n      tag_198\n      jump\t// in\n    tag_197:\n      swap2\n      pop\n      pop\n        /* \"Insurance.sol\":17080:17657  for (uint256 i = 0; i < insuranceData.insuredNumber; i++) {... */\n      jump(tag_182)\n    tag_183:\n      pop\n        /* \"Insurance.sol\":17733:17799  uintToBytes(offset, insuranceData.pcrNumber, _serializedInsurance) */\n      tag_199\n        /* \"Insurance.sol\":17745:17751  offset */\n      dup2\n        /* \"Insurance.sol\":17753:17766  insuranceData */\n      0x0a\n        /* \"Insurance.sol\":17753:17776  insuranceData.pcrNumber */\n      0x00\n      add\n      0x04\n      swap1\n      sload\n      swap1\n      0x0100\n      exp\n      swap1\n      div\n      0xffff\n      and\n        /* \"Insurance.sol\":17733:17799  uintToBytes(offset, insuranceData.pcrNumber, _serializedInsurance) */\n      0xffff\n      and\n        /* \"Insurance.sol\":17778:17798  _serializedInsurance */\n      dup9\n        /* \"Insurance.sol\":17733:17744  uintToBytes */\n      tag_119\n        /* \"Insurance.sol\":17733:17799  uintToBytes(offset, insuranceData.pcrNumber, _serializedInsurance) */\n      jump\t// in\n    tag_199:\n        /* \"Insurance.sol\":17819:17821  32 */\n      0x20\n        /* \"Insurance.sol\":17809:17821  offset -= 32 */\n      dup2\n      tag_200\n      swap2\n      swap1\n      tag_117\n      jump\t// in\n    tag_200:\n      swap1\n      pop\n        /* \"Insurance.sol\":17832:17849  bytes32 resultPcr */\n      0x00\n        /* \"Insurance.sol\":17860:17880  bytes32 insuredIdPcr */\n      dup1\n        /* \"Insurance.sol\":17891:17913  uint256 requestDatePcr */\n      0x00\n        /* \"Insurance.sol\":17924:17945  uint256 resultDatePcr */\n      dup1\n        /* \"Insurance.sol\":17955:17968  bytes32 idPcr */\n      0x00\n        /* \"Insurance.sol\":18012:18021  uint256 i */\n      dup1\n        /* \"Insurance.sol\":18024:18025  0 */\n      0x00\n        /* \"Insurance.sol\":18012:18025  uint256 i = 0 */\n      swap1\n      pop\n        /* \"Insurance.sol\":18007:19179  for (uint256 i = 0; i < insuranceData.insuredNumber; i++) {... */\n    tag_201:\n        /* \"Insurance.sol\":18031:18044  insuranceData */\n      0x0a\n        /* \"Insurance.sol\":18031:18058  insuranceData.insuredNumber */\n      0x00\n      add\n      0x06\n      swap1\n      sload\n      swap1\n      0x0100\n      exp\n      swap1\n      div\n      0xffff\n      and\n        /* \"Insurance.sol\":18027:18058  i < insuranceData.insuredNumber */\n      0xffff\n      and\n        /* \"Insurance.sol\":18027:18028  i */\n      dup2\n        /* \"Insurance.sol\":18027:18058  i < insuranceData.insuredNumber */\n      lt\n        /* \"Insurance.sol\":18007:19179  for (uint256 i = 0; i < insuranceData.insuredNumber; i++) {... */\n      iszero\n      tag_202\n      jumpi\n        /* \"Insurance.sol\":18084:18093  uint256 j */\n      0x00\n        /* \"Insurance.sol\":18079:19169  for (uint256 j = 0; j < insuredPCRs[insuranceData.insureds[i]].length; j++) {... */\n    tag_204:\n        /* \"Insurance.sol\":18103:18114  insuredPCRs */\n      0x03\n        /* \"Insurance.sol\":18103:18141  insuredPCRs[insuranceData.insureds[i]] */\n      0x00\n        /* \"Insurance.sol\":18115:18128  insuranceData */\n      0x0a\n        /* \"Insurance.sol\":18115:18137  insuranceData.insureds */\n      0x05\n      add\n        /* \"Insurance.sol\":18138:18139  i */\n      dup5\n        /* \"Insurance.sol\":18115:18140  insuranceData.insureds[i] */\n      dup2\n      sload\n      dup2\n      lt\n      tag_207\n      jumpi\n      mstore(0x00, 0x4e487b7100000000000000000000000000000000000000000000000000000000)\n      mstore(0x04, 0x32)\n      revert(0x00, 0x24)\n    tag_207:\n      swap1\n      0x00\n      mstore\n      keccak256(0x00, 0x20)\n      add\n      sload\n        /* \"Insurance.sol\":18103:18141  insuredPCRs[insuranceData.insureds[i]] */\n      dup2\n      mstore\n      0x20\n      add\n      swap1\n      dup2\n      mstore\n      0x20\n      add\n      0x00\n      keccak256\n        /* \"Insurance.sol\":18103:18148  insuredPCRs[insuranceData.insureds[i]].length */\n      dup1\n      sload\n      swap1\n      pop\n        /* \"Insurance.sol\":18099:18100  j */\n      dup2\n        /* \"Insurance.sol\":18099:18148  j < insuredPCRs[insuranceData.insureds[i]].length */\n      lt\n        /* \"Insurance.sol\":18079:19169  for (uint256 j = 0; j < insuredPCRs[insuranceData.insureds[i]].length; j++) {... */\n      iszero\n      tag_205\n      jumpi\n        /* \"Insurance.sol\":18178:18189  isPcrActive */\n      0x05\n        /* \"Insurance.sol\":18178:18232  isPcrActive[insuredPCRs[insuranceData.insureds[i]][j]] */\n      0x00\n        /* \"Insurance.sol\":18190:18201  insuredPCRs */\n      0x03\n        /* \"Insurance.sol\":18190:18228  insuredPCRs[insuranceData.insureds[i]] */\n      0x00\n        /* \"Insurance.sol\":18202:18215  insuranceData */\n      0x0a\n        /* \"Insurance.sol\":18202:18224  insuranceData.insureds */\n      0x05\n      add\n        /* \"Insurance.sol\":18225:18226  i */\n      dup7\n        /* \"Insurance.sol\":18202:18227  insuranceData.insureds[i] */\n      dup2\n      sload\n      dup2\n      lt\n      tag_209\n      jumpi\n      mstore(0x00, 0x4e487b7100000000000000000000000000000000000000000000000000000000)\n      mstore(0x04, 0x32)\n      revert(0x00, 0x24)\n    tag_209:\n      swap1\n      0x00\n      mstore\n      keccak256(0x00, 0x20)\n      add\n      sload\n        /* \"Insurance.sol\":18190:18228  insuredPCRs[insuranceData.insureds[i]] */\n      dup2\n      mstore\n      0x20\n      add\n      swap1\n      dup2\n      mstore\n      0x20\n      add\n      0x00\n      keccak256\n        /* \"Insurance.sol\":18229:18230  j */\n      dup4\n        /* \"Insurance.sol\":18190:18231  insuredPCRs[insuranceData.insureds[i]][j] */\n      dup2\n      sload\n      dup2\n      lt\n      tag_211\n      jumpi\n      mstore(0x00, 0x4e487b7100000000000000000000000000000000000000000000000000000000)\n      mstore(0x04, 0x32)\n      revert(0x00, 0x24)\n    tag_211:\n      swap1\n      0x00\n      mstore\n      keccak256(0x00, 0x20)\n      add\n      sload\n        /* \"Insurance.sol\":18178:18232  isPcrActive[insuredPCRs[insuranceData.insureds[i]][j]] */\n      dup2\n      mstore\n      0x20\n      add\n      swap1\n      dup2\n      mstore\n      0x20\n      add\n      0x00\n      keccak256\n      0x00\n      swap1\n      sload\n      swap1\n      0x0100\n      exp\n      swap1\n      div\n      0xff\n      and\n        /* \"Insurance.sol\":18173:18283  if (!isPcrActive[insuredPCRs[insuranceData.insureds[i]][j]]) {... */\n      tag_213\n      jumpi\n        /* \"Insurance.sol\":18256:18264  continue */\n      jump(tag_206)\n        /* \"Insurance.sol\":18173:18283  if (!isPcrActive[insuredPCRs[insuranceData.insureds[i]][j]]) {... */\n    tag_213:\n        /* \"Insurance.sol\":18367:18416  getPCR(insuredPCRs[insuranceData.insureds[i]][j]) */\n      tag_214\n        /* \"Insurance.sol\":18374:18385  insuredPCRs */\n      0x03\n        /* \"Insurance.sol\":18374:18412  insuredPCRs[insuranceData.insureds[i]] */\n      0x00\n        /* \"Insurance.sol\":18386:18399  insuranceData */\n      0x0a\n        /* \"Insurance.sol\":18386:18408  insuranceData.insureds */\n      0x05\n      add\n        /* \"Insurance.sol\":18409:18410  i */\n      dup6\n        /* \"Insurance.sol\":18386:18411  insuranceData.insureds[i] */\n      dup2\n      sload\n      dup2\n      lt\n      tag_215\n      jumpi\n      mstore(0x00, 0x4e487b7100000000000000000000000000000000000000000000000000000000)\n      mstore(0x04, 0x32)\n      revert(0x00, 0x24)\n    tag_215:\n      swap1\n      0x00\n      mstore\n      keccak256(0x00, 0x20)\n      add\n      sload\n        /* \"Insurance.sol\":18374:18412  insuredPCRs[insuranceData.insureds[i]] */\n      dup2\n      mstore\n      0x20\n      add\n      swap1\n      dup2\n      mstore\n      0x20\n      add\n      0x00\n      keccak256\n        /* \"Insurance.sol\":18413:18414  j */\n      dup3\n        /* \"Insurance.sol\":18374:18415  insuredPCRs[insuranceData.insureds[i]][j] */\n      dup2\n      sload\n      dup2\n      lt\n      tag_217\n      jumpi\n      mstore(0x00, 0x4e487b7100000000000000000000000000000000000000000000000000000000)\n      mstore(0x04, 0x32)\n      revert(0x00, 0x24)\n    tag_217:\n      swap1\n      0x00\n      mstore\n      keccak256(0x00, 0x20)\n      add\n      sload\n        /* \"Insurance.sol\":18367:18373  getPCR */\n      tag_19\n        /* \"Insurance.sol\":18367:18416  getPCR(insuredPCRs[insuranceData.insureds[i]][j]) */\n      jump\t// in\n    tag_214:\n        /* \"Insurance.sol\":18300:18416  (resultPcr, insuredIdPcr, requestDatePcr, resultDatePcr, idPcr,) = getPCR(insuredPCRs[insuranceData.insureds[i]][j]) */\n      pop\n      dup1\n      swap8\n      pop\n      dup2\n      swap9\n      pop\n      dup3\n      swap10\n      pop\n      dup4\n      swap11\n      pop\n      dup5\n      swap12\n      pop\n      pop\n      pop\n      pop\n      pop\n      pop\n        /* \"Insurance.sol\":18470:18521  bytes32ToBytes(offset, idPcr, _serializedInsurance) */\n      tag_219\n        /* \"Insurance.sol\":18485:18491  offset */\n      dup9\n        /* \"Insurance.sol\":18493:18498  idPcr */\n      dup5\n        /* \"Insurance.sol\":18500:18520  _serializedInsurance */\n      dup16\n        /* \"Insurance.sol\":18470:18484  bytes32ToBytes */\n      tag_115\n        /* \"Insurance.sol\":18470:18521  bytes32ToBytes(offset, idPcr, _serializedInsurance) */\n      jump\t// in\n    tag_219:\n        /* \"Insurance.sol\":18549:18551  32 */\n      0x20\n        /* \"Insurance.sol\":18539:18551  offset -= 32 */\n      dup9\n      tag_220\n      swap2\n      swap1\n      tag_117\n      jump\t// in\n    tag_220:\n      swap8\n      pop\n        /* \"Insurance.sol\":18615:18671  uintToBytes(offset, resultDatePcr, _serializedInsurance) */\n      tag_221\n        /* \"Insurance.sol\":18627:18633  offset */\n      dup9\n        /* \"Insurance.sol\":18635:18648  resultDatePcr */\n      dup6\n        /* \"Insurance.sol\":18650:18670  _serializedInsurance */\n      dup16\n        /* \"Insurance.sol\":18615:18626  uintToBytes */\n      tag_119\n        /* \"Insurance.sol\":18615:18671  uintToBytes(offset, resultDatePcr, _serializedInsurance) */\n      jump\t// in\n    tag_221:\n        /* \"Insurance.sol\":18699:18701  32 */\n      0x20\n        /* \"Insurance.sol\":18689:18701  offset -= 32 */\n      dup9\n      tag_222\n      swap2\n      swap1\n      tag_117\n      jump\t// in\n    tag_222:\n      swap8\n      pop\n        /* \"Insurance.sol\":18766:18823  uintToBytes(offset, requestDatePcr, _serializedInsurance) */\n      tag_223\n        /* \"Insurance.sol\":18778:18784  offset */\n      dup9\n        /* \"Insurance.sol\":18786:18800  requestDatePcr */\n      dup7\n        /* \"Insurance.sol\":18802:18822  _serializedInsurance */\n      dup16\n        /* \"Insurance.sol\":18766:18777  uintToBytes */\n      tag_119\n        /* \"Insurance.sol\":18766:18823  uintToBytes(offset, requestDatePcr, _serializedInsurance) */\n      jump\t// in\n    tag_223:\n        /* \"Insurance.sol\":18851:18853  32 */\n      0x20\n        /* \"Insurance.sol\":18841:18853  offset -= 32 */\n      dup9\n      tag_224\n      swap2\n      swap1\n      tag_117\n      jump\t// in\n    tag_224:\n      swap8\n      pop\n        /* \"Insurance.sol\":18919:18977  bytes32ToBytes(offset, insuredIdPcr, _serializedInsurance) */\n      tag_225\n        /* \"Insurance.sol\":18934:18940  offset */\n      dup9\n        /* \"Insurance.sol\":18942:18954  insuredIdPcr */\n      dup8\n        /* \"Insurance.sol\":18956:18976  _serializedInsurance */\n      dup16\n        /* \"Insurance.sol\":18919:18933  bytes32ToBytes */\n      tag_115\n        /* \"Insurance.sol\":18919:18977  bytes32ToBytes(offset, insuredIdPcr, _serializedInsurance) */\n      jump\t// in\n    tag_225:\n        /* \"Insurance.sol\":19005:19007  32 */\n      0x20\n        /* \"Insurance.sol\":18995:19007  offset -= 32 */\n      dup9\n      tag_226\n      swap2\n      swap1\n      tag_117\n      jump\t// in\n    tag_226:\n      swap8\n      pop\n        /* \"Insurance.sol\":19069:19124  bytes32ToBytes(offset, resultPcr, _serializedInsurance) */\n      tag_227\n        /* \"Insurance.sol\":19084:19090  offset */\n      dup9\n        /* \"Insurance.sol\":19092:19101  resultPcr */\n      dup9\n        /* \"Insurance.sol\":19103:19123  _serializedInsurance */\n      dup16\n        /* \"Insurance.sol\":19069:19083  bytes32ToBytes */\n      tag_115\n        /* \"Insurance.sol\":19069:19124  bytes32ToBytes(offset, resultPcr, _serializedInsurance) */\n      jump\t// in\n    tag_227:\n        /* \"Insurance.sol\":19152:19154  32 */\n      0x20\n        /* \"Insurance.sol\":19142:19154  offset -= 32 */\n      dup9\n      tag_228\n      swap2\n      swap1\n      tag_117\n      jump\t// in\n    tag_228:\n      swap8\n      pop\n        /* \"Insurance.sol\":18079:19169  for (uint256 j = 0; j < insuredPCRs[insuranceData.insureds[i]].length; j++) {... */\n    tag_206:\n        /* \"Insurance.sol\":18150:18153  j++ */\n      dup1\n      dup1\n      tag_229\n      swap1\n      tag_198\n      jump\t// in\n    tag_229:\n      swap2\n      pop\n      pop\n        /* \"Insurance.sol\":18079:19169  for (uint256 j = 0; j < insuredPCRs[insuranceData.insureds[i]].length; j++) {... */\n      jump(tag_204)\n    tag_205:\n      pop\n        /* \"Insurance.sol\":18060:18063  i++ */\n      dup1\n      dup1\n      tag_230\n      swap1\n      tag_198\n      jump\t// in\n    tag_230:\n      swap2\n      pop\n      pop\n        /* \"Insurance.sol\":18007:19179  for (uint256 i = 0; i < insuranceData.insuredNumber; i++) {... */\n      jump(tag_201)\n    tag_202:\n      pop\n        /* \"Insurance.sol\":12603:19185  function serializeInsurance() external view returns (bytes memory _serializedInsurance, uint256 _size) {... */\n      pop\n      pop\n      pop\n      pop\n      pop\n      pop\n      pop\n      pop\n      pop\n      swap1\n      swap2\n      jump\t// out\n        /* \"Insurance.sol\":12282:12443  function addSpcAddress(address _spcAddress) external {... */\n    tag_33:\n        /* \"Insurance.sol\":12354:12369  spcAddressAdded */\n      0x01\n      0x14\n      swap1\n      sload\n      swap1\n      0x0100\n      exp\n      swap1\n      div\n      0xff\n      and\n        /* \"Insurance.sol\":12353:12369  !spcAddressAdded */\n      iszero\n        /* \"Insurance.sol\":12345:12370  require(!spcAddressAdded) */\n      tag_232\n      jumpi\n      0x00\n      dup1\n      revert\n    tag_232:\n        /* \"Insurance.sol\":12398:12402  true */\n      0x01\n        /* \"Insurance.sol\":12380:12395  spcAddressAdded */\n      dup1\n      0x14\n        /* \"Insurance.sol\":12380:12402  spcAddressAdded = true */\n      0x0100\n      exp\n      dup2\n      sload\n      dup2\n      0xff\n      mul\n      not\n      and\n      swap1\n      dup4\n      iszero\n      iszero\n      mul\n      or\n      swap1\n      sstore\n      pop\n        /* \"Insurance.sol\":12425:12436  _spcAddress */\n      dup1\n        /* \"Insurance.sol\":12412:12422  spcAddress */\n      0x01\n      0x00\n        /* \"Insurance.sol\":12412:12436  spcAddress = _spcAddress */\n      0x0100\n      exp\n      dup2\n      sload\n      dup2\n      0xffffffffffffffffffffffffffffffffffffffff\n      mul\n      not\n      and\n      swap1\n      dup4\n      0xffffffffffffffffffffffffffffffffffffffff\n      and\n      mul\n      or\n      swap1\n      sstore\n      pop\n        /* \"Insurance.sol\":12282:12443  function addSpcAddress(address _spcAddress) external {... */\n      pop\n      jump\t// out\n        /* \"Insurance.sol\":7670:8485  function addPCRtoInsured(... */\n    tag_37:\n        /* \"Insurance.sol\":7846:7864  insuredInInsurance */\n      0x04\n        /* \"Insurance.sol\":7846:7876  insuredInInsurance[_insuredId] */\n      0x00\n        /* \"Insurance.sol\":7865:7875  _insuredId */\n      dup6\n        /* \"Insurance.sol\":7846:7876  insuredInInsurance[_insuredId] */\n      dup2\n      mstore\n      0x20\n      add\n      swap1\n      dup2\n      mstore\n      0x20\n      add\n      0x00\n      keccak256\n      0x00\n      swap1\n      sload\n      swap1\n      0x0100\n      exp\n      swap1\n      div\n      0xff\n      and\n        /* \"Insurance.sol\":7838:7924  require(insuredInInsurance[_insuredId], \"The id of the insured is not in the policy.\") */\n      tag_234\n      jumpi\n      mload(0x40)\n      0x08c379a000000000000000000000000000000000000000000000000000000000\n      dup2\n      mstore\n      0x04\n      add\n      tag_235\n      swap1\n      tag_236\n      jump\t// in\n    tag_235:\n      mload(0x40)\n      dup1\n      swap2\n      sub\n      swap1\n      revert\n    tag_234:\n        /* \"Insurance.sol\":7943:7954  isPcrActive */\n      0x05\n        /* \"Insurance.sol\":7943:7962  isPcrActive[_idPcr] */\n      0x00\n        /* \"Insurance.sol\":7955:7961  _idPcr */\n      dup5\n        /* \"Insurance.sol\":7943:7962  isPcrActive[_idPcr] */\n      dup2\n      mstore\n      0x20\n      add\n      swap1\n      dup2\n      mstore\n      0x20\n      add\n      0x00\n      keccak256\n      0x00\n      swap1\n      sload\n      swap1\n      0x0100\n      exp\n      swap1\n      div\n      0xff\n      and\n        /* \"Insurance.sol\":7942:7962  !isPcrActive[_idPcr] */\n      iszero\n        /* \"Insurance.sol\":7934:7995  require(!isPcrActive[_idPcr], \"Ya existe una PCR con ese ID\") */\n      tag_237\n      jumpi\n      mload(0x40)\n      0x08c379a000000000000000000000000000000000000000000000000000000000\n      dup2\n      mstore\n      0x04\n      add\n      tag_238\n      swap1\n      tag_239\n      jump\t// in\n    tag_238:\n      mload(0x40)\n      dup1\n      swap2\n      sub\n      swap1\n      revert\n    tag_237:\n        /* \"Insurance.sol\":8005:8016  insuredPCRs */\n      0x03\n        /* \"Insurance.sol\":8005:8028  insuredPCRs[_insuredId] */\n      0x00\n        /* \"Insurance.sol\":8017:8027  _insuredId */\n      dup6\n        /* \"Insurance.sol\":8005:8028  insuredPCRs[_insuredId] */\n      dup2\n      mstore\n      0x20\n      add\n      swap1\n      dup2\n      mstore\n      0x20\n      add\n      0x00\n      keccak256\n        /* \"Insurance.sol\":8034:8040  _idPcr */\n      dup4\n        /* \"Insurance.sol\":8005:8041  insuredPCRs[_insuredId].push(_idPcr) */\n      swap1\n      dup1\n      0x01\n      dup2\n      sload\n      add\n      dup1\n      dup3\n      sstore\n      dup1\n      swap2\n      pop\n      pop\n      0x01\n      swap1\n      sub\n      swap1\n      0x00\n      mstore\n      keccak256(0x00, 0x20)\n      add\n      0x00\n      swap1\n      swap2\n      swap1\n      swap2\n      swap1\n      swap2\n      pop\n      sstore\n        /* \"Insurance.sol\":8073:8084  insuredPCRs */\n      0x03\n        /* \"Insurance.sol\":8073:8096  insuredPCRs[_insuredId] */\n      0x00\n        /* \"Insurance.sol\":8085:8095  _insuredId */\n      dup6\n        /* \"Insurance.sol\":8073:8096  insuredPCRs[_insuredId] */\n      dup2\n      mstore\n      0x20\n      add\n      swap1\n      dup2\n      mstore\n      0x20\n      add\n      0x00\n      keccak256\n        /* \"Insurance.sol\":8073:8103  insuredPCRs[_insuredId].length */\n      dup1\n      sload\n      swap1\n      pop\n        /* \"Insurance.sol\":8051:8062  pcrLocation */\n      0x02\n        /* \"Insurance.sol\":8051:8070  pcrLocation[_idPcr] */\n      0x00\n        /* \"Insurance.sol\":8063:8069  _idPcr */\n      dup6\n        /* \"Insurance.sol\":8051:8070  pcrLocation[_idPcr] */\n      dup2\n      mstore\n      0x20\n      add\n      swap1\n      dup2\n      mstore\n      0x20\n      add\n      0x00\n      keccak256\n        /* \"Insurance.sol\":8051:8103  pcrLocation[_idPcr] = insuredPCRs[_insuredId].length */\n      dup2\n      swap1\n      sstore\n      pop\n        /* \"Insurance.sol\":8140:8150  _insuredId */\n      dup4\n        /* \"Insurance.sol\":8113:8129  pcrIdToInsuredId */\n      0x06\n        /* \"Insurance.sol\":8113:8137  pcrIdToInsuredId[_idPcr] */\n      0x00\n        /* \"Insurance.sol\":8130:8136  _idPcr */\n      dup6\n        /* \"Insurance.sol\":8113:8137  pcrIdToInsuredId[_idPcr] */\n      dup2\n      mstore\n      0x20\n      add\n      swap1\n      dup2\n      mstore\n      0x20\n      add\n      0x00\n      keccak256\n        /* \"Insurance.sol\":8113:8150  pcrIdToInsuredId[_idPcr] = _insuredId */\n      dup2\n      swap1\n      sstore\n      pop\n        /* \"Insurance.sol\":8182:8407  PcrData({... */\n      mload(0x40)\n      dup1\n      0xc0\n      add\n      0x40\n      mstore\n      dup1\n      0x554e444546494e45440000000000000000000000000000000000000000000000\n      dup2\n      mstore\n      0x20\n      add\n        /* \"Insurance.sol\":8241:8247  _idPcr */\n      dup5\n        /* \"Insurance.sol\":8182:8407  PcrData({... */\n      dup2\n      mstore\n      0x20\n      add\n        /* \"Insurance.sol\":8273:8283  _insuredId */\n      dup6\n        /* \"Insurance.sol\":8182:8407  PcrData({... */\n      dup2\n      mstore\n      0x20\n      add\n        /* \"Insurance.sol\":8310:8322  _requestDate */\n      dup4\n        /* \"Insurance.sol\":8182:8407  PcrData({... */\n      dup2\n      mstore\n      0x20\n      add\n        /* \"Insurance.sol\":8348:8349  0 */\n      0x00\n        /* \"Insurance.sol\":8182:8407  PcrData({... */\n      dup2\n      mstore\n      0x20\n      add\n        /* \"Insurance.sol\":8380:8396  _contractAddress */\n      dup3\n        /* \"Insurance.sol\":8182:8407  PcrData({... */\n      0xffffffffffffffffffffffffffffffffffffffff\n      and\n      dup2\n      mstore\n      pop\n        /* \"Insurance.sol\":8160:8171  pcrIdToData */\n      0x09\n        /* \"Insurance.sol\":8160:8179  pcrIdToData[_idPcr] */\n      0x00\n        /* \"Insurance.sol\":8172:8178  _idPcr */\n      dup6\n        /* \"Insurance.sol\":8160:8179  pcrIdToData[_idPcr] */\n      dup2\n      mstore\n      0x20\n      add\n      swap1\n      dup2\n      mstore\n      0x20\n      add\n      0x00\n      keccak256\n        /* \"Insurance.sol\":8160:8407  pcrIdToData[_idPcr] = PcrData({... */\n      0x00\n      dup3\n      add\n      mload\n      dup2\n      0x00\n      add\n      sstore\n      0x20\n      dup3\n      add\n      mload\n      dup2\n      0x01\n      add\n      sstore\n      0x40\n      dup3\n      add\n      mload\n      dup2\n      0x02\n      add\n      sstore\n      0x60\n      dup3\n      add\n      mload\n      dup2\n      0x03\n      add\n      sstore\n      0x80\n      dup3\n      add\n      mload\n      dup2\n      0x04\n      add\n      sstore\n      0xa0\n      dup3\n      add\n      mload\n      dup2\n      0x05\n      add\n      exp(0x0100, 0x00)\n      dup2\n      sload\n      dup2\n      0xffffffffffffffffffffffffffffffffffffffff\n      mul\n      not\n      and\n      swap1\n      dup4\n      0xffffffffffffffffffffffffffffffffffffffff\n      and\n      mul\n      or\n      swap1\n      sstore\n      pop\n      swap1\n      pop\n      pop\n        /* \"Insurance.sol\":8439:8443  true */\n      0x01\n        /* \"Insurance.sol\":8417:8428  isPcrActive */\n      0x05\n        /* \"Insurance.sol\":8417:8436  isPcrActive[_idPcr] */\n      0x00\n        /* \"Insurance.sol\":8429:8435  _idPcr */\n      dup6\n        /* \"Insurance.sol\":8417:8436  isPcrActive[_idPcr] */\n      dup2\n      mstore\n      0x20\n      add\n      swap1\n      dup2\n      mstore\n      0x20\n      add\n      0x00\n      keccak256\n      0x00\n        /* \"Insurance.sol\":8417:8443  isPcrActive[_idPcr] = true */\n      0x0100\n      exp\n      dup2\n      sload\n      dup2\n      0xff\n      mul\n      not\n      and\n      swap1\n      dup4\n      iszero\n      iszero\n      mul\n      or\n      swap1\n      sstore\n      pop\n        /* \"Insurance.sol\":8453:8466  insuranceData */\n      0x0a\n        /* \"Insurance.sol\":8453:8476  insuranceData.pcrNumber */\n      0x00\n      add\n      0x04\n        /* \"Insurance.sol\":8453:8478  insuranceData.pcrNumber++ */\n      dup2\n      dup2\n      swap1\n      sload\n      swap1\n      0x0100\n      exp\n      swap1\n      div\n      0xffff\n      and\n      dup1\n      swap3\n      swap2\n      swap1\n      tag_241\n      swap1\n      tag_242\n      jump\t// in\n    tag_241:\n      swap2\n      swap1\n      0x0100\n      exp\n      dup2\n      sload\n      dup2\n      0xffff\n      mul\n      not\n      and\n      swap1\n      dup4\n      0xffff\n      and\n      mul\n      or\n      swap1\n      sstore\n      pop\n      pop\n        /* \"Insurance.sol\":7670:8485  function addPCRtoInsured(... */\n      pop\n      pop\n      pop\n      pop\n      jump\t// out\n        /* \"Insurance.sol\":7332:7583  function compensation() public {... */\n    tag_39:\n        /* \"Insurance.sol\":7377:7392  positivePcrTest */\n      0x1c\n      0x00\n      swap1\n      sload\n      swap1\n      0x0100\n      exp\n      swap1\n      div\n      0xff\n      and\n        /* \"Insurance.sol\":7377:7411  positivePcrTest && !paymentEmitted */\n      dup1\n      iszero\n      tag_244\n      jumpi\n      pop\n        /* \"Insurance.sol\":7397:7411  paymentEmitted */\n      0x1c\n      0x01\n      swap1\n      sload\n      swap1\n      0x0100\n      exp\n      swap1\n      div\n      0xff\n      and\n        /* \"Insurance.sol\":7396:7411  !paymentEmitted */\n      iszero\n        /* \"Insurance.sol\":7377:7411  positivePcrTest && !paymentEmitted */\n    tag_244:\n        /* \"Insurance.sol\":7373:7577  if (positivePcrTest && !paymentEmitted) {... */\n      iszero\n      tag_245\n      jumpi\n        /* \"Insurance.sol\":7432:7481  checkPayment(takerData.takerId, insuranceData.id) */\n      0xa12af4b51848737c59ce8d94f45ed389da0d7c547616481934a17713d27726c8\n        /* \"Insurance.sol\":7445:7454  takerData */\n      0x11\n        /* \"Insurance.sol\":7445:7462  takerData.takerId */\n      0x03\n      add\n      sload\n        /* \"Insurance.sol\":7464:7477  insuranceData */\n      0x0a\n        /* \"Insurance.sol\":7464:7480  insuranceData.id */\n      0x01\n      add\n      sload\n        /* \"Insurance.sol\":7432:7481  checkPayment(takerData.takerId, insuranceData.id) */\n      mload(0x40)\n      tag_246\n      swap3\n      swap2\n      swap1\n      tag_247\n      jump\t// in\n    tag_246:\n      mload(0x40)\n      dup1\n      swap2\n      sub\n      swap1\n      log1\n        /* \"Insurance.sol\":7512:7516  true */\n      0x01\n        /* \"Insurance.sol\":7495:7509  paymentEmitted */\n      0x1c\n      0x01\n        /* \"Insurance.sol\":7495:7516  paymentEmitted = true */\n      0x0100\n      exp\n      dup2\n      sload\n      dup2\n      0xff\n      mul\n      not\n      and\n      swap1\n      dup4\n      iszero\n      iszero\n      mul\n      or\n      swap1\n      sstore\n      pop\n        /* \"Insurance.sol\":7551:7566  block.timestamp */\n      timestamp\n        /* \"Insurance.sol\":7530:7548  timePaymentEmitted */\n      0x1d\n        /* \"Insurance.sol\":7530:7566  timePaymentEmitted = block.timestamp */\n      dup2\n      swap1\n      sstore\n      pop\n        /* \"Insurance.sol\":7373:7577  if (positivePcrTest && !paymentEmitted) {... */\n    tag_245:\n        /* \"Insurance.sol\":7332:7583  function compensation() public {... */\n      jump\t// out\n        /* \"Insurance.sol\":19405:19505  function getId() external view returns(bytes32 insuranceId) {... */\n    tag_41:\n        /* \"Insurance.sol\":19444:19463  bytes32 insuranceId */\n      0x00\n        /* \"Insurance.sol\":19482:19495  insuranceData */\n      0x0a\n        /* \"Insurance.sol\":19482:19498  insuranceData.id */\n      0x01\n      add\n      sload\n        /* \"Insurance.sol\":19475:19498  return insuranceData.id */\n      swap1\n      pop\n        /* \"Insurance.sol\":19405:19505  function getId() external view returns(bytes32 insuranceId) {... */\n      swap1\n      jump\t// out\n        /* \"Insurance.sol\":9500:9932  function deletePCR(bytes32 _idPCR) public returns(address _pcrContractAddress) {... */\n    tag_46:\n        /* \"Insurance.sol\":9550:9577  address _pcrContractAddress */\n      0x00\n        /* \"Insurance.sol\":9698:9709  isPcrActive */\n      0x05\n        /* \"Insurance.sol\":9698:9717  isPcrActive[_idPCR] */\n      0x00\n        /* \"Insurance.sol\":9710:9716  _idPCR */\n      dup4\n        /* \"Insurance.sol\":9698:9717  isPcrActive[_idPCR] */\n      dup2\n      mstore\n      0x20\n      add\n      swap1\n      dup2\n      mstore\n      0x20\n      add\n      0x00\n      keccak256\n      0x00\n      swap1\n      sload\n      swap1\n      0x0100\n      exp\n      swap1\n      div\n      0xff\n      and\n        /* \"Insurance.sol\":9690:9750  require(isPcrActive[_idPCR], \"No existe una PCR con esa ID\") */\n      tag_250\n      jumpi\n      mload(0x40)\n      0x08c379a000000000000000000000000000000000000000000000000000000000\n      dup2\n      mstore\n      0x04\n      add\n      tag_251\n      swap1\n      tag_65\n      jump\t// in\n    tag_251:\n      mload(0x40)\n      dup1\n      swap2\n      sub\n      swap1\n      revert\n    tag_250:\n        /* \"Insurance.sol\":9760:9783  address contractAddress */\n      0x00\n        /* \"Insurance.sol\":9786:9797  pcrIdToData */\n      0x09\n        /* \"Insurance.sol\":9786:9805  pcrIdToData[_idPCR] */\n      0x00\n        /* \"Insurance.sol\":9798:9804  _idPCR */\n      dup5\n        /* \"Insurance.sol\":9786:9805  pcrIdToData[_idPCR] */\n      dup2\n      mstore\n      0x20\n      add\n      swap1\n      dup2\n      mstore\n      0x20\n      add\n      0x00\n      keccak256\n        /* \"Insurance.sol\":9786:9821  pcrIdToData[_idPCR].contractAddress */\n      0x05\n      add\n      0x00\n      swap1\n      sload\n      swap1\n      0x0100\n      exp\n      swap1\n      div\n      0xffffffffffffffffffffffffffffffffffffffff\n      and\n        /* \"Insurance.sol\":9760:9821  address contractAddress = pcrIdToData[_idPCR].contractAddress */\n      swap1\n      pop\n        /* \"Insurance.sol\":9853:9858  false */\n      0x00\n        /* \"Insurance.sol\":9831:9842  isPcrActive */\n      0x05\n        /* \"Insurance.sol\":9831:9850  isPcrActive[_idPCR] */\n      0x00\n        /* \"Insurance.sol\":9843:9849  _idPCR */\n      dup6\n        /* \"Insurance.sol\":9831:9850  isPcrActive[_idPCR] */\n      dup2\n      mstore\n      0x20\n      add\n      swap1\n      dup2\n      mstore\n      0x20\n      add\n      0x00\n      keccak256\n      0x00\n        /* \"Insurance.sol\":9831:9858  isPcrActive[_idPCR] = false */\n      0x0100\n      exp\n      dup2\n      sload\n      dup2\n      0xff\n      mul\n      not\n      and\n      swap1\n      dup4\n      iszero\n      iszero\n      mul\n      or\n      swap1\n      sstore\n      pop\n        /* \"Insurance.sol\":9868:9881  insuranceData */\n      0x0a\n        /* \"Insurance.sol\":9868:9891  insuranceData.pcrNumber */\n      0x00\n      add\n      0x04\n        /* \"Insurance.sol\":9868:9893  insuranceData.pcrNumber-- */\n      dup2\n      dup2\n      swap1\n      sload\n      swap1\n      0x0100\n      exp\n      swap1\n      div\n      0xffff\n      and\n      dup1\n      swap3\n      swap2\n      swap1\n      tag_252\n      swap1\n      tag_253\n      jump\t// in\n    tag_252:\n      swap2\n      swap1\n      0x0100\n      exp\n      dup2\n      sload\n      dup2\n      0xffff\n      mul\n      not\n      and\n      swap1\n      dup4\n      0xffff\n      and\n      mul\n      or\n      swap1\n      sstore\n      pop\n      pop\n        /* \"Insurance.sol\":9910:9925  contractAddress */\n      dup1\n        /* \"Insurance.sol\":9903:9925  return contractAddress */\n      swap2\n      pop\n      pop\n        /* \"Insurance.sol\":9500:9932  function deletePCR(bytes32 _idPCR) public returns(address _pcrContractAddress) {... */\n      swap2\n      swap1\n      pop\n      jump\t// out\n        /* \"Insurance.sol\":11519:12109  function getInsuranceData() external view returns(... */\n    tag_50:\n        /* \"Insurance.sol\":11578:11594  bytes32 idPolicy */\n      0x00\n        /* \"Insurance.sol\":11605:11635  uint16 dailyCompensationPolicy */\n      dup1\n        /* \"Insurance.sol\":11646:11675  uint16 daysToCompensatePolicy */\n      0x00\n        /* \"Insurance.sol\":11686:11712  uint16 insuredNumberPolicy */\n      dup1\n        /* \"Insurance.sol\":11723:11746  uint256 startDatePolicy */\n      0x00\n        /* \"Insurance.sol\":11757:11781  uint256 finishDatePolicy */\n      dup1\n        /* \"Insurance.sol\":11791:11816  bytes32[] memory insureds */\n      0x60\n        /* \"Insurance.sol\":11850:11863  insuranceData */\n      0x0a\n        /* \"Insurance.sol\":11850:11866  insuranceData.id */\n      0x01\n      add\n      sload\n        /* \"Insurance.sol\":11876:11889  insuranceData */\n      0x0a\n        /* \"Insurance.sol\":11876:11907  insuranceData.dailyCompensation */\n      0x00\n      add\n      0x00\n      swap1\n      sload\n      swap1\n      0x0100\n      exp\n      swap1\n      div\n      0xffff\n      and\n        /* \"Insurance.sol\":11917:11930  insuranceData */\n      0x0a\n        /* \"Insurance.sol\":11917:11947  insuranceData.daysToCompensate */\n      0x00\n      add\n      0x02\n      swap1\n      sload\n      swap1\n      0x0100\n      exp\n      swap1\n      div\n      0xffff\n      and\n        /* \"Insurance.sol\":11957:11970  insuranceData */\n      0x0a\n        /* \"Insurance.sol\":11957:11984  insuranceData.insuredNumber */\n      0x00\n      add\n      0x06\n      swap1\n      sload\n      swap1\n      0x0100\n      exp\n      swap1\n      div\n      0xffff\n      and\n        /* \"Insurance.sol\":11994:12007  insuranceData */\n      0x0a\n        /* \"Insurance.sol\":11994:12026  insuranceData.insuranceStartDate */\n      0x02\n      add\n      sload\n        /* \"Insurance.sol\":12036:12049  insuranceData */\n      0x0a\n        /* \"Insurance.sol\":12036:12069  insuranceData.insuranceFinishDate */\n      0x03\n      add\n      sload\n        /* \"Insurance.sol\":12079:12092  insuranceData */\n      0x0a\n        /* \"Insurance.sol\":12079:12101  insuranceData.insureds */\n      0x05\n      add\n        /* \"Insurance.sol\":11833:12102  return (... */\n      dup1\n      dup1\n      sload\n      dup1\n      0x20\n      mul\n      0x20\n      add\n      mload(0x40)\n      swap1\n      dup2\n      add\n      0x40\n      mstore\n      dup1\n      swap3\n      swap2\n      swap1\n      dup2\n      dup2\n      mstore\n      0x20\n      add\n      dup3\n      dup1\n      sload\n      dup1\n      iszero\n      tag_255\n      jumpi\n      0x20\n      mul\n      dup3\n      add\n      swap2\n      swap1\n      0x00\n      mstore\n      keccak256(0x00, 0x20)\n      swap1\n    tag_256:\n      dup2\n      sload\n      dup2\n      mstore\n      0x20\n      add\n      swap1\n      0x01\n      add\n      swap1\n      dup1\n      dup4\n      gt\n      tag_256\n      jumpi\n    tag_255:\n      pop\n      pop\n      pop\n      pop\n      pop\n      swap1\n      pop\n      swap7\n      pop\n      swap7\n      pop\n      swap7\n      pop\n      swap7\n      pop\n      swap7\n      pop\n      swap7\n      pop\n      swap7\n      pop\n        /* \"Insurance.sol\":11519:12109  function getInsuranceData() external view returns(... */\n      swap1\n      swap2\n      swap3\n      swap4\n      swap5\n      swap6\n      swap7\n      jump\t// out\n        /* \"Insurance.sol\":19611:19722  function destructContract() external {... */\n    tag_54:\n        /* \"Insurance.sol\":19680:19685  owner */\n      0x00\n      dup1\n      sload\n      swap1\n      0x0100\n      exp\n      swap1\n      div\n      0xffffffffffffffffffffffffffffffffffffffff\n      and\n        /* \"Insurance.sol\":19666:19685  msg.sender == owner */\n      0xffffffffffffffffffffffffffffffffffffffff\n      and\n        /* \"Insurance.sol\":19666:19676  msg.sender */\n      caller\n        /* \"Insurance.sol\":19666:19685  msg.sender == owner */\n      0xffffffffffffffffffffffffffffffffffffffff\n      and\n      eq\n        /* \"Insurance.sol\":19658:19686  require(msg.sender == owner) */\n      tag_258\n      jumpi\n      0x00\n      dup1\n      revert\n    tag_258:\n        /* \"Insurance.sol\":19709:19714  owner */\n      0x00\n      dup1\n      sload\n      swap1\n      0x0100\n      exp\n      swap1\n      div\n      0xffffffffffffffffffffffffffffffffffffffff\n      and\n        /* \"Insurance.sol\":19696:19715  selfdestruct(owner) */\n      0xffffffffffffffffffffffffffffffffffffffff\n      and\n      selfdestruct\n        /* \"Insurance.sol\":10644:11450  function getTakerData() external view returns(... */\n    tag_56:\n        /* \"Insurance.sol\":10699:10714  bytes32 takerId */\n      0x00\n        /* \"Insurance.sol\":10725:10741  bytes32 takerNif */\n      dup1\n        /* \"Insurance.sol\":10752:10779  string memory takerFullName */\n      0x60\n        /* \"Insurance.sol\":10789:10822  string memory takerContactAddress */\n      dup1\n        /* \"Insurance.sol\":10833:10863  bytes32 takerContactPostalCode */\n      0x00\n        /* \"Insurance.sol\":10873:10897  bytes32 takerContactTown */\n      dup1\n        /* \"Insurance.sol\":10908:10936  bytes32 takerContactLocation */\n      0x00\n        /* \"Insurance.sol\":10946:10975  bytes32 takerContactTelephone */\n      dup1\n        /* \"Insurance.sol\":10986:11012  bytes32 takerContactMobile */\n      0x00\n        /* \"Insurance.sol\":11022:11053  string memory takerContactEmail */\n      0x60\n        /* \"Insurance.sol\":11064:11081  bytes32 takerIBAN */\n      0x00\n        /* \"Insurance.sol\":11115:11124  takerData */\n      0x11\n        /* \"Insurance.sol\":11115:11132  takerData.takerId */\n      0x03\n      add\n      sload\n        /* \"Insurance.sol\":11142:11151  takerData */\n      0x11\n        /* \"Insurance.sol\":11142:11160  takerData.takerNif */\n      0x04\n      add\n      sload\n        /* \"Insurance.sol\":11170:11179  takerData */\n      0x11\n        /* \"Insurance.sol\":11170:11189  takerData.takerName */\n      0x00\n      add\n        /* \"Insurance.sol\":11199:11208  takerData */\n      0x11\n        /* \"Insurance.sol\":11199:11221  takerData.takerAddress */\n      0x01\n      add\n        /* \"Insurance.sol\":11231:11240  takerData */\n      0x11\n        /* \"Insurance.sol\":11231:11256  takerData.takerPostalCode */\n      0x05\n      add\n      sload\n        /* \"Insurance.sol\":11266:11275  takerData */\n      0x11\n        /* \"Insurance.sol\":11266:11285  takerData.takerTown */\n      0x06\n      add\n      sload\n        /* \"Insurance.sol\":11295:11304  takerData */\n      0x11\n        /* \"Insurance.sol\":11295:11318  takerData.takerLocation */\n      0x07\n      add\n      sload\n        /* \"Insurance.sol\":11328:11337  takerData */\n      0x11\n        /* \"Insurance.sol\":11328:11352  takerData.takerTelephone */\n      0x08\n      add\n      sload\n        /* \"Insurance.sol\":11362:11371  takerData */\n      0x11\n        /* \"Insurance.sol\":11362:11383  takerData.takerMobile */\n      0x09\n      add\n      sload\n        /* \"Insurance.sol\":11393:11402  takerData */\n      0x11\n        /* \"Insurance.sol\":11393:11413  takerData.takerEmail */\n      0x02\n      add\n        /* \"Insurance.sol\":11423:11432  takerData */\n      0x11\n        /* \"Insurance.sol\":11423:11442  takerData.takerIban */\n      0x0a\n      add\n      sload\n        /* \"Insurance.sol\":11098:11443  return (... */\n      dup9\n      dup1\n      sload\n      tag_260\n      swap1\n      tag_78\n      jump\t// in\n    tag_260:\n      dup1\n      0x1f\n      add\n      0x20\n      dup1\n      swap2\n      div\n      mul\n      0x20\n      add\n      mload(0x40)\n      swap1\n      dup2\n      add\n      0x40\n      mstore\n      dup1\n      swap3\n      swap2\n      swap1\n      dup2\n      dup2\n      mstore\n      0x20\n      add\n      dup3\n      dup1\n      sload\n      tag_261\n      swap1\n      tag_78\n      jump\t// in\n    tag_261:\n      dup1\n      iszero\n      tag_262\n      jumpi\n      dup1\n      0x1f\n      lt\n      tag_263\n      jumpi\n      0x0100\n      dup1\n      dup4\n      sload\n      div\n      mul\n      dup4\n      mstore\n      swap2\n      0x20\n      add\n      swap2\n      jump(tag_262)\n    tag_263:\n      dup3\n      add\n      swap2\n      swap1\n      0x00\n      mstore\n      keccak256(0x00, 0x20)\n      swap1\n    tag_264:\n      dup2\n      sload\n      dup2\n      mstore\n      swap1\n      0x01\n      add\n      swap1\n      0x20\n      add\n      dup1\n      dup4\n      gt\n      tag_264\n      jumpi\n      dup3\n      swap1\n      sub\n      0x1f\n      and\n      dup3\n      add\n      swap2\n    tag_262:\n      pop\n      pop\n      pop\n      pop\n      pop\n      swap9\n      pop\n      dup8\n      dup1\n      sload\n      tag_265\n      swap1\n      tag_78\n      jump\t// in\n    tag_265:\n      dup1\n      0x1f\n      add\n      0x20\n      dup1\n      swap2\n      div\n      mul\n      0x20\n      add\n      mload(0x40)\n      swap1\n      dup2\n      add\n      0x40\n      mstore\n      dup1\n      swap3\n      swap2\n      swap1\n      dup2\n      dup2\n      mstore\n      0x20\n      add\n      dup3\n      dup1\n      sload\n      tag_266\n      swap1\n      tag_78\n      jump\t// in\n    tag_266:\n      dup1\n      iszero\n      tag_267\n      jumpi\n      dup1\n      0x1f\n      lt\n      tag_268\n      jumpi\n      0x0100\n      dup1\n      dup4\n      sload\n      div\n      mul\n      dup4\n      mstore\n      swap2\n      0x20\n      add\n      swap2\n      jump(tag_267)\n    tag_268:\n      dup3\n      add\n      swap2\n      swap1\n      0x00\n      mstore\n      keccak256(0x00, 0x20)\n      swap1\n    tag_269:\n      dup2\n      sload\n      dup2\n      mstore\n      swap1\n      0x01\n      add\n      swap1\n      0x20\n      add\n      dup1\n      dup4\n      gt\n      tag_269\n      jumpi\n      dup3\n      swap1\n      sub\n      0x1f\n      and\n      dup3\n      add\n      swap2\n    tag_267:\n      pop\n      pop\n      pop\n      pop\n      pop\n      swap8\n      pop\n      dup2\n      dup1\n      sload\n      tag_270\n      swap1\n      tag_78\n      jump\t// in\n    tag_270:\n      dup1\n      0x1f\n      add\n      0x20\n      dup1\n      swap2\n      div\n      mul\n      0x20\n      add\n      mload(0x40)\n      swap1\n      dup2\n      add\n      0x40\n      mstore\n      dup1\n      swap3\n      swap2\n      swap1\n      dup2\n      dup2\n      mstore\n      0x20\n      add\n      dup3\n      dup1\n      sload\n      tag_271\n      swap1\n      tag_78\n      jump\t// in\n    tag_271:\n      dup1\n      iszero\n      tag_272\n      jumpi\n      dup1\n      0x1f\n      lt\n      tag_273\n      jumpi\n      0x0100\n      dup1\n      dup4\n      sload\n      div\n      mul\n      dup4\n      mstore\n      swap2\n      0x20\n      add\n      swap2\n      jump(tag_272)\n    tag_273:\n      dup3\n      add\n      swap2\n      swap1\n      0x00\n      mstore\n      keccak256(0x00, 0x20)\n      swap1\n    tag_274:\n      dup2\n      sload\n      dup2\n      mstore\n      swap1\n      0x01\n      add\n      swap1\n      0x20\n      add\n      dup1\n      dup4\n      gt\n      tag_274\n      jumpi\n      dup3\n      swap1\n      sub\n      0x1f\n      and\n      dup3\n      add\n      swap2\n    tag_272:\n      pop\n      pop\n      pop\n      pop\n      pop\n      swap2\n      pop\n      swap11\n      pop\n      swap11\n      pop\n      swap11\n      pop\n      swap11\n      pop\n      swap11\n      pop\n      swap11\n      pop\n      swap11\n      pop\n      swap11\n      pop\n      swap11\n      pop\n      swap11\n      pop\n      swap11\n      pop\n        /* \"Insurance.sol\":10644:11450  function getTakerData() external view returns(... */\n      swap1\n      swap2\n      swap3\n      swap4\n      swap5\n      swap6\n      swap7\n      swap8\n      swap9\n      swap10\n      swap11\n      jump\t// out\n        /* \"Insurance.sol\":19242:19344  function getTakerId() external view returns(bytes32 takerId) {... */\n    tag_60:\n        /* \"Insurance.sol\":19286:19301  bytes32 takerId */\n      0x00\n        /* \"Insurance.sol\":19320:19329  takerData */\n      0x11\n        /* \"Insurance.sol\":19320:19337  takerData.takerId */\n      0x03\n      add\n      sload\n        /* \"Insurance.sol\":19313:19337  return takerData.takerId */\n      swap1\n      pop\n        /* \"Insurance.sol\":19242:19344  function getTakerId() external view returns(bytes32 takerId) {... */\n      swap1\n      jump\t// out\n        /* \"Insurance.sol\":544:824  function sizeOfString(string memory _in) internal pure  returns(uint _size){... */\n    tag_83:\n        /* \"Insurance.sol\":608:618  uint _size */\n      0x00\n        /* \"Insurance.sol\":657:659  32 */\n      0x20\n        /* \"Insurance.sol\":643:646  _in */\n      dup3\n        /* \"Insurance.sol\":637:654  bytes(_in).length */\n      mload\n        /* \"Insurance.sol\":637:659  bytes(_in).length / 32 */\n      tag_277\n      swap2\n      swap1\n      tag_278\n      jump\t// in\n    tag_277:\n        /* \"Insurance.sol\":629:659  _size = bytes(_in).length / 32 */\n      swap1\n      pop\n        /* \"Insurance.sol\":699:700  0 */\n      0x00\n        /* \"Insurance.sol\":693:695  32 */\n      0x20\n        /* \"Insurance.sol\":679:682  _in */\n      dup4\n        /* \"Insurance.sol\":673:690  bytes(_in).length */\n      mload\n        /* \"Insurance.sol\":673:695  bytes(_in).length % 32 */\n      tag_279\n      swap2\n      swap1\n      tag_280\n      jump\t// in\n    tag_279:\n        /* \"Insurance.sol\":673:700  bytes(_in).length % 32 != 0 */\n      eq\n        /* \"Insurance.sol\":669:721  if (bytes(_in).length % 32 != 0)... */\n      tag_281\n      jumpi\n        /* \"Insurance.sol\":714:721  _size++ */\n      dup1\n      dup1\n      tag_282\n      swap1\n      tag_198\n      jump\t// in\n    tag_282:\n      swap2\n      pop\n      pop\n        /* \"Insurance.sol\":669:721  if (bytes(_in).length % 32 != 0)... */\n    tag_281:\n        /* \"Insurance.sol\":732:739  _size++ */\n      dup1\n      dup1\n      tag_283\n      swap1\n      tag_198\n      jump\t// in\n    tag_283:\n      swap2\n      pop\n      pop\n        /* \"Insurance.sol\":815:817  32 */\n      0x20\n        /* \"Insurance.sol\":806:817  _size *= 32 */\n      dup2\n      tag_284\n      swap2\n      swap1\n      tag_285\n      jump\t// in\n    tag_284:\n      swap1\n      pop\n        /* \"Insurance.sol\":544:824  function sizeOfString(string memory _in) internal pure  returns(uint _size){... */\n      swap2\n      swap1\n      pop\n      jump\t// out\n        /* \"Insurance.sol\":1672:1986  function bytes32ToBytes(uint _offst, bytes32 _input, bytes memory _output) internal pure {... */\n    tag_115:\n        /* \"Insurance.sol\":1772:1795  bytes memory inputBytes */\n      0x00\n        /* \"Insurance.sol\":1815:1821  _input */\n      dup3\n        /* \"Insurance.sol\":1798:1822  abi.encodePacked(_input) */\n      add(0x20, mload(0x40))\n      tag_287\n      swap2\n      swap1\n      tag_288\n      jump\t// in\n    tag_287:\n      mload(0x40)\n      0x20\n      dup2\n      dup4\n      sub\n      sub\n      dup2\n      mstore\n      swap1\n      0x40\n      mstore\n        /* \"Insurance.sol\":1772:1822  bytes memory inputBytes = abi.encodePacked(_input) */\n      swap1\n      pop\n        /* \"Insurance.sol\":1965:1967  32 */\n      0x20\n        /* \"Insurance.sol\":1954:1964  inputBytes */\n      dup2\n        /* \"Insurance.sol\":1950:1968  add(inputBytes,32) */\n      add\n        /* \"Insurance.sol\":1944:1969  mload(add(inputBytes,32)) */\n      mload\n        /* \"Insurance.sol\":1935:1941  _offst */\n      dup5\n        /* \"Insurance.sol\":1926:1933  _output */\n      dup4\n        /* \"Insurance.sol\":1922:1942  add(_output, _offst) */\n      add\n        /* \"Insurance.sol\":1915:1970  mstore(add(_output, _offst), mload(add(inputBytes,32))) */\n      mstore\n        /* \"Insurance.sol\":1901:1980  {... */\n      pop\n      pop\n      pop\n      pop\n      jump\t// out\n        /* \"Insurance.sol\":1498:1666  function uintToBytes(uint _offst, uint _input, bytes memory _output) internal pure {... */\n    tag_119:\n        /* \"Insurance.sol\":1643:1649  _input */\n      dup2\n        /* \"Insurance.sol\":1634:1640  _offst */\n      dup4\n        /* \"Insurance.sol\":1625:1632  _output */\n      dup3\n        /* \"Insurance.sol\":1621:1641  add(_output, _offst) */\n      add\n        /* \"Insurance.sol\":1614:1650  mstore(add(_output, _offst), _input) */\n      mstore\n        /* \"Insurance.sol\":1600:1660  {... */\n      pop\n      pop\n      pop\n      jump\t// out\n        /* \"Insurance.sol\":830:1036  function boolToBytes(uint _offst, bool _input, bytes memory _output) internal pure {... */\n    tag_148:\n        /* \"Insurance.sol\":923:930  uint8 x */\n      0x00\n        /* \"Insurance.sol\":943:948  false */\n      dup1\n        /* \"Insurance.sol\":933:948  _input == false */\n      iszero\n      iszero\n        /* \"Insurance.sol\":933:939  _input */\n      dup4\n        /* \"Insurance.sol\":933:948  _input == false */\n      iszero\n      iszero\n      eq\n        /* \"Insurance.sol\":933:956  _input == false ? 0 : 1 */\n      tag_291\n      jumpi\n        /* \"Insurance.sol\":955:956  1 */\n      0x01\n        /* \"Insurance.sol\":933:956  _input == false ? 0 : 1 */\n      jump(tag_292)\n    tag_291:\n        /* \"Insurance.sol\":951:952  0 */\n      0x00\n        /* \"Insurance.sol\":933:956  _input == false ? 0 : 1 */\n    tag_292:\n        /* \"Insurance.sol\":923:956  uint8 x = _input == false ? 0 : 1 */\n      swap1\n      pop\n        /* \"Insurance.sol\":1018:1019  x */\n      dup1\n        /* \"Insurance.sol\":1009:1015  _offst */\n      dup5\n        /* \"Insurance.sol\":1000:1007  _output */\n      dup4\n        /* \"Insurance.sol\":996:1016  add(_output, _offst) */\n      add\n        /* \"Insurance.sol\":989:1020  mstore(add(_output, _offst), x) */\n      mstore\n        /* \"Insurance.sol\":975:1030  {... */\n      pop\n      pop\n      pop\n      pop\n      jump\t// out\n        /* \"Insurance.sol\":1042:1492  function stringToBytes(uint _offst, bytes memory _input, bytes memory _output) internal pure {... */\n    tag_160:\n        /* \"Insurance.sol\":1145:1163  uint256 stack_size */\n      0x00\n        /* \"Insurance.sol\":1182:1184  32 */\n      0x20\n        /* \"Insurance.sol\":1166:1172  _input */\n      dup4\n        /* \"Insurance.sol\":1166:1179  _input.length */\n      mload\n        /* \"Insurance.sol\":1166:1184  _input.length / 32 */\n      tag_294\n      swap2\n      swap1\n      tag_278\n      jump\t// in\n    tag_294:\n        /* \"Insurance.sol\":1145:1184  uint256 stack_size = _input.length / 32 */\n      swap1\n      pop\n        /* \"Insurance.sol\":1218:1219  0 */\n      0x00\n        /* \"Insurance.sol\":1213:1215  32 */\n      0x20\n        /* \"Insurance.sol\":1197:1203  _input */\n      dup5\n        /* \"Insurance.sol\":1197:1210  _input.length */\n      mload\n        /* \"Insurance.sol\":1197:1215  _input.length % 32 */\n      tag_295\n      swap2\n      swap1\n      tag_280\n      jump\t// in\n    tag_295:\n        /* \"Insurance.sol\":1197:1219  _input.length % 32 > 0 */\n      gt\n        /* \"Insurance.sol\":1194:1233  if(_input.length % 32 > 0) stack_size++ */\n      iszero\n      tag_296\n      jumpi\n        /* \"Insurance.sol\":1221:1233  stack_size++ */\n      dup1\n      dup1\n      tag_297\n      swap1\n      tag_198\n      jump\t// in\n    tag_297:\n      swap2\n      pop\n      pop\n        /* \"Insurance.sol\":1194:1233  if(_input.length % 32 > 0) stack_size++ */\n    tag_296:\n        /* \"Insurance.sol\":1244:1256  stack_size++ */\n      dup1\n      dup1\n      tag_298\n      swap1\n      tag_198\n      jump\t// in\n    tag_298:\n      swap2\n      pop\n      pop\n        /* \"Insurance.sol\":1271:1281  uint index */\n      0x00\n        /* \"Insurance.sol\":1266:1486  for (uint index = 0; index < stack_size; index++) {... */\n    tag_299:\n        /* \"Insurance.sol\":1295:1305  stack_size */\n      dup2\n        /* \"Insurance.sol\":1287:1292  index */\n      dup2\n        /* \"Insurance.sol\":1287:1305  index < stack_size */\n      lt\n        /* \"Insurance.sol\":1266:1486  for (uint index = 0; index < stack_size; index++) {... */\n      iszero\n      tag_300\n      jumpi\n        /* \"Insurance.sol\":1413:1415  32 */\n      0x20\n        /* \"Insurance.sol\":1407:1412  index */\n      dup2\n        /* \"Insurance.sol\":1403:1416  mul(index,32) */\n      mul\n        /* \"Insurance.sol\":1396:1402  _input */\n      dup5\n        /* \"Insurance.sol\":1392:1417  add(_input,mul(index,32)) */\n      add\n        /* \"Insurance.sol\":1386:1418  mload(add(_input,mul(index,32))) */\n      mload\n        /* \"Insurance.sol\":1377:1383  _offst */\n      dup6\n        /* \"Insurance.sol\":1368:1375  _output */\n      dup5\n        /* \"Insurance.sol\":1364:1384  add(_output, _offst) */\n      add\n        /* \"Insurance.sol\":1357:1419  mstore(add(_output, _offst), mload(add(_input,mul(index,32)))) */\n      mstore\n        /* \"Insurance.sol\":1459:1461  32 */\n      0x20\n        /* \"Insurance.sol\":1450:1456  _offst */\n      dup6\n        /* \"Insurance.sol\":1446:1462  sub(_offst , 32) */\n      sub\n        /* \"Insurance.sol\":1436:1462  _offst := sub(_offst , 32) */\n      swap5\n      pop\n        /* \"Insurance.sol\":1307:1314  index++ */\n      dup1\n      dup1\n      tag_302\n      swap1\n      tag_198\n      jump\t// in\n    tag_302:\n      swap2\n      pop\n      pop\n        /* \"Insurance.sol\":1266:1486  for (uint index = 0; index < stack_size; index++) {... */\n      jump(tag_299)\n    tag_300:\n      pop\n        /* \"Insurance.sol\":1042:1492  function stringToBytes(uint _offst, bytes memory _input, bytes memory _output) internal pure {... */\n      pop\n      pop\n      pop\n      pop\n      jump\t// out\n        /* \"#utility.yul\":7:146   */\n    tag_304:\n      0x00\n        /* \"#utility.yul\":91:97   */\n      dup2\n        /* \"#utility.yul\":78:98   */\n      calldataload\n        /* \"#utility.yul\":69:98   */\n      swap1\n      pop\n        /* \"#utility.yul\":107:140   */\n      tag_306\n        /* \"#utility.yul\":134:139   */\n      dup2\n        /* \"#utility.yul\":107:140   */\n      tag_307\n      jump\t// in\n    tag_306:\n        /* \"#utility.yul\":59:146   */\n      swap3\n      swap2\n      pop\n      pop\n      jump\t// out\n        /* \"#utility.yul\":152:291   */\n    tag_308:\n      0x00\n        /* \"#utility.yul\":236:242   */\n      dup2\n        /* \"#utility.yul\":223:243   */\n      calldataload\n        /* \"#utility.yul\":214:243   */\n      swap1\n      pop\n        /* \"#utility.yul\":252:285   */\n      tag_310\n        /* \"#utility.yul\":279:284   */\n      dup2\n        /* \"#utility.yul\":252:285   */\n      tag_311\n      jump\t// in\n    tag_310:\n        /* \"#utility.yul\":204:291   */\n      swap3\n      swap2\n      pop\n      pop\n      jump\t// out\n        /* \"#utility.yul\":297:436   */\n    tag_312:\n      0x00\n        /* \"#utility.yul\":381:387   */\n      dup2\n        /* \"#utility.yul\":368:388   */\n      calldataload\n        /* \"#utility.yul\":359:388   */\n      swap1\n      pop\n        /* \"#utility.yul\":397:430   */\n      tag_314\n        /* \"#utility.yul\":424:429   */\n      dup2\n        /* \"#utility.yul\":397:430   */\n      tag_315\n      jump\t// in\n    tag_314:\n        /* \"#utility.yul\":349:436   */\n      swap3\n      swap2\n      pop\n      pop\n      jump\t// out\n        /* \"#utility.yul\":442:704   */\n    tag_32:\n      0x00\n        /* \"#utility.yul\":550:552   */\n      0x20\n        /* \"#utility.yul\":538:547   */\n      dup3\n        /* \"#utility.yul\":529:536   */\n      dup5\n        /* \"#utility.yul\":525:548   */\n      sub\n        /* \"#utility.yul\":521:553   */\n      slt\n        /* \"#utility.yul\":518:520   */\n      iszero\n      tag_317\n      jumpi\n        /* \"#utility.yul\":566:567   */\n      0x00\n        /* \"#utility.yul\":563:564   */\n      dup1\n        /* \"#utility.yul\":556:568   */\n      revert\n        /* \"#utility.yul\":518:520   */\n    tag_317:\n        /* \"#utility.yul\":609:610   */\n      0x00\n        /* \"#utility.yul\":634:687   */\n      tag_318\n        /* \"#utility.yul\":679:686   */\n      dup5\n        /* \"#utility.yul\":670:676   */\n      dup3\n        /* \"#utility.yul\":659:668   */\n      dup6\n        /* \"#utility.yul\":655:677   */\n      add\n        /* \"#utility.yul\":634:687   */\n      tag_304\n      jump\t// in\n    tag_318:\n        /* \"#utility.yul\":624:687   */\n      swap2\n      pop\n        /* \"#utility.yul\":580:697   */\n      pop\n        /* \"#utility.yul\":508:704   */\n      swap3\n      swap2\n      pop\n      pop\n      jump\t// out\n        /* \"#utility.yul\":710:972   */\n    tag_18:\n      0x00\n        /* \"#utility.yul\":818:820   */\n      0x20\n        /* \"#utility.yul\":806:815   */\n      dup3\n        /* \"#utility.yul\":797:804   */\n      dup5\n        /* \"#utility.yul\":793:816   */\n      sub\n        /* \"#utility.yul\":789:821   */\n      slt\n        /* \"#utility.yul\":786:788   */\n      iszero\n      tag_320\n      jumpi\n        /* \"#utility.yul\":834:835   */\n      0x00\n        /* \"#utility.yul\":831:832   */\n      dup1\n        /* \"#utility.yul\":824:836   */\n      revert\n        /* \"#utility.yul\":786:788   */\n    tag_320:\n        /* \"#utility.yul\":877:878   */\n      0x00\n        /* \"#utility.yul\":902:955   */\n      tag_321\n        /* \"#utility.yul\":947:954   */\n      dup5\n        /* \"#utility.yul\":938:944   */\n      dup3\n        /* \"#utility.yul\":927:936   */\n      dup6\n        /* \"#utility.yul\":923:945   */\n      add\n        /* \"#utility.yul\":902:955   */\n      tag_308\n      jump\t// in\n    tag_321:\n        /* \"#utility.yul\":892:955   */\n      swap2\n      pop\n        /* \"#utility.yul\":848:965   */\n      pop\n        /* \"#utility.yul\":776:972   */\n      swap3\n      swap2\n      pop\n      pop\n      jump\t// out\n        /* \"#utility.yul\":978:1385   */\n    tag_24:\n      0x00\n      dup1\n        /* \"#utility.yul\":1103:1105   */\n      0x40\n        /* \"#utility.yul\":1091:1100   */\n      dup4\n        /* \"#utility.yul\":1082:1089   */\n      dup6\n        /* \"#utility.yul\":1078:1101   */\n      sub\n        /* \"#utility.yul\":1074:1106   */\n      slt\n        /* \"#utility.yul\":1071:1073   */\n      iszero\n      tag_323\n      jumpi\n        /* \"#utility.yul\":1119:1120   */\n      0x00\n        /* \"#utility.yul\":1116:1117   */\n      dup1\n        /* \"#utility.yul\":1109:1121   */\n      revert\n        /* \"#utility.yul\":1071:1073   */\n    tag_323:\n        /* \"#utility.yul\":1162:1163   */\n      0x00\n        /* \"#utility.yul\":1187:1240   */\n      tag_324\n        /* \"#utility.yul\":1232:1239   */\n      dup6\n        /* \"#utility.yul\":1223:1229   */\n      dup3\n        /* \"#utility.yul\":1212:1221   */\n      dup7\n        /* \"#utility.yul\":1208:1230   */\n      add\n        /* \"#utility.yul\":1187:1240   */\n      tag_308\n      jump\t// in\n    tag_324:\n        /* \"#utility.yul\":1177:1240   */\n      swap3\n      pop\n        /* \"#utility.yul\":1133:1250   */\n      pop\n        /* \"#utility.yul\":1289:1291   */\n      0x20\n        /* \"#utility.yul\":1315:1368   */\n      tag_325\n        /* \"#utility.yul\":1360:1367   */\n      dup6\n        /* \"#utility.yul\":1351:1357   */\n      dup3\n        /* \"#utility.yul\":1340:1349   */\n      dup7\n        /* \"#utility.yul\":1336:1358   */\n      add\n        /* \"#utility.yul\":1315:1368   */\n      tag_308\n      jump\t// in\n    tag_325:\n        /* \"#utility.yul\":1305:1368   */\n      swap2\n      pop\n        /* \"#utility.yul\":1260:1378   */\n      pop\n        /* \"#utility.yul\":1061:1385   */\n      swap3\n      pop\n      swap3\n      swap1\n      pop\n      jump\t// out\n        /* \"#utility.yul\":1391:2089   */\n    tag_36:\n      0x00\n      dup1\n      0x00\n      dup1\n        /* \"#utility.yul\":1550:1553   */\n      0x80\n        /* \"#utility.yul\":1538:1547   */\n      dup6\n        /* \"#utility.yul\":1529:1536   */\n      dup8\n        /* \"#utility.yul\":1525:1548   */\n      sub\n        /* \"#utility.yul\":1521:1554   */\n      slt\n        /* \"#utility.yul\":1518:1520   */\n      iszero\n      tag_327\n      jumpi\n        /* \"#utility.yul\":1567:1568   */\n      0x00\n        /* \"#utility.yul\":1564:1565   */\n      dup1\n        /* \"#utility.yul\":1557:1569   */\n      revert\n        /* \"#utility.yul\":1518:1520   */\n    tag_327:\n        /* \"#utility.yul\":1610:1611   */\n      0x00\n        /* \"#utility.yul\":1635:1688   */\n      tag_328\n        /* \"#utility.yul\":1680:1687   */\n      dup8\n        /* \"#utility.yul\":1671:1677   */\n      dup3\n        /* \"#utility.yul\":1660:1669   */\n      dup9\n        /* \"#utility.yul\":1656:1678   */\n      add\n        /* \"#utility.yul\":1635:1688   */\n      tag_308\n      jump\t// in\n    tag_328:\n        /* \"#utility.yul\":1625:1688   */\n      swap5\n      pop\n        /* \"#utility.yul\":1581:1698   */\n      pop\n        /* \"#utility.yul\":1737:1739   */\n      0x20\n        /* \"#utility.yul\":1763:1816   */\n      tag_329\n        /* \"#utility.yul\":1808:1815   */\n      dup8\n        /* \"#utility.yul\":1799:1805   */\n      dup3\n        /* \"#utility.yul\":1788:1797   */\n      dup9\n        /* \"#utility.yul\":1784:1806   */\n      add\n        /* \"#utility.yul\":1763:1816   */\n      tag_308\n      jump\t// in\n    tag_329:\n        /* \"#utility.yul\":1753:1816   */\n      swap4\n      pop\n        /* \"#utility.yul\":1708:1826   */\n      pop\n        /* \"#utility.yul\":1865:1867   */\n      0x40\n        /* \"#utility.yul\":1891:1944   */\n      tag_330\n        /* \"#utility.yul\":1936:1943   */\n      dup8\n        /* \"#utility.yul\":1927:1933   */\n      dup3\n        /* \"#utility.yul\":1916:1925   */\n      dup9\n        /* \"#utility.yul\":1912:1934   */\n      add\n        /* \"#utility.yul\":1891:1944   */\n      tag_312\n      jump\t// in\n    tag_330:\n        /* \"#utility.yul\":1881:1944   */\n      swap3\n      pop\n        /* \"#utility.yul\":1836:1954   */\n      pop\n        /* \"#utility.yul\":1993:1995   */\n      0x60\n        /* \"#utility.yul\":2019:2072   */\n      tag_331\n        /* \"#utility.yul\":2064:2071   */\n      dup8\n        /* \"#utility.yul\":2055:2061   */\n      dup3\n        /* \"#utility.yul\":2044:2053   */\n      dup9\n        /* \"#utility.yul\":2040:2062   */\n      add\n        /* \"#utility.yul\":2019:2072   */\n      tag_304\n      jump\t// in\n    tag_331:\n        /* \"#utility.yul\":2009:2072   */\n      swap2\n      pop\n        /* \"#utility.yul\":1964:2082   */\n      pop\n        /* \"#utility.yul\":1508:2089   */\n      swap3\n      swap6\n      swap2\n      swap5\n      pop\n      swap3\n      pop\n      jump\t// out\n        /* \"#utility.yul\":2095:2274   */\n    tag_332:\n      0x00\n        /* \"#utility.yul\":2185:2231   */\n      tag_334\n        /* \"#utility.yul\":2227:2230   */\n      dup4\n        /* \"#utility.yul\":2219:2225   */\n      dup4\n        /* \"#utility.yul\":2185:2231   */\n      tag_335\n      jump\t// in\n    tag_334:\n        /* \"#utility.yul\":2263:2267   */\n      0x20\n        /* \"#utility.yul\":2258:2261   */\n      dup4\n        /* \"#utility.yul\":2254:2268   */\n      add\n        /* \"#utility.yul\":2240:2268   */\n      swap1\n      pop\n        /* \"#utility.yul\":2175:2274   */\n      swap3\n      swap2\n      pop\n      pop\n      jump\t// out\n        /* \"#utility.yul\":2280:2398   */\n    tag_336:\n        /* \"#utility.yul\":2367:2391   */\n      tag_338\n        /* \"#utility.yul\":2385:2390   */\n      dup2\n        /* \"#utility.yul\":2367:2391   */\n      tag_339\n      jump\t// in\n    tag_338:\n        /* \"#utility.yul\":2362:2365   */\n      dup3\n        /* \"#utility.yul\":2355:2392   */\n      mstore\n        /* \"#utility.yul\":2345:2398   */\n      pop\n      pop\n      jump\t// out\n        /* \"#utility.yul\":2434:3166   */\n    tag_340:\n      0x00\n        /* \"#utility.yul\":2582:2636   */\n      tag_342\n        /* \"#utility.yul\":2630:2635   */\n      dup3\n        /* \"#utility.yul\":2582:2636   */\n      tag_343\n      jump\t// in\n    tag_342:\n        /* \"#utility.yul\":2652:2738   */\n      tag_344\n        /* \"#utility.yul\":2731:2737   */\n      dup2\n        /* \"#utility.yul\":2726:2729   */\n      dup6\n        /* \"#utility.yul\":2652:2738   */\n      tag_345\n      jump\t// in\n    tag_344:\n        /* \"#utility.yul\":2645:2738   */\n      swap4\n      pop\n        /* \"#utility.yul\":2762:2818   */\n      tag_346\n        /* \"#utility.yul\":2812:2817   */\n      dup4\n        /* \"#utility.yul\":2762:2818   */\n      tag_347\n      jump\t// in\n    tag_346:\n        /* \"#utility.yul\":2841:2848   */\n      dup1\n        /* \"#utility.yul\":2872:2873   */\n      0x00\n        /* \"#utility.yul\":2857:3141   */\n    tag_348:\n        /* \"#utility.yul\":2882:2888   */\n      dup4\n        /* \"#utility.yul\":2879:2880   */\n      dup2\n        /* \"#utility.yul\":2876:2889   */\n      lt\n        /* \"#utility.yul\":2857:3141   */\n      iszero\n      tag_350\n      jumpi\n        /* \"#utility.yul\":2958:2964   */\n      dup2\n        /* \"#utility.yul\":2952:2965   */\n      mload\n        /* \"#utility.yul\":2985:3048   */\n      tag_351\n        /* \"#utility.yul\":3044:3047   */\n      dup9\n        /* \"#utility.yul\":3029:3042   */\n      dup3\n        /* \"#utility.yul\":2985:3048   */\n      tag_332\n      jump\t// in\n    tag_351:\n        /* \"#utility.yul\":2978:3048   */\n      swap8\n      pop\n        /* \"#utility.yul\":3071:3131   */\n      tag_352\n        /* \"#utility.yul\":3124:3130   */\n      dup4\n        /* \"#utility.yul\":3071:3131   */\n      tag_353\n      jump\t// in\n    tag_352:\n        /* \"#utility.yul\":3061:3131   */\n      swap3\n      pop\n        /* \"#utility.yul\":2917:3141   */\n      pop\n        /* \"#utility.yul\":2904:2905   */\n      0x01\n        /* \"#utility.yul\":2901:2902   */\n      dup2\n        /* \"#utility.yul\":2897:2906   */\n      add\n        /* \"#utility.yul\":2892:2906   */\n      swap1\n      pop\n        /* \"#utility.yul\":2857:3141   */\n      jump(tag_348)\n    tag_350:\n        /* \"#utility.yul\":2861:2875   */\n      pop\n        /* \"#utility.yul\":3157:3160   */\n      dup6\n        /* \"#utility.yul\":3150:3160   */\n      swap4\n      pop\n        /* \"#utility.yul\":2558:3166   */\n      pop\n      pop\n      pop\n      swap3\n      swap2\n      pop\n      pop\n      jump\t// out\n        /* \"#utility.yul\":3172:3280   */\n    tag_335:\n        /* \"#utility.yul\":3249:3273   */\n      tag_355\n        /* \"#utility.yul\":3267:3272   */\n      dup2\n        /* \"#utility.yul\":3249:3273   */\n      tag_356\n      jump\t// in\n    tag_355:\n        /* \"#utility.yul\":3244:3247   */\n      dup3\n        /* \"#utility.yul\":3237:3274   */\n      mstore\n        /* \"#utility.yul\":3227:3280   */\n      pop\n      pop\n      jump\t// out\n        /* \"#utility.yul\":3286:3404   */\n    tag_357:\n        /* \"#utility.yul\":3373:3397   */\n      tag_359\n        /* \"#utility.yul\":3391:3396   */\n      dup2\n        /* \"#utility.yul\":3373:3397   */\n      tag_356\n      jump\t// in\n    tag_359:\n        /* \"#utility.yul\":3368:3371   */\n      dup3\n        /* \"#utility.yul\":3361:3398   */\n      mstore\n        /* \"#utility.yul\":3351:3404   */\n      pop\n      pop\n      jump\t// out\n        /* \"#utility.yul\":3410:3567   */\n    tag_360:\n        /* \"#utility.yul\":3515:3560   */\n      tag_362\n        /* \"#utility.yul\":3535:3559   */\n      tag_363\n        /* \"#utility.yul\":3553:3558   */\n      dup3\n        /* \"#utility.yul\":3535:3559   */\n      tag_356\n      jump\t// in\n    tag_363:\n        /* \"#utility.yul\":3515:3560   */\n      tag_364\n      jump\t// in\n    tag_362:\n        /* \"#utility.yul\":3510:3513   */\n      dup3\n        /* \"#utility.yul\":3503:3561   */\n      mstore\n        /* \"#utility.yul\":3493:3567   */\n      pop\n      pop\n      jump\t// out\n        /* \"#utility.yul\":3573:3933   */\n    tag_365:\n      0x00\n        /* \"#utility.yul\":3687:3725   */\n      tag_367\n        /* \"#utility.yul\":3719:3724   */\n      dup3\n        /* \"#utility.yul\":3687:3725   */\n      tag_368\n      jump\t// in\n    tag_367:\n        /* \"#utility.yul\":3741:3811   */\n      tag_369\n        /* \"#utility.yul\":3804:3810   */\n      dup2\n        /* \"#utility.yul\":3799:3802   */\n      dup6\n        /* \"#utility.yul\":3741:3811   */\n      tag_370\n      jump\t// in\n    tag_369:\n        /* \"#utility.yul\":3734:3811   */\n      swap4\n      pop\n        /* \"#utility.yul\":3820:3872   */\n      tag_371\n        /* \"#utility.yul\":3865:3871   */\n      dup2\n        /* \"#utility.yul\":3860:3863   */\n      dup6\n        /* \"#utility.yul\":3853:3857   */\n      0x20\n        /* \"#utility.yul\":3846:3851   */\n      dup7\n        /* \"#utility.yul\":3842:3858   */\n      add\n        /* \"#utility.yul\":3820:3872   */\n      tag_372\n      jump\t// in\n    tag_371:\n        /* \"#utility.yul\":3897:3926   */\n      tag_373\n        /* \"#utility.yul\":3919:3925   */\n      dup2\n        /* \"#utility.yul\":3897:3926   */\n      tag_374\n      jump\t// in\n    tag_373:\n        /* \"#utility.yul\":3892:3895   */\n      dup5\n        /* \"#utility.yul\":3888:3927   */\n      add\n        /* \"#utility.yul\":3881:3927   */\n      swap2\n      pop\n        /* \"#utility.yul\":3663:3933   */\n      pop\n      swap3\n      swap2\n      pop\n      pop\n      jump\t// out\n        /* \"#utility.yul\":3939:4303   */\n    tag_375:\n      0x00\n        /* \"#utility.yul\":4055:4094   */\n      tag_377\n        /* \"#utility.yul\":4088:4093   */\n      dup3\n        /* \"#utility.yul\":4055:4094   */\n      tag_378\n      jump\t// in\n    tag_377:\n        /* \"#utility.yul\":4110:4181   */\n      tag_379\n        /* \"#utility.yul\":4174:4180   */\n      dup2\n        /* \"#utility.yul\":4169:4172   */\n      dup6\n        /* \"#utility.yul\":4110:4181   */\n      tag_380\n      jump\t// in\n    tag_379:\n        /* \"#utility.yul\":4103:4181   */\n      swap4\n      pop\n        /* \"#utility.yul\":4190:4242   */\n      tag_381\n        /* \"#utility.yul\":4235:4241   */\n      dup2\n        /* \"#utility.yul\":4230:4233   */\n      dup6\n        /* \"#utility.yul\":4223:4227   */\n      0x20\n        /* \"#utility.yul\":4216:4221   */\n      dup7\n        /* \"#utility.yul\":4212:4228   */\n      add\n        /* \"#utility.yul\":4190:4242   */\n      tag_372\n      jump\t// in\n    tag_381:\n        /* \"#utility.yul\":4267:4296   */\n      tag_382\n        /* \"#utility.yul\":4289:4295   */\n      dup2\n        /* \"#utility.yul\":4267:4296   */\n      tag_374\n      jump\t// in\n    tag_382:\n        /* \"#utility.yul\":4262:4265   */\n      dup5\n        /* \"#utility.yul\":4258:4297   */\n      add\n        /* \"#utility.yul\":4251:4297   */\n      swap2\n      pop\n        /* \"#utility.yul\":4031:4303   */\n      pop\n      swap3\n      swap2\n      pop\n      pop\n      jump\t// out\n        /* \"#utility.yul\":4309:4675   */\n    tag_383:\n      0x00\n        /* \"#utility.yul\":4472:4539   */\n      tag_385\n        /* \"#utility.yul\":4536:4538   */\n      0x2b\n        /* \"#utility.yul\":4531:4534   */\n      dup4\n        /* \"#utility.yul\":4472:4539   */\n      tag_380\n      jump\t// in\n    tag_385:\n        /* \"#utility.yul\":4465:4539   */\n      swap2\n      pop\n        /* \"#utility.yul\":4548:4641   */\n      tag_386\n        /* \"#utility.yul\":4637:4640   */\n      dup3\n        /* \"#utility.yul\":4548:4641   */\n      tag_387\n      jump\t// in\n    tag_386:\n        /* \"#utility.yul\":4666:4668   */\n      0x40\n        /* \"#utility.yul\":4661:4664   */\n      dup3\n        /* \"#utility.yul\":4657:4669   */\n      add\n        /* \"#utility.yul\":4650:4669   */\n      swap1\n      pop\n        /* \"#utility.yul\":4455:4675   */\n      swap2\n      swap1\n      pop\n      jump\t// out\n        /* \"#utility.yul\":4681:5047   */\n    tag_388:\n      0x00\n        /* \"#utility.yul\":4844:4911   */\n      tag_390\n        /* \"#utility.yul\":4908:4910   */\n      0x1c\n        /* \"#utility.yul\":4903:4906   */\n      dup4\n        /* \"#utility.yul\":4844:4911   */\n      tag_380\n      jump\t// in\n    tag_390:\n        /* \"#utility.yul\":4837:4911   */\n      swap2\n      pop\n        /* \"#utility.yul\":4920:5013   */\n      tag_391\n        /* \"#utility.yul\":5009:5012   */\n      dup3\n        /* \"#utility.yul\":4920:5013   */\n      tag_392\n      jump\t// in\n    tag_391:\n        /* \"#utility.yul\":5038:5040   */\n      0x20\n        /* \"#utility.yul\":5033:5036   */\n      dup3\n        /* \"#utility.yul\":5029:5041   */\n      add\n        /* \"#utility.yul\":5022:5041   */\n      swap1\n      pop\n        /* \"#utility.yul\":4827:5047   */\n      swap2\n      swap1\n      pop\n      jump\t// out\n        /* \"#utility.yul\":5053:5419   */\n    tag_393:\n      0x00\n        /* \"#utility.yul\":5216:5283   */\n      tag_395\n        /* \"#utility.yul\":5280:5282   */\n      0x18\n        /* \"#utility.yul\":5275:5278   */\n      dup4\n        /* \"#utility.yul\":5216:5283   */\n      tag_380\n      jump\t// in\n    tag_395:\n        /* \"#utility.yul\":5209:5283   */\n      swap2\n      pop\n        /* \"#utility.yul\":5292:5385   */\n      tag_396\n        /* \"#utility.yul\":5381:5384   */\n      dup3\n        /* \"#utility.yul\":5292:5385   */\n      tag_397\n      jump\t// in\n    tag_396:\n        /* \"#utility.yul\":5410:5412   */\n      0x20\n        /* \"#utility.yul\":5405:5408   */\n      dup3\n        /* \"#utility.yul\":5401:5413   */\n      add\n        /* \"#utility.yul\":5394:5413   */\n      swap1\n      pop\n        /* \"#utility.yul\":5199:5419   */\n      swap2\n      swap1\n      pop\n      jump\t// out\n        /* \"#utility.yul\":5425:5791   */\n    tag_398:\n      0x00\n        /* \"#utility.yul\":5588:5655   */\n      tag_400\n        /* \"#utility.yul\":5652:5654   */\n      0x1c\n        /* \"#utility.yul\":5647:5650   */\n      dup4\n        /* \"#utility.yul\":5588:5655   */\n      tag_380\n      jump\t// in\n    tag_400:\n        /* \"#utility.yul\":5581:5655   */\n      swap2\n      pop\n        /* \"#utility.yul\":5664:5757   */\n      tag_401\n        /* \"#utility.yul\":5753:5756   */\n      dup3\n        /* \"#utility.yul\":5664:5757   */\n      tag_402\n      jump\t// in\n    tag_401:\n        /* \"#utility.yul\":5782:5784   */\n      0x20\n        /* \"#utility.yul\":5777:5780   */\n      dup3\n        /* \"#utility.yul\":5773:5785   */\n      add\n        /* \"#utility.yul\":5766:5785   */\n      swap1\n      pop\n        /* \"#utility.yul\":5571:5791   */\n      swap2\n      swap1\n      pop\n      jump\t// out\n        /* \"#utility.yul\":5797:5912   */\n    tag_403:\n        /* \"#utility.yul\":5882:5905   */\n      tag_405\n        /* \"#utility.yul\":5899:5904   */\n      dup2\n        /* \"#utility.yul\":5882:5905   */\n      tag_406\n      jump\t// in\n    tag_405:\n        /* \"#utility.yul\":5877:5880   */\n      dup3\n        /* \"#utility.yul\":5870:5906   */\n      mstore\n        /* \"#utility.yul\":5860:5912   */\n      pop\n      pop\n      jump\t// out\n        /* \"#utility.yul\":5918:6036   */\n    tag_407:\n        /* \"#utility.yul\":6005:6029   */\n      tag_409\n        /* \"#utility.yul\":6023:6028   */\n      dup2\n        /* \"#utility.yul\":6005:6029   */\n      tag_410\n      jump\t// in\n    tag_409:\n        /* \"#utility.yul\":6000:6003   */\n      dup3\n        /* \"#utility.yul\":5993:6030   */\n      mstore\n        /* \"#utility.yul\":5983:6036   */\n      pop\n      pop\n      jump\t// out\n        /* \"#utility.yul\":6042:6298   */\n    tag_288:\n      0x00\n        /* \"#utility.yul\":6169:6244   */\n      tag_412\n        /* \"#utility.yul\":6240:6243   */\n      dup3\n        /* \"#utility.yul\":6231:6237   */\n      dup5\n        /* \"#utility.yul\":6169:6244   */\n      tag_360\n      jump\t// in\n    tag_412:\n        /* \"#utility.yul\":6269:6271   */\n      0x20\n        /* \"#utility.yul\":6264:6267   */\n      dup3\n        /* \"#utility.yul\":6260:6272   */\n      add\n        /* \"#utility.yul\":6253:6272   */\n      swap2\n      pop\n        /* \"#utility.yul\":6289:6292   */\n      dup2\n        /* \"#utility.yul\":6282:6292   */\n      swap1\n      pop\n        /* \"#utility.yul\":6158:6298   */\n      swap3\n      swap2\n      pop\n      pop\n      jump\t// out\n        /* \"#utility.yul\":6304:6526   */\n    tag_48:\n      0x00\n        /* \"#utility.yul\":6435:6437   */\n      0x20\n        /* \"#utility.yul\":6424:6433   */\n      dup3\n        /* \"#utility.yul\":6420:6438   */\n      add\n        /* \"#utility.yul\":6412:6438   */\n      swap1\n      pop\n        /* \"#utility.yul\":6448:6519   */\n      tag_414\n        /* \"#utility.yul\":6516:6517   */\n      0x00\n        /* \"#utility.yul\":6505:6514   */\n      dup4\n        /* \"#utility.yul\":6501:6518   */\n      add\n        /* \"#utility.yul\":6492:6498   */\n      dup5\n        /* \"#utility.yul\":6448:6519   */\n      tag_336\n      jump\t// in\n    tag_414:\n        /* \"#utility.yul\":6402:6526   */\n      swap3\n      swap2\n      pop\n      pop\n      jump\t// out\n        /* \"#utility.yul\":6532:6754   */\n    tag_43:\n      0x00\n        /* \"#utility.yul\":6663:6665   */\n      0x20\n        /* \"#utility.yul\":6652:6661   */\n      dup3\n        /* \"#utility.yul\":6648:6666   */\n      add\n        /* \"#utility.yul\":6640:6666   */\n      swap1\n      pop\n        /* \"#utility.yul\":6676:6747   */\n      tag_416\n        /* \"#utility.yul\":6744:6745   */\n      0x00\n        /* \"#utility.yul\":6733:6742   */\n      dup4\n        /* \"#utility.yul\":6729:6746   */\n      add\n        /* \"#utility.yul\":6720:6726   */\n      dup5\n        /* \"#utility.yul\":6676:6747   */\n      tag_357\n      jump\t// in\n    tag_416:\n        /* \"#utility.yul\":6630:6754   */\n      swap3\n      swap2\n      pop\n      pop\n      jump\t// out\n        /* \"#utility.yul\":6760:7092   */\n    tag_247:\n      0x00\n        /* \"#utility.yul\":6919:6921   */\n      0x40\n        /* \"#utility.yul\":6908:6917   */\n      dup3\n        /* \"#utility.yul\":6904:6922   */\n      add\n        /* \"#utility.yul\":6896:6922   */\n      swap1\n      pop\n        /* \"#utility.yul\":6932:7003   */\n      tag_418\n        /* \"#utility.yul\":7000:7001   */\n      0x00\n        /* \"#utility.yul\":6989:6998   */\n      dup4\n        /* \"#utility.yul\":6985:7002   */\n      add\n        /* \"#utility.yul\":6976:6982   */\n      dup6\n        /* \"#utility.yul\":6932:7003   */\n      tag_357\n      jump\t// in\n    tag_418:\n        /* \"#utility.yul\":7013:7085   */\n      tag_419\n        /* \"#utility.yul\":7081:7083   */\n      0x20\n        /* \"#utility.yul\":7070:7079   */\n      dup4\n        /* \"#utility.yul\":7066:7084   */\n      add\n        /* \"#utility.yul\":7057:7063   */\n      dup5\n        /* \"#utility.yul\":7013:7085   */\n      tag_357\n      jump\t// in\n    tag_419:\n        /* \"#utility.yul\":6886:7092   */\n      swap4\n      swap3\n      pop\n      pop\n      pop\n      jump\t// out\n        /* \"#utility.yul\":7098:8703   */\n    tag_58:\n      0x00\n        /* \"#utility.yul\":7570:7573   */\n      0x0160\n        /* \"#utility.yul\":7559:7568   */\n      dup3\n        /* \"#utility.yul\":7555:7574   */\n      add\n        /* \"#utility.yul\":7547:7574   */\n      swap1\n      pop\n        /* \"#utility.yul\":7584:7655   */\n      tag_421\n        /* \"#utility.yul\":7652:7653   */\n      0x00\n        /* \"#utility.yul\":7641:7650   */\n      dup4\n        /* \"#utility.yul\":7637:7654   */\n      add\n        /* \"#utility.yul\":7628:7634   */\n      dup15\n        /* \"#utility.yul\":7584:7655   */\n      tag_357\n      jump\t// in\n    tag_421:\n        /* \"#utility.yul\":7665:7737   */\n      tag_422\n        /* \"#utility.yul\":7733:7735   */\n      0x20\n        /* \"#utility.yul\":7722:7731   */\n      dup4\n        /* \"#utility.yul\":7718:7736   */\n      add\n        /* \"#utility.yul\":7709:7715   */\n      dup14\n        /* \"#utility.yul\":7665:7737   */\n      tag_357\n      jump\t// in\n    tag_422:\n        /* \"#utility.yul\":7784:7793   */\n      dup2\n        /* \"#utility.yul\":7778:7782   */\n      dup2\n        /* \"#utility.yul\":7774:7794   */\n      sub\n        /* \"#utility.yul\":7769:7771   */\n      0x40\n        /* \"#utility.yul\":7758:7767   */\n      dup4\n        /* \"#utility.yul\":7754:7772   */\n      add\n        /* \"#utility.yul\":7747:7795   */\n      mstore\n        /* \"#utility.yul\":7812:7890   */\n      tag_423\n        /* \"#utility.yul\":7885:7889   */\n      dup2\n        /* \"#utility.yul\":7876:7882   */\n      dup13\n        /* \"#utility.yul\":7812:7890   */\n      tag_375\n      jump\t// in\n    tag_423:\n        /* \"#utility.yul\":7804:7890   */\n      swap1\n      pop\n        /* \"#utility.yul\":7937:7946   */\n      dup2\n        /* \"#utility.yul\":7931:7935   */\n      dup2\n        /* \"#utility.yul\":7927:7947   */\n      sub\n        /* \"#utility.yul\":7922:7924   */\n      0x60\n        /* \"#utility.yul\":7911:7920   */\n      dup4\n        /* \"#utility.yul\":7907:7925   */\n      add\n        /* \"#utility.yul\":7900:7948   */\n      mstore\n        /* \"#utility.yul\":7965:8043   */\n      tag_424\n        /* \"#utility.yul\":8038:8042   */\n      dup2\n        /* \"#utility.yul\":8029:8035   */\n      dup12\n        /* \"#utility.yul\":7965:8043   */\n      tag_375\n      jump\t// in\n    tag_424:\n        /* \"#utility.yul\":7957:8043   */\n      swap1\n      pop\n        /* \"#utility.yul\":8053:8126   */\n      tag_425\n        /* \"#utility.yul\":8121:8124   */\n      0x80\n        /* \"#utility.yul\":8110:8119   */\n      dup4\n        /* \"#utility.yul\":8106:8125   */\n      add\n        /* \"#utility.yul\":8097:8103   */\n      dup11\n        /* \"#utility.yul\":8053:8126   */\n      tag_357\n      jump\t// in\n    tag_425:\n        /* \"#utility.yul\":8136:8209   */\n      tag_426\n        /* \"#utility.yul\":8204:8207   */\n      0xa0\n        /* \"#utility.yul\":8193:8202   */\n      dup4\n        /* \"#utility.yul\":8189:8208   */\n      add\n        /* \"#utility.yul\":8180:8186   */\n      dup10\n        /* \"#utility.yul\":8136:8209   */\n      tag_357\n      jump\t// in\n    tag_426:\n        /* \"#utility.yul\":8219:8292   */\n      tag_427\n        /* \"#utility.yul\":8287:8290   */\n      0xc0\n        /* \"#utility.yul\":8276:8285   */\n      dup4\n        /* \"#utility.yul\":8272:8291   */\n      add\n        /* \"#utility.yul\":8263:8269   */\n      dup9\n        /* \"#utility.yul\":8219:8292   */\n      tag_357\n      jump\t// in\n    tag_427:\n        /* \"#utility.yul\":8302:8375   */\n      tag_428\n        /* \"#utility.yul\":8370:8373   */\n      0xe0\n        /* \"#utility.yul\":8359:8368   */\n      dup4\n        /* \"#utility.yul\":8355:8374   */\n      add\n        /* \"#utility.yul\":8346:8352   */\n      dup8\n        /* \"#utility.yul\":8302:8375   */\n      tag_357\n      jump\t// in\n    tag_428:\n        /* \"#utility.yul\":8385:8458   */\n      tag_429\n        /* \"#utility.yul\":8453:8456   */\n      0x0100\n        /* \"#utility.yul\":8442:8451   */\n      dup4\n        /* \"#utility.yul\":8438:8457   */\n      add\n        /* \"#utility.yul\":8429:8435   */\n      dup7\n        /* \"#utility.yul\":8385:8458   */\n      tag_357\n      jump\t// in\n    tag_429:\n        /* \"#utility.yul\":8506:8515   */\n      dup2\n        /* \"#utility.yul\":8500:8504   */\n      dup2\n        /* \"#utility.yul\":8496:8516   */\n      sub\n        /* \"#utility.yul\":8490:8493   */\n      0x0120\n        /* \"#utility.yul\":8479:8488   */\n      dup4\n        /* \"#utility.yul\":8475:8494   */\n      add\n        /* \"#utility.yul\":8468:8517   */\n      mstore\n        /* \"#utility.yul\":8534:8612   */\n      tag_430\n        /* \"#utility.yul\":8607:8611   */\n      dup2\n        /* \"#utility.yul\":8598:8604   */\n      dup6\n        /* \"#utility.yul\":8534:8612   */\n      tag_375\n      jump\t// in\n    tag_430:\n        /* \"#utility.yul\":8526:8612   */\n      swap1\n      pop\n        /* \"#utility.yul\":8622:8696   */\n      tag_431\n        /* \"#utility.yul\":8691:8694   */\n      0x0140\n        /* \"#utility.yul\":8680:8689   */\n      dup4\n        /* \"#utility.yul\":8676:8695   */\n      add\n        /* \"#utility.yul\":8666:8673   */\n      dup5\n        /* \"#utility.yul\":8622:8696   */\n      tag_357\n      jump\t// in\n    tag_431:\n        /* \"#utility.yul\":7537:8703   */\n      swap13\n      swap12\n      pop\n      pop\n      pop\n      pop\n      pop\n      pop\n      pop\n      pop\n      pop\n      pop\n      pop\n      pop\n      jump\t// out\n        /* \"#utility.yul\":8709:9484   */\n    tag_21:\n      0x00\n        /* \"#utility.yul\":8980:8983   */\n      0xc0\n        /* \"#utility.yul\":8969:8978   */\n      dup3\n        /* \"#utility.yul\":8965:8984   */\n      add\n        /* \"#utility.yul\":8957:8984   */\n      swap1\n      pop\n        /* \"#utility.yul\":8994:9065   */\n      tag_433\n        /* \"#utility.yul\":9062:9063   */\n      0x00\n        /* \"#utility.yul\":9051:9060   */\n      dup4\n        /* \"#utility.yul\":9047:9064   */\n      add\n        /* \"#utility.yul\":9038:9044   */\n      dup10\n        /* \"#utility.yul\":8994:9065   */\n      tag_357\n      jump\t// in\n    tag_433:\n        /* \"#utility.yul\":9075:9147   */\n      tag_434\n        /* \"#utility.yul\":9143:9145   */\n      0x20\n        /* \"#utility.yul\":9132:9141   */\n      dup4\n        /* \"#utility.yul\":9128:9146   */\n      add\n        /* \"#utility.yul\":9119:9125   */\n      dup9\n        /* \"#utility.yul\":9075:9147   */\n      tag_357\n      jump\t// in\n    tag_434:\n        /* \"#utility.yul\":9157:9229   */\n      tag_435\n        /* \"#utility.yul\":9225:9227   */\n      0x40\n        /* \"#utility.yul\":9214:9223   */\n      dup4\n        /* \"#utility.yul\":9210:9228   */\n      add\n        /* \"#utility.yul\":9201:9207   */\n      dup8\n        /* \"#utility.yul\":9157:9229   */\n      tag_407\n      jump\t// in\n    tag_435:\n        /* \"#utility.yul\":9239:9311   */\n      tag_436\n        /* \"#utility.yul\":9307:9309   */\n      0x60\n        /* \"#utility.yul\":9296:9305   */\n      dup4\n        /* \"#utility.yul\":9292:9310   */\n      add\n        /* \"#utility.yul\":9283:9289   */\n      dup7\n        /* \"#utility.yul\":9239:9311   */\n      tag_407\n      jump\t// in\n    tag_436:\n        /* \"#utility.yul\":9321:9394   */\n      tag_437\n        /* \"#utility.yul\":9389:9392   */\n      0x80\n        /* \"#utility.yul\":9378:9387   */\n      dup4\n        /* \"#utility.yul\":9374:9393   */\n      add\n        /* \"#utility.yul\":9365:9371   */\n      dup6\n        /* \"#utility.yul\":9321:9394   */\n      tag_357\n      jump\t// in\n    tag_437:\n        /* \"#utility.yul\":9404:9477   */\n      tag_438\n        /* \"#utility.yul\":9472:9475   */\n      0xa0\n        /* \"#utility.yul\":9461:9470   */\n      dup4\n        /* \"#utility.yul\":9457:9476   */\n      add\n        /* \"#utility.yul\":9448:9454   */\n      dup5\n        /* \"#utility.yul\":9404:9477   */\n      tag_336\n      jump\t// in\n    tag_438:\n        /* \"#utility.yul\":8947:9484   */\n      swap8\n      swap7\n      pop\n      pop\n      pop\n      pop\n      pop\n      pop\n      pop\n      jump\t// out\n        /* \"#utility.yul\":9490:10515   */\n    tag_52:\n      0x00\n        /* \"#utility.yul\":9833:9836   */\n      0xe0\n        /* \"#utility.yul\":9822:9831   */\n      dup3\n        /* \"#utility.yul\":9818:9837   */\n      add\n        /* \"#utility.yul\":9810:9837   */\n      swap1\n      pop\n        /* \"#utility.yul\":9847:9918   */\n      tag_440\n        /* \"#utility.yul\":9915:9916   */\n      0x00\n        /* \"#utility.yul\":9904:9913   */\n      dup4\n        /* \"#utility.yul\":9900:9917   */\n      add\n        /* \"#utility.yul\":9891:9897   */\n      dup11\n        /* \"#utility.yul\":9847:9918   */\n      tag_357\n      jump\t// in\n    tag_440:\n        /* \"#utility.yul\":9928:9998   */\n      tag_441\n        /* \"#utility.yul\":9994:9996   */\n      0x20\n        /* \"#utility.yul\":9983:9992   */\n      dup4\n        /* \"#utility.yul\":9979:9997   */\n      add\n        /* \"#utility.yul\":9970:9976   */\n      dup10\n        /* \"#utility.yul\":9928:9998   */\n      tag_403\n      jump\t// in\n    tag_441:\n        /* \"#utility.yul\":10008:10078   */\n      tag_442\n        /* \"#utility.yul\":10074:10076   */\n      0x40\n        /* \"#utility.yul\":10063:10072   */\n      dup4\n        /* \"#utility.yul\":10059:10077   */\n      add\n        /* \"#utility.yul\":10050:10056   */\n      dup9\n        /* \"#utility.yul\":10008:10078   */\n      tag_403\n      jump\t// in\n    tag_442:\n        /* \"#utility.yul\":10088:10158   */\n      tag_443\n        /* \"#utility.yul\":10154:10156   */\n      0x60\n        /* \"#utility.yul\":10143:10152   */\n      dup4\n        /* \"#utility.yul\":10139:10157   */\n      add\n        /* \"#utility.yul\":10130:10136   */\n      dup8\n        /* \"#utility.yul\":10088:10158   */\n      tag_403\n      jump\t// in\n    tag_443:\n        /* \"#utility.yul\":10168:10241   */\n      tag_444\n        /* \"#utility.yul\":10236:10239   */\n      0x80\n        /* \"#utility.yul\":10225:10234   */\n      dup4\n        /* \"#utility.yul\":10221:10240   */\n      add\n        /* \"#utility.yul\":10212:10218   */\n      dup7\n        /* \"#utility.yul\":10168:10241   */\n      tag_407\n      jump\t// in\n    tag_444:\n        /* \"#utility.yul\":10251:10324   */\n      tag_445\n        /* \"#utility.yul\":10319:10322   */\n      0xa0\n        /* \"#utility.yul\":10308:10317   */\n      dup4\n        /* \"#utility.yul\":10304:10323   */\n      add\n        /* \"#utility.yul\":10295:10301   */\n      dup6\n        /* \"#utility.yul\":10251:10324   */\n      tag_407\n      jump\t// in\n    tag_445:\n        /* \"#utility.yul\":10372:10381   */\n      dup2\n        /* \"#utility.yul\":10366:10370   */\n      dup2\n        /* \"#utility.yul\":10362:10382   */\n      sub\n        /* \"#utility.yul\":10356:10359   */\n      0xc0\n        /* \"#utility.yul\":10345:10354   */\n      dup4\n        /* \"#utility.yul\":10341:10360   */\n      add\n        /* \"#utility.yul\":10334:10383   */\n      mstore\n        /* \"#utility.yul\":10400:10508   */\n      tag_446\n        /* \"#utility.yul\":10503:10507   */\n      dup2\n        /* \"#utility.yul\":10494:10500   */\n      dup5\n        /* \"#utility.yul\":10400:10508   */\n      tag_340\n      jump\t// in\n    tag_446:\n        /* \"#utility.yul\":10392:10508   */\n      swap1\n      pop\n        /* \"#utility.yul\":9800:10515   */\n      swap9\n      swap8\n      pop\n      pop\n      pop\n      pop\n      pop\n      pop\n      pop\n      pop\n      jump\t// out\n        /* \"#utility.yul\":10521:10963   */\n    tag_72:\n      0x00\n        /* \"#utility.yul\":10708:10710   */\n      0x60\n        /* \"#utility.yul\":10697:10706   */\n      dup3\n        /* \"#utility.yul\":10693:10711   */\n      add\n        /* \"#utility.yul\":10685:10711   */\n      swap1\n      pop\n        /* \"#utility.yul\":10721:10792   */\n      tag_448\n        /* \"#utility.yul\":10789:10790   */\n      0x00\n        /* \"#utility.yul\":10778:10787   */\n      dup4\n        /* \"#utility.yul\":10774:10791   */\n      add\n        /* \"#utility.yul\":10765:10771   */\n      dup7\n        /* \"#utility.yul\":10721:10792   */\n      tag_357\n      jump\t// in\n    tag_448:\n        /* \"#utility.yul\":10802:10874   */\n      tag_449\n        /* \"#utility.yul\":10870:10872   */\n      0x20\n        /* \"#utility.yul\":10859:10868   */\n      dup4\n        /* \"#utility.yul\":10855:10873   */\n      add\n        /* \"#utility.yul\":10846:10852   */\n      dup6\n        /* \"#utility.yul\":10802:10874   */\n      tag_407\n      jump\t// in\n    tag_449:\n        /* \"#utility.yul\":10884:10956   */\n      tag_450\n        /* \"#utility.yul\":10952:10954   */\n      0x40\n        /* \"#utility.yul\":10941:10950   */\n      dup4\n        /* \"#utility.yul\":10937:10955   */\n      add\n        /* \"#utility.yul\":10928:10934   */\n      dup5\n        /* \"#utility.yul\":10884:10956   */\n      tag_357\n      jump\t// in\n    tag_450:\n        /* \"#utility.yul\":10675:10963   */\n      swap5\n      swap4\n      pop\n      pop\n      pop\n      pop\n      jump\t// out\n        /* \"#utility.yul\":10969:11388   */\n    tag_29:\n      0x00\n        /* \"#utility.yul\":11146:11148   */\n      0x40\n        /* \"#utility.yul\":11135:11144   */\n      dup3\n        /* \"#utility.yul\":11131:11149   */\n      add\n        /* \"#utility.yul\":11123:11149   */\n      swap1\n      pop\n        /* \"#utility.yul\":11195:11204   */\n      dup2\n        /* \"#utility.yul\":11189:11193   */\n      dup2\n        /* \"#utility.yul\":11185:11205   */\n      sub\n        /* \"#utility.yul\":11181:11182   */\n      0x00\n        /* \"#utility.yul\":11170:11179   */\n      dup4\n        /* \"#utility.yul\":11166:11183   */\n      add\n        /* \"#utility.yul\":11159:11206   */\n      mstore\n        /* \"#utility.yul\":11223:11299   */\n      tag_452\n        /* \"#utility.yul\":11294:11298   */\n      dup2\n        /* \"#utility.yul\":11285:11291   */\n      dup6\n        /* \"#utility.yul\":11223:11299   */\n      tag_365\n      jump\t// in\n    tag_452:\n        /* \"#utility.yul\":11215:11299   */\n      swap1\n      pop\n        /* \"#utility.yul\":11309:11381   */\n      tag_453\n        /* \"#utility.yul\":11377:11379   */\n      0x20\n        /* \"#utility.yul\":11366:11375   */\n      dup4\n        /* \"#utility.yul\":11362:11380   */\n      add\n        /* \"#utility.yul\":11353:11359   */\n      dup5\n        /* \"#utility.yul\":11309:11381   */\n      tag_407\n      jump\t// in\n    tag_453:\n        /* \"#utility.yul\":11113:11388   */\n      swap4\n      swap3\n      pop\n      pop\n      pop\n      jump\t// out\n        /* \"#utility.yul\":11394:11813   */\n    tag_236:\n      0x00\n        /* \"#utility.yul\":11598:11600   */\n      0x20\n        /* \"#utility.yul\":11587:11596   */\n      dup3\n        /* \"#utility.yul\":11583:11601   */\n      add\n        /* \"#utility.yul\":11575:11601   */\n      swap1\n      pop\n        /* \"#utility.yul\":11647:11656   */\n      dup2\n        /* \"#utility.yul\":11641:11645   */\n      dup2\n        /* \"#utility.yul\":11637:11657   */\n      sub\n        /* \"#utility.yul\":11633:11634   */\n      0x00\n        /* \"#utility.yul\":11622:11631   */\n      dup4\n        /* \"#utility.yul\":11618:11635   */\n      add\n        /* \"#utility.yul\":11611:11658   */\n      mstore\n        /* \"#utility.yul\":11675:11806   */\n      tag_455\n        /* \"#utility.yul\":11801:11805   */\n      dup2\n        /* \"#utility.yul\":11675:11806   */\n      tag_383\n      jump\t// in\n    tag_455:\n        /* \"#utility.yul\":11667:11806   */\n      swap1\n      pop\n        /* \"#utility.yul\":11565:11813   */\n      swap2\n      swap1\n      pop\n      jump\t// out\n        /* \"#utility.yul\":11819:12238   */\n    tag_239:\n      0x00\n        /* \"#utility.yul\":12023:12025   */\n      0x20\n        /* \"#utility.yul\":12012:12021   */\n      dup3\n        /* \"#utility.yul\":12008:12026   */\n      add\n        /* \"#utility.yul\":12000:12026   */\n      swap1\n      pop\n        /* \"#utility.yul\":12072:12081   */\n      dup2\n        /* \"#utility.yul\":12066:12070   */\n      dup2\n        /* \"#utility.yul\":12062:12082   */\n      sub\n        /* \"#utility.yul\":12058:12059   */\n      0x00\n        /* \"#utility.yul\":12047:12056   */\n      dup4\n        /* \"#utility.yul\":12043:12060   */\n      add\n        /* \"#utility.yul\":12036:12083   */\n      mstore\n        /* \"#utility.yul\":12100:12231   */\n      tag_457\n        /* \"#utility.yul\":12226:12230   */\n      dup2\n        /* \"#utility.yul\":12100:12231   */\n      tag_388\n      jump\t// in\n    tag_457:\n        /* \"#utility.yul\":12092:12231   */\n      swap1\n      pop\n        /* \"#utility.yul\":11990:12238   */\n      swap2\n      swap1\n      pop\n      jump\t// out\n        /* \"#utility.yul\":12244:12663   */\n    tag_69:\n      0x00\n        /* \"#utility.yul\":12448:12450   */\n      0x20\n        /* \"#utility.yul\":12437:12446   */\n      dup3\n        /* \"#utility.yul\":12433:12451   */\n      add\n        /* \"#utility.yul\":12425:12451   */\n      swap1\n      pop\n        /* \"#utility.yul\":12497:12506   */\n      dup2\n        /* \"#utility.yul\":12491:12495   */\n      dup2\n        /* \"#utility.yul\":12487:12507   */\n      sub\n        /* \"#utility.yul\":12483:12484   */\n      0x00\n        /* \"#utility.yul\":12472:12481   */\n      dup4\n        /* \"#utility.yul\":12468:12485   */\n      add\n        /* \"#utility.yul\":12461:12508   */\n      mstore\n        /* \"#utility.yul\":12525:12656   */\n      tag_459\n        /* \"#utility.yul\":12651:12655   */\n      dup2\n        /* \"#utility.yul\":12525:12656   */\n      tag_393\n      jump\t// in\n    tag_459:\n        /* \"#utility.yul\":12517:12656   */\n      swap1\n      pop\n        /* \"#utility.yul\":12415:12663   */\n      swap2\n      swap1\n      pop\n      jump\t// out\n        /* \"#utility.yul\":12669:13088   */\n    tag_65:\n      0x00\n        /* \"#utility.yul\":12873:12875   */\n      0x20\n        /* \"#utility.yul\":12862:12871   */\n      dup3\n        /* \"#utility.yul\":12858:12876   */\n      add\n        /* \"#utility.yul\":12850:12876   */\n      swap1\n      pop\n        /* \"#utility.yul\":12922:12931   */\n      dup2\n        /* \"#utility.yul\":12916:12920   */\n      dup2\n        /* \"#utility.yul\":12912:12932   */\n      sub\n        /* \"#utility.yul\":12908:12909   */\n      0x00\n        /* \"#utility.yul\":12897:12906   */\n      dup4\n        /* \"#utility.yul\":12893:12910   */\n      add\n        /* \"#utility.yul\":12886:12933   */\n      mstore\n        /* \"#utility.yul\":12950:13081   */\n      tag_461\n        /* \"#utility.yul\":13076:13080   */\n      dup2\n        /* \"#utility.yul\":12950:13081   */\n      tag_398\n      jump\t// in\n    tag_461:\n        /* \"#utility.yul\":12942:13081   */\n      swap1\n      pop\n        /* \"#utility.yul\":12840:13088   */\n      swap2\n      swap1\n      pop\n      jump\t// out\n        /* \"#utility.yul\":13094:13226   */\n    tag_347:\n      0x00\n        /* \"#utility.yul\":13184:13187   */\n      dup2\n        /* \"#utility.yul\":13176:13187   */\n      swap1\n      pop\n        /* \"#utility.yul\":13214:13218   */\n      0x20\n        /* \"#utility.yul\":13209:13212   */\n      dup3\n        /* \"#utility.yul\":13205:13219   */\n      add\n        /* \"#utility.yul\":13197:13219   */\n      swap1\n      pop\n        /* \"#utility.yul\":13166:13226   */\n      swap2\n      swap1\n      pop\n      jump\t// out\n        /* \"#utility.yul\":13232:13346   */\n    tag_343:\n      0x00\n        /* \"#utility.yul\":13333:13338   */\n      dup2\n        /* \"#utility.yul\":13327:13339   */\n      mload\n        /* \"#utility.yul\":13317:13339   */\n      swap1\n      pop\n        /* \"#utility.yul\":13306:13346   */\n      swap2\n      swap1\n      pop\n      jump\t// out\n        /* \"#utility.yul\":13352:13450   */\n    tag_368:\n      0x00\n        /* \"#utility.yul\":13437:13442   */\n      dup2\n        /* \"#utility.yul\":13431:13443   */\n      mload\n        /* \"#utility.yul\":13421:13443   */\n      swap1\n      pop\n        /* \"#utility.yul\":13410:13450   */\n      swap2\n      swap1\n      pop\n      jump\t// out\n        /* \"#utility.yul\":13456:13555   */\n    tag_378:\n      0x00\n        /* \"#utility.yul\":13542:13547   */\n      dup2\n        /* \"#utility.yul\":13536:13548   */\n      mload\n        /* \"#utility.yul\":13526:13548   */\n      swap1\n      pop\n        /* \"#utility.yul\":13515:13555   */\n      swap2\n      swap1\n      pop\n      jump\t// out\n        /* \"#utility.yul\":13561:13674   */\n    tag_353:\n      0x00\n        /* \"#utility.yul\":13663:13667   */\n      0x20\n        /* \"#utility.yul\":13658:13661   */\n      dup3\n        /* \"#utility.yul\":13654:13668   */\n      add\n        /* \"#utility.yul\":13646:13668   */\n      swap1\n      pop\n        /* \"#utility.yul\":13636:13674   */\n      swap2\n      swap1\n      pop\n      jump\t// out\n        /* \"#utility.yul\":13680:13864   */\n    tag_345:\n      0x00\n        /* \"#utility.yul\":13813:13819   */\n      dup3\n        /* \"#utility.yul\":13808:13811   */\n      dup3\n        /* \"#utility.yul\":13801:13820   */\n      mstore\n        /* \"#utility.yul\":13853:13857   */\n      0x20\n        /* \"#utility.yul\":13848:13851   */\n      dup3\n        /* \"#utility.yul\":13844:13858   */\n      add\n        /* \"#utility.yul\":13829:13858   */\n      swap1\n      pop\n        /* \"#utility.yul\":13791:13864   */\n      swap3\n      swap2\n      pop\n      pop\n      jump\t// out\n        /* \"#utility.yul\":13870:14038   */\n    tag_370:\n      0x00\n        /* \"#utility.yul\":13987:13993   */\n      dup3\n        /* \"#utility.yul\":13982:13985   */\n      dup3\n        /* \"#utility.yul\":13975:13994   */\n      mstore\n        /* \"#utility.yul\":14027:14031   */\n      0x20\n        /* \"#utility.yul\":14022:14025   */\n      dup3\n        /* \"#utility.yul\":14018:14032   */\n      add\n        /* \"#utility.yul\":14003:14032   */\n      swap1\n      pop\n        /* \"#utility.yul\":13965:14038   */\n      swap3\n      swap2\n      pop\n      pop\n      jump\t// out\n        /* \"#utility.yul\":14044:14213   */\n    tag_380:\n      0x00\n        /* \"#utility.yul\":14162:14168   */\n      dup3\n        /* \"#utility.yul\":14157:14160   */\n      dup3\n        /* \"#utility.yul\":14150:14169   */\n      mstore\n        /* \"#utility.yul\":14202:14206   */\n      0x20\n        /* \"#utility.yul\":14197:14200   */\n      dup3\n        /* \"#utility.yul\":14193:14207   */\n      add\n        /* \"#utility.yul\":14178:14207   */\n      swap1\n      pop\n        /* \"#utility.yul\":14140:14213   */\n      swap3\n      swap2\n      pop\n      pop\n      jump\t// out\n        /* \"#utility.yul\":14219:14461   */\n    tag_102:\n      0x00\n        /* \"#utility.yul\":14277:14296   */\n      tag_471\n        /* \"#utility.yul\":14294:14295   */\n      dup3\n        /* \"#utility.yul\":14277:14296   */\n      tag_406\n      jump\t// in\n    tag_471:\n        /* \"#utility.yul\":14272:14296   */\n      swap2\n      pop\n        /* \"#utility.yul\":14310:14329   */\n      tag_472\n        /* \"#utility.yul\":14327:14328   */\n      dup4\n        /* \"#utility.yul\":14310:14329   */\n      tag_406\n      jump\t// in\n    tag_472:\n        /* \"#utility.yul\":14305:14329   */\n      swap3\n      pop\n        /* \"#utility.yul\":14403:14404   */\n      dup3\n        /* \"#utility.yul\":14395:14401   */\n      0xffff\n        /* \"#utility.yul\":14391:14405   */\n      sub\n        /* \"#utility.yul\":14388:14389   */\n      dup3\n        /* \"#utility.yul\":14385:14406   */\n      gt\n        /* \"#utility.yul\":14382:14384   */\n      iszero\n      tag_473\n      jumpi\n        /* \"#utility.yul\":14409:14427   */\n      tag_474\n      tag_475\n      jump\t// in\n    tag_474:\n        /* \"#utility.yul\":14382:14384   */\n    tag_473:\n        /* \"#utility.yul\":14453:14454   */\n      dup3\n        /* \"#utility.yul\":14450:14451   */\n      dup3\n        /* \"#utility.yul\":14446:14455   */\n      add\n        /* \"#utility.yul\":14439:14455   */\n      swap1\n      pop\n        /* \"#utility.yul\":14262:14461   */\n      swap3\n      swap2\n      pop\n      pop\n      jump\t// out\n        /* \"#utility.yul\":14467:14652   */\n    tag_278:\n      0x00\n        /* \"#utility.yul\":14524:14544   */\n      tag_477\n        /* \"#utility.yul\":14542:14543   */\n      dup3\n        /* \"#utility.yul\":14524:14544   */\n      tag_410\n      jump\t// in\n    tag_477:\n        /* \"#utility.yul\":14519:14544   */\n      swap2\n      pop\n        /* \"#utility.yul\":14558:14578   */\n      tag_478\n        /* \"#utility.yul\":14576:14577   */\n      dup4\n        /* \"#utility.yul\":14558:14578   */\n      tag_410\n      jump\t// in\n    tag_478:\n        /* \"#utility.yul\":14553:14578   */\n      swap3\n      pop\n        /* \"#utility.yul\":14597:14598   */\n      dup3\n        /* \"#utility.yul\":14587:14589   */\n      tag_479\n      jumpi\n        /* \"#utility.yul\":14602:14620   */\n      tag_480\n      tag_481\n      jump\t// in\n    tag_480:\n        /* \"#utility.yul\":14587:14589   */\n    tag_479:\n        /* \"#utility.yul\":14644:14645   */\n      dup3\n        /* \"#utility.yul\":14641:14642   */\n      dup3\n        /* \"#utility.yul\":14637:14646   */\n      div\n        /* \"#utility.yul\":14632:14646   */\n      swap1\n      pop\n        /* \"#utility.yul\":14509:14652   */\n      swap3\n      swap2\n      pop\n      pop\n      jump\t// out\n        /* \"#utility.yul\":14658:14943   */\n    tag_97:\n      0x00\n        /* \"#utility.yul\":14720:14739   */\n      tag_483\n        /* \"#utility.yul\":14737:14738   */\n      dup3\n        /* \"#utility.yul\":14720:14739   */\n      tag_406\n      jump\t// in\n    tag_483:\n        /* \"#utility.yul\":14715:14739   */\n      swap2\n      pop\n        /* \"#utility.yul\":14753:14772   */\n      tag_484\n        /* \"#utility.yul\":14770:14771   */\n      dup4\n        /* \"#utility.yul\":14753:14772   */\n      tag_406\n      jump\t// in\n    tag_484:\n        /* \"#utility.yul\":14748:14772   */\n      swap3\n      pop\n        /* \"#utility.yul\":14880:14881   */\n      dup2\n        /* \"#utility.yul\":14872:14878   */\n      0xffff\n        /* \"#utility.yul\":14868:14882   */\n      div\n        /* \"#utility.yul\":14865:14866   */\n      dup4\n        /* \"#utility.yul\":14862:14883   */\n      gt\n        /* \"#utility.yul\":14857:14858   */\n      dup3\n        /* \"#utility.yul\":14850:14859   */\n      iszero\n        /* \"#utility.yul\":14843:14860   */\n      iszero\n        /* \"#utility.yul\":14839:14884   */\n      and\n        /* \"#utility.yul\":14836:14838   */\n      iszero\n      tag_485\n      jumpi\n        /* \"#utility.yul\":14887:14905   */\n      tag_486\n      tag_475\n      jump\t// in\n    tag_486:\n        /* \"#utility.yul\":14836:14838   */\n    tag_485:\n        /* \"#utility.yul\":14935:14936   */\n      dup3\n        /* \"#utility.yul\":14932:14933   */\n      dup3\n        /* \"#utility.yul\":14928:14937   */\n      mul\n        /* \"#utility.yul\":14917:14937   */\n      swap1\n      pop\n        /* \"#utility.yul\":14705:14943   */\n      swap3\n      swap2\n      pop\n      pop\n      jump\t// out\n        /* \"#utility.yul\":14949:15297   */\n    tag_285:\n      0x00\n        /* \"#utility.yul\":15012:15032   */\n      tag_488\n        /* \"#utility.yul\":15030:15031   */\n      dup3\n        /* \"#utility.yul\":15012:15032   */\n      tag_410\n      jump\t// in\n    tag_488:\n        /* \"#utility.yul\":15007:15032   */\n      swap2\n      pop\n        /* \"#utility.yul\":15046:15066   */\n      tag_489\n        /* \"#utility.yul\":15064:15065   */\n      dup4\n        /* \"#utility.yul\":15046:15066   */\n      tag_410\n      jump\t// in\n    tag_489:\n        /* \"#utility.yul\":15041:15066   */\n      swap3\n      pop\n        /* \"#utility.yul\":15234:15235   */\n      dup2\n        /* \"#utility.yul\":15166:15232   */\n      0xffffffffffffffffffffffffffffffffffffffffffffffffffffffffffffffff\n        /* \"#utility.yul\":15162:15236   */\n      div\n        /* \"#utility.yul\":15159:15160   */\n      dup4\n        /* \"#utility.yul\":15156:15237   */\n      gt\n        /* \"#utility.yul\":15151:15152   */\n      dup3\n        /* \"#utility.yul\":15144:15153   */\n      iszero\n        /* \"#utility.yul\":15137:15154   */\n      iszero\n        /* \"#utility.yul\":15133:15238   */\n      and\n        /* \"#utility.yul\":15130:15132   */\n      iszero\n      tag_490\n      jumpi\n        /* \"#utility.yul\":15241:15259   */\n      tag_491\n      tag_475\n      jump\t// in\n    tag_491:\n        /* \"#utility.yul\":15130:15132   */\n    tag_490:\n        /* \"#utility.yul\":15289:15290   */\n      dup3\n        /* \"#utility.yul\":15286:15287   */\n      dup3\n        /* \"#utility.yul\":15282:15291   */\n      mul\n        /* \"#utility.yul\":15271:15291   */\n      swap1\n      pop\n        /* \"#utility.yul\":14997:15297   */\n      swap3\n      swap2\n      pop\n      pop\n      jump\t// out\n        /* \"#utility.yul\":15303:15494   */\n    tag_117:\n      0x00\n        /* \"#utility.yul\":15363:15383   */\n      tag_493\n        /* \"#utility.yul\":15381:15382   */\n      dup3\n        /* \"#utility.yul\":15363:15383   */\n      tag_410\n      jump\t// in\n    tag_493:\n        /* \"#utility.yul\":15358:15383   */\n      swap2\n      pop\n        /* \"#utility.yul\":15397:15417   */\n      tag_494\n        /* \"#utility.yul\":15415:15416   */\n      dup4\n        /* \"#utility.yul\":15397:15417   */\n      tag_410\n      jump\t// in\n    tag_494:\n        /* \"#utility.yul\":15392:15417   */\n      swap3\n      pop\n        /* \"#utility.yul\":15436:15437   */\n      dup3\n        /* \"#utility.yul\":15433:15434   */\n      dup3\n        /* \"#utility.yul\":15430:15438   */\n      lt\n        /* \"#utility.yul\":15427:15429   */\n      iszero\n      tag_495\n      jumpi\n        /* \"#utility.yul\":15441:15459   */\n      tag_496\n      tag_475\n      jump\t// in\n    tag_496:\n        /* \"#utility.yul\":15427:15429   */\n    tag_495:\n        /* \"#utility.yul\":15486:15487   */\n      dup3\n        /* \"#utility.yul\":15483:15484   */\n      dup3\n        /* \"#utility.yul\":15479:15488   */\n      sub\n        /* \"#utility.yul\":15471:15488   */\n      swap1\n      pop\n        /* \"#utility.yul\":15348:15494   */\n      swap3\n      swap2\n      pop\n      pop\n      jump\t// out\n        /* \"#utility.yul\":15500:15596   */\n    tag_339:\n      0x00\n        /* \"#utility.yul\":15566:15590   */\n      tag_498\n        /* \"#utility.yul\":15584:15589   */\n      dup3\n        /* \"#utility.yul\":15566:15590   */\n      tag_499\n      jump\t// in\n    tag_498:\n        /* \"#utility.yul\":15555:15590   */\n      swap1\n      pop\n        /* \"#utility.yul\":15545:15596   */\n      swap2\n      swap1\n      pop\n      jump\t// out\n        /* \"#utility.yul\":15602:15679   */\n    tag_356:\n      0x00\n        /* \"#utility.yul\":15668:15673   */\n      dup2\n        /* \"#utility.yul\":15657:15673   */\n      swap1\n      pop\n        /* \"#utility.yul\":15647:15679   */\n      swap2\n      swap1\n      pop\n      jump\t// out\n        /* \"#utility.yul\":15685:15774   */\n    tag_406:\n      0x00\n        /* \"#utility.yul\":15761:15767   */\n      0xffff\n        /* \"#utility.yul\":15754:15759   */\n      dup3\n        /* \"#utility.yul\":15750:15768   */\n      and\n        /* \"#utility.yul\":15739:15768   */\n      swap1\n      pop\n        /* \"#utility.yul\":15729:15774   */\n      swap2\n      swap1\n      pop\n      jump\t// out\n        /* \"#utility.yul\":15780:15906   */\n    tag_499:\n      0x00\n        /* \"#utility.yul\":15857:15899   */\n      0xffffffffffffffffffffffffffffffffffffffff\n        /* \"#utility.yul\":15850:15855   */\n      dup3\n        /* \"#utility.yul\":15846:15900   */\n      and\n        /* \"#utility.yul\":15835:15900   */\n      swap1\n      pop\n        /* \"#utility.yul\":15825:15906   */\n      swap2\n      swap1\n      pop\n      jump\t// out\n        /* \"#utility.yul\":15912:15989   */\n    tag_410:\n      0x00\n        /* \"#utility.yul\":15978:15983   */\n      dup2\n        /* \"#utility.yul\":15967:15983   */\n      swap1\n      pop\n        /* \"#utility.yul\":15957:15989   */\n      swap2\n      swap1\n      pop\n      jump\t// out\n        /* \"#utility.yul\":15995:16302   */\n    tag_372:\n        /* \"#utility.yul\":16063:16064   */\n      0x00\n        /* \"#utility.yul\":16073:16186   */\n    tag_505:\n        /* \"#utility.yul\":16087:16093   */\n      dup4\n        /* \"#utility.yul\":16084:16085   */\n      dup2\n        /* \"#utility.yul\":16081:16094   */\n      lt\n        /* \"#utility.yul\":16073:16186   */\n      iszero\n      tag_507\n      jumpi\n        /* \"#utility.yul\":16172:16173   */\n      dup1\n        /* \"#utility.yul\":16167:16170   */\n      dup3\n        /* \"#utility.yul\":16163:16174   */\n      add\n        /* \"#utility.yul\":16157:16175   */\n      mload\n        /* \"#utility.yul\":16153:16154   */\n      dup2\n        /* \"#utility.yul\":16148:16151   */\n      dup5\n        /* \"#utility.yul\":16144:16155   */\n      add\n        /* \"#utility.yul\":16137:16176   */\n      mstore\n        /* \"#utility.yul\":16109:16111   */\n      0x20\n        /* \"#utility.yul\":16106:16107   */\n      dup2\n        /* \"#utility.yul\":16102:16112   */\n      add\n        /* \"#utility.yul\":16097:16112   */\n      swap1\n      pop\n        /* \"#utility.yul\":16073:16186   */\n      jump(tag_505)\n    tag_507:\n        /* \"#utility.yul\":16204:16210   */\n      dup4\n        /* \"#utility.yul\":16201:16202   */\n      dup2\n        /* \"#utility.yul\":16198:16211   */\n      gt\n        /* \"#utility.yul\":16195:16197   */\n      iszero\n      tag_508\n      jumpi\n        /* \"#utility.yul\":16284:16285   */\n      0x00\n        /* \"#utility.yul\":16275:16281   */\n      dup5\n        /* \"#utility.yul\":16270:16273   */\n      dup5\n        /* \"#utility.yul\":16266:16282   */\n      add\n        /* \"#utility.yul\":16259:16286   */\n      mstore\n        /* \"#utility.yul\":16195:16197   */\n    tag_508:\n        /* \"#utility.yul\":16044:16302   */\n      pop\n      pop\n      pop\n      pop\n      jump\t// out\n        /* \"#utility.yul\":16308:16477   */\n    tag_253:\n      0x00\n        /* \"#utility.yul\":16369:16392   */\n      tag_510\n        /* \"#utility.yul\":16386:16391   */\n      dup3\n        /* \"#utility.yul\":16369:16392   */\n      tag_406\n      jump\t// in\n    tag_510:\n        /* \"#utility.yul\":16360:16392   */\n      swap2\n      pop\n        /* \"#utility.yul\":16414:16418   */\n      0x00\n        /* \"#utility.yul\":16407:16412   */\n      dup3\n        /* \"#utility.yul\":16404:16419   */\n      eq\n        /* \"#utility.yul\":16401:16403   */\n      iszero\n      tag_511\n      jumpi\n        /* \"#utility.yul\":16422:16440   */\n      tag_512\n      tag_475\n      jump\t// in\n    tag_512:\n        /* \"#utility.yul\":16401:16403   */\n    tag_511:\n        /* \"#utility.yul\":16469:16470   */\n      0x01\n        /* \"#utility.yul\":16462:16467   */\n      dup3\n        /* \"#utility.yul\":16458:16471   */\n      sub\n        /* \"#utility.yul\":16451:16471   */\n      swap1\n      pop\n        /* \"#utility.yul\":16350:16477   */\n      swap2\n      swap1\n      pop\n      jump\t// out\n        /* \"#utility.yul\":16483:16803   */\n    tag_78:\n      0x00\n        /* \"#utility.yul\":16564:16565   */\n      0x02\n        /* \"#utility.yul\":16558:16562   */\n      dup3\n        /* \"#utility.yul\":16554:16566   */\n      div\n        /* \"#utility.yul\":16544:16566   */\n      swap1\n      pop\n        /* \"#utility.yul\":16611:16612   */\n      0x01\n        /* \"#utility.yul\":16605:16609   */\n      dup3\n        /* \"#utility.yul\":16601:16613   */\n      and\n        /* \"#utility.yul\":16632:16650   */\n      dup1\n        /* \"#utility.yul\":16622:16624   */\n      tag_514\n      jumpi\n        /* \"#utility.yul\":16688:16692   */\n      0x7f\n        /* \"#utility.yul\":16680:16686   */\n      dup3\n        /* \"#utility.yul\":16676:16693   */\n      and\n        /* \"#utility.yul\":16666:16693   */\n      swap2\n      pop\n        /* \"#utility.yul\":16622:16624   */\n    tag_514:\n        /* \"#utility.yul\":16750:16752   */\n      0x20\n        /* \"#utility.yul\":16742:16748   */\n      dup3\n        /* \"#utility.yul\":16739:16753   */\n      lt\n        /* \"#utility.yul\":16719:16737   */\n      dup2\n        /* \"#utility.yul\":16716:16754   */\n      eq\n        /* \"#utility.yul\":16713:16715   */\n      iszero\n      tag_515\n      jumpi\n        /* \"#utility.yul\":16769:16787   */\n      tag_516\n      tag_517\n      jump\t// in\n    tag_516:\n        /* \"#utility.yul\":16713:16715   */\n    tag_515:\n        /* \"#utility.yul\":16534:16803   */\n      pop\n      swap2\n      swap1\n      pop\n      jump\t// out\n        /* \"#utility.yul\":16809:16980   */\n    tag_242:\n      0x00\n        /* \"#utility.yul\":16870:16893   */\n      tag_519\n        /* \"#utility.yul\":16887:16892   */\n      dup3\n        /* \"#utility.yul\":16870:16893   */\n      tag_406\n      jump\t// in\n    tag_519:\n        /* \"#utility.yul\":16861:16893   */\n      swap2\n      pop\n        /* \"#utility.yul\":16915:16921   */\n      0xffff\n        /* \"#utility.yul\":16908:16913   */\n      dup3\n        /* \"#utility.yul\":16905:16922   */\n      eq\n        /* \"#utility.yul\":16902:16904   */\n      iszero\n      tag_520\n      jumpi\n        /* \"#utility.yul\":16925:16943   */\n      tag_521\n      tag_475\n      jump\t// in\n    tag_521:\n        /* \"#utility.yul\":16902:16904   */\n    tag_520:\n        /* \"#utility.yul\":16972:16973   */\n      0x01\n        /* \"#utility.yul\":16965:16970   */\n      dup3\n        /* \"#utility.yul\":16961:16974   */\n      add\n        /* \"#utility.yul\":16954:16974   */\n      swap1\n      pop\n        /* \"#utility.yul\":16851:16980   */\n      swap2\n      swap1\n      pop\n      jump\t// out\n        /* \"#utility.yul\":16986:17219   */\n    tag_198:\n      0x00\n        /* \"#utility.yul\":17048:17072   */\n      tag_523\n        /* \"#utility.yul\":17066:17071   */\n      dup3\n        /* \"#utility.yul\":17048:17072   */\n      tag_410\n      jump\t// in\n    tag_523:\n        /* \"#utility.yul\":17039:17072   */\n      swap2\n      pop\n        /* \"#utility.yul\":17094:17160   */\n      0xffffffffffffffffffffffffffffffffffffffffffffffffffffffffffffffff\n        /* \"#utility.yul\":17087:17092   */\n      dup3\n        /* \"#utility.yul\":17084:17161   */\n      eq\n        /* \"#utility.yul\":17081:17083   */\n      iszero\n      tag_524\n      jumpi\n        /* \"#utility.yul\":17164:17182   */\n      tag_525\n      tag_475\n      jump\t// in\n    tag_525:\n        /* \"#utility.yul\":17081:17083   */\n    tag_524:\n        /* \"#utility.yul\":17211:17212   */\n      0x01\n        /* \"#utility.yul\":17204:17209   */\n      dup3\n        /* \"#utility.yul\":17200:17213   */\n      add\n        /* \"#utility.yul\":17193:17213   */\n      swap1\n      pop\n        /* \"#utility.yul\":17029:17219   */\n      swap2\n      swap1\n      pop\n      jump\t// out\n        /* \"#utility.yul\":17225:17304   */\n    tag_364:\n      0x00\n        /* \"#utility.yul\":17293:17298   */\n      dup2\n        /* \"#utility.yul\":17282:17298   */\n      swap1\n      pop\n        /* \"#utility.yul\":17272:17304   */\n      swap2\n      swap1\n      pop\n      jump\t// out\n        /* \"#utility.yul\":17310:17486   */\n    tag_280:\n      0x00\n        /* \"#utility.yul\":17359:17379   */\n      tag_528\n        /* \"#utility.yul\":17377:17378   */\n      dup3\n        /* \"#utility.yul\":17359:17379   */\n      tag_410\n      jump\t// in\n    tag_528:\n        /* \"#utility.yul\":17354:17379   */\n      swap2\n      pop\n        /* \"#utility.yul\":17393:17413   */\n      tag_529\n        /* \"#utility.yul\":17411:17412   */\n      dup4\n        /* \"#utility.yul\":17393:17413   */\n      tag_410\n      jump\t// in\n    tag_529:\n        /* \"#utility.yul\":17388:17413   */\n      swap3\n      pop\n        /* \"#utility.yul\":17432:17433   */\n      dup3\n        /* \"#utility.yul\":17422:17424   */\n      tag_530\n      jumpi\n        /* \"#utility.yul\":17437:17455   */\n      tag_531\n      tag_481\n      jump\t// in\n    tag_531:\n        /* \"#utility.yul\":17422:17424   */\n    tag_530:\n        /* \"#utility.yul\":17478:17479   */\n      dup3\n        /* \"#utility.yul\":17475:17476   */\n      dup3\n        /* \"#utility.yul\":17471:17480   */\n      mod\n        /* \"#utility.yul\":17466:17480   */\n      swap1\n      pop\n        /* \"#utility.yul\":17344:17486   */\n      swap3\n      swap2\n      pop\n      pop\n      jump\t// out\n        /* \"#utility.yul\":17492:17672   */\n    tag_475:\n        /* \"#utility.yul\":17540:17617   */\n      0x4e487b7100000000000000000000000000000000000000000000000000000000\n        /* \"#utility.yul\":17537:17538   */\n      0x00\n        /* \"#utility.yul\":17530:17618   */\n      mstore\n        /* \"#utility.yul\":17637:17641   */\n      0x11\n        /* \"#utility.yul\":17634:17635   */\n      0x04\n        /* \"#utility.yul\":17627:17642   */\n      mstore\n        /* \"#utility.yul\":17661:17665   */\n      0x24\n        /* \"#utility.yul\":17658:17659   */\n      0x00\n        /* \"#utility.yul\":17651:17666   */\n      revert\n        /* \"#utility.yul\":17678:17858   */\n    tag_481:\n        /* \"#utility.yul\":17726:17803   */\n      0x4e487b7100000000000000000000000000000000000000000000000000000000\n        /* \"#utility.yul\":17723:17724   */\n      0x00\n        /* \"#utility.yul\":17716:17804   */\n      mstore\n        /* \"#utility.yul\":17823:17827   */\n      0x12\n        /* \"#utility.yul\":17820:17821   */\n      0x04\n        /* \"#utility.yul\":17813:17828   */\n      mstore\n        /* \"#utility.yul\":17847:17851   */\n      0x24\n        /* \"#utility.yul\":17844:17845   */\n      0x00\n        /* \"#utility.yul\":17837:17852   */\n      revert\n        /* \"#utility.yul\":17864:18044   */\n    tag_517:\n        /* \"#utility.yul\":17912:17989   */\n      0x4e487b7100000000000000000000000000000000000000000000000000000000\n        /* \"#utility.yul\":17909:17910   */\n      0x00\n        /* \"#utility.yul\":17902:17990   */\n      mstore\n        /* \"#utility.yul\":18009:18013   */\n      0x22\n        /* \"#utility.yul\":18006:18007   */\n      0x04\n        /* \"#utility.yul\":17999:18014   */\n      mstore\n        /* \"#utility.yul\":18033:18037   */\n      0x24\n        /* \"#utility.yul\":18030:18031   */\n      0x00\n        /* \"#utility.yul\":18023:18038   */\n      revert\n        /* \"#utility.yul\":18050:18152   */\n    tag_374:\n      0x00\n        /* \"#utility.yul\":18142:18144   */\n      0x1f\n        /* \"#utility.yul\":18138:18145   */\n      not\n        /* \"#utility.yul\":18133:18135   */\n      0x1f\n        /* \"#utility.yul\":18126:18131   */\n      dup4\n        /* \"#utility.yul\":18122:18136   */\n      add\n        /* \"#utility.yul\":18118:18146   */\n      and\n        /* \"#utility.yul\":18108:18146   */\n      swap1\n      pop\n        /* \"#utility.yul\":18098:18152   */\n      swap2\n      swap1\n      pop\n      jump\t// out\n        /* \"#utility.yul\":18158:18388   */\n    tag_387:\n        /* \"#utility.yul\":18298:18332   */\n      0x546865206964206f662074686520696e7375726564206973206e6f7420696e20\n        /* \"#utility.yul\":18294:18295   */\n      0x00\n        /* \"#utility.yul\":18286:18292   */\n      dup3\n        /* \"#utility.yul\":18282:18296   */\n      add\n        /* \"#utility.yul\":18275:18333   */\n      mstore\n        /* \"#utility.yul\":18367:18380   */\n      0x74686520706f6c6963792e000000000000000000000000000000000000000000\n        /* \"#utility.yul\":18362:18364   */\n      0x20\n        /* \"#utility.yul\":18354:18360   */\n      dup3\n        /* \"#utility.yul\":18350:18365   */\n      add\n        /* \"#utility.yul\":18343:18381   */\n      mstore\n        /* \"#utility.yul\":18264:18388   */\n      pop\n      jump\t// out\n        /* \"#utility.yul\":18394:18572   */\n    tag_392:\n        /* \"#utility.yul\":18534:18564   */\n      0x59612065786973746520756e612050435220636f6e2065736520494400000000\n        /* \"#utility.yul\":18530:18531   */\n      0x00\n        /* \"#utility.yul\":18522:18528   */\n      dup3\n        /* \"#utility.yul\":18518:18532   */\n      add\n        /* \"#utility.yul\":18511:18565   */\n      mstore\n        /* \"#utility.yul\":18500:18572   */\n      pop\n      jump\t// out\n        /* \"#utility.yul\":18578:18752   */\n    tag_397:\n        /* \"#utility.yul\":18718:18744   */\n      0x4c6120504352207469656e652071756520657869737469720000000000000000\n        /* \"#utility.yul\":18714:18715   */\n      0x00\n        /* \"#utility.yul\":18706:18712   */\n      dup3\n        /* \"#utility.yul\":18702:18716   */\n      add\n        /* \"#utility.yul\":18695:18745   */\n      mstore\n        /* \"#utility.yul\":18684:18752   */\n      pop\n      jump\t// out\n        /* \"#utility.yul\":18758:18936   */\n    tag_402:\n        /* \"#utility.yul\":18898:18928   */\n      0x4e6f2065786973746520756e612050435220636f6e2065736120494400000000\n        /* \"#utility.yul\":18894:18895   */\n      0x00\n        /* \"#utility.yul\":18886:18892   */\n      dup3\n        /* \"#utility.yul\":18882:18896   */\n      add\n        /* \"#utility.yul\":18875:18929   */\n      mstore\n        /* \"#utility.yul\":18864:18936   */\n      pop\n      jump\t// out\n        /* \"#utility.yul\":18942:19064   */\n    tag_307:\n        /* \"#utility.yul\":19015:19039   */\n      tag_541\n        /* \"#utility.yul\":19033:19038   */\n      dup2\n        /* \"#utility.yul\":19015:19039   */\n      tag_339\n      jump\t// in\n    tag_541:\n        /* \"#utility.yul\":19008:19013   */\n      dup2\n        /* \"#utility.yul\":19005:19040   */\n      eq\n        /* \"#utility.yul\":18995:18997   */\n      tag_542\n      jumpi\n        /* \"#utility.yul\":19054:19055   */\n      0x00\n        /* \"#utility.yul\":19051:19052   */\n      dup1\n        /* \"#utility.yul\":19044:19056   */\n      revert\n        /* \"#utility.yul\":18995:18997   */\n    tag_542:\n        /* \"#utility.yul\":18985:19064   */\n      pop\n      jump\t// out\n        /* \"#utility.yul\":19070:19192   */\n    tag_311:\n        /* \"#utility.yul\":19143:19167   */\n      tag_544\n        /* \"#utility.yul\":19161:19166   */\n      dup2\n        /* \"#utility.yul\":19143:19167   */\n      tag_356\n      jump\t// in\n    tag_544:\n        /* \"#utility.yul\":19136:19141   */\n      dup2\n        /* \"#utility.yul\":19133:19168   */\n      eq\n        /* \"#utility.yul\":19123:19125   */\n      tag_545\n      jumpi\n        /* \"#utility.yul\":19182:19183   */\n      0x00\n        /* \"#utility.yul\":19179:19180   */\n      dup1\n        /* \"#utility.yul\":19172:19184   */\n      revert\n        /* \"#utility.yul\":19123:19125   */\n    tag_545:\n        /* \"#utility.yul\":19113:19192   */\n      pop\n      jump\t// out\n        /* \"#utility.yul\":19198:19320   */\n    tag_315:\n        /* \"#utility.yul\":19271:19295   */\n      tag_547\n        /* \"#utility.yul\":19289:19294   */\n      dup2\n        /* \"#utility.yul\":19271:19295   */\n      tag_410\n      jump\t// in\n    tag_547:\n        /* \"#utility.yul\":19264:19269   */\n      dup2\n        /* \"#utility.yul\":19261:19296   */\n      eq\n        /* \"#utility.yul\":19251:19253   */\n      tag_548\n      jumpi\n        /* \"#utility.yul\":19310:19311   */\n      0x00\n        /* \"#utility.yul\":19307:19308   */\n      dup1\n        /* \"#utility.yul\":19300:19312   */\n      revert\n        /* \"#utility.yul\":19251:19253   */\n    tag_548:\n        /* \"#utility.yul\":19241:19320   */\n      pop\n      jump\t// out\n\n    auxdata: 0xa264697066735822122014f875bf8c85680f71c96273e0789be81750f6ae484dc9c8fec4291c29e48c5c64736f6c63430008030033\n}\n",
    "bytecode": {
      "linkReferences": {},
      "object": "60806040523480156200001157600080fd5b5060405162003c3538038062003c35833981810160405281019062000037919062000de9565b336000806101000a81548173ffffffffffffffffffffffffffffffffffffffff021916908373ffffffffffffffffffffffffffffffffffffffff1602179055506000600160146101000a81548160ff0219169083151502179055508060116002019080519060200190620000ad92919062000a2b565b508160116001019080519060200190620000c992919062000a2b565b508260116000019080519060200190620000e592919062000a2b565b508360008151811062000121577f4e487b7100000000000000000000000000000000000000000000000000000000600052603260045260246000fd5b6020026020010151601160040181905550836001815181106200016d577f4e487b7100000000000000000000000000000000000000000000000000000000600052603260045260246000fd5b602002602001015160116005018190555083600281518110620001b9577f4e487b7100000000000000000000000000000000000000000000000000000000600052603260045260246000fd5b60200260200101516011600601819055508360038151811062000205577f4e487b7100000000000000000000000000000000000000000000000000000000600052603260045260246000fd5b60200260200101516011600701819055508360048151811062000251577f4e487b7100000000000000000000000000000000000000000000000000000000600052603260045260246000fd5b6020026020010151601160080181905550836005815181106200029d577f4e487b7100000000000000000000000000000000000000000000000000000000600052603260045260246000fd5b602002602001015160116009018190555083600681518110620002e9577f4e487b7100000000000000000000000000000000000000000000000000000000600052603260045260246000fd5b60200260200101516011600a0181905550600285511462000341576040517f08c379a00000000000000000000000000000000000000000000000000000000081526004016200033890620010b8565b60405180910390fd5b846000815181106200037c577f4e487b7100000000000000000000000000000000000000000000000000000000600052603260045260246000fd5b6020026020010151600a60000160006101000a81548161ffff021916908361ffff16021790555084600181518110620003de577f4e487b7100000000000000000000000000000000000000000000000000000000600052603260045260246000fd5b6020026020010151600a60000160026101000a81548161ffff021916908361ffff16021790555060038651146200044c576040517f08c379a000000000000000000000000000000000000000000000000000000000815260040162000443906200111e565b60405180910390fd5b8560018151811062000487577f4e487b7100000000000000000000000000000000000000000000000000000000600052603260045260246000fd5b602002602001015186600081518110620004ca577f4e487b7100000000000000000000000000000000000000000000000000000000600052603260045260246000fd5b60200260200101511062000515576040517f08c379a00000000000000000000000000000000000000000000000000000000081526004016200050c90620010fc565b60405180910390fd5b8560008151811062000550577f4e487b7100000000000000000000000000000000000000000000000000000000600052603260045260246000fd5b6020026020010151600a60020181905550856001815181106200059c577f4e487b7100000000000000000000000000000000000000000000000000000000600052603260045260246000fd5b6020026020010151600a6003018190555085600281518110620005e8577f4e487b7100000000000000000000000000000000000000000000000000000000600052603260045260246000fd5b6020026020010151600a6004018190555086600a60050190805190602001906200061492919062000abc565b5060028851146200065c576040517f08c379a00000000000000000000000000000000000000000000000000000000081526004016200065390620010da565b60405180910390fd5b8760018151811062000697577f4e487b7100000000000000000000000000000000000000000000000000000000600052603260045260246000fd5b602002602001015160116003018190555087600081518110620006e3577f4e487b7100000000000000000000000000000000000000000000000000000000600052603260045260246000fd5b6020026020010151600a6001018190555086518951146200070357600080fd5b86518a51146200071257600080fd5b60005b87518110156200096d576001600460008a84815181106200075f577f4e487b7100000000000000000000000000000000000000000000000000000000600052603260045260246000fd5b6020026020010151815260200190815260200160002060006101000a81548160ff0219169083151502179055506203f480426200079d919062001280565b8a8281518110620007d7577f4e487b7100000000000000000000000000000000000000000000000000000000600052603260045260246000fd5b6020026020010151101562000823576040517f08c379a00000000000000000000000000000000000000000000000000000000081526004016200081a9062001096565b60405180910390fd5b8981815181106200085d577f4e487b7100000000000000000000000000000000000000000000000000000000600052603260045260246000fd5b6020026020010151600860008a8481518110620008a3577f4e487b7100000000000000000000000000000000000000000000000000000000600052603260045260246000fd5b60200260200101518152602001908152602001600020819055508a8181518110620008f7577f4e487b7100000000000000000000000000000000000000000000000000000000600052603260045260246000fd5b6020026020010151600760008a84815181106200093d577f4e487b7100000000000000000000000000000000000000000000000000000000600052603260045260246000fd5b6020026020010151815260200190815260200160002081905550808062000964906200137f565b91505062000715565b50600a6005018054905060ff16600a60000160066101000a81548161ffff021916908361ffff1602179055506000600a60000160046101000a81548161ffff021916908361ffff160217905550600a60000160069054906101000a900461ffff16600a60000160029054906101000a900461ffff16600a60000160009054906101000a900461ffff1662000a0291906200123d565b62000a0e91906200123d565b61ffff16600a60060181905550505050505050505050506200166a565b82805462000a399062001313565b90600052602060002090601f01602090048101928262000a5d576000855562000aa9565b82601f1062000a7857805160ff191683800117855562000aa9565b8280016001018555821562000aa9579182015b8281111562000aa857825182559160200191906001019062000a8b565b5b50905062000ab8919062000b0e565b5090565b82805482825590600052602060002090810192821562000afb579160200282015b8281111562000afa57825182559160200191906001019062000add565b5b50905062000b0a919062000b2d565b5090565b5b8082111562000b2957600081600090555060010162000b0f565b5090565b5b8082111562000b4857600081600090555060010162000b2e565b5090565b600062000b6362000b5d8462001169565b62001140565b9050808382526020820190508285602086028201111562000b8357600080fd5b60005b8581101562000bb7578162000b9c888262000d77565b84526020840193506020830192505060018101905062000b86565b5050509392505050565b600062000bd862000bd28462001198565b62001140565b9050808382526020820190508285602086028201111562000bf857600080fd5b60005b8581101562000c2c578162000c11888262000dbb565b84526020840193506020830192505060018101905062000bfb565b5050509392505050565b600062000c4d62000c4784620011c7565b62001140565b9050808382526020820190508285602086028201111562000c6d57600080fd5b60005b8581101562000ca1578162000c86888262000dd2565b84526020840193506020830192505060018101905062000c70565b5050509392505050565b600062000cc262000cbc84620011f6565b62001140565b90508281526020810184848401111562000cdb57600080fd5b62000ce8848285620012dd565b509392505050565b600082601f83011262000d0257600080fd5b815162000d1484826020860162000b4c565b91505092915050565b600082601f83011262000d2f57600080fd5b815162000d4184826020860162000bc1565b91505092915050565b600082601f83011262000d5c57600080fd5b815162000d6e84826020860162000c36565b91505092915050565b60008151905062000d88816200161c565b92915050565b600082601f83011262000da057600080fd5b815162000db284826020860162000cab565b91505092915050565b60008151905062000dcc8162001636565b92915050565b60008151905062000de38162001650565b92915050565b6000806000806000806000806000806101408b8d03121562000e0a57600080fd5b60008b015167ffffffffffffffff81111562000e2557600080fd5b62000e338d828e0162000cf0565b9a505060208b015167ffffffffffffffff81111562000e5157600080fd5b62000e5f8d828e0162000d4a565b99505060408b015167ffffffffffffffff81111562000e7d57600080fd5b62000e8b8d828e0162000cf0565b98505060608b015167ffffffffffffffff81111562000ea957600080fd5b62000eb78d828e0162000cf0565b97505060808b015167ffffffffffffffff81111562000ed557600080fd5b62000ee38d828e0162000d4a565b96505060a08b015167ffffffffffffffff81111562000f0157600080fd5b62000f0f8d828e0162000d1d565b95505060c08b015167ffffffffffffffff81111562000f2d57600080fd5b62000f3b8d828e0162000cf0565b94505060e08b015167ffffffffffffffff81111562000f5957600080fd5b62000f678d828e0162000d8e565b9350506101008b015167ffffffffffffffff81111562000f8657600080fd5b62000f948d828e0162000d8e565b9250506101208b015167ffffffffffffffff81111562000fb357600080fd5b62000fc18d828e0162000d8e565b9150509295989b9194979a5092959850565b600062000fe26039836200122c565b915062000fef826200146b565b604082019050919050565b600062001009604a836200122c565b91506200101682620014ba565b606082019050919050565b6000620010306024836200122c565b91506200103d826200152f565b604082019050919050565b6000620010576030836200122c565b915062001064826200157e565b604082019050919050565b60006200107e6040836200122c565b91506200108b82620015cd565b604082019050919050565b60006020820190508181036000830152620010b18162000fd3565b9050919050565b60006020820190508181036000830152620010d38162000ffa565b9050919050565b60006020820190508181036000830152620010f58162001021565b9050919050565b60006020820190508181036000830152620011178162001048565b9050919050565b6000602082019050818103600083015262001139816200106f565b9050919050565b60006200114c6200115f565b90506200115a828262001349565b919050565b6000604051905090565b600067ffffffffffffffff8211156200118757620011866200142b565b5b602082029050602081019050919050565b600067ffffffffffffffff821115620011b657620011b56200142b565b5b602082029050602081019050919050565b600067ffffffffffffffff821115620011e557620011e46200142b565b5b602082029050602081019050919050565b600067ffffffffffffffff8211156200121457620012136200142b565b5b6200121f826200145a565b9050602081019050919050565b600082825260208201905092915050565b60006200124a82620012c5565b91506200125783620012c5565b92508161ffff0483118215151615620012755762001274620013cd565b5b828202905092915050565b60006200128d82620012d3565b91506200129a83620012d3565b925082821015620012b057620012af620013cd565b5b828203905092915050565b6000819050919050565b600061ffff82169050919050565b6000819050919050565b60005b83811015620012fd578082015181840152602081019050620012e0565b838111156200130d576000848401525b50505050565b600060028204905060018216806200132c57607f821691505b60208210811415620013435762001342620013fc565b5b50919050565b62001354826200145a565b810181811067ffffffffffffffff821117156200137657620013756200142b565b5b80604052505050565b60006200138c82620012d3565b91507fffffffffffffffffffffffffffffffffffffffffffffffffffffffffffffffff821415620013c257620013c1620013cd565b5b600182019050919050565b7f4e487b7100000000000000000000000000000000000000000000000000000000600052601160045260246000fd5b7f4e487b7100000000000000000000000000000000000000000000000000000000600052602260045260246000fd5b7f4e487b7100000000000000000000000000000000000000000000000000000000600052604160045260246000fd5b6000601f19601f8301169050919050565b7f436865636b20746861742070726576696f75732050435220686173206265656e60008201527f206e6f206d6f7265207468616e203320646179732061676f2e00000000000000602082015250565b7f596f75206861766520746f2070726f766964652074686520616d6f756e74206f60008201527f662064617920636f6d70656e736174696f6e20616e6420746865206e756d626560208201527f72206f6620646179732e00000000000000000000000000000000000000000000604082015250565b7f4d7573742070726f7669646520506f6c69637920494420616e642054616b657260008201527f2049442e00000000000000000000000000000000000000000000000000000000602082015250565b7f54686520737461727420646174652068617320746f206265206265666f72652060008201527f7468652066696e69736820646174652e00000000000000000000000000000000602082015250565b7f54686520506f6c696379206e656564206120737461727420646174652c20612060008201527f66696e697368206461746520616e64206120636f6e747261637420646174652e602082015250565b6200162781620012bb565b81146200163357600080fd5b50565b6200164181620012c5565b81146200164d57600080fd5b50565b6200165b81620012d3565b81146200166757600080fd5b50565b6125bb806200167a6000396000f3fe608060405234801561001057600080fd5b50600436106100b45760003560e01c80635d1ca631116100715780635d1ca6311461016b57806362a681b31461018957806392ed93d0146101b95780639499e018146101dd578063e0caf0bd146101e7578063fc1c7a701461020f576100b4565b8063169e68c3146100b95780632357aef3146100ee578063236f45d91461010a578063297e6306146101295780632f0519d41461014557806340d5ff5814610161575b600080fd5b6100d360048036038101906100ce9190611b0c565b61022d565b6040516100e596959493929190611ee4565b60405180910390f35b61010860048036038101906101039190611b35565b610355565b005b6101126104a8565b604051610120929190611ff2565b60405180910390f35b610143600480360381019061013e9190611ae3565b611124565b005b61015f600480360381019061015a9190611b71565b61119c565b005b610169611440565b005b6101736114d6565b6040516101809190611de0565b60405180910390f35b6101a3600480360381019061019e9190611b0c565b6114e3565b6040516101b09190611dc5565b60405180910390f35b6101c16115f3565b6040516101d49796959493929190611f45565b60405180910390f35b6101e56116ba565b005b6101ef61174b565b6040516102069b9a99989796959493929190611e24565b60405180910390f35b610217611963565b6040516102249190611de0565b60405180910390f35b6000806000806000806005600088815260200190815260200160002060009054906101000a900460ff16610296576040517f08c379a000000000000000000000000000000000000000000000000000000000815260040161028d90612082565b60405180910390fd5b60096000888152602001908152602001600020600001546009600089815260200190815260200160002060020154600960008a815260200190815260200160002060030154600960008b815260200190815260200160002060040154600960008c815260200190815260200160002060010154600960008d815260200190815260200160002060050160009054906101000a900473ffffffffffffffffffffffffffffffffffffffff1695509550955095509550955091939550919395565b60007f504f53495449564500000000000000000000000000000000000000000000000090506000600660008581526020019081526020016000205490506005600085815260200190815260200160002060009054906101000a900460ff166103f2576040517f08c379a00000000000000000000000000000000000000000000000000000000081526004016103e990612062565b60405180910390fd5b826009600086815260200190815260200160002060000181905550426009600086815260200190815260200160002060040181905550818314156104a2576001601c60006101000a81548160ff0219169083151502179055507f02a309dc5c17c116a56725e000acab6ee53f439c2185131e3a5faf3fc183cd408142600a6001015460405161048393929190611fbb565b60405180910390a1600a600301544210156104a1576104a0611440565b5b5b50505050565b6060600080610543601160000180546104c0906122f7565b80601f01602080910402602001604051908101604052809291908181526020018280546104ec906122f7565b80156105395780601f1061050e57610100808354040283529160200191610539565b820191906000526020600020905b81548152906001019060200180831161051c57829003601f168201915b5050505050611970565b905060006105dd6011600101805461055a906122f7565b80601f0160208091040260200160405190810160405280929190818152602001828054610586906122f7565b80156105d35780601f106105a8576101008083540402835291602001916105d3565b820191906000526020600020905b8154815290600101906020018083116105b657829003601f168201915b5050505050611970565b90506000610677601160020180546105f4906122f7565b80601f0160208091040260200160405190810160405280929190818152602001828054610620906122f7565b801561066d5780601f106106425761010080835404028352916020019161066d565b820191906000526020600020905b81548152906001019060200180831161065057829003601f168201915b5050505050611970565b90506000601e600a60000160049054906101000a900461ffff1660a061069d919061217c565b6002600a8587896101206002600a60000160069054906101000a900461ffff1660206106c9919061217c565b6106d3919061217c565b600a60000160069054906101000a900461ffff1660206106f3919061217c565b60846106ff9190612113565b6107099190612113565b6107139190612113565b61071d9190612113565b6107279190612113565b6107319190612113565b61073b9190612113565b6107459190612113565b61074f9190612113565b6107599190612113565b61ffff1690508067ffffffffffffffff81111561079f577f4e487b7100000000000000000000000000000000000000000000000000000000600052604160045260246000fd5b6040519080825280601f01601f1916602001820160405280156107d15781602001600182028036833780820191505090505b5095508094506107e781600a60010154886119c8565b6020816107f49190612212565b905061080681600a60060154886119fb565b6020816108139190612212565b905061082581600a60020154886119fb565b6020816108329190612212565b905061084481600a60030154886119fb565b6020816108519190612212565b905061086381600a60040154886119fb565b6020816108709190612212565b905061089481600a60000160009054906101000a900461ffff1661ffff16886119fb565b6002816108a19190612212565b90506108c581600a60000160029054906101000a900461ffff1661ffff16886119fb565b6002816108d29190612212565b90506108e481601160030154886119c8565b6020816108f19190612212565b905061090381601160040154886119c8565b6020816109109190612212565b905061092281601160050154886119c8565b60208161092f9190612212565b905061094181601160060154886119c8565b60208161094e9190612212565b905061096081601160070154886119c8565b60208161096d9190612212565b905061097f81601160080154886119c8565b60208161098c9190612212565b905061099e81601160090154886119c8565b6020816109ab9190612212565b90506109bd816011600a0154886119c8565b6020816109ca9190612212565b90506109e681601c60009054906101000a900460ff1688611a05565b6001816109f39190612212565b9050610a0f81601c60019054906101000a900460ff1688611a05565b600181610a1c9190612212565b9050610a2d818561ffff16886119fb565b600281610a3a9190612212565b9050610ad48160116000018054610a50906122f7565b80601f0160208091040260200160405190810160405280929190818152602001828054610a7c906122f7565b8015610ac95780601f10610a9e57610100808354040283529160200191610ac9565b820191906000526020600020905b815481529060010190602001808311610aac57829003601f168201915b505050505088611a29565b8361ffff1681610ae49190612212565b9050610af5818461ffff16886119fb565b600281610b029190612212565b9050610b9c8160116001018054610b18906122f7565b80601f0160208091040260200160405190810160405280929190818152602001828054610b44906122f7565b8015610b915780601f10610b6657610100808354040283529160200191610b91565b820191906000526020600020905b815481529060010190602001808311610b7457829003601f168201915b505050505088611a29565b8261ffff1681610bac9190612212565b9050610bbd818361ffff16886119fb565b600281610bca9190612212565b9050610c648160116002018054610be0906122f7565b80601f0160208091040260200160405190810160405280929190818152602001828054610c0c906122f7565b8015610c595780601f10610c2e57610100808354040283529160200191610c59565b820191906000526020600020905b815481529060010190602001808311610c3c57829003601f168201915b505050505088611a29565b8161ffff1681610c749190612212565b9050610c9881600a60000160069054906101000a900461ffff1661ffff16886119fb565b600281610ca59190612212565b905060005b600a60000160069054906101000a900461ffff1661ffff16811015610e2557610d1b82600a6005018381548110610d0a577f4e487b7100000000000000000000000000000000000000000000000000000000600052603260045260246000fd5b9060005260206000200154896119c8565b602082610d289190612212565b9150610d8f8260076000600a6005018581548110610d6f577f4e487b7100000000000000000000000000000000000000000000000000000000600052603260045260246000fd5b9060005260206000200154815260200190815260200160002054896119c8565b602082610d9c9190612212565b9150610e038260086000600a6005018581548110610de3577f4e487b7100000000000000000000000000000000000000000000000000000000600052603260045260246000fd5b9060005260206000200154815260200190815260200160002054896119fb565b602082610e109190612212565b91508080610e1d90612354565b915050610caa565b50610e4881600a60000160049054906101000a900461ffff1661ffff16886119fb565b602081610e559190612212565b9050600080600080600080600090505b600a60000160069054906101000a900461ffff1661ffff168110156111165760005b60036000600a6005018481548110610ec8577f4e487b7100000000000000000000000000000000000000000000000000000000600052603260045260246000fd5b9060005260206000200154815260200190815260200160002080549050811015611102576005600060036000600a6005018681548110610f31577f4e487b7100000000000000000000000000000000000000000000000000000000600052603260045260246000fd5b906000526020600020015481526020019081526020016000208381548110610f82577f4e487b7100000000000000000000000000000000000000000000000000000000600052603260045260246000fd5b9060005260206000200154815260200190815260200160002060009054906101000a900460ff16610fb2576110ef565b61105760036000600a6005018581548110610ff6577f4e487b7100000000000000000000000000000000000000000000000000000000600052603260045260246000fd5b906000526020600020015481526020019081526020016000208281548110611047577f4e487b7100000000000000000000000000000000000000000000000000000000600052603260045260246000fd5b906000526020600020015461022d565b50809750819850829950839a50849b50505050505061107788848f6119c8565b6020886110849190612212565b975061109188858f6119fb565b60208861109e9190612212565b97506110ab88868f6119fb565b6020886110b89190612212565b97506110c588878f6119c8565b6020886110d29190612212565b97506110df88888f6119c8565b6020886110ec9190612212565b97505b80806110fa90612354565b915050610e87565b50808061110e90612354565b915050610e65565b505050505050505050509091565b600160149054906101000a900460ff161561113e57600080fd5b60018060146101000a81548160ff02191690831515021790555080600160006101000a81548173ffffffffffffffffffffffffffffffffffffffff021916908373ffffffffffffffffffffffffffffffffffffffff16021790555050565b6004600085815260200190815260200160002060009054906101000a900460ff166111fc576040517f08c379a00000000000000000000000000000000000000000000000000000000081526004016111f390612022565b60405180910390fd5b6005600084815260200190815260200160002060009054906101000a900460ff161561125d576040517f08c379a000000000000000000000000000000000000000000000000000000000815260040161125490612042565b60405180910390fd5b60036000858152602001908152602001600020839080600181540180825580915050600190039060005260206000200160009091909190915055600360008581526020019081526020016000208054905060026000858152602001908152602001600020819055508360066000858152602001908152602001600020819055506040518060c001604052807f554e444546494e454400000000000000000000000000000000000000000000008152602001848152602001858152602001838152602001600081526020018273ffffffffffffffffffffffffffffffffffffffff1681525060096000858152602001908152602001600020600082015181600001556020820151816001015560408201518160020155606082015181600301556080820151816004015560a08201518160050160006101000a81548173ffffffffffffffffffffffffffffffffffffffff021916908373ffffffffffffffffffffffffffffffffffffffff16021790555090505060016005600085815260200190815260200160002060006101000a81548160ff021916908315150217905550600a600001600481819054906101000a900461ffff168092919061141f90612329565b91906101000a81548161ffff021916908361ffff1602179055505050505050565b601c60009054906101000a900460ff1680156114695750601c60019054906101000a900460ff16155b156114d4577fa12af4b51848737c59ce8d94f45ed389da0d7c547616481934a17713d27726c8601160030154600a600101546040516114a9929190611dfb565b60405180910390a16001601c60016101000a81548160ff02191690831515021790555042601d819055505b565b6000600a60010154905090565b60006005600083815260200190815260200160002060009054906101000a900460ff16611545576040517f08c379a000000000000000000000000000000000000000000000000000000000815260040161153c90612082565b60405180910390fd5b60006009600084815260200190815260200160002060050160009054906101000a900473ffffffffffffffffffffffffffffffffffffffff16905060006005600085815260200190815260200160002060006101000a81548160ff021916908315150217905550600a600001600481819054906101000a900461ffff16809291906115cf906122cd565b91906101000a81548161ffff021916908361ffff1602179055505080915050919050565b6000806000806000806060600a60010154600a60000160009054906101000a900461ffff16600a60000160029054906101000a900461ffff16600a60000160069054906101000a900461ffff16600a60020154600a60030154600a6005018080548060200260200160405190810160405280929190818152602001828054801561169c57602002820191906000526020600020905b815481526020019060010190808311611688575b50505050509050965096509650965096509650965090919293949596565b60008054906101000a900473ffffffffffffffffffffffffffffffffffffffff1673ffffffffffffffffffffffffffffffffffffffff163373ffffffffffffffffffffffffffffffffffffffff161461171257600080fd5b60008054906101000a900473ffffffffffffffffffffffffffffffffffffffff1673ffffffffffffffffffffffffffffffffffffffff16ff5b6000806060806000806000806000606060006011600301546011600401546011600001601160010160116005015460116006015460116007015460116008015460116009015460116002016011600a01548880546117a8906122f7565b80601f01602080910402602001604051908101604052809291908181526020018280546117d4906122f7565b80156118215780601f106117f657610100808354040283529160200191611821565b820191906000526020600020905b81548152906001019060200180831161180457829003601f168201915b50505050509850878054611834906122f7565b80601f0160208091040260200160405190810160405280929190818152602001828054611860906122f7565b80156118ad5780601f10611882576101008083540402835291602001916118ad565b820191906000526020600020905b81548152906001019060200180831161189057829003601f168201915b505050505097508180546118c0906122f7565b80601f01602080910402602001604051908101604052809291908181526020018280546118ec906122f7565b80156119395780601f1061190e57610100808354040283529160200191611939565b820191906000526020600020905b81548152906001019060200180831161191c57829003601f168201915b505050505091509a509a509a509a509a509a509a509a509a509a509a50909192939495969798999a565b6000601160030154905090565b600060208251611980919061214b565b905060006020835161199291906123a7565b146119a65780806119a290612354565b9150505b80806119b190612354565b9150506020816119c191906121b8565b9050919050565b6000826040516020016119db9190611daa565b604051602081830303815290604052905060208101518483015250505050565b8183820152505050565b600080151583151514611a19576001611a1c565b60005b9050808483015250505050565b600060208351611a39919061214b565b9050600060208451611a4b91906123a7565b1115611a60578080611a5c90612354565b9150505b8080611a6b90612354565b91505060005b81811015611a9d5760208102840151858401526020850394508080611a9590612354565b915050611a71565b5050505050565b600081359050611ab381612540565b92915050565b600081359050611ac881612557565b92915050565b600081359050611add8161256e565b92915050565b600060208284031215611af557600080fd5b6000611b0384828501611aa4565b91505092915050565b600060208284031215611b1e57600080fd5b6000611b2c84828501611ab9565b91505092915050565b60008060408385031215611b4857600080fd5b6000611b5685828601611ab9565b9250506020611b6785828601611ab9565b9150509250929050565b60008060008060808587031215611b8757600080fd5b6000611b9587828801611ab9565b9450506020611ba687828801611ab9565b9350506040611bb787828801611ace565b9250506060611bc887828801611aa4565b91505092959194509250565b6000611be08383611c59565b60208301905092915050565b611bf581612246565b82525050565b6000611c06826120b2565b611c1081856120e0565b9350611c1b836120a2565b8060005b83811015611c4c578151611c338882611bd4565b9750611c3e836120d3565b925050600181019050611c1f565b5085935050505092915050565b611c6281612258565b82525050565b611c7181612258565b82525050565b611c88611c8382612258565b61239d565b82525050565b6000611c99826120bd565b611ca381856120f1565b9350611cb381856020860161229a565b611cbc81612465565b840191505092915050565b6000611cd2826120c8565b611cdc8185612102565b9350611cec81856020860161229a565b611cf581612465565b840191505092915050565b6000611d0d602b83612102565b9150611d1882612476565b604082019050919050565b6000611d30601c83612102565b9150611d3b826124c5565b602082019050919050565b6000611d53601883612102565b9150611d5e826124ee565b602082019050919050565b6000611d76601c83612102565b9150611d8182612517565b602082019050919050565b611d9581612262565b82525050565b611da481612290565b82525050565b6000611db68284611c77565b60208201915081905092915050565b6000602082019050611dda6000830184611bec565b92915050565b6000602082019050611df56000830184611c68565b92915050565b6000604082019050611e106000830185611c68565b611e1d6020830184611c68565b9392505050565b600061016082019050611e3a600083018e611c68565b611e47602083018d611c68565b8181036040830152611e59818c611cc7565b90508181036060830152611e6d818b611cc7565b9050611e7c608083018a611c68565b611e8960a0830189611c68565b611e9660c0830188611c68565b611ea360e0830187611c68565b611eb1610100830186611c68565b818103610120830152611ec48185611cc7565b9050611ed4610140830184611c68565b9c9b505050505050505050505050565b600060c082019050611ef96000830189611c68565b611f066020830188611c68565b611f136040830187611d9b565b611f206060830186611d9b565b611f2d6080830185611c68565b611f3a60a0830184611bec565b979650505050505050565b600060e082019050611f5a600083018a611c68565b611f676020830189611d8c565b611f746040830188611d8c565b611f816060830187611d8c565b611f8e6080830186611d9b565b611f9b60a0830185611d9b565b81810360c0830152611fad8184611bfb565b905098975050505050505050565b6000606082019050611fd06000830186611c68565b611fdd6020830185611d9b565b611fea6040830184611c68565b949350505050565b6000604082019050818103600083015261200c8185611c8e565b905061201b6020830184611d9b565b9392505050565b6000602082019050818103600083015261203b81611d00565b9050919050565b6000602082019050818103600083015261205b81611d23565b9050919050565b6000602082019050818103600083015261207b81611d46565b9050919050565b6000602082019050818103600083015261209b81611d69565b9050919050565b6000819050602082019050919050565b600081519050919050565b600081519050919050565b600081519050919050565b6000602082019050919050565b600082825260208201905092915050565b600082825260208201905092915050565b600082825260208201905092915050565b600061211e82612262565b915061212983612262565b92508261ffff038211156121405761213f6123d8565b5b828201905092915050565b600061215682612290565b915061216183612290565b92508261217157612170612407565b5b828204905092915050565b600061218782612262565b915061219283612262565b92508161ffff04831182151516156121ad576121ac6123d8565b5b828202905092915050565b60006121c382612290565b91506121ce83612290565b9250817fffffffffffffffffffffffffffffffffffffffffffffffffffffffffffffffff0483118215151615612207576122066123d8565b5b828202905092915050565b600061221d82612290565b915061222883612290565b92508282101561223b5761223a6123d8565b5b828203905092915050565b600061225182612270565b9050919050565b6000819050919050565b600061ffff82169050919050565b600073ffffffffffffffffffffffffffffffffffffffff82169050919050565b6000819050919050565b60005b838110156122b857808201518184015260208101905061229d565b838111156122c7576000848401525b50505050565b60006122d882612262565b915060008214156122ec576122eb6123d8565b5b600182039050919050565b6000600282049050600182168061230f57607f821691505b6020821081141561232357612322612436565b5b50919050565b600061233482612262565b915061ffff821415612349576123486123d8565b5b600182019050919050565b600061235f82612290565b91507fffffffffffffffffffffffffffffffffffffffffffffffffffffffffffffffff821415612392576123916123d8565b5b600182019050919050565b6000819050919050565b60006123b282612290565b91506123bd83612290565b9250826123cd576123cc612407565b5b828206905092915050565b7f4e487b7100000000000000000000000000000000000000000000000000000000600052601160045260246000fd5b7f4e487b7100000000000000000000000000000000000000000000000000000000600052601260045260246000fd5b7f4e487b7100000000000000000000000000000000000000000000000000000000600052602260045260246000fd5b6000601f19601f8301169050919050565b7f546865206964206f662074686520696e7375726564206973206e6f7420696e2060008201527f74686520706f6c6963792e000000000000000000000000000000000000000000602082015250565b7f59612065786973746520756e612050435220636f6e2065736520494400000000600082015250565b7f4c6120504352207469656e652071756520657869737469720000000000000000600082015250565b7f4e6f2065786973746520756e612050435220636f6e2065736120494400000000600082015250565b61254981612246565b811461255457600080fd5b50565b61256081612258565b811461256b57600080fd5b50565b61257781612290565b811461258257600080fd5b5056fea264697066735822122014f875bf8c85680f71c96273e0789be81750f6ae484dc9c8fec4291c29e48c5c64736f6c63430008030033",
      "opcodes": "PUSH1 0x80 PUSH1 0x40 MSTORE CALLVALUE DUP1 ISZERO PUSH3 0x11 JUMPI PUSH1 0x0 DUP1 REVERT JUMPDEST POP PUSH1 0x40 MLOAD PUSH3 0x3C35 CODESIZE SUB DUP1 PUSH3 0x3C35 DUP4 CODECOPY DUP2 DUP2 ADD PUSH1 0x40 MSTORE DUP2 ADD SWAP1 PUSH3 0x37 SWAP2 SWAP1 PUSH3 0xDE9 JUMP JUMPDEST CALLER PUSH1 0x0 DUP1 PUSH2 0x100 EXP DUP2 SLOAD DUP2 PUSH20 0xFFFFFFFFFFFFFFFFFFFFFFFFFFFFFFFFFFFFFFFF MUL NOT AND SWAP1 DUP4 PUSH20 0xFFFFFFFFFFFFFFFFFFFFFFFFFFFFFFFFFFFFFFFF AND MUL OR SWAP1 SSTORE POP PUSH1 0x0 PUSH1 0x1 PUSH1 0x14 PUSH2 0x100 EXP DUP2 SLOAD DUP2 PUSH1 0xFF MUL NOT AND SWAP1 DUP4 ISZERO ISZERO MUL OR SWAP1 SSTORE POP DUP1 PUSH1 0x11 PUSH1 0x2 ADD SWAP1 DUP1 MLOAD SWAP1 PUSH1 0x20 ADD SWAP1 PUSH3 0xAD SWAP3 SWAP2 SWAP1 PUSH3 0xA2B JUMP JUMPDEST POP DUP2 PUSH1 0x11 PUSH1 0x1 ADD SWAP1 DUP1 MLOAD SWAP1 PUSH1 0x20 ADD SWAP1 PUSH3 0xC9 SWAP3 SWAP2 SWAP1 PUSH3 0xA2B JUMP JUMPDEST POP DUP3 PUSH1 0x11 PUSH1 0x0 ADD SWAP1 DUP1 MLOAD SWAP1 PUSH1 0x20 ADD SWAP1 PUSH3 0xE5 SWAP3 SWAP2 SWAP1 PUSH3 0xA2B JUMP JUMPDEST POP DUP4 PUSH1 0x0 DUP2 MLOAD DUP2 LT PUSH3 0x121 JUMPI PUSH32 0x4E487B7100000000000000000000000000000000000000000000000000000000 PUSH1 0x0 MSTORE PUSH1 0x32 PUSH1 0x4 MSTORE PUSH1 0x24 PUSH1 0x0 REVERT JUMPDEST PUSH1 0x20 MUL PUSH1 0x20 ADD ADD MLOAD PUSH1 0x11 PUSH1 0x4 ADD DUP2 SWAP1 SSTORE POP DUP4 PUSH1 0x1 DUP2 MLOAD DUP2 LT PUSH3 0x16D JUMPI PUSH32 0x4E487B7100000000000000000000000000000000000000000000000000000000 PUSH1 0x0 MSTORE PUSH1 0x32 PUSH1 0x4 MSTORE PUSH1 0x24 PUSH1 0x0 REVERT JUMPDEST PUSH1 0x20 MUL PUSH1 0x20 ADD ADD MLOAD PUSH1 0x11 PUSH1 0x5 ADD DUP2 SWAP1 SSTORE POP DUP4 PUSH1 0x2 DUP2 MLOAD DUP2 LT PUSH3 0x1B9 JUMPI PUSH32 0x4E487B7100000000000000000000000000000000000000000000000000000000 PUSH1 0x0 MSTORE PUSH1 0x32 PUSH1 0x4 MSTORE PUSH1 0x24 PUSH1 0x0 REVERT JUMPDEST PUSH1 0x20 MUL PUSH1 0x20 ADD ADD MLOAD PUSH1 0x11 PUSH1 0x6 ADD DUP2 SWAP1 SSTORE POP DUP4 PUSH1 0x3 DUP2 MLOAD DUP2 LT PUSH3 0x205 JUMPI PUSH32 0x4E487B7100000000000000000000000000000000000000000000000000000000 PUSH1 0x0 MSTORE PUSH1 0x32 PUSH1 0x4 MSTORE PUSH1 0x24 PUSH1 0x0 REVERT JUMPDEST PUSH1 0x20 MUL PUSH1 0x20 ADD ADD MLOAD PUSH1 0x11 PUSH1 0x7 ADD DUP2 SWAP1 SSTORE POP DUP4 PUSH1 0x4 DUP2 MLOAD DUP2 LT PUSH3 0x251 JUMPI PUSH32 0x4E487B7100000000000000000000000000000000000000000000000000000000 PUSH1 0x0 MSTORE PUSH1 0x32 PUSH1 0x4 MSTORE PUSH1 0x24 PUSH1 0x0 REVERT JUMPDEST PUSH1 0x20 MUL PUSH1 0x20 ADD ADD MLOAD PUSH1 0x11 PUSH1 0x8 ADD DUP2 SWAP1 SSTORE POP DUP4 PUSH1 0x5 DUP2 MLOAD DUP2 LT PUSH3 0x29D JUMPI PUSH32 0x4E487B7100000000000000000000000000000000000000000000000000000000 PUSH1 0x0 MSTORE PUSH1 0x32 PUSH1 0x4 MSTORE PUSH1 0x24 PUSH1 0x0 REVERT JUMPDEST PUSH1 0x20 MUL PUSH1 0x20 ADD ADD MLOAD PUSH1 0x11 PUSH1 0x9 ADD DUP2 SWAP1 SSTORE POP DUP4 PUSH1 0x6 DUP2 MLOAD DUP2 LT PUSH3 0x2E9 JUMPI PUSH32 0x4E487B7100000000000000000000000000000000000000000000000000000000 PUSH1 0x0 MSTORE PUSH1 0x32 PUSH1 0x4 MSTORE PUSH1 0x24 PUSH1 0x0 REVERT JUMPDEST PUSH1 0x20 MUL PUSH1 0x20 ADD ADD MLOAD PUSH1 0x11 PUSH1 0xA ADD DUP2 SWAP1 SSTORE POP PUSH1 0x2 DUP6 MLOAD EQ PUSH3 0x341 JUMPI PUSH1 0x40 MLOAD PUSH32 0x8C379A000000000000000000000000000000000000000000000000000000000 DUP2 MSTORE PUSH1 0x4 ADD PUSH3 0x338 SWAP1 PUSH3 0x10B8 JUMP JUMPDEST PUSH1 0x40 MLOAD DUP1 SWAP2 SUB SWAP1 REVERT JUMPDEST DUP5 PUSH1 0x0 DUP2 MLOAD DUP2 LT PUSH3 0x37C JUMPI PUSH32 0x4E487B7100000000000000000000000000000000000000000000000000000000 PUSH1 0x0 MSTORE PUSH1 0x32 PUSH1 0x4 MSTORE PUSH1 0x24 PUSH1 0x0 REVERT JUMPDEST PUSH1 0x20 MUL PUSH1 0x20 ADD ADD MLOAD PUSH1 0xA PUSH1 0x0 ADD PUSH1 0x0 PUSH2 0x100 EXP DUP2 SLOAD DUP2 PUSH2 0xFFFF MUL NOT AND SWAP1 DUP4 PUSH2 0xFFFF AND MUL OR SWAP1 SSTORE POP DUP5 PUSH1 0x1 DUP2 MLOAD DUP2 LT PUSH3 0x3DE JUMPI PUSH32 0x4E487B7100000000000000000000000000000000000000000000000000000000 PUSH1 0x0 MSTORE PUSH1 0x32 PUSH1 0x4 MSTORE PUSH1 0x24 PUSH1 0x0 REVERT JUMPDEST PUSH1 0x20 MUL PUSH1 0x20 ADD ADD MLOAD PUSH1 0xA PUSH1 0x0 ADD PUSH1 0x2 PUSH2 0x100 EXP DUP2 SLOAD DUP2 PUSH2 0xFFFF MUL NOT AND SWAP1 DUP4 PUSH2 0xFFFF AND MUL OR SWAP1 SSTORE POP PUSH1 0x3 DUP7 MLOAD EQ PUSH3 0x44C JUMPI PUSH1 0x40 MLOAD PUSH32 0x8C379A000000000000000000000000000000000000000000000000000000000 DUP2 MSTORE PUSH1 0x4 ADD PUSH3 0x443 SWAP1 PUSH3 0x111E JUMP JUMPDEST PUSH1 0x40 MLOAD DUP1 SWAP2 SUB SWAP1 REVERT JUMPDEST DUP6 PUSH1 0x1 DUP2 MLOAD DUP2 LT PUSH3 0x487 JUMPI PUSH32 0x4E487B7100000000000000000000000000000000000000000000000000000000 PUSH1 0x0 MSTORE PUSH1 0x32 PUSH1 0x4 MSTORE PUSH1 0x24 PUSH1 0x0 REVERT JUMPDEST PUSH1 0x20 MUL PUSH1 0x20 ADD ADD MLOAD DUP7 PUSH1 0x0 DUP2 MLOAD DUP2 LT PUSH3 0x4CA JUMPI PUSH32 0x4E487B7100000000000000000000000000000000000000000000000000000000 PUSH1 0x0 MSTORE PUSH1 0x32 PUSH1 0x4 MSTORE PUSH1 0x24 PUSH1 0x0 REVERT JUMPDEST PUSH1 0x20 MUL PUSH1 0x20 ADD ADD MLOAD LT PUSH3 0x515 JUMPI PUSH1 0x40 MLOAD PUSH32 0x8C379A000000000000000000000000000000000000000000000000000000000 DUP2 MSTORE PUSH1 0x4 ADD PUSH3 0x50C SWAP1 PUSH3 0x10FC JUMP JUMPDEST PUSH1 0x40 MLOAD DUP1 SWAP2 SUB SWAP1 REVERT JUMPDEST DUP6 PUSH1 0x0 DUP2 MLOAD DUP2 LT PUSH3 0x550 JUMPI PUSH32 0x4E487B7100000000000000000000000000000000000000000000000000000000 PUSH1 0x0 MSTORE PUSH1 0x32 PUSH1 0x4 MSTORE PUSH1 0x24 PUSH1 0x0 REVERT JUMPDEST PUSH1 0x20 MUL PUSH1 0x20 ADD ADD MLOAD PUSH1 0xA PUSH1 0x2 ADD DUP2 SWAP1 SSTORE POP DUP6 PUSH1 0x1 DUP2 MLOAD DUP2 LT PUSH3 0x59C JUMPI PUSH32 0x4E487B7100000000000000000000000000000000000000000000000000000000 PUSH1 0x0 MSTORE PUSH1 0x32 PUSH1 0x4 MSTORE PUSH1 0x24 PUSH1 0x0 REVERT JUMPDEST PUSH1 0x20 MUL PUSH1 0x20 ADD ADD MLOAD PUSH1 0xA PUSH1 0x3 ADD DUP2 SWAP1 SSTORE POP DUP6 PUSH1 0x2 DUP2 MLOAD DUP2 LT PUSH3 0x5E8 JUMPI PUSH32 0x4E487B7100000000000000000000000000000000000000000000000000000000 PUSH1 0x0 MSTORE PUSH1 0x32 PUSH1 0x4 MSTORE PUSH1 0x24 PUSH1 0x0 REVERT JUMPDEST PUSH1 0x20 MUL PUSH1 0x20 ADD ADD MLOAD PUSH1 0xA PUSH1 0x4 ADD DUP2 SWAP1 SSTORE POP DUP7 PUSH1 0xA PUSH1 0x5 ADD SWAP1 DUP1 MLOAD SWAP1 PUSH1 0x20 ADD SWAP1 PUSH3 0x614 SWAP3 SWAP2 SWAP1 PUSH3 0xABC JUMP JUMPDEST POP PUSH1 0x2 DUP9 MLOAD EQ PUSH3 0x65C JUMPI PUSH1 0x40 MLOAD PUSH32 0x8C379A000000000000000000000000000000000000000000000000000000000 DUP2 MSTORE PUSH1 0x4 ADD PUSH3 0x653 SWAP1 PUSH3 0x10DA JUMP JUMPDEST PUSH1 0x40 MLOAD DUP1 SWAP2 SUB SWAP1 REVERT JUMPDEST DUP8 PUSH1 0x1 DUP2 MLOAD DUP2 LT PUSH3 0x697 JUMPI PUSH32 0x4E487B7100000000000000000000000000000000000000000000000000000000 PUSH1 0x0 MSTORE PUSH1 0x32 PUSH1 0x4 MSTORE PUSH1 0x24 PUSH1 0x0 REVERT JUMPDEST PUSH1 0x20 MUL PUSH1 0x20 ADD ADD MLOAD PUSH1 0x11 PUSH1 0x3 ADD DUP2 SWAP1 SSTORE POP DUP8 PUSH1 0x0 DUP2 MLOAD DUP2 LT PUSH3 0x6E3 JUMPI PUSH32 0x4E487B7100000000000000000000000000000000000000000000000000000000 PUSH1 0x0 MSTORE PUSH1 0x32 PUSH1 0x4 MSTORE PUSH1 0x24 PUSH1 0x0 REVERT JUMPDEST PUSH1 0x20 MUL PUSH1 0x20 ADD ADD MLOAD PUSH1 0xA PUSH1 0x1 ADD DUP2 SWAP1 SSTORE POP DUP7 MLOAD DUP10 MLOAD EQ PUSH3 0x703 JUMPI PUSH1 0x0 DUP1 REVERT JUMPDEST DUP7 MLOAD DUP11 MLOAD EQ PUSH3 0x712 JUMPI PUSH1 0x0 DUP1 REVERT JUMPDEST PUSH1 0x0 JUMPDEST DUP8 MLOAD DUP2 LT ISZERO PUSH3 0x96D JUMPI PUSH1 0x1 PUSH1 0x4 PUSH1 0x0 DUP11 DUP5 DUP2 MLOAD DUP2 LT PUSH3 0x75F JUMPI PUSH32 0x4E487B7100000000000000000000000000000000000000000000000000000000 PUSH1 0x0 MSTORE PUSH1 0x32 PUSH1 0x4 MSTORE PUSH1 0x24 PUSH1 0x0 REVERT JUMPDEST PUSH1 0x20 MUL PUSH1 0x20 ADD ADD MLOAD DUP2 MSTORE PUSH1 0x20 ADD SWAP1 DUP2 MSTORE PUSH1 0x20 ADD PUSH1 0x0 KECCAK256 PUSH1 0x0 PUSH2 0x100 EXP DUP2 SLOAD DUP2 PUSH1 0xFF MUL NOT AND SWAP1 DUP4 ISZERO ISZERO MUL OR SWAP1 SSTORE POP PUSH3 0x3F480 TIMESTAMP PUSH3 0x79D SWAP2 SWAP1 PUSH3 0x1280 JUMP JUMPDEST DUP11 DUP3 DUP2 MLOAD DUP2 LT PUSH3 0x7D7 JUMPI PUSH32 0x4E487B7100000000000000000000000000000000000000000000000000000000 PUSH1 0x0 MSTORE PUSH1 0x32 PUSH1 0x4 MSTORE PUSH1 0x24 PUSH1 0x0 REVERT JUMPDEST PUSH1 0x20 MUL PUSH1 0x20 ADD ADD MLOAD LT ISZERO PUSH3 0x823 JUMPI PUSH1 0x40 MLOAD PUSH32 0x8C379A000000000000000000000000000000000000000000000000000000000 DUP2 MSTORE PUSH1 0x4 ADD PUSH3 0x81A SWAP1 PUSH3 0x1096 JUMP JUMPDEST PUSH1 0x40 MLOAD DUP1 SWAP2 SUB SWAP1 REVERT JUMPDEST DUP10 DUP2 DUP2 MLOAD DUP2 LT PUSH3 0x85D JUMPI PUSH32 0x4E487B7100000000000000000000000000000000000000000000000000000000 PUSH1 0x0 MSTORE PUSH1 0x32 PUSH1 0x4 MSTORE PUSH1 0x24 PUSH1 0x0 REVERT JUMPDEST PUSH1 0x20 MUL PUSH1 0x20 ADD ADD MLOAD PUSH1 0x8 PUSH1 0x0 DUP11 DUP5 DUP2 MLOAD DUP2 LT PUSH3 0x8A3 JUMPI PUSH32 0x4E487B7100000000000000000000000000000000000000000000000000000000 PUSH1 0x0 MSTORE PUSH1 0x32 PUSH1 0x4 MSTORE PUSH1 0x24 PUSH1 0x0 REVERT JUMPDEST PUSH1 0x20 MUL PUSH1 0x20 ADD ADD MLOAD DUP2 MSTORE PUSH1 0x20 ADD SWAP1 DUP2 MSTORE PUSH1 0x20 ADD PUSH1 0x0 KECCAK256 DUP2 SWAP1 SSTORE POP DUP11 DUP2 DUP2 MLOAD DUP2 LT PUSH3 0x8F7 JUMPI PUSH32 0x4E487B7100000000000000000000000000000000000000000000000000000000 PUSH1 0x0 MSTORE PUSH1 0x32 PUSH1 0x4 MSTORE PUSH1 0x24 PUSH1 0x0 REVERT JUMPDEST PUSH1 0x20 MUL PUSH1 0x20 ADD ADD MLOAD PUSH1 0x7 PUSH1 0x0 DUP11 DUP5 DUP2 MLOAD DUP2 LT PUSH3 0x93D JUMPI PUSH32 0x4E487B7100000000000000000000000000000000000000000000000000000000 PUSH1 0x0 MSTORE PUSH1 0x32 PUSH1 0x4 MSTORE PUSH1 0x24 PUSH1 0x0 REVERT JUMPDEST PUSH1 0x20 MUL PUSH1 0x20 ADD ADD MLOAD DUP2 MSTORE PUSH1 0x20 ADD SWAP1 DUP2 MSTORE PUSH1 0x20 ADD PUSH1 0x0 KECCAK256 DUP2 SWAP1 SSTORE POP DUP1 DUP1 PUSH3 0x964 SWAP1 PUSH3 0x137F JUMP JUMPDEST SWAP2 POP POP PUSH3 0x715 JUMP JUMPDEST POP PUSH1 0xA PUSH1 0x5 ADD DUP1 SLOAD SWAP1 POP PUSH1 0xFF AND PUSH1 0xA PUSH1 0x0 ADD PUSH1 0x6 PUSH2 0x100 EXP DUP2 SLOAD DUP2 PUSH2 0xFFFF MUL NOT AND SWAP1 DUP4 PUSH2 0xFFFF AND MUL OR SWAP1 SSTORE POP PUSH1 0x0 PUSH1 0xA PUSH1 0x0 ADD PUSH1 0x4 PUSH2 0x100 EXP DUP2 SLOAD DUP2 PUSH2 0xFFFF MUL NOT AND SWAP1 DUP4 PUSH2 0xFFFF AND MUL OR SWAP1 SSTORE POP PUSH1 0xA PUSH1 0x0 ADD PUSH1 0x6 SWAP1 SLOAD SWAP1 PUSH2 0x100 EXP SWAP1 DIV PUSH2 0xFFFF AND PUSH1 0xA PUSH1 0x0 ADD PUSH1 0x2 SWAP1 SLOAD SWAP1 PUSH2 0x100 EXP SWAP1 DIV PUSH2 0xFFFF AND PUSH1 0xA PUSH1 0x0 ADD PUSH1 0x0 SWAP1 SLOAD SWAP1 PUSH2 0x100 EXP SWAP1 DIV PUSH2 0xFFFF AND PUSH3 0xA02 SWAP2 SWAP1 PUSH3 0x123D JUMP JUMPDEST PUSH3 0xA0E SWAP2 SWAP1 PUSH3 0x123D JUMP JUMPDEST PUSH2 0xFFFF AND PUSH1 0xA PUSH1 0x6 ADD DUP2 SWAP1 SSTORE POP POP POP POP POP POP POP POP POP POP POP PUSH3 0x166A JUMP JUMPDEST DUP3 DUP1 SLOAD PUSH3 0xA39 SWAP1 PUSH3 0x1313 JUMP JUMPDEST SWAP1 PUSH1 0x0 MSTORE PUSH1 0x20 PUSH1 0x0 KECCAK256 SWAP1 PUSH1 0x1F ADD PUSH1 0x20 SWAP1 DIV DUP2 ADD SWAP3 DUP3 PUSH3 0xA5D JUMPI PUSH1 0x0 DUP6 SSTORE PUSH3 0xAA9 JUMP JUMPDEST DUP3 PUSH1 0x1F LT PUSH3 0xA78 JUMPI DUP1 MLOAD PUSH1 0xFF NOT AND DUP4 DUP1 ADD OR DUP6 SSTORE PUSH3 0xAA9 JUMP JUMPDEST DUP3 DUP1 ADD PUSH1 0x1 ADD DUP6 SSTORE DUP3 ISZERO PUSH3 0xAA9 JUMPI SWAP2 DUP3 ADD JUMPDEST DUP3 DUP2 GT ISZERO PUSH3 0xAA8 JUMPI DUP3 MLOAD DUP3 SSTORE SWAP2 PUSH1 0x20 ADD SWAP2 SWAP1 PUSH1 0x1 ADD SWAP1 PUSH3 0xA8B JUMP JUMPDEST JUMPDEST POP SWAP1 POP PUSH3 0xAB8 SWAP2 SWAP1 PUSH3 0xB0E JUMP JUMPDEST POP SWAP1 JUMP JUMPDEST DUP3 DUP1 SLOAD DUP3 DUP3 SSTORE SWAP1 PUSH1 0x0 MSTORE PUSH1 0x20 PUSH1 0x0 KECCAK256 SWAP1 DUP2 ADD SWAP3 DUP3 ISZERO PUSH3 0xAFB JUMPI SWAP2 PUSH1 0x20 MUL DUP3 ADD JUMPDEST DUP3 DUP2 GT ISZERO PUSH3 0xAFA JUMPI DUP3 MLOAD DUP3 SSTORE SWAP2 PUSH1 0x20 ADD SWAP2 SWAP1 PUSH1 0x1 ADD SWAP1 PUSH3 0xADD JUMP JUMPDEST JUMPDEST POP SWAP1 POP PUSH3 0xB0A SWAP2 SWAP1 PUSH3 0xB2D JUMP JUMPDEST POP SWAP1 JUMP JUMPDEST JUMPDEST DUP1 DUP3 GT ISZERO PUSH3 0xB29 JUMPI PUSH1 0x0 DUP2 PUSH1 0x0 SWAP1 SSTORE POP PUSH1 0x1 ADD PUSH3 0xB0F JUMP JUMPDEST POP SWAP1 JUMP JUMPDEST JUMPDEST DUP1 DUP3 GT ISZERO PUSH3 0xB48 JUMPI PUSH1 0x0 DUP2 PUSH1 0x0 SWAP1 SSTORE POP PUSH1 0x1 ADD PUSH3 0xB2E JUMP JUMPDEST POP SWAP1 JUMP JUMPDEST PUSH1 0x0 PUSH3 0xB63 PUSH3 0xB5D DUP5 PUSH3 0x1169 JUMP JUMPDEST PUSH3 0x1140 JUMP JUMPDEST SWAP1 POP DUP1 DUP4 DUP3 MSTORE PUSH1 0x20 DUP3 ADD SWAP1 POP DUP3 DUP6 PUSH1 0x20 DUP7 MUL DUP3 ADD GT ISZERO PUSH3 0xB83 JUMPI PUSH1 0x0 DUP1 REVERT JUMPDEST PUSH1 0x0 JUMPDEST DUP6 DUP2 LT ISZERO PUSH3 0xBB7 JUMPI DUP2 PUSH3 0xB9C DUP9 DUP3 PUSH3 0xD77 JUMP JUMPDEST DUP5 MSTORE PUSH1 0x20 DUP5 ADD SWAP4 POP PUSH1 0x20 DUP4 ADD SWAP3 POP POP PUSH1 0x1 DUP2 ADD SWAP1 POP PUSH3 0xB86 JUMP JUMPDEST POP POP POP SWAP4 SWAP3 POP POP POP JUMP JUMPDEST PUSH1 0x0 PUSH3 0xBD8 PUSH3 0xBD2 DUP5 PUSH3 0x1198 JUMP JUMPDEST PUSH3 0x1140 JUMP JUMPDEST SWAP1 POP DUP1 DUP4 DUP3 MSTORE PUSH1 0x20 DUP3 ADD SWAP1 POP DUP3 DUP6 PUSH1 0x20 DUP7 MUL DUP3 ADD GT ISZERO PUSH3 0xBF8 JUMPI PUSH1 0x0 DUP1 REVERT JUMPDEST PUSH1 0x0 JUMPDEST DUP6 DUP2 LT ISZERO PUSH3 0xC2C JUMPI DUP2 PUSH3 0xC11 DUP9 DUP3 PUSH3 0xDBB JUMP JUMPDEST DUP5 MSTORE PUSH1 0x20 DUP5 ADD SWAP4 POP PUSH1 0x20 DUP4 ADD SWAP3 POP POP PUSH1 0x1 DUP2 ADD SWAP1 POP PUSH3 0xBFB JUMP JUMPDEST POP POP POP SWAP4 SWAP3 POP POP POP JUMP JUMPDEST PUSH1 0x0 PUSH3 0xC4D PUSH3 0xC47 DUP5 PUSH3 0x11C7 JUMP JUMPDEST PUSH3 0x1140 JUMP JUMPDEST SWAP1 POP DUP1 DUP4 DUP3 MSTORE PUSH1 0x20 DUP3 ADD SWAP1 POP DUP3 DUP6 PUSH1 0x20 DUP7 MUL DUP3 ADD GT ISZERO PUSH3 0xC6D JUMPI PUSH1 0x0 DUP1 REVERT JUMPDEST PUSH1 0x0 JUMPDEST DUP6 DUP2 LT ISZERO PUSH3 0xCA1 JUMPI DUP2 PUSH3 0xC86 DUP9 DUP3 PUSH3 0xDD2 JUMP JUMPDEST DUP5 MSTORE PUSH1 0x20 DUP5 ADD SWAP4 POP PUSH1 0x20 DUP4 ADD SWAP3 POP POP PUSH1 0x1 DUP2 ADD SWAP1 POP PUSH3 0xC70 JUMP JUMPDEST POP POP POP SWAP4 SWAP3 POP POP POP JUMP JUMPDEST PUSH1 0x0 PUSH3 0xCC2 PUSH3 0xCBC DUP5 PUSH3 0x11F6 JUMP JUMPDEST PUSH3 0x1140 JUMP JUMPDEST SWAP1 POP DUP3 DUP2 MSTORE PUSH1 0x20 DUP2 ADD DUP5 DUP5 DUP5 ADD GT ISZERO PUSH3 0xCDB JUMPI PUSH1 0x0 DUP1 REVERT JUMPDEST PUSH3 0xCE8 DUP5 DUP3 DUP6 PUSH3 0x12DD JUMP JUMPDEST POP SWAP4 SWAP3 POP POP POP JUMP JUMPDEST PUSH1 0x0 DUP3 PUSH1 0x1F DUP4 ADD SLT PUSH3 0xD02 JUMPI PUSH1 0x0 DUP1 REVERT JUMPDEST DUP2 MLOAD PUSH3 0xD14 DUP5 DUP3 PUSH1 0x20 DUP7 ADD PUSH3 0xB4C JUMP JUMPDEST SWAP2 POP POP SWAP3 SWAP2 POP POP JUMP JUMPDEST PUSH1 0x0 DUP3 PUSH1 0x1F DUP4 ADD SLT PUSH3 0xD2F JUMPI PUSH1 0x0 DUP1 REVERT JUMPDEST DUP2 MLOAD PUSH3 0xD41 DUP5 DUP3 PUSH1 0x20 DUP7 ADD PUSH3 0xBC1 JUMP JUMPDEST SWAP2 POP POP SWAP3 SWAP2 POP POP JUMP JUMPDEST PUSH1 0x0 DUP3 PUSH1 0x1F DUP4 ADD SLT PUSH3 0xD5C JUMPI PUSH1 0x0 DUP1 REVERT JUMPDEST DUP2 MLOAD PUSH3 0xD6E DUP5 DUP3 PUSH1 0x20 DUP7 ADD PUSH3 0xC36 JUMP JUMPDEST SWAP2 POP POP SWAP3 SWAP2 POP POP JUMP JUMPDEST PUSH1 0x0 DUP2 MLOAD SWAP1 POP PUSH3 0xD88 DUP2 PUSH3 0x161C JUMP JUMPDEST SWAP3 SWAP2 POP POP JUMP JUMPDEST PUSH1 0x0 DUP3 PUSH1 0x1F DUP4 ADD SLT PUSH3 0xDA0 JUMPI PUSH1 0x0 DUP1 REVERT JUMPDEST DUP2 MLOAD PUSH3 0xDB2 DUP5 DUP3 PUSH1 0x20 DUP7 ADD PUSH3 0xCAB JUMP JUMPDEST SWAP2 POP POP SWAP3 SWAP2 POP POP JUMP JUMPDEST PUSH1 0x0 DUP2 MLOAD SWAP1 POP PUSH3 0xDCC DUP2 PUSH3 0x1636 JUMP JUMPDEST SWAP3 SWAP2 POP POP JUMP JUMPDEST PUSH1 0x0 DUP2 MLOAD SWAP1 POP PUSH3 0xDE3 DUP2 PUSH3 0x1650 JUMP JUMPDEST SWAP3 SWAP2 POP POP JUMP JUMPDEST PUSH1 0x0 DUP1 PUSH1 0x0 DUP1 PUSH1 0x0 DUP1 PUSH1 0x0 DUP1 PUSH1 0x0 DUP1 PUSH2 0x140 DUP12 DUP14 SUB SLT ISZERO PUSH3 0xE0A JUMPI PUSH1 0x0 DUP1 REVERT JUMPDEST PUSH1 0x0 DUP12 ADD MLOAD PUSH8 0xFFFFFFFFFFFFFFFF DUP2 GT ISZERO PUSH3 0xE25 JUMPI PUSH1 0x0 DUP1 REVERT JUMPDEST PUSH3 0xE33 DUP14 DUP3 DUP15 ADD PUSH3 0xCF0 JUMP JUMPDEST SWAP11 POP POP PUSH1 0x20 DUP12 ADD MLOAD PUSH8 0xFFFFFFFFFFFFFFFF DUP2 GT ISZERO PUSH3 0xE51 JUMPI PUSH1 0x0 DUP1 REVERT JUMPDEST PUSH3 0xE5F DUP14 DUP3 DUP15 ADD PUSH3 0xD4A JUMP JUMPDEST SWAP10 POP POP PUSH1 0x40 DUP12 ADD MLOAD PUSH8 0xFFFFFFFFFFFFFFFF DUP2 GT ISZERO PUSH3 0xE7D JUMPI PUSH1 0x0 DUP1 REVERT JUMPDEST PUSH3 0xE8B DUP14 DUP3 DUP15 ADD PUSH3 0xCF0 JUMP JUMPDEST SWAP9 POP POP PUSH1 0x60 DUP12 ADD MLOAD PUSH8 0xFFFFFFFFFFFFFFFF DUP2 GT ISZERO PUSH3 0xEA9 JUMPI PUSH1 0x0 DUP1 REVERT JUMPDEST PUSH3 0xEB7 DUP14 DUP3 DUP15 ADD PUSH3 0xCF0 JUMP JUMPDEST SWAP8 POP POP PUSH1 0x80 DUP12 ADD MLOAD PUSH8 0xFFFFFFFFFFFFFFFF DUP2 GT ISZERO PUSH3 0xED5 JUMPI PUSH1 0x0 DUP1 REVERT JUMPDEST PUSH3 0xEE3 DUP14 DUP3 DUP15 ADD PUSH3 0xD4A JUMP JUMPDEST SWAP7 POP POP PUSH1 0xA0 DUP12 ADD MLOAD PUSH8 0xFFFFFFFFFFFFFFFF DUP2 GT ISZERO PUSH3 0xF01 JUMPI PUSH1 0x0 DUP1 REVERT JUMPDEST PUSH3 0xF0F DUP14 DUP3 DUP15 ADD PUSH3 0xD1D JUMP JUMPDEST SWAP6 POP POP PUSH1 0xC0 DUP12 ADD MLOAD PUSH8 0xFFFFFFFFFFFFFFFF DUP2 GT ISZERO PUSH3 0xF2D JUMPI PUSH1 0x0 DUP1 REVERT JUMPDEST PUSH3 0xF3B DUP14 DUP3 DUP15 ADD PUSH3 0xCF0 JUMP JUMPDEST SWAP5 POP POP PUSH1 0xE0 DUP12 ADD MLOAD PUSH8 0xFFFFFFFFFFFFFFFF DUP2 GT ISZERO PUSH3 0xF59 JUMPI PUSH1 0x0 DUP1 REVERT JUMPDEST PUSH3 0xF67 DUP14 DUP3 DUP15 ADD PUSH3 0xD8E JUMP JUMPDEST SWAP4 POP POP PUSH2 0x100 DUP12 ADD MLOAD PUSH8 0xFFFFFFFFFFFFFFFF DUP2 GT ISZERO PUSH3 0xF86 JUMPI PUSH1 0x0 DUP1 REVERT JUMPDEST PUSH3 0xF94 DUP14 DUP3 DUP15 ADD PUSH3 0xD8E JUMP JUMPDEST SWAP3 POP POP PUSH2 0x120 DUP12 ADD MLOAD PUSH8 0xFFFFFFFFFFFFFFFF DUP2 GT ISZERO PUSH3 0xFB3 JUMPI PUSH1 0x0 DUP1 REVERT JUMPDEST PUSH3 0xFC1 DUP14 DUP3 DUP15 ADD PUSH3 0xD8E JUMP JUMPDEST SWAP2 POP POP SWAP3 SWAP6 SWAP9 SWAP12 SWAP2 SWAP5 SWAP8 SWAP11 POP SWAP3 SWAP6 SWAP9 POP JUMP JUMPDEST PUSH1 0x0 PUSH3 0xFE2 PUSH1 0x39 DUP4 PUSH3 0x122C JUMP JUMPDEST SWAP2 POP PUSH3 0xFEF DUP3 PUSH3 0x146B JUMP JUMPDEST PUSH1 0x40 DUP3 ADD SWAP1 POP SWAP2 SWAP1 POP JUMP JUMPDEST PUSH1 0x0 PUSH3 0x1009 PUSH1 0x4A DUP4 PUSH3 0x122C JUMP JUMPDEST SWAP2 POP PUSH3 0x1016 DUP3 PUSH3 0x14BA JUMP JUMPDEST PUSH1 0x60 DUP3 ADD SWAP1 POP SWAP2 SWAP1 POP JUMP JUMPDEST PUSH1 0x0 PUSH3 0x1030 PUSH1 0x24 DUP4 PUSH3 0x122C JUMP JUMPDEST SWAP2 POP PUSH3 0x103D DUP3 PUSH3 0x152F JUMP JUMPDEST PUSH1 0x40 DUP3 ADD SWAP1 POP SWAP2 SWAP1 POP JUMP JUMPDEST PUSH1 0x0 PUSH3 0x1057 PUSH1 0x30 DUP4 PUSH3 0x122C JUMP JUMPDEST SWAP2 POP PUSH3 0x1064 DUP3 PUSH3 0x157E JUMP JUMPDEST PUSH1 0x40 DUP3 ADD SWAP1 POP SWAP2 SWAP1 POP JUMP JUMPDEST PUSH1 0x0 PUSH3 0x107E PUSH1 0x40 DUP4 PUSH3 0x122C JUMP JUMPDEST SWAP2 POP PUSH3 0x108B DUP3 PUSH3 0x15CD JUMP JUMPDEST PUSH1 0x40 DUP3 ADD SWAP1 POP SWAP2 SWAP1 POP JUMP JUMPDEST PUSH1 0x0 PUSH1 0x20 DUP3 ADD SWAP1 POP DUP2 DUP2 SUB PUSH1 0x0 DUP4 ADD MSTORE PUSH3 0x10B1 DUP2 PUSH3 0xFD3 JUMP JUMPDEST SWAP1 POP SWAP2 SWAP1 POP JUMP JUMPDEST PUSH1 0x0 PUSH1 0x20 DUP3 ADD SWAP1 POP DUP2 DUP2 SUB PUSH1 0x0 DUP4 ADD MSTORE PUSH3 0x10D3 DUP2 PUSH3 0xFFA JUMP JUMPDEST SWAP1 POP SWAP2 SWAP1 POP JUMP JUMPDEST PUSH1 0x0 PUSH1 0x20 DUP3 ADD SWAP1 POP DUP2 DUP2 SUB PUSH1 0x0 DUP4 ADD MSTORE PUSH3 0x10F5 DUP2 PUSH3 0x1021 JUMP JUMPDEST SWAP1 POP SWAP2 SWAP1 POP JUMP JUMPDEST PUSH1 0x0 PUSH1 0x20 DUP3 ADD SWAP1 POP DUP2 DUP2 SUB PUSH1 0x0 DUP4 ADD MSTORE PUSH3 0x1117 DUP2 PUSH3 0x1048 JUMP JUMPDEST SWAP1 POP SWAP2 SWAP1 POP JUMP JUMPDEST PUSH1 0x0 PUSH1 0x20 DUP3 ADD SWAP1 POP DUP2 DUP2 SUB PUSH1 0x0 DUP4 ADD MSTORE PUSH3 0x1139 DUP2 PUSH3 0x106F JUMP JUMPDEST SWAP1 POP SWAP2 SWAP1 POP JUMP JUMPDEST PUSH1 0x0 PUSH3 0x114C PUSH3 0x115F JUMP JUMPDEST SWAP1 POP PUSH3 0x115A DUP3 DUP3 PUSH3 0x1349 JUMP JUMPDEST SWAP2 SWAP1 POP JUMP JUMPDEST PUSH1 0x0 PUSH1 0x40 MLOAD SWAP1 POP SWAP1 JUMP JUMPDEST PUSH1 0x0 PUSH8 0xFFFFFFFFFFFFFFFF DUP3 GT ISZERO PUSH3 0x1187 JUMPI PUSH3 0x1186 PUSH3 0x142B JUMP JUMPDEST JUMPDEST PUSH1 0x20 DUP3 MUL SWAP1 POP PUSH1 0x20 DUP2 ADD SWAP1 POP SWAP2 SWAP1 POP JUMP JUMPDEST PUSH1 0x0 PUSH8 0xFFFFFFFFFFFFFFFF DUP3 GT ISZERO PUSH3 0x11B6 JUMPI PUSH3 0x11B5 PUSH3 0x142B JUMP JUMPDEST JUMPDEST PUSH1 0x20 DUP3 MUL SWAP1 POP PUSH1 0x20 DUP2 ADD SWAP1 POP SWAP2 SWAP1 POP JUMP JUMPDEST PUSH1 0x0 PUSH8 0xFFFFFFFFFFFFFFFF DUP3 GT ISZERO PUSH3 0x11E5 JUMPI PUSH3 0x11E4 PUSH3 0x142B JUMP JUMPDEST JUMPDEST PUSH1 0x20 DUP3 MUL SWAP1 POP PUSH1 0x20 DUP2 ADD SWAP1 POP SWAP2 SWAP1 POP JUMP JUMPDEST PUSH1 0x0 PUSH8 0xFFFFFFFFFFFFFFFF DUP3 GT ISZERO PUSH3 0x1214 JUMPI PUSH3 0x1213 PUSH3 0x142B JUMP JUMPDEST JUMPDEST PUSH3 0x121F DUP3 PUSH3 0x145A JUMP JUMPDEST SWAP1 POP PUSH1 0x20 DUP2 ADD SWAP1 POP SWAP2 SWAP1 POP JUMP JUMPDEST PUSH1 0x0 DUP3 DUP3 MSTORE PUSH1 0x20 DUP3 ADD SWAP1 POP SWAP3 SWAP2 POP POP JUMP JUMPDEST PUSH1 0x0 PUSH3 0x124A DUP3 PUSH3 0x12C5 JUMP JUMPDEST SWAP2 POP PUSH3 0x1257 DUP4 PUSH3 0x12C5 JUMP JUMPDEST SWAP3 POP DUP2 PUSH2 0xFFFF DIV DUP4 GT DUP3 ISZERO ISZERO AND ISZERO PUSH3 0x1275 JUMPI PUSH3 0x1274 PUSH3 0x13CD JUMP JUMPDEST JUMPDEST DUP3 DUP3 MUL SWAP1 POP SWAP3 SWAP2 POP POP JUMP JUMPDEST PUSH1 0x0 PUSH3 0x128D DUP3 PUSH3 0x12D3 JUMP JUMPDEST SWAP2 POP PUSH3 0x129A DUP4 PUSH3 0x12D3 JUMP JUMPDEST SWAP3 POP DUP3 DUP3 LT ISZERO PUSH3 0x12B0 JUMPI PUSH3 0x12AF PUSH3 0x13CD JUMP JUMPDEST JUMPDEST DUP3 DUP3 SUB SWAP1 POP SWAP3 SWAP2 POP POP JUMP JUMPDEST PUSH1 0x0 DUP2 SWAP1 POP SWAP2 SWAP1 POP JUMP JUMPDEST PUSH1 0x0 PUSH2 0xFFFF DUP3 AND SWAP1 POP SWAP2 SWAP1 POP JUMP JUMPDEST PUSH1 0x0 DUP2 SWAP1 POP SWAP2 SWAP1 POP JUMP JUMPDEST PUSH1 0x0 JUMPDEST DUP4 DUP2 LT ISZERO PUSH3 0x12FD JUMPI DUP1 DUP3 ADD MLOAD DUP2 DUP5 ADD MSTORE PUSH1 0x20 DUP2 ADD SWAP1 POP PUSH3 0x12E0 JUMP JUMPDEST DUP4 DUP2 GT ISZERO PUSH3 0x130D JUMPI PUSH1 0x0 DUP5 DUP5 ADD MSTORE JUMPDEST POP POP POP POP JUMP JUMPDEST PUSH1 0x0 PUSH1 0x2 DUP3 DIV SWAP1 POP PUSH1 0x1 DUP3 AND DUP1 PUSH3 0x132C JUMPI PUSH1 0x7F DUP3 AND SWAP2 POP JUMPDEST PUSH1 0x20 DUP3 LT DUP2 EQ ISZERO PUSH3 0x1343 JUMPI PUSH3 0x1342 PUSH3 0x13FC JUMP JUMPDEST JUMPDEST POP SWAP2 SWAP1 POP JUMP JUMPDEST PUSH3 0x1354 DUP3 PUSH3 0x145A JUMP JUMPDEST DUP2 ADD DUP2 DUP2 LT PUSH8 0xFFFFFFFFFFFFFFFF DUP3 GT OR ISZERO PUSH3 0x1376 JUMPI PUSH3 0x1375 PUSH3 0x142B JUMP JUMPDEST JUMPDEST DUP1 PUSH1 0x40 MSTORE POP POP POP JUMP JUMPDEST PUSH1 0x0 PUSH3 0x138C DUP3 PUSH3 0x12D3 JUMP JUMPDEST SWAP2 POP PUSH32 0xFFFFFFFFFFFFFFFFFFFFFFFFFFFFFFFFFFFFFFFFFFFFFFFFFFFFFFFFFFFFFFFF DUP3 EQ ISZERO PUSH3 0x13C2 JUMPI PUSH3 0x13C1 PUSH3 0x13CD JUMP JUMPDEST JUMPDEST PUSH1 0x1 DUP3 ADD SWAP1 POP SWAP2 SWAP1 POP JUMP JUMPDEST PUSH32 0x4E487B7100000000000000000000000000000000000000000000000000000000 PUSH1 0x0 MSTORE PUSH1 0x11 PUSH1 0x4 MSTORE PUSH1 0x24 PUSH1 0x0 REVERT JUMPDEST PUSH32 0x4E487B7100000000000000000000000000000000000000000000000000000000 PUSH1 0x0 MSTORE PUSH1 0x22 PUSH1 0x4 MSTORE PUSH1 0x24 PUSH1 0x0 REVERT JUMPDEST PUSH32 0x4E487B7100000000000000000000000000000000000000000000000000000000 PUSH1 0x0 MSTORE PUSH1 0x41 PUSH1 0x4 MSTORE PUSH1 0x24 PUSH1 0x0 REVERT JUMPDEST PUSH1 0x0 PUSH1 0x1F NOT PUSH1 0x1F DUP4 ADD AND SWAP1 POP SWAP2 SWAP1 POP JUMP JUMPDEST PUSH32 0x436865636B20746861742070726576696F75732050435220686173206265656E PUSH1 0x0 DUP3 ADD MSTORE PUSH32 0x206E6F206D6F7265207468616E203320646179732061676F2E00000000000000 PUSH1 0x20 DUP3 ADD MSTORE POP JUMP JUMPDEST PUSH32 0x596F75206861766520746F2070726F766964652074686520616D6F756E74206F PUSH1 0x0 DUP3 ADD MSTORE PUSH32 0x662064617920636F6D70656E736174696F6E20616E6420746865206E756D6265 PUSH1 0x20 DUP3 ADD MSTORE PUSH32 0x72206F6620646179732E00000000000000000000000000000000000000000000 PUSH1 0x40 DUP3 ADD MSTORE POP JUMP JUMPDEST PUSH32 0x4D7573742070726F7669646520506F6C69637920494420616E642054616B6572 PUSH1 0x0 DUP3 ADD MSTORE PUSH32 0x2049442E00000000000000000000000000000000000000000000000000000000 PUSH1 0x20 DUP3 ADD MSTORE POP JUMP JUMPDEST PUSH32 0x54686520737461727420646174652068617320746F206265206265666F726520 PUSH1 0x0 DUP3 ADD MSTORE PUSH32 0x7468652066696E69736820646174652E00000000000000000000000000000000 PUSH1 0x20 DUP3 ADD MSTORE POP JUMP JUMPDEST PUSH32 0x54686520506F6C696379206E656564206120737461727420646174652C206120 PUSH1 0x0 DUP3 ADD MSTORE PUSH32 0x66696E697368206461746520616E64206120636F6E747261637420646174652E PUSH1 0x20 DUP3 ADD MSTORE POP JUMP JUMPDEST PUSH3 0x1627 DUP2 PUSH3 0x12BB JUMP JUMPDEST DUP2 EQ PUSH3 0x1633 JUMPI PUSH1 0x0 DUP1 REVERT JUMPDEST POP JUMP JUMPDEST PUSH3 0x1641 DUP2 PUSH3 0x12C5 JUMP JUMPDEST DUP2 EQ PUSH3 0x164D JUMPI PUSH1 0x0 DUP1 REVERT JUMPDEST POP JUMP JUMPDEST PUSH3 0x165B DUP2 PUSH3 0x12D3 JUMP JUMPDEST DUP2 EQ PUSH3 0x1667 JUMPI PUSH1 0x0 DUP1 REVERT JUMPDEST POP JUMP JUMPDEST PUSH2 0x25BB DUP1 PUSH3 0x167A PUSH1 0x0 CODECOPY PUSH1 0x0 RETURN INVALID PUSH1 0x80 PUSH1 0x40 MSTORE CALLVALUE DUP1 ISZERO PUSH2 0x10 JUMPI PUSH1 0x0 DUP1 REVERT JUMPDEST POP PUSH1 0x4 CALLDATASIZE LT PUSH2 0xB4 JUMPI PUSH1 0x0 CALLDATALOAD PUSH1 0xE0 SHR DUP1 PUSH4 0x5D1CA631 GT PUSH2 0x71 JUMPI DUP1 PUSH4 0x5D1CA631 EQ PUSH2 0x16B JUMPI DUP1 PUSH4 0x62A681B3 EQ PUSH2 0x189 JUMPI DUP1 PUSH4 0x92ED93D0 EQ PUSH2 0x1B9 JUMPI DUP1 PUSH4 0x9499E018 EQ PUSH2 0x1DD JUMPI DUP1 PUSH4 0xE0CAF0BD EQ PUSH2 0x1E7 JUMPI DUP1 PUSH4 0xFC1C7A70 EQ PUSH2 0x20F JUMPI PUSH2 0xB4 JUMP JUMPDEST DUP1 PUSH4 0x169E68C3 EQ PUSH2 0xB9 JUMPI DUP1 PUSH4 0x2357AEF3 EQ PUSH2 0xEE JUMPI DUP1 PUSH4 0x236F45D9 EQ PUSH2 0x10A JUMPI DUP1 PUSH4 0x297E6306 EQ PUSH2 0x129 JUMPI DUP1 PUSH4 0x2F0519D4 EQ PUSH2 0x145 JUMPI DUP1 PUSH4 0x40D5FF58 EQ PUSH2 0x161 JUMPI JUMPDEST PUSH1 0x0 DUP1 REVERT JUMPDEST PUSH2 0xD3 PUSH1 0x4 DUP1 CALLDATASIZE SUB DUP2 ADD SWAP1 PUSH2 0xCE SWAP2 SWAP1 PUSH2 0x1B0C JUMP JUMPDEST PUSH2 0x22D JUMP JUMPDEST PUSH1 0x40 MLOAD PUSH2 0xE5 SWAP7 SWAP6 SWAP5 SWAP4 SWAP3 SWAP2 SWAP1 PUSH2 0x1EE4 JUMP JUMPDEST PUSH1 0x40 MLOAD DUP1 SWAP2 SUB SWAP1 RETURN JUMPDEST PUSH2 0x108 PUSH1 0x4 DUP1 CALLDATASIZE SUB DUP2 ADD SWAP1 PUSH2 0x103 SWAP2 SWAP1 PUSH2 0x1B35 JUMP JUMPDEST PUSH2 0x355 JUMP JUMPDEST STOP JUMPDEST PUSH2 0x112 PUSH2 0x4A8 JUMP JUMPDEST PUSH1 0x40 MLOAD PUSH2 0x120 SWAP3 SWAP2 SWAP1 PUSH2 0x1FF2 JUMP JUMPDEST PUSH1 0x40 MLOAD DUP1 SWAP2 SUB SWAP1 RETURN JUMPDEST PUSH2 0x143 PUSH1 0x4 DUP1 CALLDATASIZE SUB DUP2 ADD SWAP1 PUSH2 0x13E SWAP2 SWAP1 PUSH2 0x1AE3 JUMP JUMPDEST PUSH2 0x1124 JUMP JUMPDEST STOP JUMPDEST PUSH2 0x15F PUSH1 0x4 DUP1 CALLDATASIZE SUB DUP2 ADD SWAP1 PUSH2 0x15A SWAP2 SWAP1 PUSH2 0x1B71 JUMP JUMPDEST PUSH2 0x119C JUMP JUMPDEST STOP JUMPDEST PUSH2 0x169 PUSH2 0x1440 JUMP JUMPDEST STOP JUMPDEST PUSH2 0x173 PUSH2 0x14D6 JUMP JUMPDEST PUSH1 0x40 MLOAD PUSH2 0x180 SWAP2 SWAP1 PUSH2 0x1DE0 JUMP JUMPDEST PUSH1 0x40 MLOAD DUP1 SWAP2 SUB SWAP1 RETURN JUMPDEST PUSH2 0x1A3 PUSH1 0x4 DUP1 CALLDATASIZE SUB DUP2 ADD SWAP1 PUSH2 0x19E SWAP2 SWAP1 PUSH2 0x1B0C JUMP JUMPDEST PUSH2 0x14E3 JUMP JUMPDEST PUSH1 0x40 MLOAD PUSH2 0x1B0 SWAP2 SWAP1 PUSH2 0x1DC5 JUMP JUMPDEST PUSH1 0x40 MLOAD DUP1 SWAP2 SUB SWAP1 RETURN JUMPDEST PUSH2 0x1C1 PUSH2 0x15F3 JUMP JUMPDEST PUSH1 0x40 MLOAD PUSH2 0x1D4 SWAP8 SWAP7 SWAP6 SWAP5 SWAP4 SWAP3 SWAP2 SWAP1 PUSH2 0x1F45 JUMP JUMPDEST PUSH1 0x40 MLOAD DUP1 SWAP2 SUB SWAP1 RETURN JUMPDEST PUSH2 0x1E5 PUSH2 0x16BA JUMP JUMPDEST STOP JUMPDEST PUSH2 0x1EF PUSH2 0x174B JUMP JUMPDEST PUSH1 0x40 MLOAD PUSH2 0x206 SWAP12 SWAP11 SWAP10 SWAP9 SWAP8 SWAP7 SWAP6 SWAP5 SWAP4 SWAP3 SWAP2 SWAP1 PUSH2 0x1E24 JUMP JUMPDEST PUSH1 0x40 MLOAD DUP1 SWAP2 SUB SWAP1 RETURN JUMPDEST PUSH2 0x217 PUSH2 0x1963 JUMP JUMPDEST PUSH1 0x40 MLOAD PUSH2 0x224 SWAP2 SWAP1 PUSH2 0x1DE0 JUMP JUMPDEST PUSH1 0x40 MLOAD DUP1 SWAP2 SUB SWAP1 RETURN JUMPDEST PUSH1 0x0 DUP1 PUSH1 0x0 DUP1 PUSH1 0x0 DUP1 PUSH1 0x5 PUSH1 0x0 DUP9 DUP2 MSTORE PUSH1 0x20 ADD SWAP1 DUP2 MSTORE PUSH1 0x20 ADD PUSH1 0x0 KECCAK256 PUSH1 0x0 SWAP1 SLOAD SWAP1 PUSH2 0x100 EXP SWAP1 DIV PUSH1 0xFF AND PUSH2 0x296 JUMPI PUSH1 0x40 MLOAD PUSH32 0x8C379A000000000000000000000000000000000000000000000000000000000 DUP2 MSTORE PUSH1 0x4 ADD PUSH2 0x28D SWAP1 PUSH2 0x2082 JUMP JUMPDEST PUSH1 0x40 MLOAD DUP1 SWAP2 SUB SWAP1 REVERT JUMPDEST PUSH1 0x9 PUSH1 0x0 DUP9 DUP2 MSTORE PUSH1 0x20 ADD SWAP1 DUP2 MSTORE PUSH1 0x20 ADD PUSH1 0x0 KECCAK256 PUSH1 0x0 ADD SLOAD PUSH1 0x9 PUSH1 0x0 DUP10 DUP2 MSTORE PUSH1 0x20 ADD SWAP1 DUP2 MSTORE PUSH1 0x20 ADD PUSH1 0x0 KECCAK256 PUSH1 0x2 ADD SLOAD PUSH1 0x9 PUSH1 0x0 DUP11 DUP2 MSTORE PUSH1 0x20 ADD SWAP1 DUP2 MSTORE PUSH1 0x20 ADD PUSH1 0x0 KECCAK256 PUSH1 0x3 ADD SLOAD PUSH1 0x9 PUSH1 0x0 DUP12 DUP2 MSTORE PUSH1 0x20 ADD SWAP1 DUP2 MSTORE PUSH1 0x20 ADD PUSH1 0x0 KECCAK256 PUSH1 0x4 ADD SLOAD PUSH1 0x9 PUSH1 0x0 DUP13 DUP2 MSTORE PUSH1 0x20 ADD SWAP1 DUP2 MSTORE PUSH1 0x20 ADD PUSH1 0x0 KECCAK256 PUSH1 0x1 ADD SLOAD PUSH1 0x9 PUSH1 0x0 DUP14 DUP2 MSTORE PUSH1 0x20 ADD SWAP1 DUP2 MSTORE PUSH1 0x20 ADD PUSH1 0x0 KECCAK256 PUSH1 0x5 ADD PUSH1 0x0 SWAP1 SLOAD SWAP1 PUSH2 0x100 EXP SWAP1 DIV PUSH20 0xFFFFFFFFFFFFFFFFFFFFFFFFFFFFFFFFFFFFFFFF AND SWAP6 POP SWAP6 POP SWAP6 POP SWAP6 POP SWAP6 POP SWAP6 POP SWAP2 SWAP4 SWAP6 POP SWAP2 SWAP4 SWAP6 JUMP JUMPDEST PUSH1 0x0 PUSH32 0x504F534954495645000000000000000000000000000000000000000000000000 SWAP1 POP PUSH1 0x0 PUSH1 0x6 PUSH1 0x0 DUP6 DUP2 MSTORE PUSH1 0x20 ADD SWAP1 DUP2 MSTORE PUSH1 0x20 ADD PUSH1 0x0 KECCAK256 SLOAD SWAP1 POP PUSH1 0x5 PUSH1 0x0 DUP6 DUP2 MSTORE PUSH1 0x20 ADD SWAP1 DUP2 MSTORE PUSH1 0x20 ADD PUSH1 0x0 KECCAK256 PUSH1 0x0 SWAP1 SLOAD SWAP1 PUSH2 0x100 EXP SWAP1 DIV PUSH1 0xFF AND PUSH2 0x3F2 JUMPI PUSH1 0x40 MLOAD PUSH32 0x8C379A000000000000000000000000000000000000000000000000000000000 DUP2 MSTORE PUSH1 0x4 ADD PUSH2 0x3E9 SWAP1 PUSH2 0x2062 JUMP JUMPDEST PUSH1 0x40 MLOAD DUP1 SWAP2 SUB SWAP1 REVERT JUMPDEST DUP3 PUSH1 0x9 PUSH1 0x0 DUP7 DUP2 MSTORE PUSH1 0x20 ADD SWAP1 DUP2 MSTORE PUSH1 0x20 ADD PUSH1 0x0 KECCAK256 PUSH1 0x0 ADD DUP2 SWAP1 SSTORE POP TIMESTAMP PUSH1 0x9 PUSH1 0x0 DUP7 DUP2 MSTORE PUSH1 0x20 ADD SWAP1 DUP2 MSTORE PUSH1 0x20 ADD PUSH1 0x0 KECCAK256 PUSH1 0x4 ADD DUP2 SWAP1 SSTORE POP DUP2 DUP4 EQ ISZERO PUSH2 0x4A2 JUMPI PUSH1 0x1 PUSH1 0x1C PUSH1 0x0 PUSH2 0x100 EXP DUP2 SLOAD DUP2 PUSH1 0xFF MUL NOT AND SWAP1 DUP4 ISZERO ISZERO MUL OR SWAP1 SSTORE POP PUSH32 0x2A309DC5C17C116A56725E000ACAB6EE53F439C2185131E3A5FAF3FC183CD40 DUP2 TIMESTAMP PUSH1 0xA PUSH1 0x1 ADD SLOAD PUSH1 0x40 MLOAD PUSH2 0x483 SWAP4 SWAP3 SWAP2 SWAP1 PUSH2 0x1FBB JUMP JUMPDEST PUSH1 0x40 MLOAD DUP1 SWAP2 SUB SWAP1 LOG1 PUSH1 0xA PUSH1 0x3 ADD SLOAD TIMESTAMP LT ISZERO PUSH2 0x4A1 JUMPI PUSH2 0x4A0 PUSH2 0x1440 JUMP JUMPDEST JUMPDEST JUMPDEST POP POP POP POP JUMP JUMPDEST PUSH1 0x60 PUSH1 0x0 DUP1 PUSH2 0x543 PUSH1 0x11 PUSH1 0x0 ADD DUP1 SLOAD PUSH2 0x4C0 SWAP1 PUSH2 0x22F7 JUMP JUMPDEST DUP1 PUSH1 0x1F ADD PUSH1 0x20 DUP1 SWAP2 DIV MUL PUSH1 0x20 ADD PUSH1 0x40 MLOAD SWAP1 DUP2 ADD PUSH1 0x40 MSTORE DUP1 SWAP3 SWAP2 SWAP1 DUP2 DUP2 MSTORE PUSH1 0x20 ADD DUP3 DUP1 SLOAD PUSH2 0x4EC SWAP1 PUSH2 0x22F7 JUMP JUMPDEST DUP1 ISZERO PUSH2 0x539 JUMPI DUP1 PUSH1 0x1F LT PUSH2 0x50E JUMPI PUSH2 0x100 DUP1 DUP4 SLOAD DIV MUL DUP4 MSTORE SWAP2 PUSH1 0x20 ADD SWAP2 PUSH2 0x539 JUMP JUMPDEST DUP3 ADD SWAP2 SWAP1 PUSH1 0x0 MSTORE PUSH1 0x20 PUSH1 0x0 KECCAK256 SWAP1 JUMPDEST DUP2 SLOAD DUP2 MSTORE SWAP1 PUSH1 0x1 ADD SWAP1 PUSH1 0x20 ADD DUP1 DUP4 GT PUSH2 0x51C JUMPI DUP3 SWAP1 SUB PUSH1 0x1F AND DUP3 ADD SWAP2 JUMPDEST POP POP POP POP POP PUSH2 0x1970 JUMP JUMPDEST SWAP1 POP PUSH1 0x0 PUSH2 0x5DD PUSH1 0x11 PUSH1 0x1 ADD DUP1 SLOAD PUSH2 0x55A SWAP1 PUSH2 0x22F7 JUMP JUMPDEST DUP1 PUSH1 0x1F ADD PUSH1 0x20 DUP1 SWAP2 DIV MUL PUSH1 0x20 ADD PUSH1 0x40 MLOAD SWAP1 DUP2 ADD PUSH1 0x40 MSTORE DUP1 SWAP3 SWAP2 SWAP1 DUP2 DUP2 MSTORE PUSH1 0x20 ADD DUP3 DUP1 SLOAD PUSH2 0x586 SWAP1 PUSH2 0x22F7 JUMP JUMPDEST DUP1 ISZERO PUSH2 0x5D3 JUMPI DUP1 PUSH1 0x1F LT PUSH2 0x5A8 JUMPI PUSH2 0x100 DUP1 DUP4 SLOAD DIV MUL DUP4 MSTORE SWAP2 PUSH1 0x20 ADD SWAP2 PUSH2 0x5D3 JUMP JUMPDEST DUP3 ADD SWAP2 SWAP1 PUSH1 0x0 MSTORE PUSH1 0x20 PUSH1 0x0 KECCAK256 SWAP1 JUMPDEST DUP2 SLOAD DUP2 MSTORE SWAP1 PUSH1 0x1 ADD SWAP1 PUSH1 0x20 ADD DUP1 DUP4 GT PUSH2 0x5B6 JUMPI DUP3 SWAP1 SUB PUSH1 0x1F AND DUP3 ADD SWAP2 JUMPDEST POP POP POP POP POP PUSH2 0x1970 JUMP JUMPDEST SWAP1 POP PUSH1 0x0 PUSH2 0x677 PUSH1 0x11 PUSH1 0x2 ADD DUP1 SLOAD PUSH2 0x5F4 SWAP1 PUSH2 0x22F7 JUMP JUMPDEST DUP1 PUSH1 0x1F ADD PUSH1 0x20 DUP1 SWAP2 DIV MUL PUSH1 0x20 ADD PUSH1 0x40 MLOAD SWAP1 DUP2 ADD PUSH1 0x40 MSTORE DUP1 SWAP3 SWAP2 SWAP1 DUP2 DUP2 MSTORE PUSH1 0x20 ADD DUP3 DUP1 SLOAD PUSH2 0x620 SWAP1 PUSH2 0x22F7 JUMP JUMPDEST DUP1 ISZERO PUSH2 0x66D JUMPI DUP1 PUSH1 0x1F LT PUSH2 0x642 JUMPI PUSH2 0x100 DUP1 DUP4 SLOAD DIV MUL DUP4 MSTORE SWAP2 PUSH1 0x20 ADD SWAP2 PUSH2 0x66D JUMP JUMPDEST DUP3 ADD SWAP2 SWAP1 PUSH1 0x0 MSTORE PUSH1 0x20 PUSH1 0x0 KECCAK256 SWAP1 JUMPDEST DUP2 SLOAD DUP2 MSTORE SWAP1 PUSH1 0x1 ADD SWAP1 PUSH1 0x20 ADD DUP1 DUP4 GT PUSH2 0x650 JUMPI DUP3 SWAP1 SUB PUSH1 0x1F AND DUP3 ADD SWAP2 JUMPDEST POP POP POP POP POP PUSH2 0x1970 JUMP JUMPDEST SWAP1 POP PUSH1 0x0 PUSH1 0x1E PUSH1 0xA PUSH1 0x0 ADD PUSH1 0x4 SWAP1 SLOAD SWAP1 PUSH2 0x100 EXP SWAP1 DIV PUSH2 0xFFFF AND PUSH1 0xA0 PUSH2 0x69D SWAP2 SWAP1 PUSH2 0x217C JUMP JUMPDEST PUSH1 0x2 PUSH1 0xA DUP6 DUP8 DUP10 PUSH2 0x120 PUSH1 0x2 PUSH1 0xA PUSH1 0x0 ADD PUSH1 0x6 SWAP1 SLOAD SWAP1 PUSH2 0x100 EXP SWAP1 DIV PUSH2 0xFFFF AND PUSH1 0x20 PUSH2 0x6C9 SWAP2 SWAP1 PUSH2 0x217C JUMP JUMPDEST PUSH2 0x6D3 SWAP2 SWAP1 PUSH2 0x217C JUMP JUMPDEST PUSH1 0xA PUSH1 0x0 ADD PUSH1 0x6 SWAP1 SLOAD SWAP1 PUSH2 0x100 EXP SWAP1 DIV PUSH2 0xFFFF AND PUSH1 0x20 PUSH2 0x6F3 SWAP2 SWAP1 PUSH2 0x217C JUMP JUMPDEST PUSH1 0x84 PUSH2 0x6FF SWAP2 SWAP1 PUSH2 0x2113 JUMP JUMPDEST PUSH2 0x709 SWAP2 SWAP1 PUSH2 0x2113 JUMP JUMPDEST PUSH2 0x713 SWAP2 SWAP1 PUSH2 0x2113 JUMP JUMPDEST PUSH2 0x71D SWAP2 SWAP1 PUSH2 0x2113 JUMP JUMPDEST PUSH2 0x727 SWAP2 SWAP1 PUSH2 0x2113 JUMP JUMPDEST PUSH2 0x731 SWAP2 SWAP1 PUSH2 0x2113 JUMP JUMPDEST PUSH2 0x73B SWAP2 SWAP1 PUSH2 0x2113 JUMP JUMPDEST PUSH2 0x745 SWAP2 SWAP1 PUSH2 0x2113 JUMP JUMPDEST PUSH2 0x74F SWAP2 SWAP1 PUSH2 0x2113 JUMP JUMPDEST PUSH2 0x759 SWAP2 SWAP1 PUSH2 0x2113 JUMP JUMPDEST PUSH2 0xFFFF AND SWAP1 POP DUP1 PUSH8 0xFFFFFFFFFFFFFFFF DUP2 GT ISZERO PUSH2 0x79F JUMPI PUSH32 0x4E487B7100000000000000000000000000000000000000000000000000000000 PUSH1 0x0 MSTORE PUSH1 0x41 PUSH1 0x4 MSTORE PUSH1 0x24 PUSH1 0x0 REVERT JUMPDEST PUSH1 0x40 MLOAD SWAP1 DUP1 DUP3 MSTORE DUP1 PUSH1 0x1F ADD PUSH1 0x1F NOT AND PUSH1 0x20 ADD DUP3 ADD PUSH1 0x40 MSTORE DUP1 ISZERO PUSH2 0x7D1 JUMPI DUP2 PUSH1 0x20 ADD PUSH1 0x1 DUP3 MUL DUP1 CALLDATASIZE DUP4 CALLDATACOPY DUP1 DUP3 ADD SWAP2 POP POP SWAP1 POP JUMPDEST POP SWAP6 POP DUP1 SWAP5 POP PUSH2 0x7E7 DUP2 PUSH1 0xA PUSH1 0x1 ADD SLOAD DUP9 PUSH2 0x19C8 JUMP JUMPDEST PUSH1 0x20 DUP2 PUSH2 0x7F4 SWAP2 SWAP1 PUSH2 0x2212 JUMP JUMPDEST SWAP1 POP PUSH2 0x806 DUP2 PUSH1 0xA PUSH1 0x6 ADD SLOAD DUP9 PUSH2 0x19FB JUMP JUMPDEST PUSH1 0x20 DUP2 PUSH2 0x813 SWAP2 SWAP1 PUSH2 0x2212 JUMP JUMPDEST SWAP1 POP PUSH2 0x825 DUP2 PUSH1 0xA PUSH1 0x2 ADD SLOAD DUP9 PUSH2 0x19FB JUMP JUMPDEST PUSH1 0x20 DUP2 PUSH2 0x832 SWAP2 SWAP1 PUSH2 0x2212 JUMP JUMPDEST SWAP1 POP PUSH2 0x844 DUP2 PUSH1 0xA PUSH1 0x3 ADD SLOAD DUP9 PUSH2 0x19FB JUMP JUMPDEST PUSH1 0x20 DUP2 PUSH2 0x851 SWAP2 SWAP1 PUSH2 0x2212 JUMP JUMPDEST SWAP1 POP PUSH2 0x863 DUP2 PUSH1 0xA PUSH1 0x4 ADD SLOAD DUP9 PUSH2 0x19FB JUMP JUMPDEST PUSH1 0x20 DUP2 PUSH2 0x870 SWAP2 SWAP1 PUSH2 0x2212 JUMP JUMPDEST SWAP1 POP PUSH2 0x894 DUP2 PUSH1 0xA PUSH1 0x0 ADD PUSH1 0x0 SWAP1 SLOAD SWAP1 PUSH2 0x100 EXP SWAP1 DIV PUSH2 0xFFFF AND PUSH2 0xFFFF AND DUP9 PUSH2 0x19FB JUMP JUMPDEST PUSH1 0x2 DUP2 PUSH2 0x8A1 SWAP2 SWAP1 PUSH2 0x2212 JUMP JUMPDEST SWAP1 POP PUSH2 0x8C5 DUP2 PUSH1 0xA PUSH1 0x0 ADD PUSH1 0x2 SWAP1 SLOAD SWAP1 PUSH2 0x100 EXP SWAP1 DIV PUSH2 0xFFFF AND PUSH2 0xFFFF AND DUP9 PUSH2 0x19FB JUMP JUMPDEST PUSH1 0x2 DUP2 PUSH2 0x8D2 SWAP2 SWAP1 PUSH2 0x2212 JUMP JUMPDEST SWAP1 POP PUSH2 0x8E4 DUP2 PUSH1 0x11 PUSH1 0x3 ADD SLOAD DUP9 PUSH2 0x19C8 JUMP JUMPDEST PUSH1 0x20 DUP2 PUSH2 0x8F1 SWAP2 SWAP1 PUSH2 0x2212 JUMP JUMPDEST SWAP1 POP PUSH2 0x903 DUP2 PUSH1 0x11 PUSH1 0x4 ADD SLOAD DUP9 PUSH2 0x19C8 JUMP JUMPDEST PUSH1 0x20 DUP2 PUSH2 0x910 SWAP2 SWAP1 PUSH2 0x2212 JUMP JUMPDEST SWAP1 POP PUSH2 0x922 DUP2 PUSH1 0x11 PUSH1 0x5 ADD SLOAD DUP9 PUSH2 0x19C8 JUMP JUMPDEST PUSH1 0x20 DUP2 PUSH2 0x92F SWAP2 SWAP1 PUSH2 0x2212 JUMP JUMPDEST SWAP1 POP PUSH2 0x941 DUP2 PUSH1 0x11 PUSH1 0x6 ADD SLOAD DUP9 PUSH2 0x19C8 JUMP JUMPDEST PUSH1 0x20 DUP2 PUSH2 0x94E SWAP2 SWAP1 PUSH2 0x2212 JUMP JUMPDEST SWAP1 POP PUSH2 0x960 DUP2 PUSH1 0x11 PUSH1 0x7 ADD SLOAD DUP9 PUSH2 0x19C8 JUMP JUMPDEST PUSH1 0x20 DUP2 PUSH2 0x96D SWAP2 SWAP1 PUSH2 0x2212 JUMP JUMPDEST SWAP1 POP PUSH2 0x97F DUP2 PUSH1 0x11 PUSH1 0x8 ADD SLOAD DUP9 PUSH2 0x19C8 JUMP JUMPDEST PUSH1 0x20 DUP2 PUSH2 0x98C SWAP2 SWAP1 PUSH2 0x2212 JUMP JUMPDEST SWAP1 POP PUSH2 0x99E DUP2 PUSH1 0x11 PUSH1 0x9 ADD SLOAD DUP9 PUSH2 0x19C8 JUMP JUMPDEST PUSH1 0x20 DUP2 PUSH2 0x9AB SWAP2 SWAP1 PUSH2 0x2212 JUMP JUMPDEST SWAP1 POP PUSH2 0x9BD DUP2 PUSH1 0x11 PUSH1 0xA ADD SLOAD DUP9 PUSH2 0x19C8 JUMP JUMPDEST PUSH1 0x20 DUP2 PUSH2 0x9CA SWAP2 SWAP1 PUSH2 0x2212 JUMP JUMPDEST SWAP1 POP PUSH2 0x9E6 DUP2 PUSH1 0x1C PUSH1 0x0 SWAP1 SLOAD SWAP1 PUSH2 0x100 EXP SWAP1 DIV PUSH1 0xFF AND DUP9 PUSH2 0x1A05 JUMP JUMPDEST PUSH1 0x1 DUP2 PUSH2 0x9F3 SWAP2 SWAP1 PUSH2 0x2212 JUMP JUMPDEST SWAP1 POP PUSH2 0xA0F DUP2 PUSH1 0x1C PUSH1 0x1 SWAP1 SLOAD SWAP1 PUSH2 0x100 EXP SWAP1 DIV PUSH1 0xFF AND DUP9 PUSH2 0x1A05 JUMP JUMPDEST PUSH1 0x1 DUP2 PUSH2 0xA1C SWAP2 SWAP1 PUSH2 0x2212 JUMP JUMPDEST SWAP1 POP PUSH2 0xA2D DUP2 DUP6 PUSH2 0xFFFF AND DUP9 PUSH2 0x19FB JUMP JUMPDEST PUSH1 0x2 DUP2 PUSH2 0xA3A SWAP2 SWAP1 PUSH2 0x2212 JUMP JUMPDEST SWAP1 POP PUSH2 0xAD4 DUP2 PUSH1 0x11 PUSH1 0x0 ADD DUP1 SLOAD PUSH2 0xA50 SWAP1 PUSH2 0x22F7 JUMP JUMPDEST DUP1 PUSH1 0x1F ADD PUSH1 0x20 DUP1 SWAP2 DIV MUL PUSH1 0x20 ADD PUSH1 0x40 MLOAD SWAP1 DUP2 ADD PUSH1 0x40 MSTORE DUP1 SWAP3 SWAP2 SWAP1 DUP2 DUP2 MSTORE PUSH1 0x20 ADD DUP3 DUP1 SLOAD PUSH2 0xA7C SWAP1 PUSH2 0x22F7 JUMP JUMPDEST DUP1 ISZERO PUSH2 0xAC9 JUMPI DUP1 PUSH1 0x1F LT PUSH2 0xA9E JUMPI PUSH2 0x100 DUP1 DUP4 SLOAD DIV MUL DUP4 MSTORE SWAP2 PUSH1 0x20 ADD SWAP2 PUSH2 0xAC9 JUMP JUMPDEST DUP3 ADD SWAP2 SWAP1 PUSH1 0x0 MSTORE PUSH1 0x20 PUSH1 0x0 KECCAK256 SWAP1 JUMPDEST DUP2 SLOAD DUP2 MSTORE SWAP1 PUSH1 0x1 ADD SWAP1 PUSH1 0x20 ADD DUP1 DUP4 GT PUSH2 0xAAC JUMPI DUP3 SWAP1 SUB PUSH1 0x1F AND DUP3 ADD SWAP2 JUMPDEST POP POP POP POP POP DUP9 PUSH2 0x1A29 JUMP JUMPDEST DUP4 PUSH2 0xFFFF AND DUP2 PUSH2 0xAE4 SWAP2 SWAP1 PUSH2 0x2212 JUMP JUMPDEST SWAP1 POP PUSH2 0xAF5 DUP2 DUP5 PUSH2 0xFFFF AND DUP9 PUSH2 0x19FB JUMP JUMPDEST PUSH1 0x2 DUP2 PUSH2 0xB02 SWAP2 SWAP1 PUSH2 0x2212 JUMP JUMPDEST SWAP1 POP PUSH2 0xB9C DUP2 PUSH1 0x11 PUSH1 0x1 ADD DUP1 SLOAD PUSH2 0xB18 SWAP1 PUSH2 0x22F7 JUMP JUMPDEST DUP1 PUSH1 0x1F ADD PUSH1 0x20 DUP1 SWAP2 DIV MUL PUSH1 0x20 ADD PUSH1 0x40 MLOAD SWAP1 DUP2 ADD PUSH1 0x40 MSTORE DUP1 SWAP3 SWAP2 SWAP1 DUP2 DUP2 MSTORE PUSH1 0x20 ADD DUP3 DUP1 SLOAD PUSH2 0xB44 SWAP1 PUSH2 0x22F7 JUMP JUMPDEST DUP1 ISZERO PUSH2 0xB91 JUMPI DUP1 PUSH1 0x1F LT PUSH2 0xB66 JUMPI PUSH2 0x100 DUP1 DUP4 SLOAD DIV MUL DUP4 MSTORE SWAP2 PUSH1 0x20 ADD SWAP2 PUSH2 0xB91 JUMP JUMPDEST DUP3 ADD SWAP2 SWAP1 PUSH1 0x0 MSTORE PUSH1 0x20 PUSH1 0x0 KECCAK256 SWAP1 JUMPDEST DUP2 SLOAD DUP2 MSTORE SWAP1 PUSH1 0x1 ADD SWAP1 PUSH1 0x20 ADD DUP1 DUP4 GT PUSH2 0xB74 JUMPI DUP3 SWAP1 SUB PUSH1 0x1F AND DUP3 ADD SWAP2 JUMPDEST POP POP POP POP POP DUP9 PUSH2 0x1A29 JUMP JUMPDEST DUP3 PUSH2 0xFFFF AND DUP2 PUSH2 0xBAC SWAP2 SWAP1 PUSH2 0x2212 JUMP JUMPDEST SWAP1 POP PUSH2 0xBBD DUP2 DUP4 PUSH2 0xFFFF AND DUP9 PUSH2 0x19FB JUMP JUMPDEST PUSH1 0x2 DUP2 PUSH2 0xBCA SWAP2 SWAP1 PUSH2 0x2212 JUMP JUMPDEST SWAP1 POP PUSH2 0xC64 DUP2 PUSH1 0x11 PUSH1 0x2 ADD DUP1 SLOAD PUSH2 0xBE0 SWAP1 PUSH2 0x22F7 JUMP JUMPDEST DUP1 PUSH1 0x1F ADD PUSH1 0x20 DUP1 SWAP2 DIV MUL PUSH1 0x20 ADD PUSH1 0x40 MLOAD SWAP1 DUP2 ADD PUSH1 0x40 MSTORE DUP1 SWAP3 SWAP2 SWAP1 DUP2 DUP2 MSTORE PUSH1 0x20 ADD DUP3 DUP1 SLOAD PUSH2 0xC0C SWAP1 PUSH2 0x22F7 JUMP JUMPDEST DUP1 ISZERO PUSH2 0xC59 JUMPI DUP1 PUSH1 0x1F LT PUSH2 0xC2E JUMPI PUSH2 0x100 DUP1 DUP4 SLOAD DIV MUL DUP4 MSTORE SWAP2 PUSH1 0x20 ADD SWAP2 PUSH2 0xC59 JUMP JUMPDEST DUP3 ADD SWAP2 SWAP1 PUSH1 0x0 MSTORE PUSH1 0x20 PUSH1 0x0 KECCAK256 SWAP1 JUMPDEST DUP2 SLOAD DUP2 MSTORE SWAP1 PUSH1 0x1 ADD SWAP1 PUSH1 0x20 ADD DUP1 DUP4 GT PUSH2 0xC3C JUMPI DUP3 SWAP1 SUB PUSH1 0x1F AND DUP3 ADD SWAP2 JUMPDEST POP POP POP POP POP DUP9 PUSH2 0x1A29 JUMP JUMPDEST DUP2 PUSH2 0xFFFF AND DUP2 PUSH2 0xC74 SWAP2 SWAP1 PUSH2 0x2212 JUMP JUMPDEST SWAP1 POP PUSH2 0xC98 DUP2 PUSH1 0xA PUSH1 0x0 ADD PUSH1 0x6 SWAP1 SLOAD SWAP1 PUSH2 0x100 EXP SWAP1 DIV PUSH2 0xFFFF AND PUSH2 0xFFFF AND DUP9 PUSH2 0x19FB JUMP JUMPDEST PUSH1 0x2 DUP2 PUSH2 0xCA5 SWAP2 SWAP1 PUSH2 0x2212 JUMP JUMPDEST SWAP1 POP PUSH1 0x0 JUMPDEST PUSH1 0xA PUSH1 0x0 ADD PUSH1 0x6 SWAP1 SLOAD SWAP1 PUSH2 0x100 EXP SWAP1 DIV PUSH2 0xFFFF AND PUSH2 0xFFFF AND DUP2 LT ISZERO PUSH2 0xE25 JUMPI PUSH2 0xD1B DUP3 PUSH1 0xA PUSH1 0x5 ADD DUP4 DUP2 SLOAD DUP2 LT PUSH2 0xD0A JUMPI PUSH32 0x4E487B7100000000000000000000000000000000000000000000000000000000 PUSH1 0x0 MSTORE PUSH1 0x32 PUSH1 0x4 MSTORE PUSH1 0x24 PUSH1 0x0 REVERT JUMPDEST SWAP1 PUSH1 0x0 MSTORE PUSH1 0x20 PUSH1 0x0 KECCAK256 ADD SLOAD DUP10 PUSH2 0x19C8 JUMP JUMPDEST PUSH1 0x20 DUP3 PUSH2 0xD28 SWAP2 SWAP1 PUSH2 0x2212 JUMP JUMPDEST SWAP2 POP PUSH2 0xD8F DUP3 PUSH1 0x7 PUSH1 0x0 PUSH1 0xA PUSH1 0x5 ADD DUP6 DUP2 SLOAD DUP2 LT PUSH2 0xD6F JUMPI PUSH32 0x4E487B7100000000000000000000000000000000000000000000000000000000 PUSH1 0x0 MSTORE PUSH1 0x32 PUSH1 0x4 MSTORE PUSH1 0x24 PUSH1 0x0 REVERT JUMPDEST SWAP1 PUSH1 0x0 MSTORE PUSH1 0x20 PUSH1 0x0 KECCAK256 ADD SLOAD DUP2 MSTORE PUSH1 0x20 ADD SWAP1 DUP2 MSTORE PUSH1 0x20 ADD PUSH1 0x0 KECCAK256 SLOAD DUP10 PUSH2 0x19C8 JUMP JUMPDEST PUSH1 0x20 DUP3 PUSH2 0xD9C SWAP2 SWAP1 PUSH2 0x2212 JUMP JUMPDEST SWAP2 POP PUSH2 0xE03 DUP3 PUSH1 0x8 PUSH1 0x0 PUSH1 0xA PUSH1 0x5 ADD DUP6 DUP2 SLOAD DUP2 LT PUSH2 0xDE3 JUMPI PUSH32 0x4E487B7100000000000000000000000000000000000000000000000000000000 PUSH1 0x0 MSTORE PUSH1 0x32 PUSH1 0x4 MSTORE PUSH1 0x24 PUSH1 0x0 REVERT JUMPDEST SWAP1 PUSH1 0x0 MSTORE PUSH1 0x20 PUSH1 0x0 KECCAK256 ADD SLOAD DUP2 MSTORE PUSH1 0x20 ADD SWAP1 DUP2 MSTORE PUSH1 0x20 ADD PUSH1 0x0 KECCAK256 SLOAD DUP10 PUSH2 0x19FB JUMP JUMPDEST PUSH1 0x20 DUP3 PUSH2 0xE10 SWAP2 SWAP1 PUSH2 0x2212 JUMP JUMPDEST SWAP2 POP DUP1 DUP1 PUSH2 0xE1D SWAP1 PUSH2 0x2354 JUMP JUMPDEST SWAP2 POP POP PUSH2 0xCAA JUMP JUMPDEST POP PUSH2 0xE48 DUP2 PUSH1 0xA PUSH1 0x0 ADD PUSH1 0x4 SWAP1 SLOAD SWAP1 PUSH2 0x100 EXP SWAP1 DIV PUSH2 0xFFFF AND PUSH2 0xFFFF AND DUP9 PUSH2 0x19FB JUMP JUMPDEST PUSH1 0x20 DUP2 PUSH2 0xE55 SWAP2 SWAP1 PUSH2 0x2212 JUMP JUMPDEST SWAP1 POP PUSH1 0x0 DUP1 PUSH1 0x0 DUP1 PUSH1 0x0 DUP1 PUSH1 0x0 SWAP1 POP JUMPDEST PUSH1 0xA PUSH1 0x0 ADD PUSH1 0x6 SWAP1 SLOAD SWAP1 PUSH2 0x100 EXP SWAP1 DIV PUSH2 0xFFFF AND PUSH2 0xFFFF AND DUP2 LT ISZERO PUSH2 0x1116 JUMPI PUSH1 0x0 JUMPDEST PUSH1 0x3 PUSH1 0x0 PUSH1 0xA PUSH1 0x5 ADD DUP5 DUP2 SLOAD DUP2 LT PUSH2 0xEC8 JUMPI PUSH32 0x4E487B7100000000000000000000000000000000000000000000000000000000 PUSH1 0x0 MSTORE PUSH1 0x32 PUSH1 0x4 MSTORE PUSH1 0x24 PUSH1 0x0 REVERT JUMPDEST SWAP1 PUSH1 0x0 MSTORE PUSH1 0x20 PUSH1 0x0 KECCAK256 ADD SLOAD DUP2 MSTORE PUSH1 0x20 ADD SWAP1 DUP2 MSTORE PUSH1 0x20 ADD PUSH1 0x0 KECCAK256 DUP1 SLOAD SWAP1 POP DUP2 LT ISZERO PUSH2 0x1102 JUMPI PUSH1 0x5 PUSH1 0x0 PUSH1 0x3 PUSH1 0x0 PUSH1 0xA PUSH1 0x5 ADD DUP7 DUP2 SLOAD DUP2 LT PUSH2 0xF31 JUMPI PUSH32 0x4E487B7100000000000000000000000000000000000000000000000000000000 PUSH1 0x0 MSTORE PUSH1 0x32 PUSH1 0x4 MSTORE PUSH1 0x24 PUSH1 0x0 REVERT JUMPDEST SWAP1 PUSH1 0x0 MSTORE PUSH1 0x20 PUSH1 0x0 KECCAK256 ADD SLOAD DUP2 MSTORE PUSH1 0x20 ADD SWAP1 DUP2 MSTORE PUSH1 0x20 ADD PUSH1 0x0 KECCAK256 DUP4 DUP2 SLOAD DUP2 LT PUSH2 0xF82 JUMPI PUSH32 0x4E487B7100000000000000000000000000000000000000000000000000000000 PUSH1 0x0 MSTORE PUSH1 0x32 PUSH1 0x4 MSTORE PUSH1 0x24 PUSH1 0x0 REVERT JUMPDEST SWAP1 PUSH1 0x0 MSTORE PUSH1 0x20 PUSH1 0x0 KECCAK256 ADD SLOAD DUP2 MSTORE PUSH1 0x20 ADD SWAP1 DUP2 MSTORE PUSH1 0x20 ADD PUSH1 0x0 KECCAK256 PUSH1 0x0 SWAP1 SLOAD SWAP1 PUSH2 0x100 EXP SWAP1 DIV PUSH1 0xFF AND PUSH2 0xFB2 JUMPI PUSH2 0x10EF JUMP JUMPDEST PUSH2 0x1057 PUSH1 0x3 PUSH1 0x0 PUSH1 0xA PUSH1 0x5 ADD DUP6 DUP2 SLOAD DUP2 LT PUSH2 0xFF6 JUMPI PUSH32 0x4E487B7100000000000000000000000000000000000000000000000000000000 PUSH1 0x0 MSTORE PUSH1 0x32 PUSH1 0x4 MSTORE PUSH1 0x24 PUSH1 0x0 REVERT JUMPDEST SWAP1 PUSH1 0x0 MSTORE PUSH1 0x20 PUSH1 0x0 KECCAK256 ADD SLOAD DUP2 MSTORE PUSH1 0x20 ADD SWAP1 DUP2 MSTORE PUSH1 0x20 ADD PUSH1 0x0 KECCAK256 DUP3 DUP2 SLOAD DUP2 LT PUSH2 0x1047 JUMPI PUSH32 0x4E487B7100000000000000000000000000000000000000000000000000000000 PUSH1 0x0 MSTORE PUSH1 0x32 PUSH1 0x4 MSTORE PUSH1 0x24 PUSH1 0x0 REVERT JUMPDEST SWAP1 PUSH1 0x0 MSTORE PUSH1 0x20 PUSH1 0x0 KECCAK256 ADD SLOAD PUSH2 0x22D JUMP JUMPDEST POP DUP1 SWAP8 POP DUP2 SWAP9 POP DUP3 SWAP10 POP DUP4 SWAP11 POP DUP5 SWAP12 POP POP POP POP POP POP PUSH2 0x1077 DUP9 DUP5 DUP16 PUSH2 0x19C8 JUMP JUMPDEST PUSH1 0x20 DUP9 PUSH2 0x1084 SWAP2 SWAP1 PUSH2 0x2212 JUMP JUMPDEST SWAP8 POP PUSH2 0x1091 DUP9 DUP6 DUP16 PUSH2 0x19FB JUMP JUMPDEST PUSH1 0x20 DUP9 PUSH2 0x109E SWAP2 SWAP1 PUSH2 0x2212 JUMP JUMPDEST SWAP8 POP PUSH2 0x10AB DUP9 DUP7 DUP16 PUSH2 0x19FB JUMP JUMPDEST PUSH1 0x20 DUP9 PUSH2 0x10B8 SWAP2 SWAP1 PUSH2 0x2212 JUMP JUMPDEST SWAP8 POP PUSH2 0x10C5 DUP9 DUP8 DUP16 PUSH2 0x19C8 JUMP JUMPDEST PUSH1 0x20 DUP9 PUSH2 0x10D2 SWAP2 SWAP1 PUSH2 0x2212 JUMP JUMPDEST SWAP8 POP PUSH2 0x10DF DUP9 DUP9 DUP16 PUSH2 0x19C8 JUMP JUMPDEST PUSH1 0x20 DUP9 PUSH2 0x10EC SWAP2 SWAP1 PUSH2 0x2212 JUMP JUMPDEST SWAP8 POP JUMPDEST DUP1 DUP1 PUSH2 0x10FA SWAP1 PUSH2 0x2354 JUMP JUMPDEST SWAP2 POP POP PUSH2 0xE87 JUMP JUMPDEST POP DUP1 DUP1 PUSH2 0x110E SWAP1 PUSH2 0x2354 JUMP JUMPDEST SWAP2 POP POP PUSH2 0xE65 JUMP JUMPDEST POP POP POP POP POP POP POP POP POP POP SWAP1 SWAP2 JUMP JUMPDEST PUSH1 0x1 PUSH1 0x14 SWAP1 SLOAD SWAP1 PUSH2 0x100 EXP SWAP1 DIV PUSH1 0xFF AND ISZERO PUSH2 0x113E JUMPI PUSH1 0x0 DUP1 REVERT JUMPDEST PUSH1 0x1 DUP1 PUSH1 0x14 PUSH2 0x100 EXP DUP2 SLOAD DUP2 PUSH1 0xFF MUL NOT AND SWAP1 DUP4 ISZERO ISZERO MUL OR SWAP1 SSTORE POP DUP1 PUSH1 0x1 PUSH1 0x0 PUSH2 0x100 EXP DUP2 SLOAD DUP2 PUSH20 0xFFFFFFFFFFFFFFFFFFFFFFFFFFFFFFFFFFFFFFFF MUL NOT AND SWAP1 DUP4 PUSH20 0xFFFFFFFFFFFFFFFFFFFFFFFFFFFFFFFFFFFFFFFF AND MUL OR SWAP1 SSTORE POP POP JUMP JUMPDEST PUSH1 0x4 PUSH1 0x0 DUP6 DUP2 MSTORE PUSH1 0x20 ADD SWAP1 DUP2 MSTORE PUSH1 0x20 ADD PUSH1 0x0 KECCAK256 PUSH1 0x0 SWAP1 SLOAD SWAP1 PUSH2 0x100 EXP SWAP1 DIV PUSH1 0xFF AND PUSH2 0x11FC JUMPI PUSH1 0x40 MLOAD PUSH32 0x8C379A000000000000000000000000000000000000000000000000000000000 DUP2 MSTORE PUSH1 0x4 ADD PUSH2 0x11F3 SWAP1 PUSH2 0x2022 JUMP JUMPDEST PUSH1 0x40 MLOAD DUP1 SWAP2 SUB SWAP1 REVERT JUMPDEST PUSH1 0x5 PUSH1 0x0 DUP5 DUP2 MSTORE PUSH1 0x20 ADD SWAP1 DUP2 MSTORE PUSH1 0x20 ADD PUSH1 0x0 KECCAK256 PUSH1 0x0 SWAP1 SLOAD SWAP1 PUSH2 0x100 EXP SWAP1 DIV PUSH1 0xFF AND ISZERO PUSH2 0x125D JUMPI PUSH1 0x40 MLOAD PUSH32 0x8C379A000000000000000000000000000000000000000000000000000000000 DUP2 MSTORE PUSH1 0x4 ADD PUSH2 0x1254 SWAP1 PUSH2 0x2042 JUMP JUMPDEST PUSH1 0x40 MLOAD DUP1 SWAP2 SUB SWAP1 REVERT JUMPDEST PUSH1 0x3 PUSH1 0x0 DUP6 DUP2 MSTORE PUSH1 0x20 ADD SWAP1 DUP2 MSTORE PUSH1 0x20 ADD PUSH1 0x0 KECCAK256 DUP4 SWAP1 DUP1 PUSH1 0x1 DUP2 SLOAD ADD DUP1 DUP3 SSTORE DUP1 SWAP2 POP POP PUSH1 0x1 SWAP1 SUB SWAP1 PUSH1 0x0 MSTORE PUSH1 0x20 PUSH1 0x0 KECCAK256 ADD PUSH1 0x0 SWAP1 SWAP2 SWAP1 SWAP2 SWAP1 SWAP2 POP SSTORE PUSH1 0x3 PUSH1 0x0 DUP6 DUP2 MSTORE PUSH1 0x20 ADD SWAP1 DUP2 MSTORE PUSH1 0x20 ADD PUSH1 0x0 KECCAK256 DUP1 SLOAD SWAP1 POP PUSH1 0x2 PUSH1 0x0 DUP6 DUP2 MSTORE PUSH1 0x20 ADD SWAP1 DUP2 MSTORE PUSH1 0x20 ADD PUSH1 0x0 KECCAK256 DUP2 SWAP1 SSTORE POP DUP4 PUSH1 0x6 PUSH1 0x0 DUP6 DUP2 MSTORE PUSH1 0x20 ADD SWAP1 DUP2 MSTORE PUSH1 0x20 ADD PUSH1 0x0 KECCAK256 DUP2 SWAP1 SSTORE POP PUSH1 0x40 MLOAD DUP1 PUSH1 0xC0 ADD PUSH1 0x40 MSTORE DUP1 PUSH32 0x554E444546494E45440000000000000000000000000000000000000000000000 DUP2 MSTORE PUSH1 0x20 ADD DUP5 DUP2 MSTORE PUSH1 0x20 ADD DUP6 DUP2 MSTORE PUSH1 0x20 ADD DUP4 DUP2 MSTORE PUSH1 0x20 ADD PUSH1 0x0 DUP2 MSTORE PUSH1 0x20 ADD DUP3 PUSH20 0xFFFFFFFFFFFFFFFFFFFFFFFFFFFFFFFFFFFFFFFF AND DUP2 MSTORE POP PUSH1 0x9 PUSH1 0x0 DUP6 DUP2 MSTORE PUSH1 0x20 ADD SWAP1 DUP2 MSTORE PUSH1 0x20 ADD PUSH1 0x0 KECCAK256 PUSH1 0x0 DUP3 ADD MLOAD DUP2 PUSH1 0x0 ADD SSTORE PUSH1 0x20 DUP3 ADD MLOAD DUP2 PUSH1 0x1 ADD SSTORE PUSH1 0x40 DUP3 ADD MLOAD DUP2 PUSH1 0x2 ADD SSTORE PUSH1 0x60 DUP3 ADD MLOAD DUP2 PUSH1 0x3 ADD SSTORE PUSH1 0x80 DUP3 ADD MLOAD DUP2 PUSH1 0x4 ADD SSTORE PUSH1 0xA0 DUP3 ADD MLOAD DUP2 PUSH1 0x5 ADD PUSH1 0x0 PUSH2 0x100 EXP DUP2 SLOAD DUP2 PUSH20 0xFFFFFFFFFFFFFFFFFFFFFFFFFFFFFFFFFFFFFFFF MUL NOT AND SWAP1 DUP4 PUSH20 0xFFFFFFFFFFFFFFFFFFFFFFFFFFFFFFFFFFFFFFFF AND MUL OR SWAP1 SSTORE POP SWAP1 POP POP PUSH1 0x1 PUSH1 0x5 PUSH1 0x0 DUP6 DUP2 MSTORE PUSH1 0x20 ADD SWAP1 DUP2 MSTORE PUSH1 0x20 ADD PUSH1 0x0 KECCAK256 PUSH1 0x0 PUSH2 0x100 EXP DUP2 SLOAD DUP2 PUSH1 0xFF MUL NOT AND SWAP1 DUP4 ISZERO ISZERO MUL OR SWAP1 SSTORE POP PUSH1 0xA PUSH1 0x0 ADD PUSH1 0x4 DUP2 DUP2 SWAP1 SLOAD SWAP1 PUSH2 0x100 EXP SWAP1 DIV PUSH2 0xFFFF AND DUP1 SWAP3 SWAP2 SWAP1 PUSH2 0x141F SWAP1 PUSH2 0x2329 JUMP JUMPDEST SWAP2 SWAP1 PUSH2 0x100 EXP DUP2 SLOAD DUP2 PUSH2 0xFFFF MUL NOT AND SWAP1 DUP4 PUSH2 0xFFFF AND MUL OR SWAP1 SSTORE POP POP POP POP POP POP JUMP JUMPDEST PUSH1 0x1C PUSH1 0x0 SWAP1 SLOAD SWAP1 PUSH2 0x100 EXP SWAP1 DIV PUSH1 0xFF AND DUP1 ISZERO PUSH2 0x1469 JUMPI POP PUSH1 0x1C PUSH1 0x1 SWAP1 SLOAD SWAP1 PUSH2 0x100 EXP SWAP1 DIV PUSH1 0xFF AND ISZERO JUMPDEST ISZERO PUSH2 0x14D4 JUMPI PUSH32 0xA12AF4B51848737C59CE8D94F45ED389DA0D7C547616481934A17713D27726C8 PUSH1 0x11 PUSH1 0x3 ADD SLOAD PUSH1 0xA PUSH1 0x1 ADD SLOAD PUSH1 0x40 MLOAD PUSH2 0x14A9 SWAP3 SWAP2 SWAP1 PUSH2 0x1DFB JUMP JUMPDEST PUSH1 0x40 MLOAD DUP1 SWAP2 SUB SWAP1 LOG1 PUSH1 0x1 PUSH1 0x1C PUSH1 0x1 PUSH2 0x100 EXP DUP2 SLOAD DUP2 PUSH1 0xFF MUL NOT AND SWAP1 DUP4 ISZERO ISZERO MUL OR SWAP1 SSTORE POP TIMESTAMP PUSH1 0x1D DUP2 SWAP1 SSTORE POP JUMPDEST JUMP JUMPDEST PUSH1 0x0 PUSH1 0xA PUSH1 0x1 ADD SLOAD SWAP1 POP SWAP1 JUMP JUMPDEST PUSH1 0x0 PUSH1 0x5 PUSH1 0x0 DUP4 DUP2 MSTORE PUSH1 0x20 ADD SWAP1 DUP2 MSTORE PUSH1 0x20 ADD PUSH1 0x0 KECCAK256 PUSH1 0x0 SWAP1 SLOAD SWAP1 PUSH2 0x100 EXP SWAP1 DIV PUSH1 0xFF AND PUSH2 0x1545 JUMPI PUSH1 0x40 MLOAD PUSH32 0x8C379A000000000000000000000000000000000000000000000000000000000 DUP2 MSTORE PUSH1 0x4 ADD PUSH2 0x153C SWAP1 PUSH2 0x2082 JUMP JUMPDEST PUSH1 0x40 MLOAD DUP1 SWAP2 SUB SWAP1 REVERT JUMPDEST PUSH1 0x0 PUSH1 0x9 PUSH1 0x0 DUP5 DUP2 MSTORE PUSH1 0x20 ADD SWAP1 DUP2 MSTORE PUSH1 0x20 ADD PUSH1 0x0 KECCAK256 PUSH1 0x5 ADD PUSH1 0x0 SWAP1 SLOAD SWAP1 PUSH2 0x100 EXP SWAP1 DIV PUSH20 0xFFFFFFFFFFFFFFFFFFFFFFFFFFFFFFFFFFFFFFFF AND SWAP1 POP PUSH1 0x0 PUSH1 0x5 PUSH1 0x0 DUP6 DUP2 MSTORE PUSH1 0x20 ADD SWAP1 DUP2 MSTORE PUSH1 0x20 ADD PUSH1 0x0 KECCAK256 PUSH1 0x0 PUSH2 0x100 EXP DUP2 SLOAD DUP2 PUSH1 0xFF MUL NOT AND SWAP1 DUP4 ISZERO ISZERO MUL OR SWAP1 SSTORE POP PUSH1 0xA PUSH1 0x0 ADD PUSH1 0x4 DUP2 DUP2 SWAP1 SLOAD SWAP1 PUSH2 0x100 EXP SWAP1 DIV PUSH2 0xFFFF AND DUP1 SWAP3 SWAP2 SWAP1 PUSH2 0x15CF SWAP1 PUSH2 0x22CD JUMP JUMPDEST SWAP2 SWAP1 PUSH2 0x100 EXP DUP2 SLOAD DUP2 PUSH2 0xFFFF MUL NOT AND SWAP1 DUP4 PUSH2 0xFFFF AND MUL OR SWAP1 SSTORE POP POP DUP1 SWAP2 POP POP SWAP2 SWAP1 POP JUMP JUMPDEST PUSH1 0x0 DUP1 PUSH1 0x0 DUP1 PUSH1 0x0 DUP1 PUSH1 0x60 PUSH1 0xA PUSH1 0x1 ADD SLOAD PUSH1 0xA PUSH1 0x0 ADD PUSH1 0x0 SWAP1 SLOAD SWAP1 PUSH2 0x100 EXP SWAP1 DIV PUSH2 0xFFFF AND PUSH1 0xA PUSH1 0x0 ADD PUSH1 0x2 SWAP1 SLOAD SWAP1 PUSH2 0x100 EXP SWAP1 DIV PUSH2 0xFFFF AND PUSH1 0xA PUSH1 0x0 ADD PUSH1 0x6 SWAP1 SLOAD SWAP1 PUSH2 0x100 EXP SWAP1 DIV PUSH2 0xFFFF AND PUSH1 0xA PUSH1 0x2 ADD SLOAD PUSH1 0xA PUSH1 0x3 ADD SLOAD PUSH1 0xA PUSH1 0x5 ADD DUP1 DUP1 SLOAD DUP1 PUSH1 0x20 MUL PUSH1 0x20 ADD PUSH1 0x40 MLOAD SWAP1 DUP2 ADD PUSH1 0x40 MSTORE DUP1 SWAP3 SWAP2 SWAP1 DUP2 DUP2 MSTORE PUSH1 0x20 ADD DUP3 DUP1 SLOAD DUP1 ISZERO PUSH2 0x169C JUMPI PUSH1 0x20 MUL DUP3 ADD SWAP2 SWAP1 PUSH1 0x0 MSTORE PUSH1 0x20 PUSH1 0x0 KECCAK256 SWAP1 JUMPDEST DUP2 SLOAD DUP2 MSTORE PUSH1 0x20 ADD SWAP1 PUSH1 0x1 ADD SWAP1 DUP1 DUP4 GT PUSH2 0x1688 JUMPI JUMPDEST POP POP POP POP POP SWAP1 POP SWAP7 POP SWAP7 POP SWAP7 POP SWAP7 POP SWAP7 POP SWAP7 POP SWAP7 POP SWAP1 SWAP2 SWAP3 SWAP4 SWAP5 SWAP6 SWAP7 JUMP JUMPDEST PUSH1 0x0 DUP1 SLOAD SWAP1 PUSH2 0x100 EXP SWAP1 DIV PUSH20 0xFFFFFFFFFFFFFFFFFFFFFFFFFFFFFFFFFFFFFFFF AND PUSH20 0xFFFFFFFFFFFFFFFFFFFFFFFFFFFFFFFFFFFFFFFF AND CALLER PUSH20 0xFFFFFFFFFFFFFFFFFFFFFFFFFFFFFFFFFFFFFFFF AND EQ PUSH2 0x1712 JUMPI PUSH1 0x0 DUP1 REVERT JUMPDEST PUSH1 0x0 DUP1 SLOAD SWAP1 PUSH2 0x100 EXP SWAP1 DIV PUSH20 0xFFFFFFFFFFFFFFFFFFFFFFFFFFFFFFFFFFFFFFFF AND PUSH20 0xFFFFFFFFFFFFFFFFFFFFFFFFFFFFFFFFFFFFFFFF AND SELFDESTRUCT JUMPDEST PUSH1 0x0 DUP1 PUSH1 0x60 DUP1 PUSH1 0x0 DUP1 PUSH1 0x0 DUP1 PUSH1 0x0 PUSH1 0x60 PUSH1 0x0 PUSH1 0x11 PUSH1 0x3 ADD SLOAD PUSH1 0x11 PUSH1 0x4 ADD SLOAD PUSH1 0x11 PUSH1 0x0 ADD PUSH1 0x11 PUSH1 0x1 ADD PUSH1 0x11 PUSH1 0x5 ADD SLOAD PUSH1 0x11 PUSH1 0x6 ADD SLOAD PUSH1 0x11 PUSH1 0x7 ADD SLOAD PUSH1 0x11 PUSH1 0x8 ADD SLOAD PUSH1 0x11 PUSH1 0x9 ADD SLOAD PUSH1 0x11 PUSH1 0x2 ADD PUSH1 0x11 PUSH1 0xA ADD SLOAD DUP9 DUP1 SLOAD PUSH2 0x17A8 SWAP1 PUSH2 0x22F7 JUMP JUMPDEST DUP1 PUSH1 0x1F ADD PUSH1 0x20 DUP1 SWAP2 DIV MUL PUSH1 0x20 ADD PUSH1 0x40 MLOAD SWAP1 DUP2 ADD PUSH1 0x40 MSTORE DUP1 SWAP3 SWAP2 SWAP1 DUP2 DUP2 MSTORE PUSH1 0x20 ADD DUP3 DUP1 SLOAD PUSH2 0x17D4 SWAP1 PUSH2 0x22F7 JUMP JUMPDEST DUP1 ISZERO PUSH2 0x1821 JUMPI DUP1 PUSH1 0x1F LT PUSH2 0x17F6 JUMPI PUSH2 0x100 DUP1 DUP4 SLOAD DIV MUL DUP4 MSTORE SWAP2 PUSH1 0x20 ADD SWAP2 PUSH2 0x1821 JUMP JUMPDEST DUP3 ADD SWAP2 SWAP1 PUSH1 0x0 MSTORE PUSH1 0x20 PUSH1 0x0 KECCAK256 SWAP1 JUMPDEST DUP2 SLOAD DUP2 MSTORE SWAP1 PUSH1 0x1 ADD SWAP1 PUSH1 0x20 ADD DUP1 DUP4 GT PUSH2 0x1804 JUMPI DUP3 SWAP1 SUB PUSH1 0x1F AND DUP3 ADD SWAP2 JUMPDEST POP POP POP POP POP SWAP9 POP DUP8 DUP1 SLOAD PUSH2 0x1834 SWAP1 PUSH2 0x22F7 JUMP JUMPDEST DUP1 PUSH1 0x1F ADD PUSH1 0x20 DUP1 SWAP2 DIV MUL PUSH1 0x20 ADD PUSH1 0x40 MLOAD SWAP1 DUP2 ADD PUSH1 0x40 MSTORE DUP1 SWAP3 SWAP2 SWAP1 DUP2 DUP2 MSTORE PUSH1 0x20 ADD DUP3 DUP1 SLOAD PUSH2 0x1860 SWAP1 PUSH2 0x22F7 JUMP JUMPDEST DUP1 ISZERO PUSH2 0x18AD JUMPI DUP1 PUSH1 0x1F LT PUSH2 0x1882 JUMPI PUSH2 0x100 DUP1 DUP4 SLOAD DIV MUL DUP4 MSTORE SWAP2 PUSH1 0x20 ADD SWAP2 PUSH2 0x18AD JUMP JUMPDEST DUP3 ADD SWAP2 SWAP1 PUSH1 0x0 MSTORE PUSH1 0x20 PUSH1 0x0 KECCAK256 SWAP1 JUMPDEST DUP2 SLOAD DUP2 MSTORE SWAP1 PUSH1 0x1 ADD SWAP1 PUSH1 0x20 ADD DUP1 DUP4 GT PUSH2 0x1890 JUMPI DUP3 SWAP1 SUB PUSH1 0x1F AND DUP3 ADD SWAP2 JUMPDEST POP POP POP POP POP SWAP8 POP DUP2 DUP1 SLOAD PUSH2 0x18C0 SWAP1 PUSH2 0x22F7 JUMP JUMPDEST DUP1 PUSH1 0x1F ADD PUSH1 0x20 DUP1 SWAP2 DIV MUL PUSH1 0x20 ADD PUSH1 0x40 MLOAD SWAP1 DUP2 ADD PUSH1 0x40 MSTORE DUP1 SWAP3 SWAP2 SWAP1 DUP2 DUP2 MSTORE PUSH1 0x20 ADD DUP3 DUP1 SLOAD PUSH2 0x18EC SWAP1 PUSH2 0x22F7 JUMP JUMPDEST DUP1 ISZERO PUSH2 0x1939 JUMPI DUP1 PUSH1 0x1F LT PUSH2 0x190E JUMPI PUSH2 0x100 DUP1 DUP4 SLOAD DIV MUL DUP4 MSTORE SWAP2 PUSH1 0x20 ADD SWAP2 PUSH2 0x1939 JUMP JUMPDEST DUP3 ADD SWAP2 SWAP1 PUSH1 0x0 MSTORE PUSH1 0x20 PUSH1 0x0 KECCAK256 SWAP1 JUMPDEST DUP2 SLOAD DUP2 MSTORE SWAP1 PUSH1 0x1 ADD SWAP1 PUSH1 0x20 ADD DUP1 DUP4 GT PUSH2 0x191C JUMPI DUP3 SWAP1 SUB PUSH1 0x1F AND DUP3 ADD SWAP2 JUMPDEST POP POP POP POP POP SWAP2 POP SWAP11 POP SWAP11 POP SWAP11 POP SWAP11 POP SWAP11 POP SWAP11 POP SWAP11 POP SWAP11 POP SWAP11 POP SWAP11 POP SWAP11 POP SWAP1 SWAP2 SWAP3 SWAP4 SWAP5 SWAP6 SWAP7 SWAP8 SWAP9 SWAP10 SWAP11 JUMP JUMPDEST PUSH1 0x0 PUSH1 0x11 PUSH1 0x3 ADD SLOAD SWAP1 POP SWAP1 JUMP JUMPDEST PUSH1 0x0 PUSH1 0x20 DUP3 MLOAD PUSH2 0x1980 SWAP2 SWAP1 PUSH2 0x214B JUMP JUMPDEST SWAP1 POP PUSH1 0x0 PUSH1 0x20 DUP4 MLOAD PUSH2 0x1992 SWAP2 SWAP1 PUSH2 0x23A7 JUMP JUMPDEST EQ PUSH2 0x19A6 JUMPI DUP1 DUP1 PUSH2 0x19A2 SWAP1 PUSH2 0x2354 JUMP JUMPDEST SWAP2 POP POP JUMPDEST DUP1 DUP1 PUSH2 0x19B1 SWAP1 PUSH2 0x2354 JUMP JUMPDEST SWAP2 POP POP PUSH1 0x20 DUP2 PUSH2 0x19C1 SWAP2 SWAP1 PUSH2 0x21B8 JUMP JUMPDEST SWAP1 POP SWAP2 SWAP1 POP JUMP JUMPDEST PUSH1 0x0 DUP3 PUSH1 0x40 MLOAD PUSH1 0x20 ADD PUSH2 0x19DB SWAP2 SWAP1 PUSH2 0x1DAA JUMP JUMPDEST PUSH1 0x40 MLOAD PUSH1 0x20 DUP2 DUP4 SUB SUB DUP2 MSTORE SWAP1 PUSH1 0x40 MSTORE SWAP1 POP PUSH1 0x20 DUP2 ADD MLOAD DUP5 DUP4 ADD MSTORE POP POP POP POP JUMP JUMPDEST DUP2 DUP4 DUP3 ADD MSTORE POP POP POP JUMP JUMPDEST PUSH1 0x0 DUP1 ISZERO ISZERO DUP4 ISZERO ISZERO EQ PUSH2 0x1A19 JUMPI PUSH1 0x1 PUSH2 0x1A1C JUMP JUMPDEST PUSH1 0x0 JUMPDEST SWAP1 POP DUP1 DUP5 DUP4 ADD MSTORE POP POP POP POP JUMP JUMPDEST PUSH1 0x0 PUSH1 0x20 DUP4 MLOAD PUSH2 0x1A39 SWAP2 SWAP1 PUSH2 0x214B JUMP JUMPDEST SWAP1 POP PUSH1 0x0 PUSH1 0x20 DUP5 MLOAD PUSH2 0x1A4B SWAP2 SWAP1 PUSH2 0x23A7 JUMP JUMPDEST GT ISZERO PUSH2 0x1A60 JUMPI DUP1 DUP1 PUSH2 0x1A5C SWAP1 PUSH2 0x2354 JUMP JUMPDEST SWAP2 POP POP JUMPDEST DUP1 DUP1 PUSH2 0x1A6B SWAP1 PUSH2 0x2354 JUMP JUMPDEST SWAP2 POP POP PUSH1 0x0 JUMPDEST DUP2 DUP2 LT ISZERO PUSH2 0x1A9D JUMPI PUSH1 0x20 DUP2 MUL DUP5 ADD MLOAD DUP6 DUP5 ADD MSTORE PUSH1 0x20 DUP6 SUB SWAP5 POP DUP1 DUP1 PUSH2 0x1A95 SWAP1 PUSH2 0x2354 JUMP JUMPDEST SWAP2 POP POP PUSH2 0x1A71 JUMP JUMPDEST POP POP POP POP POP JUMP JUMPDEST PUSH1 0x0 DUP2 CALLDATALOAD SWAP1 POP PUSH2 0x1AB3 DUP2 PUSH2 0x2540 JUMP JUMPDEST SWAP3 SWAP2 POP POP JUMP JUMPDEST PUSH1 0x0 DUP2 CALLDATALOAD SWAP1 POP PUSH2 0x1AC8 DUP2 PUSH2 0x2557 JUMP JUMPDEST SWAP3 SWAP2 POP POP JUMP JUMPDEST PUSH1 0x0 DUP2 CALLDATALOAD SWAP1 POP PUSH2 0x1ADD DUP2 PUSH2 0x256E JUMP JUMPDEST SWAP3 SWAP2 POP POP JUMP JUMPDEST PUSH1 0x0 PUSH1 0x20 DUP3 DUP5 SUB SLT ISZERO PUSH2 0x1AF5 JUMPI PUSH1 0x0 DUP1 REVERT JUMPDEST PUSH1 0x0 PUSH2 0x1B03 DUP5 DUP3 DUP6 ADD PUSH2 0x1AA4 JUMP JUMPDEST SWAP2 POP POP SWAP3 SWAP2 POP POP JUMP JUMPDEST PUSH1 0x0 PUSH1 0x20 DUP3 DUP5 SUB SLT ISZERO PUSH2 0x1B1E JUMPI PUSH1 0x0 DUP1 REVERT JUMPDEST PUSH1 0x0 PUSH2 0x1B2C DUP5 DUP3 DUP6 ADD PUSH2 0x1AB9 JUMP JUMPDEST SWAP2 POP POP SWAP3 SWAP2 POP POP JUMP JUMPDEST PUSH1 0x0 DUP1 PUSH1 0x40 DUP4 DUP6 SUB SLT ISZERO PUSH2 0x1B48 JUMPI PUSH1 0x0 DUP1 REVERT JUMPDEST PUSH1 0x0 PUSH2 0x1B56 DUP6 DUP3 DUP7 ADD PUSH2 0x1AB9 JUMP JUMPDEST SWAP3 POP POP PUSH1 0x20 PUSH2 0x1B67 DUP6 DUP3 DUP7 ADD PUSH2 0x1AB9 JUMP JUMPDEST SWAP2 POP POP SWAP3 POP SWAP3 SWAP1 POP JUMP JUMPDEST PUSH1 0x0 DUP1 PUSH1 0x0 DUP1 PUSH1 0x80 DUP6 DUP8 SUB SLT ISZERO PUSH2 0x1B87 JUMPI PUSH1 0x0 DUP1 REVERT JUMPDEST PUSH1 0x0 PUSH2 0x1B95 DUP8 DUP3 DUP9 ADD PUSH2 0x1AB9 JUMP JUMPDEST SWAP5 POP POP PUSH1 0x20 PUSH2 0x1BA6 DUP8 DUP3 DUP9 ADD PUSH2 0x1AB9 JUMP JUMPDEST SWAP4 POP POP PUSH1 0x40 PUSH2 0x1BB7 DUP8 DUP3 DUP9 ADD PUSH2 0x1ACE JUMP JUMPDEST SWAP3 POP POP PUSH1 0x60 PUSH2 0x1BC8 DUP8 DUP3 DUP9 ADD PUSH2 0x1AA4 JUMP JUMPDEST SWAP2 POP POP SWAP3 SWAP6 SWAP2 SWAP5 POP SWAP3 POP JUMP JUMPDEST PUSH1 0x0 PUSH2 0x1BE0 DUP4 DUP4 PUSH2 0x1C59 JUMP JUMPDEST PUSH1 0x20 DUP4 ADD SWAP1 POP SWAP3 SWAP2 POP POP JUMP JUMPDEST PUSH2 0x1BF5 DUP2 PUSH2 0x2246 JUMP JUMPDEST DUP3 MSTORE POP POP JUMP JUMPDEST PUSH1 0x0 PUSH2 0x1C06 DUP3 PUSH2 0x20B2 JUMP JUMPDEST PUSH2 0x1C10 DUP2 DUP6 PUSH2 0x20E0 JUMP JUMPDEST SWAP4 POP PUSH2 0x1C1B DUP4 PUSH2 0x20A2 JUMP JUMPDEST DUP1 PUSH1 0x0 JUMPDEST DUP4 DUP2 LT ISZERO PUSH2 0x1C4C JUMPI DUP2 MLOAD PUSH2 0x1C33 DUP9 DUP3 PUSH2 0x1BD4 JUMP JUMPDEST SWAP8 POP PUSH2 0x1C3E DUP4 PUSH2 0x20D3 JUMP JUMPDEST SWAP3 POP POP PUSH1 0x1 DUP2 ADD SWAP1 POP PUSH2 0x1C1F JUMP JUMPDEST POP DUP6 SWAP4 POP POP POP POP SWAP3 SWAP2 POP POP JUMP JUMPDEST PUSH2 0x1C62 DUP2 PUSH2 0x2258 JUMP JUMPDEST DUP3 MSTORE POP POP JUMP JUMPDEST PUSH2 0x1C71 DUP2 PUSH2 0x2258 JUMP JUMPDEST DUP3 MSTORE POP POP JUMP JUMPDEST PUSH2 0x1C88 PUSH2 0x1C83 DUP3 PUSH2 0x2258 JUMP JUMPDEST PUSH2 0x239D JUMP JUMPDEST DUP3 MSTORE POP POP JUMP JUMPDEST PUSH1 0x0 PUSH2 0x1C99 DUP3 PUSH2 0x20BD JUMP JUMPDEST PUSH2 0x1CA3 DUP2 DUP6 PUSH2 0x20F1 JUMP JUMPDEST SWAP4 POP PUSH2 0x1CB3 DUP2 DUP6 PUSH1 0x20 DUP7 ADD PUSH2 0x229A JUMP JUMPDEST PUSH2 0x1CBC DUP2 PUSH2 0x2465 JUMP JUMPDEST DUP5 ADD SWAP2 POP POP SWAP3 SWAP2 POP POP JUMP JUMPDEST PUSH1 0x0 PUSH2 0x1CD2 DUP3 PUSH2 0x20C8 JUMP JUMPDEST PUSH2 0x1CDC DUP2 DUP6 PUSH2 0x2102 JUMP JUMPDEST SWAP4 POP PUSH2 0x1CEC DUP2 DUP6 PUSH1 0x20 DUP7 ADD PUSH2 0x229A JUMP JUMPDEST PUSH2 0x1CF5 DUP2 PUSH2 0x2465 JUMP JUMPDEST DUP5 ADD SWAP2 POP POP SWAP3 SWAP2 POP POP JUMP JUMPDEST PUSH1 0x0 PUSH2 0x1D0D PUSH1 0x2B DUP4 PUSH2 0x2102 JUMP JUMPDEST SWAP2 POP PUSH2 0x1D18 DUP3 PUSH2 0x2476 JUMP JUMPDEST PUSH1 0x40 DUP3 ADD SWAP1 POP SWAP2 SWAP1 POP JUMP JUMPDEST PUSH1 0x0 PUSH2 0x1D30 PUSH1 0x1C DUP4 PUSH2 0x2102 JUMP JUMPDEST SWAP2 POP PUSH2 0x1D3B DUP3 PUSH2 0x24C5 JUMP JUMPDEST PUSH1 0x20 DUP3 ADD SWAP1 POP SWAP2 SWAP1 POP JUMP JUMPDEST PUSH1 0x0 PUSH2 0x1D53 PUSH1 0x18 DUP4 PUSH2 0x2102 JUMP JUMPDEST SWAP2 POP PUSH2 0x1D5E DUP3 PUSH2 0x24EE JUMP JUMPDEST PUSH1 0x20 DUP3 ADD SWAP1 POP SWAP2 SWAP1 POP JUMP JUMPDEST PUSH1 0x0 PUSH2 0x1D76 PUSH1 0x1C DUP4 PUSH2 0x2102 JUMP JUMPDEST SWAP2 POP PUSH2 0x1D81 DUP3 PUSH2 0x2517 JUMP JUMPDEST PUSH1 0x20 DUP3 ADD SWAP1 POP SWAP2 SWAP1 POP JUMP JUMPDEST PUSH2 0x1D95 DUP2 PUSH2 0x2262 JUMP JUMPDEST DUP3 MSTORE POP POP JUMP JUMPDEST PUSH2 0x1DA4 DUP2 PUSH2 0x2290 JUMP JUMPDEST DUP3 MSTORE POP POP JUMP JUMPDEST PUSH1 0x0 PUSH2 0x1DB6 DUP3 DUP5 PUSH2 0x1C77 JUMP JUMPDEST PUSH1 0x20 DUP3 ADD SWAP2 POP DUP2 SWAP1 POP SWAP3 SWAP2 POP POP JUMP JUMPDEST PUSH1 0x0 PUSH1 0x20 DUP3 ADD SWAP1 POP PUSH2 0x1DDA PUSH1 0x0 DUP4 ADD DUP5 PUSH2 0x1BEC JUMP JUMPDEST SWAP3 SWAP2 POP POP JUMP JUMPDEST PUSH1 0x0 PUSH1 0x20 DUP3 ADD SWAP1 POP PUSH2 0x1DF5 PUSH1 0x0 DUP4 ADD DUP5 PUSH2 0x1C68 JUMP JUMPDEST SWAP3 SWAP2 POP POP JUMP JUMPDEST PUSH1 0x0 PUSH1 0x40 DUP3 ADD SWAP1 POP PUSH2 0x1E10 PUSH1 0x0 DUP4 ADD DUP6 PUSH2 0x1C68 JUMP JUMPDEST PUSH2 0x1E1D PUSH1 0x20 DUP4 ADD DUP5 PUSH2 0x1C68 JUMP JUMPDEST SWAP4 SWAP3 POP POP POP JUMP JUMPDEST PUSH1 0x0 PUSH2 0x160 DUP3 ADD SWAP1 POP PUSH2 0x1E3A PUSH1 0x0 DUP4 ADD DUP15 PUSH2 0x1C68 JUMP JUMPDEST PUSH2 0x1E47 PUSH1 0x20 DUP4 ADD DUP14 PUSH2 0x1C68 JUMP JUMPDEST DUP2 DUP2 SUB PUSH1 0x40 DUP4 ADD MSTORE PUSH2 0x1E59 DUP2 DUP13 PUSH2 0x1CC7 JUMP JUMPDEST SWAP1 POP DUP2 DUP2 SUB PUSH1 0x60 DUP4 ADD MSTORE PUSH2 0x1E6D DUP2 DUP12 PUSH2 0x1CC7 JUMP JUMPDEST SWAP1 POP PUSH2 0x1E7C PUSH1 0x80 DUP4 ADD DUP11 PUSH2 0x1C68 JUMP JUMPDEST PUSH2 0x1E89 PUSH1 0xA0 DUP4 ADD DUP10 PUSH2 0x1C68 JUMP JUMPDEST PUSH2 0x1E96 PUSH1 0xC0 DUP4 ADD DUP9 PUSH2 0x1C68 JUMP JUMPDEST PUSH2 0x1EA3 PUSH1 0xE0 DUP4 ADD DUP8 PUSH2 0x1C68 JUMP JUMPDEST PUSH2 0x1EB1 PUSH2 0x100 DUP4 ADD DUP7 PUSH2 0x1C68 JUMP JUMPDEST DUP2 DUP2 SUB PUSH2 0x120 DUP4 ADD MSTORE PUSH2 0x1EC4 DUP2 DUP6 PUSH2 0x1CC7 JUMP JUMPDEST SWAP1 POP PUSH2 0x1ED4 PUSH2 0x140 DUP4 ADD DUP5 PUSH2 0x1C68 JUMP JUMPDEST SWAP13 SWAP12 POP POP POP POP POP POP POP POP POP POP POP POP JUMP JUMPDEST PUSH1 0x0 PUSH1 0xC0 DUP3 ADD SWAP1 POP PUSH2 0x1EF9 PUSH1 0x0 DUP4 ADD DUP10 PUSH2 0x1C68 JUMP JUMPDEST PUSH2 0x1F06 PUSH1 0x20 DUP4 ADD DUP9 PUSH2 0x1C68 JUMP JUMPDEST PUSH2 0x1F13 PUSH1 0x40 DUP4 ADD DUP8 PUSH2 0x1D9B JUMP JUMPDEST PUSH2 0x1F20 PUSH1 0x60 DUP4 ADD DUP7 PUSH2 0x1D9B JUMP JUMPDEST PUSH2 0x1F2D PUSH1 0x80 DUP4 ADD DUP6 PUSH2 0x1C68 JUMP JUMPDEST PUSH2 0x1F3A PUSH1 0xA0 DUP4 ADD DUP5 PUSH2 0x1BEC JUMP JUMPDEST SWAP8 SWAP7 POP POP POP POP POP POP POP JUMP JUMPDEST PUSH1 0x0 PUSH1 0xE0 DUP3 ADD SWAP1 POP PUSH2 0x1F5A PUSH1 0x0 DUP4 ADD DUP11 PUSH2 0x1C68 JUMP JUMPDEST PUSH2 0x1F67 PUSH1 0x20 DUP4 ADD DUP10 PUSH2 0x1D8C JUMP JUMPDEST PUSH2 0x1F74 PUSH1 0x40 DUP4 ADD DUP9 PUSH2 0x1D8C JUMP JUMPDEST PUSH2 0x1F81 PUSH1 0x60 DUP4 ADD DUP8 PUSH2 0x1D8C JUMP JUMPDEST PUSH2 0x1F8E PUSH1 0x80 DUP4 ADD DUP7 PUSH2 0x1D9B JUMP JUMPDEST PUSH2 0x1F9B PUSH1 0xA0 DUP4 ADD DUP6 PUSH2 0x1D9B JUMP JUMPDEST DUP2 DUP2 SUB PUSH1 0xC0 DUP4 ADD MSTORE PUSH2 0x1FAD DUP2 DUP5 PUSH2 0x1BFB JUMP JUMPDEST SWAP1 POP SWAP9 SWAP8 POP POP POP POP POP POP POP POP JUMP JUMPDEST PUSH1 0x0 PUSH1 0x60 DUP3 ADD SWAP1 POP PUSH2 0x1FD0 PUSH1 0x0 DUP4 ADD DUP7 PUSH2 0x1C68 JUMP JUMPDEST PUSH2 0x1FDD PUSH1 0x20 DUP4 ADD DUP6 PUSH2 0x1D9B JUMP JUMPDEST PUSH2 0x1FEA PUSH1 0x40 DUP4 ADD DUP5 PUSH2 0x1C68 JUMP JUMPDEST SWAP5 SWAP4 POP POP POP POP JUMP JUMPDEST PUSH1 0x0 PUSH1 0x40 DUP3 ADD SWAP1 POP DUP2 DUP2 SUB PUSH1 0x0 DUP4 ADD MSTORE PUSH2 0x200C DUP2 DUP6 PUSH2 0x1C8E JUMP JUMPDEST SWAP1 POP PUSH2 0x201B PUSH1 0x20 DUP4 ADD DUP5 PUSH2 0x1D9B JUMP JUMPDEST SWAP4 SWAP3 POP POP POP JUMP JUMPDEST PUSH1 0x0 PUSH1 0x20 DUP3 ADD SWAP1 POP DUP2 DUP2 SUB PUSH1 0x0 DUP4 ADD MSTORE PUSH2 0x203B DUP2 PUSH2 0x1D00 JUMP JUMPDEST SWAP1 POP SWAP2 SWAP1 POP JUMP JUMPDEST PUSH1 0x0 PUSH1 0x20 DUP3 ADD SWAP1 POP DUP2 DUP2 SUB PUSH1 0x0 DUP4 ADD MSTORE PUSH2 0x205B DUP2 PUSH2 0x1D23 JUMP JUMPDEST SWAP1 POP SWAP2 SWAP1 POP JUMP JUMPDEST PUSH1 0x0 PUSH1 0x20 DUP3 ADD SWAP1 POP DUP2 DUP2 SUB PUSH1 0x0 DUP4 ADD MSTORE PUSH2 0x207B DUP2 PUSH2 0x1D46 JUMP JUMPDEST SWAP1 POP SWAP2 SWAP1 POP JUMP JUMPDEST PUSH1 0x0 PUSH1 0x20 DUP3 ADD SWAP1 POP DUP2 DUP2 SUB PUSH1 0x0 DUP4 ADD MSTORE PUSH2 0x209B DUP2 PUSH2 0x1D69 JUMP JUMPDEST SWAP1 POP SWAP2 SWAP1 POP JUMP JUMPDEST PUSH1 0x0 DUP2 SWAP1 POP PUSH1 0x20 DUP3 ADD SWAP1 POP SWAP2 SWAP1 POP JUMP JUMPDEST PUSH1 0x0 DUP2 MLOAD SWAP1 POP SWAP2 SWAP1 POP JUMP JUMPDEST PUSH1 0x0 DUP2 MLOAD SWAP1 POP SWAP2 SWAP1 POP JUMP JUMPDEST PUSH1 0x0 DUP2 MLOAD SWAP1 POP SWAP2 SWAP1 POP JUMP JUMPDEST PUSH1 0x0 PUSH1 0x20 DUP3 ADD SWAP1 POP SWAP2 SWAP1 POP JUMP JUMPDEST PUSH1 0x0 DUP3 DUP3 MSTORE PUSH1 0x20 DUP3 ADD SWAP1 POP SWAP3 SWAP2 POP POP JUMP JUMPDEST PUSH1 0x0 DUP3 DUP3 MSTORE PUSH1 0x20 DUP3 ADD SWAP1 POP SWAP3 SWAP2 POP POP JUMP JUMPDEST PUSH1 0x0 DUP3 DUP3 MSTORE PUSH1 0x20 DUP3 ADD SWAP1 POP SWAP3 SWAP2 POP POP JUMP JUMPDEST PUSH1 0x0 PUSH2 0x211E DUP3 PUSH2 0x2262 JUMP JUMPDEST SWAP2 POP PUSH2 0x2129 DUP4 PUSH2 0x2262 JUMP JUMPDEST SWAP3 POP DUP3 PUSH2 0xFFFF SUB DUP3 GT ISZERO PUSH2 0x2140 JUMPI PUSH2 0x213F PUSH2 0x23D8 JUMP JUMPDEST JUMPDEST DUP3 DUP3 ADD SWAP1 POP SWAP3 SWAP2 POP POP JUMP JUMPDEST PUSH1 0x0 PUSH2 0x2156 DUP3 PUSH2 0x2290 JUMP JUMPDEST SWAP2 POP PUSH2 0x2161 DUP4 PUSH2 0x2290 JUMP JUMPDEST SWAP3 POP DUP3 PUSH2 0x2171 JUMPI PUSH2 0x2170 PUSH2 0x2407 JUMP JUMPDEST JUMPDEST DUP3 DUP3 DIV SWAP1 POP SWAP3 SWAP2 POP POP JUMP JUMPDEST PUSH1 0x0 PUSH2 0x2187 DUP3 PUSH2 0x2262 JUMP JUMPDEST SWAP2 POP PUSH2 0x2192 DUP4 PUSH2 0x2262 JUMP JUMPDEST SWAP3 POP DUP2 PUSH2 0xFFFF DIV DUP4 GT DUP3 ISZERO ISZERO AND ISZERO PUSH2 0x21AD JUMPI PUSH2 0x21AC PUSH2 0x23D8 JUMP JUMPDEST JUMPDEST DUP3 DUP3 MUL SWAP1 POP SWAP3 SWAP2 POP POP JUMP JUMPDEST PUSH1 0x0 PUSH2 0x21C3 DUP3 PUSH2 0x2290 JUMP JUMPDEST SWAP2 POP PUSH2 0x21CE DUP4 PUSH2 0x2290 JUMP JUMPDEST SWAP3 POP DUP2 PUSH32 0xFFFFFFFFFFFFFFFFFFFFFFFFFFFFFFFFFFFFFFFFFFFFFFFFFFFFFFFFFFFFFFFF DIV DUP4 GT DUP3 ISZERO ISZERO AND ISZERO PUSH2 0x2207 JUMPI PUSH2 0x2206 PUSH2 0x23D8 JUMP JUMPDEST JUMPDEST DUP3 DUP3 MUL SWAP1 POP SWAP3 SWAP2 POP POP JUMP JUMPDEST PUSH1 0x0 PUSH2 0x221D DUP3 PUSH2 0x2290 JUMP JUMPDEST SWAP2 POP PUSH2 0x2228 DUP4 PUSH2 0x2290 JUMP JUMPDEST SWAP3 POP DUP3 DUP3 LT ISZERO PUSH2 0x223B JUMPI PUSH2 0x223A PUSH2 0x23D8 JUMP JUMPDEST JUMPDEST DUP3 DUP3 SUB SWAP1 POP SWAP3 SWAP2 POP POP JUMP JUMPDEST PUSH1 0x0 PUSH2 0x2251 DUP3 PUSH2 0x2270 JUMP JUMPDEST SWAP1 POP SWAP2 SWAP1 POP JUMP JUMPDEST PUSH1 0x0 DUP2 SWAP1 POP SWAP2 SWAP1 POP JUMP JUMPDEST PUSH1 0x0 PUSH2 0xFFFF DUP3 AND SWAP1 POP SWAP2 SWAP1 POP JUMP JUMPDEST PUSH1 0x0 PUSH20 0xFFFFFFFFFFFFFFFFFFFFFFFFFFFFFFFFFFFFFFFF DUP3 AND SWAP1 POP SWAP2 SWAP1 POP JUMP JUMPDEST PUSH1 0x0 DUP2 SWAP1 POP SWAP2 SWAP1 POP JUMP JUMPDEST PUSH1 0x0 JUMPDEST DUP4 DUP2 LT ISZERO PUSH2 0x22B8 JUMPI DUP1 DUP3 ADD MLOAD DUP2 DUP5 ADD MSTORE PUSH1 0x20 DUP2 ADD SWAP1 POP PUSH2 0x229D JUMP JUMPDEST DUP4 DUP2 GT ISZERO PUSH2 0x22C7 JUMPI PUSH1 0x0 DUP5 DUP5 ADD MSTORE JUMPDEST POP POP POP POP JUMP JUMPDEST PUSH1 0x0 PUSH2 0x22D8 DUP3 PUSH2 0x2262 JUMP JUMPDEST SWAP2 POP PUSH1 0x0 DUP3 EQ ISZERO PUSH2 0x22EC JUMPI PUSH2 0x22EB PUSH2 0x23D8 JUMP JUMPDEST JUMPDEST PUSH1 0x1 DUP3 SUB SWAP1 POP SWAP2 SWAP1 POP JUMP JUMPDEST PUSH1 0x0 PUSH1 0x2 DUP3 DIV SWAP1 POP PUSH1 0x1 DUP3 AND DUP1 PUSH2 0x230F JUMPI PUSH1 0x7F DUP3 AND SWAP2 POP JUMPDEST PUSH1 0x20 DUP3 LT DUP2 EQ ISZERO PUSH2 0x2323 JUMPI PUSH2 0x2322 PUSH2 0x2436 JUMP JUMPDEST JUMPDEST POP SWAP2 SWAP1 POP JUMP JUMPDEST PUSH1 0x0 PUSH2 0x2334 DUP3 PUSH2 0x2262 JUMP JUMPDEST SWAP2 POP PUSH2 0xFFFF DUP3 EQ ISZERO PUSH2 0x2349 JUMPI PUSH2 0x2348 PUSH2 0x23D8 JUMP JUMPDEST JUMPDEST PUSH1 0x1 DUP3 ADD SWAP1 POP SWAP2 SWAP1 POP JUMP JUMPDEST PUSH1 0x0 PUSH2 0x235F DUP3 PUSH2 0x2290 JUMP JUMPDEST SWAP2 POP PUSH32 0xFFFFFFFFFFFFFFFFFFFFFFFFFFFFFFFFFFFFFFFFFFFFFFFFFFFFFFFFFFFFFFFF DUP3 EQ ISZERO PUSH2 0x2392 JUMPI PUSH2 0x2391 PUSH2 0x23D8 JUMP JUMPDEST JUMPDEST PUSH1 0x1 DUP3 ADD SWAP1 POP SWAP2 SWAP1 POP JUMP JUMPDEST PUSH1 0x0 DUP2 SWAP1 POP SWAP2 SWAP1 POP JUMP JUMPDEST PUSH1 0x0 PUSH2 0x23B2 DUP3 PUSH2 0x2290 JUMP JUMPDEST SWAP2 POP PUSH2 0x23BD DUP4 PUSH2 0x2290 JUMP JUMPDEST SWAP3 POP DUP3 PUSH2 0x23CD JUMPI PUSH2 0x23CC PUSH2 0x2407 JUMP JUMPDEST JUMPDEST DUP3 DUP3 MOD SWAP1 POP SWAP3 SWAP2 POP POP JUMP JUMPDEST PUSH32 0x4E487B7100000000000000000000000000000000000000000000000000000000 PUSH1 0x0 MSTORE PUSH1 0x11 PUSH1 0x4 MSTORE PUSH1 0x24 PUSH1 0x0 REVERT JUMPDEST PUSH32 0x4E487B7100000000000000000000000000000000000000000000000000000000 PUSH1 0x0 MSTORE PUSH1 0x12 PUSH1 0x4 MSTORE PUSH1 0x24 PUSH1 0x0 REVERT JUMPDEST PUSH32 0x4E487B7100000000000000000000000000000000000000000000000000000000 PUSH1 0x0 MSTORE PUSH1 0x22 PUSH1 0x4 MSTORE PUSH1 0x24 PUSH1 0x0 REVERT JUMPDEST PUSH1 0x0 PUSH1 0x1F NOT PUSH1 0x1F DUP4 ADD AND SWAP1 POP SWAP2 SWAP1 POP JUMP JUMPDEST PUSH32 0x546865206964206F662074686520696E7375726564206973206E6F7420696E20 PUSH1 0x0 DUP3 ADD MSTORE PUSH32 0x74686520706F6C6963792E000000000000000000000000000000000000000000 PUSH1 0x20 DUP3 ADD MSTORE POP JUMP JUMPDEST PUSH32 0x59612065786973746520756E612050435220636F6E2065736520494400000000 PUSH1 0x0 DUP3 ADD MSTORE POP JUMP JUMPDEST PUSH32 0x4C6120504352207469656E652071756520657869737469720000000000000000 PUSH1 0x0 DUP3 ADD MSTORE POP JUMP JUMPDEST PUSH32 0x4E6F2065786973746520756E612050435220636F6E2065736120494400000000 PUSH1 0x0 DUP3 ADD MSTORE POP JUMP JUMPDEST PUSH2 0x2549 DUP2 PUSH2 0x2246 JUMP JUMPDEST DUP2 EQ PUSH2 0x2554 JUMPI PUSH1 0x0 DUP1 REVERT JUMPDEST POP JUMP JUMPDEST PUSH2 0x2560 DUP2 PUSH2 0x2258 JUMP JUMPDEST DUP2 EQ PUSH2 0x256B JUMPI PUSH1 0x0 DUP1 REVERT JUMPDEST POP JUMP JUMPDEST PUSH2 0x2577 DUP2 PUSH2 0x2290 JUMP JUMPDEST DUP2 EQ PUSH2 0x2582 JUMPI PUSH1 0x0 DUP1 REVERT JUMPDEST POP JUMP INVALID LOG2 PUSH5 0x6970667358 0x22 SLT KECCAK256 EQ 0xF8 PUSH22 0xBF8C85680F71C96273E0789BE81750F6AE484DC9C8FE 0xC4 0x29 SHR 0x29 0xE4 DUP13 0x5C PUSH5 0x736F6C6343 STOP ADDMOD SUB STOP CALLER "
    },
    "gasEstimates": {
      "creation": {
        "codeDepositCost": "1931800",
        "executionCost": "infinite",
        "totalCost": "infinite"
      },
      "external": {
        "addPCRtoInsured(bytes32,bytes32,uint256,address)": "infinite",
        "addSpcAddress(address)": "43212",
        "compensation()": "infinite",
        "deletePCR(bytes32)": "45446",
        "destructContract()": "31910",
        "getId()": "1143",
        "getInsuranceData()": "infinite",
        "getPCR(bytes32)": "infinite",
        "getTakerData()": "infinite",
        "getTakerId()": "1253",
        "serializeInsurance()": "infinite",
        "updatePCR(bytes32,bytes32)": "infinite"
      }
    },
    "methodIdentifiers": {
      "addPCRtoInsured(bytes32,bytes32,uint256,address)": "2f0519d4",
      "addSpcAddress(address)": "297e6306",
      "compensation()": "40d5ff58",
      "deletePCR(bytes32)": "62a681b3",
      "destructContract()": "9499e018",
      "getId()": "5d1ca631",
      "getInsuranceData()": "92ed93d0",
      "getPCR(bytes32)": "169e68c3",
      "getTakerData()": "e0caf0bd",
      "getTakerId()": "fc1c7a70",
      "serializeInsurance()": "236f45d9",
      "updatePCR(bytes32,bytes32)": "2357aef3"
    }
  },
  "storageLayout": {
    "storage": [
      {
        "astId": 225,
        "contract": "Insurance.sol:Insurance",
        "label": "owner",
        "offset": 0,
        "slot": "0",
        "type": "t_address_payable"
      },
      {
        "astId": 227,
        "contract": "Insurance.sol:Insurance",
        "label": "spcAddress",
        "offset": 0,
        "slot": "1",
        "type": "t_address"
      },
      {
        "astId": 229,
        "contract": "Insurance.sol:Insurance",
        "label": "spcAddressAdded",
        "offset": 20,
        "slot": "1",
        "type": "t_bool"
      },
      {
        "astId": 233,
        "contract": "Insurance.sol:Insurance",
        "label": "pcrLocation",
        "offset": 0,
        "slot": "2",
        "type": "t_mapping(t_bytes32,t_uint256)"
      },
      {
        "astId": 238,
        "contract": "Insurance.sol:Insurance",
        "label": "insuredPCRs",
        "offset": 0,
        "slot": "3",
        "type": "t_mapping(t_bytes32,t_array(t_bytes32)dyn_storage)"
      },
      {
        "astId": 242,
        "contract": "Insurance.sol:Insurance",
        "label": "insuredInInsurance",
        "offset": 0,
        "slot": "4",
        "type": "t_mapping(t_bytes32,t_bool)"
      },
      {
        "astId": 246,
        "contract": "Insurance.sol:Insurance",
        "label": "isPcrActive",
        "offset": 0,
        "slot": "5",
        "type": "t_mapping(t_bytes32,t_bool)"
      },
      {
        "astId": 250,
        "contract": "Insurance.sol:Insurance",
        "label": "pcrIdToInsuredId",
        "offset": 0,
        "slot": "6",
        "type": "t_mapping(t_bytes32,t_bytes32)"
      },
      {
        "astId": 254,
        "contract": "Insurance.sol:Insurance",
        "label": "insuredNegPcrHash",
        "offset": 0,
        "slot": "7",
        "type": "t_mapping(t_bytes32,t_bytes32)"
      },
      {
        "astId": 258,
        "contract": "Insurance.sol:Insurance",
        "label": "insuredNegPcrDate",
        "offset": 0,
        "slot": "8",
        "type": "t_mapping(t_bytes32,t_uint256)"
      },
      {
        "astId": 263,
        "contract": "Insurance.sol:Insurance",
        "label": "pcrIdToData",
        "offset": 0,
        "slot": "9",
        "type": "t_mapping(t_bytes32,t_struct(PcrData)223_storage)"
      },
      {
        "astId": 266,
        "contract": "Insurance.sol:Insurance",
        "label": "insuranceData",
        "offset": 0,
        "slot": "10",
        "type": "t_struct(InsuranceData)187_storage"
      },
      {
        "astId": 269,
        "contract": "Insurance.sol:Insurance",
        "label": "takerData",
        "offset": 0,
        "slot": "17",
        "type": "t_struct(TakerData)210_storage"
      },
      {
        "astId": 271,
        "contract": "Insurance.sol:Insurance",
        "label": "positivePcrTest",
        "offset": 0,
        "slot": "28",
        "type": "t_bool"
      },
      {
        "astId": 273,
        "contract": "Insurance.sol:Insurance",
        "label": "paymentEmitted",
        "offset": 1,
        "slot": "28",
        "type": "t_bool"
      },
      {
        "astId": 275,
        "contract": "Insurance.sol:Insurance",
        "label": "timePaymentEmitted",
        "offset": 0,
        "slot": "29",
        "type": "t_uint256"
      }
    ],
    "types": {
      "t_address": {
        "encoding": "inplace",
        "label": "address",
        "numberOfBytes": "20"
      },
      "t_address_payable": {
        "encoding": "inplace",
        "label": "address payable",
        "numberOfBytes": "20"
      },
      "t_array(t_bytes32)dyn_storage": {
        "base": "t_bytes32",
        "encoding": "dynamic_array",
        "label": "bytes32[]",
        "numberOfBytes": "32"
      },
      "t_bool": {
        "encoding": "inplace",
        "label": "bool",
        "numberOfBytes": "1"
      },
      "t_bytes32": {
        "encoding": "inplace",
        "label": "bytes32",
        "numberOfBytes": "32"
      },
      "t_mapping(t_bytes32,t_array(t_bytes32)dyn_storage)": {
        "encoding": "mapping",
        "key": "t_bytes32",
        "label": "mapping(bytes32 => bytes32[])",
        "numberOfBytes": "32",
        "value": "t_array(t_bytes32)dyn_storage"
      },
      "t_mapping(t_bytes32,t_bool)": {
        "encoding": "mapping",
        "key": "t_bytes32",
        "label": "mapping(bytes32 => bool)",
        "numberOfBytes": "32",
        "value": "t_bool"
      },
      "t_mapping(t_bytes32,t_bytes32)": {
        "encoding": "mapping",
        "key": "t_bytes32",
        "label": "mapping(bytes32 => bytes32)",
        "numberOfBytes": "32",
        "value": "t_bytes32"
      },
      "t_mapping(t_bytes32,t_struct(PcrData)223_storage)": {
        "encoding": "mapping",
        "key": "t_bytes32",
        "label": "mapping(bytes32 => struct Insurance.PcrData)",
        "numberOfBytes": "32",
        "value": "t_struct(PcrData)223_storage"
      },
      "t_mapping(t_bytes32,t_uint256)": {
        "encoding": "mapping",
        "key": "t_bytes32",
        "label": "mapping(bytes32 => uint256)",
        "numberOfBytes": "32",
        "value": "t_uint256"
      },
      "t_string_storage": {
        "encoding": "bytes",
        "label": "string",
        "numberOfBytes": "32"
      },
      "t_struct(InsuranceData)187_storage": {
        "encoding": "inplace",
        "label": "struct Insurance.InsuranceData",
        "members": [
          {
            "astId": 167,
            "contract": "Insurance.sol:Insurance",
            "label": "dailyCompensation",
            "offset": 0,
            "slot": "0",
            "type": "t_uint16"
          },
          {
            "astId": 169,
            "contract": "Insurance.sol:Insurance",
            "label": "daysToCompensate",
            "offset": 2,
            "slot": "0",
            "type": "t_uint16"
          },
          {
            "astId": 171,
            "contract": "Insurance.sol:Insurance",
            "label": "pcrNumber",
            "offset": 4,
            "slot": "0",
            "type": "t_uint16"
          },
          {
            "astId": 173,
            "contract": "Insurance.sol:Insurance",
            "label": "insuredNumber",
            "offset": 6,
            "slot": "0",
            "type": "t_uint16"
          },
          {
            "astId": 175,
            "contract": "Insurance.sol:Insurance",
            "label": "id",
            "offset": 0,
            "slot": "1",
            "type": "t_bytes32"
          },
          {
            "astId": 177,
            "contract": "Insurance.sol:Insurance",
            "label": "insuranceStartDate",
            "offset": 0,
            "slot": "2",
            "type": "t_uint256"
          },
          {
            "astId": 179,
            "contract": "Insurance.sol:Insurance",
            "label": "insuranceFinishDate",
            "offset": 0,
            "slot": "3",
            "type": "t_uint256"
          },
          {
            "astId": 181,
            "contract": "Insurance.sol:Insurance",
            "label": "contractDate",
            "offset": 0,
            "slot": "4",
            "type": "t_uint256"
          },
          {
            "astId": 184,
            "contract": "Insurance.sol:Insurance",
            "label": "insureds",
            "offset": 0,
            "slot": "5",
            "type": "t_array(t_bytes32)dyn_storage"
          },
          {
            "astId": 186,
            "contract": "Insurance.sol:Insurance",
            "label": "sinisterCompensation",
            "offset": 0,
            "slot": "6",
            "type": "t_uint256"
          }
        ],
        "numberOfBytes": "224"
      },
      "t_struct(PcrData)223_storage": {
        "encoding": "inplace",
        "label": "struct Insurance.PcrData",
        "members": [
          {
            "astId": 212,
            "contract": "Insurance.sol:Insurance",
            "label": "result",
            "offset": 0,
            "slot": "0",
            "type": "t_bytes32"
          },
          {
            "astId": 214,
            "contract": "Insurance.sol:Insurance",
            "label": "id",
            "offset": 0,
            "slot": "1",
            "type": "t_bytes32"
          },
          {
            "astId": 216,
            "contract": "Insurance.sol:Insurance",
            "label": "insuredId",
            "offset": 0,
            "slot": "2",
            "type": "t_bytes32"
          },
          {
            "astId": 218,
            "contract": "Insurance.sol:Insurance",
            "label": "requestDate",
            "offset": 0,
            "slot": "3",
            "type": "t_uint256"
          },
          {
            "astId": 220,
            "contract": "Insurance.sol:Insurance",
            "label": "resultDate",
            "offset": 0,
            "slot": "4",
            "type": "t_uint256"
          },
          {
            "astId": 222,
            "contract": "Insurance.sol:Insurance",
            "label": "contractAddress",
            "offset": 0,
            "slot": "5",
            "type": "t_address"
          }
        ],
        "numberOfBytes": "192"
      },
      "t_struct(TakerData)210_storage": {
        "encoding": "inplace",
        "label": "struct Insurance.TakerData",
        "members": [
          {
            "astId": 189,
            "contract": "Insurance.sol:Insurance",
            "label": "takerName",
            "offset": 0,
            "slot": "0",
            "type": "t_string_storage"
          },
          {
            "astId": 191,
            "contract": "Insurance.sol:Insurance",
            "label": "takerAddress",
            "offset": 0,
            "slot": "1",
            "type": "t_string_storage"
          },
          {
            "astId": 193,
            "contract": "Insurance.sol:Insurance",
            "label": "takerEmail",
            "offset": 0,
            "slot": "2",
            "type": "t_string_storage"
          },
          {
            "astId": 195,
            "contract": "Insurance.sol:Insurance",
            "label": "takerId",
            "offset": 0,
            "slot": "3",
            "type": "t_bytes32"
          },
          {
            "astId": 197,
            "contract": "Insurance.sol:Insurance",
            "label": "takerNif",
            "offset": 0,
            "slot": "4",
            "type": "t_bytes32"
          },
          {
            "astId": 199,
            "contract": "Insurance.sol:Insurance",
            "label": "takerPostalCode",
            "offset": 0,
            "slot": "5",
            "type": "t_bytes32"
          },
          {
            "astId": 201,
            "contract": "Insurance.sol:Insurance",
            "label": "takerTown",
            "offset": 0,
            "slot": "6",
            "type": "t_bytes32"
          },
          {
            "astId": 203,
            "contract": "Insurance.sol:Insurance",
            "label": "takerLocation",
            "offset": 0,
            "slot": "7",
            "type": "t_bytes32"
          },
          {
            "astId": 205,
            "contract": "Insurance.sol:Insurance",
            "label": "takerTelephone",
            "offset": 0,
            "slot": "8",
            "type": "t_bytes32"
          },
          {
            "astId": 207,
            "contract": "Insurance.sol:Insurance",
            "label": "takerMobile",
            "offset": 0,
            "slot": "9",
            "type": "t_bytes32"
          },
          {
            "astId": 209,
            "contract": "Insurance.sol:Insurance",
            "label": "takerIban",
            "offset": 0,
            "slot": "10",
            "type": "t_bytes32"
          }
        ],
        "numberOfBytes": "352"
      },
      "t_uint16": {
        "encoding": "inplace",
        "label": "uint16",
        "numberOfBytes": "2"
      },
      "t_uint256": {
        "encoding": "inplace",
        "label": "uint256",
        "numberOfBytes": "32"
      }
    }
  },
  "userdoc": {
    "events": {
      "positivePcr(bytes32,uint256,bytes32)": {
        "notice": "Events to emit the information about a sinister."
      }
    },
    "kind": "user",
    "methods": {
      "addPCRtoInsured(bytes32,bytes32,uint256,address)": {
        "notice": "Add new PCR to an insured."
      },
      "addSpcAddress(address)": {
        "notice": "Modify the address of the general contract. It only can be used 1 time."
      },
      "compensation()": {
        "notice": "Fires when the contract get a positive PCR."
      },
      "constructor": {
        "notice": "Fill the information of taker data and insurance data."
      },
      "deletePCR(bytes32)": {
        "notice": "Deletes a pcr already requested by an insured."
      },
      "destructContract()": {
        "notice": "Delete the contract of the blockchain."
      },
      "getId()": {
        "notice": "Returns only the insurance identifier."
      },
      "getInsuranceData()": {
        "notice": "Returns the information of the insurance data."
      },
      "getPCR(bytes32)": {
        "notice": "Returns the information of a PCR."
      },
      "getTakerData()": {
        "notice": "Returns the information of the taker data."
      },
      "getTakerId()": {
        "notice": "Returns only the taker identifier."
      },
      "serializeInsurance()": {
        "notice": "Convert all the information of the insurance into an array of bytes."
      },
      "updatePCR(bytes32,bytes32)": {
        "notice": "Update the result of a pending PCR that a insured had already registered."
      }
    },
    "version": 1
  }
}