{
  "abi": [
    {
      "inputs": [
        {
          "internalType": "bytes32",
          "name": "_id",
          "type": "bytes32"
        },
        {
          "internalType": "bytes32",
          "name": "_insuranceId",
          "type": "bytes32"
        },
        {
          "internalType": "bytes32",
          "name": "_insuredId",
          "type": "bytes32"
        },
        {
          "internalType": "uint256",
          "name": "_requestDate",
          "type": "uint256"
        }
      ],
      "stateMutability": "nonpayable",
      "type": "constructor"
    },
    {
      "anonymous": false,
      "inputs": [
        {
          "indexed": false,
          "internalType": "bytes32",
          "name": "insuranceId",
          "type": "bytes32"
        },
        {
          "indexed": false,
          "internalType": "bytes32",
          "name": "pcrId",
          "type": "bytes32"
        },
        {
          "indexed": false,
          "internalType": "bytes32",
          "name": "result",
          "type": "bytes32"
        },
        {
          "indexed": false,
          "internalType": "uint256",
          "name": "resultDate",
          "type": "uint256"
        }
      ],
      "name": "pcrUpdate",
      "type": "event"
    },
    {
      "inputs": [],
      "name": "deletePCR",
      "outputs": [],
      "stateMutability": "nonpayable",
      "type": "function"
    },
    {
      "inputs": [],
      "name": "destructContract",
      "outputs": [],
      "stateMutability": "nonpayable",
      "type": "function"
    },
    {
      "inputs": [],
      "name": "getId",
      "outputs": [
        {
          "internalType": "bytes32",
          "name": "id",
          "type": "bytes32"
        }
      ],
      "stateMutability": "view",
      "type": "function"
    },
    {
      "inputs": [],
      "name": "getPCRData",
      "outputs": [
        {
          "internalType": "bytes32",
          "name": "result",
          "type": "bytes32"
        },
        {
          "internalType": "bytes32",
          "name": "customerId",
          "type": "bytes32"
        },
        {
          "internalType": "uint256",
          "name": "requestDate",
          "type": "uint256"
        },
        {
          "internalType": "uint256",
          "name": "resultDate",
          "type": "uint256"
        },
        {
          "internalType": "bytes32",
          "name": "id",
          "type": "bytes32"
        },
        {
          "internalType": "bytes32",
          "name": "insuranceId",
          "type": "bytes32"
        }
      ],
      "stateMutability": "view",
      "type": "function"
    },
    {
      "inputs": [
        {
          "internalType": "bytes32",
          "name": "_result",
          "type": "bytes32"
        },
        {
          "internalType": "uint256",
          "name": "_resultDate",
          "type": "uint256"
        }
      ],
      "name": "updatePCR",
      "outputs": [],
      "stateMutability": "nonpayable",
      "type": "function"
    }
  ],
  "devdoc": {
    "author": "Eduardo Suarez Ojeda",
    "details": "The Contract represents the life cycle of a PCR linked to an insured.",
    "kind": "dev",
    "methods": {
      "deletePCR()": {
        "details": "Makes every method inaccessible except the one that returns the data."
      },
      "destructContract()": {
        "details": "Only use in extreme situations."
      }
    },
    "title": "PCR",
    "version": 1
  },
  "evm": {
    "assembly": "    /* \"PCR.sol\":157:2524  contract PCR {... */\n  mstore(0x40, 0x80)\n    /* \"PCR.sol\":751:1175  constructor(... */\n  callvalue\n  dup1\n  iszero\n  tag_1\n  jumpi\n  0x00\n  dup1\n  revert\ntag_1:\n  pop\n  mload(0x40)\n  sub(codesize, bytecodeSize)\n  dup1\n  bytecodeSize\n  dup4\n  codecopy\n  dup2\n  dup2\n  add\n  0x40\n  mstore\n  dup2\n  add\n  swap1\n  tag_2\n  swap2\n  swap1\n  tag_3\n  jump\t// in\ntag_2:\n    /* \"PCR.sol\":908:918  _insuredId */\n  dup2\n    /* \"PCR.sol\":888:895  pcrData */\n  0x01\n    /* \"PCR.sol\":888:905  pcrData.insuredId */\n  0x03\n  add\n    /* \"PCR.sol\":888:918  pcrData.insuredId = _insuredId */\n  dup2\n  swap1\n  sstore\n  pop\n    /* \"PCR.sol\":950:962  _insuranceId */\n  dup3\n    /* \"PCR.sol\":928:935  pcrData */\n  0x01\n    /* \"PCR.sol\":928:947  pcrData.insuranceId */\n  0x00\n  add\n    /* \"PCR.sol\":928:962  pcrData.insuranceId = _insuranceId */\n  dup2\n  swap1\n  sstore\n  pop\n    /* \"PCR.sol\":985:988  _id */\n  dup4\n    /* \"PCR.sol\":972:979  pcrData */\n  0x01\n    /* \"PCR.sol\":972:982  pcrData.id */\n  0x02\n  add\n    /* \"PCR.sol\":972:988  pcrData.id = _id */\n  dup2\n  swap1\n  sstore\n  pop\n    /* \"PCR.sol\":1014:1024  msg.sender */\n  caller\n    /* \"PCR.sol\":998:1003  owner */\n  0x00\n  dup1\n    /* \"PCR.sol\":998:1025  owner = payable(msg.sender) */\n  0x0100\n  exp\n  dup2\n  sload\n  dup2\n  0xffffffffffffffffffffffffffffffffffffffff\n  mul\n  not\n  and\n  swap1\n  dup4\n  0xffffffffffffffffffffffffffffffffffffffff\n  and\n  mul\n  or\n  swap1\n  sstore\n  pop\n    /* \"PCR.sol\":1047:1052  false */\n  0x00\n    /* \"PCR.sol\":1035:1044  completed */\n  dup1\n  0x14\n    /* \"PCR.sol\":1035:1052  completed = false */\n  0x0100\n  exp\n  dup2\n  sload\n  dup2\n  0xff\n  mul\n  not\n  and\n  swap1\n  dup4\n  iszero\n  iszero\n  mul\n  or\n  swap1\n  sstore\n  pop\n    /* \"PCR.sol\":1084:1096  _requestDate */\n  dup1\n    /* \"PCR.sol\":1062:1069  pcrData */\n  0x01\n    /* \"PCR.sol\":1062:1081  pcrData.requestDate */\n  0x04\n  add\n    /* \"PCR.sol\":1062:1096  pcrData.requestDate = _requestDate */\n  dup2\n  swap1\n  sstore\n  pop\n    /* \"PCR.sol\":1106:1134  pcrData.result = \"UNDEFINED\" */\n  0x554e444546494e45440000000000000000000000000000000000000000000000\n    /* \"PCR.sol\":1106:1113  pcrData */\n  0x01\n    /* \"PCR.sol\":1106:1120  pcrData.result */\n  dup1\n  add\n    /* \"PCR.sol\":1106:1134  pcrData.result = \"UNDEFINED\" */\n  dup2\n  swap1\n  sstore\n  pop\n    /* \"PCR.sol\":1154:1159  false */\n  0x00\n    /* \"PCR.sol\":1144:1151  deleted */\n  dup1\n  0x15\n    /* \"PCR.sol\":1144:1159  deleted = false */\n  0x0100\n  exp\n  dup2\n  sload\n  dup2\n  0xff\n  mul\n  not\n  and\n  swap1\n  dup4\n  iszero\n  iszero\n  mul\n  or\n  swap1\n  sstore\n  pop\n    /* \"PCR.sol\":751:1175  constructor(... */\n  pop\n  pop\n  pop\n  pop\n    /* \"PCR.sol\":157:2524  contract PCR {... */\n  jump(tag_6)\n    /* \"#utility.yul\":7:150   */\ntag_8:\n  0x00\n    /* \"#utility.yul\":95:101   */\n  dup2\n    /* \"#utility.yul\":89:102   */\n  mload\n    /* \"#utility.yul\":80:102   */\n  swap1\n  pop\n    /* \"#utility.yul\":111:144   */\n  tag_10\n    /* \"#utility.yul\":138:143   */\n  dup2\n    /* \"#utility.yul\":111:144   */\n  tag_11\n  jump\t// in\ntag_10:\n    /* \"#utility.yul\":70:150   */\n  swap3\n  swap2\n  pop\n  pop\n  jump\t// out\n    /* \"#utility.yul\":156:299   */\ntag_12:\n  0x00\n    /* \"#utility.yul\":244:250   */\n  dup2\n    /* \"#utility.yul\":238:251   */\n  mload\n    /* \"#utility.yul\":229:251   */\n  swap1\n  pop\n    /* \"#utility.yul\":260:293   */\n  tag_14\n    /* \"#utility.yul\":287:292   */\n  dup2\n    /* \"#utility.yul\":260:293   */\n  tag_15\n  jump\t// in\ntag_14:\n    /* \"#utility.yul\":219:299   */\n  swap3\n  swap2\n  pop\n  pop\n  jump\t// out\n    /* \"#utility.yul\":305:1058   */\ntag_3:\n  0x00\n  dup1\n  0x00\n  dup1\n    /* \"#utility.yul\":475:478   */\n  0x80\n    /* \"#utility.yul\":463:472   */\n  dup6\n    /* \"#utility.yul\":454:461   */\n  dup8\n    /* \"#utility.yul\":450:473   */\n  sub\n    /* \"#utility.yul\":446:479   */\n  slt\n    /* \"#utility.yul\":443:445   */\n  iszero\n  tag_17\n  jumpi\n    /* \"#utility.yul\":492:493   */\n  0x00\n    /* \"#utility.yul\":489:490   */\n  dup1\n    /* \"#utility.yul\":482:494   */\n  revert\n    /* \"#utility.yul\":443:445   */\ntag_17:\n    /* \"#utility.yul\":535:536   */\n  0x00\n    /* \"#utility.yul\":560:624   */\n  tag_18\n    /* \"#utility.yul\":616:623   */\n  dup8\n    /* \"#utility.yul\":607:613   */\n  dup3\n    /* \"#utility.yul\":596:605   */\n  dup9\n    /* \"#utility.yul\":592:614   */\n  add\n    /* \"#utility.yul\":560:624   */\n  tag_8\n  jump\t// in\ntag_18:\n    /* \"#utility.yul\":550:624   */\n  swap5\n  pop\n    /* \"#utility.yul\":506:634   */\n  pop\n    /* \"#utility.yul\":673:675   */\n  0x20\n    /* \"#utility.yul\":699:763   */\n  tag_19\n    /* \"#utility.yul\":755:762   */\n  dup8\n    /* \"#utility.yul\":746:752   */\n  dup3\n    /* \"#utility.yul\":735:744   */\n  dup9\n    /* \"#utility.yul\":731:753   */\n  add\n    /* \"#utility.yul\":699:763   */\n  tag_8\n  jump\t// in\ntag_19:\n    /* \"#utility.yul\":689:763   */\n  swap4\n  pop\n    /* \"#utility.yul\":644:773   */\n  pop\n    /* \"#utility.yul\":812:814   */\n  0x40\n    /* \"#utility.yul\":838:902   */\n  tag_20\n    /* \"#utility.yul\":894:901   */\n  dup8\n    /* \"#utility.yul\":885:891   */\n  dup3\n    /* \"#utility.yul\":874:883   */\n  dup9\n    /* \"#utility.yul\":870:892   */\n  add\n    /* \"#utility.yul\":838:902   */\n  tag_8\n  jump\t// in\ntag_20:\n    /* \"#utility.yul\":828:902   */\n  swap3\n  pop\n    /* \"#utility.yul\":783:912   */\n  pop\n    /* \"#utility.yul\":951:953   */\n  0x60\n    /* \"#utility.yul\":977:1041   */\n  tag_21\n    /* \"#utility.yul\":1033:1040   */\n  dup8\n    /* \"#utility.yul\":1024:1030   */\n  dup3\n    /* \"#utility.yul\":1013:1022   */\n  dup9\n    /* \"#utility.yul\":1009:1031   */\n  add\n    /* \"#utility.yul\":977:1041   */\n  tag_12\n  jump\t// in\ntag_21:\n    /* \"#utility.yul\":967:1041   */\n  swap2\n  pop\n    /* \"#utility.yul\":922:1051   */\n  pop\n    /* \"#utility.yul\":433:1058   */\n  swap3\n  swap6\n  swap2\n  swap5\n  pop\n  swap3\n  pop\n  jump\t// out\n    /* \"#utility.yul\":1064:1141   */\ntag_22:\n  0x00\n    /* \"#utility.yul\":1130:1135   */\n  dup2\n    /* \"#utility.yul\":1119:1135   */\n  swap1\n  pop\n    /* \"#utility.yul\":1109:1141   */\n  swap2\n  swap1\n  pop\n  jump\t// out\n    /* \"#utility.yul\":1147:1224   */\ntag_24:\n  0x00\n    /* \"#utility.yul\":1213:1218   */\n  dup2\n    /* \"#utility.yul\":1202:1218   */\n  swap1\n  pop\n    /* \"#utility.yul\":1192:1224   */\n  swap2\n  swap1\n  pop\n  jump\t// out\n    /* \"#utility.yul\":1230:1352   */\ntag_11:\n    /* \"#utility.yul\":1303:1327   */\n  tag_27\n    /* \"#utility.yul\":1321:1326   */\n  dup2\n    /* \"#utility.yul\":1303:1327   */\n  tag_22\n  jump\t// in\ntag_27:\n    /* \"#utility.yul\":1296:1301   */\n  dup2\n    /* \"#utility.yul\":1293:1328   */\n  eq\n    /* \"#utility.yul\":1283:1285   */\n  tag_28\n  jumpi\n    /* \"#utility.yul\":1342:1343   */\n  0x00\n    /* \"#utility.yul\":1339:1340   */\n  dup1\n    /* \"#utility.yul\":1332:1344   */\n  revert\n    /* \"#utility.yul\":1283:1285   */\ntag_28:\n    /* \"#utility.yul\":1273:1352   */\n  pop\n  jump\t// out\n    /* \"#utility.yul\":1358:1480   */\ntag_15:\n    /* \"#utility.yul\":1431:1455   */\n  tag_30\n    /* \"#utility.yul\":1449:1454   */\n  dup2\n    /* \"#utility.yul\":1431:1455   */\n  tag_24\n  jump\t// in\ntag_30:\n    /* \"#utility.yul\":1424:1429   */\n  dup2\n    /* \"#utility.yul\":1421:1456   */\n  eq\n    /* \"#utility.yul\":1411:1413   */\n  tag_31\n  jumpi\n    /* \"#utility.yul\":1470:1471   */\n  0x00\n    /* \"#utility.yul\":1467:1468   */\n  dup1\n    /* \"#utility.yul\":1460:1472   */\n  revert\n    /* \"#utility.yul\":1411:1413   */\ntag_31:\n    /* \"#utility.yul\":1401:1480   */\n  pop\n  jump\t// out\n    /* \"PCR.sol\":157:2524  contract PCR {... */\ntag_6:\n  dataSize(sub_0)\n  dup1\n  dataOffset(sub_0)\n  0x00\n  codecopy\n  0x00\n  return\nstop\n\nsub_0: assembly {\n        /* \"PCR.sol\":157:2524  contract PCR {... */\n      mstore(0x40, 0x80)\n      callvalue\n      dup1\n      iszero\n      tag_1\n      jumpi\n      0x00\n      dup1\n      revert\n    tag_1:\n      pop\n      jumpi(tag_2, lt(calldatasize, 0x04))\n      shr(0xe0, calldataload(0x00))\n      dup1\n      0x03202017\n      eq\n      tag_3\n      jumpi\n      dup1\n      0x34b1794c\n      eq\n      tag_4\n      jumpi\n      dup1\n      0x512a0c86\n      eq\n      tag_5\n      jumpi\n      dup1\n      0x5d1ca631\n      eq\n      tag_6\n      jumpi\n      dup1\n      0x9499e018\n      eq\n      tag_7\n      jumpi\n    tag_2:\n      0x00\n      dup1\n      revert\n        /* \"PCR.sol\":1593:1938  function getPCRData() external view returns(... */\n    tag_3:\n      tag_8\n      tag_9\n      jump\t// in\n    tag_8:\n      mload(0x40)\n      tag_10\n      swap7\n      swap6\n      swap5\n      swap4\n      swap3\n      swap2\n      swap1\n      tag_11\n      jump\t// in\n    tag_10:\n      mload(0x40)\n      dup1\n      swap2\n      sub\n      swap1\n      return\n        /* \"PCR.sol\":2209:2305  function deletePCR() notDeleted external {... */\n    tag_4:\n      tag_12\n      tag_13\n      jump\t// in\n    tag_12:\n      stop\n        /* \"PCR.sol\":1245:1553  function updatePCR(bytes32 _result, uint256 _resultDate) external notDeleted {... */\n    tag_5:\n      tag_14\n      0x04\n      dup1\n      calldatasize\n      sub\n      dup2\n      add\n      swap1\n      tag_15\n      swap2\n      swap1\n      tag_16\n      jump\t// in\n    tag_15:\n      tag_17\n      jump\t// in\n    tag_14:\n      stop\n        /* \"PCR.sol\":1985:2081  function getId() external view notDeleted returns(bytes32 id) {... */\n    tag_6:\n      tag_18\n      tag_19\n      jump\t// in\n    tag_18:\n      mload(0x40)\n      tag_20\n      swap2\n      swap1\n      tag_21\n      jump\t// in\n    tag_20:\n      mload(0x40)\n      dup1\n      swap2\n      sub\n      swap1\n      return\n        /* \"PCR.sol\":2411:2522  function destructContract() external {... */\n    tag_7:\n      tag_22\n      tag_23\n      jump\t// in\n    tag_22:\n      stop\n        /* \"PCR.sol\":1593:1938  function getPCRData() external view returns(... */\n    tag_9:\n        /* \"PCR.sol\":1646:1660  bytes32 result */\n      0x00\n        /* \"PCR.sol\":1671:1689  bytes32 customerId */\n      dup1\n        /* \"PCR.sol\":1700:1719  uint256 requestDate */\n      0x00\n        /* \"PCR.sol\":1730:1748  uint256 resultDate */\n      dup1\n        /* \"PCR.sol\":1759:1769  bytes32 id */\n      0x00\n        /* \"PCR.sol\":1779:1798  bytes32 insuranceId */\n      dup1\n        /* \"PCR.sol\":1823:1830  pcrData */\n      0x01\n        /* \"PCR.sol\":1823:1837  pcrData.result */\n      dup1\n      add\n      sload\n        /* \"PCR.sol\":1839:1846  pcrData */\n      0x01\n        /* \"PCR.sol\":1839:1856  pcrData.insuredId */\n      0x03\n      add\n      sload\n        /* \"PCR.sol\":1858:1865  pcrData */\n      0x01\n        /* \"PCR.sol\":1858:1877  pcrData.requestDate */\n      0x04\n      add\n      sload\n        /* \"PCR.sol\":1879:1886  pcrData */\n      0x01\n        /* \"PCR.sol\":1879:1897  pcrData.resultDate */\n      0x05\n      add\n      sload\n        /* \"PCR.sol\":1899:1906  pcrData */\n      0x01\n        /* \"PCR.sol\":1899:1909  pcrData.id */\n      0x02\n      add\n      sload\n        /* \"PCR.sol\":1911:1918  pcrData */\n      0x01\n        /* \"PCR.sol\":1911:1930  pcrData.insuranceId */\n      0x00\n      add\n      sload\n        /* \"PCR.sol\":1815:1931  return (pcrData.result, pcrData.insuredId, pcrData.requestDate, pcrData.resultDate, pcrData.id, pcrData.insuranceId) */\n      swap6\n      pop\n      swap6\n      pop\n      swap6\n      pop\n      swap6\n      pop\n      swap6\n      pop\n      swap6\n      pop\n        /* \"PCR.sol\":1593:1938  function getPCRData() external view returns(... */\n      swap1\n      swap2\n      swap3\n      swap4\n      swap5\n      swap6\n      jump\t// out\n        /* \"PCR.sol\":2209:2305  function deletePCR() notDeleted external {... */\n    tag_13:\n        /* \"PCR.sol\":653:660  deleted */\n      0x00\n      0x15\n      swap1\n      sload\n      swap1\n      0x0100\n      exp\n      swap1\n      div\n      0xff\n      and\n        /* \"PCR.sol\":652:660  !deleted */\n      iszero\n        /* \"PCR.sol\":644:691  require(!deleted, \"This PCR has been deleted.\") */\n      tag_26\n      jumpi\n      mload(0x40)\n      0x08c379a000000000000000000000000000000000000000000000000000000000\n      dup2\n      mstore\n      0x04\n      add\n      tag_27\n      swap1\n      tag_28\n      jump\t// in\n    tag_27:\n      mload(0x40)\n      dup1\n      swap2\n      sub\n      swap1\n      revert\n    tag_26:\n        /* \"PCR.sol\":2270:2274  true */\n      0x01\n        /* \"PCR.sol\":2260:2267  deleted */\n      0x00\n      0x15\n        /* \"PCR.sol\":2260:2274  deleted = true */\n      0x0100\n      exp\n      dup2\n      sload\n      dup2\n      0xff\n      mul\n      not\n      and\n      swap1\n      dup4\n      iszero\n      iszero\n      mul\n      or\n      swap1\n      sstore\n      pop\n        /* \"PCR.sol\":2291:2298  pcrData */\n      0x01\n      0x00\n        /* \"PCR.sol\":2284:2298  delete pcrData */\n      dup1\n      dup3\n      add\n      0x00\n      swap1\n      sstore\n      0x01\n      dup3\n      add\n      0x00\n      swap1\n      sstore\n      0x02\n      dup3\n      add\n      0x00\n      swap1\n      sstore\n      0x03\n      dup3\n      add\n      0x00\n      swap1\n      sstore\n      0x04\n      dup3\n      add\n      0x00\n      swap1\n      sstore\n      0x05\n      dup3\n      add\n      0x00\n      swap1\n      sstore\n      pop\n      pop\n        /* \"PCR.sol\":2209:2305  function deletePCR() notDeleted external {... */\n      jump\t// out\n        /* \"PCR.sol\":1245:1553  function updatePCR(bytes32 _result, uint256 _resultDate) external notDeleted {... */\n    tag_17:\n        /* \"PCR.sol\":653:660  deleted */\n      0x00\n      0x15\n      swap1\n      sload\n      swap1\n      0x0100\n      exp\n      swap1\n      div\n      0xff\n      and\n        /* \"PCR.sol\":652:660  !deleted */\n      iszero\n        /* \"PCR.sol\":644:691  require(!deleted, \"This PCR has been deleted.\") */\n      tag_31\n      jumpi\n      mload(0x40)\n      0x08c379a000000000000000000000000000000000000000000000000000000000\n      dup2\n      mstore\n      0x04\n      add\n      tag_32\n      swap1\n      tag_28\n      jump\t// in\n    tag_32:\n      mload(0x40)\n      dup1\n      swap2\n      sub\n      swap1\n      revert\n    tag_31:\n        /* \"PCR.sol\":1341:1350  completed */\n      0x00\n      0x14\n      swap1\n      sload\n      swap1\n      0x0100\n      exp\n      swap1\n      div\n      0xff\n      and\n        /* \"PCR.sol\":1340:1350  !completed */\n      iszero\n        /* \"PCR.sol\":1332:1351  require(!completed) */\n      tag_34\n      jumpi\n      0x00\n      dup1\n      revert\n    tag_34:\n        /* \"PCR.sol\":1373:1377  true */\n      0x01\n        /* \"PCR.sol\":1361:1370  completed */\n      0x00\n      0x14\n        /* \"PCR.sol\":1361:1377  completed = true */\n      0x0100\n      exp\n      dup2\n      sload\n      dup2\n      0xff\n      mul\n      not\n      and\n      swap1\n      dup4\n      iszero\n      iszero\n      mul\n      or\n      swap1\n      sstore\n      pop\n        /* \"PCR.sol\":1404:1411  _result */\n      dup2\n        /* \"PCR.sol\":1387:1394  pcrData */\n      0x01\n        /* \"PCR.sol\":1387:1401  pcrData.result */\n      dup1\n      add\n        /* \"PCR.sol\":1387:1411  pcrData.result = _result */\n      dup2\n      swap1\n      sstore\n      pop\n        /* \"PCR.sol\":1442:1453  _resultDate */\n      dup1\n        /* \"PCR.sol\":1421:1428  pcrData */\n      0x01\n        /* \"PCR.sol\":1421:1439  pcrData.resultDate */\n      0x05\n      add\n        /* \"PCR.sol\":1421:1453  pcrData.resultDate = _resultDate */\n      dup2\n      swap1\n      sstore\n      pop\n        /* \"PCR.sol\":1468:1546  pcrUpdate(pcrData.insuranceId, pcrData.id, pcrData.result, pcrData.resultDate) */\n      0xa0f53cc16ce55b7914839af2c6e52aa179efd63404bb6cb37126faacecee5adb\n        /* \"PCR.sol\":1478:1485  pcrData */\n      0x01\n        /* \"PCR.sol\":1478:1497  pcrData.insuranceId */\n      0x00\n      add\n      sload\n        /* \"PCR.sol\":1499:1506  pcrData */\n      0x01\n        /* \"PCR.sol\":1499:1509  pcrData.id */\n      0x02\n      add\n      sload\n        /* \"PCR.sol\":1511:1518  pcrData */\n      0x01\n        /* \"PCR.sol\":1511:1525  pcrData.result */\n      dup1\n      add\n      sload\n        /* \"PCR.sol\":1527:1534  pcrData */\n      0x01\n        /* \"PCR.sol\":1527:1545  pcrData.resultDate */\n      0x05\n      add\n      sload\n        /* \"PCR.sol\":1468:1546  pcrUpdate(pcrData.insuranceId, pcrData.id, pcrData.result, pcrData.resultDate) */\n      mload(0x40)\n      tag_35\n      swap5\n      swap4\n      swap3\n      swap2\n      swap1\n      tag_36\n      jump\t// in\n    tag_35:\n      mload(0x40)\n      dup1\n      swap2\n      sub\n      swap1\n      log1\n        /* \"PCR.sol\":1245:1553  function updatePCR(bytes32 _result, uint256 _resultDate) external notDeleted {... */\n      pop\n      pop\n      jump\t// out\n        /* \"PCR.sol\":1985:2081  function getId() external view notDeleted returns(bytes32 id) {... */\n    tag_19:\n        /* \"PCR.sol\":2035:2045  bytes32 id */\n      0x00\n        /* \"PCR.sol\":653:660  deleted */\n      dup1\n      0x15\n      swap1\n      sload\n      swap1\n      0x0100\n      exp\n      swap1\n      div\n      0xff\n      and\n        /* \"PCR.sol\":652:660  !deleted */\n      iszero\n        /* \"PCR.sol\":644:691  require(!deleted, \"This PCR has been deleted.\") */\n      tag_38\n      jumpi\n      mload(0x40)\n      0x08c379a000000000000000000000000000000000000000000000000000000000\n      dup2\n      mstore\n      0x04\n      add\n      tag_39\n      swap1\n      tag_28\n      jump\t// in\n    tag_39:\n      mload(0x40)\n      dup1\n      swap2\n      sub\n      swap1\n      revert\n    tag_38:\n        /* \"PCR.sol\":2064:2071  pcrData */\n      0x01\n        /* \"PCR.sol\":2064:2074  pcrData.id */\n      0x02\n      add\n      sload\n        /* \"PCR.sol\":2057:2074  return pcrData.id */\n      swap1\n      pop\n        /* \"PCR.sol\":1985:2081  function getId() external view notDeleted returns(bytes32 id) {... */\n      swap1\n      jump\t// out\n        /* \"PCR.sol\":2411:2522  function destructContract() external {... */\n    tag_23:\n        /* \"PCR.sol\":2480:2485  owner */\n      0x00\n      dup1\n      sload\n      swap1\n      0x0100\n      exp\n      swap1\n      div\n      0xffffffffffffffffffffffffffffffffffffffff\n      and\n        /* \"PCR.sol\":2466:2485  msg.sender == owner */\n      0xffffffffffffffffffffffffffffffffffffffff\n      and\n        /* \"PCR.sol\":2466:2476  msg.sender */\n      caller\n        /* \"PCR.sol\":2466:2485  msg.sender == owner */\n      0xffffffffffffffffffffffffffffffffffffffff\n      and\n      eq\n        /* \"PCR.sol\":2458:2486  require(msg.sender == owner) */\n      tag_42\n      jumpi\n      0x00\n      dup1\n      revert\n    tag_42:\n        /* \"PCR.sol\":2509:2514  owner */\n      0x00\n      dup1\n      sload\n      swap1\n      0x0100\n      exp\n      swap1\n      div\n      0xffffffffffffffffffffffffffffffffffffffff\n      and\n        /* \"PCR.sol\":2496:2515  selfdestruct(owner) */\n      0xffffffffffffffffffffffffffffffffffffffff\n      and\n      selfdestruct\n        /* \"#utility.yul\":7:146   */\n    tag_44:\n      0x00\n        /* \"#utility.yul\":91:97   */\n      dup2\n        /* \"#utility.yul\":78:98   */\n      calldataload\n        /* \"#utility.yul\":69:98   */\n      swap1\n      pop\n        /* \"#utility.yul\":107:140   */\n      tag_46\n        /* \"#utility.yul\":134:139   */\n      dup2\n        /* \"#utility.yul\":107:140   */\n      tag_47\n      jump\t// in\n    tag_46:\n        /* \"#utility.yul\":59:146   */\n      swap3\n      swap2\n      pop\n      pop\n      jump\t// out\n        /* \"#utility.yul\":152:291   */\n    tag_48:\n      0x00\n        /* \"#utility.yul\":236:242   */\n      dup2\n        /* \"#utility.yul\":223:243   */\n      calldataload\n        /* \"#utility.yul\":214:243   */\n      swap1\n      pop\n        /* \"#utility.yul\":252:285   */\n      tag_50\n        /* \"#utility.yul\":279:284   */\n      dup2\n        /* \"#utility.yul\":252:285   */\n      tag_51\n      jump\t// in\n    tag_50:\n        /* \"#utility.yul\":204:291   */\n      swap3\n      swap2\n      pop\n      pop\n      jump\t// out\n        /* \"#utility.yul\":297:704   */\n    tag_16:\n      0x00\n      dup1\n        /* \"#utility.yul\":422:424   */\n      0x40\n        /* \"#utility.yul\":410:419   */\n      dup4\n        /* \"#utility.yul\":401:408   */\n      dup6\n        /* \"#utility.yul\":397:420   */\n      sub\n        /* \"#utility.yul\":393:425   */\n      slt\n        /* \"#utility.yul\":390:392   */\n      iszero\n      tag_53\n      jumpi\n        /* \"#utility.yul\":438:439   */\n      0x00\n        /* \"#utility.yul\":435:436   */\n      dup1\n        /* \"#utility.yul\":428:440   */\n      revert\n        /* \"#utility.yul\":390:392   */\n    tag_53:\n        /* \"#utility.yul\":481:482   */\n      0x00\n        /* \"#utility.yul\":506:559   */\n      tag_54\n        /* \"#utility.yul\":551:558   */\n      dup6\n        /* \"#utility.yul\":542:548   */\n      dup3\n        /* \"#utility.yul\":531:540   */\n      dup7\n        /* \"#utility.yul\":527:549   */\n      add\n        /* \"#utility.yul\":506:559   */\n      tag_44\n      jump\t// in\n    tag_54:\n        /* \"#utility.yul\":496:559   */\n      swap3\n      pop\n        /* \"#utility.yul\":452:569   */\n      pop\n        /* \"#utility.yul\":608:610   */\n      0x20\n        /* \"#utility.yul\":634:687   */\n      tag_55\n        /* \"#utility.yul\":679:686   */\n      dup6\n        /* \"#utility.yul\":670:676   */\n      dup3\n        /* \"#utility.yul\":659:668   */\n      dup7\n        /* \"#utility.yul\":655:677   */\n      add\n        /* \"#utility.yul\":634:687   */\n      tag_48\n      jump\t// in\n    tag_55:\n        /* \"#utility.yul\":624:687   */\n      swap2\n      pop\n        /* \"#utility.yul\":579:697   */\n      pop\n        /* \"#utility.yul\":380:704   */\n      swap3\n      pop\n      swap3\n      swap1\n      pop\n      jump\t// out\n        /* \"#utility.yul\":710:828   */\n    tag_56:\n        /* \"#utility.yul\":797:821   */\n      tag_58\n        /* \"#utility.yul\":815:820   */\n      dup2\n        /* \"#utility.yul\":797:821   */\n      tag_59\n      jump\t// in\n    tag_58:\n        /* \"#utility.yul\":792:795   */\n      dup3\n        /* \"#utility.yul\":785:822   */\n      mstore\n        /* \"#utility.yul\":775:828   */\n      pop\n      pop\n      jump\t// out\n        /* \"#utility.yul\":834:1200   */\n    tag_60:\n      0x00\n        /* \"#utility.yul\":997:1064   */\n      tag_62\n        /* \"#utility.yul\":1061:1063   */\n      0x1a\n        /* \"#utility.yul\":1056:1059   */\n      dup4\n        /* \"#utility.yul\":997:1064   */\n      tag_63\n      jump\t// in\n    tag_62:\n        /* \"#utility.yul\":990:1064   */\n      swap2\n      pop\n        /* \"#utility.yul\":1073:1166   */\n      tag_64\n        /* \"#utility.yul\":1162:1165   */\n      dup3\n        /* \"#utility.yul\":1073:1166   */\n      tag_65\n      jump\t// in\n    tag_64:\n        /* \"#utility.yul\":1191:1193   */\n      0x20\n        /* \"#utility.yul\":1186:1189   */\n      dup3\n        /* \"#utility.yul\":1182:1194   */\n      add\n        /* \"#utility.yul\":1175:1194   */\n      swap1\n      pop\n        /* \"#utility.yul\":980:1200   */\n      swap2\n      swap1\n      pop\n      jump\t// out\n        /* \"#utility.yul\":1206:1324   */\n    tag_66:\n        /* \"#utility.yul\":1293:1317   */\n      tag_68\n        /* \"#utility.yul\":1311:1316   */\n      dup2\n        /* \"#utility.yul\":1293:1317   */\n      tag_69\n      jump\t// in\n    tag_68:\n        /* \"#utility.yul\":1288:1291   */\n      dup3\n        /* \"#utility.yul\":1281:1318   */\n      mstore\n        /* \"#utility.yul\":1271:1324   */\n      pop\n      pop\n      jump\t// out\n        /* \"#utility.yul\":1330:1552   */\n    tag_21:\n      0x00\n        /* \"#utility.yul\":1461:1463   */\n      0x20\n        /* \"#utility.yul\":1450:1459   */\n      dup3\n        /* \"#utility.yul\":1446:1464   */\n      add\n        /* \"#utility.yul\":1438:1464   */\n      swap1\n      pop\n        /* \"#utility.yul\":1474:1545   */\n      tag_71\n        /* \"#utility.yul\":1542:1543   */\n      0x00\n        /* \"#utility.yul\":1531:1540   */\n      dup4\n        /* \"#utility.yul\":1527:1544   */\n      add\n        /* \"#utility.yul\":1518:1524   */\n      dup5\n        /* \"#utility.yul\":1474:1545   */\n      tag_56\n      jump\t// in\n    tag_71:\n        /* \"#utility.yul\":1428:1552   */\n      swap3\n      swap2\n      pop\n      pop\n      jump\t// out\n        /* \"#utility.yul\":1558:2111   */\n    tag_36:\n      0x00\n        /* \"#utility.yul\":1773:1776   */\n      0x80\n        /* \"#utility.yul\":1762:1771   */\n      dup3\n        /* \"#utility.yul\":1758:1777   */\n      add\n        /* \"#utility.yul\":1750:1777   */\n      swap1\n      pop\n        /* \"#utility.yul\":1787:1858   */\n      tag_73\n        /* \"#utility.yul\":1855:1856   */\n      0x00\n        /* \"#utility.yul\":1844:1853   */\n      dup4\n        /* \"#utility.yul\":1840:1857   */\n      add\n        /* \"#utility.yul\":1831:1837   */\n      dup8\n        /* \"#utility.yul\":1787:1858   */\n      tag_56\n      jump\t// in\n    tag_73:\n        /* \"#utility.yul\":1868:1940   */\n      tag_74\n        /* \"#utility.yul\":1936:1938   */\n      0x20\n        /* \"#utility.yul\":1925:1934   */\n      dup4\n        /* \"#utility.yul\":1921:1939   */\n      add\n        /* \"#utility.yul\":1912:1918   */\n      dup7\n        /* \"#utility.yul\":1868:1940   */\n      tag_56\n      jump\t// in\n    tag_74:\n        /* \"#utility.yul\":1950:2022   */\n      tag_75\n        /* \"#utility.yul\":2018:2020   */\n      0x40\n        /* \"#utility.yul\":2007:2016   */\n      dup4\n        /* \"#utility.yul\":2003:2021   */\n      add\n        /* \"#utility.yul\":1994:2000   */\n      dup6\n        /* \"#utility.yul\":1950:2022   */\n      tag_56\n      jump\t// in\n    tag_75:\n        /* \"#utility.yul\":2032:2104   */\n      tag_76\n        /* \"#utility.yul\":2100:2102   */\n      0x60\n        /* \"#utility.yul\":2089:2098   */\n      dup4\n        /* \"#utility.yul\":2085:2103   */\n      add\n        /* \"#utility.yul\":2076:2082   */\n      dup5\n        /* \"#utility.yul\":2032:2104   */\n      tag_66\n      jump\t// in\n    tag_76:\n        /* \"#utility.yul\":1740:2111   */\n      swap6\n      swap5\n      pop\n      pop\n      pop\n      pop\n      pop\n      jump\t// out\n        /* \"#utility.yul\":2117:2892   */\n    tag_11:\n      0x00\n        /* \"#utility.yul\":2388:2391   */\n      0xc0\n        /* \"#utility.yul\":2377:2386   */\n      dup3\n        /* \"#utility.yul\":2373:2392   */\n      add\n        /* \"#utility.yul\":2365:2392   */\n      swap1\n      pop\n        /* \"#utility.yul\":2402:2473   */\n      tag_78\n        /* \"#utility.yul\":2470:2471   */\n      0x00\n        /* \"#utility.yul\":2459:2468   */\n      dup4\n        /* \"#utility.yul\":2455:2472   */\n      add\n        /* \"#utility.yul\":2446:2452   */\n      dup10\n        /* \"#utility.yul\":2402:2473   */\n      tag_56\n      jump\t// in\n    tag_78:\n        /* \"#utility.yul\":2483:2555   */\n      tag_79\n        /* \"#utility.yul\":2551:2553   */\n      0x20\n        /* \"#utility.yul\":2540:2549   */\n      dup4\n        /* \"#utility.yul\":2536:2554   */\n      add\n        /* \"#utility.yul\":2527:2533   */\n      dup9\n        /* \"#utility.yul\":2483:2555   */\n      tag_56\n      jump\t// in\n    tag_79:\n        /* \"#utility.yul\":2565:2637   */\n      tag_80\n        /* \"#utility.yul\":2633:2635   */\n      0x40\n        /* \"#utility.yul\":2622:2631   */\n      dup4\n        /* \"#utility.yul\":2618:2636   */\n      add\n        /* \"#utility.yul\":2609:2615   */\n      dup8\n        /* \"#utility.yul\":2565:2637   */\n      tag_66\n      jump\t// in\n    tag_80:\n        /* \"#utility.yul\":2647:2719   */\n      tag_81\n        /* \"#utility.yul\":2715:2717   */\n      0x60\n        /* \"#utility.yul\":2704:2713   */\n      dup4\n        /* \"#utility.yul\":2700:2718   */\n      add\n        /* \"#utility.yul\":2691:2697   */\n      dup7\n        /* \"#utility.yul\":2647:2719   */\n      tag_66\n      jump\t// in\n    tag_81:\n        /* \"#utility.yul\":2729:2802   */\n      tag_82\n        /* \"#utility.yul\":2797:2800   */\n      0x80\n        /* \"#utility.yul\":2786:2795   */\n      dup4\n        /* \"#utility.yul\":2782:2801   */\n      add\n        /* \"#utility.yul\":2773:2779   */\n      dup6\n        /* \"#utility.yul\":2729:2802   */\n      tag_56\n      jump\t// in\n    tag_82:\n        /* \"#utility.yul\":2812:2885   */\n      tag_83\n        /* \"#utility.yul\":2880:2883   */\n      0xa0\n        /* \"#utility.yul\":2869:2878   */\n      dup4\n        /* \"#utility.yul\":2865:2884   */\n      add\n        /* \"#utility.yul\":2856:2862   */\n      dup5\n        /* \"#utility.yul\":2812:2885   */\n      tag_56\n      jump\t// in\n    tag_83:\n        /* \"#utility.yul\":2355:2892   */\n      swap8\n      swap7\n      pop\n      pop\n      pop\n      pop\n      pop\n      pop\n      pop\n      jump\t// out\n        /* \"#utility.yul\":2898:3317   */\n    tag_28:\n      0x00\n        /* \"#utility.yul\":3102:3104   */\n      0x20\n        /* \"#utility.yul\":3091:3100   */\n      dup3\n        /* \"#utility.yul\":3087:3105   */\n      add\n        /* \"#utility.yul\":3079:3105   */\n      swap1\n      pop\n        /* \"#utility.yul\":3151:3160   */\n      dup2\n        /* \"#utility.yul\":3145:3149   */\n      dup2\n        /* \"#utility.yul\":3141:3161   */\n      sub\n        /* \"#utility.yul\":3137:3138   */\n      0x00\n        /* \"#utility.yul\":3126:3135   */\n      dup4\n        /* \"#utility.yul\":3122:3139   */\n      add\n        /* \"#utility.yul\":3115:3162   */\n      mstore\n        /* \"#utility.yul\":3179:3310   */\n      tag_85\n        /* \"#utility.yul\":3305:3309   */\n      dup2\n        /* \"#utility.yul\":3179:3310   */\n      tag_60\n      jump\t// in\n    tag_85:\n        /* \"#utility.yul\":3171:3310   */\n      swap1\n      pop\n        /* \"#utility.yul\":3069:3317   */\n      swap2\n      swap1\n      pop\n      jump\t// out\n        /* \"#utility.yul\":3323:3492   */\n    tag_63:\n      0x00\n        /* \"#utility.yul\":3441:3447   */\n      dup3\n        /* \"#utility.yul\":3436:3439   */\n      dup3\n        /* \"#utility.yul\":3429:3448   */\n      mstore\n        /* \"#utility.yul\":3481:3485   */\n      0x20\n        /* \"#utility.yul\":3476:3479   */\n      dup3\n        /* \"#utility.yul\":3472:3486   */\n      add\n        /* \"#utility.yul\":3457:3486   */\n      swap1\n      pop\n        /* \"#utility.yul\":3419:3492   */\n      swap3\n      swap2\n      pop\n      pop\n      jump\t// out\n        /* \"#utility.yul\":3498:3575   */\n    tag_59:\n      0x00\n        /* \"#utility.yul\":3564:3569   */\n      dup2\n        /* \"#utility.yul\":3553:3569   */\n      swap1\n      pop\n        /* \"#utility.yul\":3543:3575   */\n      swap2\n      swap1\n      pop\n      jump\t// out\n        /* \"#utility.yul\":3581:3658   */\n    tag_69:\n      0x00\n        /* \"#utility.yul\":3647:3652   */\n      dup2\n        /* \"#utility.yul\":3636:3652   */\n      swap1\n      pop\n        /* \"#utility.yul\":3626:3658   */\n      swap2\n      swap1\n      pop\n      jump\t// out\n        /* \"#utility.yul\":3664:3840   */\n    tag_65:\n        /* \"#utility.yul\":3804:3832   */\n      0x546869732050435220686173206265656e2064656c657465642e000000000000\n        /* \"#utility.yul\":3800:3801   */\n      0x00\n        /* \"#utility.yul\":3792:3798   */\n      dup3\n        /* \"#utility.yul\":3788:3802   */\n      add\n        /* \"#utility.yul\":3781:3833   */\n      mstore\n        /* \"#utility.yul\":3770:3840   */\n      pop\n      jump\t// out\n        /* \"#utility.yul\":3846:3968   */\n    tag_47:\n        /* \"#utility.yul\":3919:3943   */\n      tag_91\n        /* \"#utility.yul\":3937:3942   */\n      dup2\n        /* \"#utility.yul\":3919:3943   */\n      tag_59\n      jump\t// in\n    tag_91:\n        /* \"#utility.yul\":3912:3917   */\n      dup2\n        /* \"#utility.yul\":3909:3944   */\n      eq\n        /* \"#utility.yul\":3899:3901   */\n      tag_92\n      jumpi\n        /* \"#utility.yul\":3958:3959   */\n      0x00\n        /* \"#utility.yul\":3955:3956   */\n      dup1\n        /* \"#utility.yul\":3948:3960   */\n      revert\n        /* \"#utility.yul\":3899:3901   */\n    tag_92:\n        /* \"#utility.yul\":3889:3968   */\n      pop\n      jump\t// out\n        /* \"#utility.yul\":3974:4096   */\n    tag_51:\n        /* \"#utility.yul\":4047:4071   */\n      tag_94\n        /* \"#utility.yul\":4065:4070   */\n      dup2\n        /* \"#utility.yul\":4047:4071   */\n      tag_69\n      jump\t// in\n    tag_94:\n        /* \"#utility.yul\":4040:4045   */\n      dup2\n        /* \"#utility.yul\":4037:4072   */\n      eq\n        /* \"#utility.yul\":4027:4029   */\n      tag_95\n      jumpi\n        /* \"#utility.yul\":4086:4087   */\n      0x00\n        /* \"#utility.yul\":4083:4084   */\n      dup1\n        /* \"#utility.yul\":4076:4088   */\n      revert\n        /* \"#utility.yul\":4027:4029   */\n    tag_95:\n        /* \"#utility.yul\":4017:4096   */\n      pop\n      jump\t// out\n\n    auxdata: 0xa264697066735822122026d7edd893bd9b457d7b189680b64ea83447e015ec7d706372c7302e997f0e2f64736f6c63430008030033\n}\n",
    "bytecode": {
      "linkReferences": {},
      "object": "608060405234801561001057600080fd5b506040516107a03803806107a08339818101604052810190610032919061012a565b816001600301819055508260016000018190555083600160020181905550336000806101000a81548173ffffffffffffffffffffffffffffffffffffffff021916908373ffffffffffffffffffffffffffffffffffffffff16021790555060008060146101000a81548160ff021916908315150217905550806001600401819055507f554e444546494e45440000000000000000000000000000000000000000000000600180018190555060008060156101000a81548160ff021916908315150217905550505050506101cf565b60008151905061010f816101a1565b92915050565b600081519050610124816101b8565b92915050565b6000806000806080858703121561014057600080fd5b600061014e87828801610100565b945050602061015f87828801610100565b935050604061017087828801610100565b925050606061018187828801610115565b91505092959194509250565b6000819050919050565b6000819050919050565b6101aa8161018d565b81146101b557600080fd5b50565b6101c181610197565b81146101cc57600080fd5b50565b6105c2806101de6000396000f3fe608060405234801561001057600080fd5b50600436106100575760003560e01c8063032020171461005c57806334b1794c1461007f578063512a0c86146100895780635d1ca631146100a55780639499e018146100c3575b600080fd5b6100646100cd565b6040516100769695949392919061048f565b60405180910390f35b61008761010d565b005b6100a3600480360381019061009e91906103b2565b6101af565b005b6100ad61029b565b6040516100ba919061042f565b60405180910390f35b6100cb6102f7565b005b6000806000806000806001800154600160030154600160040154600160050154600160020154600160000154955095509550955095509550909192939495565b600060159054906101000a900460ff161561015d576040517f08c379a0000000000000000000000000000000000000000000000000000000008152600401610154906104f0565b60405180910390fd5b6001600060156101000a81548160ff0219169083151502179055506001600080820160009055600182016000905560028201600090556003820160009055600482016000905560058201600090555050565b600060159054906101000a900460ff16156101ff576040517f08c379a00000000000000000000000000000000000000000000000000000000081526004016101f6906104f0565b60405180910390fd5b600060149054906101000a900460ff161561021957600080fd5b6001600060146101000a81548160ff021916908315150217905550816001800181905550806001600501819055507fa0f53cc16ce55b7914839af2c6e52aa179efd63404bb6cb37126faacecee5adb600160000154600160020154600180015460016005015460405161028f949392919061044a565b60405180910390a15050565b60008060159054906101000a900460ff16156102ec576040517f08c379a00000000000000000000000000000000000000000000000000000000081526004016102e3906104f0565b60405180910390fd5b600160020154905090565b60008054906101000a900473ffffffffffffffffffffffffffffffffffffffff1673ffffffffffffffffffffffffffffffffffffffff163373ffffffffffffffffffffffffffffffffffffffff161461034f57600080fd5b60008054906101000a900473ffffffffffffffffffffffffffffffffffffffff1673ffffffffffffffffffffffffffffffffffffffff16ff5b6000813590506103978161055e565b92915050565b6000813590506103ac81610575565b92915050565b600080604083850312156103c557600080fd5b60006103d385828601610388565b92505060206103e48582860161039d565b9150509250929050565b6103f781610521565b82525050565b600061040a601a83610510565b915061041582610535565b602082019050919050565b6104298161052b565b82525050565b600060208201905061044460008301846103ee565b92915050565b600060808201905061045f60008301876103ee565b61046c60208301866103ee565b61047960408301856103ee565b6104866060830184610420565b95945050505050565b600060c0820190506104a460008301896103ee565b6104b160208301886103ee565b6104be6040830187610420565b6104cb6060830186610420565b6104d860808301856103ee565b6104e560a08301846103ee565b979650505050505050565b60006020820190508181036000830152610509816103fd565b9050919050565b600082825260208201905092915050565b6000819050919050565b6000819050919050565b7f546869732050435220686173206265656e2064656c657465642e000000000000600082015250565b61056781610521565b811461057257600080fd5b50565b61057e8161052b565b811461058957600080fd5b5056fea264697066735822122026d7edd893bd9b457d7b189680b64ea83447e015ec7d706372c7302e997f0e2f64736f6c63430008030033",
      "opcodes": "PUSH1 0x80 PUSH1 0x40 MSTORE CALLVALUE DUP1 ISZERO PUSH2 0x10 JUMPI PUSH1 0x0 DUP1 REVERT JUMPDEST POP PUSH1 0x40 MLOAD PUSH2 0x7A0 CODESIZE SUB DUP1 PUSH2 0x7A0 DUP4 CODECOPY DUP2 DUP2 ADD PUSH1 0x40 MSTORE DUP2 ADD SWAP1 PUSH2 0x32 SWAP2 SWAP1 PUSH2 0x12A JUMP JUMPDEST DUP2 PUSH1 0x1 PUSH1 0x3 ADD DUP2 SWAP1 SSTORE POP DUP3 PUSH1 0x1 PUSH1 0x0 ADD DUP2 SWAP1 SSTORE POP DUP4 PUSH1 0x1 PUSH1 0x2 ADD DUP2 SWAP1 SSTORE POP CALLER PUSH1 0x0 DUP1 PUSH2 0x100 EXP DUP2 SLOAD DUP2 PUSH20 0xFFFFFFFFFFFFFFFFFFFFFFFFFFFFFFFFFFFFFFFF MUL NOT AND SWAP1 DUP4 PUSH20 0xFFFFFFFFFFFFFFFFFFFFFFFFFFFFFFFFFFFFFFFF AND MUL OR SWAP1 SSTORE POP PUSH1 0x0 DUP1 PUSH1 0x14 PUSH2 0x100 EXP DUP2 SLOAD DUP2 PUSH1 0xFF MUL NOT AND SWAP1 DUP4 ISZERO ISZERO MUL OR SWAP1 SSTORE POP DUP1 PUSH1 0x1 PUSH1 0x4 ADD DUP2 SWAP1 SSTORE POP PUSH32 0x554E444546494E45440000000000000000000000000000000000000000000000 PUSH1 0x1 DUP1 ADD DUP2 SWAP1 SSTORE POP PUSH1 0x0 DUP1 PUSH1 0x15 PUSH2 0x100 EXP DUP2 SLOAD DUP2 PUSH1 0xFF MUL NOT AND SWAP1 DUP4 ISZERO ISZERO MUL OR SWAP1 SSTORE POP POP POP POP POP PUSH2 0x1CF JUMP JUMPDEST PUSH1 0x0 DUP2 MLOAD SWAP1 POP PUSH2 0x10F DUP2 PUSH2 0x1A1 JUMP JUMPDEST SWAP3 SWAP2 POP POP JUMP JUMPDEST PUSH1 0x0 DUP2 MLOAD SWAP1 POP PUSH2 0x124 DUP2 PUSH2 0x1B8 JUMP JUMPDEST SWAP3 SWAP2 POP POP JUMP JUMPDEST PUSH1 0x0 DUP1 PUSH1 0x0 DUP1 PUSH1 0x80 DUP6 DUP8 SUB SLT ISZERO PUSH2 0x140 JUMPI PUSH1 0x0 DUP1 REVERT JUMPDEST PUSH1 0x0 PUSH2 0x14E DUP8 DUP3 DUP9 ADD PUSH2 0x100 JUMP JUMPDEST SWAP5 POP POP PUSH1 0x20 PUSH2 0x15F DUP8 DUP3 DUP9 ADD PUSH2 0x100 JUMP JUMPDEST SWAP4 POP POP PUSH1 0x40 PUSH2 0x170 DUP8 DUP3 DUP9 ADD PUSH2 0x100 JUMP JUMPDEST SWAP3 POP POP PUSH1 0x60 PUSH2 0x181 DUP8 DUP3 DUP9 ADD PUSH2 0x115 JUMP JUMPDEST SWAP2 POP POP SWAP3 SWAP6 SWAP2 SWAP5 POP SWAP3 POP JUMP JUMPDEST PUSH1 0x0 DUP2 SWAP1 POP SWAP2 SWAP1 POP JUMP JUMPDEST PUSH1 0x0 DUP2 SWAP1 POP SWAP2 SWAP1 POP JUMP JUMPDEST PUSH2 0x1AA DUP2 PUSH2 0x18D JUMP JUMPDEST DUP2 EQ PUSH2 0x1B5 JUMPI PUSH1 0x0 DUP1 REVERT JUMPDEST POP JUMP JUMPDEST PUSH2 0x1C1 DUP2 PUSH2 0x197 JUMP JUMPDEST DUP2 EQ PUSH2 0x1CC JUMPI PUSH1 0x0 DUP1 REVERT JUMPDEST POP JUMP JUMPDEST PUSH2 0x5C2 DUP1 PUSH2 0x1DE PUSH1 0x0 CODECOPY PUSH1 0x0 RETURN INVALID PUSH1 0x80 PUSH1 0x40 MSTORE CALLVALUE DUP1 ISZERO PUSH2 0x10 JUMPI PUSH1 0x0 DUP1 REVERT JUMPDEST POP PUSH1 0x4 CALLDATASIZE LT PUSH2 0x57 JUMPI PUSH1 0x0 CALLDATALOAD PUSH1 0xE0 SHR DUP1 PUSH4 0x3202017 EQ PUSH2 0x5C JUMPI DUP1 PUSH4 0x34B1794C EQ PUSH2 0x7F JUMPI DUP1 PUSH4 0x512A0C86 EQ PUSH2 0x89 JUMPI DUP1 PUSH4 0x5D1CA631 EQ PUSH2 0xA5 JUMPI DUP1 PUSH4 0x9499E018 EQ PUSH2 0xC3 JUMPI JUMPDEST PUSH1 0x0 DUP1 REVERT JUMPDEST PUSH2 0x64 PUSH2 0xCD JUMP JUMPDEST PUSH1 0x40 MLOAD PUSH2 0x76 SWAP7 SWAP6 SWAP5 SWAP4 SWAP3 SWAP2 SWAP1 PUSH2 0x48F JUMP JUMPDEST PUSH1 0x40 MLOAD DUP1 SWAP2 SUB SWAP1 RETURN JUMPDEST PUSH2 0x87 PUSH2 0x10D JUMP JUMPDEST STOP JUMPDEST PUSH2 0xA3 PUSH1 0x4 DUP1 CALLDATASIZE SUB DUP2 ADD SWAP1 PUSH2 0x9E SWAP2 SWAP1 PUSH2 0x3B2 JUMP JUMPDEST PUSH2 0x1AF JUMP JUMPDEST STOP JUMPDEST PUSH2 0xAD PUSH2 0x29B JUMP JUMPDEST PUSH1 0x40 MLOAD PUSH2 0xBA SWAP2 SWAP1 PUSH2 0x42F JUMP JUMPDEST PUSH1 0x40 MLOAD DUP1 SWAP2 SUB SWAP1 RETURN JUMPDEST PUSH2 0xCB PUSH2 0x2F7 JUMP JUMPDEST STOP JUMPDEST PUSH1 0x0 DUP1 PUSH1 0x0 DUP1 PUSH1 0x0 DUP1 PUSH1 0x1 DUP1 ADD SLOAD PUSH1 0x1 PUSH1 0x3 ADD SLOAD PUSH1 0x1 PUSH1 0x4 ADD SLOAD PUSH1 0x1 PUSH1 0x5 ADD SLOAD PUSH1 0x1 PUSH1 0x2 ADD SLOAD PUSH1 0x1 PUSH1 0x0 ADD SLOAD SWAP6 POP SWAP6 POP SWAP6 POP SWAP6 POP SWAP6 POP SWAP6 POP SWAP1 SWAP2 SWAP3 SWAP4 SWAP5 SWAP6 JUMP JUMPDEST PUSH1 0x0 PUSH1 0x15 SWAP1 SLOAD SWAP1 PUSH2 0x100 EXP SWAP1 DIV PUSH1 0xFF AND ISZERO PUSH2 0x15D JUMPI PUSH1 0x40 MLOAD PUSH32 0x8C379A000000000000000000000000000000000000000000000000000000000 DUP2 MSTORE PUSH1 0x4 ADD PUSH2 0x154 SWAP1 PUSH2 0x4F0 JUMP JUMPDEST PUSH1 0x40 MLOAD DUP1 SWAP2 SUB SWAP1 REVERT JUMPDEST PUSH1 0x1 PUSH1 0x0 PUSH1 0x15 PUSH2 0x100 EXP DUP2 SLOAD DUP2 PUSH1 0xFF MUL NOT AND SWAP1 DUP4 ISZERO ISZERO MUL OR SWAP1 SSTORE POP PUSH1 0x1 PUSH1 0x0 DUP1 DUP3 ADD PUSH1 0x0 SWAP1 SSTORE PUSH1 0x1 DUP3 ADD PUSH1 0x0 SWAP1 SSTORE PUSH1 0x2 DUP3 ADD PUSH1 0x0 SWAP1 SSTORE PUSH1 0x3 DUP3 ADD PUSH1 0x0 SWAP1 SSTORE PUSH1 0x4 DUP3 ADD PUSH1 0x0 SWAP1 SSTORE PUSH1 0x5 DUP3 ADD PUSH1 0x0 SWAP1 SSTORE POP POP JUMP JUMPDEST PUSH1 0x0 PUSH1 0x15 SWAP1 SLOAD SWAP1 PUSH2 0x100 EXP SWAP1 DIV PUSH1 0xFF AND ISZERO PUSH2 0x1FF JUMPI PUSH1 0x40 MLOAD PUSH32 0x8C379A000000000000000000000000000000000000000000000000000000000 DUP2 MSTORE PUSH1 0x4 ADD PUSH2 0x1F6 SWAP1 PUSH2 0x4F0 JUMP JUMPDEST PUSH1 0x40 MLOAD DUP1 SWAP2 SUB SWAP1 REVERT JUMPDEST PUSH1 0x0 PUSH1 0x14 SWAP1 SLOAD SWAP1 PUSH2 0x100 EXP SWAP1 DIV PUSH1 0xFF AND ISZERO PUSH2 0x219 JUMPI PUSH1 0x0 DUP1 REVERT JUMPDEST PUSH1 0x1 PUSH1 0x0 PUSH1 0x14 PUSH2 0x100 EXP DUP2 SLOAD DUP2 PUSH1 0xFF MUL NOT AND SWAP1 DUP4 ISZERO ISZERO MUL OR SWAP1 SSTORE POP DUP2 PUSH1 0x1 DUP1 ADD DUP2 SWAP1 SSTORE POP DUP1 PUSH1 0x1 PUSH1 0x5 ADD DUP2 SWAP1 SSTORE POP PUSH32 0xA0F53CC16CE55B7914839AF2C6E52AA179EFD63404BB6CB37126FAACECEE5ADB PUSH1 0x1 PUSH1 0x0 ADD SLOAD PUSH1 0x1 PUSH1 0x2 ADD SLOAD PUSH1 0x1 DUP1 ADD SLOAD PUSH1 0x1 PUSH1 0x5 ADD SLOAD PUSH1 0x40 MLOAD PUSH2 0x28F SWAP5 SWAP4 SWAP3 SWAP2 SWAP1 PUSH2 0x44A JUMP JUMPDEST PUSH1 0x40 MLOAD DUP1 SWAP2 SUB SWAP1 LOG1 POP POP JUMP JUMPDEST PUSH1 0x0 DUP1 PUSH1 0x15 SWAP1 SLOAD SWAP1 PUSH2 0x100 EXP SWAP1 DIV PUSH1 0xFF AND ISZERO PUSH2 0x2EC JUMPI PUSH1 0x40 MLOAD PUSH32 0x8C379A000000000000000000000000000000000000000000000000000000000 DUP2 MSTORE PUSH1 0x4 ADD PUSH2 0x2E3 SWAP1 PUSH2 0x4F0 JUMP JUMPDEST PUSH1 0x40 MLOAD DUP1 SWAP2 SUB SWAP1 REVERT JUMPDEST PUSH1 0x1 PUSH1 0x2 ADD SLOAD SWAP1 POP SWAP1 JUMP JUMPDEST PUSH1 0x0 DUP1 SLOAD SWAP1 PUSH2 0x100 EXP SWAP1 DIV PUSH20 0xFFFFFFFFFFFFFFFFFFFFFFFFFFFFFFFFFFFFFFFF AND PUSH20 0xFFFFFFFFFFFFFFFFFFFFFFFFFFFFFFFFFFFFFFFF AND CALLER PUSH20 0xFFFFFFFFFFFFFFFFFFFFFFFFFFFFFFFFFFFFFFFF AND EQ PUSH2 0x34F JUMPI PUSH1 0x0 DUP1 REVERT JUMPDEST PUSH1 0x0 DUP1 SLOAD SWAP1 PUSH2 0x100 EXP SWAP1 DIV PUSH20 0xFFFFFFFFFFFFFFFFFFFFFFFFFFFFFFFFFFFFFFFF AND PUSH20 0xFFFFFFFFFFFFFFFFFFFFFFFFFFFFFFFFFFFFFFFF AND SELFDESTRUCT JUMPDEST PUSH1 0x0 DUP2 CALLDATALOAD SWAP1 POP PUSH2 0x397 DUP2 PUSH2 0x55E JUMP JUMPDEST SWAP3 SWAP2 POP POP JUMP JUMPDEST PUSH1 0x0 DUP2 CALLDATALOAD SWAP1 POP PUSH2 0x3AC DUP2 PUSH2 0x575 JUMP JUMPDEST SWAP3 SWAP2 POP POP JUMP JUMPDEST PUSH1 0x0 DUP1 PUSH1 0x40 DUP4 DUP6 SUB SLT ISZERO PUSH2 0x3C5 JUMPI PUSH1 0x0 DUP1 REVERT JUMPDEST PUSH1 0x0 PUSH2 0x3D3 DUP6 DUP3 DUP7 ADD PUSH2 0x388 JUMP JUMPDEST SWAP3 POP POP PUSH1 0x20 PUSH2 0x3E4 DUP6 DUP3 DUP7 ADD PUSH2 0x39D JUMP JUMPDEST SWAP2 POP POP SWAP3 POP SWAP3 SWAP1 POP JUMP JUMPDEST PUSH2 0x3F7 DUP2 PUSH2 0x521 JUMP JUMPDEST DUP3 MSTORE POP POP JUMP JUMPDEST PUSH1 0x0 PUSH2 0x40A PUSH1 0x1A DUP4 PUSH2 0x510 JUMP JUMPDEST SWAP2 POP PUSH2 0x415 DUP3 PUSH2 0x535 JUMP JUMPDEST PUSH1 0x20 DUP3 ADD SWAP1 POP SWAP2 SWAP1 POP JUMP JUMPDEST PUSH2 0x429 DUP2 PUSH2 0x52B JUMP JUMPDEST DUP3 MSTORE POP POP JUMP JUMPDEST PUSH1 0x0 PUSH1 0x20 DUP3 ADD SWAP1 POP PUSH2 0x444 PUSH1 0x0 DUP4 ADD DUP5 PUSH2 0x3EE JUMP JUMPDEST SWAP3 SWAP2 POP POP JUMP JUMPDEST PUSH1 0x0 PUSH1 0x80 DUP3 ADD SWAP1 POP PUSH2 0x45F PUSH1 0x0 DUP4 ADD DUP8 PUSH2 0x3EE JUMP JUMPDEST PUSH2 0x46C PUSH1 0x20 DUP4 ADD DUP7 PUSH2 0x3EE JUMP JUMPDEST PUSH2 0x479 PUSH1 0x40 DUP4 ADD DUP6 PUSH2 0x3EE JUMP JUMPDEST PUSH2 0x486 PUSH1 0x60 DUP4 ADD DUP5 PUSH2 0x420 JUMP JUMPDEST SWAP6 SWAP5 POP POP POP POP POP JUMP JUMPDEST PUSH1 0x0 PUSH1 0xC0 DUP3 ADD SWAP1 POP PUSH2 0x4A4 PUSH1 0x0 DUP4 ADD DUP10 PUSH2 0x3EE JUMP JUMPDEST PUSH2 0x4B1 PUSH1 0x20 DUP4 ADD DUP9 PUSH2 0x3EE JUMP JUMPDEST PUSH2 0x4BE PUSH1 0x40 DUP4 ADD DUP8 PUSH2 0x420 JUMP JUMPDEST PUSH2 0x4CB PUSH1 0x60 DUP4 ADD DUP7 PUSH2 0x420 JUMP JUMPDEST PUSH2 0x4D8 PUSH1 0x80 DUP4 ADD DUP6 PUSH2 0x3EE JUMP JUMPDEST PUSH2 0x4E5 PUSH1 0xA0 DUP4 ADD DUP5 PUSH2 0x3EE JUMP JUMPDEST SWAP8 SWAP7 POP POP POP POP POP POP POP JUMP JUMPDEST PUSH1 0x0 PUSH1 0x20 DUP3 ADD SWAP1 POP DUP2 DUP2 SUB PUSH1 0x0 DUP4 ADD MSTORE PUSH2 0x509 DUP2 PUSH2 0x3FD JUMP JUMPDEST SWAP1 POP SWAP2 SWAP1 POP JUMP JUMPDEST PUSH1 0x0 DUP3 DUP3 MSTORE PUSH1 0x20 DUP3 ADD SWAP1 POP SWAP3 SWAP2 POP POP JUMP JUMPDEST PUSH1 0x0 DUP2 SWAP1 POP SWAP2 SWAP1 POP JUMP JUMPDEST PUSH1 0x0 DUP2 SWAP1 POP SWAP2 SWAP1 POP JUMP JUMPDEST PUSH32 0x546869732050435220686173206265656E2064656C657465642E000000000000 PUSH1 0x0 DUP3 ADD MSTORE POP JUMP JUMPDEST PUSH2 0x567 DUP2 PUSH2 0x521 JUMP JUMPDEST DUP2 EQ PUSH2 0x572 JUMPI PUSH1 0x0 DUP1 REVERT JUMPDEST POP JUMP JUMPDEST PUSH2 0x57E DUP2 PUSH2 0x52B JUMP JUMPDEST DUP2 EQ PUSH2 0x589 JUMPI PUSH1 0x0 DUP1 REVERT JUMPDEST POP JUMP INVALID LOG2 PUSH5 0x6970667358 0x22 SLT KECCAK256 0x26 0xD7 0xED 0xD8 SWAP4 0xBD SWAP12 GASLIMIT PUSH30 0x7B189680B64EA83447E015EC7D706372C7302E997F0E2F64736F6C634300 ADDMOD SUB STOP CALLER "
    },
    "gasEstimates": {
      "creation": {
        "codeDepositCost": "294800",
        "executionCost": "infinite",
        "totalCost": "infinite"
      },
      "external": {
        "deletePCR()": "52067",
        "destructContract()": "31910",
        "getId()": "2093",
        "getPCRData()": "infinite",
        "updatePCR(bytes32,uint256)": "infinite"
      }
    },
    "methodIdentifiers": {
      "deletePCR()": "34b1794c",
      "destructContract()": "9499e018",
      "getId()": "5d1ca631",
      "getPCRData()": "03202017",
      "updatePCR(bytes32,uint256)": "512a0c86"
    }
  },
  "storageLayout": {
    "storage": [
      {
        "astId": 1533,
        "contract": "PCR.sol:PCR",
        "label": "owner",
        "offset": 0,
        "slot": "0",
        "type": "t_address_payable"
      },
      {
        "astId": 1535,
        "contract": "PCR.sol:PCR",
        "label": "completed",
        "offset": 20,
        "slot": "0",
        "type": "t_bool"
      },
      {
        "astId": 1537,
        "contract": "PCR.sol:PCR",
        "label": "deleted",
        "offset": 21,
        "slot": "0",
        "type": "t_bool"
      },
      {
        "astId": 1540,
        "contract": "PCR.sol:PCR",
        "label": "pcrData",
        "offset": 0,
        "slot": "1",
        "type": "t_struct(PCRData)1531_storage"
      }
    ],
    "types": {
      "t_address_payable": {
        "encoding": "inplace",
        "label": "address payable",
        "numberOfBytes": "20"
      },
      "t_bool": {
        "encoding": "inplace",
        "label": "bool",
        "numberOfBytes": "1"
      },
      "t_bytes32": {
        "encoding": "inplace",
        "label": "bytes32",
        "numberOfBytes": "32"
      },
      "t_struct(PCRData)1531_storage": {
        "encoding": "inplace",
        "label": "struct PCR.PCRData",
        "members": [
          {
            "astId": 1520,
            "contract": "PCR.sol:PCR",
            "label": "insuranceId",
            "offset": 0,
            "slot": "0",
            "type": "t_bytes32"
          },
          {
            "astId": 1522,
            "contract": "PCR.sol:PCR",
            "label": "result",
            "offset": 0,
            "slot": "1",
            "type": "t_bytes32"
          },
          {
            "astId": 1524,
            "contract": "PCR.sol:PCR",
            "label": "id",
            "offset": 0,
            "slot": "2",
            "type": "t_bytes32"
          },
          {
            "astId": 1526,
            "contract": "PCR.sol:PCR",
            "label": "insuredId",
            "offset": 0,
            "slot": "3",
            "type": "t_bytes32"
          },
          {
            "astId": 1528,
            "contract": "PCR.sol:PCR",
            "label": "requestDate",
            "offset": 0,
            "slot": "4",
            "type": "t_uint256"
          },
          {
            "astId": 1530,
            "contract": "PCR.sol:PCR",
            "label": "resultDate",
            "offset": 0,
            "slot": "5",
            "type": "t_uint256"
          }
        ],
        "numberOfBytes": "192"
      },
      "t_uint256": {
        "encoding": "inplace",
        "label": "uint256",
        "numberOfBytes": "32"
      }
    }
  },
  "userdoc": {
    "kind": "user",
    "methods": {
      "constructor": {
        "notice": "Initialize the PCR."
      },
      "deletePCR()": {
        "notice": "Delete the actual PCR."
      },
      "destructContract()": {
        "notice": "Delete the contract of the blockchain."
      },
      "getId()": {
        "notice": "Returns only the PCR id."
      },
      "getPCRData()": {
        "notice": "Returns PCR data."
      },
      "updatePCR(bytes32,uint256)": {
        "notice": "Update de pcr result state from the laboratory."
      }
    },
    "version": 1
  }
}