{
  "abi": [
    {
      "inputs": [
        {
          "internalType": "bytes32",
          "name": "_id",
          "type": "bytes32"
        },
        {
          "internalType": "bytes32",
          "name": "_insuranceId",
          "type": "bytes32"
        },
        {
          "internalType": "bytes32",
          "name": "_insuredId",
          "type": "bytes32"
        },
        {
          "internalType": "uint256",
          "name": "_requestDate",
          "type": "uint256"
        },
        {
          "internalType": "address",
          "name": "_insuranceAddress",
          "type": "address"
        }
      ],
      "stateMutability": "nonpayable",
      "type": "constructor"
    },
    {
      "anonymous": false,
      "inputs": [
        {
          "indexed": false,
          "internalType": "bytes32",
          "name": "insuranceId",
          "type": "bytes32"
        },
        {
          "indexed": false,
          "internalType": "bytes32",
          "name": "pcrId",
          "type": "bytes32"
        },
        {
          "indexed": false,
          "internalType": "bytes32",
          "name": "result",
          "type": "bytes32"
        },
        {
          "indexed": false,
          "internalType": "uint256",
          "name": "resultDate",
          "type": "uint256"
        },
        {
          "indexed": false,
          "internalType": "address",
          "name": "insuranceAddress",
          "type": "address"
        }
      ],
      "name": "pcrUpdate",
      "type": "event"
    },
    {
      "inputs": [],
      "name": "deletePCR",
      "outputs": [],
      "stateMutability": "nonpayable",
      "type": "function"
    },
    {
      "inputs": [],
      "name": "destructContract",
      "outputs": [],
      "stateMutability": "nonpayable",
      "type": "function"
    },
    {
      "inputs": [],
      "name": "getId",
      "outputs": [
        {
          "internalType": "bytes32",
          "name": "id",
          "type": "bytes32"
        }
      ],
      "stateMutability": "view",
      "type": "function"
    },
    {
      "inputs": [],
      "name": "getPCRData",
      "outputs": [
        {
          "internalType": "bytes32",
          "name": "result",
          "type": "bytes32"
        },
        {
          "internalType": "bytes32",
          "name": "customerId",
          "type": "bytes32"
        },
        {
          "internalType": "uint256",
          "name": "requestDate",
          "type": "uint256"
        },
        {
          "internalType": "uint256",
          "name": "resultDate",
          "type": "uint256"
        },
        {
          "internalType": "bytes32",
          "name": "id",
          "type": "bytes32"
        },
        {
          "internalType": "address",
          "name": "pcrContractAddress",
          "type": "address"
        },
        {
          "internalType": "bytes32",
          "name": "insuranceId",
          "type": "bytes32"
        }
      ],
      "stateMutability": "view",
      "type": "function"
    },
    {
      "inputs": [
        {
          "internalType": "bytes32",
          "name": "_result",
          "type": "bytes32"
        },
        {
          "internalType": "uint256",
          "name": "_resultDate",
          "type": "uint256"
        },
        {
          "internalType": "bytes32",
          "name": "_insuranceId",
          "type": "bytes32"
        },
        {
          "internalType": "bytes32",
          "name": "_pcrId",
          "type": "bytes32"
        }
      ],
      "name": "updatePCR",
      "outputs": [],
      "stateMutability": "nonpayable",
      "type": "function"
    }
  ],
  "devdoc": {
    "author": "Eduardo Suarez Ojeda",
    "details": "The Contract represents the life cycle of a PCR linked to an insured.",
    "kind": "dev",
    "methods": {
      "deletePCR()": {
        "details": "Makes every method inaccessible except the one that returns the data."
      },
      "destructContract()": {
        "details": "Only use in extreme situations."
      }
    },
    "title": "PCR",
    "version": 1
  },
  "evm": {
    "assembly": "    /* \"PCR.sol\":157:2965  contract PCR {... */\n  mstore(0x40, 0x80)\n    /* \"PCR.sol\":811:1316  constructor(... */\n  callvalue\n  dup1\n  iszero\n  tag_1\n  jumpi\n  0x00\n  dup1\n  revert\ntag_1:\n  pop\n  mload(0x40)\n  sub(codesize, bytecodeSize)\n  dup1\n  bytecodeSize\n  dup4\n  codecopy\n  dup2\n  dup2\n  add\n  0x40\n  mstore\n  dup2\n  add\n  swap1\n  tag_2\n  swap2\n  swap1\n  tag_3\n  jump\t// in\ntag_2:\n    /* \"PCR.sol\":1011:1028  _insuranceAddress */\n  dup1\n    /* \"PCR.sol\":984:991  pcrData */\n  0x01\n    /* \"PCR.sol\":984:1008  pcrData.insuranceAddress */\n  0x06\n  add\n  0x00\n    /* \"PCR.sol\":984:1028  pcrData.insuranceAddress = _insuranceAddress */\n  0x0100\n  exp\n  dup2\n  sload\n  dup2\n  0xffffffffffffffffffffffffffffffffffffffff\n  mul\n  not\n  and\n  swap1\n  dup4\n  0xffffffffffffffffffffffffffffffffffffffff\n  and\n  mul\n  or\n  swap1\n  sstore\n  pop\n    /* \"PCR.sol\":1060:1072  _requestDate */\n  dup2\n    /* \"PCR.sol\":1038:1045  pcrData */\n  0x01\n    /* \"PCR.sol\":1038:1057  pcrData.requestDate */\n  0x04\n  add\n    /* \"PCR.sol\":1038:1072  pcrData.requestDate = _requestDate */\n  dup2\n  swap1\n  sstore\n  pop\n    /* \"PCR.sol\":1102:1112  _insuredId */\n  dup3\n    /* \"PCR.sol\":1082:1089  pcrData */\n  0x01\n    /* \"PCR.sol\":1082:1099  pcrData.insuredId */\n  0x03\n  add\n    /* \"PCR.sol\":1082:1112  pcrData.insuredId = _insuredId */\n  dup2\n  swap1\n  sstore\n  pop\n    /* \"PCR.sol\":1144:1156  _insuranceId */\n  dup4\n    /* \"PCR.sol\":1122:1129  pcrData */\n  0x01\n    /* \"PCR.sol\":1122:1141  pcrData.insuranceId */\n  0x00\n  add\n    /* \"PCR.sol\":1122:1156  pcrData.insuranceId = _insuranceId */\n  dup2\n  swap1\n  sstore\n  pop\n    /* \"PCR.sol\":1179:1182  _id */\n  dup5\n    /* \"PCR.sol\":1166:1173  pcrData */\n  0x01\n    /* \"PCR.sol\":1166:1176  pcrData.id */\n  0x02\n  add\n    /* \"PCR.sol\":1166:1182  pcrData.id = _id */\n  dup2\n  swap1\n  sstore\n  pop\n    /* \"PCR.sol\":1208:1218  msg.sender */\n  caller\n    /* \"PCR.sol\":1192:1197  owner */\n  0x00\n  dup1\n    /* \"PCR.sol\":1192:1219  owner = payable(msg.sender) */\n  0x0100\n  exp\n  dup2\n  sload\n  dup2\n  0xffffffffffffffffffffffffffffffffffffffff\n  mul\n  not\n  and\n  swap1\n  dup4\n  0xffffffffffffffffffffffffffffffffffffffff\n  and\n  mul\n  or\n  swap1\n  sstore\n  pop\n    /* \"PCR.sol\":1241:1246  false */\n  0x00\n    /* \"PCR.sol\":1229:1238  completed */\n  dup1\n  0x14\n    /* \"PCR.sol\":1229:1246  completed = false */\n  0x0100\n  exp\n  dup2\n  sload\n  dup2\n  0xff\n  mul\n  not\n  and\n  swap1\n  dup4\n  iszero\n  iszero\n  mul\n  or\n  swap1\n  sstore\n  pop\n    /* \"PCR.sol\":1256:1284  pcrData.result = \"UNDEFINED\" */\n  0x554e444546494e45440000000000000000000000000000000000000000000000\n    /* \"PCR.sol\":1256:1263  pcrData */\n  0x01\n    /* \"PCR.sol\":1256:1270  pcrData.result */\n  dup1\n  add\n    /* \"PCR.sol\":1256:1284  pcrData.result = \"UNDEFINED\" */\n  dup2\n  swap1\n  sstore\n  pop\n    /* \"PCR.sol\":1304:1309  false */\n  0x00\n    /* \"PCR.sol\":1294:1301  deleted */\n  dup1\n  0x15\n    /* \"PCR.sol\":1294:1309  deleted = false */\n  0x0100\n  exp\n  dup2\n  sload\n  dup2\n  0xff\n  mul\n  not\n  and\n  swap1\n  dup4\n  iszero\n  iszero\n  mul\n  or\n  swap1\n  sstore\n  pop\n    /* \"PCR.sol\":811:1316  constructor(... */\n  pop\n  pop\n  pop\n  pop\n  pop\n    /* \"PCR.sol\":157:2965  contract PCR {... */\n  jump(tag_6)\n    /* \"#utility.yul\":7:150   */\ntag_8:\n  0x00\n    /* \"#utility.yul\":95:101   */\n  dup2\n    /* \"#utility.yul\":89:102   */\n  mload\n    /* \"#utility.yul\":80:102   */\n  swap1\n  pop\n    /* \"#utility.yul\":111:144   */\n  tag_10\n    /* \"#utility.yul\":138:143   */\n  dup2\n    /* \"#utility.yul\":111:144   */\n  tag_11\n  jump\t// in\ntag_10:\n    /* \"#utility.yul\":70:150   */\n  swap3\n  swap2\n  pop\n  pop\n  jump\t// out\n    /* \"#utility.yul\":156:299   */\ntag_12:\n  0x00\n    /* \"#utility.yul\":244:250   */\n  dup2\n    /* \"#utility.yul\":238:251   */\n  mload\n    /* \"#utility.yul\":229:251   */\n  swap1\n  pop\n    /* \"#utility.yul\":260:293   */\n  tag_14\n    /* \"#utility.yul\":287:292   */\n  dup2\n    /* \"#utility.yul\":260:293   */\n  tag_15\n  jump\t// in\ntag_14:\n    /* \"#utility.yul\":219:299   */\n  swap3\n  swap2\n  pop\n  pop\n  jump\t// out\n    /* \"#utility.yul\":305:448   */\ntag_16:\n  0x00\n    /* \"#utility.yul\":393:399   */\n  dup2\n    /* \"#utility.yul\":387:400   */\n  mload\n    /* \"#utility.yul\":378:400   */\n  swap1\n  pop\n    /* \"#utility.yul\":409:442   */\n  tag_18\n    /* \"#utility.yul\":436:441   */\n  dup2\n    /* \"#utility.yul\":409:442   */\n  tag_19\n  jump\t// in\ntag_18:\n    /* \"#utility.yul\":368:448   */\n  swap3\n  swap2\n  pop\n  pop\n  jump\t// out\n    /* \"#utility.yul\":454:1364   */\ntag_3:\n  0x00\n  dup1\n  0x00\n  dup1\n  0x00\n    /* \"#utility.yul\":641:644   */\n  0xa0\n    /* \"#utility.yul\":629:638   */\n  dup7\n    /* \"#utility.yul\":620:627   */\n  dup9\n    /* \"#utility.yul\":616:639   */\n  sub\n    /* \"#utility.yul\":612:645   */\n  slt\n    /* \"#utility.yul\":609:611   */\n  iszero\n  tag_21\n  jumpi\n    /* \"#utility.yul\":658:659   */\n  0x00\n    /* \"#utility.yul\":655:656   */\n  dup1\n    /* \"#utility.yul\":648:660   */\n  revert\n    /* \"#utility.yul\":609:611   */\ntag_21:\n    /* \"#utility.yul\":701:702   */\n  0x00\n    /* \"#utility.yul\":726:790   */\n  tag_22\n    /* \"#utility.yul\":782:789   */\n  dup9\n    /* \"#utility.yul\":773:779   */\n  dup3\n    /* \"#utility.yul\":762:771   */\n  dup10\n    /* \"#utility.yul\":758:780   */\n  add\n    /* \"#utility.yul\":726:790   */\n  tag_12\n  jump\t// in\ntag_22:\n    /* \"#utility.yul\":716:790   */\n  swap6\n  pop\n    /* \"#utility.yul\":672:800   */\n  pop\n    /* \"#utility.yul\":839:841   */\n  0x20\n    /* \"#utility.yul\":865:929   */\n  tag_23\n    /* \"#utility.yul\":921:928   */\n  dup9\n    /* \"#utility.yul\":912:918   */\n  dup3\n    /* \"#utility.yul\":901:910   */\n  dup10\n    /* \"#utility.yul\":897:919   */\n  add\n    /* \"#utility.yul\":865:929   */\n  tag_12\n  jump\t// in\ntag_23:\n    /* \"#utility.yul\":855:929   */\n  swap5\n  pop\n    /* \"#utility.yul\":810:939   */\n  pop\n    /* \"#utility.yul\":978:980   */\n  0x40\n    /* \"#utility.yul\":1004:1068   */\n  tag_24\n    /* \"#utility.yul\":1060:1067   */\n  dup9\n    /* \"#utility.yul\":1051:1057   */\n  dup3\n    /* \"#utility.yul\":1040:1049   */\n  dup10\n    /* \"#utility.yul\":1036:1058   */\n  add\n    /* \"#utility.yul\":1004:1068   */\n  tag_12\n  jump\t// in\ntag_24:\n    /* \"#utility.yul\":994:1068   */\n  swap4\n  pop\n    /* \"#utility.yul\":949:1078   */\n  pop\n    /* \"#utility.yul\":1117:1119   */\n  0x60\n    /* \"#utility.yul\":1143:1207   */\n  tag_25\n    /* \"#utility.yul\":1199:1206   */\n  dup9\n    /* \"#utility.yul\":1190:1196   */\n  dup3\n    /* \"#utility.yul\":1179:1188   */\n  dup10\n    /* \"#utility.yul\":1175:1197   */\n  add\n    /* \"#utility.yul\":1143:1207   */\n  tag_16\n  jump\t// in\ntag_25:\n    /* \"#utility.yul\":1133:1207   */\n  swap3\n  pop\n    /* \"#utility.yul\":1088:1217   */\n  pop\n    /* \"#utility.yul\":1256:1259   */\n  0x80\n    /* \"#utility.yul\":1283:1347   */\n  tag_26\n    /* \"#utility.yul\":1339:1346   */\n  dup9\n    /* \"#utility.yul\":1330:1336   */\n  dup3\n    /* \"#utility.yul\":1319:1328   */\n  dup10\n    /* \"#utility.yul\":1315:1337   */\n  add\n    /* \"#utility.yul\":1283:1347   */\n  tag_8\n  jump\t// in\ntag_26:\n    /* \"#utility.yul\":1273:1347   */\n  swap2\n  pop\n    /* \"#utility.yul\":1227:1357   */\n  pop\n    /* \"#utility.yul\":599:1364   */\n  swap3\n  swap6\n  pop\n  swap3\n  swap6\n  swap1\n  swap4\n  pop\n  jump\t// out\n    /* \"#utility.yul\":1370:1466   */\ntag_27:\n  0x00\n    /* \"#utility.yul\":1436:1460   */\n  tag_29\n    /* \"#utility.yul\":1454:1459   */\n  dup3\n    /* \"#utility.yul\":1436:1460   */\n  tag_30\n  jump\t// in\ntag_29:\n    /* \"#utility.yul\":1425:1460   */\n  swap1\n  pop\n    /* \"#utility.yul\":1415:1466   */\n  swap2\n  swap1\n  pop\n  jump\t// out\n    /* \"#utility.yul\":1472:1549   */\ntag_31:\n  0x00\n    /* \"#utility.yul\":1538:1543   */\n  dup2\n    /* \"#utility.yul\":1527:1543   */\n  swap1\n  pop\n    /* \"#utility.yul\":1517:1549   */\n  swap2\n  swap1\n  pop\n  jump\t// out\n    /* \"#utility.yul\":1555:1681   */\ntag_30:\n  0x00\n    /* \"#utility.yul\":1632:1674   */\n  0xffffffffffffffffffffffffffffffffffffffff\n    /* \"#utility.yul\":1625:1630   */\n  dup3\n    /* \"#utility.yul\":1621:1675   */\n  and\n    /* \"#utility.yul\":1610:1675   */\n  swap1\n  pop\n    /* \"#utility.yul\":1600:1681   */\n  swap2\n  swap1\n  pop\n  jump\t// out\n    /* \"#utility.yul\":1687:1764   */\ntag_34:\n  0x00\n    /* \"#utility.yul\":1753:1758   */\n  dup2\n    /* \"#utility.yul\":1742:1758   */\n  swap1\n  pop\n    /* \"#utility.yul\":1732:1764   */\n  swap2\n  swap1\n  pop\n  jump\t// out\n    /* \"#utility.yul\":1770:1892   */\ntag_11:\n    /* \"#utility.yul\":1843:1867   */\n  tag_37\n    /* \"#utility.yul\":1861:1866   */\n  dup2\n    /* \"#utility.yul\":1843:1867   */\n  tag_27\n  jump\t// in\ntag_37:\n    /* \"#utility.yul\":1836:1841   */\n  dup2\n    /* \"#utility.yul\":1833:1868   */\n  eq\n    /* \"#utility.yul\":1823:1825   */\n  tag_38\n  jumpi\n    /* \"#utility.yul\":1882:1883   */\n  0x00\n    /* \"#utility.yul\":1879:1880   */\n  dup1\n    /* \"#utility.yul\":1872:1884   */\n  revert\n    /* \"#utility.yul\":1823:1825   */\ntag_38:\n    /* \"#utility.yul\":1813:1892   */\n  pop\n  jump\t// out\n    /* \"#utility.yul\":1898:2020   */\ntag_15:\n    /* \"#utility.yul\":1971:1995   */\n  tag_40\n    /* \"#utility.yul\":1989:1994   */\n  dup2\n    /* \"#utility.yul\":1971:1995   */\n  tag_31\n  jump\t// in\ntag_40:\n    /* \"#utility.yul\":1964:1969   */\n  dup2\n    /* \"#utility.yul\":1961:1996   */\n  eq\n    /* \"#utility.yul\":1951:1953   */\n  tag_41\n  jumpi\n    /* \"#utility.yul\":2010:2011   */\n  0x00\n    /* \"#utility.yul\":2007:2008   */\n  dup1\n    /* \"#utility.yul\":2000:2012   */\n  revert\n    /* \"#utility.yul\":1951:1953   */\ntag_41:\n    /* \"#utility.yul\":1941:2020   */\n  pop\n  jump\t// out\n    /* \"#utility.yul\":2026:2148   */\ntag_19:\n    /* \"#utility.yul\":2099:2123   */\n  tag_43\n    /* \"#utility.yul\":2117:2122   */\n  dup2\n    /* \"#utility.yul\":2099:2123   */\n  tag_34\n  jump\t// in\ntag_43:\n    /* \"#utility.yul\":2092:2097   */\n  dup2\n    /* \"#utility.yul\":2089:2124   */\n  eq\n    /* \"#utility.yul\":2079:2081   */\n  tag_44\n  jumpi\n    /* \"#utility.yul\":2138:2139   */\n  0x00\n    /* \"#utility.yul\":2135:2136   */\n  dup1\n    /* \"#utility.yul\":2128:2140   */\n  revert\n    /* \"#utility.yul\":2079:2081   */\ntag_44:\n    /* \"#utility.yul\":2069:2148   */\n  pop\n  jump\t// out\n    /* \"PCR.sol\":157:2965  contract PCR {... */\ntag_6:\n  dataSize(sub_0)\n  dup1\n  dataOffset(sub_0)\n  0x00\n  codecopy\n  0x00\n  return\nstop\n\nsub_0: assembly {\n        /* \"PCR.sol\":157:2965  contract PCR {... */\n      mstore(0x40, 0x80)\n      callvalue\n      dup1\n      iszero\n      tag_1\n      jumpi\n      0x00\n      dup1\n      revert\n    tag_1:\n      pop\n      jumpi(tag_2, lt(calldatasize, 0x04))\n      shr(0xe0, calldataload(0x00))\n      dup1\n      0x03202017\n      eq\n      tag_3\n      jumpi\n      dup1\n      0x34b1794c\n      eq\n      tag_4\n      jumpi\n      dup1\n      0x5d1ca631\n      eq\n      tag_5\n      jumpi\n      dup1\n      0x9499e018\n      eq\n      tag_6\n      jumpi\n      dup1\n      0x97fccd59\n      eq\n      tag_7\n      jumpi\n    tag_2:\n      0x00\n      dup1\n      revert\n        /* \"PCR.sol\":1984:2379  function getPCRData() external view returns(... */\n    tag_3:\n      tag_8\n      tag_9\n      jump\t// in\n    tag_8:\n      mload(0x40)\n      tag_10\n      swap8\n      swap7\n      swap6\n      swap5\n      swap4\n      swap3\n      swap2\n      swap1\n      tag_11\n      jump\t// in\n    tag_10:\n      mload(0x40)\n      dup1\n      swap2\n      sub\n      swap1\n      return\n        /* \"PCR.sol\":2650:2746  function deletePCR() notDeleted external {... */\n    tag_4:\n      tag_12\n      tag_13\n      jump\t// in\n    tag_12:\n      stop\n        /* \"PCR.sol\":2426:2522  function getId() external view notDeleted returns(bytes32 id) {... */\n    tag_5:\n      tag_14\n      tag_15\n      jump\t// in\n    tag_14:\n      mload(0x40)\n      tag_16\n      swap2\n      swap1\n      tag_17\n      jump\t// in\n    tag_16:\n      mload(0x40)\n      dup1\n      swap2\n      sub\n      swap1\n      return\n        /* \"PCR.sol\":2852:2963  function destructContract() external {... */\n    tag_6:\n      tag_18\n      tag_19\n      jump\t// in\n    tag_18:\n      stop\n        /* \"PCR.sol\":1386:1944  function updatePCR(bytes32 _result, uint256 _resultDate, bytes32 _insuranceId, bytes32 _pcrId) external notDeleted ... */\n    tag_7:\n      tag_20\n      0x04\n      dup1\n      calldatasize\n      sub\n      dup2\n      add\n      swap1\n      tag_21\n      swap2\n      swap1\n      tag_22\n      jump\t// in\n    tag_21:\n      tag_23\n      jump\t// in\n    tag_20:\n      stop\n        /* \"PCR.sol\":1984:2379  function getPCRData() external view returns(... */\n    tag_9:\n        /* \"PCR.sol\":2037:2051  bytes32 result */\n      0x00\n        /* \"PCR.sol\":2062:2080  bytes32 customerId */\n      dup1\n        /* \"PCR.sol\":2091:2110  uint256 requestDate */\n      0x00\n        /* \"PCR.sol\":2121:2139  uint256 resultDate */\n      dup1\n        /* \"PCR.sol\":2150:2160  bytes32 id */\n      0x00\n        /* \"PCR.sol\":2170:2196  address pcrContractAddress */\n      dup1\n        /* \"PCR.sol\":2206:2225  bytes32 insuranceId */\n      0x00\n        /* \"PCR.sol\":2250:2257  pcrData */\n      0x01\n        /* \"PCR.sol\":2250:2264  pcrData.result */\n      dup1\n      add\n      sload\n        /* \"PCR.sol\":2266:2273  pcrData */\n      0x01\n        /* \"PCR.sol\":2266:2283  pcrData.insuredId */\n      0x03\n      add\n      sload\n        /* \"PCR.sol\":2285:2292  pcrData */\n      0x01\n        /* \"PCR.sol\":2285:2304  pcrData.requestDate */\n      0x04\n      add\n      sload\n        /* \"PCR.sol\":2306:2313  pcrData */\n      0x01\n        /* \"PCR.sol\":2306:2324  pcrData.resultDate */\n      0x05\n      add\n      sload\n        /* \"PCR.sol\":2326:2333  pcrData */\n      0x01\n        /* \"PCR.sol\":2326:2336  pcrData.id */\n      0x02\n      add\n      sload\n        /* \"PCR.sol\":2346:2350  this */\n      address\n        /* \"PCR.sol\":2352:2359  pcrData */\n      0x01\n        /* \"PCR.sol\":2352:2371  pcrData.insuranceId */\n      0x00\n      add\n      sload\n        /* \"PCR.sol\":2242:2372  return (pcrData.result, pcrData.insuredId, pcrData.requestDate, pcrData.resultDate, pcrData.id, address(this),pcrData.insuranceId) */\n      swap7\n      pop\n      swap7\n      pop\n      swap7\n      pop\n      swap7\n      pop\n      swap7\n      pop\n      swap7\n      pop\n      swap7\n      pop\n        /* \"PCR.sol\":1984:2379  function getPCRData() external view returns(... */\n      swap1\n      swap2\n      swap3\n      swap4\n      swap5\n      swap6\n      swap7\n      jump\t// out\n        /* \"PCR.sol\":2650:2746  function deletePCR() notDeleted external {... */\n    tag_13:\n        /* \"PCR.sol\":713:720  deleted */\n      0x00\n      0x15\n      swap1\n      sload\n      swap1\n      0x0100\n      exp\n      swap1\n      div\n      0xff\n      and\n        /* \"PCR.sol\":712:720  !deleted */\n      iszero\n        /* \"PCR.sol\":704:751  require(!deleted, \"This PCR has been deleted.\") */\n      tag_26\n      jumpi\n      mload(0x40)\n      0x08c379a000000000000000000000000000000000000000000000000000000000\n      dup2\n      mstore\n      0x04\n      add\n      tag_27\n      swap1\n      tag_28\n      jump\t// in\n    tag_27:\n      mload(0x40)\n      dup1\n      swap2\n      sub\n      swap1\n      revert\n    tag_26:\n        /* \"PCR.sol\":2711:2715  true */\n      0x01\n        /* \"PCR.sol\":2701:2708  deleted */\n      0x00\n      0x15\n        /* \"PCR.sol\":2701:2715  deleted = true */\n      0x0100\n      exp\n      dup2\n      sload\n      dup2\n      0xff\n      mul\n      not\n      and\n      swap1\n      dup4\n      iszero\n      iszero\n      mul\n      or\n      swap1\n      sstore\n      pop\n        /* \"PCR.sol\":2732:2739  pcrData */\n      0x01\n      0x00\n        /* \"PCR.sol\":2725:2739  delete pcrData */\n      dup1\n      dup3\n      add\n      0x00\n      swap1\n      sstore\n      0x01\n      dup3\n      add\n      0x00\n      swap1\n      sstore\n      0x02\n      dup3\n      add\n      0x00\n      swap1\n      sstore\n      0x03\n      dup3\n      add\n      0x00\n      swap1\n      sstore\n      0x04\n      dup3\n      add\n      0x00\n      swap1\n      sstore\n      0x05\n      dup3\n      add\n      0x00\n      swap1\n      sstore\n      0x06\n      dup3\n      add\n      exp(0x0100, 0x00)\n      dup2\n      sload\n      swap1\n      0xffffffffffffffffffffffffffffffffffffffff\n      mul\n      not\n      and\n      swap1\n      sstore\n      pop\n      pop\n        /* \"PCR.sol\":2650:2746  function deletePCR() notDeleted external {... */\n      jump\t// out\n        /* \"PCR.sol\":2426:2522  function getId() external view notDeleted returns(bytes32 id) {... */\n    tag_15:\n        /* \"PCR.sol\":2476:2486  bytes32 id */\n      0x00\n        /* \"PCR.sol\":713:720  deleted */\n      dup1\n      0x15\n      swap1\n      sload\n      swap1\n      0x0100\n      exp\n      swap1\n      div\n      0xff\n      and\n        /* \"PCR.sol\":712:720  !deleted */\n      iszero\n        /* \"PCR.sol\":704:751  require(!deleted, \"This PCR has been deleted.\") */\n      tag_31\n      jumpi\n      mload(0x40)\n      0x08c379a000000000000000000000000000000000000000000000000000000000\n      dup2\n      mstore\n      0x04\n      add\n      tag_32\n      swap1\n      tag_28\n      jump\t// in\n    tag_32:\n      mload(0x40)\n      dup1\n      swap2\n      sub\n      swap1\n      revert\n    tag_31:\n        /* \"PCR.sol\":2505:2512  pcrData */\n      0x01\n        /* \"PCR.sol\":2505:2515  pcrData.id */\n      0x02\n      add\n      sload\n        /* \"PCR.sol\":2498:2515  return pcrData.id */\n      swap1\n      pop\n        /* \"PCR.sol\":2426:2522  function getId() external view notDeleted returns(bytes32 id) {... */\n      swap1\n      jump\t// out\n        /* \"PCR.sol\":2852:2963  function destructContract() external {... */\n    tag_19:\n        /* \"PCR.sol\":2921:2926  owner */\n      0x00\n      dup1\n      sload\n      swap1\n      0x0100\n      exp\n      swap1\n      div\n      0xffffffffffffffffffffffffffffffffffffffff\n      and\n        /* \"PCR.sol\":2907:2926  msg.sender == owner */\n      0xffffffffffffffffffffffffffffffffffffffff\n      and\n        /* \"PCR.sol\":2907:2917  msg.sender */\n      caller\n        /* \"PCR.sol\":2907:2926  msg.sender == owner */\n      0xffffffffffffffffffffffffffffffffffffffff\n      and\n      eq\n        /* \"PCR.sol\":2899:2927  require(msg.sender == owner) */\n      tag_35\n      jumpi\n      0x00\n      dup1\n      revert\n    tag_35:\n        /* \"PCR.sol\":2950:2955  owner */\n      0x00\n      dup1\n      sload\n      swap1\n      0x0100\n      exp\n      swap1\n      div\n      0xffffffffffffffffffffffffffffffffffffffff\n      and\n        /* \"PCR.sol\":2937:2956  selfdestruct(owner) */\n      0xffffffffffffffffffffffffffffffffffffffff\n      and\n      selfdestruct\n        /* \"PCR.sol\":1386:1944  function updatePCR(bytes32 _result, uint256 _resultDate, bytes32 _insuranceId, bytes32 _pcrId) external notDeleted ... */\n    tag_23:\n        /* \"PCR.sol\":713:720  deleted */\n      0x00\n      0x15\n      swap1\n      sload\n      swap1\n      0x0100\n      exp\n      swap1\n      div\n      0xff\n      and\n        /* \"PCR.sol\":712:720  !deleted */\n      iszero\n        /* \"PCR.sol\":704:751  require(!deleted, \"This PCR has been deleted.\") */\n      tag_37\n      jumpi\n      mload(0x40)\n      0x08c379a000000000000000000000000000000000000000000000000000000000\n      dup2\n      mstore\n      0x04\n      add\n      tag_38\n      swap1\n      tag_28\n      jump\t// in\n    tag_38:\n      mload(0x40)\n      dup1\n      swap2\n      sub\n      swap1\n      revert\n    tag_37:\n        /* \"PCR.sol\":1525:1534  completed */\n      0x00\n      0x14\n      swap1\n      sload\n      swap1\n      0x0100\n      exp\n      swap1\n      div\n      0xff\n      and\n        /* \"PCR.sol\":1524:1534  !completed */\n      iszero\n        /* \"PCR.sol\":1516:1564  require(!completed, \"PCRs can only Update once\") */\n      tag_40\n      jumpi\n      mload(0x40)\n      0x08c379a000000000000000000000000000000000000000000000000000000000\n      dup2\n      mstore\n      0x04\n      add\n      tag_41\n      swap1\n      tag_42\n      jump\t// in\n    tag_41:\n      mload(0x40)\n      dup1\n      swap2\n      sub\n      swap1\n      revert\n    tag_40:\n        /* \"PCR.sol\":1598:1605  pcrData */\n      0x01\n        /* \"PCR.sol\":1598:1617  pcrData.insuranceId */\n      0x00\n      add\n      sload\n        /* \"PCR.sol\":1582:1594  _insuranceId */\n      dup3\n        /* \"PCR.sol\":1582:1617  _insuranceId == pcrData.insuranceId */\n      eq\n        /* \"PCR.sol\":1582:1641  _insuranceId == pcrData.insuranceId && _pcrId == pcrData.id */\n      dup1\n      iszero\n      tag_43\n      jumpi\n      pop\n        /* \"PCR.sol\":1631:1638  pcrData */\n      0x01\n        /* \"PCR.sol\":1631:1641  pcrData.id */\n      0x02\n      add\n      sload\n        /* \"PCR.sol\":1621:1627  _pcrId */\n      dup2\n        /* \"PCR.sol\":1621:1641  _pcrId == pcrData.id */\n      eq\n        /* \"PCR.sol\":1582:1641  _insuranceId == pcrData.insuranceId && _pcrId == pcrData.id */\n    tag_43:\n        /* \"PCR.sol\":1574:1716  require(_insuranceId == pcrData.insuranceId && _pcrId == pcrData.id, \"Insurance and PCR ids have to be the same as the ones in this contract\") */\n      tag_44\n      jumpi\n      mload(0x40)\n      0x08c379a000000000000000000000000000000000000000000000000000000000\n      dup2\n      mstore\n      0x04\n      add\n      tag_45\n      swap1\n      tag_46\n      jump\t// in\n    tag_45:\n      mload(0x40)\n      dup1\n      swap2\n      sub\n      swap1\n      revert\n    tag_44:\n        /* \"PCR.sol\":1738:1742  true */\n      0x01\n        /* \"PCR.sol\":1726:1735  completed */\n      0x00\n      0x14\n        /* \"PCR.sol\":1726:1742  completed = true */\n      0x0100\n      exp\n      dup2\n      sload\n      dup2\n      0xff\n      mul\n      not\n      and\n      swap1\n      dup4\n      iszero\n      iszero\n      mul\n      or\n      swap1\n      sstore\n      pop\n        /* \"PCR.sol\":1769:1776  _result */\n      dup4\n        /* \"PCR.sol\":1752:1759  pcrData */\n      0x01\n        /* \"PCR.sol\":1752:1766  pcrData.result */\n      dup1\n      add\n        /* \"PCR.sol\":1752:1776  pcrData.result = _result */\n      dup2\n      swap1\n      sstore\n      pop\n        /* \"PCR.sol\":1807:1818  _resultDate */\n      dup3\n        /* \"PCR.sol\":1786:1793  pcrData */\n      0x01\n        /* \"PCR.sol\":1786:1804  pcrData.resultDate */\n      0x05\n      add\n        /* \"PCR.sol\":1786:1818  pcrData.resultDate = _resultDate */\n      dup2\n      swap1\n      sstore\n      pop\n        /* \"PCR.sol\":1833:1937  pcrUpdate(pcrData.insuranceId, pcrData.id, pcrData.result, pcrData.resultDate, pcrData.insuranceAddress) */\n      0x019180bd50566344afb9366ec620a67ef53b5838de32e3c1564aa5e90125b740\n        /* \"PCR.sol\":1843:1850  pcrData */\n      0x01\n        /* \"PCR.sol\":1843:1862  pcrData.insuranceId */\n      0x00\n      add\n      sload\n        /* \"PCR.sol\":1864:1871  pcrData */\n      0x01\n        /* \"PCR.sol\":1864:1874  pcrData.id */\n      0x02\n      add\n      sload\n        /* \"PCR.sol\":1876:1883  pcrData */\n      0x01\n        /* \"PCR.sol\":1876:1890  pcrData.result */\n      dup1\n      add\n      sload\n        /* \"PCR.sol\":1892:1899  pcrData */\n      0x01\n        /* \"PCR.sol\":1892:1910  pcrData.resultDate */\n      0x05\n      add\n      sload\n        /* \"PCR.sol\":1912:1919  pcrData */\n      0x01\n        /* \"PCR.sol\":1912:1936  pcrData.insuranceAddress */\n      0x06\n      add\n      0x00\n      swap1\n      sload\n      swap1\n      0x0100\n      exp\n      swap1\n      div\n      0xffffffffffffffffffffffffffffffffffffffff\n      and\n        /* \"PCR.sol\":1833:1937  pcrUpdate(pcrData.insuranceId, pcrData.id, pcrData.result, pcrData.resultDate, pcrData.insuranceAddress) */\n      mload(0x40)\n      tag_47\n      swap6\n      swap5\n      swap4\n      swap3\n      swap2\n      swap1\n      tag_48\n      jump\t// in\n    tag_47:\n      mload(0x40)\n      dup1\n      swap2\n      sub\n      swap1\n      log1\n        /* \"PCR.sol\":1386:1944  function updatePCR(bytes32 _result, uint256 _resultDate, bytes32 _insuranceId, bytes32 _pcrId) external notDeleted ... */\n      pop\n      pop\n      pop\n      pop\n      jump\t// out\n        /* \"#utility.yul\":7:146   */\n    tag_50:\n      0x00\n        /* \"#utility.yul\":91:97   */\n      dup2\n        /* \"#utility.yul\":78:98   */\n      calldataload\n        /* \"#utility.yul\":69:98   */\n      swap1\n      pop\n        /* \"#utility.yul\":107:140   */\n      tag_52\n        /* \"#utility.yul\":134:139   */\n      dup2\n        /* \"#utility.yul\":107:140   */\n      tag_53\n      jump\t// in\n    tag_52:\n        /* \"#utility.yul\":59:146   */\n      swap3\n      swap2\n      pop\n      pop\n      jump\t// out\n        /* \"#utility.yul\":152:291   */\n    tag_54:\n      0x00\n        /* \"#utility.yul\":236:242   */\n      dup2\n        /* \"#utility.yul\":223:243   */\n      calldataload\n        /* \"#utility.yul\":214:243   */\n      swap1\n      pop\n        /* \"#utility.yul\":252:285   */\n      tag_56\n        /* \"#utility.yul\":279:284   */\n      dup2\n        /* \"#utility.yul\":252:285   */\n      tag_57\n      jump\t// in\n    tag_56:\n        /* \"#utility.yul\":204:291   */\n      swap3\n      swap2\n      pop\n      pop\n      jump\t// out\n        /* \"#utility.yul\":297:995   */\n    tag_22:\n      0x00\n      dup1\n      0x00\n      dup1\n        /* \"#utility.yul\":456:459   */\n      0x80\n        /* \"#utility.yul\":444:453   */\n      dup6\n        /* \"#utility.yul\":435:442   */\n      dup8\n        /* \"#utility.yul\":431:454   */\n      sub\n        /* \"#utility.yul\":427:460   */\n      slt\n        /* \"#utility.yul\":424:426   */\n      iszero\n      tag_59\n      jumpi\n        /* \"#utility.yul\":473:474   */\n      0x00\n        /* \"#utility.yul\":470:471   */\n      dup1\n        /* \"#utility.yul\":463:475   */\n      revert\n        /* \"#utility.yul\":424:426   */\n    tag_59:\n        /* \"#utility.yul\":516:517   */\n      0x00\n        /* \"#utility.yul\":541:594   */\n      tag_60\n        /* \"#utility.yul\":586:593   */\n      dup8\n        /* \"#utility.yul\":577:583   */\n      dup3\n        /* \"#utility.yul\":566:575   */\n      dup9\n        /* \"#utility.yul\":562:584   */\n      add\n        /* \"#utility.yul\":541:594   */\n      tag_50\n      jump\t// in\n    tag_60:\n        /* \"#utility.yul\":531:594   */\n      swap5\n      pop\n        /* \"#utility.yul\":487:604   */\n      pop\n        /* \"#utility.yul\":643:645   */\n      0x20\n        /* \"#utility.yul\":669:722   */\n      tag_61\n        /* \"#utility.yul\":714:721   */\n      dup8\n        /* \"#utility.yul\":705:711   */\n      dup3\n        /* \"#utility.yul\":694:703   */\n      dup9\n        /* \"#utility.yul\":690:712   */\n      add\n        /* \"#utility.yul\":669:722   */\n      tag_54\n      jump\t// in\n    tag_61:\n        /* \"#utility.yul\":659:722   */\n      swap4\n      pop\n        /* \"#utility.yul\":614:732   */\n      pop\n        /* \"#utility.yul\":771:773   */\n      0x40\n        /* \"#utility.yul\":797:850   */\n      tag_62\n        /* \"#utility.yul\":842:849   */\n      dup8\n        /* \"#utility.yul\":833:839   */\n      dup3\n        /* \"#utility.yul\":822:831   */\n      dup9\n        /* \"#utility.yul\":818:840   */\n      add\n        /* \"#utility.yul\":797:850   */\n      tag_50\n      jump\t// in\n    tag_62:\n        /* \"#utility.yul\":787:850   */\n      swap3\n      pop\n        /* \"#utility.yul\":742:860   */\n      pop\n        /* \"#utility.yul\":899:901   */\n      0x60\n        /* \"#utility.yul\":925:978   */\n      tag_63\n        /* \"#utility.yul\":970:977   */\n      dup8\n        /* \"#utility.yul\":961:967   */\n      dup3\n        /* \"#utility.yul\":950:959   */\n      dup9\n        /* \"#utility.yul\":946:968   */\n      add\n        /* \"#utility.yul\":925:978   */\n      tag_50\n      jump\t// in\n    tag_63:\n        /* \"#utility.yul\":915:978   */\n      swap2\n      pop\n        /* \"#utility.yul\":870:988   */\n      pop\n        /* \"#utility.yul\":414:995   */\n      swap3\n      swap6\n      swap2\n      swap5\n      pop\n      swap3\n      pop\n      jump\t// out\n        /* \"#utility.yul\":1001:1119   */\n    tag_64:\n        /* \"#utility.yul\":1088:1112   */\n      tag_66\n        /* \"#utility.yul\":1106:1111   */\n      dup2\n        /* \"#utility.yul\":1088:1112   */\n      tag_67\n      jump\t// in\n    tag_66:\n        /* \"#utility.yul\":1083:1086   */\n      dup3\n        /* \"#utility.yul\":1076:1113   */\n      mstore\n        /* \"#utility.yul\":1066:1119   */\n      pop\n      pop\n      jump\t// out\n        /* \"#utility.yul\":1125:1243   */\n    tag_68:\n        /* \"#utility.yul\":1212:1236   */\n      tag_70\n        /* \"#utility.yul\":1230:1235   */\n      dup2\n        /* \"#utility.yul\":1212:1236   */\n      tag_71\n      jump\t// in\n    tag_70:\n        /* \"#utility.yul\":1207:1210   */\n      dup3\n        /* \"#utility.yul\":1200:1237   */\n      mstore\n        /* \"#utility.yul\":1190:1243   */\n      pop\n      pop\n      jump\t// out\n        /* \"#utility.yul\":1249:1615   */\n    tag_72:\n      0x00\n        /* \"#utility.yul\":1412:1479   */\n      tag_74\n        /* \"#utility.yul\":1476:1478   */\n      0x1a\n        /* \"#utility.yul\":1471:1474   */\n      dup4\n        /* \"#utility.yul\":1412:1479   */\n      tag_75\n      jump\t// in\n    tag_74:\n        /* \"#utility.yul\":1405:1479   */\n      swap2\n      pop\n        /* \"#utility.yul\":1488:1581   */\n      tag_76\n        /* \"#utility.yul\":1577:1580   */\n      dup3\n        /* \"#utility.yul\":1488:1581   */\n      tag_77\n      jump\t// in\n    tag_76:\n        /* \"#utility.yul\":1606:1608   */\n      0x20\n        /* \"#utility.yul\":1601:1604   */\n      dup3\n        /* \"#utility.yul\":1597:1609   */\n      add\n        /* \"#utility.yul\":1590:1609   */\n      swap1\n      pop\n        /* \"#utility.yul\":1395:1615   */\n      swap2\n      swap1\n      pop\n      jump\t// out\n        /* \"#utility.yul\":1621:1987   */\n    tag_78:\n      0x00\n        /* \"#utility.yul\":1784:1851   */\n      tag_80\n        /* \"#utility.yul\":1848:1850   */\n      0x19\n        /* \"#utility.yul\":1843:1846   */\n      dup4\n        /* \"#utility.yul\":1784:1851   */\n      tag_75\n      jump\t// in\n    tag_80:\n        /* \"#utility.yul\":1777:1851   */\n      swap2\n      pop\n        /* \"#utility.yul\":1860:1953   */\n      tag_81\n        /* \"#utility.yul\":1949:1952   */\n      dup3\n        /* \"#utility.yul\":1860:1953   */\n      tag_82\n      jump\t// in\n    tag_81:\n        /* \"#utility.yul\":1978:1980   */\n      0x20\n        /* \"#utility.yul\":1973:1976   */\n      dup3\n        /* \"#utility.yul\":1969:1981   */\n      add\n        /* \"#utility.yul\":1962:1981   */\n      swap1\n      pop\n        /* \"#utility.yul\":1767:1987   */\n      swap2\n      swap1\n      pop\n      jump\t// out\n        /* \"#utility.yul\":1993:2359   */\n    tag_83:\n      0x00\n        /* \"#utility.yul\":2156:2223   */\n      tag_85\n        /* \"#utility.yul\":2220:2222   */\n      0x46\n        /* \"#utility.yul\":2215:2218   */\n      dup4\n        /* \"#utility.yul\":2156:2223   */\n      tag_75\n      jump\t// in\n    tag_85:\n        /* \"#utility.yul\":2149:2223   */\n      swap2\n      pop\n        /* \"#utility.yul\":2232:2325   */\n      tag_86\n        /* \"#utility.yul\":2321:2324   */\n      dup3\n        /* \"#utility.yul\":2232:2325   */\n      tag_87\n      jump\t// in\n    tag_86:\n        /* \"#utility.yul\":2350:2352   */\n      0x60\n        /* \"#utility.yul\":2345:2348   */\n      dup3\n        /* \"#utility.yul\":2341:2353   */\n      add\n        /* \"#utility.yul\":2334:2353   */\n      swap1\n      pop\n        /* \"#utility.yul\":2139:2359   */\n      swap2\n      swap1\n      pop\n      jump\t// out\n        /* \"#utility.yul\":2365:2483   */\n    tag_88:\n        /* \"#utility.yul\":2452:2476   */\n      tag_90\n        /* \"#utility.yul\":2470:2475   */\n      dup2\n        /* \"#utility.yul\":2452:2476   */\n      tag_91\n      jump\t// in\n    tag_90:\n        /* \"#utility.yul\":2447:2450   */\n      dup3\n        /* \"#utility.yul\":2440:2477   */\n      mstore\n        /* \"#utility.yul\":2430:2483   */\n      pop\n      pop\n      jump\t// out\n        /* \"#utility.yul\":2489:2711   */\n    tag_17:\n      0x00\n        /* \"#utility.yul\":2620:2622   */\n      0x20\n        /* \"#utility.yul\":2609:2618   */\n      dup3\n        /* \"#utility.yul\":2605:2623   */\n      add\n        /* \"#utility.yul\":2597:2623   */\n      swap1\n      pop\n        /* \"#utility.yul\":2633:2704   */\n      tag_93\n        /* \"#utility.yul\":2701:2702   */\n      0x00\n        /* \"#utility.yul\":2690:2699   */\n      dup4\n        /* \"#utility.yul\":2686:2703   */\n      add\n        /* \"#utility.yul\":2677:2683   */\n      dup5\n        /* \"#utility.yul\":2633:2704   */\n      tag_68\n      jump\t// in\n    tag_93:\n        /* \"#utility.yul\":2587:2711   */\n      swap3\n      swap2\n      pop\n      pop\n      jump\t// out\n        /* \"#utility.yul\":2717:3381   */\n    tag_48:\n      0x00\n        /* \"#utility.yul\":2960:2963   */\n      0xa0\n        /* \"#utility.yul\":2949:2958   */\n      dup3\n        /* \"#utility.yul\":2945:2964   */\n      add\n        /* \"#utility.yul\":2937:2964   */\n      swap1\n      pop\n        /* \"#utility.yul\":2974:3045   */\n      tag_95\n        /* \"#utility.yul\":3042:3043   */\n      0x00\n        /* \"#utility.yul\":3031:3040   */\n      dup4\n        /* \"#utility.yul\":3027:3044   */\n      add\n        /* \"#utility.yul\":3018:3024   */\n      dup9\n        /* \"#utility.yul\":2974:3045   */\n      tag_68\n      jump\t// in\n    tag_95:\n        /* \"#utility.yul\":3055:3127   */\n      tag_96\n        /* \"#utility.yul\":3123:3125   */\n      0x20\n        /* \"#utility.yul\":3112:3121   */\n      dup4\n        /* \"#utility.yul\":3108:3126   */\n      add\n        /* \"#utility.yul\":3099:3105   */\n      dup8\n        /* \"#utility.yul\":3055:3127   */\n      tag_68\n      jump\t// in\n    tag_96:\n        /* \"#utility.yul\":3137:3209   */\n      tag_97\n        /* \"#utility.yul\":3205:3207   */\n      0x40\n        /* \"#utility.yul\":3194:3203   */\n      dup4\n        /* \"#utility.yul\":3190:3208   */\n      add\n        /* \"#utility.yul\":3181:3187   */\n      dup7\n        /* \"#utility.yul\":3137:3209   */\n      tag_68\n      jump\t// in\n    tag_97:\n        /* \"#utility.yul\":3219:3291   */\n      tag_98\n        /* \"#utility.yul\":3287:3289   */\n      0x60\n        /* \"#utility.yul\":3276:3285   */\n      dup4\n        /* \"#utility.yul\":3272:3290   */\n      add\n        /* \"#utility.yul\":3263:3269   */\n      dup6\n        /* \"#utility.yul\":3219:3291   */\n      tag_88\n      jump\t// in\n    tag_98:\n        /* \"#utility.yul\":3301:3374   */\n      tag_99\n        /* \"#utility.yul\":3369:3372   */\n      0x80\n        /* \"#utility.yul\":3358:3367   */\n      dup4\n        /* \"#utility.yul\":3354:3373   */\n      add\n        /* \"#utility.yul\":3345:3351   */\n      dup5\n        /* \"#utility.yul\":3301:3374   */\n      tag_64\n      jump\t// in\n    tag_99:\n        /* \"#utility.yul\":2927:3381   */\n      swap7\n      swap6\n      pop\n      pop\n      pop\n      pop\n      pop\n      pop\n      jump\t// out\n        /* \"#utility.yul\":3387:4273   */\n    tag_11:\n      0x00\n        /* \"#utility.yul\":3686:3689   */\n      0xe0\n        /* \"#utility.yul\":3675:3684   */\n      dup3\n        /* \"#utility.yul\":3671:3690   */\n      add\n        /* \"#utility.yul\":3663:3690   */\n      swap1\n      pop\n        /* \"#utility.yul\":3700:3771   */\n      tag_101\n        /* \"#utility.yul\":3768:3769   */\n      0x00\n        /* \"#utility.yul\":3757:3766   */\n      dup4\n        /* \"#utility.yul\":3753:3770   */\n      add\n        /* \"#utility.yul\":3744:3750   */\n      dup11\n        /* \"#utility.yul\":3700:3771   */\n      tag_68\n      jump\t// in\n    tag_101:\n        /* \"#utility.yul\":3781:3853   */\n      tag_102\n        /* \"#utility.yul\":3849:3851   */\n      0x20\n        /* \"#utility.yul\":3838:3847   */\n      dup4\n        /* \"#utility.yul\":3834:3852   */\n      add\n        /* \"#utility.yul\":3825:3831   */\n      dup10\n        /* \"#utility.yul\":3781:3853   */\n      tag_68\n      jump\t// in\n    tag_102:\n        /* \"#utility.yul\":3863:3935   */\n      tag_103\n        /* \"#utility.yul\":3931:3933   */\n      0x40\n        /* \"#utility.yul\":3920:3929   */\n      dup4\n        /* \"#utility.yul\":3916:3934   */\n      add\n        /* \"#utility.yul\":3907:3913   */\n      dup9\n        /* \"#utility.yul\":3863:3935   */\n      tag_88\n      jump\t// in\n    tag_103:\n        /* \"#utility.yul\":3945:4017   */\n      tag_104\n        /* \"#utility.yul\":4013:4015   */\n      0x60\n        /* \"#utility.yul\":4002:4011   */\n      dup4\n        /* \"#utility.yul\":3998:4016   */\n      add\n        /* \"#utility.yul\":3989:3995   */\n      dup8\n        /* \"#utility.yul\":3945:4017   */\n      tag_88\n      jump\t// in\n    tag_104:\n        /* \"#utility.yul\":4027:4100   */\n      tag_105\n        /* \"#utility.yul\":4095:4098   */\n      0x80\n        /* \"#utility.yul\":4084:4093   */\n      dup4\n        /* \"#utility.yul\":4080:4099   */\n      add\n        /* \"#utility.yul\":4071:4077   */\n      dup7\n        /* \"#utility.yul\":4027:4100   */\n      tag_68\n      jump\t// in\n    tag_105:\n        /* \"#utility.yul\":4110:4183   */\n      tag_106\n        /* \"#utility.yul\":4178:4181   */\n      0xa0\n        /* \"#utility.yul\":4167:4176   */\n      dup4\n        /* \"#utility.yul\":4163:4182   */\n      add\n        /* \"#utility.yul\":4154:4160   */\n      dup6\n        /* \"#utility.yul\":4110:4183   */\n      tag_64\n      jump\t// in\n    tag_106:\n        /* \"#utility.yul\":4193:4266   */\n      tag_107\n        /* \"#utility.yul\":4261:4264   */\n      0xc0\n        /* \"#utility.yul\":4250:4259   */\n      dup4\n        /* \"#utility.yul\":4246:4265   */\n      add\n        /* \"#utility.yul\":4237:4243   */\n      dup5\n        /* \"#utility.yul\":4193:4266   */\n      tag_68\n      jump\t// in\n    tag_107:\n        /* \"#utility.yul\":3653:4273   */\n      swap9\n      swap8\n      pop\n      pop\n      pop\n      pop\n      pop\n      pop\n      pop\n      pop\n      jump\t// out\n        /* \"#utility.yul\":4279:4698   */\n    tag_28:\n      0x00\n        /* \"#utility.yul\":4483:4485   */\n      0x20\n        /* \"#utility.yul\":4472:4481   */\n      dup3\n        /* \"#utility.yul\":4468:4486   */\n      add\n        /* \"#utility.yul\":4460:4486   */\n      swap1\n      pop\n        /* \"#utility.yul\":4532:4541   */\n      dup2\n        /* \"#utility.yul\":4526:4530   */\n      dup2\n        /* \"#utility.yul\":4522:4542   */\n      sub\n        /* \"#utility.yul\":4518:4519   */\n      0x00\n        /* \"#utility.yul\":4507:4516   */\n      dup4\n        /* \"#utility.yul\":4503:4520   */\n      add\n        /* \"#utility.yul\":4496:4543   */\n      mstore\n        /* \"#utility.yul\":4560:4691   */\n      tag_109\n        /* \"#utility.yul\":4686:4690   */\n      dup2\n        /* \"#utility.yul\":4560:4691   */\n      tag_72\n      jump\t// in\n    tag_109:\n        /* \"#utility.yul\":4552:4691   */\n      swap1\n      pop\n        /* \"#utility.yul\":4450:4698   */\n      swap2\n      swap1\n      pop\n      jump\t// out\n        /* \"#utility.yul\":4704:5123   */\n    tag_42:\n      0x00\n        /* \"#utility.yul\":4908:4910   */\n      0x20\n        /* \"#utility.yul\":4897:4906   */\n      dup3\n        /* \"#utility.yul\":4893:4911   */\n      add\n        /* \"#utility.yul\":4885:4911   */\n      swap1\n      pop\n        /* \"#utility.yul\":4957:4966   */\n      dup2\n        /* \"#utility.yul\":4951:4955   */\n      dup2\n        /* \"#utility.yul\":4947:4967   */\n      sub\n        /* \"#utility.yul\":4943:4944   */\n      0x00\n        /* \"#utility.yul\":4932:4941   */\n      dup4\n        /* \"#utility.yul\":4928:4945   */\n      add\n        /* \"#utility.yul\":4921:4968   */\n      mstore\n        /* \"#utility.yul\":4985:5116   */\n      tag_111\n        /* \"#utility.yul\":5111:5115   */\n      dup2\n        /* \"#utility.yul\":4985:5116   */\n      tag_78\n      jump\t// in\n    tag_111:\n        /* \"#utility.yul\":4977:5116   */\n      swap1\n      pop\n        /* \"#utility.yul\":4875:5123   */\n      swap2\n      swap1\n      pop\n      jump\t// out\n        /* \"#utility.yul\":5129:5548   */\n    tag_46:\n      0x00\n        /* \"#utility.yul\":5333:5335   */\n      0x20\n        /* \"#utility.yul\":5322:5331   */\n      dup3\n        /* \"#utility.yul\":5318:5336   */\n      add\n        /* \"#utility.yul\":5310:5336   */\n      swap1\n      pop\n        /* \"#utility.yul\":5382:5391   */\n      dup2\n        /* \"#utility.yul\":5376:5380   */\n      dup2\n        /* \"#utility.yul\":5372:5392   */\n      sub\n        /* \"#utility.yul\":5368:5369   */\n      0x00\n        /* \"#utility.yul\":5357:5366   */\n      dup4\n        /* \"#utility.yul\":5353:5370   */\n      add\n        /* \"#utility.yul\":5346:5393   */\n      mstore\n        /* \"#utility.yul\":5410:5541   */\n      tag_113\n        /* \"#utility.yul\":5536:5540   */\n      dup2\n        /* \"#utility.yul\":5410:5541   */\n      tag_83\n      jump\t// in\n    tag_113:\n        /* \"#utility.yul\":5402:5541   */\n      swap1\n      pop\n        /* \"#utility.yul\":5300:5548   */\n      swap2\n      swap1\n      pop\n      jump\t// out\n        /* \"#utility.yul\":5554:5723   */\n    tag_75:\n      0x00\n        /* \"#utility.yul\":5672:5678   */\n      dup3\n        /* \"#utility.yul\":5667:5670   */\n      dup3\n        /* \"#utility.yul\":5660:5679   */\n      mstore\n        /* \"#utility.yul\":5712:5716   */\n      0x20\n        /* \"#utility.yul\":5707:5710   */\n      dup3\n        /* \"#utility.yul\":5703:5717   */\n      add\n        /* \"#utility.yul\":5688:5717   */\n      swap1\n      pop\n        /* \"#utility.yul\":5650:5723   */\n      swap3\n      swap2\n      pop\n      pop\n      jump\t// out\n        /* \"#utility.yul\":5729:5825   */\n    tag_67:\n      0x00\n        /* \"#utility.yul\":5795:5819   */\n      tag_116\n        /* \"#utility.yul\":5813:5818   */\n      dup3\n        /* \"#utility.yul\":5795:5819   */\n      tag_117\n      jump\t// in\n    tag_116:\n        /* \"#utility.yul\":5784:5819   */\n      swap1\n      pop\n        /* \"#utility.yul\":5774:5825   */\n      swap2\n      swap1\n      pop\n      jump\t// out\n        /* \"#utility.yul\":5831:5908   */\n    tag_71:\n      0x00\n        /* \"#utility.yul\":5897:5902   */\n      dup2\n        /* \"#utility.yul\":5886:5902   */\n      swap1\n      pop\n        /* \"#utility.yul\":5876:5908   */\n      swap2\n      swap1\n      pop\n      jump\t// out\n        /* \"#utility.yul\":5914:6040   */\n    tag_117:\n      0x00\n        /* \"#utility.yul\":5991:6033   */\n      0xffffffffffffffffffffffffffffffffffffffff\n        /* \"#utility.yul\":5984:5989   */\n      dup3\n        /* \"#utility.yul\":5980:6034   */\n      and\n        /* \"#utility.yul\":5969:6034   */\n      swap1\n      pop\n        /* \"#utility.yul\":5959:6040   */\n      swap2\n      swap1\n      pop\n      jump\t// out\n        /* \"#utility.yul\":6046:6123   */\n    tag_91:\n      0x00\n        /* \"#utility.yul\":6112:6117   */\n      dup2\n        /* \"#utility.yul\":6101:6117   */\n      swap1\n      pop\n        /* \"#utility.yul\":6091:6123   */\n      swap2\n      swap1\n      pop\n      jump\t// out\n        /* \"#utility.yul\":6129:6305   */\n    tag_77:\n        /* \"#utility.yul\":6269:6297   */\n      0x546869732050435220686173206265656e2064656c657465642e000000000000\n        /* \"#utility.yul\":6265:6266   */\n      0x00\n        /* \"#utility.yul\":6257:6263   */\n      dup3\n        /* \"#utility.yul\":6253:6267   */\n      add\n        /* \"#utility.yul\":6246:6298   */\n      mstore\n        /* \"#utility.yul\":6235:6305   */\n      pop\n      jump\t// out\n        /* \"#utility.yul\":6311:6486   */\n    tag_82:\n        /* \"#utility.yul\":6451:6478   */\n      0x504352732063616e206f6e6c7920557064617465206f6e636500000000000000\n        /* \"#utility.yul\":6447:6448   */\n      0x00\n        /* \"#utility.yul\":6439:6445   */\n      dup3\n        /* \"#utility.yul\":6435:6449   */\n      add\n        /* \"#utility.yul\":6428:6479   */\n      mstore\n        /* \"#utility.yul\":6417:6486   */\n      pop\n      jump\t// out\n        /* \"#utility.yul\":6492:6786   */\n    tag_87:\n        /* \"#utility.yul\":6632:6666   */\n      0x496e737572616e636520616e642050435220696473206861766520746f206265\n        /* \"#utility.yul\":6628:6629   */\n      0x00\n        /* \"#utility.yul\":6620:6626   */\n      dup3\n        /* \"#utility.yul\":6616:6630   */\n      add\n        /* \"#utility.yul\":6609:6667   */\n      mstore\n        /* \"#utility.yul\":6701:6735   */\n      0x207468652073616d6520617320746865206f6e657320696e207468697320636f\n        /* \"#utility.yul\":6696:6698   */\n      0x20\n        /* \"#utility.yul\":6688:6694   */\n      dup3\n        /* \"#utility.yul\":6684:6699   */\n      add\n        /* \"#utility.yul\":6677:6736   */\n      mstore\n        /* \"#utility.yul\":6770:6778   */\n      0x6e74726163740000000000000000000000000000000000000000000000000000\n        /* \"#utility.yul\":6765:6767   */\n      0x40\n        /* \"#utility.yul\":6757:6763   */\n      dup3\n        /* \"#utility.yul\":6753:6768   */\n      add\n        /* \"#utility.yul\":6746:6779   */\n      mstore\n        /* \"#utility.yul\":6598:6786   */\n      pop\n      jump\t// out\n        /* \"#utility.yul\":6792:6914   */\n    tag_53:\n        /* \"#utility.yul\":6865:6889   */\n      tag_125\n        /* \"#utility.yul\":6883:6888   */\n      dup2\n        /* \"#utility.yul\":6865:6889   */\n      tag_71\n      jump\t// in\n    tag_125:\n        /* \"#utility.yul\":6858:6863   */\n      dup2\n        /* \"#utility.yul\":6855:6890   */\n      eq\n        /* \"#utility.yul\":6845:6847   */\n      tag_126\n      jumpi\n        /* \"#utility.yul\":6904:6905   */\n      0x00\n        /* \"#utility.yul\":6901:6902   */\n      dup1\n        /* \"#utility.yul\":6894:6906   */\n      revert\n        /* \"#utility.yul\":6845:6847   */\n    tag_126:\n        /* \"#utility.yul\":6835:6914   */\n      pop\n      jump\t// out\n        /* \"#utility.yul\":6920:7042   */\n    tag_57:\n        /* \"#utility.yul\":6993:7017   */\n      tag_128\n        /* \"#utility.yul\":7011:7016   */\n      dup2\n        /* \"#utility.yul\":6993:7017   */\n      tag_91\n      jump\t// in\n    tag_128:\n        /* \"#utility.yul\":6986:6991   */\n      dup2\n        /* \"#utility.yul\":6983:7018   */\n      eq\n        /* \"#utility.yul\":6973:6975   */\n      tag_129\n      jumpi\n        /* \"#utility.yul\":7032:7033   */\n      0x00\n        /* \"#utility.yul\":7029:7030   */\n      dup1\n        /* \"#utility.yul\":7022:7034   */\n      revert\n        /* \"#utility.yul\":6973:6975   */\n    tag_129:\n        /* \"#utility.yul\":6963:7042   */\n      pop\n      jump\t// out\n\n    auxdata: 0xa2646970667358221220c0e0c6a7c1fd117a4335edda0044d4e78da860b96ddb003382e96e65b790daaf64736f6c63430008030033\n}\n",
    "bytecode": {
      "linkReferences": {},
      "object": "60806040523480156200001157600080fd5b5060405162000b0638038062000b06833981810160405281019062000037919062000190565b80600160060160006101000a81548173ffffffffffffffffffffffffffffffffffffffff021916908373ffffffffffffffffffffffffffffffffffffffff16021790555081600160040181905550826001600301819055508360016000018190555084600160020181905550336000806101000a81548173ffffffffffffffffffffffffffffffffffffffff021916908373ffffffffffffffffffffffffffffffffffffffff16021790555060008060146101000a81548160ff0219169083151502179055507f554e444546494e45440000000000000000000000000000000000000000000000600180018190555060008060156101000a81548160ff0219169083151502179055505050505050620002a8565b6000815190506200015c816200025a565b92915050565b600081519050620001738162000274565b92915050565b6000815190506200018a816200028e565b92915050565b600080600080600060a08688031215620001a957600080fd5b6000620001b98882890162000162565b9550506020620001cc8882890162000162565b9450506040620001df8882890162000162565b9350506060620001f28882890162000179565b925050608062000205888289016200014b565b9150509295509295909350565b60006200021f8262000230565b9050919050565b6000819050919050565b600073ffffffffffffffffffffffffffffffffffffffff82169050919050565b6000819050919050565b620002658162000212565b81146200027157600080fd5b50565b6200027f8162000226565b81146200028b57600080fd5b50565b620002998162000250565b8114620002a557600080fd5b50565b61084e80620002b86000396000f3fe608060405234801561001057600080fd5b50600436106100575760003560e01c8063032020171461005c57806334b1794c146100805780635d1ca6311461008a5780639499e018146100a857806397fccd59146100b2575b600080fd5b6100646100ce565b60405161007797969594939291906105fd565b60405180910390f35b610088610114565b005b6100926101dd565b60405161009f919061058f565b60405180910390f35b6100b0610239565b005b6100cc60048036038101906100c79190610496565b6102ca565b005b6000806000806000806000600180015460016003015460016004015460016005015460016002015430600160000154965096509650965096509650965090919293949596565b600060159054906101000a900460ff1615610164576040517f08c379a000000000000000000000000000000000000000000000000000000000815260040161015b9061066c565b60405180910390fd5b6001600060156101000a81548160ff0219169083151502179055506001600080820160009055600182016000905560028201600090556003820160009055600482016000905560058201600090556006820160006101000a81549073ffffffffffffffffffffffffffffffffffffffff02191690555050565b60008060159054906101000a900460ff161561022e576040517f08c379a00000000000000000000000000000000000000000000000000000000081526004016102259061066c565b60405180910390fd5b600160020154905090565b60008054906101000a900473ffffffffffffffffffffffffffffffffffffffff1673ffffffffffffffffffffffffffffffffffffffff163373ffffffffffffffffffffffffffffffffffffffff161461029157600080fd5b60008054906101000a900473ffffffffffffffffffffffffffffffffffffffff1673ffffffffffffffffffffffffffffffffffffffff16ff5b600060159054906101000a900460ff161561031a576040517f08c379a00000000000000000000000000000000000000000000000000000000081526004016103119061066c565b60405180910390fd5b600060149054906101000a900460ff161561036a576040517f08c379a00000000000000000000000000000000000000000000000000000000081526004016103619061068c565b60405180910390fd5b60016000015482148015610382575060016002015481145b6103c1576040517f08c379a00000000000000000000000000000000000000000000000000000000081526004016103b8906106ac565b60405180910390fd5b6001600060146101000a81548160ff021916908315150217905550836001800181905550826001600501819055507f019180bd50566344afb9366ec620a67ef53b5838de32e3c1564aa5e90125b7406001600001546001600201546001800154600160050154600160060160009054906101000a900473ffffffffffffffffffffffffffffffffffffffff1660405161045e9594939291906105aa565b60405180910390a150505050565b60008135905061047b816107ea565b92915050565b60008135905061049081610801565b92915050565b600080600080608085870312156104ac57600080fd5b60006104ba8782880161046c565b94505060206104cb87828801610481565b93505060406104dc8782880161046c565b92505060606104ed8782880161046c565b91505092959194509250565b610502816106dd565b82525050565b610511816106ef565b82525050565b6000610524601a836106cc565b915061052f82610723565b602082019050919050565b60006105476019836106cc565b91506105528261074c565b602082019050919050565b600061056a6046836106cc565b915061057582610775565b606082019050919050565b61058981610719565b82525050565b60006020820190506105a46000830184610508565b92915050565b600060a0820190506105bf6000830188610508565b6105cc6020830187610508565b6105d96040830186610508565b6105e66060830185610580565b6105f360808301846104f9565b9695505050505050565b600060e082019050610612600083018a610508565b61061f6020830189610508565b61062c6040830188610580565b6106396060830187610580565b6106466080830186610508565b61065360a08301856104f9565b61066060c0830184610508565b98975050505050505050565b6000602082019050818103600083015261068581610517565b9050919050565b600060208201905081810360008301526106a58161053a565b9050919050565b600060208201905081810360008301526106c58161055d565b9050919050565b600082825260208201905092915050565b60006106e8826106f9565b9050919050565b6000819050919050565b600073ffffffffffffffffffffffffffffffffffffffff82169050919050565b6000819050919050565b7f546869732050435220686173206265656e2064656c657465642e000000000000600082015250565b7f504352732063616e206f6e6c7920557064617465206f6e636500000000000000600082015250565b7f496e737572616e636520616e642050435220696473206861766520746f20626560008201527f207468652073616d6520617320746865206f6e657320696e207468697320636f60208201527f6e74726163740000000000000000000000000000000000000000000000000000604082015250565b6107f3816106ef565b81146107fe57600080fd5b50565b61080a81610719565b811461081557600080fd5b5056fea2646970667358221220c0e0c6a7c1fd117a4335edda0044d4e78da860b96ddb003382e96e65b790daaf64736f6c63430008030033",
      "opcodes": "PUSH1 0x80 PUSH1 0x40 MSTORE CALLVALUE DUP1 ISZERO PUSH3 0x11 JUMPI PUSH1 0x0 DUP1 REVERT JUMPDEST POP PUSH1 0x40 MLOAD PUSH3 0xB06 CODESIZE SUB DUP1 PUSH3 0xB06 DUP4 CODECOPY DUP2 DUP2 ADD PUSH1 0x40 MSTORE DUP2 ADD SWAP1 PUSH3 0x37 SWAP2 SWAP1 PUSH3 0x190 JUMP JUMPDEST DUP1 PUSH1 0x1 PUSH1 0x6 ADD PUSH1 0x0 PUSH2 0x100 EXP DUP2 SLOAD DUP2 PUSH20 0xFFFFFFFFFFFFFFFFFFFFFFFFFFFFFFFFFFFFFFFF MUL NOT AND SWAP1 DUP4 PUSH20 0xFFFFFFFFFFFFFFFFFFFFFFFFFFFFFFFFFFFFFFFF AND MUL OR SWAP1 SSTORE POP DUP2 PUSH1 0x1 PUSH1 0x4 ADD DUP2 SWAP1 SSTORE POP DUP3 PUSH1 0x1 PUSH1 0x3 ADD DUP2 SWAP1 SSTORE POP DUP4 PUSH1 0x1 PUSH1 0x0 ADD DUP2 SWAP1 SSTORE POP DUP5 PUSH1 0x1 PUSH1 0x2 ADD DUP2 SWAP1 SSTORE POP CALLER PUSH1 0x0 DUP1 PUSH2 0x100 EXP DUP2 SLOAD DUP2 PUSH20 0xFFFFFFFFFFFFFFFFFFFFFFFFFFFFFFFFFFFFFFFF MUL NOT AND SWAP1 DUP4 PUSH20 0xFFFFFFFFFFFFFFFFFFFFFFFFFFFFFFFFFFFFFFFF AND MUL OR SWAP1 SSTORE POP PUSH1 0x0 DUP1 PUSH1 0x14 PUSH2 0x100 EXP DUP2 SLOAD DUP2 PUSH1 0xFF MUL NOT AND SWAP1 DUP4 ISZERO ISZERO MUL OR SWAP1 SSTORE POP PUSH32 0x554E444546494E45440000000000000000000000000000000000000000000000 PUSH1 0x1 DUP1 ADD DUP2 SWAP1 SSTORE POP PUSH1 0x0 DUP1 PUSH1 0x15 PUSH2 0x100 EXP DUP2 SLOAD DUP2 PUSH1 0xFF MUL NOT AND SWAP1 DUP4 ISZERO ISZERO MUL OR SWAP1 SSTORE POP POP POP POP POP POP PUSH3 0x2A8 JUMP JUMPDEST PUSH1 0x0 DUP2 MLOAD SWAP1 POP PUSH3 0x15C DUP2 PUSH3 0x25A JUMP JUMPDEST SWAP3 SWAP2 POP POP JUMP JUMPDEST PUSH1 0x0 DUP2 MLOAD SWAP1 POP PUSH3 0x173 DUP2 PUSH3 0x274 JUMP JUMPDEST SWAP3 SWAP2 POP POP JUMP JUMPDEST PUSH1 0x0 DUP2 MLOAD SWAP1 POP PUSH3 0x18A DUP2 PUSH3 0x28E JUMP JUMPDEST SWAP3 SWAP2 POP POP JUMP JUMPDEST PUSH1 0x0 DUP1 PUSH1 0x0 DUP1 PUSH1 0x0 PUSH1 0xA0 DUP7 DUP9 SUB SLT ISZERO PUSH3 0x1A9 JUMPI PUSH1 0x0 DUP1 REVERT JUMPDEST PUSH1 0x0 PUSH3 0x1B9 DUP9 DUP3 DUP10 ADD PUSH3 0x162 JUMP JUMPDEST SWAP6 POP POP PUSH1 0x20 PUSH3 0x1CC DUP9 DUP3 DUP10 ADD PUSH3 0x162 JUMP JUMPDEST SWAP5 POP POP PUSH1 0x40 PUSH3 0x1DF DUP9 DUP3 DUP10 ADD PUSH3 0x162 JUMP JUMPDEST SWAP4 POP POP PUSH1 0x60 PUSH3 0x1F2 DUP9 DUP3 DUP10 ADD PUSH3 0x179 JUMP JUMPDEST SWAP3 POP POP PUSH1 0x80 PUSH3 0x205 DUP9 DUP3 DUP10 ADD PUSH3 0x14B JUMP JUMPDEST SWAP2 POP POP SWAP3 SWAP6 POP SWAP3 SWAP6 SWAP1 SWAP4 POP JUMP JUMPDEST PUSH1 0x0 PUSH3 0x21F DUP3 PUSH3 0x230 JUMP JUMPDEST SWAP1 POP SWAP2 SWAP1 POP JUMP JUMPDEST PUSH1 0x0 DUP2 SWAP1 POP SWAP2 SWAP1 POP JUMP JUMPDEST PUSH1 0x0 PUSH20 0xFFFFFFFFFFFFFFFFFFFFFFFFFFFFFFFFFFFFFFFF DUP3 AND SWAP1 POP SWAP2 SWAP1 POP JUMP JUMPDEST PUSH1 0x0 DUP2 SWAP1 POP SWAP2 SWAP1 POP JUMP JUMPDEST PUSH3 0x265 DUP2 PUSH3 0x212 JUMP JUMPDEST DUP2 EQ PUSH3 0x271 JUMPI PUSH1 0x0 DUP1 REVERT JUMPDEST POP JUMP JUMPDEST PUSH3 0x27F DUP2 PUSH3 0x226 JUMP JUMPDEST DUP2 EQ PUSH3 0x28B JUMPI PUSH1 0x0 DUP1 REVERT JUMPDEST POP JUMP JUMPDEST PUSH3 0x299 DUP2 PUSH3 0x250 JUMP JUMPDEST DUP2 EQ PUSH3 0x2A5 JUMPI PUSH1 0x0 DUP1 REVERT JUMPDEST POP JUMP JUMPDEST PUSH2 0x84E DUP1 PUSH3 0x2B8 PUSH1 0x0 CODECOPY PUSH1 0x0 RETURN INVALID PUSH1 0x80 PUSH1 0x40 MSTORE CALLVALUE DUP1 ISZERO PUSH2 0x10 JUMPI PUSH1 0x0 DUP1 REVERT JUMPDEST POP PUSH1 0x4 CALLDATASIZE LT PUSH2 0x57 JUMPI PUSH1 0x0 CALLDATALOAD PUSH1 0xE0 SHR DUP1 PUSH4 0x3202017 EQ PUSH2 0x5C JUMPI DUP1 PUSH4 0x34B1794C EQ PUSH2 0x80 JUMPI DUP1 PUSH4 0x5D1CA631 EQ PUSH2 0x8A JUMPI DUP1 PUSH4 0x9499E018 EQ PUSH2 0xA8 JUMPI DUP1 PUSH4 0x97FCCD59 EQ PUSH2 0xB2 JUMPI JUMPDEST PUSH1 0x0 DUP1 REVERT JUMPDEST PUSH2 0x64 PUSH2 0xCE JUMP JUMPDEST PUSH1 0x40 MLOAD PUSH2 0x77 SWAP8 SWAP7 SWAP6 SWAP5 SWAP4 SWAP3 SWAP2 SWAP1 PUSH2 0x5FD JUMP JUMPDEST PUSH1 0x40 MLOAD DUP1 SWAP2 SUB SWAP1 RETURN JUMPDEST PUSH2 0x88 PUSH2 0x114 JUMP JUMPDEST STOP JUMPDEST PUSH2 0x92 PUSH2 0x1DD JUMP JUMPDEST PUSH1 0x40 MLOAD PUSH2 0x9F SWAP2 SWAP1 PUSH2 0x58F JUMP JUMPDEST PUSH1 0x40 MLOAD DUP1 SWAP2 SUB SWAP1 RETURN JUMPDEST PUSH2 0xB0 PUSH2 0x239 JUMP JUMPDEST STOP JUMPDEST PUSH2 0xCC PUSH1 0x4 DUP1 CALLDATASIZE SUB DUP2 ADD SWAP1 PUSH2 0xC7 SWAP2 SWAP1 PUSH2 0x496 JUMP JUMPDEST PUSH2 0x2CA JUMP JUMPDEST STOP JUMPDEST PUSH1 0x0 DUP1 PUSH1 0x0 DUP1 PUSH1 0x0 DUP1 PUSH1 0x0 PUSH1 0x1 DUP1 ADD SLOAD PUSH1 0x1 PUSH1 0x3 ADD SLOAD PUSH1 0x1 PUSH1 0x4 ADD SLOAD PUSH1 0x1 PUSH1 0x5 ADD SLOAD PUSH1 0x1 PUSH1 0x2 ADD SLOAD ADDRESS PUSH1 0x1 PUSH1 0x0 ADD SLOAD SWAP7 POP SWAP7 POP SWAP7 POP SWAP7 POP SWAP7 POP SWAP7 POP SWAP7 POP SWAP1 SWAP2 SWAP3 SWAP4 SWAP5 SWAP6 SWAP7 JUMP JUMPDEST PUSH1 0x0 PUSH1 0x15 SWAP1 SLOAD SWAP1 PUSH2 0x100 EXP SWAP1 DIV PUSH1 0xFF AND ISZERO PUSH2 0x164 JUMPI PUSH1 0x40 MLOAD PUSH32 0x8C379A000000000000000000000000000000000000000000000000000000000 DUP2 MSTORE PUSH1 0x4 ADD PUSH2 0x15B SWAP1 PUSH2 0x66C JUMP JUMPDEST PUSH1 0x40 MLOAD DUP1 SWAP2 SUB SWAP1 REVERT JUMPDEST PUSH1 0x1 PUSH1 0x0 PUSH1 0x15 PUSH2 0x100 EXP DUP2 SLOAD DUP2 PUSH1 0xFF MUL NOT AND SWAP1 DUP4 ISZERO ISZERO MUL OR SWAP1 SSTORE POP PUSH1 0x1 PUSH1 0x0 DUP1 DUP3 ADD PUSH1 0x0 SWAP1 SSTORE PUSH1 0x1 DUP3 ADD PUSH1 0x0 SWAP1 SSTORE PUSH1 0x2 DUP3 ADD PUSH1 0x0 SWAP1 SSTORE PUSH1 0x3 DUP3 ADD PUSH1 0x0 SWAP1 SSTORE PUSH1 0x4 DUP3 ADD PUSH1 0x0 SWAP1 SSTORE PUSH1 0x5 DUP3 ADD PUSH1 0x0 SWAP1 SSTORE PUSH1 0x6 DUP3 ADD PUSH1 0x0 PUSH2 0x100 EXP DUP2 SLOAD SWAP1 PUSH20 0xFFFFFFFFFFFFFFFFFFFFFFFFFFFFFFFFFFFFFFFF MUL NOT AND SWAP1 SSTORE POP POP JUMP JUMPDEST PUSH1 0x0 DUP1 PUSH1 0x15 SWAP1 SLOAD SWAP1 PUSH2 0x100 EXP SWAP1 DIV PUSH1 0xFF AND ISZERO PUSH2 0x22E JUMPI PUSH1 0x40 MLOAD PUSH32 0x8C379A000000000000000000000000000000000000000000000000000000000 DUP2 MSTORE PUSH1 0x4 ADD PUSH2 0x225 SWAP1 PUSH2 0x66C JUMP JUMPDEST PUSH1 0x40 MLOAD DUP1 SWAP2 SUB SWAP1 REVERT JUMPDEST PUSH1 0x1 PUSH1 0x2 ADD SLOAD SWAP1 POP SWAP1 JUMP JUMPDEST PUSH1 0x0 DUP1 SLOAD SWAP1 PUSH2 0x100 EXP SWAP1 DIV PUSH20 0xFFFFFFFFFFFFFFFFFFFFFFFFFFFFFFFFFFFFFFFF AND PUSH20 0xFFFFFFFFFFFFFFFFFFFFFFFFFFFFFFFFFFFFFFFF AND CALLER PUSH20 0xFFFFFFFFFFFFFFFFFFFFFFFFFFFFFFFFFFFFFFFF AND EQ PUSH2 0x291 JUMPI PUSH1 0x0 DUP1 REVERT JUMPDEST PUSH1 0x0 DUP1 SLOAD SWAP1 PUSH2 0x100 EXP SWAP1 DIV PUSH20 0xFFFFFFFFFFFFFFFFFFFFFFFFFFFFFFFFFFFFFFFF AND PUSH20 0xFFFFFFFFFFFFFFFFFFFFFFFFFFFFFFFFFFFFFFFF AND SELFDESTRUCT JUMPDEST PUSH1 0x0 PUSH1 0x15 SWAP1 SLOAD SWAP1 PUSH2 0x100 EXP SWAP1 DIV PUSH1 0xFF AND ISZERO PUSH2 0x31A JUMPI PUSH1 0x40 MLOAD PUSH32 0x8C379A000000000000000000000000000000000000000000000000000000000 DUP2 MSTORE PUSH1 0x4 ADD PUSH2 0x311 SWAP1 PUSH2 0x66C JUMP JUMPDEST PUSH1 0x40 MLOAD DUP1 SWAP2 SUB SWAP1 REVERT JUMPDEST PUSH1 0x0 PUSH1 0x14 SWAP1 SLOAD SWAP1 PUSH2 0x100 EXP SWAP1 DIV PUSH1 0xFF AND ISZERO PUSH2 0x36A JUMPI PUSH1 0x40 MLOAD PUSH32 0x8C379A000000000000000000000000000000000000000000000000000000000 DUP2 MSTORE PUSH1 0x4 ADD PUSH2 0x361 SWAP1 PUSH2 0x68C JUMP JUMPDEST PUSH1 0x40 MLOAD DUP1 SWAP2 SUB SWAP1 REVERT JUMPDEST PUSH1 0x1 PUSH1 0x0 ADD SLOAD DUP3 EQ DUP1 ISZERO PUSH2 0x382 JUMPI POP PUSH1 0x1 PUSH1 0x2 ADD SLOAD DUP2 EQ JUMPDEST PUSH2 0x3C1 JUMPI PUSH1 0x40 MLOAD PUSH32 0x8C379A000000000000000000000000000000000000000000000000000000000 DUP2 MSTORE PUSH1 0x4 ADD PUSH2 0x3B8 SWAP1 PUSH2 0x6AC JUMP JUMPDEST PUSH1 0x40 MLOAD DUP1 SWAP2 SUB SWAP1 REVERT JUMPDEST PUSH1 0x1 PUSH1 0x0 PUSH1 0x14 PUSH2 0x100 EXP DUP2 SLOAD DUP2 PUSH1 0xFF MUL NOT AND SWAP1 DUP4 ISZERO ISZERO MUL OR SWAP1 SSTORE POP DUP4 PUSH1 0x1 DUP1 ADD DUP2 SWAP1 SSTORE POP DUP3 PUSH1 0x1 PUSH1 0x5 ADD DUP2 SWAP1 SSTORE POP PUSH32 0x19180BD50566344AFB9366EC620A67EF53B5838DE32E3C1564AA5E90125B740 PUSH1 0x1 PUSH1 0x0 ADD SLOAD PUSH1 0x1 PUSH1 0x2 ADD SLOAD PUSH1 0x1 DUP1 ADD SLOAD PUSH1 0x1 PUSH1 0x5 ADD SLOAD PUSH1 0x1 PUSH1 0x6 ADD PUSH1 0x0 SWAP1 SLOAD SWAP1 PUSH2 0x100 EXP SWAP1 DIV PUSH20 0xFFFFFFFFFFFFFFFFFFFFFFFFFFFFFFFFFFFFFFFF AND PUSH1 0x40 MLOAD PUSH2 0x45E SWAP6 SWAP5 SWAP4 SWAP3 SWAP2 SWAP1 PUSH2 0x5AA JUMP JUMPDEST PUSH1 0x40 MLOAD DUP1 SWAP2 SUB SWAP1 LOG1 POP POP POP POP JUMP JUMPDEST PUSH1 0x0 DUP2 CALLDATALOAD SWAP1 POP PUSH2 0x47B DUP2 PUSH2 0x7EA JUMP JUMPDEST SWAP3 SWAP2 POP POP JUMP JUMPDEST PUSH1 0x0 DUP2 CALLDATALOAD SWAP1 POP PUSH2 0x490 DUP2 PUSH2 0x801 JUMP JUMPDEST SWAP3 SWAP2 POP POP JUMP JUMPDEST PUSH1 0x0 DUP1 PUSH1 0x0 DUP1 PUSH1 0x80 DUP6 DUP8 SUB SLT ISZERO PUSH2 0x4AC JUMPI PUSH1 0x0 DUP1 REVERT JUMPDEST PUSH1 0x0 PUSH2 0x4BA DUP8 DUP3 DUP9 ADD PUSH2 0x46C JUMP JUMPDEST SWAP5 POP POP PUSH1 0x20 PUSH2 0x4CB DUP8 DUP3 DUP9 ADD PUSH2 0x481 JUMP JUMPDEST SWAP4 POP POP PUSH1 0x40 PUSH2 0x4DC DUP8 DUP3 DUP9 ADD PUSH2 0x46C JUMP JUMPDEST SWAP3 POP POP PUSH1 0x60 PUSH2 0x4ED DUP8 DUP3 DUP9 ADD PUSH2 0x46C JUMP JUMPDEST SWAP2 POP POP SWAP3 SWAP6 SWAP2 SWAP5 POP SWAP3 POP JUMP JUMPDEST PUSH2 0x502 DUP2 PUSH2 0x6DD JUMP JUMPDEST DUP3 MSTORE POP POP JUMP JUMPDEST PUSH2 0x511 DUP2 PUSH2 0x6EF JUMP JUMPDEST DUP3 MSTORE POP POP JUMP JUMPDEST PUSH1 0x0 PUSH2 0x524 PUSH1 0x1A DUP4 PUSH2 0x6CC JUMP JUMPDEST SWAP2 POP PUSH2 0x52F DUP3 PUSH2 0x723 JUMP JUMPDEST PUSH1 0x20 DUP3 ADD SWAP1 POP SWAP2 SWAP1 POP JUMP JUMPDEST PUSH1 0x0 PUSH2 0x547 PUSH1 0x19 DUP4 PUSH2 0x6CC JUMP JUMPDEST SWAP2 POP PUSH2 0x552 DUP3 PUSH2 0x74C JUMP JUMPDEST PUSH1 0x20 DUP3 ADD SWAP1 POP SWAP2 SWAP1 POP JUMP JUMPDEST PUSH1 0x0 PUSH2 0x56A PUSH1 0x46 DUP4 PUSH2 0x6CC JUMP JUMPDEST SWAP2 POP PUSH2 0x575 DUP3 PUSH2 0x775 JUMP JUMPDEST PUSH1 0x60 DUP3 ADD SWAP1 POP SWAP2 SWAP1 POP JUMP JUMPDEST PUSH2 0x589 DUP2 PUSH2 0x719 JUMP JUMPDEST DUP3 MSTORE POP POP JUMP JUMPDEST PUSH1 0x0 PUSH1 0x20 DUP3 ADD SWAP1 POP PUSH2 0x5A4 PUSH1 0x0 DUP4 ADD DUP5 PUSH2 0x508 JUMP JUMPDEST SWAP3 SWAP2 POP POP JUMP JUMPDEST PUSH1 0x0 PUSH1 0xA0 DUP3 ADD SWAP1 POP PUSH2 0x5BF PUSH1 0x0 DUP4 ADD DUP9 PUSH2 0x508 JUMP JUMPDEST PUSH2 0x5CC PUSH1 0x20 DUP4 ADD DUP8 PUSH2 0x508 JUMP JUMPDEST PUSH2 0x5D9 PUSH1 0x40 DUP4 ADD DUP7 PUSH2 0x508 JUMP JUMPDEST PUSH2 0x5E6 PUSH1 0x60 DUP4 ADD DUP6 PUSH2 0x580 JUMP JUMPDEST PUSH2 0x5F3 PUSH1 0x80 DUP4 ADD DUP5 PUSH2 0x4F9 JUMP JUMPDEST SWAP7 SWAP6 POP POP POP POP POP POP JUMP JUMPDEST PUSH1 0x0 PUSH1 0xE0 DUP3 ADD SWAP1 POP PUSH2 0x612 PUSH1 0x0 DUP4 ADD DUP11 PUSH2 0x508 JUMP JUMPDEST PUSH2 0x61F PUSH1 0x20 DUP4 ADD DUP10 PUSH2 0x508 JUMP JUMPDEST PUSH2 0x62C PUSH1 0x40 DUP4 ADD DUP9 PUSH2 0x580 JUMP JUMPDEST PUSH2 0x639 PUSH1 0x60 DUP4 ADD DUP8 PUSH2 0x580 JUMP JUMPDEST PUSH2 0x646 PUSH1 0x80 DUP4 ADD DUP7 PUSH2 0x508 JUMP JUMPDEST PUSH2 0x653 PUSH1 0xA0 DUP4 ADD DUP6 PUSH2 0x4F9 JUMP JUMPDEST PUSH2 0x660 PUSH1 0xC0 DUP4 ADD DUP5 PUSH2 0x508 JUMP JUMPDEST SWAP9 SWAP8 POP POP POP POP POP POP POP POP JUMP JUMPDEST PUSH1 0x0 PUSH1 0x20 DUP3 ADD SWAP1 POP DUP2 DUP2 SUB PUSH1 0x0 DUP4 ADD MSTORE PUSH2 0x685 DUP2 PUSH2 0x517 JUMP JUMPDEST SWAP1 POP SWAP2 SWAP1 POP JUMP JUMPDEST PUSH1 0x0 PUSH1 0x20 DUP3 ADD SWAP1 POP DUP2 DUP2 SUB PUSH1 0x0 DUP4 ADD MSTORE PUSH2 0x6A5 DUP2 PUSH2 0x53A JUMP JUMPDEST SWAP1 POP SWAP2 SWAP1 POP JUMP JUMPDEST PUSH1 0x0 PUSH1 0x20 DUP3 ADD SWAP1 POP DUP2 DUP2 SUB PUSH1 0x0 DUP4 ADD MSTORE PUSH2 0x6C5 DUP2 PUSH2 0x55D JUMP JUMPDEST SWAP1 POP SWAP2 SWAP1 POP JUMP JUMPDEST PUSH1 0x0 DUP3 DUP3 MSTORE PUSH1 0x20 DUP3 ADD SWAP1 POP SWAP3 SWAP2 POP POP JUMP JUMPDEST PUSH1 0x0 PUSH2 0x6E8 DUP3 PUSH2 0x6F9 JUMP JUMPDEST SWAP1 POP SWAP2 SWAP1 POP JUMP JUMPDEST PUSH1 0x0 DUP2 SWAP1 POP SWAP2 SWAP1 POP JUMP JUMPDEST PUSH1 0x0 PUSH20 0xFFFFFFFFFFFFFFFFFFFFFFFFFFFFFFFFFFFFFFFF DUP3 AND SWAP1 POP SWAP2 SWAP1 POP JUMP JUMPDEST PUSH1 0x0 DUP2 SWAP1 POP SWAP2 SWAP1 POP JUMP JUMPDEST PUSH32 0x546869732050435220686173206265656E2064656C657465642E000000000000 PUSH1 0x0 DUP3 ADD MSTORE POP JUMP JUMPDEST PUSH32 0x504352732063616E206F6E6C7920557064617465206F6E636500000000000000 PUSH1 0x0 DUP3 ADD MSTORE POP JUMP JUMPDEST PUSH32 0x496E737572616E636520616E642050435220696473206861766520746F206265 PUSH1 0x0 DUP3 ADD MSTORE PUSH32 0x207468652073616D6520617320746865206F6E657320696E207468697320636F PUSH1 0x20 DUP3 ADD MSTORE PUSH32 0x6E74726163740000000000000000000000000000000000000000000000000000 PUSH1 0x40 DUP3 ADD MSTORE POP JUMP JUMPDEST PUSH2 0x7F3 DUP2 PUSH2 0x6EF JUMP JUMPDEST DUP2 EQ PUSH2 0x7FE JUMPI PUSH1 0x0 DUP1 REVERT JUMPDEST POP JUMP JUMPDEST PUSH2 0x80A DUP2 PUSH2 0x719 JUMP JUMPDEST DUP2 EQ PUSH2 0x815 JUMPI PUSH1 0x0 DUP1 REVERT JUMPDEST POP JUMP INVALID LOG2 PUSH5 0x6970667358 0x22 SLT KECCAK256 0xC0 0xE0 0xC6 0xA7 0xC1 REVERT GT PUSH27 0x4335EDDA0044D4E78DA860B96DDB003382E96E65B790DAAF64736F PUSH13 0x63430008030033000000000000 "
    },
    "gasEstimates": {
      "creation": {
        "codeDepositCost": "425200",
        "executionCost": "infinite",
        "totalCost": "infinite"
      },
      "external": {
        "deletePCR()": "72915",
        "destructContract()": "31888",
        "getId()": "2071",
        "getPCRData()": "infinite",
        "updatePCR(bytes32,uint256,bytes32,bytes32)": "infinite"
      }
    },
    "methodIdentifiers": {
      "deletePCR()": "34b1794c",
      "destructContract()": "9499e018",
      "getId()": "5d1ca631",
      "getPCRData()": "03202017",
      "updatePCR(bytes32,uint256,bytes32,bytes32)": "97fccd59"
    }
  },
  "storageLayout": {
    "storage": [
      {
        "astId": 1588,
        "contract": "PCR.sol:PCR",
        "label": "owner",
        "offset": 0,
        "slot": "0",
        "type": "t_address_payable"
      },
      {
        "astId": 1590,
        "contract": "PCR.sol:PCR",
        "label": "completed",
        "offset": 20,
        "slot": "0",
        "type": "t_bool"
      },
      {
        "astId": 1592,
        "contract": "PCR.sol:PCR",
        "label": "deleted",
        "offset": 21,
        "slot": "0",
        "type": "t_bool"
      },
      {
        "astId": 1595,
        "contract": "PCR.sol:PCR",
        "label": "pcrData",
        "offset": 0,
        "slot": "1",
        "type": "t_struct(PCRData)1586_storage"
      }
    ],
    "types": {
      "t_address": {
        "encoding": "inplace",
        "label": "address",
        "numberOfBytes": "20"
      },
      "t_address_payable": {
        "encoding": "inplace",
        "label": "address payable",
        "numberOfBytes": "20"
      },
      "t_bool": {
        "encoding": "inplace",
        "label": "bool",
        "numberOfBytes": "1"
      },
      "t_bytes32": {
        "encoding": "inplace",
        "label": "bytes32",
        "numberOfBytes": "32"
      },
      "t_struct(PCRData)1586_storage": {
        "encoding": "inplace",
        "label": "struct PCR.PCRData",
        "members": [
          {
            "astId": 1573,
            "contract": "PCR.sol:PCR",
            "label": "insuranceId",
            "offset": 0,
            "slot": "0",
            "type": "t_bytes32"
          },
          {
            "astId": 1575,
            "contract": "PCR.sol:PCR",
            "label": "result",
            "offset": 0,
            "slot": "1",
            "type": "t_bytes32"
          },
          {
            "astId": 1577,
            "contract": "PCR.sol:PCR",
            "label": "id",
            "offset": 0,
            "slot": "2",
            "type": "t_bytes32"
          },
          {
            "astId": 1579,
            "contract": "PCR.sol:PCR",
            "label": "insuredId",
            "offset": 0,
            "slot": "3",
            "type": "t_bytes32"
          },
          {
            "astId": 1581,
            "contract": "PCR.sol:PCR",
            "label": "requestDate",
            "offset": 0,
            "slot": "4",
            "type": "t_uint256"
          },
          {
            "astId": 1583,
            "contract": "PCR.sol:PCR",
            "label": "resultDate",
            "offset": 0,
            "slot": "5",
            "type": "t_uint256"
          },
          {
            "astId": 1585,
            "contract": "PCR.sol:PCR",
            "label": "insuranceAddress",
            "offset": 0,
            "slot": "6",
            "type": "t_address"
          }
        ],
        "numberOfBytes": "224"
      },
      "t_uint256": {
        "encoding": "inplace",
        "label": "uint256",
        "numberOfBytes": "32"
      }
    }
  },
  "userdoc": {
    "kind": "user",
    "methods": {
      "constructor": {
        "notice": "Initialize the PCR."
      },
      "deletePCR()": {
        "notice": "Delete the actual PCR."
      },
      "destructContract()": {
        "notice": "Delete the contract of the blockchain."
      },
      "getId()": {
        "notice": "Returns only the PCR id."
      },
      "getPCRData()": {
        "notice": "Returns PCR data."
      },
      "updatePCR(bytes32,uint256,bytes32,bytes32)": {
        "notice": "Update de pcr result state from the laboratory."
      }
    },
    "version": 1
  }
}