{
  "abi": [
    {
      "inputs": [
        {
          "internalType": "bytes32",
          "name": "_id",
          "type": "bytes32"
        },
        {
          "internalType": "bytes32",
          "name": "_insuranceId",
          "type": "bytes32"
        },
        {
          "internalType": "bytes32",
          "name": "_insuredId",
          "type": "bytes32"
        },
        {
          "internalType": "uint256",
          "name": "_requestDate",
          "type": "uint256"
        }
      ],
      "stateMutability": "nonpayable",
      "type": "constructor"
    },
    {
      "anonymous": false,
      "inputs": [
        {
          "indexed": false,
          "internalType": "bytes32",
          "name": "insuranceId",
          "type": "bytes32"
        },
        {
          "indexed": false,
          "internalType": "bytes32",
          "name": "pcrId",
          "type": "bytes32"
        },
        {
          "indexed": false,
          "internalType": "bytes32",
          "name": "result",
          "type": "bytes32"
        },
        {
          "indexed": false,
          "internalType": "uint256",
          "name": "resultDate",
          "type": "uint256"
        }
      ],
      "name": "pcrUpdate",
      "type": "event"
    },
    {
      "inputs": [],
      "name": "deletePCR",
      "outputs": [],
      "stateMutability": "nonpayable",
      "type": "function"
    },
    {
      "inputs": [],
      "name": "destructContract",
      "outputs": [],
      "stateMutability": "nonpayable",
      "type": "function"
    },
    {
      "inputs": [],
      "name": "getId",
      "outputs": [
        {
          "internalType": "bytes32",
          "name": "id",
          "type": "bytes32"
        }
      ],
      "stateMutability": "view",
      "type": "function"
    },
    {
      "inputs": [],
      "name": "getPCRData",
      "outputs": [
        {
          "internalType": "bytes32",
          "name": "result",
          "type": "bytes32"
        },
        {
          "internalType": "bytes32",
          "name": "customerId",
          "type": "bytes32"
        },
        {
          "internalType": "uint256",
          "name": "requestDate",
          "type": "uint256"
        },
        {
          "internalType": "uint256",
          "name": "resultDate",
          "type": "uint256"
        },
        {
          "internalType": "bytes32",
          "name": "id",
          "type": "bytes32"
        },
        {
          "internalType": "address",
          "name": "pcrContractAddress",
          "type": "address"
        },
        {
          "internalType": "bytes32",
          "name": "insuranceId",
          "type": "bytes32"
        }
      ],
      "stateMutability": "view",
      "type": "function"
    },
    {
      "inputs": [
        {
          "internalType": "bytes32",
          "name": "_result",
          "type": "bytes32"
        },
        {
          "internalType": "uint256",
          "name": "_resultDate",
          "type": "uint256"
        },
        {
          "internalType": "bytes32",
          "name": "_insuranceId",
          "type": "bytes32"
        },
        {
          "internalType": "bytes32",
          "name": "_pcrId",
          "type": "bytes32"
        }
      ],
      "name": "updatePCR",
      "outputs": [],
      "stateMutability": "nonpayable",
      "type": "function"
    }
  ],
  "devdoc": {
    "author": "Eduardo Suarez Ojeda",
    "details": "The Contract represents the life cycle of a PCR linked to an insured.",
    "kind": "dev",
    "methods": {
      "deletePCR()": {
        "details": "Makes every method inaccessible except the one that returns the data."
      },
      "destructContract()": {
        "details": "Only use in extreme situations."
      }
    },
    "title": "PCR",
    "version": 1
  },
  "evm": {
    "assembly": "    /* \"PCR.sol\":157:2790  contract PCR {... */\n  mstore(0x40, 0x80)\n    /* \"PCR.sol\":751:1167  constructor(... */\n  callvalue\n  dup1\n  iszero\n  tag_1\n  jumpi\n  0x00\n  dup1\n  revert\ntag_1:\n  pop\n  mload(0x40)\n  sub(codesize, bytecodeSize)\n  dup1\n  bytecodeSize\n  dup4\n  codecopy\n  dup2\n  dup2\n  add\n  0x40\n  mstore\n  dup2\n  add\n  swap1\n  tag_2\n  swap2\n  swap1\n  tag_3\n  jump\t// in\ntag_2:\n    /* \"PCR.sol\":909:919  _insuredId */\n  dup2\n    /* \"PCR.sol\":889:896  pcrData */\n  0x01\n    /* \"PCR.sol\":889:906  pcrData.insuredId */\n  0x03\n  add\n    /* \"PCR.sol\":889:919  pcrData.insuredId = _insuredId */\n  dup2\n  swap1\n  sstore\n  pop\n    /* \"PCR.sol\":951:963  _insuranceId */\n  dup3\n    /* \"PCR.sol\":929:936  pcrData */\n  0x01\n    /* \"PCR.sol\":929:948  pcrData.insuranceId */\n  0x00\n  add\n    /* \"PCR.sol\":929:963  pcrData.insuranceId = _insuranceId */\n  dup2\n  swap1\n  sstore\n  pop\n    /* \"PCR.sol\":986:989  _id */\n  dup4\n    /* \"PCR.sol\":973:980  pcrData */\n  0x01\n    /* \"PCR.sol\":973:983  pcrData.id */\n  0x02\n  add\n    /* \"PCR.sol\":973:989  pcrData.id = _id */\n  dup2\n  swap1\n  sstore\n  pop\n    /* \"PCR.sol\":1015:1025  msg.sender */\n  caller\n    /* \"PCR.sol\":999:1004  owner */\n  0x00\n  dup1\n    /* \"PCR.sol\":999:1026  owner = payable(msg.sender) */\n  0x0100\n  exp\n  dup2\n  sload\n  dup2\n  0xffffffffffffffffffffffffffffffffffffffff\n  mul\n  not\n  and\n  swap1\n  dup4\n  0xffffffffffffffffffffffffffffffffffffffff\n  and\n  mul\n  or\n  swap1\n  sstore\n  pop\n    /* \"PCR.sol\":1048:1053  false */\n  0x00\n    /* \"PCR.sol\":1036:1045  completed */\n  dup1\n  0x14\n    /* \"PCR.sol\":1036:1053  completed = false */\n  0x0100\n  exp\n  dup2\n  sload\n  dup2\n  0xff\n  mul\n  not\n  and\n  swap1\n  dup4\n  iszero\n  iszero\n  mul\n  or\n  swap1\n  sstore\n  pop\n    /* \"PCR.sol\":1085:1097  _requestDate */\n  dup1\n    /* \"PCR.sol\":1063:1070  pcrData */\n  0x01\n    /* \"PCR.sol\":1063:1082  pcrData.requestDate */\n  0x04\n  add\n    /* \"PCR.sol\":1063:1097  pcrData.requestDate = _requestDate */\n  dup2\n  swap1\n  sstore\n  pop\n    /* \"PCR.sol\":1107:1135  pcrData.result = \"UNDEFINED\" */\n  0x554e444546494e45440000000000000000000000000000000000000000000000\n    /* \"PCR.sol\":1107:1114  pcrData */\n  0x01\n    /* \"PCR.sol\":1107:1121  pcrData.result */\n  dup1\n  add\n    /* \"PCR.sol\":1107:1135  pcrData.result = \"UNDEFINED\" */\n  dup2\n  swap1\n  sstore\n  pop\n    /* \"PCR.sol\":1155:1160  false */\n  0x00\n    /* \"PCR.sol\":1145:1152  deleted */\n  dup1\n  0x15\n    /* \"PCR.sol\":1145:1160  deleted = false */\n  0x0100\n  exp\n  dup2\n  sload\n  dup2\n  0xff\n  mul\n  not\n  and\n  swap1\n  dup4\n  iszero\n  iszero\n  mul\n  or\n  swap1\n  sstore\n  pop\n    /* \"PCR.sol\":751:1167  constructor(... */\n  pop\n  pop\n  pop\n  pop\n    /* \"PCR.sol\":157:2790  contract PCR {... */\n  jump(tag_6)\n    /* \"#utility.yul\":7:150   */\ntag_8:\n  0x00\n    /* \"#utility.yul\":95:101   */\n  dup2\n    /* \"#utility.yul\":89:102   */\n  mload\n    /* \"#utility.yul\":80:102   */\n  swap1\n  pop\n    /* \"#utility.yul\":111:144   */\n  tag_10\n    /* \"#utility.yul\":138:143   */\n  dup2\n    /* \"#utility.yul\":111:144   */\n  tag_11\n  jump\t// in\ntag_10:\n    /* \"#utility.yul\":70:150   */\n  swap3\n  swap2\n  pop\n  pop\n  jump\t// out\n    /* \"#utility.yul\":156:299   */\ntag_12:\n  0x00\n    /* \"#utility.yul\":244:250   */\n  dup2\n    /* \"#utility.yul\":238:251   */\n  mload\n    /* \"#utility.yul\":229:251   */\n  swap1\n  pop\n    /* \"#utility.yul\":260:293   */\n  tag_14\n    /* \"#utility.yul\":287:292   */\n  dup2\n    /* \"#utility.yul\":260:293   */\n  tag_15\n  jump\t// in\ntag_14:\n    /* \"#utility.yul\":219:299   */\n  swap3\n  swap2\n  pop\n  pop\n  jump\t// out\n    /* \"#utility.yul\":305:1058   */\ntag_3:\n  0x00\n  dup1\n  0x00\n  dup1\n    /* \"#utility.yul\":475:478   */\n  0x80\n    /* \"#utility.yul\":463:472   */\n  dup6\n    /* \"#utility.yul\":454:461   */\n  dup8\n    /* \"#utility.yul\":450:473   */\n  sub\n    /* \"#utility.yul\":446:479   */\n  slt\n    /* \"#utility.yul\":443:445   */\n  iszero\n  tag_17\n  jumpi\n    /* \"#utility.yul\":492:493   */\n  0x00\n    /* \"#utility.yul\":489:490   */\n  dup1\n    /* \"#utility.yul\":482:494   */\n  revert\n    /* \"#utility.yul\":443:445   */\ntag_17:\n    /* \"#utility.yul\":535:536   */\n  0x00\n    /* \"#utility.yul\":560:624   */\n  tag_18\n    /* \"#utility.yul\":616:623   */\n  dup8\n    /* \"#utility.yul\":607:613   */\n  dup3\n    /* \"#utility.yul\":596:605   */\n  dup9\n    /* \"#utility.yul\":592:614   */\n  add\n    /* \"#utility.yul\":560:624   */\n  tag_8\n  jump\t// in\ntag_18:\n    /* \"#utility.yul\":550:624   */\n  swap5\n  pop\n    /* \"#utility.yul\":506:634   */\n  pop\n    /* \"#utility.yul\":673:675   */\n  0x20\n    /* \"#utility.yul\":699:763   */\n  tag_19\n    /* \"#utility.yul\":755:762   */\n  dup8\n    /* \"#utility.yul\":746:752   */\n  dup3\n    /* \"#utility.yul\":735:744   */\n  dup9\n    /* \"#utility.yul\":731:753   */\n  add\n    /* \"#utility.yul\":699:763   */\n  tag_8\n  jump\t// in\ntag_19:\n    /* \"#utility.yul\":689:763   */\n  swap4\n  pop\n    /* \"#utility.yul\":644:773   */\n  pop\n    /* \"#utility.yul\":812:814   */\n  0x40\n    /* \"#utility.yul\":838:902   */\n  tag_20\n    /* \"#utility.yul\":894:901   */\n  dup8\n    /* \"#utility.yul\":885:891   */\n  dup3\n    /* \"#utility.yul\":874:883   */\n  dup9\n    /* \"#utility.yul\":870:892   */\n  add\n    /* \"#utility.yul\":838:902   */\n  tag_8\n  jump\t// in\ntag_20:\n    /* \"#utility.yul\":828:902   */\n  swap3\n  pop\n    /* \"#utility.yul\":783:912   */\n  pop\n    /* \"#utility.yul\":951:953   */\n  0x60\n    /* \"#utility.yul\":977:1041   */\n  tag_21\n    /* \"#utility.yul\":1033:1040   */\n  dup8\n    /* \"#utility.yul\":1024:1030   */\n  dup3\n    /* \"#utility.yul\":1013:1022   */\n  dup9\n    /* \"#utility.yul\":1009:1031   */\n  add\n    /* \"#utility.yul\":977:1041   */\n  tag_12\n  jump\t// in\ntag_21:\n    /* \"#utility.yul\":967:1041   */\n  swap2\n  pop\n    /* \"#utility.yul\":922:1051   */\n  pop\n    /* \"#utility.yul\":433:1058   */\n  swap3\n  swap6\n  swap2\n  swap5\n  pop\n  swap3\n  pop\n  jump\t// out\n    /* \"#utility.yul\":1064:1141   */\ntag_22:\n  0x00\n    /* \"#utility.yul\":1130:1135   */\n  dup2\n    /* \"#utility.yul\":1119:1135   */\n  swap1\n  pop\n    /* \"#utility.yul\":1109:1141   */\n  swap2\n  swap1\n  pop\n  jump\t// out\n    /* \"#utility.yul\":1147:1224   */\ntag_24:\n  0x00\n    /* \"#utility.yul\":1213:1218   */\n  dup2\n    /* \"#utility.yul\":1202:1218   */\n  swap1\n  pop\n    /* \"#utility.yul\":1192:1224   */\n  swap2\n  swap1\n  pop\n  jump\t// out\n    /* \"#utility.yul\":1230:1352   */\ntag_11:\n    /* \"#utility.yul\":1303:1327   */\n  tag_27\n    /* \"#utility.yul\":1321:1326   */\n  dup2\n    /* \"#utility.yul\":1303:1327   */\n  tag_22\n  jump\t// in\ntag_27:\n    /* \"#utility.yul\":1296:1301   */\n  dup2\n    /* \"#utility.yul\":1293:1328   */\n  eq\n    /* \"#utility.yul\":1283:1285   */\n  tag_28\n  jumpi\n    /* \"#utility.yul\":1342:1343   */\n  0x00\n    /* \"#utility.yul\":1339:1340   */\n  dup1\n    /* \"#utility.yul\":1332:1344   */\n  revert\n    /* \"#utility.yul\":1283:1285   */\ntag_28:\n    /* \"#utility.yul\":1273:1352   */\n  pop\n  jump\t// out\n    /* \"#utility.yul\":1358:1480   */\ntag_15:\n    /* \"#utility.yul\":1431:1455   */\n  tag_30\n    /* \"#utility.yul\":1449:1454   */\n  dup2\n    /* \"#utility.yul\":1431:1455   */\n  tag_24\n  jump\t// in\ntag_30:\n    /* \"#utility.yul\":1424:1429   */\n  dup2\n    /* \"#utility.yul\":1421:1456   */\n  eq\n    /* \"#utility.yul\":1411:1413   */\n  tag_31\n  jumpi\n    /* \"#utility.yul\":1470:1471   */\n  0x00\n    /* \"#utility.yul\":1467:1468   */\n  dup1\n    /* \"#utility.yul\":1460:1472   */\n  revert\n    /* \"#utility.yul\":1411:1413   */\ntag_31:\n    /* \"#utility.yul\":1401:1480   */\n  pop\n  jump\t// out\n    /* \"PCR.sol\":157:2790  contract PCR {... */\ntag_6:\n  dataSize(sub_0)\n  dup1\n  dataOffset(sub_0)\n  0x00\n  codecopy\n  0x00\n  return\nstop\n\nsub_0: assembly {\n        /* \"PCR.sol\":157:2790  contract PCR {... */\n      mstore(0x40, 0x80)\n      callvalue\n      dup1\n      iszero\n      tag_1\n      jumpi\n      0x00\n      dup1\n      revert\n    tag_1:\n      pop\n      jumpi(tag_2, lt(calldatasize, 0x04))\n      shr(0xe0, calldataload(0x00))\n      dup1\n      0x03202017\n      eq\n      tag_3\n      jumpi\n      dup1\n      0x34b1794c\n      eq\n      tag_4\n      jumpi\n      dup1\n      0x5d1ca631\n      eq\n      tag_5\n      jumpi\n      dup1\n      0x9499e018\n      eq\n      tag_6\n      jumpi\n      dup1\n      0x97fccd59\n      eq\n      tag_7\n      jumpi\n    tag_2:\n      0x00\n      dup1\n      revert\n        /* \"PCR.sol\":1809:2204  function getPCRData() external view returns(... */\n    tag_3:\n      tag_8\n      tag_9\n      jump\t// in\n    tag_8:\n      mload(0x40)\n      tag_10\n      swap8\n      swap7\n      swap6\n      swap5\n      swap4\n      swap3\n      swap2\n      swap1\n      tag_11\n      jump\t// in\n    tag_10:\n      mload(0x40)\n      dup1\n      swap2\n      sub\n      swap1\n      return\n        /* \"PCR.sol\":2475:2571  function deletePCR() notDeleted external {... */\n    tag_4:\n      tag_12\n      tag_13\n      jump\t// in\n    tag_12:\n      stop\n        /* \"PCR.sol\":2251:2347  function getId() external view notDeleted returns(bytes32 id) {... */\n    tag_5:\n      tag_14\n      tag_15\n      jump\t// in\n    tag_14:\n      mload(0x40)\n      tag_16\n      swap2\n      swap1\n      tag_17\n      jump\t// in\n    tag_16:\n      mload(0x40)\n      dup1\n      swap2\n      sub\n      swap1\n      return\n        /* \"PCR.sol\":2677:2788  function destructContract() external {... */\n    tag_6:\n      tag_18\n      tag_19\n      jump\t// in\n    tag_18:\n      stop\n        /* \"PCR.sol\":1237:1769  function updatePCR(bytes32 _result, uint256 _resultDate, bytes32 _insuranceId, bytes32 _pcrId) external notDeleted ... */\n    tag_7:\n      tag_20\n      0x04\n      dup1\n      calldatasize\n      sub\n      dup2\n      add\n      swap1\n      tag_21\n      swap2\n      swap1\n      tag_22\n      jump\t// in\n    tag_21:\n      tag_23\n      jump\t// in\n    tag_20:\n      stop\n        /* \"PCR.sol\":1809:2204  function getPCRData() external view returns(... */\n    tag_9:\n        /* \"PCR.sol\":1862:1876  bytes32 result */\n      0x00\n        /* \"PCR.sol\":1887:1905  bytes32 customerId */\n      dup1\n        /* \"PCR.sol\":1916:1935  uint256 requestDate */\n      0x00\n        /* \"PCR.sol\":1946:1964  uint256 resultDate */\n      dup1\n        /* \"PCR.sol\":1975:1985  bytes32 id */\n      0x00\n        /* \"PCR.sol\":1995:2021  address pcrContractAddress */\n      dup1\n        /* \"PCR.sol\":2031:2050  bytes32 insuranceId */\n      0x00\n        /* \"PCR.sol\":2075:2082  pcrData */\n      0x01\n        /* \"PCR.sol\":2075:2089  pcrData.result */\n      dup1\n      add\n      sload\n        /* \"PCR.sol\":2091:2098  pcrData */\n      0x01\n        /* \"PCR.sol\":2091:2108  pcrData.insuredId */\n      0x03\n      add\n      sload\n        /* \"PCR.sol\":2110:2117  pcrData */\n      0x01\n        /* \"PCR.sol\":2110:2129  pcrData.requestDate */\n      0x04\n      add\n      sload\n        /* \"PCR.sol\":2131:2138  pcrData */\n      0x01\n        /* \"PCR.sol\":2131:2149  pcrData.resultDate */\n      0x05\n      add\n      sload\n        /* \"PCR.sol\":2151:2158  pcrData */\n      0x01\n        /* \"PCR.sol\":2151:2161  pcrData.id */\n      0x02\n      add\n      sload\n        /* \"PCR.sol\":2171:2175  this */\n      address\n        /* \"PCR.sol\":2177:2184  pcrData */\n      0x01\n        /* \"PCR.sol\":2177:2196  pcrData.insuranceId */\n      0x00\n      add\n      sload\n        /* \"PCR.sol\":2067:2197  return (pcrData.result, pcrData.insuredId, pcrData.requestDate, pcrData.resultDate, pcrData.id, address(this),pcrData.insuranceId) */\n      swap7\n      pop\n      swap7\n      pop\n      swap7\n      pop\n      swap7\n      pop\n      swap7\n      pop\n      swap7\n      pop\n      swap7\n      pop\n        /* \"PCR.sol\":1809:2204  function getPCRData() external view returns(... */\n      swap1\n      swap2\n      swap3\n      swap4\n      swap5\n      swap6\n      swap7\n      jump\t// out\n        /* \"PCR.sol\":2475:2571  function deletePCR() notDeleted external {... */\n    tag_13:\n        /* \"PCR.sol\":653:660  deleted */\n      0x00\n      0x15\n      swap1\n      sload\n      swap1\n      0x0100\n      exp\n      swap1\n      div\n      0xff\n      and\n        /* \"PCR.sol\":652:660  !deleted */\n      iszero\n        /* \"PCR.sol\":644:691  require(!deleted, \"This PCR has been deleted.\") */\n      tag_26\n      jumpi\n      mload(0x40)\n      0x08c379a000000000000000000000000000000000000000000000000000000000\n      dup2\n      mstore\n      0x04\n      add\n      tag_27\n      swap1\n      tag_28\n      jump\t// in\n    tag_27:\n      mload(0x40)\n      dup1\n      swap2\n      sub\n      swap1\n      revert\n    tag_26:\n        /* \"PCR.sol\":2536:2540  true */\n      0x01\n        /* \"PCR.sol\":2526:2533  deleted */\n      0x00\n      0x15\n        /* \"PCR.sol\":2526:2540  deleted = true */\n      0x0100\n      exp\n      dup2\n      sload\n      dup2\n      0xff\n      mul\n      not\n      and\n      swap1\n      dup4\n      iszero\n      iszero\n      mul\n      or\n      swap1\n      sstore\n      pop\n        /* \"PCR.sol\":2557:2564  pcrData */\n      0x01\n      0x00\n        /* \"PCR.sol\":2550:2564  delete pcrData */\n      dup1\n      dup3\n      add\n      0x00\n      swap1\n      sstore\n      0x01\n      dup3\n      add\n      0x00\n      swap1\n      sstore\n      0x02\n      dup3\n      add\n      0x00\n      swap1\n      sstore\n      0x03\n      dup3\n      add\n      0x00\n      swap1\n      sstore\n      0x04\n      dup3\n      add\n      0x00\n      swap1\n      sstore\n      0x05\n      dup3\n      add\n      0x00\n      swap1\n      sstore\n      pop\n      pop\n        /* \"PCR.sol\":2475:2571  function deletePCR() notDeleted external {... */\n      jump\t// out\n        /* \"PCR.sol\":2251:2347  function getId() external view notDeleted returns(bytes32 id) {... */\n    tag_15:\n        /* \"PCR.sol\":2301:2311  bytes32 id */\n      0x00\n        /* \"PCR.sol\":653:660  deleted */\n      dup1\n      0x15\n      swap1\n      sload\n      swap1\n      0x0100\n      exp\n      swap1\n      div\n      0xff\n      and\n        /* \"PCR.sol\":652:660  !deleted */\n      iszero\n        /* \"PCR.sol\":644:691  require(!deleted, \"This PCR has been deleted.\") */\n      tag_31\n      jumpi\n      mload(0x40)\n      0x08c379a000000000000000000000000000000000000000000000000000000000\n      dup2\n      mstore\n      0x04\n      add\n      tag_32\n      swap1\n      tag_28\n      jump\t// in\n    tag_32:\n      mload(0x40)\n      dup1\n      swap2\n      sub\n      swap1\n      revert\n    tag_31:\n        /* \"PCR.sol\":2330:2337  pcrData */\n      0x01\n        /* \"PCR.sol\":2330:2340  pcrData.id */\n      0x02\n      add\n      sload\n        /* \"PCR.sol\":2323:2340  return pcrData.id */\n      swap1\n      pop\n        /* \"PCR.sol\":2251:2347  function getId() external view notDeleted returns(bytes32 id) {... */\n      swap1\n      jump\t// out\n        /* \"PCR.sol\":2677:2788  function destructContract() external {... */\n    tag_19:\n        /* \"PCR.sol\":2746:2751  owner */\n      0x00\n      dup1\n      sload\n      swap1\n      0x0100\n      exp\n      swap1\n      div\n      0xffffffffffffffffffffffffffffffffffffffff\n      and\n        /* \"PCR.sol\":2732:2751  msg.sender == owner */\n      0xffffffffffffffffffffffffffffffffffffffff\n      and\n        /* \"PCR.sol\":2732:2742  msg.sender */\n      caller\n        /* \"PCR.sol\":2732:2751  msg.sender == owner */\n      0xffffffffffffffffffffffffffffffffffffffff\n      and\n      eq\n        /* \"PCR.sol\":2724:2752  require(msg.sender == owner) */\n      tag_35\n      jumpi\n      0x00\n      dup1\n      revert\n    tag_35:\n        /* \"PCR.sol\":2775:2780  owner */\n      0x00\n      dup1\n      sload\n      swap1\n      0x0100\n      exp\n      swap1\n      div\n      0xffffffffffffffffffffffffffffffffffffffff\n      and\n        /* \"PCR.sol\":2762:2781  selfdestruct(owner) */\n      0xffffffffffffffffffffffffffffffffffffffff\n      and\n      selfdestruct\n        /* \"PCR.sol\":1237:1769  function updatePCR(bytes32 _result, uint256 _resultDate, bytes32 _insuranceId, bytes32 _pcrId) external notDeleted ... */\n    tag_23:\n        /* \"PCR.sol\":653:660  deleted */\n      0x00\n      0x15\n      swap1\n      sload\n      swap1\n      0x0100\n      exp\n      swap1\n      div\n      0xff\n      and\n        /* \"PCR.sol\":652:660  !deleted */\n      iszero\n        /* \"PCR.sol\":644:691  require(!deleted, \"This PCR has been deleted.\") */\n      tag_37\n      jumpi\n      mload(0x40)\n      0x08c379a000000000000000000000000000000000000000000000000000000000\n      dup2\n      mstore\n      0x04\n      add\n      tag_38\n      swap1\n      tag_28\n      jump\t// in\n    tag_38:\n      mload(0x40)\n      dup1\n      swap2\n      sub\n      swap1\n      revert\n    tag_37:\n        /* \"PCR.sol\":1376:1385  completed */\n      0x00\n      0x14\n      swap1\n      sload\n      swap1\n      0x0100\n      exp\n      swap1\n      div\n      0xff\n      and\n        /* \"PCR.sol\":1375:1385  !completed */\n      iszero\n        /* \"PCR.sol\":1367:1415  require(!completed, \"PCRs can only Update once\") */\n      tag_40\n      jumpi\n      mload(0x40)\n      0x08c379a000000000000000000000000000000000000000000000000000000000\n      dup2\n      mstore\n      0x04\n      add\n      tag_41\n      swap1\n      tag_42\n      jump\t// in\n    tag_41:\n      mload(0x40)\n      dup1\n      swap2\n      sub\n      swap1\n      revert\n    tag_40:\n        /* \"PCR.sol\":1449:1456  pcrData */\n      0x01\n        /* \"PCR.sol\":1449:1468  pcrData.insuranceId */\n      0x00\n      add\n      sload\n        /* \"PCR.sol\":1433:1445  _insuranceId */\n      dup3\n        /* \"PCR.sol\":1433:1468  _insuranceId == pcrData.insuranceId */\n      eq\n        /* \"PCR.sol\":1433:1492  _insuranceId == pcrData.insuranceId && _pcrId == pcrData.id */\n      dup1\n      iszero\n      tag_43\n      jumpi\n      pop\n        /* \"PCR.sol\":1482:1489  pcrData */\n      0x01\n        /* \"PCR.sol\":1482:1492  pcrData.id */\n      0x02\n      add\n      sload\n        /* \"PCR.sol\":1472:1478  _pcrId */\n      dup2\n        /* \"PCR.sol\":1472:1492  _pcrId == pcrData.id */\n      eq\n        /* \"PCR.sol\":1433:1492  _insuranceId == pcrData.insuranceId && _pcrId == pcrData.id */\n    tag_43:\n        /* \"PCR.sol\":1425:1567  require(_insuranceId == pcrData.insuranceId && _pcrId == pcrData.id, \"Insurance and PCR ids have to be the same as the ones in this contract\") */\n      tag_44\n      jumpi\n      mload(0x40)\n      0x08c379a000000000000000000000000000000000000000000000000000000000\n      dup2\n      mstore\n      0x04\n      add\n      tag_45\n      swap1\n      tag_46\n      jump\t// in\n    tag_45:\n      mload(0x40)\n      dup1\n      swap2\n      sub\n      swap1\n      revert\n    tag_44:\n        /* \"PCR.sol\":1589:1593  true */\n      0x01\n        /* \"PCR.sol\":1577:1586  completed */\n      0x00\n      0x14\n        /* \"PCR.sol\":1577:1593  completed = true */\n      0x0100\n      exp\n      dup2\n      sload\n      dup2\n      0xff\n      mul\n      not\n      and\n      swap1\n      dup4\n      iszero\n      iszero\n      mul\n      or\n      swap1\n      sstore\n      pop\n        /* \"PCR.sol\":1620:1627  _result */\n      dup4\n        /* \"PCR.sol\":1603:1610  pcrData */\n      0x01\n        /* \"PCR.sol\":1603:1617  pcrData.result */\n      dup1\n      add\n        /* \"PCR.sol\":1603:1627  pcrData.result = _result */\n      dup2\n      swap1\n      sstore\n      pop\n        /* \"PCR.sol\":1658:1669  _resultDate */\n      dup3\n        /* \"PCR.sol\":1637:1644  pcrData */\n      0x01\n        /* \"PCR.sol\":1637:1655  pcrData.resultDate */\n      0x05\n      add\n        /* \"PCR.sol\":1637:1669  pcrData.resultDate = _resultDate */\n      dup2\n      swap1\n      sstore\n      pop\n        /* \"PCR.sol\":1684:1762  pcrUpdate(pcrData.insuranceId, pcrData.id, pcrData.result, pcrData.resultDate) */\n      0xa0f53cc16ce55b7914839af2c6e52aa179efd63404bb6cb37126faacecee5adb\n        /* \"PCR.sol\":1694:1701  pcrData */\n      0x01\n        /* \"PCR.sol\":1694:1713  pcrData.insuranceId */\n      0x00\n      add\n      sload\n        /* \"PCR.sol\":1715:1722  pcrData */\n      0x01\n        /* \"PCR.sol\":1715:1725  pcrData.id */\n      0x02\n      add\n      sload\n        /* \"PCR.sol\":1727:1734  pcrData */\n      0x01\n        /* \"PCR.sol\":1727:1741  pcrData.result */\n      dup1\n      add\n      sload\n        /* \"PCR.sol\":1743:1750  pcrData */\n      0x01\n        /* \"PCR.sol\":1743:1761  pcrData.resultDate */\n      0x05\n      add\n      sload\n        /* \"PCR.sol\":1684:1762  pcrUpdate(pcrData.insuranceId, pcrData.id, pcrData.result, pcrData.resultDate) */\n      mload(0x40)\n      tag_47\n      swap5\n      swap4\n      swap3\n      swap2\n      swap1\n      tag_48\n      jump\t// in\n    tag_47:\n      mload(0x40)\n      dup1\n      swap2\n      sub\n      swap1\n      log1\n        /* \"PCR.sol\":1237:1769  function updatePCR(bytes32 _result, uint256 _resultDate, bytes32 _insuranceId, bytes32 _pcrId) external notDeleted ... */\n      pop\n      pop\n      pop\n      pop\n      jump\t// out\n        /* \"#utility.yul\":7:146   */\n    tag_50:\n      0x00\n        /* \"#utility.yul\":91:97   */\n      dup2\n        /* \"#utility.yul\":78:98   */\n      calldataload\n        /* \"#utility.yul\":69:98   */\n      swap1\n      pop\n        /* \"#utility.yul\":107:140   */\n      tag_52\n        /* \"#utility.yul\":134:139   */\n      dup2\n        /* \"#utility.yul\":107:140   */\n      tag_53\n      jump\t// in\n    tag_52:\n        /* \"#utility.yul\":59:146   */\n      swap3\n      swap2\n      pop\n      pop\n      jump\t// out\n        /* \"#utility.yul\":152:291   */\n    tag_54:\n      0x00\n        /* \"#utility.yul\":236:242   */\n      dup2\n        /* \"#utility.yul\":223:243   */\n      calldataload\n        /* \"#utility.yul\":214:243   */\n      swap1\n      pop\n        /* \"#utility.yul\":252:285   */\n      tag_56\n        /* \"#utility.yul\":279:284   */\n      dup2\n        /* \"#utility.yul\":252:285   */\n      tag_57\n      jump\t// in\n    tag_56:\n        /* \"#utility.yul\":204:291   */\n      swap3\n      swap2\n      pop\n      pop\n      jump\t// out\n        /* \"#utility.yul\":297:995   */\n    tag_22:\n      0x00\n      dup1\n      0x00\n      dup1\n        /* \"#utility.yul\":456:459   */\n      0x80\n        /* \"#utility.yul\":444:453   */\n      dup6\n        /* \"#utility.yul\":435:442   */\n      dup8\n        /* \"#utility.yul\":431:454   */\n      sub\n        /* \"#utility.yul\":427:460   */\n      slt\n        /* \"#utility.yul\":424:426   */\n      iszero\n      tag_59\n      jumpi\n        /* \"#utility.yul\":473:474   */\n      0x00\n        /* \"#utility.yul\":470:471   */\n      dup1\n        /* \"#utility.yul\":463:475   */\n      revert\n        /* \"#utility.yul\":424:426   */\n    tag_59:\n        /* \"#utility.yul\":516:517   */\n      0x00\n        /* \"#utility.yul\":541:594   */\n      tag_60\n        /* \"#utility.yul\":586:593   */\n      dup8\n        /* \"#utility.yul\":577:583   */\n      dup3\n        /* \"#utility.yul\":566:575   */\n      dup9\n        /* \"#utility.yul\":562:584   */\n      add\n        /* \"#utility.yul\":541:594   */\n      tag_50\n      jump\t// in\n    tag_60:\n        /* \"#utility.yul\":531:594   */\n      swap5\n      pop\n        /* \"#utility.yul\":487:604   */\n      pop\n        /* \"#utility.yul\":643:645   */\n      0x20\n        /* \"#utility.yul\":669:722   */\n      tag_61\n        /* \"#utility.yul\":714:721   */\n      dup8\n        /* \"#utility.yul\":705:711   */\n      dup3\n        /* \"#utility.yul\":694:703   */\n      dup9\n        /* \"#utility.yul\":690:712   */\n      add\n        /* \"#utility.yul\":669:722   */\n      tag_54\n      jump\t// in\n    tag_61:\n        /* \"#utility.yul\":659:722   */\n      swap4\n      pop\n        /* \"#utility.yul\":614:732   */\n      pop\n        /* \"#utility.yul\":771:773   */\n      0x40\n        /* \"#utility.yul\":797:850   */\n      tag_62\n        /* \"#utility.yul\":842:849   */\n      dup8\n        /* \"#utility.yul\":833:839   */\n      dup3\n        /* \"#utility.yul\":822:831   */\n      dup9\n        /* \"#utility.yul\":818:840   */\n      add\n        /* \"#utility.yul\":797:850   */\n      tag_50\n      jump\t// in\n    tag_62:\n        /* \"#utility.yul\":787:850   */\n      swap3\n      pop\n        /* \"#utility.yul\":742:860   */\n      pop\n        /* \"#utility.yul\":899:901   */\n      0x60\n        /* \"#utility.yul\":925:978   */\n      tag_63\n        /* \"#utility.yul\":970:977   */\n      dup8\n        /* \"#utility.yul\":961:967   */\n      dup3\n        /* \"#utility.yul\":950:959   */\n      dup9\n        /* \"#utility.yul\":946:968   */\n      add\n        /* \"#utility.yul\":925:978   */\n      tag_50\n      jump\t// in\n    tag_63:\n        /* \"#utility.yul\":915:978   */\n      swap2\n      pop\n        /* \"#utility.yul\":870:988   */\n      pop\n        /* \"#utility.yul\":414:995   */\n      swap3\n      swap6\n      swap2\n      swap5\n      pop\n      swap3\n      pop\n      jump\t// out\n        /* \"#utility.yul\":1001:1119   */\n    tag_64:\n        /* \"#utility.yul\":1088:1112   */\n      tag_66\n        /* \"#utility.yul\":1106:1111   */\n      dup2\n        /* \"#utility.yul\":1088:1112   */\n      tag_67\n      jump\t// in\n    tag_66:\n        /* \"#utility.yul\":1083:1086   */\n      dup3\n        /* \"#utility.yul\":1076:1113   */\n      mstore\n        /* \"#utility.yul\":1066:1119   */\n      pop\n      pop\n      jump\t// out\n        /* \"#utility.yul\":1125:1243   */\n    tag_68:\n        /* \"#utility.yul\":1212:1236   */\n      tag_70\n        /* \"#utility.yul\":1230:1235   */\n      dup2\n        /* \"#utility.yul\":1212:1236   */\n      tag_71\n      jump\t// in\n    tag_70:\n        /* \"#utility.yul\":1207:1210   */\n      dup3\n        /* \"#utility.yul\":1200:1237   */\n      mstore\n        /* \"#utility.yul\":1190:1243   */\n      pop\n      pop\n      jump\t// out\n        /* \"#utility.yul\":1249:1615   */\n    tag_72:\n      0x00\n        /* \"#utility.yul\":1412:1479   */\n      tag_74\n        /* \"#utility.yul\":1476:1478   */\n      0x1a\n        /* \"#utility.yul\":1471:1474   */\n      dup4\n        /* \"#utility.yul\":1412:1479   */\n      tag_75\n      jump\t// in\n    tag_74:\n        /* \"#utility.yul\":1405:1479   */\n      swap2\n      pop\n        /* \"#utility.yul\":1488:1581   */\n      tag_76\n        /* \"#utility.yul\":1577:1580   */\n      dup3\n        /* \"#utility.yul\":1488:1581   */\n      tag_77\n      jump\t// in\n    tag_76:\n        /* \"#utility.yul\":1606:1608   */\n      0x20\n        /* \"#utility.yul\":1601:1604   */\n      dup3\n        /* \"#utility.yul\":1597:1609   */\n      add\n        /* \"#utility.yul\":1590:1609   */\n      swap1\n      pop\n        /* \"#utility.yul\":1395:1615   */\n      swap2\n      swap1\n      pop\n      jump\t// out\n        /* \"#utility.yul\":1621:1987   */\n    tag_78:\n      0x00\n        /* \"#utility.yul\":1784:1851   */\n      tag_80\n        /* \"#utility.yul\":1848:1850   */\n      0x19\n        /* \"#utility.yul\":1843:1846   */\n      dup4\n        /* \"#utility.yul\":1784:1851   */\n      tag_75\n      jump\t// in\n    tag_80:\n        /* \"#utility.yul\":1777:1851   */\n      swap2\n      pop\n        /* \"#utility.yul\":1860:1953   */\n      tag_81\n        /* \"#utility.yul\":1949:1952   */\n      dup3\n        /* \"#utility.yul\":1860:1953   */\n      tag_82\n      jump\t// in\n    tag_81:\n        /* \"#utility.yul\":1978:1980   */\n      0x20\n        /* \"#utility.yul\":1973:1976   */\n      dup3\n        /* \"#utility.yul\":1969:1981   */\n      add\n        /* \"#utility.yul\":1962:1981   */\n      swap1\n      pop\n        /* \"#utility.yul\":1767:1987   */\n      swap2\n      swap1\n      pop\n      jump\t// out\n        /* \"#utility.yul\":1993:2359   */\n    tag_83:\n      0x00\n        /* \"#utility.yul\":2156:2223   */\n      tag_85\n        /* \"#utility.yul\":2220:2222   */\n      0x46\n        /* \"#utility.yul\":2215:2218   */\n      dup4\n        /* \"#utility.yul\":2156:2223   */\n      tag_75\n      jump\t// in\n    tag_85:\n        /* \"#utility.yul\":2149:2223   */\n      swap2\n      pop\n        /* \"#utility.yul\":2232:2325   */\n      tag_86\n        /* \"#utility.yul\":2321:2324   */\n      dup3\n        /* \"#utility.yul\":2232:2325   */\n      tag_87\n      jump\t// in\n    tag_86:\n        /* \"#utility.yul\":2350:2352   */\n      0x60\n        /* \"#utility.yul\":2345:2348   */\n      dup3\n        /* \"#utility.yul\":2341:2353   */\n      add\n        /* \"#utility.yul\":2334:2353   */\n      swap1\n      pop\n        /* \"#utility.yul\":2139:2359   */\n      swap2\n      swap1\n      pop\n      jump\t// out\n        /* \"#utility.yul\":2365:2483   */\n    tag_88:\n        /* \"#utility.yul\":2452:2476   */\n      tag_90\n        /* \"#utility.yul\":2470:2475   */\n      dup2\n        /* \"#utility.yul\":2452:2476   */\n      tag_91\n      jump\t// in\n    tag_90:\n        /* \"#utility.yul\":2447:2450   */\n      dup3\n        /* \"#utility.yul\":2440:2477   */\n      mstore\n        /* \"#utility.yul\":2430:2483   */\n      pop\n      pop\n      jump\t// out\n        /* \"#utility.yul\":2489:2711   */\n    tag_17:\n      0x00\n        /* \"#utility.yul\":2620:2622   */\n      0x20\n        /* \"#utility.yul\":2609:2618   */\n      dup3\n        /* \"#utility.yul\":2605:2623   */\n      add\n        /* \"#utility.yul\":2597:2623   */\n      swap1\n      pop\n        /* \"#utility.yul\":2633:2704   */\n      tag_93\n        /* \"#utility.yul\":2701:2702   */\n      0x00\n        /* \"#utility.yul\":2690:2699   */\n      dup4\n        /* \"#utility.yul\":2686:2703   */\n      add\n        /* \"#utility.yul\":2677:2683   */\n      dup5\n        /* \"#utility.yul\":2633:2704   */\n      tag_68\n      jump\t// in\n    tag_93:\n        /* \"#utility.yul\":2587:2711   */\n      swap3\n      swap2\n      pop\n      pop\n      jump\t// out\n        /* \"#utility.yul\":2717:3270   */\n    tag_48:\n      0x00\n        /* \"#utility.yul\":2932:2935   */\n      0x80\n        /* \"#utility.yul\":2921:2930   */\n      dup3\n        /* \"#utility.yul\":2917:2936   */\n      add\n        /* \"#utility.yul\":2909:2936   */\n      swap1\n      pop\n        /* \"#utility.yul\":2946:3017   */\n      tag_95\n        /* \"#utility.yul\":3014:3015   */\n      0x00\n        /* \"#utility.yul\":3003:3012   */\n      dup4\n        /* \"#utility.yul\":2999:3016   */\n      add\n        /* \"#utility.yul\":2990:2996   */\n      dup8\n        /* \"#utility.yul\":2946:3017   */\n      tag_68\n      jump\t// in\n    tag_95:\n        /* \"#utility.yul\":3027:3099   */\n      tag_96\n        /* \"#utility.yul\":3095:3097   */\n      0x20\n        /* \"#utility.yul\":3084:3093   */\n      dup4\n        /* \"#utility.yul\":3080:3098   */\n      add\n        /* \"#utility.yul\":3071:3077   */\n      dup7\n        /* \"#utility.yul\":3027:3099   */\n      tag_68\n      jump\t// in\n    tag_96:\n        /* \"#utility.yul\":3109:3181   */\n      tag_97\n        /* \"#utility.yul\":3177:3179   */\n      0x40\n        /* \"#utility.yul\":3166:3175   */\n      dup4\n        /* \"#utility.yul\":3162:3180   */\n      add\n        /* \"#utility.yul\":3153:3159   */\n      dup6\n        /* \"#utility.yul\":3109:3181   */\n      tag_68\n      jump\t// in\n    tag_97:\n        /* \"#utility.yul\":3191:3263   */\n      tag_98\n        /* \"#utility.yul\":3259:3261   */\n      0x60\n        /* \"#utility.yul\":3248:3257   */\n      dup4\n        /* \"#utility.yul\":3244:3262   */\n      add\n        /* \"#utility.yul\":3235:3241   */\n      dup5\n        /* \"#utility.yul\":3191:3263   */\n      tag_88\n      jump\t// in\n    tag_98:\n        /* \"#utility.yul\":2899:3270   */\n      swap6\n      swap5\n      pop\n      pop\n      pop\n      pop\n      pop\n      jump\t// out\n        /* \"#utility.yul\":3276:4162   */\n    tag_11:\n      0x00\n        /* \"#utility.yul\":3575:3578   */\n      0xe0\n        /* \"#utility.yul\":3564:3573   */\n      dup3\n        /* \"#utility.yul\":3560:3579   */\n      add\n        /* \"#utility.yul\":3552:3579   */\n      swap1\n      pop\n        /* \"#utility.yul\":3589:3660   */\n      tag_100\n        /* \"#utility.yul\":3657:3658   */\n      0x00\n        /* \"#utility.yul\":3646:3655   */\n      dup4\n        /* \"#utility.yul\":3642:3659   */\n      add\n        /* \"#utility.yul\":3633:3639   */\n      dup11\n        /* \"#utility.yul\":3589:3660   */\n      tag_68\n      jump\t// in\n    tag_100:\n        /* \"#utility.yul\":3670:3742   */\n      tag_101\n        /* \"#utility.yul\":3738:3740   */\n      0x20\n        /* \"#utility.yul\":3727:3736   */\n      dup4\n        /* \"#utility.yul\":3723:3741   */\n      add\n        /* \"#utility.yul\":3714:3720   */\n      dup10\n        /* \"#utility.yul\":3670:3742   */\n      tag_68\n      jump\t// in\n    tag_101:\n        /* \"#utility.yul\":3752:3824   */\n      tag_102\n        /* \"#utility.yul\":3820:3822   */\n      0x40\n        /* \"#utility.yul\":3809:3818   */\n      dup4\n        /* \"#utility.yul\":3805:3823   */\n      add\n        /* \"#utility.yul\":3796:3802   */\n      dup9\n        /* \"#utility.yul\":3752:3824   */\n      tag_88\n      jump\t// in\n    tag_102:\n        /* \"#utility.yul\":3834:3906   */\n      tag_103\n        /* \"#utility.yul\":3902:3904   */\n      0x60\n        /* \"#utility.yul\":3891:3900   */\n      dup4\n        /* \"#utility.yul\":3887:3905   */\n      add\n        /* \"#utility.yul\":3878:3884   */\n      dup8\n        /* \"#utility.yul\":3834:3906   */\n      tag_88\n      jump\t// in\n    tag_103:\n        /* \"#utility.yul\":3916:3989   */\n      tag_104\n        /* \"#utility.yul\":3984:3987   */\n      0x80\n        /* \"#utility.yul\":3973:3982   */\n      dup4\n        /* \"#utility.yul\":3969:3988   */\n      add\n        /* \"#utility.yul\":3960:3966   */\n      dup7\n        /* \"#utility.yul\":3916:3989   */\n      tag_68\n      jump\t// in\n    tag_104:\n        /* \"#utility.yul\":3999:4072   */\n      tag_105\n        /* \"#utility.yul\":4067:4070   */\n      0xa0\n        /* \"#utility.yul\":4056:4065   */\n      dup4\n        /* \"#utility.yul\":4052:4071   */\n      add\n        /* \"#utility.yul\":4043:4049   */\n      dup6\n        /* \"#utility.yul\":3999:4072   */\n      tag_64\n      jump\t// in\n    tag_105:\n        /* \"#utility.yul\":4082:4155   */\n      tag_106\n        /* \"#utility.yul\":4150:4153   */\n      0xc0\n        /* \"#utility.yul\":4139:4148   */\n      dup4\n        /* \"#utility.yul\":4135:4154   */\n      add\n        /* \"#utility.yul\":4126:4132   */\n      dup5\n        /* \"#utility.yul\":4082:4155   */\n      tag_68\n      jump\t// in\n    tag_106:\n        /* \"#utility.yul\":3542:4162   */\n      swap9\n      swap8\n      pop\n      pop\n      pop\n      pop\n      pop\n      pop\n      pop\n      pop\n      jump\t// out\n        /* \"#utility.yul\":4168:4587   */\n    tag_28:\n      0x00\n        /* \"#utility.yul\":4372:4374   */\n      0x20\n        /* \"#utility.yul\":4361:4370   */\n      dup3\n        /* \"#utility.yul\":4357:4375   */\n      add\n        /* \"#utility.yul\":4349:4375   */\n      swap1\n      pop\n        /* \"#utility.yul\":4421:4430   */\n      dup2\n        /* \"#utility.yul\":4415:4419   */\n      dup2\n        /* \"#utility.yul\":4411:4431   */\n      sub\n        /* \"#utility.yul\":4407:4408   */\n      0x00\n        /* \"#utility.yul\":4396:4405   */\n      dup4\n        /* \"#utility.yul\":4392:4409   */\n      add\n        /* \"#utility.yul\":4385:4432   */\n      mstore\n        /* \"#utility.yul\":4449:4580   */\n      tag_108\n        /* \"#utility.yul\":4575:4579   */\n      dup2\n        /* \"#utility.yul\":4449:4580   */\n      tag_72\n      jump\t// in\n    tag_108:\n        /* \"#utility.yul\":4441:4580   */\n      swap1\n      pop\n        /* \"#utility.yul\":4339:4587   */\n      swap2\n      swap1\n      pop\n      jump\t// out\n        /* \"#utility.yul\":4593:5012   */\n    tag_42:\n      0x00\n        /* \"#utility.yul\":4797:4799   */\n      0x20\n        /* \"#utility.yul\":4786:4795   */\n      dup3\n        /* \"#utility.yul\":4782:4800   */\n      add\n        /* \"#utility.yul\":4774:4800   */\n      swap1\n      pop\n        /* \"#utility.yul\":4846:4855   */\n      dup2\n        /* \"#utility.yul\":4840:4844   */\n      dup2\n        /* \"#utility.yul\":4836:4856   */\n      sub\n        /* \"#utility.yul\":4832:4833   */\n      0x00\n        /* \"#utility.yul\":4821:4830   */\n      dup4\n        /* \"#utility.yul\":4817:4834   */\n      add\n        /* \"#utility.yul\":4810:4857   */\n      mstore\n        /* \"#utility.yul\":4874:5005   */\n      tag_110\n        /* \"#utility.yul\":5000:5004   */\n      dup2\n        /* \"#utility.yul\":4874:5005   */\n      tag_78\n      jump\t// in\n    tag_110:\n        /* \"#utility.yul\":4866:5005   */\n      swap1\n      pop\n        /* \"#utility.yul\":4764:5012   */\n      swap2\n      swap1\n      pop\n      jump\t// out\n        /* \"#utility.yul\":5018:5437   */\n    tag_46:\n      0x00\n        /* \"#utility.yul\":5222:5224   */\n      0x20\n        /* \"#utility.yul\":5211:5220   */\n      dup3\n        /* \"#utility.yul\":5207:5225   */\n      add\n        /* \"#utility.yul\":5199:5225   */\n      swap1\n      pop\n        /* \"#utility.yul\":5271:5280   */\n      dup2\n        /* \"#utility.yul\":5265:5269   */\n      dup2\n        /* \"#utility.yul\":5261:5281   */\n      sub\n        /* \"#utility.yul\":5257:5258   */\n      0x00\n        /* \"#utility.yul\":5246:5255   */\n      dup4\n        /* \"#utility.yul\":5242:5259   */\n      add\n        /* \"#utility.yul\":5235:5282   */\n      mstore\n        /* \"#utility.yul\":5299:5430   */\n      tag_112\n        /* \"#utility.yul\":5425:5429   */\n      dup2\n        /* \"#utility.yul\":5299:5430   */\n      tag_83\n      jump\t// in\n    tag_112:\n        /* \"#utility.yul\":5291:5430   */\n      swap1\n      pop\n        /* \"#utility.yul\":5189:5437   */\n      swap2\n      swap1\n      pop\n      jump\t// out\n        /* \"#utility.yul\":5443:5612   */\n    tag_75:\n      0x00\n        /* \"#utility.yul\":5561:5567   */\n      dup3\n        /* \"#utility.yul\":5556:5559   */\n      dup3\n        /* \"#utility.yul\":5549:5568   */\n      mstore\n        /* \"#utility.yul\":5601:5605   */\n      0x20\n        /* \"#utility.yul\":5596:5599   */\n      dup3\n        /* \"#utility.yul\":5592:5606   */\n      add\n        /* \"#utility.yul\":5577:5606   */\n      swap1\n      pop\n        /* \"#utility.yul\":5539:5612   */\n      swap3\n      swap2\n      pop\n      pop\n      jump\t// out\n        /* \"#utility.yul\":5618:5714   */\n    tag_67:\n      0x00\n        /* \"#utility.yul\":5684:5708   */\n      tag_115\n        /* \"#utility.yul\":5702:5707   */\n      dup3\n        /* \"#utility.yul\":5684:5708   */\n      tag_116\n      jump\t// in\n    tag_115:\n        /* \"#utility.yul\":5673:5708   */\n      swap1\n      pop\n        /* \"#utility.yul\":5663:5714   */\n      swap2\n      swap1\n      pop\n      jump\t// out\n        /* \"#utility.yul\":5720:5797   */\n    tag_71:\n      0x00\n        /* \"#utility.yul\":5786:5791   */\n      dup2\n        /* \"#utility.yul\":5775:5791   */\n      swap1\n      pop\n        /* \"#utility.yul\":5765:5797   */\n      swap2\n      swap1\n      pop\n      jump\t// out\n        /* \"#utility.yul\":5803:5929   */\n    tag_116:\n      0x00\n        /* \"#utility.yul\":5880:5922   */\n      0xffffffffffffffffffffffffffffffffffffffff\n        /* \"#utility.yul\":5873:5878   */\n      dup3\n        /* \"#utility.yul\":5869:5923   */\n      and\n        /* \"#utility.yul\":5858:5923   */\n      swap1\n      pop\n        /* \"#utility.yul\":5848:5929   */\n      swap2\n      swap1\n      pop\n      jump\t// out\n        /* \"#utility.yul\":5935:6012   */\n    tag_91:\n      0x00\n        /* \"#utility.yul\":6001:6006   */\n      dup2\n        /* \"#utility.yul\":5990:6006   */\n      swap1\n      pop\n        /* \"#utility.yul\":5980:6012   */\n      swap2\n      swap1\n      pop\n      jump\t// out\n        /* \"#utility.yul\":6018:6194   */\n    tag_77:\n        /* \"#utility.yul\":6158:6186   */\n      0x546869732050435220686173206265656e2064656c657465642e000000000000\n        /* \"#utility.yul\":6154:6155   */\n      0x00\n        /* \"#utility.yul\":6146:6152   */\n      dup3\n        /* \"#utility.yul\":6142:6156   */\n      add\n        /* \"#utility.yul\":6135:6187   */\n      mstore\n        /* \"#utility.yul\":6124:6194   */\n      pop\n      jump\t// out\n        /* \"#utility.yul\":6200:6375   */\n    tag_82:\n        /* \"#utility.yul\":6340:6367   */\n      0x504352732063616e206f6e6c7920557064617465206f6e636500000000000000\n        /* \"#utility.yul\":6336:6337   */\n      0x00\n        /* \"#utility.yul\":6328:6334   */\n      dup3\n        /* \"#utility.yul\":6324:6338   */\n      add\n        /* \"#utility.yul\":6317:6368   */\n      mstore\n        /* \"#utility.yul\":6306:6375   */\n      pop\n      jump\t// out\n        /* \"#utility.yul\":6381:6675   */\n    tag_87:\n        /* \"#utility.yul\":6521:6555   */\n      0x496e737572616e636520616e642050435220696473206861766520746f206265\n        /* \"#utility.yul\":6517:6518   */\n      0x00\n        /* \"#utility.yul\":6509:6515   */\n      dup3\n        /* \"#utility.yul\":6505:6519   */\n      add\n        /* \"#utility.yul\":6498:6556   */\n      mstore\n        /* \"#utility.yul\":6590:6624   */\n      0x207468652073616d6520617320746865206f6e657320696e207468697320636f\n        /* \"#utility.yul\":6585:6587   */\n      0x20\n        /* \"#utility.yul\":6577:6583   */\n      dup3\n        /* \"#utility.yul\":6573:6588   */\n      add\n        /* \"#utility.yul\":6566:6625   */\n      mstore\n        /* \"#utility.yul\":6659:6667   */\n      0x6e74726163740000000000000000000000000000000000000000000000000000\n        /* \"#utility.yul\":6654:6656   */\n      0x40\n        /* \"#utility.yul\":6646:6652   */\n      dup3\n        /* \"#utility.yul\":6642:6657   */\n      add\n        /* \"#utility.yul\":6635:6668   */\n      mstore\n        /* \"#utility.yul\":6487:6675   */\n      pop\n      jump\t// out\n        /* \"#utility.yul\":6681:6803   */\n    tag_53:\n        /* \"#utility.yul\":6754:6778   */\n      tag_124\n        /* \"#utility.yul\":6772:6777   */\n      dup2\n        /* \"#utility.yul\":6754:6778   */\n      tag_71\n      jump\t// in\n    tag_124:\n        /* \"#utility.yul\":6747:6752   */\n      dup2\n        /* \"#utility.yul\":6744:6779   */\n      eq\n        /* \"#utility.yul\":6734:6736   */\n      tag_125\n      jumpi\n        /* \"#utility.yul\":6793:6794   */\n      0x00\n        /* \"#utility.yul\":6790:6791   */\n      dup1\n        /* \"#utility.yul\":6783:6795   */\n      revert\n        /* \"#utility.yul\":6734:6736   */\n    tag_125:\n        /* \"#utility.yul\":6724:6803   */\n      pop\n      jump\t// out\n        /* \"#utility.yul\":6809:6931   */\n    tag_57:\n        /* \"#utility.yul\":6882:6906   */\n      tag_127\n        /* \"#utility.yul\":6900:6905   */\n      dup2\n        /* \"#utility.yul\":6882:6906   */\n      tag_91\n      jump\t// in\n    tag_127:\n        /* \"#utility.yul\":6875:6880   */\n      dup2\n        /* \"#utility.yul\":6872:6907   */\n      eq\n        /* \"#utility.yul\":6862:6864   */\n      tag_128\n      jumpi\n        /* \"#utility.yul\":6921:6922   */\n      0x00\n        /* \"#utility.yul\":6918:6919   */\n      dup1\n        /* \"#utility.yul\":6911:6923   */\n      revert\n        /* \"#utility.yul\":6862:6864   */\n    tag_128:\n        /* \"#utility.yul\":6852:6931   */\n      pop\n      jump\t// out\n\n    auxdata: 0xa26469706673582212208898a0e1358caea9f6f4f48eff642123bf9bd22cec7bdd6f4579dc3a3e2ea97364736f6c63430008030033\n}\n",
    "bytecode": {
      "linkReferences": {},
      "object": "608060405234801561001057600080fd5b506040516109d03803806109d08339818101604052810190610032919061012a565b816001600301819055508260016000018190555083600160020181905550336000806101000a81548173ffffffffffffffffffffffffffffffffffffffff021916908373ffffffffffffffffffffffffffffffffffffffff16021790555060008060146101000a81548160ff021916908315150217905550806001600401819055507f554e444546494e45440000000000000000000000000000000000000000000000600180018190555060008060156101000a81548160ff021916908315150217905550505050506101cf565b60008151905061010f816101a1565b92915050565b600081519050610124816101b8565b92915050565b6000806000806080858703121561014057600080fd5b600061014e87828801610100565b945050602061015f87828801610100565b935050604061017087828801610100565b925050606061018187828801610115565b91505092959194509250565b6000819050919050565b6000819050919050565b6101aa8161018d565b81146101b557600080fd5b50565b6101c181610197565b81146101cc57600080fd5b50565b6107f2806101de6000396000f3fe608060405234801561001057600080fd5b50600436106100575760003560e01c8063032020171461005c57806334b1794c146100805780635d1ca6311461008a5780639499e018146100a857806397fccd59146100b2575b600080fd5b6100646100ce565b60405161007797969594939291906105a1565b60405180910390f35b610088610114565b005b6100926101b6565b60405161009f9190610541565b60405180910390f35b6100b0610212565b005b6100cc60048036038101906100c79190610448565b6102a3565b005b6000806000806000806000600180015460016003015460016004015460016005015460016002015430600160000154965096509650965096509650965090919293949596565b600060159054906101000a900460ff1615610164576040517f08c379a000000000000000000000000000000000000000000000000000000000815260040161015b90610610565b60405180910390fd5b6001600060156101000a81548160ff0219169083151502179055506001600080820160009055600182016000905560028201600090556003820160009055600482016000905560058201600090555050565b60008060159054906101000a900460ff1615610207576040517f08c379a00000000000000000000000000000000000000000000000000000000081526004016101fe90610610565b60405180910390fd5b600160020154905090565b60008054906101000a900473ffffffffffffffffffffffffffffffffffffffff1673ffffffffffffffffffffffffffffffffffffffff163373ffffffffffffffffffffffffffffffffffffffff161461026a57600080fd5b60008054906101000a900473ffffffffffffffffffffffffffffffffffffffff1673ffffffffffffffffffffffffffffffffffffffff16ff5b600060159054906101000a900460ff16156102f3576040517f08c379a00000000000000000000000000000000000000000000000000000000081526004016102ea90610610565b60405180910390fd5b600060149054906101000a900460ff1615610343576040517f08c379a000000000000000000000000000000000000000000000000000000000815260040161033a90610630565b60405180910390fd5b6001600001548214801561035b575060016002015481145b61039a576040517f08c379a000000000000000000000000000000000000000000000000000000000815260040161039190610650565b60405180910390fd5b6001600060146101000a81548160ff021916908315150217905550836001800181905550826001600501819055507fa0f53cc16ce55b7914839af2c6e52aa179efd63404bb6cb37126faacecee5adb6001600001546001600201546001800154600160050154604051610410949392919061055c565b60405180910390a150505050565b60008135905061042d8161078e565b92915050565b600081359050610442816107a5565b92915050565b6000806000806080858703121561045e57600080fd5b600061046c8782880161041e565b945050602061047d87828801610433565b935050604061048e8782880161041e565b925050606061049f8782880161041e565b91505092959194509250565b6104b481610681565b82525050565b6104c381610693565b82525050565b60006104d6601a83610670565b91506104e1826106c7565b602082019050919050565b60006104f9601983610670565b9150610504826106f0565b602082019050919050565b600061051c604683610670565b915061052782610719565b606082019050919050565b61053b816106bd565b82525050565b600060208201905061055660008301846104ba565b92915050565b600060808201905061057160008301876104ba565b61057e60208301866104ba565b61058b60408301856104ba565b6105986060830184610532565b95945050505050565b600060e0820190506105b6600083018a6104ba565b6105c360208301896104ba565b6105d06040830188610532565b6105dd6060830187610532565b6105ea60808301866104ba565b6105f760a08301856104ab565b61060460c08301846104ba565b98975050505050505050565b60006020820190508181036000830152610629816104c9565b9050919050565b60006020820190508181036000830152610649816104ec565b9050919050565b600060208201905081810360008301526106698161050f565b9050919050565b600082825260208201905092915050565b600061068c8261069d565b9050919050565b6000819050919050565b600073ffffffffffffffffffffffffffffffffffffffff82169050919050565b6000819050919050565b7f546869732050435220686173206265656e2064656c657465642e000000000000600082015250565b7f504352732063616e206f6e6c7920557064617465206f6e636500000000000000600082015250565b7f496e737572616e636520616e642050435220696473206861766520746f20626560008201527f207468652073616d6520617320746865206f6e657320696e207468697320636f60208201527f6e74726163740000000000000000000000000000000000000000000000000000604082015250565b61079781610693565b81146107a257600080fd5b50565b6107ae816106bd565b81146107b957600080fd5b5056fea26469706673582212208898a0e1358caea9f6f4f48eff642123bf9bd22cec7bdd6f4579dc3a3e2ea97364736f6c63430008030033",
      "opcodes": "PUSH1 0x80 PUSH1 0x40 MSTORE CALLVALUE DUP1 ISZERO PUSH2 0x10 JUMPI PUSH1 0x0 DUP1 REVERT JUMPDEST POP PUSH1 0x40 MLOAD PUSH2 0x9D0 CODESIZE SUB DUP1 PUSH2 0x9D0 DUP4 CODECOPY DUP2 DUP2 ADD PUSH1 0x40 MSTORE DUP2 ADD SWAP1 PUSH2 0x32 SWAP2 SWAP1 PUSH2 0x12A JUMP JUMPDEST DUP2 PUSH1 0x1 PUSH1 0x3 ADD DUP2 SWAP1 SSTORE POP DUP3 PUSH1 0x1 PUSH1 0x0 ADD DUP2 SWAP1 SSTORE POP DUP4 PUSH1 0x1 PUSH1 0x2 ADD DUP2 SWAP1 SSTORE POP CALLER PUSH1 0x0 DUP1 PUSH2 0x100 EXP DUP2 SLOAD DUP2 PUSH20 0xFFFFFFFFFFFFFFFFFFFFFFFFFFFFFFFFFFFFFFFF MUL NOT AND SWAP1 DUP4 PUSH20 0xFFFFFFFFFFFFFFFFFFFFFFFFFFFFFFFFFFFFFFFF AND MUL OR SWAP1 SSTORE POP PUSH1 0x0 DUP1 PUSH1 0x14 PUSH2 0x100 EXP DUP2 SLOAD DUP2 PUSH1 0xFF MUL NOT AND SWAP1 DUP4 ISZERO ISZERO MUL OR SWAP1 SSTORE POP DUP1 PUSH1 0x1 PUSH1 0x4 ADD DUP2 SWAP1 SSTORE POP PUSH32 0x554E444546494E45440000000000000000000000000000000000000000000000 PUSH1 0x1 DUP1 ADD DUP2 SWAP1 SSTORE POP PUSH1 0x0 DUP1 PUSH1 0x15 PUSH2 0x100 EXP DUP2 SLOAD DUP2 PUSH1 0xFF MUL NOT AND SWAP1 DUP4 ISZERO ISZERO MUL OR SWAP1 SSTORE POP POP POP POP POP PUSH2 0x1CF JUMP JUMPDEST PUSH1 0x0 DUP2 MLOAD SWAP1 POP PUSH2 0x10F DUP2 PUSH2 0x1A1 JUMP JUMPDEST SWAP3 SWAP2 POP POP JUMP JUMPDEST PUSH1 0x0 DUP2 MLOAD SWAP1 POP PUSH2 0x124 DUP2 PUSH2 0x1B8 JUMP JUMPDEST SWAP3 SWAP2 POP POP JUMP JUMPDEST PUSH1 0x0 DUP1 PUSH1 0x0 DUP1 PUSH1 0x80 DUP6 DUP8 SUB SLT ISZERO PUSH2 0x140 JUMPI PUSH1 0x0 DUP1 REVERT JUMPDEST PUSH1 0x0 PUSH2 0x14E DUP8 DUP3 DUP9 ADD PUSH2 0x100 JUMP JUMPDEST SWAP5 POP POP PUSH1 0x20 PUSH2 0x15F DUP8 DUP3 DUP9 ADD PUSH2 0x100 JUMP JUMPDEST SWAP4 POP POP PUSH1 0x40 PUSH2 0x170 DUP8 DUP3 DUP9 ADD PUSH2 0x100 JUMP JUMPDEST SWAP3 POP POP PUSH1 0x60 PUSH2 0x181 DUP8 DUP3 DUP9 ADD PUSH2 0x115 JUMP JUMPDEST SWAP2 POP POP SWAP3 SWAP6 SWAP2 SWAP5 POP SWAP3 POP JUMP JUMPDEST PUSH1 0x0 DUP2 SWAP1 POP SWAP2 SWAP1 POP JUMP JUMPDEST PUSH1 0x0 DUP2 SWAP1 POP SWAP2 SWAP1 POP JUMP JUMPDEST PUSH2 0x1AA DUP2 PUSH2 0x18D JUMP JUMPDEST DUP2 EQ PUSH2 0x1B5 JUMPI PUSH1 0x0 DUP1 REVERT JUMPDEST POP JUMP JUMPDEST PUSH2 0x1C1 DUP2 PUSH2 0x197 JUMP JUMPDEST DUP2 EQ PUSH2 0x1CC JUMPI PUSH1 0x0 DUP1 REVERT JUMPDEST POP JUMP JUMPDEST PUSH2 0x7F2 DUP1 PUSH2 0x1DE PUSH1 0x0 CODECOPY PUSH1 0x0 RETURN INVALID PUSH1 0x80 PUSH1 0x40 MSTORE CALLVALUE DUP1 ISZERO PUSH2 0x10 JUMPI PUSH1 0x0 DUP1 REVERT JUMPDEST POP PUSH1 0x4 CALLDATASIZE LT PUSH2 0x57 JUMPI PUSH1 0x0 CALLDATALOAD PUSH1 0xE0 SHR DUP1 PUSH4 0x3202017 EQ PUSH2 0x5C JUMPI DUP1 PUSH4 0x34B1794C EQ PUSH2 0x80 JUMPI DUP1 PUSH4 0x5D1CA631 EQ PUSH2 0x8A JUMPI DUP1 PUSH4 0x9499E018 EQ PUSH2 0xA8 JUMPI DUP1 PUSH4 0x97FCCD59 EQ PUSH2 0xB2 JUMPI JUMPDEST PUSH1 0x0 DUP1 REVERT JUMPDEST PUSH2 0x64 PUSH2 0xCE JUMP JUMPDEST PUSH1 0x40 MLOAD PUSH2 0x77 SWAP8 SWAP7 SWAP6 SWAP5 SWAP4 SWAP3 SWAP2 SWAP1 PUSH2 0x5A1 JUMP JUMPDEST PUSH1 0x40 MLOAD DUP1 SWAP2 SUB SWAP1 RETURN JUMPDEST PUSH2 0x88 PUSH2 0x114 JUMP JUMPDEST STOP JUMPDEST PUSH2 0x92 PUSH2 0x1B6 JUMP JUMPDEST PUSH1 0x40 MLOAD PUSH2 0x9F SWAP2 SWAP1 PUSH2 0x541 JUMP JUMPDEST PUSH1 0x40 MLOAD DUP1 SWAP2 SUB SWAP1 RETURN JUMPDEST PUSH2 0xB0 PUSH2 0x212 JUMP JUMPDEST STOP JUMPDEST PUSH2 0xCC PUSH1 0x4 DUP1 CALLDATASIZE SUB DUP2 ADD SWAP1 PUSH2 0xC7 SWAP2 SWAP1 PUSH2 0x448 JUMP JUMPDEST PUSH2 0x2A3 JUMP JUMPDEST STOP JUMPDEST PUSH1 0x0 DUP1 PUSH1 0x0 DUP1 PUSH1 0x0 DUP1 PUSH1 0x0 PUSH1 0x1 DUP1 ADD SLOAD PUSH1 0x1 PUSH1 0x3 ADD SLOAD PUSH1 0x1 PUSH1 0x4 ADD SLOAD PUSH1 0x1 PUSH1 0x5 ADD SLOAD PUSH1 0x1 PUSH1 0x2 ADD SLOAD ADDRESS PUSH1 0x1 PUSH1 0x0 ADD SLOAD SWAP7 POP SWAP7 POP SWAP7 POP SWAP7 POP SWAP7 POP SWAP7 POP SWAP7 POP SWAP1 SWAP2 SWAP3 SWAP4 SWAP5 SWAP6 SWAP7 JUMP JUMPDEST PUSH1 0x0 PUSH1 0x15 SWAP1 SLOAD SWAP1 PUSH2 0x100 EXP SWAP1 DIV PUSH1 0xFF AND ISZERO PUSH2 0x164 JUMPI PUSH1 0x40 MLOAD PUSH32 0x8C379A000000000000000000000000000000000000000000000000000000000 DUP2 MSTORE PUSH1 0x4 ADD PUSH2 0x15B SWAP1 PUSH2 0x610 JUMP JUMPDEST PUSH1 0x40 MLOAD DUP1 SWAP2 SUB SWAP1 REVERT JUMPDEST PUSH1 0x1 PUSH1 0x0 PUSH1 0x15 PUSH2 0x100 EXP DUP2 SLOAD DUP2 PUSH1 0xFF MUL NOT AND SWAP1 DUP4 ISZERO ISZERO MUL OR SWAP1 SSTORE POP PUSH1 0x1 PUSH1 0x0 DUP1 DUP3 ADD PUSH1 0x0 SWAP1 SSTORE PUSH1 0x1 DUP3 ADD PUSH1 0x0 SWAP1 SSTORE PUSH1 0x2 DUP3 ADD PUSH1 0x0 SWAP1 SSTORE PUSH1 0x3 DUP3 ADD PUSH1 0x0 SWAP1 SSTORE PUSH1 0x4 DUP3 ADD PUSH1 0x0 SWAP1 SSTORE PUSH1 0x5 DUP3 ADD PUSH1 0x0 SWAP1 SSTORE POP POP JUMP JUMPDEST PUSH1 0x0 DUP1 PUSH1 0x15 SWAP1 SLOAD SWAP1 PUSH2 0x100 EXP SWAP1 DIV PUSH1 0xFF AND ISZERO PUSH2 0x207 JUMPI PUSH1 0x40 MLOAD PUSH32 0x8C379A000000000000000000000000000000000000000000000000000000000 DUP2 MSTORE PUSH1 0x4 ADD PUSH2 0x1FE SWAP1 PUSH2 0x610 JUMP JUMPDEST PUSH1 0x40 MLOAD DUP1 SWAP2 SUB SWAP1 REVERT JUMPDEST PUSH1 0x1 PUSH1 0x2 ADD SLOAD SWAP1 POP SWAP1 JUMP JUMPDEST PUSH1 0x0 DUP1 SLOAD SWAP1 PUSH2 0x100 EXP SWAP1 DIV PUSH20 0xFFFFFFFFFFFFFFFFFFFFFFFFFFFFFFFFFFFFFFFF AND PUSH20 0xFFFFFFFFFFFFFFFFFFFFFFFFFFFFFFFFFFFFFFFF AND CALLER PUSH20 0xFFFFFFFFFFFFFFFFFFFFFFFFFFFFFFFFFFFFFFFF AND EQ PUSH2 0x26A JUMPI PUSH1 0x0 DUP1 REVERT JUMPDEST PUSH1 0x0 DUP1 SLOAD SWAP1 PUSH2 0x100 EXP SWAP1 DIV PUSH20 0xFFFFFFFFFFFFFFFFFFFFFFFFFFFFFFFFFFFFFFFF AND PUSH20 0xFFFFFFFFFFFFFFFFFFFFFFFFFFFFFFFFFFFFFFFF AND SELFDESTRUCT JUMPDEST PUSH1 0x0 PUSH1 0x15 SWAP1 SLOAD SWAP1 PUSH2 0x100 EXP SWAP1 DIV PUSH1 0xFF AND ISZERO PUSH2 0x2F3 JUMPI PUSH1 0x40 MLOAD PUSH32 0x8C379A000000000000000000000000000000000000000000000000000000000 DUP2 MSTORE PUSH1 0x4 ADD PUSH2 0x2EA SWAP1 PUSH2 0x610 JUMP JUMPDEST PUSH1 0x40 MLOAD DUP1 SWAP2 SUB SWAP1 REVERT JUMPDEST PUSH1 0x0 PUSH1 0x14 SWAP1 SLOAD SWAP1 PUSH2 0x100 EXP SWAP1 DIV PUSH1 0xFF AND ISZERO PUSH2 0x343 JUMPI PUSH1 0x40 MLOAD PUSH32 0x8C379A000000000000000000000000000000000000000000000000000000000 DUP2 MSTORE PUSH1 0x4 ADD PUSH2 0x33A SWAP1 PUSH2 0x630 JUMP JUMPDEST PUSH1 0x40 MLOAD DUP1 SWAP2 SUB SWAP1 REVERT JUMPDEST PUSH1 0x1 PUSH1 0x0 ADD SLOAD DUP3 EQ DUP1 ISZERO PUSH2 0x35B JUMPI POP PUSH1 0x1 PUSH1 0x2 ADD SLOAD DUP2 EQ JUMPDEST PUSH2 0x39A JUMPI PUSH1 0x40 MLOAD PUSH32 0x8C379A000000000000000000000000000000000000000000000000000000000 DUP2 MSTORE PUSH1 0x4 ADD PUSH2 0x391 SWAP1 PUSH2 0x650 JUMP JUMPDEST PUSH1 0x40 MLOAD DUP1 SWAP2 SUB SWAP1 REVERT JUMPDEST PUSH1 0x1 PUSH1 0x0 PUSH1 0x14 PUSH2 0x100 EXP DUP2 SLOAD DUP2 PUSH1 0xFF MUL NOT AND SWAP1 DUP4 ISZERO ISZERO MUL OR SWAP1 SSTORE POP DUP4 PUSH1 0x1 DUP1 ADD DUP2 SWAP1 SSTORE POP DUP3 PUSH1 0x1 PUSH1 0x5 ADD DUP2 SWAP1 SSTORE POP PUSH32 0xA0F53CC16CE55B7914839AF2C6E52AA179EFD63404BB6CB37126FAACECEE5ADB PUSH1 0x1 PUSH1 0x0 ADD SLOAD PUSH1 0x1 PUSH1 0x2 ADD SLOAD PUSH1 0x1 DUP1 ADD SLOAD PUSH1 0x1 PUSH1 0x5 ADD SLOAD PUSH1 0x40 MLOAD PUSH2 0x410 SWAP5 SWAP4 SWAP3 SWAP2 SWAP1 PUSH2 0x55C JUMP JUMPDEST PUSH1 0x40 MLOAD DUP1 SWAP2 SUB SWAP1 LOG1 POP POP POP POP JUMP JUMPDEST PUSH1 0x0 DUP2 CALLDATALOAD SWAP1 POP PUSH2 0x42D DUP2 PUSH2 0x78E JUMP JUMPDEST SWAP3 SWAP2 POP POP JUMP JUMPDEST PUSH1 0x0 DUP2 CALLDATALOAD SWAP1 POP PUSH2 0x442 DUP2 PUSH2 0x7A5 JUMP JUMPDEST SWAP3 SWAP2 POP POP JUMP JUMPDEST PUSH1 0x0 DUP1 PUSH1 0x0 DUP1 PUSH1 0x80 DUP6 DUP8 SUB SLT ISZERO PUSH2 0x45E JUMPI PUSH1 0x0 DUP1 REVERT JUMPDEST PUSH1 0x0 PUSH2 0x46C DUP8 DUP3 DUP9 ADD PUSH2 0x41E JUMP JUMPDEST SWAP5 POP POP PUSH1 0x20 PUSH2 0x47D DUP8 DUP3 DUP9 ADD PUSH2 0x433 JUMP JUMPDEST SWAP4 POP POP PUSH1 0x40 PUSH2 0x48E DUP8 DUP3 DUP9 ADD PUSH2 0x41E JUMP JUMPDEST SWAP3 POP POP PUSH1 0x60 PUSH2 0x49F DUP8 DUP3 DUP9 ADD PUSH2 0x41E JUMP JUMPDEST SWAP2 POP POP SWAP3 SWAP6 SWAP2 SWAP5 POP SWAP3 POP JUMP JUMPDEST PUSH2 0x4B4 DUP2 PUSH2 0x681 JUMP JUMPDEST DUP3 MSTORE POP POP JUMP JUMPDEST PUSH2 0x4C3 DUP2 PUSH2 0x693 JUMP JUMPDEST DUP3 MSTORE POP POP JUMP JUMPDEST PUSH1 0x0 PUSH2 0x4D6 PUSH1 0x1A DUP4 PUSH2 0x670 JUMP JUMPDEST SWAP2 POP PUSH2 0x4E1 DUP3 PUSH2 0x6C7 JUMP JUMPDEST PUSH1 0x20 DUP3 ADD SWAP1 POP SWAP2 SWAP1 POP JUMP JUMPDEST PUSH1 0x0 PUSH2 0x4F9 PUSH1 0x19 DUP4 PUSH2 0x670 JUMP JUMPDEST SWAP2 POP PUSH2 0x504 DUP3 PUSH2 0x6F0 JUMP JUMPDEST PUSH1 0x20 DUP3 ADD SWAP1 POP SWAP2 SWAP1 POP JUMP JUMPDEST PUSH1 0x0 PUSH2 0x51C PUSH1 0x46 DUP4 PUSH2 0x670 JUMP JUMPDEST SWAP2 POP PUSH2 0x527 DUP3 PUSH2 0x719 JUMP JUMPDEST PUSH1 0x60 DUP3 ADD SWAP1 POP SWAP2 SWAP1 POP JUMP JUMPDEST PUSH2 0x53B DUP2 PUSH2 0x6BD JUMP JUMPDEST DUP3 MSTORE POP POP JUMP JUMPDEST PUSH1 0x0 PUSH1 0x20 DUP3 ADD SWAP1 POP PUSH2 0x556 PUSH1 0x0 DUP4 ADD DUP5 PUSH2 0x4BA JUMP JUMPDEST SWAP3 SWAP2 POP POP JUMP JUMPDEST PUSH1 0x0 PUSH1 0x80 DUP3 ADD SWAP1 POP PUSH2 0x571 PUSH1 0x0 DUP4 ADD DUP8 PUSH2 0x4BA JUMP JUMPDEST PUSH2 0x57E PUSH1 0x20 DUP4 ADD DUP7 PUSH2 0x4BA JUMP JUMPDEST PUSH2 0x58B PUSH1 0x40 DUP4 ADD DUP6 PUSH2 0x4BA JUMP JUMPDEST PUSH2 0x598 PUSH1 0x60 DUP4 ADD DUP5 PUSH2 0x532 JUMP JUMPDEST SWAP6 SWAP5 POP POP POP POP POP JUMP JUMPDEST PUSH1 0x0 PUSH1 0xE0 DUP3 ADD SWAP1 POP PUSH2 0x5B6 PUSH1 0x0 DUP4 ADD DUP11 PUSH2 0x4BA JUMP JUMPDEST PUSH2 0x5C3 PUSH1 0x20 DUP4 ADD DUP10 PUSH2 0x4BA JUMP JUMPDEST PUSH2 0x5D0 PUSH1 0x40 DUP4 ADD DUP9 PUSH2 0x532 JUMP JUMPDEST PUSH2 0x5DD PUSH1 0x60 DUP4 ADD DUP8 PUSH2 0x532 JUMP JUMPDEST PUSH2 0x5EA PUSH1 0x80 DUP4 ADD DUP7 PUSH2 0x4BA JUMP JUMPDEST PUSH2 0x5F7 PUSH1 0xA0 DUP4 ADD DUP6 PUSH2 0x4AB JUMP JUMPDEST PUSH2 0x604 PUSH1 0xC0 DUP4 ADD DUP5 PUSH2 0x4BA JUMP JUMPDEST SWAP9 SWAP8 POP POP POP POP POP POP POP POP JUMP JUMPDEST PUSH1 0x0 PUSH1 0x20 DUP3 ADD SWAP1 POP DUP2 DUP2 SUB PUSH1 0x0 DUP4 ADD MSTORE PUSH2 0x629 DUP2 PUSH2 0x4C9 JUMP JUMPDEST SWAP1 POP SWAP2 SWAP1 POP JUMP JUMPDEST PUSH1 0x0 PUSH1 0x20 DUP3 ADD SWAP1 POP DUP2 DUP2 SUB PUSH1 0x0 DUP4 ADD MSTORE PUSH2 0x649 DUP2 PUSH2 0x4EC JUMP JUMPDEST SWAP1 POP SWAP2 SWAP1 POP JUMP JUMPDEST PUSH1 0x0 PUSH1 0x20 DUP3 ADD SWAP1 POP DUP2 DUP2 SUB PUSH1 0x0 DUP4 ADD MSTORE PUSH2 0x669 DUP2 PUSH2 0x50F JUMP JUMPDEST SWAP1 POP SWAP2 SWAP1 POP JUMP JUMPDEST PUSH1 0x0 DUP3 DUP3 MSTORE PUSH1 0x20 DUP3 ADD SWAP1 POP SWAP3 SWAP2 POP POP JUMP JUMPDEST PUSH1 0x0 PUSH2 0x68C DUP3 PUSH2 0x69D JUMP JUMPDEST SWAP1 POP SWAP2 SWAP1 POP JUMP JUMPDEST PUSH1 0x0 DUP2 SWAP1 POP SWAP2 SWAP1 POP JUMP JUMPDEST PUSH1 0x0 PUSH20 0xFFFFFFFFFFFFFFFFFFFFFFFFFFFFFFFFFFFFFFFF DUP3 AND SWAP1 POP SWAP2 SWAP1 POP JUMP JUMPDEST PUSH1 0x0 DUP2 SWAP1 POP SWAP2 SWAP1 POP JUMP JUMPDEST PUSH32 0x546869732050435220686173206265656E2064656C657465642E000000000000 PUSH1 0x0 DUP3 ADD MSTORE POP JUMP JUMPDEST PUSH32 0x504352732063616E206F6E6C7920557064617465206F6E636500000000000000 PUSH1 0x0 DUP3 ADD MSTORE POP JUMP JUMPDEST PUSH32 0x496E737572616E636520616E642050435220696473206861766520746F206265 PUSH1 0x0 DUP3 ADD MSTORE PUSH32 0x207468652073616D6520617320746865206F6E657320696E207468697320636F PUSH1 0x20 DUP3 ADD MSTORE PUSH32 0x6E74726163740000000000000000000000000000000000000000000000000000 PUSH1 0x40 DUP3 ADD MSTORE POP JUMP JUMPDEST PUSH2 0x797 DUP2 PUSH2 0x693 JUMP JUMPDEST DUP2 EQ PUSH2 0x7A2 JUMPI PUSH1 0x0 DUP1 REVERT JUMPDEST POP JUMP JUMPDEST PUSH2 0x7AE DUP2 PUSH2 0x6BD JUMP JUMPDEST DUP2 EQ PUSH2 0x7B9 JUMPI PUSH1 0x0 DUP1 REVERT JUMPDEST POP JUMP INVALID LOG2 PUSH5 0x6970667358 0x22 SLT KECCAK256 DUP9 SWAP9 LOG0 0xE1 CALLDATALOAD DUP13 0xAE 0xA9 0xF6 DELEGATECALL DELEGATECALL DUP15 SELFDESTRUCT PUSH5 0x2123BF9BD2 0x2C 0xEC PUSH28 0xDD6F4579DC3A3E2EA97364736F6C6343000803003300000000000000 "
    },
    "gasEstimates": {
      "creation": {
        "codeDepositCost": "406800",
        "executionCost": "infinite",
        "totalCost": "infinite"
      },
      "external": {
        "deletePCR()": "52067",
        "destructContract()": "31888",
        "getId()": "2071",
        "getPCRData()": "infinite",
        "updatePCR(bytes32,uint256,bytes32,bytes32)": "infinite"
      }
    },
    "methodIdentifiers": {
      "deletePCR()": "34b1794c",
      "destructContract()": "9499e018",
      "getId()": "5d1ca631",
      "getPCRData()": "03202017",
      "updatePCR(bytes32,uint256,bytes32,bytes32)": "97fccd59"
    }
  },
  "storageLayout": {
    "storage": [
      {
        "astId": 1598,
        "contract": "PCR.sol:PCR",
        "label": "owner",
        "offset": 0,
        "slot": "0",
        "type": "t_address_payable"
      },
      {
        "astId": 1600,
        "contract": "PCR.sol:PCR",
        "label": "completed",
        "offset": 20,
        "slot": "0",
        "type": "t_bool"
      },
      {
        "astId": 1602,
        "contract": "PCR.sol:PCR",
        "label": "deleted",
        "offset": 21,
        "slot": "0",
        "type": "t_bool"
      },
      {
        "astId": 1605,
        "contract": "PCR.sol:PCR",
        "label": "pcrData",
        "offset": 0,
        "slot": "1",
        "type": "t_struct(PCRData)1596_storage"
      }
    ],
    "types": {
      "t_address_payable": {
        "encoding": "inplace",
        "label": "address payable",
        "numberOfBytes": "20"
      },
      "t_bool": {
        "encoding": "inplace",
        "label": "bool",
        "numberOfBytes": "1"
      },
      "t_bytes32": {
        "encoding": "inplace",
        "label": "bytes32",
        "numberOfBytes": "32"
      },
      "t_struct(PCRData)1596_storage": {
        "encoding": "inplace",
        "label": "struct PCR.PCRData",
        "members": [
          {
            "astId": 1585,
            "contract": "PCR.sol:PCR",
            "label": "insuranceId",
            "offset": 0,
            "slot": "0",
            "type": "t_bytes32"
          },
          {
            "astId": 1587,
            "contract": "PCR.sol:PCR",
            "label": "result",
            "offset": 0,
            "slot": "1",
            "type": "t_bytes32"
          },
          {
            "astId": 1589,
            "contract": "PCR.sol:PCR",
            "label": "id",
            "offset": 0,
            "slot": "2",
            "type": "t_bytes32"
          },
          {
            "astId": 1591,
            "contract": "PCR.sol:PCR",
            "label": "insuredId",
            "offset": 0,
            "slot": "3",
            "type": "t_bytes32"
          },
          {
            "astId": 1593,
            "contract": "PCR.sol:PCR",
            "label": "requestDate",
            "offset": 0,
            "slot": "4",
            "type": "t_uint256"
          },
          {
            "astId": 1595,
            "contract": "PCR.sol:PCR",
            "label": "resultDate",
            "offset": 0,
            "slot": "5",
            "type": "t_uint256"
          }
        ],
        "numberOfBytes": "192"
      },
      "t_uint256": {
        "encoding": "inplace",
        "label": "uint256",
        "numberOfBytes": "32"
      }
    }
  },
  "userdoc": {
    "kind": "user",
    "methods": {
      "constructor": {
        "notice": "Initialize the PCR."
      },
      "deletePCR()": {
        "notice": "Delete the actual PCR."
      },
      "destructContract()": {
        "notice": "Delete the contract of the blockchain."
      },
      "getId()": {
        "notice": "Returns only the PCR id."
      },
      "getPCRData()": {
        "notice": "Returns PCR data."
      },
      "updatePCR(bytes32,uint256,bytes32,bytes32)": {
        "notice": "Update de pcr result state from the laboratory."
      }
    },
    "version": 1
  }
}