{
  "abi": [
    {
      "inputs": [
        {
          "internalType": "bytes32",
          "name": "_id",
          "type": "bytes32"
        },
        {
          "internalType": "bytes32",
          "name": "_insuranceId",
          "type": "bytes32"
        },
        {
          "internalType": "bytes32",
          "name": "_insuredId",
          "type": "bytes32"
        },
        {
          "internalType": "uint256",
          "name": "_requestDate",
          "type": "uint256"
        },
        {
          "internalType": "address",
          "name": "_insuranceAddress",
          "type": "address"
        }
      ],
      "stateMutability": "nonpayable",
      "type": "constructor"
    },
    {
      "anonymous": false,
      "inputs": [
        {
          "indexed": false,
          "internalType": "bytes32",
          "name": "id",
          "type": "bytes32"
        },
        {
          "indexed": false,
          "internalType": "bytes32",
          "name": "insuranceId",
          "type": "bytes32"
        },
        {
          "indexed": false,
          "internalType": "bytes32",
          "name": "insuredId",
          "type": "bytes32"
        },
        {
          "indexed": false,
          "internalType": "uint256",
          "name": "requestDate",
          "type": "uint256"
        },
        {
          "indexed": false,
          "internalType": "address",
          "name": "pcrAddress",
          "type": "address"
        },
        {
          "indexed": false,
          "internalType": "address",
          "name": "insuranceAddress",
          "type": "address"
        }
      ],
      "name": "pcrCreated",
      "type": "event"
    },
    {
      "anonymous": false,
      "inputs": [
        {
          "indexed": false,
          "internalType": "bytes32",
          "name": "insuranceId",
          "type": "bytes32"
        },
        {
          "indexed": false,
          "internalType": "bytes32",
          "name": "pcrId",
          "type": "bytes32"
        },
        {
          "indexed": false,
          "internalType": "bytes32",
          "name": "result",
          "type": "bytes32"
        },
        {
          "indexed": false,
          "internalType": "uint256",
          "name": "resultDate",
          "type": "uint256"
        },
        {
          "indexed": false,
          "internalType": "address",
          "name": "insuranceAddress",
          "type": "address"
        }
      ],
      "name": "pcrUpdate",
      "type": "event"
    },
    {
      "inputs": [],
      "name": "deletePCR",
      "outputs": [],
      "stateMutability": "nonpayable",
      "type": "function"
    },
    {
      "inputs": [],
      "name": "destructContract",
      "outputs": [],
      "stateMutability": "nonpayable",
      "type": "function"
    },
    {
      "inputs": [],
      "name": "getId",
      "outputs": [
        {
          "internalType": "bytes32",
          "name": "id",
          "type": "bytes32"
        }
      ],
      "stateMutability": "view",
      "type": "function"
    },
    {
      "inputs": [
        {
          "internalType": "bytes32",
          "name": "_idInsurance",
          "type": "bytes32"
        },
        {
          "internalType": "bytes32",
          "name": "_id",
          "type": "bytes32"
        }
      ],
      "name": "getPCRData",
      "outputs": [
        {
          "internalType": "bytes32",
          "name": "result",
          "type": "bytes32"
        },
        {
          "internalType": "bytes32",
          "name": "customerId",
          "type": "bytes32"
        },
        {
          "internalType": "uint256",
          "name": "requestDate",
          "type": "uint256"
        },
        {
          "internalType": "uint256",
          "name": "resultDate",
          "type": "uint256"
        },
        {
          "internalType": "bytes32",
          "name": "id",
          "type": "bytes32"
        },
        {
          "internalType": "address",
          "name": "pcrContractAddress",
          "type": "address"
        },
        {
          "internalType": "bytes32",
          "name": "insuranceId",
          "type": "bytes32"
        }
      ],
      "stateMutability": "view",
      "type": "function"
    },
    {
      "inputs": [
        {
          "internalType": "bytes32",
          "name": "_result",
          "type": "bytes32"
        },
        {
          "internalType": "uint256",
          "name": "_resultDate",
          "type": "uint256"
        },
        {
          "internalType": "bytes32",
          "name": "_insuranceId",
          "type": "bytes32"
        },
        {
          "internalType": "bytes32",
          "name": "_pcrId",
          "type": "bytes32"
        }
      ],
      "name": "updatePCR",
      "outputs": [],
      "stateMutability": "nonpayable",
      "type": "function"
    }
  ],
  "devdoc": {
    "author": "Eduardo Suarez Ojeda",
    "details": "The Contract represents the life cycle of a PCR linked to an insured.",
    "kind": "dev",
    "methods": {
      "deletePCR()": {
        "details": "Makes every method inaccessible except the one that returns the data."
      },
      "destructContract()": {
        "details": "Only use in extreme situations."
      }
    },
    "title": "PCR",
    "version": 1
  },
  "evm": {
    "assembly": "    /* \"PCR.sol\":157:3436  contract PCR {... */\n  mstore(0x40, 0x80)\n    /* \"PCR.sol\":952:1561  constructor(... */\n  callvalue\n  dup1\n  iszero\n  tag_1\n  jumpi\n  0x00\n  dup1\n  revert\ntag_1:\n  pop\n  mload(0x40)\n  sub(codesize, bytecodeSize)\n  dup1\n  bytecodeSize\n  dup4\n  codecopy\n  dup2\n  dup2\n  add\n  0x40\n  mstore\n  dup2\n  add\n  swap1\n  tag_2\n  swap2\n  swap1\n  tag_3\n  jump\t// in\ntag_2:\n    /* \"PCR.sol\":1152:1169  _insuranceAddress */\n  dup1\n    /* \"PCR.sol\":1125:1132  pcrData */\n  0x01\n    /* \"PCR.sol\":1125:1149  pcrData.insuranceAddress */\n  0x06\n  add\n  0x00\n    /* \"PCR.sol\":1125:1169  pcrData.insuranceAddress = _insuranceAddress */\n  0x0100\n  exp\n  dup2\n  sload\n  dup2\n  0xffffffffffffffffffffffffffffffffffffffff\n  mul\n  not\n  and\n  swap1\n  dup4\n  0xffffffffffffffffffffffffffffffffffffffff\n  and\n  mul\n  or\n  swap1\n  sstore\n  pop\n    /* \"PCR.sol\":1201:1213  _requestDate */\n  dup2\n    /* \"PCR.sol\":1179:1186  pcrData */\n  0x01\n    /* \"PCR.sol\":1179:1198  pcrData.requestDate */\n  0x04\n  add\n    /* \"PCR.sol\":1179:1213  pcrData.requestDate = _requestDate */\n  dup2\n  swap1\n  sstore\n  pop\n    /* \"PCR.sol\":1243:1253  _insuredId */\n  dup3\n    /* \"PCR.sol\":1223:1230  pcrData */\n  0x01\n    /* \"PCR.sol\":1223:1240  pcrData.insuredId */\n  0x03\n  add\n    /* \"PCR.sol\":1223:1253  pcrData.insuredId = _insuredId */\n  dup2\n  swap1\n  sstore\n  pop\n    /* \"PCR.sol\":1285:1297  _insuranceId */\n  dup4\n    /* \"PCR.sol\":1263:1270  pcrData */\n  0x01\n    /* \"PCR.sol\":1263:1282  pcrData.insuranceId */\n  0x00\n  add\n    /* \"PCR.sol\":1263:1297  pcrData.insuranceId = _insuranceId */\n  dup2\n  swap1\n  sstore\n  pop\n    /* \"PCR.sol\":1320:1323  _id */\n  dup5\n    /* \"PCR.sol\":1307:1314  pcrData */\n  0x01\n    /* \"PCR.sol\":1307:1317  pcrData.id */\n  0x02\n  add\n    /* \"PCR.sol\":1307:1323  pcrData.id = _id */\n  dup2\n  swap1\n  sstore\n  pop\n    /* \"PCR.sol\":1349:1359  msg.sender */\n  caller\n    /* \"PCR.sol\":1333:1338  owner */\n  0x00\n  dup1\n    /* \"PCR.sol\":1333:1360  owner = payable(msg.sender) */\n  0x0100\n  exp\n  dup2\n  sload\n  dup2\n  0xffffffffffffffffffffffffffffffffffffffff\n  mul\n  not\n  and\n  swap1\n  dup4\n  0xffffffffffffffffffffffffffffffffffffffff\n  and\n  mul\n  or\n  swap1\n  sstore\n  pop\n    /* \"PCR.sol\":1382:1387  false */\n  0x00\n    /* \"PCR.sol\":1370:1379  completed */\n  dup1\n  0x14\n    /* \"PCR.sol\":1370:1387  completed = false */\n  0x0100\n  exp\n  dup2\n  sload\n  dup2\n  0xff\n  mul\n  not\n  and\n  swap1\n  dup4\n  iszero\n  iszero\n  mul\n  or\n  swap1\n  sstore\n  pop\n    /* \"PCR.sol\":1397:1425  pcrData.result = \"UNDEFINED\" */\n  0x554e444546494e45440000000000000000000000000000000000000000000000\n    /* \"PCR.sol\":1397:1404  pcrData */\n  0x01\n    /* \"PCR.sol\":1397:1411  pcrData.result */\n  dup1\n  add\n    /* \"PCR.sol\":1397:1425  pcrData.result = \"UNDEFINED\" */\n  dup2\n  swap1\n  sstore\n  pop\n    /* \"PCR.sol\":1445:1450  false */\n  0x00\n    /* \"PCR.sol\":1435:1442  deleted */\n  dup1\n  0x15\n    /* \"PCR.sol\":1435:1450  deleted = false */\n  0x0100\n  exp\n  dup2\n  sload\n  dup2\n  0xff\n  mul\n  not\n  and\n  swap1\n  dup4\n  iszero\n  iszero\n  mul\n  or\n  swap1\n  sstore\n  pop\n    /* \"PCR.sol\":1465:1554  pcrCreated(_id, _insuranceId, _insuredId, _requestDate, address(this), _insuranceAddress) */\n  0x9180bea917ec5e95e7074490fb52bbcfb047f4239df58b60c1ebf2ea6cc96cb1\n    /* \"PCR.sol\":1476:1479  _id */\n  dup6\n    /* \"PCR.sol\":1481:1493  _insuranceId */\n  dup6\n    /* \"PCR.sol\":1495:1505  _insuredId */\n  dup6\n    /* \"PCR.sol\":1507:1519  _requestDate */\n  dup6\n    /* \"PCR.sol\":1529:1533  this */\n  address\n    /* \"PCR.sol\":1536:1553  _insuranceAddress */\n  dup7\n    /* \"PCR.sol\":1465:1554  pcrCreated(_id, _insuranceId, _insuredId, _requestDate, address(this), _insuranceAddress) */\n  mload(0x40)\n  tag_6\n  swap7\n  swap6\n  swap5\n  swap4\n  swap3\n  swap2\n  swap1\n  tag_7\n  jump\t// in\ntag_6:\n  mload(0x40)\n  dup1\n  swap2\n  sub\n  swap1\n  log1\n    /* \"PCR.sol\":952:1561  constructor(... */\n  pop\n  pop\n  pop\n  pop\n  pop\n    /* \"PCR.sol\":157:3436  contract PCR {... */\n  jump(tag_8)\n    /* \"#utility.yul\":7:150   */\ntag_10:\n  0x00\n    /* \"#utility.yul\":95:101   */\n  dup2\n    /* \"#utility.yul\":89:102   */\n  mload\n    /* \"#utility.yul\":80:102   */\n  swap1\n  pop\n    /* \"#utility.yul\":111:144   */\n  tag_12\n    /* \"#utility.yul\":138:143   */\n  dup2\n    /* \"#utility.yul\":111:144   */\n  tag_13\n  jump\t// in\ntag_12:\n    /* \"#utility.yul\":70:150   */\n  swap3\n  swap2\n  pop\n  pop\n  jump\t// out\n    /* \"#utility.yul\":156:299   */\ntag_14:\n  0x00\n    /* \"#utility.yul\":244:250   */\n  dup2\n    /* \"#utility.yul\":238:251   */\n  mload\n    /* \"#utility.yul\":229:251   */\n  swap1\n  pop\n    /* \"#utility.yul\":260:293   */\n  tag_16\n    /* \"#utility.yul\":287:292   */\n  dup2\n    /* \"#utility.yul\":260:293   */\n  tag_17\n  jump\t// in\ntag_16:\n    /* \"#utility.yul\":219:299   */\n  swap3\n  swap2\n  pop\n  pop\n  jump\t// out\n    /* \"#utility.yul\":305:448   */\ntag_18:\n  0x00\n    /* \"#utility.yul\":393:399   */\n  dup2\n    /* \"#utility.yul\":387:400   */\n  mload\n    /* \"#utility.yul\":378:400   */\n  swap1\n  pop\n    /* \"#utility.yul\":409:442   */\n  tag_20\n    /* \"#utility.yul\":436:441   */\n  dup2\n    /* \"#utility.yul\":409:442   */\n  tag_21\n  jump\t// in\ntag_20:\n    /* \"#utility.yul\":368:448   */\n  swap3\n  swap2\n  pop\n  pop\n  jump\t// out\n    /* \"#utility.yul\":454:1364   */\ntag_3:\n  0x00\n  dup1\n  0x00\n  dup1\n  0x00\n    /* \"#utility.yul\":641:644   */\n  0xa0\n    /* \"#utility.yul\":629:638   */\n  dup7\n    /* \"#utility.yul\":620:627   */\n  dup9\n    /* \"#utility.yul\":616:639   */\n  sub\n    /* \"#utility.yul\":612:645   */\n  slt\n    /* \"#utility.yul\":609:611   */\n  iszero\n  tag_23\n  jumpi\n    /* \"#utility.yul\":658:659   */\n  0x00\n    /* \"#utility.yul\":655:656   */\n  dup1\n    /* \"#utility.yul\":648:660   */\n  revert\n    /* \"#utility.yul\":609:611   */\ntag_23:\n    /* \"#utility.yul\":701:702   */\n  0x00\n    /* \"#utility.yul\":726:790   */\n  tag_24\n    /* \"#utility.yul\":782:789   */\n  dup9\n    /* \"#utility.yul\":773:779   */\n  dup3\n    /* \"#utility.yul\":762:771   */\n  dup10\n    /* \"#utility.yul\":758:780   */\n  add\n    /* \"#utility.yul\":726:790   */\n  tag_14\n  jump\t// in\ntag_24:\n    /* \"#utility.yul\":716:790   */\n  swap6\n  pop\n    /* \"#utility.yul\":672:800   */\n  pop\n    /* \"#utility.yul\":839:841   */\n  0x20\n    /* \"#utility.yul\":865:929   */\n  tag_25\n    /* \"#utility.yul\":921:928   */\n  dup9\n    /* \"#utility.yul\":912:918   */\n  dup3\n    /* \"#utility.yul\":901:910   */\n  dup10\n    /* \"#utility.yul\":897:919   */\n  add\n    /* \"#utility.yul\":865:929   */\n  tag_14\n  jump\t// in\ntag_25:\n    /* \"#utility.yul\":855:929   */\n  swap5\n  pop\n    /* \"#utility.yul\":810:939   */\n  pop\n    /* \"#utility.yul\":978:980   */\n  0x40\n    /* \"#utility.yul\":1004:1068   */\n  tag_26\n    /* \"#utility.yul\":1060:1067   */\n  dup9\n    /* \"#utility.yul\":1051:1057   */\n  dup3\n    /* \"#utility.yul\":1040:1049   */\n  dup10\n    /* \"#utility.yul\":1036:1058   */\n  add\n    /* \"#utility.yul\":1004:1068   */\n  tag_14\n  jump\t// in\ntag_26:\n    /* \"#utility.yul\":994:1068   */\n  swap4\n  pop\n    /* \"#utility.yul\":949:1078   */\n  pop\n    /* \"#utility.yul\":1117:1119   */\n  0x60\n    /* \"#utility.yul\":1143:1207   */\n  tag_27\n    /* \"#utility.yul\":1199:1206   */\n  dup9\n    /* \"#utility.yul\":1190:1196   */\n  dup3\n    /* \"#utility.yul\":1179:1188   */\n  dup10\n    /* \"#utility.yul\":1175:1197   */\n  add\n    /* \"#utility.yul\":1143:1207   */\n  tag_18\n  jump\t// in\ntag_27:\n    /* \"#utility.yul\":1133:1207   */\n  swap3\n  pop\n    /* \"#utility.yul\":1088:1217   */\n  pop\n    /* \"#utility.yul\":1256:1259   */\n  0x80\n    /* \"#utility.yul\":1283:1347   */\n  tag_28\n    /* \"#utility.yul\":1339:1346   */\n  dup9\n    /* \"#utility.yul\":1330:1336   */\n  dup3\n    /* \"#utility.yul\":1319:1328   */\n  dup10\n    /* \"#utility.yul\":1315:1337   */\n  add\n    /* \"#utility.yul\":1283:1347   */\n  tag_10\n  jump\t// in\ntag_28:\n    /* \"#utility.yul\":1273:1347   */\n  swap2\n  pop\n    /* \"#utility.yul\":1227:1357   */\n  pop\n    /* \"#utility.yul\":599:1364   */\n  swap3\n  swap6\n  pop\n  swap3\n  swap6\n  swap1\n  swap4\n  pop\n  jump\t// out\n    /* \"#utility.yul\":1370:1488   */\ntag_29:\n    /* \"#utility.yul\":1457:1481   */\n  tag_31\n    /* \"#utility.yul\":1475:1480   */\n  dup2\n    /* \"#utility.yul\":1457:1481   */\n  tag_32\n  jump\t// in\ntag_31:\n    /* \"#utility.yul\":1452:1455   */\n  dup3\n    /* \"#utility.yul\":1445:1482   */\n  mstore\n    /* \"#utility.yul\":1435:1488   */\n  pop\n  pop\n  jump\t// out\n    /* \"#utility.yul\":1494:1612   */\ntag_33:\n    /* \"#utility.yul\":1581:1605   */\n  tag_35\n    /* \"#utility.yul\":1599:1604   */\n  dup2\n    /* \"#utility.yul\":1581:1605   */\n  tag_36\n  jump\t// in\ntag_35:\n    /* \"#utility.yul\":1576:1579   */\n  dup3\n    /* \"#utility.yul\":1569:1606   */\n  mstore\n    /* \"#utility.yul\":1559:1612   */\n  pop\n  pop\n  jump\t// out\n    /* \"#utility.yul\":1618:1736   */\ntag_37:\n    /* \"#utility.yul\":1705:1729   */\n  tag_39\n    /* \"#utility.yul\":1723:1728   */\n  dup2\n    /* \"#utility.yul\":1705:1729   */\n  tag_40\n  jump\t// in\ntag_39:\n    /* \"#utility.yul\":1700:1703   */\n  dup3\n    /* \"#utility.yul\":1693:1730   */\n  mstore\n    /* \"#utility.yul\":1683:1736   */\n  pop\n  pop\n  jump\t// out\n    /* \"#utility.yul\":1742:2517   */\ntag_7:\n  0x00\n    /* \"#utility.yul\":2013:2016   */\n  0xc0\n    /* \"#utility.yul\":2002:2011   */\n  dup3\n    /* \"#utility.yul\":1998:2017   */\n  add\n    /* \"#utility.yul\":1990:2017   */\n  swap1\n  pop\n    /* \"#utility.yul\":2027:2098   */\n  tag_42\n    /* \"#utility.yul\":2095:2096   */\n  0x00\n    /* \"#utility.yul\":2084:2093   */\n  dup4\n    /* \"#utility.yul\":2080:2097   */\n  add\n    /* \"#utility.yul\":2071:2077   */\n  dup10\n    /* \"#utility.yul\":2027:2098   */\n  tag_33\n  jump\t// in\ntag_42:\n    /* \"#utility.yul\":2108:2180   */\n  tag_43\n    /* \"#utility.yul\":2176:2178   */\n  0x20\n    /* \"#utility.yul\":2165:2174   */\n  dup4\n    /* \"#utility.yul\":2161:2179   */\n  add\n    /* \"#utility.yul\":2152:2158   */\n  dup9\n    /* \"#utility.yul\":2108:2180   */\n  tag_33\n  jump\t// in\ntag_43:\n    /* \"#utility.yul\":2190:2262   */\n  tag_44\n    /* \"#utility.yul\":2258:2260   */\n  0x40\n    /* \"#utility.yul\":2247:2256   */\n  dup4\n    /* \"#utility.yul\":2243:2261   */\n  add\n    /* \"#utility.yul\":2234:2240   */\n  dup8\n    /* \"#utility.yul\":2190:2262   */\n  tag_33\n  jump\t// in\ntag_44:\n    /* \"#utility.yul\":2272:2344   */\n  tag_45\n    /* \"#utility.yul\":2340:2342   */\n  0x60\n    /* \"#utility.yul\":2329:2338   */\n  dup4\n    /* \"#utility.yul\":2325:2343   */\n  add\n    /* \"#utility.yul\":2316:2322   */\n  dup7\n    /* \"#utility.yul\":2272:2344   */\n  tag_37\n  jump\t// in\ntag_45:\n    /* \"#utility.yul\":2354:2427   */\n  tag_46\n    /* \"#utility.yul\":2422:2425   */\n  0x80\n    /* \"#utility.yul\":2411:2420   */\n  dup4\n    /* \"#utility.yul\":2407:2426   */\n  add\n    /* \"#utility.yul\":2398:2404   */\n  dup6\n    /* \"#utility.yul\":2354:2427   */\n  tag_29\n  jump\t// in\ntag_46:\n    /* \"#utility.yul\":2437:2510   */\n  tag_47\n    /* \"#utility.yul\":2505:2508   */\n  0xa0\n    /* \"#utility.yul\":2494:2503   */\n  dup4\n    /* \"#utility.yul\":2490:2509   */\n  add\n    /* \"#utility.yul\":2481:2487   */\n  dup5\n    /* \"#utility.yul\":2437:2510   */\n  tag_29\n  jump\t// in\ntag_47:\n    /* \"#utility.yul\":1980:2517   */\n  swap8\n  swap7\n  pop\n  pop\n  pop\n  pop\n  pop\n  pop\n  pop\n  jump\t// out\n    /* \"#utility.yul\":2523:2619   */\ntag_32:\n  0x00\n    /* \"#utility.yul\":2589:2613   */\n  tag_49\n    /* \"#utility.yul\":2607:2612   */\n  dup3\n    /* \"#utility.yul\":2589:2613   */\n  tag_50\n  jump\t// in\ntag_49:\n    /* \"#utility.yul\":2578:2613   */\n  swap1\n  pop\n    /* \"#utility.yul\":2568:2619   */\n  swap2\n  swap1\n  pop\n  jump\t// out\n    /* \"#utility.yul\":2625:2702   */\ntag_36:\n  0x00\n    /* \"#utility.yul\":2691:2696   */\n  dup2\n    /* \"#utility.yul\":2680:2696   */\n  swap1\n  pop\n    /* \"#utility.yul\":2670:2702   */\n  swap2\n  swap1\n  pop\n  jump\t// out\n    /* \"#utility.yul\":2708:2834   */\ntag_50:\n  0x00\n    /* \"#utility.yul\":2785:2827   */\n  0xffffffffffffffffffffffffffffffffffffffff\n    /* \"#utility.yul\":2778:2783   */\n  dup3\n    /* \"#utility.yul\":2774:2828   */\n  and\n    /* \"#utility.yul\":2763:2828   */\n  swap1\n  pop\n    /* \"#utility.yul\":2753:2834   */\n  swap2\n  swap1\n  pop\n  jump\t// out\n    /* \"#utility.yul\":2840:2917   */\ntag_40:\n  0x00\n    /* \"#utility.yul\":2906:2911   */\n  dup2\n    /* \"#utility.yul\":2895:2911   */\n  swap1\n  pop\n    /* \"#utility.yul\":2885:2917   */\n  swap2\n  swap1\n  pop\n  jump\t// out\n    /* \"#utility.yul\":2923:3045   */\ntag_13:\n    /* \"#utility.yul\":2996:3020   */\n  tag_55\n    /* \"#utility.yul\":3014:3019   */\n  dup2\n    /* \"#utility.yul\":2996:3020   */\n  tag_32\n  jump\t// in\ntag_55:\n    /* \"#utility.yul\":2989:2994   */\n  dup2\n    /* \"#utility.yul\":2986:3021   */\n  eq\n    /* \"#utility.yul\":2976:2978   */\n  tag_56\n  jumpi\n    /* \"#utility.yul\":3035:3036   */\n  0x00\n    /* \"#utility.yul\":3032:3033   */\n  dup1\n    /* \"#utility.yul\":3025:3037   */\n  revert\n    /* \"#utility.yul\":2976:2978   */\ntag_56:\n    /* \"#utility.yul\":2966:3045   */\n  pop\n  jump\t// out\n    /* \"#utility.yul\":3051:3173   */\ntag_17:\n    /* \"#utility.yul\":3124:3148   */\n  tag_58\n    /* \"#utility.yul\":3142:3147   */\n  dup2\n    /* \"#utility.yul\":3124:3148   */\n  tag_36\n  jump\t// in\ntag_58:\n    /* \"#utility.yul\":3117:3122   */\n  dup2\n    /* \"#utility.yul\":3114:3149   */\n  eq\n    /* \"#utility.yul\":3104:3106   */\n  tag_59\n  jumpi\n    /* \"#utility.yul\":3163:3164   */\n  0x00\n    /* \"#utility.yul\":3160:3161   */\n  dup1\n    /* \"#utility.yul\":3153:3165   */\n  revert\n    /* \"#utility.yul\":3104:3106   */\ntag_59:\n    /* \"#utility.yul\":3094:3173   */\n  pop\n  jump\t// out\n    /* \"#utility.yul\":3179:3301   */\ntag_21:\n    /* \"#utility.yul\":3252:3276   */\n  tag_61\n    /* \"#utility.yul\":3270:3275   */\n  dup2\n    /* \"#utility.yul\":3252:3276   */\n  tag_40\n  jump\t// in\ntag_61:\n    /* \"#utility.yul\":3245:3250   */\n  dup2\n    /* \"#utility.yul\":3242:3277   */\n  eq\n    /* \"#utility.yul\":3232:3234   */\n  tag_62\n  jumpi\n    /* \"#utility.yul\":3291:3292   */\n  0x00\n    /* \"#utility.yul\":3288:3289   */\n  dup1\n    /* \"#utility.yul\":3281:3293   */\n  revert\n    /* \"#utility.yul\":3232:3234   */\ntag_62:\n    /* \"#utility.yul\":3222:3301   */\n  pop\n  jump\t// out\n    /* \"PCR.sol\":157:3436  contract PCR {... */\ntag_8:\n  dataSize(sub_0)\n  dup1\n  dataOffset(sub_0)\n  0x00\n  codecopy\n  0x00\n  return\nstop\n\nsub_0: assembly {\n        /* \"PCR.sol\":157:3436  contract PCR {... */\n      mstore(0x40, 0x80)\n      callvalue\n      dup1\n      iszero\n      tag_1\n      jumpi\n      0x00\n      dup1\n      revert\n    tag_1:\n      pop\n      jumpi(tag_2, lt(calldatasize, 0x04))\n      shr(0xe0, calldataload(0x00))\n      dup1\n      0x01a61b5c\n      eq\n      tag_3\n      jumpi\n      dup1\n      0x34b1794c\n      eq\n      tag_4\n      jumpi\n      dup1\n      0x5d1ca631\n      eq\n      tag_5\n      jumpi\n      dup1\n      0x9499e018\n      eq\n      tag_6\n      jumpi\n      dup1\n      0x97fccd59\n      eq\n      tag_7\n      jumpi\n    tag_2:\n      0x00\n      dup1\n      revert\n        /* \"PCR.sol\":2229:2850  function getPCRData(bytes32 _idInsurance, bytes32 _id) external view returns(... */\n    tag_3:\n      tag_8\n      0x04\n      dup1\n      calldatasize\n      sub\n      dup2\n      add\n      swap1\n      tag_9\n      swap2\n      swap1\n      tag_10\n      jump\t// in\n    tag_9:\n      tag_11\n      jump\t// in\n    tag_8:\n      mload(0x40)\n      tag_12\n      swap8\n      swap7\n      swap6\n      swap5\n      swap4\n      swap3\n      swap2\n      swap1\n      tag_13\n      jump\t// in\n    tag_12:\n      mload(0x40)\n      dup1\n      swap2\n      sub\n      swap1\n      return\n        /* \"PCR.sol\":3121:3217  function deletePCR() notDeleted external {... */\n    tag_4:\n      tag_14\n      tag_15\n      jump\t// in\n    tag_14:\n      stop\n        /* \"PCR.sol\":2897:2993  function getId() external view notDeleted returns(bytes32 id) {... */\n    tag_5:\n      tag_16\n      tag_17\n      jump\t// in\n    tag_16:\n      mload(0x40)\n      tag_18\n      swap2\n      swap1\n      tag_19\n      jump\t// in\n    tag_18:\n      mload(0x40)\n      dup1\n      swap2\n      sub\n      swap1\n      return\n        /* \"PCR.sol\":3323:3434  function destructContract() external {... */\n    tag_6:\n      tag_20\n      tag_21\n      jump\t// in\n    tag_20:\n      stop\n        /* \"PCR.sol\":1631:2189  function updatePCR(bytes32 _result, uint256 _resultDate, bytes32 _insuranceId, bytes32 _pcrId) external notDeleted ... */\n    tag_7:\n      tag_22\n      0x04\n      dup1\n      calldatasize\n      sub\n      dup2\n      add\n      swap1\n      tag_23\n      swap2\n      swap1\n      tag_24\n      jump\t// in\n    tag_23:\n      tag_25\n      jump\t// in\n    tag_22:\n      stop\n        /* \"PCR.sol\":2229:2850  function getPCRData(bytes32 _idInsurance, bytes32 _id) external view returns(... */\n    tag_11:\n        /* \"PCR.sol\":2315:2329  bytes32 result */\n      0x00\n        /* \"PCR.sol\":2340:2358  bytes32 customerId */\n      dup1\n        /* \"PCR.sol\":2369:2388  uint256 requestDate */\n      0x00\n        /* \"PCR.sol\":2399:2417  uint256 resultDate */\n      dup1\n        /* \"PCR.sol\":2428:2438  bytes32 id */\n      0x00\n        /* \"PCR.sol\":2448:2474  address pcrContractAddress */\n      dup1\n        /* \"PCR.sol\":2484:2503  bytes32 insuranceId */\n      0x00\n        /* \"PCR.sol\":2551:2563  _idInsurance */\n      dup9\n        /* \"PCR.sol\":2528:2535  pcrData */\n      0x01\n        /* \"PCR.sol\":2528:2547  pcrData.insuranceId */\n      0x00\n      add\n      sload\n        /* \"PCR.sol\":2528:2563  pcrData.insuranceId == _idInsurance */\n      eq\n        /* \"PCR.sol\":2520:2617  require(pcrData.insuranceId == _idInsurance, \"La id de la poliza no coincide con la introducida\") */\n      tag_27\n      jumpi\n      mload(0x40)\n      0x08c379a000000000000000000000000000000000000000000000000000000000\n      dup2\n      mstore\n      0x04\n      add\n      tag_28\n      swap1\n      tag_29\n      jump\t// in\n    tag_28:\n      mload(0x40)\n      dup1\n      swap2\n      sub\n      swap1\n      revert\n    tag_27:\n        /* \"PCR.sol\":2649:2652  _id */\n      dup8\n        /* \"PCR.sol\":2635:2642  pcrData */\n      0x01\n        /* \"PCR.sol\":2635:2645  pcrData.id */\n      0x02\n      add\n      sload\n        /* \"PCR.sol\":2635:2652  pcrData.id == _id */\n      eq\n        /* \"PCR.sol\":2627:2703  require(pcrData.id == _id, \"La id de la PCR no coincide con la introducida\") */\n      tag_30\n      jumpi\n      mload(0x40)\n      0x08c379a000000000000000000000000000000000000000000000000000000000\n      dup2\n      mstore\n      0x04\n      add\n      tag_31\n      swap1\n      tag_32\n      jump\t// in\n    tag_31:\n      mload(0x40)\n      dup1\n      swap2\n      sub\n      swap1\n      revert\n    tag_30:\n        /* \"PCR.sol\":2721:2728  pcrData */\n      0x01\n        /* \"PCR.sol\":2721:2735  pcrData.result */\n      dup1\n      add\n      sload\n        /* \"PCR.sol\":2737:2744  pcrData */\n      0x01\n        /* \"PCR.sol\":2737:2754  pcrData.insuredId */\n      0x03\n      add\n      sload\n        /* \"PCR.sol\":2756:2763  pcrData */\n      0x01\n        /* \"PCR.sol\":2756:2775  pcrData.requestDate */\n      0x04\n      add\n      sload\n        /* \"PCR.sol\":2777:2784  pcrData */\n      0x01\n        /* \"PCR.sol\":2777:2795  pcrData.resultDate */\n      0x05\n      add\n      sload\n        /* \"PCR.sol\":2797:2804  pcrData */\n      0x01\n        /* \"PCR.sol\":2797:2807  pcrData.id */\n      0x02\n      add\n      sload\n        /* \"PCR.sol\":2817:2821  this */\n      address\n        /* \"PCR.sol\":2823:2830  pcrData */\n      0x01\n        /* \"PCR.sol\":2823:2842  pcrData.insuranceId */\n      0x00\n      add\n      sload\n        /* \"PCR.sol\":2713:2843  return (pcrData.result, pcrData.insuredId, pcrData.requestDate, pcrData.resultDate, pcrData.id, address(this),pcrData.insuranceId) */\n      swap7\n      pop\n      swap7\n      pop\n      swap7\n      pop\n      swap7\n      pop\n      swap7\n      pop\n      swap7\n      pop\n      swap7\n      pop\n        /* \"PCR.sol\":2229:2850  function getPCRData(bytes32 _idInsurance, bytes32 _id) external view returns(... */\n      swap3\n      swap6\n      swap9\n      swap2\n      swap5\n      swap8\n      pop\n      swap3\n      swap6\n      pop\n      jump\t// out\n        /* \"PCR.sol\":3121:3217  function deletePCR() notDeleted external {... */\n    tag_15:\n        /* \"PCR.sol\":854:861  deleted */\n      0x00\n      0x15\n      swap1\n      sload\n      swap1\n      0x0100\n      exp\n      swap1\n      div\n      0xff\n      and\n        /* \"PCR.sol\":853:861  !deleted */\n      iszero\n        /* \"PCR.sol\":845:892  require(!deleted, \"This PCR has been deleted.\") */\n      tag_34\n      jumpi\n      mload(0x40)\n      0x08c379a000000000000000000000000000000000000000000000000000000000\n      dup2\n      mstore\n      0x04\n      add\n      tag_35\n      swap1\n      tag_36\n      jump\t// in\n    tag_35:\n      mload(0x40)\n      dup1\n      swap2\n      sub\n      swap1\n      revert\n    tag_34:\n        /* \"PCR.sol\":3182:3186  true */\n      0x01\n        /* \"PCR.sol\":3172:3179  deleted */\n      0x00\n      0x15\n        /* \"PCR.sol\":3172:3186  deleted = true */\n      0x0100\n      exp\n      dup2\n      sload\n      dup2\n      0xff\n      mul\n      not\n      and\n      swap1\n      dup4\n      iszero\n      iszero\n      mul\n      or\n      swap1\n      sstore\n      pop\n        /* \"PCR.sol\":3203:3210  pcrData */\n      0x01\n      0x00\n        /* \"PCR.sol\":3196:3210  delete pcrData */\n      dup1\n      dup3\n      add\n      0x00\n      swap1\n      sstore\n      0x01\n      dup3\n      add\n      0x00\n      swap1\n      sstore\n      0x02\n      dup3\n      add\n      0x00\n      swap1\n      sstore\n      0x03\n      dup3\n      add\n      0x00\n      swap1\n      sstore\n      0x04\n      dup3\n      add\n      0x00\n      swap1\n      sstore\n      0x05\n      dup3\n      add\n      0x00\n      swap1\n      sstore\n      0x06\n      dup3\n      add\n      exp(0x0100, 0x00)\n      dup2\n      sload\n      swap1\n      0xffffffffffffffffffffffffffffffffffffffff\n      mul\n      not\n      and\n      swap1\n      sstore\n      pop\n      pop\n        /* \"PCR.sol\":3121:3217  function deletePCR() notDeleted external {... */\n      jump\t// out\n        /* \"PCR.sol\":2897:2993  function getId() external view notDeleted returns(bytes32 id) {... */\n    tag_17:\n        /* \"PCR.sol\":2947:2957  bytes32 id */\n      0x00\n        /* \"PCR.sol\":854:861  deleted */\n      dup1\n      0x15\n      swap1\n      sload\n      swap1\n      0x0100\n      exp\n      swap1\n      div\n      0xff\n      and\n        /* \"PCR.sol\":853:861  !deleted */\n      iszero\n        /* \"PCR.sol\":845:892  require(!deleted, \"This PCR has been deleted.\") */\n      tag_39\n      jumpi\n      mload(0x40)\n      0x08c379a000000000000000000000000000000000000000000000000000000000\n      dup2\n      mstore\n      0x04\n      add\n      tag_40\n      swap1\n      tag_36\n      jump\t// in\n    tag_40:\n      mload(0x40)\n      dup1\n      swap2\n      sub\n      swap1\n      revert\n    tag_39:\n        /* \"PCR.sol\":2976:2983  pcrData */\n      0x01\n        /* \"PCR.sol\":2976:2986  pcrData.id */\n      0x02\n      add\n      sload\n        /* \"PCR.sol\":2969:2986  return pcrData.id */\n      swap1\n      pop\n        /* \"PCR.sol\":2897:2993  function getId() external view notDeleted returns(bytes32 id) {... */\n      swap1\n      jump\t// out\n        /* \"PCR.sol\":3323:3434  function destructContract() external {... */\n    tag_21:\n        /* \"PCR.sol\":3392:3397  owner */\n      0x00\n      dup1\n      sload\n      swap1\n      0x0100\n      exp\n      swap1\n      div\n      0xffffffffffffffffffffffffffffffffffffffff\n      and\n        /* \"PCR.sol\":3378:3397  msg.sender == owner */\n      0xffffffffffffffffffffffffffffffffffffffff\n      and\n        /* \"PCR.sol\":3378:3388  msg.sender */\n      caller\n        /* \"PCR.sol\":3378:3397  msg.sender == owner */\n      0xffffffffffffffffffffffffffffffffffffffff\n      and\n      eq\n        /* \"PCR.sol\":3370:3398  require(msg.sender == owner) */\n      tag_43\n      jumpi\n      0x00\n      dup1\n      revert\n    tag_43:\n        /* \"PCR.sol\":3421:3426  owner */\n      0x00\n      dup1\n      sload\n      swap1\n      0x0100\n      exp\n      swap1\n      div\n      0xffffffffffffffffffffffffffffffffffffffff\n      and\n        /* \"PCR.sol\":3408:3427  selfdestruct(owner) */\n      0xffffffffffffffffffffffffffffffffffffffff\n      and\n      selfdestruct\n        /* \"PCR.sol\":1631:2189  function updatePCR(bytes32 _result, uint256 _resultDate, bytes32 _insuranceId, bytes32 _pcrId) external notDeleted ... */\n    tag_25:\n        /* \"PCR.sol\":854:861  deleted */\n      0x00\n      0x15\n      swap1\n      sload\n      swap1\n      0x0100\n      exp\n      swap1\n      div\n      0xff\n      and\n        /* \"PCR.sol\":853:861  !deleted */\n      iszero\n        /* \"PCR.sol\":845:892  require(!deleted, \"This PCR has been deleted.\") */\n      tag_45\n      jumpi\n      mload(0x40)\n      0x08c379a000000000000000000000000000000000000000000000000000000000\n      dup2\n      mstore\n      0x04\n      add\n      tag_46\n      swap1\n      tag_36\n      jump\t// in\n    tag_46:\n      mload(0x40)\n      dup1\n      swap2\n      sub\n      swap1\n      revert\n    tag_45:\n        /* \"PCR.sol\":1770:1779  completed */\n      0x00\n      0x14\n      swap1\n      sload\n      swap1\n      0x0100\n      exp\n      swap1\n      div\n      0xff\n      and\n        /* \"PCR.sol\":1769:1779  !completed */\n      iszero\n        /* \"PCR.sol\":1761:1809  require(!completed, \"PCRs can only Update once\") */\n      tag_48\n      jumpi\n      mload(0x40)\n      0x08c379a000000000000000000000000000000000000000000000000000000000\n      dup2\n      mstore\n      0x04\n      add\n      tag_49\n      swap1\n      tag_50\n      jump\t// in\n    tag_49:\n      mload(0x40)\n      dup1\n      swap2\n      sub\n      swap1\n      revert\n    tag_48:\n        /* \"PCR.sol\":1843:1850  pcrData */\n      0x01\n        /* \"PCR.sol\":1843:1862  pcrData.insuranceId */\n      0x00\n      add\n      sload\n        /* \"PCR.sol\":1827:1839  _insuranceId */\n      dup3\n        /* \"PCR.sol\":1827:1862  _insuranceId == pcrData.insuranceId */\n      eq\n        /* \"PCR.sol\":1827:1886  _insuranceId == pcrData.insuranceId && _pcrId == pcrData.id */\n      dup1\n      iszero\n      tag_51\n      jumpi\n      pop\n        /* \"PCR.sol\":1876:1883  pcrData */\n      0x01\n        /* \"PCR.sol\":1876:1886  pcrData.id */\n      0x02\n      add\n      sload\n        /* \"PCR.sol\":1866:1872  _pcrId */\n      dup2\n        /* \"PCR.sol\":1866:1886  _pcrId == pcrData.id */\n      eq\n        /* \"PCR.sol\":1827:1886  _insuranceId == pcrData.insuranceId && _pcrId == pcrData.id */\n    tag_51:\n        /* \"PCR.sol\":1819:1961  require(_insuranceId == pcrData.insuranceId && _pcrId == pcrData.id, \"Insurance and PCR ids have to be the same as the ones in this contract\") */\n      tag_52\n      jumpi\n      mload(0x40)\n      0x08c379a000000000000000000000000000000000000000000000000000000000\n      dup2\n      mstore\n      0x04\n      add\n      tag_53\n      swap1\n      tag_54\n      jump\t// in\n    tag_53:\n      mload(0x40)\n      dup1\n      swap2\n      sub\n      swap1\n      revert\n    tag_52:\n        /* \"PCR.sol\":1983:1987  true */\n      0x01\n        /* \"PCR.sol\":1971:1980  completed */\n      0x00\n      0x14\n        /* \"PCR.sol\":1971:1987  completed = true */\n      0x0100\n      exp\n      dup2\n      sload\n      dup2\n      0xff\n      mul\n      not\n      and\n      swap1\n      dup4\n      iszero\n      iszero\n      mul\n      or\n      swap1\n      sstore\n      pop\n        /* \"PCR.sol\":2014:2021  _result */\n      dup4\n        /* \"PCR.sol\":1997:2004  pcrData */\n      0x01\n        /* \"PCR.sol\":1997:2011  pcrData.result */\n      dup1\n      add\n        /* \"PCR.sol\":1997:2021  pcrData.result = _result */\n      dup2\n      swap1\n      sstore\n      pop\n        /* \"PCR.sol\":2052:2063  _resultDate */\n      dup3\n        /* \"PCR.sol\":2031:2038  pcrData */\n      0x01\n        /* \"PCR.sol\":2031:2049  pcrData.resultDate */\n      0x05\n      add\n        /* \"PCR.sol\":2031:2063  pcrData.resultDate = _resultDate */\n      dup2\n      swap1\n      sstore\n      pop\n        /* \"PCR.sol\":2078:2182  pcrUpdate(pcrData.insuranceId, pcrData.id, pcrData.result, pcrData.resultDate, pcrData.insuranceAddress) */\n      0x019180bd50566344afb9366ec620a67ef53b5838de32e3c1564aa5e90125b740\n        /* \"PCR.sol\":2088:2095  pcrData */\n      0x01\n        /* \"PCR.sol\":2088:2107  pcrData.insuranceId */\n      0x00\n      add\n      sload\n        /* \"PCR.sol\":2109:2116  pcrData */\n      0x01\n        /* \"PCR.sol\":2109:2119  pcrData.id */\n      0x02\n      add\n      sload\n        /* \"PCR.sol\":2121:2128  pcrData */\n      0x01\n        /* \"PCR.sol\":2121:2135  pcrData.result */\n      dup1\n      add\n      sload\n        /* \"PCR.sol\":2137:2144  pcrData */\n      0x01\n        /* \"PCR.sol\":2137:2155  pcrData.resultDate */\n      0x05\n      add\n      sload\n        /* \"PCR.sol\":2157:2164  pcrData */\n      0x01\n        /* \"PCR.sol\":2157:2181  pcrData.insuranceAddress */\n      0x06\n      add\n      0x00\n      swap1\n      sload\n      swap1\n      0x0100\n      exp\n      swap1\n      div\n      0xffffffffffffffffffffffffffffffffffffffff\n      and\n        /* \"PCR.sol\":2078:2182  pcrUpdate(pcrData.insuranceId, pcrData.id, pcrData.result, pcrData.resultDate, pcrData.insuranceAddress) */\n      mload(0x40)\n      tag_55\n      swap6\n      swap5\n      swap4\n      swap3\n      swap2\n      swap1\n      tag_56\n      jump\t// in\n    tag_55:\n      mload(0x40)\n      dup1\n      swap2\n      sub\n      swap1\n      log1\n        /* \"PCR.sol\":1631:2189  function updatePCR(bytes32 _result, uint256 _resultDate, bytes32 _insuranceId, bytes32 _pcrId) external notDeleted ... */\n      pop\n      pop\n      pop\n      pop\n      jump\t// out\n        /* \"#utility.yul\":7:146   */\n    tag_58:\n      0x00\n        /* \"#utility.yul\":91:97   */\n      dup2\n        /* \"#utility.yul\":78:98   */\n      calldataload\n        /* \"#utility.yul\":69:98   */\n      swap1\n      pop\n        /* \"#utility.yul\":107:140   */\n      tag_60\n        /* \"#utility.yul\":134:139   */\n      dup2\n        /* \"#utility.yul\":107:140   */\n      tag_61\n      jump\t// in\n    tag_60:\n        /* \"#utility.yul\":59:146   */\n      swap3\n      swap2\n      pop\n      pop\n      jump\t// out\n        /* \"#utility.yul\":152:291   */\n    tag_62:\n      0x00\n        /* \"#utility.yul\":236:242   */\n      dup2\n        /* \"#utility.yul\":223:243   */\n      calldataload\n        /* \"#utility.yul\":214:243   */\n      swap1\n      pop\n        /* \"#utility.yul\":252:285   */\n      tag_64\n        /* \"#utility.yul\":279:284   */\n      dup2\n        /* \"#utility.yul\":252:285   */\n      tag_65\n      jump\t// in\n    tag_64:\n        /* \"#utility.yul\":204:291   */\n      swap3\n      swap2\n      pop\n      pop\n      jump\t// out\n        /* \"#utility.yul\":297:704   */\n    tag_10:\n      0x00\n      dup1\n        /* \"#utility.yul\":422:424   */\n      0x40\n        /* \"#utility.yul\":410:419   */\n      dup4\n        /* \"#utility.yul\":401:408   */\n      dup6\n        /* \"#utility.yul\":397:420   */\n      sub\n        /* \"#utility.yul\":393:425   */\n      slt\n        /* \"#utility.yul\":390:392   */\n      iszero\n      tag_67\n      jumpi\n        /* \"#utility.yul\":438:439   */\n      0x00\n        /* \"#utility.yul\":435:436   */\n      dup1\n        /* \"#utility.yul\":428:440   */\n      revert\n        /* \"#utility.yul\":390:392   */\n    tag_67:\n        /* \"#utility.yul\":481:482   */\n      0x00\n        /* \"#utility.yul\":506:559   */\n      tag_68\n        /* \"#utility.yul\":551:558   */\n      dup6\n        /* \"#utility.yul\":542:548   */\n      dup3\n        /* \"#utility.yul\":531:540   */\n      dup7\n        /* \"#utility.yul\":527:549   */\n      add\n        /* \"#utility.yul\":506:559   */\n      tag_58\n      jump\t// in\n    tag_68:\n        /* \"#utility.yul\":496:559   */\n      swap3\n      pop\n        /* \"#utility.yul\":452:569   */\n      pop\n        /* \"#utility.yul\":608:610   */\n      0x20\n        /* \"#utility.yul\":634:687   */\n      tag_69\n        /* \"#utility.yul\":679:686   */\n      dup6\n        /* \"#utility.yul\":670:676   */\n      dup3\n        /* \"#utility.yul\":659:668   */\n      dup7\n        /* \"#utility.yul\":655:677   */\n      add\n        /* \"#utility.yul\":634:687   */\n      tag_58\n      jump\t// in\n    tag_69:\n        /* \"#utility.yul\":624:687   */\n      swap2\n      pop\n        /* \"#utility.yul\":579:697   */\n      pop\n        /* \"#utility.yul\":380:704   */\n      swap3\n      pop\n      swap3\n      swap1\n      pop\n      jump\t// out\n        /* \"#utility.yul\":710:1408   */\n    tag_24:\n      0x00\n      dup1\n      0x00\n      dup1\n        /* \"#utility.yul\":869:872   */\n      0x80\n        /* \"#utility.yul\":857:866   */\n      dup6\n        /* \"#utility.yul\":848:855   */\n      dup8\n        /* \"#utility.yul\":844:867   */\n      sub\n        /* \"#utility.yul\":840:873   */\n      slt\n        /* \"#utility.yul\":837:839   */\n      iszero\n      tag_71\n      jumpi\n        /* \"#utility.yul\":886:887   */\n      0x00\n        /* \"#utility.yul\":883:884   */\n      dup1\n        /* \"#utility.yul\":876:888   */\n      revert\n        /* \"#utility.yul\":837:839   */\n    tag_71:\n        /* \"#utility.yul\":929:930   */\n      0x00\n        /* \"#utility.yul\":954:1007   */\n      tag_72\n        /* \"#utility.yul\":999:1006   */\n      dup8\n        /* \"#utility.yul\":990:996   */\n      dup3\n        /* \"#utility.yul\":979:988   */\n      dup9\n        /* \"#utility.yul\":975:997   */\n      add\n        /* \"#utility.yul\":954:1007   */\n      tag_58\n      jump\t// in\n    tag_72:\n        /* \"#utility.yul\":944:1007   */\n      swap5\n      pop\n        /* \"#utility.yul\":900:1017   */\n      pop\n        /* \"#utility.yul\":1056:1058   */\n      0x20\n        /* \"#utility.yul\":1082:1135   */\n      tag_73\n        /* \"#utility.yul\":1127:1134   */\n      dup8\n        /* \"#utility.yul\":1118:1124   */\n      dup3\n        /* \"#utility.yul\":1107:1116   */\n      dup9\n        /* \"#utility.yul\":1103:1125   */\n      add\n        /* \"#utility.yul\":1082:1135   */\n      tag_62\n      jump\t// in\n    tag_73:\n        /* \"#utility.yul\":1072:1135   */\n      swap4\n      pop\n        /* \"#utility.yul\":1027:1145   */\n      pop\n        /* \"#utility.yul\":1184:1186   */\n      0x40\n        /* \"#utility.yul\":1210:1263   */\n      tag_74\n        /* \"#utility.yul\":1255:1262   */\n      dup8\n        /* \"#utility.yul\":1246:1252   */\n      dup3\n        /* \"#utility.yul\":1235:1244   */\n      dup9\n        /* \"#utility.yul\":1231:1253   */\n      add\n        /* \"#utility.yul\":1210:1263   */\n      tag_58\n      jump\t// in\n    tag_74:\n        /* \"#utility.yul\":1200:1263   */\n      swap3\n      pop\n        /* \"#utility.yul\":1155:1273   */\n      pop\n        /* \"#utility.yul\":1312:1314   */\n      0x60\n        /* \"#utility.yul\":1338:1391   */\n      tag_75\n        /* \"#utility.yul\":1383:1390   */\n      dup8\n        /* \"#utility.yul\":1374:1380   */\n      dup3\n        /* \"#utility.yul\":1363:1372   */\n      dup9\n        /* \"#utility.yul\":1359:1381   */\n      add\n        /* \"#utility.yul\":1338:1391   */\n      tag_58\n      jump\t// in\n    tag_75:\n        /* \"#utility.yul\":1328:1391   */\n      swap2\n      pop\n        /* \"#utility.yul\":1283:1401   */\n      pop\n        /* \"#utility.yul\":827:1408   */\n      swap3\n      swap6\n      swap2\n      swap5\n      pop\n      swap3\n      pop\n      jump\t// out\n        /* \"#utility.yul\":1414:1532   */\n    tag_76:\n        /* \"#utility.yul\":1501:1525   */\n      tag_78\n        /* \"#utility.yul\":1519:1524   */\n      dup2\n        /* \"#utility.yul\":1501:1525   */\n      tag_79\n      jump\t// in\n    tag_78:\n        /* \"#utility.yul\":1496:1499   */\n      dup3\n        /* \"#utility.yul\":1489:1526   */\n      mstore\n        /* \"#utility.yul\":1479:1532   */\n      pop\n      pop\n      jump\t// out\n        /* \"#utility.yul\":1538:1656   */\n    tag_80:\n        /* \"#utility.yul\":1625:1649   */\n      tag_82\n        /* \"#utility.yul\":1643:1648   */\n      dup2\n        /* \"#utility.yul\":1625:1649   */\n      tag_83\n      jump\t// in\n    tag_82:\n        /* \"#utility.yul\":1620:1623   */\n      dup3\n        /* \"#utility.yul\":1613:1650   */\n      mstore\n        /* \"#utility.yul\":1603:1656   */\n      pop\n      pop\n      jump\t// out\n        /* \"#utility.yul\":1662:2028   */\n    tag_84:\n      0x00\n        /* \"#utility.yul\":1825:1892   */\n      tag_86\n        /* \"#utility.yul\":1889:1891   */\n      0x2e\n        /* \"#utility.yul\":1884:1887   */\n      dup4\n        /* \"#utility.yul\":1825:1892   */\n      tag_87\n      jump\t// in\n    tag_86:\n        /* \"#utility.yul\":1818:1892   */\n      swap2\n      pop\n        /* \"#utility.yul\":1901:1994   */\n      tag_88\n        /* \"#utility.yul\":1990:1993   */\n      dup3\n        /* \"#utility.yul\":1901:1994   */\n      tag_89\n      jump\t// in\n    tag_88:\n        /* \"#utility.yul\":2019:2021   */\n      0x40\n        /* \"#utility.yul\":2014:2017   */\n      dup3\n        /* \"#utility.yul\":2010:2022   */\n      add\n        /* \"#utility.yul\":2003:2022   */\n      swap1\n      pop\n        /* \"#utility.yul\":1808:2028   */\n      swap2\n      swap1\n      pop\n      jump\t// out\n        /* \"#utility.yul\":2034:2400   */\n    tag_90:\n      0x00\n        /* \"#utility.yul\":2197:2264   */\n      tag_92\n        /* \"#utility.yul\":2261:2263   */\n      0x1a\n        /* \"#utility.yul\":2256:2259   */\n      dup4\n        /* \"#utility.yul\":2197:2264   */\n      tag_87\n      jump\t// in\n    tag_92:\n        /* \"#utility.yul\":2190:2264   */\n      swap2\n      pop\n        /* \"#utility.yul\":2273:2366   */\n      tag_93\n        /* \"#utility.yul\":2362:2365   */\n      dup3\n        /* \"#utility.yul\":2273:2366   */\n      tag_94\n      jump\t// in\n    tag_93:\n        /* \"#utility.yul\":2391:2393   */\n      0x20\n        /* \"#utility.yul\":2386:2389   */\n      dup3\n        /* \"#utility.yul\":2382:2394   */\n      add\n        /* \"#utility.yul\":2375:2394   */\n      swap1\n      pop\n        /* \"#utility.yul\":2180:2400   */\n      swap2\n      swap1\n      pop\n      jump\t// out\n        /* \"#utility.yul\":2406:2772   */\n    tag_95:\n      0x00\n        /* \"#utility.yul\":2569:2636   */\n      tag_97\n        /* \"#utility.yul\":2633:2635   */\n      0x31\n        /* \"#utility.yul\":2628:2631   */\n      dup4\n        /* \"#utility.yul\":2569:2636   */\n      tag_87\n      jump\t// in\n    tag_97:\n        /* \"#utility.yul\":2562:2636   */\n      swap2\n      pop\n        /* \"#utility.yul\":2645:2738   */\n      tag_98\n        /* \"#utility.yul\":2734:2737   */\n      dup3\n        /* \"#utility.yul\":2645:2738   */\n      tag_99\n      jump\t// in\n    tag_98:\n        /* \"#utility.yul\":2763:2765   */\n      0x40\n        /* \"#utility.yul\":2758:2761   */\n      dup3\n        /* \"#utility.yul\":2754:2766   */\n      add\n        /* \"#utility.yul\":2747:2766   */\n      swap1\n      pop\n        /* \"#utility.yul\":2552:2772   */\n      swap2\n      swap1\n      pop\n      jump\t// out\n        /* \"#utility.yul\":2778:3144   */\n    tag_100:\n      0x00\n        /* \"#utility.yul\":2941:3008   */\n      tag_102\n        /* \"#utility.yul\":3005:3007   */\n      0x19\n        /* \"#utility.yul\":3000:3003   */\n      dup4\n        /* \"#utility.yul\":2941:3008   */\n      tag_87\n      jump\t// in\n    tag_102:\n        /* \"#utility.yul\":2934:3008   */\n      swap2\n      pop\n        /* \"#utility.yul\":3017:3110   */\n      tag_103\n        /* \"#utility.yul\":3106:3109   */\n      dup3\n        /* \"#utility.yul\":3017:3110   */\n      tag_104\n      jump\t// in\n    tag_103:\n        /* \"#utility.yul\":3135:3137   */\n      0x20\n        /* \"#utility.yul\":3130:3133   */\n      dup3\n        /* \"#utility.yul\":3126:3138   */\n      add\n        /* \"#utility.yul\":3119:3138   */\n      swap1\n      pop\n        /* \"#utility.yul\":2924:3144   */\n      swap2\n      swap1\n      pop\n      jump\t// out\n        /* \"#utility.yul\":3150:3516   */\n    tag_105:\n      0x00\n        /* \"#utility.yul\":3313:3380   */\n      tag_107\n        /* \"#utility.yul\":3377:3379   */\n      0x46\n        /* \"#utility.yul\":3372:3375   */\n      dup4\n        /* \"#utility.yul\":3313:3380   */\n      tag_87\n      jump\t// in\n    tag_107:\n        /* \"#utility.yul\":3306:3380   */\n      swap2\n      pop\n        /* \"#utility.yul\":3389:3482   */\n      tag_108\n        /* \"#utility.yul\":3478:3481   */\n      dup3\n        /* \"#utility.yul\":3389:3482   */\n      tag_109\n      jump\t// in\n    tag_108:\n        /* \"#utility.yul\":3507:3509   */\n      0x60\n        /* \"#utility.yul\":3502:3505   */\n      dup3\n        /* \"#utility.yul\":3498:3510   */\n      add\n        /* \"#utility.yul\":3491:3510   */\n      swap1\n      pop\n        /* \"#utility.yul\":3296:3516   */\n      swap2\n      swap1\n      pop\n      jump\t// out\n        /* \"#utility.yul\":3522:3640   */\n    tag_110:\n        /* \"#utility.yul\":3609:3633   */\n      tag_112\n        /* \"#utility.yul\":3627:3632   */\n      dup2\n        /* \"#utility.yul\":3609:3633   */\n      tag_113\n      jump\t// in\n    tag_112:\n        /* \"#utility.yul\":3604:3607   */\n      dup3\n        /* \"#utility.yul\":3597:3634   */\n      mstore\n        /* \"#utility.yul\":3587:3640   */\n      pop\n      pop\n      jump\t// out\n        /* \"#utility.yul\":3646:3868   */\n    tag_19:\n      0x00\n        /* \"#utility.yul\":3777:3779   */\n      0x20\n        /* \"#utility.yul\":3766:3775   */\n      dup3\n        /* \"#utility.yul\":3762:3780   */\n      add\n        /* \"#utility.yul\":3754:3780   */\n      swap1\n      pop\n        /* \"#utility.yul\":3790:3861   */\n      tag_115\n        /* \"#utility.yul\":3858:3859   */\n      0x00\n        /* \"#utility.yul\":3847:3856   */\n      dup4\n        /* \"#utility.yul\":3843:3860   */\n      add\n        /* \"#utility.yul\":3834:3840   */\n      dup5\n        /* \"#utility.yul\":3790:3861   */\n      tag_80\n      jump\t// in\n    tag_115:\n        /* \"#utility.yul\":3744:3868   */\n      swap3\n      swap2\n      pop\n      pop\n      jump\t// out\n        /* \"#utility.yul\":3874:4538   */\n    tag_56:\n      0x00\n        /* \"#utility.yul\":4117:4120   */\n      0xa0\n        /* \"#utility.yul\":4106:4115   */\n      dup3\n        /* \"#utility.yul\":4102:4121   */\n      add\n        /* \"#utility.yul\":4094:4121   */\n      swap1\n      pop\n        /* \"#utility.yul\":4131:4202   */\n      tag_117\n        /* \"#utility.yul\":4199:4200   */\n      0x00\n        /* \"#utility.yul\":4188:4197   */\n      dup4\n        /* \"#utility.yul\":4184:4201   */\n      add\n        /* \"#utility.yul\":4175:4181   */\n      dup9\n        /* \"#utility.yul\":4131:4202   */\n      tag_80\n      jump\t// in\n    tag_117:\n        /* \"#utility.yul\":4212:4284   */\n      tag_118\n        /* \"#utility.yul\":4280:4282   */\n      0x20\n        /* \"#utility.yul\":4269:4278   */\n      dup4\n        /* \"#utility.yul\":4265:4283   */\n      add\n        /* \"#utility.yul\":4256:4262   */\n      dup8\n        /* \"#utility.yul\":4212:4284   */\n      tag_80\n      jump\t// in\n    tag_118:\n        /* \"#utility.yul\":4294:4366   */\n      tag_119\n        /* \"#utility.yul\":4362:4364   */\n      0x40\n        /* \"#utility.yul\":4351:4360   */\n      dup4\n        /* \"#utility.yul\":4347:4365   */\n      add\n        /* \"#utility.yul\":4338:4344   */\n      dup7\n        /* \"#utility.yul\":4294:4366   */\n      tag_80\n      jump\t// in\n    tag_119:\n        /* \"#utility.yul\":4376:4448   */\n      tag_120\n        /* \"#utility.yul\":4444:4446   */\n      0x60\n        /* \"#utility.yul\":4433:4442   */\n      dup4\n        /* \"#utility.yul\":4429:4447   */\n      add\n        /* \"#utility.yul\":4420:4426   */\n      dup6\n        /* \"#utility.yul\":4376:4448   */\n      tag_110\n      jump\t// in\n    tag_120:\n        /* \"#utility.yul\":4458:4531   */\n      tag_121\n        /* \"#utility.yul\":4526:4529   */\n      0x80\n        /* \"#utility.yul\":4515:4524   */\n      dup4\n        /* \"#utility.yul\":4511:4530   */\n      add\n        /* \"#utility.yul\":4502:4508   */\n      dup5\n        /* \"#utility.yul\":4458:4531   */\n      tag_76\n      jump\t// in\n    tag_121:\n        /* \"#utility.yul\":4084:4538   */\n      swap7\n      swap6\n      pop\n      pop\n      pop\n      pop\n      pop\n      pop\n      jump\t// out\n        /* \"#utility.yul\":4544:5430   */\n    tag_13:\n      0x00\n        /* \"#utility.yul\":4843:4846   */\n      0xe0\n        /* \"#utility.yul\":4832:4841   */\n      dup3\n        /* \"#utility.yul\":4828:4847   */\n      add\n        /* \"#utility.yul\":4820:4847   */\n      swap1\n      pop\n        /* \"#utility.yul\":4857:4928   */\n      tag_123\n        /* \"#utility.yul\":4925:4926   */\n      0x00\n        /* \"#utility.yul\":4914:4923   */\n      dup4\n        /* \"#utility.yul\":4910:4927   */\n      add\n        /* \"#utility.yul\":4901:4907   */\n      dup11\n        /* \"#utility.yul\":4857:4928   */\n      tag_80\n      jump\t// in\n    tag_123:\n        /* \"#utility.yul\":4938:5010   */\n      tag_124\n        /* \"#utility.yul\":5006:5008   */\n      0x20\n        /* \"#utility.yul\":4995:5004   */\n      dup4\n        /* \"#utility.yul\":4991:5009   */\n      add\n        /* \"#utility.yul\":4982:4988   */\n      dup10\n        /* \"#utility.yul\":4938:5010   */\n      tag_80\n      jump\t// in\n    tag_124:\n        /* \"#utility.yul\":5020:5092   */\n      tag_125\n        /* \"#utility.yul\":5088:5090   */\n      0x40\n        /* \"#utility.yul\":5077:5086   */\n      dup4\n        /* \"#utility.yul\":5073:5091   */\n      add\n        /* \"#utility.yul\":5064:5070   */\n      dup9\n        /* \"#utility.yul\":5020:5092   */\n      tag_110\n      jump\t// in\n    tag_125:\n        /* \"#utility.yul\":5102:5174   */\n      tag_126\n        /* \"#utility.yul\":5170:5172   */\n      0x60\n        /* \"#utility.yul\":5159:5168   */\n      dup4\n        /* \"#utility.yul\":5155:5173   */\n      add\n        /* \"#utility.yul\":5146:5152   */\n      dup8\n        /* \"#utility.yul\":5102:5174   */\n      tag_110\n      jump\t// in\n    tag_126:\n        /* \"#utility.yul\":5184:5257   */\n      tag_127\n        /* \"#utility.yul\":5252:5255   */\n      0x80\n        /* \"#utility.yul\":5241:5250   */\n      dup4\n        /* \"#utility.yul\":5237:5256   */\n      add\n        /* \"#utility.yul\":5228:5234   */\n      dup7\n        /* \"#utility.yul\":5184:5257   */\n      tag_80\n      jump\t// in\n    tag_127:\n        /* \"#utility.yul\":5267:5340   */\n      tag_128\n        /* \"#utility.yul\":5335:5338   */\n      0xa0\n        /* \"#utility.yul\":5324:5333   */\n      dup4\n        /* \"#utility.yul\":5320:5339   */\n      add\n        /* \"#utility.yul\":5311:5317   */\n      dup6\n        /* \"#utility.yul\":5267:5340   */\n      tag_76\n      jump\t// in\n    tag_128:\n        /* \"#utility.yul\":5350:5423   */\n      tag_129\n        /* \"#utility.yul\":5418:5421   */\n      0xc0\n        /* \"#utility.yul\":5407:5416   */\n      dup4\n        /* \"#utility.yul\":5403:5422   */\n      add\n        /* \"#utility.yul\":5394:5400   */\n      dup5\n        /* \"#utility.yul\":5350:5423   */\n      tag_80\n      jump\t// in\n    tag_129:\n        /* \"#utility.yul\":4810:5430   */\n      swap9\n      swap8\n      pop\n      pop\n      pop\n      pop\n      pop\n      pop\n      pop\n      pop\n      jump\t// out\n        /* \"#utility.yul\":5436:5855   */\n    tag_32:\n      0x00\n        /* \"#utility.yul\":5640:5642   */\n      0x20\n        /* \"#utility.yul\":5629:5638   */\n      dup3\n        /* \"#utility.yul\":5625:5643   */\n      add\n        /* \"#utility.yul\":5617:5643   */\n      swap1\n      pop\n        /* \"#utility.yul\":5689:5698   */\n      dup2\n        /* \"#utility.yul\":5683:5687   */\n      dup2\n        /* \"#utility.yul\":5679:5699   */\n      sub\n        /* \"#utility.yul\":5675:5676   */\n      0x00\n        /* \"#utility.yul\":5664:5673   */\n      dup4\n        /* \"#utility.yul\":5660:5677   */\n      add\n        /* \"#utility.yul\":5653:5700   */\n      mstore\n        /* \"#utility.yul\":5717:5848   */\n      tag_131\n        /* \"#utility.yul\":5843:5847   */\n      dup2\n        /* \"#utility.yul\":5717:5848   */\n      tag_84\n      jump\t// in\n    tag_131:\n        /* \"#utility.yul\":5709:5848   */\n      swap1\n      pop\n        /* \"#utility.yul\":5607:5855   */\n      swap2\n      swap1\n      pop\n      jump\t// out\n        /* \"#utility.yul\":5861:6280   */\n    tag_36:\n      0x00\n        /* \"#utility.yul\":6065:6067   */\n      0x20\n        /* \"#utility.yul\":6054:6063   */\n      dup3\n        /* \"#utility.yul\":6050:6068   */\n      add\n        /* \"#utility.yul\":6042:6068   */\n      swap1\n      pop\n        /* \"#utility.yul\":6114:6123   */\n      dup2\n        /* \"#utility.yul\":6108:6112   */\n      dup2\n        /* \"#utility.yul\":6104:6124   */\n      sub\n        /* \"#utility.yul\":6100:6101   */\n      0x00\n        /* \"#utility.yul\":6089:6098   */\n      dup4\n        /* \"#utility.yul\":6085:6102   */\n      add\n        /* \"#utility.yul\":6078:6125   */\n      mstore\n        /* \"#utility.yul\":6142:6273   */\n      tag_133\n        /* \"#utility.yul\":6268:6272   */\n      dup2\n        /* \"#utility.yul\":6142:6273   */\n      tag_90\n      jump\t// in\n    tag_133:\n        /* \"#utility.yul\":6134:6273   */\n      swap1\n      pop\n        /* \"#utility.yul\":6032:6280   */\n      swap2\n      swap1\n      pop\n      jump\t// out\n        /* \"#utility.yul\":6286:6705   */\n    tag_29:\n      0x00\n        /* \"#utility.yul\":6490:6492   */\n      0x20\n        /* \"#utility.yul\":6479:6488   */\n      dup3\n        /* \"#utility.yul\":6475:6493   */\n      add\n        /* \"#utility.yul\":6467:6493   */\n      swap1\n      pop\n        /* \"#utility.yul\":6539:6548   */\n      dup2\n        /* \"#utility.yul\":6533:6537   */\n      dup2\n        /* \"#utility.yul\":6529:6549   */\n      sub\n        /* \"#utility.yul\":6525:6526   */\n      0x00\n        /* \"#utility.yul\":6514:6523   */\n      dup4\n        /* \"#utility.yul\":6510:6527   */\n      add\n        /* \"#utility.yul\":6503:6550   */\n      mstore\n        /* \"#utility.yul\":6567:6698   */\n      tag_135\n        /* \"#utility.yul\":6693:6697   */\n      dup2\n        /* \"#utility.yul\":6567:6698   */\n      tag_95\n      jump\t// in\n    tag_135:\n        /* \"#utility.yul\":6559:6698   */\n      swap1\n      pop\n        /* \"#utility.yul\":6457:6705   */\n      swap2\n      swap1\n      pop\n      jump\t// out\n        /* \"#utility.yul\":6711:7130   */\n    tag_50:\n      0x00\n        /* \"#utility.yul\":6915:6917   */\n      0x20\n        /* \"#utility.yul\":6904:6913   */\n      dup3\n        /* \"#utility.yul\":6900:6918   */\n      add\n        /* \"#utility.yul\":6892:6918   */\n      swap1\n      pop\n        /* \"#utility.yul\":6964:6973   */\n      dup2\n        /* \"#utility.yul\":6958:6962   */\n      dup2\n        /* \"#utility.yul\":6954:6974   */\n      sub\n        /* \"#utility.yul\":6950:6951   */\n      0x00\n        /* \"#utility.yul\":6939:6948   */\n      dup4\n        /* \"#utility.yul\":6935:6952   */\n      add\n        /* \"#utility.yul\":6928:6975   */\n      mstore\n        /* \"#utility.yul\":6992:7123   */\n      tag_137\n        /* \"#utility.yul\":7118:7122   */\n      dup2\n        /* \"#utility.yul\":6992:7123   */\n      tag_100\n      jump\t// in\n    tag_137:\n        /* \"#utility.yul\":6984:7123   */\n      swap1\n      pop\n        /* \"#utility.yul\":6882:7130   */\n      swap2\n      swap1\n      pop\n      jump\t// out\n        /* \"#utility.yul\":7136:7555   */\n    tag_54:\n      0x00\n        /* \"#utility.yul\":7340:7342   */\n      0x20\n        /* \"#utility.yul\":7329:7338   */\n      dup3\n        /* \"#utility.yul\":7325:7343   */\n      add\n        /* \"#utility.yul\":7317:7343   */\n      swap1\n      pop\n        /* \"#utility.yul\":7389:7398   */\n      dup2\n        /* \"#utility.yul\":7383:7387   */\n      dup2\n        /* \"#utility.yul\":7379:7399   */\n      sub\n        /* \"#utility.yul\":7375:7376   */\n      0x00\n        /* \"#utility.yul\":7364:7373   */\n      dup4\n        /* \"#utility.yul\":7360:7377   */\n      add\n        /* \"#utility.yul\":7353:7400   */\n      mstore\n        /* \"#utility.yul\":7417:7548   */\n      tag_139\n        /* \"#utility.yul\":7543:7547   */\n      dup2\n        /* \"#utility.yul\":7417:7548   */\n      tag_105\n      jump\t// in\n    tag_139:\n        /* \"#utility.yul\":7409:7548   */\n      swap1\n      pop\n        /* \"#utility.yul\":7307:7555   */\n      swap2\n      swap1\n      pop\n      jump\t// out\n        /* \"#utility.yul\":7561:7730   */\n    tag_87:\n      0x00\n        /* \"#utility.yul\":7679:7685   */\n      dup3\n        /* \"#utility.yul\":7674:7677   */\n      dup3\n        /* \"#utility.yul\":7667:7686   */\n      mstore\n        /* \"#utility.yul\":7719:7723   */\n      0x20\n        /* \"#utility.yul\":7714:7717   */\n      dup3\n        /* \"#utility.yul\":7710:7724   */\n      add\n        /* \"#utility.yul\":7695:7724   */\n      swap1\n      pop\n        /* \"#utility.yul\":7657:7730   */\n      swap3\n      swap2\n      pop\n      pop\n      jump\t// out\n        /* \"#utility.yul\":7736:7832   */\n    tag_79:\n      0x00\n        /* \"#utility.yul\":7802:7826   */\n      tag_142\n        /* \"#utility.yul\":7820:7825   */\n      dup3\n        /* \"#utility.yul\":7802:7826   */\n      tag_143\n      jump\t// in\n    tag_142:\n        /* \"#utility.yul\":7791:7826   */\n      swap1\n      pop\n        /* \"#utility.yul\":7781:7832   */\n      swap2\n      swap1\n      pop\n      jump\t// out\n        /* \"#utility.yul\":7838:7915   */\n    tag_83:\n      0x00\n        /* \"#utility.yul\":7904:7909   */\n      dup2\n        /* \"#utility.yul\":7893:7909   */\n      swap1\n      pop\n        /* \"#utility.yul\":7883:7915   */\n      swap2\n      swap1\n      pop\n      jump\t// out\n        /* \"#utility.yul\":7921:8047   */\n    tag_143:\n      0x00\n        /* \"#utility.yul\":7998:8040   */\n      0xffffffffffffffffffffffffffffffffffffffff\n        /* \"#utility.yul\":7991:7996   */\n      dup3\n        /* \"#utility.yul\":7987:8041   */\n      and\n        /* \"#utility.yul\":7976:8041   */\n      swap1\n      pop\n        /* \"#utility.yul\":7966:8047   */\n      swap2\n      swap1\n      pop\n      jump\t// out\n        /* \"#utility.yul\":8053:8130   */\n    tag_113:\n      0x00\n        /* \"#utility.yul\":8119:8124   */\n      dup2\n        /* \"#utility.yul\":8108:8124   */\n      swap1\n      pop\n        /* \"#utility.yul\":8098:8130   */\n      swap2\n      swap1\n      pop\n      jump\t// out\n        /* \"#utility.yul\":8136:8369   */\n    tag_89:\n        /* \"#utility.yul\":8276:8310   */\n      0x4c61206964206465206c6120504352206e6f20636f696e6369646520636f6e20\n        /* \"#utility.yul\":8272:8273   */\n      0x00\n        /* \"#utility.yul\":8264:8270   */\n      dup3\n        /* \"#utility.yul\":8260:8274   */\n      add\n        /* \"#utility.yul\":8253:8311   */\n      mstore\n        /* \"#utility.yul\":8345:8361   */\n      0x6c6120696e74726f647563696461000000000000000000000000000000000000\n        /* \"#utility.yul\":8340:8342   */\n      0x20\n        /* \"#utility.yul\":8332:8338   */\n      dup3\n        /* \"#utility.yul\":8328:8343   */\n      add\n        /* \"#utility.yul\":8321:8362   */\n      mstore\n        /* \"#utility.yul\":8242:8369   */\n      pop\n      jump\t// out\n        /* \"#utility.yul\":8375:8551   */\n    tag_94:\n        /* \"#utility.yul\":8515:8543   */\n      0x546869732050435220686173206265656e2064656c657465642e000000000000\n        /* \"#utility.yul\":8511:8512   */\n      0x00\n        /* \"#utility.yul\":8503:8509   */\n      dup3\n        /* \"#utility.yul\":8499:8513   */\n      add\n        /* \"#utility.yul\":8492:8544   */\n      mstore\n        /* \"#utility.yul\":8481:8551   */\n      pop\n      jump\t// out\n        /* \"#utility.yul\":8557:8793   */\n    tag_99:\n        /* \"#utility.yul\":8697:8731   */\n      0x4c61206964206465206c6120706f6c697a61206e6f20636f696e636964652063\n        /* \"#utility.yul\":8693:8694   */\n      0x00\n        /* \"#utility.yul\":8685:8691   */\n      dup3\n        /* \"#utility.yul\":8681:8695   */\n      add\n        /* \"#utility.yul\":8674:8732   */\n      mstore\n        /* \"#utility.yul\":8766:8785   */\n      0x6f6e206c6120696e74726f647563696461000000000000000000000000000000\n        /* \"#utility.yul\":8761:8763   */\n      0x20\n        /* \"#utility.yul\":8753:8759   */\n      dup3\n        /* \"#utility.yul\":8749:8764   */\n      add\n        /* \"#utility.yul\":8742:8786   */\n      mstore\n        /* \"#utility.yul\":8663:8793   */\n      pop\n      jump\t// out\n        /* \"#utility.yul\":8799:8974   */\n    tag_104:\n        /* \"#utility.yul\":8939:8966   */\n      0x504352732063616e206f6e6c7920557064617465206f6e636500000000000000\n        /* \"#utility.yul\":8935:8936   */\n      0x00\n        /* \"#utility.yul\":8927:8933   */\n      dup3\n        /* \"#utility.yul\":8923:8937   */\n      add\n        /* \"#utility.yul\":8916:8967   */\n      mstore\n        /* \"#utility.yul\":8905:8974   */\n      pop\n      jump\t// out\n        /* \"#utility.yul\":8980:9274   */\n    tag_109:\n        /* \"#utility.yul\":9120:9154   */\n      0x496e737572616e636520616e642050435220696473206861766520746f206265\n        /* \"#utility.yul\":9116:9117   */\n      0x00\n        /* \"#utility.yul\":9108:9114   */\n      dup3\n        /* \"#utility.yul\":9104:9118   */\n      add\n        /* \"#utility.yul\":9097:9155   */\n      mstore\n        /* \"#utility.yul\":9189:9223   */\n      0x207468652073616d6520617320746865206f6e657320696e207468697320636f\n        /* \"#utility.yul\":9184:9186   */\n      0x20\n        /* \"#utility.yul\":9176:9182   */\n      dup3\n        /* \"#utility.yul\":9172:9187   */\n      add\n        /* \"#utility.yul\":9165:9224   */\n      mstore\n        /* \"#utility.yul\":9258:9266   */\n      0x6e74726163740000000000000000000000000000000000000000000000000000\n        /* \"#utility.yul\":9253:9255   */\n      0x40\n        /* \"#utility.yul\":9245:9251   */\n      dup3\n        /* \"#utility.yul\":9241:9256   */\n      add\n        /* \"#utility.yul\":9234:9267   */\n      mstore\n        /* \"#utility.yul\":9086:9274   */\n      pop\n      jump\t// out\n        /* \"#utility.yul\":9280:9402   */\n    tag_61:\n        /* \"#utility.yul\":9353:9377   */\n      tag_153\n        /* \"#utility.yul\":9371:9376   */\n      dup2\n        /* \"#utility.yul\":9353:9377   */\n      tag_83\n      jump\t// in\n    tag_153:\n        /* \"#utility.yul\":9346:9351   */\n      dup2\n        /* \"#utility.yul\":9343:9378   */\n      eq\n        /* \"#utility.yul\":9333:9335   */\n      tag_154\n      jumpi\n        /* \"#utility.yul\":9392:9393   */\n      0x00\n        /* \"#utility.yul\":9389:9390   */\n      dup1\n        /* \"#utility.yul\":9382:9394   */\n      revert\n        /* \"#utility.yul\":9333:9335   */\n    tag_154:\n        /* \"#utility.yul\":9323:9402   */\n      pop\n      jump\t// out\n        /* \"#utility.yul\":9408:9530   */\n    tag_65:\n        /* \"#utility.yul\":9481:9505   */\n      tag_156\n        /* \"#utility.yul\":9499:9504   */\n      dup2\n        /* \"#utility.yul\":9481:9505   */\n      tag_113\n      jump\t// in\n    tag_156:\n        /* \"#utility.yul\":9474:9479   */\n      dup2\n        /* \"#utility.yul\":9471:9506   */\n      eq\n        /* \"#utility.yul\":9461:9463   */\n      tag_157\n      jumpi\n        /* \"#utility.yul\":9520:9521   */\n      0x00\n        /* \"#utility.yul\":9517:9518   */\n      dup1\n        /* \"#utility.yul\":9510:9522   */\n      revert\n        /* \"#utility.yul\":9461:9463   */\n    tag_157:\n        /* \"#utility.yul\":9451:9530   */\n      pop\n      jump\t// out\n\n    auxdata: 0xa2646970667358221220e452c9a9050b19cca0a89f5a1c536329183cbd06489a7c98aabe934554b87b3c64736f6c63430008030033\n}\n",
    "bytecode": {
      "linkReferences": {},
      "object": "60806040523480156200001157600080fd5b5060405162000dec38038062000dec8339818101604052810190620000379190620001d3565b80600160060160006101000a81548173ffffffffffffffffffffffffffffffffffffffff021916908373ffffffffffffffffffffffffffffffffffffffff16021790555081600160040181905550826001600301819055508360016000018190555084600160020181905550336000806101000a81548173ffffffffffffffffffffffffffffffffffffffff021916908373ffffffffffffffffffffffffffffffffffffffff16021790555060008060146101000a81548160ff0219169083151502179055507f554e444546494e45440000000000000000000000000000000000000000000000600180018190555060008060156101000a81548160ff0219169083151502179055507f9180bea917ec5e95e7074490fb52bbcfb047f4239df58b60c1ebf2ea6cc96cb18585858530866040516200017b9695949392919062000288565b60405180910390a150505050506200038b565b6000815190506200019f816200033d565b92915050565b600081519050620001b68162000357565b92915050565b600081519050620001cd8162000371565b92915050565b600080600080600060a08688031215620001ec57600080fd5b6000620001fc88828901620001a5565b95505060206200020f88828901620001a5565b94505060406200022288828901620001a5565b93505060606200023588828901620001bc565b925050608062000248888289016200018e565b9150509295509295909350565b6200026081620002f5565b82525050565b620002718162000309565b82525050565b620002828162000333565b82525050565b600060c0820190506200029f600083018962000266565b620002ae602083018862000266565b620002bd604083018762000266565b620002cc606083018662000277565b620002db608083018562000255565b620002ea60a083018462000255565b979650505050505050565b6000620003028262000313565b9050919050565b6000819050919050565b600073ffffffffffffffffffffffffffffffffffffffff82169050919050565b6000819050919050565b6200034881620002f5565b81146200035457600080fd5b50565b620003628162000309565b81146200036e57600080fd5b50565b6200037c8162000333565b81146200038857600080fd5b50565b610a51806200039b6000396000f3fe608060405234801561001057600080fd5b50600436106100575760003560e01c806301a61b5c1461005c57806334b1794c146100925780635d1ca6311461009c5780639499e018146100ba57806397fccd59146100c4575b600080fd5b61007660048036038101906100719190610539565b6100e0565b6040516100899796959493929190610722565b60405180910390f35b61009a6101b7565b005b6100a4610280565b6040516100b191906106b4565b60405180910390f35b6100c26102dc565b005b6100de60048036038101906100d99190610575565b61036d565b005b60008060008060008060008860016000015414610132576040517f08c379a0000000000000000000000000000000000000000000000000000000008152600401610129906107d1565b60405180910390fd5b8760016002015414610179576040517f08c379a000000000000000000000000000000000000000000000000000000000815260040161017090610791565b60405180910390fd5b600180015460016003015460016004015460016005015460016002015430600160000154965096509650965096509650965092959891949750929550565b600060159054906101000a900460ff1615610207576040517f08c379a00000000000000000000000000000000000000000000000000000000081526004016101fe906107b1565b60405180910390fd5b6001600060156101000a81548160ff0219169083151502179055506001600080820160009055600182016000905560028201600090556003820160009055600482016000905560058201600090556006820160006101000a81549073ffffffffffffffffffffffffffffffffffffffff02191690555050565b60008060159054906101000a900460ff16156102d1576040517f08c379a00000000000000000000000000000000000000000000000000000000081526004016102c8906107b1565b60405180910390fd5b600160020154905090565b60008054906101000a900473ffffffffffffffffffffffffffffffffffffffff1673ffffffffffffffffffffffffffffffffffffffff163373ffffffffffffffffffffffffffffffffffffffff161461033457600080fd5b60008054906101000a900473ffffffffffffffffffffffffffffffffffffffff1673ffffffffffffffffffffffffffffffffffffffff16ff5b600060159054906101000a900460ff16156103bd576040517f08c379a00000000000000000000000000000000000000000000000000000000081526004016103b4906107b1565b60405180910390fd5b600060149054906101000a900460ff161561040d576040517f08c379a0000000000000000000000000000000000000000000000000000000008152600401610404906107f1565b60405180910390fd5b60016000015482148015610425575060016002015481145b610464576040517f08c379a000000000000000000000000000000000000000000000000000000000815260040161045b90610811565b60405180910390fd5b6001600060146101000a81548160ff021916908315150217905550836001800181905550826001600501819055507f019180bd50566344afb9366ec620a67ef53b5838de32e3c1564aa5e90125b7406001600001546001600201546001800154600160050154600160060160009054906101000a900473ffffffffffffffffffffffffffffffffffffffff166040516105019594939291906106cf565b60405180910390a150505050565b60008135905061051e816109ed565b92915050565b60008135905061053381610a04565b92915050565b6000806040838503121561054c57600080fd5b600061055a8582860161050f565b925050602061056b8582860161050f565b9150509250929050565b6000806000806080858703121561058b57600080fd5b60006105998782880161050f565b94505060206105aa87828801610524565b93505060406105bb8782880161050f565b92505060606105cc8782880161050f565b91505092959194509250565b6105e181610842565b82525050565b6105f081610854565b82525050565b6000610603602e83610831565b915061060e82610888565b604082019050919050565b6000610626601a83610831565b9150610631826108d7565b602082019050919050565b6000610649603183610831565b915061065482610900565b604082019050919050565b600061066c601983610831565b91506106778261094f565b602082019050919050565b600061068f604683610831565b915061069a82610978565b606082019050919050565b6106ae8161087e565b82525050565b60006020820190506106c960008301846105e7565b92915050565b600060a0820190506106e460008301886105e7565b6106f160208301876105e7565b6106fe60408301866105e7565b61070b60608301856106a5565b61071860808301846105d8565b9695505050505050565b600060e082019050610737600083018a6105e7565b61074460208301896105e7565b61075160408301886106a5565b61075e60608301876106a5565b61076b60808301866105e7565b61077860a08301856105d8565b61078560c08301846105e7565b98975050505050505050565b600060208201905081810360008301526107aa816105f6565b9050919050565b600060208201905081810360008301526107ca81610619565b9050919050565b600060208201905081810360008301526107ea8161063c565b9050919050565b6000602082019050818103600083015261080a8161065f565b9050919050565b6000602082019050818103600083015261082a81610682565b9050919050565b600082825260208201905092915050565b600061084d8261085e565b9050919050565b6000819050919050565b600073ffffffffffffffffffffffffffffffffffffffff82169050919050565b6000819050919050565b7f4c61206964206465206c6120504352206e6f20636f696e6369646520636f6e2060008201527f6c6120696e74726f647563696461000000000000000000000000000000000000602082015250565b7f546869732050435220686173206265656e2064656c657465642e000000000000600082015250565b7f4c61206964206465206c6120706f6c697a61206e6f20636f696e63696465206360008201527f6f6e206c6120696e74726f647563696461000000000000000000000000000000602082015250565b7f504352732063616e206f6e6c7920557064617465206f6e636500000000000000600082015250565b7f496e737572616e636520616e642050435220696473206861766520746f20626560008201527f207468652073616d6520617320746865206f6e657320696e207468697320636f60208201527f6e74726163740000000000000000000000000000000000000000000000000000604082015250565b6109f681610854565b8114610a0157600080fd5b50565b610a0d8161087e565b8114610a1857600080fd5b5056fea2646970667358221220e452c9a9050b19cca0a89f5a1c536329183cbd06489a7c98aabe934554b87b3c64736f6c63430008030033",
      "opcodes": "PUSH1 0x80 PUSH1 0x40 MSTORE CALLVALUE DUP1 ISZERO PUSH3 0x11 JUMPI PUSH1 0x0 DUP1 REVERT JUMPDEST POP PUSH1 0x40 MLOAD PUSH3 0xDEC CODESIZE SUB DUP1 PUSH3 0xDEC DUP4 CODECOPY DUP2 DUP2 ADD PUSH1 0x40 MSTORE DUP2 ADD SWAP1 PUSH3 0x37 SWAP2 SWAP1 PUSH3 0x1D3 JUMP JUMPDEST DUP1 PUSH1 0x1 PUSH1 0x6 ADD PUSH1 0x0 PUSH2 0x100 EXP DUP2 SLOAD DUP2 PUSH20 0xFFFFFFFFFFFFFFFFFFFFFFFFFFFFFFFFFFFFFFFF MUL NOT AND SWAP1 DUP4 PUSH20 0xFFFFFFFFFFFFFFFFFFFFFFFFFFFFFFFFFFFFFFFF AND MUL OR SWAP1 SSTORE POP DUP2 PUSH1 0x1 PUSH1 0x4 ADD DUP2 SWAP1 SSTORE POP DUP3 PUSH1 0x1 PUSH1 0x3 ADD DUP2 SWAP1 SSTORE POP DUP4 PUSH1 0x1 PUSH1 0x0 ADD DUP2 SWAP1 SSTORE POP DUP5 PUSH1 0x1 PUSH1 0x2 ADD DUP2 SWAP1 SSTORE POP CALLER PUSH1 0x0 DUP1 PUSH2 0x100 EXP DUP2 SLOAD DUP2 PUSH20 0xFFFFFFFFFFFFFFFFFFFFFFFFFFFFFFFFFFFFFFFF MUL NOT AND SWAP1 DUP4 PUSH20 0xFFFFFFFFFFFFFFFFFFFFFFFFFFFFFFFFFFFFFFFF AND MUL OR SWAP1 SSTORE POP PUSH1 0x0 DUP1 PUSH1 0x14 PUSH2 0x100 EXP DUP2 SLOAD DUP2 PUSH1 0xFF MUL NOT AND SWAP1 DUP4 ISZERO ISZERO MUL OR SWAP1 SSTORE POP PUSH32 0x554E444546494E45440000000000000000000000000000000000000000000000 PUSH1 0x1 DUP1 ADD DUP2 SWAP1 SSTORE POP PUSH1 0x0 DUP1 PUSH1 0x15 PUSH2 0x100 EXP DUP2 SLOAD DUP2 PUSH1 0xFF MUL NOT AND SWAP1 DUP4 ISZERO ISZERO MUL OR SWAP1 SSTORE POP PUSH32 0x9180BEA917EC5E95E7074490FB52BBCFB047F4239DF58B60C1EBF2EA6CC96CB1 DUP6 DUP6 DUP6 DUP6 ADDRESS DUP7 PUSH1 0x40 MLOAD PUSH3 0x17B SWAP7 SWAP6 SWAP5 SWAP4 SWAP3 SWAP2 SWAP1 PUSH3 0x288 JUMP JUMPDEST PUSH1 0x40 MLOAD DUP1 SWAP2 SUB SWAP1 LOG1 POP POP POP POP POP PUSH3 0x38B JUMP JUMPDEST PUSH1 0x0 DUP2 MLOAD SWAP1 POP PUSH3 0x19F DUP2 PUSH3 0x33D JUMP JUMPDEST SWAP3 SWAP2 POP POP JUMP JUMPDEST PUSH1 0x0 DUP2 MLOAD SWAP1 POP PUSH3 0x1B6 DUP2 PUSH3 0x357 JUMP JUMPDEST SWAP3 SWAP2 POP POP JUMP JUMPDEST PUSH1 0x0 DUP2 MLOAD SWAP1 POP PUSH3 0x1CD DUP2 PUSH3 0x371 JUMP JUMPDEST SWAP3 SWAP2 POP POP JUMP JUMPDEST PUSH1 0x0 DUP1 PUSH1 0x0 DUP1 PUSH1 0x0 PUSH1 0xA0 DUP7 DUP9 SUB SLT ISZERO PUSH3 0x1EC JUMPI PUSH1 0x0 DUP1 REVERT JUMPDEST PUSH1 0x0 PUSH3 0x1FC DUP9 DUP3 DUP10 ADD PUSH3 0x1A5 JUMP JUMPDEST SWAP6 POP POP PUSH1 0x20 PUSH3 0x20F DUP9 DUP3 DUP10 ADD PUSH3 0x1A5 JUMP JUMPDEST SWAP5 POP POP PUSH1 0x40 PUSH3 0x222 DUP9 DUP3 DUP10 ADD PUSH3 0x1A5 JUMP JUMPDEST SWAP4 POP POP PUSH1 0x60 PUSH3 0x235 DUP9 DUP3 DUP10 ADD PUSH3 0x1BC JUMP JUMPDEST SWAP3 POP POP PUSH1 0x80 PUSH3 0x248 DUP9 DUP3 DUP10 ADD PUSH3 0x18E JUMP JUMPDEST SWAP2 POP POP SWAP3 SWAP6 POP SWAP3 SWAP6 SWAP1 SWAP4 POP JUMP JUMPDEST PUSH3 0x260 DUP2 PUSH3 0x2F5 JUMP JUMPDEST DUP3 MSTORE POP POP JUMP JUMPDEST PUSH3 0x271 DUP2 PUSH3 0x309 JUMP JUMPDEST DUP3 MSTORE POP POP JUMP JUMPDEST PUSH3 0x282 DUP2 PUSH3 0x333 JUMP JUMPDEST DUP3 MSTORE POP POP JUMP JUMPDEST PUSH1 0x0 PUSH1 0xC0 DUP3 ADD SWAP1 POP PUSH3 0x29F PUSH1 0x0 DUP4 ADD DUP10 PUSH3 0x266 JUMP JUMPDEST PUSH3 0x2AE PUSH1 0x20 DUP4 ADD DUP9 PUSH3 0x266 JUMP JUMPDEST PUSH3 0x2BD PUSH1 0x40 DUP4 ADD DUP8 PUSH3 0x266 JUMP JUMPDEST PUSH3 0x2CC PUSH1 0x60 DUP4 ADD DUP7 PUSH3 0x277 JUMP JUMPDEST PUSH3 0x2DB PUSH1 0x80 DUP4 ADD DUP6 PUSH3 0x255 JUMP JUMPDEST PUSH3 0x2EA PUSH1 0xA0 DUP4 ADD DUP5 PUSH3 0x255 JUMP JUMPDEST SWAP8 SWAP7 POP POP POP POP POP POP POP JUMP JUMPDEST PUSH1 0x0 PUSH3 0x302 DUP3 PUSH3 0x313 JUMP JUMPDEST SWAP1 POP SWAP2 SWAP1 POP JUMP JUMPDEST PUSH1 0x0 DUP2 SWAP1 POP SWAP2 SWAP1 POP JUMP JUMPDEST PUSH1 0x0 PUSH20 0xFFFFFFFFFFFFFFFFFFFFFFFFFFFFFFFFFFFFFFFF DUP3 AND SWAP1 POP SWAP2 SWAP1 POP JUMP JUMPDEST PUSH1 0x0 DUP2 SWAP1 POP SWAP2 SWAP1 POP JUMP JUMPDEST PUSH3 0x348 DUP2 PUSH3 0x2F5 JUMP JUMPDEST DUP2 EQ PUSH3 0x354 JUMPI PUSH1 0x0 DUP1 REVERT JUMPDEST POP JUMP JUMPDEST PUSH3 0x362 DUP2 PUSH3 0x309 JUMP JUMPDEST DUP2 EQ PUSH3 0x36E JUMPI PUSH1 0x0 DUP1 REVERT JUMPDEST POP JUMP JUMPDEST PUSH3 0x37C DUP2 PUSH3 0x333 JUMP JUMPDEST DUP2 EQ PUSH3 0x388 JUMPI PUSH1 0x0 DUP1 REVERT JUMPDEST POP JUMP JUMPDEST PUSH2 0xA51 DUP1 PUSH3 0x39B PUSH1 0x0 CODECOPY PUSH1 0x0 RETURN INVALID PUSH1 0x80 PUSH1 0x40 MSTORE CALLVALUE DUP1 ISZERO PUSH2 0x10 JUMPI PUSH1 0x0 DUP1 REVERT JUMPDEST POP PUSH1 0x4 CALLDATASIZE LT PUSH2 0x57 JUMPI PUSH1 0x0 CALLDATALOAD PUSH1 0xE0 SHR DUP1 PUSH4 0x1A61B5C EQ PUSH2 0x5C JUMPI DUP1 PUSH4 0x34B1794C EQ PUSH2 0x92 JUMPI DUP1 PUSH4 0x5D1CA631 EQ PUSH2 0x9C JUMPI DUP1 PUSH4 0x9499E018 EQ PUSH2 0xBA JUMPI DUP1 PUSH4 0x97FCCD59 EQ PUSH2 0xC4 JUMPI JUMPDEST PUSH1 0x0 DUP1 REVERT JUMPDEST PUSH2 0x76 PUSH1 0x4 DUP1 CALLDATASIZE SUB DUP2 ADD SWAP1 PUSH2 0x71 SWAP2 SWAP1 PUSH2 0x539 JUMP JUMPDEST PUSH2 0xE0 JUMP JUMPDEST PUSH1 0x40 MLOAD PUSH2 0x89 SWAP8 SWAP7 SWAP6 SWAP5 SWAP4 SWAP3 SWAP2 SWAP1 PUSH2 0x722 JUMP JUMPDEST PUSH1 0x40 MLOAD DUP1 SWAP2 SUB SWAP1 RETURN JUMPDEST PUSH2 0x9A PUSH2 0x1B7 JUMP JUMPDEST STOP JUMPDEST PUSH2 0xA4 PUSH2 0x280 JUMP JUMPDEST PUSH1 0x40 MLOAD PUSH2 0xB1 SWAP2 SWAP1 PUSH2 0x6B4 JUMP JUMPDEST PUSH1 0x40 MLOAD DUP1 SWAP2 SUB SWAP1 RETURN JUMPDEST PUSH2 0xC2 PUSH2 0x2DC JUMP JUMPDEST STOP JUMPDEST PUSH2 0xDE PUSH1 0x4 DUP1 CALLDATASIZE SUB DUP2 ADD SWAP1 PUSH2 0xD9 SWAP2 SWAP1 PUSH2 0x575 JUMP JUMPDEST PUSH2 0x36D JUMP JUMPDEST STOP JUMPDEST PUSH1 0x0 DUP1 PUSH1 0x0 DUP1 PUSH1 0x0 DUP1 PUSH1 0x0 DUP9 PUSH1 0x1 PUSH1 0x0 ADD SLOAD EQ PUSH2 0x132 JUMPI PUSH1 0x40 MLOAD PUSH32 0x8C379A000000000000000000000000000000000000000000000000000000000 DUP2 MSTORE PUSH1 0x4 ADD PUSH2 0x129 SWAP1 PUSH2 0x7D1 JUMP JUMPDEST PUSH1 0x40 MLOAD DUP1 SWAP2 SUB SWAP1 REVERT JUMPDEST DUP8 PUSH1 0x1 PUSH1 0x2 ADD SLOAD EQ PUSH2 0x179 JUMPI PUSH1 0x40 MLOAD PUSH32 0x8C379A000000000000000000000000000000000000000000000000000000000 DUP2 MSTORE PUSH1 0x4 ADD PUSH2 0x170 SWAP1 PUSH2 0x791 JUMP JUMPDEST PUSH1 0x40 MLOAD DUP1 SWAP2 SUB SWAP1 REVERT JUMPDEST PUSH1 0x1 DUP1 ADD SLOAD PUSH1 0x1 PUSH1 0x3 ADD SLOAD PUSH1 0x1 PUSH1 0x4 ADD SLOAD PUSH1 0x1 PUSH1 0x5 ADD SLOAD PUSH1 0x1 PUSH1 0x2 ADD SLOAD ADDRESS PUSH1 0x1 PUSH1 0x0 ADD SLOAD SWAP7 POP SWAP7 POP SWAP7 POP SWAP7 POP SWAP7 POP SWAP7 POP SWAP7 POP SWAP3 SWAP6 SWAP9 SWAP2 SWAP5 SWAP8 POP SWAP3 SWAP6 POP JUMP JUMPDEST PUSH1 0x0 PUSH1 0x15 SWAP1 SLOAD SWAP1 PUSH2 0x100 EXP SWAP1 DIV PUSH1 0xFF AND ISZERO PUSH2 0x207 JUMPI PUSH1 0x40 MLOAD PUSH32 0x8C379A000000000000000000000000000000000000000000000000000000000 DUP2 MSTORE PUSH1 0x4 ADD PUSH2 0x1FE SWAP1 PUSH2 0x7B1 JUMP JUMPDEST PUSH1 0x40 MLOAD DUP1 SWAP2 SUB SWAP1 REVERT JUMPDEST PUSH1 0x1 PUSH1 0x0 PUSH1 0x15 PUSH2 0x100 EXP DUP2 SLOAD DUP2 PUSH1 0xFF MUL NOT AND SWAP1 DUP4 ISZERO ISZERO MUL OR SWAP1 SSTORE POP PUSH1 0x1 PUSH1 0x0 DUP1 DUP3 ADD PUSH1 0x0 SWAP1 SSTORE PUSH1 0x1 DUP3 ADD PUSH1 0x0 SWAP1 SSTORE PUSH1 0x2 DUP3 ADD PUSH1 0x0 SWAP1 SSTORE PUSH1 0x3 DUP3 ADD PUSH1 0x0 SWAP1 SSTORE PUSH1 0x4 DUP3 ADD PUSH1 0x0 SWAP1 SSTORE PUSH1 0x5 DUP3 ADD PUSH1 0x0 SWAP1 SSTORE PUSH1 0x6 DUP3 ADD PUSH1 0x0 PUSH2 0x100 EXP DUP2 SLOAD SWAP1 PUSH20 0xFFFFFFFFFFFFFFFFFFFFFFFFFFFFFFFFFFFFFFFF MUL NOT AND SWAP1 SSTORE POP POP JUMP JUMPDEST PUSH1 0x0 DUP1 PUSH1 0x15 SWAP1 SLOAD SWAP1 PUSH2 0x100 EXP SWAP1 DIV PUSH1 0xFF AND ISZERO PUSH2 0x2D1 JUMPI PUSH1 0x40 MLOAD PUSH32 0x8C379A000000000000000000000000000000000000000000000000000000000 DUP2 MSTORE PUSH1 0x4 ADD PUSH2 0x2C8 SWAP1 PUSH2 0x7B1 JUMP JUMPDEST PUSH1 0x40 MLOAD DUP1 SWAP2 SUB SWAP1 REVERT JUMPDEST PUSH1 0x1 PUSH1 0x2 ADD SLOAD SWAP1 POP SWAP1 JUMP JUMPDEST PUSH1 0x0 DUP1 SLOAD SWAP1 PUSH2 0x100 EXP SWAP1 DIV PUSH20 0xFFFFFFFFFFFFFFFFFFFFFFFFFFFFFFFFFFFFFFFF AND PUSH20 0xFFFFFFFFFFFFFFFFFFFFFFFFFFFFFFFFFFFFFFFF AND CALLER PUSH20 0xFFFFFFFFFFFFFFFFFFFFFFFFFFFFFFFFFFFFFFFF AND EQ PUSH2 0x334 JUMPI PUSH1 0x0 DUP1 REVERT JUMPDEST PUSH1 0x0 DUP1 SLOAD SWAP1 PUSH2 0x100 EXP SWAP1 DIV PUSH20 0xFFFFFFFFFFFFFFFFFFFFFFFFFFFFFFFFFFFFFFFF AND PUSH20 0xFFFFFFFFFFFFFFFFFFFFFFFFFFFFFFFFFFFFFFFF AND SELFDESTRUCT JUMPDEST PUSH1 0x0 PUSH1 0x15 SWAP1 SLOAD SWAP1 PUSH2 0x100 EXP SWAP1 DIV PUSH1 0xFF AND ISZERO PUSH2 0x3BD JUMPI PUSH1 0x40 MLOAD PUSH32 0x8C379A000000000000000000000000000000000000000000000000000000000 DUP2 MSTORE PUSH1 0x4 ADD PUSH2 0x3B4 SWAP1 PUSH2 0x7B1 JUMP JUMPDEST PUSH1 0x40 MLOAD DUP1 SWAP2 SUB SWAP1 REVERT JUMPDEST PUSH1 0x0 PUSH1 0x14 SWAP1 SLOAD SWAP1 PUSH2 0x100 EXP SWAP1 DIV PUSH1 0xFF AND ISZERO PUSH2 0x40D JUMPI PUSH1 0x40 MLOAD PUSH32 0x8C379A000000000000000000000000000000000000000000000000000000000 DUP2 MSTORE PUSH1 0x4 ADD PUSH2 0x404 SWAP1 PUSH2 0x7F1 JUMP JUMPDEST PUSH1 0x40 MLOAD DUP1 SWAP2 SUB SWAP1 REVERT JUMPDEST PUSH1 0x1 PUSH1 0x0 ADD SLOAD DUP3 EQ DUP1 ISZERO PUSH2 0x425 JUMPI POP PUSH1 0x1 PUSH1 0x2 ADD SLOAD DUP2 EQ JUMPDEST PUSH2 0x464 JUMPI PUSH1 0x40 MLOAD PUSH32 0x8C379A000000000000000000000000000000000000000000000000000000000 DUP2 MSTORE PUSH1 0x4 ADD PUSH2 0x45B SWAP1 PUSH2 0x811 JUMP JUMPDEST PUSH1 0x40 MLOAD DUP1 SWAP2 SUB SWAP1 REVERT JUMPDEST PUSH1 0x1 PUSH1 0x0 PUSH1 0x14 PUSH2 0x100 EXP DUP2 SLOAD DUP2 PUSH1 0xFF MUL NOT AND SWAP1 DUP4 ISZERO ISZERO MUL OR SWAP1 SSTORE POP DUP4 PUSH1 0x1 DUP1 ADD DUP2 SWAP1 SSTORE POP DUP3 PUSH1 0x1 PUSH1 0x5 ADD DUP2 SWAP1 SSTORE POP PUSH32 0x19180BD50566344AFB9366EC620A67EF53B5838DE32E3C1564AA5E90125B740 PUSH1 0x1 PUSH1 0x0 ADD SLOAD PUSH1 0x1 PUSH1 0x2 ADD SLOAD PUSH1 0x1 DUP1 ADD SLOAD PUSH1 0x1 PUSH1 0x5 ADD SLOAD PUSH1 0x1 PUSH1 0x6 ADD PUSH1 0x0 SWAP1 SLOAD SWAP1 PUSH2 0x100 EXP SWAP1 DIV PUSH20 0xFFFFFFFFFFFFFFFFFFFFFFFFFFFFFFFFFFFFFFFF AND PUSH1 0x40 MLOAD PUSH2 0x501 SWAP6 SWAP5 SWAP4 SWAP3 SWAP2 SWAP1 PUSH2 0x6CF JUMP JUMPDEST PUSH1 0x40 MLOAD DUP1 SWAP2 SUB SWAP1 LOG1 POP POP POP POP JUMP JUMPDEST PUSH1 0x0 DUP2 CALLDATALOAD SWAP1 POP PUSH2 0x51E DUP2 PUSH2 0x9ED JUMP JUMPDEST SWAP3 SWAP2 POP POP JUMP JUMPDEST PUSH1 0x0 DUP2 CALLDATALOAD SWAP1 POP PUSH2 0x533 DUP2 PUSH2 0xA04 JUMP JUMPDEST SWAP3 SWAP2 POP POP JUMP JUMPDEST PUSH1 0x0 DUP1 PUSH1 0x40 DUP4 DUP6 SUB SLT ISZERO PUSH2 0x54C JUMPI PUSH1 0x0 DUP1 REVERT JUMPDEST PUSH1 0x0 PUSH2 0x55A DUP6 DUP3 DUP7 ADD PUSH2 0x50F JUMP JUMPDEST SWAP3 POP POP PUSH1 0x20 PUSH2 0x56B DUP6 DUP3 DUP7 ADD PUSH2 0x50F JUMP JUMPDEST SWAP2 POP POP SWAP3 POP SWAP3 SWAP1 POP JUMP JUMPDEST PUSH1 0x0 DUP1 PUSH1 0x0 DUP1 PUSH1 0x80 DUP6 DUP8 SUB SLT ISZERO PUSH2 0x58B JUMPI PUSH1 0x0 DUP1 REVERT JUMPDEST PUSH1 0x0 PUSH2 0x599 DUP8 DUP3 DUP9 ADD PUSH2 0x50F JUMP JUMPDEST SWAP5 POP POP PUSH1 0x20 PUSH2 0x5AA DUP8 DUP3 DUP9 ADD PUSH2 0x524 JUMP JUMPDEST SWAP4 POP POP PUSH1 0x40 PUSH2 0x5BB DUP8 DUP3 DUP9 ADD PUSH2 0x50F JUMP JUMPDEST SWAP3 POP POP PUSH1 0x60 PUSH2 0x5CC DUP8 DUP3 DUP9 ADD PUSH2 0x50F JUMP JUMPDEST SWAP2 POP POP SWAP3 SWAP6 SWAP2 SWAP5 POP SWAP3 POP JUMP JUMPDEST PUSH2 0x5E1 DUP2 PUSH2 0x842 JUMP JUMPDEST DUP3 MSTORE POP POP JUMP JUMPDEST PUSH2 0x5F0 DUP2 PUSH2 0x854 JUMP JUMPDEST DUP3 MSTORE POP POP JUMP JUMPDEST PUSH1 0x0 PUSH2 0x603 PUSH1 0x2E DUP4 PUSH2 0x831 JUMP JUMPDEST SWAP2 POP PUSH2 0x60E DUP3 PUSH2 0x888 JUMP JUMPDEST PUSH1 0x40 DUP3 ADD SWAP1 POP SWAP2 SWAP1 POP JUMP JUMPDEST PUSH1 0x0 PUSH2 0x626 PUSH1 0x1A DUP4 PUSH2 0x831 JUMP JUMPDEST SWAP2 POP PUSH2 0x631 DUP3 PUSH2 0x8D7 JUMP JUMPDEST PUSH1 0x20 DUP3 ADD SWAP1 POP SWAP2 SWAP1 POP JUMP JUMPDEST PUSH1 0x0 PUSH2 0x649 PUSH1 0x31 DUP4 PUSH2 0x831 JUMP JUMPDEST SWAP2 POP PUSH2 0x654 DUP3 PUSH2 0x900 JUMP JUMPDEST PUSH1 0x40 DUP3 ADD SWAP1 POP SWAP2 SWAP1 POP JUMP JUMPDEST PUSH1 0x0 PUSH2 0x66C PUSH1 0x19 DUP4 PUSH2 0x831 JUMP JUMPDEST SWAP2 POP PUSH2 0x677 DUP3 PUSH2 0x94F JUMP JUMPDEST PUSH1 0x20 DUP3 ADD SWAP1 POP SWAP2 SWAP1 POP JUMP JUMPDEST PUSH1 0x0 PUSH2 0x68F PUSH1 0x46 DUP4 PUSH2 0x831 JUMP JUMPDEST SWAP2 POP PUSH2 0x69A DUP3 PUSH2 0x978 JUMP JUMPDEST PUSH1 0x60 DUP3 ADD SWAP1 POP SWAP2 SWAP1 POP JUMP JUMPDEST PUSH2 0x6AE DUP2 PUSH2 0x87E JUMP JUMPDEST DUP3 MSTORE POP POP JUMP JUMPDEST PUSH1 0x0 PUSH1 0x20 DUP3 ADD SWAP1 POP PUSH2 0x6C9 PUSH1 0x0 DUP4 ADD DUP5 PUSH2 0x5E7 JUMP JUMPDEST SWAP3 SWAP2 POP POP JUMP JUMPDEST PUSH1 0x0 PUSH1 0xA0 DUP3 ADD SWAP1 POP PUSH2 0x6E4 PUSH1 0x0 DUP4 ADD DUP9 PUSH2 0x5E7 JUMP JUMPDEST PUSH2 0x6F1 PUSH1 0x20 DUP4 ADD DUP8 PUSH2 0x5E7 JUMP JUMPDEST PUSH2 0x6FE PUSH1 0x40 DUP4 ADD DUP7 PUSH2 0x5E7 JUMP JUMPDEST PUSH2 0x70B PUSH1 0x60 DUP4 ADD DUP6 PUSH2 0x6A5 JUMP JUMPDEST PUSH2 0x718 PUSH1 0x80 DUP4 ADD DUP5 PUSH2 0x5D8 JUMP JUMPDEST SWAP7 SWAP6 POP POP POP POP POP POP JUMP JUMPDEST PUSH1 0x0 PUSH1 0xE0 DUP3 ADD SWAP1 POP PUSH2 0x737 PUSH1 0x0 DUP4 ADD DUP11 PUSH2 0x5E7 JUMP JUMPDEST PUSH2 0x744 PUSH1 0x20 DUP4 ADD DUP10 PUSH2 0x5E7 JUMP JUMPDEST PUSH2 0x751 PUSH1 0x40 DUP4 ADD DUP9 PUSH2 0x6A5 JUMP JUMPDEST PUSH2 0x75E PUSH1 0x60 DUP4 ADD DUP8 PUSH2 0x6A5 JUMP JUMPDEST PUSH2 0x76B PUSH1 0x80 DUP4 ADD DUP7 PUSH2 0x5E7 JUMP JUMPDEST PUSH2 0x778 PUSH1 0xA0 DUP4 ADD DUP6 PUSH2 0x5D8 JUMP JUMPDEST PUSH2 0x785 PUSH1 0xC0 DUP4 ADD DUP5 PUSH2 0x5E7 JUMP JUMPDEST SWAP9 SWAP8 POP POP POP POP POP POP POP POP JUMP JUMPDEST PUSH1 0x0 PUSH1 0x20 DUP3 ADD SWAP1 POP DUP2 DUP2 SUB PUSH1 0x0 DUP4 ADD MSTORE PUSH2 0x7AA DUP2 PUSH2 0x5F6 JUMP JUMPDEST SWAP1 POP SWAP2 SWAP1 POP JUMP JUMPDEST PUSH1 0x0 PUSH1 0x20 DUP3 ADD SWAP1 POP DUP2 DUP2 SUB PUSH1 0x0 DUP4 ADD MSTORE PUSH2 0x7CA DUP2 PUSH2 0x619 JUMP JUMPDEST SWAP1 POP SWAP2 SWAP1 POP JUMP JUMPDEST PUSH1 0x0 PUSH1 0x20 DUP3 ADD SWAP1 POP DUP2 DUP2 SUB PUSH1 0x0 DUP4 ADD MSTORE PUSH2 0x7EA DUP2 PUSH2 0x63C JUMP JUMPDEST SWAP1 POP SWAP2 SWAP1 POP JUMP JUMPDEST PUSH1 0x0 PUSH1 0x20 DUP3 ADD SWAP1 POP DUP2 DUP2 SUB PUSH1 0x0 DUP4 ADD MSTORE PUSH2 0x80A DUP2 PUSH2 0x65F JUMP JUMPDEST SWAP1 POP SWAP2 SWAP1 POP JUMP JUMPDEST PUSH1 0x0 PUSH1 0x20 DUP3 ADD SWAP1 POP DUP2 DUP2 SUB PUSH1 0x0 DUP4 ADD MSTORE PUSH2 0x82A DUP2 PUSH2 0x682 JUMP JUMPDEST SWAP1 POP SWAP2 SWAP1 POP JUMP JUMPDEST PUSH1 0x0 DUP3 DUP3 MSTORE PUSH1 0x20 DUP3 ADD SWAP1 POP SWAP3 SWAP2 POP POP JUMP JUMPDEST PUSH1 0x0 PUSH2 0x84D DUP3 PUSH2 0x85E JUMP JUMPDEST SWAP1 POP SWAP2 SWAP1 POP JUMP JUMPDEST PUSH1 0x0 DUP2 SWAP1 POP SWAP2 SWAP1 POP JUMP JUMPDEST PUSH1 0x0 PUSH20 0xFFFFFFFFFFFFFFFFFFFFFFFFFFFFFFFFFFFFFFFF DUP3 AND SWAP1 POP SWAP2 SWAP1 POP JUMP JUMPDEST PUSH1 0x0 DUP2 SWAP1 POP SWAP2 SWAP1 POP JUMP JUMPDEST PUSH32 0x4C61206964206465206C6120504352206E6F20636F696E6369646520636F6E20 PUSH1 0x0 DUP3 ADD MSTORE PUSH32 0x6C6120696E74726F647563696461000000000000000000000000000000000000 PUSH1 0x20 DUP3 ADD MSTORE POP JUMP JUMPDEST PUSH32 0x546869732050435220686173206265656E2064656C657465642E000000000000 PUSH1 0x0 DUP3 ADD MSTORE POP JUMP JUMPDEST PUSH32 0x4C61206964206465206C6120706F6C697A61206E6F20636F696E636964652063 PUSH1 0x0 DUP3 ADD MSTORE PUSH32 0x6F6E206C6120696E74726F647563696461000000000000000000000000000000 PUSH1 0x20 DUP3 ADD MSTORE POP JUMP JUMPDEST PUSH32 0x504352732063616E206F6E6C7920557064617465206F6E636500000000000000 PUSH1 0x0 DUP3 ADD MSTORE POP JUMP JUMPDEST PUSH32 0x496E737572616E636520616E642050435220696473206861766520746F206265 PUSH1 0x0 DUP3 ADD MSTORE PUSH32 0x207468652073616D6520617320746865206F6E657320696E207468697320636F PUSH1 0x20 DUP3 ADD MSTORE PUSH32 0x6E74726163740000000000000000000000000000000000000000000000000000 PUSH1 0x40 DUP3 ADD MSTORE POP JUMP JUMPDEST PUSH2 0x9F6 DUP2 PUSH2 0x854 JUMP JUMPDEST DUP2 EQ PUSH2 0xA01 JUMPI PUSH1 0x0 DUP1 REVERT JUMPDEST POP JUMP JUMPDEST PUSH2 0xA0D DUP2 PUSH2 0x87E JUMP JUMPDEST DUP2 EQ PUSH2 0xA18 JUMPI PUSH1 0x0 DUP1 REVERT JUMPDEST POP JUMP INVALID LOG2 PUSH5 0x6970667358 0x22 SLT KECCAK256 0xE4 MSTORE 0xC9 0xA9 SDIV SIGNEXTEND NOT 0xCC LOG0 0xA8 SWAP16 GAS SHR MSTORE8 PUSH4 0x29183CBD MOD 0x48 SWAP11 PUSH29 0x98AABE934554B87B3C64736F6C63430008030033000000000000000000 "
    },
    "gasEstimates": {
      "creation": {
        "codeDepositCost": "528200",
        "executionCost": "infinite",
        "totalCost": "infinite"
      },
      "external": {
        "deletePCR()": "72915",
        "destructContract()": "31888",
        "getId()": "2071",
        "getPCRData(bytes32,bytes32)": "infinite",
        "updatePCR(bytes32,uint256,bytes32,bytes32)": "infinite"
      }
    },
    "methodIdentifiers": {
      "deletePCR()": "34b1794c",
      "destructContract()": "9499e018",
      "getId()": "5d1ca631",
      "getPCRData(bytes32,bytes32)": "01a61b5c",
      "updatePCR(bytes32,uint256,bytes32,bytes32)": "97fccd59"
    }
  },
  "storageLayout": {
    "storage": [
      {
        "astId": 1584,
        "contract": "PCR.sol:PCR",
        "label": "owner",
        "offset": 0,
        "slot": "0",
        "type": "t_address_payable"
      },
      {
        "astId": 1586,
        "contract": "PCR.sol:PCR",
        "label": "completed",
        "offset": 20,
        "slot": "0",
        "type": "t_bool"
      },
      {
        "astId": 1588,
        "contract": "PCR.sol:PCR",
        "label": "deleted",
        "offset": 21,
        "slot": "0",
        "type": "t_bool"
      },
      {
        "astId": 1591,
        "contract": "PCR.sol:PCR",
        "label": "pcrData",
        "offset": 0,
        "slot": "1",
        "type": "t_struct(PCRData)1582_storage"
      }
    ],
    "types": {
      "t_address": {
        "encoding": "inplace",
        "label": "address",
        "numberOfBytes": "20"
      },
      "t_address_payable": {
        "encoding": "inplace",
        "label": "address payable",
        "numberOfBytes": "20"
      },
      "t_bool": {
        "encoding": "inplace",
        "label": "bool",
        "numberOfBytes": "1"
      },
      "t_bytes32": {
        "encoding": "inplace",
        "label": "bytes32",
        "numberOfBytes": "32"
      },
      "t_struct(PCRData)1582_storage": {
        "encoding": "inplace",
        "label": "struct PCR.PCRData",
        "members": [
          {
            "astId": 1569,
            "contract": "PCR.sol:PCR",
            "label": "insuranceId",
            "offset": 0,
            "slot": "0",
            "type": "t_bytes32"
          },
          {
            "astId": 1571,
            "contract": "PCR.sol:PCR",
            "label": "result",
            "offset": 0,
            "slot": "1",
            "type": "t_bytes32"
          },
          {
            "astId": 1573,
            "contract": "PCR.sol:PCR",
            "label": "id",
            "offset": 0,
            "slot": "2",
            "type": "t_bytes32"
          },
          {
            "astId": 1575,
            "contract": "PCR.sol:PCR",
            "label": "insuredId",
            "offset": 0,
            "slot": "3",
            "type": "t_bytes32"
          },
          {
            "astId": 1577,
            "contract": "PCR.sol:PCR",
            "label": "requestDate",
            "offset": 0,
            "slot": "4",
            "type": "t_uint256"
          },
          {
            "astId": 1579,
            "contract": "PCR.sol:PCR",
            "label": "resultDate",
            "offset": 0,
            "slot": "5",
            "type": "t_uint256"
          },
          {
            "astId": 1581,
            "contract": "PCR.sol:PCR",
            "label": "insuranceAddress",
            "offset": 0,
            "slot": "6",
            "type": "t_address"
          }
        ],
        "numberOfBytes": "224"
      },
      "t_uint256": {
        "encoding": "inplace",
        "label": "uint256",
        "numberOfBytes": "32"
      }
    }
  },
  "userdoc": {
    "kind": "user",
    "methods": {
      "constructor": {
        "notice": "Initialize the PCR."
      },
      "deletePCR()": {
        "notice": "Delete the actual PCR."
      },
      "destructContract()": {
        "notice": "Delete the contract of the blockchain."
      },
      "getId()": {
        "notice": "Returns only the PCR id."
      },
      "getPCRData(bytes32,bytes32)": {
        "notice": "Returns PCR data."
      },
      "updatePCR(bytes32,uint256,bytes32,bytes32)": {
        "notice": "Update de pcr result state from the laboratory."
      }
    },
    "version": 1
  }
}