{
  "abi": [
    {
      "inputs": [
        {
          "internalType": "bytes32",
          "name": "_id",
          "type": "bytes32"
        },
        {
          "internalType": "bytes32",
          "name": "_insuranceId",
          "type": "bytes32"
        },
        {
          "internalType": "bytes32",
          "name": "_insuredId",
          "type": "bytes32"
        },
        {
          "internalType": "uint256",
          "name": "_requestDate",
          "type": "uint256"
        }
      ],
      "stateMutability": "nonpayable",
      "type": "constructor"
    },
    {
      "anonymous": false,
      "inputs": [
        {
          "indexed": false,
          "internalType": "bytes32",
          "name": "insuranceId",
          "type": "bytes32"
        },
        {
          "indexed": false,
          "internalType": "bytes32",
          "name": "pcrId",
          "type": "bytes32"
        },
        {
          "indexed": false,
          "internalType": "bytes32",
          "name": "result",
          "type": "bytes32"
        },
        {
          "indexed": false,
          "internalType": "uint256",
          "name": "resultDate",
          "type": "uint256"
        }
      ],
      "name": "pcrUpdate",
      "type": "event"
    },
    {
      "inputs": [],
      "name": "deletePCR",
      "outputs": [],
      "stateMutability": "nonpayable",
      "type": "function"
    },
    {
      "inputs": [],
      "name": "destructContract",
      "outputs": [],
      "stateMutability": "nonpayable",
      "type": "function"
    },
    {
      "inputs": [],
      "name": "getId",
      "outputs": [
        {
          "internalType": "bytes32",
          "name": "id",
          "type": "bytes32"
        }
      ],
      "stateMutability": "view",
      "type": "function"
    },
    {
      "inputs": [],
      "name": "getPCRData",
      "outputs": [
        {
          "internalType": "bytes32",
          "name": "result",
          "type": "bytes32"
        },
        {
          "internalType": "bytes32",
          "name": "customerId",
          "type": "bytes32"
        },
        {
          "internalType": "uint256",
          "name": "requestDate",
          "type": "uint256"
        },
        {
          "internalType": "uint256",
          "name": "resultDate",
          "type": "uint256"
        },
        {
          "internalType": "bytes32",
          "name": "id",
          "type": "bytes32"
        },
        {
          "internalType": "address",
          "name": "pcrContractAddress",
          "type": "address"
        },
        {
          "internalType": "bytes32",
          "name": "insuranceId",
          "type": "bytes32"
        }
      ],
      "stateMutability": "view",
      "type": "function"
    },
    {
      "inputs": [
        {
          "internalType": "bytes32",
          "name": "_result",
          "type": "bytes32"
        },
        {
          "internalType": "uint256",
          "name": "_resultDate",
          "type": "uint256"
        }
      ],
      "name": "updatePCR",
      "outputs": [],
      "stateMutability": "nonpayable",
      "type": "function"
    }
  ],
  "devdoc": {
    "author": "Eduardo Suarez Ojeda",
    "details": "The Contract represents the life cycle of a PCR linked to an insured.",
    "kind": "dev",
    "methods": {
      "deletePCR()": {
        "details": "Makes every method inaccessible except the one that returns the data."
      },
      "destructContract()": {
        "details": "Only use in extreme situations."
      }
    },
    "title": "PCR",
    "version": 1
  },
  "evm": {
    "assembly": "    /* \"PCR.sol\":157:2575  contract PCR {... */\n  mstore(0x40, 0x80)\n    /* \"PCR.sol\":751:1176  constructor(... */\n  callvalue\n  dup1\n  iszero\n  tag_1\n  jumpi\n  0x00\n  dup1\n  revert\ntag_1:\n  pop\n  mload(0x40)\n  sub(codesize, bytecodeSize)\n  dup1\n  bytecodeSize\n  dup4\n  codecopy\n  dup2\n  dup2\n  add\n  0x40\n  mstore\n  dup2\n  add\n  swap1\n  tag_2\n  swap2\n  swap1\n  tag_3\n  jump\t// in\ntag_2:\n    /* \"PCR.sol\":909:919  _insuredId */\n  dup2\n    /* \"PCR.sol\":889:896  pcrData */\n  0x01\n    /* \"PCR.sol\":889:906  pcrData.insuredId */\n  0x03\n  add\n    /* \"PCR.sol\":889:919  pcrData.insuredId = _insuredId */\n  dup2\n  swap1\n  sstore\n  pop\n    /* \"PCR.sol\":951:963  _insuranceId */\n  dup3\n    /* \"PCR.sol\":929:936  pcrData */\n  0x01\n    /* \"PCR.sol\":929:948  pcrData.insuranceId */\n  0x00\n  add\n    /* \"PCR.sol\":929:963  pcrData.insuranceId = _insuranceId */\n  dup2\n  swap1\n  sstore\n  pop\n    /* \"PCR.sol\":986:989  _id */\n  dup4\n    /* \"PCR.sol\":973:980  pcrData */\n  0x01\n    /* \"PCR.sol\":973:983  pcrData.id */\n  0x02\n  add\n    /* \"PCR.sol\":973:989  pcrData.id = _id */\n  dup2\n  swap1\n  sstore\n  pop\n    /* \"PCR.sol\":1015:1025  msg.sender */\n  caller\n    /* \"PCR.sol\":999:1004  owner */\n  0x00\n  dup1\n    /* \"PCR.sol\":999:1026  owner = payable(msg.sender) */\n  0x0100\n  exp\n  dup2\n  sload\n  dup2\n  0xffffffffffffffffffffffffffffffffffffffff\n  mul\n  not\n  and\n  swap1\n  dup4\n  0xffffffffffffffffffffffffffffffffffffffff\n  and\n  mul\n  or\n  swap1\n  sstore\n  pop\n    /* \"PCR.sol\":1048:1053  false */\n  0x00\n    /* \"PCR.sol\":1036:1045  completed */\n  dup1\n  0x14\n    /* \"PCR.sol\":1036:1053  completed = false */\n  0x0100\n  exp\n  dup2\n  sload\n  dup2\n  0xff\n  mul\n  not\n  and\n  swap1\n  dup4\n  iszero\n  iszero\n  mul\n  or\n  swap1\n  sstore\n  pop\n    /* \"PCR.sol\":1085:1097  _requestDate */\n  dup1\n    /* \"PCR.sol\":1063:1070  pcrData */\n  0x01\n    /* \"PCR.sol\":1063:1082  pcrData.requestDate */\n  0x04\n  add\n    /* \"PCR.sol\":1063:1097  pcrData.requestDate = _requestDate */\n  dup2\n  swap1\n  sstore\n  pop\n    /* \"PCR.sol\":1107:1135  pcrData.result = \"UNDEFINED\" */\n  0x554e444546494e45440000000000000000000000000000000000000000000000\n    /* \"PCR.sol\":1107:1114  pcrData */\n  0x01\n    /* \"PCR.sol\":1107:1121  pcrData.result */\n  dup1\n  add\n    /* \"PCR.sol\":1107:1135  pcrData.result = \"UNDEFINED\" */\n  dup2\n  swap1\n  sstore\n  pop\n    /* \"PCR.sol\":1155:1160  false */\n  0x00\n    /* \"PCR.sol\":1145:1152  deleted */\n  dup1\n  0x15\n    /* \"PCR.sol\":1145:1160  deleted = false */\n  0x0100\n  exp\n  dup2\n  sload\n  dup2\n  0xff\n  mul\n  not\n  and\n  swap1\n  dup4\n  iszero\n  iszero\n  mul\n  or\n  swap1\n  sstore\n  pop\n    /* \"PCR.sol\":751:1176  constructor(... */\n  pop\n  pop\n  pop\n  pop\n    /* \"PCR.sol\":157:2575  contract PCR {... */\n  jump(tag_6)\n    /* \"#utility.yul\":7:150   */\ntag_8:\n  0x00\n    /* \"#utility.yul\":95:101   */\n  dup2\n    /* \"#utility.yul\":89:102   */\n  mload\n    /* \"#utility.yul\":80:102   */\n  swap1\n  pop\n    /* \"#utility.yul\":111:144   */\n  tag_10\n    /* \"#utility.yul\":138:143   */\n  dup2\n    /* \"#utility.yul\":111:144   */\n  tag_11\n  jump\t// in\ntag_10:\n    /* \"#utility.yul\":70:150   */\n  swap3\n  swap2\n  pop\n  pop\n  jump\t// out\n    /* \"#utility.yul\":156:299   */\ntag_12:\n  0x00\n    /* \"#utility.yul\":244:250   */\n  dup2\n    /* \"#utility.yul\":238:251   */\n  mload\n    /* \"#utility.yul\":229:251   */\n  swap1\n  pop\n    /* \"#utility.yul\":260:293   */\n  tag_14\n    /* \"#utility.yul\":287:292   */\n  dup2\n    /* \"#utility.yul\":260:293   */\n  tag_15\n  jump\t// in\ntag_14:\n    /* \"#utility.yul\":219:299   */\n  swap3\n  swap2\n  pop\n  pop\n  jump\t// out\n    /* \"#utility.yul\":305:1058   */\ntag_3:\n  0x00\n  dup1\n  0x00\n  dup1\n    /* \"#utility.yul\":475:478   */\n  0x80\n    /* \"#utility.yul\":463:472   */\n  dup6\n    /* \"#utility.yul\":454:461   */\n  dup8\n    /* \"#utility.yul\":450:473   */\n  sub\n    /* \"#utility.yul\":446:479   */\n  slt\n    /* \"#utility.yul\":443:445   */\n  iszero\n  tag_17\n  jumpi\n    /* \"#utility.yul\":492:493   */\n  0x00\n    /* \"#utility.yul\":489:490   */\n  dup1\n    /* \"#utility.yul\":482:494   */\n  revert\n    /* \"#utility.yul\":443:445   */\ntag_17:\n    /* \"#utility.yul\":535:536   */\n  0x00\n    /* \"#utility.yul\":560:624   */\n  tag_18\n    /* \"#utility.yul\":616:623   */\n  dup8\n    /* \"#utility.yul\":607:613   */\n  dup3\n    /* \"#utility.yul\":596:605   */\n  dup9\n    /* \"#utility.yul\":592:614   */\n  add\n    /* \"#utility.yul\":560:624   */\n  tag_8\n  jump\t// in\ntag_18:\n    /* \"#utility.yul\":550:624   */\n  swap5\n  pop\n    /* \"#utility.yul\":506:634   */\n  pop\n    /* \"#utility.yul\":673:675   */\n  0x20\n    /* \"#utility.yul\":699:763   */\n  tag_19\n    /* \"#utility.yul\":755:762   */\n  dup8\n    /* \"#utility.yul\":746:752   */\n  dup3\n    /* \"#utility.yul\":735:744   */\n  dup9\n    /* \"#utility.yul\":731:753   */\n  add\n    /* \"#utility.yul\":699:763   */\n  tag_8\n  jump\t// in\ntag_19:\n    /* \"#utility.yul\":689:763   */\n  swap4\n  pop\n    /* \"#utility.yul\":644:773   */\n  pop\n    /* \"#utility.yul\":812:814   */\n  0x40\n    /* \"#utility.yul\":838:902   */\n  tag_20\n    /* \"#utility.yul\":894:901   */\n  dup8\n    /* \"#utility.yul\":885:891   */\n  dup3\n    /* \"#utility.yul\":874:883   */\n  dup9\n    /* \"#utility.yul\":870:892   */\n  add\n    /* \"#utility.yul\":838:902   */\n  tag_8\n  jump\t// in\ntag_20:\n    /* \"#utility.yul\":828:902   */\n  swap3\n  pop\n    /* \"#utility.yul\":783:912   */\n  pop\n    /* \"#utility.yul\":951:953   */\n  0x60\n    /* \"#utility.yul\":977:1041   */\n  tag_21\n    /* \"#utility.yul\":1033:1040   */\n  dup8\n    /* \"#utility.yul\":1024:1030   */\n  dup3\n    /* \"#utility.yul\":1013:1022   */\n  dup9\n    /* \"#utility.yul\":1009:1031   */\n  add\n    /* \"#utility.yul\":977:1041   */\n  tag_12\n  jump\t// in\ntag_21:\n    /* \"#utility.yul\":967:1041   */\n  swap2\n  pop\n    /* \"#utility.yul\":922:1051   */\n  pop\n    /* \"#utility.yul\":433:1058   */\n  swap3\n  swap6\n  swap2\n  swap5\n  pop\n  swap3\n  pop\n  jump\t// out\n    /* \"#utility.yul\":1064:1141   */\ntag_22:\n  0x00\n    /* \"#utility.yul\":1130:1135   */\n  dup2\n    /* \"#utility.yul\":1119:1135   */\n  swap1\n  pop\n    /* \"#utility.yul\":1109:1141   */\n  swap2\n  swap1\n  pop\n  jump\t// out\n    /* \"#utility.yul\":1147:1224   */\ntag_24:\n  0x00\n    /* \"#utility.yul\":1213:1218   */\n  dup2\n    /* \"#utility.yul\":1202:1218   */\n  swap1\n  pop\n    /* \"#utility.yul\":1192:1224   */\n  swap2\n  swap1\n  pop\n  jump\t// out\n    /* \"#utility.yul\":1230:1352   */\ntag_11:\n    /* \"#utility.yul\":1303:1327   */\n  tag_27\n    /* \"#utility.yul\":1321:1326   */\n  dup2\n    /* \"#utility.yul\":1303:1327   */\n  tag_22\n  jump\t// in\ntag_27:\n    /* \"#utility.yul\":1296:1301   */\n  dup2\n    /* \"#utility.yul\":1293:1328   */\n  eq\n    /* \"#utility.yul\":1283:1285   */\n  tag_28\n  jumpi\n    /* \"#utility.yul\":1342:1343   */\n  0x00\n    /* \"#utility.yul\":1339:1340   */\n  dup1\n    /* \"#utility.yul\":1332:1344   */\n  revert\n    /* \"#utility.yul\":1283:1285   */\ntag_28:\n    /* \"#utility.yul\":1273:1352   */\n  pop\n  jump\t// out\n    /* \"#utility.yul\":1358:1480   */\ntag_15:\n    /* \"#utility.yul\":1431:1455   */\n  tag_30\n    /* \"#utility.yul\":1449:1454   */\n  dup2\n    /* \"#utility.yul\":1431:1455   */\n  tag_24\n  jump\t// in\ntag_30:\n    /* \"#utility.yul\":1424:1429   */\n  dup2\n    /* \"#utility.yul\":1421:1456   */\n  eq\n    /* \"#utility.yul\":1411:1413   */\n  tag_31\n  jumpi\n    /* \"#utility.yul\":1470:1471   */\n  0x00\n    /* \"#utility.yul\":1467:1468   */\n  dup1\n    /* \"#utility.yul\":1460:1472   */\n  revert\n    /* \"#utility.yul\":1411:1413   */\ntag_31:\n    /* \"#utility.yul\":1401:1480   */\n  pop\n  jump\t// out\n    /* \"PCR.sol\":157:2575  contract PCR {... */\ntag_6:\n  dataSize(sub_0)\n  dup1\n  dataOffset(sub_0)\n  0x00\n  codecopy\n  0x00\n  return\nstop\n\nsub_0: assembly {\n        /* \"PCR.sol\":157:2575  contract PCR {... */\n      mstore(0x40, 0x80)\n      callvalue\n      dup1\n      iszero\n      tag_1\n      jumpi\n      0x00\n      dup1\n      revert\n    tag_1:\n      pop\n      jumpi(tag_2, lt(calldatasize, 0x04))\n      shr(0xe0, calldataload(0x00))\n      dup1\n      0x03202017\n      eq\n      tag_3\n      jumpi\n      dup1\n      0x34b1794c\n      eq\n      tag_4\n      jumpi\n      dup1\n      0x512a0c86\n      eq\n      tag_5\n      jumpi\n      dup1\n      0x5d1ca631\n      eq\n      tag_6\n      jumpi\n      dup1\n      0x9499e018\n      eq\n      tag_7\n      jumpi\n    tag_2:\n      0x00\n      dup1\n      revert\n        /* \"PCR.sol\":1594:1989  function getPCRData() external view returns(... */\n    tag_3:\n      tag_8\n      tag_9\n      jump\t// in\n    tag_8:\n      mload(0x40)\n      tag_10\n      swap8\n      swap7\n      swap6\n      swap5\n      swap4\n      swap3\n      swap2\n      swap1\n      tag_11\n      jump\t// in\n    tag_10:\n      mload(0x40)\n      dup1\n      swap2\n      sub\n      swap1\n      return\n        /* \"PCR.sol\":2260:2356  function deletePCR() notDeleted external {... */\n    tag_4:\n      tag_12\n      tag_13\n      jump\t// in\n    tag_12:\n      stop\n        /* \"PCR.sol\":1246:1554  function updatePCR(bytes32 _result, uint256 _resultDate) external notDeleted {... */\n    tag_5:\n      tag_14\n      0x04\n      dup1\n      calldatasize\n      sub\n      dup2\n      add\n      swap1\n      tag_15\n      swap2\n      swap1\n      tag_16\n      jump\t// in\n    tag_15:\n      tag_17\n      jump\t// in\n    tag_14:\n      stop\n        /* \"PCR.sol\":2036:2132  function getId() external view notDeleted returns(bytes32 id) {... */\n    tag_6:\n      tag_18\n      tag_19\n      jump\t// in\n    tag_18:\n      mload(0x40)\n      tag_20\n      swap2\n      swap1\n      tag_21\n      jump\t// in\n    tag_20:\n      mload(0x40)\n      dup1\n      swap2\n      sub\n      swap1\n      return\n        /* \"PCR.sol\":2462:2573  function destructContract() external {... */\n    tag_7:\n      tag_22\n      tag_23\n      jump\t// in\n    tag_22:\n      stop\n        /* \"PCR.sol\":1594:1989  function getPCRData() external view returns(... */\n    tag_9:\n        /* \"PCR.sol\":1647:1661  bytes32 result */\n      0x00\n        /* \"PCR.sol\":1672:1690  bytes32 customerId */\n      dup1\n        /* \"PCR.sol\":1701:1720  uint256 requestDate */\n      0x00\n        /* \"PCR.sol\":1731:1749  uint256 resultDate */\n      dup1\n        /* \"PCR.sol\":1760:1770  bytes32 id */\n      0x00\n        /* \"PCR.sol\":1780:1806  address pcrContractAddress */\n      dup1\n        /* \"PCR.sol\":1816:1835  bytes32 insuranceId */\n      0x00\n        /* \"PCR.sol\":1860:1867  pcrData */\n      0x01\n        /* \"PCR.sol\":1860:1874  pcrData.result */\n      dup1\n      add\n      sload\n        /* \"PCR.sol\":1876:1883  pcrData */\n      0x01\n        /* \"PCR.sol\":1876:1893  pcrData.insuredId */\n      0x03\n      add\n      sload\n        /* \"PCR.sol\":1895:1902  pcrData */\n      0x01\n        /* \"PCR.sol\":1895:1914  pcrData.requestDate */\n      0x04\n      add\n      sload\n        /* \"PCR.sol\":1916:1923  pcrData */\n      0x01\n        /* \"PCR.sol\":1916:1934  pcrData.resultDate */\n      0x05\n      add\n      sload\n        /* \"PCR.sol\":1936:1943  pcrData */\n      0x01\n        /* \"PCR.sol\":1936:1946  pcrData.id */\n      0x02\n      add\n      sload\n        /* \"PCR.sol\":1956:1960  this */\n      address\n        /* \"PCR.sol\":1962:1969  pcrData */\n      0x01\n        /* \"PCR.sol\":1962:1981  pcrData.insuranceId */\n      0x00\n      add\n      sload\n        /* \"PCR.sol\":1852:1982  return (pcrData.result, pcrData.insuredId, pcrData.requestDate, pcrData.resultDate, pcrData.id, address(this),pcrData.insuranceId) */\n      swap7\n      pop\n      swap7\n      pop\n      swap7\n      pop\n      swap7\n      pop\n      swap7\n      pop\n      swap7\n      pop\n      swap7\n      pop\n        /* \"PCR.sol\":1594:1989  function getPCRData() external view returns(... */\n      swap1\n      swap2\n      swap3\n      swap4\n      swap5\n      swap6\n      swap7\n      jump\t// out\n        /* \"PCR.sol\":2260:2356  function deletePCR() notDeleted external {... */\n    tag_13:\n        /* \"PCR.sol\":653:660  deleted */\n      0x00\n      0x15\n      swap1\n      sload\n      swap1\n      0x0100\n      exp\n      swap1\n      div\n      0xff\n      and\n        /* \"PCR.sol\":652:660  !deleted */\n      iszero\n        /* \"PCR.sol\":644:691  require(!deleted, \"This PCR has been deleted.\") */\n      tag_26\n      jumpi\n      mload(0x40)\n      0x08c379a000000000000000000000000000000000000000000000000000000000\n      dup2\n      mstore\n      0x04\n      add\n      tag_27\n      swap1\n      tag_28\n      jump\t// in\n    tag_27:\n      mload(0x40)\n      dup1\n      swap2\n      sub\n      swap1\n      revert\n    tag_26:\n        /* \"PCR.sol\":2321:2325  true */\n      0x01\n        /* \"PCR.sol\":2311:2318  deleted */\n      0x00\n      0x15\n        /* \"PCR.sol\":2311:2325  deleted = true */\n      0x0100\n      exp\n      dup2\n      sload\n      dup2\n      0xff\n      mul\n      not\n      and\n      swap1\n      dup4\n      iszero\n      iszero\n      mul\n      or\n      swap1\n      sstore\n      pop\n        /* \"PCR.sol\":2342:2349  pcrData */\n      0x01\n      0x00\n        /* \"PCR.sol\":2335:2349  delete pcrData */\n      dup1\n      dup3\n      add\n      0x00\n      swap1\n      sstore\n      0x01\n      dup3\n      add\n      0x00\n      swap1\n      sstore\n      0x02\n      dup3\n      add\n      0x00\n      swap1\n      sstore\n      0x03\n      dup3\n      add\n      0x00\n      swap1\n      sstore\n      0x04\n      dup3\n      add\n      0x00\n      swap1\n      sstore\n      0x05\n      dup3\n      add\n      0x00\n      swap1\n      sstore\n      pop\n      pop\n        /* \"PCR.sol\":2260:2356  function deletePCR() notDeleted external {... */\n      jump\t// out\n        /* \"PCR.sol\":1246:1554  function updatePCR(bytes32 _result, uint256 _resultDate) external notDeleted {... */\n    tag_17:\n        /* \"PCR.sol\":653:660  deleted */\n      0x00\n      0x15\n      swap1\n      sload\n      swap1\n      0x0100\n      exp\n      swap1\n      div\n      0xff\n      and\n        /* \"PCR.sol\":652:660  !deleted */\n      iszero\n        /* \"PCR.sol\":644:691  require(!deleted, \"This PCR has been deleted.\") */\n      tag_31\n      jumpi\n      mload(0x40)\n      0x08c379a000000000000000000000000000000000000000000000000000000000\n      dup2\n      mstore\n      0x04\n      add\n      tag_32\n      swap1\n      tag_28\n      jump\t// in\n    tag_32:\n      mload(0x40)\n      dup1\n      swap2\n      sub\n      swap1\n      revert\n    tag_31:\n        /* \"PCR.sol\":1342:1351  completed */\n      0x00\n      0x14\n      swap1\n      sload\n      swap1\n      0x0100\n      exp\n      swap1\n      div\n      0xff\n      and\n        /* \"PCR.sol\":1341:1351  !completed */\n      iszero\n        /* \"PCR.sol\":1333:1352  require(!completed) */\n      tag_34\n      jumpi\n      0x00\n      dup1\n      revert\n    tag_34:\n        /* \"PCR.sol\":1374:1378  true */\n      0x01\n        /* \"PCR.sol\":1362:1371  completed */\n      0x00\n      0x14\n        /* \"PCR.sol\":1362:1378  completed = true */\n      0x0100\n      exp\n      dup2\n      sload\n      dup2\n      0xff\n      mul\n      not\n      and\n      swap1\n      dup4\n      iszero\n      iszero\n      mul\n      or\n      swap1\n      sstore\n      pop\n        /* \"PCR.sol\":1405:1412  _result */\n      dup2\n        /* \"PCR.sol\":1388:1395  pcrData */\n      0x01\n        /* \"PCR.sol\":1388:1402  pcrData.result */\n      dup1\n      add\n        /* \"PCR.sol\":1388:1412  pcrData.result = _result */\n      dup2\n      swap1\n      sstore\n      pop\n        /* \"PCR.sol\":1443:1454  _resultDate */\n      dup1\n        /* \"PCR.sol\":1422:1429  pcrData */\n      0x01\n        /* \"PCR.sol\":1422:1440  pcrData.resultDate */\n      0x05\n      add\n        /* \"PCR.sol\":1422:1454  pcrData.resultDate = _resultDate */\n      dup2\n      swap1\n      sstore\n      pop\n        /* \"PCR.sol\":1469:1547  pcrUpdate(pcrData.insuranceId, pcrData.id, pcrData.result, pcrData.resultDate) */\n      0xa0f53cc16ce55b7914839af2c6e52aa179efd63404bb6cb37126faacecee5adb\n        /* \"PCR.sol\":1479:1486  pcrData */\n      0x01\n        /* \"PCR.sol\":1479:1498  pcrData.insuranceId */\n      0x00\n      add\n      sload\n        /* \"PCR.sol\":1500:1507  pcrData */\n      0x01\n        /* \"PCR.sol\":1500:1510  pcrData.id */\n      0x02\n      add\n      sload\n        /* \"PCR.sol\":1512:1519  pcrData */\n      0x01\n        /* \"PCR.sol\":1512:1526  pcrData.result */\n      dup1\n      add\n      sload\n        /* \"PCR.sol\":1528:1535  pcrData */\n      0x01\n        /* \"PCR.sol\":1528:1546  pcrData.resultDate */\n      0x05\n      add\n      sload\n        /* \"PCR.sol\":1469:1547  pcrUpdate(pcrData.insuranceId, pcrData.id, pcrData.result, pcrData.resultDate) */\n      mload(0x40)\n      tag_35\n      swap5\n      swap4\n      swap3\n      swap2\n      swap1\n      tag_36\n      jump\t// in\n    tag_35:\n      mload(0x40)\n      dup1\n      swap2\n      sub\n      swap1\n      log1\n        /* \"PCR.sol\":1246:1554  function updatePCR(bytes32 _result, uint256 _resultDate) external notDeleted {... */\n      pop\n      pop\n      jump\t// out\n        /* \"PCR.sol\":2036:2132  function getId() external view notDeleted returns(bytes32 id) {... */\n    tag_19:\n        /* \"PCR.sol\":2086:2096  bytes32 id */\n      0x00\n        /* \"PCR.sol\":653:660  deleted */\n      dup1\n      0x15\n      swap1\n      sload\n      swap1\n      0x0100\n      exp\n      swap1\n      div\n      0xff\n      and\n        /* \"PCR.sol\":652:660  !deleted */\n      iszero\n        /* \"PCR.sol\":644:691  require(!deleted, \"This PCR has been deleted.\") */\n      tag_38\n      jumpi\n      mload(0x40)\n      0x08c379a000000000000000000000000000000000000000000000000000000000\n      dup2\n      mstore\n      0x04\n      add\n      tag_39\n      swap1\n      tag_28\n      jump\t// in\n    tag_39:\n      mload(0x40)\n      dup1\n      swap2\n      sub\n      swap1\n      revert\n    tag_38:\n        /* \"PCR.sol\":2115:2122  pcrData */\n      0x01\n        /* \"PCR.sol\":2115:2125  pcrData.id */\n      0x02\n      add\n      sload\n        /* \"PCR.sol\":2108:2125  return pcrData.id */\n      swap1\n      pop\n        /* \"PCR.sol\":2036:2132  function getId() external view notDeleted returns(bytes32 id) {... */\n      swap1\n      jump\t// out\n        /* \"PCR.sol\":2462:2573  function destructContract() external {... */\n    tag_23:\n        /* \"PCR.sol\":2531:2536  owner */\n      0x00\n      dup1\n      sload\n      swap1\n      0x0100\n      exp\n      swap1\n      div\n      0xffffffffffffffffffffffffffffffffffffffff\n      and\n        /* \"PCR.sol\":2517:2536  msg.sender == owner */\n      0xffffffffffffffffffffffffffffffffffffffff\n      and\n        /* \"PCR.sol\":2517:2527  msg.sender */\n      caller\n        /* \"PCR.sol\":2517:2536  msg.sender == owner */\n      0xffffffffffffffffffffffffffffffffffffffff\n      and\n      eq\n        /* \"PCR.sol\":2509:2537  require(msg.sender == owner) */\n      tag_42\n      jumpi\n      0x00\n      dup1\n      revert\n    tag_42:\n        /* \"PCR.sol\":2560:2565  owner */\n      0x00\n      dup1\n      sload\n      swap1\n      0x0100\n      exp\n      swap1\n      div\n      0xffffffffffffffffffffffffffffffffffffffff\n      and\n        /* \"PCR.sol\":2547:2566  selfdestruct(owner) */\n      0xffffffffffffffffffffffffffffffffffffffff\n      and\n      selfdestruct\n        /* \"#utility.yul\":7:146   */\n    tag_44:\n      0x00\n        /* \"#utility.yul\":91:97   */\n      dup2\n        /* \"#utility.yul\":78:98   */\n      calldataload\n        /* \"#utility.yul\":69:98   */\n      swap1\n      pop\n        /* \"#utility.yul\":107:140   */\n      tag_46\n        /* \"#utility.yul\":134:139   */\n      dup2\n        /* \"#utility.yul\":107:140   */\n      tag_47\n      jump\t// in\n    tag_46:\n        /* \"#utility.yul\":59:146   */\n      swap3\n      swap2\n      pop\n      pop\n      jump\t// out\n        /* \"#utility.yul\":152:291   */\n    tag_48:\n      0x00\n        /* \"#utility.yul\":236:242   */\n      dup2\n        /* \"#utility.yul\":223:243   */\n      calldataload\n        /* \"#utility.yul\":214:243   */\n      swap1\n      pop\n        /* \"#utility.yul\":252:285   */\n      tag_50\n        /* \"#utility.yul\":279:284   */\n      dup2\n        /* \"#utility.yul\":252:285   */\n      tag_51\n      jump\t// in\n    tag_50:\n        /* \"#utility.yul\":204:291   */\n      swap3\n      swap2\n      pop\n      pop\n      jump\t// out\n        /* \"#utility.yul\":297:704   */\n    tag_16:\n      0x00\n      dup1\n        /* \"#utility.yul\":422:424   */\n      0x40\n        /* \"#utility.yul\":410:419   */\n      dup4\n        /* \"#utility.yul\":401:408   */\n      dup6\n        /* \"#utility.yul\":397:420   */\n      sub\n        /* \"#utility.yul\":393:425   */\n      slt\n        /* \"#utility.yul\":390:392   */\n      iszero\n      tag_53\n      jumpi\n        /* \"#utility.yul\":438:439   */\n      0x00\n        /* \"#utility.yul\":435:436   */\n      dup1\n        /* \"#utility.yul\":428:440   */\n      revert\n        /* \"#utility.yul\":390:392   */\n    tag_53:\n        /* \"#utility.yul\":481:482   */\n      0x00\n        /* \"#utility.yul\":506:559   */\n      tag_54\n        /* \"#utility.yul\":551:558   */\n      dup6\n        /* \"#utility.yul\":542:548   */\n      dup3\n        /* \"#utility.yul\":531:540   */\n      dup7\n        /* \"#utility.yul\":527:549   */\n      add\n        /* \"#utility.yul\":506:559   */\n      tag_44\n      jump\t// in\n    tag_54:\n        /* \"#utility.yul\":496:559   */\n      swap3\n      pop\n        /* \"#utility.yul\":452:569   */\n      pop\n        /* \"#utility.yul\":608:610   */\n      0x20\n        /* \"#utility.yul\":634:687   */\n      tag_55\n        /* \"#utility.yul\":679:686   */\n      dup6\n        /* \"#utility.yul\":670:676   */\n      dup3\n        /* \"#utility.yul\":659:668   */\n      dup7\n        /* \"#utility.yul\":655:677   */\n      add\n        /* \"#utility.yul\":634:687   */\n      tag_48\n      jump\t// in\n    tag_55:\n        /* \"#utility.yul\":624:687   */\n      swap2\n      pop\n        /* \"#utility.yul\":579:697   */\n      pop\n        /* \"#utility.yul\":380:704   */\n      swap3\n      pop\n      swap3\n      swap1\n      pop\n      jump\t// out\n        /* \"#utility.yul\":710:828   */\n    tag_56:\n        /* \"#utility.yul\":797:821   */\n      tag_58\n        /* \"#utility.yul\":815:820   */\n      dup2\n        /* \"#utility.yul\":797:821   */\n      tag_59\n      jump\t// in\n    tag_58:\n        /* \"#utility.yul\":792:795   */\n      dup3\n        /* \"#utility.yul\":785:822   */\n      mstore\n        /* \"#utility.yul\":775:828   */\n      pop\n      pop\n      jump\t// out\n        /* \"#utility.yul\":834:952   */\n    tag_60:\n        /* \"#utility.yul\":921:945   */\n      tag_62\n        /* \"#utility.yul\":939:944   */\n      dup2\n        /* \"#utility.yul\":921:945   */\n      tag_63\n      jump\t// in\n    tag_62:\n        /* \"#utility.yul\":916:919   */\n      dup3\n        /* \"#utility.yul\":909:946   */\n      mstore\n        /* \"#utility.yul\":899:952   */\n      pop\n      pop\n      jump\t// out\n        /* \"#utility.yul\":958:1324   */\n    tag_64:\n      0x00\n        /* \"#utility.yul\":1121:1188   */\n      tag_66\n        /* \"#utility.yul\":1185:1187   */\n      0x1a\n        /* \"#utility.yul\":1180:1183   */\n      dup4\n        /* \"#utility.yul\":1121:1188   */\n      tag_67\n      jump\t// in\n    tag_66:\n        /* \"#utility.yul\":1114:1188   */\n      swap2\n      pop\n        /* \"#utility.yul\":1197:1290   */\n      tag_68\n        /* \"#utility.yul\":1286:1289   */\n      dup3\n        /* \"#utility.yul\":1197:1290   */\n      tag_69\n      jump\t// in\n    tag_68:\n        /* \"#utility.yul\":1315:1317   */\n      0x20\n        /* \"#utility.yul\":1310:1313   */\n      dup3\n        /* \"#utility.yul\":1306:1318   */\n      add\n        /* \"#utility.yul\":1299:1318   */\n      swap1\n      pop\n        /* \"#utility.yul\":1104:1324   */\n      swap2\n      swap1\n      pop\n      jump\t// out\n        /* \"#utility.yul\":1330:1448   */\n    tag_70:\n        /* \"#utility.yul\":1417:1441   */\n      tag_72\n        /* \"#utility.yul\":1435:1440   */\n      dup2\n        /* \"#utility.yul\":1417:1441   */\n      tag_73\n      jump\t// in\n    tag_72:\n        /* \"#utility.yul\":1412:1415   */\n      dup3\n        /* \"#utility.yul\":1405:1442   */\n      mstore\n        /* \"#utility.yul\":1395:1448   */\n      pop\n      pop\n      jump\t// out\n        /* \"#utility.yul\":1454:1676   */\n    tag_21:\n      0x00\n        /* \"#utility.yul\":1585:1587   */\n      0x20\n        /* \"#utility.yul\":1574:1583   */\n      dup3\n        /* \"#utility.yul\":1570:1588   */\n      add\n        /* \"#utility.yul\":1562:1588   */\n      swap1\n      pop\n        /* \"#utility.yul\":1598:1669   */\n      tag_75\n        /* \"#utility.yul\":1666:1667   */\n      0x00\n        /* \"#utility.yul\":1655:1664   */\n      dup4\n        /* \"#utility.yul\":1651:1668   */\n      add\n        /* \"#utility.yul\":1642:1648   */\n      dup5\n        /* \"#utility.yul\":1598:1669   */\n      tag_60\n      jump\t// in\n    tag_75:\n        /* \"#utility.yul\":1552:1676   */\n      swap3\n      swap2\n      pop\n      pop\n      jump\t// out\n        /* \"#utility.yul\":1682:2235   */\n    tag_36:\n      0x00\n        /* \"#utility.yul\":1897:1900   */\n      0x80\n        /* \"#utility.yul\":1886:1895   */\n      dup3\n        /* \"#utility.yul\":1882:1901   */\n      add\n        /* \"#utility.yul\":1874:1901   */\n      swap1\n      pop\n        /* \"#utility.yul\":1911:1982   */\n      tag_77\n        /* \"#utility.yul\":1979:1980   */\n      0x00\n        /* \"#utility.yul\":1968:1977   */\n      dup4\n        /* \"#utility.yul\":1964:1981   */\n      add\n        /* \"#utility.yul\":1955:1961   */\n      dup8\n        /* \"#utility.yul\":1911:1982   */\n      tag_60\n      jump\t// in\n    tag_77:\n        /* \"#utility.yul\":1992:2064   */\n      tag_78\n        /* \"#utility.yul\":2060:2062   */\n      0x20\n        /* \"#utility.yul\":2049:2058   */\n      dup4\n        /* \"#utility.yul\":2045:2063   */\n      add\n        /* \"#utility.yul\":2036:2042   */\n      dup7\n        /* \"#utility.yul\":1992:2064   */\n      tag_60\n      jump\t// in\n    tag_78:\n        /* \"#utility.yul\":2074:2146   */\n      tag_79\n        /* \"#utility.yul\":2142:2144   */\n      0x40\n        /* \"#utility.yul\":2131:2140   */\n      dup4\n        /* \"#utility.yul\":2127:2145   */\n      add\n        /* \"#utility.yul\":2118:2124   */\n      dup6\n        /* \"#utility.yul\":2074:2146   */\n      tag_60\n      jump\t// in\n    tag_79:\n        /* \"#utility.yul\":2156:2228   */\n      tag_80\n        /* \"#utility.yul\":2224:2226   */\n      0x60\n        /* \"#utility.yul\":2213:2222   */\n      dup4\n        /* \"#utility.yul\":2209:2227   */\n      add\n        /* \"#utility.yul\":2200:2206   */\n      dup5\n        /* \"#utility.yul\":2156:2228   */\n      tag_70\n      jump\t// in\n    tag_80:\n        /* \"#utility.yul\":1864:2235   */\n      swap6\n      swap5\n      pop\n      pop\n      pop\n      pop\n      pop\n      jump\t// out\n        /* \"#utility.yul\":2241:3127   */\n    tag_11:\n      0x00\n        /* \"#utility.yul\":2540:2543   */\n      0xe0\n        /* \"#utility.yul\":2529:2538   */\n      dup3\n        /* \"#utility.yul\":2525:2544   */\n      add\n        /* \"#utility.yul\":2517:2544   */\n      swap1\n      pop\n        /* \"#utility.yul\":2554:2625   */\n      tag_82\n        /* \"#utility.yul\":2622:2623   */\n      0x00\n        /* \"#utility.yul\":2611:2620   */\n      dup4\n        /* \"#utility.yul\":2607:2624   */\n      add\n        /* \"#utility.yul\":2598:2604   */\n      dup11\n        /* \"#utility.yul\":2554:2625   */\n      tag_60\n      jump\t// in\n    tag_82:\n        /* \"#utility.yul\":2635:2707   */\n      tag_83\n        /* \"#utility.yul\":2703:2705   */\n      0x20\n        /* \"#utility.yul\":2692:2701   */\n      dup4\n        /* \"#utility.yul\":2688:2706   */\n      add\n        /* \"#utility.yul\":2679:2685   */\n      dup10\n        /* \"#utility.yul\":2635:2707   */\n      tag_60\n      jump\t// in\n    tag_83:\n        /* \"#utility.yul\":2717:2789   */\n      tag_84\n        /* \"#utility.yul\":2785:2787   */\n      0x40\n        /* \"#utility.yul\":2774:2783   */\n      dup4\n        /* \"#utility.yul\":2770:2788   */\n      add\n        /* \"#utility.yul\":2761:2767   */\n      dup9\n        /* \"#utility.yul\":2717:2789   */\n      tag_70\n      jump\t// in\n    tag_84:\n        /* \"#utility.yul\":2799:2871   */\n      tag_85\n        /* \"#utility.yul\":2867:2869   */\n      0x60\n        /* \"#utility.yul\":2856:2865   */\n      dup4\n        /* \"#utility.yul\":2852:2870   */\n      add\n        /* \"#utility.yul\":2843:2849   */\n      dup8\n        /* \"#utility.yul\":2799:2871   */\n      tag_70\n      jump\t// in\n    tag_85:\n        /* \"#utility.yul\":2881:2954   */\n      tag_86\n        /* \"#utility.yul\":2949:2952   */\n      0x80\n        /* \"#utility.yul\":2938:2947   */\n      dup4\n        /* \"#utility.yul\":2934:2953   */\n      add\n        /* \"#utility.yul\":2925:2931   */\n      dup7\n        /* \"#utility.yul\":2881:2954   */\n      tag_60\n      jump\t// in\n    tag_86:\n        /* \"#utility.yul\":2964:3037   */\n      tag_87\n        /* \"#utility.yul\":3032:3035   */\n      0xa0\n        /* \"#utility.yul\":3021:3030   */\n      dup4\n        /* \"#utility.yul\":3017:3036   */\n      add\n        /* \"#utility.yul\":3008:3014   */\n      dup6\n        /* \"#utility.yul\":2964:3037   */\n      tag_56\n      jump\t// in\n    tag_87:\n        /* \"#utility.yul\":3047:3120   */\n      tag_88\n        /* \"#utility.yul\":3115:3118   */\n      0xc0\n        /* \"#utility.yul\":3104:3113   */\n      dup4\n        /* \"#utility.yul\":3100:3119   */\n      add\n        /* \"#utility.yul\":3091:3097   */\n      dup5\n        /* \"#utility.yul\":3047:3120   */\n      tag_60\n      jump\t// in\n    tag_88:\n        /* \"#utility.yul\":2507:3127   */\n      swap9\n      swap8\n      pop\n      pop\n      pop\n      pop\n      pop\n      pop\n      pop\n      pop\n      jump\t// out\n        /* \"#utility.yul\":3133:3552   */\n    tag_28:\n      0x00\n        /* \"#utility.yul\":3337:3339   */\n      0x20\n        /* \"#utility.yul\":3326:3335   */\n      dup3\n        /* \"#utility.yul\":3322:3340   */\n      add\n        /* \"#utility.yul\":3314:3340   */\n      swap1\n      pop\n        /* \"#utility.yul\":3386:3395   */\n      dup2\n        /* \"#utility.yul\":3380:3384   */\n      dup2\n        /* \"#utility.yul\":3376:3396   */\n      sub\n        /* \"#utility.yul\":3372:3373   */\n      0x00\n        /* \"#utility.yul\":3361:3370   */\n      dup4\n        /* \"#utility.yul\":3357:3374   */\n      add\n        /* \"#utility.yul\":3350:3397   */\n      mstore\n        /* \"#utility.yul\":3414:3545   */\n      tag_90\n        /* \"#utility.yul\":3540:3544   */\n      dup2\n        /* \"#utility.yul\":3414:3545   */\n      tag_64\n      jump\t// in\n    tag_90:\n        /* \"#utility.yul\":3406:3545   */\n      swap1\n      pop\n        /* \"#utility.yul\":3304:3552   */\n      swap2\n      swap1\n      pop\n      jump\t// out\n        /* \"#utility.yul\":3558:3727   */\n    tag_67:\n      0x00\n        /* \"#utility.yul\":3676:3682   */\n      dup3\n        /* \"#utility.yul\":3671:3674   */\n      dup3\n        /* \"#utility.yul\":3664:3683   */\n      mstore\n        /* \"#utility.yul\":3716:3720   */\n      0x20\n        /* \"#utility.yul\":3711:3714   */\n      dup3\n        /* \"#utility.yul\":3707:3721   */\n      add\n        /* \"#utility.yul\":3692:3721   */\n      swap1\n      pop\n        /* \"#utility.yul\":3654:3727   */\n      swap3\n      swap2\n      pop\n      pop\n      jump\t// out\n        /* \"#utility.yul\":3733:3829   */\n    tag_59:\n      0x00\n        /* \"#utility.yul\":3799:3823   */\n      tag_93\n        /* \"#utility.yul\":3817:3822   */\n      dup3\n        /* \"#utility.yul\":3799:3823   */\n      tag_94\n      jump\t// in\n    tag_93:\n        /* \"#utility.yul\":3788:3823   */\n      swap1\n      pop\n        /* \"#utility.yul\":3778:3829   */\n      swap2\n      swap1\n      pop\n      jump\t// out\n        /* \"#utility.yul\":3835:3912   */\n    tag_63:\n      0x00\n        /* \"#utility.yul\":3901:3906   */\n      dup2\n        /* \"#utility.yul\":3890:3906   */\n      swap1\n      pop\n        /* \"#utility.yul\":3880:3912   */\n      swap2\n      swap1\n      pop\n      jump\t// out\n        /* \"#utility.yul\":3918:4044   */\n    tag_94:\n      0x00\n        /* \"#utility.yul\":3995:4037   */\n      0xffffffffffffffffffffffffffffffffffffffff\n        /* \"#utility.yul\":3988:3993   */\n      dup3\n        /* \"#utility.yul\":3984:4038   */\n      and\n        /* \"#utility.yul\":3973:4038   */\n      swap1\n      pop\n        /* \"#utility.yul\":3963:4044   */\n      swap2\n      swap1\n      pop\n      jump\t// out\n        /* \"#utility.yul\":4050:4127   */\n    tag_73:\n      0x00\n        /* \"#utility.yul\":4116:4121   */\n      dup2\n        /* \"#utility.yul\":4105:4121   */\n      swap1\n      pop\n        /* \"#utility.yul\":4095:4127   */\n      swap2\n      swap1\n      pop\n      jump\t// out\n        /* \"#utility.yul\":4133:4309   */\n    tag_69:\n        /* \"#utility.yul\":4273:4301   */\n      0x546869732050435220686173206265656e2064656c657465642e000000000000\n        /* \"#utility.yul\":4269:4270   */\n      0x00\n        /* \"#utility.yul\":4261:4267   */\n      dup3\n        /* \"#utility.yul\":4257:4271   */\n      add\n        /* \"#utility.yul\":4250:4302   */\n      mstore\n        /* \"#utility.yul\":4239:4309   */\n      pop\n      jump\t// out\n        /* \"#utility.yul\":4315:4437   */\n    tag_47:\n        /* \"#utility.yul\":4388:4412   */\n      tag_100\n        /* \"#utility.yul\":4406:4411   */\n      dup2\n        /* \"#utility.yul\":4388:4412   */\n      tag_63\n      jump\t// in\n    tag_100:\n        /* \"#utility.yul\":4381:4386   */\n      dup2\n        /* \"#utility.yul\":4378:4413   */\n      eq\n        /* \"#utility.yul\":4368:4370   */\n      tag_101\n      jumpi\n        /* \"#utility.yul\":4427:4428   */\n      0x00\n        /* \"#utility.yul\":4424:4425   */\n      dup1\n        /* \"#utility.yul\":4417:4429   */\n      revert\n        /* \"#utility.yul\":4368:4370   */\n    tag_101:\n        /* \"#utility.yul\":4358:4437   */\n      pop\n      jump\t// out\n        /* \"#utility.yul\":4443:4565   */\n    tag_51:\n        /* \"#utility.yul\":4516:4540   */\n      tag_103\n        /* \"#utility.yul\":4534:4539   */\n      dup2\n        /* \"#utility.yul\":4516:4540   */\n      tag_73\n      jump\t// in\n    tag_103:\n        /* \"#utility.yul\":4509:4514   */\n      dup2\n        /* \"#utility.yul\":4506:4541   */\n      eq\n        /* \"#utility.yul\":4496:4498   */\n      tag_104\n      jumpi\n        /* \"#utility.yul\":4555:4556   */\n      0x00\n        /* \"#utility.yul\":4552:4553   */\n      dup1\n        /* \"#utility.yul\":4545:4557   */\n      revert\n        /* \"#utility.yul\":4496:4498   */\n    tag_104:\n        /* \"#utility.yul\":4486:4565   */\n      pop\n      jump\t// out\n\n    auxdata: 0xa2646970667358221220d411f594b17f2fba5b2128c50c5dc43152e1927908421f716c3c9247d820590b64736f6c63430008030033\n}\n",
    "bytecode": {
      "linkReferences": {},
      "object": "608060405234801561001057600080fd5b506040516107f63803806107f68339818101604052810190610032919061012a565b816001600301819055508260016000018190555083600160020181905550336000806101000a81548173ffffffffffffffffffffffffffffffffffffffff021916908373ffffffffffffffffffffffffffffffffffffffff16021790555060008060146101000a81548160ff021916908315150217905550806001600401819055507f554e444546494e45440000000000000000000000000000000000000000000000600180018190555060008060156101000a81548160ff021916908315150217905550505050506101cf565b60008151905061010f816101a1565b92915050565b600081519050610124816101b8565b92915050565b6000806000806080858703121561014057600080fd5b600061014e87828801610100565b945050602061015f87828801610100565b935050604061017087828801610100565b925050606061018187828801610115565b91505092959194509250565b6000819050919050565b6000819050919050565b6101aa8161018d565b81146101b557600080fd5b50565b6101c181610197565b81146101cc57600080fd5b50565b610618806101de6000396000f3fe608060405234801561001057600080fd5b50600436106100575760003560e01c8063032020171461005c57806334b1794c14610080578063512a0c861461008a5780635d1ca631146100a65780639499e018146100c4575b600080fd5b6100646100ce565b60405161007797969594939291906104a5565b60405180910390f35b610088610114565b005b6100a4600480360381019061009f91906103b9565b6101b6565b005b6100ae6102a2565b6040516100bb9190610445565b60405180910390f35b6100cc6102fe565b005b6000806000806000806000600180015460016003015460016004015460016005015460016002015430600160000154965096509650965096509650965090919293949596565b600060159054906101000a900460ff1615610164576040517f08c379a000000000000000000000000000000000000000000000000000000000815260040161015b90610514565b60405180910390fd5b6001600060156101000a81548160ff0219169083151502179055506001600080820160009055600182016000905560028201600090556003820160009055600482016000905560058201600090555050565b600060159054906101000a900460ff1615610206576040517f08c379a00000000000000000000000000000000000000000000000000000000081526004016101fd90610514565b60405180910390fd5b600060149054906101000a900460ff161561022057600080fd5b6001600060146101000a81548160ff021916908315150217905550816001800181905550806001600501819055507fa0f53cc16ce55b7914839af2c6e52aa179efd63404bb6cb37126faacecee5adb60016000015460016002015460018001546001600501546040516102969493929190610460565b60405180910390a15050565b60008060159054906101000a900460ff16156102f3576040517f08c379a00000000000000000000000000000000000000000000000000000000081526004016102ea90610514565b60405180910390fd5b600160020154905090565b60008054906101000a900473ffffffffffffffffffffffffffffffffffffffff1673ffffffffffffffffffffffffffffffffffffffff163373ffffffffffffffffffffffffffffffffffffffff161461035657600080fd5b60008054906101000a900473ffffffffffffffffffffffffffffffffffffffff1673ffffffffffffffffffffffffffffffffffffffff16ff5b60008135905061039e816105b4565b92915050565b6000813590506103b3816105cb565b92915050565b600080604083850312156103cc57600080fd5b60006103da8582860161038f565b92505060206103eb858286016103a4565b9150509250929050565b6103fe81610545565b82525050565b61040d81610557565b82525050565b6000610420601a83610534565b915061042b8261058b565b602082019050919050565b61043f81610581565b82525050565b600060208201905061045a6000830184610404565b92915050565b60006080820190506104756000830187610404565b6104826020830186610404565b61048f6040830185610404565b61049c6060830184610436565b95945050505050565b600060e0820190506104ba600083018a610404565b6104c76020830189610404565b6104d46040830188610436565b6104e16060830187610436565b6104ee6080830186610404565b6104fb60a08301856103f5565b61050860c0830184610404565b98975050505050505050565b6000602082019050818103600083015261052d81610413565b9050919050565b600082825260208201905092915050565b600061055082610561565b9050919050565b6000819050919050565b600073ffffffffffffffffffffffffffffffffffffffff82169050919050565b6000819050919050565b7f546869732050435220686173206265656e2064656c657465642e000000000000600082015250565b6105bd81610557565b81146105c857600080fd5b50565b6105d481610581565b81146105df57600080fd5b5056fea2646970667358221220d411f594b17f2fba5b2128c50c5dc43152e1927908421f716c3c9247d820590b64736f6c63430008030033",
      "opcodes": "PUSH1 0x80 PUSH1 0x40 MSTORE CALLVALUE DUP1 ISZERO PUSH2 0x10 JUMPI PUSH1 0x0 DUP1 REVERT JUMPDEST POP PUSH1 0x40 MLOAD PUSH2 0x7F6 CODESIZE SUB DUP1 PUSH2 0x7F6 DUP4 CODECOPY DUP2 DUP2 ADD PUSH1 0x40 MSTORE DUP2 ADD SWAP1 PUSH2 0x32 SWAP2 SWAP1 PUSH2 0x12A JUMP JUMPDEST DUP2 PUSH1 0x1 PUSH1 0x3 ADD DUP2 SWAP1 SSTORE POP DUP3 PUSH1 0x1 PUSH1 0x0 ADD DUP2 SWAP1 SSTORE POP DUP4 PUSH1 0x1 PUSH1 0x2 ADD DUP2 SWAP1 SSTORE POP CALLER PUSH1 0x0 DUP1 PUSH2 0x100 EXP DUP2 SLOAD DUP2 PUSH20 0xFFFFFFFFFFFFFFFFFFFFFFFFFFFFFFFFFFFFFFFF MUL NOT AND SWAP1 DUP4 PUSH20 0xFFFFFFFFFFFFFFFFFFFFFFFFFFFFFFFFFFFFFFFF AND MUL OR SWAP1 SSTORE POP PUSH1 0x0 DUP1 PUSH1 0x14 PUSH2 0x100 EXP DUP2 SLOAD DUP2 PUSH1 0xFF MUL NOT AND SWAP1 DUP4 ISZERO ISZERO MUL OR SWAP1 SSTORE POP DUP1 PUSH1 0x1 PUSH1 0x4 ADD DUP2 SWAP1 SSTORE POP PUSH32 0x554E444546494E45440000000000000000000000000000000000000000000000 PUSH1 0x1 DUP1 ADD DUP2 SWAP1 SSTORE POP PUSH1 0x0 DUP1 PUSH1 0x15 PUSH2 0x100 EXP DUP2 SLOAD DUP2 PUSH1 0xFF MUL NOT AND SWAP1 DUP4 ISZERO ISZERO MUL OR SWAP1 SSTORE POP POP POP POP POP PUSH2 0x1CF JUMP JUMPDEST PUSH1 0x0 DUP2 MLOAD SWAP1 POP PUSH2 0x10F DUP2 PUSH2 0x1A1 JUMP JUMPDEST SWAP3 SWAP2 POP POP JUMP JUMPDEST PUSH1 0x0 DUP2 MLOAD SWAP1 POP PUSH2 0x124 DUP2 PUSH2 0x1B8 JUMP JUMPDEST SWAP3 SWAP2 POP POP JUMP JUMPDEST PUSH1 0x0 DUP1 PUSH1 0x0 DUP1 PUSH1 0x80 DUP6 DUP8 SUB SLT ISZERO PUSH2 0x140 JUMPI PUSH1 0x0 DUP1 REVERT JUMPDEST PUSH1 0x0 PUSH2 0x14E DUP8 DUP3 DUP9 ADD PUSH2 0x100 JUMP JUMPDEST SWAP5 POP POP PUSH1 0x20 PUSH2 0x15F DUP8 DUP3 DUP9 ADD PUSH2 0x100 JUMP JUMPDEST SWAP4 POP POP PUSH1 0x40 PUSH2 0x170 DUP8 DUP3 DUP9 ADD PUSH2 0x100 JUMP JUMPDEST SWAP3 POP POP PUSH1 0x60 PUSH2 0x181 DUP8 DUP3 DUP9 ADD PUSH2 0x115 JUMP JUMPDEST SWAP2 POP POP SWAP3 SWAP6 SWAP2 SWAP5 POP SWAP3 POP JUMP JUMPDEST PUSH1 0x0 DUP2 SWAP1 POP SWAP2 SWAP1 POP JUMP JUMPDEST PUSH1 0x0 DUP2 SWAP1 POP SWAP2 SWAP1 POP JUMP JUMPDEST PUSH2 0x1AA DUP2 PUSH2 0x18D JUMP JUMPDEST DUP2 EQ PUSH2 0x1B5 JUMPI PUSH1 0x0 DUP1 REVERT JUMPDEST POP JUMP JUMPDEST PUSH2 0x1C1 DUP2 PUSH2 0x197 JUMP JUMPDEST DUP2 EQ PUSH2 0x1CC JUMPI PUSH1 0x0 DUP1 REVERT JUMPDEST POP JUMP JUMPDEST PUSH2 0x618 DUP1 PUSH2 0x1DE PUSH1 0x0 CODECOPY PUSH1 0x0 RETURN INVALID PUSH1 0x80 PUSH1 0x40 MSTORE CALLVALUE DUP1 ISZERO PUSH2 0x10 JUMPI PUSH1 0x0 DUP1 REVERT JUMPDEST POP PUSH1 0x4 CALLDATASIZE LT PUSH2 0x57 JUMPI PUSH1 0x0 CALLDATALOAD PUSH1 0xE0 SHR DUP1 PUSH4 0x3202017 EQ PUSH2 0x5C JUMPI DUP1 PUSH4 0x34B1794C EQ PUSH2 0x80 JUMPI DUP1 PUSH4 0x512A0C86 EQ PUSH2 0x8A JUMPI DUP1 PUSH4 0x5D1CA631 EQ PUSH2 0xA6 JUMPI DUP1 PUSH4 0x9499E018 EQ PUSH2 0xC4 JUMPI JUMPDEST PUSH1 0x0 DUP1 REVERT JUMPDEST PUSH2 0x64 PUSH2 0xCE JUMP JUMPDEST PUSH1 0x40 MLOAD PUSH2 0x77 SWAP8 SWAP7 SWAP6 SWAP5 SWAP4 SWAP3 SWAP2 SWAP1 PUSH2 0x4A5 JUMP JUMPDEST PUSH1 0x40 MLOAD DUP1 SWAP2 SUB SWAP1 RETURN JUMPDEST PUSH2 0x88 PUSH2 0x114 JUMP JUMPDEST STOP JUMPDEST PUSH2 0xA4 PUSH1 0x4 DUP1 CALLDATASIZE SUB DUP2 ADD SWAP1 PUSH2 0x9F SWAP2 SWAP1 PUSH2 0x3B9 JUMP JUMPDEST PUSH2 0x1B6 JUMP JUMPDEST STOP JUMPDEST PUSH2 0xAE PUSH2 0x2A2 JUMP JUMPDEST PUSH1 0x40 MLOAD PUSH2 0xBB SWAP2 SWAP1 PUSH2 0x445 JUMP JUMPDEST PUSH1 0x40 MLOAD DUP1 SWAP2 SUB SWAP1 RETURN JUMPDEST PUSH2 0xCC PUSH2 0x2FE JUMP JUMPDEST STOP JUMPDEST PUSH1 0x0 DUP1 PUSH1 0x0 DUP1 PUSH1 0x0 DUP1 PUSH1 0x0 PUSH1 0x1 DUP1 ADD SLOAD PUSH1 0x1 PUSH1 0x3 ADD SLOAD PUSH1 0x1 PUSH1 0x4 ADD SLOAD PUSH1 0x1 PUSH1 0x5 ADD SLOAD PUSH1 0x1 PUSH1 0x2 ADD SLOAD ADDRESS PUSH1 0x1 PUSH1 0x0 ADD SLOAD SWAP7 POP SWAP7 POP SWAP7 POP SWAP7 POP SWAP7 POP SWAP7 POP SWAP7 POP SWAP1 SWAP2 SWAP3 SWAP4 SWAP5 SWAP6 SWAP7 JUMP JUMPDEST PUSH1 0x0 PUSH1 0x15 SWAP1 SLOAD SWAP1 PUSH2 0x100 EXP SWAP1 DIV PUSH1 0xFF AND ISZERO PUSH2 0x164 JUMPI PUSH1 0x40 MLOAD PUSH32 0x8C379A000000000000000000000000000000000000000000000000000000000 DUP2 MSTORE PUSH1 0x4 ADD PUSH2 0x15B SWAP1 PUSH2 0x514 JUMP JUMPDEST PUSH1 0x40 MLOAD DUP1 SWAP2 SUB SWAP1 REVERT JUMPDEST PUSH1 0x1 PUSH1 0x0 PUSH1 0x15 PUSH2 0x100 EXP DUP2 SLOAD DUP2 PUSH1 0xFF MUL NOT AND SWAP1 DUP4 ISZERO ISZERO MUL OR SWAP1 SSTORE POP PUSH1 0x1 PUSH1 0x0 DUP1 DUP3 ADD PUSH1 0x0 SWAP1 SSTORE PUSH1 0x1 DUP3 ADD PUSH1 0x0 SWAP1 SSTORE PUSH1 0x2 DUP3 ADD PUSH1 0x0 SWAP1 SSTORE PUSH1 0x3 DUP3 ADD PUSH1 0x0 SWAP1 SSTORE PUSH1 0x4 DUP3 ADD PUSH1 0x0 SWAP1 SSTORE PUSH1 0x5 DUP3 ADD PUSH1 0x0 SWAP1 SSTORE POP POP JUMP JUMPDEST PUSH1 0x0 PUSH1 0x15 SWAP1 SLOAD SWAP1 PUSH2 0x100 EXP SWAP1 DIV PUSH1 0xFF AND ISZERO PUSH2 0x206 JUMPI PUSH1 0x40 MLOAD PUSH32 0x8C379A000000000000000000000000000000000000000000000000000000000 DUP2 MSTORE PUSH1 0x4 ADD PUSH2 0x1FD SWAP1 PUSH2 0x514 JUMP JUMPDEST PUSH1 0x40 MLOAD DUP1 SWAP2 SUB SWAP1 REVERT JUMPDEST PUSH1 0x0 PUSH1 0x14 SWAP1 SLOAD SWAP1 PUSH2 0x100 EXP SWAP1 DIV PUSH1 0xFF AND ISZERO PUSH2 0x220 JUMPI PUSH1 0x0 DUP1 REVERT JUMPDEST PUSH1 0x1 PUSH1 0x0 PUSH1 0x14 PUSH2 0x100 EXP DUP2 SLOAD DUP2 PUSH1 0xFF MUL NOT AND SWAP1 DUP4 ISZERO ISZERO MUL OR SWAP1 SSTORE POP DUP2 PUSH1 0x1 DUP1 ADD DUP2 SWAP1 SSTORE POP DUP1 PUSH1 0x1 PUSH1 0x5 ADD DUP2 SWAP1 SSTORE POP PUSH32 0xA0F53CC16CE55B7914839AF2C6E52AA179EFD63404BB6CB37126FAACECEE5ADB PUSH1 0x1 PUSH1 0x0 ADD SLOAD PUSH1 0x1 PUSH1 0x2 ADD SLOAD PUSH1 0x1 DUP1 ADD SLOAD PUSH1 0x1 PUSH1 0x5 ADD SLOAD PUSH1 0x40 MLOAD PUSH2 0x296 SWAP5 SWAP4 SWAP3 SWAP2 SWAP1 PUSH2 0x460 JUMP JUMPDEST PUSH1 0x40 MLOAD DUP1 SWAP2 SUB SWAP1 LOG1 POP POP JUMP JUMPDEST PUSH1 0x0 DUP1 PUSH1 0x15 SWAP1 SLOAD SWAP1 PUSH2 0x100 EXP SWAP1 DIV PUSH1 0xFF AND ISZERO PUSH2 0x2F3 JUMPI PUSH1 0x40 MLOAD PUSH32 0x8C379A000000000000000000000000000000000000000000000000000000000 DUP2 MSTORE PUSH1 0x4 ADD PUSH2 0x2EA SWAP1 PUSH2 0x514 JUMP JUMPDEST PUSH1 0x40 MLOAD DUP1 SWAP2 SUB SWAP1 REVERT JUMPDEST PUSH1 0x1 PUSH1 0x2 ADD SLOAD SWAP1 POP SWAP1 JUMP JUMPDEST PUSH1 0x0 DUP1 SLOAD SWAP1 PUSH2 0x100 EXP SWAP1 DIV PUSH20 0xFFFFFFFFFFFFFFFFFFFFFFFFFFFFFFFFFFFFFFFF AND PUSH20 0xFFFFFFFFFFFFFFFFFFFFFFFFFFFFFFFFFFFFFFFF AND CALLER PUSH20 0xFFFFFFFFFFFFFFFFFFFFFFFFFFFFFFFFFFFFFFFF AND EQ PUSH2 0x356 JUMPI PUSH1 0x0 DUP1 REVERT JUMPDEST PUSH1 0x0 DUP1 SLOAD SWAP1 PUSH2 0x100 EXP SWAP1 DIV PUSH20 0xFFFFFFFFFFFFFFFFFFFFFFFFFFFFFFFFFFFFFFFF AND PUSH20 0xFFFFFFFFFFFFFFFFFFFFFFFFFFFFFFFFFFFFFFFF AND SELFDESTRUCT JUMPDEST PUSH1 0x0 DUP2 CALLDATALOAD SWAP1 POP PUSH2 0x39E DUP2 PUSH2 0x5B4 JUMP JUMPDEST SWAP3 SWAP2 POP POP JUMP JUMPDEST PUSH1 0x0 DUP2 CALLDATALOAD SWAP1 POP PUSH2 0x3B3 DUP2 PUSH2 0x5CB JUMP JUMPDEST SWAP3 SWAP2 POP POP JUMP JUMPDEST PUSH1 0x0 DUP1 PUSH1 0x40 DUP4 DUP6 SUB SLT ISZERO PUSH2 0x3CC JUMPI PUSH1 0x0 DUP1 REVERT JUMPDEST PUSH1 0x0 PUSH2 0x3DA DUP6 DUP3 DUP7 ADD PUSH2 0x38F JUMP JUMPDEST SWAP3 POP POP PUSH1 0x20 PUSH2 0x3EB DUP6 DUP3 DUP7 ADD PUSH2 0x3A4 JUMP JUMPDEST SWAP2 POP POP SWAP3 POP SWAP3 SWAP1 POP JUMP JUMPDEST PUSH2 0x3FE DUP2 PUSH2 0x545 JUMP JUMPDEST DUP3 MSTORE POP POP JUMP JUMPDEST PUSH2 0x40D DUP2 PUSH2 0x557 JUMP JUMPDEST DUP3 MSTORE POP POP JUMP JUMPDEST PUSH1 0x0 PUSH2 0x420 PUSH1 0x1A DUP4 PUSH2 0x534 JUMP JUMPDEST SWAP2 POP PUSH2 0x42B DUP3 PUSH2 0x58B JUMP JUMPDEST PUSH1 0x20 DUP3 ADD SWAP1 POP SWAP2 SWAP1 POP JUMP JUMPDEST PUSH2 0x43F DUP2 PUSH2 0x581 JUMP JUMPDEST DUP3 MSTORE POP POP JUMP JUMPDEST PUSH1 0x0 PUSH1 0x20 DUP3 ADD SWAP1 POP PUSH2 0x45A PUSH1 0x0 DUP4 ADD DUP5 PUSH2 0x404 JUMP JUMPDEST SWAP3 SWAP2 POP POP JUMP JUMPDEST PUSH1 0x0 PUSH1 0x80 DUP3 ADD SWAP1 POP PUSH2 0x475 PUSH1 0x0 DUP4 ADD DUP8 PUSH2 0x404 JUMP JUMPDEST PUSH2 0x482 PUSH1 0x20 DUP4 ADD DUP7 PUSH2 0x404 JUMP JUMPDEST PUSH2 0x48F PUSH1 0x40 DUP4 ADD DUP6 PUSH2 0x404 JUMP JUMPDEST PUSH2 0x49C PUSH1 0x60 DUP4 ADD DUP5 PUSH2 0x436 JUMP JUMPDEST SWAP6 SWAP5 POP POP POP POP POP JUMP JUMPDEST PUSH1 0x0 PUSH1 0xE0 DUP3 ADD SWAP1 POP PUSH2 0x4BA PUSH1 0x0 DUP4 ADD DUP11 PUSH2 0x404 JUMP JUMPDEST PUSH2 0x4C7 PUSH1 0x20 DUP4 ADD DUP10 PUSH2 0x404 JUMP JUMPDEST PUSH2 0x4D4 PUSH1 0x40 DUP4 ADD DUP9 PUSH2 0x436 JUMP JUMPDEST PUSH2 0x4E1 PUSH1 0x60 DUP4 ADD DUP8 PUSH2 0x436 JUMP JUMPDEST PUSH2 0x4EE PUSH1 0x80 DUP4 ADD DUP7 PUSH2 0x404 JUMP JUMPDEST PUSH2 0x4FB PUSH1 0xA0 DUP4 ADD DUP6 PUSH2 0x3F5 JUMP JUMPDEST PUSH2 0x508 PUSH1 0xC0 DUP4 ADD DUP5 PUSH2 0x404 JUMP JUMPDEST SWAP9 SWAP8 POP POP POP POP POP POP POP POP JUMP JUMPDEST PUSH1 0x0 PUSH1 0x20 DUP3 ADD SWAP1 POP DUP2 DUP2 SUB PUSH1 0x0 DUP4 ADD MSTORE PUSH2 0x52D DUP2 PUSH2 0x413 JUMP JUMPDEST SWAP1 POP SWAP2 SWAP1 POP JUMP JUMPDEST PUSH1 0x0 DUP3 DUP3 MSTORE PUSH1 0x20 DUP3 ADD SWAP1 POP SWAP3 SWAP2 POP POP JUMP JUMPDEST PUSH1 0x0 PUSH2 0x550 DUP3 PUSH2 0x561 JUMP JUMPDEST SWAP1 POP SWAP2 SWAP1 POP JUMP JUMPDEST PUSH1 0x0 DUP2 SWAP1 POP SWAP2 SWAP1 POP JUMP JUMPDEST PUSH1 0x0 PUSH20 0xFFFFFFFFFFFFFFFFFFFFFFFFFFFFFFFFFFFFFFFF DUP3 AND SWAP1 POP SWAP2 SWAP1 POP JUMP JUMPDEST PUSH1 0x0 DUP2 SWAP1 POP SWAP2 SWAP1 POP JUMP JUMPDEST PUSH32 0x546869732050435220686173206265656E2064656C657465642E000000000000 PUSH1 0x0 DUP3 ADD MSTORE POP JUMP JUMPDEST PUSH2 0x5BD DUP2 PUSH2 0x557 JUMP JUMPDEST DUP2 EQ PUSH2 0x5C8 JUMPI PUSH1 0x0 DUP1 REVERT JUMPDEST POP JUMP JUMPDEST PUSH2 0x5D4 DUP2 PUSH2 0x581 JUMP JUMPDEST DUP2 EQ PUSH2 0x5DF JUMPI PUSH1 0x0 DUP1 REVERT JUMPDEST POP JUMP INVALID LOG2 PUSH5 0x6970667358 0x22 SLT KECCAK256 0xD4 GT CREATE2 SWAP5 0xB1 PUSH32 0x2FBA5B2128C50C5DC43152E1927908421F716C3C9247D820590B64736F6C6343 STOP ADDMOD SUB STOP CALLER "
    },
    "gasEstimates": {
      "creation": {
        "codeDepositCost": "312000",
        "executionCost": "infinite",
        "totalCost": "infinite"
      },
      "external": {
        "deletePCR()": "52067",
        "destructContract()": "31910",
        "getId()": "2093",
        "getPCRData()": "infinite",
        "updatePCR(bytes32,uint256)": "infinite"
      }
    },
    "methodIdentifiers": {
      "deletePCR()": "34b1794c",
      "destructContract()": "9499e018",
      "getId()": "5d1ca631",
      "getPCRData()": "03202017",
      "updatePCR(bytes32,uint256)": "512a0c86"
    }
  },
  "storageLayout": {
    "storage": [
      {
        "astId": 1598,
        "contract": "PCR.sol:PCR",
        "label": "owner",
        "offset": 0,
        "slot": "0",
        "type": "t_address_payable"
      },
      {
        "astId": 1600,
        "contract": "PCR.sol:PCR",
        "label": "completed",
        "offset": 20,
        "slot": "0",
        "type": "t_bool"
      },
      {
        "astId": 1602,
        "contract": "PCR.sol:PCR",
        "label": "deleted",
        "offset": 21,
        "slot": "0",
        "type": "t_bool"
      },
      {
        "astId": 1605,
        "contract": "PCR.sol:PCR",
        "label": "pcrData",
        "offset": 0,
        "slot": "1",
        "type": "t_struct(PCRData)1596_storage"
      }
    ],
    "types": {
      "t_address_payable": {
        "encoding": "inplace",
        "label": "address payable",
        "numberOfBytes": "20"
      },
      "t_bool": {
        "encoding": "inplace",
        "label": "bool",
        "numberOfBytes": "1"
      },
      "t_bytes32": {
        "encoding": "inplace",
        "label": "bytes32",
        "numberOfBytes": "32"
      },
      "t_struct(PCRData)1596_storage": {
        "encoding": "inplace",
        "label": "struct PCR.PCRData",
        "members": [
          {
            "astId": 1585,
            "contract": "PCR.sol:PCR",
            "label": "insuranceId",
            "offset": 0,
            "slot": "0",
            "type": "t_bytes32"
          },
          {
            "astId": 1587,
            "contract": "PCR.sol:PCR",
            "label": "result",
            "offset": 0,
            "slot": "1",
            "type": "t_bytes32"
          },
          {
            "astId": 1589,
            "contract": "PCR.sol:PCR",
            "label": "id",
            "offset": 0,
            "slot": "2",
            "type": "t_bytes32"
          },
          {
            "astId": 1591,
            "contract": "PCR.sol:PCR",
            "label": "insuredId",
            "offset": 0,
            "slot": "3",
            "type": "t_bytes32"
          },
          {
            "astId": 1593,
            "contract": "PCR.sol:PCR",
            "label": "requestDate",
            "offset": 0,
            "slot": "4",
            "type": "t_uint256"
          },
          {
            "astId": 1595,
            "contract": "PCR.sol:PCR",
            "label": "resultDate",
            "offset": 0,
            "slot": "5",
            "type": "t_uint256"
          }
        ],
        "numberOfBytes": "192"
      },
      "t_uint256": {
        "encoding": "inplace",
        "label": "uint256",
        "numberOfBytes": "32"
      }
    }
  },
  "userdoc": {
    "kind": "user",
    "methods": {
      "constructor": {
        "notice": "Initialize the PCR."
      },
      "deletePCR()": {
        "notice": "Delete the actual PCR."
      },
      "destructContract()": {
        "notice": "Delete the contract of the blockchain."
      },
      "getId()": {
        "notice": "Returns only the PCR id."
      },
      "getPCRData()": {
        "notice": "Returns PCR data."
      },
      "updatePCR(bytes32,uint256)": {
        "notice": "Update de pcr result state from the laboratory."
      }
    },
    "version": 1
  }
}