{
  "abi": [
    {
      "inputs": [],
      "stateMutability": "nonpayable",
      "type": "constructor"
    },
    {
      "inputs": [
        {
          "internalType": "bytes",
          "name": "a",
          "type": "bytes"
        },
        {
          "internalType": "bytes",
          "name": "b",
          "type": "bytes"
        }
      ],
      "name": "MergeBytes",
      "outputs": [
        {
          "internalType": "bytes",
          "name": "c",
          "type": "bytes"
        }
      ],
      "stateMutability": "pure",
      "type": "function"
    },
    {
      "inputs": [
        {
          "internalType": "contract Insurance",
          "name": "_newInsurance",
          "type": "address"
        }
      ],
      "name": "addInsurance",
      "outputs": [],
      "stateMutability": "nonpayable",
      "type": "function"
    },
    {
      "inputs": [],
      "name": "destructContract",
      "outputs": [],
      "stateMutability": "nonpayable",
      "type": "function"
    },
    {
      "inputs": [
        {
          "internalType": "bytes32",
          "name": "_insuranceId",
          "type": "bytes32"
        }
      ],
      "name": "getAddressOfInsurance",
      "outputs": [
        {
          "internalType": "address",
          "name": "insuranceAddress",
          "type": "address"
        }
      ],
      "stateMutability": "view",
      "type": "function"
    },
    {
      "inputs": [],
      "name": "getAllHotelsIds",
      "outputs": [
        {
          "internalType": "bytes32[]",
          "name": "_hotels",
          "type": "bytes32[]"
        }
      ],
      "stateMutability": "view",
      "type": "function"
    },
    {
      "inputs": [],
      "name": "getAllInsurances",
      "outputs": [
        {
          "internalType": "bytes",
          "name": "_insurancesData",
          "type": "bytes"
        }
      ],
      "stateMutability": "view",
      "type": "function"
    },
    {
      "inputs": [
        {
          "internalType": "bytes32",
          "name": "_hotelId",
          "type": "bytes32"
        }
      ],
      "name": "getHotelInsurancesData",
      "outputs": [
        {
          "internalType": "bytes",
          "name": "_insurances",
          "type": "bytes"
        }
      ],
      "stateMutability": "view",
      "type": "function"
    },
    {
      "inputs": [
        {
          "internalType": "bytes32",
          "name": "_InsuranceId",
          "type": "bytes32"
        }
      ],
      "name": "getInsuranceData",
      "outputs": [
        {
          "internalType": "bytes",
          "name": "_insuranceData",
          "type": "bytes"
        },
        {
          "internalType": "uint256",
          "name": "_size",
          "type": "uint256"
        }
      ],
      "stateMutability": "view",
      "type": "function"
    }
  ],
  "devdoc": {
    "author": "Eduardo Suarez Ojeda",
    "details": "The Contract that controls all the Insurances created in the node and groups them by hotel.",
    "kind": "dev",
    "methods": {
      "MergeBytes(bytes,bytes)": {
        "details": "Returns the array result of the concatenation."
      },
      "addInsurance(address)": {
        "details": "Modify the mappings that link hotels and insurances."
      },
      "destructContract()": {
        "details": "Only use in extreme situations."
      },
      "getAddressOfInsurance(bytes32)": {
        "details": "Useful to call insurance method in that address if needed."
      },
      "getAllInsurances()": {
        "details": "Returns a serialized array of bytes with the content of all insurances."
      },
      "getHotelInsurancesData(bytes32)": {
        "details": "Returns a serialized array of bytes with the content of all insurances."
      }
    },
    "title": "Spcr19",
    "version": 1
  },
  "evm": {
    "assembly": "    /* \"Spc19.sol\":209:4904  contract Spc19 {... */\n  mstore(0x40, 0x80)\n    /* \"Spc19.sol\":595:653  constructor() {... */\n  callvalue\n  dup1\n  iszero\n  tag_1\n  jumpi\n  0x00\n  dup1\n  revert\ntag_1:\n  pop\n    /* \"Spc19.sol\":635:645  msg.sender */\n  caller\n    /* \"Spc19.sol\":619:624  owner */\n  0x00\n  dup1\n    /* \"Spc19.sol\":619:646  owner = payable(msg.sender) */\n  0x0100\n  exp\n  dup2\n  sload\n  dup2\n  0xffffffffffffffffffffffffffffffffffffffff\n  mul\n  not\n  and\n  swap1\n  dup4\n  0xffffffffffffffffffffffffffffffffffffffff\n  and\n  mul\n  or\n  swap1\n  sstore\n  pop\n    /* \"Spc19.sol\":209:4904  contract Spc19 {... */\n  dataSize(sub_0)\n  dup1\n  dataOffset(sub_0)\n  0x00\n  codecopy\n  0x00\n  return\nstop\n\nsub_0: assembly {\n        /* \"Spc19.sol\":209:4904  contract Spc19 {... */\n      mstore(0x40, 0x80)\n      callvalue\n      dup1\n      iszero\n      tag_1\n      jumpi\n      0x00\n      dup1\n      revert\n    tag_1:\n      pop\n      jumpi(tag_2, lt(calldatasize, 0x04))\n      shr(0xe0, calldataload(0x00))\n      dup1\n      0x9499e018\n      gt\n      tag_11\n      jumpi\n      dup1\n      0x9499e018\n      eq\n      tag_7\n      jumpi\n      dup1\n      0xa15b6516\n      eq\n      tag_8\n      jumpi\n      dup1\n      0xd1f6d4c5\n      eq\n      tag_9\n      jumpi\n      dup1\n      0xdba2812a\n      eq\n      tag_10\n      jumpi\n      jump(tag_2)\n    tag_11:\n      dup1\n      0x11165ee7\n      eq\n      tag_3\n      jumpi\n      dup1\n      0x37922b0c\n      eq\n      tag_4\n      jumpi\n      dup1\n      0x4cb74b19\n      eq\n      tag_5\n      jumpi\n      dup1\n      0x92806a04\n      eq\n      tag_6\n      jumpi\n    tag_2:\n      0x00\n      dup1\n      revert\n        /* \"Spc19.sol\":4144:4386  function getAllInsurances() external view returns(bytes memory _insurancesData) {... */\n    tag_3:\n      tag_12\n      tag_13\n      jump\t// in\n    tag_12:\n      mload(0x40)\n      tag_14\n      swap2\n      swap1\n      tag_15\n      jump\t// in\n    tag_14:\n      mload(0x40)\n      dup1\n      swap2\n      sub\n      swap1\n      return\n        /* \"Spc19.sol\":4526:4685  function getAddressOfInsurance(bytes32 _insuranceId) external view returns(address insuranceAddress) {... */\n    tag_4:\n      tag_16\n      0x04\n      dup1\n      calldatasize\n      sub\n      dup2\n      add\n      swap1\n      tag_17\n      swap2\n      swap1\n      tag_18\n      jump\t// in\n    tag_17:\n      tag_19\n      jump\t// in\n    tag_16:\n      mload(0x40)\n      tag_20\n      swap2\n      swap1\n      tag_21\n      jump\t// in\n    tag_20:\n      mload(0x40)\n      dup1\n      swap2\n      sub\n      swap1\n      return\n        /* \"Spc19.sol\":3450:3767  function getInsuranceData(bytes32 _InsuranceId) public view returns(... */\n    tag_5:\n      tag_22\n      0x04\n      dup1\n      calldatasize\n      sub\n      dup2\n      add\n      swap1\n      tag_23\n      swap2\n      swap1\n      tag_18\n      jump\t// in\n    tag_23:\n      tag_24\n      jump\t// in\n    tag_22:\n      mload(0x40)\n      tag_25\n      swap3\n      swap2\n      swap1\n      tag_26\n      jump\t// in\n    tag_25:\n      mload(0x40)\n      dup1\n      swap2\n      sub\n      swap1\n      return\n        /* \"Spc19.sol\":3861:3967  function getAllHotelsIds() public view returns(bytes32[] memory _hotels) {... */\n    tag_6:\n      tag_27\n      tag_28\n      jump\t// in\n    tag_27:\n      mload(0x40)\n      tag_29\n      swap2\n      swap1\n      tag_30\n      jump\t// in\n    tag_29:\n      mload(0x40)\n      dup1\n      swap2\n      sub\n      swap1\n      return\n        /* \"Spc19.sol\":4791:4902  function destructContract() external {... */\n    tag_7:\n      tag_31\n      tag_32\n      jump\t// in\n    tag_31:\n      stop\n        /* \"Spc19.sol\":2988:3369  function getHotelInsurancesData(bytes32 _hotelId) public view returns(... */\n    tag_8:\n      tag_33\n      0x04\n      dup1\n      calldatasize\n      sub\n      dup2\n      add\n      swap1\n      tag_34\n      swap2\n      swap1\n      tag_18\n      jump\t// in\n    tag_34:\n      tag_35\n      jump\t// in\n    tag_33:\n      mload(0x40)\n      tag_36\n      swap2\n      swap1\n      tag_15\n      jump\t// in\n    tag_36:\n      mload(0x40)\n      dup1\n      swap2\n      sub\n      swap1\n      return\n        /* \"Spc19.sol\":798:1912  function MergeBytes(bytes memory a, bytes memory b) public pure returns (bytes memory c) {... */\n    tag_9:\n      tag_37\n      0x04\n      dup1\n      calldatasize\n      sub\n      dup2\n      add\n      swap1\n      tag_38\n      swap2\n      swap1\n      tag_39\n      jump\t// in\n    tag_38:\n      tag_40\n      jump\t// in\n    tag_37:\n      mload(0x40)\n      tag_41\n      swap2\n      swap1\n      tag_15\n      jump\t// in\n    tag_41:\n      mload(0x40)\n      dup1\n      swap2\n      sub\n      swap1\n      return\n        /* \"Spc19.sol\":2060:2815  function addInsurance(Insurance _newInsurance) external {... */\n    tag_10:\n      tag_42\n      0x04\n      dup1\n      calldatasize\n      sub\n      dup2\n      add\n      swap1\n      tag_43\n      swap2\n      swap1\n      tag_44\n      jump\t// in\n    tag_43:\n      tag_45\n      jump\t// in\n    tag_42:\n      stop\n        /* \"Spc19.sol\":4144:4386  function getAllInsurances() external view returns(bytes memory _insurancesData) {... */\n    tag_13:\n        /* \"Spc19.sol\":4194:4222  bytes memory _insurancesData */\n      0x60\n        /* \"Spc19.sol\":4239:4245  uint i */\n      0x00\n        /* \"Spc19.sol\":4234:4380  for (uint i = 0; i < hotels.length; i++) {... */\n    tag_47:\n        /* \"Spc19.sol\":4255:4261  hotels */\n      0x06\n        /* \"Spc19.sol\":4255:4268  hotels.length */\n      dup1\n      sload\n      swap1\n      pop\n        /* \"Spc19.sol\":4251:4252  i */\n      dup2\n        /* \"Spc19.sol\":4251:4268  i < hotels.length */\n      lt\n        /* \"Spc19.sol\":4234:4380  for (uint i = 0; i < hotels.length; i++) {... */\n      iszero\n      tag_48\n      jumpi\n        /* \"Spc19.sol\":4307:4369  MergeBytes(_insurancesData, getHotelInsurancesData(hotels[i])) */\n      tag_50\n        /* \"Spc19.sol\":4318:4333  _insurancesData */\n      dup3\n        /* \"Spc19.sol\":4335:4368  getHotelInsurancesData(hotels[i]) */\n      tag_51\n        /* \"Spc19.sol\":4358:4364  hotels */\n      0x06\n        /* \"Spc19.sol\":4365:4366  i */\n      dup5\n        /* \"Spc19.sol\":4358:4367  hotels[i] */\n      dup2\n      sload\n      dup2\n      lt\n      tag_52\n      jumpi\n      mstore(0x00, 0x4e487b7100000000000000000000000000000000000000000000000000000000)\n      mstore(0x04, 0x32)\n      revert(0x00, 0x24)\n    tag_52:\n      swap1\n      0x00\n      mstore\n      keccak256(0x00, 0x20)\n      add\n      sload\n        /* \"Spc19.sol\":4335:4357  getHotelInsurancesData */\n      tag_35\n        /* \"Spc19.sol\":4335:4368  getHotelInsurancesData(hotels[i]) */\n      jump\t// in\n    tag_51:\n        /* \"Spc19.sol\":4307:4317  MergeBytes */\n      tag_40\n        /* \"Spc19.sol\":4307:4369  MergeBytes(_insurancesData, getHotelInsurancesData(hotels[i])) */\n      jump\t// in\n    tag_50:\n        /* \"Spc19.sol\":4289:4369  _insurancesData = MergeBytes(_insurancesData, getHotelInsurancesData(hotels[i])) */\n      swap2\n      pop\n        /* \"Spc19.sol\":4270:4273  i++ */\n      dup1\n      dup1\n      tag_54\n      swap1\n      tag_55\n      jump\t// in\n    tag_54:\n      swap2\n      pop\n      pop\n        /* \"Spc19.sol\":4234:4380  for (uint i = 0; i < hotels.length; i++) {... */\n      jump(tag_47)\n    tag_48:\n      pop\n        /* \"Spc19.sol\":4144:4386  function getAllInsurances() external view returns(bytes memory _insurancesData) {... */\n      swap1\n      jump\t// out\n        /* \"Spc19.sol\":4526:4685  function getAddressOfInsurance(bytes32 _insuranceId) external view returns(address insuranceAddress) {... */\n    tag_19:\n        /* \"Spc19.sol\":4601:4625  address insuranceAddress */\n      0x00\n        /* \"Spc19.sol\":4644:4664  idInsuranceToAddress */\n      0x05\n        /* \"Spc19.sol\":4644:4678  idInsuranceToAddress[_insuranceId] */\n      0x00\n        /* \"Spc19.sol\":4665:4677  _insuranceId */\n      dup4\n        /* \"Spc19.sol\":4644:4678  idInsuranceToAddress[_insuranceId] */\n      dup2\n      mstore\n      0x20\n      add\n      swap1\n      dup2\n      mstore\n      0x20\n      add\n      0x00\n      keccak256\n      0x00\n      swap1\n      sload\n      swap1\n      0x0100\n      exp\n      swap1\n      div\n      0xffffffffffffffffffffffffffffffffffffffff\n      and\n        /* \"Spc19.sol\":4637:4678  return idInsuranceToAddress[_insuranceId] */\n      swap1\n      pop\n        /* \"Spc19.sol\":4526:4685  function getAddressOfInsurance(bytes32 _insuranceId) external view returns(address insuranceAddress) {... */\n      swap2\n      swap1\n      pop\n      jump\t// out\n        /* \"Spc19.sol\":3450:3767  function getInsuranceData(bytes32 _InsuranceId) public view returns(... */\n    tag_24:\n        /* \"Spc19.sol\":3527:3554  bytes memory _insuranceData */\n      0x60\n        /* \"Spc19.sol\":3564:3577  uint256 _size */\n      0x00\n        /* \"Spc19.sol\":3638:3639  0 */\n      dup1\n        /* \"Spc19.sol\":3602:3639  idInsuranceToHotel[_InsuranceId] != 0 */\n      0x00\n      shl\n        /* \"Spc19.sol\":3602:3620  idInsuranceToHotel */\n      0x04\n        /* \"Spc19.sol\":3602:3634  idInsuranceToHotel[_InsuranceId] */\n      0x00\n        /* \"Spc19.sol\":3621:3633  _InsuranceId */\n      dup6\n        /* \"Spc19.sol\":3602:3634  idInsuranceToHotel[_InsuranceId] */\n      dup2\n      mstore\n      0x20\n      add\n      swap1\n      dup2\n      mstore\n      0x20\n      add\n      0x00\n      keccak256\n      sload\n        /* \"Spc19.sol\":3602:3639  idInsuranceToHotel[_InsuranceId] != 0 */\n      eq\n      iszero\n        /* \"Spc19.sol\":3594:3640  require(idInsuranceToHotel[_InsuranceId] != 0) */\n      tag_58\n      jumpi\n      0x00\n      dup1\n      revert\n    tag_58:\n        /* \"Spc19.sol\":3657:3672  hotelInsurances */\n      0x02\n        /* \"Spc19.sol\":3657:3706  hotelInsurances[idInsuranceToHotel[_InsuranceId]] */\n      0x00\n        /* \"Spc19.sol\":3673:3691  idInsuranceToHotel */\n      0x04\n        /* \"Spc19.sol\":3673:3705  idInsuranceToHotel[_InsuranceId] */\n      0x00\n        /* \"Spc19.sol\":3692:3704  _InsuranceId */\n      dup7\n        /* \"Spc19.sol\":3673:3705  idInsuranceToHotel[_InsuranceId] */\n      dup2\n      mstore\n      0x20\n      add\n      swap1\n      dup2\n      mstore\n      0x20\n      add\n      0x00\n      keccak256\n      sload\n        /* \"Spc19.sol\":3657:3706  hotelInsurances[idInsuranceToHotel[_InsuranceId]] */\n      dup2\n      mstore\n      0x20\n      add\n      swap1\n      dup2\n      mstore\n      0x20\n      add\n      0x00\n      keccak256\n        /* \"Spc19.sol\":3707:3724  InsuranceLocation */\n      0x01\n        /* \"Spc19.sol\":3707:3738  InsuranceLocation[_InsuranceId] */\n      0x00\n        /* \"Spc19.sol\":3725:3737  _InsuranceId */\n      dup6\n        /* \"Spc19.sol\":3707:3738  InsuranceLocation[_InsuranceId] */\n      dup2\n      mstore\n      0x20\n      add\n      swap1\n      dup2\n      mstore\n      0x20\n      add\n      0x00\n      keccak256\n      sload\n        /* \"Spc19.sol\":3657:3739  hotelInsurances[idInsuranceToHotel[_InsuranceId]][InsuranceLocation[_InsuranceId]] */\n      dup2\n      sload\n      dup2\n      lt\n      tag_59\n      jumpi\n      mstore(0x00, 0x4e487b7100000000000000000000000000000000000000000000000000000000)\n      mstore(0x04, 0x32)\n      revert(0x00, 0x24)\n    tag_59:\n      swap1\n      0x00\n      mstore\n      keccak256(0x00, 0x20)\n      add\n      0x00\n      swap1\n      sload\n      swap1\n      0x0100\n      exp\n      swap1\n      div\n      0xffffffffffffffffffffffffffffffffffffffff\n      and\n        /* \"Spc19.sol\":3657:3758  hotelInsurances[idInsuranceToHotel[_InsuranceId]][InsuranceLocation[_InsuranceId]].serializeInsurance */\n      0xffffffffffffffffffffffffffffffffffffffff\n      and\n      0x236f45d9\n        /* \"Spc19.sol\":3657:3760  hotelInsurances[idInsuranceToHotel[_InsuranceId]][InsuranceLocation[_InsuranceId]].serializeInsurance() */\n      mload(0x40)\n      dup2\n      0xffffffff\n      and\n      0xe0\n      shl\n      dup2\n      mstore\n      0x04\n      add\n      0x00\n      mload(0x40)\n      dup1\n      dup4\n      sub\n      dup2\n      dup7\n      dup1\n      extcodesize\n      iszero\n      dup1\n      iszero\n      tag_61\n      jumpi\n      0x00\n      dup1\n      revert\n    tag_61:\n      pop\n      gas\n      staticcall\n      iszero\n      dup1\n      iszero\n      tag_63\n      jumpi\n      returndatasize\n      0x00\n      dup1\n      returndatacopy\n      revert(0x00, returndatasize)\n    tag_63:\n      pop\n      pop\n      pop\n      pop\n      mload(0x40)\n      returndatasize\n      0x00\n      dup3\n      returndatacopy\n      returndatasize\n      not(0x1f)\n      0x1f\n      dup3\n      add\n      and\n      dup3\n      add\n      dup1\n      0x40\n      mstore\n      pop\n      dup2\n      add\n      swap1\n      tag_64\n      swap2\n      swap1\n      tag_65\n      jump\t// in\n    tag_64:\n        /* \"Spc19.sol\":3650:3760  return hotelInsurances[idInsuranceToHotel[_InsuranceId]][InsuranceLocation[_InsuranceId]].serializeInsurance() */\n      swap2\n      pop\n      swap2\n      pop\n        /* \"Spc19.sol\":3450:3767  function getInsuranceData(bytes32 _InsuranceId) public view returns(... */\n      swap2\n      pop\n      swap2\n      jump\t// out\n        /* \"Spc19.sol\":3861:3967  function getAllHotelsIds() public view returns(bytes32[] memory _hotels) {... */\n    tag_28:\n        /* \"Spc19.sol\":3908:3932  bytes32[] memory _hotels */\n      0x60\n        /* \"Spc19.sol\":3954:3960  hotels */\n      0x06\n        /* \"Spc19.sol\":3944:3960  _hotels = hotels */\n      dup1\n      sload\n      dup1\n      0x20\n      mul\n      0x20\n      add\n      mload(0x40)\n      swap1\n      dup2\n      add\n      0x40\n      mstore\n      dup1\n      swap3\n      swap2\n      swap1\n      dup2\n      dup2\n      mstore\n      0x20\n      add\n      dup3\n      dup1\n      sload\n      dup1\n      iszero\n      tag_67\n      jumpi\n      0x20\n      mul\n      dup3\n      add\n      swap2\n      swap1\n      0x00\n      mstore\n      keccak256(0x00, 0x20)\n      swap1\n    tag_68:\n      dup2\n      sload\n      dup2\n      mstore\n      0x20\n      add\n      swap1\n      0x01\n      add\n      swap1\n      dup1\n      dup4\n      gt\n      tag_68\n      jumpi\n    tag_67:\n      pop\n      pop\n      pop\n      pop\n      pop\n      swap1\n      pop\n        /* \"Spc19.sol\":3861:3967  function getAllHotelsIds() public view returns(bytes32[] memory _hotels) {... */\n      swap1\n      jump\t// out\n        /* \"Spc19.sol\":4791:4902  function destructContract() external {... */\n    tag_32:\n        /* \"Spc19.sol\":4860:4865  owner */\n      0x00\n      dup1\n      sload\n      swap1\n      0x0100\n      exp\n      swap1\n      div\n      0xffffffffffffffffffffffffffffffffffffffff\n      and\n        /* \"Spc19.sol\":4846:4865  msg.sender == owner */\n      0xffffffffffffffffffffffffffffffffffffffff\n      and\n        /* \"Spc19.sol\":4846:4856  msg.sender */\n      caller\n        /* \"Spc19.sol\":4846:4865  msg.sender == owner */\n      0xffffffffffffffffffffffffffffffffffffffff\n      and\n      eq\n        /* \"Spc19.sol\":4838:4866  require(msg.sender == owner) */\n      tag_70\n      jumpi\n      0x00\n      dup1\n      revert\n    tag_70:\n        /* \"Spc19.sol\":4889:4894  owner */\n      0x00\n      dup1\n      sload\n      swap1\n      0x0100\n      exp\n      swap1\n      div\n      0xffffffffffffffffffffffffffffffffffffffff\n      and\n        /* \"Spc19.sol\":4876:4895  selfdestruct(owner) */\n      0xffffffffffffffffffffffffffffffffffffffff\n      and\n      selfdestruct\n        /* \"Spc19.sol\":2988:3369  function getHotelInsurancesData(bytes32 _hotelId) public view returns(... */\n    tag_35:\n        /* \"Spc19.sol\":3067:3091  bytes memory _insurances */\n      0x60\n        /* \"Spc19.sol\":3108:3134  bytes memory insuranceData */\n      dup1\n        /* \"Spc19.sol\":3149:3155  uint i */\n      0x00\n        /* \"Spc19.sol\":3144:3363  for (uint i = 0; i < hotelInsurances[_hotelId].length; i++) {... */\n    tag_72:\n        /* \"Spc19.sol\":3165:3180  hotelInsurances */\n      0x02\n        /* \"Spc19.sol\":3165:3190  hotelInsurances[_hotelId] */\n      0x00\n        /* \"Spc19.sol\":3181:3189  _hotelId */\n      dup6\n        /* \"Spc19.sol\":3165:3190  hotelInsurances[_hotelId] */\n      dup2\n      mstore\n      0x20\n      add\n      swap1\n      dup2\n      mstore\n      0x20\n      add\n      0x00\n      keccak256\n        /* \"Spc19.sol\":3165:3197  hotelInsurances[_hotelId].length */\n      dup1\n      sload\n      swap1\n      pop\n        /* \"Spc19.sol\":3161:3162  i */\n      dup2\n        /* \"Spc19.sol\":3161:3197  i < hotelInsurances[_hotelId].length */\n      lt\n        /* \"Spc19.sol\":3144:3363  for (uint i = 0; i < hotelInsurances[_hotelId].length; i++) {... */\n      iszero\n      tag_73\n      jumpi\n        /* \"Spc19.sol\":3237:3252  hotelInsurances */\n      0x02\n        /* \"Spc19.sol\":3237:3262  hotelInsurances[_hotelId] */\n      0x00\n        /* \"Spc19.sol\":3253:3261  _hotelId */\n      dup6\n        /* \"Spc19.sol\":3237:3262  hotelInsurances[_hotelId] */\n      dup2\n      mstore\n      0x20\n      add\n      swap1\n      dup2\n      mstore\n      0x20\n      add\n      0x00\n      keccak256\n        /* \"Spc19.sol\":3263:3264  i */\n      dup2\n        /* \"Spc19.sol\":3237:3265  hotelInsurances[_hotelId][i] */\n      dup2\n      sload\n      dup2\n      lt\n      tag_75\n      jumpi\n      mstore(0x00, 0x4e487b7100000000000000000000000000000000000000000000000000000000)\n      mstore(0x04, 0x32)\n      revert(0x00, 0x24)\n    tag_75:\n      swap1\n      0x00\n      mstore\n      keccak256(0x00, 0x20)\n      add\n      0x00\n      swap1\n      sload\n      swap1\n      0x0100\n      exp\n      swap1\n      div\n      0xffffffffffffffffffffffffffffffffffffffff\n      and\n        /* \"Spc19.sol\":3237:3284  hotelInsurances[_hotelId][i].serializeInsurance */\n      0xffffffffffffffffffffffffffffffffffffffff\n      and\n      0x236f45d9\n        /* \"Spc19.sol\":3237:3286  hotelInsurances[_hotelId][i].serializeInsurance() */\n      mload(0x40)\n      dup2\n      0xffffffff\n      and\n      0xe0\n      shl\n      dup2\n      mstore\n      0x04\n      add\n      0x00\n      mload(0x40)\n      dup1\n      dup4\n      sub\n      dup2\n      dup7\n      dup1\n      extcodesize\n      iszero\n      dup1\n      iszero\n      tag_77\n      jumpi\n      0x00\n      dup1\n      revert\n    tag_77:\n      pop\n      gas\n      staticcall\n      iszero\n      dup1\n      iszero\n      tag_79\n      jumpi\n      returndatasize\n      0x00\n      dup1\n      returndatacopy\n      revert(0x00, returndatasize)\n    tag_79:\n      pop\n      pop\n      pop\n      pop\n      mload(0x40)\n      returndatasize\n      0x00\n      dup3\n      returndatacopy\n      returndatasize\n      not(0x1f)\n      0x1f\n      dup3\n      add\n      and\n      dup3\n      add\n      dup1\n      0x40\n      mstore\n      pop\n      dup2\n      add\n      swap1\n      tag_80\n      swap2\n      swap1\n      tag_65\n      jump\t// in\n    tag_80:\n        /* \"Spc19.sol\":3218:3286  (insuranceData,) = hotelInsurances[_hotelId][i].serializeInsurance() */\n      pop\n      dup1\n      swap3\n      pop\n      pop\n        /* \"Spc19.sol\":3314:3352  MergeBytes(_insurances, insuranceData) */\n      tag_81\n        /* \"Spc19.sol\":3325:3336  _insurances */\n      dup4\n        /* \"Spc19.sol\":3338:3351  insuranceData */\n      dup4\n        /* \"Spc19.sol\":3314:3324  MergeBytes */\n      tag_40\n        /* \"Spc19.sol\":3314:3352  MergeBytes(_insurances, insuranceData) */\n      jump\t// in\n    tag_81:\n        /* \"Spc19.sol\":3300:3352  _insurances = MergeBytes(_insurances, insuranceData) */\n      swap3\n      pop\n        /* \"Spc19.sol\":3199:3202  i++ */\n      dup1\n      dup1\n      tag_82\n      swap1\n      tag_55\n      jump\t// in\n    tag_82:\n      swap2\n      pop\n      pop\n        /* \"Spc19.sol\":3144:3363  for (uint i = 0; i < hotelInsurances[_hotelId].length; i++) {... */\n      jump(tag_72)\n    tag_73:\n      pop\n        /* \"Spc19.sol\":2988:3369  function getHotelInsurancesData(bytes32 _hotelId) public view returns(... */\n      pop\n      swap2\n      swap1\n      pop\n      jump\t// out\n        /* \"Spc19.sol\":798:1912  function MergeBytes(bytes memory a, bytes memory b) public pure returns (bytes memory c) {... */\n    tag_40:\n        /* \"Spc19.sol\":871:885  bytes memory c */\n      0x60\n        /* \"Spc19.sol\":944:953  uint alen */\n      0x00\n        /* \"Spc19.sol\":956:957  a */\n      dup4\n        /* \"Spc19.sol\":956:964  a.length */\n      mload\n        /* \"Spc19.sol\":944:964  uint alen = a.length */\n      swap1\n      pop\n        /* \"Spc19.sol\":1017:1030  uint totallen */\n      0x00\n        /* \"Spc19.sol\":1040:1041  b */\n      dup4\n        /* \"Spc19.sol\":1040:1048  b.length */\n      mload\n        /* \"Spc19.sol\":1033:1037  alen */\n      dup3\n        /* \"Spc19.sol\":1033:1048  alen + b.length */\n      tag_84\n      swap2\n      swap1\n      tag_85\n      jump\t// in\n    tag_84:\n        /* \"Spc19.sol\":1017:1048  uint totallen = alen + b.length */\n      swap1\n      pop\n        /* \"Spc19.sol\":1125:1136  uint loopsa */\n      0x00\n        /* \"Spc19.sol\":1157:1159  32 */\n      0x20\n        /* \"Spc19.sol\":1151:1153  31 */\n      0x1f\n        /* \"Spc19.sol\":1140:1141  a */\n      dup8\n        /* \"Spc19.sol\":1140:1148  a.length */\n      mload\n        /* \"Spc19.sol\":1140:1153  a.length + 31 */\n      tag_86\n      swap2\n      swap1\n      tag_85\n      jump\t// in\n    tag_86:\n        /* \"Spc19.sol\":1139:1159  (a.length + 31) / 32 */\n      tag_87\n      swap2\n      swap1\n      tag_88\n      jump\t// in\n    tag_87:\n        /* \"Spc19.sol\":1125:1159  uint loopsa = (a.length + 31) / 32 */\n      swap1\n      pop\n        /* \"Spc19.sol\":1236:1247  uint loopsb */\n      0x00\n        /* \"Spc19.sol\":1268:1270  32 */\n      0x20\n        /* \"Spc19.sol\":1262:1264  31 */\n      0x1f\n        /* \"Spc19.sol\":1251:1252  b */\n      dup8\n        /* \"Spc19.sol\":1251:1259  b.length */\n      mload\n        /* \"Spc19.sol\":1251:1264  b.length + 31 */\n      tag_89\n      swap2\n      swap1\n      tag_85\n      jump\t// in\n    tag_89:\n        /* \"Spc19.sol\":1250:1270  (b.length + 31) / 32 */\n      tag_90\n      swap2\n      swap1\n      tag_88\n      jump\t// in\n    tag_90:\n        /* \"Spc19.sol\":1236:1270  uint loopsb = (b.length + 31) / 32 */\n      swap1\n      pop\n        /* \"Spc19.sol\":1318:1322  0x40 */\n      0x40\n        /* \"Spc19.sol\":1312:1323  mload(0x40) */\n      mload\n        /* \"Spc19.sol\":1427:1435  totallen */\n      dup4\n        /* \"Spc19.sol\":1424:1425  m */\n      dup2\n        /* \"Spc19.sol\":1417:1436  mstore(m, totallen) */\n      mstore\n        /* \"Spc19.sol\":1515:1516  0 */\n      0x00\n        /* \"Spc19.sol\":1499:1625  for {  let i := 0 } lt(i, loopsa) { i := add(1, i) } { mstore(add(m, mul(32, add(1, i))), mload(add(a, mul(32, add(1, i))))) } */\n    tag_91:\n        /* \"Spc19.sol\":1525:1531  loopsa */\n      dup4\n        /* \"Spc19.sol\":1522:1523  i */\n      dup2\n        /* \"Spc19.sol\":1519:1532  lt(i, loopsa) */\n      lt\n        /* \"Spc19.sol\":1499:1625  for {  let i := 0 } lt(i, loopsa) { i := add(1, i) } { mstore(add(m, mul(32, add(1, i))), mload(add(a, mul(32, add(1, i))))) } */\n      iszero\n      tag_93\n      jumpi\n        /* \"Spc19.sol\":1617:1618  i */\n      dup1\n        /* \"Spc19.sol\":1614:1615  1 */\n      0x01\n        /* \"Spc19.sol\":1610:1619  add(1, i) */\n      add\n        /* \"Spc19.sol\":1606:1608  32 */\n      0x20\n        /* \"Spc19.sol\":1602:1620  mul(32, add(1, i)) */\n      mul\n        /* \"Spc19.sol\":1599:1600  a */\n      dup10\n        /* \"Spc19.sol\":1595:1621  add(a, mul(32, add(1, i))) */\n      add\n        /* \"Spc19.sol\":1589:1622  mload(add(a, mul(32, add(1, i)))) */\n      mload\n        /* \"Spc19.sol\":1583:1584  i */\n      dup2\n        /* \"Spc19.sol\":1580:1581  1 */\n      0x01\n        /* \"Spc19.sol\":1576:1585  add(1, i) */\n      add\n        /* \"Spc19.sol\":1572:1574  32 */\n      0x20\n        /* \"Spc19.sol\":1568:1586  mul(32, add(1, i)) */\n      mul\n        /* \"Spc19.sol\":1565:1566  m */\n      dup4\n        /* \"Spc19.sol\":1561:1587  add(m, mul(32, add(1, i))) */\n      add\n        /* \"Spc19.sol\":1554:1623  mstore(add(m, mul(32, add(1, i))), mload(add(a, mul(32, add(1, i))))) */\n      mstore\n        /* \"Spc19.sol\":1547:1548  i */\n      dup1\n        /* \"Spc19.sol\":1544:1545  1 */\n      0x01\n        /* \"Spc19.sol\":1540:1549  add(1, i) */\n      add\n        /* \"Spc19.sol\":1535:1549  i := add(1, i) */\n      swap1\n      pop\n        /* \"Spc19.sol\":1499:1625  for {  let i := 0 } lt(i, loopsa) { i := add(1, i) } { mstore(add(m, mul(32, add(1, i))), mload(add(a, mul(32, add(1, i))))) } */\n      jump(tag_91)\n    tag_93:\n        /* \"Spc19.sol\":1503:1518  {  let i := 0 } */\n      pop\n        /* \"Spc19.sol\":1704:1705  0 */\n      0x00\n        /* \"Spc19.sol\":1688:1825  for {  let i := 0 } lt(i, loopsb) { i := add(1, i) } { mstore(add(m, add(mul(32, add(1, i)), alen)), mload(add(b, mul(32, add(1, i))))) } */\n    tag_94:\n        /* \"Spc19.sol\":1714:1720  loopsb */\n      dup3\n        /* \"Spc19.sol\":1711:1712  i */\n      dup2\n        /* \"Spc19.sol\":1708:1721  lt(i, loopsb) */\n      lt\n        /* \"Spc19.sol\":1688:1825  for {  let i := 0 } lt(i, loopsb) { i := add(1, i) } { mstore(add(m, add(mul(32, add(1, i)), alen)), mload(add(b, mul(32, add(1, i))))) } */\n      iszero\n      tag_96\n      jumpi\n        /* \"Spc19.sol\":1817:1818  i */\n      dup1\n        /* \"Spc19.sol\":1814:1815  1 */\n      0x01\n        /* \"Spc19.sol\":1810:1819  add(1, i) */\n      add\n        /* \"Spc19.sol\":1806:1808  32 */\n      0x20\n        /* \"Spc19.sol\":1802:1820  mul(32, add(1, i)) */\n      mul\n        /* \"Spc19.sol\":1799:1800  b */\n      dup9\n        /* \"Spc19.sol\":1795:1821  add(b, mul(32, add(1, i))) */\n      add\n        /* \"Spc19.sol\":1789:1822  mload(add(b, mul(32, add(1, i)))) */\n      mload\n        /* \"Spc19.sol\":1781:1785  alen */\n      dup7\n        /* \"Spc19.sol\":1776:1777  i */\n      dup3\n        /* \"Spc19.sol\":1773:1774  1 */\n      0x01\n        /* \"Spc19.sol\":1769:1778  add(1, i) */\n      add\n        /* \"Spc19.sol\":1765:1767  32 */\n      0x20\n        /* \"Spc19.sol\":1761:1779  mul(32, add(1, i)) */\n      mul\n        /* \"Spc19.sol\":1757:1786  add(mul(32, add(1, i)), alen) */\n      add\n        /* \"Spc19.sol\":1754:1755  m */\n      dup4\n        /* \"Spc19.sol\":1750:1787  add(m, add(mul(32, add(1, i)), alen)) */\n      add\n        /* \"Spc19.sol\":1743:1823  mstore(add(m, add(mul(32, add(1, i)), alen)), mload(add(b, mul(32, add(1, i))))) */\n      mstore\n        /* \"Spc19.sol\":1736:1737  i */\n      dup1\n        /* \"Spc19.sol\":1733:1734  1 */\n      0x01\n        /* \"Spc19.sol\":1729:1738  add(1, i) */\n      add\n        /* \"Spc19.sol\":1724:1738  i := add(1, i) */\n      swap1\n      pop\n        /* \"Spc19.sol\":1688:1825  for {  let i := 0 } lt(i, loopsb) { i := add(1, i) } { mstore(add(m, add(mul(32, add(1, i)), alen)), mload(add(b, mul(32, add(1, i))))) } */\n      jump(tag_94)\n    tag_96:\n        /* \"Spc19.sol\":1692:1707  {  let i := 0 } */\n      pop\n        /* \"Spc19.sol\":1866:1874  totallen */\n      dup4\n        /* \"Spc19.sol\":1862:1864  32 */\n      0x20\n        /* \"Spc19.sol\":1858:1875  add(32, totallen) */\n      add\n        /* \"Spc19.sol\":1855:1856  m */\n      dup2\n        /* \"Spc19.sol\":1851:1876  add(m, add(32, totallen)) */\n      add\n        /* \"Spc19.sol\":1845:1849  0x40 */\n      0x40\n        /* \"Spc19.sol\":1838:1877  mstore(0x40, add(m, add(32, totallen))) */\n      mstore\n        /* \"Spc19.sol\":1895:1896  m */\n      dup1\n        /* \"Spc19.sol\":1890:1896  c := m */\n      swap6\n      pop\n        /* \"Spc19.sol\":1289:1906  {... */\n      pop\n      pop\n      pop\n      pop\n      pop\n      swap3\n      swap2\n      pop\n      pop\n      jump\t// out\n        /* \"Spc19.sol\":2060:2815  function addInsurance(Insurance _newInsurance) external {... */\n    tag_45:\n        /* \"Spc19.sol\":2126:2139  _newInsurance */\n      dup1\n        /* \"Spc19.sol\":2126:2153  _newInsurance.addSpcAddress */\n      0xffffffffffffffffffffffffffffffffffffffff\n      and\n      0x297e6306\n        /* \"Spc19.sol\":2162:2166  this */\n      address\n        /* \"Spc19.sol\":2126:2168  _newInsurance.addSpcAddress(address(this)) */\n      mload(0x40)\n      dup3\n      0xffffffff\n      and\n      0xe0\n      shl\n      dup2\n      mstore\n      0x04\n      add\n      tag_98\n      swap2\n      swap1\n      tag_21\n      jump\t// in\n    tag_98:\n      0x00\n      mload(0x40)\n      dup1\n      dup4\n      sub\n      dup2\n      0x00\n      dup8\n      dup1\n      extcodesize\n      iszero\n      dup1\n      iszero\n      tag_99\n      jumpi\n      0x00\n      dup1\n      revert\n    tag_99:\n      pop\n      gas\n      call\n      iszero\n      dup1\n      iszero\n      tag_101\n      jumpi\n      returndatasize\n      0x00\n      dup1\n      returndatacopy\n      revert(0x00, returndatasize)\n    tag_101:\n      pop\n      pop\n      pop\n      pop\n        /* \"Spc19.sol\":2231:2232  0 */\n      0x00\n        /* \"Spc19.sol\":2186:2232  idInsuranceToHotel[_newInsurance.getId()] == 0 */\n      dup1\n      shl\n        /* \"Spc19.sol\":2186:2204  idInsuranceToHotel */\n      0x04\n        /* \"Spc19.sol\":2186:2227  idInsuranceToHotel[_newInsurance.getId()] */\n      0x00\n        /* \"Spc19.sol\":2205:2218  _newInsurance */\n      dup4\n        /* \"Spc19.sol\":2205:2224  _newInsurance.getId */\n      0xffffffffffffffffffffffffffffffffffffffff\n      and\n      0x5d1ca631\n        /* \"Spc19.sol\":2205:2226  _newInsurance.getId() */\n      mload(0x40)\n      dup2\n      0xffffffff\n      and\n      0xe0\n      shl\n      dup2\n      mstore\n      0x04\n      add\n      0x20\n      mload(0x40)\n      dup1\n      dup4\n      sub\n      dup2\n      dup7\n      dup1\n      extcodesize\n      iszero\n      dup1\n      iszero\n      tag_102\n      jumpi\n      0x00\n      dup1\n      revert\n    tag_102:\n      pop\n      gas\n      staticcall\n      iszero\n      dup1\n      iszero\n      tag_104\n      jumpi\n      returndatasize\n      0x00\n      dup1\n      returndatacopy\n      revert(0x00, returndatasize)\n    tag_104:\n      pop\n      pop\n      pop\n      pop\n      mload(0x40)\n      returndatasize\n      not(0x1f)\n      0x1f\n      dup3\n      add\n      and\n      dup3\n      add\n      dup1\n      0x40\n      mstore\n      pop\n      dup2\n      add\n      swap1\n      tag_105\n      swap2\n      swap1\n      tag_106\n      jump\t// in\n    tag_105:\n        /* \"Spc19.sol\":2186:2227  idInsuranceToHotel[_newInsurance.getId()] */\n      dup2\n      mstore\n      0x20\n      add\n      swap1\n      dup2\n      mstore\n      0x20\n      add\n      0x00\n      keccak256\n      sload\n        /* \"Spc19.sol\":2186:2232  idInsuranceToHotel[_newInsurance.getId()] == 0 */\n      eq\n        /* \"Spc19.sol\":2178:2277  require(idInsuranceToHotel[_newInsurance.getId()] == 0, \"Insurance ID has already been registered\") */\n      tag_107\n      jumpi\n      mload(0x40)\n      0x08c379a000000000000000000000000000000000000000000000000000000000\n      dup2\n      mstore\n      0x04\n      add\n      tag_108\n      swap1\n      tag_109\n      jump\t// in\n    tag_108:\n      mload(0x40)\n      dup1\n      swap2\n      sub\n      swap1\n      revert\n    tag_107:\n        /* \"Spc19.sol\":2292:2310  hotelHasInsurances */\n      0x03\n        /* \"Spc19.sol\":2292:2338  hotelHasInsurances[_newInsurance.getTakerId()] */\n      0x00\n        /* \"Spc19.sol\":2311:2324  _newInsurance */\n      dup3\n        /* \"Spc19.sol\":2311:2335  _newInsurance.getTakerId */\n      0xffffffffffffffffffffffffffffffffffffffff\n      and\n      0xfc1c7a70\n        /* \"Spc19.sol\":2311:2337  _newInsurance.getTakerId() */\n      mload(0x40)\n      dup2\n      0xffffffff\n      and\n      0xe0\n      shl\n      dup2\n      mstore\n      0x04\n      add\n      0x20\n      mload(0x40)\n      dup1\n      dup4\n      sub\n      dup2\n      dup7\n      dup1\n      extcodesize\n      iszero\n      dup1\n      iszero\n      tag_110\n      jumpi\n      0x00\n      dup1\n      revert\n    tag_110:\n      pop\n      gas\n      staticcall\n      iszero\n      dup1\n      iszero\n      tag_112\n      jumpi\n      returndatasize\n      0x00\n      dup1\n      returndatacopy\n      revert(0x00, returndatasize)\n    tag_112:\n      pop\n      pop\n      pop\n      pop\n      mload(0x40)\n      returndatasize\n      not(0x1f)\n      0x1f\n      dup3\n      add\n      and\n      dup3\n      add\n      dup1\n      0x40\n      mstore\n      pop\n      dup2\n      add\n      swap1\n      tag_113\n      swap2\n      swap1\n      tag_106\n      jump\t// in\n    tag_113:\n        /* \"Spc19.sol\":2292:2338  hotelHasInsurances[_newInsurance.getTakerId()] */\n      dup2\n      mstore\n      0x20\n      add\n      swap1\n      dup2\n      mstore\n      0x20\n      add\n      0x00\n      keccak256\n      0x00\n      swap1\n      sload\n      swap1\n      0x0100\n      exp\n      swap1\n      div\n      0xff\n      and\n        /* \"Spc19.sol\":2287:2471  if (!hotelHasInsurances[_newInsurance.getTakerId()]) {... */\n      tag_114\n      jumpi\n        /* \"Spc19.sol\":2354:2360  hotels */\n      0x06\n        /* \"Spc19.sol\":2366:2379  _newInsurance */\n      dup2\n        /* \"Spc19.sol\":2366:2390  _newInsurance.getTakerId */\n      0xffffffffffffffffffffffffffffffffffffffff\n      and\n      0xfc1c7a70\n        /* \"Spc19.sol\":2366:2392  _newInsurance.getTakerId() */\n      mload(0x40)\n      dup2\n      0xffffffff\n      and\n      0xe0\n      shl\n      dup2\n      mstore\n      0x04\n      add\n      0x20\n      mload(0x40)\n      dup1\n      dup4\n      sub\n      dup2\n      dup7\n      dup1\n      extcodesize\n      iszero\n      dup1\n      iszero\n      tag_115\n      jumpi\n      0x00\n      dup1\n      revert\n    tag_115:\n      pop\n      gas\n      staticcall\n      iszero\n      dup1\n      iszero\n      tag_117\n      jumpi\n      returndatasize\n      0x00\n      dup1\n      returndatacopy\n      revert(0x00, returndatasize)\n    tag_117:\n      pop\n      pop\n      pop\n      pop\n      mload(0x40)\n      returndatasize\n      not(0x1f)\n      0x1f\n      dup3\n      add\n      and\n      dup3\n      add\n      dup1\n      0x40\n      mstore\n      pop\n      dup2\n      add\n      swap1\n      tag_118\n      swap2\n      swap1\n      tag_106\n      jump\t// in\n    tag_118:\n        /* \"Spc19.sol\":2354:2393  hotels.push(_newInsurance.getTakerId()) */\n      swap1\n      dup1\n      0x01\n      dup2\n      sload\n      add\n      dup1\n      dup3\n      sstore\n      dup1\n      swap2\n      pop\n      pop\n      0x01\n      swap1\n      sub\n      swap1\n      0x00\n      mstore\n      keccak256(0x00, 0x20)\n      add\n      0x00\n      swap1\n      swap2\n      swap1\n      swap2\n      swap1\n      swap2\n      pop\n      sstore\n        /* \"Spc19.sol\":2456:2460  true */\n      0x01\n        /* \"Spc19.sol\":2407:2425  hotelHasInsurances */\n      0x03\n        /* \"Spc19.sol\":2407:2453  hotelHasInsurances[_newInsurance.getTakerId()] */\n      0x00\n        /* \"Spc19.sol\":2426:2439  _newInsurance */\n      dup4\n        /* \"Spc19.sol\":2426:2450  _newInsurance.getTakerId */\n      0xffffffffffffffffffffffffffffffffffffffff\n      and\n      0xfc1c7a70\n        /* \"Spc19.sol\":2426:2452  _newInsurance.getTakerId() */\n      mload(0x40)\n      dup2\n      0xffffffff\n      and\n      0xe0\n      shl\n      dup2\n      mstore\n      0x04\n      add\n      0x20\n      mload(0x40)\n      dup1\n      dup4\n      sub\n      dup2\n      dup7\n      dup1\n      extcodesize\n      iszero\n      dup1\n      iszero\n      tag_120\n      jumpi\n      0x00\n      dup1\n      revert\n    tag_120:\n      pop\n      gas\n      staticcall\n      iszero\n      dup1\n      iszero\n      tag_122\n      jumpi\n      returndatasize\n      0x00\n      dup1\n      returndatacopy\n      revert(0x00, returndatasize)\n    tag_122:\n      pop\n      pop\n      pop\n      pop\n      mload(0x40)\n      returndatasize\n      not(0x1f)\n      0x1f\n      dup3\n      add\n      and\n      dup3\n      add\n      dup1\n      0x40\n      mstore\n      pop\n      dup2\n      add\n      swap1\n      tag_123\n      swap2\n      swap1\n      tag_106\n      jump\t// in\n    tag_123:\n        /* \"Spc19.sol\":2407:2453  hotelHasInsurances[_newInsurance.getTakerId()] */\n      dup2\n      mstore\n      0x20\n      add\n      swap1\n      dup2\n      mstore\n      0x20\n      add\n      0x00\n      keccak256\n      0x00\n        /* \"Spc19.sol\":2407:2460  hotelHasInsurances[_newInsurance.getTakerId()] = true */\n      0x0100\n      exp\n      dup2\n      sload\n      dup2\n      0xff\n      mul\n      not\n      and\n      swap1\n      dup4\n      iszero\n      iszero\n      mul\n      or\n      swap1\n      sstore\n      pop\n        /* \"Spc19.sol\":2287:2471  if (!hotelHasInsurances[_newInsurance.getTakerId()]) {... */\n    tag_114:\n        /* \"Spc19.sol\":2480:2495  hotelInsurances */\n      0x02\n        /* \"Spc19.sol\":2480:2523  hotelInsurances[_newInsurance.getTakerId()] */\n      0x00\n        /* \"Spc19.sol\":2496:2509  _newInsurance */\n      dup3\n        /* \"Spc19.sol\":2496:2520  _newInsurance.getTakerId */\n      0xffffffffffffffffffffffffffffffffffffffff\n      and\n      0xfc1c7a70\n        /* \"Spc19.sol\":2496:2522  _newInsurance.getTakerId() */\n      mload(0x40)\n      dup2\n      0xffffffff\n      and\n      0xe0\n      shl\n      dup2\n      mstore\n      0x04\n      add\n      0x20\n      mload(0x40)\n      dup1\n      dup4\n      sub\n      dup2\n      dup7\n      dup1\n      extcodesize\n      iszero\n      dup1\n      iszero\n      tag_124\n      jumpi\n      0x00\n      dup1\n      revert\n    tag_124:\n      pop\n      gas\n      staticcall\n      iszero\n      dup1\n      iszero\n      tag_126\n      jumpi\n      returndatasize\n      0x00\n      dup1\n      returndatacopy\n      revert(0x00, returndatasize)\n    tag_126:\n      pop\n      pop\n      pop\n      pop\n      mload(0x40)\n      returndatasize\n      not(0x1f)\n      0x1f\n      dup3\n      add\n      and\n      dup3\n      add\n      dup1\n      0x40\n      mstore\n      pop\n      dup2\n      add\n      swap1\n      tag_127\n      swap2\n      swap1\n      tag_106\n      jump\t// in\n    tag_127:\n        /* \"Spc19.sol\":2480:2523  hotelInsurances[_newInsurance.getTakerId()] */\n      dup2\n      mstore\n      0x20\n      add\n      swap1\n      dup2\n      mstore\n      0x20\n      add\n      0x00\n      keccak256\n        /* \"Spc19.sol\":2529:2542  _newInsurance */\n      dup2\n        /* \"Spc19.sol\":2480:2543  hotelInsurances[_newInsurance.getTakerId()].push(_newInsurance) */\n      swap1\n      dup1\n      0x01\n      dup2\n      sload\n      add\n      dup1\n      dup3\n      sstore\n      dup1\n      swap2\n      pop\n      pop\n      0x01\n      swap1\n      sub\n      swap1\n      0x00\n      mstore\n      keccak256(0x00, 0x20)\n      add\n      0x00\n      swap1\n      swap2\n      swap1\n      swap2\n      swap1\n      swap2\n      0x0100\n      exp\n      dup2\n      sload\n      dup2\n      0xffffffffffffffffffffffffffffffffffffffff\n      mul\n      not\n      and\n      swap1\n      dup4\n      0xffffffffffffffffffffffffffffffffffffffff\n      and\n      mul\n      or\n      swap1\n      sstore\n      pop\n        /* \"Spc19.sol\":2649:2650  1 */\n      0x01\n        /* \"Spc19.sol\":2596:2611  hotelInsurances */\n      0x02\n        /* \"Spc19.sol\":2596:2639  hotelInsurances[_newInsurance.getTakerId()] */\n      0x00\n        /* \"Spc19.sol\":2612:2625  _newInsurance */\n      dup4\n        /* \"Spc19.sol\":2612:2636  _newInsurance.getTakerId */\n      0xffffffffffffffffffffffffffffffffffffffff\n      and\n      0xfc1c7a70\n        /* \"Spc19.sol\":2612:2638  _newInsurance.getTakerId() */\n      mload(0x40)\n      dup2\n      0xffffffff\n      and\n      0xe0\n      shl\n      dup2\n      mstore\n      0x04\n      add\n      0x20\n      mload(0x40)\n      dup1\n      dup4\n      sub\n      dup2\n      dup7\n      dup1\n      extcodesize\n      iszero\n      dup1\n      iszero\n      tag_129\n      jumpi\n      0x00\n      dup1\n      revert\n    tag_129:\n      pop\n      gas\n      staticcall\n      iszero\n      dup1\n      iszero\n      tag_131\n      jumpi\n      returndatasize\n      0x00\n      dup1\n      returndatacopy\n      revert(0x00, returndatasize)\n    tag_131:\n      pop\n      pop\n      pop\n      pop\n      mload(0x40)\n      returndatasize\n      not(0x1f)\n      0x1f\n      dup3\n      add\n      and\n      dup3\n      add\n      dup1\n      0x40\n      mstore\n      pop\n      dup2\n      add\n      swap1\n      tag_132\n      swap2\n      swap1\n      tag_106\n      jump\t// in\n    tag_132:\n        /* \"Spc19.sol\":2596:2639  hotelInsurances[_newInsurance.getTakerId()] */\n      dup2\n      mstore\n      0x20\n      add\n      swap1\n      dup2\n      mstore\n      0x20\n      add\n      0x00\n      keccak256\n        /* \"Spc19.sol\":2596:2646  hotelInsurances[_newInsurance.getTakerId()].length */\n      dup1\n      sload\n      swap1\n      pop\n        /* \"Spc19.sol\":2596:2650  hotelInsurances[_newInsurance.getTakerId()].length - 1 */\n      tag_133\n      swap2\n      swap1\n      tag_134\n      jump\t// in\n    tag_133:\n        /* \"Spc19.sol\":2553:2570  InsuranceLocation */\n      0x01\n        /* \"Spc19.sol\":2553:2593  InsuranceLocation[_newInsurance.getId()] */\n      0x00\n        /* \"Spc19.sol\":2571:2584  _newInsurance */\n      dup4\n        /* \"Spc19.sol\":2571:2590  _newInsurance.getId */\n      0xffffffffffffffffffffffffffffffffffffffff\n      and\n      0x5d1ca631\n        /* \"Spc19.sol\":2571:2592  _newInsurance.getId() */\n      mload(0x40)\n      dup2\n      0xffffffff\n      and\n      0xe0\n      shl\n      dup2\n      mstore\n      0x04\n      add\n      0x20\n      mload(0x40)\n      dup1\n      dup4\n      sub\n      dup2\n      dup7\n      dup1\n      extcodesize\n      iszero\n      dup1\n      iszero\n      tag_135\n      jumpi\n      0x00\n      dup1\n      revert\n    tag_135:\n      pop\n      gas\n      staticcall\n      iszero\n      dup1\n      iszero\n      tag_137\n      jumpi\n      returndatasize\n      0x00\n      dup1\n      returndatacopy\n      revert(0x00, returndatasize)\n    tag_137:\n      pop\n      pop\n      pop\n      pop\n      mload(0x40)\n      returndatasize\n      not(0x1f)\n      0x1f\n      dup3\n      add\n      and\n      dup3\n      add\n      dup1\n      0x40\n      mstore\n      pop\n      dup2\n      add\n      swap1\n      tag_138\n      swap2\n      swap1\n      tag_106\n      jump\t// in\n    tag_138:\n        /* \"Spc19.sol\":2553:2593  InsuranceLocation[_newInsurance.getId()] */\n      dup2\n      mstore\n      0x20\n      add\n      swap1\n      dup2\n      mstore\n      0x20\n      add\n      0x00\n      keccak256\n        /* \"Spc19.sol\":2553:2650  InsuranceLocation[_newInsurance.getId()] = hotelInsurances[_newInsurance.getTakerId()].length - 1 */\n      dup2\n      swap1\n      sstore\n      pop\n        /* \"Spc19.sol\":2704:2717  _newInsurance */\n      dup1\n        /* \"Spc19.sol\":2704:2728  _newInsurance.getTakerId */\n      0xffffffffffffffffffffffffffffffffffffffff\n      and\n      0xfc1c7a70\n        /* \"Spc19.sol\":2704:2730  _newInsurance.getTakerId() */\n      mload(0x40)\n      dup2\n      0xffffffff\n      and\n      0xe0\n      shl\n      dup2\n      mstore\n      0x04\n      add\n      0x20\n      mload(0x40)\n      dup1\n      dup4\n      sub\n      dup2\n      dup7\n      dup1\n      extcodesize\n      iszero\n      dup1\n      iszero\n      tag_139\n      jumpi\n      0x00\n      dup1\n      revert\n    tag_139:\n      pop\n      gas\n      staticcall\n      iszero\n      dup1\n      iszero\n      tag_141\n      jumpi\n      returndatasize\n      0x00\n      dup1\n      returndatacopy\n      revert(0x00, returndatasize)\n    tag_141:\n      pop\n      pop\n      pop\n      pop\n      mload(0x40)\n      returndatasize\n      not(0x1f)\n      0x1f\n      dup3\n      add\n      and\n      dup3\n      add\n      dup1\n      0x40\n      mstore\n      pop\n      dup2\n      add\n      swap1\n      tag_142\n      swap2\n      swap1\n      tag_106\n      jump\t// in\n    tag_142:\n        /* \"Spc19.sol\":2660:2678  idInsuranceToHotel */\n      0x04\n        /* \"Spc19.sol\":2660:2701  idInsuranceToHotel[_newInsurance.getId()] */\n      0x00\n        /* \"Spc19.sol\":2679:2692  _newInsurance */\n      dup4\n        /* \"Spc19.sol\":2679:2698  _newInsurance.getId */\n      0xffffffffffffffffffffffffffffffffffffffff\n      and\n      0x5d1ca631\n        /* \"Spc19.sol\":2679:2700  _newInsurance.getId() */\n      mload(0x40)\n      dup2\n      0xffffffff\n      and\n      0xe0\n      shl\n      dup2\n      mstore\n      0x04\n      add\n      0x20\n      mload(0x40)\n      dup1\n      dup4\n      sub\n      dup2\n      dup7\n      dup1\n      extcodesize\n      iszero\n      dup1\n      iszero\n      tag_143\n      jumpi\n      0x00\n      dup1\n      revert\n    tag_143:\n      pop\n      gas\n      staticcall\n      iszero\n      dup1\n      iszero\n      tag_145\n      jumpi\n      returndatasize\n      0x00\n      dup1\n      returndatacopy\n      revert(0x00, returndatasize)\n    tag_145:\n      pop\n      pop\n      pop\n      pop\n      mload(0x40)\n      returndatasize\n      not(0x1f)\n      0x1f\n      dup3\n      add\n      and\n      dup3\n      add\n      dup1\n      0x40\n      mstore\n      pop\n      dup2\n      add\n      swap1\n      tag_146\n      swap2\n      swap1\n      tag_106\n      jump\t// in\n    tag_146:\n        /* \"Spc19.sol\":2660:2701  idInsuranceToHotel[_newInsurance.getId()] */\n      dup2\n      mstore\n      0x20\n      add\n      swap1\n      dup2\n      mstore\n      0x20\n      add\n      0x00\n      keccak256\n        /* \"Spc19.sol\":2660:2730  idInsuranceToHotel[_newInsurance.getId()] = _newInsurance.getTakerId() */\n      dup2\n      swap1\n      sstore\n      pop\n        /* \"Spc19.sol\":2794:2807  _newInsurance */\n      dup1\n        /* \"Spc19.sol\":2740:2760  idInsuranceToAddress */\n      0x05\n        /* \"Spc19.sol\":2740:2783  idInsuranceToAddress[_newInsurance.getId()] */\n      0x00\n        /* \"Spc19.sol\":2761:2774  _newInsurance */\n      dup4\n        /* \"Spc19.sol\":2761:2780  _newInsurance.getId */\n      0xffffffffffffffffffffffffffffffffffffffff\n      and\n      0x5d1ca631\n        /* \"Spc19.sol\":2761:2782  _newInsurance.getId() */\n      mload(0x40)\n      dup2\n      0xffffffff\n      and\n      0xe0\n      shl\n      dup2\n      mstore\n      0x04\n      add\n      0x20\n      mload(0x40)\n      dup1\n      dup4\n      sub\n      dup2\n      dup7\n      dup1\n      extcodesize\n      iszero\n      dup1\n      iszero\n      tag_147\n      jumpi\n      0x00\n      dup1\n      revert\n    tag_147:\n      pop\n      gas\n      staticcall\n      iszero\n      dup1\n      iszero\n      tag_149\n      jumpi\n      returndatasize\n      0x00\n      dup1\n      returndatacopy\n      revert(0x00, returndatasize)\n    tag_149:\n      pop\n      pop\n      pop\n      pop\n      mload(0x40)\n      returndatasize\n      not(0x1f)\n      0x1f\n      dup3\n      add\n      and\n      dup3\n      add\n      dup1\n      0x40\n      mstore\n      pop\n      dup2\n      add\n      swap1\n      tag_150\n      swap2\n      swap1\n      tag_106\n      jump\t// in\n    tag_150:\n        /* \"Spc19.sol\":2740:2783  idInsuranceToAddress[_newInsurance.getId()] */\n      dup2\n      mstore\n      0x20\n      add\n      swap1\n      dup2\n      mstore\n      0x20\n      add\n      0x00\n      keccak256\n      0x00\n        /* \"Spc19.sol\":2740:2808  idInsuranceToAddress[_newInsurance.getId()] = address(_newInsurance) */\n      0x0100\n      exp\n      dup2\n      sload\n      dup2\n      0xffffffffffffffffffffffffffffffffffffffff\n      mul\n      not\n      and\n      swap1\n      dup4\n      0xffffffffffffffffffffffffffffffffffffffff\n      and\n      mul\n      or\n      swap1\n      sstore\n      pop\n        /* \"Spc19.sol\":2060:2815  function addInsurance(Insurance _newInsurance) external {... */\n      pop\n      jump\t// out\n        /* \"#utility.yul\":7:350   */\n    tag_152:\n      0x00\n        /* \"#utility.yul\":109:174   */\n      tag_154\n        /* \"#utility.yul\":125:173   */\n      tag_155\n        /* \"#utility.yul\":166:172   */\n      dup5\n        /* \"#utility.yul\":125:173   */\n      tag_156\n      jump\t// in\n    tag_155:\n        /* \"#utility.yul\":109:174   */\n      tag_157\n      jump\t// in\n    tag_154:\n        /* \"#utility.yul\":100:174   */\n      swap1\n      pop\n        /* \"#utility.yul\":197:203   */\n      dup3\n        /* \"#utility.yul\":190:195   */\n      dup2\n        /* \"#utility.yul\":183:204   */\n      mstore\n        /* \"#utility.yul\":235:239   */\n      0x20\n        /* \"#utility.yul\":228:233   */\n      dup2\n        /* \"#utility.yul\":224:240   */\n      add\n        /* \"#utility.yul\":273:276   */\n      dup5\n        /* \"#utility.yul\":264:270   */\n      dup5\n        /* \"#utility.yul\":259:262   */\n      dup5\n        /* \"#utility.yul\":255:271   */\n      add\n        /* \"#utility.yul\":252:277   */\n      gt\n        /* \"#utility.yul\":249:251   */\n      iszero\n      tag_158\n      jumpi\n        /* \"#utility.yul\":290:291   */\n      0x00\n        /* \"#utility.yul\":287:288   */\n      dup1\n        /* \"#utility.yul\":280:292   */\n      revert\n        /* \"#utility.yul\":249:251   */\n    tag_158:\n        /* \"#utility.yul\":303:344   */\n      tag_159\n        /* \"#utility.yul\":337:343   */\n      dup5\n        /* \"#utility.yul\":332:335   */\n      dup3\n        /* \"#utility.yul\":327:330   */\n      dup6\n        /* \"#utility.yul\":303:344   */\n      tag_160\n      jump\t// in\n    tag_159:\n        /* \"#utility.yul\":90:350   */\n      pop\n      swap4\n      swap3\n      pop\n      pop\n      pop\n      jump\t// out\n        /* \"#utility.yul\":356:708   */\n    tag_161:\n      0x00\n        /* \"#utility.yul\":469:534   */\n      tag_163\n        /* \"#utility.yul\":485:533   */\n      tag_164\n        /* \"#utility.yul\":526:532   */\n      dup5\n        /* \"#utility.yul\":485:533   */\n      tag_156\n      jump\t// in\n    tag_164:\n        /* \"#utility.yul\":469:534   */\n      tag_157\n      jump\t// in\n    tag_163:\n        /* \"#utility.yul\":460:534   */\n      swap1\n      pop\n        /* \"#utility.yul\":557:563   */\n      dup3\n        /* \"#utility.yul\":550:555   */\n      dup2\n        /* \"#utility.yul\":543:564   */\n      mstore\n        /* \"#utility.yul\":595:599   */\n      0x20\n        /* \"#utility.yul\":588:593   */\n      dup2\n        /* \"#utility.yul\":584:600   */\n      add\n        /* \"#utility.yul\":633:636   */\n      dup5\n        /* \"#utility.yul\":624:630   */\n      dup5\n        /* \"#utility.yul\":619:622   */\n      dup5\n        /* \"#utility.yul\":615:631   */\n      add\n        /* \"#utility.yul\":612:637   */\n      gt\n        /* \"#utility.yul\":609:611   */\n      iszero\n      tag_165\n      jumpi\n        /* \"#utility.yul\":650:651   */\n      0x00\n        /* \"#utility.yul\":647:648   */\n      dup1\n        /* \"#utility.yul\":640:652   */\n      revert\n        /* \"#utility.yul\":609:611   */\n    tag_165:\n        /* \"#utility.yul\":663:702   */\n      tag_166\n        /* \"#utility.yul\":695:701   */\n      dup5\n        /* \"#utility.yul\":690:693   */\n      dup3\n        /* \"#utility.yul\":685:688   */\n      dup6\n        /* \"#utility.yul\":663:702   */\n      tag_167\n      jump\t// in\n    tag_166:\n        /* \"#utility.yul\":450:708   */\n      pop\n      swap4\n      swap3\n      pop\n      pop\n      pop\n      jump\t// out\n        /* \"#utility.yul\":714:853   */\n    tag_168:\n      0x00\n        /* \"#utility.yul\":798:804   */\n      dup2\n        /* \"#utility.yul\":785:805   */\n      calldataload\n        /* \"#utility.yul\":776:805   */\n      swap1\n      pop\n        /* \"#utility.yul\":814:847   */\n      tag_170\n        /* \"#utility.yul\":841:846   */\n      dup2\n        /* \"#utility.yul\":814:847   */\n      tag_171\n      jump\t// in\n    tag_170:\n        /* \"#utility.yul\":766:853   */\n      swap3\n      swap2\n      pop\n      pop\n      jump\t// out\n        /* \"#utility.yul\":859:1002   */\n    tag_172:\n      0x00\n        /* \"#utility.yul\":947:953   */\n      dup2\n        /* \"#utility.yul\":941:954   */\n      mload\n        /* \"#utility.yul\":932:954   */\n      swap1\n      pop\n        /* \"#utility.yul\":963:996   */\n      tag_174\n        /* \"#utility.yul\":990:995   */\n      dup2\n        /* \"#utility.yul\":963:996   */\n      tag_171\n      jump\t// in\n    tag_174:\n        /* \"#utility.yul\":922:1002   */\n      swap3\n      swap2\n      pop\n      pop\n      jump\t// out\n        /* \"#utility.yul\":1021:1292   */\n    tag_175:\n      0x00\n        /* \"#utility.yul\":1125:1128   */\n      dup3\n        /* \"#utility.yul\":1118:1122   */\n      0x1f\n        /* \"#utility.yul\":1110:1116   */\n      dup4\n        /* \"#utility.yul\":1106:1123   */\n      add\n        /* \"#utility.yul\":1102:1129   */\n      slt\n        /* \"#utility.yul\":1092:1094   */\n      tag_177\n      jumpi\n        /* \"#utility.yul\":1143:1144   */\n      0x00\n        /* \"#utility.yul\":1140:1141   */\n      dup1\n        /* \"#utility.yul\":1133:1145   */\n      revert\n        /* \"#utility.yul\":1092:1094   */\n    tag_177:\n        /* \"#utility.yul\":1183:1189   */\n      dup2\n        /* \"#utility.yul\":1170:1190   */\n      calldataload\n        /* \"#utility.yul\":1208:1286   */\n      tag_178\n        /* \"#utility.yul\":1282:1285   */\n      dup5\n        /* \"#utility.yul\":1274:1280   */\n      dup3\n        /* \"#utility.yul\":1267:1271   */\n      0x20\n        /* \"#utility.yul\":1259:1265   */\n      dup7\n        /* \"#utility.yul\":1255:1272   */\n      add\n        /* \"#utility.yul\":1208:1286   */\n      tag_152\n      jump\t// in\n    tag_178:\n        /* \"#utility.yul\":1199:1286   */\n      swap2\n      pop\n        /* \"#utility.yul\":1082:1292   */\n      pop\n      swap3\n      swap2\n      pop\n      pop\n      jump\t// out\n        /* \"#utility.yul\":1311:1597   */\n    tag_179:\n      0x00\n        /* \"#utility.yul\":1426:1429   */\n      dup3\n        /* \"#utility.yul\":1419:1423   */\n      0x1f\n        /* \"#utility.yul\":1411:1417   */\n      dup4\n        /* \"#utility.yul\":1407:1424   */\n      add\n        /* \"#utility.yul\":1403:1430   */\n      slt\n        /* \"#utility.yul\":1393:1395   */\n      tag_181\n      jumpi\n        /* \"#utility.yul\":1444:1445   */\n      0x00\n        /* \"#utility.yul\":1441:1442   */\n      dup1\n        /* \"#utility.yul\":1434:1446   */\n      revert\n        /* \"#utility.yul\":1393:1395   */\n    tag_181:\n        /* \"#utility.yul\":1477:1483   */\n      dup2\n        /* \"#utility.yul\":1471:1484   */\n      mload\n        /* \"#utility.yul\":1502:1591   */\n      tag_182\n        /* \"#utility.yul\":1587:1590   */\n      dup5\n        /* \"#utility.yul\":1579:1585   */\n      dup3\n        /* \"#utility.yul\":1572:1576   */\n      0x20\n        /* \"#utility.yul\":1564:1570   */\n      dup7\n        /* \"#utility.yul\":1560:1577   */\n      add\n        /* \"#utility.yul\":1502:1591   */\n      tag_161\n      jump\t// in\n    tag_182:\n        /* \"#utility.yul\":1493:1591   */\n      swap2\n      pop\n        /* \"#utility.yul\":1383:1597   */\n      pop\n      swap3\n      swap2\n      pop\n      pop\n      jump\t// out\n        /* \"#utility.yul\":1603:1778   */\n    tag_183:\n      0x00\n        /* \"#utility.yul\":1705:1711   */\n      dup2\n        /* \"#utility.yul\":1692:1712   */\n      calldataload\n        /* \"#utility.yul\":1683:1712   */\n      swap1\n      pop\n        /* \"#utility.yul\":1721:1772   */\n      tag_185\n        /* \"#utility.yul\":1766:1771   */\n      dup2\n        /* \"#utility.yul\":1721:1772   */\n      tag_186\n      jump\t// in\n    tag_185:\n        /* \"#utility.yul\":1673:1778   */\n      swap3\n      swap2\n      pop\n      pop\n      jump\t// out\n        /* \"#utility.yul\":1784:1927   */\n    tag_187:\n      0x00\n        /* \"#utility.yul\":1872:1878   */\n      dup2\n        /* \"#utility.yul\":1866:1879   */\n      mload\n        /* \"#utility.yul\":1857:1879   */\n      swap1\n      pop\n        /* \"#utility.yul\":1888:1921   */\n      tag_189\n        /* \"#utility.yul\":1915:1920   */\n      dup2\n        /* \"#utility.yul\":1888:1921   */\n      tag_190\n      jump\t// in\n    tag_189:\n        /* \"#utility.yul\":1847:1927   */\n      swap3\n      swap2\n      pop\n      pop\n      jump\t// out\n        /* \"#utility.yul\":1933:2195   */\n    tag_18:\n      0x00\n        /* \"#utility.yul\":2041:2043   */\n      0x20\n        /* \"#utility.yul\":2029:2038   */\n      dup3\n        /* \"#utility.yul\":2020:2027   */\n      dup5\n        /* \"#utility.yul\":2016:2039   */\n      sub\n        /* \"#utility.yul\":2012:2044   */\n      slt\n        /* \"#utility.yul\":2009:2011   */\n      iszero\n      tag_192\n      jumpi\n        /* \"#utility.yul\":2057:2058   */\n      0x00\n        /* \"#utility.yul\":2054:2055   */\n      dup1\n        /* \"#utility.yul\":2047:2059   */\n      revert\n        /* \"#utility.yul\":2009:2011   */\n    tag_192:\n        /* \"#utility.yul\":2100:2101   */\n      0x00\n        /* \"#utility.yul\":2125:2178   */\n      tag_193\n        /* \"#utility.yul\":2170:2177   */\n      dup5\n        /* \"#utility.yul\":2161:2167   */\n      dup3\n        /* \"#utility.yul\":2150:2159   */\n      dup6\n        /* \"#utility.yul\":2146:2168   */\n      add\n        /* \"#utility.yul\":2125:2178   */\n      tag_168\n      jump\t// in\n    tag_193:\n        /* \"#utility.yul\":2115:2178   */\n      swap2\n      pop\n        /* \"#utility.yul\":2071:2188   */\n      pop\n        /* \"#utility.yul\":1999:2195   */\n      swap3\n      swap2\n      pop\n      pop\n      jump\t// out\n        /* \"#utility.yul\":2201:2485   */\n    tag_106:\n      0x00\n        /* \"#utility.yul\":2320:2322   */\n      0x20\n        /* \"#utility.yul\":2308:2317   */\n      dup3\n        /* \"#utility.yul\":2299:2306   */\n      dup5\n        /* \"#utility.yul\":2295:2318   */\n      sub\n        /* \"#utility.yul\":2291:2323   */\n      slt\n        /* \"#utility.yul\":2288:2290   */\n      iszero\n      tag_195\n      jumpi\n        /* \"#utility.yul\":2336:2337   */\n      0x00\n        /* \"#utility.yul\":2333:2334   */\n      dup1\n        /* \"#utility.yul\":2326:2338   */\n      revert\n        /* \"#utility.yul\":2288:2290   */\n    tag_195:\n        /* \"#utility.yul\":2379:2380   */\n      0x00\n        /* \"#utility.yul\":2404:2468   */\n      tag_196\n        /* \"#utility.yul\":2460:2467   */\n      dup5\n        /* \"#utility.yul\":2451:2457   */\n      dup3\n        /* \"#utility.yul\":2440:2449   */\n      dup6\n        /* \"#utility.yul\":2436:2458   */\n      add\n        /* \"#utility.yul\":2404:2468   */\n      tag_172\n      jump\t// in\n    tag_196:\n        /* \"#utility.yul\":2394:2468   */\n      swap2\n      pop\n        /* \"#utility.yul\":2350:2478   */\n      pop\n        /* \"#utility.yul\":2278:2485   */\n      swap3\n      swap2\n      pop\n      pop\n      jump\t// out\n        /* \"#utility.yul\":2491:3120   */\n    tag_39:\n      0x00\n      dup1\n        /* \"#utility.yul\":2634:2636   */\n      0x40\n        /* \"#utility.yul\":2622:2631   */\n      dup4\n        /* \"#utility.yul\":2613:2620   */\n      dup6\n        /* \"#utility.yul\":2609:2632   */\n      sub\n        /* \"#utility.yul\":2605:2637   */\n      slt\n        /* \"#utility.yul\":2602:2604   */\n      iszero\n      tag_198\n      jumpi\n        /* \"#utility.yul\":2650:2651   */\n      0x00\n        /* \"#utility.yul\":2647:2648   */\n      dup1\n        /* \"#utility.yul\":2640:2652   */\n      revert\n        /* \"#utility.yul\":2602:2604   */\n    tag_198:\n        /* \"#utility.yul\":2721:2722   */\n      0x00\n        /* \"#utility.yul\":2710:2719   */\n      dup4\n        /* \"#utility.yul\":2706:2723   */\n      add\n        /* \"#utility.yul\":2693:2724   */\n      calldataload\n        /* \"#utility.yul\":2751:2769   */\n      0xffffffffffffffff\n        /* \"#utility.yul\":2743:2749   */\n      dup2\n        /* \"#utility.yul\":2740:2770   */\n      gt\n        /* \"#utility.yul\":2737:2739   */\n      iszero\n      tag_199\n      jumpi\n        /* \"#utility.yul\":2783:2784   */\n      0x00\n        /* \"#utility.yul\":2780:2781   */\n      dup1\n        /* \"#utility.yul\":2773:2785   */\n      revert\n        /* \"#utility.yul\":2737:2739   */\n    tag_199:\n        /* \"#utility.yul\":2811:2873   */\n      tag_200\n        /* \"#utility.yul\":2865:2872   */\n      dup6\n        /* \"#utility.yul\":2856:2862   */\n      dup3\n        /* \"#utility.yul\":2845:2854   */\n      dup7\n        /* \"#utility.yul\":2841:2863   */\n      add\n        /* \"#utility.yul\":2811:2873   */\n      tag_175\n      jump\t// in\n    tag_200:\n        /* \"#utility.yul\":2801:2873   */\n      swap3\n      pop\n        /* \"#utility.yul\":2664:2883   */\n      pop\n        /* \"#utility.yul\":2950:2952   */\n      0x20\n        /* \"#utility.yul\":2939:2948   */\n      dup4\n        /* \"#utility.yul\":2935:2953   */\n      add\n        /* \"#utility.yul\":2922:2954   */\n      calldataload\n        /* \"#utility.yul\":2981:2999   */\n      0xffffffffffffffff\n        /* \"#utility.yul\":2973:2979   */\n      dup2\n        /* \"#utility.yul\":2970:3000   */\n      gt\n        /* \"#utility.yul\":2967:2969   */\n      iszero\n      tag_201\n      jumpi\n        /* \"#utility.yul\":3013:3014   */\n      0x00\n        /* \"#utility.yul\":3010:3011   */\n      dup1\n        /* \"#utility.yul\":3003:3015   */\n      revert\n        /* \"#utility.yul\":2967:2969   */\n    tag_201:\n        /* \"#utility.yul\":3041:3103   */\n      tag_202\n        /* \"#utility.yul\":3095:3102   */\n      dup6\n        /* \"#utility.yul\":3086:3092   */\n      dup3\n        /* \"#utility.yul\":3075:3084   */\n      dup7\n        /* \"#utility.yul\":3071:3093   */\n      add\n        /* \"#utility.yul\":3041:3103   */\n      tag_175\n      jump\t// in\n    tag_202:\n        /* \"#utility.yul\":3031:3103   */\n      swap2\n      pop\n        /* \"#utility.yul\":2893:3113   */\n      pop\n        /* \"#utility.yul\":2592:3120   */\n      swap3\n      pop\n      swap3\n      swap1\n      pop\n      jump\t// out\n        /* \"#utility.yul\":3126:3670   */\n    tag_65:\n      0x00\n      dup1\n        /* \"#utility.yul\":3271:3273   */\n      0x40\n        /* \"#utility.yul\":3259:3268   */\n      dup4\n        /* \"#utility.yul\":3250:3257   */\n      dup6\n        /* \"#utility.yul\":3246:3269   */\n      sub\n        /* \"#utility.yul\":3242:3274   */\n      slt\n        /* \"#utility.yul\":3239:3241   */\n      iszero\n      tag_204\n      jumpi\n        /* \"#utility.yul\":3287:3288   */\n      0x00\n        /* \"#utility.yul\":3284:3285   */\n      dup1\n        /* \"#utility.yul\":3277:3289   */\n      revert\n        /* \"#utility.yul\":3239:3241   */\n    tag_204:\n        /* \"#utility.yul\":3351:3352   */\n      0x00\n        /* \"#utility.yul\":3340:3349   */\n      dup4\n        /* \"#utility.yul\":3336:3353   */\n      add\n        /* \"#utility.yul\":3330:3354   */\n      mload\n        /* \"#utility.yul\":3381:3399   */\n      0xffffffffffffffff\n        /* \"#utility.yul\":3373:3379   */\n      dup2\n        /* \"#utility.yul\":3370:3400   */\n      gt\n        /* \"#utility.yul\":3367:3369   */\n      iszero\n      tag_205\n      jumpi\n        /* \"#utility.yul\":3413:3414   */\n      0x00\n        /* \"#utility.yul\":3410:3411   */\n      dup1\n        /* \"#utility.yul\":3403:3415   */\n      revert\n        /* \"#utility.yul\":3367:3369   */\n    tag_205:\n        /* \"#utility.yul\":3441:3514   */\n      tag_206\n        /* \"#utility.yul\":3506:3513   */\n      dup6\n        /* \"#utility.yul\":3497:3503   */\n      dup3\n        /* \"#utility.yul\":3486:3495   */\n      dup7\n        /* \"#utility.yul\":3482:3504   */\n      add\n        /* \"#utility.yul\":3441:3514   */\n      tag_179\n      jump\t// in\n    tag_206:\n        /* \"#utility.yul\":3431:3514   */\n      swap3\n      pop\n        /* \"#utility.yul\":3301:3524   */\n      pop\n        /* \"#utility.yul\":3563:3565   */\n      0x20\n        /* \"#utility.yul\":3589:3653   */\n      tag_207\n        /* \"#utility.yul\":3645:3652   */\n      dup6\n        /* \"#utility.yul\":3636:3642   */\n      dup3\n        /* \"#utility.yul\":3625:3634   */\n      dup7\n        /* \"#utility.yul\":3621:3643   */\n      add\n        /* \"#utility.yul\":3589:3653   */\n      tag_187\n      jump\t// in\n    tag_207:\n        /* \"#utility.yul\":3579:3653   */\n      swap2\n      pop\n        /* \"#utility.yul\":3534:3663   */\n      pop\n        /* \"#utility.yul\":3229:3670   */\n      swap3\n      pop\n      swap3\n      swap1\n      pop\n      jump\t// out\n        /* \"#utility.yul\":3676:3974   */\n    tag_44:\n      0x00\n        /* \"#utility.yul\":3802:3804   */\n      0x20\n        /* \"#utility.yul\":3790:3799   */\n      dup3\n        /* \"#utility.yul\":3781:3788   */\n      dup5\n        /* \"#utility.yul\":3777:3800   */\n      sub\n        /* \"#utility.yul\":3773:3805   */\n      slt\n        /* \"#utility.yul\":3770:3772   */\n      iszero\n      tag_209\n      jumpi\n        /* \"#utility.yul\":3818:3819   */\n      0x00\n        /* \"#utility.yul\":3815:3816   */\n      dup1\n        /* \"#utility.yul\":3808:3820   */\n      revert\n        /* \"#utility.yul\":3770:3772   */\n    tag_209:\n        /* \"#utility.yul\":3861:3862   */\n      0x00\n        /* \"#utility.yul\":3886:3957   */\n      tag_210\n        /* \"#utility.yul\":3949:3956   */\n      dup5\n        /* \"#utility.yul\":3940:3946   */\n      dup3\n        /* \"#utility.yul\":3929:3938   */\n      dup6\n        /* \"#utility.yul\":3925:3947   */\n      add\n        /* \"#utility.yul\":3886:3957   */\n      tag_183\n      jump\t// in\n    tag_210:\n        /* \"#utility.yul\":3876:3957   */\n      swap2\n      pop\n        /* \"#utility.yul\":3832:3967   */\n      pop\n        /* \"#utility.yul\":3760:3974   */\n      swap3\n      swap2\n      pop\n      pop\n      jump\t// out\n        /* \"#utility.yul\":3980:4159   */\n    tag_211:\n      0x00\n        /* \"#utility.yul\":4070:4116   */\n      tag_213\n        /* \"#utility.yul\":4112:4115   */\n      dup4\n        /* \"#utility.yul\":4104:4110   */\n      dup4\n        /* \"#utility.yul\":4070:4116   */\n      tag_214\n      jump\t// in\n    tag_213:\n        /* \"#utility.yul\":4148:4152   */\n      0x20\n        /* \"#utility.yul\":4143:4146   */\n      dup4\n        /* \"#utility.yul\":4139:4153   */\n      add\n        /* \"#utility.yul\":4125:4153   */\n      swap1\n      pop\n        /* \"#utility.yul\":4060:4159   */\n      swap3\n      swap2\n      pop\n      pop\n      jump\t// out\n        /* \"#utility.yul\":4165:4283   */\n    tag_215:\n        /* \"#utility.yul\":4252:4276   */\n      tag_217\n        /* \"#utility.yul\":4270:4275   */\n      dup2\n        /* \"#utility.yul\":4252:4276   */\n      tag_218\n      jump\t// in\n    tag_217:\n        /* \"#utility.yul\":4247:4250   */\n      dup3\n        /* \"#utility.yul\":4240:4277   */\n      mstore\n        /* \"#utility.yul\":4230:4283   */\n      pop\n      pop\n      jump\t// out\n        /* \"#utility.yul\":4319:5051   */\n    tag_219:\n      0x00\n        /* \"#utility.yul\":4467:4521   */\n      tag_221\n        /* \"#utility.yul\":4515:4520   */\n      dup3\n        /* \"#utility.yul\":4467:4521   */\n      tag_222\n      jump\t// in\n    tag_221:\n        /* \"#utility.yul\":4537:4623   */\n      tag_223\n        /* \"#utility.yul\":4616:4622   */\n      dup2\n        /* \"#utility.yul\":4611:4614   */\n      dup6\n        /* \"#utility.yul\":4537:4623   */\n      tag_224\n      jump\t// in\n    tag_223:\n        /* \"#utility.yul\":4530:4623   */\n      swap4\n      pop\n        /* \"#utility.yul\":4647:4703   */\n      tag_225\n        /* \"#utility.yul\":4697:4702   */\n      dup4\n        /* \"#utility.yul\":4647:4703   */\n      tag_226\n      jump\t// in\n    tag_225:\n        /* \"#utility.yul\":4726:4733   */\n      dup1\n        /* \"#utility.yul\":4757:4758   */\n      0x00\n        /* \"#utility.yul\":4742:5026   */\n    tag_227:\n        /* \"#utility.yul\":4767:4773   */\n      dup4\n        /* \"#utility.yul\":4764:4765   */\n      dup2\n        /* \"#utility.yul\":4761:4774   */\n      lt\n        /* \"#utility.yul\":4742:5026   */\n      iszero\n      tag_229\n      jumpi\n        /* \"#utility.yul\":4843:4849   */\n      dup2\n        /* \"#utility.yul\":4837:4850   */\n      mload\n        /* \"#utility.yul\":4870:4933   */\n      tag_230\n        /* \"#utility.yul\":4929:4932   */\n      dup9\n        /* \"#utility.yul\":4914:4927   */\n      dup3\n        /* \"#utility.yul\":4870:4933   */\n      tag_211\n      jump\t// in\n    tag_230:\n        /* \"#utility.yul\":4863:4933   */\n      swap8\n      pop\n        /* \"#utility.yul\":4956:5016   */\n      tag_231\n        /* \"#utility.yul\":5009:5015   */\n      dup4\n        /* \"#utility.yul\":4956:5016   */\n      tag_232\n      jump\t// in\n    tag_231:\n        /* \"#utility.yul\":4946:5016   */\n      swap3\n      pop\n        /* \"#utility.yul\":4802:5026   */\n      pop\n        /* \"#utility.yul\":4789:4790   */\n      0x01\n        /* \"#utility.yul\":4786:4787   */\n      dup2\n        /* \"#utility.yul\":4782:4791   */\n      add\n        /* \"#utility.yul\":4777:4791   */\n      swap1\n      pop\n        /* \"#utility.yul\":4742:5026   */\n      jump(tag_227)\n    tag_229:\n        /* \"#utility.yul\":4746:4760   */\n      pop\n        /* \"#utility.yul\":5042:5045   */\n      dup6\n        /* \"#utility.yul\":5035:5045   */\n      swap4\n      pop\n        /* \"#utility.yul\":4443:5051   */\n      pop\n      pop\n      pop\n      swap3\n      swap2\n      pop\n      pop\n      jump\t// out\n        /* \"#utility.yul\":5057:5165   */\n    tag_214:\n        /* \"#utility.yul\":5134:5158   */\n      tag_234\n        /* \"#utility.yul\":5152:5157   */\n      dup2\n        /* \"#utility.yul\":5134:5158   */\n      tag_235\n      jump\t// in\n    tag_234:\n        /* \"#utility.yul\":5129:5132   */\n      dup3\n        /* \"#utility.yul\":5122:5159   */\n      mstore\n        /* \"#utility.yul\":5112:5165   */\n      pop\n      pop\n      jump\t// out\n        /* \"#utility.yul\":5171:5531   */\n    tag_236:\n      0x00\n        /* \"#utility.yul\":5285:5323   */\n      tag_238\n        /* \"#utility.yul\":5317:5322   */\n      dup3\n        /* \"#utility.yul\":5285:5323   */\n      tag_239\n      jump\t// in\n    tag_238:\n        /* \"#utility.yul\":5339:5409   */\n      tag_240\n        /* \"#utility.yul\":5402:5408   */\n      dup2\n        /* \"#utility.yul\":5397:5400   */\n      dup6\n        /* \"#utility.yul\":5339:5409   */\n      tag_241\n      jump\t// in\n    tag_240:\n        /* \"#utility.yul\":5332:5409   */\n      swap4\n      pop\n        /* \"#utility.yul\":5418:5470   */\n      tag_242\n        /* \"#utility.yul\":5463:5469   */\n      dup2\n        /* \"#utility.yul\":5458:5461   */\n      dup6\n        /* \"#utility.yul\":5451:5455   */\n      0x20\n        /* \"#utility.yul\":5444:5449   */\n      dup7\n        /* \"#utility.yul\":5440:5456   */\n      add\n        /* \"#utility.yul\":5418:5470   */\n      tag_167\n      jump\t// in\n    tag_242:\n        /* \"#utility.yul\":5495:5524   */\n      tag_243\n        /* \"#utility.yul\":5517:5523   */\n      dup2\n        /* \"#utility.yul\":5495:5524   */\n      tag_244\n      jump\t// in\n    tag_243:\n        /* \"#utility.yul\":5490:5493   */\n      dup5\n        /* \"#utility.yul\":5486:5525   */\n      add\n        /* \"#utility.yul\":5479:5525   */\n      swap2\n      pop\n        /* \"#utility.yul\":5261:5531   */\n      pop\n      swap3\n      swap2\n      pop\n      pop\n      jump\t// out\n        /* \"#utility.yul\":5537:5903   */\n    tag_245:\n      0x00\n        /* \"#utility.yul\":5700:5767   */\n      tag_247\n        /* \"#utility.yul\":5764:5766   */\n      0x28\n        /* \"#utility.yul\":5759:5762   */\n      dup4\n        /* \"#utility.yul\":5700:5767   */\n      tag_248\n      jump\t// in\n    tag_247:\n        /* \"#utility.yul\":5693:5767   */\n      swap2\n      pop\n        /* \"#utility.yul\":5776:5869   */\n      tag_249\n        /* \"#utility.yul\":5865:5868   */\n      dup3\n        /* \"#utility.yul\":5776:5869   */\n      tag_250\n      jump\t// in\n    tag_249:\n        /* \"#utility.yul\":5894:5896   */\n      0x40\n        /* \"#utility.yul\":5889:5892   */\n      dup3\n        /* \"#utility.yul\":5885:5897   */\n      add\n        /* \"#utility.yul\":5878:5897   */\n      swap1\n      pop\n        /* \"#utility.yul\":5683:5903   */\n      swap2\n      swap1\n      pop\n      jump\t// out\n        /* \"#utility.yul\":5909:6027   */\n    tag_251:\n        /* \"#utility.yul\":5996:6020   */\n      tag_253\n        /* \"#utility.yul\":6014:6019   */\n      dup2\n        /* \"#utility.yul\":5996:6020   */\n      tag_254\n      jump\t// in\n    tag_253:\n        /* \"#utility.yul\":5991:5994   */\n      dup3\n        /* \"#utility.yul\":5984:6021   */\n      mstore\n        /* \"#utility.yul\":5974:6027   */\n      pop\n      pop\n      jump\t// out\n        /* \"#utility.yul\":6033:6255   */\n    tag_21:\n      0x00\n        /* \"#utility.yul\":6164:6166   */\n      0x20\n        /* \"#utility.yul\":6153:6162   */\n      dup3\n        /* \"#utility.yul\":6149:6167   */\n      add\n        /* \"#utility.yul\":6141:6167   */\n      swap1\n      pop\n        /* \"#utility.yul\":6177:6248   */\n      tag_256\n        /* \"#utility.yul\":6245:6246   */\n      0x00\n        /* \"#utility.yul\":6234:6243   */\n      dup4\n        /* \"#utility.yul\":6230:6247   */\n      add\n        /* \"#utility.yul\":6221:6227   */\n      dup5\n        /* \"#utility.yul\":6177:6248   */\n      tag_215\n      jump\t// in\n    tag_256:\n        /* \"#utility.yul\":6131:6255   */\n      swap3\n      swap2\n      pop\n      pop\n      jump\t// out\n        /* \"#utility.yul\":6261:6634   */\n    tag_30:\n      0x00\n        /* \"#utility.yul\":6442:6444   */\n      0x20\n        /* \"#utility.yul\":6431:6440   */\n      dup3\n        /* \"#utility.yul\":6427:6445   */\n      add\n        /* \"#utility.yul\":6419:6445   */\n      swap1\n      pop\n        /* \"#utility.yul\":6491:6500   */\n      dup2\n        /* \"#utility.yul\":6485:6489   */\n      dup2\n        /* \"#utility.yul\":6481:6501   */\n      sub\n        /* \"#utility.yul\":6477:6478   */\n      0x00\n        /* \"#utility.yul\":6466:6475   */\n      dup4\n        /* \"#utility.yul\":6462:6479   */\n      add\n        /* \"#utility.yul\":6455:6502   */\n      mstore\n        /* \"#utility.yul\":6519:6627   */\n      tag_258\n        /* \"#utility.yul\":6622:6626   */\n      dup2\n        /* \"#utility.yul\":6613:6619   */\n      dup5\n        /* \"#utility.yul\":6519:6627   */\n      tag_219\n      jump\t// in\n    tag_258:\n        /* \"#utility.yul\":6511:6627   */\n      swap1\n      pop\n        /* \"#utility.yul\":6409:6634   */\n      swap3\n      swap2\n      pop\n      pop\n      jump\t// out\n        /* \"#utility.yul\":6640:6949   */\n    tag_15:\n      0x00\n        /* \"#utility.yul\":6789:6791   */\n      0x20\n        /* \"#utility.yul\":6778:6787   */\n      dup3\n        /* \"#utility.yul\":6774:6792   */\n      add\n        /* \"#utility.yul\":6766:6792   */\n      swap1\n      pop\n        /* \"#utility.yul\":6838:6847   */\n      dup2\n        /* \"#utility.yul\":6832:6836   */\n      dup2\n        /* \"#utility.yul\":6828:6848   */\n      sub\n        /* \"#utility.yul\":6824:6825   */\n      0x00\n        /* \"#utility.yul\":6813:6822   */\n      dup4\n        /* \"#utility.yul\":6809:6826   */\n      add\n        /* \"#utility.yul\":6802:6849   */\n      mstore\n        /* \"#utility.yul\":6866:6942   */\n      tag_260\n        /* \"#utility.yul\":6937:6941   */\n      dup2\n        /* \"#utility.yul\":6928:6934   */\n      dup5\n        /* \"#utility.yul\":6866:6942   */\n      tag_236\n      jump\t// in\n    tag_260:\n        /* \"#utility.yul\":6858:6942   */\n      swap1\n      pop\n        /* \"#utility.yul\":6756:6949   */\n      swap3\n      swap2\n      pop\n      pop\n      jump\t// out\n        /* \"#utility.yul\":6955:7374   */\n    tag_26:\n      0x00\n        /* \"#utility.yul\":7132:7134   */\n      0x40\n        /* \"#utility.yul\":7121:7130   */\n      dup3\n        /* \"#utility.yul\":7117:7135   */\n      add\n        /* \"#utility.yul\":7109:7135   */\n      swap1\n      pop\n        /* \"#utility.yul\":7181:7190   */\n      dup2\n        /* \"#utility.yul\":7175:7179   */\n      dup2\n        /* \"#utility.yul\":7171:7191   */\n      sub\n        /* \"#utility.yul\":7167:7168   */\n      0x00\n        /* \"#utility.yul\":7156:7165   */\n      dup4\n        /* \"#utility.yul\":7152:7169   */\n      add\n        /* \"#utility.yul\":7145:7192   */\n      mstore\n        /* \"#utility.yul\":7209:7285   */\n      tag_262\n        /* \"#utility.yul\":7280:7284   */\n      dup2\n        /* \"#utility.yul\":7271:7277   */\n      dup6\n        /* \"#utility.yul\":7209:7285   */\n      tag_236\n      jump\t// in\n    tag_262:\n        /* \"#utility.yul\":7201:7285   */\n      swap1\n      pop\n        /* \"#utility.yul\":7295:7367   */\n      tag_263\n        /* \"#utility.yul\":7363:7365   */\n      0x20\n        /* \"#utility.yul\":7352:7361   */\n      dup4\n        /* \"#utility.yul\":7348:7366   */\n      add\n        /* \"#utility.yul\":7339:7345   */\n      dup5\n        /* \"#utility.yul\":7295:7367   */\n      tag_251\n      jump\t// in\n    tag_263:\n        /* \"#utility.yul\":7099:7374   */\n      swap4\n      swap3\n      pop\n      pop\n      pop\n      jump\t// out\n        /* \"#utility.yul\":7380:7799   */\n    tag_109:\n      0x00\n        /* \"#utility.yul\":7584:7586   */\n      0x20\n        /* \"#utility.yul\":7573:7582   */\n      dup3\n        /* \"#utility.yul\":7569:7587   */\n      add\n        /* \"#utility.yul\":7561:7587   */\n      swap1\n      pop\n        /* \"#utility.yul\":7633:7642   */\n      dup2\n        /* \"#utility.yul\":7627:7631   */\n      dup2\n        /* \"#utility.yul\":7623:7643   */\n      sub\n        /* \"#utility.yul\":7619:7620   */\n      0x00\n        /* \"#utility.yul\":7608:7617   */\n      dup4\n        /* \"#utility.yul\":7604:7621   */\n      add\n        /* \"#utility.yul\":7597:7644   */\n      mstore\n        /* \"#utility.yul\":7661:7792   */\n      tag_265\n        /* \"#utility.yul\":7787:7791   */\n      dup2\n        /* \"#utility.yul\":7661:7792   */\n      tag_245\n      jump\t// in\n    tag_265:\n        /* \"#utility.yul\":7653:7792   */\n      swap1\n      pop\n        /* \"#utility.yul\":7551:7799   */\n      swap2\n      swap1\n      pop\n      jump\t// out\n        /* \"#utility.yul\":7805:7934   */\n    tag_157:\n      0x00\n        /* \"#utility.yul\":7866:7886   */\n      tag_267\n      tag_268\n      jump\t// in\n    tag_267:\n        /* \"#utility.yul\":7856:7886   */\n      swap1\n      pop\n        /* \"#utility.yul\":7895:7928   */\n      tag_269\n        /* \"#utility.yul\":7923:7927   */\n      dup3\n        /* \"#utility.yul\":7915:7921   */\n      dup3\n        /* \"#utility.yul\":7895:7928   */\n      tag_270\n      jump\t// in\n    tag_269:\n        /* \"#utility.yul\":7846:7934   */\n      swap2\n      swap1\n      pop\n      jump\t// out\n        /* \"#utility.yul\":7940:8015   */\n    tag_268:\n      0x00\n        /* \"#utility.yul\":8006:8008   */\n      0x40\n        /* \"#utility.yul\":8000:8009   */\n      mload\n        /* \"#utility.yul\":7990:8009   */\n      swap1\n      pop\n        /* \"#utility.yul\":7980:8015   */\n      swap1\n      jump\t// out\n        /* \"#utility.yul\":8021:8328   */\n    tag_156:\n      0x00\n        /* \"#utility.yul\":8172:8190   */\n      0xffffffffffffffff\n        /* \"#utility.yul\":8164:8170   */\n      dup3\n        /* \"#utility.yul\":8161:8191   */\n      gt\n        /* \"#utility.yul\":8158:8160   */\n      iszero\n      tag_273\n      jumpi\n        /* \"#utility.yul\":8194:8212   */\n      tag_274\n      tag_275\n      jump\t// in\n    tag_274:\n        /* \"#utility.yul\":8158:8160   */\n    tag_273:\n        /* \"#utility.yul\":8232:8261   */\n      tag_276\n        /* \"#utility.yul\":8254:8260   */\n      dup3\n        /* \"#utility.yul\":8232:8261   */\n      tag_244\n      jump\t// in\n    tag_276:\n        /* \"#utility.yul\":8224:8261   */\n      swap1\n      pop\n        /* \"#utility.yul\":8316:8320   */\n      0x20\n        /* \"#utility.yul\":8310:8314   */\n      dup2\n        /* \"#utility.yul\":8306:8321   */\n      add\n        /* \"#utility.yul\":8298:8321   */\n      swap1\n      pop\n        /* \"#utility.yul\":8087:8328   */\n      swap2\n      swap1\n      pop\n      jump\t// out\n        /* \"#utility.yul\":8334:8466   */\n    tag_226:\n      0x00\n        /* \"#utility.yul\":8424:8427   */\n      dup2\n        /* \"#utility.yul\":8416:8427   */\n      swap1\n      pop\n        /* \"#utility.yul\":8454:8458   */\n      0x20\n        /* \"#utility.yul\":8449:8452   */\n      dup3\n        /* \"#utility.yul\":8445:8459   */\n      add\n        /* \"#utility.yul\":8437:8459   */\n      swap1\n      pop\n        /* \"#utility.yul\":8406:8466   */\n      swap2\n      swap1\n      pop\n      jump\t// out\n        /* \"#utility.yul\":8472:8586   */\n    tag_222:\n      0x00\n        /* \"#utility.yul\":8573:8578   */\n      dup2\n        /* \"#utility.yul\":8567:8579   */\n      mload\n        /* \"#utility.yul\":8557:8579   */\n      swap1\n      pop\n        /* \"#utility.yul\":8546:8586   */\n      swap2\n      swap1\n      pop\n      jump\t// out\n        /* \"#utility.yul\":8592:8690   */\n    tag_239:\n      0x00\n        /* \"#utility.yul\":8677:8682   */\n      dup2\n        /* \"#utility.yul\":8671:8683   */\n      mload\n        /* \"#utility.yul\":8661:8683   */\n      swap1\n      pop\n        /* \"#utility.yul\":8650:8690   */\n      swap2\n      swap1\n      pop\n      jump\t// out\n        /* \"#utility.yul\":8696:8809   */\n    tag_232:\n      0x00\n        /* \"#utility.yul\":8798:8802   */\n      0x20\n        /* \"#utility.yul\":8793:8796   */\n      dup3\n        /* \"#utility.yul\":8789:8803   */\n      add\n        /* \"#utility.yul\":8781:8803   */\n      swap1\n      pop\n        /* \"#utility.yul\":8771:8809   */\n      swap2\n      swap1\n      pop\n      jump\t// out\n        /* \"#utility.yul\":8815:8999   */\n    tag_224:\n      0x00\n        /* \"#utility.yul\":8948:8954   */\n      dup3\n        /* \"#utility.yul\":8943:8946   */\n      dup3\n        /* \"#utility.yul\":8936:8955   */\n      mstore\n        /* \"#utility.yul\":8988:8992   */\n      0x20\n        /* \"#utility.yul\":8983:8986   */\n      dup3\n        /* \"#utility.yul\":8979:8993   */\n      add\n        /* \"#utility.yul\":8964:8993   */\n      swap1\n      pop\n        /* \"#utility.yul\":8926:8999   */\n      swap3\n      swap2\n      pop\n      pop\n      jump\t// out\n        /* \"#utility.yul\":9005:9173   */\n    tag_241:\n      0x00\n        /* \"#utility.yul\":9122:9128   */\n      dup3\n        /* \"#utility.yul\":9117:9120   */\n      dup3\n        /* \"#utility.yul\":9110:9129   */\n      mstore\n        /* \"#utility.yul\":9162:9166   */\n      0x20\n        /* \"#utility.yul\":9157:9160   */\n      dup3\n        /* \"#utility.yul\":9153:9167   */\n      add\n        /* \"#utility.yul\":9138:9167   */\n      swap1\n      pop\n        /* \"#utility.yul\":9100:9173   */\n      swap3\n      swap2\n      pop\n      pop\n      jump\t// out\n        /* \"#utility.yul\":9179:9348   */\n    tag_248:\n      0x00\n        /* \"#utility.yul\":9297:9303   */\n      dup3\n        /* \"#utility.yul\":9292:9295   */\n      dup3\n        /* \"#utility.yul\":9285:9304   */\n      mstore\n        /* \"#utility.yul\":9337:9341   */\n      0x20\n        /* \"#utility.yul\":9332:9335   */\n      dup3\n        /* \"#utility.yul\":9328:9342   */\n      add\n        /* \"#utility.yul\":9313:9342   */\n      swap1\n      pop\n        /* \"#utility.yul\":9275:9348   */\n      swap3\n      swap2\n      pop\n      pop\n      jump\t// out\n        /* \"#utility.yul\":9354:9659   */\n    tag_85:\n      0x00\n        /* \"#utility.yul\":9413:9433   */\n      tag_285\n        /* \"#utility.yul\":9431:9432   */\n      dup3\n        /* \"#utility.yul\":9413:9433   */\n      tag_254\n      jump\t// in\n    tag_285:\n        /* \"#utility.yul\":9408:9433   */\n      swap2\n      pop\n        /* \"#utility.yul\":9447:9467   */\n      tag_286\n        /* \"#utility.yul\":9465:9466   */\n      dup4\n        /* \"#utility.yul\":9447:9467   */\n      tag_254\n      jump\t// in\n    tag_286:\n        /* \"#utility.yul\":9442:9467   */\n      swap3\n      pop\n        /* \"#utility.yul\":9601:9602   */\n      dup3\n        /* \"#utility.yul\":9533:9599   */\n      0xffffffffffffffffffffffffffffffffffffffffffffffffffffffffffffffff\n        /* \"#utility.yul\":9529:9603   */\n      sub\n        /* \"#utility.yul\":9526:9527   */\n      dup3\n        /* \"#utility.yul\":9523:9604   */\n      gt\n        /* \"#utility.yul\":9520:9522   */\n      iszero\n      tag_287\n      jumpi\n        /* \"#utility.yul\":9607:9625   */\n      tag_288\n      tag_289\n      jump\t// in\n    tag_288:\n        /* \"#utility.yul\":9520:9522   */\n    tag_287:\n        /* \"#utility.yul\":9651:9652   */\n      dup3\n        /* \"#utility.yul\":9648:9649   */\n      dup3\n        /* \"#utility.yul\":9644:9653   */\n      add\n        /* \"#utility.yul\":9637:9653   */\n      swap1\n      pop\n        /* \"#utility.yul\":9398:9659   */\n      swap3\n      swap2\n      pop\n      pop\n      jump\t// out\n        /* \"#utility.yul\":9665:9850   */\n    tag_88:\n      0x00\n        /* \"#utility.yul\":9722:9742   */\n      tag_291\n        /* \"#utility.yul\":9740:9741   */\n      dup3\n        /* \"#utility.yul\":9722:9742   */\n      tag_254\n      jump\t// in\n    tag_291:\n        /* \"#utility.yul\":9717:9742   */\n      swap2\n      pop\n        /* \"#utility.yul\":9756:9776   */\n      tag_292\n        /* \"#utility.yul\":9774:9775   */\n      dup4\n        /* \"#utility.yul\":9756:9776   */\n      tag_254\n      jump\t// in\n    tag_292:\n        /* \"#utility.yul\":9751:9776   */\n      swap3\n      pop\n        /* \"#utility.yul\":9795:9796   */\n      dup3\n        /* \"#utility.yul\":9785:9787   */\n      tag_293\n      jumpi\n        /* \"#utility.yul\":9800:9818   */\n      tag_294\n      tag_295\n      jump\t// in\n    tag_294:\n        /* \"#utility.yul\":9785:9787   */\n    tag_293:\n        /* \"#utility.yul\":9842:9843   */\n      dup3\n        /* \"#utility.yul\":9839:9840   */\n      dup3\n        /* \"#utility.yul\":9835:9844   */\n      div\n        /* \"#utility.yul\":9830:9844   */\n      swap1\n      pop\n        /* \"#utility.yul\":9707:9850   */\n      swap3\n      swap2\n      pop\n      pop\n      jump\t// out\n        /* \"#utility.yul\":9856:10047   */\n    tag_134:\n      0x00\n        /* \"#utility.yul\":9916:9936   */\n      tag_297\n        /* \"#utility.yul\":9934:9935   */\n      dup3\n        /* \"#utility.yul\":9916:9936   */\n      tag_254\n      jump\t// in\n    tag_297:\n        /* \"#utility.yul\":9911:9936   */\n      swap2\n      pop\n        /* \"#utility.yul\":9950:9970   */\n      tag_298\n        /* \"#utility.yul\":9968:9969   */\n      dup4\n        /* \"#utility.yul\":9950:9970   */\n      tag_254\n      jump\t// in\n    tag_298:\n        /* \"#utility.yul\":9945:9970   */\n      swap3\n      pop\n        /* \"#utility.yul\":9989:9990   */\n      dup3\n        /* \"#utility.yul\":9986:9987   */\n      dup3\n        /* \"#utility.yul\":9983:9991   */\n      lt\n        /* \"#utility.yul\":9980:9982   */\n      iszero\n      tag_299\n      jumpi\n        /* \"#utility.yul\":9994:10012   */\n      tag_300\n      tag_289\n      jump\t// in\n    tag_300:\n        /* \"#utility.yul\":9980:9982   */\n    tag_299:\n        /* \"#utility.yul\":10039:10040   */\n      dup3\n        /* \"#utility.yul\":10036:10037   */\n      dup3\n        /* \"#utility.yul\":10032:10041   */\n      sub\n        /* \"#utility.yul\":10024:10041   */\n      swap1\n      pop\n        /* \"#utility.yul\":9901:10047   */\n      swap3\n      swap2\n      pop\n      pop\n      jump\t// out\n        /* \"#utility.yul\":10053:10149   */\n    tag_218:\n      0x00\n        /* \"#utility.yul\":10119:10143   */\n      tag_302\n        /* \"#utility.yul\":10137:10142   */\n      dup3\n        /* \"#utility.yul\":10119:10143   */\n      tag_303\n      jump\t// in\n    tag_302:\n        /* \"#utility.yul\":10108:10143   */\n      swap1\n      pop\n        /* \"#utility.yul\":10098:10149   */\n      swap2\n      swap1\n      pop\n      jump\t// out\n        /* \"#utility.yul\":10155:10232   */\n    tag_235:\n      0x00\n        /* \"#utility.yul\":10221:10226   */\n      dup2\n        /* \"#utility.yul\":10210:10226   */\n      swap1\n      pop\n        /* \"#utility.yul\":10200:10232   */\n      swap2\n      swap1\n      pop\n      jump\t// out\n        /* \"#utility.yul\":10238:10352   */\n    tag_305:\n      0x00\n        /* \"#utility.yul\":10322:10346   */\n      tag_307\n        /* \"#utility.yul\":10340:10345   */\n      dup3\n        /* \"#utility.yul\":10322:10346   */\n      tag_218\n      jump\t// in\n    tag_307:\n        /* \"#utility.yul\":10311:10346   */\n      swap1\n      pop\n        /* \"#utility.yul\":10301:10352   */\n      swap2\n      swap1\n      pop\n      jump\t// out\n        /* \"#utility.yul\":10358:10484   */\n    tag_303:\n      0x00\n        /* \"#utility.yul\":10435:10477   */\n      0xffffffffffffffffffffffffffffffffffffffff\n        /* \"#utility.yul\":10428:10433   */\n      dup3\n        /* \"#utility.yul\":10424:10478   */\n      and\n        /* \"#utility.yul\":10413:10478   */\n      swap1\n      pop\n        /* \"#utility.yul\":10403:10484   */\n      swap2\n      swap1\n      pop\n      jump\t// out\n        /* \"#utility.yul\":10490:10567   */\n    tag_254:\n      0x00\n        /* \"#utility.yul\":10556:10561   */\n      dup2\n        /* \"#utility.yul\":10545:10561   */\n      swap1\n      pop\n        /* \"#utility.yul\":10535:10567   */\n      swap2\n      swap1\n      pop\n      jump\t// out\n        /* \"#utility.yul\":10573:10727   */\n    tag_160:\n        /* \"#utility.yul\":10657:10663   */\n      dup3\n        /* \"#utility.yul\":10652:10655   */\n      dup2\n        /* \"#utility.yul\":10647:10650   */\n      dup4\n        /* \"#utility.yul\":10634:10664   */\n      calldatacopy\n        /* \"#utility.yul\":10719:10720   */\n      0x00\n        /* \"#utility.yul\":10710:10716   */\n      dup4\n        /* \"#utility.yul\":10705:10708   */\n      dup4\n        /* \"#utility.yul\":10701:10717   */\n      add\n        /* \"#utility.yul\":10694:10721   */\n      mstore\n        /* \"#utility.yul\":10624:10727   */\n      pop\n      pop\n      pop\n      jump\t// out\n        /* \"#utility.yul\":10733:11040   */\n    tag_167:\n        /* \"#utility.yul\":10801:10802   */\n      0x00\n        /* \"#utility.yul\":10811:10924   */\n    tag_312:\n        /* \"#utility.yul\":10825:10831   */\n      dup4\n        /* \"#utility.yul\":10822:10823   */\n      dup2\n        /* \"#utility.yul\":10819:10832   */\n      lt\n        /* \"#utility.yul\":10811:10924   */\n      iszero\n      tag_314\n      jumpi\n        /* \"#utility.yul\":10910:10911   */\n      dup1\n        /* \"#utility.yul\":10905:10908   */\n      dup3\n        /* \"#utility.yul\":10901:10912   */\n      add\n        /* \"#utility.yul\":10895:10913   */\n      mload\n        /* \"#utility.yul\":10891:10892   */\n      dup2\n        /* \"#utility.yul\":10886:10889   */\n      dup5\n        /* \"#utility.yul\":10882:10893   */\n      add\n        /* \"#utility.yul\":10875:10914   */\n      mstore\n        /* \"#utility.yul\":10847:10849   */\n      0x20\n        /* \"#utility.yul\":10844:10845   */\n      dup2\n        /* \"#utility.yul\":10840:10850   */\n      add\n        /* \"#utility.yul\":10835:10850   */\n      swap1\n      pop\n        /* \"#utility.yul\":10811:10924   */\n      jump(tag_312)\n    tag_314:\n        /* \"#utility.yul\":10942:10948   */\n      dup4\n        /* \"#utility.yul\":10939:10940   */\n      dup2\n        /* \"#utility.yul\":10936:10949   */\n      gt\n        /* \"#utility.yul\":10933:10935   */\n      iszero\n      tag_315\n      jumpi\n        /* \"#utility.yul\":11022:11023   */\n      0x00\n        /* \"#utility.yul\":11013:11019   */\n      dup5\n        /* \"#utility.yul\":11008:11011   */\n      dup5\n        /* \"#utility.yul\":11004:11020   */\n      add\n        /* \"#utility.yul\":10997:11024   */\n      mstore\n        /* \"#utility.yul\":10933:10935   */\n    tag_315:\n        /* \"#utility.yul\":10782:11040   */\n      pop\n      pop\n      pop\n      pop\n      jump\t// out\n        /* \"#utility.yul\":11046:11327   */\n    tag_270:\n        /* \"#utility.yul\":11129:11156   */\n      tag_317\n        /* \"#utility.yul\":11151:11155   */\n      dup3\n        /* \"#utility.yul\":11129:11156   */\n      tag_244\n      jump\t// in\n    tag_317:\n        /* \"#utility.yul\":11121:11127   */\n      dup2\n        /* \"#utility.yul\":11117:11157   */\n      add\n        /* \"#utility.yul\":11259:11265   */\n      dup2\n        /* \"#utility.yul\":11247:11257   */\n      dup2\n        /* \"#utility.yul\":11244:11266   */\n      lt\n        /* \"#utility.yul\":11223:11241   */\n      0xffffffffffffffff\n        /* \"#utility.yul\":11211:11221   */\n      dup3\n        /* \"#utility.yul\":11208:11242   */\n      gt\n        /* \"#utility.yul\":11205:11267   */\n      or\n        /* \"#utility.yul\":11202:11204   */\n      iszero\n      tag_318\n      jumpi\n        /* \"#utility.yul\":11270:11288   */\n      tag_319\n      tag_275\n      jump\t// in\n    tag_319:\n        /* \"#utility.yul\":11202:11204   */\n    tag_318:\n        /* \"#utility.yul\":11310:11320   */\n      dup1\n        /* \"#utility.yul\":11306:11308   */\n      0x40\n        /* \"#utility.yul\":11299:11321   */\n      mstore\n        /* \"#utility.yul\":11089:11327   */\n      pop\n      pop\n      pop\n      jump\t// out\n        /* \"#utility.yul\":11333:11566   */\n    tag_55:\n      0x00\n        /* \"#utility.yul\":11395:11419   */\n      tag_321\n        /* \"#utility.yul\":11413:11418   */\n      dup3\n        /* \"#utility.yul\":11395:11419   */\n      tag_254\n      jump\t// in\n    tag_321:\n        /* \"#utility.yul\":11386:11419   */\n      swap2\n      pop\n        /* \"#utility.yul\":11441:11507   */\n      0xffffffffffffffffffffffffffffffffffffffffffffffffffffffffffffffff\n        /* \"#utility.yul\":11434:11439   */\n      dup3\n        /* \"#utility.yul\":11431:11508   */\n      eq\n        /* \"#utility.yul\":11428:11430   */\n      iszero\n      tag_322\n      jumpi\n        /* \"#utility.yul\":11511:11529   */\n      tag_323\n      tag_289\n      jump\t// in\n    tag_323:\n        /* \"#utility.yul\":11428:11430   */\n    tag_322:\n        /* \"#utility.yul\":11558:11559   */\n      0x01\n        /* \"#utility.yul\":11551:11556   */\n      dup3\n        /* \"#utility.yul\":11547:11560   */\n      add\n        /* \"#utility.yul\":11540:11560   */\n      swap1\n      pop\n        /* \"#utility.yul\":11376:11566   */\n      swap2\n      swap1\n      pop\n      jump\t// out\n        /* \"#utility.yul\":11572:11752   */\n    tag_289:\n        /* \"#utility.yul\":11620:11697   */\n      0x4e487b7100000000000000000000000000000000000000000000000000000000\n        /* \"#utility.yul\":11617:11618   */\n      0x00\n        /* \"#utility.yul\":11610:11698   */\n      mstore\n        /* \"#utility.yul\":11717:11721   */\n      0x11\n        /* \"#utility.yul\":11714:11715   */\n      0x04\n        /* \"#utility.yul\":11707:11722   */\n      mstore\n        /* \"#utility.yul\":11741:11745   */\n      0x24\n        /* \"#utility.yul\":11738:11739   */\n      0x00\n        /* \"#utility.yul\":11731:11746   */\n      revert\n        /* \"#utility.yul\":11758:11938   */\n    tag_295:\n        /* \"#utility.yul\":11806:11883   */\n      0x4e487b7100000000000000000000000000000000000000000000000000000000\n        /* \"#utility.yul\":11803:11804   */\n      0x00\n        /* \"#utility.yul\":11796:11884   */\n      mstore\n        /* \"#utility.yul\":11903:11907   */\n      0x12\n        /* \"#utility.yul\":11900:11901   */\n      0x04\n        /* \"#utility.yul\":11893:11908   */\n      mstore\n        /* \"#utility.yul\":11927:11931   */\n      0x24\n        /* \"#utility.yul\":11924:11925   */\n      0x00\n        /* \"#utility.yul\":11917:11932   */\n      revert\n        /* \"#utility.yul\":11944:12124   */\n    tag_275:\n        /* \"#utility.yul\":11992:12069   */\n      0x4e487b7100000000000000000000000000000000000000000000000000000000\n        /* \"#utility.yul\":11989:11990   */\n      0x00\n        /* \"#utility.yul\":11982:12070   */\n      mstore\n        /* \"#utility.yul\":12089:12093   */\n      0x41\n        /* \"#utility.yul\":12086:12087   */\n      0x04\n        /* \"#utility.yul\":12079:12094   */\n      mstore\n        /* \"#utility.yul\":12113:12117   */\n      0x24\n        /* \"#utility.yul\":12110:12111   */\n      0x00\n        /* \"#utility.yul\":12103:12118   */\n      revert\n        /* \"#utility.yul\":12130:12232   */\n    tag_244:\n      0x00\n        /* \"#utility.yul\":12222:12224   */\n      0x1f\n        /* \"#utility.yul\":12218:12225   */\n      not\n        /* \"#utility.yul\":12213:12215   */\n      0x1f\n        /* \"#utility.yul\":12206:12211   */\n      dup4\n        /* \"#utility.yul\":12202:12216   */\n      add\n        /* \"#utility.yul\":12198:12226   */\n      and\n        /* \"#utility.yul\":12188:12226   */\n      swap1\n      pop\n        /* \"#utility.yul\":12178:12232   */\n      swap2\n      swap1\n      pop\n      jump\t// out\n        /* \"#utility.yul\":12238:12465   */\n    tag_250:\n        /* \"#utility.yul\":12378:12412   */\n      0x496e737572616e63652049442068617320616c7265616479206265656e207265\n        /* \"#utility.yul\":12374:12375   */\n      0x00\n        /* \"#utility.yul\":12366:12372   */\n      dup3\n        /* \"#utility.yul\":12362:12376   */\n      add\n        /* \"#utility.yul\":12355:12413   */\n      mstore\n        /* \"#utility.yul\":12447:12457   */\n      0x6769737465726564000000000000000000000000000000000000000000000000\n        /* \"#utility.yul\":12442:12444   */\n      0x20\n        /* \"#utility.yul\":12434:12440   */\n      dup3\n        /* \"#utility.yul\":12430:12445   */\n      add\n        /* \"#utility.yul\":12423:12458   */\n      mstore\n        /* \"#utility.yul\":12344:12465   */\n      pop\n      jump\t// out\n        /* \"#utility.yul\":12471:12593   */\n    tag_171:\n        /* \"#utility.yul\":12544:12568   */\n      tag_330\n        /* \"#utility.yul\":12562:12567   */\n      dup2\n        /* \"#utility.yul\":12544:12568   */\n      tag_235\n      jump\t// in\n    tag_330:\n        /* \"#utility.yul\":12537:12542   */\n      dup2\n        /* \"#utility.yul\":12534:12569   */\n      eq\n        /* \"#utility.yul\":12524:12526   */\n      tag_331\n      jumpi\n        /* \"#utility.yul\":12583:12584   */\n      0x00\n        /* \"#utility.yul\":12580:12581   */\n      dup1\n        /* \"#utility.yul\":12573:12585   */\n      revert\n        /* \"#utility.yul\":12524:12526   */\n    tag_331:\n        /* \"#utility.yul\":12514:12593   */\n      pop\n      jump\t// out\n        /* \"#utility.yul\":12599:12757   */\n    tag_186:\n        /* \"#utility.yul\":12690:12732   */\n      tag_333\n        /* \"#utility.yul\":12726:12731   */\n      dup2\n        /* \"#utility.yul\":12690:12732   */\n      tag_305\n      jump\t// in\n    tag_333:\n        /* \"#utility.yul\":12683:12688   */\n      dup2\n        /* \"#utility.yul\":12680:12733   */\n      eq\n        /* \"#utility.yul\":12670:12672   */\n      tag_334\n      jumpi\n        /* \"#utility.yul\":12747:12748   */\n      0x00\n        /* \"#utility.yul\":12744:12745   */\n      dup1\n        /* \"#utility.yul\":12737:12749   */\n      revert\n        /* \"#utility.yul\":12670:12672   */\n    tag_334:\n        /* \"#utility.yul\":12660:12757   */\n      pop\n      jump\t// out\n        /* \"#utility.yul\":12763:12885   */\n    tag_190:\n        /* \"#utility.yul\":12836:12860   */\n      tag_336\n        /* \"#utility.yul\":12854:12859   */\n      dup2\n        /* \"#utility.yul\":12836:12860   */\n      tag_254\n      jump\t// in\n    tag_336:\n        /* \"#utility.yul\":12829:12834   */\n      dup2\n        /* \"#utility.yul\":12826:12861   */\n      eq\n        /* \"#utility.yul\":12816:12818   */\n      tag_337\n      jumpi\n        /* \"#utility.yul\":12875:12876   */\n      0x00\n        /* \"#utility.yul\":12872:12873   */\n      dup1\n        /* \"#utility.yul\":12865:12877   */\n      revert\n        /* \"#utility.yul\":12816:12818   */\n    tag_337:\n        /* \"#utility.yul\":12806:12885   */\n      pop\n      jump\t// out\n\n    auxdata: 0xa26469706673582212208da7876f5e8b178822791cd9ee10d351a44457eb6eca6d39320bd22f3dca7df464736f6c63430008030033\n}\n",
    "bytecode": {
      "linkReferences": {},
      "object": "608060405234801561001057600080fd5b50336000806101000a81548173ffffffffffffffffffffffffffffffffffffffff021916908373ffffffffffffffffffffffffffffffffffffffff1602179055506115f1806100606000396000f3fe608060405234801561001057600080fd5b50600436106100885760003560e01c80639499e0181161005b5780639499e0181461012a578063a15b651614610134578063d1f6d4c514610164578063dba2812a1461019457610088565b806311165ee71461008d57806337922b0c146100ab5780634cb74b19146100db57806392806a041461010c575b600080fd5b6100956101b0565b6040516100a2919061118c565b60405180910390f35b6100c560048036038101906100c09190610f15565b610231565b6040516100d2919061114f565b60405180910390f35b6100f560048036038101906100f09190610f15565b61026e565b6040516101039291906111ae565b60405180910390f35b6101146103bc565b604051610121919061116a565b60405180910390f35b610132610414565b005b61014e60048036038101906101499190610f15565b6104a5565b60405161015b919061118c565b60405180910390f35b61017e60048036038101906101799190610f67565b6105ec565b60405161018b919061118c565b60405180910390f35b6101ae60048036038101906101a99190611027565b6106b6565b005b606060005b60068054905081101561022d576102188261021360068481548110610203577f4e487b7100000000000000000000000000000000000000000000000000000000600052603260045260246000fd5b90600052602060002001546104a5565b6105ec565b9150808061022590611440565b9150506101b5565b5090565b60006005600083815260200190815260200160002060009054906101000a900473ffffffffffffffffffffffffffffffffffffffff169050919050565b606060008060001b6004600085815260200190815260200160002054141561029557600080fd5b6002600060046000868152602001908152602001600020548152602001908152602001600020600160008581526020019081526020016000205481548110610306577f4e487b7100000000000000000000000000000000000000000000000000000000600052603260045260246000fd5b9060005260206000200160009054906101000a900473ffffffffffffffffffffffffffffffffffffffff1673ffffffffffffffffffffffffffffffffffffffff1663236f45d96040518163ffffffff1660e01b815260040160006040518083038186803b15801561037657600080fd5b505afa15801561038a573d6000803e3d6000fd5b505050506040513d6000823e3d601f19601f820116820180604052508101906103b39190610fd3565b91509150915091565b6060600680548060200260200160405190810160405280929190818152602001828054801561040a57602002820191906000526020600020905b8154815260200190600101908083116103f6575b5050505050905090565b60008054906101000a900473ffffffffffffffffffffffffffffffffffffffff1673ffffffffffffffffffffffffffffffffffffffff163373ffffffffffffffffffffffffffffffffffffffff161461046c57600080fd5b60008054906101000a900473ffffffffffffffffffffffffffffffffffffffff1673ffffffffffffffffffffffffffffffffffffffff16ff5b60608060005b60026000858152602001908152602001600020805490508110156105e557600260008581526020019081526020016000208181548110610514577f4e487b7100000000000000000000000000000000000000000000000000000000600052603260045260246000fd5b9060005260206000200160009054906101000a900473ffffffffffffffffffffffffffffffffffffffff1673ffffffffffffffffffffffffffffffffffffffff1663236f45d96040518163ffffffff1660e01b815260040160006040518083038186803b15801561058457600080fd5b505afa158015610598573d6000803e3d6000fd5b505050506040513d6000823e3d601f19601f820116820180604052508101906105c19190610fd3565b50809250506105d083836105ec565b925080806105dd90611440565b9150506104ab565b5050919050565b6060600083519050600083518261060391906112ba565b905060006020601f875161061791906112ba565b6106219190611310565b905060006020601f875161063591906112ba565b61063f9190611310565b905060405183815260005b8381101561067157806001016020028901518160010160200283015280600101905061064a565b5060005b8281101561069e5780600101602002880151868260010160200201830152806001019050610675565b50836020018101604052809550505050505092915050565b8073ffffffffffffffffffffffffffffffffffffffff1663297e6306306040518263ffffffff1660e01b81526004016106ef919061114f565b600060405180830381600087803b15801561070957600080fd5b505af115801561071d573d6000803e3d6000fd5b505050506000801b600460008373ffffffffffffffffffffffffffffffffffffffff16635d1ca6316040518163ffffffff1660e01b815260040160206040518083038186803b15801561076f57600080fd5b505afa158015610783573d6000803e3d6000fd5b505050506040513d601f19601f820116820180604052508101906107a79190610f3e565b815260200190815260200160002054146107f6576040517f08c379a00000000000000000000000000000000000000000000000000000000081526004016107ed906111de565b60405180910390fd5b600360008273ffffffffffffffffffffffffffffffffffffffff1663fc1c7a706040518163ffffffff1660e01b815260040160206040518083038186803b15801561084057600080fd5b505afa158015610854573d6000803e3d6000fd5b505050506040513d601f19601f820116820180604052508101906108789190610f3e565b815260200190815260200160002060009054906101000a900460ff166109e85760068173ffffffffffffffffffffffffffffffffffffffff1663fc1c7a706040518163ffffffff1660e01b815260040160206040518083038186803b1580156108e057600080fd5b505afa1580156108f4573d6000803e3d6000fd5b505050506040513d601f19601f820116820180604052508101906109189190610f3e565b90806001815401808255809150506001900390600052602060002001600090919091909150556001600360008373ffffffffffffffffffffffffffffffffffffffff1663fc1c7a706040518163ffffffff1660e01b815260040160206040518083038186803b15801561098a57600080fd5b505afa15801561099e573d6000803e3d6000fd5b505050506040513d601f19601f820116820180604052508101906109c29190610f3e565b815260200190815260200160002060006101000a81548160ff0219169083151502179055505b600260008273ffffffffffffffffffffffffffffffffffffffff1663fc1c7a706040518163ffffffff1660e01b815260040160206040518083038186803b158015610a3257600080fd5b505afa158015610a46573d6000803e3d6000fd5b505050506040513d601f19601f82011682018060405250810190610a6a9190610f3e565b8152602001908152602001600020819080600181540180825580915050600190039060005260206000200160009091909190916101000a81548173ffffffffffffffffffffffffffffffffffffffff021916908373ffffffffffffffffffffffffffffffffffffffff1602179055506001600260008373ffffffffffffffffffffffffffffffffffffffff1663fc1c7a706040518163ffffffff1660e01b815260040160206040518083038186803b158015610b2557600080fd5b505afa158015610b39573d6000803e3d6000fd5b505050506040513d601f19601f82011682018060405250810190610b5d9190610f3e565b815260200190815260200160002080549050610b799190611341565b600160008373ffffffffffffffffffffffffffffffffffffffff16635d1ca6316040518163ffffffff1660e01b815260040160206040518083038186803b158015610bc357600080fd5b505afa158015610bd7573d6000803e3d6000fd5b505050506040513d601f19601f82011682018060405250810190610bfb9190610f3e565b8152602001908152602001600020819055508073ffffffffffffffffffffffffffffffffffffffff1663fc1c7a706040518163ffffffff1660e01b815260040160206040518083038186803b158015610c5357600080fd5b505afa158015610c67573d6000803e3d6000fd5b505050506040513d601f19601f82011682018060405250810190610c8b9190610f3e565b600460008373ffffffffffffffffffffffffffffffffffffffff16635d1ca6316040518163ffffffff1660e01b815260040160206040518083038186803b158015610cd557600080fd5b505afa158015610ce9573d6000803e3d6000fd5b505050506040513d601f19601f82011682018060405250810190610d0d9190610f3e565b81526020019081526020016000208190555080600560008373ffffffffffffffffffffffffffffffffffffffff16635d1ca6316040518163ffffffff1660e01b815260040160206040518083038186803b158015610d6a57600080fd5b505afa158015610d7e573d6000803e3d6000fd5b505050506040513d601f19601f82011682018060405250810190610da29190610f3e565b815260200190815260200160002060006101000a81548173ffffffffffffffffffffffffffffffffffffffff021916908373ffffffffffffffffffffffffffffffffffffffff16021790555050565b6000610e04610dff84611223565b6111fe565b905082815260208101848484011115610e1c57600080fd5b610e278482856113cd565b509392505050565b6000610e42610e3d84611223565b6111fe565b905082815260208101848484011115610e5a57600080fd5b610e658482856113dc565b509392505050565b600081359050610e7c81611576565b92915050565b600081519050610e9181611576565b92915050565b600082601f830112610ea857600080fd5b8135610eb8848260208601610df1565b91505092915050565b600082601f830112610ed257600080fd5b8151610ee2848260208601610e2f565b91505092915050565b600081359050610efa8161158d565b92915050565b600081519050610f0f816115a4565b92915050565b600060208284031215610f2757600080fd5b6000610f3584828501610e6d565b91505092915050565b600060208284031215610f5057600080fd5b6000610f5e84828501610e82565b91505092915050565b60008060408385031215610f7a57600080fd5b600083013567ffffffffffffffff811115610f9457600080fd5b610fa085828601610e97565b925050602083013567ffffffffffffffff811115610fbd57600080fd5b610fc985828601610e97565b9150509250929050565b60008060408385031215610fe657600080fd5b600083015167ffffffffffffffff81111561100057600080fd5b61100c85828601610ec1565b925050602061101d85828601610f00565b9150509250929050565b60006020828403121561103957600080fd5b600061104784828501610eeb565b91505092915050565b600061105c83836110d5565b60208301905092915050565b61107181611375565b82525050565b600061108282611264565b61108c8185611287565b935061109783611254565b8060005b838110156110c85781516110af8882611050565b97506110ba8361127a565b92505060018101905061109b565b5085935050505092915050565b6110de81611387565b82525050565b60006110ef8261126f565b6110f98185611298565b93506111098185602086016113dc565b61111281611516565b840191505092915050565b600061112a6028836112a9565b915061113582611527565b604082019050919050565b611149816113c3565b82525050565b60006020820190506111646000830184611068565b92915050565b600060208201905081810360008301526111848184611077565b905092915050565b600060208201905081810360008301526111a681846110e4565b905092915050565b600060408201905081810360008301526111c881856110e4565b90506111d76020830184611140565b9392505050565b600060208201905081810360008301526111f78161111d565b9050919050565b6000611208611219565b9050611214828261140f565b919050565b6000604051905090565b600067ffffffffffffffff82111561123e5761123d6114e7565b5b61124782611516565b9050602081019050919050565b6000819050602082019050919050565b600081519050919050565b600081519050919050565b6000602082019050919050565b600082825260208201905092915050565b600082825260208201905092915050565b600082825260208201905092915050565b60006112c5826113c3565b91506112d0836113c3565b9250827fffffffffffffffffffffffffffffffffffffffffffffffffffffffffffffffff0382111561130557611304611489565b5b828201905092915050565b600061131b826113c3565b9150611326836113c3565b925082611336576113356114b8565b5b828204905092915050565b600061134c826113c3565b9150611357836113c3565b92508282101561136a57611369611489565b5b828203905092915050565b6000611380826113a3565b9050919050565b6000819050919050565b600061139c82611375565b9050919050565b600073ffffffffffffffffffffffffffffffffffffffff82169050919050565b6000819050919050565b82818337600083830152505050565b60005b838110156113fa5780820151818401526020810190506113df565b83811115611409576000848401525b50505050565b61141882611516565b810181811067ffffffffffffffff82111715611437576114366114e7565b5b80604052505050565b600061144b826113c3565b91507fffffffffffffffffffffffffffffffffffffffffffffffffffffffffffffffff82141561147e5761147d611489565b5b600182019050919050565b7f4e487b7100000000000000000000000000000000000000000000000000000000600052601160045260246000fd5b7f4e487b7100000000000000000000000000000000000000000000000000000000600052601260045260246000fd5b7f4e487b7100000000000000000000000000000000000000000000000000000000600052604160045260246000fd5b6000601f19601f8301169050919050565b7f496e737572616e63652049442068617320616c7265616479206265656e20726560008201527f6769737465726564000000000000000000000000000000000000000000000000602082015250565b61157f81611387565b811461158a57600080fd5b50565b61159681611391565b81146115a157600080fd5b50565b6115ad816113c3565b81146115b857600080fd5b5056fea26469706673582212208da7876f5e8b178822791cd9ee10d351a44457eb6eca6d39320bd22f3dca7df464736f6c63430008030033",
      "opcodes": "PUSH1 0x80 PUSH1 0x40 MSTORE CALLVALUE DUP1 ISZERO PUSH2 0x10 JUMPI PUSH1 0x0 DUP1 REVERT JUMPDEST POP CALLER PUSH1 0x0 DUP1 PUSH2 0x100 EXP DUP2 SLOAD DUP2 PUSH20 0xFFFFFFFFFFFFFFFFFFFFFFFFFFFFFFFFFFFFFFFF MUL NOT AND SWAP1 DUP4 PUSH20 0xFFFFFFFFFFFFFFFFFFFFFFFFFFFFFFFFFFFFFFFF AND MUL OR SWAP1 SSTORE POP PUSH2 0x15F1 DUP1 PUSH2 0x60 PUSH1 0x0 CODECOPY PUSH1 0x0 RETURN INVALID PUSH1 0x80 PUSH1 0x40 MSTORE CALLVALUE DUP1 ISZERO PUSH2 0x10 JUMPI PUSH1 0x0 DUP1 REVERT JUMPDEST POP PUSH1 0x4 CALLDATASIZE LT PUSH2 0x88 JUMPI PUSH1 0x0 CALLDATALOAD PUSH1 0xE0 SHR DUP1 PUSH4 0x9499E018 GT PUSH2 0x5B JUMPI DUP1 PUSH4 0x9499E018 EQ PUSH2 0x12A JUMPI DUP1 PUSH4 0xA15B6516 EQ PUSH2 0x134 JUMPI DUP1 PUSH4 0xD1F6D4C5 EQ PUSH2 0x164 JUMPI DUP1 PUSH4 0xDBA2812A EQ PUSH2 0x194 JUMPI PUSH2 0x88 JUMP JUMPDEST DUP1 PUSH4 0x11165EE7 EQ PUSH2 0x8D JUMPI DUP1 PUSH4 0x37922B0C EQ PUSH2 0xAB JUMPI DUP1 PUSH4 0x4CB74B19 EQ PUSH2 0xDB JUMPI DUP1 PUSH4 0x92806A04 EQ PUSH2 0x10C JUMPI JUMPDEST PUSH1 0x0 DUP1 REVERT JUMPDEST PUSH2 0x95 PUSH2 0x1B0 JUMP JUMPDEST PUSH1 0x40 MLOAD PUSH2 0xA2 SWAP2 SWAP1 PUSH2 0x118C JUMP JUMPDEST PUSH1 0x40 MLOAD DUP1 SWAP2 SUB SWAP1 RETURN JUMPDEST PUSH2 0xC5 PUSH1 0x4 DUP1 CALLDATASIZE SUB DUP2 ADD SWAP1 PUSH2 0xC0 SWAP2 SWAP1 PUSH2 0xF15 JUMP JUMPDEST PUSH2 0x231 JUMP JUMPDEST PUSH1 0x40 MLOAD PUSH2 0xD2 SWAP2 SWAP1 PUSH2 0x114F JUMP JUMPDEST PUSH1 0x40 MLOAD DUP1 SWAP2 SUB SWAP1 RETURN JUMPDEST PUSH2 0xF5 PUSH1 0x4 DUP1 CALLDATASIZE SUB DUP2 ADD SWAP1 PUSH2 0xF0 SWAP2 SWAP1 PUSH2 0xF15 JUMP JUMPDEST PUSH2 0x26E JUMP JUMPDEST PUSH1 0x40 MLOAD PUSH2 0x103 SWAP3 SWAP2 SWAP1 PUSH2 0x11AE JUMP JUMPDEST PUSH1 0x40 MLOAD DUP1 SWAP2 SUB SWAP1 RETURN JUMPDEST PUSH2 0x114 PUSH2 0x3BC JUMP JUMPDEST PUSH1 0x40 MLOAD PUSH2 0x121 SWAP2 SWAP1 PUSH2 0x116A JUMP JUMPDEST PUSH1 0x40 MLOAD DUP1 SWAP2 SUB SWAP1 RETURN JUMPDEST PUSH2 0x132 PUSH2 0x414 JUMP JUMPDEST STOP JUMPDEST PUSH2 0x14E PUSH1 0x4 DUP1 CALLDATASIZE SUB DUP2 ADD SWAP1 PUSH2 0x149 SWAP2 SWAP1 PUSH2 0xF15 JUMP JUMPDEST PUSH2 0x4A5 JUMP JUMPDEST PUSH1 0x40 MLOAD PUSH2 0x15B SWAP2 SWAP1 PUSH2 0x118C JUMP JUMPDEST PUSH1 0x40 MLOAD DUP1 SWAP2 SUB SWAP1 RETURN JUMPDEST PUSH2 0x17E PUSH1 0x4 DUP1 CALLDATASIZE SUB DUP2 ADD SWAP1 PUSH2 0x179 SWAP2 SWAP1 PUSH2 0xF67 JUMP JUMPDEST PUSH2 0x5EC JUMP JUMPDEST PUSH1 0x40 MLOAD PUSH2 0x18B SWAP2 SWAP1 PUSH2 0x118C JUMP JUMPDEST PUSH1 0x40 MLOAD DUP1 SWAP2 SUB SWAP1 RETURN JUMPDEST PUSH2 0x1AE PUSH1 0x4 DUP1 CALLDATASIZE SUB DUP2 ADD SWAP1 PUSH2 0x1A9 SWAP2 SWAP1 PUSH2 0x1027 JUMP JUMPDEST PUSH2 0x6B6 JUMP JUMPDEST STOP JUMPDEST PUSH1 0x60 PUSH1 0x0 JUMPDEST PUSH1 0x6 DUP1 SLOAD SWAP1 POP DUP2 LT ISZERO PUSH2 0x22D JUMPI PUSH2 0x218 DUP3 PUSH2 0x213 PUSH1 0x6 DUP5 DUP2 SLOAD DUP2 LT PUSH2 0x203 JUMPI PUSH32 0x4E487B7100000000000000000000000000000000000000000000000000000000 PUSH1 0x0 MSTORE PUSH1 0x32 PUSH1 0x4 MSTORE PUSH1 0x24 PUSH1 0x0 REVERT JUMPDEST SWAP1 PUSH1 0x0 MSTORE PUSH1 0x20 PUSH1 0x0 KECCAK256 ADD SLOAD PUSH2 0x4A5 JUMP JUMPDEST PUSH2 0x5EC JUMP JUMPDEST SWAP2 POP DUP1 DUP1 PUSH2 0x225 SWAP1 PUSH2 0x1440 JUMP JUMPDEST SWAP2 POP POP PUSH2 0x1B5 JUMP JUMPDEST POP SWAP1 JUMP JUMPDEST PUSH1 0x0 PUSH1 0x5 PUSH1 0x0 DUP4 DUP2 MSTORE PUSH1 0x20 ADD SWAP1 DUP2 MSTORE PUSH1 0x20 ADD PUSH1 0x0 KECCAK256 PUSH1 0x0 SWAP1 SLOAD SWAP1 PUSH2 0x100 EXP SWAP1 DIV PUSH20 0xFFFFFFFFFFFFFFFFFFFFFFFFFFFFFFFFFFFFFFFF AND SWAP1 POP SWAP2 SWAP1 POP JUMP JUMPDEST PUSH1 0x60 PUSH1 0x0 DUP1 PUSH1 0x0 SHL PUSH1 0x4 PUSH1 0x0 DUP6 DUP2 MSTORE PUSH1 0x20 ADD SWAP1 DUP2 MSTORE PUSH1 0x20 ADD PUSH1 0x0 KECCAK256 SLOAD EQ ISZERO PUSH2 0x295 JUMPI PUSH1 0x0 DUP1 REVERT JUMPDEST PUSH1 0x2 PUSH1 0x0 PUSH1 0x4 PUSH1 0x0 DUP7 DUP2 MSTORE PUSH1 0x20 ADD SWAP1 DUP2 MSTORE PUSH1 0x20 ADD PUSH1 0x0 KECCAK256 SLOAD DUP2 MSTORE PUSH1 0x20 ADD SWAP1 DUP2 MSTORE PUSH1 0x20 ADD PUSH1 0x0 KECCAK256 PUSH1 0x1 PUSH1 0x0 DUP6 DUP2 MSTORE PUSH1 0x20 ADD SWAP1 DUP2 MSTORE PUSH1 0x20 ADD PUSH1 0x0 KECCAK256 SLOAD DUP2 SLOAD DUP2 LT PUSH2 0x306 JUMPI PUSH32 0x4E487B7100000000000000000000000000000000000000000000000000000000 PUSH1 0x0 MSTORE PUSH1 0x32 PUSH1 0x4 MSTORE PUSH1 0x24 PUSH1 0x0 REVERT JUMPDEST SWAP1 PUSH1 0x0 MSTORE PUSH1 0x20 PUSH1 0x0 KECCAK256 ADD PUSH1 0x0 SWAP1 SLOAD SWAP1 PUSH2 0x100 EXP SWAP1 DIV PUSH20 0xFFFFFFFFFFFFFFFFFFFFFFFFFFFFFFFFFFFFFFFF AND PUSH20 0xFFFFFFFFFFFFFFFFFFFFFFFFFFFFFFFFFFFFFFFF AND PUSH4 0x236F45D9 PUSH1 0x40 MLOAD DUP2 PUSH4 0xFFFFFFFF AND PUSH1 0xE0 SHL DUP2 MSTORE PUSH1 0x4 ADD PUSH1 0x0 PUSH1 0x40 MLOAD DUP1 DUP4 SUB DUP2 DUP7 DUP1 EXTCODESIZE ISZERO DUP1 ISZERO PUSH2 0x376 JUMPI PUSH1 0x0 DUP1 REVERT JUMPDEST POP GAS STATICCALL ISZERO DUP1 ISZERO PUSH2 0x38A JUMPI RETURNDATASIZE PUSH1 0x0 DUP1 RETURNDATACOPY RETURNDATASIZE PUSH1 0x0 REVERT JUMPDEST POP POP POP POP PUSH1 0x40 MLOAD RETURNDATASIZE PUSH1 0x0 DUP3 RETURNDATACOPY RETURNDATASIZE PUSH1 0x1F NOT PUSH1 0x1F DUP3 ADD AND DUP3 ADD DUP1 PUSH1 0x40 MSTORE POP DUP2 ADD SWAP1 PUSH2 0x3B3 SWAP2 SWAP1 PUSH2 0xFD3 JUMP JUMPDEST SWAP2 POP SWAP2 POP SWAP2 POP SWAP2 JUMP JUMPDEST PUSH1 0x60 PUSH1 0x6 DUP1 SLOAD DUP1 PUSH1 0x20 MUL PUSH1 0x20 ADD PUSH1 0x40 MLOAD SWAP1 DUP2 ADD PUSH1 0x40 MSTORE DUP1 SWAP3 SWAP2 SWAP1 DUP2 DUP2 MSTORE PUSH1 0x20 ADD DUP3 DUP1 SLOAD DUP1 ISZERO PUSH2 0x40A JUMPI PUSH1 0x20 MUL DUP3 ADD SWAP2 SWAP1 PUSH1 0x0 MSTORE PUSH1 0x20 PUSH1 0x0 KECCAK256 SWAP1 JUMPDEST DUP2 SLOAD DUP2 MSTORE PUSH1 0x20 ADD SWAP1 PUSH1 0x1 ADD SWAP1 DUP1 DUP4 GT PUSH2 0x3F6 JUMPI JUMPDEST POP POP POP POP POP SWAP1 POP SWAP1 JUMP JUMPDEST PUSH1 0x0 DUP1 SLOAD SWAP1 PUSH2 0x100 EXP SWAP1 DIV PUSH20 0xFFFFFFFFFFFFFFFFFFFFFFFFFFFFFFFFFFFFFFFF AND PUSH20 0xFFFFFFFFFFFFFFFFFFFFFFFFFFFFFFFFFFFFFFFF AND CALLER PUSH20 0xFFFFFFFFFFFFFFFFFFFFFFFFFFFFFFFFFFFFFFFF AND EQ PUSH2 0x46C JUMPI PUSH1 0x0 DUP1 REVERT JUMPDEST PUSH1 0x0 DUP1 SLOAD SWAP1 PUSH2 0x100 EXP SWAP1 DIV PUSH20 0xFFFFFFFFFFFFFFFFFFFFFFFFFFFFFFFFFFFFFFFF AND PUSH20 0xFFFFFFFFFFFFFFFFFFFFFFFFFFFFFFFFFFFFFFFF AND SELFDESTRUCT JUMPDEST PUSH1 0x60 DUP1 PUSH1 0x0 JUMPDEST PUSH1 0x2 PUSH1 0x0 DUP6 DUP2 MSTORE PUSH1 0x20 ADD SWAP1 DUP2 MSTORE PUSH1 0x20 ADD PUSH1 0x0 KECCAK256 DUP1 SLOAD SWAP1 POP DUP2 LT ISZERO PUSH2 0x5E5 JUMPI PUSH1 0x2 PUSH1 0x0 DUP6 DUP2 MSTORE PUSH1 0x20 ADD SWAP1 DUP2 MSTORE PUSH1 0x20 ADD PUSH1 0x0 KECCAK256 DUP2 DUP2 SLOAD DUP2 LT PUSH2 0x514 JUMPI PUSH32 0x4E487B7100000000000000000000000000000000000000000000000000000000 PUSH1 0x0 MSTORE PUSH1 0x32 PUSH1 0x4 MSTORE PUSH1 0x24 PUSH1 0x0 REVERT JUMPDEST SWAP1 PUSH1 0x0 MSTORE PUSH1 0x20 PUSH1 0x0 KECCAK256 ADD PUSH1 0x0 SWAP1 SLOAD SWAP1 PUSH2 0x100 EXP SWAP1 DIV PUSH20 0xFFFFFFFFFFFFFFFFFFFFFFFFFFFFFFFFFFFFFFFF AND PUSH20 0xFFFFFFFFFFFFFFFFFFFFFFFFFFFFFFFFFFFFFFFF AND PUSH4 0x236F45D9 PUSH1 0x40 MLOAD DUP2 PUSH4 0xFFFFFFFF AND PUSH1 0xE0 SHL DUP2 MSTORE PUSH1 0x4 ADD PUSH1 0x0 PUSH1 0x40 MLOAD DUP1 DUP4 SUB DUP2 DUP7 DUP1 EXTCODESIZE ISZERO DUP1 ISZERO PUSH2 0x584 JUMPI PUSH1 0x0 DUP1 REVERT JUMPDEST POP GAS STATICCALL ISZERO DUP1 ISZERO PUSH2 0x598 JUMPI RETURNDATASIZE PUSH1 0x0 DUP1 RETURNDATACOPY RETURNDATASIZE PUSH1 0x0 REVERT JUMPDEST POP POP POP POP PUSH1 0x40 MLOAD RETURNDATASIZE PUSH1 0x0 DUP3 RETURNDATACOPY RETURNDATASIZE PUSH1 0x1F NOT PUSH1 0x1F DUP3 ADD AND DUP3 ADD DUP1 PUSH1 0x40 MSTORE POP DUP2 ADD SWAP1 PUSH2 0x5C1 SWAP2 SWAP1 PUSH2 0xFD3 JUMP JUMPDEST POP DUP1 SWAP3 POP POP PUSH2 0x5D0 DUP4 DUP4 PUSH2 0x5EC JUMP JUMPDEST SWAP3 POP DUP1 DUP1 PUSH2 0x5DD SWAP1 PUSH2 0x1440 JUMP JUMPDEST SWAP2 POP POP PUSH2 0x4AB JUMP JUMPDEST POP POP SWAP2 SWAP1 POP JUMP JUMPDEST PUSH1 0x60 PUSH1 0x0 DUP4 MLOAD SWAP1 POP PUSH1 0x0 DUP4 MLOAD DUP3 PUSH2 0x603 SWAP2 SWAP1 PUSH2 0x12BA JUMP JUMPDEST SWAP1 POP PUSH1 0x0 PUSH1 0x20 PUSH1 0x1F DUP8 MLOAD PUSH2 0x617 SWAP2 SWAP1 PUSH2 0x12BA JUMP JUMPDEST PUSH2 0x621 SWAP2 SWAP1 PUSH2 0x1310 JUMP JUMPDEST SWAP1 POP PUSH1 0x0 PUSH1 0x20 PUSH1 0x1F DUP8 MLOAD PUSH2 0x635 SWAP2 SWAP1 PUSH2 0x12BA JUMP JUMPDEST PUSH2 0x63F SWAP2 SWAP1 PUSH2 0x1310 JUMP JUMPDEST SWAP1 POP PUSH1 0x40 MLOAD DUP4 DUP2 MSTORE PUSH1 0x0 JUMPDEST DUP4 DUP2 LT ISZERO PUSH2 0x671 JUMPI DUP1 PUSH1 0x1 ADD PUSH1 0x20 MUL DUP10 ADD MLOAD DUP2 PUSH1 0x1 ADD PUSH1 0x20 MUL DUP4 ADD MSTORE DUP1 PUSH1 0x1 ADD SWAP1 POP PUSH2 0x64A JUMP JUMPDEST POP PUSH1 0x0 JUMPDEST DUP3 DUP2 LT ISZERO PUSH2 0x69E JUMPI DUP1 PUSH1 0x1 ADD PUSH1 0x20 MUL DUP9 ADD MLOAD DUP7 DUP3 PUSH1 0x1 ADD PUSH1 0x20 MUL ADD DUP4 ADD MSTORE DUP1 PUSH1 0x1 ADD SWAP1 POP PUSH2 0x675 JUMP JUMPDEST POP DUP4 PUSH1 0x20 ADD DUP2 ADD PUSH1 0x40 MSTORE DUP1 SWAP6 POP POP POP POP POP POP SWAP3 SWAP2 POP POP JUMP JUMPDEST DUP1 PUSH20 0xFFFFFFFFFFFFFFFFFFFFFFFFFFFFFFFFFFFFFFFF AND PUSH4 0x297E6306 ADDRESS PUSH1 0x40 MLOAD DUP3 PUSH4 0xFFFFFFFF AND PUSH1 0xE0 SHL DUP2 MSTORE PUSH1 0x4 ADD PUSH2 0x6EF SWAP2 SWAP1 PUSH2 0x114F JUMP JUMPDEST PUSH1 0x0 PUSH1 0x40 MLOAD DUP1 DUP4 SUB DUP2 PUSH1 0x0 DUP8 DUP1 EXTCODESIZE ISZERO DUP1 ISZERO PUSH2 0x709 JUMPI PUSH1 0x0 DUP1 REVERT JUMPDEST POP GAS CALL ISZERO DUP1 ISZERO PUSH2 0x71D JUMPI RETURNDATASIZE PUSH1 0x0 DUP1 RETURNDATACOPY RETURNDATASIZE PUSH1 0x0 REVERT JUMPDEST POP POP POP POP PUSH1 0x0 DUP1 SHL PUSH1 0x4 PUSH1 0x0 DUP4 PUSH20 0xFFFFFFFFFFFFFFFFFFFFFFFFFFFFFFFFFFFFFFFF AND PUSH4 0x5D1CA631 PUSH1 0x40 MLOAD DUP2 PUSH4 0xFFFFFFFF AND PUSH1 0xE0 SHL DUP2 MSTORE PUSH1 0x4 ADD PUSH1 0x20 PUSH1 0x40 MLOAD DUP1 DUP4 SUB DUP2 DUP7 DUP1 EXTCODESIZE ISZERO DUP1 ISZERO PUSH2 0x76F JUMPI PUSH1 0x0 DUP1 REVERT JUMPDEST POP GAS STATICCALL ISZERO DUP1 ISZERO PUSH2 0x783 JUMPI RETURNDATASIZE PUSH1 0x0 DUP1 RETURNDATACOPY RETURNDATASIZE PUSH1 0x0 REVERT JUMPDEST POP POP POP POP PUSH1 0x40 MLOAD RETURNDATASIZE PUSH1 0x1F NOT PUSH1 0x1F DUP3 ADD AND DUP3 ADD DUP1 PUSH1 0x40 MSTORE POP DUP2 ADD SWAP1 PUSH2 0x7A7 SWAP2 SWAP1 PUSH2 0xF3E JUMP JUMPDEST DUP2 MSTORE PUSH1 0x20 ADD SWAP1 DUP2 MSTORE PUSH1 0x20 ADD PUSH1 0x0 KECCAK256 SLOAD EQ PUSH2 0x7F6 JUMPI PUSH1 0x40 MLOAD PUSH32 0x8C379A000000000000000000000000000000000000000000000000000000000 DUP2 MSTORE PUSH1 0x4 ADD PUSH2 0x7ED SWAP1 PUSH2 0x11DE JUMP JUMPDEST PUSH1 0x40 MLOAD DUP1 SWAP2 SUB SWAP1 REVERT JUMPDEST PUSH1 0x3 PUSH1 0x0 DUP3 PUSH20 0xFFFFFFFFFFFFFFFFFFFFFFFFFFFFFFFFFFFFFFFF AND PUSH4 0xFC1C7A70 PUSH1 0x40 MLOAD DUP2 PUSH4 0xFFFFFFFF AND PUSH1 0xE0 SHL DUP2 MSTORE PUSH1 0x4 ADD PUSH1 0x20 PUSH1 0x40 MLOAD DUP1 DUP4 SUB DUP2 DUP7 DUP1 EXTCODESIZE ISZERO DUP1 ISZERO PUSH2 0x840 JUMPI PUSH1 0x0 DUP1 REVERT JUMPDEST POP GAS STATICCALL ISZERO DUP1 ISZERO PUSH2 0x854 JUMPI RETURNDATASIZE PUSH1 0x0 DUP1 RETURNDATACOPY RETURNDATASIZE PUSH1 0x0 REVERT JUMPDEST POP POP POP POP PUSH1 0x40 MLOAD RETURNDATASIZE PUSH1 0x1F NOT PUSH1 0x1F DUP3 ADD AND DUP3 ADD DUP1 PUSH1 0x40 MSTORE POP DUP2 ADD SWAP1 PUSH2 0x878 SWAP2 SWAP1 PUSH2 0xF3E JUMP JUMPDEST DUP2 MSTORE PUSH1 0x20 ADD SWAP1 DUP2 MSTORE PUSH1 0x20 ADD PUSH1 0x0 KECCAK256 PUSH1 0x0 SWAP1 SLOAD SWAP1 PUSH2 0x100 EXP SWAP1 DIV PUSH1 0xFF AND PUSH2 0x9E8 JUMPI PUSH1 0x6 DUP2 PUSH20 0xFFFFFFFFFFFFFFFFFFFFFFFFFFFFFFFFFFFFFFFF AND PUSH4 0xFC1C7A70 PUSH1 0x40 MLOAD DUP2 PUSH4 0xFFFFFFFF AND PUSH1 0xE0 SHL DUP2 MSTORE PUSH1 0x4 ADD PUSH1 0x20 PUSH1 0x40 MLOAD DUP1 DUP4 SUB DUP2 DUP7 DUP1 EXTCODESIZE ISZERO DUP1 ISZERO PUSH2 0x8E0 JUMPI PUSH1 0x0 DUP1 REVERT JUMPDEST POP GAS STATICCALL ISZERO DUP1 ISZERO PUSH2 0x8F4 JUMPI RETURNDATASIZE PUSH1 0x0 DUP1 RETURNDATACOPY RETURNDATASIZE PUSH1 0x0 REVERT JUMPDEST POP POP POP POP PUSH1 0x40 MLOAD RETURNDATASIZE PUSH1 0x1F NOT PUSH1 0x1F DUP3 ADD AND DUP3 ADD DUP1 PUSH1 0x40 MSTORE POP DUP2 ADD SWAP1 PUSH2 0x918 SWAP2 SWAP1 PUSH2 0xF3E JUMP JUMPDEST SWAP1 DUP1 PUSH1 0x1 DUP2 SLOAD ADD DUP1 DUP3 SSTORE DUP1 SWAP2 POP POP PUSH1 0x1 SWAP1 SUB SWAP1 PUSH1 0x0 MSTORE PUSH1 0x20 PUSH1 0x0 KECCAK256 ADD PUSH1 0x0 SWAP1 SWAP2 SWAP1 SWAP2 SWAP1 SWAP2 POP SSTORE PUSH1 0x1 PUSH1 0x3 PUSH1 0x0 DUP4 PUSH20 0xFFFFFFFFFFFFFFFFFFFFFFFFFFFFFFFFFFFFFFFF AND PUSH4 0xFC1C7A70 PUSH1 0x40 MLOAD DUP2 PUSH4 0xFFFFFFFF AND PUSH1 0xE0 SHL DUP2 MSTORE PUSH1 0x4 ADD PUSH1 0x20 PUSH1 0x40 MLOAD DUP1 DUP4 SUB DUP2 DUP7 DUP1 EXTCODESIZE ISZERO DUP1 ISZERO PUSH2 0x98A JUMPI PUSH1 0x0 DUP1 REVERT JUMPDEST POP GAS STATICCALL ISZERO DUP1 ISZERO PUSH2 0x99E JUMPI RETURNDATASIZE PUSH1 0x0 DUP1 RETURNDATACOPY RETURNDATASIZE PUSH1 0x0 REVERT JUMPDEST POP POP POP POP PUSH1 0x40 MLOAD RETURNDATASIZE PUSH1 0x1F NOT PUSH1 0x1F DUP3 ADD AND DUP3 ADD DUP1 PUSH1 0x40 MSTORE POP DUP2 ADD SWAP1 PUSH2 0x9C2 SWAP2 SWAP1 PUSH2 0xF3E JUMP JUMPDEST DUP2 MSTORE PUSH1 0x20 ADD SWAP1 DUP2 MSTORE PUSH1 0x20 ADD PUSH1 0x0 KECCAK256 PUSH1 0x0 PUSH2 0x100 EXP DUP2 SLOAD DUP2 PUSH1 0xFF MUL NOT AND SWAP1 DUP4 ISZERO ISZERO MUL OR SWAP1 SSTORE POP JUMPDEST PUSH1 0x2 PUSH1 0x0 DUP3 PUSH20 0xFFFFFFFFFFFFFFFFFFFFFFFFFFFFFFFFFFFFFFFF AND PUSH4 0xFC1C7A70 PUSH1 0x40 MLOAD DUP2 PUSH4 0xFFFFFFFF AND PUSH1 0xE0 SHL DUP2 MSTORE PUSH1 0x4 ADD PUSH1 0x20 PUSH1 0x40 MLOAD DUP1 DUP4 SUB DUP2 DUP7 DUP1 EXTCODESIZE ISZERO DUP1 ISZERO PUSH2 0xA32 JUMPI PUSH1 0x0 DUP1 REVERT JUMPDEST POP GAS STATICCALL ISZERO DUP1 ISZERO PUSH2 0xA46 JUMPI RETURNDATASIZE PUSH1 0x0 DUP1 RETURNDATACOPY RETURNDATASIZE PUSH1 0x0 REVERT JUMPDEST POP POP POP POP PUSH1 0x40 MLOAD RETURNDATASIZE PUSH1 0x1F NOT PUSH1 0x1F DUP3 ADD AND DUP3 ADD DUP1 PUSH1 0x40 MSTORE POP DUP2 ADD SWAP1 PUSH2 0xA6A SWAP2 SWAP1 PUSH2 0xF3E JUMP JUMPDEST DUP2 MSTORE PUSH1 0x20 ADD SWAP1 DUP2 MSTORE PUSH1 0x20 ADD PUSH1 0x0 KECCAK256 DUP2 SWAP1 DUP1 PUSH1 0x1 DUP2 SLOAD ADD DUP1 DUP3 SSTORE DUP1 SWAP2 POP POP PUSH1 0x1 SWAP1 SUB SWAP1 PUSH1 0x0 MSTORE PUSH1 0x20 PUSH1 0x0 KECCAK256 ADD PUSH1 0x0 SWAP1 SWAP2 SWAP1 SWAP2 SWAP1 SWAP2 PUSH2 0x100 EXP DUP2 SLOAD DUP2 PUSH20 0xFFFFFFFFFFFFFFFFFFFFFFFFFFFFFFFFFFFFFFFF MUL NOT AND SWAP1 DUP4 PUSH20 0xFFFFFFFFFFFFFFFFFFFFFFFFFFFFFFFFFFFFFFFF AND MUL OR SWAP1 SSTORE POP PUSH1 0x1 PUSH1 0x2 PUSH1 0x0 DUP4 PUSH20 0xFFFFFFFFFFFFFFFFFFFFFFFFFFFFFFFFFFFFFFFF AND PUSH4 0xFC1C7A70 PUSH1 0x40 MLOAD DUP2 PUSH4 0xFFFFFFFF AND PUSH1 0xE0 SHL DUP2 MSTORE PUSH1 0x4 ADD PUSH1 0x20 PUSH1 0x40 MLOAD DUP1 DUP4 SUB DUP2 DUP7 DUP1 EXTCODESIZE ISZERO DUP1 ISZERO PUSH2 0xB25 JUMPI PUSH1 0x0 DUP1 REVERT JUMPDEST POP GAS STATICCALL ISZERO DUP1 ISZERO PUSH2 0xB39 JUMPI RETURNDATASIZE PUSH1 0x0 DUP1 RETURNDATACOPY RETURNDATASIZE PUSH1 0x0 REVERT JUMPDEST POP POP POP POP PUSH1 0x40 MLOAD RETURNDATASIZE PUSH1 0x1F NOT PUSH1 0x1F DUP3 ADD AND DUP3 ADD DUP1 PUSH1 0x40 MSTORE POP DUP2 ADD SWAP1 PUSH2 0xB5D SWAP2 SWAP1 PUSH2 0xF3E JUMP JUMPDEST DUP2 MSTORE PUSH1 0x20 ADD SWAP1 DUP2 MSTORE PUSH1 0x20 ADD PUSH1 0x0 KECCAK256 DUP1 SLOAD SWAP1 POP PUSH2 0xB79 SWAP2 SWAP1 PUSH2 0x1341 JUMP JUMPDEST PUSH1 0x1 PUSH1 0x0 DUP4 PUSH20 0xFFFFFFFFFFFFFFFFFFFFFFFFFFFFFFFFFFFFFFFF AND PUSH4 0x5D1CA631 PUSH1 0x40 MLOAD DUP2 PUSH4 0xFFFFFFFF AND PUSH1 0xE0 SHL DUP2 MSTORE PUSH1 0x4 ADD PUSH1 0x20 PUSH1 0x40 MLOAD DUP1 DUP4 SUB DUP2 DUP7 DUP1 EXTCODESIZE ISZERO DUP1 ISZERO PUSH2 0xBC3 JUMPI PUSH1 0x0 DUP1 REVERT JUMPDEST POP GAS STATICCALL ISZERO DUP1 ISZERO PUSH2 0xBD7 JUMPI RETURNDATASIZE PUSH1 0x0 DUP1 RETURNDATACOPY RETURNDATASIZE PUSH1 0x0 REVERT JUMPDEST POP POP POP POP PUSH1 0x40 MLOAD RETURNDATASIZE PUSH1 0x1F NOT PUSH1 0x1F DUP3 ADD AND DUP3 ADD DUP1 PUSH1 0x40 MSTORE POP DUP2 ADD SWAP1 PUSH2 0xBFB SWAP2 SWAP1 PUSH2 0xF3E JUMP JUMPDEST DUP2 MSTORE PUSH1 0x20 ADD SWAP1 DUP2 MSTORE PUSH1 0x20 ADD PUSH1 0x0 KECCAK256 DUP2 SWAP1 SSTORE POP DUP1 PUSH20 0xFFFFFFFFFFFFFFFFFFFFFFFFFFFFFFFFFFFFFFFF AND PUSH4 0xFC1C7A70 PUSH1 0x40 MLOAD DUP2 PUSH4 0xFFFFFFFF AND PUSH1 0xE0 SHL DUP2 MSTORE PUSH1 0x4 ADD PUSH1 0x20 PUSH1 0x40 MLOAD DUP1 DUP4 SUB DUP2 DUP7 DUP1 EXTCODESIZE ISZERO DUP1 ISZERO PUSH2 0xC53 JUMPI PUSH1 0x0 DUP1 REVERT JUMPDEST POP GAS STATICCALL ISZERO DUP1 ISZERO PUSH2 0xC67 JUMPI RETURNDATASIZE PUSH1 0x0 DUP1 RETURNDATACOPY RETURNDATASIZE PUSH1 0x0 REVERT JUMPDEST POP POP POP POP PUSH1 0x40 MLOAD RETURNDATASIZE PUSH1 0x1F NOT PUSH1 0x1F DUP3 ADD AND DUP3 ADD DUP1 PUSH1 0x40 MSTORE POP DUP2 ADD SWAP1 PUSH2 0xC8B SWAP2 SWAP1 PUSH2 0xF3E JUMP JUMPDEST PUSH1 0x4 PUSH1 0x0 DUP4 PUSH20 0xFFFFFFFFFFFFFFFFFFFFFFFFFFFFFFFFFFFFFFFF AND PUSH4 0x5D1CA631 PUSH1 0x40 MLOAD DUP2 PUSH4 0xFFFFFFFF AND PUSH1 0xE0 SHL DUP2 MSTORE PUSH1 0x4 ADD PUSH1 0x20 PUSH1 0x40 MLOAD DUP1 DUP4 SUB DUP2 DUP7 DUP1 EXTCODESIZE ISZERO DUP1 ISZERO PUSH2 0xCD5 JUMPI PUSH1 0x0 DUP1 REVERT JUMPDEST POP GAS STATICCALL ISZERO DUP1 ISZERO PUSH2 0xCE9 JUMPI RETURNDATASIZE PUSH1 0x0 DUP1 RETURNDATACOPY RETURNDATASIZE PUSH1 0x0 REVERT JUMPDEST POP POP POP POP PUSH1 0x40 MLOAD RETURNDATASIZE PUSH1 0x1F NOT PUSH1 0x1F DUP3 ADD AND DUP3 ADD DUP1 PUSH1 0x40 MSTORE POP DUP2 ADD SWAP1 PUSH2 0xD0D SWAP2 SWAP1 PUSH2 0xF3E JUMP JUMPDEST DUP2 MSTORE PUSH1 0x20 ADD SWAP1 DUP2 MSTORE PUSH1 0x20 ADD PUSH1 0x0 KECCAK256 DUP2 SWAP1 SSTORE POP DUP1 PUSH1 0x5 PUSH1 0x0 DUP4 PUSH20 0xFFFFFFFFFFFFFFFFFFFFFFFFFFFFFFFFFFFFFFFF AND PUSH4 0x5D1CA631 PUSH1 0x40 MLOAD DUP2 PUSH4 0xFFFFFFFF AND PUSH1 0xE0 SHL DUP2 MSTORE PUSH1 0x4 ADD PUSH1 0x20 PUSH1 0x40 MLOAD DUP1 DUP4 SUB DUP2 DUP7 DUP1 EXTCODESIZE ISZERO DUP1 ISZERO PUSH2 0xD6A JUMPI PUSH1 0x0 DUP1 REVERT JUMPDEST POP GAS STATICCALL ISZERO DUP1 ISZERO PUSH2 0xD7E JUMPI RETURNDATASIZE PUSH1 0x0 DUP1 RETURNDATACOPY RETURNDATASIZE PUSH1 0x0 REVERT JUMPDEST POP POP POP POP PUSH1 0x40 MLOAD RETURNDATASIZE PUSH1 0x1F NOT PUSH1 0x1F DUP3 ADD AND DUP3 ADD DUP1 PUSH1 0x40 MSTORE POP DUP2 ADD SWAP1 PUSH2 0xDA2 SWAP2 SWAP1 PUSH2 0xF3E JUMP JUMPDEST DUP2 MSTORE PUSH1 0x20 ADD SWAP1 DUP2 MSTORE PUSH1 0x20 ADD PUSH1 0x0 KECCAK256 PUSH1 0x0 PUSH2 0x100 EXP DUP2 SLOAD DUP2 PUSH20 0xFFFFFFFFFFFFFFFFFFFFFFFFFFFFFFFFFFFFFFFF MUL NOT AND SWAP1 DUP4 PUSH20 0xFFFFFFFFFFFFFFFFFFFFFFFFFFFFFFFFFFFFFFFF AND MUL OR SWAP1 SSTORE POP POP JUMP JUMPDEST PUSH1 0x0 PUSH2 0xE04 PUSH2 0xDFF DUP5 PUSH2 0x1223 JUMP JUMPDEST PUSH2 0x11FE JUMP JUMPDEST SWAP1 POP DUP3 DUP2 MSTORE PUSH1 0x20 DUP2 ADD DUP5 DUP5 DUP5 ADD GT ISZERO PUSH2 0xE1C JUMPI PUSH1 0x0 DUP1 REVERT JUMPDEST PUSH2 0xE27 DUP5 DUP3 DUP6 PUSH2 0x13CD JUMP JUMPDEST POP SWAP4 SWAP3 POP POP POP JUMP JUMPDEST PUSH1 0x0 PUSH2 0xE42 PUSH2 0xE3D DUP5 PUSH2 0x1223 JUMP JUMPDEST PUSH2 0x11FE JUMP JUMPDEST SWAP1 POP DUP3 DUP2 MSTORE PUSH1 0x20 DUP2 ADD DUP5 DUP5 DUP5 ADD GT ISZERO PUSH2 0xE5A JUMPI PUSH1 0x0 DUP1 REVERT JUMPDEST PUSH2 0xE65 DUP5 DUP3 DUP6 PUSH2 0x13DC JUMP JUMPDEST POP SWAP4 SWAP3 POP POP POP JUMP JUMPDEST PUSH1 0x0 DUP2 CALLDATALOAD SWAP1 POP PUSH2 0xE7C DUP2 PUSH2 0x1576 JUMP JUMPDEST SWAP3 SWAP2 POP POP JUMP JUMPDEST PUSH1 0x0 DUP2 MLOAD SWAP1 POP PUSH2 0xE91 DUP2 PUSH2 0x1576 JUMP JUMPDEST SWAP3 SWAP2 POP POP JUMP JUMPDEST PUSH1 0x0 DUP3 PUSH1 0x1F DUP4 ADD SLT PUSH2 0xEA8 JUMPI PUSH1 0x0 DUP1 REVERT JUMPDEST DUP2 CALLDATALOAD PUSH2 0xEB8 DUP5 DUP3 PUSH1 0x20 DUP7 ADD PUSH2 0xDF1 JUMP JUMPDEST SWAP2 POP POP SWAP3 SWAP2 POP POP JUMP JUMPDEST PUSH1 0x0 DUP3 PUSH1 0x1F DUP4 ADD SLT PUSH2 0xED2 JUMPI PUSH1 0x0 DUP1 REVERT JUMPDEST DUP2 MLOAD PUSH2 0xEE2 DUP5 DUP3 PUSH1 0x20 DUP7 ADD PUSH2 0xE2F JUMP JUMPDEST SWAP2 POP POP SWAP3 SWAP2 POP POP JUMP JUMPDEST PUSH1 0x0 DUP2 CALLDATALOAD SWAP1 POP PUSH2 0xEFA DUP2 PUSH2 0x158D JUMP JUMPDEST SWAP3 SWAP2 POP POP JUMP JUMPDEST PUSH1 0x0 DUP2 MLOAD SWAP1 POP PUSH2 0xF0F DUP2 PUSH2 0x15A4 JUMP JUMPDEST SWAP3 SWAP2 POP POP JUMP JUMPDEST PUSH1 0x0 PUSH1 0x20 DUP3 DUP5 SUB SLT ISZERO PUSH2 0xF27 JUMPI PUSH1 0x0 DUP1 REVERT JUMPDEST PUSH1 0x0 PUSH2 0xF35 DUP5 DUP3 DUP6 ADD PUSH2 0xE6D JUMP JUMPDEST SWAP2 POP POP SWAP3 SWAP2 POP POP JUMP JUMPDEST PUSH1 0x0 PUSH1 0x20 DUP3 DUP5 SUB SLT ISZERO PUSH2 0xF50 JUMPI PUSH1 0x0 DUP1 REVERT JUMPDEST PUSH1 0x0 PUSH2 0xF5E DUP5 DUP3 DUP6 ADD PUSH2 0xE82 JUMP JUMPDEST SWAP2 POP POP SWAP3 SWAP2 POP POP JUMP JUMPDEST PUSH1 0x0 DUP1 PUSH1 0x40 DUP4 DUP6 SUB SLT ISZERO PUSH2 0xF7A JUMPI PUSH1 0x0 DUP1 REVERT JUMPDEST PUSH1 0x0 DUP4 ADD CALLDATALOAD PUSH8 0xFFFFFFFFFFFFFFFF DUP2 GT ISZERO PUSH2 0xF94 JUMPI PUSH1 0x0 DUP1 REVERT JUMPDEST PUSH2 0xFA0 DUP6 DUP3 DUP7 ADD PUSH2 0xE97 JUMP JUMPDEST SWAP3 POP POP PUSH1 0x20 DUP4 ADD CALLDATALOAD PUSH8 0xFFFFFFFFFFFFFFFF DUP2 GT ISZERO PUSH2 0xFBD JUMPI PUSH1 0x0 DUP1 REVERT JUMPDEST PUSH2 0xFC9 DUP6 DUP3 DUP7 ADD PUSH2 0xE97 JUMP JUMPDEST SWAP2 POP POP SWAP3 POP SWAP3 SWAP1 POP JUMP JUMPDEST PUSH1 0x0 DUP1 PUSH1 0x40 DUP4 DUP6 SUB SLT ISZERO PUSH2 0xFE6 JUMPI PUSH1 0x0 DUP1 REVERT JUMPDEST PUSH1 0x0 DUP4 ADD MLOAD PUSH8 0xFFFFFFFFFFFFFFFF DUP2 GT ISZERO PUSH2 0x1000 JUMPI PUSH1 0x0 DUP1 REVERT JUMPDEST PUSH2 0x100C DUP6 DUP3 DUP7 ADD PUSH2 0xEC1 JUMP JUMPDEST SWAP3 POP POP PUSH1 0x20 PUSH2 0x101D DUP6 DUP3 DUP7 ADD PUSH2 0xF00 JUMP JUMPDEST SWAP2 POP POP SWAP3 POP SWAP3 SWAP1 POP JUMP JUMPDEST PUSH1 0x0 PUSH1 0x20 DUP3 DUP5 SUB SLT ISZERO PUSH2 0x1039 JUMPI PUSH1 0x0 DUP1 REVERT JUMPDEST PUSH1 0x0 PUSH2 0x1047 DUP5 DUP3 DUP6 ADD PUSH2 0xEEB JUMP JUMPDEST SWAP2 POP POP SWAP3 SWAP2 POP POP JUMP JUMPDEST PUSH1 0x0 PUSH2 0x105C DUP4 DUP4 PUSH2 0x10D5 JUMP JUMPDEST PUSH1 0x20 DUP4 ADD SWAP1 POP SWAP3 SWAP2 POP POP JUMP JUMPDEST PUSH2 0x1071 DUP2 PUSH2 0x1375 JUMP JUMPDEST DUP3 MSTORE POP POP JUMP JUMPDEST PUSH1 0x0 PUSH2 0x1082 DUP3 PUSH2 0x1264 JUMP JUMPDEST PUSH2 0x108C DUP2 DUP6 PUSH2 0x1287 JUMP JUMPDEST SWAP4 POP PUSH2 0x1097 DUP4 PUSH2 0x1254 JUMP JUMPDEST DUP1 PUSH1 0x0 JUMPDEST DUP4 DUP2 LT ISZERO PUSH2 0x10C8 JUMPI DUP2 MLOAD PUSH2 0x10AF DUP9 DUP3 PUSH2 0x1050 JUMP JUMPDEST SWAP8 POP PUSH2 0x10BA DUP4 PUSH2 0x127A JUMP JUMPDEST SWAP3 POP POP PUSH1 0x1 DUP2 ADD SWAP1 POP PUSH2 0x109B JUMP JUMPDEST POP DUP6 SWAP4 POP POP POP POP SWAP3 SWAP2 POP POP JUMP JUMPDEST PUSH2 0x10DE DUP2 PUSH2 0x1387 JUMP JUMPDEST DUP3 MSTORE POP POP JUMP JUMPDEST PUSH1 0x0 PUSH2 0x10EF DUP3 PUSH2 0x126F JUMP JUMPDEST PUSH2 0x10F9 DUP2 DUP6 PUSH2 0x1298 JUMP JUMPDEST SWAP4 POP PUSH2 0x1109 DUP2 DUP6 PUSH1 0x20 DUP7 ADD PUSH2 0x13DC JUMP JUMPDEST PUSH2 0x1112 DUP2 PUSH2 0x1516 JUMP JUMPDEST DUP5 ADD SWAP2 POP POP SWAP3 SWAP2 POP POP JUMP JUMPDEST PUSH1 0x0 PUSH2 0x112A PUSH1 0x28 DUP4 PUSH2 0x12A9 JUMP JUMPDEST SWAP2 POP PUSH2 0x1135 DUP3 PUSH2 0x1527 JUMP JUMPDEST PUSH1 0x40 DUP3 ADD SWAP1 POP SWAP2 SWAP1 POP JUMP JUMPDEST PUSH2 0x1149 DUP2 PUSH2 0x13C3 JUMP JUMPDEST DUP3 MSTORE POP POP JUMP JUMPDEST PUSH1 0x0 PUSH1 0x20 DUP3 ADD SWAP1 POP PUSH2 0x1164 PUSH1 0x0 DUP4 ADD DUP5 PUSH2 0x1068 JUMP JUMPDEST SWAP3 SWAP2 POP POP JUMP JUMPDEST PUSH1 0x0 PUSH1 0x20 DUP3 ADD SWAP1 POP DUP2 DUP2 SUB PUSH1 0x0 DUP4 ADD MSTORE PUSH2 0x1184 DUP2 DUP5 PUSH2 0x1077 JUMP JUMPDEST SWAP1 POP SWAP3 SWAP2 POP POP JUMP JUMPDEST PUSH1 0x0 PUSH1 0x20 DUP3 ADD SWAP1 POP DUP2 DUP2 SUB PUSH1 0x0 DUP4 ADD MSTORE PUSH2 0x11A6 DUP2 DUP5 PUSH2 0x10E4 JUMP JUMPDEST SWAP1 POP SWAP3 SWAP2 POP POP JUMP JUMPDEST PUSH1 0x0 PUSH1 0x40 DUP3 ADD SWAP1 POP DUP2 DUP2 SUB PUSH1 0x0 DUP4 ADD MSTORE PUSH2 0x11C8 DUP2 DUP6 PUSH2 0x10E4 JUMP JUMPDEST SWAP1 POP PUSH2 0x11D7 PUSH1 0x20 DUP4 ADD DUP5 PUSH2 0x1140 JUMP JUMPDEST SWAP4 SWAP3 POP POP POP JUMP JUMPDEST PUSH1 0x0 PUSH1 0x20 DUP3 ADD SWAP1 POP DUP2 DUP2 SUB PUSH1 0x0 DUP4 ADD MSTORE PUSH2 0x11F7 DUP2 PUSH2 0x111D JUMP JUMPDEST SWAP1 POP SWAP2 SWAP1 POP JUMP JUMPDEST PUSH1 0x0 PUSH2 0x1208 PUSH2 0x1219 JUMP JUMPDEST SWAP1 POP PUSH2 0x1214 DUP3 DUP3 PUSH2 0x140F JUMP JUMPDEST SWAP2 SWAP1 POP JUMP JUMPDEST PUSH1 0x0 PUSH1 0x40 MLOAD SWAP1 POP SWAP1 JUMP JUMPDEST PUSH1 0x0 PUSH8 0xFFFFFFFFFFFFFFFF DUP3 GT ISZERO PUSH2 0x123E JUMPI PUSH2 0x123D PUSH2 0x14E7 JUMP JUMPDEST JUMPDEST PUSH2 0x1247 DUP3 PUSH2 0x1516 JUMP JUMPDEST SWAP1 POP PUSH1 0x20 DUP2 ADD SWAP1 POP SWAP2 SWAP1 POP JUMP JUMPDEST PUSH1 0x0 DUP2 SWAP1 POP PUSH1 0x20 DUP3 ADD SWAP1 POP SWAP2 SWAP1 POP JUMP JUMPDEST PUSH1 0x0 DUP2 MLOAD SWAP1 POP SWAP2 SWAP1 POP JUMP JUMPDEST PUSH1 0x0 DUP2 MLOAD SWAP1 POP SWAP2 SWAP1 POP JUMP JUMPDEST PUSH1 0x0 PUSH1 0x20 DUP3 ADD SWAP1 POP SWAP2 SWAP1 POP JUMP JUMPDEST PUSH1 0x0 DUP3 DUP3 MSTORE PUSH1 0x20 DUP3 ADD SWAP1 POP SWAP3 SWAP2 POP POP JUMP JUMPDEST PUSH1 0x0 DUP3 DUP3 MSTORE PUSH1 0x20 DUP3 ADD SWAP1 POP SWAP3 SWAP2 POP POP JUMP JUMPDEST PUSH1 0x0 DUP3 DUP3 MSTORE PUSH1 0x20 DUP3 ADD SWAP1 POP SWAP3 SWAP2 POP POP JUMP JUMPDEST PUSH1 0x0 PUSH2 0x12C5 DUP3 PUSH2 0x13C3 JUMP JUMPDEST SWAP2 POP PUSH2 0x12D0 DUP4 PUSH2 0x13C3 JUMP JUMPDEST SWAP3 POP DUP3 PUSH32 0xFFFFFFFFFFFFFFFFFFFFFFFFFFFFFFFFFFFFFFFFFFFFFFFFFFFFFFFFFFFFFFFF SUB DUP3 GT ISZERO PUSH2 0x1305 JUMPI PUSH2 0x1304 PUSH2 0x1489 JUMP JUMPDEST JUMPDEST DUP3 DUP3 ADD SWAP1 POP SWAP3 SWAP2 POP POP JUMP JUMPDEST PUSH1 0x0 PUSH2 0x131B DUP3 PUSH2 0x13C3 JUMP JUMPDEST SWAP2 POP PUSH2 0x1326 DUP4 PUSH2 0x13C3 JUMP JUMPDEST SWAP3 POP DUP3 PUSH2 0x1336 JUMPI PUSH2 0x1335 PUSH2 0x14B8 JUMP JUMPDEST JUMPDEST DUP3 DUP3 DIV SWAP1 POP SWAP3 SWAP2 POP POP JUMP JUMPDEST PUSH1 0x0 PUSH2 0x134C DUP3 PUSH2 0x13C3 JUMP JUMPDEST SWAP2 POP PUSH2 0x1357 DUP4 PUSH2 0x13C3 JUMP JUMPDEST SWAP3 POP DUP3 DUP3 LT ISZERO PUSH2 0x136A JUMPI PUSH2 0x1369 PUSH2 0x1489 JUMP JUMPDEST JUMPDEST DUP3 DUP3 SUB SWAP1 POP SWAP3 SWAP2 POP POP JUMP JUMPDEST PUSH1 0x0 PUSH2 0x1380 DUP3 PUSH2 0x13A3 JUMP JUMPDEST SWAP1 POP SWAP2 SWAP1 POP JUMP JUMPDEST PUSH1 0x0 DUP2 SWAP1 POP SWAP2 SWAP1 POP JUMP JUMPDEST PUSH1 0x0 PUSH2 0x139C DUP3 PUSH2 0x1375 JUMP JUMPDEST SWAP1 POP SWAP2 SWAP1 POP JUMP JUMPDEST PUSH1 0x0 PUSH20 0xFFFFFFFFFFFFFFFFFFFFFFFFFFFFFFFFFFFFFFFF DUP3 AND SWAP1 POP SWAP2 SWAP1 POP JUMP JUMPDEST PUSH1 0x0 DUP2 SWAP1 POP SWAP2 SWAP1 POP JUMP JUMPDEST DUP3 DUP2 DUP4 CALLDATACOPY PUSH1 0x0 DUP4 DUP4 ADD MSTORE POP POP POP JUMP JUMPDEST PUSH1 0x0 JUMPDEST DUP4 DUP2 LT ISZERO PUSH2 0x13FA JUMPI DUP1 DUP3 ADD MLOAD DUP2 DUP5 ADD MSTORE PUSH1 0x20 DUP2 ADD SWAP1 POP PUSH2 0x13DF JUMP JUMPDEST DUP4 DUP2 GT ISZERO PUSH2 0x1409 JUMPI PUSH1 0x0 DUP5 DUP5 ADD MSTORE JUMPDEST POP POP POP POP JUMP JUMPDEST PUSH2 0x1418 DUP3 PUSH2 0x1516 JUMP JUMPDEST DUP2 ADD DUP2 DUP2 LT PUSH8 0xFFFFFFFFFFFFFFFF DUP3 GT OR ISZERO PUSH2 0x1437 JUMPI PUSH2 0x1436 PUSH2 0x14E7 JUMP JUMPDEST JUMPDEST DUP1 PUSH1 0x40 MSTORE POP POP POP JUMP JUMPDEST PUSH1 0x0 PUSH2 0x144B DUP3 PUSH2 0x13C3 JUMP JUMPDEST SWAP2 POP PUSH32 0xFFFFFFFFFFFFFFFFFFFFFFFFFFFFFFFFFFFFFFFFFFFFFFFFFFFFFFFFFFFFFFFF DUP3 EQ ISZERO PUSH2 0x147E JUMPI PUSH2 0x147D PUSH2 0x1489 JUMP JUMPDEST JUMPDEST PUSH1 0x1 DUP3 ADD SWAP1 POP SWAP2 SWAP1 POP JUMP JUMPDEST PUSH32 0x4E487B7100000000000000000000000000000000000000000000000000000000 PUSH1 0x0 MSTORE PUSH1 0x11 PUSH1 0x4 MSTORE PUSH1 0x24 PUSH1 0x0 REVERT JUMPDEST PUSH32 0x4E487B7100000000000000000000000000000000000000000000000000000000 PUSH1 0x0 MSTORE PUSH1 0x12 PUSH1 0x4 MSTORE PUSH1 0x24 PUSH1 0x0 REVERT JUMPDEST PUSH32 0x4E487B7100000000000000000000000000000000000000000000000000000000 PUSH1 0x0 MSTORE PUSH1 0x41 PUSH1 0x4 MSTORE PUSH1 0x24 PUSH1 0x0 REVERT JUMPDEST PUSH1 0x0 PUSH1 0x1F NOT PUSH1 0x1F DUP4 ADD AND SWAP1 POP SWAP2 SWAP1 POP JUMP JUMPDEST PUSH32 0x496E737572616E63652049442068617320616C7265616479206265656E207265 PUSH1 0x0 DUP3 ADD MSTORE PUSH32 0x6769737465726564000000000000000000000000000000000000000000000000 PUSH1 0x20 DUP3 ADD MSTORE POP JUMP JUMPDEST PUSH2 0x157F DUP2 PUSH2 0x1387 JUMP JUMPDEST DUP2 EQ PUSH2 0x158A JUMPI PUSH1 0x0 DUP1 REVERT JUMPDEST POP JUMP JUMPDEST PUSH2 0x1596 DUP2 PUSH2 0x1391 JUMP JUMPDEST DUP2 EQ PUSH2 0x15A1 JUMPI PUSH1 0x0 DUP1 REVERT JUMPDEST POP JUMP JUMPDEST PUSH2 0x15AD DUP2 PUSH2 0x13C3 JUMP JUMPDEST DUP2 EQ PUSH2 0x15B8 JUMPI PUSH1 0x0 DUP1 REVERT JUMPDEST POP JUMP INVALID LOG2 PUSH5 0x6970667358 0x22 SLT KECCAK256 DUP14 0xA7 DUP8 PUSH16 0x5E8B178822791CD9EE10D351A44457EB PUSH15 0xCA6D39320BD22F3DCA7DF464736F6C PUSH4 0x43000803 STOP CALLER "
    },
    "gasEstimates": {
      "creation": {
        "codeDepositCost": "1123400",
        "executionCost": "22033",
        "totalCost": "1145433"
      },
      "external": {
        "MergeBytes(bytes,bytes)": "infinite",
        "addInsurance(address)": "infinite",
        "destructContract()": "31844",
        "getAddressOfInsurance(bytes32)": "1588",
        "getAllHotelsIds()": "infinite",
        "getAllInsurances()": "infinite",
        "getHotelInsurancesData(bytes32)": "infinite",
        "getInsuranceData(bytes32)": "infinite"
      }
    },
    "methodIdentifiers": {
      "MergeBytes(bytes,bytes)": "d1f6d4c5",
      "addInsurance(address)": "dba2812a",
      "destructContract()": "9499e018",
      "getAddressOfInsurance(bytes32)": "37922b0c",
      "getAllHotelsIds()": "92806a04",
      "getAllInsurances()": "11165ee7",
      "getHotelInsurancesData(bytes32)": "a15b6516",
      "getInsuranceData(bytes32)": "4cb74b19"
    }
  },
  "storageLayout": {
    "storage": [
      {
        "astId": 1819,
        "contract": "Spc19.sol:Spc19",
        "label": "owner",
        "offset": 0,
        "slot": "0",
        "type": "t_address_payable"
      },
      {
        "astId": 1823,
        "contract": "Spc19.sol:Spc19",
        "label": "InsuranceLocation",
        "offset": 0,
        "slot": "1",
        "type": "t_mapping(t_bytes32,t_uint256)"
      },
      {
        "astId": 1829,
        "contract": "Spc19.sol:Spc19",
        "label": "hotelInsurances",
        "offset": 0,
        "slot": "2",
        "type": "t_mapping(t_bytes32,t_array(t_contract(Insurance)1568)dyn_storage)"
      },
      {
        "astId": 1833,
        "contract": "Spc19.sol:Spc19",
        "label": "hotelHasInsurances",
        "offset": 0,
        "slot": "3",
        "type": "t_mapping(t_bytes32,t_bool)"
      },
      {
        "astId": 1837,
        "contract": "Spc19.sol:Spc19",
        "label": "idInsuranceToHotel",
        "offset": 0,
        "slot": "4",
        "type": "t_mapping(t_bytes32,t_bytes32)"
      },
      {
        "astId": 1841,
        "contract": "Spc19.sol:Spc19",
        "label": "idInsuranceToAddress",
        "offset": 0,
        "slot": "5",
        "type": "t_mapping(t_bytes32,t_address)"
      },
      {
        "astId": 1844,
        "contract": "Spc19.sol:Spc19",
        "label": "hotels",
        "offset": 0,
        "slot": "6",
        "type": "t_array(t_bytes32)dyn_storage"
      }
    ],
    "types": {
      "t_address": {
        "encoding": "inplace",
        "label": "address",
        "numberOfBytes": "20"
      },
      "t_address_payable": {
        "encoding": "inplace",
        "label": "address payable",
        "numberOfBytes": "20"
      },
      "t_array(t_bytes32)dyn_storage": {
        "base": "t_bytes32",
        "encoding": "dynamic_array",
        "label": "bytes32[]",
        "numberOfBytes": "32"
      },
      "t_array(t_contract(Insurance)1568)dyn_storage": {
        "base": "t_contract(Insurance)1568",
        "encoding": "dynamic_array",
        "label": "contract Insurance[]",
        "numberOfBytes": "32"
      },
      "t_bool": {
        "encoding": "inplace",
        "label": "bool",
        "numberOfBytes": "1"
      },
      "t_bytes32": {
        "encoding": "inplace",
        "label": "bytes32",
        "numberOfBytes": "32"
      },
      "t_contract(Insurance)1568": {
        "encoding": "inplace",
        "label": "contract Insurance",
        "numberOfBytes": "20"
      },
      "t_mapping(t_bytes32,t_address)": {
        "encoding": "mapping",
        "key": "t_bytes32",
        "label": "mapping(bytes32 => address)",
        "numberOfBytes": "32",
        "value": "t_address"
      },
      "t_mapping(t_bytes32,t_array(t_contract(Insurance)1568)dyn_storage)": {
        "encoding": "mapping",
        "key": "t_bytes32",
        "label": "mapping(bytes32 => contract Insurance[])",
        "numberOfBytes": "32",
        "value": "t_array(t_contract(Insurance)1568)dyn_storage"
      },
      "t_mapping(t_bytes32,t_bool)": {
        "encoding": "mapping",
        "key": "t_bytes32",
        "label": "mapping(bytes32 => bool)",
        "numberOfBytes": "32",
        "value": "t_bool"
      },
      "t_mapping(t_bytes32,t_bytes32)": {
        "encoding": "mapping",
        "key": "t_bytes32",
        "label": "mapping(bytes32 => bytes32)",
        "numberOfBytes": "32",
        "value": "t_bytes32"
      },
      "t_mapping(t_bytes32,t_uint256)": {
        "encoding": "mapping",
        "key": "t_bytes32",
        "label": "mapping(bytes32 => uint256)",
        "numberOfBytes": "32",
        "value": "t_uint256"
      },
      "t_uint256": {
        "encoding": "inplace",
        "label": "uint256",
        "numberOfBytes": "32"
      }
    }
  },
  "userdoc": {
    "kind": "user",
    "methods": {
      "MergeBytes(bytes,bytes)": {
        "notice": "Concatenate two array of bytes using the assembly of solidity."
      },
      "addInsurance(address)": {
        "notice": "Adds a new insurance to the hotel which is the taker of it."
      },
      "destructContract()": {
        "notice": "Delete the contract of the blockchain."
      },
      "getAddressOfInsurance(bytes32)": {
        "notice": "Return the address of the specific insurance."
      },
      "getAllHotelsIds()": {
        "notice": "Returns all hotel ids which have at least 1 insurance in this contract."
      },
      "getAllInsurances()": {
        "notice": "Get the information of all the insurances that the Contract have had."
      },
      "getHotelInsurancesData(bytes32)": {
        "notice": "Get the information of all the insurances that an hotel have had."
      },
      "getInsuranceData(bytes32)": {
        "notice": "Get the information of the insurance selected by argument."
      }
    },
    "version": 1
  }
}