{
  "abi": [
    {
      "inputs": [],
      "stateMutability": "nonpayable",
      "type": "constructor"
    },
    {
      "inputs": [
        {
          "internalType": "bytes",
          "name": "a",
          "type": "bytes"
        },
        {
          "internalType": "bytes",
          "name": "b",
          "type": "bytes"
        }
      ],
      "name": "MergeBytes",
      "outputs": [
        {
          "internalType": "bytes",
          "name": "c",
          "type": "bytes"
        }
      ],
      "stateMutability": "pure",
      "type": "function"
    },
    {
      "inputs": [
        {
          "internalType": "contract Insurance",
          "name": "_newInsurance",
          "type": "address"
        }
      ],
      "name": "addInsurance",
      "outputs": [],
      "stateMutability": "nonpayable",
      "type": "function"
    },
    {
      "inputs": [],
      "name": "destructContract",
      "outputs": [],
      "stateMutability": "nonpayable",
      "type": "function"
    },
    {
      "inputs": [
        {
          "internalType": "bytes32",
          "name": "_insuranceId",
          "type": "bytes32"
        }
      ],
      "name": "getAddressOfInsurance",
      "outputs": [
        {
          "internalType": "address",
          "name": "insuranceAddress",
          "type": "address"
        }
      ],
      "stateMutability": "view",
      "type": "function"
    },
    {
      "inputs": [],
      "name": "getAllHotelsIds",
      "outputs": [
        {
          "internalType": "bytes32[]",
          "name": "_hotels",
          "type": "bytes32[]"
        }
      ],
      "stateMutability": "view",
      "type": "function"
    },
    {
      "inputs": [],
      "name": "getAllInsurances",
      "outputs": [
        {
          "internalType": "bytes",
          "name": "_insurancesData",
          "type": "bytes"
        }
      ],
      "stateMutability": "view",
      "type": "function"
    },
    {
      "inputs": [
        {
          "internalType": "bytes32",
          "name": "_hotelId",
          "type": "bytes32"
        }
      ],
      "name": "getHotelInsurancesData",
      "outputs": [
        {
          "internalType": "bytes",
          "name": "_insurances",
          "type": "bytes"
        }
      ],
      "stateMutability": "view",
      "type": "function"
    },
    {
      "inputs": [
        {
          "internalType": "bytes32",
          "name": "_InsuranceId",
          "type": "bytes32"
        }
      ],
      "name": "getInsuranceData",
      "outputs": [
        {
          "internalType": "bytes",
          "name": "_insuranceData",
          "type": "bytes"
        },
        {
          "internalType": "uint256",
          "name": "_size",
          "type": "uint256"
        }
      ],
      "stateMutability": "view",
      "type": "function"
    }
  ],
  "devdoc": {
    "author": "Eduardo Suarez Ojeda",
    "details": "The Contract that controls all the Insurances created in the node and groups them by hotel.",
    "kind": "dev",
    "methods": {
      "MergeBytes(bytes,bytes)": {
        "details": "Returns the array result of the concatenation."
      },
      "addInsurance(address)": {
        "details": "Modify the mappings that link hotels and insurances."
      },
      "destructContract()": {
        "details": "Only use in extreme situations."
      },
      "getAddressOfInsurance(bytes32)": {
        "details": "Useful to call insurance method in that address if needed."
      },
      "getAllInsurances()": {
        "details": "Returns a serialized array of bytes with the content of all insurances."
      },
      "getHotelInsurancesData(bytes32)": {
        "details": "Returns a serialized array of bytes with the content of all insurances."
      }
    },
    "title": "Spcr19",
    "version": 1
  },
  "evm": {
    "assembly": "    /* \"Spc19.sol\":209:5007  contract Spc19 {... */\n  mstore(0x40, 0x80)\n    /* \"Spc19.sol\":595:653  constructor() {... */\n  callvalue\n  dup1\n  iszero\n  tag_1\n  jumpi\n  0x00\n  dup1\n  revert\ntag_1:\n  pop\n    /* \"Spc19.sol\":635:645  msg.sender */\n  caller\n    /* \"Spc19.sol\":619:624  owner */\n  0x00\n  dup1\n    /* \"Spc19.sol\":619:646  owner = payable(msg.sender) */\n  0x0100\n  exp\n  dup2\n  sload\n  dup2\n  0xffffffffffffffffffffffffffffffffffffffff\n  mul\n  not\n  and\n  swap1\n  dup4\n  0xffffffffffffffffffffffffffffffffffffffff\n  and\n  mul\n  or\n  swap1\n  sstore\n  pop\n    /* \"Spc19.sol\":209:5007  contract Spc19 {... */\n  dataSize(sub_0)\n  dup1\n  dataOffset(sub_0)\n  0x00\n  codecopy\n  0x00\n  return\nstop\n\nsub_0: assembly {\n        /* \"Spc19.sol\":209:5007  contract Spc19 {... */\n      mstore(0x40, 0x80)\n      callvalue\n      dup1\n      iszero\n      tag_1\n      jumpi\n      0x00\n      dup1\n      revert\n    tag_1:\n      pop\n      jumpi(tag_2, lt(calldatasize, 0x04))\n      shr(0xe0, calldataload(0x00))\n      dup1\n      0x9499e018\n      gt\n      tag_11\n      jumpi\n      dup1\n      0x9499e018\n      eq\n      tag_7\n      jumpi\n      dup1\n      0xa15b6516\n      eq\n      tag_8\n      jumpi\n      dup1\n      0xd1f6d4c5\n      eq\n      tag_9\n      jumpi\n      dup1\n      0xdba2812a\n      eq\n      tag_10\n      jumpi\n      jump(tag_2)\n    tag_11:\n      dup1\n      0x11165ee7\n      eq\n      tag_3\n      jumpi\n      dup1\n      0x37922b0c\n      eq\n      tag_4\n      jumpi\n      dup1\n      0x4cb74b19\n      eq\n      tag_5\n      jumpi\n      dup1\n      0x92806a04\n      eq\n      tag_6\n      jumpi\n    tag_2:\n      0x00\n      dup1\n      revert\n        /* \"Spc19.sol\":4144:4386  function getAllInsurances() external view returns(bytes memory _insurancesData) {... */\n    tag_3:\n      tag_12\n      tag_13\n      jump\t// in\n    tag_12:\n      mload(0x40)\n      tag_14\n      swap2\n      swap1\n      tag_15\n      jump\t// in\n    tag_14:\n      mload(0x40)\n      dup1\n      swap2\n      sub\n      swap1\n      return\n        /* \"Spc19.sol\":4526:4788  function getAddressOfInsurance(bytes32 _insuranceId) external view returns(address insuranceAddress) {... */\n    tag_4:\n      tag_16\n      0x04\n      dup1\n      calldatasize\n      sub\n      dup2\n      add\n      swap1\n      tag_17\n      swap2\n      swap1\n      tag_18\n      jump\t// in\n    tag_17:\n      tag_19\n      jump\t// in\n    tag_16:\n      mload(0x40)\n      tag_20\n      swap2\n      swap1\n      tag_21\n      jump\t// in\n    tag_20:\n      mload(0x40)\n      dup1\n      swap2\n      sub\n      swap1\n      return\n        /* \"Spc19.sol\":3450:3767  function getInsuranceData(bytes32 _InsuranceId) public view returns(... */\n    tag_5:\n      tag_22\n      0x04\n      dup1\n      calldatasize\n      sub\n      dup2\n      add\n      swap1\n      tag_23\n      swap2\n      swap1\n      tag_18\n      jump\t// in\n    tag_23:\n      tag_24\n      jump\t// in\n    tag_22:\n      mload(0x40)\n      tag_25\n      swap3\n      swap2\n      swap1\n      tag_26\n      jump\t// in\n    tag_25:\n      mload(0x40)\n      dup1\n      swap2\n      sub\n      swap1\n      return\n        /* \"Spc19.sol\":3861:3967  function getAllHotelsIds() public view returns(bytes32[] memory _hotels) {... */\n    tag_6:\n      tag_27\n      tag_28\n      jump\t// in\n    tag_27:\n      mload(0x40)\n      tag_29\n      swap2\n      swap1\n      tag_30\n      jump\t// in\n    tag_29:\n      mload(0x40)\n      dup1\n      swap2\n      sub\n      swap1\n      return\n        /* \"Spc19.sol\":4894:5005  function destructContract() external {... */\n    tag_7:\n      tag_31\n      tag_32\n      jump\t// in\n    tag_31:\n      stop\n        /* \"Spc19.sol\":2988:3369  function getHotelInsurancesData(bytes32 _hotelId) public view returns(... */\n    tag_8:\n      tag_33\n      0x04\n      dup1\n      calldatasize\n      sub\n      dup2\n      add\n      swap1\n      tag_34\n      swap2\n      swap1\n      tag_18\n      jump\t// in\n    tag_34:\n      tag_35\n      jump\t// in\n    tag_33:\n      mload(0x40)\n      tag_36\n      swap2\n      swap1\n      tag_15\n      jump\t// in\n    tag_36:\n      mload(0x40)\n      dup1\n      swap2\n      sub\n      swap1\n      return\n        /* \"Spc19.sol\":798:1912  function MergeBytes(bytes memory a, bytes memory b) public pure returns (bytes memory c) {... */\n    tag_9:\n      tag_37\n      0x04\n      dup1\n      calldatasize\n      sub\n      dup2\n      add\n      swap1\n      tag_38\n      swap2\n      swap1\n      tag_39\n      jump\t// in\n    tag_38:\n      tag_40\n      jump\t// in\n    tag_37:\n      mload(0x40)\n      tag_41\n      swap2\n      swap1\n      tag_15\n      jump\t// in\n    tag_41:\n      mload(0x40)\n      dup1\n      swap2\n      sub\n      swap1\n      return\n        /* \"Spc19.sol\":2060:2815  function addInsurance(Insurance _newInsurance) external {... */\n    tag_10:\n      tag_42\n      0x04\n      dup1\n      calldatasize\n      sub\n      dup2\n      add\n      swap1\n      tag_43\n      swap2\n      swap1\n      tag_44\n      jump\t// in\n    tag_43:\n      tag_45\n      jump\t// in\n    tag_42:\n      stop\n        /* \"Spc19.sol\":4144:4386  function getAllInsurances() external view returns(bytes memory _insurancesData) {... */\n    tag_13:\n        /* \"Spc19.sol\":4194:4222  bytes memory _insurancesData */\n      0x60\n        /* \"Spc19.sol\":4239:4245  uint i */\n      0x00\n        /* \"Spc19.sol\":4234:4380  for (uint i = 0; i < hotels.length; i++) {... */\n    tag_47:\n        /* \"Spc19.sol\":4255:4261  hotels */\n      0x06\n        /* \"Spc19.sol\":4255:4268  hotels.length */\n      dup1\n      sload\n      swap1\n      pop\n        /* \"Spc19.sol\":4251:4252  i */\n      dup2\n        /* \"Spc19.sol\":4251:4268  i < hotels.length */\n      lt\n        /* \"Spc19.sol\":4234:4380  for (uint i = 0; i < hotels.length; i++) {... */\n      iszero\n      tag_48\n      jumpi\n        /* \"Spc19.sol\":4307:4369  MergeBytes(_insurancesData, getHotelInsurancesData(hotels[i])) */\n      tag_50\n        /* \"Spc19.sol\":4318:4333  _insurancesData */\n      dup3\n        /* \"Spc19.sol\":4335:4368  getHotelInsurancesData(hotels[i]) */\n      tag_51\n        /* \"Spc19.sol\":4358:4364  hotels */\n      0x06\n        /* \"Spc19.sol\":4365:4366  i */\n      dup5\n        /* \"Spc19.sol\":4358:4367  hotels[i] */\n      dup2\n      sload\n      dup2\n      lt\n      tag_52\n      jumpi\n      mstore(0x00, 0x4e487b7100000000000000000000000000000000000000000000000000000000)\n      mstore(0x04, 0x32)\n      revert(0x00, 0x24)\n    tag_52:\n      swap1\n      0x00\n      mstore\n      keccak256(0x00, 0x20)\n      add\n      sload\n        /* \"Spc19.sol\":4335:4357  getHotelInsurancesData */\n      tag_35\n        /* \"Spc19.sol\":4335:4368  getHotelInsurancesData(hotels[i]) */\n      jump\t// in\n    tag_51:\n        /* \"Spc19.sol\":4307:4317  MergeBytes */\n      tag_40\n        /* \"Spc19.sol\":4307:4369  MergeBytes(_insurancesData, getHotelInsurancesData(hotels[i])) */\n      jump\t// in\n    tag_50:\n        /* \"Spc19.sol\":4289:4369  _insurancesData = MergeBytes(_insurancesData, getHotelInsurancesData(hotels[i])) */\n      swap2\n      pop\n        /* \"Spc19.sol\":4270:4273  i++ */\n      dup1\n      dup1\n      tag_54\n      swap1\n      tag_55\n      jump\t// in\n    tag_54:\n      swap2\n      pop\n      pop\n        /* \"Spc19.sol\":4234:4380  for (uint i = 0; i < hotels.length; i++) {... */\n      jump(tag_47)\n    tag_48:\n      pop\n        /* \"Spc19.sol\":4144:4386  function getAllInsurances() external view returns(bytes memory _insurancesData) {... */\n      swap1\n      jump\t// out\n        /* \"Spc19.sol\":4526:4788  function getAddressOfInsurance(bytes32 _insuranceId) external view returns(address insuranceAddress) {... */\n    tag_19:\n        /* \"Spc19.sol\":4601:4625  address insuranceAddress */\n      0x00\n        /* \"Spc19.sol\":4691:4692  0 */\n      dup1\n        /* \"Spc19.sol\":4645:4693  idInsuranceToAddress[_insuranceId] != address(0) */\n      0xffffffffffffffffffffffffffffffffffffffff\n      and\n        /* \"Spc19.sol\":4645:4665  idInsuranceToAddress */\n      0x05\n        /* \"Spc19.sol\":4645:4679  idInsuranceToAddress[_insuranceId] */\n      0x00\n        /* \"Spc19.sol\":4666:4678  _insuranceId */\n      dup5\n        /* \"Spc19.sol\":4645:4679  idInsuranceToAddress[_insuranceId] */\n      dup2\n      mstore\n      0x20\n      add\n      swap1\n      dup2\n      mstore\n      0x20\n      add\n      0x00\n      keccak256\n      0x00\n      swap1\n      sload\n      swap1\n      0x0100\n      exp\n      swap1\n      div\n      0xffffffffffffffffffffffffffffffffffffffff\n      and\n        /* \"Spc19.sol\":4645:4693  idInsuranceToAddress[_insuranceId] != address(0) */\n      0xffffffffffffffffffffffffffffffffffffffff\n      and\n      eq\n      iszero\n        /* \"Spc19.sol\":4637:4730  require(idInsuranceToAddress[_insuranceId] != address(0), \"No existe una poliza con esa id.\") */\n      tag_57\n      jumpi\n      mload(0x40)\n      0x08c379a000000000000000000000000000000000000000000000000000000000\n      dup2\n      mstore\n      0x04\n      add\n      tag_58\n      swap1\n      tag_59\n      jump\t// in\n    tag_58:\n      mload(0x40)\n      dup1\n      swap2\n      sub\n      swap1\n      revert\n    tag_57:\n        /* \"Spc19.sol\":4747:4767  idInsuranceToAddress */\n      0x05\n        /* \"Spc19.sol\":4747:4781  idInsuranceToAddress[_insuranceId] */\n      0x00\n        /* \"Spc19.sol\":4768:4780  _insuranceId */\n      dup4\n        /* \"Spc19.sol\":4747:4781  idInsuranceToAddress[_insuranceId] */\n      dup2\n      mstore\n      0x20\n      add\n      swap1\n      dup2\n      mstore\n      0x20\n      add\n      0x00\n      keccak256\n      0x00\n      swap1\n      sload\n      swap1\n      0x0100\n      exp\n      swap1\n      div\n      0xffffffffffffffffffffffffffffffffffffffff\n      and\n        /* \"Spc19.sol\":4740:4781  return idInsuranceToAddress[_insuranceId] */\n      swap1\n      pop\n        /* \"Spc19.sol\":4526:4788  function getAddressOfInsurance(bytes32 _insuranceId) external view returns(address insuranceAddress) {... */\n      swap2\n      swap1\n      pop\n      jump\t// out\n        /* \"Spc19.sol\":3450:3767  function getInsuranceData(bytes32 _InsuranceId) public view returns(... */\n    tag_24:\n        /* \"Spc19.sol\":3527:3554  bytes memory _insuranceData */\n      0x60\n        /* \"Spc19.sol\":3564:3577  uint256 _size */\n      0x00\n        /* \"Spc19.sol\":3638:3639  0 */\n      dup1\n        /* \"Spc19.sol\":3602:3639  idInsuranceToHotel[_InsuranceId] != 0 */\n      0x00\n      shl\n        /* \"Spc19.sol\":3602:3620  idInsuranceToHotel */\n      0x04\n        /* \"Spc19.sol\":3602:3634  idInsuranceToHotel[_InsuranceId] */\n      0x00\n        /* \"Spc19.sol\":3621:3633  _InsuranceId */\n      dup6\n        /* \"Spc19.sol\":3602:3634  idInsuranceToHotel[_InsuranceId] */\n      dup2\n      mstore\n      0x20\n      add\n      swap1\n      dup2\n      mstore\n      0x20\n      add\n      0x00\n      keccak256\n      sload\n        /* \"Spc19.sol\":3602:3639  idInsuranceToHotel[_InsuranceId] != 0 */\n      eq\n      iszero\n        /* \"Spc19.sol\":3594:3640  require(idInsuranceToHotel[_InsuranceId] != 0) */\n      tag_61\n      jumpi\n      0x00\n      dup1\n      revert\n    tag_61:\n        /* \"Spc19.sol\":3657:3672  hotelInsurances */\n      0x02\n        /* \"Spc19.sol\":3657:3706  hotelInsurances[idInsuranceToHotel[_InsuranceId]] */\n      0x00\n        /* \"Spc19.sol\":3673:3691  idInsuranceToHotel */\n      0x04\n        /* \"Spc19.sol\":3673:3705  idInsuranceToHotel[_InsuranceId] */\n      0x00\n        /* \"Spc19.sol\":3692:3704  _InsuranceId */\n      dup7\n        /* \"Spc19.sol\":3673:3705  idInsuranceToHotel[_InsuranceId] */\n      dup2\n      mstore\n      0x20\n      add\n      swap1\n      dup2\n      mstore\n      0x20\n      add\n      0x00\n      keccak256\n      sload\n        /* \"Spc19.sol\":3657:3706  hotelInsurances[idInsuranceToHotel[_InsuranceId]] */\n      dup2\n      mstore\n      0x20\n      add\n      swap1\n      dup2\n      mstore\n      0x20\n      add\n      0x00\n      keccak256\n        /* \"Spc19.sol\":3707:3724  InsuranceLocation */\n      0x01\n        /* \"Spc19.sol\":3707:3738  InsuranceLocation[_InsuranceId] */\n      0x00\n        /* \"Spc19.sol\":3725:3737  _InsuranceId */\n      dup6\n        /* \"Spc19.sol\":3707:3738  InsuranceLocation[_InsuranceId] */\n      dup2\n      mstore\n      0x20\n      add\n      swap1\n      dup2\n      mstore\n      0x20\n      add\n      0x00\n      keccak256\n      sload\n        /* \"Spc19.sol\":3657:3739  hotelInsurances[idInsuranceToHotel[_InsuranceId]][InsuranceLocation[_InsuranceId]] */\n      dup2\n      sload\n      dup2\n      lt\n      tag_62\n      jumpi\n      mstore(0x00, 0x4e487b7100000000000000000000000000000000000000000000000000000000)\n      mstore(0x04, 0x32)\n      revert(0x00, 0x24)\n    tag_62:\n      swap1\n      0x00\n      mstore\n      keccak256(0x00, 0x20)\n      add\n      0x00\n      swap1\n      sload\n      swap1\n      0x0100\n      exp\n      swap1\n      div\n      0xffffffffffffffffffffffffffffffffffffffff\n      and\n        /* \"Spc19.sol\":3657:3758  hotelInsurances[idInsuranceToHotel[_InsuranceId]][InsuranceLocation[_InsuranceId]].serializeInsurance */\n      0xffffffffffffffffffffffffffffffffffffffff\n      and\n      0x236f45d9\n        /* \"Spc19.sol\":3657:3760  hotelInsurances[idInsuranceToHotel[_InsuranceId]][InsuranceLocation[_InsuranceId]].serializeInsurance() */\n      mload(0x40)\n      dup2\n      0xffffffff\n      and\n      0xe0\n      shl\n      dup2\n      mstore\n      0x04\n      add\n      0x00\n      mload(0x40)\n      dup1\n      dup4\n      sub\n      dup2\n      dup7\n      dup1\n      extcodesize\n      iszero\n      dup1\n      iszero\n      tag_64\n      jumpi\n      0x00\n      dup1\n      revert\n    tag_64:\n      pop\n      gas\n      staticcall\n      iszero\n      dup1\n      iszero\n      tag_66\n      jumpi\n      returndatasize\n      0x00\n      dup1\n      returndatacopy\n      revert(0x00, returndatasize)\n    tag_66:\n      pop\n      pop\n      pop\n      pop\n      mload(0x40)\n      returndatasize\n      0x00\n      dup3\n      returndatacopy\n      returndatasize\n      not(0x1f)\n      0x1f\n      dup3\n      add\n      and\n      dup3\n      add\n      dup1\n      0x40\n      mstore\n      pop\n      dup2\n      add\n      swap1\n      tag_67\n      swap2\n      swap1\n      tag_68\n      jump\t// in\n    tag_67:\n        /* \"Spc19.sol\":3650:3760  return hotelInsurances[idInsuranceToHotel[_InsuranceId]][InsuranceLocation[_InsuranceId]].serializeInsurance() */\n      swap2\n      pop\n      swap2\n      pop\n        /* \"Spc19.sol\":3450:3767  function getInsuranceData(bytes32 _InsuranceId) public view returns(... */\n      swap2\n      pop\n      swap2\n      jump\t// out\n        /* \"Spc19.sol\":3861:3967  function getAllHotelsIds() public view returns(bytes32[] memory _hotels) {... */\n    tag_28:\n        /* \"Spc19.sol\":3908:3932  bytes32[] memory _hotels */\n      0x60\n        /* \"Spc19.sol\":3954:3960  hotels */\n      0x06\n        /* \"Spc19.sol\":3944:3960  _hotels = hotels */\n      dup1\n      sload\n      dup1\n      0x20\n      mul\n      0x20\n      add\n      mload(0x40)\n      swap1\n      dup2\n      add\n      0x40\n      mstore\n      dup1\n      swap3\n      swap2\n      swap1\n      dup2\n      dup2\n      mstore\n      0x20\n      add\n      dup3\n      dup1\n      sload\n      dup1\n      iszero\n      tag_70\n      jumpi\n      0x20\n      mul\n      dup3\n      add\n      swap2\n      swap1\n      0x00\n      mstore\n      keccak256(0x00, 0x20)\n      swap1\n    tag_71:\n      dup2\n      sload\n      dup2\n      mstore\n      0x20\n      add\n      swap1\n      0x01\n      add\n      swap1\n      dup1\n      dup4\n      gt\n      tag_71\n      jumpi\n    tag_70:\n      pop\n      pop\n      pop\n      pop\n      pop\n      swap1\n      pop\n        /* \"Spc19.sol\":3861:3967  function getAllHotelsIds() public view returns(bytes32[] memory _hotels) {... */\n      swap1\n      jump\t// out\n        /* \"Spc19.sol\":4894:5005  function destructContract() external {... */\n    tag_32:\n        /* \"Spc19.sol\":4963:4968  owner */\n      0x00\n      dup1\n      sload\n      swap1\n      0x0100\n      exp\n      swap1\n      div\n      0xffffffffffffffffffffffffffffffffffffffff\n      and\n        /* \"Spc19.sol\":4949:4968  msg.sender == owner */\n      0xffffffffffffffffffffffffffffffffffffffff\n      and\n        /* \"Spc19.sol\":4949:4959  msg.sender */\n      caller\n        /* \"Spc19.sol\":4949:4968  msg.sender == owner */\n      0xffffffffffffffffffffffffffffffffffffffff\n      and\n      eq\n        /* \"Spc19.sol\":4941:4969  require(msg.sender == owner) */\n      tag_73\n      jumpi\n      0x00\n      dup1\n      revert\n    tag_73:\n        /* \"Spc19.sol\":4992:4997  owner */\n      0x00\n      dup1\n      sload\n      swap1\n      0x0100\n      exp\n      swap1\n      div\n      0xffffffffffffffffffffffffffffffffffffffff\n      and\n        /* \"Spc19.sol\":4979:4998  selfdestruct(owner) */\n      0xffffffffffffffffffffffffffffffffffffffff\n      and\n      selfdestruct\n        /* \"Spc19.sol\":2988:3369  function getHotelInsurancesData(bytes32 _hotelId) public view returns(... */\n    tag_35:\n        /* \"Spc19.sol\":3067:3091  bytes memory _insurances */\n      0x60\n        /* \"Spc19.sol\":3108:3134  bytes memory insuranceData */\n      dup1\n        /* \"Spc19.sol\":3149:3155  uint i */\n      0x00\n        /* \"Spc19.sol\":3144:3363  for (uint i = 0; i < hotelInsurances[_hotelId].length; i++) {... */\n    tag_75:\n        /* \"Spc19.sol\":3165:3180  hotelInsurances */\n      0x02\n        /* \"Spc19.sol\":3165:3190  hotelInsurances[_hotelId] */\n      0x00\n        /* \"Spc19.sol\":3181:3189  _hotelId */\n      dup6\n        /* \"Spc19.sol\":3165:3190  hotelInsurances[_hotelId] */\n      dup2\n      mstore\n      0x20\n      add\n      swap1\n      dup2\n      mstore\n      0x20\n      add\n      0x00\n      keccak256\n        /* \"Spc19.sol\":3165:3197  hotelInsurances[_hotelId].length */\n      dup1\n      sload\n      swap1\n      pop\n        /* \"Spc19.sol\":3161:3162  i */\n      dup2\n        /* \"Spc19.sol\":3161:3197  i < hotelInsurances[_hotelId].length */\n      lt\n        /* \"Spc19.sol\":3144:3363  for (uint i = 0; i < hotelInsurances[_hotelId].length; i++) {... */\n      iszero\n      tag_76\n      jumpi\n        /* \"Spc19.sol\":3237:3252  hotelInsurances */\n      0x02\n        /* \"Spc19.sol\":3237:3262  hotelInsurances[_hotelId] */\n      0x00\n        /* \"Spc19.sol\":3253:3261  _hotelId */\n      dup6\n        /* \"Spc19.sol\":3237:3262  hotelInsurances[_hotelId] */\n      dup2\n      mstore\n      0x20\n      add\n      swap1\n      dup2\n      mstore\n      0x20\n      add\n      0x00\n      keccak256\n        /* \"Spc19.sol\":3263:3264  i */\n      dup2\n        /* \"Spc19.sol\":3237:3265  hotelInsurances[_hotelId][i] */\n      dup2\n      sload\n      dup2\n      lt\n      tag_78\n      jumpi\n      mstore(0x00, 0x4e487b7100000000000000000000000000000000000000000000000000000000)\n      mstore(0x04, 0x32)\n      revert(0x00, 0x24)\n    tag_78:\n      swap1\n      0x00\n      mstore\n      keccak256(0x00, 0x20)\n      add\n      0x00\n      swap1\n      sload\n      swap1\n      0x0100\n      exp\n      swap1\n      div\n      0xffffffffffffffffffffffffffffffffffffffff\n      and\n        /* \"Spc19.sol\":3237:3284  hotelInsurances[_hotelId][i].serializeInsurance */\n      0xffffffffffffffffffffffffffffffffffffffff\n      and\n      0x236f45d9\n        /* \"Spc19.sol\":3237:3286  hotelInsurances[_hotelId][i].serializeInsurance() */\n      mload(0x40)\n      dup2\n      0xffffffff\n      and\n      0xe0\n      shl\n      dup2\n      mstore\n      0x04\n      add\n      0x00\n      mload(0x40)\n      dup1\n      dup4\n      sub\n      dup2\n      dup7\n      dup1\n      extcodesize\n      iszero\n      dup1\n      iszero\n      tag_80\n      jumpi\n      0x00\n      dup1\n      revert\n    tag_80:\n      pop\n      gas\n      staticcall\n      iszero\n      dup1\n      iszero\n      tag_82\n      jumpi\n      returndatasize\n      0x00\n      dup1\n      returndatacopy\n      revert(0x00, returndatasize)\n    tag_82:\n      pop\n      pop\n      pop\n      pop\n      mload(0x40)\n      returndatasize\n      0x00\n      dup3\n      returndatacopy\n      returndatasize\n      not(0x1f)\n      0x1f\n      dup3\n      add\n      and\n      dup3\n      add\n      dup1\n      0x40\n      mstore\n      pop\n      dup2\n      add\n      swap1\n      tag_83\n      swap2\n      swap1\n      tag_68\n      jump\t// in\n    tag_83:\n        /* \"Spc19.sol\":3218:3286  (insuranceData,) = hotelInsurances[_hotelId][i].serializeInsurance() */\n      pop\n      dup1\n      swap3\n      pop\n      pop\n        /* \"Spc19.sol\":3314:3352  MergeBytes(_insurances, insuranceData) */\n      tag_84\n        /* \"Spc19.sol\":3325:3336  _insurances */\n      dup4\n        /* \"Spc19.sol\":3338:3351  insuranceData */\n      dup4\n        /* \"Spc19.sol\":3314:3324  MergeBytes */\n      tag_40\n        /* \"Spc19.sol\":3314:3352  MergeBytes(_insurances, insuranceData) */\n      jump\t// in\n    tag_84:\n        /* \"Spc19.sol\":3300:3352  _insurances = MergeBytes(_insurances, insuranceData) */\n      swap3\n      pop\n        /* \"Spc19.sol\":3199:3202  i++ */\n      dup1\n      dup1\n      tag_85\n      swap1\n      tag_55\n      jump\t// in\n    tag_85:\n      swap2\n      pop\n      pop\n        /* \"Spc19.sol\":3144:3363  for (uint i = 0; i < hotelInsurances[_hotelId].length; i++) {... */\n      jump(tag_75)\n    tag_76:\n      pop\n        /* \"Spc19.sol\":2988:3369  function getHotelInsurancesData(bytes32 _hotelId) public view returns(... */\n      pop\n      swap2\n      swap1\n      pop\n      jump\t// out\n        /* \"Spc19.sol\":798:1912  function MergeBytes(bytes memory a, bytes memory b) public pure returns (bytes memory c) {... */\n    tag_40:\n        /* \"Spc19.sol\":871:885  bytes memory c */\n      0x60\n        /* \"Spc19.sol\":944:953  uint alen */\n      0x00\n        /* \"Spc19.sol\":956:957  a */\n      dup4\n        /* \"Spc19.sol\":956:964  a.length */\n      mload\n        /* \"Spc19.sol\":944:964  uint alen = a.length */\n      swap1\n      pop\n        /* \"Spc19.sol\":1017:1030  uint totallen */\n      0x00\n        /* \"Spc19.sol\":1040:1041  b */\n      dup4\n        /* \"Spc19.sol\":1040:1048  b.length */\n      mload\n        /* \"Spc19.sol\":1033:1037  alen */\n      dup3\n        /* \"Spc19.sol\":1033:1048  alen + b.length */\n      tag_87\n      swap2\n      swap1\n      tag_88\n      jump\t// in\n    tag_87:\n        /* \"Spc19.sol\":1017:1048  uint totallen = alen + b.length */\n      swap1\n      pop\n        /* \"Spc19.sol\":1125:1136  uint loopsa */\n      0x00\n        /* \"Spc19.sol\":1157:1159  32 */\n      0x20\n        /* \"Spc19.sol\":1151:1153  31 */\n      0x1f\n        /* \"Spc19.sol\":1140:1141  a */\n      dup8\n        /* \"Spc19.sol\":1140:1148  a.length */\n      mload\n        /* \"Spc19.sol\":1140:1153  a.length + 31 */\n      tag_89\n      swap2\n      swap1\n      tag_88\n      jump\t// in\n    tag_89:\n        /* \"Spc19.sol\":1139:1159  (a.length + 31) / 32 */\n      tag_90\n      swap2\n      swap1\n      tag_91\n      jump\t// in\n    tag_90:\n        /* \"Spc19.sol\":1125:1159  uint loopsa = (a.length + 31) / 32 */\n      swap1\n      pop\n        /* \"Spc19.sol\":1236:1247  uint loopsb */\n      0x00\n        /* \"Spc19.sol\":1268:1270  32 */\n      0x20\n        /* \"Spc19.sol\":1262:1264  31 */\n      0x1f\n        /* \"Spc19.sol\":1251:1252  b */\n      dup8\n        /* \"Spc19.sol\":1251:1259  b.length */\n      mload\n        /* \"Spc19.sol\":1251:1264  b.length + 31 */\n      tag_92\n      swap2\n      swap1\n      tag_88\n      jump\t// in\n    tag_92:\n        /* \"Spc19.sol\":1250:1270  (b.length + 31) / 32 */\n      tag_93\n      swap2\n      swap1\n      tag_91\n      jump\t// in\n    tag_93:\n        /* \"Spc19.sol\":1236:1270  uint loopsb = (b.length + 31) / 32 */\n      swap1\n      pop\n        /* \"Spc19.sol\":1318:1322  0x40 */\n      0x40\n        /* \"Spc19.sol\":1312:1323  mload(0x40) */\n      mload\n        /* \"Spc19.sol\":1427:1435  totallen */\n      dup4\n        /* \"Spc19.sol\":1424:1425  m */\n      dup2\n        /* \"Spc19.sol\":1417:1436  mstore(m, totallen) */\n      mstore\n        /* \"Spc19.sol\":1515:1516  0 */\n      0x00\n        /* \"Spc19.sol\":1499:1625  for {  let i := 0 } lt(i, loopsa) { i := add(1, i) } { mstore(add(m, mul(32, add(1, i))), mload(add(a, mul(32, add(1, i))))) } */\n    tag_94:\n        /* \"Spc19.sol\":1525:1531  loopsa */\n      dup4\n        /* \"Spc19.sol\":1522:1523  i */\n      dup2\n        /* \"Spc19.sol\":1519:1532  lt(i, loopsa) */\n      lt\n        /* \"Spc19.sol\":1499:1625  for {  let i := 0 } lt(i, loopsa) { i := add(1, i) } { mstore(add(m, mul(32, add(1, i))), mload(add(a, mul(32, add(1, i))))) } */\n      iszero\n      tag_96\n      jumpi\n        /* \"Spc19.sol\":1617:1618  i */\n      dup1\n        /* \"Spc19.sol\":1614:1615  1 */\n      0x01\n        /* \"Spc19.sol\":1610:1619  add(1, i) */\n      add\n        /* \"Spc19.sol\":1606:1608  32 */\n      0x20\n        /* \"Spc19.sol\":1602:1620  mul(32, add(1, i)) */\n      mul\n        /* \"Spc19.sol\":1599:1600  a */\n      dup10\n        /* \"Spc19.sol\":1595:1621  add(a, mul(32, add(1, i))) */\n      add\n        /* \"Spc19.sol\":1589:1622  mload(add(a, mul(32, add(1, i)))) */\n      mload\n        /* \"Spc19.sol\":1583:1584  i */\n      dup2\n        /* \"Spc19.sol\":1580:1581  1 */\n      0x01\n        /* \"Spc19.sol\":1576:1585  add(1, i) */\n      add\n        /* \"Spc19.sol\":1572:1574  32 */\n      0x20\n        /* \"Spc19.sol\":1568:1586  mul(32, add(1, i)) */\n      mul\n        /* \"Spc19.sol\":1565:1566  m */\n      dup4\n        /* \"Spc19.sol\":1561:1587  add(m, mul(32, add(1, i))) */\n      add\n        /* \"Spc19.sol\":1554:1623  mstore(add(m, mul(32, add(1, i))), mload(add(a, mul(32, add(1, i))))) */\n      mstore\n        /* \"Spc19.sol\":1547:1548  i */\n      dup1\n        /* \"Spc19.sol\":1544:1545  1 */\n      0x01\n        /* \"Spc19.sol\":1540:1549  add(1, i) */\n      add\n        /* \"Spc19.sol\":1535:1549  i := add(1, i) */\n      swap1\n      pop\n        /* \"Spc19.sol\":1499:1625  for {  let i := 0 } lt(i, loopsa) { i := add(1, i) } { mstore(add(m, mul(32, add(1, i))), mload(add(a, mul(32, add(1, i))))) } */\n      jump(tag_94)\n    tag_96:\n        /* \"Spc19.sol\":1503:1518  {  let i := 0 } */\n      pop\n        /* \"Spc19.sol\":1704:1705  0 */\n      0x00\n        /* \"Spc19.sol\":1688:1825  for {  let i := 0 } lt(i, loopsb) { i := add(1, i) } { mstore(add(m, add(mul(32, add(1, i)), alen)), mload(add(b, mul(32, add(1, i))))) } */\n    tag_97:\n        /* \"Spc19.sol\":1714:1720  loopsb */\n      dup3\n        /* \"Spc19.sol\":1711:1712  i */\n      dup2\n        /* \"Spc19.sol\":1708:1721  lt(i, loopsb) */\n      lt\n        /* \"Spc19.sol\":1688:1825  for {  let i := 0 } lt(i, loopsb) { i := add(1, i) } { mstore(add(m, add(mul(32, add(1, i)), alen)), mload(add(b, mul(32, add(1, i))))) } */\n      iszero\n      tag_99\n      jumpi\n        /* \"Spc19.sol\":1817:1818  i */\n      dup1\n        /* \"Spc19.sol\":1814:1815  1 */\n      0x01\n        /* \"Spc19.sol\":1810:1819  add(1, i) */\n      add\n        /* \"Spc19.sol\":1806:1808  32 */\n      0x20\n        /* \"Spc19.sol\":1802:1820  mul(32, add(1, i)) */\n      mul\n        /* \"Spc19.sol\":1799:1800  b */\n      dup9\n        /* \"Spc19.sol\":1795:1821  add(b, mul(32, add(1, i))) */\n      add\n        /* \"Spc19.sol\":1789:1822  mload(add(b, mul(32, add(1, i)))) */\n      mload\n        /* \"Spc19.sol\":1781:1785  alen */\n      dup7\n        /* \"Spc19.sol\":1776:1777  i */\n      dup3\n        /* \"Spc19.sol\":1773:1774  1 */\n      0x01\n        /* \"Spc19.sol\":1769:1778  add(1, i) */\n      add\n        /* \"Spc19.sol\":1765:1767  32 */\n      0x20\n        /* \"Spc19.sol\":1761:1779  mul(32, add(1, i)) */\n      mul\n        /* \"Spc19.sol\":1757:1786  add(mul(32, add(1, i)), alen) */\n      add\n        /* \"Spc19.sol\":1754:1755  m */\n      dup4\n        /* \"Spc19.sol\":1750:1787  add(m, add(mul(32, add(1, i)), alen)) */\n      add\n        /* \"Spc19.sol\":1743:1823  mstore(add(m, add(mul(32, add(1, i)), alen)), mload(add(b, mul(32, add(1, i))))) */\n      mstore\n        /* \"Spc19.sol\":1736:1737  i */\n      dup1\n        /* \"Spc19.sol\":1733:1734  1 */\n      0x01\n        /* \"Spc19.sol\":1729:1738  add(1, i) */\n      add\n        /* \"Spc19.sol\":1724:1738  i := add(1, i) */\n      swap1\n      pop\n        /* \"Spc19.sol\":1688:1825  for {  let i := 0 } lt(i, loopsb) { i := add(1, i) } { mstore(add(m, add(mul(32, add(1, i)), alen)), mload(add(b, mul(32, add(1, i))))) } */\n      jump(tag_97)\n    tag_99:\n        /* \"Spc19.sol\":1692:1707  {  let i := 0 } */\n      pop\n        /* \"Spc19.sol\":1866:1874  totallen */\n      dup4\n        /* \"Spc19.sol\":1862:1864  32 */\n      0x20\n        /* \"Spc19.sol\":1858:1875  add(32, totallen) */\n      add\n        /* \"Spc19.sol\":1855:1856  m */\n      dup2\n        /* \"Spc19.sol\":1851:1876  add(m, add(32, totallen)) */\n      add\n        /* \"Spc19.sol\":1845:1849  0x40 */\n      0x40\n        /* \"Spc19.sol\":1838:1877  mstore(0x40, add(m, add(32, totallen))) */\n      mstore\n        /* \"Spc19.sol\":1895:1896  m */\n      dup1\n        /* \"Spc19.sol\":1890:1896  c := m */\n      swap6\n      pop\n        /* \"Spc19.sol\":1289:1906  {... */\n      pop\n      pop\n      pop\n      pop\n      pop\n      swap3\n      swap2\n      pop\n      pop\n      jump\t// out\n        /* \"Spc19.sol\":2060:2815  function addInsurance(Insurance _newInsurance) external {... */\n    tag_45:\n        /* \"Spc19.sol\":2126:2139  _newInsurance */\n      dup1\n        /* \"Spc19.sol\":2126:2153  _newInsurance.addSpcAddress */\n      0xffffffffffffffffffffffffffffffffffffffff\n      and\n      0x297e6306\n        /* \"Spc19.sol\":2162:2166  this */\n      address\n        /* \"Spc19.sol\":2126:2168  _newInsurance.addSpcAddress(address(this)) */\n      mload(0x40)\n      dup3\n      0xffffffff\n      and\n      0xe0\n      shl\n      dup2\n      mstore\n      0x04\n      add\n      tag_101\n      swap2\n      swap1\n      tag_21\n      jump\t// in\n    tag_101:\n      0x00\n      mload(0x40)\n      dup1\n      dup4\n      sub\n      dup2\n      0x00\n      dup8\n      dup1\n      extcodesize\n      iszero\n      dup1\n      iszero\n      tag_102\n      jumpi\n      0x00\n      dup1\n      revert\n    tag_102:\n      pop\n      gas\n      call\n      iszero\n      dup1\n      iszero\n      tag_104\n      jumpi\n      returndatasize\n      0x00\n      dup1\n      returndatacopy\n      revert(0x00, returndatasize)\n    tag_104:\n      pop\n      pop\n      pop\n      pop\n        /* \"Spc19.sol\":2231:2232  0 */\n      0x00\n        /* \"Spc19.sol\":2186:2232  idInsuranceToHotel[_newInsurance.getId()] == 0 */\n      dup1\n      shl\n        /* \"Spc19.sol\":2186:2204  idInsuranceToHotel */\n      0x04\n        /* \"Spc19.sol\":2186:2227  idInsuranceToHotel[_newInsurance.getId()] */\n      0x00\n        /* \"Spc19.sol\":2205:2218  _newInsurance */\n      dup4\n        /* \"Spc19.sol\":2205:2224  _newInsurance.getId */\n      0xffffffffffffffffffffffffffffffffffffffff\n      and\n      0x5d1ca631\n        /* \"Spc19.sol\":2205:2226  _newInsurance.getId() */\n      mload(0x40)\n      dup2\n      0xffffffff\n      and\n      0xe0\n      shl\n      dup2\n      mstore\n      0x04\n      add\n      0x20\n      mload(0x40)\n      dup1\n      dup4\n      sub\n      dup2\n      dup7\n      dup1\n      extcodesize\n      iszero\n      dup1\n      iszero\n      tag_105\n      jumpi\n      0x00\n      dup1\n      revert\n    tag_105:\n      pop\n      gas\n      staticcall\n      iszero\n      dup1\n      iszero\n      tag_107\n      jumpi\n      returndatasize\n      0x00\n      dup1\n      returndatacopy\n      revert(0x00, returndatasize)\n    tag_107:\n      pop\n      pop\n      pop\n      pop\n      mload(0x40)\n      returndatasize\n      not(0x1f)\n      0x1f\n      dup3\n      add\n      and\n      dup3\n      add\n      dup1\n      0x40\n      mstore\n      pop\n      dup2\n      add\n      swap1\n      tag_108\n      swap2\n      swap1\n      tag_109\n      jump\t// in\n    tag_108:\n        /* \"Spc19.sol\":2186:2227  idInsuranceToHotel[_newInsurance.getId()] */\n      dup2\n      mstore\n      0x20\n      add\n      swap1\n      dup2\n      mstore\n      0x20\n      add\n      0x00\n      keccak256\n      sload\n        /* \"Spc19.sol\":2186:2232  idInsuranceToHotel[_newInsurance.getId()] == 0 */\n      eq\n        /* \"Spc19.sol\":2178:2277  require(idInsuranceToHotel[_newInsurance.getId()] == 0, \"Insurance ID has already been registered\") */\n      tag_110\n      jumpi\n      mload(0x40)\n      0x08c379a000000000000000000000000000000000000000000000000000000000\n      dup2\n      mstore\n      0x04\n      add\n      tag_111\n      swap1\n      tag_112\n      jump\t// in\n    tag_111:\n      mload(0x40)\n      dup1\n      swap2\n      sub\n      swap1\n      revert\n    tag_110:\n        /* \"Spc19.sol\":2292:2310  hotelHasInsurances */\n      0x03\n        /* \"Spc19.sol\":2292:2338  hotelHasInsurances[_newInsurance.getTakerId()] */\n      0x00\n        /* \"Spc19.sol\":2311:2324  _newInsurance */\n      dup3\n        /* \"Spc19.sol\":2311:2335  _newInsurance.getTakerId */\n      0xffffffffffffffffffffffffffffffffffffffff\n      and\n      0xfc1c7a70\n        /* \"Spc19.sol\":2311:2337  _newInsurance.getTakerId() */\n      mload(0x40)\n      dup2\n      0xffffffff\n      and\n      0xe0\n      shl\n      dup2\n      mstore\n      0x04\n      add\n      0x20\n      mload(0x40)\n      dup1\n      dup4\n      sub\n      dup2\n      dup7\n      dup1\n      extcodesize\n      iszero\n      dup1\n      iszero\n      tag_113\n      jumpi\n      0x00\n      dup1\n      revert\n    tag_113:\n      pop\n      gas\n      staticcall\n      iszero\n      dup1\n      iszero\n      tag_115\n      jumpi\n      returndatasize\n      0x00\n      dup1\n      returndatacopy\n      revert(0x00, returndatasize)\n    tag_115:\n      pop\n      pop\n      pop\n      pop\n      mload(0x40)\n      returndatasize\n      not(0x1f)\n      0x1f\n      dup3\n      add\n      and\n      dup3\n      add\n      dup1\n      0x40\n      mstore\n      pop\n      dup2\n      add\n      swap1\n      tag_116\n      swap2\n      swap1\n      tag_109\n      jump\t// in\n    tag_116:\n        /* \"Spc19.sol\":2292:2338  hotelHasInsurances[_newInsurance.getTakerId()] */\n      dup2\n      mstore\n      0x20\n      add\n      swap1\n      dup2\n      mstore\n      0x20\n      add\n      0x00\n      keccak256\n      0x00\n      swap1\n      sload\n      swap1\n      0x0100\n      exp\n      swap1\n      div\n      0xff\n      and\n        /* \"Spc19.sol\":2287:2471  if (!hotelHasInsurances[_newInsurance.getTakerId()]) {... */\n      tag_117\n      jumpi\n        /* \"Spc19.sol\":2354:2360  hotels */\n      0x06\n        /* \"Spc19.sol\":2366:2379  _newInsurance */\n      dup2\n        /* \"Spc19.sol\":2366:2390  _newInsurance.getTakerId */\n      0xffffffffffffffffffffffffffffffffffffffff\n      and\n      0xfc1c7a70\n        /* \"Spc19.sol\":2366:2392  _newInsurance.getTakerId() */\n      mload(0x40)\n      dup2\n      0xffffffff\n      and\n      0xe0\n      shl\n      dup2\n      mstore\n      0x04\n      add\n      0x20\n      mload(0x40)\n      dup1\n      dup4\n      sub\n      dup2\n      dup7\n      dup1\n      extcodesize\n      iszero\n      dup1\n      iszero\n      tag_118\n      jumpi\n      0x00\n      dup1\n      revert\n    tag_118:\n      pop\n      gas\n      staticcall\n      iszero\n      dup1\n      iszero\n      tag_120\n      jumpi\n      returndatasize\n      0x00\n      dup1\n      returndatacopy\n      revert(0x00, returndatasize)\n    tag_120:\n      pop\n      pop\n      pop\n      pop\n      mload(0x40)\n      returndatasize\n      not(0x1f)\n      0x1f\n      dup3\n      add\n      and\n      dup3\n      add\n      dup1\n      0x40\n      mstore\n      pop\n      dup2\n      add\n      swap1\n      tag_121\n      swap2\n      swap1\n      tag_109\n      jump\t// in\n    tag_121:\n        /* \"Spc19.sol\":2354:2393  hotels.push(_newInsurance.getTakerId()) */\n      swap1\n      dup1\n      0x01\n      dup2\n      sload\n      add\n      dup1\n      dup3\n      sstore\n      dup1\n      swap2\n      pop\n      pop\n      0x01\n      swap1\n      sub\n      swap1\n      0x00\n      mstore\n      keccak256(0x00, 0x20)\n      add\n      0x00\n      swap1\n      swap2\n      swap1\n      swap2\n      swap1\n      swap2\n      pop\n      sstore\n        /* \"Spc19.sol\":2456:2460  true */\n      0x01\n        /* \"Spc19.sol\":2407:2425  hotelHasInsurances */\n      0x03\n        /* \"Spc19.sol\":2407:2453  hotelHasInsurances[_newInsurance.getTakerId()] */\n      0x00\n        /* \"Spc19.sol\":2426:2439  _newInsurance */\n      dup4\n        /* \"Spc19.sol\":2426:2450  _newInsurance.getTakerId */\n      0xffffffffffffffffffffffffffffffffffffffff\n      and\n      0xfc1c7a70\n        /* \"Spc19.sol\":2426:2452  _newInsurance.getTakerId() */\n      mload(0x40)\n      dup2\n      0xffffffff\n      and\n      0xe0\n      shl\n      dup2\n      mstore\n      0x04\n      add\n      0x20\n      mload(0x40)\n      dup1\n      dup4\n      sub\n      dup2\n      dup7\n      dup1\n      extcodesize\n      iszero\n      dup1\n      iszero\n      tag_123\n      jumpi\n      0x00\n      dup1\n      revert\n    tag_123:\n      pop\n      gas\n      staticcall\n      iszero\n      dup1\n      iszero\n      tag_125\n      jumpi\n      returndatasize\n      0x00\n      dup1\n      returndatacopy\n      revert(0x00, returndatasize)\n    tag_125:\n      pop\n      pop\n      pop\n      pop\n      mload(0x40)\n      returndatasize\n      not(0x1f)\n      0x1f\n      dup3\n      add\n      and\n      dup3\n      add\n      dup1\n      0x40\n      mstore\n      pop\n      dup2\n      add\n      swap1\n      tag_126\n      swap2\n      swap1\n      tag_109\n      jump\t// in\n    tag_126:\n        /* \"Spc19.sol\":2407:2453  hotelHasInsurances[_newInsurance.getTakerId()] */\n      dup2\n      mstore\n      0x20\n      add\n      swap1\n      dup2\n      mstore\n      0x20\n      add\n      0x00\n      keccak256\n      0x00\n        /* \"Spc19.sol\":2407:2460  hotelHasInsurances[_newInsurance.getTakerId()] = true */\n      0x0100\n      exp\n      dup2\n      sload\n      dup2\n      0xff\n      mul\n      not\n      and\n      swap1\n      dup4\n      iszero\n      iszero\n      mul\n      or\n      swap1\n      sstore\n      pop\n        /* \"Spc19.sol\":2287:2471  if (!hotelHasInsurances[_newInsurance.getTakerId()]) {... */\n    tag_117:\n        /* \"Spc19.sol\":2480:2495  hotelInsurances */\n      0x02\n        /* \"Spc19.sol\":2480:2523  hotelInsurances[_newInsurance.getTakerId()] */\n      0x00\n        /* \"Spc19.sol\":2496:2509  _newInsurance */\n      dup3\n        /* \"Spc19.sol\":2496:2520  _newInsurance.getTakerId */\n      0xffffffffffffffffffffffffffffffffffffffff\n      and\n      0xfc1c7a70\n        /* \"Spc19.sol\":2496:2522  _newInsurance.getTakerId() */\n      mload(0x40)\n      dup2\n      0xffffffff\n      and\n      0xe0\n      shl\n      dup2\n      mstore\n      0x04\n      add\n      0x20\n      mload(0x40)\n      dup1\n      dup4\n      sub\n      dup2\n      dup7\n      dup1\n      extcodesize\n      iszero\n      dup1\n      iszero\n      tag_127\n      jumpi\n      0x00\n      dup1\n      revert\n    tag_127:\n      pop\n      gas\n      staticcall\n      iszero\n      dup1\n      iszero\n      tag_129\n      jumpi\n      returndatasize\n      0x00\n      dup1\n      returndatacopy\n      revert(0x00, returndatasize)\n    tag_129:\n      pop\n      pop\n      pop\n      pop\n      mload(0x40)\n      returndatasize\n      not(0x1f)\n      0x1f\n      dup3\n      add\n      and\n      dup3\n      add\n      dup1\n      0x40\n      mstore\n      pop\n      dup2\n      add\n      swap1\n      tag_130\n      swap2\n      swap1\n      tag_109\n      jump\t// in\n    tag_130:\n        /* \"Spc19.sol\":2480:2523  hotelInsurances[_newInsurance.getTakerId()] */\n      dup2\n      mstore\n      0x20\n      add\n      swap1\n      dup2\n      mstore\n      0x20\n      add\n      0x00\n      keccak256\n        /* \"Spc19.sol\":2529:2542  _newInsurance */\n      dup2\n        /* \"Spc19.sol\":2480:2543  hotelInsurances[_newInsurance.getTakerId()].push(_newInsurance) */\n      swap1\n      dup1\n      0x01\n      dup2\n      sload\n      add\n      dup1\n      dup3\n      sstore\n      dup1\n      swap2\n      pop\n      pop\n      0x01\n      swap1\n      sub\n      swap1\n      0x00\n      mstore\n      keccak256(0x00, 0x20)\n      add\n      0x00\n      swap1\n      swap2\n      swap1\n      swap2\n      swap1\n      swap2\n      0x0100\n      exp\n      dup2\n      sload\n      dup2\n      0xffffffffffffffffffffffffffffffffffffffff\n      mul\n      not\n      and\n      swap1\n      dup4\n      0xffffffffffffffffffffffffffffffffffffffff\n      and\n      mul\n      or\n      swap1\n      sstore\n      pop\n        /* \"Spc19.sol\":2649:2650  1 */\n      0x01\n        /* \"Spc19.sol\":2596:2611  hotelInsurances */\n      0x02\n        /* \"Spc19.sol\":2596:2639  hotelInsurances[_newInsurance.getTakerId()] */\n      0x00\n        /* \"Spc19.sol\":2612:2625  _newInsurance */\n      dup4\n        /* \"Spc19.sol\":2612:2636  _newInsurance.getTakerId */\n      0xffffffffffffffffffffffffffffffffffffffff\n      and\n      0xfc1c7a70\n        /* \"Spc19.sol\":2612:2638  _newInsurance.getTakerId() */\n      mload(0x40)\n      dup2\n      0xffffffff\n      and\n      0xe0\n      shl\n      dup2\n      mstore\n      0x04\n      add\n      0x20\n      mload(0x40)\n      dup1\n      dup4\n      sub\n      dup2\n      dup7\n      dup1\n      extcodesize\n      iszero\n      dup1\n      iszero\n      tag_132\n      jumpi\n      0x00\n      dup1\n      revert\n    tag_132:\n      pop\n      gas\n      staticcall\n      iszero\n      dup1\n      iszero\n      tag_134\n      jumpi\n      returndatasize\n      0x00\n      dup1\n      returndatacopy\n      revert(0x00, returndatasize)\n    tag_134:\n      pop\n      pop\n      pop\n      pop\n      mload(0x40)\n      returndatasize\n      not(0x1f)\n      0x1f\n      dup3\n      add\n      and\n      dup3\n      add\n      dup1\n      0x40\n      mstore\n      pop\n      dup2\n      add\n      swap1\n      tag_135\n      swap2\n      swap1\n      tag_109\n      jump\t// in\n    tag_135:\n        /* \"Spc19.sol\":2596:2639  hotelInsurances[_newInsurance.getTakerId()] */\n      dup2\n      mstore\n      0x20\n      add\n      swap1\n      dup2\n      mstore\n      0x20\n      add\n      0x00\n      keccak256\n        /* \"Spc19.sol\":2596:2646  hotelInsurances[_newInsurance.getTakerId()].length */\n      dup1\n      sload\n      swap1\n      pop\n        /* \"Spc19.sol\":2596:2650  hotelInsurances[_newInsurance.getTakerId()].length - 1 */\n      tag_136\n      swap2\n      swap1\n      tag_137\n      jump\t// in\n    tag_136:\n        /* \"Spc19.sol\":2553:2570  InsuranceLocation */\n      0x01\n        /* \"Spc19.sol\":2553:2593  InsuranceLocation[_newInsurance.getId()] */\n      0x00\n        /* \"Spc19.sol\":2571:2584  _newInsurance */\n      dup4\n        /* \"Spc19.sol\":2571:2590  _newInsurance.getId */\n      0xffffffffffffffffffffffffffffffffffffffff\n      and\n      0x5d1ca631\n        /* \"Spc19.sol\":2571:2592  _newInsurance.getId() */\n      mload(0x40)\n      dup2\n      0xffffffff\n      and\n      0xe0\n      shl\n      dup2\n      mstore\n      0x04\n      add\n      0x20\n      mload(0x40)\n      dup1\n      dup4\n      sub\n      dup2\n      dup7\n      dup1\n      extcodesize\n      iszero\n      dup1\n      iszero\n      tag_138\n      jumpi\n      0x00\n      dup1\n      revert\n    tag_138:\n      pop\n      gas\n      staticcall\n      iszero\n      dup1\n      iszero\n      tag_140\n      jumpi\n      returndatasize\n      0x00\n      dup1\n      returndatacopy\n      revert(0x00, returndatasize)\n    tag_140:\n      pop\n      pop\n      pop\n      pop\n      mload(0x40)\n      returndatasize\n      not(0x1f)\n      0x1f\n      dup3\n      add\n      and\n      dup3\n      add\n      dup1\n      0x40\n      mstore\n      pop\n      dup2\n      add\n      swap1\n      tag_141\n      swap2\n      swap1\n      tag_109\n      jump\t// in\n    tag_141:\n        /* \"Spc19.sol\":2553:2593  InsuranceLocation[_newInsurance.getId()] */\n      dup2\n      mstore\n      0x20\n      add\n      swap1\n      dup2\n      mstore\n      0x20\n      add\n      0x00\n      keccak256\n        /* \"Spc19.sol\":2553:2650  InsuranceLocation[_newInsurance.getId()] = hotelInsurances[_newInsurance.getTakerId()].length - 1 */\n      dup2\n      swap1\n      sstore\n      pop\n        /* \"Spc19.sol\":2704:2717  _newInsurance */\n      dup1\n        /* \"Spc19.sol\":2704:2728  _newInsurance.getTakerId */\n      0xffffffffffffffffffffffffffffffffffffffff\n      and\n      0xfc1c7a70\n        /* \"Spc19.sol\":2704:2730  _newInsurance.getTakerId() */\n      mload(0x40)\n      dup2\n      0xffffffff\n      and\n      0xe0\n      shl\n      dup2\n      mstore\n      0x04\n      add\n      0x20\n      mload(0x40)\n      dup1\n      dup4\n      sub\n      dup2\n      dup7\n      dup1\n      extcodesize\n      iszero\n      dup1\n      iszero\n      tag_142\n      jumpi\n      0x00\n      dup1\n      revert\n    tag_142:\n      pop\n      gas\n      staticcall\n      iszero\n      dup1\n      iszero\n      tag_144\n      jumpi\n      returndatasize\n      0x00\n      dup1\n      returndatacopy\n      revert(0x00, returndatasize)\n    tag_144:\n      pop\n      pop\n      pop\n      pop\n      mload(0x40)\n      returndatasize\n      not(0x1f)\n      0x1f\n      dup3\n      add\n      and\n      dup3\n      add\n      dup1\n      0x40\n      mstore\n      pop\n      dup2\n      add\n      swap1\n      tag_145\n      swap2\n      swap1\n      tag_109\n      jump\t// in\n    tag_145:\n        /* \"Spc19.sol\":2660:2678  idInsuranceToHotel */\n      0x04\n        /* \"Spc19.sol\":2660:2701  idInsuranceToHotel[_newInsurance.getId()] */\n      0x00\n        /* \"Spc19.sol\":2679:2692  _newInsurance */\n      dup4\n        /* \"Spc19.sol\":2679:2698  _newInsurance.getId */\n      0xffffffffffffffffffffffffffffffffffffffff\n      and\n      0x5d1ca631\n        /* \"Spc19.sol\":2679:2700  _newInsurance.getId() */\n      mload(0x40)\n      dup2\n      0xffffffff\n      and\n      0xe0\n      shl\n      dup2\n      mstore\n      0x04\n      add\n      0x20\n      mload(0x40)\n      dup1\n      dup4\n      sub\n      dup2\n      dup7\n      dup1\n      extcodesize\n      iszero\n      dup1\n      iszero\n      tag_146\n      jumpi\n      0x00\n      dup1\n      revert\n    tag_146:\n      pop\n      gas\n      staticcall\n      iszero\n      dup1\n      iszero\n      tag_148\n      jumpi\n      returndatasize\n      0x00\n      dup1\n      returndatacopy\n      revert(0x00, returndatasize)\n    tag_148:\n      pop\n      pop\n      pop\n      pop\n      mload(0x40)\n      returndatasize\n      not(0x1f)\n      0x1f\n      dup3\n      add\n      and\n      dup3\n      add\n      dup1\n      0x40\n      mstore\n      pop\n      dup2\n      add\n      swap1\n      tag_149\n      swap2\n      swap1\n      tag_109\n      jump\t// in\n    tag_149:\n        /* \"Spc19.sol\":2660:2701  idInsuranceToHotel[_newInsurance.getId()] */\n      dup2\n      mstore\n      0x20\n      add\n      swap1\n      dup2\n      mstore\n      0x20\n      add\n      0x00\n      keccak256\n        /* \"Spc19.sol\":2660:2730  idInsuranceToHotel[_newInsurance.getId()] = _newInsurance.getTakerId() */\n      dup2\n      swap1\n      sstore\n      pop\n        /* \"Spc19.sol\":2794:2807  _newInsurance */\n      dup1\n        /* \"Spc19.sol\":2740:2760  idInsuranceToAddress */\n      0x05\n        /* \"Spc19.sol\":2740:2783  idInsuranceToAddress[_newInsurance.getId()] */\n      0x00\n        /* \"Spc19.sol\":2761:2774  _newInsurance */\n      dup4\n        /* \"Spc19.sol\":2761:2780  _newInsurance.getId */\n      0xffffffffffffffffffffffffffffffffffffffff\n      and\n      0x5d1ca631\n        /* \"Spc19.sol\":2761:2782  _newInsurance.getId() */\n      mload(0x40)\n      dup2\n      0xffffffff\n      and\n      0xe0\n      shl\n      dup2\n      mstore\n      0x04\n      add\n      0x20\n      mload(0x40)\n      dup1\n      dup4\n      sub\n      dup2\n      dup7\n      dup1\n      extcodesize\n      iszero\n      dup1\n      iszero\n      tag_150\n      jumpi\n      0x00\n      dup1\n      revert\n    tag_150:\n      pop\n      gas\n      staticcall\n      iszero\n      dup1\n      iszero\n      tag_152\n      jumpi\n      returndatasize\n      0x00\n      dup1\n      returndatacopy\n      revert(0x00, returndatasize)\n    tag_152:\n      pop\n      pop\n      pop\n      pop\n      mload(0x40)\n      returndatasize\n      not(0x1f)\n      0x1f\n      dup3\n      add\n      and\n      dup3\n      add\n      dup1\n      0x40\n      mstore\n      pop\n      dup2\n      add\n      swap1\n      tag_153\n      swap2\n      swap1\n      tag_109\n      jump\t// in\n    tag_153:\n        /* \"Spc19.sol\":2740:2783  idInsuranceToAddress[_newInsurance.getId()] */\n      dup2\n      mstore\n      0x20\n      add\n      swap1\n      dup2\n      mstore\n      0x20\n      add\n      0x00\n      keccak256\n      0x00\n        /* \"Spc19.sol\":2740:2808  idInsuranceToAddress[_newInsurance.getId()] = address(_newInsurance) */\n      0x0100\n      exp\n      dup2\n      sload\n      dup2\n      0xffffffffffffffffffffffffffffffffffffffff\n      mul\n      not\n      and\n      swap1\n      dup4\n      0xffffffffffffffffffffffffffffffffffffffff\n      and\n      mul\n      or\n      swap1\n      sstore\n      pop\n        /* \"Spc19.sol\":2060:2815  function addInsurance(Insurance _newInsurance) external {... */\n      pop\n      jump\t// out\n        /* \"#utility.yul\":7:350   */\n    tag_155:\n      0x00\n        /* \"#utility.yul\":109:174   */\n      tag_157\n        /* \"#utility.yul\":125:173   */\n      tag_158\n        /* \"#utility.yul\":166:172   */\n      dup5\n        /* \"#utility.yul\":125:173   */\n      tag_159\n      jump\t// in\n    tag_158:\n        /* \"#utility.yul\":109:174   */\n      tag_160\n      jump\t// in\n    tag_157:\n        /* \"#utility.yul\":100:174   */\n      swap1\n      pop\n        /* \"#utility.yul\":197:203   */\n      dup3\n        /* \"#utility.yul\":190:195   */\n      dup2\n        /* \"#utility.yul\":183:204   */\n      mstore\n        /* \"#utility.yul\":235:239   */\n      0x20\n        /* \"#utility.yul\":228:233   */\n      dup2\n        /* \"#utility.yul\":224:240   */\n      add\n        /* \"#utility.yul\":273:276   */\n      dup5\n        /* \"#utility.yul\":264:270   */\n      dup5\n        /* \"#utility.yul\":259:262   */\n      dup5\n        /* \"#utility.yul\":255:271   */\n      add\n        /* \"#utility.yul\":252:277   */\n      gt\n        /* \"#utility.yul\":249:251   */\n      iszero\n      tag_161\n      jumpi\n        /* \"#utility.yul\":290:291   */\n      0x00\n        /* \"#utility.yul\":287:288   */\n      dup1\n        /* \"#utility.yul\":280:292   */\n      revert\n        /* \"#utility.yul\":249:251   */\n    tag_161:\n        /* \"#utility.yul\":303:344   */\n      tag_162\n        /* \"#utility.yul\":337:343   */\n      dup5\n        /* \"#utility.yul\":332:335   */\n      dup3\n        /* \"#utility.yul\":327:330   */\n      dup6\n        /* \"#utility.yul\":303:344   */\n      tag_163\n      jump\t// in\n    tag_162:\n        /* \"#utility.yul\":90:350   */\n      pop\n      swap4\n      swap3\n      pop\n      pop\n      pop\n      jump\t// out\n        /* \"#utility.yul\":356:708   */\n    tag_164:\n      0x00\n        /* \"#utility.yul\":469:534   */\n      tag_166\n        /* \"#utility.yul\":485:533   */\n      tag_167\n        /* \"#utility.yul\":526:532   */\n      dup5\n        /* \"#utility.yul\":485:533   */\n      tag_159\n      jump\t// in\n    tag_167:\n        /* \"#utility.yul\":469:534   */\n      tag_160\n      jump\t// in\n    tag_166:\n        /* \"#utility.yul\":460:534   */\n      swap1\n      pop\n        /* \"#utility.yul\":557:563   */\n      dup3\n        /* \"#utility.yul\":550:555   */\n      dup2\n        /* \"#utility.yul\":543:564   */\n      mstore\n        /* \"#utility.yul\":595:599   */\n      0x20\n        /* \"#utility.yul\":588:593   */\n      dup2\n        /* \"#utility.yul\":584:600   */\n      add\n        /* \"#utility.yul\":633:636   */\n      dup5\n        /* \"#utility.yul\":624:630   */\n      dup5\n        /* \"#utility.yul\":619:622   */\n      dup5\n        /* \"#utility.yul\":615:631   */\n      add\n        /* \"#utility.yul\":612:637   */\n      gt\n        /* \"#utility.yul\":609:611   */\n      iszero\n      tag_168\n      jumpi\n        /* \"#utility.yul\":650:651   */\n      0x00\n        /* \"#utility.yul\":647:648   */\n      dup1\n        /* \"#utility.yul\":640:652   */\n      revert\n        /* \"#utility.yul\":609:611   */\n    tag_168:\n        /* \"#utility.yul\":663:702   */\n      tag_169\n        /* \"#utility.yul\":695:701   */\n      dup5\n        /* \"#utility.yul\":690:693   */\n      dup3\n        /* \"#utility.yul\":685:688   */\n      dup6\n        /* \"#utility.yul\":663:702   */\n      tag_170\n      jump\t// in\n    tag_169:\n        /* \"#utility.yul\":450:708   */\n      pop\n      swap4\n      swap3\n      pop\n      pop\n      pop\n      jump\t// out\n        /* \"#utility.yul\":714:853   */\n    tag_171:\n      0x00\n        /* \"#utility.yul\":798:804   */\n      dup2\n        /* \"#utility.yul\":785:805   */\n      calldataload\n        /* \"#utility.yul\":776:805   */\n      swap1\n      pop\n        /* \"#utility.yul\":814:847   */\n      tag_173\n        /* \"#utility.yul\":841:846   */\n      dup2\n        /* \"#utility.yul\":814:847   */\n      tag_174\n      jump\t// in\n    tag_173:\n        /* \"#utility.yul\":766:853   */\n      swap3\n      swap2\n      pop\n      pop\n      jump\t// out\n        /* \"#utility.yul\":859:1002   */\n    tag_175:\n      0x00\n        /* \"#utility.yul\":947:953   */\n      dup2\n        /* \"#utility.yul\":941:954   */\n      mload\n        /* \"#utility.yul\":932:954   */\n      swap1\n      pop\n        /* \"#utility.yul\":963:996   */\n      tag_177\n        /* \"#utility.yul\":990:995   */\n      dup2\n        /* \"#utility.yul\":963:996   */\n      tag_174\n      jump\t// in\n    tag_177:\n        /* \"#utility.yul\":922:1002   */\n      swap3\n      swap2\n      pop\n      pop\n      jump\t// out\n        /* \"#utility.yul\":1021:1292   */\n    tag_178:\n      0x00\n        /* \"#utility.yul\":1125:1128   */\n      dup3\n        /* \"#utility.yul\":1118:1122   */\n      0x1f\n        /* \"#utility.yul\":1110:1116   */\n      dup4\n        /* \"#utility.yul\":1106:1123   */\n      add\n        /* \"#utility.yul\":1102:1129   */\n      slt\n        /* \"#utility.yul\":1092:1094   */\n      tag_180\n      jumpi\n        /* \"#utility.yul\":1143:1144   */\n      0x00\n        /* \"#utility.yul\":1140:1141   */\n      dup1\n        /* \"#utility.yul\":1133:1145   */\n      revert\n        /* \"#utility.yul\":1092:1094   */\n    tag_180:\n        /* \"#utility.yul\":1183:1189   */\n      dup2\n        /* \"#utility.yul\":1170:1190   */\n      calldataload\n        /* \"#utility.yul\":1208:1286   */\n      tag_181\n        /* \"#utility.yul\":1282:1285   */\n      dup5\n        /* \"#utility.yul\":1274:1280   */\n      dup3\n        /* \"#utility.yul\":1267:1271   */\n      0x20\n        /* \"#utility.yul\":1259:1265   */\n      dup7\n        /* \"#utility.yul\":1255:1272   */\n      add\n        /* \"#utility.yul\":1208:1286   */\n      tag_155\n      jump\t// in\n    tag_181:\n        /* \"#utility.yul\":1199:1286   */\n      swap2\n      pop\n        /* \"#utility.yul\":1082:1292   */\n      pop\n      swap3\n      swap2\n      pop\n      pop\n      jump\t// out\n        /* \"#utility.yul\":1311:1597   */\n    tag_182:\n      0x00\n        /* \"#utility.yul\":1426:1429   */\n      dup3\n        /* \"#utility.yul\":1419:1423   */\n      0x1f\n        /* \"#utility.yul\":1411:1417   */\n      dup4\n        /* \"#utility.yul\":1407:1424   */\n      add\n        /* \"#utility.yul\":1403:1430   */\n      slt\n        /* \"#utility.yul\":1393:1395   */\n      tag_184\n      jumpi\n        /* \"#utility.yul\":1444:1445   */\n      0x00\n        /* \"#utility.yul\":1441:1442   */\n      dup1\n        /* \"#utility.yul\":1434:1446   */\n      revert\n        /* \"#utility.yul\":1393:1395   */\n    tag_184:\n        /* \"#utility.yul\":1477:1483   */\n      dup2\n        /* \"#utility.yul\":1471:1484   */\n      mload\n        /* \"#utility.yul\":1502:1591   */\n      tag_185\n        /* \"#utility.yul\":1587:1590   */\n      dup5\n        /* \"#utility.yul\":1579:1585   */\n      dup3\n        /* \"#utility.yul\":1572:1576   */\n      0x20\n        /* \"#utility.yul\":1564:1570   */\n      dup7\n        /* \"#utility.yul\":1560:1577   */\n      add\n        /* \"#utility.yul\":1502:1591   */\n      tag_164\n      jump\t// in\n    tag_185:\n        /* \"#utility.yul\":1493:1591   */\n      swap2\n      pop\n        /* \"#utility.yul\":1383:1597   */\n      pop\n      swap3\n      swap2\n      pop\n      pop\n      jump\t// out\n        /* \"#utility.yul\":1603:1778   */\n    tag_186:\n      0x00\n        /* \"#utility.yul\":1705:1711   */\n      dup2\n        /* \"#utility.yul\":1692:1712   */\n      calldataload\n        /* \"#utility.yul\":1683:1712   */\n      swap1\n      pop\n        /* \"#utility.yul\":1721:1772   */\n      tag_188\n        /* \"#utility.yul\":1766:1771   */\n      dup2\n        /* \"#utility.yul\":1721:1772   */\n      tag_189\n      jump\t// in\n    tag_188:\n        /* \"#utility.yul\":1673:1778   */\n      swap3\n      swap2\n      pop\n      pop\n      jump\t// out\n        /* \"#utility.yul\":1784:1927   */\n    tag_190:\n      0x00\n        /* \"#utility.yul\":1872:1878   */\n      dup2\n        /* \"#utility.yul\":1866:1879   */\n      mload\n        /* \"#utility.yul\":1857:1879   */\n      swap1\n      pop\n        /* \"#utility.yul\":1888:1921   */\n      tag_192\n        /* \"#utility.yul\":1915:1920   */\n      dup2\n        /* \"#utility.yul\":1888:1921   */\n      tag_193\n      jump\t// in\n    tag_192:\n        /* \"#utility.yul\":1847:1927   */\n      swap3\n      swap2\n      pop\n      pop\n      jump\t// out\n        /* \"#utility.yul\":1933:2195   */\n    tag_18:\n      0x00\n        /* \"#utility.yul\":2041:2043   */\n      0x20\n        /* \"#utility.yul\":2029:2038   */\n      dup3\n        /* \"#utility.yul\":2020:2027   */\n      dup5\n        /* \"#utility.yul\":2016:2039   */\n      sub\n        /* \"#utility.yul\":2012:2044   */\n      slt\n        /* \"#utility.yul\":2009:2011   */\n      iszero\n      tag_195\n      jumpi\n        /* \"#utility.yul\":2057:2058   */\n      0x00\n        /* \"#utility.yul\":2054:2055   */\n      dup1\n        /* \"#utility.yul\":2047:2059   */\n      revert\n        /* \"#utility.yul\":2009:2011   */\n    tag_195:\n        /* \"#utility.yul\":2100:2101   */\n      0x00\n        /* \"#utility.yul\":2125:2178   */\n      tag_196\n        /* \"#utility.yul\":2170:2177   */\n      dup5\n        /* \"#utility.yul\":2161:2167   */\n      dup3\n        /* \"#utility.yul\":2150:2159   */\n      dup6\n        /* \"#utility.yul\":2146:2168   */\n      add\n        /* \"#utility.yul\":2125:2178   */\n      tag_171\n      jump\t// in\n    tag_196:\n        /* \"#utility.yul\":2115:2178   */\n      swap2\n      pop\n        /* \"#utility.yul\":2071:2188   */\n      pop\n        /* \"#utility.yul\":1999:2195   */\n      swap3\n      swap2\n      pop\n      pop\n      jump\t// out\n        /* \"#utility.yul\":2201:2485   */\n    tag_109:\n      0x00\n        /* \"#utility.yul\":2320:2322   */\n      0x20\n        /* \"#utility.yul\":2308:2317   */\n      dup3\n        /* \"#utility.yul\":2299:2306   */\n      dup5\n        /* \"#utility.yul\":2295:2318   */\n      sub\n        /* \"#utility.yul\":2291:2323   */\n      slt\n        /* \"#utility.yul\":2288:2290   */\n      iszero\n      tag_198\n      jumpi\n        /* \"#utility.yul\":2336:2337   */\n      0x00\n        /* \"#utility.yul\":2333:2334   */\n      dup1\n        /* \"#utility.yul\":2326:2338   */\n      revert\n        /* \"#utility.yul\":2288:2290   */\n    tag_198:\n        /* \"#utility.yul\":2379:2380   */\n      0x00\n        /* \"#utility.yul\":2404:2468   */\n      tag_199\n        /* \"#utility.yul\":2460:2467   */\n      dup5\n        /* \"#utility.yul\":2451:2457   */\n      dup3\n        /* \"#utility.yul\":2440:2449   */\n      dup6\n        /* \"#utility.yul\":2436:2458   */\n      add\n        /* \"#utility.yul\":2404:2468   */\n      tag_175\n      jump\t// in\n    tag_199:\n        /* \"#utility.yul\":2394:2468   */\n      swap2\n      pop\n        /* \"#utility.yul\":2350:2478   */\n      pop\n        /* \"#utility.yul\":2278:2485   */\n      swap3\n      swap2\n      pop\n      pop\n      jump\t// out\n        /* \"#utility.yul\":2491:3120   */\n    tag_39:\n      0x00\n      dup1\n        /* \"#utility.yul\":2634:2636   */\n      0x40\n        /* \"#utility.yul\":2622:2631   */\n      dup4\n        /* \"#utility.yul\":2613:2620   */\n      dup6\n        /* \"#utility.yul\":2609:2632   */\n      sub\n        /* \"#utility.yul\":2605:2637   */\n      slt\n        /* \"#utility.yul\":2602:2604   */\n      iszero\n      tag_201\n      jumpi\n        /* \"#utility.yul\":2650:2651   */\n      0x00\n        /* \"#utility.yul\":2647:2648   */\n      dup1\n        /* \"#utility.yul\":2640:2652   */\n      revert\n        /* \"#utility.yul\":2602:2604   */\n    tag_201:\n        /* \"#utility.yul\":2721:2722   */\n      0x00\n        /* \"#utility.yul\":2710:2719   */\n      dup4\n        /* \"#utility.yul\":2706:2723   */\n      add\n        /* \"#utility.yul\":2693:2724   */\n      calldataload\n        /* \"#utility.yul\":2751:2769   */\n      0xffffffffffffffff\n        /* \"#utility.yul\":2743:2749   */\n      dup2\n        /* \"#utility.yul\":2740:2770   */\n      gt\n        /* \"#utility.yul\":2737:2739   */\n      iszero\n      tag_202\n      jumpi\n        /* \"#utility.yul\":2783:2784   */\n      0x00\n        /* \"#utility.yul\":2780:2781   */\n      dup1\n        /* \"#utility.yul\":2773:2785   */\n      revert\n        /* \"#utility.yul\":2737:2739   */\n    tag_202:\n        /* \"#utility.yul\":2811:2873   */\n      tag_203\n        /* \"#utility.yul\":2865:2872   */\n      dup6\n        /* \"#utility.yul\":2856:2862   */\n      dup3\n        /* \"#utility.yul\":2845:2854   */\n      dup7\n        /* \"#utility.yul\":2841:2863   */\n      add\n        /* \"#utility.yul\":2811:2873   */\n      tag_178\n      jump\t// in\n    tag_203:\n        /* \"#utility.yul\":2801:2873   */\n      swap3\n      pop\n        /* \"#utility.yul\":2664:2883   */\n      pop\n        /* \"#utility.yul\":2950:2952   */\n      0x20\n        /* \"#utility.yul\":2939:2948   */\n      dup4\n        /* \"#utility.yul\":2935:2953   */\n      add\n        /* \"#utility.yul\":2922:2954   */\n      calldataload\n        /* \"#utility.yul\":2981:2999   */\n      0xffffffffffffffff\n        /* \"#utility.yul\":2973:2979   */\n      dup2\n        /* \"#utility.yul\":2970:3000   */\n      gt\n        /* \"#utility.yul\":2967:2969   */\n      iszero\n      tag_204\n      jumpi\n        /* \"#utility.yul\":3013:3014   */\n      0x00\n        /* \"#utility.yul\":3010:3011   */\n      dup1\n        /* \"#utility.yul\":3003:3015   */\n      revert\n        /* \"#utility.yul\":2967:2969   */\n    tag_204:\n        /* \"#utility.yul\":3041:3103   */\n      tag_205\n        /* \"#utility.yul\":3095:3102   */\n      dup6\n        /* \"#utility.yul\":3086:3092   */\n      dup3\n        /* \"#utility.yul\":3075:3084   */\n      dup7\n        /* \"#utility.yul\":3071:3093   */\n      add\n        /* \"#utility.yul\":3041:3103   */\n      tag_178\n      jump\t// in\n    tag_205:\n        /* \"#utility.yul\":3031:3103   */\n      swap2\n      pop\n        /* \"#utility.yul\":2893:3113   */\n      pop\n        /* \"#utility.yul\":2592:3120   */\n      swap3\n      pop\n      swap3\n      swap1\n      pop\n      jump\t// out\n        /* \"#utility.yul\":3126:3670   */\n    tag_68:\n      0x00\n      dup1\n        /* \"#utility.yul\":3271:3273   */\n      0x40\n        /* \"#utility.yul\":3259:3268   */\n      dup4\n        /* \"#utility.yul\":3250:3257   */\n      dup6\n        /* \"#utility.yul\":3246:3269   */\n      sub\n        /* \"#utility.yul\":3242:3274   */\n      slt\n        /* \"#utility.yul\":3239:3241   */\n      iszero\n      tag_207\n      jumpi\n        /* \"#utility.yul\":3287:3288   */\n      0x00\n        /* \"#utility.yul\":3284:3285   */\n      dup1\n        /* \"#utility.yul\":3277:3289   */\n      revert\n        /* \"#utility.yul\":3239:3241   */\n    tag_207:\n        /* \"#utility.yul\":3351:3352   */\n      0x00\n        /* \"#utility.yul\":3340:3349   */\n      dup4\n        /* \"#utility.yul\":3336:3353   */\n      add\n        /* \"#utility.yul\":3330:3354   */\n      mload\n        /* \"#utility.yul\":3381:3399   */\n      0xffffffffffffffff\n        /* \"#utility.yul\":3373:3379   */\n      dup2\n        /* \"#utility.yul\":3370:3400   */\n      gt\n        /* \"#utility.yul\":3367:3369   */\n      iszero\n      tag_208\n      jumpi\n        /* \"#utility.yul\":3413:3414   */\n      0x00\n        /* \"#utility.yul\":3410:3411   */\n      dup1\n        /* \"#utility.yul\":3403:3415   */\n      revert\n        /* \"#utility.yul\":3367:3369   */\n    tag_208:\n        /* \"#utility.yul\":3441:3514   */\n      tag_209\n        /* \"#utility.yul\":3506:3513   */\n      dup6\n        /* \"#utility.yul\":3497:3503   */\n      dup3\n        /* \"#utility.yul\":3486:3495   */\n      dup7\n        /* \"#utility.yul\":3482:3504   */\n      add\n        /* \"#utility.yul\":3441:3514   */\n      tag_182\n      jump\t// in\n    tag_209:\n        /* \"#utility.yul\":3431:3514   */\n      swap3\n      pop\n        /* \"#utility.yul\":3301:3524   */\n      pop\n        /* \"#utility.yul\":3563:3565   */\n      0x20\n        /* \"#utility.yul\":3589:3653   */\n      tag_210\n        /* \"#utility.yul\":3645:3652   */\n      dup6\n        /* \"#utility.yul\":3636:3642   */\n      dup3\n        /* \"#utility.yul\":3625:3634   */\n      dup7\n        /* \"#utility.yul\":3621:3643   */\n      add\n        /* \"#utility.yul\":3589:3653   */\n      tag_190\n      jump\t// in\n    tag_210:\n        /* \"#utility.yul\":3579:3653   */\n      swap2\n      pop\n        /* \"#utility.yul\":3534:3663   */\n      pop\n        /* \"#utility.yul\":3229:3670   */\n      swap3\n      pop\n      swap3\n      swap1\n      pop\n      jump\t// out\n        /* \"#utility.yul\":3676:3974   */\n    tag_44:\n      0x00\n        /* \"#utility.yul\":3802:3804   */\n      0x20\n        /* \"#utility.yul\":3790:3799   */\n      dup3\n        /* \"#utility.yul\":3781:3788   */\n      dup5\n        /* \"#utility.yul\":3777:3800   */\n      sub\n        /* \"#utility.yul\":3773:3805   */\n      slt\n        /* \"#utility.yul\":3770:3772   */\n      iszero\n      tag_212\n      jumpi\n        /* \"#utility.yul\":3818:3819   */\n      0x00\n        /* \"#utility.yul\":3815:3816   */\n      dup1\n        /* \"#utility.yul\":3808:3820   */\n      revert\n        /* \"#utility.yul\":3770:3772   */\n    tag_212:\n        /* \"#utility.yul\":3861:3862   */\n      0x00\n        /* \"#utility.yul\":3886:3957   */\n      tag_213\n        /* \"#utility.yul\":3949:3956   */\n      dup5\n        /* \"#utility.yul\":3940:3946   */\n      dup3\n        /* \"#utility.yul\":3929:3938   */\n      dup6\n        /* \"#utility.yul\":3925:3947   */\n      add\n        /* \"#utility.yul\":3886:3957   */\n      tag_186\n      jump\t// in\n    tag_213:\n        /* \"#utility.yul\":3876:3957   */\n      swap2\n      pop\n        /* \"#utility.yul\":3832:3967   */\n      pop\n        /* \"#utility.yul\":3760:3974   */\n      swap3\n      swap2\n      pop\n      pop\n      jump\t// out\n        /* \"#utility.yul\":3980:4159   */\n    tag_214:\n      0x00\n        /* \"#utility.yul\":4070:4116   */\n      tag_216\n        /* \"#utility.yul\":4112:4115   */\n      dup4\n        /* \"#utility.yul\":4104:4110   */\n      dup4\n        /* \"#utility.yul\":4070:4116   */\n      tag_217\n      jump\t// in\n    tag_216:\n        /* \"#utility.yul\":4148:4152   */\n      0x20\n        /* \"#utility.yul\":4143:4146   */\n      dup4\n        /* \"#utility.yul\":4139:4153   */\n      add\n        /* \"#utility.yul\":4125:4153   */\n      swap1\n      pop\n        /* \"#utility.yul\":4060:4159   */\n      swap3\n      swap2\n      pop\n      pop\n      jump\t// out\n        /* \"#utility.yul\":4165:4283   */\n    tag_218:\n        /* \"#utility.yul\":4252:4276   */\n      tag_220\n        /* \"#utility.yul\":4270:4275   */\n      dup2\n        /* \"#utility.yul\":4252:4276   */\n      tag_221\n      jump\t// in\n    tag_220:\n        /* \"#utility.yul\":4247:4250   */\n      dup3\n        /* \"#utility.yul\":4240:4277   */\n      mstore\n        /* \"#utility.yul\":4230:4283   */\n      pop\n      pop\n      jump\t// out\n        /* \"#utility.yul\":4319:5051   */\n    tag_222:\n      0x00\n        /* \"#utility.yul\":4467:4521   */\n      tag_224\n        /* \"#utility.yul\":4515:4520   */\n      dup3\n        /* \"#utility.yul\":4467:4521   */\n      tag_225\n      jump\t// in\n    tag_224:\n        /* \"#utility.yul\":4537:4623   */\n      tag_226\n        /* \"#utility.yul\":4616:4622   */\n      dup2\n        /* \"#utility.yul\":4611:4614   */\n      dup6\n        /* \"#utility.yul\":4537:4623   */\n      tag_227\n      jump\t// in\n    tag_226:\n        /* \"#utility.yul\":4530:4623   */\n      swap4\n      pop\n        /* \"#utility.yul\":4647:4703   */\n      tag_228\n        /* \"#utility.yul\":4697:4702   */\n      dup4\n        /* \"#utility.yul\":4647:4703   */\n      tag_229\n      jump\t// in\n    tag_228:\n        /* \"#utility.yul\":4726:4733   */\n      dup1\n        /* \"#utility.yul\":4757:4758   */\n      0x00\n        /* \"#utility.yul\":4742:5026   */\n    tag_230:\n        /* \"#utility.yul\":4767:4773   */\n      dup4\n        /* \"#utility.yul\":4764:4765   */\n      dup2\n        /* \"#utility.yul\":4761:4774   */\n      lt\n        /* \"#utility.yul\":4742:5026   */\n      iszero\n      tag_232\n      jumpi\n        /* \"#utility.yul\":4843:4849   */\n      dup2\n        /* \"#utility.yul\":4837:4850   */\n      mload\n        /* \"#utility.yul\":4870:4933   */\n      tag_233\n        /* \"#utility.yul\":4929:4932   */\n      dup9\n        /* \"#utility.yul\":4914:4927   */\n      dup3\n        /* \"#utility.yul\":4870:4933   */\n      tag_214\n      jump\t// in\n    tag_233:\n        /* \"#utility.yul\":4863:4933   */\n      swap8\n      pop\n        /* \"#utility.yul\":4956:5016   */\n      tag_234\n        /* \"#utility.yul\":5009:5015   */\n      dup4\n        /* \"#utility.yul\":4956:5016   */\n      tag_235\n      jump\t// in\n    tag_234:\n        /* \"#utility.yul\":4946:5016   */\n      swap3\n      pop\n        /* \"#utility.yul\":4802:5026   */\n      pop\n        /* \"#utility.yul\":4789:4790   */\n      0x01\n        /* \"#utility.yul\":4786:4787   */\n      dup2\n        /* \"#utility.yul\":4782:4791   */\n      add\n        /* \"#utility.yul\":4777:4791   */\n      swap1\n      pop\n        /* \"#utility.yul\":4742:5026   */\n      jump(tag_230)\n    tag_232:\n        /* \"#utility.yul\":4746:4760   */\n      pop\n        /* \"#utility.yul\":5042:5045   */\n      dup6\n        /* \"#utility.yul\":5035:5045   */\n      swap4\n      pop\n        /* \"#utility.yul\":4443:5051   */\n      pop\n      pop\n      pop\n      swap3\n      swap2\n      pop\n      pop\n      jump\t// out\n        /* \"#utility.yul\":5057:5165   */\n    tag_217:\n        /* \"#utility.yul\":5134:5158   */\n      tag_237\n        /* \"#utility.yul\":5152:5157   */\n      dup2\n        /* \"#utility.yul\":5134:5158   */\n      tag_238\n      jump\t// in\n    tag_237:\n        /* \"#utility.yul\":5129:5132   */\n      dup3\n        /* \"#utility.yul\":5122:5159   */\n      mstore\n        /* \"#utility.yul\":5112:5165   */\n      pop\n      pop\n      jump\t// out\n        /* \"#utility.yul\":5171:5531   */\n    tag_239:\n      0x00\n        /* \"#utility.yul\":5285:5323   */\n      tag_241\n        /* \"#utility.yul\":5317:5322   */\n      dup3\n        /* \"#utility.yul\":5285:5323   */\n      tag_242\n      jump\t// in\n    tag_241:\n        /* \"#utility.yul\":5339:5409   */\n      tag_243\n        /* \"#utility.yul\":5402:5408   */\n      dup2\n        /* \"#utility.yul\":5397:5400   */\n      dup6\n        /* \"#utility.yul\":5339:5409   */\n      tag_244\n      jump\t// in\n    tag_243:\n        /* \"#utility.yul\":5332:5409   */\n      swap4\n      pop\n        /* \"#utility.yul\":5418:5470   */\n      tag_245\n        /* \"#utility.yul\":5463:5469   */\n      dup2\n        /* \"#utility.yul\":5458:5461   */\n      dup6\n        /* \"#utility.yul\":5451:5455   */\n      0x20\n        /* \"#utility.yul\":5444:5449   */\n      dup7\n        /* \"#utility.yul\":5440:5456   */\n      add\n        /* \"#utility.yul\":5418:5470   */\n      tag_170\n      jump\t// in\n    tag_245:\n        /* \"#utility.yul\":5495:5524   */\n      tag_246\n        /* \"#utility.yul\":5517:5523   */\n      dup2\n        /* \"#utility.yul\":5495:5524   */\n      tag_247\n      jump\t// in\n    tag_246:\n        /* \"#utility.yul\":5490:5493   */\n      dup5\n        /* \"#utility.yul\":5486:5525   */\n      add\n        /* \"#utility.yul\":5479:5525   */\n      swap2\n      pop\n        /* \"#utility.yul\":5261:5531   */\n      pop\n      swap3\n      swap2\n      pop\n      pop\n      jump\t// out\n        /* \"#utility.yul\":5537:5903   */\n    tag_248:\n      0x00\n        /* \"#utility.yul\":5700:5767   */\n      tag_250\n        /* \"#utility.yul\":5764:5766   */\n      0x20\n        /* \"#utility.yul\":5759:5762   */\n      dup4\n        /* \"#utility.yul\":5700:5767   */\n      tag_251\n      jump\t// in\n    tag_250:\n        /* \"#utility.yul\":5693:5767   */\n      swap2\n      pop\n        /* \"#utility.yul\":5776:5869   */\n      tag_252\n        /* \"#utility.yul\":5865:5868   */\n      dup3\n        /* \"#utility.yul\":5776:5869   */\n      tag_253\n      jump\t// in\n    tag_252:\n        /* \"#utility.yul\":5894:5896   */\n      0x20\n        /* \"#utility.yul\":5889:5892   */\n      dup3\n        /* \"#utility.yul\":5885:5897   */\n      add\n        /* \"#utility.yul\":5878:5897   */\n      swap1\n      pop\n        /* \"#utility.yul\":5683:5903   */\n      swap2\n      swap1\n      pop\n      jump\t// out\n        /* \"#utility.yul\":5909:6275   */\n    tag_254:\n      0x00\n        /* \"#utility.yul\":6072:6139   */\n      tag_256\n        /* \"#utility.yul\":6136:6138   */\n      0x28\n        /* \"#utility.yul\":6131:6134   */\n      dup4\n        /* \"#utility.yul\":6072:6139   */\n      tag_251\n      jump\t// in\n    tag_256:\n        /* \"#utility.yul\":6065:6139   */\n      swap2\n      pop\n        /* \"#utility.yul\":6148:6241   */\n      tag_257\n        /* \"#utility.yul\":6237:6240   */\n      dup3\n        /* \"#utility.yul\":6148:6241   */\n      tag_258\n      jump\t// in\n    tag_257:\n        /* \"#utility.yul\":6266:6268   */\n      0x40\n        /* \"#utility.yul\":6261:6264   */\n      dup3\n        /* \"#utility.yul\":6257:6269   */\n      add\n        /* \"#utility.yul\":6250:6269   */\n      swap1\n      pop\n        /* \"#utility.yul\":6055:6275   */\n      swap2\n      swap1\n      pop\n      jump\t// out\n        /* \"#utility.yul\":6281:6399   */\n    tag_259:\n        /* \"#utility.yul\":6368:6392   */\n      tag_261\n        /* \"#utility.yul\":6386:6391   */\n      dup2\n        /* \"#utility.yul\":6368:6392   */\n      tag_262\n      jump\t// in\n    tag_261:\n        /* \"#utility.yul\":6363:6366   */\n      dup3\n        /* \"#utility.yul\":6356:6393   */\n      mstore\n        /* \"#utility.yul\":6346:6399   */\n      pop\n      pop\n      jump\t// out\n        /* \"#utility.yul\":6405:6627   */\n    tag_21:\n      0x00\n        /* \"#utility.yul\":6536:6538   */\n      0x20\n        /* \"#utility.yul\":6525:6534   */\n      dup3\n        /* \"#utility.yul\":6521:6539   */\n      add\n        /* \"#utility.yul\":6513:6539   */\n      swap1\n      pop\n        /* \"#utility.yul\":6549:6620   */\n      tag_264\n        /* \"#utility.yul\":6617:6618   */\n      0x00\n        /* \"#utility.yul\":6606:6615   */\n      dup4\n        /* \"#utility.yul\":6602:6619   */\n      add\n        /* \"#utility.yul\":6593:6599   */\n      dup5\n        /* \"#utility.yul\":6549:6620   */\n      tag_218\n      jump\t// in\n    tag_264:\n        /* \"#utility.yul\":6503:6627   */\n      swap3\n      swap2\n      pop\n      pop\n      jump\t// out\n        /* \"#utility.yul\":6633:7006   */\n    tag_30:\n      0x00\n        /* \"#utility.yul\":6814:6816   */\n      0x20\n        /* \"#utility.yul\":6803:6812   */\n      dup3\n        /* \"#utility.yul\":6799:6817   */\n      add\n        /* \"#utility.yul\":6791:6817   */\n      swap1\n      pop\n        /* \"#utility.yul\":6863:6872   */\n      dup2\n        /* \"#utility.yul\":6857:6861   */\n      dup2\n        /* \"#utility.yul\":6853:6873   */\n      sub\n        /* \"#utility.yul\":6849:6850   */\n      0x00\n        /* \"#utility.yul\":6838:6847   */\n      dup4\n        /* \"#utility.yul\":6834:6851   */\n      add\n        /* \"#utility.yul\":6827:6874   */\n      mstore\n        /* \"#utility.yul\":6891:6999   */\n      tag_266\n        /* \"#utility.yul\":6994:6998   */\n      dup2\n        /* \"#utility.yul\":6985:6991   */\n      dup5\n        /* \"#utility.yul\":6891:6999   */\n      tag_222\n      jump\t// in\n    tag_266:\n        /* \"#utility.yul\":6883:6999   */\n      swap1\n      pop\n        /* \"#utility.yul\":6781:7006   */\n      swap3\n      swap2\n      pop\n      pop\n      jump\t// out\n        /* \"#utility.yul\":7012:7321   */\n    tag_15:\n      0x00\n        /* \"#utility.yul\":7161:7163   */\n      0x20\n        /* \"#utility.yul\":7150:7159   */\n      dup3\n        /* \"#utility.yul\":7146:7164   */\n      add\n        /* \"#utility.yul\":7138:7164   */\n      swap1\n      pop\n        /* \"#utility.yul\":7210:7219   */\n      dup2\n        /* \"#utility.yul\":7204:7208   */\n      dup2\n        /* \"#utility.yul\":7200:7220   */\n      sub\n        /* \"#utility.yul\":7196:7197   */\n      0x00\n        /* \"#utility.yul\":7185:7194   */\n      dup4\n        /* \"#utility.yul\":7181:7198   */\n      add\n        /* \"#utility.yul\":7174:7221   */\n      mstore\n        /* \"#utility.yul\":7238:7314   */\n      tag_268\n        /* \"#utility.yul\":7309:7313   */\n      dup2\n        /* \"#utility.yul\":7300:7306   */\n      dup5\n        /* \"#utility.yul\":7238:7314   */\n      tag_239\n      jump\t// in\n    tag_268:\n        /* \"#utility.yul\":7230:7314   */\n      swap1\n      pop\n        /* \"#utility.yul\":7128:7321   */\n      swap3\n      swap2\n      pop\n      pop\n      jump\t// out\n        /* \"#utility.yul\":7327:7746   */\n    tag_26:\n      0x00\n        /* \"#utility.yul\":7504:7506   */\n      0x40\n        /* \"#utility.yul\":7493:7502   */\n      dup3\n        /* \"#utility.yul\":7489:7507   */\n      add\n        /* \"#utility.yul\":7481:7507   */\n      swap1\n      pop\n        /* \"#utility.yul\":7553:7562   */\n      dup2\n        /* \"#utility.yul\":7547:7551   */\n      dup2\n        /* \"#utility.yul\":7543:7563   */\n      sub\n        /* \"#utility.yul\":7539:7540   */\n      0x00\n        /* \"#utility.yul\":7528:7537   */\n      dup4\n        /* \"#utility.yul\":7524:7541   */\n      add\n        /* \"#utility.yul\":7517:7564   */\n      mstore\n        /* \"#utility.yul\":7581:7657   */\n      tag_270\n        /* \"#utility.yul\":7652:7656   */\n      dup2\n        /* \"#utility.yul\":7643:7649   */\n      dup6\n        /* \"#utility.yul\":7581:7657   */\n      tag_239\n      jump\t// in\n    tag_270:\n        /* \"#utility.yul\":7573:7657   */\n      swap1\n      pop\n        /* \"#utility.yul\":7667:7739   */\n      tag_271\n        /* \"#utility.yul\":7735:7737   */\n      0x20\n        /* \"#utility.yul\":7724:7733   */\n      dup4\n        /* \"#utility.yul\":7720:7738   */\n      add\n        /* \"#utility.yul\":7711:7717   */\n      dup5\n        /* \"#utility.yul\":7667:7739   */\n      tag_259\n      jump\t// in\n    tag_271:\n        /* \"#utility.yul\":7471:7746   */\n      swap4\n      swap3\n      pop\n      pop\n      pop\n      jump\t// out\n        /* \"#utility.yul\":7752:8171   */\n    tag_59:\n      0x00\n        /* \"#utility.yul\":7956:7958   */\n      0x20\n        /* \"#utility.yul\":7945:7954   */\n      dup3\n        /* \"#utility.yul\":7941:7959   */\n      add\n        /* \"#utility.yul\":7933:7959   */\n      swap1\n      pop\n        /* \"#utility.yul\":8005:8014   */\n      dup2\n        /* \"#utility.yul\":7999:8003   */\n      dup2\n        /* \"#utility.yul\":7995:8015   */\n      sub\n        /* \"#utility.yul\":7991:7992   */\n      0x00\n        /* \"#utility.yul\":7980:7989   */\n      dup4\n        /* \"#utility.yul\":7976:7993   */\n      add\n        /* \"#utility.yul\":7969:8016   */\n      mstore\n        /* \"#utility.yul\":8033:8164   */\n      tag_273\n        /* \"#utility.yul\":8159:8163   */\n      dup2\n        /* \"#utility.yul\":8033:8164   */\n      tag_248\n      jump\t// in\n    tag_273:\n        /* \"#utility.yul\":8025:8164   */\n      swap1\n      pop\n        /* \"#utility.yul\":7923:8171   */\n      swap2\n      swap1\n      pop\n      jump\t// out\n        /* \"#utility.yul\":8177:8596   */\n    tag_112:\n      0x00\n        /* \"#utility.yul\":8381:8383   */\n      0x20\n        /* \"#utility.yul\":8370:8379   */\n      dup3\n        /* \"#utility.yul\":8366:8384   */\n      add\n        /* \"#utility.yul\":8358:8384   */\n      swap1\n      pop\n        /* \"#utility.yul\":8430:8439   */\n      dup2\n        /* \"#utility.yul\":8424:8428   */\n      dup2\n        /* \"#utility.yul\":8420:8440   */\n      sub\n        /* \"#utility.yul\":8416:8417   */\n      0x00\n        /* \"#utility.yul\":8405:8414   */\n      dup4\n        /* \"#utility.yul\":8401:8418   */\n      add\n        /* \"#utility.yul\":8394:8441   */\n      mstore\n        /* \"#utility.yul\":8458:8589   */\n      tag_275\n        /* \"#utility.yul\":8584:8588   */\n      dup2\n        /* \"#utility.yul\":8458:8589   */\n      tag_254\n      jump\t// in\n    tag_275:\n        /* \"#utility.yul\":8450:8589   */\n      swap1\n      pop\n        /* \"#utility.yul\":8348:8596   */\n      swap2\n      swap1\n      pop\n      jump\t// out\n        /* \"#utility.yul\":8602:8731   */\n    tag_160:\n      0x00\n        /* \"#utility.yul\":8663:8683   */\n      tag_277\n      tag_278\n      jump\t// in\n    tag_277:\n        /* \"#utility.yul\":8653:8683   */\n      swap1\n      pop\n        /* \"#utility.yul\":8692:8725   */\n      tag_279\n        /* \"#utility.yul\":8720:8724   */\n      dup3\n        /* \"#utility.yul\":8712:8718   */\n      dup3\n        /* \"#utility.yul\":8692:8725   */\n      tag_280\n      jump\t// in\n    tag_279:\n        /* \"#utility.yul\":8643:8731   */\n      swap2\n      swap1\n      pop\n      jump\t// out\n        /* \"#utility.yul\":8737:8812   */\n    tag_278:\n      0x00\n        /* \"#utility.yul\":8803:8805   */\n      0x40\n        /* \"#utility.yul\":8797:8806   */\n      mload\n        /* \"#utility.yul\":8787:8806   */\n      swap1\n      pop\n        /* \"#utility.yul\":8777:8812   */\n      swap1\n      jump\t// out\n        /* \"#utility.yul\":8818:9125   */\n    tag_159:\n      0x00\n        /* \"#utility.yul\":8969:8987   */\n      0xffffffffffffffff\n        /* \"#utility.yul\":8961:8967   */\n      dup3\n        /* \"#utility.yul\":8958:8988   */\n      gt\n        /* \"#utility.yul\":8955:8957   */\n      iszero\n      tag_283\n      jumpi\n        /* \"#utility.yul\":8991:9009   */\n      tag_284\n      tag_285\n      jump\t// in\n    tag_284:\n        /* \"#utility.yul\":8955:8957   */\n    tag_283:\n        /* \"#utility.yul\":9029:9058   */\n      tag_286\n        /* \"#utility.yul\":9051:9057   */\n      dup3\n        /* \"#utility.yul\":9029:9058   */\n      tag_247\n      jump\t// in\n    tag_286:\n        /* \"#utility.yul\":9021:9058   */\n      swap1\n      pop\n        /* \"#utility.yul\":9113:9117   */\n      0x20\n        /* \"#utility.yul\":9107:9111   */\n      dup2\n        /* \"#utility.yul\":9103:9118   */\n      add\n        /* \"#utility.yul\":9095:9118   */\n      swap1\n      pop\n        /* \"#utility.yul\":8884:9125   */\n      swap2\n      swap1\n      pop\n      jump\t// out\n        /* \"#utility.yul\":9131:9263   */\n    tag_229:\n      0x00\n        /* \"#utility.yul\":9221:9224   */\n      dup2\n        /* \"#utility.yul\":9213:9224   */\n      swap1\n      pop\n        /* \"#utility.yul\":9251:9255   */\n      0x20\n        /* \"#utility.yul\":9246:9249   */\n      dup3\n        /* \"#utility.yul\":9242:9256   */\n      add\n        /* \"#utility.yul\":9234:9256   */\n      swap1\n      pop\n        /* \"#utility.yul\":9203:9263   */\n      swap2\n      swap1\n      pop\n      jump\t// out\n        /* \"#utility.yul\":9269:9383   */\n    tag_225:\n      0x00\n        /* \"#utility.yul\":9370:9375   */\n      dup2\n        /* \"#utility.yul\":9364:9376   */\n      mload\n        /* \"#utility.yul\":9354:9376   */\n      swap1\n      pop\n        /* \"#utility.yul\":9343:9383   */\n      swap2\n      swap1\n      pop\n      jump\t// out\n        /* \"#utility.yul\":9389:9487   */\n    tag_242:\n      0x00\n        /* \"#utility.yul\":9474:9479   */\n      dup2\n        /* \"#utility.yul\":9468:9480   */\n      mload\n        /* \"#utility.yul\":9458:9480   */\n      swap1\n      pop\n        /* \"#utility.yul\":9447:9487   */\n      swap2\n      swap1\n      pop\n      jump\t// out\n        /* \"#utility.yul\":9493:9606   */\n    tag_235:\n      0x00\n        /* \"#utility.yul\":9595:9599   */\n      0x20\n        /* \"#utility.yul\":9590:9593   */\n      dup3\n        /* \"#utility.yul\":9586:9600   */\n      add\n        /* \"#utility.yul\":9578:9600   */\n      swap1\n      pop\n        /* \"#utility.yul\":9568:9606   */\n      swap2\n      swap1\n      pop\n      jump\t// out\n        /* \"#utility.yul\":9612:9796   */\n    tag_227:\n      0x00\n        /* \"#utility.yul\":9745:9751   */\n      dup3\n        /* \"#utility.yul\":9740:9743   */\n      dup3\n        /* \"#utility.yul\":9733:9752   */\n      mstore\n        /* \"#utility.yul\":9785:9789   */\n      0x20\n        /* \"#utility.yul\":9780:9783   */\n      dup3\n        /* \"#utility.yul\":9776:9790   */\n      add\n        /* \"#utility.yul\":9761:9790   */\n      swap1\n      pop\n        /* \"#utility.yul\":9723:9796   */\n      swap3\n      swap2\n      pop\n      pop\n      jump\t// out\n        /* \"#utility.yul\":9802:9970   */\n    tag_244:\n      0x00\n        /* \"#utility.yul\":9919:9925   */\n      dup3\n        /* \"#utility.yul\":9914:9917   */\n      dup3\n        /* \"#utility.yul\":9907:9926   */\n      mstore\n        /* \"#utility.yul\":9959:9963   */\n      0x20\n        /* \"#utility.yul\":9954:9957   */\n      dup3\n        /* \"#utility.yul\":9950:9964   */\n      add\n        /* \"#utility.yul\":9935:9964   */\n      swap1\n      pop\n        /* \"#utility.yul\":9897:9970   */\n      swap3\n      swap2\n      pop\n      pop\n      jump\t// out\n        /* \"#utility.yul\":9976:10145   */\n    tag_251:\n      0x00\n        /* \"#utility.yul\":10094:10100   */\n      dup3\n        /* \"#utility.yul\":10089:10092   */\n      dup3\n        /* \"#utility.yul\":10082:10101   */\n      mstore\n        /* \"#utility.yul\":10134:10138   */\n      0x20\n        /* \"#utility.yul\":10129:10132   */\n      dup3\n        /* \"#utility.yul\":10125:10139   */\n      add\n        /* \"#utility.yul\":10110:10139   */\n      swap1\n      pop\n        /* \"#utility.yul\":10072:10145   */\n      swap3\n      swap2\n      pop\n      pop\n      jump\t// out\n        /* \"#utility.yul\":10151:10456   */\n    tag_88:\n      0x00\n        /* \"#utility.yul\":10210:10230   */\n      tag_295\n        /* \"#utility.yul\":10228:10229   */\n      dup3\n        /* \"#utility.yul\":10210:10230   */\n      tag_262\n      jump\t// in\n    tag_295:\n        /* \"#utility.yul\":10205:10230   */\n      swap2\n      pop\n        /* \"#utility.yul\":10244:10264   */\n      tag_296\n        /* \"#utility.yul\":10262:10263   */\n      dup4\n        /* \"#utility.yul\":10244:10264   */\n      tag_262\n      jump\t// in\n    tag_296:\n        /* \"#utility.yul\":10239:10264   */\n      swap3\n      pop\n        /* \"#utility.yul\":10398:10399   */\n      dup3\n        /* \"#utility.yul\":10330:10396   */\n      0xffffffffffffffffffffffffffffffffffffffffffffffffffffffffffffffff\n        /* \"#utility.yul\":10326:10400   */\n      sub\n        /* \"#utility.yul\":10323:10324   */\n      dup3\n        /* \"#utility.yul\":10320:10401   */\n      gt\n        /* \"#utility.yul\":10317:10319   */\n      iszero\n      tag_297\n      jumpi\n        /* \"#utility.yul\":10404:10422   */\n      tag_298\n      tag_299\n      jump\t// in\n    tag_298:\n        /* \"#utility.yul\":10317:10319   */\n    tag_297:\n        /* \"#utility.yul\":10448:10449   */\n      dup3\n        /* \"#utility.yul\":10445:10446   */\n      dup3\n        /* \"#utility.yul\":10441:10450   */\n      add\n        /* \"#utility.yul\":10434:10450   */\n      swap1\n      pop\n        /* \"#utility.yul\":10195:10456   */\n      swap3\n      swap2\n      pop\n      pop\n      jump\t// out\n        /* \"#utility.yul\":10462:10647   */\n    tag_91:\n      0x00\n        /* \"#utility.yul\":10519:10539   */\n      tag_301\n        /* \"#utility.yul\":10537:10538   */\n      dup3\n        /* \"#utility.yul\":10519:10539   */\n      tag_262\n      jump\t// in\n    tag_301:\n        /* \"#utility.yul\":10514:10539   */\n      swap2\n      pop\n        /* \"#utility.yul\":10553:10573   */\n      tag_302\n        /* \"#utility.yul\":10571:10572   */\n      dup4\n        /* \"#utility.yul\":10553:10573   */\n      tag_262\n      jump\t// in\n    tag_302:\n        /* \"#utility.yul\":10548:10573   */\n      swap3\n      pop\n        /* \"#utility.yul\":10592:10593   */\n      dup3\n        /* \"#utility.yul\":10582:10584   */\n      tag_303\n      jumpi\n        /* \"#utility.yul\":10597:10615   */\n      tag_304\n      tag_305\n      jump\t// in\n    tag_304:\n        /* \"#utility.yul\":10582:10584   */\n    tag_303:\n        /* \"#utility.yul\":10639:10640   */\n      dup3\n        /* \"#utility.yul\":10636:10637   */\n      dup3\n        /* \"#utility.yul\":10632:10641   */\n      div\n        /* \"#utility.yul\":10627:10641   */\n      swap1\n      pop\n        /* \"#utility.yul\":10504:10647   */\n      swap3\n      swap2\n      pop\n      pop\n      jump\t// out\n        /* \"#utility.yul\":10653:10844   */\n    tag_137:\n      0x00\n        /* \"#utility.yul\":10713:10733   */\n      tag_307\n        /* \"#utility.yul\":10731:10732   */\n      dup3\n        /* \"#utility.yul\":10713:10733   */\n      tag_262\n      jump\t// in\n    tag_307:\n        /* \"#utility.yul\":10708:10733   */\n      swap2\n      pop\n        /* \"#utility.yul\":10747:10767   */\n      tag_308\n        /* \"#utility.yul\":10765:10766   */\n      dup4\n        /* \"#utility.yul\":10747:10767   */\n      tag_262\n      jump\t// in\n    tag_308:\n        /* \"#utility.yul\":10742:10767   */\n      swap3\n      pop\n        /* \"#utility.yul\":10786:10787   */\n      dup3\n        /* \"#utility.yul\":10783:10784   */\n      dup3\n        /* \"#utility.yul\":10780:10788   */\n      lt\n        /* \"#utility.yul\":10777:10779   */\n      iszero\n      tag_309\n      jumpi\n        /* \"#utility.yul\":10791:10809   */\n      tag_310\n      tag_299\n      jump\t// in\n    tag_310:\n        /* \"#utility.yul\":10777:10779   */\n    tag_309:\n        /* \"#utility.yul\":10836:10837   */\n      dup3\n        /* \"#utility.yul\":10833:10834   */\n      dup3\n        /* \"#utility.yul\":10829:10838   */\n      sub\n        /* \"#utility.yul\":10821:10838   */\n      swap1\n      pop\n        /* \"#utility.yul\":10698:10844   */\n      swap3\n      swap2\n      pop\n      pop\n      jump\t// out\n        /* \"#utility.yul\":10850:10946   */\n    tag_221:\n      0x00\n        /* \"#utility.yul\":10916:10940   */\n      tag_312\n        /* \"#utility.yul\":10934:10939   */\n      dup3\n        /* \"#utility.yul\":10916:10940   */\n      tag_313\n      jump\t// in\n    tag_312:\n        /* \"#utility.yul\":10905:10940   */\n      swap1\n      pop\n        /* \"#utility.yul\":10895:10946   */\n      swap2\n      swap1\n      pop\n      jump\t// out\n        /* \"#utility.yul\":10952:11029   */\n    tag_238:\n      0x00\n        /* \"#utility.yul\":11018:11023   */\n      dup2\n        /* \"#utility.yul\":11007:11023   */\n      swap1\n      pop\n        /* \"#utility.yul\":10997:11029   */\n      swap2\n      swap1\n      pop\n      jump\t// out\n        /* \"#utility.yul\":11035:11149   */\n    tag_315:\n      0x00\n        /* \"#utility.yul\":11119:11143   */\n      tag_317\n        /* \"#utility.yul\":11137:11142   */\n      dup3\n        /* \"#utility.yul\":11119:11143   */\n      tag_221\n      jump\t// in\n    tag_317:\n        /* \"#utility.yul\":11108:11143   */\n      swap1\n      pop\n        /* \"#utility.yul\":11098:11149   */\n      swap2\n      swap1\n      pop\n      jump\t// out\n        /* \"#utility.yul\":11155:11281   */\n    tag_313:\n      0x00\n        /* \"#utility.yul\":11232:11274   */\n      0xffffffffffffffffffffffffffffffffffffffff\n        /* \"#utility.yul\":11225:11230   */\n      dup3\n        /* \"#utility.yul\":11221:11275   */\n      and\n        /* \"#utility.yul\":11210:11275   */\n      swap1\n      pop\n        /* \"#utility.yul\":11200:11281   */\n      swap2\n      swap1\n      pop\n      jump\t// out\n        /* \"#utility.yul\":11287:11364   */\n    tag_262:\n      0x00\n        /* \"#utility.yul\":11353:11358   */\n      dup2\n        /* \"#utility.yul\":11342:11358   */\n      swap1\n      pop\n        /* \"#utility.yul\":11332:11364   */\n      swap2\n      swap1\n      pop\n      jump\t// out\n        /* \"#utility.yul\":11370:11524   */\n    tag_163:\n        /* \"#utility.yul\":11454:11460   */\n      dup3\n        /* \"#utility.yul\":11449:11452   */\n      dup2\n        /* \"#utility.yul\":11444:11447   */\n      dup4\n        /* \"#utility.yul\":11431:11461   */\n      calldatacopy\n        /* \"#utility.yul\":11516:11517   */\n      0x00\n        /* \"#utility.yul\":11507:11513   */\n      dup4\n        /* \"#utility.yul\":11502:11505   */\n      dup4\n        /* \"#utility.yul\":11498:11514   */\n      add\n        /* \"#utility.yul\":11491:11518   */\n      mstore\n        /* \"#utility.yul\":11421:11524   */\n      pop\n      pop\n      pop\n      jump\t// out\n        /* \"#utility.yul\":11530:11837   */\n    tag_170:\n        /* \"#utility.yul\":11598:11599   */\n      0x00\n        /* \"#utility.yul\":11608:11721   */\n    tag_322:\n        /* \"#utility.yul\":11622:11628   */\n      dup4\n        /* \"#utility.yul\":11619:11620   */\n      dup2\n        /* \"#utility.yul\":11616:11629   */\n      lt\n        /* \"#utility.yul\":11608:11721   */\n      iszero\n      tag_324\n      jumpi\n        /* \"#utility.yul\":11707:11708   */\n      dup1\n        /* \"#utility.yul\":11702:11705   */\n      dup3\n        /* \"#utility.yul\":11698:11709   */\n      add\n        /* \"#utility.yul\":11692:11710   */\n      mload\n        /* \"#utility.yul\":11688:11689   */\n      dup2\n        /* \"#utility.yul\":11683:11686   */\n      dup5\n        /* \"#utility.yul\":11679:11690   */\n      add\n        /* \"#utility.yul\":11672:11711   */\n      mstore\n        /* \"#utility.yul\":11644:11646   */\n      0x20\n        /* \"#utility.yul\":11641:11642   */\n      dup2\n        /* \"#utility.yul\":11637:11647   */\n      add\n        /* \"#utility.yul\":11632:11647   */\n      swap1\n      pop\n        /* \"#utility.yul\":11608:11721   */\n      jump(tag_322)\n    tag_324:\n        /* \"#utility.yul\":11739:11745   */\n      dup4\n        /* \"#utility.yul\":11736:11737   */\n      dup2\n        /* \"#utility.yul\":11733:11746   */\n      gt\n        /* \"#utility.yul\":11730:11732   */\n      iszero\n      tag_325\n      jumpi\n        /* \"#utility.yul\":11819:11820   */\n      0x00\n        /* \"#utility.yul\":11810:11816   */\n      dup5\n        /* \"#utility.yul\":11805:11808   */\n      dup5\n        /* \"#utility.yul\":11801:11817   */\n      add\n        /* \"#utility.yul\":11794:11821   */\n      mstore\n        /* \"#utility.yul\":11730:11732   */\n    tag_325:\n        /* \"#utility.yul\":11579:11837   */\n      pop\n      pop\n      pop\n      pop\n      jump\t// out\n        /* \"#utility.yul\":11843:12124   */\n    tag_280:\n        /* \"#utility.yul\":11926:11953   */\n      tag_327\n        /* \"#utility.yul\":11948:11952   */\n      dup3\n        /* \"#utility.yul\":11926:11953   */\n      tag_247\n      jump\t// in\n    tag_327:\n        /* \"#utility.yul\":11918:11924   */\n      dup2\n        /* \"#utility.yul\":11914:11954   */\n      add\n        /* \"#utility.yul\":12056:12062   */\n      dup2\n        /* \"#utility.yul\":12044:12054   */\n      dup2\n        /* \"#utility.yul\":12041:12063   */\n      lt\n        /* \"#utility.yul\":12020:12038   */\n      0xffffffffffffffff\n        /* \"#utility.yul\":12008:12018   */\n      dup3\n        /* \"#utility.yul\":12005:12039   */\n      gt\n        /* \"#utility.yul\":12002:12064   */\n      or\n        /* \"#utility.yul\":11999:12001   */\n      iszero\n      tag_328\n      jumpi\n        /* \"#utility.yul\":12067:12085   */\n      tag_329\n      tag_285\n      jump\t// in\n    tag_329:\n        /* \"#utility.yul\":11999:12001   */\n    tag_328:\n        /* \"#utility.yul\":12107:12117   */\n      dup1\n        /* \"#utility.yul\":12103:12105   */\n      0x40\n        /* \"#utility.yul\":12096:12118   */\n      mstore\n        /* \"#utility.yul\":11886:12124   */\n      pop\n      pop\n      pop\n      jump\t// out\n        /* \"#utility.yul\":12130:12363   */\n    tag_55:\n      0x00\n        /* \"#utility.yul\":12192:12216   */\n      tag_331\n        /* \"#utility.yul\":12210:12215   */\n      dup3\n        /* \"#utility.yul\":12192:12216   */\n      tag_262\n      jump\t// in\n    tag_331:\n        /* \"#utility.yul\":12183:12216   */\n      swap2\n      pop\n        /* \"#utility.yul\":12238:12304   */\n      0xffffffffffffffffffffffffffffffffffffffffffffffffffffffffffffffff\n        /* \"#utility.yul\":12231:12236   */\n      dup3\n        /* \"#utility.yul\":12228:12305   */\n      eq\n        /* \"#utility.yul\":12225:12227   */\n      iszero\n      tag_332\n      jumpi\n        /* \"#utility.yul\":12308:12326   */\n      tag_333\n      tag_299\n      jump\t// in\n    tag_333:\n        /* \"#utility.yul\":12225:12227   */\n    tag_332:\n        /* \"#utility.yul\":12355:12356   */\n      0x01\n        /* \"#utility.yul\":12348:12353   */\n      dup3\n        /* \"#utility.yul\":12344:12357   */\n      add\n        /* \"#utility.yul\":12337:12357   */\n      swap1\n      pop\n        /* \"#utility.yul\":12173:12363   */\n      swap2\n      swap1\n      pop\n      jump\t// out\n        /* \"#utility.yul\":12369:12549   */\n    tag_299:\n        /* \"#utility.yul\":12417:12494   */\n      0x4e487b7100000000000000000000000000000000000000000000000000000000\n        /* \"#utility.yul\":12414:12415   */\n      0x00\n        /* \"#utility.yul\":12407:12495   */\n      mstore\n        /* \"#utility.yul\":12514:12518   */\n      0x11\n        /* \"#utility.yul\":12511:12512   */\n      0x04\n        /* \"#utility.yul\":12504:12519   */\n      mstore\n        /* \"#utility.yul\":12538:12542   */\n      0x24\n        /* \"#utility.yul\":12535:12536   */\n      0x00\n        /* \"#utility.yul\":12528:12543   */\n      revert\n        /* \"#utility.yul\":12555:12735   */\n    tag_305:\n        /* \"#utility.yul\":12603:12680   */\n      0x4e487b7100000000000000000000000000000000000000000000000000000000\n        /* \"#utility.yul\":12600:12601   */\n      0x00\n        /* \"#utility.yul\":12593:12681   */\n      mstore\n        /* \"#utility.yul\":12700:12704   */\n      0x12\n        /* \"#utility.yul\":12697:12698   */\n      0x04\n        /* \"#utility.yul\":12690:12705   */\n      mstore\n        /* \"#utility.yul\":12724:12728   */\n      0x24\n        /* \"#utility.yul\":12721:12722   */\n      0x00\n        /* \"#utility.yul\":12714:12729   */\n      revert\n        /* \"#utility.yul\":12741:12921   */\n    tag_285:\n        /* \"#utility.yul\":12789:12866   */\n      0x4e487b7100000000000000000000000000000000000000000000000000000000\n        /* \"#utility.yul\":12786:12787   */\n      0x00\n        /* \"#utility.yul\":12779:12867   */\n      mstore\n        /* \"#utility.yul\":12886:12890   */\n      0x41\n        /* \"#utility.yul\":12883:12884   */\n      0x04\n        /* \"#utility.yul\":12876:12891   */\n      mstore\n        /* \"#utility.yul\":12910:12914   */\n      0x24\n        /* \"#utility.yul\":12907:12908   */\n      0x00\n        /* \"#utility.yul\":12900:12915   */\n      revert\n        /* \"#utility.yul\":12927:13029   */\n    tag_247:\n      0x00\n        /* \"#utility.yul\":13019:13021   */\n      0x1f\n        /* \"#utility.yul\":13015:13022   */\n      not\n        /* \"#utility.yul\":13010:13012   */\n      0x1f\n        /* \"#utility.yul\":13003:13008   */\n      dup4\n        /* \"#utility.yul\":12999:13013   */\n      add\n        /* \"#utility.yul\":12995:13023   */\n      and\n        /* \"#utility.yul\":12985:13023   */\n      swap1\n      pop\n        /* \"#utility.yul\":12975:13029   */\n      swap2\n      swap1\n      pop\n      jump\t// out\n        /* \"#utility.yul\":13035:13217   */\n    tag_253:\n        /* \"#utility.yul\":13175:13209   */\n      0x4e6f2065786973746520756e6120706f6c697a6120636f6e206573612069642e\n        /* \"#utility.yul\":13171:13172   */\n      0x00\n        /* \"#utility.yul\":13163:13169   */\n      dup3\n        /* \"#utility.yul\":13159:13173   */\n      add\n        /* \"#utility.yul\":13152:13210   */\n      mstore\n        /* \"#utility.yul\":13141:13217   */\n      pop\n      jump\t// out\n        /* \"#utility.yul\":13223:13450   */\n    tag_258:\n        /* \"#utility.yul\":13363:13397   */\n      0x496e737572616e63652049442068617320616c7265616479206265656e207265\n        /* \"#utility.yul\":13359:13360   */\n      0x00\n        /* \"#utility.yul\":13351:13357   */\n      dup3\n        /* \"#utility.yul\":13347:13361   */\n      add\n        /* \"#utility.yul\":13340:13398   */\n      mstore\n        /* \"#utility.yul\":13432:13442   */\n      0x6769737465726564000000000000000000000000000000000000000000000000\n        /* \"#utility.yul\":13427:13429   */\n      0x20\n        /* \"#utility.yul\":13419:13425   */\n      dup3\n        /* \"#utility.yul\":13415:13430   */\n      add\n        /* \"#utility.yul\":13408:13443   */\n      mstore\n        /* \"#utility.yul\":13329:13450   */\n      pop\n      jump\t// out\n        /* \"#utility.yul\":13456:13578   */\n    tag_174:\n        /* \"#utility.yul\":13529:13553   */\n      tag_341\n        /* \"#utility.yul\":13547:13552   */\n      dup2\n        /* \"#utility.yul\":13529:13553   */\n      tag_238\n      jump\t// in\n    tag_341:\n        /* \"#utility.yul\":13522:13527   */\n      dup2\n        /* \"#utility.yul\":13519:13554   */\n      eq\n        /* \"#utility.yul\":13509:13511   */\n      tag_342\n      jumpi\n        /* \"#utility.yul\":13568:13569   */\n      0x00\n        /* \"#utility.yul\":13565:13566   */\n      dup1\n        /* \"#utility.yul\":13558:13570   */\n      revert\n        /* \"#utility.yul\":13509:13511   */\n    tag_342:\n        /* \"#utility.yul\":13499:13578   */\n      pop\n      jump\t// out\n        /* \"#utility.yul\":13584:13742   */\n    tag_189:\n        /* \"#utility.yul\":13675:13717   */\n      tag_344\n        /* \"#utility.yul\":13711:13716   */\n      dup2\n        /* \"#utility.yul\":13675:13717   */\n      tag_315\n      jump\t// in\n    tag_344:\n        /* \"#utility.yul\":13668:13673   */\n      dup2\n        /* \"#utility.yul\":13665:13718   */\n      eq\n        /* \"#utility.yul\":13655:13657   */\n      tag_345\n      jumpi\n        /* \"#utility.yul\":13732:13733   */\n      0x00\n        /* \"#utility.yul\":13729:13730   */\n      dup1\n        /* \"#utility.yul\":13722:13734   */\n      revert\n        /* \"#utility.yul\":13655:13657   */\n    tag_345:\n        /* \"#utility.yul\":13645:13742   */\n      pop\n      jump\t// out\n        /* \"#utility.yul\":13748:13870   */\n    tag_193:\n        /* \"#utility.yul\":13821:13845   */\n      tag_347\n        /* \"#utility.yul\":13839:13844   */\n      dup2\n        /* \"#utility.yul\":13821:13845   */\n      tag_262\n      jump\t// in\n    tag_347:\n        /* \"#utility.yul\":13814:13819   */\n      dup2\n        /* \"#utility.yul\":13811:13846   */\n      eq\n        /* \"#utility.yul\":13801:13803   */\n      tag_348\n      jumpi\n        /* \"#utility.yul\":13860:13861   */\n      0x00\n        /* \"#utility.yul\":13857:13858   */\n      dup1\n        /* \"#utility.yul\":13850:13862   */\n      revert\n        /* \"#utility.yul\":13801:13803   */\n    tag_348:\n        /* \"#utility.yul\":13791:13870   */\n      pop\n      jump\t// out\n\n    auxdata: 0xa264697066735822122094409d05547f36721a0481d00ac1dbf9b14795694599dd44694dc6026395c86a64736f6c63430008030033\n}\n",
    "bytecode": {
      "linkReferences": {},
      "object": "608060405234801561001057600080fd5b50336000806101000a81548173ffffffffffffffffffffffffffffffffffffffff021916908373ffffffffffffffffffffffffffffffffffffffff1602179055506116ff806100606000396000f3fe608060405234801561001057600080fd5b50600436106100885760003560e01c80639499e0181161005b5780639499e0181461012a578063a15b651614610134578063d1f6d4c514610164578063dba2812a1461019457610088565b806311165ee71461008d57806337922b0c146100ab5780634cb74b19146100db57806392806a041461010c575b600080fd5b6100956101b0565b6040516100a29190611251565b60405180910390f35b6100c560048036038101906100c09190610fb7565b610231565b6040516100d29190611214565b60405180910390f35b6100f560048036038101906100f09190610fb7565b610310565b604051610103929190611273565b60405180910390f35b61011461045e565b604051610121919061122f565b60405180910390f35b6101326104b6565b005b61014e60048036038101906101499190610fb7565b610547565b60405161015b9190611251565b60405180910390f35b61017e60048036038101906101799190611009565b61068e565b60405161018b9190611251565b60405180910390f35b6101ae60048036038101906101a991906110c9565b610758565b005b606060005b60068054905081101561022d576102188261021360068481548110610203577f4e487b7100000000000000000000000000000000000000000000000000000000600052603260045260246000fd5b9060005260206000200154610547565b61068e565b9150808061022590611525565b9150506101b5565b5090565b60008073ffffffffffffffffffffffffffffffffffffffff166005600084815260200190815260200160002060009054906101000a900473ffffffffffffffffffffffffffffffffffffffff1673ffffffffffffffffffffffffffffffffffffffff1614156102d5576040517f08c379a00000000000000000000000000000000000000000000000000000000081526004016102cc906112a3565b60405180910390fd5b6005600083815260200190815260200160002060009054906101000a900473ffffffffffffffffffffffffffffffffffffffff169050919050565b606060008060001b6004600085815260200190815260200160002054141561033757600080fd5b60026000600460008681526020019081526020016000205481526020019081526020016000206001600085815260200190815260200160002054815481106103a8577f4e487b7100000000000000000000000000000000000000000000000000000000600052603260045260246000fd5b9060005260206000200160009054906101000a900473ffffffffffffffffffffffffffffffffffffffff1673ffffffffffffffffffffffffffffffffffffffff1663236f45d96040518163ffffffff1660e01b815260040160006040518083038186803b15801561041857600080fd5b505afa15801561042c573d6000803e3d6000fd5b505050506040513d6000823e3d601f19601f820116820180604052508101906104559190611075565b91509150915091565b606060068054806020026020016040519081016040528092919081815260200182805480156104ac57602002820191906000526020600020905b815481526020019060010190808311610498575b5050505050905090565b60008054906101000a900473ffffffffffffffffffffffffffffffffffffffff1673ffffffffffffffffffffffffffffffffffffffff163373ffffffffffffffffffffffffffffffffffffffff161461050e57600080fd5b60008054906101000a900473ffffffffffffffffffffffffffffffffffffffff1673ffffffffffffffffffffffffffffffffffffffff16ff5b60608060005b6002600085815260200190815260200160002080549050811015610687576002600085815260200190815260200160002081815481106105b6577f4e487b7100000000000000000000000000000000000000000000000000000000600052603260045260246000fd5b9060005260206000200160009054906101000a900473ffffffffffffffffffffffffffffffffffffffff1673ffffffffffffffffffffffffffffffffffffffff1663236f45d96040518163ffffffff1660e01b815260040160006040518083038186803b15801561062657600080fd5b505afa15801561063a573d6000803e3d6000fd5b505050506040513d6000823e3d601f19601f820116820180604052508101906106639190611075565b5080925050610672838361068e565b9250808061067f90611525565b91505061054d565b5050919050565b606060008351905060008351826106a5919061139f565b905060006020601f87516106b9919061139f565b6106c391906113f5565b905060006020601f87516106d7919061139f565b6106e191906113f5565b905060405183815260005b838110156107135780600101602002890151816001016020028301528060010190506106ec565b5060005b828110156107405780600101602002880151868260010160200201830152806001019050610717565b50836020018101604052809550505050505092915050565b8073ffffffffffffffffffffffffffffffffffffffff1663297e6306306040518263ffffffff1660e01b81526004016107919190611214565b600060405180830381600087803b1580156107ab57600080fd5b505af11580156107bf573d6000803e3d6000fd5b505050506000801b600460008373ffffffffffffffffffffffffffffffffffffffff16635d1ca6316040518163ffffffff1660e01b815260040160206040518083038186803b15801561081157600080fd5b505afa158015610825573d6000803e3d6000fd5b505050506040513d601f19601f820116820180604052508101906108499190610fe0565b81526020019081526020016000205414610898576040517f08c379a000000000000000000000000000000000000000000000000000000000815260040161088f906112c3565b60405180910390fd5b600360008273ffffffffffffffffffffffffffffffffffffffff1663fc1c7a706040518163ffffffff1660e01b815260040160206040518083038186803b1580156108e257600080fd5b505afa1580156108f6573d6000803e3d6000fd5b505050506040513d601f19601f8201168201806040525081019061091a9190610fe0565b815260200190815260200160002060009054906101000a900460ff16610a8a5760068173ffffffffffffffffffffffffffffffffffffffff1663fc1c7a706040518163ffffffff1660e01b815260040160206040518083038186803b15801561098257600080fd5b505afa158015610996573d6000803e3d6000fd5b505050506040513d601f19601f820116820180604052508101906109ba9190610fe0565b90806001815401808255809150506001900390600052602060002001600090919091909150556001600360008373ffffffffffffffffffffffffffffffffffffffff1663fc1c7a706040518163ffffffff1660e01b815260040160206040518083038186803b158015610a2c57600080fd5b505afa158015610a40573d6000803e3d6000fd5b505050506040513d601f19601f82011682018060405250810190610a649190610fe0565b815260200190815260200160002060006101000a81548160ff0219169083151502179055505b600260008273ffffffffffffffffffffffffffffffffffffffff1663fc1c7a706040518163ffffffff1660e01b815260040160206040518083038186803b158015610ad457600080fd5b505afa158015610ae8573d6000803e3d6000fd5b505050506040513d601f19601f82011682018060405250810190610b0c9190610fe0565b8152602001908152602001600020819080600181540180825580915050600190039060005260206000200160009091909190916101000a81548173ffffffffffffffffffffffffffffffffffffffff021916908373ffffffffffffffffffffffffffffffffffffffff1602179055506001600260008373ffffffffffffffffffffffffffffffffffffffff1663fc1c7a706040518163ffffffff1660e01b815260040160206040518083038186803b158015610bc757600080fd5b505afa158015610bdb573d6000803e3d6000fd5b505050506040513d601f19601f82011682018060405250810190610bff9190610fe0565b815260200190815260200160002080549050610c1b9190611426565b600160008373ffffffffffffffffffffffffffffffffffffffff16635d1ca6316040518163ffffffff1660e01b815260040160206040518083038186803b158015610c6557600080fd5b505afa158015610c79573d6000803e3d6000fd5b505050506040513d601f19601f82011682018060405250810190610c9d9190610fe0565b8152602001908152602001600020819055508073ffffffffffffffffffffffffffffffffffffffff1663fc1c7a706040518163ffffffff1660e01b815260040160206040518083038186803b158015610cf557600080fd5b505afa158015610d09573d6000803e3d6000fd5b505050506040513d601f19601f82011682018060405250810190610d2d9190610fe0565b600460008373ffffffffffffffffffffffffffffffffffffffff16635d1ca6316040518163ffffffff1660e01b815260040160206040518083038186803b158015610d7757600080fd5b505afa158015610d8b573d6000803e3d6000fd5b505050506040513d601f19601f82011682018060405250810190610daf9190610fe0565b81526020019081526020016000208190555080600560008373ffffffffffffffffffffffffffffffffffffffff16635d1ca6316040518163ffffffff1660e01b815260040160206040518083038186803b158015610e0c57600080fd5b505afa158015610e20573d6000803e3d6000fd5b505050506040513d601f19601f82011682018060405250810190610e449190610fe0565b815260200190815260200160002060006101000a81548173ffffffffffffffffffffffffffffffffffffffff021916908373ffffffffffffffffffffffffffffffffffffffff16021790555050565b6000610ea6610ea184611308565b6112e3565b905082815260208101848484011115610ebe57600080fd5b610ec98482856114b2565b509392505050565b6000610ee4610edf84611308565b6112e3565b905082815260208101848484011115610efc57600080fd5b610f078482856114c1565b509392505050565b600081359050610f1e81611684565b92915050565b600081519050610f3381611684565b92915050565b600082601f830112610f4a57600080fd5b8135610f5a848260208601610e93565b91505092915050565b600082601f830112610f7457600080fd5b8151610f84848260208601610ed1565b91505092915050565b600081359050610f9c8161169b565b92915050565b600081519050610fb1816116b2565b92915050565b600060208284031215610fc957600080fd5b6000610fd784828501610f0f565b91505092915050565b600060208284031215610ff257600080fd5b600061100084828501610f24565b91505092915050565b6000806040838503121561101c57600080fd5b600083013567ffffffffffffffff81111561103657600080fd5b61104285828601610f39565b925050602083013567ffffffffffffffff81111561105f57600080fd5b61106b85828601610f39565b9150509250929050565b6000806040838503121561108857600080fd5b600083015167ffffffffffffffff8111156110a257600080fd5b6110ae85828601610f63565b92505060206110bf85828601610fa2565b9150509250929050565b6000602082840312156110db57600080fd5b60006110e984828501610f8d565b91505092915050565b60006110fe8383611177565b60208301905092915050565b6111138161145a565b82525050565b600061112482611349565b61112e818561136c565b935061113983611339565b8060005b8381101561116a57815161115188826110f2565b975061115c8361135f565b92505060018101905061113d565b5085935050505092915050565b6111808161146c565b82525050565b600061119182611354565b61119b818561137d565b93506111ab8185602086016114c1565b6111b4816115fb565b840191505092915050565b60006111cc60208361138e565b91506111d78261160c565b602082019050919050565b60006111ef60288361138e565b91506111fa82611635565b604082019050919050565b61120e816114a8565b82525050565b6000602082019050611229600083018461110a565b92915050565b600060208201905081810360008301526112498184611119565b905092915050565b6000602082019050818103600083015261126b8184611186565b905092915050565b6000604082019050818103600083015261128d8185611186565b905061129c6020830184611205565b9392505050565b600060208201905081810360008301526112bc816111bf565b9050919050565b600060208201905081810360008301526112dc816111e2565b9050919050565b60006112ed6112fe565b90506112f982826114f4565b919050565b6000604051905090565b600067ffffffffffffffff821115611323576113226115cc565b5b61132c826115fb565b9050602081019050919050565b6000819050602082019050919050565b600081519050919050565b600081519050919050565b6000602082019050919050565b600082825260208201905092915050565b600082825260208201905092915050565b600082825260208201905092915050565b60006113aa826114a8565b91506113b5836114a8565b9250827fffffffffffffffffffffffffffffffffffffffffffffffffffffffffffffffff038211156113ea576113e961156e565b5b828201905092915050565b6000611400826114a8565b915061140b836114a8565b92508261141b5761141a61159d565b5b828204905092915050565b6000611431826114a8565b915061143c836114a8565b92508282101561144f5761144e61156e565b5b828203905092915050565b600061146582611488565b9050919050565b6000819050919050565b60006114818261145a565b9050919050565b600073ffffffffffffffffffffffffffffffffffffffff82169050919050565b6000819050919050565b82818337600083830152505050565b60005b838110156114df5780820151818401526020810190506114c4565b838111156114ee576000848401525b50505050565b6114fd826115fb565b810181811067ffffffffffffffff8211171561151c5761151b6115cc565b5b80604052505050565b6000611530826114a8565b91507fffffffffffffffffffffffffffffffffffffffffffffffffffffffffffffffff8214156115635761156261156e565b5b600182019050919050565b7f4e487b7100000000000000000000000000000000000000000000000000000000600052601160045260246000fd5b7f4e487b7100000000000000000000000000000000000000000000000000000000600052601260045260246000fd5b7f4e487b7100000000000000000000000000000000000000000000000000000000600052604160045260246000fd5b6000601f19601f8301169050919050565b7f4e6f2065786973746520756e6120706f6c697a6120636f6e206573612069642e600082015250565b7f496e737572616e63652049442068617320616c7265616479206265656e20726560008201527f6769737465726564000000000000000000000000000000000000000000000000602082015250565b61168d8161146c565b811461169857600080fd5b50565b6116a481611476565b81146116af57600080fd5b50565b6116bb816114a8565b81146116c657600080fd5b5056fea264697066735822122094409d05547f36721a0481d00ac1dbf9b14795694599dd44694dc6026395c86a64736f6c63430008030033",
      "opcodes": "PUSH1 0x80 PUSH1 0x40 MSTORE CALLVALUE DUP1 ISZERO PUSH2 0x10 JUMPI PUSH1 0x0 DUP1 REVERT JUMPDEST POP CALLER PUSH1 0x0 DUP1 PUSH2 0x100 EXP DUP2 SLOAD DUP2 PUSH20 0xFFFFFFFFFFFFFFFFFFFFFFFFFFFFFFFFFFFFFFFF MUL NOT AND SWAP1 DUP4 PUSH20 0xFFFFFFFFFFFFFFFFFFFFFFFFFFFFFFFFFFFFFFFF AND MUL OR SWAP1 SSTORE POP PUSH2 0x16FF DUP1 PUSH2 0x60 PUSH1 0x0 CODECOPY PUSH1 0x0 RETURN INVALID PUSH1 0x80 PUSH1 0x40 MSTORE CALLVALUE DUP1 ISZERO PUSH2 0x10 JUMPI PUSH1 0x0 DUP1 REVERT JUMPDEST POP PUSH1 0x4 CALLDATASIZE LT PUSH2 0x88 JUMPI PUSH1 0x0 CALLDATALOAD PUSH1 0xE0 SHR DUP1 PUSH4 0x9499E018 GT PUSH2 0x5B JUMPI DUP1 PUSH4 0x9499E018 EQ PUSH2 0x12A JUMPI DUP1 PUSH4 0xA15B6516 EQ PUSH2 0x134 JUMPI DUP1 PUSH4 0xD1F6D4C5 EQ PUSH2 0x164 JUMPI DUP1 PUSH4 0xDBA2812A EQ PUSH2 0x194 JUMPI PUSH2 0x88 JUMP JUMPDEST DUP1 PUSH4 0x11165EE7 EQ PUSH2 0x8D JUMPI DUP1 PUSH4 0x37922B0C EQ PUSH2 0xAB JUMPI DUP1 PUSH4 0x4CB74B19 EQ PUSH2 0xDB JUMPI DUP1 PUSH4 0x92806A04 EQ PUSH2 0x10C JUMPI JUMPDEST PUSH1 0x0 DUP1 REVERT JUMPDEST PUSH2 0x95 PUSH2 0x1B0 JUMP JUMPDEST PUSH1 0x40 MLOAD PUSH2 0xA2 SWAP2 SWAP1 PUSH2 0x1251 JUMP JUMPDEST PUSH1 0x40 MLOAD DUP1 SWAP2 SUB SWAP1 RETURN JUMPDEST PUSH2 0xC5 PUSH1 0x4 DUP1 CALLDATASIZE SUB DUP2 ADD SWAP1 PUSH2 0xC0 SWAP2 SWAP1 PUSH2 0xFB7 JUMP JUMPDEST PUSH2 0x231 JUMP JUMPDEST PUSH1 0x40 MLOAD PUSH2 0xD2 SWAP2 SWAP1 PUSH2 0x1214 JUMP JUMPDEST PUSH1 0x40 MLOAD DUP1 SWAP2 SUB SWAP1 RETURN JUMPDEST PUSH2 0xF5 PUSH1 0x4 DUP1 CALLDATASIZE SUB DUP2 ADD SWAP1 PUSH2 0xF0 SWAP2 SWAP1 PUSH2 0xFB7 JUMP JUMPDEST PUSH2 0x310 JUMP JUMPDEST PUSH1 0x40 MLOAD PUSH2 0x103 SWAP3 SWAP2 SWAP1 PUSH2 0x1273 JUMP JUMPDEST PUSH1 0x40 MLOAD DUP1 SWAP2 SUB SWAP1 RETURN JUMPDEST PUSH2 0x114 PUSH2 0x45E JUMP JUMPDEST PUSH1 0x40 MLOAD PUSH2 0x121 SWAP2 SWAP1 PUSH2 0x122F JUMP JUMPDEST PUSH1 0x40 MLOAD DUP1 SWAP2 SUB SWAP1 RETURN JUMPDEST PUSH2 0x132 PUSH2 0x4B6 JUMP JUMPDEST STOP JUMPDEST PUSH2 0x14E PUSH1 0x4 DUP1 CALLDATASIZE SUB DUP2 ADD SWAP1 PUSH2 0x149 SWAP2 SWAP1 PUSH2 0xFB7 JUMP JUMPDEST PUSH2 0x547 JUMP JUMPDEST PUSH1 0x40 MLOAD PUSH2 0x15B SWAP2 SWAP1 PUSH2 0x1251 JUMP JUMPDEST PUSH1 0x40 MLOAD DUP1 SWAP2 SUB SWAP1 RETURN JUMPDEST PUSH2 0x17E PUSH1 0x4 DUP1 CALLDATASIZE SUB DUP2 ADD SWAP1 PUSH2 0x179 SWAP2 SWAP1 PUSH2 0x1009 JUMP JUMPDEST PUSH2 0x68E JUMP JUMPDEST PUSH1 0x40 MLOAD PUSH2 0x18B SWAP2 SWAP1 PUSH2 0x1251 JUMP JUMPDEST PUSH1 0x40 MLOAD DUP1 SWAP2 SUB SWAP1 RETURN JUMPDEST PUSH2 0x1AE PUSH1 0x4 DUP1 CALLDATASIZE SUB DUP2 ADD SWAP1 PUSH2 0x1A9 SWAP2 SWAP1 PUSH2 0x10C9 JUMP JUMPDEST PUSH2 0x758 JUMP JUMPDEST STOP JUMPDEST PUSH1 0x60 PUSH1 0x0 JUMPDEST PUSH1 0x6 DUP1 SLOAD SWAP1 POP DUP2 LT ISZERO PUSH2 0x22D JUMPI PUSH2 0x218 DUP3 PUSH2 0x213 PUSH1 0x6 DUP5 DUP2 SLOAD DUP2 LT PUSH2 0x203 JUMPI PUSH32 0x4E487B7100000000000000000000000000000000000000000000000000000000 PUSH1 0x0 MSTORE PUSH1 0x32 PUSH1 0x4 MSTORE PUSH1 0x24 PUSH1 0x0 REVERT JUMPDEST SWAP1 PUSH1 0x0 MSTORE PUSH1 0x20 PUSH1 0x0 KECCAK256 ADD SLOAD PUSH2 0x547 JUMP JUMPDEST PUSH2 0x68E JUMP JUMPDEST SWAP2 POP DUP1 DUP1 PUSH2 0x225 SWAP1 PUSH2 0x1525 JUMP JUMPDEST SWAP2 POP POP PUSH2 0x1B5 JUMP JUMPDEST POP SWAP1 JUMP JUMPDEST PUSH1 0x0 DUP1 PUSH20 0xFFFFFFFFFFFFFFFFFFFFFFFFFFFFFFFFFFFFFFFF AND PUSH1 0x5 PUSH1 0x0 DUP5 DUP2 MSTORE PUSH1 0x20 ADD SWAP1 DUP2 MSTORE PUSH1 0x20 ADD PUSH1 0x0 KECCAK256 PUSH1 0x0 SWAP1 SLOAD SWAP1 PUSH2 0x100 EXP SWAP1 DIV PUSH20 0xFFFFFFFFFFFFFFFFFFFFFFFFFFFFFFFFFFFFFFFF AND PUSH20 0xFFFFFFFFFFFFFFFFFFFFFFFFFFFFFFFFFFFFFFFF AND EQ ISZERO PUSH2 0x2D5 JUMPI PUSH1 0x40 MLOAD PUSH32 0x8C379A000000000000000000000000000000000000000000000000000000000 DUP2 MSTORE PUSH1 0x4 ADD PUSH2 0x2CC SWAP1 PUSH2 0x12A3 JUMP JUMPDEST PUSH1 0x40 MLOAD DUP1 SWAP2 SUB SWAP1 REVERT JUMPDEST PUSH1 0x5 PUSH1 0x0 DUP4 DUP2 MSTORE PUSH1 0x20 ADD SWAP1 DUP2 MSTORE PUSH1 0x20 ADD PUSH1 0x0 KECCAK256 PUSH1 0x0 SWAP1 SLOAD SWAP1 PUSH2 0x100 EXP SWAP1 DIV PUSH20 0xFFFFFFFFFFFFFFFFFFFFFFFFFFFFFFFFFFFFFFFF AND SWAP1 POP SWAP2 SWAP1 POP JUMP JUMPDEST PUSH1 0x60 PUSH1 0x0 DUP1 PUSH1 0x0 SHL PUSH1 0x4 PUSH1 0x0 DUP6 DUP2 MSTORE PUSH1 0x20 ADD SWAP1 DUP2 MSTORE PUSH1 0x20 ADD PUSH1 0x0 KECCAK256 SLOAD EQ ISZERO PUSH2 0x337 JUMPI PUSH1 0x0 DUP1 REVERT JUMPDEST PUSH1 0x2 PUSH1 0x0 PUSH1 0x4 PUSH1 0x0 DUP7 DUP2 MSTORE PUSH1 0x20 ADD SWAP1 DUP2 MSTORE PUSH1 0x20 ADD PUSH1 0x0 KECCAK256 SLOAD DUP2 MSTORE PUSH1 0x20 ADD SWAP1 DUP2 MSTORE PUSH1 0x20 ADD PUSH1 0x0 KECCAK256 PUSH1 0x1 PUSH1 0x0 DUP6 DUP2 MSTORE PUSH1 0x20 ADD SWAP1 DUP2 MSTORE PUSH1 0x20 ADD PUSH1 0x0 KECCAK256 SLOAD DUP2 SLOAD DUP2 LT PUSH2 0x3A8 JUMPI PUSH32 0x4E487B7100000000000000000000000000000000000000000000000000000000 PUSH1 0x0 MSTORE PUSH1 0x32 PUSH1 0x4 MSTORE PUSH1 0x24 PUSH1 0x0 REVERT JUMPDEST SWAP1 PUSH1 0x0 MSTORE PUSH1 0x20 PUSH1 0x0 KECCAK256 ADD PUSH1 0x0 SWAP1 SLOAD SWAP1 PUSH2 0x100 EXP SWAP1 DIV PUSH20 0xFFFFFFFFFFFFFFFFFFFFFFFFFFFFFFFFFFFFFFFF AND PUSH20 0xFFFFFFFFFFFFFFFFFFFFFFFFFFFFFFFFFFFFFFFF AND PUSH4 0x236F45D9 PUSH1 0x40 MLOAD DUP2 PUSH4 0xFFFFFFFF AND PUSH1 0xE0 SHL DUP2 MSTORE PUSH1 0x4 ADD PUSH1 0x0 PUSH1 0x40 MLOAD DUP1 DUP4 SUB DUP2 DUP7 DUP1 EXTCODESIZE ISZERO DUP1 ISZERO PUSH2 0x418 JUMPI PUSH1 0x0 DUP1 REVERT JUMPDEST POP GAS STATICCALL ISZERO DUP1 ISZERO PUSH2 0x42C JUMPI RETURNDATASIZE PUSH1 0x0 DUP1 RETURNDATACOPY RETURNDATASIZE PUSH1 0x0 REVERT JUMPDEST POP POP POP POP PUSH1 0x40 MLOAD RETURNDATASIZE PUSH1 0x0 DUP3 RETURNDATACOPY RETURNDATASIZE PUSH1 0x1F NOT PUSH1 0x1F DUP3 ADD AND DUP3 ADD DUP1 PUSH1 0x40 MSTORE POP DUP2 ADD SWAP1 PUSH2 0x455 SWAP2 SWAP1 PUSH2 0x1075 JUMP JUMPDEST SWAP2 POP SWAP2 POP SWAP2 POP SWAP2 JUMP JUMPDEST PUSH1 0x60 PUSH1 0x6 DUP1 SLOAD DUP1 PUSH1 0x20 MUL PUSH1 0x20 ADD PUSH1 0x40 MLOAD SWAP1 DUP2 ADD PUSH1 0x40 MSTORE DUP1 SWAP3 SWAP2 SWAP1 DUP2 DUP2 MSTORE PUSH1 0x20 ADD DUP3 DUP1 SLOAD DUP1 ISZERO PUSH2 0x4AC JUMPI PUSH1 0x20 MUL DUP3 ADD SWAP2 SWAP1 PUSH1 0x0 MSTORE PUSH1 0x20 PUSH1 0x0 KECCAK256 SWAP1 JUMPDEST DUP2 SLOAD DUP2 MSTORE PUSH1 0x20 ADD SWAP1 PUSH1 0x1 ADD SWAP1 DUP1 DUP4 GT PUSH2 0x498 JUMPI JUMPDEST POP POP POP POP POP SWAP1 POP SWAP1 JUMP JUMPDEST PUSH1 0x0 DUP1 SLOAD SWAP1 PUSH2 0x100 EXP SWAP1 DIV PUSH20 0xFFFFFFFFFFFFFFFFFFFFFFFFFFFFFFFFFFFFFFFF AND PUSH20 0xFFFFFFFFFFFFFFFFFFFFFFFFFFFFFFFFFFFFFFFF AND CALLER PUSH20 0xFFFFFFFFFFFFFFFFFFFFFFFFFFFFFFFFFFFFFFFF AND EQ PUSH2 0x50E JUMPI PUSH1 0x0 DUP1 REVERT JUMPDEST PUSH1 0x0 DUP1 SLOAD SWAP1 PUSH2 0x100 EXP SWAP1 DIV PUSH20 0xFFFFFFFFFFFFFFFFFFFFFFFFFFFFFFFFFFFFFFFF AND PUSH20 0xFFFFFFFFFFFFFFFFFFFFFFFFFFFFFFFFFFFFFFFF AND SELFDESTRUCT JUMPDEST PUSH1 0x60 DUP1 PUSH1 0x0 JUMPDEST PUSH1 0x2 PUSH1 0x0 DUP6 DUP2 MSTORE PUSH1 0x20 ADD SWAP1 DUP2 MSTORE PUSH1 0x20 ADD PUSH1 0x0 KECCAK256 DUP1 SLOAD SWAP1 POP DUP2 LT ISZERO PUSH2 0x687 JUMPI PUSH1 0x2 PUSH1 0x0 DUP6 DUP2 MSTORE PUSH1 0x20 ADD SWAP1 DUP2 MSTORE PUSH1 0x20 ADD PUSH1 0x0 KECCAK256 DUP2 DUP2 SLOAD DUP2 LT PUSH2 0x5B6 JUMPI PUSH32 0x4E487B7100000000000000000000000000000000000000000000000000000000 PUSH1 0x0 MSTORE PUSH1 0x32 PUSH1 0x4 MSTORE PUSH1 0x24 PUSH1 0x0 REVERT JUMPDEST SWAP1 PUSH1 0x0 MSTORE PUSH1 0x20 PUSH1 0x0 KECCAK256 ADD PUSH1 0x0 SWAP1 SLOAD SWAP1 PUSH2 0x100 EXP SWAP1 DIV PUSH20 0xFFFFFFFFFFFFFFFFFFFFFFFFFFFFFFFFFFFFFFFF AND PUSH20 0xFFFFFFFFFFFFFFFFFFFFFFFFFFFFFFFFFFFFFFFF AND PUSH4 0x236F45D9 PUSH1 0x40 MLOAD DUP2 PUSH4 0xFFFFFFFF AND PUSH1 0xE0 SHL DUP2 MSTORE PUSH1 0x4 ADD PUSH1 0x0 PUSH1 0x40 MLOAD DUP1 DUP4 SUB DUP2 DUP7 DUP1 EXTCODESIZE ISZERO DUP1 ISZERO PUSH2 0x626 JUMPI PUSH1 0x0 DUP1 REVERT JUMPDEST POP GAS STATICCALL ISZERO DUP1 ISZERO PUSH2 0x63A JUMPI RETURNDATASIZE PUSH1 0x0 DUP1 RETURNDATACOPY RETURNDATASIZE PUSH1 0x0 REVERT JUMPDEST POP POP POP POP PUSH1 0x40 MLOAD RETURNDATASIZE PUSH1 0x0 DUP3 RETURNDATACOPY RETURNDATASIZE PUSH1 0x1F NOT PUSH1 0x1F DUP3 ADD AND DUP3 ADD DUP1 PUSH1 0x40 MSTORE POP DUP2 ADD SWAP1 PUSH2 0x663 SWAP2 SWAP1 PUSH2 0x1075 JUMP JUMPDEST POP DUP1 SWAP3 POP POP PUSH2 0x672 DUP4 DUP4 PUSH2 0x68E JUMP JUMPDEST SWAP3 POP DUP1 DUP1 PUSH2 0x67F SWAP1 PUSH2 0x1525 JUMP JUMPDEST SWAP2 POP POP PUSH2 0x54D JUMP JUMPDEST POP POP SWAP2 SWAP1 POP JUMP JUMPDEST PUSH1 0x60 PUSH1 0x0 DUP4 MLOAD SWAP1 POP PUSH1 0x0 DUP4 MLOAD DUP3 PUSH2 0x6A5 SWAP2 SWAP1 PUSH2 0x139F JUMP JUMPDEST SWAP1 POP PUSH1 0x0 PUSH1 0x20 PUSH1 0x1F DUP8 MLOAD PUSH2 0x6B9 SWAP2 SWAP1 PUSH2 0x139F JUMP JUMPDEST PUSH2 0x6C3 SWAP2 SWAP1 PUSH2 0x13F5 JUMP JUMPDEST SWAP1 POP PUSH1 0x0 PUSH1 0x20 PUSH1 0x1F DUP8 MLOAD PUSH2 0x6D7 SWAP2 SWAP1 PUSH2 0x139F JUMP JUMPDEST PUSH2 0x6E1 SWAP2 SWAP1 PUSH2 0x13F5 JUMP JUMPDEST SWAP1 POP PUSH1 0x40 MLOAD DUP4 DUP2 MSTORE PUSH1 0x0 JUMPDEST DUP4 DUP2 LT ISZERO PUSH2 0x713 JUMPI DUP1 PUSH1 0x1 ADD PUSH1 0x20 MUL DUP10 ADD MLOAD DUP2 PUSH1 0x1 ADD PUSH1 0x20 MUL DUP4 ADD MSTORE DUP1 PUSH1 0x1 ADD SWAP1 POP PUSH2 0x6EC JUMP JUMPDEST POP PUSH1 0x0 JUMPDEST DUP3 DUP2 LT ISZERO PUSH2 0x740 JUMPI DUP1 PUSH1 0x1 ADD PUSH1 0x20 MUL DUP9 ADD MLOAD DUP7 DUP3 PUSH1 0x1 ADD PUSH1 0x20 MUL ADD DUP4 ADD MSTORE DUP1 PUSH1 0x1 ADD SWAP1 POP PUSH2 0x717 JUMP JUMPDEST POP DUP4 PUSH1 0x20 ADD DUP2 ADD PUSH1 0x40 MSTORE DUP1 SWAP6 POP POP POP POP POP POP SWAP3 SWAP2 POP POP JUMP JUMPDEST DUP1 PUSH20 0xFFFFFFFFFFFFFFFFFFFFFFFFFFFFFFFFFFFFFFFF AND PUSH4 0x297E6306 ADDRESS PUSH1 0x40 MLOAD DUP3 PUSH4 0xFFFFFFFF AND PUSH1 0xE0 SHL DUP2 MSTORE PUSH1 0x4 ADD PUSH2 0x791 SWAP2 SWAP1 PUSH2 0x1214 JUMP JUMPDEST PUSH1 0x0 PUSH1 0x40 MLOAD DUP1 DUP4 SUB DUP2 PUSH1 0x0 DUP8 DUP1 EXTCODESIZE ISZERO DUP1 ISZERO PUSH2 0x7AB JUMPI PUSH1 0x0 DUP1 REVERT JUMPDEST POP GAS CALL ISZERO DUP1 ISZERO PUSH2 0x7BF JUMPI RETURNDATASIZE PUSH1 0x0 DUP1 RETURNDATACOPY RETURNDATASIZE PUSH1 0x0 REVERT JUMPDEST POP POP POP POP PUSH1 0x0 DUP1 SHL PUSH1 0x4 PUSH1 0x0 DUP4 PUSH20 0xFFFFFFFFFFFFFFFFFFFFFFFFFFFFFFFFFFFFFFFF AND PUSH4 0x5D1CA631 PUSH1 0x40 MLOAD DUP2 PUSH4 0xFFFFFFFF AND PUSH1 0xE0 SHL DUP2 MSTORE PUSH1 0x4 ADD PUSH1 0x20 PUSH1 0x40 MLOAD DUP1 DUP4 SUB DUP2 DUP7 DUP1 EXTCODESIZE ISZERO DUP1 ISZERO PUSH2 0x811 JUMPI PUSH1 0x0 DUP1 REVERT JUMPDEST POP GAS STATICCALL ISZERO DUP1 ISZERO PUSH2 0x825 JUMPI RETURNDATASIZE PUSH1 0x0 DUP1 RETURNDATACOPY RETURNDATASIZE PUSH1 0x0 REVERT JUMPDEST POP POP POP POP PUSH1 0x40 MLOAD RETURNDATASIZE PUSH1 0x1F NOT PUSH1 0x1F DUP3 ADD AND DUP3 ADD DUP1 PUSH1 0x40 MSTORE POP DUP2 ADD SWAP1 PUSH2 0x849 SWAP2 SWAP1 PUSH2 0xFE0 JUMP JUMPDEST DUP2 MSTORE PUSH1 0x20 ADD SWAP1 DUP2 MSTORE PUSH1 0x20 ADD PUSH1 0x0 KECCAK256 SLOAD EQ PUSH2 0x898 JUMPI PUSH1 0x40 MLOAD PUSH32 0x8C379A000000000000000000000000000000000000000000000000000000000 DUP2 MSTORE PUSH1 0x4 ADD PUSH2 0x88F SWAP1 PUSH2 0x12C3 JUMP JUMPDEST PUSH1 0x40 MLOAD DUP1 SWAP2 SUB SWAP1 REVERT JUMPDEST PUSH1 0x3 PUSH1 0x0 DUP3 PUSH20 0xFFFFFFFFFFFFFFFFFFFFFFFFFFFFFFFFFFFFFFFF AND PUSH4 0xFC1C7A70 PUSH1 0x40 MLOAD DUP2 PUSH4 0xFFFFFFFF AND PUSH1 0xE0 SHL DUP2 MSTORE PUSH1 0x4 ADD PUSH1 0x20 PUSH1 0x40 MLOAD DUP1 DUP4 SUB DUP2 DUP7 DUP1 EXTCODESIZE ISZERO DUP1 ISZERO PUSH2 0x8E2 JUMPI PUSH1 0x0 DUP1 REVERT JUMPDEST POP GAS STATICCALL ISZERO DUP1 ISZERO PUSH2 0x8F6 JUMPI RETURNDATASIZE PUSH1 0x0 DUP1 RETURNDATACOPY RETURNDATASIZE PUSH1 0x0 REVERT JUMPDEST POP POP POP POP PUSH1 0x40 MLOAD RETURNDATASIZE PUSH1 0x1F NOT PUSH1 0x1F DUP3 ADD AND DUP3 ADD DUP1 PUSH1 0x40 MSTORE POP DUP2 ADD SWAP1 PUSH2 0x91A SWAP2 SWAP1 PUSH2 0xFE0 JUMP JUMPDEST DUP2 MSTORE PUSH1 0x20 ADD SWAP1 DUP2 MSTORE PUSH1 0x20 ADD PUSH1 0x0 KECCAK256 PUSH1 0x0 SWAP1 SLOAD SWAP1 PUSH2 0x100 EXP SWAP1 DIV PUSH1 0xFF AND PUSH2 0xA8A JUMPI PUSH1 0x6 DUP2 PUSH20 0xFFFFFFFFFFFFFFFFFFFFFFFFFFFFFFFFFFFFFFFF AND PUSH4 0xFC1C7A70 PUSH1 0x40 MLOAD DUP2 PUSH4 0xFFFFFFFF AND PUSH1 0xE0 SHL DUP2 MSTORE PUSH1 0x4 ADD PUSH1 0x20 PUSH1 0x40 MLOAD DUP1 DUP4 SUB DUP2 DUP7 DUP1 EXTCODESIZE ISZERO DUP1 ISZERO PUSH2 0x982 JUMPI PUSH1 0x0 DUP1 REVERT JUMPDEST POP GAS STATICCALL ISZERO DUP1 ISZERO PUSH2 0x996 JUMPI RETURNDATASIZE PUSH1 0x0 DUP1 RETURNDATACOPY RETURNDATASIZE PUSH1 0x0 REVERT JUMPDEST POP POP POP POP PUSH1 0x40 MLOAD RETURNDATASIZE PUSH1 0x1F NOT PUSH1 0x1F DUP3 ADD AND DUP3 ADD DUP1 PUSH1 0x40 MSTORE POP DUP2 ADD SWAP1 PUSH2 0x9BA SWAP2 SWAP1 PUSH2 0xFE0 JUMP JUMPDEST SWAP1 DUP1 PUSH1 0x1 DUP2 SLOAD ADD DUP1 DUP3 SSTORE DUP1 SWAP2 POP POP PUSH1 0x1 SWAP1 SUB SWAP1 PUSH1 0x0 MSTORE PUSH1 0x20 PUSH1 0x0 KECCAK256 ADD PUSH1 0x0 SWAP1 SWAP2 SWAP1 SWAP2 SWAP1 SWAP2 POP SSTORE PUSH1 0x1 PUSH1 0x3 PUSH1 0x0 DUP4 PUSH20 0xFFFFFFFFFFFFFFFFFFFFFFFFFFFFFFFFFFFFFFFF AND PUSH4 0xFC1C7A70 PUSH1 0x40 MLOAD DUP2 PUSH4 0xFFFFFFFF AND PUSH1 0xE0 SHL DUP2 MSTORE PUSH1 0x4 ADD PUSH1 0x20 PUSH1 0x40 MLOAD DUP1 DUP4 SUB DUP2 DUP7 DUP1 EXTCODESIZE ISZERO DUP1 ISZERO PUSH2 0xA2C JUMPI PUSH1 0x0 DUP1 REVERT JUMPDEST POP GAS STATICCALL ISZERO DUP1 ISZERO PUSH2 0xA40 JUMPI RETURNDATASIZE PUSH1 0x0 DUP1 RETURNDATACOPY RETURNDATASIZE PUSH1 0x0 REVERT JUMPDEST POP POP POP POP PUSH1 0x40 MLOAD RETURNDATASIZE PUSH1 0x1F NOT PUSH1 0x1F DUP3 ADD AND DUP3 ADD DUP1 PUSH1 0x40 MSTORE POP DUP2 ADD SWAP1 PUSH2 0xA64 SWAP2 SWAP1 PUSH2 0xFE0 JUMP JUMPDEST DUP2 MSTORE PUSH1 0x20 ADD SWAP1 DUP2 MSTORE PUSH1 0x20 ADD PUSH1 0x0 KECCAK256 PUSH1 0x0 PUSH2 0x100 EXP DUP2 SLOAD DUP2 PUSH1 0xFF MUL NOT AND SWAP1 DUP4 ISZERO ISZERO MUL OR SWAP1 SSTORE POP JUMPDEST PUSH1 0x2 PUSH1 0x0 DUP3 PUSH20 0xFFFFFFFFFFFFFFFFFFFFFFFFFFFFFFFFFFFFFFFF AND PUSH4 0xFC1C7A70 PUSH1 0x40 MLOAD DUP2 PUSH4 0xFFFFFFFF AND PUSH1 0xE0 SHL DUP2 MSTORE PUSH1 0x4 ADD PUSH1 0x20 PUSH1 0x40 MLOAD DUP1 DUP4 SUB DUP2 DUP7 DUP1 EXTCODESIZE ISZERO DUP1 ISZERO PUSH2 0xAD4 JUMPI PUSH1 0x0 DUP1 REVERT JUMPDEST POP GAS STATICCALL ISZERO DUP1 ISZERO PUSH2 0xAE8 JUMPI RETURNDATASIZE PUSH1 0x0 DUP1 RETURNDATACOPY RETURNDATASIZE PUSH1 0x0 REVERT JUMPDEST POP POP POP POP PUSH1 0x40 MLOAD RETURNDATASIZE PUSH1 0x1F NOT PUSH1 0x1F DUP3 ADD AND DUP3 ADD DUP1 PUSH1 0x40 MSTORE POP DUP2 ADD SWAP1 PUSH2 0xB0C SWAP2 SWAP1 PUSH2 0xFE0 JUMP JUMPDEST DUP2 MSTORE PUSH1 0x20 ADD SWAP1 DUP2 MSTORE PUSH1 0x20 ADD PUSH1 0x0 KECCAK256 DUP2 SWAP1 DUP1 PUSH1 0x1 DUP2 SLOAD ADD DUP1 DUP3 SSTORE DUP1 SWAP2 POP POP PUSH1 0x1 SWAP1 SUB SWAP1 PUSH1 0x0 MSTORE PUSH1 0x20 PUSH1 0x0 KECCAK256 ADD PUSH1 0x0 SWAP1 SWAP2 SWAP1 SWAP2 SWAP1 SWAP2 PUSH2 0x100 EXP DUP2 SLOAD DUP2 PUSH20 0xFFFFFFFFFFFFFFFFFFFFFFFFFFFFFFFFFFFFFFFF MUL NOT AND SWAP1 DUP4 PUSH20 0xFFFFFFFFFFFFFFFFFFFFFFFFFFFFFFFFFFFFFFFF AND MUL OR SWAP1 SSTORE POP PUSH1 0x1 PUSH1 0x2 PUSH1 0x0 DUP4 PUSH20 0xFFFFFFFFFFFFFFFFFFFFFFFFFFFFFFFFFFFFFFFF AND PUSH4 0xFC1C7A70 PUSH1 0x40 MLOAD DUP2 PUSH4 0xFFFFFFFF AND PUSH1 0xE0 SHL DUP2 MSTORE PUSH1 0x4 ADD PUSH1 0x20 PUSH1 0x40 MLOAD DUP1 DUP4 SUB DUP2 DUP7 DUP1 EXTCODESIZE ISZERO DUP1 ISZERO PUSH2 0xBC7 JUMPI PUSH1 0x0 DUP1 REVERT JUMPDEST POP GAS STATICCALL ISZERO DUP1 ISZERO PUSH2 0xBDB JUMPI RETURNDATASIZE PUSH1 0x0 DUP1 RETURNDATACOPY RETURNDATASIZE PUSH1 0x0 REVERT JUMPDEST POP POP POP POP PUSH1 0x40 MLOAD RETURNDATASIZE PUSH1 0x1F NOT PUSH1 0x1F DUP3 ADD AND DUP3 ADD DUP1 PUSH1 0x40 MSTORE POP DUP2 ADD SWAP1 PUSH2 0xBFF SWAP2 SWAP1 PUSH2 0xFE0 JUMP JUMPDEST DUP2 MSTORE PUSH1 0x20 ADD SWAP1 DUP2 MSTORE PUSH1 0x20 ADD PUSH1 0x0 KECCAK256 DUP1 SLOAD SWAP1 POP PUSH2 0xC1B SWAP2 SWAP1 PUSH2 0x1426 JUMP JUMPDEST PUSH1 0x1 PUSH1 0x0 DUP4 PUSH20 0xFFFFFFFFFFFFFFFFFFFFFFFFFFFFFFFFFFFFFFFF AND PUSH4 0x5D1CA631 PUSH1 0x40 MLOAD DUP2 PUSH4 0xFFFFFFFF AND PUSH1 0xE0 SHL DUP2 MSTORE PUSH1 0x4 ADD PUSH1 0x20 PUSH1 0x40 MLOAD DUP1 DUP4 SUB DUP2 DUP7 DUP1 EXTCODESIZE ISZERO DUP1 ISZERO PUSH2 0xC65 JUMPI PUSH1 0x0 DUP1 REVERT JUMPDEST POP GAS STATICCALL ISZERO DUP1 ISZERO PUSH2 0xC79 JUMPI RETURNDATASIZE PUSH1 0x0 DUP1 RETURNDATACOPY RETURNDATASIZE PUSH1 0x0 REVERT JUMPDEST POP POP POP POP PUSH1 0x40 MLOAD RETURNDATASIZE PUSH1 0x1F NOT PUSH1 0x1F DUP3 ADD AND DUP3 ADD DUP1 PUSH1 0x40 MSTORE POP DUP2 ADD SWAP1 PUSH2 0xC9D SWAP2 SWAP1 PUSH2 0xFE0 JUMP JUMPDEST DUP2 MSTORE PUSH1 0x20 ADD SWAP1 DUP2 MSTORE PUSH1 0x20 ADD PUSH1 0x0 KECCAK256 DUP2 SWAP1 SSTORE POP DUP1 PUSH20 0xFFFFFFFFFFFFFFFFFFFFFFFFFFFFFFFFFFFFFFFF AND PUSH4 0xFC1C7A70 PUSH1 0x40 MLOAD DUP2 PUSH4 0xFFFFFFFF AND PUSH1 0xE0 SHL DUP2 MSTORE PUSH1 0x4 ADD PUSH1 0x20 PUSH1 0x40 MLOAD DUP1 DUP4 SUB DUP2 DUP7 DUP1 EXTCODESIZE ISZERO DUP1 ISZERO PUSH2 0xCF5 JUMPI PUSH1 0x0 DUP1 REVERT JUMPDEST POP GAS STATICCALL ISZERO DUP1 ISZERO PUSH2 0xD09 JUMPI RETURNDATASIZE PUSH1 0x0 DUP1 RETURNDATACOPY RETURNDATASIZE PUSH1 0x0 REVERT JUMPDEST POP POP POP POP PUSH1 0x40 MLOAD RETURNDATASIZE PUSH1 0x1F NOT PUSH1 0x1F DUP3 ADD AND DUP3 ADD DUP1 PUSH1 0x40 MSTORE POP DUP2 ADD SWAP1 PUSH2 0xD2D SWAP2 SWAP1 PUSH2 0xFE0 JUMP JUMPDEST PUSH1 0x4 PUSH1 0x0 DUP4 PUSH20 0xFFFFFFFFFFFFFFFFFFFFFFFFFFFFFFFFFFFFFFFF AND PUSH4 0x5D1CA631 PUSH1 0x40 MLOAD DUP2 PUSH4 0xFFFFFFFF AND PUSH1 0xE0 SHL DUP2 MSTORE PUSH1 0x4 ADD PUSH1 0x20 PUSH1 0x40 MLOAD DUP1 DUP4 SUB DUP2 DUP7 DUP1 EXTCODESIZE ISZERO DUP1 ISZERO PUSH2 0xD77 JUMPI PUSH1 0x0 DUP1 REVERT JUMPDEST POP GAS STATICCALL ISZERO DUP1 ISZERO PUSH2 0xD8B JUMPI RETURNDATASIZE PUSH1 0x0 DUP1 RETURNDATACOPY RETURNDATASIZE PUSH1 0x0 REVERT JUMPDEST POP POP POP POP PUSH1 0x40 MLOAD RETURNDATASIZE PUSH1 0x1F NOT PUSH1 0x1F DUP3 ADD AND DUP3 ADD DUP1 PUSH1 0x40 MSTORE POP DUP2 ADD SWAP1 PUSH2 0xDAF SWAP2 SWAP1 PUSH2 0xFE0 JUMP JUMPDEST DUP2 MSTORE PUSH1 0x20 ADD SWAP1 DUP2 MSTORE PUSH1 0x20 ADD PUSH1 0x0 KECCAK256 DUP2 SWAP1 SSTORE POP DUP1 PUSH1 0x5 PUSH1 0x0 DUP4 PUSH20 0xFFFFFFFFFFFFFFFFFFFFFFFFFFFFFFFFFFFFFFFF AND PUSH4 0x5D1CA631 PUSH1 0x40 MLOAD DUP2 PUSH4 0xFFFFFFFF AND PUSH1 0xE0 SHL DUP2 MSTORE PUSH1 0x4 ADD PUSH1 0x20 PUSH1 0x40 MLOAD DUP1 DUP4 SUB DUP2 DUP7 DUP1 EXTCODESIZE ISZERO DUP1 ISZERO PUSH2 0xE0C JUMPI PUSH1 0x0 DUP1 REVERT JUMPDEST POP GAS STATICCALL ISZERO DUP1 ISZERO PUSH2 0xE20 JUMPI RETURNDATASIZE PUSH1 0x0 DUP1 RETURNDATACOPY RETURNDATASIZE PUSH1 0x0 REVERT JUMPDEST POP POP POP POP PUSH1 0x40 MLOAD RETURNDATASIZE PUSH1 0x1F NOT PUSH1 0x1F DUP3 ADD AND DUP3 ADD DUP1 PUSH1 0x40 MSTORE POP DUP2 ADD SWAP1 PUSH2 0xE44 SWAP2 SWAP1 PUSH2 0xFE0 JUMP JUMPDEST DUP2 MSTORE PUSH1 0x20 ADD SWAP1 DUP2 MSTORE PUSH1 0x20 ADD PUSH1 0x0 KECCAK256 PUSH1 0x0 PUSH2 0x100 EXP DUP2 SLOAD DUP2 PUSH20 0xFFFFFFFFFFFFFFFFFFFFFFFFFFFFFFFFFFFFFFFF MUL NOT AND SWAP1 DUP4 PUSH20 0xFFFFFFFFFFFFFFFFFFFFFFFFFFFFFFFFFFFFFFFF AND MUL OR SWAP1 SSTORE POP POP JUMP JUMPDEST PUSH1 0x0 PUSH2 0xEA6 PUSH2 0xEA1 DUP5 PUSH2 0x1308 JUMP JUMPDEST PUSH2 0x12E3 JUMP JUMPDEST SWAP1 POP DUP3 DUP2 MSTORE PUSH1 0x20 DUP2 ADD DUP5 DUP5 DUP5 ADD GT ISZERO PUSH2 0xEBE JUMPI PUSH1 0x0 DUP1 REVERT JUMPDEST PUSH2 0xEC9 DUP5 DUP3 DUP6 PUSH2 0x14B2 JUMP JUMPDEST POP SWAP4 SWAP3 POP POP POP JUMP JUMPDEST PUSH1 0x0 PUSH2 0xEE4 PUSH2 0xEDF DUP5 PUSH2 0x1308 JUMP JUMPDEST PUSH2 0x12E3 JUMP JUMPDEST SWAP1 POP DUP3 DUP2 MSTORE PUSH1 0x20 DUP2 ADD DUP5 DUP5 DUP5 ADD GT ISZERO PUSH2 0xEFC JUMPI PUSH1 0x0 DUP1 REVERT JUMPDEST PUSH2 0xF07 DUP5 DUP3 DUP6 PUSH2 0x14C1 JUMP JUMPDEST POP SWAP4 SWAP3 POP POP POP JUMP JUMPDEST PUSH1 0x0 DUP2 CALLDATALOAD SWAP1 POP PUSH2 0xF1E DUP2 PUSH2 0x1684 JUMP JUMPDEST SWAP3 SWAP2 POP POP JUMP JUMPDEST PUSH1 0x0 DUP2 MLOAD SWAP1 POP PUSH2 0xF33 DUP2 PUSH2 0x1684 JUMP JUMPDEST SWAP3 SWAP2 POP POP JUMP JUMPDEST PUSH1 0x0 DUP3 PUSH1 0x1F DUP4 ADD SLT PUSH2 0xF4A JUMPI PUSH1 0x0 DUP1 REVERT JUMPDEST DUP2 CALLDATALOAD PUSH2 0xF5A DUP5 DUP3 PUSH1 0x20 DUP7 ADD PUSH2 0xE93 JUMP JUMPDEST SWAP2 POP POP SWAP3 SWAP2 POP POP JUMP JUMPDEST PUSH1 0x0 DUP3 PUSH1 0x1F DUP4 ADD SLT PUSH2 0xF74 JUMPI PUSH1 0x0 DUP1 REVERT JUMPDEST DUP2 MLOAD PUSH2 0xF84 DUP5 DUP3 PUSH1 0x20 DUP7 ADD PUSH2 0xED1 JUMP JUMPDEST SWAP2 POP POP SWAP3 SWAP2 POP POP JUMP JUMPDEST PUSH1 0x0 DUP2 CALLDATALOAD SWAP1 POP PUSH2 0xF9C DUP2 PUSH2 0x169B JUMP JUMPDEST SWAP3 SWAP2 POP POP JUMP JUMPDEST PUSH1 0x0 DUP2 MLOAD SWAP1 POP PUSH2 0xFB1 DUP2 PUSH2 0x16B2 JUMP JUMPDEST SWAP3 SWAP2 POP POP JUMP JUMPDEST PUSH1 0x0 PUSH1 0x20 DUP3 DUP5 SUB SLT ISZERO PUSH2 0xFC9 JUMPI PUSH1 0x0 DUP1 REVERT JUMPDEST PUSH1 0x0 PUSH2 0xFD7 DUP5 DUP3 DUP6 ADD PUSH2 0xF0F JUMP JUMPDEST SWAP2 POP POP SWAP3 SWAP2 POP POP JUMP JUMPDEST PUSH1 0x0 PUSH1 0x20 DUP3 DUP5 SUB SLT ISZERO PUSH2 0xFF2 JUMPI PUSH1 0x0 DUP1 REVERT JUMPDEST PUSH1 0x0 PUSH2 0x1000 DUP5 DUP3 DUP6 ADD PUSH2 0xF24 JUMP JUMPDEST SWAP2 POP POP SWAP3 SWAP2 POP POP JUMP JUMPDEST PUSH1 0x0 DUP1 PUSH1 0x40 DUP4 DUP6 SUB SLT ISZERO PUSH2 0x101C JUMPI PUSH1 0x0 DUP1 REVERT JUMPDEST PUSH1 0x0 DUP4 ADD CALLDATALOAD PUSH8 0xFFFFFFFFFFFFFFFF DUP2 GT ISZERO PUSH2 0x1036 JUMPI PUSH1 0x0 DUP1 REVERT JUMPDEST PUSH2 0x1042 DUP6 DUP3 DUP7 ADD PUSH2 0xF39 JUMP JUMPDEST SWAP3 POP POP PUSH1 0x20 DUP4 ADD CALLDATALOAD PUSH8 0xFFFFFFFFFFFFFFFF DUP2 GT ISZERO PUSH2 0x105F JUMPI PUSH1 0x0 DUP1 REVERT JUMPDEST PUSH2 0x106B DUP6 DUP3 DUP7 ADD PUSH2 0xF39 JUMP JUMPDEST SWAP2 POP POP SWAP3 POP SWAP3 SWAP1 POP JUMP JUMPDEST PUSH1 0x0 DUP1 PUSH1 0x40 DUP4 DUP6 SUB SLT ISZERO PUSH2 0x1088 JUMPI PUSH1 0x0 DUP1 REVERT JUMPDEST PUSH1 0x0 DUP4 ADD MLOAD PUSH8 0xFFFFFFFFFFFFFFFF DUP2 GT ISZERO PUSH2 0x10A2 JUMPI PUSH1 0x0 DUP1 REVERT JUMPDEST PUSH2 0x10AE DUP6 DUP3 DUP7 ADD PUSH2 0xF63 JUMP JUMPDEST SWAP3 POP POP PUSH1 0x20 PUSH2 0x10BF DUP6 DUP3 DUP7 ADD PUSH2 0xFA2 JUMP JUMPDEST SWAP2 POP POP SWAP3 POP SWAP3 SWAP1 POP JUMP JUMPDEST PUSH1 0x0 PUSH1 0x20 DUP3 DUP5 SUB SLT ISZERO PUSH2 0x10DB JUMPI PUSH1 0x0 DUP1 REVERT JUMPDEST PUSH1 0x0 PUSH2 0x10E9 DUP5 DUP3 DUP6 ADD PUSH2 0xF8D JUMP JUMPDEST SWAP2 POP POP SWAP3 SWAP2 POP POP JUMP JUMPDEST PUSH1 0x0 PUSH2 0x10FE DUP4 DUP4 PUSH2 0x1177 JUMP JUMPDEST PUSH1 0x20 DUP4 ADD SWAP1 POP SWAP3 SWAP2 POP POP JUMP JUMPDEST PUSH2 0x1113 DUP2 PUSH2 0x145A JUMP JUMPDEST DUP3 MSTORE POP POP JUMP JUMPDEST PUSH1 0x0 PUSH2 0x1124 DUP3 PUSH2 0x1349 JUMP JUMPDEST PUSH2 0x112E DUP2 DUP6 PUSH2 0x136C JUMP JUMPDEST SWAP4 POP PUSH2 0x1139 DUP4 PUSH2 0x1339 JUMP JUMPDEST DUP1 PUSH1 0x0 JUMPDEST DUP4 DUP2 LT ISZERO PUSH2 0x116A JUMPI DUP2 MLOAD PUSH2 0x1151 DUP9 DUP3 PUSH2 0x10F2 JUMP JUMPDEST SWAP8 POP PUSH2 0x115C DUP4 PUSH2 0x135F JUMP JUMPDEST SWAP3 POP POP PUSH1 0x1 DUP2 ADD SWAP1 POP PUSH2 0x113D JUMP JUMPDEST POP DUP6 SWAP4 POP POP POP POP SWAP3 SWAP2 POP POP JUMP JUMPDEST PUSH2 0x1180 DUP2 PUSH2 0x146C JUMP JUMPDEST DUP3 MSTORE POP POP JUMP JUMPDEST PUSH1 0x0 PUSH2 0x1191 DUP3 PUSH2 0x1354 JUMP JUMPDEST PUSH2 0x119B DUP2 DUP6 PUSH2 0x137D JUMP JUMPDEST SWAP4 POP PUSH2 0x11AB DUP2 DUP6 PUSH1 0x20 DUP7 ADD PUSH2 0x14C1 JUMP JUMPDEST PUSH2 0x11B4 DUP2 PUSH2 0x15FB JUMP JUMPDEST DUP5 ADD SWAP2 POP POP SWAP3 SWAP2 POP POP JUMP JUMPDEST PUSH1 0x0 PUSH2 0x11CC PUSH1 0x20 DUP4 PUSH2 0x138E JUMP JUMPDEST SWAP2 POP PUSH2 0x11D7 DUP3 PUSH2 0x160C JUMP JUMPDEST PUSH1 0x20 DUP3 ADD SWAP1 POP SWAP2 SWAP1 POP JUMP JUMPDEST PUSH1 0x0 PUSH2 0x11EF PUSH1 0x28 DUP4 PUSH2 0x138E JUMP JUMPDEST SWAP2 POP PUSH2 0x11FA DUP3 PUSH2 0x1635 JUMP JUMPDEST PUSH1 0x40 DUP3 ADD SWAP1 POP SWAP2 SWAP1 POP JUMP JUMPDEST PUSH2 0x120E DUP2 PUSH2 0x14A8 JUMP JUMPDEST DUP3 MSTORE POP POP JUMP JUMPDEST PUSH1 0x0 PUSH1 0x20 DUP3 ADD SWAP1 POP PUSH2 0x1229 PUSH1 0x0 DUP4 ADD DUP5 PUSH2 0x110A JUMP JUMPDEST SWAP3 SWAP2 POP POP JUMP JUMPDEST PUSH1 0x0 PUSH1 0x20 DUP3 ADD SWAP1 POP DUP2 DUP2 SUB PUSH1 0x0 DUP4 ADD MSTORE PUSH2 0x1249 DUP2 DUP5 PUSH2 0x1119 JUMP JUMPDEST SWAP1 POP SWAP3 SWAP2 POP POP JUMP JUMPDEST PUSH1 0x0 PUSH1 0x20 DUP3 ADD SWAP1 POP DUP2 DUP2 SUB PUSH1 0x0 DUP4 ADD MSTORE PUSH2 0x126B DUP2 DUP5 PUSH2 0x1186 JUMP JUMPDEST SWAP1 POP SWAP3 SWAP2 POP POP JUMP JUMPDEST PUSH1 0x0 PUSH1 0x40 DUP3 ADD SWAP1 POP DUP2 DUP2 SUB PUSH1 0x0 DUP4 ADD MSTORE PUSH2 0x128D DUP2 DUP6 PUSH2 0x1186 JUMP JUMPDEST SWAP1 POP PUSH2 0x129C PUSH1 0x20 DUP4 ADD DUP5 PUSH2 0x1205 JUMP JUMPDEST SWAP4 SWAP3 POP POP POP JUMP JUMPDEST PUSH1 0x0 PUSH1 0x20 DUP3 ADD SWAP1 POP DUP2 DUP2 SUB PUSH1 0x0 DUP4 ADD MSTORE PUSH2 0x12BC DUP2 PUSH2 0x11BF JUMP JUMPDEST SWAP1 POP SWAP2 SWAP1 POP JUMP JUMPDEST PUSH1 0x0 PUSH1 0x20 DUP3 ADD SWAP1 POP DUP2 DUP2 SUB PUSH1 0x0 DUP4 ADD MSTORE PUSH2 0x12DC DUP2 PUSH2 0x11E2 JUMP JUMPDEST SWAP1 POP SWAP2 SWAP1 POP JUMP JUMPDEST PUSH1 0x0 PUSH2 0x12ED PUSH2 0x12FE JUMP JUMPDEST SWAP1 POP PUSH2 0x12F9 DUP3 DUP3 PUSH2 0x14F4 JUMP JUMPDEST SWAP2 SWAP1 POP JUMP JUMPDEST PUSH1 0x0 PUSH1 0x40 MLOAD SWAP1 POP SWAP1 JUMP JUMPDEST PUSH1 0x0 PUSH8 0xFFFFFFFFFFFFFFFF DUP3 GT ISZERO PUSH2 0x1323 JUMPI PUSH2 0x1322 PUSH2 0x15CC JUMP JUMPDEST JUMPDEST PUSH2 0x132C DUP3 PUSH2 0x15FB JUMP JUMPDEST SWAP1 POP PUSH1 0x20 DUP2 ADD SWAP1 POP SWAP2 SWAP1 POP JUMP JUMPDEST PUSH1 0x0 DUP2 SWAP1 POP PUSH1 0x20 DUP3 ADD SWAP1 POP SWAP2 SWAP1 POP JUMP JUMPDEST PUSH1 0x0 DUP2 MLOAD SWAP1 POP SWAP2 SWAP1 POP JUMP JUMPDEST PUSH1 0x0 DUP2 MLOAD SWAP1 POP SWAP2 SWAP1 POP JUMP JUMPDEST PUSH1 0x0 PUSH1 0x20 DUP3 ADD SWAP1 POP SWAP2 SWAP1 POP JUMP JUMPDEST PUSH1 0x0 DUP3 DUP3 MSTORE PUSH1 0x20 DUP3 ADD SWAP1 POP SWAP3 SWAP2 POP POP JUMP JUMPDEST PUSH1 0x0 DUP3 DUP3 MSTORE PUSH1 0x20 DUP3 ADD SWAP1 POP SWAP3 SWAP2 POP POP JUMP JUMPDEST PUSH1 0x0 DUP3 DUP3 MSTORE PUSH1 0x20 DUP3 ADD SWAP1 POP SWAP3 SWAP2 POP POP JUMP JUMPDEST PUSH1 0x0 PUSH2 0x13AA DUP3 PUSH2 0x14A8 JUMP JUMPDEST SWAP2 POP PUSH2 0x13B5 DUP4 PUSH2 0x14A8 JUMP JUMPDEST SWAP3 POP DUP3 PUSH32 0xFFFFFFFFFFFFFFFFFFFFFFFFFFFFFFFFFFFFFFFFFFFFFFFFFFFFFFFFFFFFFFFF SUB DUP3 GT ISZERO PUSH2 0x13EA JUMPI PUSH2 0x13E9 PUSH2 0x156E JUMP JUMPDEST JUMPDEST DUP3 DUP3 ADD SWAP1 POP SWAP3 SWAP2 POP POP JUMP JUMPDEST PUSH1 0x0 PUSH2 0x1400 DUP3 PUSH2 0x14A8 JUMP JUMPDEST SWAP2 POP PUSH2 0x140B DUP4 PUSH2 0x14A8 JUMP JUMPDEST SWAP3 POP DUP3 PUSH2 0x141B JUMPI PUSH2 0x141A PUSH2 0x159D JUMP JUMPDEST JUMPDEST DUP3 DUP3 DIV SWAP1 POP SWAP3 SWAP2 POP POP JUMP JUMPDEST PUSH1 0x0 PUSH2 0x1431 DUP3 PUSH2 0x14A8 JUMP JUMPDEST SWAP2 POP PUSH2 0x143C DUP4 PUSH2 0x14A8 JUMP JUMPDEST SWAP3 POP DUP3 DUP3 LT ISZERO PUSH2 0x144F JUMPI PUSH2 0x144E PUSH2 0x156E JUMP JUMPDEST JUMPDEST DUP3 DUP3 SUB SWAP1 POP SWAP3 SWAP2 POP POP JUMP JUMPDEST PUSH1 0x0 PUSH2 0x1465 DUP3 PUSH2 0x1488 JUMP JUMPDEST SWAP1 POP SWAP2 SWAP1 POP JUMP JUMPDEST PUSH1 0x0 DUP2 SWAP1 POP SWAP2 SWAP1 POP JUMP JUMPDEST PUSH1 0x0 PUSH2 0x1481 DUP3 PUSH2 0x145A JUMP JUMPDEST SWAP1 POP SWAP2 SWAP1 POP JUMP JUMPDEST PUSH1 0x0 PUSH20 0xFFFFFFFFFFFFFFFFFFFFFFFFFFFFFFFFFFFFFFFF DUP3 AND SWAP1 POP SWAP2 SWAP1 POP JUMP JUMPDEST PUSH1 0x0 DUP2 SWAP1 POP SWAP2 SWAP1 POP JUMP JUMPDEST DUP3 DUP2 DUP4 CALLDATACOPY PUSH1 0x0 DUP4 DUP4 ADD MSTORE POP POP POP JUMP JUMPDEST PUSH1 0x0 JUMPDEST DUP4 DUP2 LT ISZERO PUSH2 0x14DF JUMPI DUP1 DUP3 ADD MLOAD DUP2 DUP5 ADD MSTORE PUSH1 0x20 DUP2 ADD SWAP1 POP PUSH2 0x14C4 JUMP JUMPDEST DUP4 DUP2 GT ISZERO PUSH2 0x14EE JUMPI PUSH1 0x0 DUP5 DUP5 ADD MSTORE JUMPDEST POP POP POP POP JUMP JUMPDEST PUSH2 0x14FD DUP3 PUSH2 0x15FB JUMP JUMPDEST DUP2 ADD DUP2 DUP2 LT PUSH8 0xFFFFFFFFFFFFFFFF DUP3 GT OR ISZERO PUSH2 0x151C JUMPI PUSH2 0x151B PUSH2 0x15CC JUMP JUMPDEST JUMPDEST DUP1 PUSH1 0x40 MSTORE POP POP POP JUMP JUMPDEST PUSH1 0x0 PUSH2 0x1530 DUP3 PUSH2 0x14A8 JUMP JUMPDEST SWAP2 POP PUSH32 0xFFFFFFFFFFFFFFFFFFFFFFFFFFFFFFFFFFFFFFFFFFFFFFFFFFFFFFFFFFFFFFFF DUP3 EQ ISZERO PUSH2 0x1563 JUMPI PUSH2 0x1562 PUSH2 0x156E JUMP JUMPDEST JUMPDEST PUSH1 0x1 DUP3 ADD SWAP1 POP SWAP2 SWAP1 POP JUMP JUMPDEST PUSH32 0x4E487B7100000000000000000000000000000000000000000000000000000000 PUSH1 0x0 MSTORE PUSH1 0x11 PUSH1 0x4 MSTORE PUSH1 0x24 PUSH1 0x0 REVERT JUMPDEST PUSH32 0x4E487B7100000000000000000000000000000000000000000000000000000000 PUSH1 0x0 MSTORE PUSH1 0x12 PUSH1 0x4 MSTORE PUSH1 0x24 PUSH1 0x0 REVERT JUMPDEST PUSH32 0x4E487B7100000000000000000000000000000000000000000000000000000000 PUSH1 0x0 MSTORE PUSH1 0x41 PUSH1 0x4 MSTORE PUSH1 0x24 PUSH1 0x0 REVERT JUMPDEST PUSH1 0x0 PUSH1 0x1F NOT PUSH1 0x1F DUP4 ADD AND SWAP1 POP SWAP2 SWAP1 POP JUMP JUMPDEST PUSH32 0x4E6F2065786973746520756E6120706F6C697A6120636F6E206573612069642E PUSH1 0x0 DUP3 ADD MSTORE POP JUMP JUMPDEST PUSH32 0x496E737572616E63652049442068617320616C7265616479206265656E207265 PUSH1 0x0 DUP3 ADD MSTORE PUSH32 0x6769737465726564000000000000000000000000000000000000000000000000 PUSH1 0x20 DUP3 ADD MSTORE POP JUMP JUMPDEST PUSH2 0x168D DUP2 PUSH2 0x146C JUMP JUMPDEST DUP2 EQ PUSH2 0x1698 JUMPI PUSH1 0x0 DUP1 REVERT JUMPDEST POP JUMP JUMPDEST PUSH2 0x16A4 DUP2 PUSH2 0x1476 JUMP JUMPDEST DUP2 EQ PUSH2 0x16AF JUMPI PUSH1 0x0 DUP1 REVERT JUMPDEST POP JUMP JUMPDEST PUSH2 0x16BB DUP2 PUSH2 0x14A8 JUMP JUMPDEST DUP2 EQ PUSH2 0x16C6 JUMPI PUSH1 0x0 DUP1 REVERT JUMPDEST POP JUMP INVALID LOG2 PUSH5 0x6970667358 0x22 SLT KECCAK256 SWAP5 BLOCKHASH SWAP14 SDIV SLOAD PUSH32 0x36721A0481D00AC1DBF9B14795694599DD44694DC6026395C86A64736F6C6343 STOP ADDMOD SUB STOP CALLER "
    },
    "gasEstimates": {
      "creation": {
        "codeDepositCost": "1177400",
        "executionCost": "22087",
        "totalCost": "1199487"
      },
      "external": {
        "MergeBytes(bytes,bytes)": "infinite",
        "addInsurance(address)": "infinite",
        "destructContract()": "31844",
        "getAddressOfInsurance(bytes32)": "2540",
        "getAllHotelsIds()": "infinite",
        "getAllInsurances()": "infinite",
        "getHotelInsurancesData(bytes32)": "infinite",
        "getInsuranceData(bytes32)": "infinite"
      }
    },
    "methodIdentifiers": {
      "MergeBytes(bytes,bytes)": "d1f6d4c5",
      "addInsurance(address)": "dba2812a",
      "destructContract()": "9499e018",
      "getAddressOfInsurance(bytes32)": "37922b0c",
      "getAllHotelsIds()": "92806a04",
      "getAllInsurances()": "11165ee7",
      "getHotelInsurancesData(bytes32)": "a15b6516",
      "getInsuranceData(bytes32)": "4cb74b19"
    }
  },
  "storageLayout": {
    "storage": [
      {
        "astId": 1875,
        "contract": "Spc19.sol:Spc19",
        "label": "owner",
        "offset": 0,
        "slot": "0",
        "type": "t_address_payable"
      },
      {
        "astId": 1879,
        "contract": "Spc19.sol:Spc19",
        "label": "InsuranceLocation",
        "offset": 0,
        "slot": "1",
        "type": "t_mapping(t_bytes32,t_uint256)"
      },
      {
        "astId": 1885,
        "contract": "Spc19.sol:Spc19",
        "label": "hotelInsurances",
        "offset": 0,
        "slot": "2",
        "type": "t_mapping(t_bytes32,t_array(t_contract(Insurance)1564)dyn_storage)"
      },
      {
        "astId": 1889,
        "contract": "Spc19.sol:Spc19",
        "label": "hotelHasInsurances",
        "offset": 0,
        "slot": "3",
        "type": "t_mapping(t_bytes32,t_bool)"
      },
      {
        "astId": 1893,
        "contract": "Spc19.sol:Spc19",
        "label": "idInsuranceToHotel",
        "offset": 0,
        "slot": "4",
        "type": "t_mapping(t_bytes32,t_bytes32)"
      },
      {
        "astId": 1897,
        "contract": "Spc19.sol:Spc19",
        "label": "idInsuranceToAddress",
        "offset": 0,
        "slot": "5",
        "type": "t_mapping(t_bytes32,t_address)"
      },
      {
        "astId": 1900,
        "contract": "Spc19.sol:Spc19",
        "label": "hotels",
        "offset": 0,
        "slot": "6",
        "type": "t_array(t_bytes32)dyn_storage"
      }
    ],
    "types": {
      "t_address": {
        "encoding": "inplace",
        "label": "address",
        "numberOfBytes": "20"
      },
      "t_address_payable": {
        "encoding": "inplace",
        "label": "address payable",
        "numberOfBytes": "20"
      },
      "t_array(t_bytes32)dyn_storage": {
        "base": "t_bytes32",
        "encoding": "dynamic_array",
        "label": "bytes32[]",
        "numberOfBytes": "32"
      },
      "t_array(t_contract(Insurance)1564)dyn_storage": {
        "base": "t_contract(Insurance)1564",
        "encoding": "dynamic_array",
        "label": "contract Insurance[]",
        "numberOfBytes": "32"
      },
      "t_bool": {
        "encoding": "inplace",
        "label": "bool",
        "numberOfBytes": "1"
      },
      "t_bytes32": {
        "encoding": "inplace",
        "label": "bytes32",
        "numberOfBytes": "32"
      },
      "t_contract(Insurance)1564": {
        "encoding": "inplace",
        "label": "contract Insurance",
        "numberOfBytes": "20"
      },
      "t_mapping(t_bytes32,t_address)": {
        "encoding": "mapping",
        "key": "t_bytes32",
        "label": "mapping(bytes32 => address)",
        "numberOfBytes": "32",
        "value": "t_address"
      },
      "t_mapping(t_bytes32,t_array(t_contract(Insurance)1564)dyn_storage)": {
        "encoding": "mapping",
        "key": "t_bytes32",
        "label": "mapping(bytes32 => contract Insurance[])",
        "numberOfBytes": "32",
        "value": "t_array(t_contract(Insurance)1564)dyn_storage"
      },
      "t_mapping(t_bytes32,t_bool)": {
        "encoding": "mapping",
        "key": "t_bytes32",
        "label": "mapping(bytes32 => bool)",
        "numberOfBytes": "32",
        "value": "t_bool"
      },
      "t_mapping(t_bytes32,t_bytes32)": {
        "encoding": "mapping",
        "key": "t_bytes32",
        "label": "mapping(bytes32 => bytes32)",
        "numberOfBytes": "32",
        "value": "t_bytes32"
      },
      "t_mapping(t_bytes32,t_uint256)": {
        "encoding": "mapping",
        "key": "t_bytes32",
        "label": "mapping(bytes32 => uint256)",
        "numberOfBytes": "32",
        "value": "t_uint256"
      },
      "t_uint256": {
        "encoding": "inplace",
        "label": "uint256",
        "numberOfBytes": "32"
      }
    }
  },
  "userdoc": {
    "kind": "user",
    "methods": {
      "MergeBytes(bytes,bytes)": {
        "notice": "Concatenate two array of bytes using the assembly of solidity."
      },
      "addInsurance(address)": {
        "notice": "Adds a new insurance to the hotel which is the taker of it."
      },
      "destructContract()": {
        "notice": "Delete the contract of the blockchain."
      },
      "getAddressOfInsurance(bytes32)": {
        "notice": "Return the address of the specific insurance."
      },
      "getAllHotelsIds()": {
        "notice": "Returns all hotel ids which have at least 1 insurance in this contract."
      },
      "getAllInsurances()": {
        "notice": "Get the information of all the insurances that the Contract have had."
      },
      "getHotelInsurancesData(bytes32)": {
        "notice": "Get the information of all the insurances that an hotel have had."
      },
      "getInsuranceData(bytes32)": {
        "notice": "Get the information of the insurance selected by argument."
      }
    },
    "version": 1
  }
}